{
	"Reputation/TokenBoundAccount.sol": {
		"SimpleToken": {
			"abi": [
				{
					"inputs": [
						{
							"internalType": "string",
							"name": "_employee_ID",
							"type": "string"
						},
						{
							"internalType": "string",
							"name": "_company_ID",
							"type": "string"
						},
						{
							"internalType": "string",
							"name": "_symbol",
							"type": "string"
						},
						{
							"internalType": "uint8",
							"name": "_decimals",
							"type": "uint8"
						},
						{
							"internalType": "uint256",
							"name": "_initialSupply",
							"type": "uint256"
						},
						{
							"internalType": "string",
							"name": "_requested_company_ID",
							"type": "string"
						},
						{
							"internalType": "string",
							"name": "_name",
							"type": "string"
						}
					],
					"stateMutability": "nonpayable",
					"type": "constructor"
				},
				{
					"anonymous": false,
					"inputs": [
						{
							"indexed": true,
							"internalType": "address",
							"name": "from",
							"type": "address"
						},
						{
							"indexed": true,
							"internalType": "address",
							"name": "to",
							"type": "address"
						},
						{
							"indexed": false,
							"internalType": "uint256",
							"name": "value",
							"type": "uint256"
						}
					],
					"name": "Transfer",
					"type": "event"
				},
				{
					"inputs": [
						{
							"internalType": "address",
							"name": "",
							"type": "address"
						}
					],
					"name": "balanceOf",
					"outputs": [
						{
							"internalType": "uint256",
							"name": "",
							"type": "uint256"
						}
					],
					"stateMutability": "view",
					"type": "function"
				},
				{
					"inputs": [],
					"name": "company_ID",
					"outputs": [
						{
							"internalType": "string",
							"name": "",
							"type": "string"
						}
					],
					"stateMutability": "view",
					"type": "function"
				},
				{
					"inputs": [],
					"name": "decimals",
					"outputs": [
						{
							"internalType": "uint8",
							"name": "",
							"type": "uint8"
						}
					],
					"stateMutability": "view",
					"type": "function"
				},
				{
					"inputs": [],
					"name": "employee_ID",
					"outputs": [
						{
							"internalType": "string",
							"name": "",
							"type": "string"
						}
					],
					"stateMutability": "view",
					"type": "function"
				},
				{
					"inputs": [],
					"name": "name",
					"outputs": [
						{
							"internalType": "string",
							"name": "",
							"type": "string"
						}
					],
					"stateMutability": "view",
					"type": "function"
				},
				{
					"inputs": [],
					"name": "requested_company_ID",
					"outputs": [
						{
							"internalType": "string",
							"name": "",
							"type": "string"
						}
					],
					"stateMutability": "view",
					"type": "function"
				},
				{
					"inputs": [],
					"name": "symbol",
					"outputs": [
						{
							"internalType": "string",
							"name": "",
							"type": "string"
						}
					],
					"stateMutability": "view",
					"type": "function"
				},
				{
					"inputs": [],
					"name": "totalSupply",
					"outputs": [
						{
							"internalType": "uint256",
							"name": "",
							"type": "uint256"
						}
					],
					"stateMutability": "view",
					"type": "function"
				},
				{
					"inputs": [
						{
							"internalType": "address",
							"name": "_to",
							"type": "address"
						},
						{
							"internalType": "uint256",
							"name": "_value",
							"type": "uint256"
						}
					],
					"name": "transfer",
					"outputs": [],
					"stateMutability": "nonpayable",
					"type": "function"
				}
			],
			"devdoc": {
				"kind": "dev",
				"methods": {},
				"version": 1
			},
			"evm": {
				"assembly": "    /* \"Reputation/TokenBoundAccount.sol\":28:1211  contract SimpleToken {... */\n  mstore(0x40, 0x80)\n    /* \"Reputation/TokenBoundAccount.sol\":397:945  constructor(... */\n  callvalue\n  dup1\n  iszero\n  tag_1\n  jumpi\n  0x00\n  dup1\n  revert\ntag_1:\n  pop\n  mload(0x40)\n  sub(codesize, bytecodeSize)\n  dup1\n  bytecodeSize\n  dup4\n  codecopy\n  dup2\n  dup2\n  add\n  0x40\n  mstore\n  dup2\n  add\n  swap1\n  tag_2\n  swap2\n  swap1\n  tag_3\n  jump\t// in\ntag_2:\n    /* \"Reputation/TokenBoundAccount.sol\":673:685  _employee_ID */\n  dup7\n    /* \"Reputation/TokenBoundAccount.sol\":659:670  employee_ID */\n  0x04\n    /* \"Reputation/TokenBoundAccount.sol\":659:685  employee_ID = _employee_ID */\n  swap1\n  dup2\n  tag_6\n  swap2\n  swap1\n  tag_7\n  jump\t// in\ntag_6:\n  pop\n    /* \"Reputation/TokenBoundAccount.sol\":708:719  _company_ID */\n  dup6\n    /* \"Reputation/TokenBoundAccount.sol\":695:705  company_ID */\n  0x05\n    /* \"Reputation/TokenBoundAccount.sol\":695:719  company_ID = _company_ID */\n  swap1\n  dup2\n  tag_8\n  swap2\n  swap1\n  tag_7\n  jump\t// in\ntag_8:\n  pop\n    /* \"Reputation/TokenBoundAccount.sol\":737:742  _name */\n  dup1\n    /* \"Reputation/TokenBoundAccount.sol\":730:734  name */\n  0x00\n    /* \"Reputation/TokenBoundAccount.sol\":730:742  name = _name */\n  swap1\n  dup2\n  tag_9\n  swap2\n  swap1\n  tag_7\n  jump\t// in\ntag_9:\n  pop\n    /* \"Reputation/TokenBoundAccount.sol\":761:768  _symbol */\n  dup5\n    /* \"Reputation/TokenBoundAccount.sol\":752:758  symbol */\n  0x01\n    /* \"Reputation/TokenBoundAccount.sol\":752:768  symbol = _symbol */\n  swap1\n  dup2\n  tag_10\n  swap2\n  swap1\n  tag_7\n  jump\t// in\ntag_10:\n  pop\n    /* \"Reputation/TokenBoundAccount.sol\":789:798  _decimals */\n  dup4\n    /* \"Reputation/TokenBoundAccount.sol\":778:786  decimals */\n  0x02\n  0x00\n    /* \"Reputation/TokenBoundAccount.sol\":778:798  decimals = _decimals */\n  0x0100\n  exp\n  dup2\n  sload\n  dup2\n  0xff\n  mul\n  not\n  and\n  swap1\n  dup4\n  0xff\n  and\n  mul\n  or\n  swap1\n  sstore\n  pop\n    /* \"Reputation/TokenBoundAccount.sol\":822:836  _initialSupply */\n  dup3\n    /* \"Reputation/TokenBoundAccount.sol\":808:819  totalSupply */\n  0x03\n    /* \"Reputation/TokenBoundAccount.sol\":808:836  totalSupply = _initialSupply */\n  dup2\n  swap1\n  sstore\n  pop\n    /* \"Reputation/TokenBoundAccount.sol\":870:884  _initialSupply */\n  dup3\n    /* \"Reputation/TokenBoundAccount.sol\":846:855  balanceOf */\n  0x07\n    /* \"Reputation/TokenBoundAccount.sol\":846:867  balanceOf[msg.sender] */\n  0x00\n    /* \"Reputation/TokenBoundAccount.sol\":856:866  msg.sender */\n  caller\n    /* \"Reputation/TokenBoundAccount.sol\":846:867  balanceOf[msg.sender] */\n  0xffffffffffffffffffffffffffffffffffffffff\n  and\n  0xffffffffffffffffffffffffffffffffffffffff\n  and\n  dup2\n  mstore\n  0x20\n  add\n  swap1\n  dup2\n  mstore\n  0x20\n  add\n  0x00\n  keccak256\n    /* \"Reputation/TokenBoundAccount.sol\":846:884  balanceOf[msg.sender] = _initialSupply */\n  dup2\n  swap1\n  sstore\n  pop\n    /* \"Reputation/TokenBoundAccount.sol\":917:938  _requested_company_ID */\n  dup2\n    /* \"Reputation/TokenBoundAccount.sol\":894:914  requested_company_ID */\n  0x06\n    /* \"Reputation/TokenBoundAccount.sol\":894:938  requested_company_ID = _requested_company_ID */\n  swap1\n  dup2\n  tag_11\n  swap2\n  swap1\n  tag_7\n  jump\t// in\ntag_11:\n  pop\n    /* \"Reputation/TokenBoundAccount.sol\":397:945  constructor(... */\n  pop\n  pop\n  pop\n  pop\n  pop\n  pop\n  pop\n    /* \"Reputation/TokenBoundAccount.sol\":28:1211  contract SimpleToken {... */\n  jump(tag_12)\n    /* \"#utility.yul\":7:82   */\ntag_13:\n    /* \"#utility.yul\":40:46   */\n  0x00\n    /* \"#utility.yul\":73:75   */\n  0x40\n    /* \"#utility.yul\":67:76   */\n  mload\n    /* \"#utility.yul\":57:76   */\n  swap1\n  pop\n    /* \"#utility.yul\":7:82   */\n  swap1\n  jump\t// out\n    /* \"#utility.yul\":88:205   */\ntag_14:\n    /* \"#utility.yul\":197:198   */\n  0x00\n    /* \"#utility.yul\":194:195   */\n  dup1\n    /* \"#utility.yul\":187:199   */\n  revert\n    /* \"#utility.yul\":211:328   */\ntag_15:\n    /* \"#utility.yul\":320:321   */\n  0x00\n    /* \"#utility.yul\":317:318   */\n  dup1\n    /* \"#utility.yul\":310:322   */\n  revert\n    /* \"#utility.yul\":334:451   */\ntag_16:\n    /* \"#utility.yul\":443:444   */\n  0x00\n    /* \"#utility.yul\":440:441   */\n  dup1\n    /* \"#utility.yul\":433:445   */\n  revert\n    /* \"#utility.yul\":457:574   */\ntag_17:\n    /* \"#utility.yul\":566:567   */\n  0x00\n    /* \"#utility.yul\":563:564   */\n  dup1\n    /* \"#utility.yul\":556:568   */\n  revert\n    /* \"#utility.yul\":580:682   */\ntag_18:\n    /* \"#utility.yul\":621:627   */\n  0x00\n    /* \"#utility.yul\":672:674   */\n  0x1f\n    /* \"#utility.yul\":668:675   */\n  not\n    /* \"#utility.yul\":663:665   */\n  0x1f\n    /* \"#utility.yul\":656:661   */\n  dup4\n    /* \"#utility.yul\":652:666   */\n  add\n    /* \"#utility.yul\":648:676   */\n  and\n    /* \"#utility.yul\":638:676   */\n  swap1\n  pop\n    /* \"#utility.yul\":580:682   */\n  swap2\n  swap1\n  pop\n  jump\t// out\n    /* \"#utility.yul\":688:868   */\ntag_19:\n    /* \"#utility.yul\":736:813   */\n  0x4e487b7100000000000000000000000000000000000000000000000000000000\n    /* \"#utility.yul\":733:734   */\n  0x00\n    /* \"#utility.yul\":726:814   */\n  mstore\n    /* \"#utility.yul\":833:837   */\n  0x41\n    /* \"#utility.yul\":830:831   */\n  0x04\n    /* \"#utility.yul\":823:838   */\n  mstore\n    /* \"#utility.yul\":857:861   */\n  0x24\n    /* \"#utility.yul\":854:855   */\n  0x00\n    /* \"#utility.yul\":847:862   */\n  revert\n    /* \"#utility.yul\":874:1155   */\ntag_20:\n    /* \"#utility.yul\":957:984   */\n  tag_59\n    /* \"#utility.yul\":979:983   */\n  dup3\n    /* \"#utility.yul\":957:984   */\n  tag_18\n  jump\t// in\ntag_59:\n    /* \"#utility.yul\":949:955   */\n  dup2\n    /* \"#utility.yul\":945:985   */\n  add\n    /* \"#utility.yul\":1087:1093   */\n  dup2\n    /* \"#utility.yul\":1075:1085   */\n  dup2\n    /* \"#utility.yul\":1072:1094   */\n  lt\n    /* \"#utility.yul\":1051:1069   */\n  0xffffffffffffffff\n    /* \"#utility.yul\":1039:1049   */\n  dup3\n    /* \"#utility.yul\":1036:1070   */\n  gt\n    /* \"#utility.yul\":1033:1095   */\n  or\n    /* \"#utility.yul\":1030:1118   */\n  iszero\n  tag_60\n  jumpi\n    /* \"#utility.yul\":1098:1116   */\n  tag_61\n  tag_19\n  jump\t// in\ntag_61:\n    /* \"#utility.yul\":1030:1118   */\ntag_60:\n    /* \"#utility.yul\":1138:1148   */\n  dup1\n    /* \"#utility.yul\":1134:1136   */\n  0x40\n    /* \"#utility.yul\":1127:1149   */\n  mstore\n    /* \"#utility.yul\":917:1155   */\n  pop\n    /* \"#utility.yul\":874:1155   */\n  pop\n  pop\n  jump\t// out\n    /* \"#utility.yul\":1161:1290   */\ntag_21:\n    /* \"#utility.yul\":1195:1201   */\n  0x00\n    /* \"#utility.yul\":1222:1242   */\n  tag_63\n  tag_13\n  jump\t// in\ntag_63:\n    /* \"#utility.yul\":1212:1242   */\n  swap1\n  pop\n    /* \"#utility.yul\":1251:1284   */\n  tag_64\n    /* \"#utility.yul\":1279:1283   */\n  dup3\n    /* \"#utility.yul\":1271:1277   */\n  dup3\n    /* \"#utility.yul\":1251:1284   */\n  tag_20\n  jump\t// in\ntag_64:\n    /* \"#utility.yul\":1161:1290   */\n  swap2\n  swap1\n  pop\n  jump\t// out\n    /* \"#utility.yul\":1296:1604   */\ntag_22:\n    /* \"#utility.yul\":1358:1362   */\n  0x00\n    /* \"#utility.yul\":1448:1466   */\n  0xffffffffffffffff\n    /* \"#utility.yul\":1440:1446   */\n  dup3\n    /* \"#utility.yul\":1437:1467   */\n  gt\n    /* \"#utility.yul\":1434:1490   */\n  iszero\n  tag_66\n  jumpi\n    /* \"#utility.yul\":1470:1488   */\n  tag_67\n  tag_19\n  jump\t// in\ntag_67:\n    /* \"#utility.yul\":1434:1490   */\ntag_66:\n    /* \"#utility.yul\":1508:1537   */\n  tag_68\n    /* \"#utility.yul\":1530:1536   */\n  dup3\n    /* \"#utility.yul\":1508:1537   */\n  tag_18\n  jump\t// in\ntag_68:\n    /* \"#utility.yul\":1500:1537   */\n  swap1\n  pop\n    /* \"#utility.yul\":1592:1596   */\n  0x20\n    /* \"#utility.yul\":1586:1590   */\n  dup2\n    /* \"#utility.yul\":1582:1597   */\n  add\n    /* \"#utility.yul\":1574:1597   */\n  swap1\n  pop\n    /* \"#utility.yul\":1296:1604   */\n  swap2\n  swap1\n  pop\n  jump\t// out\n    /* \"#utility.yul\":1610:1856   */\ntag_23:\n    /* \"#utility.yul\":1691:1692   */\n  0x00\n    /* \"#utility.yul\":1701:1814   */\ntag_70:\n    /* \"#utility.yul\":1715:1721   */\n  dup4\n    /* \"#utility.yul\":1712:1713   */\n  dup2\n    /* \"#utility.yul\":1709:1722   */\n  lt\n    /* \"#utility.yul\":1701:1814   */\n  iszero\n  tag_72\n  jumpi\n    /* \"#utility.yul\":1800:1801   */\n  dup1\n    /* \"#utility.yul\":1795:1798   */\n  dup3\n    /* \"#utility.yul\":1791:1802   */\n  add\n    /* \"#utility.yul\":1785:1803   */\n  mload\n    /* \"#utility.yul\":1781:1782   */\n  dup2\n    /* \"#utility.yul\":1776:1779   */\n  dup5\n    /* \"#utility.yul\":1772:1783   */\n  add\n    /* \"#utility.yul\":1765:1804   */\n  mstore\n    /* \"#utility.yul\":1737:1739   */\n  0x20\n    /* \"#utility.yul\":1734:1735   */\n  dup2\n    /* \"#utility.yul\":1730:1740   */\n  add\n    /* \"#utility.yul\":1725:1740   */\n  swap1\n  pop\n    /* \"#utility.yul\":1701:1814   */\n  jump(tag_70)\ntag_72:\n    /* \"#utility.yul\":1848:1849   */\n  0x00\n    /* \"#utility.yul\":1839:1845   */\n  dup5\n    /* \"#utility.yul\":1834:1837   */\n  dup5\n    /* \"#utility.yul\":1830:1846   */\n  add\n    /* \"#utility.yul\":1823:1850   */\n  mstore\n    /* \"#utility.yul\":1672:1856   */\n  pop\n    /* \"#utility.yul\":1610:1856   */\n  pop\n  pop\n  pop\n  jump\t// out\n    /* \"#utility.yul\":1862:2296   */\ntag_24:\n    /* \"#utility.yul\":1951:1956   */\n  0x00\n    /* \"#utility.yul\":1976:2042   */\n  tag_74\n    /* \"#utility.yul\":1992:2041   */\n  tag_75\n    /* \"#utility.yul\":2034:2040   */\n  dup5\n    /* \"#utility.yul\":1992:2041   */\n  tag_22\n  jump\t// in\ntag_75:\n    /* \"#utility.yul\":1976:2042   */\n  tag_21\n  jump\t// in\ntag_74:\n    /* \"#utility.yul\":1967:2042   */\n  swap1\n  pop\n    /* \"#utility.yul\":2065:2071   */\n  dup3\n    /* \"#utility.yul\":2058:2063   */\n  dup2\n    /* \"#utility.yul\":2051:2072   */\n  mstore\n    /* \"#utility.yul\":2103:2107   */\n  0x20\n    /* \"#utility.yul\":2096:2101   */\n  dup2\n    /* \"#utility.yul\":2092:2108   */\n  add\n    /* \"#utility.yul\":2141:2144   */\n  dup5\n    /* \"#utility.yul\":2132:2138   */\n  dup5\n    /* \"#utility.yul\":2127:2130   */\n  dup5\n    /* \"#utility.yul\":2123:2139   */\n  add\n    /* \"#utility.yul\":2120:2145   */\n  gt\n    /* \"#utility.yul\":2117:2229   */\n  iszero\n  tag_76\n  jumpi\n    /* \"#utility.yul\":2148:2227   */\n  tag_77\n  tag_17\n  jump\t// in\ntag_77:\n    /* \"#utility.yul\":2117:2229   */\ntag_76:\n    /* \"#utility.yul\":2238:2290   */\n  tag_78\n    /* \"#utility.yul\":2283:2289   */\n  dup5\n    /* \"#utility.yul\":2278:2281   */\n  dup3\n    /* \"#utility.yul\":2273:2276   */\n  dup6\n    /* \"#utility.yul\":2238:2290   */\n  tag_23\n  jump\t// in\ntag_78:\n    /* \"#utility.yul\":1957:2296   */\n  pop\n    /* \"#utility.yul\":1862:2296   */\n  swap4\n  swap3\n  pop\n  pop\n  pop\n  jump\t// out\n    /* \"#utility.yul\":2316:2671   */\ntag_25:\n    /* \"#utility.yul\":2383:2388   */\n  0x00\n    /* \"#utility.yul\":2432:2435   */\n  dup3\n    /* \"#utility.yul\":2425:2429   */\n  0x1f\n    /* \"#utility.yul\":2417:2423   */\n  dup4\n    /* \"#utility.yul\":2413:2430   */\n  add\n    /* \"#utility.yul\":2409:2436   */\n  slt\n    /* \"#utility.yul\":2399:2521   */\n  tag_80\n  jumpi\n    /* \"#utility.yul\":2440:2519   */\n  tag_81\n  tag_16\n  jump\t// in\ntag_81:\n    /* \"#utility.yul\":2399:2521   */\ntag_80:\n    /* \"#utility.yul\":2550:2556   */\n  dup2\n    /* \"#utility.yul\":2544:2557   */\n  mload\n    /* \"#utility.yul\":2575:2665   */\n  tag_82\n    /* \"#utility.yul\":2661:2664   */\n  dup5\n    /* \"#utility.yul\":2653:2659   */\n  dup3\n    /* \"#utility.yul\":2646:2650   */\n  0x20\n    /* \"#utility.yul\":2638:2644   */\n  dup7\n    /* \"#utility.yul\":2634:2651   */\n  add\n    /* \"#utility.yul\":2575:2665   */\n  tag_24\n  jump\t// in\ntag_82:\n    /* \"#utility.yul\":2566:2665   */\n  swap2\n  pop\n    /* \"#utility.yul\":2389:2671   */\n  pop\n    /* \"#utility.yul\":2316:2671   */\n  swap3\n  swap2\n  pop\n  pop\n  jump\t// out\n    /* \"#utility.yul\":2677:2763   */\ntag_26:\n    /* \"#utility.yul\":2712:2719   */\n  0x00\n    /* \"#utility.yul\":2752:2756   */\n  0xff\n    /* \"#utility.yul\":2745:2750   */\n  dup3\n    /* \"#utility.yul\":2741:2757   */\n  and\n    /* \"#utility.yul\":2730:2757   */\n  swap1\n  pop\n    /* \"#utility.yul\":2677:2763   */\n  swap2\n  swap1\n  pop\n  jump\t// out\n    /* \"#utility.yul\":2769:2887   */\ntag_27:\n    /* \"#utility.yul\":2840:2862   */\n  tag_85\n    /* \"#utility.yul\":2856:2861   */\n  dup2\n    /* \"#utility.yul\":2840:2862   */\n  tag_26\n  jump\t// in\ntag_85:\n    /* \"#utility.yul\":2833:2838   */\n  dup2\n    /* \"#utility.yul\":2830:2863   */\n  eq\n    /* \"#utility.yul\":2820:2881   */\n  tag_86\n  jumpi\n    /* \"#utility.yul\":2877:2878   */\n  0x00\n    /* \"#utility.yul\":2874:2875   */\n  dup1\n    /* \"#utility.yul\":2867:2879   */\n  revert\n    /* \"#utility.yul\":2820:2881   */\ntag_86:\n    /* \"#utility.yul\":2769:2887   */\n  pop\n  jump\t// out\n    /* \"#utility.yul\":2893:3032   */\ntag_28:\n    /* \"#utility.yul\":2948:2953   */\n  0x00\n    /* \"#utility.yul\":2979:2985   */\n  dup2\n    /* \"#utility.yul\":2973:2986   */\n  mload\n    /* \"#utility.yul\":2964:2986   */\n  swap1\n  pop\n    /* \"#utility.yul\":2995:3026   */\n  tag_88\n    /* \"#utility.yul\":3020:3025   */\n  dup2\n    /* \"#utility.yul\":2995:3026   */\n  tag_27\n  jump\t// in\ntag_88:\n    /* \"#utility.yul\":2893:3032   */\n  swap3\n  swap2\n  pop\n  pop\n  jump\t// out\n    /* \"#utility.yul\":3038:3115   */\ntag_29:\n    /* \"#utility.yul\":3075:3082   */\n  0x00\n    /* \"#utility.yul\":3104:3109   */\n  dup2\n    /* \"#utility.yul\":3093:3109   */\n  swap1\n  pop\n    /* \"#utility.yul\":3038:3115   */\n  swap2\n  swap1\n  pop\n  jump\t// out\n    /* \"#utility.yul\":3121:3243   */\ntag_30:\n    /* \"#utility.yul\":3194:3218   */\n  tag_91\n    /* \"#utility.yul\":3212:3217   */\n  dup2\n    /* \"#utility.yul\":3194:3218   */\n  tag_29\n  jump\t// in\ntag_91:\n    /* \"#utility.yul\":3187:3192   */\n  dup2\n    /* \"#utility.yul\":3184:3219   */\n  eq\n    /* \"#utility.yul\":3174:3237   */\n  tag_92\n  jumpi\n    /* \"#utility.yul\":3233:3234   */\n  0x00\n    /* \"#utility.yul\":3230:3231   */\n  dup1\n    /* \"#utility.yul\":3223:3235   */\n  revert\n    /* \"#utility.yul\":3174:3237   */\ntag_92:\n    /* \"#utility.yul\":3121:3243   */\n  pop\n  jump\t// out\n    /* \"#utility.yul\":3249:3392   */\ntag_31:\n    /* \"#utility.yul\":3306:3311   */\n  0x00\n    /* \"#utility.yul\":3337:3343   */\n  dup2\n    /* \"#utility.yul\":3331:3344   */\n  mload\n    /* \"#utility.yul\":3322:3344   */\n  swap1\n  pop\n    /* \"#utility.yul\":3353:3386   */\n  tag_94\n    /* \"#utility.yul\":3380:3385   */\n  dup2\n    /* \"#utility.yul\":3353:3386   */\n  tag_30\n  jump\t// in\ntag_94:\n    /* \"#utility.yul\":3249:3392   */\n  swap3\n  swap2\n  pop\n  pop\n  jump\t// out\n    /* \"#utility.yul\":3398:5550   */\ntag_3:\n    /* \"#utility.yul\":3570:3576   */\n  0x00\n    /* \"#utility.yul\":3578:3584   */\n  dup1\n    /* \"#utility.yul\":3586:3592   */\n  0x00\n    /* \"#utility.yul\":3594:3600   */\n  dup1\n    /* \"#utility.yul\":3602:3608   */\n  0x00\n    /* \"#utility.yul\":3610:3616   */\n  dup1\n    /* \"#utility.yul\":3618:3624   */\n  0x00\n    /* \"#utility.yul\":3667:3670   */\n  0xe0\n    /* \"#utility.yul\":3655:3664   */\n  dup9\n    /* \"#utility.yul\":3646:3653   */\n  dup11\n    /* \"#utility.yul\":3642:3665   */\n  sub\n    /* \"#utility.yul\":3638:3671   */\n  slt\n    /* \"#utility.yul\":3635:3755   */\n  iszero\n  tag_96\n  jumpi\n    /* \"#utility.yul\":3674:3753   */\n  tag_97\n  tag_14\n  jump\t// in\ntag_97:\n    /* \"#utility.yul\":3635:3755   */\ntag_96:\n    /* \"#utility.yul\":3815:3816   */\n  0x00\n    /* \"#utility.yul\":3804:3813   */\n  dup9\n    /* \"#utility.yul\":3800:3817   */\n  add\n    /* \"#utility.yul\":3794:3818   */\n  mload\n    /* \"#utility.yul\":3845:3863   */\n  0xffffffffffffffff\n    /* \"#utility.yul\":3837:3843   */\n  dup2\n    /* \"#utility.yul\":3834:3864   */\n  gt\n    /* \"#utility.yul\":3831:3948   */\n  iszero\n  tag_98\n  jumpi\n    /* \"#utility.yul\":3867:3946   */\n  tag_99\n  tag_15\n  jump\t// in\ntag_99:\n    /* \"#utility.yul\":3831:3948   */\ntag_98:\n    /* \"#utility.yul\":3972:4046   */\n  tag_100\n    /* \"#utility.yul\":4038:4045   */\n  dup11\n    /* \"#utility.yul\":4029:4035   */\n  dup3\n    /* \"#utility.yul\":4018:4027   */\n  dup12\n    /* \"#utility.yul\":4014:4036   */\n  add\n    /* \"#utility.yul\":3972:4046   */\n  tag_25\n  jump\t// in\ntag_100:\n    /* \"#utility.yul\":3962:4046   */\n  swap8\n  pop\n    /* \"#utility.yul\":3765:4056   */\n  pop\n    /* \"#utility.yul\":4116:4118   */\n  0x20\n    /* \"#utility.yul\":4105:4114   */\n  dup9\n    /* \"#utility.yul\":4101:4119   */\n  add\n    /* \"#utility.yul\":4095:4120   */\n  mload\n    /* \"#utility.yul\":4147:4165   */\n  0xffffffffffffffff\n    /* \"#utility.yul\":4139:4145   */\n  dup2\n    /* \"#utility.yul\":4136:4166   */\n  gt\n    /* \"#utility.yul\":4133:4250   */\n  iszero\n  tag_101\n  jumpi\n    /* \"#utility.yul\":4169:4248   */\n  tag_102\n  tag_15\n  jump\t// in\ntag_102:\n    /* \"#utility.yul\":4133:4250   */\ntag_101:\n    /* \"#utility.yul\":4274:4348   */\n  tag_103\n    /* \"#utility.yul\":4340:4347   */\n  dup11\n    /* \"#utility.yul\":4331:4337   */\n  dup3\n    /* \"#utility.yul\":4320:4329   */\n  dup12\n    /* \"#utility.yul\":4316:4338   */\n  add\n    /* \"#utility.yul\":4274:4348   */\n  tag_25\n  jump\t// in\ntag_103:\n    /* \"#utility.yul\":4264:4348   */\n  swap7\n  pop\n    /* \"#utility.yul\":4066:4358   */\n  pop\n    /* \"#utility.yul\":4418:4420   */\n  0x40\n    /* \"#utility.yul\":4407:4416   */\n  dup9\n    /* \"#utility.yul\":4403:4421   */\n  add\n    /* \"#utility.yul\":4397:4422   */\n  mload\n    /* \"#utility.yul\":4449:4467   */\n  0xffffffffffffffff\n    /* \"#utility.yul\":4441:4447   */\n  dup2\n    /* \"#utility.yul\":4438:4468   */\n  gt\n    /* \"#utility.yul\":4435:4552   */\n  iszero\n  tag_104\n  jumpi\n    /* \"#utility.yul\":4471:4550   */\n  tag_105\n  tag_15\n  jump\t// in\ntag_105:\n    /* \"#utility.yul\":4435:4552   */\ntag_104:\n    /* \"#utility.yul\":4576:4650   */\n  tag_106\n    /* \"#utility.yul\":4642:4649   */\n  dup11\n    /* \"#utility.yul\":4633:4639   */\n  dup3\n    /* \"#utility.yul\":4622:4631   */\n  dup12\n    /* \"#utility.yul\":4618:4640   */\n  add\n    /* \"#utility.yul\":4576:4650   */\n  tag_25\n  jump\t// in\ntag_106:\n    /* \"#utility.yul\":4566:4650   */\n  swap6\n  pop\n    /* \"#utility.yul\":4368:4660   */\n  pop\n    /* \"#utility.yul\":4699:4701   */\n  0x60\n    /* \"#utility.yul\":4725:4787   */\n  tag_107\n    /* \"#utility.yul\":4779:4786   */\n  dup11\n    /* \"#utility.yul\":4770:4776   */\n  dup3\n    /* \"#utility.yul\":4759:4768   */\n  dup12\n    /* \"#utility.yul\":4755:4777   */\n  add\n    /* \"#utility.yul\":4725:4787   */\n  tag_28\n  jump\t// in\ntag_107:\n    /* \"#utility.yul\":4715:4787   */\n  swap5\n  pop\n    /* \"#utility.yul\":4670:4797   */\n  pop\n    /* \"#utility.yul\":4836:4839   */\n  0x80\n    /* \"#utility.yul\":4863:4927   */\n  tag_108\n    /* \"#utility.yul\":4919:4926   */\n  dup11\n    /* \"#utility.yul\":4910:4916   */\n  dup3\n    /* \"#utility.yul\":4899:4908   */\n  dup12\n    /* \"#utility.yul\":4895:4917   */\n  add\n    /* \"#utility.yul\":4863:4927   */\n  tag_31\n  jump\t// in\ntag_108:\n    /* \"#utility.yul\":4853:4927   */\n  swap4\n  pop\n    /* \"#utility.yul\":4807:4937   */\n  pop\n    /* \"#utility.yul\":4997:5000   */\n  0xa0\n    /* \"#utility.yul\":4986:4995   */\n  dup9\n    /* \"#utility.yul\":4982:5001   */\n  add\n    /* \"#utility.yul\":4976:5002   */\n  mload\n    /* \"#utility.yul\":5029:5047   */\n  0xffffffffffffffff\n    /* \"#utility.yul\":5021:5027   */\n  dup2\n    /* \"#utility.yul\":5018:5048   */\n  gt\n    /* \"#utility.yul\":5015:5132   */\n  iszero\n  tag_109\n  jumpi\n    /* \"#utility.yul\":5051:5130   */\n  tag_110\n  tag_15\n  jump\t// in\ntag_110:\n    /* \"#utility.yul\":5015:5132   */\ntag_109:\n    /* \"#utility.yul\":5156:5230   */\n  tag_111\n    /* \"#utility.yul\":5222:5229   */\n  dup11\n    /* \"#utility.yul\":5213:5219   */\n  dup3\n    /* \"#utility.yul\":5202:5211   */\n  dup12\n    /* \"#utility.yul\":5198:5220   */\n  add\n    /* \"#utility.yul\":5156:5230   */\n  tag_25\n  jump\t// in\ntag_111:\n    /* \"#utility.yul\":5146:5230   */\n  swap3\n  pop\n    /* \"#utility.yul\":4947:5240   */\n  pop\n    /* \"#utility.yul\":5300:5303   */\n  0xc0\n    /* \"#utility.yul\":5289:5298   */\n  dup9\n    /* \"#utility.yul\":5285:5304   */\n  add\n    /* \"#utility.yul\":5279:5305   */\n  mload\n    /* \"#utility.yul\":5332:5350   */\n  0xffffffffffffffff\n    /* \"#utility.yul\":5324:5330   */\n  dup2\n    /* \"#utility.yul\":5321:5351   */\n  gt\n    /* \"#utility.yul\":5318:5435   */\n  iszero\n  tag_112\n  jumpi\n    /* \"#utility.yul\":5354:5433   */\n  tag_113\n  tag_15\n  jump\t// in\ntag_113:\n    /* \"#utility.yul\":5318:5435   */\ntag_112:\n    /* \"#utility.yul\":5459:5533   */\n  tag_114\n    /* \"#utility.yul\":5525:5532   */\n  dup11\n    /* \"#utility.yul\":5516:5522   */\n  dup3\n    /* \"#utility.yul\":5505:5514   */\n  dup12\n    /* \"#utility.yul\":5501:5523   */\n  add\n    /* \"#utility.yul\":5459:5533   */\n  tag_25\n  jump\t// in\ntag_114:\n    /* \"#utility.yul\":5449:5533   */\n  swap2\n  pop\n    /* \"#utility.yul\":5250:5543   */\n  pop\n    /* \"#utility.yul\":3398:5550   */\n  swap3\n  swap6\n  swap9\n  swap2\n  swap5\n  swap8\n  pop\n  swap3\n  swap6\n  pop\n  jump\t// out\n    /* \"#utility.yul\":5556:5655   */\ntag_32:\n    /* \"#utility.yul\":5608:5614   */\n  0x00\n    /* \"#utility.yul\":5642:5647   */\n  dup2\n    /* \"#utility.yul\":5636:5648   */\n  mload\n    /* \"#utility.yul\":5626:5648   */\n  swap1\n  pop\n    /* \"#utility.yul\":5556:5655   */\n  swap2\n  swap1\n  pop\n  jump\t// out\n    /* \"#utility.yul\":5661:5841   */\ntag_33:\n    /* \"#utility.yul\":5709:5786   */\n  0x4e487b7100000000000000000000000000000000000000000000000000000000\n    /* \"#utility.yul\":5706:5707   */\n  0x00\n    /* \"#utility.yul\":5699:5787   */\n  mstore\n    /* \"#utility.yul\":5806:5810   */\n  0x22\n    /* \"#utility.yul\":5803:5804   */\n  0x04\n    /* \"#utility.yul\":5796:5811   */\n  mstore\n    /* \"#utility.yul\":5830:5834   */\n  0x24\n    /* \"#utility.yul\":5827:5828   */\n  0x00\n    /* \"#utility.yul\":5820:5835   */\n  revert\n    /* \"#utility.yul\":5847:6167   */\ntag_34:\n    /* \"#utility.yul\":5891:5897   */\n  0x00\n    /* \"#utility.yul\":5928:5929   */\n  0x02\n    /* \"#utility.yul\":5922:5926   */\n  dup3\n    /* \"#utility.yul\":5918:5930   */\n  div\n    /* \"#utility.yul\":5908:5930   */\n  swap1\n  pop\n    /* \"#utility.yul\":5975:5976   */\n  0x01\n    /* \"#utility.yul\":5969:5973   */\n  dup3\n    /* \"#utility.yul\":5965:5977   */\n  and\n    /* \"#utility.yul\":5996:6014   */\n  dup1\n    /* \"#utility.yul\":5986:6067   */\n  tag_118\n  jumpi\n    /* \"#utility.yul\":6052:6056   */\n  0x7f\n    /* \"#utility.yul\":6044:6050   */\n  dup3\n    /* \"#utility.yul\":6040:6057   */\n  and\n    /* \"#utility.yul\":6030:6057   */\n  swap2\n  pop\n    /* \"#utility.yul\":5986:6067   */\ntag_118:\n    /* \"#utility.yul\":6114:6116   */\n  0x20\n    /* \"#utility.yul\":6106:6112   */\n  dup3\n    /* \"#utility.yul\":6103:6117   */\n  lt\n    /* \"#utility.yul\":6083:6101   */\n  dup2\n    /* \"#utility.yul\":6080:6118   */\n  sub\n    /* \"#utility.yul\":6077:6161   */\n  tag_119\n  jumpi\n    /* \"#utility.yul\":6133:6151   */\n  tag_120\n  tag_33\n  jump\t// in\ntag_120:\n    /* \"#utility.yul\":6077:6161   */\ntag_119:\n    /* \"#utility.yul\":5898:6167   */\n  pop\n    /* \"#utility.yul\":5847:6167   */\n  swap2\n  swap1\n  pop\n  jump\t// out\n    /* \"#utility.yul\":6173:6314   */\ntag_35:\n    /* \"#utility.yul\":6222:6226   */\n  0x00\n    /* \"#utility.yul\":6245:6248   */\n  dup2\n    /* \"#utility.yul\":6237:6248   */\n  swap1\n  pop\n    /* \"#utility.yul\":6268:6271   */\n  dup2\n    /* \"#utility.yul\":6265:6266   */\n  0x00\n    /* \"#utility.yul\":6258:6272   */\n  mstore\n    /* \"#utility.yul\":6302:6306   */\n  0x20\n    /* \"#utility.yul\":6299:6300   */\n  0x00\n    /* \"#utility.yul\":6289:6307   */\n  keccak256\n    /* \"#utility.yul\":6281:6307   */\n  swap1\n  pop\n    /* \"#utility.yul\":6173:6314   */\n  swap2\n  swap1\n  pop\n  jump\t// out\n    /* \"#utility.yul\":6320:6413   */\ntag_36:\n    /* \"#utility.yul\":6357:6363   */\n  0x00\n    /* \"#utility.yul\":6404:6406   */\n  0x20\n    /* \"#utility.yul\":6399:6401   */\n  0x1f\n    /* \"#utility.yul\":6392:6397   */\n  dup4\n    /* \"#utility.yul\":6388:6402   */\n  add\n    /* \"#utility.yul\":6384:6407   */\n  div\n    /* \"#utility.yul\":6374:6407   */\n  swap1\n  pop\n    /* \"#utility.yul\":6320:6413   */\n  swap2\n  swap1\n  pop\n  jump\t// out\n    /* \"#utility.yul\":6419:6526   */\ntag_37:\n    /* \"#utility.yul\":6463:6471   */\n  0x00\n    /* \"#utility.yul\":6513:6518   */\n  dup3\n    /* \"#utility.yul\":6507:6511   */\n  dup3\n    /* \"#utility.yul\":6503:6519   */\n  shl\n    /* \"#utility.yul\":6482:6519   */\n  swap1\n  pop\n    /* \"#utility.yul\":6419:6526   */\n  swap3\n  swap2\n  pop\n  pop\n  jump\t// out\n    /* \"#utility.yul\":6532:6925   */\ntag_38:\n    /* \"#utility.yul\":6601:6607   */\n  0x00\n    /* \"#utility.yul\":6651:6652   */\n  0x08\n    /* \"#utility.yul\":6639:6649   */\n  dup4\n    /* \"#utility.yul\":6635:6653   */\n  mul\n    /* \"#utility.yul\":6674:6771   */\n  tag_125\n    /* \"#utility.yul\":6704:6770   */\n  0xffffffffffffffffffffffffffffffffffffffffffffffffffffffffffffffff\n    /* \"#utility.yul\":6693:6702   */\n  dup3\n    /* \"#utility.yul\":6674:6771   */\n  tag_37\n  jump\t// in\ntag_125:\n    /* \"#utility.yul\":6792:6831   */\n  tag_126\n    /* \"#utility.yul\":6822:6830   */\n  dup7\n    /* \"#utility.yul\":6811:6820   */\n  dup4\n    /* \"#utility.yul\":6792:6831   */\n  tag_37\n  jump\t// in\ntag_126:\n    /* \"#utility.yul\":6780:6831   */\n  swap6\n  pop\n    /* \"#utility.yul\":6864:6868   */\n  dup1\n    /* \"#utility.yul\":6860:6869   */\n  not\n    /* \"#utility.yul\":6853:6858   */\n  dup5\n    /* \"#utility.yul\":6849:6870   */\n  and\n    /* \"#utility.yul\":6840:6870   */\n  swap4\n  pop\n    /* \"#utility.yul\":6913:6917   */\n  dup1\n    /* \"#utility.yul\":6903:6911   */\n  dup7\n    /* \"#utility.yul\":6899:6918   */\n  and\n    /* \"#utility.yul\":6892:6897   */\n  dup5\n    /* \"#utility.yul\":6889:6919   */\n  or\n    /* \"#utility.yul\":6879:6919   */\n  swap3\n  pop\n    /* \"#utility.yul\":6608:6925   */\n  pop\n  pop\n    /* \"#utility.yul\":6532:6925   */\n  swap4\n  swap3\n  pop\n  pop\n  pop\n  jump\t// out\n    /* \"#utility.yul\":6931:6991   */\ntag_39:\n    /* \"#utility.yul\":6959:6962   */\n  0x00\n    /* \"#utility.yul\":6980:6985   */\n  dup2\n    /* \"#utility.yul\":6973:6985   */\n  swap1\n  pop\n    /* \"#utility.yul\":6931:6991   */\n  swap2\n  swap1\n  pop\n  jump\t// out\n    /* \"#utility.yul\":6997:7139   */\ntag_40:\n    /* \"#utility.yul\":7047:7056   */\n  0x00\n    /* \"#utility.yul\":7080:7133   */\n  tag_129\n    /* \"#utility.yul\":7098:7132   */\n  tag_130\n    /* \"#utility.yul\":7107:7131   */\n  tag_131\n    /* \"#utility.yul\":7125:7130   */\n  dup5\n    /* \"#utility.yul\":7107:7131   */\n  tag_29\n  jump\t// in\ntag_131:\n    /* \"#utility.yul\":7098:7132   */\n  tag_39\n  jump\t// in\ntag_130:\n    /* \"#utility.yul\":7080:7133   */\n  tag_29\n  jump\t// in\ntag_129:\n    /* \"#utility.yul\":7067:7133   */\n  swap1\n  pop\n    /* \"#utility.yul\":6997:7139   */\n  swap2\n  swap1\n  pop\n  jump\t// out\n    /* \"#utility.yul\":7145:7220   */\ntag_41:\n    /* \"#utility.yul\":7188:7191   */\n  0x00\n    /* \"#utility.yul\":7209:7214   */\n  dup2\n    /* \"#utility.yul\":7202:7214   */\n  swap1\n  pop\n    /* \"#utility.yul\":7145:7220   */\n  swap2\n  swap1\n  pop\n  jump\t// out\n    /* \"#utility.yul\":7226:7495   */\ntag_42:\n    /* \"#utility.yul\":7336:7375   */\n  tag_134\n    /* \"#utility.yul\":7367:7374   */\n  dup4\n    /* \"#utility.yul\":7336:7375   */\n  tag_40\n  jump\t// in\ntag_134:\n    /* \"#utility.yul\":7397:7488   */\n  tag_135\n    /* \"#utility.yul\":7446:7487   */\n  tag_136\n    /* \"#utility.yul\":7470:7486   */\n  dup3\n    /* \"#utility.yul\":7446:7487   */\n  tag_41\n  jump\t// in\ntag_136:\n    /* \"#utility.yul\":7438:7444   */\n  dup5\n    /* \"#utility.yul\":7431:7435   */\n  dup5\n    /* \"#utility.yul\":7425:7436   */\n  sload\n    /* \"#utility.yul\":7397:7488   */\n  tag_38\n  jump\t// in\ntag_135:\n    /* \"#utility.yul\":7391:7395   */\n  dup3\n    /* \"#utility.yul\":7384:7489   */\n  sstore\n    /* \"#utility.yul\":7302:7495   */\n  pop\n    /* \"#utility.yul\":7226:7495   */\n  pop\n  pop\n  pop\n  jump\t// out\n    /* \"#utility.yul\":7501:7574   */\ntag_43:\n    /* \"#utility.yul\":7546:7549   */\n  0x00\n    /* \"#utility.yul\":7501:7574   */\n  swap1\n  jump\t// out\n    /* \"#utility.yul\":7580:7769   */\ntag_44:\n    /* \"#utility.yul\":7657:7689   */\n  tag_139\n  tag_43\n  jump\t// in\ntag_139:\n    /* \"#utility.yul\":7698:7763   */\n  tag_140\n    /* \"#utility.yul\":7756:7762   */\n  dup2\n    /* \"#utility.yul\":7748:7754   */\n  dup5\n    /* \"#utility.yul\":7742:7746   */\n  dup5\n    /* \"#utility.yul\":7698:7763   */\n  tag_42\n  jump\t// in\ntag_140:\n    /* \"#utility.yul\":7633:7769   */\n  pop\n    /* \"#utility.yul\":7580:7769   */\n  pop\n  pop\n  jump\t// out\n    /* \"#utility.yul\":7775:7961   */\ntag_45:\n    /* \"#utility.yul\":7835:7955   */\ntag_142:\n    /* \"#utility.yul\":7852:7855   */\n  dup2\n    /* \"#utility.yul\":7845:7850   */\n  dup2\n    /* \"#utility.yul\":7842:7856   */\n  lt\n    /* \"#utility.yul\":7835:7955   */\n  iszero\n  tag_144\n  jumpi\n    /* \"#utility.yul\":7906:7945   */\n  tag_145\n    /* \"#utility.yul\":7943:7944   */\n  0x00\n    /* \"#utility.yul\":7936:7941   */\n  dup3\n    /* \"#utility.yul\":7906:7945   */\n  tag_44\n  jump\t// in\ntag_145:\n    /* \"#utility.yul\":7879:7880   */\n  0x01\n    /* \"#utility.yul\":7872:7877   */\n  dup2\n    /* \"#utility.yul\":7868:7881   */\n  add\n    /* \"#utility.yul\":7859:7881   */\n  swap1\n  pop\n    /* \"#utility.yul\":7835:7955   */\n  jump(tag_142)\ntag_144:\n    /* \"#utility.yul\":7775:7961   */\n  pop\n  pop\n  jump\t// out\n    /* \"#utility.yul\":7967:8510   */\ntag_46:\n    /* \"#utility.yul\":8068:8070   */\n  0x1f\n    /* \"#utility.yul\":8063:8066   */\n  dup3\n    /* \"#utility.yul\":8060:8071   */\n  gt\n    /* \"#utility.yul\":8057:8503   */\n  iszero\n  tag_147\n  jumpi\n    /* \"#utility.yul\":8102:8140   */\n  tag_148\n    /* \"#utility.yul\":8134:8139   */\n  dup2\n    /* \"#utility.yul\":8102:8140   */\n  tag_35\n  jump\t// in\ntag_148:\n    /* \"#utility.yul\":8186:8215   */\n  tag_149\n    /* \"#utility.yul\":8204:8214   */\n  dup5\n    /* \"#utility.yul\":8186:8215   */\n  tag_36\n  jump\t// in\ntag_149:\n    /* \"#utility.yul\":8176:8184   */\n  dup2\n    /* \"#utility.yul\":8172:8216   */\n  add\n    /* \"#utility.yul\":8369:8371   */\n  0x20\n    /* \"#utility.yul\":8357:8367   */\n  dup6\n    /* \"#utility.yul\":8354:8372   */\n  lt\n    /* \"#utility.yul\":8351:8400   */\n  iszero\n  tag_150\n  jumpi\n    /* \"#utility.yul\":8390:8398   */\n  dup2\n    /* \"#utility.yul\":8375:8398   */\n  swap1\n  pop\n    /* \"#utility.yul\":8351:8400   */\ntag_150:\n    /* \"#utility.yul\":8413:8493   */\n  tag_151\n    /* \"#utility.yul\":8469:8491   */\n  tag_152\n    /* \"#utility.yul\":8487:8490   */\n  dup6\n    /* \"#utility.yul\":8469:8491   */\n  tag_36\n  jump\t// in\ntag_152:\n    /* \"#utility.yul\":8459:8467   */\n  dup4\n    /* \"#utility.yul\":8455:8492   */\n  add\n    /* \"#utility.yul\":8442:8453   */\n  dup3\n    /* \"#utility.yul\":8413:8493   */\n  tag_45\n  jump\t// in\ntag_151:\n    /* \"#utility.yul\":8072:8503   */\n  pop\n  pop\n    /* \"#utility.yul\":8057:8503   */\ntag_147:\n    /* \"#utility.yul\":7967:8510   */\n  pop\n  pop\n  pop\n  jump\t// out\n    /* \"#utility.yul\":8516:8633   */\ntag_47:\n    /* \"#utility.yul\":8570:8578   */\n  0x00\n    /* \"#utility.yul\":8620:8625   */\n  dup3\n    /* \"#utility.yul\":8614:8618   */\n  dup3\n    /* \"#utility.yul\":8610:8626   */\n  shr\n    /* \"#utility.yul\":8589:8626   */\n  swap1\n  pop\n    /* \"#utility.yul\":8516:8633   */\n  swap3\n  swap2\n  pop\n  pop\n  jump\t// out\n    /* \"#utility.yul\":8639:8808   */\ntag_48:\n    /* \"#utility.yul\":8683:8689   */\n  0x00\n    /* \"#utility.yul\":8716:8767   */\n  tag_155\n    /* \"#utility.yul\":8764:8765   */\n  0x00\n    /* \"#utility.yul\":8760:8766   */\n  not\n    /* \"#utility.yul\":8752:8757   */\n  dup5\n    /* \"#utility.yul\":8749:8750   */\n  0x08\n    /* \"#utility.yul\":8745:8758   */\n  mul\n    /* \"#utility.yul\":8716:8767   */\n  tag_47\n  jump\t// in\ntag_155:\n    /* \"#utility.yul\":8712:8768   */\n  not\n    /* \"#utility.yul\":8797:8801   */\n  dup1\n    /* \"#utility.yul\":8791:8795   */\n  dup4\n    /* \"#utility.yul\":8787:8802   */\n  and\n    /* \"#utility.yul\":8777:8802   */\n  swap2\n  pop\n    /* \"#utility.yul\":8690:8808   */\n  pop\n    /* \"#utility.yul\":8639:8808   */\n  swap3\n  swap2\n  pop\n  pop\n  jump\t// out\n    /* \"#utility.yul\":8813:9108   */\ntag_49:\n    /* \"#utility.yul\":8889:8893   */\n  0x00\n    /* \"#utility.yul\":9035:9064   */\n  tag_157\n    /* \"#utility.yul\":9060:9063   */\n  dup4\n    /* \"#utility.yul\":9054:9058   */\n  dup4\n    /* \"#utility.yul\":9035:9064   */\n  tag_48\n  jump\t// in\ntag_157:\n    /* \"#utility.yul\":9027:9064   */\n  swap2\n  pop\n    /* \"#utility.yul\":9097:9100   */\n  dup3\n    /* \"#utility.yul\":9094:9095   */\n  0x02\n    /* \"#utility.yul\":9090:9101   */\n  mul\n    /* \"#utility.yul\":9084:9088   */\n  dup3\n    /* \"#utility.yul\":9081:9102   */\n  or\n    /* \"#utility.yul\":9073:9102   */\n  swap1\n  pop\n    /* \"#utility.yul\":8813:9108   */\n  swap3\n  swap2\n  pop\n  pop\n  jump\t// out\n    /* \"#utility.yul\":9113:10508   */\ntag_7:\n    /* \"#utility.yul\":9230:9267   */\n  tag_159\n    /* \"#utility.yul\":9263:9266   */\n  dup3\n    /* \"#utility.yul\":9230:9267   */\n  tag_32\n  jump\t// in\ntag_159:\n    /* \"#utility.yul\":9332:9350   */\n  0xffffffffffffffff\n    /* \"#utility.yul\":9324:9330   */\n  dup2\n    /* \"#utility.yul\":9321:9351   */\n  gt\n    /* \"#utility.yul\":9318:9374   */\n  iszero\n  tag_160\n  jumpi\n    /* \"#utility.yul\":9354:9372   */\n  tag_161\n  tag_19\n  jump\t// in\ntag_161:\n    /* \"#utility.yul\":9318:9374   */\ntag_160:\n    /* \"#utility.yul\":9398:9436   */\n  tag_162\n    /* \"#utility.yul\":9430:9434   */\n  dup3\n    /* \"#utility.yul\":9424:9435   */\n  sload\n    /* \"#utility.yul\":9398:9436   */\n  tag_34\n  jump\t// in\ntag_162:\n    /* \"#utility.yul\":9483:9550   */\n  tag_163\n    /* \"#utility.yul\":9543:9549   */\n  dup3\n    /* \"#utility.yul\":9535:9541   */\n  dup3\n    /* \"#utility.yul\":9529:9533   */\n  dup6\n    /* \"#utility.yul\":9483:9550   */\n  tag_46\n  jump\t// in\ntag_163:\n    /* \"#utility.yul\":9577:9578   */\n  0x00\n    /* \"#utility.yul\":9601:9605   */\n  0x20\n    /* \"#utility.yul\":9588:9605   */\n  swap1\n  pop\n    /* \"#utility.yul\":9633:9635   */\n  0x1f\n    /* \"#utility.yul\":9625:9631   */\n  dup4\n    /* \"#utility.yul\":9622:9636   */\n  gt\n    /* \"#utility.yul\":9650:9651   */\n  0x01\n    /* \"#utility.yul\":9645:10263   */\n  dup2\n  eq\n  tag_165\n  jumpi\n    /* \"#utility.yul\":10307:10308   */\n  0x00\n    /* \"#utility.yul\":10324:10330   */\n  dup5\n    /* \"#utility.yul\":10321:10398   */\n  iszero\n  tag_166\n  jumpi\n    /* \"#utility.yul\":10373:10382   */\n  dup3\n    /* \"#utility.yul\":10368:10371   */\n  dup8\n    /* \"#utility.yul\":10364:10383   */\n  add\n    /* \"#utility.yul\":10358:10384   */\n  mload\n    /* \"#utility.yul\":10349:10384   */\n  swap1\n  pop\n    /* \"#utility.yul\":10321:10398   */\ntag_166:\n    /* \"#utility.yul\":10424:10491   */\n  tag_167\n    /* \"#utility.yul\":10484:10490   */\n  dup6\n    /* \"#utility.yul\":10477:10482   */\n  dup3\n    /* \"#utility.yul\":10424:10491   */\n  tag_49\n  jump\t// in\ntag_167:\n    /* \"#utility.yul\":10418:10422   */\n  dup7\n    /* \"#utility.yul\":10411:10492   */\n  sstore\n    /* \"#utility.yul\":10280:10502   */\n  pop\n    /* \"#utility.yul\":9615:10502   */\n  jump(tag_164)\n    /* \"#utility.yul\":9645:10263   */\ntag_165:\n    /* \"#utility.yul\":9697:9701   */\n  0x1f\n    /* \"#utility.yul\":9693:9702   */\n  not\n    /* \"#utility.yul\":9685:9691   */\n  dup5\n    /* \"#utility.yul\":9681:9703   */\n  and\n    /* \"#utility.yul\":9731:9768   */\n  tag_168\n    /* \"#utility.yul\":9763:9767   */\n  dup7\n    /* \"#utility.yul\":9731:9768   */\n  tag_35\n  jump\t// in\ntag_168:\n    /* \"#utility.yul\":9790:9791   */\n  0x00\n    /* \"#utility.yul\":9804:10012   */\ntag_169:\n    /* \"#utility.yul\":9818:9825   */\n  dup3\n    /* \"#utility.yul\":9815:9816   */\n  dup2\n    /* \"#utility.yul\":9812:9826   */\n  lt\n    /* \"#utility.yul\":9804:10012   */\n  iszero\n  tag_171\n  jumpi\n    /* \"#utility.yul\":9897:9906   */\n  dup5\n    /* \"#utility.yul\":9892:9895   */\n  dup10\n    /* \"#utility.yul\":9888:9907   */\n  add\n    /* \"#utility.yul\":9882:9908   */\n  mload\n    /* \"#utility.yul\":9874:9880   */\n  dup3\n    /* \"#utility.yul\":9867:9909   */\n  sstore\n    /* \"#utility.yul\":9948:9949   */\n  0x01\n    /* \"#utility.yul\":9940:9946   */\n  dup3\n    /* \"#utility.yul\":9936:9950   */\n  add\n    /* \"#utility.yul\":9926:9950   */\n  swap2\n  pop\n    /* \"#utility.yul\":9995:9997   */\n  0x20\n    /* \"#utility.yul\":9984:9993   */\n  dup6\n    /* \"#utility.yul\":9980:9998   */\n  add\n    /* \"#utility.yul\":9967:9998   */\n  swap5\n  pop\n    /* \"#utility.yul\":9841:9845   */\n  0x20\n    /* \"#utility.yul\":9838:9839   */\n  dup2\n    /* \"#utility.yul\":9834:9846   */\n  add\n    /* \"#utility.yul\":9829:9846   */\n  swap1\n  pop\n    /* \"#utility.yul\":9804:10012   */\n  jump(tag_169)\ntag_171:\n    /* \"#utility.yul\":10040:10046   */\n  dup7\n    /* \"#utility.yul\":10031:10038   */\n  dup4\n    /* \"#utility.yul\":10028:10047   */\n  lt\n    /* \"#utility.yul\":10025:10204   */\n  iszero\n  tag_172\n  jumpi\n    /* \"#utility.yul\":10098:10107   */\n  dup5\n    /* \"#utility.yul\":10093:10096   */\n  dup10\n    /* \"#utility.yul\":10089:10108   */\n  add\n    /* \"#utility.yul\":10083:10109   */\n  mload\n    /* \"#utility.yul\":10141:10189   */\n  tag_173\n    /* \"#utility.yul\":10183:10187   */\n  0x1f\n    /* \"#utility.yul\":10175:10181   */\n  dup10\n    /* \"#utility.yul\":10171:10188   */\n  and\n    /* \"#utility.yul\":10160:10169   */\n  dup3\n    /* \"#utility.yul\":10141:10189   */\n  tag_48\n  jump\t// in\ntag_173:\n    /* \"#utility.yul\":10133:10139   */\n  dup4\n    /* \"#utility.yul\":10126:10190   */\n  sstore\n    /* \"#utility.yul\":10048:10204   */\n  pop\n    /* \"#utility.yul\":10025:10204   */\ntag_172:\n    /* \"#utility.yul\":10250:10251   */\n  0x01\n    /* \"#utility.yul\":10246:10247   */\n  0x02\n    /* \"#utility.yul\":10238:10244   */\n  dup9\n    /* \"#utility.yul\":10234:10248   */\n  mul\n    /* \"#utility.yul\":10230:10252   */\n  add\n    /* \"#utility.yul\":10224:10228   */\n  dup9\n    /* \"#utility.yul\":10217:10253   */\n  sstore\n    /* \"#utility.yul\":9652:10263   */\n  pop\n  pop\n  pop\n    /* \"#utility.yul\":9615:10502   */\ntag_164:\n  pop\n    /* \"#utility.yul\":9205:10508   */\n  pop\n  pop\n  pop\n    /* \"#utility.yul\":9113:10508   */\n  pop\n  pop\n  jump\t// out\n    /* \"Reputation/TokenBoundAccount.sol\":28:1211  contract SimpleToken {... */\ntag_12:\n  dataSize(sub_0)\n  dup1\n  dataOffset(sub_0)\n  0x00\n  codecopy\n  0x00\n  return\nstop\n\nsub_0: assembly {\n        /* \"Reputation/TokenBoundAccount.sol\":28:1211  contract SimpleToken {... */\n      mstore(0x40, 0x80)\n      callvalue\n      dup1\n      iszero\n      tag_1\n      jumpi\n      0x00\n      dup1\n      revert\n    tag_1:\n      pop\n      jumpi(tag_2, lt(calldatasize, 0x04))\n      shr(0xe0, calldataload(0x00))\n      dup1\n      0x70a08231\n      gt\n      tag_12\n      jumpi\n      dup1\n      0x70a08231\n      eq\n      tag_7\n      jumpi\n      dup1\n      0x941c0679\n      eq\n      tag_8\n      jumpi\n      dup1\n      0x95d89b41\n      eq\n      tag_9\n      jumpi\n      dup1\n      0xa9059cbb\n      eq\n      tag_10\n      jumpi\n      dup1\n      0xdb957846\n      eq\n      tag_11\n      jumpi\n      jump(tag_2)\n    tag_12:\n      dup1\n      0x06fdde03\n      eq\n      tag_3\n      jumpi\n      dup1\n      0x0a1a29b1\n      eq\n      tag_4\n      jumpi\n      dup1\n      0x18160ddd\n      eq\n      tag_5\n      jumpi\n      dup1\n      0x313ce567\n      eq\n      tag_6\n      jumpi\n    tag_2:\n      0x00\n      dup1\n      revert\n        /* \"Reputation/TokenBoundAccount.sol\":55:73  string public name */\n    tag_3:\n      tag_13\n      tag_14\n      jump\t// in\n    tag_13:\n      mload(0x40)\n      tag_15\n      swap2\n      swap1\n      tag_16\n      jump\t// in\n    tag_15:\n      mload(0x40)\n      dup1\n      swap2\n      sub\n      swap1\n      return\n        /* \"Reputation/TokenBoundAccount.sol\":227:261  string public requested_company_ID */\n    tag_4:\n      tag_17\n      tag_18\n      jump\t// in\n    tag_17:\n      mload(0x40)\n      tag_19\n      swap2\n      swap1\n      tag_16\n      jump\t// in\n    tag_19:\n      mload(0x40)\n      dup1\n      swap2\n      sub\n      swap1\n      return\n        /* \"Reputation/TokenBoundAccount.sol\":132:158  uint256 public totalSupply */\n    tag_5:\n      tag_20\n      tag_21\n      jump\t// in\n    tag_20:\n      mload(0x40)\n      tag_22\n      swap2\n      swap1\n      tag_23\n      jump\t// in\n    tag_22:\n      mload(0x40)\n      dup1\n      swap2\n      sub\n      swap1\n      return\n        /* \"Reputation/TokenBoundAccount.sol\":105:126  uint8 public decimals */\n    tag_6:\n      tag_24\n      tag_25\n      jump\t// in\n    tag_24:\n      mload(0x40)\n      tag_26\n      swap2\n      swap1\n      tag_27\n      jump\t// in\n    tag_26:\n      mload(0x40)\n      dup1\n      swap2\n      sub\n      swap1\n      return\n        /* \"Reputation/TokenBoundAccount.sol\":268:312  mapping(address => uint256) public balanceOf */\n    tag_7:\n      tag_28\n      0x04\n      dup1\n      calldatasize\n      sub\n      dup2\n      add\n      swap1\n      tag_29\n      swap2\n      swap1\n      tag_30\n      jump\t// in\n    tag_29:\n      tag_31\n      jump\t// in\n    tag_28:\n      mload(0x40)\n      tag_32\n      swap2\n      swap1\n      tag_23\n      jump\t// in\n    tag_32:\n      mload(0x40)\n      dup1\n      swap2\n      sub\n      swap1\n      return\n        /* \"Reputation/TokenBoundAccount.sol\":164:190  string public  employee_ID */\n    tag_8:\n      tag_33\n      tag_34\n      jump\t// in\n    tag_33:\n      mload(0x40)\n      tag_35\n      swap2\n      swap1\n      tag_16\n      jump\t// in\n    tag_35:\n      mload(0x40)\n      dup1\n      swap2\n      sub\n      swap1\n      return\n        /* \"Reputation/TokenBoundAccount.sol\":79:99  string public symbol */\n    tag_9:\n      tag_36\n      tag_37\n      jump\t// in\n    tag_36:\n      mload(0x40)\n      tag_38\n      swap2\n      swap1\n      tag_16\n      jump\t// in\n    tag_38:\n      mload(0x40)\n      dup1\n      swap2\n      sub\n      swap1\n      return\n        /* \"Reputation/TokenBoundAccount.sol\":951:1209  function transfer(address _to, uint256 _value) public {... */\n    tag_10:\n      tag_39\n      0x04\n      dup1\n      calldatasize\n      sub\n      dup2\n      add\n      swap1\n      tag_40\n      swap2\n      swap1\n      tag_41\n      jump\t// in\n    tag_40:\n      tag_42\n      jump\t// in\n    tag_39:\n      stop\n        /* \"Reputation/TokenBoundAccount.sol\":196:221  string  public company_ID */\n    tag_11:\n      tag_43\n      tag_44\n      jump\t// in\n    tag_43:\n      mload(0x40)\n      tag_45\n      swap2\n      swap1\n      tag_16\n      jump\t// in\n    tag_45:\n      mload(0x40)\n      dup1\n      swap2\n      sub\n      swap1\n      return\n        /* \"Reputation/TokenBoundAccount.sol\":55:73  string public name */\n    tag_14:\n      0x00\n      dup1\n      sload\n      tag_46\n      swap1\n      tag_47\n      jump\t// in\n    tag_46:\n      dup1\n      0x1f\n      add\n      0x20\n      dup1\n      swap2\n      div\n      mul\n      0x20\n      add\n      mload(0x40)\n      swap1\n      dup2\n      add\n      0x40\n      mstore\n      dup1\n      swap3\n      swap2\n      swap1\n      dup2\n      dup2\n      mstore\n      0x20\n      add\n      dup3\n      dup1\n      sload\n      tag_48\n      swap1\n      tag_47\n      jump\t// in\n    tag_48:\n      dup1\n      iszero\n      tag_49\n      jumpi\n      dup1\n      0x1f\n      lt\n      tag_50\n      jumpi\n      0x0100\n      dup1\n      dup4\n      sload\n      div\n      mul\n      dup4\n      mstore\n      swap2\n      0x20\n      add\n      swap2\n      jump(tag_49)\n    tag_50:\n      dup3\n      add\n      swap2\n      swap1\n      0x00\n      mstore\n      keccak256(0x00, 0x20)\n      swap1\n    tag_51:\n      dup2\n      sload\n      dup2\n      mstore\n      swap1\n      0x01\n      add\n      swap1\n      0x20\n      add\n      dup1\n      dup4\n      gt\n      tag_51\n      jumpi\n      dup3\n      swap1\n      sub\n      0x1f\n      and\n      dup3\n      add\n      swap2\n    tag_49:\n      pop\n      pop\n      pop\n      pop\n      pop\n      dup2\n      jump\t// out\n        /* \"Reputation/TokenBoundAccount.sol\":227:261  string public requested_company_ID */\n    tag_18:\n      0x06\n      dup1\n      sload\n      tag_52\n      swap1\n      tag_47\n      jump\t// in\n    tag_52:\n      dup1\n      0x1f\n      add\n      0x20\n      dup1\n      swap2\n      div\n      mul\n      0x20\n      add\n      mload(0x40)\n      swap1\n      dup2\n      add\n      0x40\n      mstore\n      dup1\n      swap3\n      swap2\n      swap1\n      dup2\n      dup2\n      mstore\n      0x20\n      add\n      dup3\n      dup1\n      sload\n      tag_53\n      swap1\n      tag_47\n      jump\t// in\n    tag_53:\n      dup1\n      iszero\n      tag_54\n      jumpi\n      dup1\n      0x1f\n      lt\n      tag_55\n      jumpi\n      0x0100\n      dup1\n      dup4\n      sload\n      div\n      mul\n      dup4\n      mstore\n      swap2\n      0x20\n      add\n      swap2\n      jump(tag_54)\n    tag_55:\n      dup3\n      add\n      swap2\n      swap1\n      0x00\n      mstore\n      keccak256(0x00, 0x20)\n      swap1\n    tag_56:\n      dup2\n      sload\n      dup2\n      mstore\n      swap1\n      0x01\n      add\n      swap1\n      0x20\n      add\n      dup1\n      dup4\n      gt\n      tag_56\n      jumpi\n      dup3\n      swap1\n      sub\n      0x1f\n      and\n      dup3\n      add\n      swap2\n    tag_54:\n      pop\n      pop\n      pop\n      pop\n      pop\n      dup2\n      jump\t// out\n        /* \"Reputation/TokenBoundAccount.sol\":132:158  uint256 public totalSupply */\n    tag_21:\n      sload(0x03)\n      dup2\n      jump\t// out\n        /* \"Reputation/TokenBoundAccount.sol\":105:126  uint8 public decimals */\n    tag_25:\n      0x02\n      0x00\n      swap1\n      sload\n      swap1\n      0x0100\n      exp\n      swap1\n      div\n      0xff\n      and\n      dup2\n      jump\t// out\n        /* \"Reputation/TokenBoundAccount.sol\":268:312  mapping(address => uint256) public balanceOf */\n    tag_31:\n      mstore(0x20, 0x07)\n      dup1\n      0x00\n      mstore\n      keccak256(0x00, 0x40)\n      0x00\n      swap2\n      pop\n      swap1\n      pop\n      sload\n      dup2\n      jump\t// out\n        /* \"Reputation/TokenBoundAccount.sol\":164:190  string public  employee_ID */\n    tag_34:\n      0x04\n      dup1\n      sload\n      tag_57\n      swap1\n      tag_47\n      jump\t// in\n    tag_57:\n      dup1\n      0x1f\n      add\n      0x20\n      dup1\n      swap2\n      div\n      mul\n      0x20\n      add\n      mload(0x40)\n      swap1\n      dup2\n      add\n      0x40\n      mstore\n      dup1\n      swap3\n      swap2\n      swap1\n      dup2\n      dup2\n      mstore\n      0x20\n      add\n      dup3\n      dup1\n      sload\n      tag_58\n      swap1\n      tag_47\n      jump\t// in\n    tag_58:\n      dup1\n      iszero\n      tag_59\n      jumpi\n      dup1\n      0x1f\n      lt\n      tag_60\n      jumpi\n      0x0100\n      dup1\n      dup4\n      sload\n      div\n      mul\n      dup4\n      mstore\n      swap2\n      0x20\n      add\n      swap2\n      jump(tag_59)\n    tag_60:\n      dup3\n      add\n      swap2\n      swap1\n      0x00\n      mstore\n      keccak256(0x00, 0x20)\n      swap1\n    tag_61:\n      dup2\n      sload\n      dup2\n      mstore\n      swap1\n      0x01\n      add\n      swap1\n      0x20\n      add\n      dup1\n      dup4\n      gt\n      tag_61\n      jumpi\n      dup3\n      swap1\n      sub\n      0x1f\n      and\n      dup3\n      add\n      swap2\n    tag_59:\n      pop\n      pop\n      pop\n      pop\n      pop\n      dup2\n      jump\t// out\n        /* \"Reputation/TokenBoundAccount.sol\":79:99  string public symbol */\n    tag_37:\n      0x01\n      dup1\n      sload\n      tag_62\n      swap1\n      tag_47\n      jump\t// in\n    tag_62:\n      dup1\n      0x1f\n      add\n      0x20\n      dup1\n      swap2\n      div\n      mul\n      0x20\n      add\n      mload(0x40)\n      swap1\n      dup2\n      add\n      0x40\n      mstore\n      dup1\n      swap3\n      swap2\n      swap1\n      dup2\n      dup2\n      mstore\n      0x20\n      add\n      dup3\n      dup1\n      sload\n      tag_63\n      swap1\n      tag_47\n      jump\t// in\n    tag_63:\n      dup1\n      iszero\n      tag_64\n      jumpi\n      dup1\n      0x1f\n      lt\n      tag_65\n      jumpi\n      0x0100\n      dup1\n      dup4\n      sload\n      div\n      mul\n      dup4\n      mstore\n      swap2\n      0x20\n      add\n      swap2\n      jump(tag_64)\n    tag_65:\n      dup3\n      add\n      swap2\n      swap1\n      0x00\n      mstore\n      keccak256(0x00, 0x20)\n      swap1\n    tag_66:\n      dup2\n      sload\n      dup2\n      mstore\n      swap1\n      0x01\n      add\n      swap1\n      0x20\n      add\n      dup1\n      dup4\n      gt\n      tag_66\n      jumpi\n      dup3\n      swap1\n      sub\n      0x1f\n      and\n      dup3\n      add\n      swap2\n    tag_64:\n      pop\n      pop\n      pop\n      pop\n      pop\n      dup2\n      jump\t// out\n        /* \"Reputation/TokenBoundAccount.sol\":951:1209  function transfer(address _to, uint256 _value) public {... */\n    tag_42:\n        /* \"Reputation/TokenBoundAccount.sol\":1048:1054  _value */\n      dup1\n        /* \"Reputation/TokenBoundAccount.sol\":1023:1032  balanceOf */\n      0x07\n        /* \"Reputation/TokenBoundAccount.sol\":1023:1044  balanceOf[msg.sender] */\n      0x00\n        /* \"Reputation/TokenBoundAccount.sol\":1033:1043  msg.sender */\n      caller\n        /* \"Reputation/TokenBoundAccount.sol\":1023:1044  balanceOf[msg.sender] */\n      0xffffffffffffffffffffffffffffffffffffffff\n      and\n      0xffffffffffffffffffffffffffffffffffffffff\n      and\n      dup2\n      mstore\n      0x20\n      add\n      swap1\n      dup2\n      mstore\n      0x20\n      add\n      0x00\n      keccak256\n      sload\n        /* \"Reputation/TokenBoundAccount.sol\":1023:1054  balanceOf[msg.sender] >= _value */\n      lt\n      iszero\n        /* \"Reputation/TokenBoundAccount.sol\":1015:1079  require(balanceOf[msg.sender] >= _value, \"Insufficient balance\") */\n      tag_68\n      jumpi\n      mload(0x40)\n      0x08c379a000000000000000000000000000000000000000000000000000000000\n      dup2\n      mstore\n      0x04\n      add\n      tag_69\n      swap1\n      tag_70\n      jump\t// in\n    tag_69:\n      mload(0x40)\n      dup1\n      swap2\n      sub\n      swap1\n      revert\n    tag_68:\n        /* \"Reputation/TokenBoundAccount.sol\":1114:1120  _value */\n      dup1\n        /* \"Reputation/TokenBoundAccount.sol\":1089:1098  balanceOf */\n      0x07\n        /* \"Reputation/TokenBoundAccount.sol\":1089:1110  balanceOf[msg.sender] */\n      0x00\n        /* \"Reputation/TokenBoundAccount.sol\":1099:1109  msg.sender */\n      caller\n        /* \"Reputation/TokenBoundAccount.sol\":1089:1110  balanceOf[msg.sender] */\n      0xffffffffffffffffffffffffffffffffffffffff\n      and\n      0xffffffffffffffffffffffffffffffffffffffff\n      and\n      dup2\n      mstore\n      0x20\n      add\n      swap1\n      dup2\n      mstore\n      0x20\n      add\n      0x00\n      keccak256\n      0x00\n        /* \"Reputation/TokenBoundAccount.sol\":1089:1120  balanceOf[msg.sender] -= _value */\n      dup3\n      dup3\n      sload\n      tag_71\n      swap2\n      swap1\n      tag_72\n      jump\t// in\n    tag_71:\n      swap3\n      pop\n      pop\n      dup2\n      swap1\n      sstore\n      pop\n        /* \"Reputation/TokenBoundAccount.sol\":1148:1154  _value */\n      dup1\n        /* \"Reputation/TokenBoundAccount.sol\":1130:1139  balanceOf */\n      0x07\n        /* \"Reputation/TokenBoundAccount.sol\":1130:1144  balanceOf[_to] */\n      0x00\n        /* \"Reputation/TokenBoundAccount.sol\":1140:1143  _to */\n      dup5\n        /* \"Reputation/TokenBoundAccount.sol\":1130:1144  balanceOf[_to] */\n      0xffffffffffffffffffffffffffffffffffffffff\n      and\n      0xffffffffffffffffffffffffffffffffffffffff\n      and\n      dup2\n      mstore\n      0x20\n      add\n      swap1\n      dup2\n      mstore\n      0x20\n      add\n      0x00\n      keccak256\n      0x00\n        /* \"Reputation/TokenBoundAccount.sol\":1130:1154  balanceOf[_to] += _value */\n      dup3\n      dup3\n      sload\n      tag_73\n      swap2\n      swap1\n      tag_74\n      jump\t// in\n    tag_73:\n      swap3\n      pop\n      pop\n      dup2\n      swap1\n      sstore\n      pop\n        /* \"Reputation/TokenBoundAccount.sol\":1190:1193  _to */\n      dup2\n        /* \"Reputation/TokenBoundAccount.sol\":1169:1202  Transfer(msg.sender, _to, _value) */\n      0xffffffffffffffffffffffffffffffffffffffff\n      and\n        /* \"Reputation/TokenBoundAccount.sol\":1178:1188  msg.sender */\n      caller\n        /* \"Reputation/TokenBoundAccount.sol\":1169:1202  Transfer(msg.sender, _to, _value) */\n      0xffffffffffffffffffffffffffffffffffffffff\n      and\n      0xddf252ad1be2c89b69c2b068fc378daa952ba7f163c4a11628f55a4df523b3ef\n        /* \"Reputation/TokenBoundAccount.sol\":1195:1201  _value */\n      dup4\n        /* \"Reputation/TokenBoundAccount.sol\":1169:1202  Transfer(msg.sender, _to, _value) */\n      mload(0x40)\n      tag_75\n      swap2\n      swap1\n      tag_23\n      jump\t// in\n    tag_75:\n      mload(0x40)\n      dup1\n      swap2\n      sub\n      swap1\n      log3\n        /* \"Reputation/TokenBoundAccount.sol\":951:1209  function transfer(address _to, uint256 _value) public {... */\n      pop\n      pop\n      jump\t// out\n        /* \"Reputation/TokenBoundAccount.sol\":196:221  string  public company_ID */\n    tag_44:\n      0x05\n      dup1\n      sload\n      tag_76\n      swap1\n      tag_47\n      jump\t// in\n    tag_76:\n      dup1\n      0x1f\n      add\n      0x20\n      dup1\n      swap2\n      div\n      mul\n      0x20\n      add\n      mload(0x40)\n      swap1\n      dup2\n      add\n      0x40\n      mstore\n      dup1\n      swap3\n      swap2\n      swap1\n      dup2\n      dup2\n      mstore\n      0x20\n      add\n      dup3\n      dup1\n      sload\n      tag_77\n      swap1\n      tag_47\n      jump\t// in\n    tag_77:\n      dup1\n      iszero\n      tag_78\n      jumpi\n      dup1\n      0x1f\n      lt\n      tag_79\n      jumpi\n      0x0100\n      dup1\n      dup4\n      sload\n      div\n      mul\n      dup4\n      mstore\n      swap2\n      0x20\n      add\n      swap2\n      jump(tag_78)\n    tag_79:\n      dup3\n      add\n      swap2\n      swap1\n      0x00\n      mstore\n      keccak256(0x00, 0x20)\n      swap1\n    tag_80:\n      dup2\n      sload\n      dup2\n      mstore\n      swap1\n      0x01\n      add\n      swap1\n      0x20\n      add\n      dup1\n      dup4\n      gt\n      tag_80\n      jumpi\n      dup3\n      swap1\n      sub\n      0x1f\n      and\n      dup3\n      add\n      swap2\n    tag_78:\n      pop\n      pop\n      pop\n      pop\n      pop\n      dup2\n      jump\t// out\n        /* \"#utility.yul\":7:106   */\n    tag_81:\n        /* \"#utility.yul\":59:65   */\n      0x00\n        /* \"#utility.yul\":93:98   */\n      dup2\n        /* \"#utility.yul\":87:99   */\n      mload\n        /* \"#utility.yul\":77:99   */\n      swap1\n      pop\n        /* \"#utility.yul\":7:106   */\n      swap2\n      swap1\n      pop\n      jump\t// out\n        /* \"#utility.yul\":112:281   */\n    tag_82:\n        /* \"#utility.yul\":196:207   */\n      0x00\n        /* \"#utility.yul\":230:236   */\n      dup3\n        /* \"#utility.yul\":225:228   */\n      dup3\n        /* \"#utility.yul\":218:237   */\n      mstore\n        /* \"#utility.yul\":270:274   */\n      0x20\n        /* \"#utility.yul\":265:268   */\n      dup3\n        /* \"#utility.yul\":261:275   */\n      add\n        /* \"#utility.yul\":246:275   */\n      swap1\n      pop\n        /* \"#utility.yul\":112:281   */\n      swap3\n      swap2\n      pop\n      pop\n      jump\t// out\n        /* \"#utility.yul\":287:533   */\n    tag_83:\n        /* \"#utility.yul\":368:369   */\n      0x00\n        /* \"#utility.yul\":378:491   */\n    tag_107:\n        /* \"#utility.yul\":392:398   */\n      dup4\n        /* \"#utility.yul\":389:390   */\n      dup2\n        /* \"#utility.yul\":386:399   */\n      lt\n        /* \"#utility.yul\":378:491   */\n      iszero\n      tag_109\n      jumpi\n        /* \"#utility.yul\":477:478   */\n      dup1\n        /* \"#utility.yul\":472:475   */\n      dup3\n        /* \"#utility.yul\":468:479   */\n      add\n        /* \"#utility.yul\":462:480   */\n      mload\n        /* \"#utility.yul\":458:459   */\n      dup2\n        /* \"#utility.yul\":453:456   */\n      dup5\n        /* \"#utility.yul\":449:460   */\n      add\n        /* \"#utility.yul\":442:481   */\n      mstore\n        /* \"#utility.yul\":414:416   */\n      0x20\n        /* \"#utility.yul\":411:412   */\n      dup2\n        /* \"#utility.yul\":407:417   */\n      add\n        /* \"#utility.yul\":402:417   */\n      swap1\n      pop\n        /* \"#utility.yul\":378:491   */\n      jump(tag_107)\n    tag_109:\n        /* \"#utility.yul\":525:526   */\n      0x00\n        /* \"#utility.yul\":516:522   */\n      dup5\n        /* \"#utility.yul\":511:514   */\n      dup5\n        /* \"#utility.yul\":507:523   */\n      add\n        /* \"#utility.yul\":500:527   */\n      mstore\n        /* \"#utility.yul\":349:533   */\n      pop\n        /* \"#utility.yul\":287:533   */\n      pop\n      pop\n      pop\n      jump\t// out\n        /* \"#utility.yul\":539:641   */\n    tag_84:\n        /* \"#utility.yul\":580:586   */\n      0x00\n        /* \"#utility.yul\":631:633   */\n      0x1f\n        /* \"#utility.yul\":627:634   */\n      not\n        /* \"#utility.yul\":622:624   */\n      0x1f\n        /* \"#utility.yul\":615:620   */\n      dup4\n        /* \"#utility.yul\":611:625   */\n      add\n        /* \"#utility.yul\":607:635   */\n      and\n        /* \"#utility.yul\":597:635   */\n      swap1\n      pop\n        /* \"#utility.yul\":539:641   */\n      swap2\n      swap1\n      pop\n      jump\t// out\n        /* \"#utility.yul\":647:1024   */\n    tag_85:\n        /* \"#utility.yul\":735:738   */\n      0x00\n        /* \"#utility.yul\":763:802   */\n      tag_112\n        /* \"#utility.yul\":796:801   */\n      dup3\n        /* \"#utility.yul\":763:802   */\n      tag_81\n      jump\t// in\n    tag_112:\n        /* \"#utility.yul\":818:889   */\n      tag_113\n        /* \"#utility.yul\":882:888   */\n      dup2\n        /* \"#utility.yul\":877:880   */\n      dup6\n        /* \"#utility.yul\":818:889   */\n      tag_82\n      jump\t// in\n    tag_113:\n        /* \"#utility.yul\":811:889   */\n      swap4\n      pop\n        /* \"#utility.yul\":898:963   */\n      tag_114\n        /* \"#utility.yul\":956:962   */\n      dup2\n        /* \"#utility.yul\":951:954   */\n      dup6\n        /* \"#utility.yul\":944:948   */\n      0x20\n        /* \"#utility.yul\":937:942   */\n      dup7\n        /* \"#utility.yul\":933:949   */\n      add\n        /* \"#utility.yul\":898:963   */\n      tag_83\n      jump\t// in\n    tag_114:\n        /* \"#utility.yul\":988:1017   */\n      tag_115\n        /* \"#utility.yul\":1010:1016   */\n      dup2\n        /* \"#utility.yul\":988:1017   */\n      tag_84\n      jump\t// in\n    tag_115:\n        /* \"#utility.yul\":983:986   */\n      dup5\n        /* \"#utility.yul\":979:1018   */\n      add\n        /* \"#utility.yul\":972:1018   */\n      swap2\n      pop\n        /* \"#utility.yul\":739:1024   */\n      pop\n        /* \"#utility.yul\":647:1024   */\n      swap3\n      swap2\n      pop\n      pop\n      jump\t// out\n        /* \"#utility.yul\":1030:1343   */\n    tag_16:\n        /* \"#utility.yul\":1143:1147   */\n      0x00\n        /* \"#utility.yul\":1181:1183   */\n      0x20\n        /* \"#utility.yul\":1170:1179   */\n      dup3\n        /* \"#utility.yul\":1166:1184   */\n      add\n        /* \"#utility.yul\":1158:1184   */\n      swap1\n      pop\n        /* \"#utility.yul\":1230:1239   */\n      dup2\n        /* \"#utility.yul\":1224:1228   */\n      dup2\n        /* \"#utility.yul\":1220:1240   */\n      sub\n        /* \"#utility.yul\":1216:1217   */\n      0x00\n        /* \"#utility.yul\":1205:1214   */\n      dup4\n        /* \"#utility.yul\":1201:1218   */\n      add\n        /* \"#utility.yul\":1194:1241   */\n      mstore\n        /* \"#utility.yul\":1258:1336   */\n      tag_117\n        /* \"#utility.yul\":1331:1335   */\n      dup2\n        /* \"#utility.yul\":1322:1328   */\n      dup5\n        /* \"#utility.yul\":1258:1336   */\n      tag_85\n      jump\t// in\n    tag_117:\n        /* \"#utility.yul\":1250:1336   */\n      swap1\n      pop\n        /* \"#utility.yul\":1030:1343   */\n      swap3\n      swap2\n      pop\n      pop\n      jump\t// out\n        /* \"#utility.yul\":1349:1426   */\n    tag_86:\n        /* \"#utility.yul\":1386:1393   */\n      0x00\n        /* \"#utility.yul\":1415:1420   */\n      dup2\n        /* \"#utility.yul\":1404:1420   */\n      swap1\n      pop\n        /* \"#utility.yul\":1349:1426   */\n      swap2\n      swap1\n      pop\n      jump\t// out\n        /* \"#utility.yul\":1432:1550   */\n    tag_87:\n        /* \"#utility.yul\":1519:1543   */\n      tag_120\n        /* \"#utility.yul\":1537:1542   */\n      dup2\n        /* \"#utility.yul\":1519:1543   */\n      tag_86\n      jump\t// in\n    tag_120:\n        /* \"#utility.yul\":1514:1517   */\n      dup3\n        /* \"#utility.yul\":1507:1544   */\n      mstore\n        /* \"#utility.yul\":1432:1550   */\n      pop\n      pop\n      jump\t// out\n        /* \"#utility.yul\":1556:1778   */\n    tag_23:\n        /* \"#utility.yul\":1649:1653   */\n      0x00\n        /* \"#utility.yul\":1687:1689   */\n      0x20\n        /* \"#utility.yul\":1676:1685   */\n      dup3\n        /* \"#utility.yul\":1672:1690   */\n      add\n        /* \"#utility.yul\":1664:1690   */\n      swap1\n      pop\n        /* \"#utility.yul\":1700:1771   */\n      tag_122\n        /* \"#utility.yul\":1768:1769   */\n      0x00\n        /* \"#utility.yul\":1757:1766   */\n      dup4\n        /* \"#utility.yul\":1753:1770   */\n      add\n        /* \"#utility.yul\":1744:1750   */\n      dup5\n        /* \"#utility.yul\":1700:1771   */\n      tag_87\n      jump\t// in\n    tag_122:\n        /* \"#utility.yul\":1556:1778   */\n      swap3\n      swap2\n      pop\n      pop\n      jump\t// out\n        /* \"#utility.yul\":1784:1870   */\n    tag_88:\n        /* \"#utility.yul\":1819:1826   */\n      0x00\n        /* \"#utility.yul\":1859:1863   */\n      0xff\n        /* \"#utility.yul\":1852:1857   */\n      dup3\n        /* \"#utility.yul\":1848:1864   */\n      and\n        /* \"#utility.yul\":1837:1864   */\n      swap1\n      pop\n        /* \"#utility.yul\":1784:1870   */\n      swap2\n      swap1\n      pop\n      jump\t// out\n        /* \"#utility.yul\":1876:1988   */\n    tag_89:\n        /* \"#utility.yul\":1959:1981   */\n      tag_125\n        /* \"#utility.yul\":1975:1980   */\n      dup2\n        /* \"#utility.yul\":1959:1981   */\n      tag_88\n      jump\t// in\n    tag_125:\n        /* \"#utility.yul\":1954:1957   */\n      dup3\n        /* \"#utility.yul\":1947:1982   */\n      mstore\n        /* \"#utility.yul\":1876:1988   */\n      pop\n      pop\n      jump\t// out\n        /* \"#utility.yul\":1994:2208   */\n    tag_27:\n        /* \"#utility.yul\":2083:2087   */\n      0x00\n        /* \"#utility.yul\":2121:2123   */\n      0x20\n        /* \"#utility.yul\":2110:2119   */\n      dup3\n        /* \"#utility.yul\":2106:2124   */\n      add\n        /* \"#utility.yul\":2098:2124   */\n      swap1\n      pop\n        /* \"#utility.yul\":2134:2201   */\n      tag_127\n        /* \"#utility.yul\":2198:2199   */\n      0x00\n        /* \"#utility.yul\":2187:2196   */\n      dup4\n        /* \"#utility.yul\":2183:2200   */\n      add\n        /* \"#utility.yul\":2174:2180   */\n      dup5\n        /* \"#utility.yul\":2134:2201   */\n      tag_89\n      jump\t// in\n    tag_127:\n        /* \"#utility.yul\":1994:2208   */\n      swap3\n      swap2\n      pop\n      pop\n      jump\t// out\n        /* \"#utility.yul\":2295:2412   */\n    tag_91:\n        /* \"#utility.yul\":2404:2405   */\n      0x00\n        /* \"#utility.yul\":2401:2402   */\n      dup1\n        /* \"#utility.yul\":2394:2406   */\n      revert\n        /* \"#utility.yul\":2541:2667   */\n    tag_93:\n        /* \"#utility.yul\":2578:2585   */\n      0x00\n        /* \"#utility.yul\":2618:2660   */\n      0xffffffffffffffffffffffffffffffffffffffff\n        /* \"#utility.yul\":2611:2616   */\n      dup3\n        /* \"#utility.yul\":2607:2661   */\n      and\n        /* \"#utility.yul\":2596:2661   */\n      swap1\n      pop\n        /* \"#utility.yul\":2541:2667   */\n      swap2\n      swap1\n      pop\n      jump\t// out\n        /* \"#utility.yul\":2673:2769   */\n    tag_94:\n        /* \"#utility.yul\":2710:2717   */\n      0x00\n        /* \"#utility.yul\":2739:2763   */\n      tag_133\n        /* \"#utility.yul\":2757:2762   */\n      dup3\n        /* \"#utility.yul\":2739:2763   */\n      tag_93\n      jump\t// in\n    tag_133:\n        /* \"#utility.yul\":2728:2763   */\n      swap1\n      pop\n        /* \"#utility.yul\":2673:2769   */\n      swap2\n      swap1\n      pop\n      jump\t// out\n        /* \"#utility.yul\":2775:2897   */\n    tag_95:\n        /* \"#utility.yul\":2848:2872   */\n      tag_135\n        /* \"#utility.yul\":2866:2871   */\n      dup2\n        /* \"#utility.yul\":2848:2872   */\n      tag_94\n      jump\t// in\n    tag_135:\n        /* \"#utility.yul\":2841:2846   */\n      dup2\n        /* \"#utility.yul\":2838:2873   */\n      eq\n        /* \"#utility.yul\":2828:2891   */\n      tag_136\n      jumpi\n        /* \"#utility.yul\":2887:2888   */\n      0x00\n        /* \"#utility.yul\":2884:2885   */\n      dup1\n        /* \"#utility.yul\":2877:2889   */\n      revert\n        /* \"#utility.yul\":2828:2891   */\n    tag_136:\n        /* \"#utility.yul\":2775:2897   */\n      pop\n      jump\t// out\n        /* \"#utility.yul\":2903:3042   */\n    tag_96:\n        /* \"#utility.yul\":2949:2954   */\n      0x00\n        /* \"#utility.yul\":2987:2993   */\n      dup2\n        /* \"#utility.yul\":2974:2994   */\n      calldataload\n        /* \"#utility.yul\":2965:2994   */\n      swap1\n      pop\n        /* \"#utility.yul\":3003:3036   */\n      tag_138\n        /* \"#utility.yul\":3030:3035   */\n      dup2\n        /* \"#utility.yul\":3003:3036   */\n      tag_95\n      jump\t// in\n    tag_138:\n        /* \"#utility.yul\":2903:3042   */\n      swap3\n      swap2\n      pop\n      pop\n      jump\t// out\n        /* \"#utility.yul\":3048:3377   */\n    tag_30:\n        /* \"#utility.yul\":3107:3113   */\n      0x00\n        /* \"#utility.yul\":3156:3158   */\n      0x20\n        /* \"#utility.yul\":3144:3153   */\n      dup3\n        /* \"#utility.yul\":3135:3142   */\n      dup5\n        /* \"#utility.yul\":3131:3154   */\n      sub\n        /* \"#utility.yul\":3127:3159   */\n      slt\n        /* \"#utility.yul\":3124:3243   */\n      iszero\n      tag_140\n      jumpi\n        /* \"#utility.yul\":3162:3241   */\n      tag_141\n      tag_91\n      jump\t// in\n    tag_141:\n        /* \"#utility.yul\":3124:3243   */\n    tag_140:\n        /* \"#utility.yul\":3282:3283   */\n      0x00\n        /* \"#utility.yul\":3307:3360   */\n      tag_142\n        /* \"#utility.yul\":3352:3359   */\n      dup5\n        /* \"#utility.yul\":3343:3349   */\n      dup3\n        /* \"#utility.yul\":3332:3341   */\n      dup6\n        /* \"#utility.yul\":3328:3350   */\n      add\n        /* \"#utility.yul\":3307:3360   */\n      tag_96\n      jump\t// in\n    tag_142:\n        /* \"#utility.yul\":3297:3360   */\n      swap2\n      pop\n        /* \"#utility.yul\":3253:3370   */\n      pop\n        /* \"#utility.yul\":3048:3377   */\n      swap3\n      swap2\n      pop\n      pop\n      jump\t// out\n        /* \"#utility.yul\":3383:3505   */\n    tag_97:\n        /* \"#utility.yul\":3456:3480   */\n      tag_144\n        /* \"#utility.yul\":3474:3479   */\n      dup2\n        /* \"#utility.yul\":3456:3480   */\n      tag_86\n      jump\t// in\n    tag_144:\n        /* \"#utility.yul\":3449:3454   */\n      dup2\n        /* \"#utility.yul\":3446:3481   */\n      eq\n        /* \"#utility.yul\":3436:3499   */\n      tag_145\n      jumpi\n        /* \"#utility.yul\":3495:3496   */\n      0x00\n        /* \"#utility.yul\":3492:3493   */\n      dup1\n        /* \"#utility.yul\":3485:3497   */\n      revert\n        /* \"#utility.yul\":3436:3499   */\n    tag_145:\n        /* \"#utility.yul\":3383:3505   */\n      pop\n      jump\t// out\n        /* \"#utility.yul\":3511:3650   */\n    tag_98:\n        /* \"#utility.yul\":3557:3562   */\n      0x00\n        /* \"#utility.yul\":3595:3601   */\n      dup2\n        /* \"#utility.yul\":3582:3602   */\n      calldataload\n        /* \"#utility.yul\":3573:3602   */\n      swap1\n      pop\n        /* \"#utility.yul\":3611:3644   */\n      tag_147\n        /* \"#utility.yul\":3638:3643   */\n      dup2\n        /* \"#utility.yul\":3611:3644   */\n      tag_97\n      jump\t// in\n    tag_147:\n        /* \"#utility.yul\":3511:3650   */\n      swap3\n      swap2\n      pop\n      pop\n      jump\t// out\n        /* \"#utility.yul\":3656:4130   */\n    tag_41:\n        /* \"#utility.yul\":3724:3730   */\n      0x00\n        /* \"#utility.yul\":3732:3738   */\n      dup1\n        /* \"#utility.yul\":3781:3783   */\n      0x40\n        /* \"#utility.yul\":3769:3778   */\n      dup4\n        /* \"#utility.yul\":3760:3767   */\n      dup6\n        /* \"#utility.yul\":3756:3779   */\n      sub\n        /* \"#utility.yul\":3752:3784   */\n      slt\n        /* \"#utility.yul\":3749:3868   */\n      iszero\n      tag_149\n      jumpi\n        /* \"#utility.yul\":3787:3866   */\n      tag_150\n      tag_91\n      jump\t// in\n    tag_150:\n        /* \"#utility.yul\":3749:3868   */\n    tag_149:\n        /* \"#utility.yul\":3907:3908   */\n      0x00\n        /* \"#utility.yul\":3932:3985   */\n      tag_151\n        /* \"#utility.yul\":3977:3984   */\n      dup6\n        /* \"#utility.yul\":3968:3974   */\n      dup3\n        /* \"#utility.yul\":3957:3966   */\n      dup7\n        /* \"#utility.yul\":3953:3975   */\n      add\n        /* \"#utility.yul\":3932:3985   */\n      tag_96\n      jump\t// in\n    tag_151:\n        /* \"#utility.yul\":3922:3985   */\n      swap3\n      pop\n        /* \"#utility.yul\":3878:3995   */\n      pop\n        /* \"#utility.yul\":4034:4036   */\n      0x20\n        /* \"#utility.yul\":4060:4113   */\n      tag_152\n        /* \"#utility.yul\":4105:4112   */\n      dup6\n        /* \"#utility.yul\":4096:4102   */\n      dup3\n        /* \"#utility.yul\":4085:4094   */\n      dup7\n        /* \"#utility.yul\":4081:4103   */\n      add\n        /* \"#utility.yul\":4060:4113   */\n      tag_98\n      jump\t// in\n    tag_152:\n        /* \"#utility.yul\":4050:4113   */\n      swap2\n      pop\n        /* \"#utility.yul\":4005:4123   */\n      pop\n        /* \"#utility.yul\":3656:4130   */\n      swap3\n      pop\n      swap3\n      swap1\n      pop\n      jump\t// out\n        /* \"#utility.yul\":4136:4316   */\n    tag_99:\n        /* \"#utility.yul\":4184:4261   */\n      0x4e487b7100000000000000000000000000000000000000000000000000000000\n        /* \"#utility.yul\":4181:4182   */\n      0x00\n        /* \"#utility.yul\":4174:4262   */\n      mstore\n        /* \"#utility.yul\":4281:4285   */\n      0x22\n        /* \"#utility.yul\":4278:4279   */\n      0x04\n        /* \"#utility.yul\":4271:4286   */\n      mstore\n        /* \"#utility.yul\":4305:4309   */\n      0x24\n        /* \"#utility.yul\":4302:4303   */\n      0x00\n        /* \"#utility.yul\":4295:4310   */\n      revert\n        /* \"#utility.yul\":4322:4642   */\n    tag_47:\n        /* \"#utility.yul\":4366:4372   */\n      0x00\n        /* \"#utility.yul\":4403:4404   */\n      0x02\n        /* \"#utility.yul\":4397:4401   */\n      dup3\n        /* \"#utility.yul\":4393:4405   */\n      div\n        /* \"#utility.yul\":4383:4405   */\n      swap1\n      pop\n        /* \"#utility.yul\":4450:4451   */\n      0x01\n        /* \"#utility.yul\":4444:4448   */\n      dup3\n        /* \"#utility.yul\":4440:4452   */\n      and\n        /* \"#utility.yul\":4471:4489   */\n      dup1\n        /* \"#utility.yul\":4461:4542   */\n      tag_155\n      jumpi\n        /* \"#utility.yul\":4527:4531   */\n      0x7f\n        /* \"#utility.yul\":4519:4525   */\n      dup3\n        /* \"#utility.yul\":4515:4532   */\n      and\n        /* \"#utility.yul\":4505:4532   */\n      swap2\n      pop\n        /* \"#utility.yul\":4461:4542   */\n    tag_155:\n        /* \"#utility.yul\":4589:4591   */\n      0x20\n        /* \"#utility.yul\":4581:4587   */\n      dup3\n        /* \"#utility.yul\":4578:4592   */\n      lt\n        /* \"#utility.yul\":4558:4576   */\n      dup2\n        /* \"#utility.yul\":4555:4593   */\n      sub\n        /* \"#utility.yul\":4552:4636   */\n      tag_156\n      jumpi\n        /* \"#utility.yul\":4608:4626   */\n      tag_157\n      tag_99\n      jump\t// in\n    tag_157:\n        /* \"#utility.yul\":4552:4636   */\n    tag_156:\n        /* \"#utility.yul\":4373:4642   */\n      pop\n        /* \"#utility.yul\":4322:4642   */\n      swap2\n      swap1\n      pop\n      jump\t// out\n        /* \"#utility.yul\":4648:4818   */\n    tag_100:\n        /* \"#utility.yul\":4788:4810   */\n      0x496e73756666696369656e742062616c616e6365000000000000000000000000\n        /* \"#utility.yul\":4784:4785   */\n      0x00\n        /* \"#utility.yul\":4776:4782   */\n      dup3\n        /* \"#utility.yul\":4772:4786   */\n      add\n        /* \"#utility.yul\":4765:4811   */\n      mstore\n        /* \"#utility.yul\":4648:4818   */\n      pop\n      jump\t// out\n        /* \"#utility.yul\":4824:5190   */\n    tag_101:\n        /* \"#utility.yul\":4966:4969   */\n      0x00\n        /* \"#utility.yul\":4987:5054   */\n      tag_160\n        /* \"#utility.yul\":5051:5053   */\n      0x14\n        /* \"#utility.yul\":5046:5049   */\n      dup4\n        /* \"#utility.yul\":4987:5054   */\n      tag_82\n      jump\t// in\n    tag_160:\n        /* \"#utility.yul\":4980:5054   */\n      swap2\n      pop\n        /* \"#utility.yul\":5063:5156   */\n      tag_161\n        /* \"#utility.yul\":5152:5155   */\n      dup3\n        /* \"#utility.yul\":5063:5156   */\n      tag_100\n      jump\t// in\n    tag_161:\n        /* \"#utility.yul\":5181:5183   */\n      0x20\n        /* \"#utility.yul\":5176:5179   */\n      dup3\n        /* \"#utility.yul\":5172:5184   */\n      add\n        /* \"#utility.yul\":5165:5184   */\n      swap1\n      pop\n        /* \"#utility.yul\":4824:5190   */\n      swap2\n      swap1\n      pop\n      jump\t// out\n        /* \"#utility.yul\":5196:5615   */\n    tag_70:\n        /* \"#utility.yul\":5362:5366   */\n      0x00\n        /* \"#utility.yul\":5400:5402   */\n      0x20\n        /* \"#utility.yul\":5389:5398   */\n      dup3\n        /* \"#utility.yul\":5385:5403   */\n      add\n        /* \"#utility.yul\":5377:5403   */\n      swap1\n      pop\n        /* \"#utility.yul\":5449:5458   */\n      dup2\n        /* \"#utility.yul\":5443:5447   */\n      dup2\n        /* \"#utility.yul\":5439:5459   */\n      sub\n        /* \"#utility.yul\":5435:5436   */\n      0x00\n        /* \"#utility.yul\":5424:5433   */\n      dup4\n        /* \"#utility.yul\":5420:5437   */\n      add\n        /* \"#utility.yul\":5413:5460   */\n      mstore\n        /* \"#utility.yul\":5477:5608   */\n      tag_163\n        /* \"#utility.yul\":5603:5607   */\n      dup2\n        /* \"#utility.yul\":5477:5608   */\n      tag_101\n      jump\t// in\n    tag_163:\n        /* \"#utility.yul\":5469:5608   */\n      swap1\n      pop\n        /* \"#utility.yul\":5196:5615   */\n      swap2\n      swap1\n      pop\n      jump\t// out\n        /* \"#utility.yul\":5621:5801   */\n    tag_102:\n        /* \"#utility.yul\":5669:5746   */\n      0x4e487b7100000000000000000000000000000000000000000000000000000000\n        /* \"#utility.yul\":5666:5667   */\n      0x00\n        /* \"#utility.yul\":5659:5747   */\n      mstore\n        /* \"#utility.yul\":5766:5770   */\n      0x11\n        /* \"#utility.yul\":5763:5764   */\n      0x04\n        /* \"#utility.yul\":5756:5771   */\n      mstore\n        /* \"#utility.yul\":5790:5794   */\n      0x24\n        /* \"#utility.yul\":5787:5788   */\n      0x00\n        /* \"#utility.yul\":5780:5795   */\n      revert\n        /* \"#utility.yul\":5807:6001   */\n    tag_72:\n        /* \"#utility.yul\":5847:5851   */\n      0x00\n        /* \"#utility.yul\":5867:5887   */\n      tag_166\n        /* \"#utility.yul\":5885:5886   */\n      dup3\n        /* \"#utility.yul\":5867:5887   */\n      tag_86\n      jump\t// in\n    tag_166:\n        /* \"#utility.yul\":5862:5887   */\n      swap2\n      pop\n        /* \"#utility.yul\":5901:5921   */\n      tag_167\n        /* \"#utility.yul\":5919:5920   */\n      dup4\n        /* \"#utility.yul\":5901:5921   */\n      tag_86\n      jump\t// in\n    tag_167:\n        /* \"#utility.yul\":5896:5921   */\n      swap3\n      pop\n        /* \"#utility.yul\":5945:5946   */\n      dup3\n        /* \"#utility.yul\":5942:5943   */\n      dup3\n        /* \"#utility.yul\":5938:5947   */\n      sub\n        /* \"#utility.yul\":5930:5947   */\n      swap1\n      pop\n        /* \"#utility.yul\":5969:5970   */\n      dup2\n        /* \"#utility.yul\":5963:5967   */\n      dup2\n        /* \"#utility.yul\":5960:5971   */\n      gt\n        /* \"#utility.yul\":5957:5994   */\n      iszero\n      tag_168\n      jumpi\n        /* \"#utility.yul\":5974:5992   */\n      tag_169\n      tag_102\n      jump\t// in\n    tag_169:\n        /* \"#utility.yul\":5957:5994   */\n    tag_168:\n        /* \"#utility.yul\":5807:6001   */\n      swap3\n      swap2\n      pop\n      pop\n      jump\t// out\n        /* \"#utility.yul\":6007:6198   */\n    tag_74:\n        /* \"#utility.yul\":6047:6050   */\n      0x00\n        /* \"#utility.yul\":6066:6086   */\n      tag_171\n        /* \"#utility.yul\":6084:6085   */\n      dup3\n        /* \"#utility.yul\":6066:6086   */\n      tag_86\n      jump\t// in\n    tag_171:\n        /* \"#utility.yul\":6061:6086   */\n      swap2\n      pop\n        /* \"#utility.yul\":6100:6120   */\n      tag_172\n        /* \"#utility.yul\":6118:6119   */\n      dup4\n        /* \"#utility.yul\":6100:6120   */\n      tag_86\n      jump\t// in\n    tag_172:\n        /* \"#utility.yul\":6095:6120   */\n      swap3\n      pop\n        /* \"#utility.yul\":6143:6144   */\n      dup3\n        /* \"#utility.yul\":6140:6141   */\n      dup3\n        /* \"#utility.yul\":6136:6145   */\n      add\n        /* \"#utility.yul\":6129:6145   */\n      swap1\n      pop\n        /* \"#utility.yul\":6164:6167   */\n      dup1\n        /* \"#utility.yul\":6161:6162   */\n      dup3\n        /* \"#utility.yul\":6158:6168   */\n      gt\n        /* \"#utility.yul\":6155:6191   */\n      iszero\n      tag_173\n      jumpi\n        /* \"#utility.yul\":6171:6189   */\n      tag_174\n      tag_102\n      jump\t// in\n    tag_174:\n        /* \"#utility.yul\":6155:6191   */\n    tag_173:\n        /* \"#utility.yul\":6007:6198   */\n      swap3\n      swap2\n      pop\n      pop\n      jump\t// out\n\n    auxdata: 0xa26469706673582212204fd42b94d1dfbf822767aeb53acb3af6d07d6a64f12b0a9386794278e7c29a9064736f6c63430008120033\n}\n",
				"bytecode": {
					"linkReferences": {},
					"object": "60806040523480156200001157600080fd5b506040516200118c3803806200118c833981810160405281019062000037919062000310565b86600490816200004891906200069f565b5085600590816200005a91906200069f565b5080600090816200006c91906200069f565b5084600190816200007e91906200069f565b5083600260006101000a81548160ff021916908360ff1602179055508260038190555082600760003373ffffffffffffffffffffffffffffffffffffffff1673ffffffffffffffffffffffffffffffffffffffff168152602001908152602001600020819055508160069081620000f691906200069f565b505050505050505062000786565b6000604051905090565b600080fd5b600080fd5b600080fd5b600080fd5b6000601f19601f8301169050919050565b7f4e487b7100000000000000000000000000000000000000000000000000000000600052604160045260246000fd5b6200016d8262000122565b810181811067ffffffffffffffff821117156200018f576200018e62000133565b5b80604052505050565b6000620001a462000104565b9050620001b2828262000162565b919050565b600067ffffffffffffffff821115620001d557620001d462000133565b5b620001e08262000122565b9050602081019050919050565b60005b838110156200020d578082015181840152602081019050620001f0565b60008484015250505050565b6000620002306200022a84620001b7565b62000198565b9050828152602081018484840111156200024f576200024e6200011d565b5b6200025c848285620001ed565b509392505050565b600082601f8301126200027c576200027b62000118565b5b81516200028e84826020860162000219565b91505092915050565b600060ff82169050919050565b620002af8162000297565b8114620002bb57600080fd5b50565b600081519050620002cf81620002a4565b92915050565b6000819050919050565b620002ea81620002d5565b8114620002f657600080fd5b50565b6000815190506200030a81620002df565b92915050565b600080600080600080600060e0888a0312156200033257620003316200010e565b5b600088015167ffffffffffffffff81111562000353576200035262000113565b5b620003618a828b0162000264565b975050602088015167ffffffffffffffff81111562000385576200038462000113565b5b620003938a828b0162000264565b965050604088015167ffffffffffffffff811115620003b757620003b662000113565b5b620003c58a828b0162000264565b9550506060620003d88a828b01620002be565b9450506080620003eb8a828b01620002f9565b93505060a088015167ffffffffffffffff8111156200040f576200040e62000113565b5b6200041d8a828b0162000264565b92505060c088015167ffffffffffffffff81111562000441576200044062000113565b5b6200044f8a828b0162000264565b91505092959891949750929550565b600081519050919050565b7f4e487b7100000000000000000000000000000000000000000000000000000000600052602260045260246000fd5b60006002820490506001821680620004b157607f821691505b602082108103620004c757620004c662000469565b5b50919050565b60008190508160005260206000209050919050565b60006020601f8301049050919050565b600082821b905092915050565b600060088302620005317fffffffffffffffffffffffffffffffffffffffffffffffffffffffffffffffff82620004f2565b6200053d8683620004f2565b95508019841693508086168417925050509392505050565b6000819050919050565b6000620005806200057a6200057484620002d5565b62000555565b620002d5565b9050919050565b6000819050919050565b6200059c836200055f565b620005b4620005ab8262000587565b848454620004ff565b825550505050565b600090565b620005cb620005bc565b620005d881848462000591565b505050565b5b818110156200060057620005f4600082620005c1565b600181019050620005de565b5050565b601f8211156200064f576200061981620004cd565b6200062484620004e2565b8101602085101562000634578190505b6200064c6200064385620004e2565b830182620005dd565b50505b505050565b600082821c905092915050565b6000620006746000198460080262000654565b1980831691505092915050565b60006200068f838362000661565b9150826002028217905092915050565b620006aa826200045e565b67ffffffffffffffff811115620006c657620006c562000133565b5b620006d2825462000498565b620006df82828562000604565b600060209050601f83116001811462000717576000841562000702578287015190505b6200070e858262000681565b8655506200077e565b601f1984166200072786620004cd565b60005b8281101562000751578489015182556001820191506020850194506020810190506200072a565b868310156200077157848901516200076d601f89168262000661565b8355505b6001600288020188555050505b505050505050565b6109f680620007966000396000f3fe608060405234801561001057600080fd5b50600436106100935760003560e01c806370a082311161006657806370a0823114610110578063941c06791461014057806395d89b411461015e578063a9059cbb1461017c578063db9578461461019857610093565b806306fdde03146100985780630a1a29b1146100b657806318160ddd146100d4578063313ce567146100f2575b600080fd5b6100a06101b6565b6040516100ad91906106d4565b60405180910390f35b6100be610244565b6040516100cb91906106d4565b60405180910390f35b6100dc6102d2565b6040516100e9919061070f565b60405180910390f35b6100fa6102d8565b6040516101079190610746565b60405180910390f35b61012a600480360381019061012591906107c4565b6102eb565b604051610137919061070f565b60405180910390f35b610148610303565b60405161015591906106d4565b60405180910390f35b610166610391565b60405161017391906106d4565b60405180910390f35b6101966004803603810190610191919061081d565b61041f565b005b6101a06105b6565b6040516101ad91906106d4565b60405180910390f35b600080546101c39061088c565b80601f01602080910402602001604051908101604052809291908181526020018280546101ef9061088c565b801561023c5780601f106102115761010080835404028352916020019161023c565b820191906000526020600020905b81548152906001019060200180831161021f57829003601f168201915b505050505081565b600680546102519061088c565b80601f016020809104026020016040519081016040528092919081815260200182805461027d9061088c565b80156102ca5780601f1061029f576101008083540402835291602001916102ca565b820191906000526020600020905b8154815290600101906020018083116102ad57829003601f168201915b505050505081565b60035481565b600260009054906101000a900460ff1681565b60076020528060005260406000206000915090505481565b600480546103109061088c565b80601f016020809104026020016040519081016040528092919081815260200182805461033c9061088c565b80156103895780601f1061035e57610100808354040283529160200191610389565b820191906000526020600020905b81548152906001019060200180831161036c57829003601f168201915b505050505081565b6001805461039e9061088c565b80601f01602080910402602001604051908101604052809291908181526020018280546103ca9061088c565b80156104175780601f106103ec57610100808354040283529160200191610417565b820191906000526020600020905b8154815290600101906020018083116103fa57829003601f168201915b505050505081565b80600760003373ffffffffffffffffffffffffffffffffffffffff1673ffffffffffffffffffffffffffffffffffffffff1681526020019081526020016000205410156104a1576040517f08c379a000000000000000000000000000000000000000000000000000000000815260040161049890610909565b60405180910390fd5b80600760003373ffffffffffffffffffffffffffffffffffffffff1673ffffffffffffffffffffffffffffffffffffffff16815260200190815260200160002060008282546104f09190610958565b9250508190555080600760008473ffffffffffffffffffffffffffffffffffffffff1673ffffffffffffffffffffffffffffffffffffffff1681526020019081526020016000206000828254610546919061098c565b925050819055508173ffffffffffffffffffffffffffffffffffffffff163373ffffffffffffffffffffffffffffffffffffffff167fddf252ad1be2c89b69c2b068fc378daa952ba7f163c4a11628f55a4df523b3ef836040516105aa919061070f565b60405180910390a35050565b600580546105c39061088c565b80601f01602080910402602001604051908101604052809291908181526020018280546105ef9061088c565b801561063c5780601f106106115761010080835404028352916020019161063c565b820191906000526020600020905b81548152906001019060200180831161061f57829003601f168201915b505050505081565b600081519050919050565b600082825260208201905092915050565b60005b8381101561067e578082015181840152602081019050610663565b60008484015250505050565b6000601f19601f8301169050919050565b60006106a682610644565b6106b0818561064f565b93506106c0818560208601610660565b6106c98161068a565b840191505092915050565b600060208201905081810360008301526106ee818461069b565b905092915050565b6000819050919050565b610709816106f6565b82525050565b60006020820190506107246000830184610700565b92915050565b600060ff82169050919050565b6107408161072a565b82525050565b600060208201905061075b6000830184610737565b92915050565b600080fd5b600073ffffffffffffffffffffffffffffffffffffffff82169050919050565b600061079182610766565b9050919050565b6107a181610786565b81146107ac57600080fd5b50565b6000813590506107be81610798565b92915050565b6000602082840312156107da576107d9610761565b5b60006107e8848285016107af565b91505092915050565b6107fa816106f6565b811461080557600080fd5b50565b600081359050610817816107f1565b92915050565b6000806040838503121561083457610833610761565b5b6000610842858286016107af565b925050602061085385828601610808565b9150509250929050565b7f4e487b7100000000000000000000000000000000000000000000000000000000600052602260045260246000fd5b600060028204905060018216806108a457607f821691505b6020821081036108b7576108b661085d565b5b50919050565b7f496e73756666696369656e742062616c616e6365000000000000000000000000600082015250565b60006108f360148361064f565b91506108fe826108bd565b602082019050919050565b60006020820190508181036000830152610922816108e6565b9050919050565b7f4e487b7100000000000000000000000000000000000000000000000000000000600052601160045260246000fd5b6000610963826106f6565b915061096e836106f6565b925082820390508181111561098657610985610929565b5b92915050565b6000610997826106f6565b91506109a2836106f6565b92508282019050808211156109ba576109b9610929565b5b9291505056fea26469706673582212204fd42b94d1dfbf822767aeb53acb3af6d07d6a64f12b0a9386794278e7c29a9064736f6c63430008120033",
					"opcodes": "PUSH1 0x80 PUSH1 0x40 MSTORE CALLVALUE DUP1 ISZERO PUSH3 0x11 JUMPI PUSH1 0x0 DUP1 REVERT JUMPDEST POP PUSH1 0x40 MLOAD PUSH3 0x118C CODESIZE SUB DUP1 PUSH3 0x118C DUP4 CODECOPY DUP2 DUP2 ADD PUSH1 0x40 MSTORE DUP2 ADD SWAP1 PUSH3 0x37 SWAP2 SWAP1 PUSH3 0x310 JUMP JUMPDEST DUP7 PUSH1 0x4 SWAP1 DUP2 PUSH3 0x48 SWAP2 SWAP1 PUSH3 0x69F JUMP JUMPDEST POP DUP6 PUSH1 0x5 SWAP1 DUP2 PUSH3 0x5A SWAP2 SWAP1 PUSH3 0x69F JUMP JUMPDEST POP DUP1 PUSH1 0x0 SWAP1 DUP2 PUSH3 0x6C SWAP2 SWAP1 PUSH3 0x69F JUMP JUMPDEST POP DUP5 PUSH1 0x1 SWAP1 DUP2 PUSH3 0x7E SWAP2 SWAP1 PUSH3 0x69F JUMP JUMPDEST POP DUP4 PUSH1 0x2 PUSH1 0x0 PUSH2 0x100 EXP DUP2 SLOAD DUP2 PUSH1 0xFF MUL NOT AND SWAP1 DUP4 PUSH1 0xFF AND MUL OR SWAP1 SSTORE POP DUP3 PUSH1 0x3 DUP2 SWAP1 SSTORE POP DUP3 PUSH1 0x7 PUSH1 0x0 CALLER PUSH20 0xFFFFFFFFFFFFFFFFFFFFFFFFFFFFFFFFFFFFFFFF AND PUSH20 0xFFFFFFFFFFFFFFFFFFFFFFFFFFFFFFFFFFFFFFFF AND DUP2 MSTORE PUSH1 0x20 ADD SWAP1 DUP2 MSTORE PUSH1 0x20 ADD PUSH1 0x0 KECCAK256 DUP2 SWAP1 SSTORE POP DUP2 PUSH1 0x6 SWAP1 DUP2 PUSH3 0xF6 SWAP2 SWAP1 PUSH3 0x69F JUMP JUMPDEST POP POP POP POP POP POP POP POP PUSH3 0x786 JUMP JUMPDEST PUSH1 0x0 PUSH1 0x40 MLOAD SWAP1 POP SWAP1 JUMP JUMPDEST PUSH1 0x0 DUP1 REVERT JUMPDEST PUSH1 0x0 DUP1 REVERT JUMPDEST PUSH1 0x0 DUP1 REVERT JUMPDEST PUSH1 0x0 DUP1 REVERT JUMPDEST PUSH1 0x0 PUSH1 0x1F NOT PUSH1 0x1F DUP4 ADD AND SWAP1 POP SWAP2 SWAP1 POP JUMP JUMPDEST PUSH32 0x4E487B7100000000000000000000000000000000000000000000000000000000 PUSH1 0x0 MSTORE PUSH1 0x41 PUSH1 0x4 MSTORE PUSH1 0x24 PUSH1 0x0 REVERT JUMPDEST PUSH3 0x16D DUP3 PUSH3 0x122 JUMP JUMPDEST DUP2 ADD DUP2 DUP2 LT PUSH8 0xFFFFFFFFFFFFFFFF DUP3 GT OR ISZERO PUSH3 0x18F JUMPI PUSH3 0x18E PUSH3 0x133 JUMP JUMPDEST JUMPDEST DUP1 PUSH1 0x40 MSTORE POP POP POP JUMP JUMPDEST PUSH1 0x0 PUSH3 0x1A4 PUSH3 0x104 JUMP JUMPDEST SWAP1 POP PUSH3 0x1B2 DUP3 DUP3 PUSH3 0x162 JUMP JUMPDEST SWAP2 SWAP1 POP JUMP JUMPDEST PUSH1 0x0 PUSH8 0xFFFFFFFFFFFFFFFF DUP3 GT ISZERO PUSH3 0x1D5 JUMPI PUSH3 0x1D4 PUSH3 0x133 JUMP JUMPDEST JUMPDEST PUSH3 0x1E0 DUP3 PUSH3 0x122 JUMP JUMPDEST SWAP1 POP PUSH1 0x20 DUP2 ADD SWAP1 POP SWAP2 SWAP1 POP JUMP JUMPDEST PUSH1 0x0 JUMPDEST DUP4 DUP2 LT ISZERO PUSH3 0x20D JUMPI DUP1 DUP3 ADD MLOAD DUP2 DUP5 ADD MSTORE PUSH1 0x20 DUP2 ADD SWAP1 POP PUSH3 0x1F0 JUMP JUMPDEST PUSH1 0x0 DUP5 DUP5 ADD MSTORE POP POP POP POP JUMP JUMPDEST PUSH1 0x0 PUSH3 0x230 PUSH3 0x22A DUP5 PUSH3 0x1B7 JUMP JUMPDEST PUSH3 0x198 JUMP JUMPDEST SWAP1 POP DUP3 DUP2 MSTORE PUSH1 0x20 DUP2 ADD DUP5 DUP5 DUP5 ADD GT ISZERO PUSH3 0x24F JUMPI PUSH3 0x24E PUSH3 0x11D JUMP JUMPDEST JUMPDEST PUSH3 0x25C DUP5 DUP3 DUP6 PUSH3 0x1ED JUMP JUMPDEST POP SWAP4 SWAP3 POP POP POP JUMP JUMPDEST PUSH1 0x0 DUP3 PUSH1 0x1F DUP4 ADD SLT PUSH3 0x27C JUMPI PUSH3 0x27B PUSH3 0x118 JUMP JUMPDEST JUMPDEST DUP2 MLOAD PUSH3 0x28E DUP5 DUP3 PUSH1 0x20 DUP7 ADD PUSH3 0x219 JUMP JUMPDEST SWAP2 POP POP SWAP3 SWAP2 POP POP JUMP JUMPDEST PUSH1 0x0 PUSH1 0xFF DUP3 AND SWAP1 POP SWAP2 SWAP1 POP JUMP JUMPDEST PUSH3 0x2AF DUP2 PUSH3 0x297 JUMP JUMPDEST DUP2 EQ PUSH3 0x2BB JUMPI PUSH1 0x0 DUP1 REVERT JUMPDEST POP JUMP JUMPDEST PUSH1 0x0 DUP2 MLOAD SWAP1 POP PUSH3 0x2CF DUP2 PUSH3 0x2A4 JUMP JUMPDEST SWAP3 SWAP2 POP POP JUMP JUMPDEST PUSH1 0x0 DUP2 SWAP1 POP SWAP2 SWAP1 POP JUMP JUMPDEST PUSH3 0x2EA DUP2 PUSH3 0x2D5 JUMP JUMPDEST DUP2 EQ PUSH3 0x2F6 JUMPI PUSH1 0x0 DUP1 REVERT JUMPDEST POP JUMP JUMPDEST PUSH1 0x0 DUP2 MLOAD SWAP1 POP PUSH3 0x30A DUP2 PUSH3 0x2DF JUMP JUMPDEST SWAP3 SWAP2 POP POP JUMP JUMPDEST PUSH1 0x0 DUP1 PUSH1 0x0 DUP1 PUSH1 0x0 DUP1 PUSH1 0x0 PUSH1 0xE0 DUP9 DUP11 SUB SLT ISZERO PUSH3 0x332 JUMPI PUSH3 0x331 PUSH3 0x10E JUMP JUMPDEST JUMPDEST PUSH1 0x0 DUP9 ADD MLOAD PUSH8 0xFFFFFFFFFFFFFFFF DUP2 GT ISZERO PUSH3 0x353 JUMPI PUSH3 0x352 PUSH3 0x113 JUMP JUMPDEST JUMPDEST PUSH3 0x361 DUP11 DUP3 DUP12 ADD PUSH3 0x264 JUMP JUMPDEST SWAP8 POP POP PUSH1 0x20 DUP9 ADD MLOAD PUSH8 0xFFFFFFFFFFFFFFFF DUP2 GT ISZERO PUSH3 0x385 JUMPI PUSH3 0x384 PUSH3 0x113 JUMP JUMPDEST JUMPDEST PUSH3 0x393 DUP11 DUP3 DUP12 ADD PUSH3 0x264 JUMP JUMPDEST SWAP7 POP POP PUSH1 0x40 DUP9 ADD MLOAD PUSH8 0xFFFFFFFFFFFFFFFF DUP2 GT ISZERO PUSH3 0x3B7 JUMPI PUSH3 0x3B6 PUSH3 0x113 JUMP JUMPDEST JUMPDEST PUSH3 0x3C5 DUP11 DUP3 DUP12 ADD PUSH3 0x264 JUMP JUMPDEST SWAP6 POP POP PUSH1 0x60 PUSH3 0x3D8 DUP11 DUP3 DUP12 ADD PUSH3 0x2BE JUMP JUMPDEST SWAP5 POP POP PUSH1 0x80 PUSH3 0x3EB DUP11 DUP3 DUP12 ADD PUSH3 0x2F9 JUMP JUMPDEST SWAP4 POP POP PUSH1 0xA0 DUP9 ADD MLOAD PUSH8 0xFFFFFFFFFFFFFFFF DUP2 GT ISZERO PUSH3 0x40F JUMPI PUSH3 0x40E PUSH3 0x113 JUMP JUMPDEST JUMPDEST PUSH3 0x41D DUP11 DUP3 DUP12 ADD PUSH3 0x264 JUMP JUMPDEST SWAP3 POP POP PUSH1 0xC0 DUP9 ADD MLOAD PUSH8 0xFFFFFFFFFFFFFFFF DUP2 GT ISZERO PUSH3 0x441 JUMPI PUSH3 0x440 PUSH3 0x113 JUMP JUMPDEST JUMPDEST PUSH3 0x44F DUP11 DUP3 DUP12 ADD PUSH3 0x264 JUMP JUMPDEST SWAP2 POP POP SWAP3 SWAP6 SWAP9 SWAP2 SWAP5 SWAP8 POP SWAP3 SWAP6 POP JUMP JUMPDEST PUSH1 0x0 DUP2 MLOAD SWAP1 POP SWAP2 SWAP1 POP JUMP JUMPDEST PUSH32 0x4E487B7100000000000000000000000000000000000000000000000000000000 PUSH1 0x0 MSTORE PUSH1 0x22 PUSH1 0x4 MSTORE PUSH1 0x24 PUSH1 0x0 REVERT JUMPDEST PUSH1 0x0 PUSH1 0x2 DUP3 DIV SWAP1 POP PUSH1 0x1 DUP3 AND DUP1 PUSH3 0x4B1 JUMPI PUSH1 0x7F DUP3 AND SWAP2 POP JUMPDEST PUSH1 0x20 DUP3 LT DUP2 SUB PUSH3 0x4C7 JUMPI PUSH3 0x4C6 PUSH3 0x469 JUMP JUMPDEST JUMPDEST POP SWAP2 SWAP1 POP JUMP JUMPDEST PUSH1 0x0 DUP2 SWAP1 POP DUP2 PUSH1 0x0 MSTORE PUSH1 0x20 PUSH1 0x0 KECCAK256 SWAP1 POP SWAP2 SWAP1 POP JUMP JUMPDEST PUSH1 0x0 PUSH1 0x20 PUSH1 0x1F DUP4 ADD DIV SWAP1 POP SWAP2 SWAP1 POP JUMP JUMPDEST PUSH1 0x0 DUP3 DUP3 SHL SWAP1 POP SWAP3 SWAP2 POP POP JUMP JUMPDEST PUSH1 0x0 PUSH1 0x8 DUP4 MUL PUSH3 0x531 PUSH32 0xFFFFFFFFFFFFFFFFFFFFFFFFFFFFFFFFFFFFFFFFFFFFFFFFFFFFFFFFFFFFFFFF DUP3 PUSH3 0x4F2 JUMP JUMPDEST PUSH3 0x53D DUP7 DUP4 PUSH3 0x4F2 JUMP JUMPDEST SWAP6 POP DUP1 NOT DUP5 AND SWAP4 POP DUP1 DUP7 AND DUP5 OR SWAP3 POP POP POP SWAP4 SWAP3 POP POP POP JUMP JUMPDEST PUSH1 0x0 DUP2 SWAP1 POP SWAP2 SWAP1 POP JUMP JUMPDEST PUSH1 0x0 PUSH3 0x580 PUSH3 0x57A PUSH3 0x574 DUP5 PUSH3 0x2D5 JUMP JUMPDEST PUSH3 0x555 JUMP JUMPDEST PUSH3 0x2D5 JUMP JUMPDEST SWAP1 POP SWAP2 SWAP1 POP JUMP JUMPDEST PUSH1 0x0 DUP2 SWAP1 POP SWAP2 SWAP1 POP JUMP JUMPDEST PUSH3 0x59C DUP4 PUSH3 0x55F JUMP JUMPDEST PUSH3 0x5B4 PUSH3 0x5AB DUP3 PUSH3 0x587 JUMP JUMPDEST DUP5 DUP5 SLOAD PUSH3 0x4FF JUMP JUMPDEST DUP3 SSTORE POP POP POP POP JUMP JUMPDEST PUSH1 0x0 SWAP1 JUMP JUMPDEST PUSH3 0x5CB PUSH3 0x5BC JUMP JUMPDEST PUSH3 0x5D8 DUP2 DUP5 DUP5 PUSH3 0x591 JUMP JUMPDEST POP POP POP JUMP JUMPDEST JUMPDEST DUP2 DUP2 LT ISZERO PUSH3 0x600 JUMPI PUSH3 0x5F4 PUSH1 0x0 DUP3 PUSH3 0x5C1 JUMP JUMPDEST PUSH1 0x1 DUP2 ADD SWAP1 POP PUSH3 0x5DE JUMP JUMPDEST POP POP JUMP JUMPDEST PUSH1 0x1F DUP3 GT ISZERO PUSH3 0x64F JUMPI PUSH3 0x619 DUP2 PUSH3 0x4CD JUMP JUMPDEST PUSH3 0x624 DUP5 PUSH3 0x4E2 JUMP JUMPDEST DUP2 ADD PUSH1 0x20 DUP6 LT ISZERO PUSH3 0x634 JUMPI DUP2 SWAP1 POP JUMPDEST PUSH3 0x64C PUSH3 0x643 DUP6 PUSH3 0x4E2 JUMP JUMPDEST DUP4 ADD DUP3 PUSH3 0x5DD JUMP JUMPDEST POP POP JUMPDEST POP POP POP JUMP JUMPDEST PUSH1 0x0 DUP3 DUP3 SHR SWAP1 POP SWAP3 SWAP2 POP POP JUMP JUMPDEST PUSH1 0x0 PUSH3 0x674 PUSH1 0x0 NOT DUP5 PUSH1 0x8 MUL PUSH3 0x654 JUMP JUMPDEST NOT DUP1 DUP4 AND SWAP2 POP POP SWAP3 SWAP2 POP POP JUMP JUMPDEST PUSH1 0x0 PUSH3 0x68F DUP4 DUP4 PUSH3 0x661 JUMP JUMPDEST SWAP2 POP DUP3 PUSH1 0x2 MUL DUP3 OR SWAP1 POP SWAP3 SWAP2 POP POP JUMP JUMPDEST PUSH3 0x6AA DUP3 PUSH3 0x45E JUMP JUMPDEST PUSH8 0xFFFFFFFFFFFFFFFF DUP2 GT ISZERO PUSH3 0x6C6 JUMPI PUSH3 0x6C5 PUSH3 0x133 JUMP JUMPDEST JUMPDEST PUSH3 0x6D2 DUP3 SLOAD PUSH3 0x498 JUMP JUMPDEST PUSH3 0x6DF DUP3 DUP3 DUP6 PUSH3 0x604 JUMP JUMPDEST PUSH1 0x0 PUSH1 0x20 SWAP1 POP PUSH1 0x1F DUP4 GT PUSH1 0x1 DUP2 EQ PUSH3 0x717 JUMPI PUSH1 0x0 DUP5 ISZERO PUSH3 0x702 JUMPI DUP3 DUP8 ADD MLOAD SWAP1 POP JUMPDEST PUSH3 0x70E DUP6 DUP3 PUSH3 0x681 JUMP JUMPDEST DUP7 SSTORE POP PUSH3 0x77E JUMP JUMPDEST PUSH1 0x1F NOT DUP5 AND PUSH3 0x727 DUP7 PUSH3 0x4CD JUMP JUMPDEST PUSH1 0x0 JUMPDEST DUP3 DUP2 LT ISZERO PUSH3 0x751 JUMPI DUP5 DUP10 ADD MLOAD DUP3 SSTORE PUSH1 0x1 DUP3 ADD SWAP2 POP PUSH1 0x20 DUP6 ADD SWAP5 POP PUSH1 0x20 DUP2 ADD SWAP1 POP PUSH3 0x72A JUMP JUMPDEST DUP7 DUP4 LT ISZERO PUSH3 0x771 JUMPI DUP5 DUP10 ADD MLOAD PUSH3 0x76D PUSH1 0x1F DUP10 AND DUP3 PUSH3 0x661 JUMP JUMPDEST DUP4 SSTORE POP JUMPDEST PUSH1 0x1 PUSH1 0x2 DUP9 MUL ADD DUP9 SSTORE POP POP POP JUMPDEST POP POP POP POP POP POP JUMP JUMPDEST PUSH2 0x9F6 DUP1 PUSH3 0x796 PUSH1 0x0 CODECOPY PUSH1 0x0 RETURN INVALID PUSH1 0x80 PUSH1 0x40 MSTORE CALLVALUE DUP1 ISZERO PUSH2 0x10 JUMPI PUSH1 0x0 DUP1 REVERT JUMPDEST POP PUSH1 0x4 CALLDATASIZE LT PUSH2 0x93 JUMPI PUSH1 0x0 CALLDATALOAD PUSH1 0xE0 SHR DUP1 PUSH4 0x70A08231 GT PUSH2 0x66 JUMPI DUP1 PUSH4 0x70A08231 EQ PUSH2 0x110 JUMPI DUP1 PUSH4 0x941C0679 EQ PUSH2 0x140 JUMPI DUP1 PUSH4 0x95D89B41 EQ PUSH2 0x15E JUMPI DUP1 PUSH4 0xA9059CBB EQ PUSH2 0x17C JUMPI DUP1 PUSH4 0xDB957846 EQ PUSH2 0x198 JUMPI PUSH2 0x93 JUMP JUMPDEST DUP1 PUSH4 0x6FDDE03 EQ PUSH2 0x98 JUMPI DUP1 PUSH4 0xA1A29B1 EQ PUSH2 0xB6 JUMPI DUP1 PUSH4 0x18160DDD EQ PUSH2 0xD4 JUMPI DUP1 PUSH4 0x313CE567 EQ PUSH2 0xF2 JUMPI JUMPDEST PUSH1 0x0 DUP1 REVERT JUMPDEST PUSH2 0xA0 PUSH2 0x1B6 JUMP JUMPDEST PUSH1 0x40 MLOAD PUSH2 0xAD SWAP2 SWAP1 PUSH2 0x6D4 JUMP JUMPDEST PUSH1 0x40 MLOAD DUP1 SWAP2 SUB SWAP1 RETURN JUMPDEST PUSH2 0xBE PUSH2 0x244 JUMP JUMPDEST PUSH1 0x40 MLOAD PUSH2 0xCB SWAP2 SWAP1 PUSH2 0x6D4 JUMP JUMPDEST PUSH1 0x40 MLOAD DUP1 SWAP2 SUB SWAP1 RETURN JUMPDEST PUSH2 0xDC PUSH2 0x2D2 JUMP JUMPDEST PUSH1 0x40 MLOAD PUSH2 0xE9 SWAP2 SWAP1 PUSH2 0x70F JUMP JUMPDEST PUSH1 0x40 MLOAD DUP1 SWAP2 SUB SWAP1 RETURN JUMPDEST PUSH2 0xFA PUSH2 0x2D8 JUMP JUMPDEST PUSH1 0x40 MLOAD PUSH2 0x107 SWAP2 SWAP1 PUSH2 0x746 JUMP JUMPDEST PUSH1 0x40 MLOAD DUP1 SWAP2 SUB SWAP1 RETURN JUMPDEST PUSH2 0x12A PUSH1 0x4 DUP1 CALLDATASIZE SUB DUP2 ADD SWAP1 PUSH2 0x125 SWAP2 SWAP1 PUSH2 0x7C4 JUMP JUMPDEST PUSH2 0x2EB JUMP JUMPDEST PUSH1 0x40 MLOAD PUSH2 0x137 SWAP2 SWAP1 PUSH2 0x70F JUMP JUMPDEST PUSH1 0x40 MLOAD DUP1 SWAP2 SUB SWAP1 RETURN JUMPDEST PUSH2 0x148 PUSH2 0x303 JUMP JUMPDEST PUSH1 0x40 MLOAD PUSH2 0x155 SWAP2 SWAP1 PUSH2 0x6D4 JUMP JUMPDEST PUSH1 0x40 MLOAD DUP1 SWAP2 SUB SWAP1 RETURN JUMPDEST PUSH2 0x166 PUSH2 0x391 JUMP JUMPDEST PUSH1 0x40 MLOAD PUSH2 0x173 SWAP2 SWAP1 PUSH2 0x6D4 JUMP JUMPDEST PUSH1 0x40 MLOAD DUP1 SWAP2 SUB SWAP1 RETURN JUMPDEST PUSH2 0x196 PUSH1 0x4 DUP1 CALLDATASIZE SUB DUP2 ADD SWAP1 PUSH2 0x191 SWAP2 SWAP1 PUSH2 0x81D JUMP JUMPDEST PUSH2 0x41F JUMP JUMPDEST STOP JUMPDEST PUSH2 0x1A0 PUSH2 0x5B6 JUMP JUMPDEST PUSH1 0x40 MLOAD PUSH2 0x1AD SWAP2 SWAP1 PUSH2 0x6D4 JUMP JUMPDEST PUSH1 0x40 MLOAD DUP1 SWAP2 SUB SWAP1 RETURN JUMPDEST PUSH1 0x0 DUP1 SLOAD PUSH2 0x1C3 SWAP1 PUSH2 0x88C JUMP JUMPDEST DUP1 PUSH1 0x1F ADD PUSH1 0x20 DUP1 SWAP2 DIV MUL PUSH1 0x20 ADD PUSH1 0x40 MLOAD SWAP1 DUP2 ADD PUSH1 0x40 MSTORE DUP1 SWAP3 SWAP2 SWAP1 DUP2 DUP2 MSTORE PUSH1 0x20 ADD DUP3 DUP1 SLOAD PUSH2 0x1EF SWAP1 PUSH2 0x88C JUMP JUMPDEST DUP1 ISZERO PUSH2 0x23C JUMPI DUP1 PUSH1 0x1F LT PUSH2 0x211 JUMPI PUSH2 0x100 DUP1 DUP4 SLOAD DIV MUL DUP4 MSTORE SWAP2 PUSH1 0x20 ADD SWAP2 PUSH2 0x23C JUMP JUMPDEST DUP3 ADD SWAP2 SWAP1 PUSH1 0x0 MSTORE PUSH1 0x20 PUSH1 0x0 KECCAK256 SWAP1 JUMPDEST DUP2 SLOAD DUP2 MSTORE SWAP1 PUSH1 0x1 ADD SWAP1 PUSH1 0x20 ADD DUP1 DUP4 GT PUSH2 0x21F JUMPI DUP3 SWAP1 SUB PUSH1 0x1F AND DUP3 ADD SWAP2 JUMPDEST POP POP POP POP POP DUP2 JUMP JUMPDEST PUSH1 0x6 DUP1 SLOAD PUSH2 0x251 SWAP1 PUSH2 0x88C JUMP JUMPDEST DUP1 PUSH1 0x1F ADD PUSH1 0x20 DUP1 SWAP2 DIV MUL PUSH1 0x20 ADD PUSH1 0x40 MLOAD SWAP1 DUP2 ADD PUSH1 0x40 MSTORE DUP1 SWAP3 SWAP2 SWAP1 DUP2 DUP2 MSTORE PUSH1 0x20 ADD DUP3 DUP1 SLOAD PUSH2 0x27D SWAP1 PUSH2 0x88C JUMP JUMPDEST DUP1 ISZERO PUSH2 0x2CA JUMPI DUP1 PUSH1 0x1F LT PUSH2 0x29F JUMPI PUSH2 0x100 DUP1 DUP4 SLOAD DIV MUL DUP4 MSTORE SWAP2 PUSH1 0x20 ADD SWAP2 PUSH2 0x2CA JUMP JUMPDEST DUP3 ADD SWAP2 SWAP1 PUSH1 0x0 MSTORE PUSH1 0x20 PUSH1 0x0 KECCAK256 SWAP1 JUMPDEST DUP2 SLOAD DUP2 MSTORE SWAP1 PUSH1 0x1 ADD SWAP1 PUSH1 0x20 ADD DUP1 DUP4 GT PUSH2 0x2AD JUMPI DUP3 SWAP1 SUB PUSH1 0x1F AND DUP3 ADD SWAP2 JUMPDEST POP POP POP POP POP DUP2 JUMP JUMPDEST PUSH1 0x3 SLOAD DUP2 JUMP JUMPDEST PUSH1 0x2 PUSH1 0x0 SWAP1 SLOAD SWAP1 PUSH2 0x100 EXP SWAP1 DIV PUSH1 0xFF AND DUP2 JUMP JUMPDEST PUSH1 0x7 PUSH1 0x20 MSTORE DUP1 PUSH1 0x0 MSTORE PUSH1 0x40 PUSH1 0x0 KECCAK256 PUSH1 0x0 SWAP2 POP SWAP1 POP SLOAD DUP2 JUMP JUMPDEST PUSH1 0x4 DUP1 SLOAD PUSH2 0x310 SWAP1 PUSH2 0x88C JUMP JUMPDEST DUP1 PUSH1 0x1F ADD PUSH1 0x20 DUP1 SWAP2 DIV MUL PUSH1 0x20 ADD PUSH1 0x40 MLOAD SWAP1 DUP2 ADD PUSH1 0x40 MSTORE DUP1 SWAP3 SWAP2 SWAP1 DUP2 DUP2 MSTORE PUSH1 0x20 ADD DUP3 DUP1 SLOAD PUSH2 0x33C SWAP1 PUSH2 0x88C JUMP JUMPDEST DUP1 ISZERO PUSH2 0x389 JUMPI DUP1 PUSH1 0x1F LT PUSH2 0x35E JUMPI PUSH2 0x100 DUP1 DUP4 SLOAD DIV MUL DUP4 MSTORE SWAP2 PUSH1 0x20 ADD SWAP2 PUSH2 0x389 JUMP JUMPDEST DUP3 ADD SWAP2 SWAP1 PUSH1 0x0 MSTORE PUSH1 0x20 PUSH1 0x0 KECCAK256 SWAP1 JUMPDEST DUP2 SLOAD DUP2 MSTORE SWAP1 PUSH1 0x1 ADD SWAP1 PUSH1 0x20 ADD DUP1 DUP4 GT PUSH2 0x36C JUMPI DUP3 SWAP1 SUB PUSH1 0x1F AND DUP3 ADD SWAP2 JUMPDEST POP POP POP POP POP DUP2 JUMP JUMPDEST PUSH1 0x1 DUP1 SLOAD PUSH2 0x39E SWAP1 PUSH2 0x88C JUMP JUMPDEST DUP1 PUSH1 0x1F ADD PUSH1 0x20 DUP1 SWAP2 DIV MUL PUSH1 0x20 ADD PUSH1 0x40 MLOAD SWAP1 DUP2 ADD PUSH1 0x40 MSTORE DUP1 SWAP3 SWAP2 SWAP1 DUP2 DUP2 MSTORE PUSH1 0x20 ADD DUP3 DUP1 SLOAD PUSH2 0x3CA SWAP1 PUSH2 0x88C JUMP JUMPDEST DUP1 ISZERO PUSH2 0x417 JUMPI DUP1 PUSH1 0x1F LT PUSH2 0x3EC JUMPI PUSH2 0x100 DUP1 DUP4 SLOAD DIV MUL DUP4 MSTORE SWAP2 PUSH1 0x20 ADD SWAP2 PUSH2 0x417 JUMP JUMPDEST DUP3 ADD SWAP2 SWAP1 PUSH1 0x0 MSTORE PUSH1 0x20 PUSH1 0x0 KECCAK256 SWAP1 JUMPDEST DUP2 SLOAD DUP2 MSTORE SWAP1 PUSH1 0x1 ADD SWAP1 PUSH1 0x20 ADD DUP1 DUP4 GT PUSH2 0x3FA JUMPI DUP3 SWAP1 SUB PUSH1 0x1F AND DUP3 ADD SWAP2 JUMPDEST POP POP POP POP POP DUP2 JUMP JUMPDEST DUP1 PUSH1 0x7 PUSH1 0x0 CALLER PUSH20 0xFFFFFFFFFFFFFFFFFFFFFFFFFFFFFFFFFFFFFFFF AND PUSH20 0xFFFFFFFFFFFFFFFFFFFFFFFFFFFFFFFFFFFFFFFF AND DUP2 MSTORE PUSH1 0x20 ADD SWAP1 DUP2 MSTORE PUSH1 0x20 ADD PUSH1 0x0 KECCAK256 SLOAD LT ISZERO PUSH2 0x4A1 JUMPI PUSH1 0x40 MLOAD PUSH32 0x8C379A000000000000000000000000000000000000000000000000000000000 DUP2 MSTORE PUSH1 0x4 ADD PUSH2 0x498 SWAP1 PUSH2 0x909 JUMP JUMPDEST PUSH1 0x40 MLOAD DUP1 SWAP2 SUB SWAP1 REVERT JUMPDEST DUP1 PUSH1 0x7 PUSH1 0x0 CALLER PUSH20 0xFFFFFFFFFFFFFFFFFFFFFFFFFFFFFFFFFFFFFFFF AND PUSH20 0xFFFFFFFFFFFFFFFFFFFFFFFFFFFFFFFFFFFFFFFF AND DUP2 MSTORE PUSH1 0x20 ADD SWAP1 DUP2 MSTORE PUSH1 0x20 ADD PUSH1 0x0 KECCAK256 PUSH1 0x0 DUP3 DUP3 SLOAD PUSH2 0x4F0 SWAP2 SWAP1 PUSH2 0x958 JUMP JUMPDEST SWAP3 POP POP DUP2 SWAP1 SSTORE POP DUP1 PUSH1 0x7 PUSH1 0x0 DUP5 PUSH20 0xFFFFFFFFFFFFFFFFFFFFFFFFFFFFFFFFFFFFFFFF AND PUSH20 0xFFFFFFFFFFFFFFFFFFFFFFFFFFFFFFFFFFFFFFFF AND DUP2 MSTORE PUSH1 0x20 ADD SWAP1 DUP2 MSTORE PUSH1 0x20 ADD PUSH1 0x0 KECCAK256 PUSH1 0x0 DUP3 DUP3 SLOAD PUSH2 0x546 SWAP2 SWAP1 PUSH2 0x98C JUMP JUMPDEST SWAP3 POP POP DUP2 SWAP1 SSTORE POP DUP2 PUSH20 0xFFFFFFFFFFFFFFFFFFFFFFFFFFFFFFFFFFFFFFFF AND CALLER PUSH20 0xFFFFFFFFFFFFFFFFFFFFFFFFFFFFFFFFFFFFFFFF AND PUSH32 0xDDF252AD1BE2C89B69C2B068FC378DAA952BA7F163C4A11628F55A4DF523B3EF DUP4 PUSH1 0x40 MLOAD PUSH2 0x5AA SWAP2 SWAP1 PUSH2 0x70F JUMP JUMPDEST PUSH1 0x40 MLOAD DUP1 SWAP2 SUB SWAP1 LOG3 POP POP JUMP JUMPDEST PUSH1 0x5 DUP1 SLOAD PUSH2 0x5C3 SWAP1 PUSH2 0x88C JUMP JUMPDEST DUP1 PUSH1 0x1F ADD PUSH1 0x20 DUP1 SWAP2 DIV MUL PUSH1 0x20 ADD PUSH1 0x40 MLOAD SWAP1 DUP2 ADD PUSH1 0x40 MSTORE DUP1 SWAP3 SWAP2 SWAP1 DUP2 DUP2 MSTORE PUSH1 0x20 ADD DUP3 DUP1 SLOAD PUSH2 0x5EF SWAP1 PUSH2 0x88C JUMP JUMPDEST DUP1 ISZERO PUSH2 0x63C JUMPI DUP1 PUSH1 0x1F LT PUSH2 0x611 JUMPI PUSH2 0x100 DUP1 DUP4 SLOAD DIV MUL DUP4 MSTORE SWAP2 PUSH1 0x20 ADD SWAP2 PUSH2 0x63C JUMP JUMPDEST DUP3 ADD SWAP2 SWAP1 PUSH1 0x0 MSTORE PUSH1 0x20 PUSH1 0x0 KECCAK256 SWAP1 JUMPDEST DUP2 SLOAD DUP2 MSTORE SWAP1 PUSH1 0x1 ADD SWAP1 PUSH1 0x20 ADD DUP1 DUP4 GT PUSH2 0x61F JUMPI DUP3 SWAP1 SUB PUSH1 0x1F AND DUP3 ADD SWAP2 JUMPDEST POP POP POP POP POP DUP2 JUMP JUMPDEST PUSH1 0x0 DUP2 MLOAD SWAP1 POP SWAP2 SWAP1 POP JUMP JUMPDEST PUSH1 0x0 DUP3 DUP3 MSTORE PUSH1 0x20 DUP3 ADD SWAP1 POP SWAP3 SWAP2 POP POP JUMP JUMPDEST PUSH1 0x0 JUMPDEST DUP4 DUP2 LT ISZERO PUSH2 0x67E JUMPI DUP1 DUP3 ADD MLOAD DUP2 DUP5 ADD MSTORE PUSH1 0x20 DUP2 ADD SWAP1 POP PUSH2 0x663 JUMP JUMPDEST PUSH1 0x0 DUP5 DUP5 ADD MSTORE POP POP POP POP JUMP JUMPDEST PUSH1 0x0 PUSH1 0x1F NOT PUSH1 0x1F DUP4 ADD AND SWAP1 POP SWAP2 SWAP1 POP JUMP JUMPDEST PUSH1 0x0 PUSH2 0x6A6 DUP3 PUSH2 0x644 JUMP JUMPDEST PUSH2 0x6B0 DUP2 DUP6 PUSH2 0x64F JUMP JUMPDEST SWAP4 POP PUSH2 0x6C0 DUP2 DUP6 PUSH1 0x20 DUP7 ADD PUSH2 0x660 JUMP JUMPDEST PUSH2 0x6C9 DUP2 PUSH2 0x68A JUMP JUMPDEST DUP5 ADD SWAP2 POP POP SWAP3 SWAP2 POP POP JUMP JUMPDEST PUSH1 0x0 PUSH1 0x20 DUP3 ADD SWAP1 POP DUP2 DUP2 SUB PUSH1 0x0 DUP4 ADD MSTORE PUSH2 0x6EE DUP2 DUP5 PUSH2 0x69B JUMP JUMPDEST SWAP1 POP SWAP3 SWAP2 POP POP JUMP JUMPDEST PUSH1 0x0 DUP2 SWAP1 POP SWAP2 SWAP1 POP JUMP JUMPDEST PUSH2 0x709 DUP2 PUSH2 0x6F6 JUMP JUMPDEST DUP3 MSTORE POP POP JUMP JUMPDEST PUSH1 0x0 PUSH1 0x20 DUP3 ADD SWAP1 POP PUSH2 0x724 PUSH1 0x0 DUP4 ADD DUP5 PUSH2 0x700 JUMP JUMPDEST SWAP3 SWAP2 POP POP JUMP JUMPDEST PUSH1 0x0 PUSH1 0xFF DUP3 AND SWAP1 POP SWAP2 SWAP1 POP JUMP JUMPDEST PUSH2 0x740 DUP2 PUSH2 0x72A JUMP JUMPDEST DUP3 MSTORE POP POP JUMP JUMPDEST PUSH1 0x0 PUSH1 0x20 DUP3 ADD SWAP1 POP PUSH2 0x75B PUSH1 0x0 DUP4 ADD DUP5 PUSH2 0x737 JUMP JUMPDEST SWAP3 SWAP2 POP POP JUMP JUMPDEST PUSH1 0x0 DUP1 REVERT JUMPDEST PUSH1 0x0 PUSH20 0xFFFFFFFFFFFFFFFFFFFFFFFFFFFFFFFFFFFFFFFF DUP3 AND SWAP1 POP SWAP2 SWAP1 POP JUMP JUMPDEST PUSH1 0x0 PUSH2 0x791 DUP3 PUSH2 0x766 JUMP JUMPDEST SWAP1 POP SWAP2 SWAP1 POP JUMP JUMPDEST PUSH2 0x7A1 DUP2 PUSH2 0x786 JUMP JUMPDEST DUP2 EQ PUSH2 0x7AC JUMPI PUSH1 0x0 DUP1 REVERT JUMPDEST POP JUMP JUMPDEST PUSH1 0x0 DUP2 CALLDATALOAD SWAP1 POP PUSH2 0x7BE DUP2 PUSH2 0x798 JUMP JUMPDEST SWAP3 SWAP2 POP POP JUMP JUMPDEST PUSH1 0x0 PUSH1 0x20 DUP3 DUP5 SUB SLT ISZERO PUSH2 0x7DA JUMPI PUSH2 0x7D9 PUSH2 0x761 JUMP JUMPDEST JUMPDEST PUSH1 0x0 PUSH2 0x7E8 DUP5 DUP3 DUP6 ADD PUSH2 0x7AF JUMP JUMPDEST SWAP2 POP POP SWAP3 SWAP2 POP POP JUMP JUMPDEST PUSH2 0x7FA DUP2 PUSH2 0x6F6 JUMP JUMPDEST DUP2 EQ PUSH2 0x805 JUMPI PUSH1 0x0 DUP1 REVERT JUMPDEST POP JUMP JUMPDEST PUSH1 0x0 DUP2 CALLDATALOAD SWAP1 POP PUSH2 0x817 DUP2 PUSH2 0x7F1 JUMP JUMPDEST SWAP3 SWAP2 POP POP JUMP JUMPDEST PUSH1 0x0 DUP1 PUSH1 0x40 DUP4 DUP6 SUB SLT ISZERO PUSH2 0x834 JUMPI PUSH2 0x833 PUSH2 0x761 JUMP JUMPDEST JUMPDEST PUSH1 0x0 PUSH2 0x842 DUP6 DUP3 DUP7 ADD PUSH2 0x7AF JUMP JUMPDEST SWAP3 POP POP PUSH1 0x20 PUSH2 0x853 DUP6 DUP3 DUP7 ADD PUSH2 0x808 JUMP JUMPDEST SWAP2 POP POP SWAP3 POP SWAP3 SWAP1 POP JUMP JUMPDEST PUSH32 0x4E487B7100000000000000000000000000000000000000000000000000000000 PUSH1 0x0 MSTORE PUSH1 0x22 PUSH1 0x4 MSTORE PUSH1 0x24 PUSH1 0x0 REVERT JUMPDEST PUSH1 0x0 PUSH1 0x2 DUP3 DIV SWAP1 POP PUSH1 0x1 DUP3 AND DUP1 PUSH2 0x8A4 JUMPI PUSH1 0x7F DUP3 AND SWAP2 POP JUMPDEST PUSH1 0x20 DUP3 LT DUP2 SUB PUSH2 0x8B7 JUMPI PUSH2 0x8B6 PUSH2 0x85D JUMP JUMPDEST JUMPDEST POP SWAP2 SWAP1 POP JUMP JUMPDEST PUSH32 0x496E73756666696369656E742062616C616E6365000000000000000000000000 PUSH1 0x0 DUP3 ADD MSTORE POP JUMP JUMPDEST PUSH1 0x0 PUSH2 0x8F3 PUSH1 0x14 DUP4 PUSH2 0x64F JUMP JUMPDEST SWAP2 POP PUSH2 0x8FE DUP3 PUSH2 0x8BD JUMP JUMPDEST PUSH1 0x20 DUP3 ADD SWAP1 POP SWAP2 SWAP1 POP JUMP JUMPDEST PUSH1 0x0 PUSH1 0x20 DUP3 ADD SWAP1 POP DUP2 DUP2 SUB PUSH1 0x0 DUP4 ADD MSTORE PUSH2 0x922 DUP2 PUSH2 0x8E6 JUMP JUMPDEST SWAP1 POP SWAP2 SWAP1 POP JUMP JUMPDEST PUSH32 0x4E487B7100000000000000000000000000000000000000000000000000000000 PUSH1 0x0 MSTORE PUSH1 0x11 PUSH1 0x4 MSTORE PUSH1 0x24 PUSH1 0x0 REVERT JUMPDEST PUSH1 0x0 PUSH2 0x963 DUP3 PUSH2 0x6F6 JUMP JUMPDEST SWAP2 POP PUSH2 0x96E DUP4 PUSH2 0x6F6 JUMP JUMPDEST SWAP3 POP DUP3 DUP3 SUB SWAP1 POP DUP2 DUP2 GT ISZERO PUSH2 0x986 JUMPI PUSH2 0x985 PUSH2 0x929 JUMP JUMPDEST JUMPDEST SWAP3 SWAP2 POP POP JUMP JUMPDEST PUSH1 0x0 PUSH2 0x997 DUP3 PUSH2 0x6F6 JUMP JUMPDEST SWAP2 POP PUSH2 0x9A2 DUP4 PUSH2 0x6F6 JUMP JUMPDEST SWAP3 POP DUP3 DUP3 ADD SWAP1 POP DUP1 DUP3 GT ISZERO PUSH2 0x9BA JUMPI PUSH2 0x9B9 PUSH2 0x929 JUMP JUMPDEST JUMPDEST SWAP3 SWAP2 POP POP JUMP INVALID LOG2 PUSH5 0x6970667358 0x22 SLT KECCAK256 0x4F 0xD4 0x2B SWAP5 0xD1 0xDF 0xBF DUP3 0x27 PUSH8 0xAEB53ACB3AF6D07D PUSH11 0x64F12B0A9386794278E7C2 SWAP11 SWAP1 PUSH5 0x736F6C6343 STOP ADDMOD SLT STOP CALLER "
				},
				"gasEstimates": {
					"creation": {
						"codeDepositCost": "510000",
						"executionCost": "infinite",
						"totalCost": "infinite"
					},
					"external": {
						"balanceOf(address)": "2814",
						"company_ID()": "infinite",
						"decimals()": "2538",
						"employee_ID()": "infinite",
						"name()": "infinite",
						"requested_company_ID()": "infinite",
						"symbol()": "infinite",
						"totalSupply()": "2474",
						"transfer(address,uint256)": "infinite"
					}
				},
				"methodIdentifiers": {
					"balanceOf(address)": "70a08231",
					"company_ID()": "db957846",
					"decimals()": "313ce567",
					"employee_ID()": "941c0679",
					"name()": "06fdde03",
					"requested_company_ID()": "0a1a29b1",
					"symbol()": "95d89b41",
					"totalSupply()": "18160ddd",
					"transfer(address,uint256)": "a9059cbb"
				}
			},
			"storageLayout": {
				"storage": [
					{
						"astId": 2,
						"contract": "Reputation/TokenBoundAccount.sol:SimpleToken",
						"label": "name",
						"offset": 0,
						"slot": "0",
						"type": "t_string_storage"
					},
					{
						"astId": 4,
						"contract": "Reputation/TokenBoundAccount.sol:SimpleToken",
						"label": "symbol",
						"offset": 0,
						"slot": "1",
						"type": "t_string_storage"
					},
					{
						"astId": 6,
						"contract": "Reputation/TokenBoundAccount.sol:SimpleToken",
						"label": "decimals",
						"offset": 0,
						"slot": "2",
						"type": "t_uint8"
					},
					{
						"astId": 8,
						"contract": "Reputation/TokenBoundAccount.sol:SimpleToken",
						"label": "totalSupply",
						"offset": 0,
						"slot": "3",
						"type": "t_uint256"
					},
					{
						"astId": 10,
						"contract": "Reputation/TokenBoundAccount.sol:SimpleToken",
						"label": "employee_ID",
						"offset": 0,
						"slot": "4",
						"type": "t_string_storage"
					},
					{
						"astId": 12,
						"contract": "Reputation/TokenBoundAccount.sol:SimpleToken",
						"label": "company_ID",
						"offset": 0,
						"slot": "5",
						"type": "t_string_storage"
					},
					{
						"astId": 14,
						"contract": "Reputation/TokenBoundAccount.sol:SimpleToken",
						"label": "requested_company_ID",
						"offset": 0,
						"slot": "6",
						"type": "t_string_storage"
					},
					{
						"astId": 18,
						"contract": "Reputation/TokenBoundAccount.sol:SimpleToken",
						"label": "balanceOf",
						"offset": 0,
						"slot": "7",
						"type": "t_mapping(t_address,t_uint256)"
					}
				],
				"types": {
					"t_address": {
						"encoding": "inplace",
						"label": "address",
						"numberOfBytes": "20"
					},
					"t_mapping(t_address,t_uint256)": {
						"encoding": "mapping",
						"key": "t_address",
						"label": "mapping(address => uint256)",
						"numberOfBytes": "32",
						"value": "t_uint256"
					},
					"t_string_storage": {
						"encoding": "bytes",
						"label": "string",
						"numberOfBytes": "32"
					},
					"t_uint256": {
						"encoding": "inplace",
						"label": "uint256",
						"numberOfBytes": "32"
					},
					"t_uint8": {
						"encoding": "inplace",
						"label": "uint8",
						"numberOfBytes": "1"
					}
				}
			},
			"userdoc": {
				"kind": "user",
				"methods": {},
				"version": 1
			}
		}
	}
}