{
	"data": {
		"bytecode": {
			"linkReferences": {},
			"object": "608060405234801561001057600080fd5b50616fe880620000216000396000f3fe60806040526004361061036b5760003560e01c806374b6c106116101c6578063b129694e116100f7578063d813cc1911610095578063e985e9c51161006f578063e985e9c514610d24578063f0ba604014610d61578063f32e8b2414610d78578063f5766b3914610d8f5761036b565b8063d813cc1914610cb6578063d9caed1214610cd2578063debe2b0d14610cfb5761036b565b8063d1bbd49c116100d1578063d1bbd49c14610c0e578063d250348514610c39578063d52e4a1014610c62578063d547741f14610c8d5761036b565b8063b129694e14610b7b578063c23135dd14610ba6578063c907c3ec14610be35761036b565b806393fd184411610164578063a2e4cd2e1161013e578063a2e4cd2e14610aaf578063a98d362314610ad8578063aae4b8f714610b15578063b11d7ec114610b525761036b565b806393fd184414610a2e5780639d76ea5814610a59578063a217fddf14610a845761036b565b8063812eecd4116101a0578063812eecd4146109625780638505fe951461099f5780638932a90d146109c857806391d14854146109f15761036b565b806374b6c106146108e357806374cac47d1461090e5780637ec2a724146109375761036b565b80632f2ff15d116102a05780634e2ce6d31161023e5780636207a8da116102185780636207a8da146108015780636352211e1461082c5780636d8ea5b41461086957806370a08231146108a65761036b565b80634e2ce6d31461075c57806350878a471461078757806354b249fb146107c45761036b565b806336568abe1161027a57806336568abe146106a2578063389f07e8146106cb57806342966c68146106f65780634d025fed1461071f5761036b565b80632f2ff15d1461060c5780632f745c591461063557806333818997146106725761036b565b806311a4c03a1161030d578063248a9ca3116102e7578063248a9ca31461055057806326e9ca071461058d578063282478df146105b85780632d33dd5b146105e15761036b565b806311a4c03a146104cf57806318160ddd146104fa578063217751bc146105255761036b565b8063095ea7b311610349578063095ea7b314610413578063097ba3331461043c5780630f15023b1461047957806310e56973146104a45761036b565b806301ffc9a714610370578063068208cd146103ad578063081812fc146103d6575b600080fd5b34801561037c57600080fd5b5061039760048036038101906103929190615213565b610db8565b6040516103a4919061525b565b60405180910390f35b3480156103b957600080fd5b506103d460048036038101906103cf91906152ac565b610e32565b005b3480156103e257600080fd5b506103fd60048036038101906103f891906152ff565b610ec0565b60405161040a919061536d565b60405180910390f35b34801561041f57600080fd5b5061043a600480360381019061043591906153b4565b610f0d565b005b34801561044857600080fd5b50610463600480360381019061045e919061553a565b611061565b60405161047091906155b8565b60405180910390f35b34801561048557600080fd5b5061048e611171565b60405161049b9190615632565b60405180910390f35b3480156104b057600080fd5b506104b9611198565b6040516104c691906155b8565b60405180910390f35b3480156104db57600080fd5b506104e461119f565b6040516104f191906155b8565b60405180910390f35b34801561050657600080fd5b5061050f6111a6565b60405161051c91906155b8565b60405180910390f35b34801561053157600080fd5b5061053a6111b1565b604051610547919061566e565b60405180910390f35b34801561055c57600080fd5b50610577600480360381019061057291906156bf565b6111d8565b60405161058491906156fb565b60405180910390f35b34801561059957600080fd5b506105a26111f8565b6040516105af9190615737565b60405180910390f35b3480156105c457600080fd5b506105df60048036038101906105da91906152ac565b61121f565b005b3480156105ed57600080fd5b506105f66112f9565b6040516106039190615773565b60405180910390f35b34801561061857600080fd5b50610633600480360381019061062e919061578e565b611320565b005b34801561064157600080fd5b5061065c600480360381019061065791906153b4565b611341565b60405161066991906155b8565b60405180910390f35b61068c600480360381019061068791906159b4565b6113de565b6040516106999190615b7c565b60405180910390f35b3480156106ae57600080fd5b506106c960048036038101906106c4919061578e565b611948565b005b3480156106d757600080fd5b506106e06119cb565b6040516106ed9190615bbf565b60405180910390f35b34801561070257600080fd5b5061071d600480360381019061071891906152ff565b6119f2565b005b34801561072b57600080fd5b50610746600480360381019061074191906152ff565b611af4565b604051610753919061536d565b60405180910390f35b34801561076857600080fd5b50610771611b28565b60405161077e91906155b8565b60405180910390f35b34801561079357600080fd5b506107ae60048036038101906107a99190615bda565b611b2f565b6040516107bb919061525b565b60405180910390f35b3480156107d057600080fd5b506107eb60048036038101906107e691906152ff565b611dae565b6040516107f891906155b8565b60405180910390f35b34801561080d57600080fd5b50610816611dcf565b60405161082391906155b8565b60405180910390f35b34801561083857600080fd5b50610853600480360381019061084e91906152ff565b611dda565b604051610860919061536d565b60405180910390f35b34801561087557600080fd5b50610890600480360381019061088b9190615c1a565b611e18565b60405161089d919061525b565b60405180910390f35b3480156108b257600080fd5b506108cd60048036038101906108c89190615c1a565b611f46565b6040516108da91906155b8565b60405180910390f35b3480156108ef57600080fd5b506108f8611f9f565b60405161090591906155b8565b60405180910390f35b34801561091a57600080fd5b5061093560048036038101906109309190615c47565b611fa6565b005b34801561094357600080fd5b5061094c61260c565b6040516109599190615d0a565b60405180910390f35b34801561096e57600080fd5b5061098960048036038101906109849190615c1a565b612633565b60405161099691906155b8565b60405180910390f35b3480156109ab57600080fd5b506109c660048036038101906109c19190615bda565b6126e2565b005b3480156109d457600080fd5b506109ef60048036038101906109ea9190615d7b565b61274d565b005b3480156109fd57600080fd5b50610a186004803603810190610a13919061578e565b612893565b604051610a25919061525b565b60405180910390f35b348015610a3a57600080fd5b50610a436128fe565b604051610a5091906155b8565b60405180910390f35b348015610a6557600080fd5b50610a6e612905565b604051610a7b919061536d565b60405180910390f35b348015610a9057600080fd5b50610a9961292c565b604051610aa691906156fb565b60405180910390f35b348015610abb57600080fd5b50610ad66004803603810190610ad19190615bda565b612933565b005b348015610ae457600080fd5b50610aff6004803603810190610afa91906152ff565b612a27565b604051610b0c919061525b565b60405180910390f35b348015610b2157600080fd5b50610b3c6004803603810190610b379190615c1a565b612b9b565b604051610b49919061525b565b60405180910390f35b348015610b5e57600080fd5b50610b796004803603810190610b749190615bda565b612bce565b005b348015610b8757600080fd5b50610b90612c39565b604051610b9d9190615de9565b60405180910390f35b348015610bb257600080fd5b50610bcd6004803603810190610bc89190615c1a565b612c60565b604051610bda91906155b8565b60405180910390f35b348015610bef57600080fd5b50610bf8612c79565b604051610c059190615e25565b60405180910390f35b348015610c1a57600080fd5b50610c23612ca0565b604051610c309190615e5d565b60405180910390f35b348015610c4557600080fd5b50610c606004803603810190610c5b9190615c1a565b612ca9565b005b348015610c6e57600080fd5b50610c77612d21565b604051610c8491906155b8565b60405180910390f35b348015610c9957600080fd5b50610cb46004803603810190610caf919061578e565b612d2c565b005b610cd06004803603810190610ccb9190615e78565b612d4d565b005b348015610cde57600080fd5b50610cf96004803603810190610cf49190615f3e565b612e67565b005b348015610d0757600080fd5b50610d226004803603810190610d1d91906153b4565b613011565b005b348015610d3057600080fd5b50610d4b6004803603810190610d469190615f91565b6130b0565b604051610d58919061525b565b60405180910390f35b348015610d6d57600080fd5b50610d76613145565b005b348015610d8457600080fd5b50610d8d6131b4565b005b348015610d9b57600080fd5b50610db66004803603810190610db191906152ff565b6131d1565b005b60007f7965db0b000000000000000000000000000000000000000000000000000000007bffffffffffffffffffffffffffffffffffffffffffffffffffffffff1916827bffffffffffffffffffffffffffffffffffffffffffffffffffffffff19161480610e2b5750610e2a8261321b565b5b9050919050565b610e3b83613285565b610e44836132d9565b610e4d8361331b565b610e5682613285565b42610e6084611dae565b610e6a9190616000565b811115610ea3576040517f8744776800000000000000000000000000000000000000000000000000000000815260040160405180910390fd5b610eaf838260006134cd565b610ebb828260016134cd565b505050565b6000610ecb82613285565b6000611047600084815260200190815260200160002060009054906101000a900473ffffffffffffffffffffffffffffffffffffffff16905080915050919050565b610f168161331b565b8173ffffffffffffffffffffffffffffffffffffffff163373ffffffffffffffffffffffffffffffffffffffff1603610f7b576040517ff13228ca00000000000000000000000000000000000000000000000000000000815260040160405180910390fd5b81611047600083815260200190815260200160002060006101000a81548173ffffffffffffffffffffffffffffffffffffffff021916908373ffffffffffffffffffffffffffffffffffffffff160217905550808273ffffffffffffffffffffffffffffffffffffffff16611044600084815260200190815260200160002060009054906101000a900473ffffffffffffffffffffffffffffffffffffffff1673ffffffffffffffffffffffffffffffffffffffff167f8c5be1e5ebec7d5bd14f71427d1e84f3dd0314c0f7b2291e5b200ac8c7c3b92560405160405180910390a45050565b60008073ffffffffffffffffffffffffffffffffffffffff16610c5760009054906101000a900473ffffffffffffffffffffffffffffffffffffffff1673ffffffffffffffffffffffffffffffffffffffff161461116357610c5760009054906101000a900473ffffffffffffffffffffffffffffffffffffffff1673ffffffffffffffffffffffffffffffffffffffff1663221c1fd1338686866040518563ffffffff1660e01b815260040161111b94939291906160b3565b602060405180830381865afa158015611138573d6000803e3d6000fd5b505050506040513d601f19601f8201168201806040525081019061115c9190616114565b905061116a565b610c535490505b9392505050565b610c5160009054906101000a900473ffffffffffffffffffffffffffffffffffffffff1681565b610c535481565b610c525481565b6000610c5554905090565b610c5860009054906101000a900473ffffffffffffffffffffffffffffffffffffffff1681565b600060656000838152602001908152602001600020600101549050919050565b610c5960009054906101000a900473ffffffffffffffffffffffffffffffffffffffff1681565b6112276135da565b60008103611261576040517fe03b033d00000000000000000000000000000000000000000000000000000000815260040160405180910390fd5b610c555482101561129e576040517f1d00cd6b00000000000000000000000000000000000000000000000000000000815260040160405180910390fd5b80610c5c8190555082610c528190555081610c54819055507f9a09448a3f24d3a01ccc67103c7cddbeea820176a18182cc83d0bce585f26a5b8383610c5c546040516112ec93929190616141565b60405180910390a1505050565b610c5760009054906101000a900473ffffffffffffffffffffffffffffffffffffffff1681565b611329826111d8565b6113328161363c565b61133c8383613650565b505050565b600061134c83612633565b8210611384576040517f08e22eae00000000000000000000000000000000000000000000000000000000815260040160405180910390fd5b61104a60008473ffffffffffffffffffffffffffffffffffffffff1673ffffffffffffffffffffffffffffffffffffffff168152602001908152602001600020600083815260200190815260200160002054905092915050565b60606113e8613731565b610c54548651610c55546113fc9190616178565b1115611434576040517f31af695100000000000000000000000000000000000000000000000000000000815260040160405180910390fd5b8451865114158061144757508351865114155b1561147e576040517fed676a4a00000000000000000000000000000000000000000000000000000000815260040160405180910390fd5b600080875167ffffffffffffffff81111561149c5761149b61540f565b5b6040519080825280602002602001820160405280156114ca5781602001602082028036833780820191505090505b50905060005b88518110156118da5760008982815181106114ee576114ed6161ac565b5b6020026020010151905061157c8189848151811061150f5761150e6161ac565b5b60200260200101517fffffffffffffffffffffffffffffffffffffffffffffffffffffffffffffffff610c52541461155557610c5254426115509190616178565b611577565b7fffffffffffffffffffffffffffffffffffffffffffffffffffffffffffffffff5b61377a565b83838151811061158f5761158e6161ac565b5b6020026020010181815250506000611629828b85815181106115b4576115b36161ac565b5b60200260200101518a8a878181106115cf576115ce6161ac565b5b90506020028101906115e191906161ea565b8080601f016020809104026020016040519081016040528093929190818152602001838380828437600081840152601f19601f82011690508083019250505050505050611061565b905080856116379190616178565b945061165d84848151811061164f5761164e6161ac565b5b6020026020010151826138e1565b600073ffffffffffffffffffffffffffffffffffffffff1661047f60009054906101000a900473ffffffffffffffffffffffffffffffffffffffff1673ffffffffffffffffffffffffffffffffffffffff16146116d9576116d88c84815181106116ca576116c96161ac565b5b602002602001015182613a56565b5b6116fd818b85815181106116f0576116ef6161ac565b5b6020026020010151613a94565b60008073ffffffffffffffffffffffffffffffffffffffff1661047f60009054906101000a900473ffffffffffffffffffffffffffffffffffffffff1673ffffffffffffffffffffffffffffffffffffffff1614611775578c8481518110611768576117676161ac565b5b6020026020010151611777565b345b9050600073ffffffffffffffffffffffffffffffffffffffff16610c5760009054906101000a900473ffffffffffffffffffffffffffffffffffffffff1673ffffffffffffffffffffffffffffffffffffffff16146118c457610c5760009054906101000a900473ffffffffffffffffffffffffffffffffffffffff1673ffffffffffffffffffffffffffffffffffffffff16635e895f29868681518110611822576118216161ac565b5b602002602001015133868f898151811061183f5761183e6161ac565b5b60200260200101518e8e8b81811061185a576118596161ac565b5b905060200281019061186c91906161ea565b89896040518963ffffffff1660e01b815260040161189198979695949392919061627a565b600060405180830381600087803b1580156118ab57600080fd5b505af11580156118bf573d6000803e3d6000fd5b505050505b50505080806118d2906162f2565b9150506114d0565b506118e53383613c5b565b6118ee82613d9a565b6118f6613f5f565b60005b875181101561193857611925888281518110611918576119176161ac565b5b6020026020010151614014565b8080611930906162f2565b9150506118f9565b5080925050509695505050505050565b611950614170565b73ffffffffffffffffffffffffffffffffffffffff168173ffffffffffffffffffffffffffffffffffffffff16146119bd576040517f08c379a00000000000000000000000000000000000000000000000000000000081526004016119b4906163bd565b60405180910390fd5b6119c78282614178565b5050565b610c5d60009054906101000a900473ffffffffffffffffffffffffffffffffffffffff1681565b6119fb81613285565b611a048161331b565b80600073ffffffffffffffffffffffffffffffffffffffff16611044600084815260200190815260200160002060009054906101000a900473ffffffffffffffffffffffffffffffffffffffff1673ffffffffffffffffffffffffffffffffffffffff167fddf252ad1be2c89b69c2b068fc378daa952ba7f163c4a11628f55a4df523b3ef60405160405180910390a4611a9d8161425a565b6000611044600083815260200190815260200160002060006101000a81548173ffffffffffffffffffffffffffffffffffffffff021916908373ffffffffffffffffffffffffffffffffffffffff16021790555050565b6110466020528060005260406000206000915054906101000a900473ffffffffffffffffffffffffffffffffffffffff1681565b610c5b5481565b60007fffffffffffffffffffffffffffffffffffffffffffffffffffffffffffffffff6114336000858152602001908152602001600020541480611bc25750600073ffffffffffffffffffffffffffffffffffffffff1661047f60009054906101000a900473ffffffffffffffffffffffffffffffffffffffff1673ffffffffffffffffffffffffffffffffffffffff16145b15611bf9576040517fd9a81c2200000000000000000000000000000000000000000000000000000000815260040160405180910390fd5b611c1b611c0584611dda565b8360405180602001604052806000815250611061565b6114326000858152602001908152602001600020541080611c525750610c5254611433600085815260200190815260200160002054115b80611ce0575061047f60009054906101000a900473ffffffffffffffffffffffffffffffffffffffff1673ffffffffffffffffffffffffffffffffffffffff16611434600085815260200190815260200160002060009054906101000a900473ffffffffffffffffffffffffffffffffffffffff1673ffffffffffffffffffffffffffffffffffffffff1614155b15611d17576040517f986739e700000000000000000000000000000000000000000000000000000000815260040160405180910390fd5b6000612710612328610c5254611d2d91906163dd565b611d37919061644e565b610c5254611049600087815260200190815260200160002060010154611d5d9190616000565b611d679190616178565b905080421015611da3576040517fc1b1d86600000000000000000000000000000000000000000000000000000000815260040160405180910390fd5b600191505092915050565b60006110496000838152602001908152602001600020600101549050919050565b600061143154905090565b6000611044600083815260200190815260200160002060009054906101000a900473ffffffffffffffffffffffffffffffffffffffff169050919050565b600080611e2483611f46565b03611f3157600073ffffffffffffffffffffffffffffffffffffffff16610c5960009054906101000a900473ffffffffffffffffffffffffffffffffffffffff1673ffffffffffffffffffffffffffffffffffffffff1614611f3057610c5960009054906101000a900473ffffffffffffffffffffffffffffffffffffffff1673ffffffffffffffffffffffffffffffffffffffff1663427ede3830336000808760006040518763ffffffff1660e01b8152600401611ee8969594939291906164ba565b602060405180830381865afa158015611f05573d6000803e3d6000fd5b505050506040513d601f19601f82011682018060405250810190611f299190616547565b9050611f41565b5b6001611f3c83611f46565b101590505b919050565b600080611f5283612633565b905060005b81811015611f9857611f71611f6c8583611341565b612a27565b15611f85578280611f81906162f2565b9350505b8080611f90906162f2565b915050611f57565b5050919050565b610c545481565b611fae6135da565b600073ffffffffffffffffffffffffffffffffffffffff168773ffffffffffffffffffffffffffffffffffffffff161415801561200757506120058773ffffffffffffffffffffffffffffffffffffffff16614279565b155b1561204a5760006040517f6788e02b00000000000000000000000000000000000000000000000000000000815260040161204191906165b2565b60405180910390fd5b600073ffffffffffffffffffffffffffffffffffffffff168673ffffffffffffffffffffffffffffffffffffffff16141580156120a357506120a18673ffffffffffffffffffffffffffffffffffffffff16614279565b155b156120e65760016040517f6788e02b0000000000000000000000000000000000000000000000000000000081526004016120dd9190616608565b60405180910390fd5b600073ffffffffffffffffffffffffffffffffffffffff168573ffffffffffffffffffffffffffffffffffffffff161415801561213f575061213d8573ffffffffffffffffffffffffffffffffffffffff16614279565b155b156121825760026040517f6788e02b000000000000000000000000000000000000000000000000000000008152600401612179919061665e565b60405180910390fd5b600073ffffffffffffffffffffffffffffffffffffffff168473ffffffffffffffffffffffffffffffffffffffff16141580156121db57506121d98473ffffffffffffffffffffffffffffffffffffffff16614279565b155b1561221e5760036040517f6788e02b00000000000000000000000000000000000000000000000000000000815260040161221591906166b4565b60405180910390fd5b600073ffffffffffffffffffffffffffffffffffffffff168373ffffffffffffffffffffffffffffffffffffffff161415801561227757506122758373ffffffffffffffffffffffffffffffffffffffff16614279565b155b156122ba5760046040517f6788e02b0000000000000000000000000000000000000000000000000000000081526004016122b1919061670a565b60405180910390fd5b600073ffffffffffffffffffffffffffffffffffffffff168273ffffffffffffffffffffffffffffffffffffffff161415801561231357506123118273ffffffffffffffffffffffffffffffffffffffff16614279565b155b156123565760056040517f6788e02b00000000000000000000000000000000000000000000000000000000815260040161234d9190616760565b60405180910390fd5b600073ffffffffffffffffffffffffffffffffffffffff168173ffffffffffffffffffffffffffffffffffffffff16141580156123af57506123ad8173ffffffffffffffffffffffffffffffffffffffff16614279565b155b156123f25760066040517f6788e02b0000000000000000000000000000000000000000000000000000000081526004016123e991906167b6565b60405180910390fd5b86610c5760006101000a81548173ffffffffffffffffffffffffffffffffffffffff021916908373ffffffffffffffffffffffffffffffffffffffff16021790555085610c5860006101000a81548173ffffffffffffffffffffffffffffffffffffffff021916908373ffffffffffffffffffffffffffffffffffffffff16021790555083610c5a60006101000a81548173ffffffffffffffffffffffffffffffffffffffff021916908373ffffffffffffffffffffffffffffffffffffffff16021790555084610c5960006101000a81548173ffffffffffffffffffffffffffffffffffffffff021916908373ffffffffffffffffffffffffffffffffffffffff16021790555082610c5d60006101000a81548173ffffffffffffffffffffffffffffffffffffffff021916908373ffffffffffffffffffffffffffffffffffffffff16021790555081610c5e60006101000a81548173ffffffffffffffffffffffffffffffffffffffff021916908373ffffffffffffffffffffffffffffffffffffffff16021790555080610c5f60006101000a81548173ffffffffffffffffffffffffffffffffffffffff021916908373ffffffffffffffffffffffffffffffffffffffff1602179055507f0a851288e37fa9a8bc562891998524e95c286fe84f693c1921e0fd0792171af6878787878787876040516125fb97969594939291906167d1565b60405180910390a150505050505050565b610c5a60009054906101000a900473ffffffffffffffffffffffffffffffffffffffff1681565b60008073ffffffffffffffffffffffffffffffffffffffff168273ffffffffffffffffffffffffffffffffffffffff160361269a576040517f5963709b00000000000000000000000000000000000000000000000000000000815260040160405180910390fd5b61104c60008373ffffffffffffffffffffffffffffffffffffffff1673ffffffffffffffffffffffffffffffffffffffff168152602001908152602001600020549050919050565b6126ea613731565b6126f382613285565b6126fd8282611b2f565b5061270982600061429c565b50612717610c535482613a94565b61272c61272383611dda565b610c5354613c5b565b612734613f5f565b61273d81614014565b612749610c5354613d9a565b5050565b6001612757612ca0565b6127619190616840565b61ffff16610c5b54148061277857506000610c5b54145b6127b7576040517f08c379a00000000000000000000000000000000000000000000000000000000081526004016127ae906168c2565b60405180910390fd5b6001460361287c57600073e79b93f8e22676774f2a8dad469175ebd00029fa90508073ffffffffffffffffffffffffffffffffffffffff1663ed9674bd6040518163ffffffff1660e01b8152600401600060405180830381600087803b15801561282057600080fd5b505af1158015612834573d6000803e3d6000fd5b5050505080610c5160006101000a81548173ffffffffffffffffffffffffffffffffffffffff021916908373ffffffffffffffffffffffffffffffffffffffff160217905550505b612884612ca0565b61ffff16610c5b819055505050565b60006065600084815260200190815260200160002060000160008373ffffffffffffffffffffffffffffffffffffffff1673ffffffffffffffffffffffffffffffffffffffff16815260200190815260200160002060009054906101000a900460ff16905092915050565b6110455481565b61047f60009054906101000a900473ffffffffffffffffffffffffffffffffffffffff1681565b6000801b81565b61293b6135da565b612944816144ea565b6000610c53549050600061047f60009054906101000a900473ffffffffffffffffffffffffffffffffffffffff16905083610c53819055508261047f60006101000a81548173ffffffffffffffffffffffffffffffffffffffff021916908373ffffffffffffffffffffffffffffffffffffffff1602179055507f3615065ccf48367ac483ac86701248e2e5ff55bdd9be845007d34a3b68d719d482610c53548361047f60009054906101000a900473ffffffffffffffffffffffffffffffffffffffff16604051612a1994939291906168e2565b60405180910390a150505050565b60008042611049600085815260200190815260200160002060010154119050600073ffffffffffffffffffffffffffffffffffffffff16610c5960009054906101000a900473ffffffffffffffffffffffffffffffffffffffff1673ffffffffffffffffffffffffffffffffffffffff1614612b9257610c5960009054906101000a900473ffffffffffffffffffffffffffffffffffffffff1673ffffffffffffffffffffffffffffffffffffffff1663427ede3830338661104960008981526020019081526020016000206001015461104460008a815260200190815260200160002060009054906101000a900473ffffffffffffffffffffffffffffffffffffffff16876040518763ffffffff1660e01b8152600401612b4e96959493929190616927565b602060405180830381865afa158015612b6b573d6000803e3d6000fd5b505050506040513d601f19601f82011682018060405250810190612b8f9190616547565b90505b80915050919050565b6000612bc77fb89cdd26cddd51301940bf2715f765b626b8a5a9e2681ac62dc83cc2db2530c083612893565b9050919050565b612bd782613285565b612be182336145cf565b158015612bf45750612bf233612b9b565b155b15612c2b576040517f866c2fa700000000000000000000000000000000000000000000000000000000815260040160405180910390fd5b612c3582826146f7565b5050565b610c5f60009054906101000a900473ffffffffffffffffffffffffffffffffffffffff1681565b6114356020528060005260406000206000915090505481565b610c5e60009054906101000a900473ffffffffffffffffffffffffffffffffffffffff1681565b6000600d905090565b612cb16135da565b612cdb7fb89cdd26cddd51301940bf2715f765b626b8a5a9e2681ac62dc83cc2db2530c082611320565b8073ffffffffffffffffffffffffffffffffffffffff167f91d5c045d5bd98bf59a379b259ebca05b93bf79af1845fdf87e3172385d4c7f760405160405180910390a250565b6000610c5c54905090565b612d35826111d8565b612d3e8161363c565b612d488383614178565b505050565b612d55613731565b612d5e84613285565b612d6984600061429c565b506000612dc3612d7886611dda565b8585858080601f016020809104026020016040519081016040528093929190818152602001838380828437600081840152601f19601f82011690508083019250505050505050611061565b9050600073ffffffffffffffffffffffffffffffffffffffff1661047f60009054906101000a900473ffffffffffffffffffffffffffffffffffffffff1673ffffffffffffffffffffffffffffffffffffffff1614612e2757612e268682613a56565b5b612e318185613a94565b612e3b3382613c5b565b612e4585826138e1565b612e4d613f5f565b612e5684614014565b612e5f81613d9a565b505050505050565b612e6f6135da565b60008073ffffffffffffffffffffffffffffffffffffffff168473ffffffffffffffffffffffffffffffffffffffff1603612eac57479050612f29565b8373ffffffffffffffffffffffffffffffffffffffff166370a08231306040518263ffffffff1660e01b8152600401612ee5919061536d565b602060405180830381865afa158015612f02573d6000803e3d6000fd5b505050506040513d601f19601f82011682018060405250810190612f269190616114565b90505b600080831480612f3857508183115b15612f7f5760008211612f77576040517f1f04ddc800000000000000000000000000000000000000000000000000000000815260040160405180910390fd5b819050612f83565b8290505b8373ffffffffffffffffffffffffffffffffffffffff168573ffffffffffffffffffffffffffffffffffffffff163373ffffffffffffffffffffffffffffffffffffffff167f342e7ff505a8a0364cd0dc2ff195c315e43bce86b204846ecd36913e117b109e84604051612ff791906155b8565b60405180910390a461300a858583614803565b5050505050565b6130196135da565b8061143560008473ffffffffffffffffffffffffffffffffffffffff1673ffffffffffffffffffffffffffffffffffffffff168152602001908152602001600020819055508173ffffffffffffffffffffffffffffffffffffffff167fa027572bb55de556a0df93bd38c3871aaf311245c2cd34f0da045aa33a66dbc5826040516130a491906155b8565b60405180910390a25050565b600061104860008473ffffffffffffffffffffffffffffffffffffffff1673ffffffffffffffffffffffffffffffffffffffff16815260200190815260200160002060008373ffffffffffffffffffffffffffffffffffffffff1673ffffffffffffffffffffffffffffffffffffffff16815260200190815260200160002060009054906101000a900460ff16905092915050565b61316f7fb89cdd26cddd51301940bf2715f765b626b8a5a9e2681ac62dc83cc2db2530c033611948565b3373ffffffffffffffffffffffffffffffffffffffff167f42885193b8178d25fca25a38e6fcc93918501e91be06d85e0c8afb3bad95238060405160405180910390a2565b6131bc6135da565b6131c4612ca0565b61ffff16610c5b81905550565b6131d96135da565b80611431819055507f4d816c1058de34c4241ba72c371fb3f2ea05147691b364f04d16bc967ae68a118160405161321091906155b8565b60405180910390a150565b60007f01ffc9a7000000000000000000000000000000000000000000000000000000007bffffffffffffffffffffffffffffffffffffffffffffffffffffffff1916827bffffffffffffffffffffffffffffffffffffffffffffffffffffffff1916149050919050565b6000611049600083815260200190815260200160002060000154036132d6576040517f78fe247300000000000000000000000000000000000000000000000000000000815260040160405180910390fd5b50565b6132e281612a27565b613318576040517f0d9f4fae00000000000000000000000000000000000000000000000000000000815260040160405180910390fd5b50565b60008073ffffffffffffffffffffffffffffffffffffffff16611046600084815260200190815260200160002060009054906101000a900473ffffffffffffffffffffffffffffffffffffffff1673ffffffffffffffffffffffffffffffffffffffff16146133be57611046600083815260200190815260200160002060009054906101000a900473ffffffffffffffffffffffffffffffffffffffff166133f4565b611044600083815260200190815260200160002060009054906101000a900473ffffffffffffffffffffffffffffffffffffffff165b90506133ff33612b9b565b158015613413575061341182336145cf565b155b801561347f57503373ffffffffffffffffffffffffffffffffffffffff16611047600084815260200190815260200160002060009054906101000a900473ffffffffffffffffffffffffffffffffffffffff1673ffffffffffffffffffffffffffffffffffffffff1614155b8015613492575061349081336130b0565b155b156134c9576040517fe17c6d4500000000000000000000000000000000000000000000000000000000815260040160405180910390fd5b5050565b6134d683613285565b600061104960008581526020019081526020016000206001015490508115613559574281111561352c57828161350c9190616178565b611049600086815260200190815260200160002060010181905550613554565b82426135389190616178565b6110496000868152602001908152602001600020600101819055505b613581565b82816135659190616000565b6110496000868152602001908152602001600020600101819055505b837f3c907806849e9204e0e26bb095dfe4b3071576c4323f766735c548211556d05261104960008781526020019081526020016000206001015485856040516135cc93929190616988565b60405180910390a250505050565b6136047fb89cdd26cddd51301940bf2715f765b626b8a5a9e2681ac62dc83cc2db2530c033612893565b61363a576040517f8e1b58c400000000000000000000000000000000000000000000000000000000815260040160405180910390fd5b565b61364d81613648614170565b6148a6565b50565b61365a8282612893565b61372d5760016065600084815260200190815260200160002060000160008373ffffffffffffffffffffffffffffffffffffffff1673ffffffffffffffffffffffffffffffffffffffff16815260200190815260200160002060006101000a81548160ff0219169083151502179055506136d2614170565b73ffffffffffffffffffffffffffffffffffffffff168173ffffffffffffffffffffffffffffffffffffffff16837f2f8788117e7eff1d82e926ec794901d17c78024a50270940304540a733656f0d60405160405180910390a45b5050565b613739612ca0565b61ffff16610c5b5414613778576040517fbab80ec000000000000000000000000000000000000000000000000000000000815260040160405180910390fd5b565b60008073ffffffffffffffffffffffffffffffffffffffff168473ffffffffffffffffffffffffffffffffffffffff16036137e1576040517f5963709b00000000000000000000000000000000000000000000000000000000815260040160405180910390fd5b610c5560008154809291906137f5906162f2565b9190505550610c5554905060405180604001604052808281526020018381525061104960008381526020019081526020016000206000820151816000015560208201518160010155905050600061384b85612633565b0361386a576110456000815480929190613864906162f2565b91905055505b613874818561492b565b61387e81846146f7565b808473ffffffffffffffffffffffffffffffffffffffff16600073ffffffffffffffffffffffffffffffffffffffff167fddf252ad1be2c89b69c2b068fc378daa952ba7f163c4a11628f55a4df523b3ef60405160405180910390a49392505050565b806114326000848152602001908152602001600020541461391657806114326000848152602001908152602001600020819055505b610c52546114336000848152602001908152602001600020541461395157610c52546114336000848152602001908152602001600020819055505b61047f60009054906101000a900473ffffffffffffffffffffffffffffffffffffffff1673ffffffffffffffffffffffffffffffffffffffff16611434600084815260200190815260200160002060009054906101000a900473ffffffffffffffffffffffffffffffffffffffff1673ffffffffffffffffffffffffffffffffffffffff1614613a525761047f60009054906101000a900473ffffffffffffffffffffffffffffffffffffffff16611434600084815260200190815260200160002060006101000a81548173ffffffffffffffffffffffffffffffffffffffff021916908373ffffffffffffffffffffffffffffffffffffffff1602179055505b5050565b80821015613a90576040517fc0017ec400000000000000000000000000000000000000000000000000000000815260040160405180910390fd5b5050565b6000610c5160009054906101000a900473ffffffffffffffffffffffffffffffffffffffff1673ffffffffffffffffffffffffffffffffffffffff163b1115613be557610c5160009054906101000a900473ffffffffffffffffffffffffffffffffffffffff1673ffffffffffffffffffffffffffffffffffffffff1663939d9f1f620493e084846040518463ffffffff1660e01b8152600401613b399291906169bf565b600060405180830381600088803b158015613b5357600080fd5b5087f193505050508015613b65575060015b613bdf573073ffffffffffffffffffffffffffffffffffffffff167f6b18946261693dfd6c760d986b28ad2238b5b0267f8e5b6bc40a2f998e2f20ac610c5160009054906101000a900473ffffffffffffffffffffffffffffffffffffffff16604051613bd2919061536d565b60405180910390a2613be0565b5b613c57565b3073ffffffffffffffffffffffffffffffffffffffff167f6b18946261693dfd6c760d986b28ad2238b5b0267f8e5b6bc40a2f998e2f20ac610c5160009054906101000a900473ffffffffffffffffffffffffffffffffffffffff16604051613c4e919061536d565b60405180910390a25b5050565b600073ffffffffffffffffffffffffffffffffffffffff1661047f60009054906101000a900473ffffffffffffffffffffffffffffffffffffffff1673ffffffffffffffffffffffffffffffffffffffff1614613d5b5761047f60009054906101000a900473ffffffffffffffffffffffffffffffffffffffff1673ffffffffffffffffffffffffffffffffffffffff166323b872dd8330846040518463ffffffff1660e01b8152600401613d12939291906169e8565b6020604051808303816000875af1158015613d31573d6000803e3d6000fd5b505050506040513d601f19601f82011682018060405250810190613d559190616547565b50613d96565b80341015613d95576040517f6c3cddf000000000000000000000000000000000000000000000000000000000815260040160405180910390fd5b5b5050565b600080610c5160009054906101000a900473ffffffffffffffffffffffffffffffffffffffff1673ffffffffffffffffffffffffffffffffffffffff163b1115613f5b57610c5160009054906101000a900473ffffffffffffffffffffffffffffffffffffffff1673ffffffffffffffffffffffffffffffffffffffff1663b0e21e8a6040518163ffffffff1660e01b8152600401602060405180830381865afa925050508015613e6957506040513d601f19601f82011682018060405250810190613e669190616114565b60015b613ee3573073ffffffffffffffffffffffffffffffffffffffff167f6b18946261693dfd6c760d986b28ad2238b5b0267f8e5b6bc40a2f998e2f20ac610c5160009054906101000a900473ffffffffffffffffffffffffffffffffffffffff16604051613ed6919061536d565b60405180910390a2613f5a565b6127108184613ef291906163dd565b613efc919061644e565b915060008214613f5857613f5761047f60009054906101000a900473ffffffffffffffffffffffffffffffffffffffff16610c5160009054906101000a900473ffffffffffffffffffffffffffffffffffffffff1684614803565b5b505b5b5050565b6000611431541461401257613f9b61047f60009054906101000a900473ffffffffffffffffffffffffffffffffffffffff163361143154614803565b3373ffffffffffffffffffffffffffffffffffffffff167f522a883b471164223f18b50f326da8671372b64b4792eac0e63d447e714c3e3b6114315461047f60009054906101000a900473ffffffffffffffffffffffffffffffffffffffff166040516140099291906169bf565b60405180910390a25b565b600073ffffffffffffffffffffffffffffffffffffffff168173ffffffffffffffffffffffffffffffffffffffff161461416d57600061143560008073ffffffffffffffffffffffffffffffffffffffff1673ffffffffffffffffffffffffffffffffffffffff168152602001908152602001600020549050600061143560008473ffffffffffffffffffffffffffffffffffffffff1673ffffffffffffffffffffffffffffffffffffffff16815260200190815260200160002054146141195761143560008373ffffffffffffffffffffffffffffffffffffffff1673ffffffffffffffffffffffffffffffffffffffff1681526020019081526020016000205490505b6000811461416b5761416a61047f60009054906101000a900473ffffffffffffffffffffffffffffffffffffffff168361271084610c535461415b91906163dd565b614165919061644e565b614803565b5b505b50565b600033905090565b6141828282612893565b156142565760006065600084815260200190815260200160002060000160008373ffffffffffffffffffffffffffffffffffffffff1673ffffffffffffffffffffffffffffffffffffffff16815260200190815260200160002060006101000a81548160ff0219169083151502179055506141fb614170565b73ffffffffffffffffffffffffffffffffffffffff168173ffffffffffffffffffffffffffffffffffffffff16837ff6391f5c32d9c69d2a47ea670b442974b53935d1edc7fd64eb21e047a839171b60405160405180910390a45b5050565b4261104960008381526020019081526020016000206001018190555050565b6000808273ffffffffffffffffffffffffffffffffffffffff163b119050919050565b60008061104960008581526020019081526020016000206001015490507fffffffffffffffffffffffffffffffffffffffffffffffffffffffffffffffff8103614312576040517f1fda338200000000000000000000000000000000000000000000000000000000815260040160405180910390fd5b60008084146143215783614326565b610c52545b90507fffffffffffffffffffffffffffffffffffffffffffffffffffffffffffffffff8103614377577fffffffffffffffffffffffffffffffffffffffffffffffffffffffffffffffff92506143a2565b4282111561439257808261438b9190616178565b92506143a1565b804261439e9190616178565b92505b5b82611049600087815260200190815260200160002060010181905550847f3ca112768ff7861e008ace1c11570c52e404c043e585545b5957a1e20961dde3846040516143ee91906155b8565b60405180910390a2600073ffffffffffffffffffffffffffffffffffffffff16610c5e60009054906101000a900473ffffffffffffffffffffffffffffffffffffffff1673ffffffffffffffffffffffffffffffffffffffff16146144e257610c5e60009054906101000a900473ffffffffffffffffffffffffffffffffffffffff1673ffffffffffffffffffffffffffffffffffffffff1663016b9680863386866040518563ffffffff1660e01b81526004016144af9493929190616a1f565b600060405180830381600087803b1580156144c957600080fd5b505af11580156144dd573d6000803e3d6000fd5b505050505b505092915050565b600073ffffffffffffffffffffffffffffffffffffffff168173ffffffffffffffffffffffffffffffffffffffff1614158015614595575060008173ffffffffffffffffffffffffffffffffffffffff166318160ddd6040518163ffffffff1660e01b8152600401602060405180830381865afa15801561456f573d6000803e3d6000fd5b505050506040513d601f19601f820116820180604052508101906145939190616114565b105b156145cc576040517fd0995cf200000000000000000000000000000000000000000000000000000000815260040160405180910390fd5b50565b60008173ffffffffffffffffffffffffffffffffffffffff16611046600085815260200190815260200160002060009054906101000a900473ffffffffffffffffffffffffffffffffffffffff1673ffffffffffffffffffffffffffffffffffffffff1614806146de57508173ffffffffffffffffffffffffffffffffffffffff1661465a84611dda565b73ffffffffffffffffffffffffffffffffffffffff161480156146dd5750600073ffffffffffffffffffffffffffffffffffffffff16611046600085815260200190815260200160002060009054906101000a900473ffffffffffffffffffffffffffffffffffffffff1673ffffffffffffffffffffffffffffffffffffffff16145b5b156146ec57600190506146f1565b600090505b92915050565b8073ffffffffffffffffffffffffffffffffffffffff16611046600084815260200190815260200160002060009054906101000a900473ffffffffffffffffffffffffffffffffffffffff1673ffffffffffffffffffffffffffffffffffffffff16146147ff5780611046600084815260200190815260200160002060006101000a81548173ffffffffffffffffffffffffffffffffffffffff021916908373ffffffffffffffffffffffffffffffffffffffff1602179055506147ba82614a93565b8073ffffffffffffffffffffffffffffffffffffffff16827f9d2895c45a420624de863a2f437b022d879f457bf7a829044055a10c5a6fd5e360405160405180910390a35b5050565b60008111156148a157600073ffffffffffffffffffffffffffffffffffffffff168373ffffffffffffffffffffffffffffffffffffffff160361486e57614869818373ffffffffffffffffffffffffffffffffffffffff16614b5390919063ffffffff16565b6148a0565b600083905061489e83838373ffffffffffffffffffffffffffffffffffffffff16614c479092919063ffffffff16565b505b5b505050565b6148b08282612893565b614927576148bd81614ccd565b6148cb8360001c6020614cfa565b6040516020016148dc929190616b43565b6040516020818303038152906040526040517f08c379a000000000000000000000000000000000000000000000000000000000815260040161491e9190616bb6565b60405180910390fd5b5050565b600061493682612633565b9050610c5c548110614974576040517f17ed864600000000000000000000000000000000000000000000000000000000815260040160405180910390fd5b8061104b6000858152602001908152602001600020819055508261104a60008473ffffffffffffffffffffffffffffffffffffffff1673ffffffffffffffffffffffffffffffffffffffff16815260200190815260200160002060008381526020019081526020016000208190555081611044600085815260200190815260200160002060006101000a81548173ffffffffffffffffffffffffffffffffffffffff021916908373ffffffffffffffffffffffffffffffffffffffff160217905550600161104c60008473ffffffffffffffffffffffffffffffffffffffff1673ffffffffffffffffffffffffffffffffffffffff1681526020019081526020016000206000828254614a879190616178565b92505081905550505050565b600073ffffffffffffffffffffffffffffffffffffffff16611047600083815260200190815260200160002060009054906101000a900473ffffffffffffffffffffffffffffffffffffffff1673ffffffffffffffffffffffffffffffffffffffff1614614b50576000611047600083815260200190815260200160002060006101000a81548173ffffffffffffffffffffffffffffffffffffffff021916908373ffffffffffffffffffffffffffffffffffffffff1602179055505b50565b80471015614b96576040517f08c379a0000000000000000000000000000000000000000000000000000000008152600401614b8d90616c24565b60405180910390fd5b60008273ffffffffffffffffffffffffffffffffffffffff1682604051614bbc90616c75565b60006040518083038185875af1925050503d8060008114614bf9576040519150601f19603f3d011682016040523d82523d6000602084013e614bfe565b606091505b5050905080614c42576040517f08c379a0000000000000000000000000000000000000000000000000000000008152600401614c3990616cfc565b60405180910390fd5b505050565b614cc88363a9059cbb60e01b8484604051602401614c66929190616d1c565b604051602081830303815290604052907bffffffffffffffffffffffffffffffffffffffffffffffffffffffff19166020820180517bffffffffffffffffffffffffffffffffffffffffffffffffffffffff8381831617835250505050614f36565b505050565b6060614cf38273ffffffffffffffffffffffffffffffffffffffff16601460ff16614cfa565b9050919050565b606060006002836002614d0d91906163dd565b614d179190616178565b67ffffffffffffffff811115614d3057614d2f61540f565b5b6040519080825280601f01601f191660200182016040528015614d625781602001600182028036833780820191505090505b5090507f300000000000000000000000000000000000000000000000000000000000000081600081518110614d9a57614d996161ac565b5b60200101907effffffffffffffffffffffffffffffffffffffffffffffffffffffffffffff1916908160001a9053507f780000000000000000000000000000000000000000000000000000000000000081600181518110614dfe57614dfd6161ac565b5b60200101907effffffffffffffffffffffffffffffffffffffffffffffffffffffffffffff1916908160001a90535060006001846002614e3e91906163dd565b614e489190616178565b90505b6001811115614ee8577f3031323334353637383961626364656600000000000000000000000000000000600f861660108110614e8a57614e896161ac565b5b1a60f81b828281518110614ea157614ea06161ac565b5b60200101907effffffffffffffffffffffffffffffffffffffffffffffffffffffffffffff1916908160001a905350600485901c945080614ee190616d45565b9050614e4b565b5060008414614f2c576040517f08c379a0000000000000000000000000000000000000000000000000000000008152600401614f2390616dba565b60405180910390fd5b8091505092915050565b6000614f98826040518060400160405280602081526020017f5361666545524332303a206c6f772d6c6576656c2063616c6c206661696c65648152508573ffffffffffffffffffffffffffffffffffffffff16614ffd9092919063ffffffff16565b9050600081511115614ff85780806020019051810190614fb89190616547565b614ff7576040517f08c379a0000000000000000000000000000000000000000000000000000000008152600401614fee90616e4c565b60405180910390fd5b5b505050565b606061500c8484600085615015565b90509392505050565b60608247101561505a576040517f08c379a000000000000000000000000000000000000000000000000000000000815260040161505190616ede565b60405180910390fd5b6000808673ffffffffffffffffffffffffffffffffffffffff1685876040516150839190616f2f565b60006040518083038185875af1925050503d80600081146150c0576040519150601f19603f3d011682016040523d82523d6000602084013e6150c5565b606091505b50915091506150d6878383876150e2565b92505050949350505050565b6060831561514457600083510361513c576150fc85614279565b61513b576040517f08c379a000000000000000000000000000000000000000000000000000000000815260040161513290616f92565b60405180910390fd5b5b82905061514f565b61514e8383615157565b5b949350505050565b60008251111561516a5781518083602001fd5b806040517f08c379a000000000000000000000000000000000000000000000000000000000815260040161519e9190616bb6565b60405180910390fd5b6000604051905090565b600080fd5b600080fd5b60007fffffffff0000000000000000000000000000000000000000000000000000000082169050919050565b6151f0816151bb565b81146151fb57600080fd5b50565b60008135905061520d816151e7565b92915050565b600060208284031215615229576152286151b1565b5b6000615237848285016151fe565b91505092915050565b60008115159050919050565b61525581615240565b82525050565b6000602082019050615270600083018461524c565b92915050565b6000819050919050565b61528981615276565b811461529457600080fd5b50565b6000813590506152a681615280565b92915050565b6000806000606084860312156152c5576152c46151b1565b5b60006152d386828701615297565b93505060206152e486828701615297565b92505060406152f586828701615297565b9150509250925092565b600060208284031215615315576153146151b1565b5b600061532384828501615297565b91505092915050565b600073ffffffffffffffffffffffffffffffffffffffff82169050919050565b60006153578261532c565b9050919050565b6153678161534c565b82525050565b6000602082019050615382600083018461535e565b92915050565b6153918161534c565b811461539c57600080fd5b50565b6000813590506153ae81615388565b92915050565b600080604083850312156153cb576153ca6151b1565b5b60006153d98582860161539f565b92505060206153ea85828601615297565b9150509250929050565b600080fd5b600080fd5b6000601f19601f8301169050919050565b7f4e487b7100000000000000000000000000000000000000000000000000000000600052604160045260246000fd5b615447826153fe565b810181811067ffffffffffffffff821117156154665761546561540f565b5b80604052505050565b60006154796151a7565b9050615485828261543e565b919050565b600067ffffffffffffffff8211156154a5576154a461540f565b5b6154ae826153fe565b9050602081019050919050565b82818337600083830152505050565b60006154dd6154d88461548a565b61546f565b9050828152602081018484840111156154f9576154f86153f9565b5b6155048482856154bb565b509392505050565b600082601f830112615521576155206153f4565b5b81356155318482602086016154ca565b91505092915050565b600080600060608486031215615553576155526151b1565b5b60006155618682870161539f565b93505060206155728682870161539f565b925050604084013567ffffffffffffffff811115615593576155926151b6565b5b61559f8682870161550c565b9150509250925092565b6155b281615276565b82525050565b60006020820190506155cd60008301846155a9565b92915050565b6000819050919050565b60006155f86155f36155ee8461532c565b6155d3565b61532c565b9050919050565b600061560a826155dd565b9050919050565b600061561c826155ff565b9050919050565b61562c81615611565b82525050565b60006020820190506156476000830184615623565b92915050565b6000615658826155ff565b9050919050565b6156688161564d565b82525050565b6000602082019050615683600083018461565f565b92915050565b6000819050919050565b61569c81615689565b81146156a757600080fd5b50565b6000813590506156b981615693565b92915050565b6000602082840312156156d5576156d46151b1565b5b60006156e3848285016156aa565b91505092915050565b6156f581615689565b82525050565b600060208201905061571060008301846156ec565b92915050565b6000615721826155ff565b9050919050565b61573181615716565b82525050565b600060208201905061574c6000830184615728565b92915050565b600061575d826155ff565b9050919050565b61576d81615752565b82525050565b60006020820190506157886000830184615764565b92915050565b600080604083850312156157a5576157a46151b1565b5b60006157b3858286016156aa565b92505060206157c48582860161539f565b9150509250929050565b600067ffffffffffffffff8211156157e9576157e861540f565b5b602082029050602081019050919050565b600080fd5b600061581261580d846157ce565b61546f565b90508083825260208201905060208402830185811115615835576158346157fa565b5b835b8181101561585e578061584a8882615297565b845260208401935050602081019050615837565b5050509392505050565b600082601f83011261587d5761587c6153f4565b5b813561588d8482602086016157ff565b91505092915050565b600067ffffffffffffffff8211156158b1576158b061540f565b5b602082029050602081019050919050565b60006158d56158d084615896565b61546f565b905080838252602082019050602084028301858111156158f8576158f76157fa565b5b835b81811015615921578061590d888261539f565b8452602084019350506020810190506158fa565b5050509392505050565b600082601f8301126159405761593f6153f4565b5b81356159508482602086016158c2565b91505092915050565b600080fd5b60008083601f840112615974576159736153f4565b5b8235905067ffffffffffffffff81111561599157615990615959565b5b6020830191508360208202830111156159ad576159ac6157fa565b5b9250929050565b60008060008060008060a087890312156159d1576159d06151b1565b5b600087013567ffffffffffffffff8111156159ef576159ee6151b6565b5b6159fb89828a01615868565b965050602087013567ffffffffffffffff811115615a1c57615a1b6151b6565b5b615a2889828a0161592b565b955050604087013567ffffffffffffffff811115615a4957615a486151b6565b5b615a5589828a0161592b565b945050606087013567ffffffffffffffff811115615a7657615a756151b6565b5b615a8289828a0161592b565b935050608087013567ffffffffffffffff811115615aa357615aa26151b6565b5b615aaf89828a0161595e565b92509250509295509295509295565b600081519050919050565b600082825260208201905092915050565b6000819050602082019050919050565b615af381615276565b82525050565b6000615b058383615aea565b60208301905092915050565b6000602082019050919050565b6000615b2982615abe565b615b338185615ac9565b9350615b3e83615ada565b8060005b83811015615b6f578151615b568882615af9565b9750615b6183615b11565b925050600181019050615b42565b5085935050505092915050565b60006020820190508181036000830152615b968184615b1e565b905092915050565b6000615ba9826155ff565b9050919050565b615bb981615b9e565b82525050565b6000602082019050615bd46000830184615bb0565b92915050565b60008060408385031215615bf157615bf06151b1565b5b6000615bff85828601615297565b9250506020615c108582860161539f565b9150509250929050565b600060208284031215615c3057615c2f6151b1565b5b6000615c3e8482850161539f565b91505092915050565b600080600080600080600060e0888a031215615c6657615c656151b1565b5b6000615c748a828b0161539f565b9750506020615c858a828b0161539f565b9650506040615c968a828b0161539f565b9550506060615ca78a828b0161539f565b9450506080615cb88a828b0161539f565b93505060a0615cc98a828b0161539f565b92505060c0615cda8a828b0161539f565b91505092959891949750929550565b6000615cf4826155ff565b9050919050565b615d0481615ce9565b82525050565b6000602082019050615d1f6000830184615cfb565b92915050565b60008083601f840112615d3b57615d3a6153f4565b5b8235905067ffffffffffffffff811115615d5857615d57615959565b5b602083019150836001820283011115615d7457615d736157fa565b5b9250929050565b60008060208385031215615d9257615d916151b1565b5b600083013567ffffffffffffffff811115615db057615daf6151b6565b5b615dbc85828601615d25565b92509250509250929050565b6000615dd3826155ff565b9050919050565b615de381615dc8565b82525050565b6000602082019050615dfe6000830184615dda565b92915050565b6000615e0f826155ff565b9050919050565b615e1f81615e04565b82525050565b6000602082019050615e3a6000830184615e16565b92915050565b600061ffff82169050919050565b615e5781615e40565b82525050565b6000602082019050615e726000830184615e4e565b92915050565b600080600080600060808688031215615e9457615e936151b1565b5b6000615ea288828901615297565b9550506020615eb388828901615297565b9450506040615ec48882890161539f565b935050606086013567ffffffffffffffff811115615ee557615ee46151b6565b5b615ef188828901615d25565b92509250509295509295909350565b6000615f0b8261532c565b9050919050565b615f1b81615f00565b8114615f2657600080fd5b50565b600081359050615f3881615f12565b92915050565b600080600060608486031215615f5757615f566151b1565b5b6000615f658682870161539f565b9350506020615f7686828701615f29565b9250506040615f8786828701615297565b9150509250925092565b60008060408385031215615fa857615fa76151b1565b5b6000615fb68582860161539f565b9250506020615fc78582860161539f565b9150509250929050565b7f4e487b7100000000000000000000000000000000000000000000000000000000600052601160045260246000fd5b600061600b82615276565b915061601683615276565b925082820390508181111561602e5761602d615fd1565b5b92915050565b600081519050919050565b600082825260208201905092915050565b60005b8381101561606e578082015181840152602081019050616053565b60008484015250505050565b600061608582616034565b61608f818561603f565b935061609f818560208601616050565b6160a8816153fe565b840191505092915050565b60006080820190506160c8600083018761535e565b6160d5602083018661535e565b6160e2604083018561535e565b81810360608301526160f4818461607a565b905095945050505050565b60008151905061610e81615280565b92915050565b60006020828403121561612a576161296151b1565b5b6000616138848285016160ff565b91505092915050565b600060608201905061615660008301866155a9565b61616360208301856155a9565b61617060408301846155a9565b949350505050565b600061618382615276565b915061618e83615276565b92508282019050808211156161a6576161a5615fd1565b5b92915050565b7f4e487b7100000000000000000000000000000000000000000000000000000000600052603260045260246000fd5b600080fd5b600080fd5b600080fd5b60008083356001602003843603038112616207576162066161db565b5b80840192508235915067ffffffffffffffff821115616229576162286161e0565b5b602083019250600182023603831315616245576162446161e5565b5b509250929050565b6000616259838561603f565b93506162668385846154bb565b61626f836153fe565b840190509392505050565b600060e08201905061628f600083018b6155a9565b61629c602083018a61535e565b6162a9604083018961535e565b6162b6606083018861535e565b81810360808301526162c981868861624d565b90506162d860a08301856155a9565b6162e560c08301846155a9565b9998505050505050505050565b60006162fd82615276565b91507fffffffffffffffffffffffffffffffffffffffffffffffffffffffffffffffff820361632f5761632e615fd1565b5b600182019050919050565b600082825260208201905092915050565b7f416363657373436f6e74726f6c3a2063616e206f6e6c792072656e6f756e636560008201527f20726f6c657320666f722073656c660000000000000000000000000000000000602082015250565b60006163a7602f8361633a565b91506163b28261634b565b604082019050919050565b600060208201905081810360008301526163d68161639a565b9050919050565b60006163e882615276565b91506163f383615276565b925082820261640181615276565b9150828204841483151761641857616417615fd1565b5b5092915050565b7f4e487b7100000000000000000000000000000000000000000000000000000000600052601260045260246000fd5b600061645982615276565b915061646483615276565b9250826164745761647361641f565b5b828204905092915050565b6000819050919050565b60006164a461649f61649a8461647f565b6155d3565b615276565b9050919050565b6164b481616489565b82525050565b600060c0820190506164cf600083018961535e565b6164dc602083018861535e565b6164e960408301876164ab565b6164f660608301866164ab565b616503608083018561535e565b61651060a083018461524c565b979650505050505050565b61652481615240565b811461652f57600080fd5b50565b6000815190506165418161651b565b92915050565b60006020828403121561655d5761655c6151b1565b5b600061656b84828501616532565b91505092915050565b600060ff82169050919050565b600061659c6165976165928461647f565b6155d3565b616574565b9050919050565b6165ac81616581565b82525050565b60006020820190506165c760008301846165a3565b92915050565b6000819050919050565b60006165f26165ed6165e8846165cd565b6155d3565b616574565b9050919050565b616602816165d7565b82525050565b600060208201905061661d60008301846165f9565b92915050565b6000819050919050565b600061664861664361663e84616623565b6155d3565b616574565b9050919050565b6166588161662d565b82525050565b6000602082019050616673600083018461664f565b92915050565b6000819050919050565b600061669e61669961669484616679565b6155d3565b616574565b9050919050565b6166ae81616683565b82525050565b60006020820190506166c960008301846166a5565b92915050565b6000819050919050565b60006166f46166ef6166ea846166cf565b6155d3565b616574565b9050919050565b616704816166d9565b82525050565b600060208201905061671f60008301846166fb565b92915050565b6000819050919050565b600061674a61674561674084616725565b6155d3565b616574565b9050919050565b61675a8161672f565b82525050565b60006020820190506167756000830184616751565b92915050565b6000819050919050565b60006167a061679b6167968461677b565b6155d3565b616574565b9050919050565b6167b081616785565b82525050565b60006020820190506167cb60008301846167a7565b92915050565b600060e0820190506167e6600083018a61535e565b6167f3602083018961535e565b616800604083018861535e565b61680d606083018761535e565b61681a608083018661535e565b61682760a083018561535e565b61683460c083018461535e565b98975050505050505050565b600061684b82615e40565b915061685683615e40565b9250828203905061ffff8111156168705761686f615fd1565b5b92915050565b7f534348454d415f56455253494f4e5f4e4f545f434f5252454354000000000000600082015250565b60006168ac601a8361633a565b91506168b782616876565b602082019050919050565b600060208201905081810360008301526168db8161689f565b9050919050565b60006080820190506168f760008301876155a9565b61690460208301866155a9565b616911604083018561535e565b61691e606083018461535e565b95945050505050565b600060c08201905061693c600083018961535e565b616949602083018861535e565b61695660408301876155a9565b61696360608301866155a9565b616970608083018561535e565b61697d60a083018461524c565b979650505050505050565b600060608201905061699d60008301866155a9565b6169aa60208301856155a9565b6169b7604083018461524c565b949350505050565b60006040820190506169d460008301856155a9565b6169e1602083018461535e565b9392505050565b60006060820190506169fd600083018661535e565b616a0a602083018561535e565b616a1760408301846155a9565b949350505050565b6000608082019050616a3460008301876155a9565b616a41602083018661535e565b616a4e60408301856155a9565b616a5b60608301846155a9565b95945050505050565b600081905092915050565b7f416363657373436f6e74726f6c3a206163636f756e7420000000000000000000600082015250565b6000616aa5601783616a64565b9150616ab082616a6f565b601782019050919050565b600081519050919050565b6000616ad182616abb565b616adb8185616a64565b9350616aeb818560208601616050565b80840191505092915050565b7f206973206d697373696e6720726f6c6520000000000000000000000000000000600082015250565b6000616b2d601183616a64565b9150616b3882616af7565b601182019050919050565b6000616b4e82616a98565b9150616b5a8285616ac6565b9150616b6582616b20565b9150616b718284616ac6565b91508190509392505050565b6000616b8882616abb565b616b92818561633a565b9350616ba2818560208601616050565b616bab816153fe565b840191505092915050565b60006020820190508181036000830152616bd08184616b7d565b905092915050565b7f416464726573733a20696e73756666696369656e742062616c616e6365000000600082015250565b6000616c0e601d8361633a565b9150616c1982616bd8565b602082019050919050565b60006020820190508181036000830152616c3d81616c01565b9050919050565b600081905092915050565b50565b6000616c5f600083616c44565b9150616c6a82616c4f565b600082019050919050565b6000616c8082616c52565b9150819050919050565b7f416464726573733a20756e61626c6520746f2073656e642076616c75652c207260008201527f6563697069656e74206d61792068617665207265766572746564000000000000602082015250565b6000616ce6603a8361633a565b9150616cf182616c8a565b604082019050919050565b60006020820190508181036000830152616d1581616cd9565b9050919050565b6000604082019050616d31600083018561535e565b616d3e60208301846155a9565b9392505050565b6000616d5082615276565b915060008203616d6357616d62615fd1565b5b600182039050919050565b7f537472696e67733a20686578206c656e67746820696e73756666696369656e74600082015250565b6000616da460208361633a565b9150616daf82616d6e565b602082019050919050565b60006020820190508181036000830152616dd381616d97565b9050919050565b7f5361666545524332303a204552433230206f7065726174696f6e20646964206e60008201527f6f74207375636365656400000000000000000000000000000000000000000000602082015250565b6000616e36602a8361633a565b9150616e4182616dda565b604082019050919050565b60006020820190508181036000830152616e6581616e29565b9050919050565b7f416464726573733a20696e73756666696369656e742062616c616e636520666f60008201527f722063616c6c0000000000000000000000000000000000000000000000000000602082015250565b6000616ec860268361633a565b9150616ed382616e6c565b604082019050919050565b60006020820190508181036000830152616ef781616ebb565b9050919050565b6000616f0982616034565b616f138185616c44565b9350616f23818560208601616050565b80840191505092915050565b6000616f3b8284616efe565b915081905092915050565b7f416464726573733a2063616c6c20746f206e6f6e2d636f6e7472616374000000600082015250565b6000616f7c601d8361633a565b9150616f8782616f46565b602082019050919050565b60006020820190508181036000830152616fab81616f6f565b905091905056fea264697066735822122096c144b570476fdf25f784cbb62fa8e43e9e3c2ed05580964c2027db090ef8dc64736f6c63430008120033",
			"opcodes": "PUSH1 0x80 PUSH1 0x40 MSTORE CALLVALUE DUP1 ISZERO PUSH2 0x10 JUMPI PUSH1 0x0 DUP1 REVERT JUMPDEST POP PUSH2 0x6FE8 DUP1 PUSH3 0x21 PUSH1 0x0 CODECOPY PUSH1 0x0 RETURN INVALID PUSH1 0x80 PUSH1 0x40 MSTORE PUSH1 0x4 CALLDATASIZE LT PUSH2 0x36B JUMPI PUSH1 0x0 CALLDATALOAD PUSH1 0xE0 SHR DUP1 PUSH4 0x74B6C106 GT PUSH2 0x1C6 JUMPI DUP1 PUSH4 0xB129694E GT PUSH2 0xF7 JUMPI DUP1 PUSH4 0xD813CC19 GT PUSH2 0x95 JUMPI DUP1 PUSH4 0xE985E9C5 GT PUSH2 0x6F JUMPI DUP1 PUSH4 0xE985E9C5 EQ PUSH2 0xD24 JUMPI DUP1 PUSH4 0xF0BA6040 EQ PUSH2 0xD61 JUMPI DUP1 PUSH4 0xF32E8B24 EQ PUSH2 0xD78 JUMPI DUP1 PUSH4 0xF5766B39 EQ PUSH2 0xD8F JUMPI PUSH2 0x36B JUMP JUMPDEST DUP1 PUSH4 0xD813CC19 EQ PUSH2 0xCB6 JUMPI DUP1 PUSH4 0xD9CAED12 EQ PUSH2 0xCD2 JUMPI DUP1 PUSH4 0xDEBE2B0D EQ PUSH2 0xCFB JUMPI PUSH2 0x36B JUMP JUMPDEST DUP1 PUSH4 0xD1BBD49C GT PUSH2 0xD1 JUMPI DUP1 PUSH4 0xD1BBD49C EQ PUSH2 0xC0E JUMPI DUP1 PUSH4 0xD2503485 EQ PUSH2 0xC39 JUMPI DUP1 PUSH4 0xD52E4A10 EQ PUSH2 0xC62 JUMPI DUP1 PUSH4 0xD547741F EQ PUSH2 0xC8D JUMPI PUSH2 0x36B JUMP JUMPDEST DUP1 PUSH4 0xB129694E EQ PUSH2 0xB7B JUMPI DUP1 PUSH4 0xC23135DD EQ PUSH2 0xBA6 JUMPI DUP1 PUSH4 0xC907C3EC EQ PUSH2 0xBE3 JUMPI PUSH2 0x36B JUMP JUMPDEST DUP1 PUSH4 0x93FD1844 GT PUSH2 0x164 JUMPI DUP1 PUSH4 0xA2E4CD2E GT PUSH2 0x13E JUMPI DUP1 PUSH4 0xA2E4CD2E EQ PUSH2 0xAAF JUMPI DUP1 PUSH4 0xA98D3623 EQ PUSH2 0xAD8 JUMPI DUP1 PUSH4 0xAAE4B8F7 EQ PUSH2 0xB15 JUMPI DUP1 PUSH4 0xB11D7EC1 EQ PUSH2 0xB52 JUMPI PUSH2 0x36B JUMP JUMPDEST DUP1 PUSH4 0x93FD1844 EQ PUSH2 0xA2E JUMPI DUP1 PUSH4 0x9D76EA58 EQ PUSH2 0xA59 JUMPI DUP1 PUSH4 0xA217FDDF EQ PUSH2 0xA84 JUMPI PUSH2 0x36B JUMP JUMPDEST DUP1 PUSH4 0x812EECD4 GT PUSH2 0x1A0 JUMPI DUP1 PUSH4 0x812EECD4 EQ PUSH2 0x962 JUMPI DUP1 PUSH4 0x8505FE95 EQ PUSH2 0x99F JUMPI DUP1 PUSH4 0x8932A90D EQ PUSH2 0x9C8 JUMPI DUP1 PUSH4 0x91D14854 EQ PUSH2 0x9F1 JUMPI PUSH2 0x36B JUMP JUMPDEST DUP1 PUSH4 0x74B6C106 EQ PUSH2 0x8E3 JUMPI DUP1 PUSH4 0x74CAC47D EQ PUSH2 0x90E JUMPI DUP1 PUSH4 0x7EC2A724 EQ PUSH2 0x937 JUMPI PUSH2 0x36B JUMP JUMPDEST DUP1 PUSH4 0x2F2FF15D GT PUSH2 0x2A0 JUMPI DUP1 PUSH4 0x4E2CE6D3 GT PUSH2 0x23E JUMPI DUP1 PUSH4 0x6207A8DA GT PUSH2 0x218 JUMPI DUP1 PUSH4 0x6207A8DA EQ PUSH2 0x801 JUMPI DUP1 PUSH4 0x6352211E EQ PUSH2 0x82C JUMPI DUP1 PUSH4 0x6D8EA5B4 EQ PUSH2 0x869 JUMPI DUP1 PUSH4 0x70A08231 EQ PUSH2 0x8A6 JUMPI PUSH2 0x36B JUMP JUMPDEST DUP1 PUSH4 0x4E2CE6D3 EQ PUSH2 0x75C JUMPI DUP1 PUSH4 0x50878A47 EQ PUSH2 0x787 JUMPI DUP1 PUSH4 0x54B249FB EQ PUSH2 0x7C4 JUMPI PUSH2 0x36B JUMP JUMPDEST DUP1 PUSH4 0x36568ABE GT PUSH2 0x27A JUMPI DUP1 PUSH4 0x36568ABE EQ PUSH2 0x6A2 JUMPI DUP1 PUSH4 0x389F07E8 EQ PUSH2 0x6CB JUMPI DUP1 PUSH4 0x42966C68 EQ PUSH2 0x6F6 JUMPI DUP1 PUSH4 0x4D025FED EQ PUSH2 0x71F JUMPI PUSH2 0x36B JUMP JUMPDEST DUP1 PUSH4 0x2F2FF15D EQ PUSH2 0x60C JUMPI DUP1 PUSH4 0x2F745C59 EQ PUSH2 0x635 JUMPI DUP1 PUSH4 0x33818997 EQ PUSH2 0x672 JUMPI PUSH2 0x36B JUMP JUMPDEST DUP1 PUSH4 0x11A4C03A GT PUSH2 0x30D JUMPI DUP1 PUSH4 0x248A9CA3 GT PUSH2 0x2E7 JUMPI DUP1 PUSH4 0x248A9CA3 EQ PUSH2 0x550 JUMPI DUP1 PUSH4 0x26E9CA07 EQ PUSH2 0x58D JUMPI DUP1 PUSH4 0x282478DF EQ PUSH2 0x5B8 JUMPI DUP1 PUSH4 0x2D33DD5B EQ PUSH2 0x5E1 JUMPI PUSH2 0x36B JUMP JUMPDEST DUP1 PUSH4 0x11A4C03A EQ PUSH2 0x4CF JUMPI DUP1 PUSH4 0x18160DDD EQ PUSH2 0x4FA JUMPI DUP1 PUSH4 0x217751BC EQ PUSH2 0x525 JUMPI PUSH2 0x36B JUMP JUMPDEST DUP1 PUSH4 0x95EA7B3 GT PUSH2 0x349 JUMPI DUP1 PUSH4 0x95EA7B3 EQ PUSH2 0x413 JUMPI DUP1 PUSH4 0x97BA333 EQ PUSH2 0x43C JUMPI DUP1 PUSH4 0xF15023B EQ PUSH2 0x479 JUMPI DUP1 PUSH4 0x10E56973 EQ PUSH2 0x4A4 JUMPI PUSH2 0x36B JUMP JUMPDEST DUP1 PUSH4 0x1FFC9A7 EQ PUSH2 0x370 JUMPI DUP1 PUSH4 0x68208CD EQ PUSH2 0x3AD JUMPI DUP1 PUSH4 0x81812FC EQ PUSH2 0x3D6 JUMPI JUMPDEST PUSH1 0x0 DUP1 REVERT JUMPDEST CALLVALUE DUP1 ISZERO PUSH2 0x37C JUMPI PUSH1 0x0 DUP1 REVERT JUMPDEST POP PUSH2 0x397 PUSH1 0x4 DUP1 CALLDATASIZE SUB DUP2 ADD SWAP1 PUSH2 0x392 SWAP2 SWAP1 PUSH2 0x5213 JUMP JUMPDEST PUSH2 0xDB8 JUMP JUMPDEST PUSH1 0x40 MLOAD PUSH2 0x3A4 SWAP2 SWAP1 PUSH2 0x525B JUMP JUMPDEST PUSH1 0x40 MLOAD DUP1 SWAP2 SUB SWAP1 RETURN JUMPDEST CALLVALUE DUP1 ISZERO PUSH2 0x3B9 JUMPI PUSH1 0x0 DUP1 REVERT JUMPDEST POP PUSH2 0x3D4 PUSH1 0x4 DUP1 CALLDATASIZE SUB DUP2 ADD SWAP1 PUSH2 0x3CF SWAP2 SWAP1 PUSH2 0x52AC JUMP JUMPDEST PUSH2 0xE32 JUMP JUMPDEST STOP JUMPDEST CALLVALUE DUP1 ISZERO PUSH2 0x3E2 JUMPI PUSH1 0x0 DUP1 REVERT JUMPDEST POP PUSH2 0x3FD PUSH1 0x4 DUP1 CALLDATASIZE SUB DUP2 ADD SWAP1 PUSH2 0x3F8 SWAP2 SWAP1 PUSH2 0x52FF JUMP JUMPDEST PUSH2 0xEC0 JUMP JUMPDEST PUSH1 0x40 MLOAD PUSH2 0x40A SWAP2 SWAP1 PUSH2 0x536D JUMP JUMPDEST PUSH1 0x40 MLOAD DUP1 SWAP2 SUB SWAP1 RETURN JUMPDEST CALLVALUE DUP1 ISZERO PUSH2 0x41F JUMPI PUSH1 0x0 DUP1 REVERT JUMPDEST POP PUSH2 0x43A PUSH1 0x4 DUP1 CALLDATASIZE SUB DUP2 ADD SWAP1 PUSH2 0x435 SWAP2 SWAP1 PUSH2 0x53B4 JUMP JUMPDEST PUSH2 0xF0D JUMP JUMPDEST STOP JUMPDEST CALLVALUE DUP1 ISZERO PUSH2 0x448 JUMPI PUSH1 0x0 DUP1 REVERT JUMPDEST POP PUSH2 0x463 PUSH1 0x4 DUP1 CALLDATASIZE SUB DUP2 ADD SWAP1 PUSH2 0x45E SWAP2 SWAP1 PUSH2 0x553A JUMP JUMPDEST PUSH2 0x1061 JUMP JUMPDEST PUSH1 0x40 MLOAD PUSH2 0x470 SWAP2 SWAP1 PUSH2 0x55B8 JUMP JUMPDEST PUSH1 0x40 MLOAD DUP1 SWAP2 SUB SWAP1 RETURN JUMPDEST CALLVALUE DUP1 ISZERO PUSH2 0x485 JUMPI PUSH1 0x0 DUP1 REVERT JUMPDEST POP PUSH2 0x48E PUSH2 0x1171 JUMP JUMPDEST PUSH1 0x40 MLOAD PUSH2 0x49B SWAP2 SWAP1 PUSH2 0x5632 JUMP JUMPDEST PUSH1 0x40 MLOAD DUP1 SWAP2 SUB SWAP1 RETURN JUMPDEST CALLVALUE DUP1 ISZERO PUSH2 0x4B0 JUMPI PUSH1 0x0 DUP1 REVERT JUMPDEST POP PUSH2 0x4B9 PUSH2 0x1198 JUMP JUMPDEST PUSH1 0x40 MLOAD PUSH2 0x4C6 SWAP2 SWAP1 PUSH2 0x55B8 JUMP JUMPDEST PUSH1 0x40 MLOAD DUP1 SWAP2 SUB SWAP1 RETURN JUMPDEST CALLVALUE DUP1 ISZERO PUSH2 0x4DB JUMPI PUSH1 0x0 DUP1 REVERT JUMPDEST POP PUSH2 0x4E4 PUSH2 0x119F JUMP JUMPDEST PUSH1 0x40 MLOAD PUSH2 0x4F1 SWAP2 SWAP1 PUSH2 0x55B8 JUMP JUMPDEST PUSH1 0x40 MLOAD DUP1 SWAP2 SUB SWAP1 RETURN JUMPDEST CALLVALUE DUP1 ISZERO PUSH2 0x506 JUMPI PUSH1 0x0 DUP1 REVERT JUMPDEST POP PUSH2 0x50F PUSH2 0x11A6 JUMP JUMPDEST PUSH1 0x40 MLOAD PUSH2 0x51C SWAP2 SWAP1 PUSH2 0x55B8 JUMP JUMPDEST PUSH1 0x40 MLOAD DUP1 SWAP2 SUB SWAP1 RETURN JUMPDEST CALLVALUE DUP1 ISZERO PUSH2 0x531 JUMPI PUSH1 0x0 DUP1 REVERT JUMPDEST POP PUSH2 0x53A PUSH2 0x11B1 JUMP JUMPDEST PUSH1 0x40 MLOAD PUSH2 0x547 SWAP2 SWAP1 PUSH2 0x566E JUMP JUMPDEST PUSH1 0x40 MLOAD DUP1 SWAP2 SUB SWAP1 RETURN JUMPDEST CALLVALUE DUP1 ISZERO PUSH2 0x55C JUMPI PUSH1 0x0 DUP1 REVERT JUMPDEST POP PUSH2 0x577 PUSH1 0x4 DUP1 CALLDATASIZE SUB DUP2 ADD SWAP1 PUSH2 0x572 SWAP2 SWAP1 PUSH2 0x56BF JUMP JUMPDEST PUSH2 0x11D8 JUMP JUMPDEST PUSH1 0x40 MLOAD PUSH2 0x584 SWAP2 SWAP1 PUSH2 0x56FB JUMP JUMPDEST PUSH1 0x40 MLOAD DUP1 SWAP2 SUB SWAP1 RETURN JUMPDEST CALLVALUE DUP1 ISZERO PUSH2 0x599 JUMPI PUSH1 0x0 DUP1 REVERT JUMPDEST POP PUSH2 0x5A2 PUSH2 0x11F8 JUMP JUMPDEST PUSH1 0x40 MLOAD PUSH2 0x5AF SWAP2 SWAP1 PUSH2 0x5737 JUMP JUMPDEST PUSH1 0x40 MLOAD DUP1 SWAP2 SUB SWAP1 RETURN JUMPDEST CALLVALUE DUP1 ISZERO PUSH2 0x5C4 JUMPI PUSH1 0x0 DUP1 REVERT JUMPDEST POP PUSH2 0x5DF PUSH1 0x4 DUP1 CALLDATASIZE SUB DUP2 ADD SWAP1 PUSH2 0x5DA SWAP2 SWAP1 PUSH2 0x52AC JUMP JUMPDEST PUSH2 0x121F JUMP JUMPDEST STOP JUMPDEST CALLVALUE DUP1 ISZERO PUSH2 0x5ED JUMPI PUSH1 0x0 DUP1 REVERT JUMPDEST POP PUSH2 0x5F6 PUSH2 0x12F9 JUMP JUMPDEST PUSH1 0x40 MLOAD PUSH2 0x603 SWAP2 SWAP1 PUSH2 0x5773 JUMP JUMPDEST PUSH1 0x40 MLOAD DUP1 SWAP2 SUB SWAP1 RETURN JUMPDEST CALLVALUE DUP1 ISZERO PUSH2 0x618 JUMPI PUSH1 0x0 DUP1 REVERT JUMPDEST POP PUSH2 0x633 PUSH1 0x4 DUP1 CALLDATASIZE SUB DUP2 ADD SWAP1 PUSH2 0x62E SWAP2 SWAP1 PUSH2 0x578E JUMP JUMPDEST PUSH2 0x1320 JUMP JUMPDEST STOP JUMPDEST CALLVALUE DUP1 ISZERO PUSH2 0x641 JUMPI PUSH1 0x0 DUP1 REVERT JUMPDEST POP PUSH2 0x65C PUSH1 0x4 DUP1 CALLDATASIZE SUB DUP2 ADD SWAP1 PUSH2 0x657 SWAP2 SWAP1 PUSH2 0x53B4 JUMP JUMPDEST PUSH2 0x1341 JUMP JUMPDEST PUSH1 0x40 MLOAD PUSH2 0x669 SWAP2 SWAP1 PUSH2 0x55B8 JUMP JUMPDEST PUSH1 0x40 MLOAD DUP1 SWAP2 SUB SWAP1 RETURN JUMPDEST PUSH2 0x68C PUSH1 0x4 DUP1 CALLDATASIZE SUB DUP2 ADD SWAP1 PUSH2 0x687 SWAP2 SWAP1 PUSH2 0x59B4 JUMP JUMPDEST PUSH2 0x13DE JUMP JUMPDEST PUSH1 0x40 MLOAD PUSH2 0x699 SWAP2 SWAP1 PUSH2 0x5B7C JUMP JUMPDEST PUSH1 0x40 MLOAD DUP1 SWAP2 SUB SWAP1 RETURN JUMPDEST CALLVALUE DUP1 ISZERO PUSH2 0x6AE JUMPI PUSH1 0x0 DUP1 REVERT JUMPDEST POP PUSH2 0x6C9 PUSH1 0x4 DUP1 CALLDATASIZE SUB DUP2 ADD SWAP1 PUSH2 0x6C4 SWAP2 SWAP1 PUSH2 0x578E JUMP JUMPDEST PUSH2 0x1948 JUMP JUMPDEST STOP JUMPDEST CALLVALUE DUP1 ISZERO PUSH2 0x6D7 JUMPI PUSH1 0x0 DUP1 REVERT JUMPDEST POP PUSH2 0x6E0 PUSH2 0x19CB JUMP JUMPDEST PUSH1 0x40 MLOAD PUSH2 0x6ED SWAP2 SWAP1 PUSH2 0x5BBF JUMP JUMPDEST PUSH1 0x40 MLOAD DUP1 SWAP2 SUB SWAP1 RETURN JUMPDEST CALLVALUE DUP1 ISZERO PUSH2 0x702 JUMPI PUSH1 0x0 DUP1 REVERT JUMPDEST POP PUSH2 0x71D PUSH1 0x4 DUP1 CALLDATASIZE SUB DUP2 ADD SWAP1 PUSH2 0x718 SWAP2 SWAP1 PUSH2 0x52FF JUMP JUMPDEST PUSH2 0x19F2 JUMP JUMPDEST STOP JUMPDEST CALLVALUE DUP1 ISZERO PUSH2 0x72B JUMPI PUSH1 0x0 DUP1 REVERT JUMPDEST POP PUSH2 0x746 PUSH1 0x4 DUP1 CALLDATASIZE SUB DUP2 ADD SWAP1 PUSH2 0x741 SWAP2 SWAP1 PUSH2 0x52FF JUMP JUMPDEST PUSH2 0x1AF4 JUMP JUMPDEST PUSH1 0x40 MLOAD PUSH2 0x753 SWAP2 SWAP1 PUSH2 0x536D JUMP JUMPDEST PUSH1 0x40 MLOAD DUP1 SWAP2 SUB SWAP1 RETURN JUMPDEST CALLVALUE DUP1 ISZERO PUSH2 0x768 JUMPI PUSH1 0x0 DUP1 REVERT JUMPDEST POP PUSH2 0x771 PUSH2 0x1B28 JUMP JUMPDEST PUSH1 0x40 MLOAD PUSH2 0x77E SWAP2 SWAP1 PUSH2 0x55B8 JUMP JUMPDEST PUSH1 0x40 MLOAD DUP1 SWAP2 SUB SWAP1 RETURN JUMPDEST CALLVALUE DUP1 ISZERO PUSH2 0x793 JUMPI PUSH1 0x0 DUP1 REVERT JUMPDEST POP PUSH2 0x7AE PUSH1 0x4 DUP1 CALLDATASIZE SUB DUP2 ADD SWAP1 PUSH2 0x7A9 SWAP2 SWAP1 PUSH2 0x5BDA JUMP JUMPDEST PUSH2 0x1B2F JUMP JUMPDEST PUSH1 0x40 MLOAD PUSH2 0x7BB SWAP2 SWAP1 PUSH2 0x525B JUMP JUMPDEST PUSH1 0x40 MLOAD DUP1 SWAP2 SUB SWAP1 RETURN JUMPDEST CALLVALUE DUP1 ISZERO PUSH2 0x7D0 JUMPI PUSH1 0x0 DUP1 REVERT JUMPDEST POP PUSH2 0x7EB PUSH1 0x4 DUP1 CALLDATASIZE SUB DUP2 ADD SWAP1 PUSH2 0x7E6 SWAP2 SWAP1 PUSH2 0x52FF JUMP JUMPDEST PUSH2 0x1DAE JUMP JUMPDEST PUSH1 0x40 MLOAD PUSH2 0x7F8 SWAP2 SWAP1 PUSH2 0x55B8 JUMP JUMPDEST PUSH1 0x40 MLOAD DUP1 SWAP2 SUB SWAP1 RETURN JUMPDEST CALLVALUE DUP1 ISZERO PUSH2 0x80D JUMPI PUSH1 0x0 DUP1 REVERT JUMPDEST POP PUSH2 0x816 PUSH2 0x1DCF JUMP JUMPDEST PUSH1 0x40 MLOAD PUSH2 0x823 SWAP2 SWAP1 PUSH2 0x55B8 JUMP JUMPDEST PUSH1 0x40 MLOAD DUP1 SWAP2 SUB SWAP1 RETURN JUMPDEST CALLVALUE DUP1 ISZERO PUSH2 0x838 JUMPI PUSH1 0x0 DUP1 REVERT JUMPDEST POP PUSH2 0x853 PUSH1 0x4 DUP1 CALLDATASIZE SUB DUP2 ADD SWAP1 PUSH2 0x84E SWAP2 SWAP1 PUSH2 0x52FF JUMP JUMPDEST PUSH2 0x1DDA JUMP JUMPDEST PUSH1 0x40 MLOAD PUSH2 0x860 SWAP2 SWAP1 PUSH2 0x536D JUMP JUMPDEST PUSH1 0x40 MLOAD DUP1 SWAP2 SUB SWAP1 RETURN JUMPDEST CALLVALUE DUP1 ISZERO PUSH2 0x875 JUMPI PUSH1 0x0 DUP1 REVERT JUMPDEST POP PUSH2 0x890 PUSH1 0x4 DUP1 CALLDATASIZE SUB DUP2 ADD SWAP1 PUSH2 0x88B SWAP2 SWAP1 PUSH2 0x5C1A JUMP JUMPDEST PUSH2 0x1E18 JUMP JUMPDEST PUSH1 0x40 MLOAD PUSH2 0x89D SWAP2 SWAP1 PUSH2 0x525B JUMP JUMPDEST PUSH1 0x40 MLOAD DUP1 SWAP2 SUB SWAP1 RETURN JUMPDEST CALLVALUE DUP1 ISZERO PUSH2 0x8B2 JUMPI PUSH1 0x0 DUP1 REVERT JUMPDEST POP PUSH2 0x8CD PUSH1 0x4 DUP1 CALLDATASIZE SUB DUP2 ADD SWAP1 PUSH2 0x8C8 SWAP2 SWAP1 PUSH2 0x5C1A JUMP JUMPDEST PUSH2 0x1F46 JUMP JUMPDEST PUSH1 0x40 MLOAD PUSH2 0x8DA SWAP2 SWAP1 PUSH2 0x55B8 JUMP JUMPDEST PUSH1 0x40 MLOAD DUP1 SWAP2 SUB SWAP1 RETURN JUMPDEST CALLVALUE DUP1 ISZERO PUSH2 0x8EF JUMPI PUSH1 0x0 DUP1 REVERT JUMPDEST POP PUSH2 0x8F8 PUSH2 0x1F9F JUMP JUMPDEST PUSH1 0x40 MLOAD PUSH2 0x905 SWAP2 SWAP1 PUSH2 0x55B8 JUMP JUMPDEST PUSH1 0x40 MLOAD DUP1 SWAP2 SUB SWAP1 RETURN JUMPDEST CALLVALUE DUP1 ISZERO PUSH2 0x91A JUMPI PUSH1 0x0 DUP1 REVERT JUMPDEST POP PUSH2 0x935 PUSH1 0x4 DUP1 CALLDATASIZE SUB DUP2 ADD SWAP1 PUSH2 0x930 SWAP2 SWAP1 PUSH2 0x5C47 JUMP JUMPDEST PUSH2 0x1FA6 JUMP JUMPDEST STOP JUMPDEST CALLVALUE DUP1 ISZERO PUSH2 0x943 JUMPI PUSH1 0x0 DUP1 REVERT JUMPDEST POP PUSH2 0x94C PUSH2 0x260C JUMP JUMPDEST PUSH1 0x40 MLOAD PUSH2 0x959 SWAP2 SWAP1 PUSH2 0x5D0A JUMP JUMPDEST PUSH1 0x40 MLOAD DUP1 SWAP2 SUB SWAP1 RETURN JUMPDEST CALLVALUE DUP1 ISZERO PUSH2 0x96E JUMPI PUSH1 0x0 DUP1 REVERT JUMPDEST POP PUSH2 0x989 PUSH1 0x4 DUP1 CALLDATASIZE SUB DUP2 ADD SWAP1 PUSH2 0x984 SWAP2 SWAP1 PUSH2 0x5C1A JUMP JUMPDEST PUSH2 0x2633 JUMP JUMPDEST PUSH1 0x40 MLOAD PUSH2 0x996 SWAP2 SWAP1 PUSH2 0x55B8 JUMP JUMPDEST PUSH1 0x40 MLOAD DUP1 SWAP2 SUB SWAP1 RETURN JUMPDEST CALLVALUE DUP1 ISZERO PUSH2 0x9AB JUMPI PUSH1 0x0 DUP1 REVERT JUMPDEST POP PUSH2 0x9C6 PUSH1 0x4 DUP1 CALLDATASIZE SUB DUP2 ADD SWAP1 PUSH2 0x9C1 SWAP2 SWAP1 PUSH2 0x5BDA JUMP JUMPDEST PUSH2 0x26E2 JUMP JUMPDEST STOP JUMPDEST CALLVALUE DUP1 ISZERO PUSH2 0x9D4 JUMPI PUSH1 0x0 DUP1 REVERT JUMPDEST POP PUSH2 0x9EF PUSH1 0x4 DUP1 CALLDATASIZE SUB DUP2 ADD SWAP1 PUSH2 0x9EA SWAP2 SWAP1 PUSH2 0x5D7B JUMP JUMPDEST PUSH2 0x274D JUMP JUMPDEST STOP JUMPDEST CALLVALUE DUP1 ISZERO PUSH2 0x9FD JUMPI PUSH1 0x0 DUP1 REVERT JUMPDEST POP PUSH2 0xA18 PUSH1 0x4 DUP1 CALLDATASIZE SUB DUP2 ADD SWAP1 PUSH2 0xA13 SWAP2 SWAP1 PUSH2 0x578E JUMP JUMPDEST PUSH2 0x2893 JUMP JUMPDEST PUSH1 0x40 MLOAD PUSH2 0xA25 SWAP2 SWAP1 PUSH2 0x525B JUMP JUMPDEST PUSH1 0x40 MLOAD DUP1 SWAP2 SUB SWAP1 RETURN JUMPDEST CALLVALUE DUP1 ISZERO PUSH2 0xA3A JUMPI PUSH1 0x0 DUP1 REVERT JUMPDEST POP PUSH2 0xA43 PUSH2 0x28FE JUMP JUMPDEST PUSH1 0x40 MLOAD PUSH2 0xA50 SWAP2 SWAP1 PUSH2 0x55B8 JUMP JUMPDEST PUSH1 0x40 MLOAD DUP1 SWAP2 SUB SWAP1 RETURN JUMPDEST CALLVALUE DUP1 ISZERO PUSH2 0xA65 JUMPI PUSH1 0x0 DUP1 REVERT JUMPDEST POP PUSH2 0xA6E PUSH2 0x2905 JUMP JUMPDEST PUSH1 0x40 MLOAD PUSH2 0xA7B SWAP2 SWAP1 PUSH2 0x536D JUMP JUMPDEST PUSH1 0x40 MLOAD DUP1 SWAP2 SUB SWAP1 RETURN JUMPDEST CALLVALUE DUP1 ISZERO PUSH2 0xA90 JUMPI PUSH1 0x0 DUP1 REVERT JUMPDEST POP PUSH2 0xA99 PUSH2 0x292C JUMP JUMPDEST PUSH1 0x40 MLOAD PUSH2 0xAA6 SWAP2 SWAP1 PUSH2 0x56FB JUMP JUMPDEST PUSH1 0x40 MLOAD DUP1 SWAP2 SUB SWAP1 RETURN JUMPDEST CALLVALUE DUP1 ISZERO PUSH2 0xABB JUMPI PUSH1 0x0 DUP1 REVERT JUMPDEST POP PUSH2 0xAD6 PUSH1 0x4 DUP1 CALLDATASIZE SUB DUP2 ADD SWAP1 PUSH2 0xAD1 SWAP2 SWAP1 PUSH2 0x5BDA JUMP JUMPDEST PUSH2 0x2933 JUMP JUMPDEST STOP JUMPDEST CALLVALUE DUP1 ISZERO PUSH2 0xAE4 JUMPI PUSH1 0x0 DUP1 REVERT JUMPDEST POP PUSH2 0xAFF PUSH1 0x4 DUP1 CALLDATASIZE SUB DUP2 ADD SWAP1 PUSH2 0xAFA SWAP2 SWAP1 PUSH2 0x52FF JUMP JUMPDEST PUSH2 0x2A27 JUMP JUMPDEST PUSH1 0x40 MLOAD PUSH2 0xB0C SWAP2 SWAP1 PUSH2 0x525B JUMP JUMPDEST PUSH1 0x40 MLOAD DUP1 SWAP2 SUB SWAP1 RETURN JUMPDEST CALLVALUE DUP1 ISZERO PUSH2 0xB21 JUMPI PUSH1 0x0 DUP1 REVERT JUMPDEST POP PUSH2 0xB3C PUSH1 0x4 DUP1 CALLDATASIZE SUB DUP2 ADD SWAP1 PUSH2 0xB37 SWAP2 SWAP1 PUSH2 0x5C1A JUMP JUMPDEST PUSH2 0x2B9B JUMP JUMPDEST PUSH1 0x40 MLOAD PUSH2 0xB49 SWAP2 SWAP1 PUSH2 0x525B JUMP JUMPDEST PUSH1 0x40 MLOAD DUP1 SWAP2 SUB SWAP1 RETURN JUMPDEST CALLVALUE DUP1 ISZERO PUSH2 0xB5E JUMPI PUSH1 0x0 DUP1 REVERT JUMPDEST POP PUSH2 0xB79 PUSH1 0x4 DUP1 CALLDATASIZE SUB DUP2 ADD SWAP1 PUSH2 0xB74 SWAP2 SWAP1 PUSH2 0x5BDA JUMP JUMPDEST PUSH2 0x2BCE JUMP JUMPDEST STOP JUMPDEST CALLVALUE DUP1 ISZERO PUSH2 0xB87 JUMPI PUSH1 0x0 DUP1 REVERT JUMPDEST POP PUSH2 0xB90 PUSH2 0x2C39 JUMP JUMPDEST PUSH1 0x40 MLOAD PUSH2 0xB9D SWAP2 SWAP1 PUSH2 0x5DE9 JUMP JUMPDEST PUSH1 0x40 MLOAD DUP1 SWAP2 SUB SWAP1 RETURN JUMPDEST CALLVALUE DUP1 ISZERO PUSH2 0xBB2 JUMPI PUSH1 0x0 DUP1 REVERT JUMPDEST POP PUSH2 0xBCD PUSH1 0x4 DUP1 CALLDATASIZE SUB DUP2 ADD SWAP1 PUSH2 0xBC8 SWAP2 SWAP1 PUSH2 0x5C1A JUMP JUMPDEST PUSH2 0x2C60 JUMP JUMPDEST PUSH1 0x40 MLOAD PUSH2 0xBDA SWAP2 SWAP1 PUSH2 0x55B8 JUMP JUMPDEST PUSH1 0x40 MLOAD DUP1 SWAP2 SUB SWAP1 RETURN JUMPDEST CALLVALUE DUP1 ISZERO PUSH2 0xBEF JUMPI PUSH1 0x0 DUP1 REVERT JUMPDEST POP PUSH2 0xBF8 PUSH2 0x2C79 JUMP JUMPDEST PUSH1 0x40 MLOAD PUSH2 0xC05 SWAP2 SWAP1 PUSH2 0x5E25 JUMP JUMPDEST PUSH1 0x40 MLOAD DUP1 SWAP2 SUB SWAP1 RETURN JUMPDEST CALLVALUE DUP1 ISZERO PUSH2 0xC1A JUMPI PUSH1 0x0 DUP1 REVERT JUMPDEST POP PUSH2 0xC23 PUSH2 0x2CA0 JUMP JUMPDEST PUSH1 0x40 MLOAD PUSH2 0xC30 SWAP2 SWAP1 PUSH2 0x5E5D JUMP JUMPDEST PUSH1 0x40 MLOAD DUP1 SWAP2 SUB SWAP1 RETURN JUMPDEST CALLVALUE DUP1 ISZERO PUSH2 0xC45 JUMPI PUSH1 0x0 DUP1 REVERT JUMPDEST POP PUSH2 0xC60 PUSH1 0x4 DUP1 CALLDATASIZE SUB DUP2 ADD SWAP1 PUSH2 0xC5B SWAP2 SWAP1 PUSH2 0x5C1A JUMP JUMPDEST PUSH2 0x2CA9 JUMP JUMPDEST STOP JUMPDEST CALLVALUE DUP1 ISZERO PUSH2 0xC6E JUMPI PUSH1 0x0 DUP1 REVERT JUMPDEST POP PUSH2 0xC77 PUSH2 0x2D21 JUMP JUMPDEST PUSH1 0x40 MLOAD PUSH2 0xC84 SWAP2 SWAP1 PUSH2 0x55B8 JUMP JUMPDEST PUSH1 0x40 MLOAD DUP1 SWAP2 SUB SWAP1 RETURN JUMPDEST CALLVALUE DUP1 ISZERO PUSH2 0xC99 JUMPI PUSH1 0x0 DUP1 REVERT JUMPDEST POP PUSH2 0xCB4 PUSH1 0x4 DUP1 CALLDATASIZE SUB DUP2 ADD SWAP1 PUSH2 0xCAF SWAP2 SWAP1 PUSH2 0x578E JUMP JUMPDEST PUSH2 0x2D2C JUMP JUMPDEST STOP JUMPDEST PUSH2 0xCD0 PUSH1 0x4 DUP1 CALLDATASIZE SUB DUP2 ADD SWAP1 PUSH2 0xCCB SWAP2 SWAP1 PUSH2 0x5E78 JUMP JUMPDEST PUSH2 0x2D4D JUMP JUMPDEST STOP JUMPDEST CALLVALUE DUP1 ISZERO PUSH2 0xCDE JUMPI PUSH1 0x0 DUP1 REVERT JUMPDEST POP PUSH2 0xCF9 PUSH1 0x4 DUP1 CALLDATASIZE SUB DUP2 ADD SWAP1 PUSH2 0xCF4 SWAP2 SWAP1 PUSH2 0x5F3E JUMP JUMPDEST PUSH2 0x2E67 JUMP JUMPDEST STOP JUMPDEST CALLVALUE DUP1 ISZERO PUSH2 0xD07 JUMPI PUSH1 0x0 DUP1 REVERT JUMPDEST POP PUSH2 0xD22 PUSH1 0x4 DUP1 CALLDATASIZE SUB DUP2 ADD SWAP1 PUSH2 0xD1D SWAP2 SWAP1 PUSH2 0x53B4 JUMP JUMPDEST PUSH2 0x3011 JUMP JUMPDEST STOP JUMPDEST CALLVALUE DUP1 ISZERO PUSH2 0xD30 JUMPI PUSH1 0x0 DUP1 REVERT JUMPDEST POP PUSH2 0xD4B PUSH1 0x4 DUP1 CALLDATASIZE SUB DUP2 ADD SWAP1 PUSH2 0xD46 SWAP2 SWAP1 PUSH2 0x5F91 JUMP JUMPDEST PUSH2 0x30B0 JUMP JUMPDEST PUSH1 0x40 MLOAD PUSH2 0xD58 SWAP2 SWAP1 PUSH2 0x525B JUMP JUMPDEST PUSH1 0x40 MLOAD DUP1 SWAP2 SUB SWAP1 RETURN JUMPDEST CALLVALUE DUP1 ISZERO PUSH2 0xD6D JUMPI PUSH1 0x0 DUP1 REVERT JUMPDEST POP PUSH2 0xD76 PUSH2 0x3145 JUMP JUMPDEST STOP JUMPDEST CALLVALUE DUP1 ISZERO PUSH2 0xD84 JUMPI PUSH1 0x0 DUP1 REVERT JUMPDEST POP PUSH2 0xD8D PUSH2 0x31B4 JUMP JUMPDEST STOP JUMPDEST CALLVALUE DUP1 ISZERO PUSH2 0xD9B JUMPI PUSH1 0x0 DUP1 REVERT JUMPDEST POP PUSH2 0xDB6 PUSH1 0x4 DUP1 CALLDATASIZE SUB DUP2 ADD SWAP1 PUSH2 0xDB1 SWAP2 SWAP1 PUSH2 0x52FF JUMP JUMPDEST PUSH2 0x31D1 JUMP JUMPDEST STOP JUMPDEST PUSH1 0x0 PUSH32 0x7965DB0B00000000000000000000000000000000000000000000000000000000 PUSH28 0xFFFFFFFFFFFFFFFFFFFFFFFFFFFFFFFFFFFFFFFFFFFFFFFFFFFFFFFF NOT AND DUP3 PUSH28 0xFFFFFFFFFFFFFFFFFFFFFFFFFFFFFFFFFFFFFFFFFFFFFFFFFFFFFFFF NOT AND EQ DUP1 PUSH2 0xE2B JUMPI POP PUSH2 0xE2A DUP3 PUSH2 0x321B JUMP JUMPDEST JUMPDEST SWAP1 POP SWAP2 SWAP1 POP JUMP JUMPDEST PUSH2 0xE3B DUP4 PUSH2 0x3285 JUMP JUMPDEST PUSH2 0xE44 DUP4 PUSH2 0x32D9 JUMP JUMPDEST PUSH2 0xE4D DUP4 PUSH2 0x331B JUMP JUMPDEST PUSH2 0xE56 DUP3 PUSH2 0x3285 JUMP JUMPDEST TIMESTAMP PUSH2 0xE60 DUP5 PUSH2 0x1DAE JUMP JUMPDEST PUSH2 0xE6A SWAP2 SWAP1 PUSH2 0x6000 JUMP JUMPDEST DUP2 GT ISZERO PUSH2 0xEA3 JUMPI PUSH1 0x40 MLOAD PUSH32 0x8744776800000000000000000000000000000000000000000000000000000000 DUP2 MSTORE PUSH1 0x4 ADD PUSH1 0x40 MLOAD DUP1 SWAP2 SUB SWAP1 REVERT JUMPDEST PUSH2 0xEAF DUP4 DUP3 PUSH1 0x0 PUSH2 0x34CD JUMP JUMPDEST PUSH2 0xEBB DUP3 DUP3 PUSH1 0x1 PUSH2 0x34CD JUMP JUMPDEST POP POP POP JUMP JUMPDEST PUSH1 0x0 PUSH2 0xECB DUP3 PUSH2 0x3285 JUMP JUMPDEST PUSH1 0x0 PUSH2 0x1047 PUSH1 0x0 DUP5 DUP2 MSTORE PUSH1 0x20 ADD SWAP1 DUP2 MSTORE PUSH1 0x20 ADD PUSH1 0x0 KECCAK256 PUSH1 0x0 SWAP1 SLOAD SWAP1 PUSH2 0x100 EXP SWAP1 DIV PUSH20 0xFFFFFFFFFFFFFFFFFFFFFFFFFFFFFFFFFFFFFFFF AND SWAP1 POP DUP1 SWAP2 POP POP SWAP2 SWAP1 POP JUMP JUMPDEST PUSH2 0xF16 DUP2 PUSH2 0x331B JUMP JUMPDEST DUP2 PUSH20 0xFFFFFFFFFFFFFFFFFFFFFFFFFFFFFFFFFFFFFFFF AND CALLER PUSH20 0xFFFFFFFFFFFFFFFFFFFFFFFFFFFFFFFFFFFFFFFF AND SUB PUSH2 0xF7B JUMPI PUSH1 0x40 MLOAD PUSH32 0xF13228CA00000000000000000000000000000000000000000000000000000000 DUP2 MSTORE PUSH1 0x4 ADD PUSH1 0x40 MLOAD DUP1 SWAP2 SUB SWAP1 REVERT JUMPDEST DUP2 PUSH2 0x1047 PUSH1 0x0 DUP4 DUP2 MSTORE PUSH1 0x20 ADD SWAP1 DUP2 MSTORE PUSH1 0x20 ADD PUSH1 0x0 KECCAK256 PUSH1 0x0 PUSH2 0x100 EXP DUP2 SLOAD DUP2 PUSH20 0xFFFFFFFFFFFFFFFFFFFFFFFFFFFFFFFFFFFFFFFF MUL NOT AND SWAP1 DUP4 PUSH20 0xFFFFFFFFFFFFFFFFFFFFFFFFFFFFFFFFFFFFFFFF AND MUL OR SWAP1 SSTORE POP DUP1 DUP3 PUSH20 0xFFFFFFFFFFFFFFFFFFFFFFFFFFFFFFFFFFFFFFFF AND PUSH2 0x1044 PUSH1 0x0 DUP5 DUP2 MSTORE PUSH1 0x20 ADD SWAP1 DUP2 MSTORE PUSH1 0x20 ADD PUSH1 0x0 KECCAK256 PUSH1 0x0 SWAP1 SLOAD SWAP1 PUSH2 0x100 EXP SWAP1 DIV PUSH20 0xFFFFFFFFFFFFFFFFFFFFFFFFFFFFFFFFFFFFFFFF AND PUSH20 0xFFFFFFFFFFFFFFFFFFFFFFFFFFFFFFFFFFFFFFFF AND PUSH32 0x8C5BE1E5EBEC7D5BD14F71427D1E84F3DD0314C0F7B2291E5B200AC8C7C3B925 PUSH1 0x40 MLOAD PUSH1 0x40 MLOAD DUP1 SWAP2 SUB SWAP1 LOG4 POP POP JUMP JUMPDEST PUSH1 0x0 DUP1 PUSH20 0xFFFFFFFFFFFFFFFFFFFFFFFFFFFFFFFFFFFFFFFF AND PUSH2 0xC57 PUSH1 0x0 SWAP1 SLOAD SWAP1 PUSH2 0x100 EXP SWAP1 DIV PUSH20 0xFFFFFFFFFFFFFFFFFFFFFFFFFFFFFFFFFFFFFFFF AND PUSH20 0xFFFFFFFFFFFFFFFFFFFFFFFFFFFFFFFFFFFFFFFF AND EQ PUSH2 0x1163 JUMPI PUSH2 0xC57 PUSH1 0x0 SWAP1 SLOAD SWAP1 PUSH2 0x100 EXP SWAP1 DIV PUSH20 0xFFFFFFFFFFFFFFFFFFFFFFFFFFFFFFFFFFFFFFFF AND PUSH20 0xFFFFFFFFFFFFFFFFFFFFFFFFFFFFFFFFFFFFFFFF AND PUSH4 0x221C1FD1 CALLER DUP7 DUP7 DUP7 PUSH1 0x40 MLOAD DUP6 PUSH4 0xFFFFFFFF AND PUSH1 0xE0 SHL DUP2 MSTORE PUSH1 0x4 ADD PUSH2 0x111B SWAP5 SWAP4 SWAP3 SWAP2 SWAP1 PUSH2 0x60B3 JUMP JUMPDEST PUSH1 0x20 PUSH1 0x40 MLOAD DUP1 DUP4 SUB DUP2 DUP7 GAS STATICCALL ISZERO DUP1 ISZERO PUSH2 0x1138 JUMPI RETURNDATASIZE PUSH1 0x0 DUP1 RETURNDATACOPY RETURNDATASIZE PUSH1 0x0 REVERT JUMPDEST POP POP POP POP PUSH1 0x40 MLOAD RETURNDATASIZE PUSH1 0x1F NOT PUSH1 0x1F DUP3 ADD AND DUP3 ADD DUP1 PUSH1 0x40 MSTORE POP DUP2 ADD SWAP1 PUSH2 0x115C SWAP2 SWAP1 PUSH2 0x6114 JUMP JUMPDEST SWAP1 POP PUSH2 0x116A JUMP JUMPDEST PUSH2 0xC53 SLOAD SWAP1 POP JUMPDEST SWAP4 SWAP3 POP POP POP JUMP JUMPDEST PUSH2 0xC51 PUSH1 0x0 SWAP1 SLOAD SWAP1 PUSH2 0x100 EXP SWAP1 DIV PUSH20 0xFFFFFFFFFFFFFFFFFFFFFFFFFFFFFFFFFFFFFFFF AND DUP2 JUMP JUMPDEST PUSH2 0xC53 SLOAD DUP2 JUMP JUMPDEST PUSH2 0xC52 SLOAD DUP2 JUMP JUMPDEST PUSH1 0x0 PUSH2 0xC55 SLOAD SWAP1 POP SWAP1 JUMP JUMPDEST PUSH2 0xC58 PUSH1 0x0 SWAP1 SLOAD SWAP1 PUSH2 0x100 EXP SWAP1 DIV PUSH20 0xFFFFFFFFFFFFFFFFFFFFFFFFFFFFFFFFFFFFFFFF AND DUP2 JUMP JUMPDEST PUSH1 0x0 PUSH1 0x65 PUSH1 0x0 DUP4 DUP2 MSTORE PUSH1 0x20 ADD SWAP1 DUP2 MSTORE PUSH1 0x20 ADD PUSH1 0x0 KECCAK256 PUSH1 0x1 ADD SLOAD SWAP1 POP SWAP2 SWAP1 POP JUMP JUMPDEST PUSH2 0xC59 PUSH1 0x0 SWAP1 SLOAD SWAP1 PUSH2 0x100 EXP SWAP1 DIV PUSH20 0xFFFFFFFFFFFFFFFFFFFFFFFFFFFFFFFFFFFFFFFF AND DUP2 JUMP JUMPDEST PUSH2 0x1227 PUSH2 0x35DA JUMP JUMPDEST PUSH1 0x0 DUP2 SUB PUSH2 0x1261 JUMPI PUSH1 0x40 MLOAD PUSH32 0xE03B033D00000000000000000000000000000000000000000000000000000000 DUP2 MSTORE PUSH1 0x4 ADD PUSH1 0x40 MLOAD DUP1 SWAP2 SUB SWAP1 REVERT JUMPDEST PUSH2 0xC55 SLOAD DUP3 LT ISZERO PUSH2 0x129E JUMPI PUSH1 0x40 MLOAD PUSH32 0x1D00CD6B00000000000000000000000000000000000000000000000000000000 DUP2 MSTORE PUSH1 0x4 ADD PUSH1 0x40 MLOAD DUP1 SWAP2 SUB SWAP1 REVERT JUMPDEST DUP1 PUSH2 0xC5C DUP2 SWAP1 SSTORE POP DUP3 PUSH2 0xC52 DUP2 SWAP1 SSTORE POP DUP2 PUSH2 0xC54 DUP2 SWAP1 SSTORE POP PUSH32 0x9A09448A3F24D3A01CCC67103C7CDDBEEA820176A18182CC83D0BCE585F26A5B DUP4 DUP4 PUSH2 0xC5C SLOAD PUSH1 0x40 MLOAD PUSH2 0x12EC SWAP4 SWAP3 SWAP2 SWAP1 PUSH2 0x6141 JUMP JUMPDEST PUSH1 0x40 MLOAD DUP1 SWAP2 SUB SWAP1 LOG1 POP POP POP JUMP JUMPDEST PUSH2 0xC57 PUSH1 0x0 SWAP1 SLOAD SWAP1 PUSH2 0x100 EXP SWAP1 DIV PUSH20 0xFFFFFFFFFFFFFFFFFFFFFFFFFFFFFFFFFFFFFFFF AND DUP2 JUMP JUMPDEST PUSH2 0x1329 DUP3 PUSH2 0x11D8 JUMP JUMPDEST PUSH2 0x1332 DUP2 PUSH2 0x363C JUMP JUMPDEST PUSH2 0x133C DUP4 DUP4 PUSH2 0x3650 JUMP JUMPDEST POP POP POP JUMP JUMPDEST PUSH1 0x0 PUSH2 0x134C DUP4 PUSH2 0x2633 JUMP JUMPDEST DUP3 LT PUSH2 0x1384 JUMPI PUSH1 0x40 MLOAD PUSH32 0x8E22EAE00000000000000000000000000000000000000000000000000000000 DUP2 MSTORE PUSH1 0x4 ADD PUSH1 0x40 MLOAD DUP1 SWAP2 SUB SWAP1 REVERT JUMPDEST PUSH2 0x104A PUSH1 0x0 DUP5 PUSH20 0xFFFFFFFFFFFFFFFFFFFFFFFFFFFFFFFFFFFFFFFF AND PUSH20 0xFFFFFFFFFFFFFFFFFFFFFFFFFFFFFFFFFFFFFFFF AND DUP2 MSTORE PUSH1 0x20 ADD SWAP1 DUP2 MSTORE PUSH1 0x20 ADD PUSH1 0x0 KECCAK256 PUSH1 0x0 DUP4 DUP2 MSTORE PUSH1 0x20 ADD SWAP1 DUP2 MSTORE PUSH1 0x20 ADD PUSH1 0x0 KECCAK256 SLOAD SWAP1 POP SWAP3 SWAP2 POP POP JUMP JUMPDEST PUSH1 0x60 PUSH2 0x13E8 PUSH2 0x3731 JUMP JUMPDEST PUSH2 0xC54 SLOAD DUP7 MLOAD PUSH2 0xC55 SLOAD PUSH2 0x13FC SWAP2 SWAP1 PUSH2 0x6178 JUMP JUMPDEST GT ISZERO PUSH2 0x1434 JUMPI PUSH1 0x40 MLOAD PUSH32 0x31AF695100000000000000000000000000000000000000000000000000000000 DUP2 MSTORE PUSH1 0x4 ADD PUSH1 0x40 MLOAD DUP1 SWAP2 SUB SWAP1 REVERT JUMPDEST DUP5 MLOAD DUP7 MLOAD EQ ISZERO DUP1 PUSH2 0x1447 JUMPI POP DUP4 MLOAD DUP7 MLOAD EQ ISZERO JUMPDEST ISZERO PUSH2 0x147E JUMPI PUSH1 0x40 MLOAD PUSH32 0xED676A4A00000000000000000000000000000000000000000000000000000000 DUP2 MSTORE PUSH1 0x4 ADD PUSH1 0x40 MLOAD DUP1 SWAP2 SUB SWAP1 REVERT JUMPDEST PUSH1 0x0 DUP1 DUP8 MLOAD PUSH8 0xFFFFFFFFFFFFFFFF DUP2 GT ISZERO PUSH2 0x149C JUMPI PUSH2 0x149B PUSH2 0x540F JUMP JUMPDEST JUMPDEST PUSH1 0x40 MLOAD SWAP1 DUP1 DUP3 MSTORE DUP1 PUSH1 0x20 MUL PUSH1 0x20 ADD DUP3 ADD PUSH1 0x40 MSTORE DUP1 ISZERO PUSH2 0x14CA JUMPI DUP2 PUSH1 0x20 ADD PUSH1 0x20 DUP3 MUL DUP1 CALLDATASIZE DUP4 CALLDATACOPY DUP1 DUP3 ADD SWAP2 POP POP SWAP1 POP JUMPDEST POP SWAP1 POP PUSH1 0x0 JUMPDEST DUP9 MLOAD DUP2 LT ISZERO PUSH2 0x18DA JUMPI PUSH1 0x0 DUP10 DUP3 DUP2 MLOAD DUP2 LT PUSH2 0x14EE JUMPI PUSH2 0x14ED PUSH2 0x61AC JUMP JUMPDEST JUMPDEST PUSH1 0x20 MUL PUSH1 0x20 ADD ADD MLOAD SWAP1 POP PUSH2 0x157C DUP2 DUP10 DUP5 DUP2 MLOAD DUP2 LT PUSH2 0x150F JUMPI PUSH2 0x150E PUSH2 0x61AC JUMP JUMPDEST JUMPDEST PUSH1 0x20 MUL PUSH1 0x20 ADD ADD MLOAD PUSH32 0xFFFFFFFFFFFFFFFFFFFFFFFFFFFFFFFFFFFFFFFFFFFFFFFFFFFFFFFFFFFFFFFF PUSH2 0xC52 SLOAD EQ PUSH2 0x1555 JUMPI PUSH2 0xC52 SLOAD TIMESTAMP PUSH2 0x1550 SWAP2 SWAP1 PUSH2 0x6178 JUMP JUMPDEST PUSH2 0x1577 JUMP JUMPDEST PUSH32 0xFFFFFFFFFFFFFFFFFFFFFFFFFFFFFFFFFFFFFFFFFFFFFFFFFFFFFFFFFFFFFFFF JUMPDEST PUSH2 0x377A JUMP JUMPDEST DUP4 DUP4 DUP2 MLOAD DUP2 LT PUSH2 0x158F JUMPI PUSH2 0x158E PUSH2 0x61AC JUMP JUMPDEST JUMPDEST PUSH1 0x20 MUL PUSH1 0x20 ADD ADD DUP2 DUP2 MSTORE POP POP PUSH1 0x0 PUSH2 0x1629 DUP3 DUP12 DUP6 DUP2 MLOAD DUP2 LT PUSH2 0x15B4 JUMPI PUSH2 0x15B3 PUSH2 0x61AC JUMP JUMPDEST JUMPDEST PUSH1 0x20 MUL PUSH1 0x20 ADD ADD MLOAD DUP11 DUP11 DUP8 DUP2 DUP2 LT PUSH2 0x15CF JUMPI PUSH2 0x15CE PUSH2 0x61AC JUMP JUMPDEST JUMPDEST SWAP1 POP PUSH1 0x20 MUL DUP2 ADD SWAP1 PUSH2 0x15E1 SWAP2 SWAP1 PUSH2 0x61EA JUMP JUMPDEST DUP1 DUP1 PUSH1 0x1F ADD PUSH1 0x20 DUP1 SWAP2 DIV MUL PUSH1 0x20 ADD PUSH1 0x40 MLOAD SWAP1 DUP2 ADD PUSH1 0x40 MSTORE DUP1 SWAP4 SWAP3 SWAP2 SWAP1 DUP2 DUP2 MSTORE PUSH1 0x20 ADD DUP4 DUP4 DUP1 DUP3 DUP5 CALLDATACOPY PUSH1 0x0 DUP2 DUP5 ADD MSTORE PUSH1 0x1F NOT PUSH1 0x1F DUP3 ADD AND SWAP1 POP DUP1 DUP4 ADD SWAP3 POP POP POP POP POP POP POP PUSH2 0x1061 JUMP JUMPDEST SWAP1 POP DUP1 DUP6 PUSH2 0x1637 SWAP2 SWAP1 PUSH2 0x6178 JUMP JUMPDEST SWAP5 POP PUSH2 0x165D DUP5 DUP5 DUP2 MLOAD DUP2 LT PUSH2 0x164F JUMPI PUSH2 0x164E PUSH2 0x61AC JUMP JUMPDEST JUMPDEST PUSH1 0x20 MUL PUSH1 0x20 ADD ADD MLOAD DUP3 PUSH2 0x38E1 JUMP JUMPDEST PUSH1 0x0 PUSH20 0xFFFFFFFFFFFFFFFFFFFFFFFFFFFFFFFFFFFFFFFF AND PUSH2 0x47F PUSH1 0x0 SWAP1 SLOAD SWAP1 PUSH2 0x100 EXP SWAP1 DIV PUSH20 0xFFFFFFFFFFFFFFFFFFFFFFFFFFFFFFFFFFFFFFFF AND PUSH20 0xFFFFFFFFFFFFFFFFFFFFFFFFFFFFFFFFFFFFFFFF AND EQ PUSH2 0x16D9 JUMPI PUSH2 0x16D8 DUP13 DUP5 DUP2 MLOAD DUP2 LT PUSH2 0x16CA JUMPI PUSH2 0x16C9 PUSH2 0x61AC JUMP JUMPDEST JUMPDEST PUSH1 0x20 MUL PUSH1 0x20 ADD ADD MLOAD DUP3 PUSH2 0x3A56 JUMP JUMPDEST JUMPDEST PUSH2 0x16FD DUP2 DUP12 DUP6 DUP2 MLOAD DUP2 LT PUSH2 0x16F0 JUMPI PUSH2 0x16EF PUSH2 0x61AC JUMP JUMPDEST JUMPDEST PUSH1 0x20 MUL PUSH1 0x20 ADD ADD MLOAD PUSH2 0x3A94 JUMP JUMPDEST PUSH1 0x0 DUP1 PUSH20 0xFFFFFFFFFFFFFFFFFFFFFFFFFFFFFFFFFFFFFFFF AND PUSH2 0x47F PUSH1 0x0 SWAP1 SLOAD SWAP1 PUSH2 0x100 EXP SWAP1 DIV PUSH20 0xFFFFFFFFFFFFFFFFFFFFFFFFFFFFFFFFFFFFFFFF AND PUSH20 0xFFFFFFFFFFFFFFFFFFFFFFFFFFFFFFFFFFFFFFFF AND EQ PUSH2 0x1775 JUMPI DUP13 DUP5 DUP2 MLOAD DUP2 LT PUSH2 0x1768 JUMPI PUSH2 0x1767 PUSH2 0x61AC JUMP JUMPDEST JUMPDEST PUSH1 0x20 MUL PUSH1 0x20 ADD ADD MLOAD PUSH2 0x1777 JUMP JUMPDEST CALLVALUE JUMPDEST SWAP1 POP PUSH1 0x0 PUSH20 0xFFFFFFFFFFFFFFFFFFFFFFFFFFFFFFFFFFFFFFFF AND PUSH2 0xC57 PUSH1 0x0 SWAP1 SLOAD SWAP1 PUSH2 0x100 EXP SWAP1 DIV PUSH20 0xFFFFFFFFFFFFFFFFFFFFFFFFFFFFFFFFFFFFFFFF AND PUSH20 0xFFFFFFFFFFFFFFFFFFFFFFFFFFFFFFFFFFFFFFFF AND EQ PUSH2 0x18C4 JUMPI PUSH2 0xC57 PUSH1 0x0 SWAP1 SLOAD SWAP1 PUSH2 0x100 EXP SWAP1 DIV PUSH20 0xFFFFFFFFFFFFFFFFFFFFFFFFFFFFFFFFFFFFFFFF AND PUSH20 0xFFFFFFFFFFFFFFFFFFFFFFFFFFFFFFFFFFFFFFFF AND PUSH4 0x5E895F29 DUP7 DUP7 DUP2 MLOAD DUP2 LT PUSH2 0x1822 JUMPI PUSH2 0x1821 PUSH2 0x61AC JUMP JUMPDEST JUMPDEST PUSH1 0x20 MUL PUSH1 0x20 ADD ADD MLOAD CALLER DUP7 DUP16 DUP10 DUP2 MLOAD DUP2 LT PUSH2 0x183F JUMPI PUSH2 0x183E PUSH2 0x61AC JUMP JUMPDEST JUMPDEST PUSH1 0x20 MUL PUSH1 0x20 ADD ADD MLOAD DUP15 DUP15 DUP12 DUP2 DUP2 LT PUSH2 0x185A JUMPI PUSH2 0x1859 PUSH2 0x61AC JUMP JUMPDEST JUMPDEST SWAP1 POP PUSH1 0x20 MUL DUP2 ADD SWAP1 PUSH2 0x186C SWAP2 SWAP1 PUSH2 0x61EA JUMP JUMPDEST DUP10 DUP10 PUSH1 0x40 MLOAD DUP10 PUSH4 0xFFFFFFFF AND PUSH1 0xE0 SHL DUP2 MSTORE PUSH1 0x4 ADD PUSH2 0x1891 SWAP9 SWAP8 SWAP7 SWAP6 SWAP5 SWAP4 SWAP3 SWAP2 SWAP1 PUSH2 0x627A JUMP JUMPDEST PUSH1 0x0 PUSH1 0x40 MLOAD DUP1 DUP4 SUB DUP2 PUSH1 0x0 DUP8 DUP1 EXTCODESIZE ISZERO DUP1 ISZERO PUSH2 0x18AB JUMPI PUSH1 0x0 DUP1 REVERT JUMPDEST POP GAS CALL ISZERO DUP1 ISZERO PUSH2 0x18BF JUMPI RETURNDATASIZE PUSH1 0x0 DUP1 RETURNDATACOPY RETURNDATASIZE PUSH1 0x0 REVERT JUMPDEST POP POP POP POP JUMPDEST POP POP POP DUP1 DUP1 PUSH2 0x18D2 SWAP1 PUSH2 0x62F2 JUMP JUMPDEST SWAP2 POP POP PUSH2 0x14D0 JUMP JUMPDEST POP PUSH2 0x18E5 CALLER DUP4 PUSH2 0x3C5B JUMP JUMPDEST PUSH2 0x18EE DUP3 PUSH2 0x3D9A JUMP JUMPDEST PUSH2 0x18F6 PUSH2 0x3F5F JUMP JUMPDEST PUSH1 0x0 JUMPDEST DUP8 MLOAD DUP2 LT ISZERO PUSH2 0x1938 JUMPI PUSH2 0x1925 DUP9 DUP3 DUP2 MLOAD DUP2 LT PUSH2 0x1918 JUMPI PUSH2 0x1917 PUSH2 0x61AC JUMP JUMPDEST JUMPDEST PUSH1 0x20 MUL PUSH1 0x20 ADD ADD MLOAD PUSH2 0x4014 JUMP JUMPDEST DUP1 DUP1 PUSH2 0x1930 SWAP1 PUSH2 0x62F2 JUMP JUMPDEST SWAP2 POP POP PUSH2 0x18F9 JUMP JUMPDEST POP DUP1 SWAP3 POP POP POP SWAP7 SWAP6 POP POP POP POP POP POP JUMP JUMPDEST PUSH2 0x1950 PUSH2 0x4170 JUMP JUMPDEST PUSH20 0xFFFFFFFFFFFFFFFFFFFFFFFFFFFFFFFFFFFFFFFF AND DUP2 PUSH20 0xFFFFFFFFFFFFFFFFFFFFFFFFFFFFFFFFFFFFFFFF AND EQ PUSH2 0x19BD JUMPI PUSH1 0x40 MLOAD PUSH32 0x8C379A000000000000000000000000000000000000000000000000000000000 DUP2 MSTORE PUSH1 0x4 ADD PUSH2 0x19B4 SWAP1 PUSH2 0x63BD JUMP JUMPDEST PUSH1 0x40 MLOAD DUP1 SWAP2 SUB SWAP1 REVERT JUMPDEST PUSH2 0x19C7 DUP3 DUP3 PUSH2 0x4178 JUMP JUMPDEST POP POP JUMP JUMPDEST PUSH2 0xC5D PUSH1 0x0 SWAP1 SLOAD SWAP1 PUSH2 0x100 EXP SWAP1 DIV PUSH20 0xFFFFFFFFFFFFFFFFFFFFFFFFFFFFFFFFFFFFFFFF AND DUP2 JUMP JUMPDEST PUSH2 0x19FB DUP2 PUSH2 0x3285 JUMP JUMPDEST PUSH2 0x1A04 DUP2 PUSH2 0x331B JUMP JUMPDEST DUP1 PUSH1 0x0 PUSH20 0xFFFFFFFFFFFFFFFFFFFFFFFFFFFFFFFFFFFFFFFF AND PUSH2 0x1044 PUSH1 0x0 DUP5 DUP2 MSTORE PUSH1 0x20 ADD SWAP1 DUP2 MSTORE PUSH1 0x20 ADD PUSH1 0x0 KECCAK256 PUSH1 0x0 SWAP1 SLOAD SWAP1 PUSH2 0x100 EXP SWAP1 DIV PUSH20 0xFFFFFFFFFFFFFFFFFFFFFFFFFFFFFFFFFFFFFFFF AND PUSH20 0xFFFFFFFFFFFFFFFFFFFFFFFFFFFFFFFFFFFFFFFF AND PUSH32 0xDDF252AD1BE2C89B69C2B068FC378DAA952BA7F163C4A11628F55A4DF523B3EF PUSH1 0x40 MLOAD PUSH1 0x40 MLOAD DUP1 SWAP2 SUB SWAP1 LOG4 PUSH2 0x1A9D DUP2 PUSH2 0x425A JUMP JUMPDEST PUSH1 0x0 PUSH2 0x1044 PUSH1 0x0 DUP4 DUP2 MSTORE PUSH1 0x20 ADD SWAP1 DUP2 MSTORE PUSH1 0x20 ADD PUSH1 0x0 KECCAK256 PUSH1 0x0 PUSH2 0x100 EXP DUP2 SLOAD DUP2 PUSH20 0xFFFFFFFFFFFFFFFFFFFFFFFFFFFFFFFFFFFFFFFF MUL NOT AND SWAP1 DUP4 PUSH20 0xFFFFFFFFFFFFFFFFFFFFFFFFFFFFFFFFFFFFFFFF AND MUL OR SWAP1 SSTORE POP POP JUMP JUMPDEST PUSH2 0x1046 PUSH1 0x20 MSTORE DUP1 PUSH1 0x0 MSTORE PUSH1 0x40 PUSH1 0x0 KECCAK256 PUSH1 0x0 SWAP2 POP SLOAD SWAP1 PUSH2 0x100 EXP SWAP1 DIV PUSH20 0xFFFFFFFFFFFFFFFFFFFFFFFFFFFFFFFFFFFFFFFF AND DUP2 JUMP JUMPDEST PUSH2 0xC5B SLOAD DUP2 JUMP JUMPDEST PUSH1 0x0 PUSH32 0xFFFFFFFFFFFFFFFFFFFFFFFFFFFFFFFFFFFFFFFFFFFFFFFFFFFFFFFFFFFFFFFF PUSH2 0x1433 PUSH1 0x0 DUP6 DUP2 MSTORE PUSH1 0x20 ADD SWAP1 DUP2 MSTORE PUSH1 0x20 ADD PUSH1 0x0 KECCAK256 SLOAD EQ DUP1 PUSH2 0x1BC2 JUMPI POP PUSH1 0x0 PUSH20 0xFFFFFFFFFFFFFFFFFFFFFFFFFFFFFFFFFFFFFFFF AND PUSH2 0x47F PUSH1 0x0 SWAP1 SLOAD SWAP1 PUSH2 0x100 EXP SWAP1 DIV PUSH20 0xFFFFFFFFFFFFFFFFFFFFFFFFFFFFFFFFFFFFFFFF AND PUSH20 0xFFFFFFFFFFFFFFFFFFFFFFFFFFFFFFFFFFFFFFFF AND EQ JUMPDEST ISZERO PUSH2 0x1BF9 JUMPI PUSH1 0x40 MLOAD PUSH32 0xD9A81C2200000000000000000000000000000000000000000000000000000000 DUP2 MSTORE PUSH1 0x4 ADD PUSH1 0x40 MLOAD DUP1 SWAP2 SUB SWAP1 REVERT JUMPDEST PUSH2 0x1C1B PUSH2 0x1C05 DUP5 PUSH2 0x1DDA JUMP JUMPDEST DUP4 PUSH1 0x40 MLOAD DUP1 PUSH1 0x20 ADD PUSH1 0x40 MSTORE DUP1 PUSH1 0x0 DUP2 MSTORE POP PUSH2 0x1061 JUMP JUMPDEST PUSH2 0x1432 PUSH1 0x0 DUP6 DUP2 MSTORE PUSH1 0x20 ADD SWAP1 DUP2 MSTORE PUSH1 0x20 ADD PUSH1 0x0 KECCAK256 SLOAD LT DUP1 PUSH2 0x1C52 JUMPI POP PUSH2 0xC52 SLOAD PUSH2 0x1433 PUSH1 0x0 DUP6 DUP2 MSTORE PUSH1 0x20 ADD SWAP1 DUP2 MSTORE PUSH1 0x20 ADD PUSH1 0x0 KECCAK256 SLOAD GT JUMPDEST DUP1 PUSH2 0x1CE0 JUMPI POP PUSH2 0x47F PUSH1 0x0 SWAP1 SLOAD SWAP1 PUSH2 0x100 EXP SWAP1 DIV PUSH20 0xFFFFFFFFFFFFFFFFFFFFFFFFFFFFFFFFFFFFFFFF AND PUSH20 0xFFFFFFFFFFFFFFFFFFFFFFFFFFFFFFFFFFFFFFFF AND PUSH2 0x1434 PUSH1 0x0 DUP6 DUP2 MSTORE PUSH1 0x20 ADD SWAP1 DUP2 MSTORE PUSH1 0x20 ADD PUSH1 0x0 KECCAK256 PUSH1 0x0 SWAP1 SLOAD SWAP1 PUSH2 0x100 EXP SWAP1 DIV PUSH20 0xFFFFFFFFFFFFFFFFFFFFFFFFFFFFFFFFFFFFFFFF AND PUSH20 0xFFFFFFFFFFFFFFFFFFFFFFFFFFFFFFFFFFFFFFFF AND EQ ISZERO JUMPDEST ISZERO PUSH2 0x1D17 JUMPI PUSH1 0x40 MLOAD PUSH32 0x986739E700000000000000000000000000000000000000000000000000000000 DUP2 MSTORE PUSH1 0x4 ADD PUSH1 0x40 MLOAD DUP1 SWAP2 SUB SWAP1 REVERT JUMPDEST PUSH1 0x0 PUSH2 0x2710 PUSH2 0x2328 PUSH2 0xC52 SLOAD PUSH2 0x1D2D SWAP2 SWAP1 PUSH2 0x63DD JUMP JUMPDEST PUSH2 0x1D37 SWAP2 SWAP1 PUSH2 0x644E JUMP JUMPDEST PUSH2 0xC52 SLOAD PUSH2 0x1049 PUSH1 0x0 DUP8 DUP2 MSTORE PUSH1 0x20 ADD SWAP1 DUP2 MSTORE PUSH1 0x20 ADD PUSH1 0x0 KECCAK256 PUSH1 0x1 ADD SLOAD PUSH2 0x1D5D SWAP2 SWAP1 PUSH2 0x6000 JUMP JUMPDEST PUSH2 0x1D67 SWAP2 SWAP1 PUSH2 0x6178 JUMP JUMPDEST SWAP1 POP DUP1 TIMESTAMP LT ISZERO PUSH2 0x1DA3 JUMPI PUSH1 0x40 MLOAD PUSH32 0xC1B1D86600000000000000000000000000000000000000000000000000000000 DUP2 MSTORE PUSH1 0x4 ADD PUSH1 0x40 MLOAD DUP1 SWAP2 SUB SWAP1 REVERT JUMPDEST PUSH1 0x1 SWAP2 POP POP SWAP3 SWAP2 POP POP JUMP JUMPDEST PUSH1 0x0 PUSH2 0x1049 PUSH1 0x0 DUP4 DUP2 MSTORE PUSH1 0x20 ADD SWAP1 DUP2 MSTORE PUSH1 0x20 ADD PUSH1 0x0 KECCAK256 PUSH1 0x1 ADD SLOAD SWAP1 POP SWAP2 SWAP1 POP JUMP JUMPDEST PUSH1 0x0 PUSH2 0x1431 SLOAD SWAP1 POP SWAP1 JUMP JUMPDEST PUSH1 0x0 PUSH2 0x1044 PUSH1 0x0 DUP4 DUP2 MSTORE PUSH1 0x20 ADD SWAP1 DUP2 MSTORE PUSH1 0x20 ADD PUSH1 0x0 KECCAK256 PUSH1 0x0 SWAP1 SLOAD SWAP1 PUSH2 0x100 EXP SWAP1 DIV PUSH20 0xFFFFFFFFFFFFFFFFFFFFFFFFFFFFFFFFFFFFFFFF AND SWAP1 POP SWAP2 SWAP1 POP JUMP JUMPDEST PUSH1 0x0 DUP1 PUSH2 0x1E24 DUP4 PUSH2 0x1F46 JUMP JUMPDEST SUB PUSH2 0x1F31 JUMPI PUSH1 0x0 PUSH20 0xFFFFFFFFFFFFFFFFFFFFFFFFFFFFFFFFFFFFFFFF AND PUSH2 0xC59 PUSH1 0x0 SWAP1 SLOAD SWAP1 PUSH2 0x100 EXP SWAP1 DIV PUSH20 0xFFFFFFFFFFFFFFFFFFFFFFFFFFFFFFFFFFFFFFFF AND PUSH20 0xFFFFFFFFFFFFFFFFFFFFFFFFFFFFFFFFFFFFFFFF AND EQ PUSH2 0x1F30 JUMPI PUSH2 0xC59 PUSH1 0x0 SWAP1 SLOAD SWAP1 PUSH2 0x100 EXP SWAP1 DIV PUSH20 0xFFFFFFFFFFFFFFFFFFFFFFFFFFFFFFFFFFFFFFFF AND PUSH20 0xFFFFFFFFFFFFFFFFFFFFFFFFFFFFFFFFFFFFFFFF AND PUSH4 0x427EDE38 ADDRESS CALLER PUSH1 0x0 DUP1 DUP8 PUSH1 0x0 PUSH1 0x40 MLOAD DUP8 PUSH4 0xFFFFFFFF AND PUSH1 0xE0 SHL DUP2 MSTORE PUSH1 0x4 ADD PUSH2 0x1EE8 SWAP7 SWAP6 SWAP5 SWAP4 SWAP3 SWAP2 SWAP1 PUSH2 0x64BA JUMP JUMPDEST PUSH1 0x20 PUSH1 0x40 MLOAD DUP1 DUP4 SUB DUP2 DUP7 GAS STATICCALL ISZERO DUP1 ISZERO PUSH2 0x1F05 JUMPI RETURNDATASIZE PUSH1 0x0 DUP1 RETURNDATACOPY RETURNDATASIZE PUSH1 0x0 REVERT JUMPDEST POP POP POP POP PUSH1 0x40 MLOAD RETURNDATASIZE PUSH1 0x1F NOT PUSH1 0x1F DUP3 ADD AND DUP3 ADD DUP1 PUSH1 0x40 MSTORE POP DUP2 ADD SWAP1 PUSH2 0x1F29 SWAP2 SWAP1 PUSH2 0x6547 JUMP JUMPDEST SWAP1 POP PUSH2 0x1F41 JUMP JUMPDEST JUMPDEST PUSH1 0x1 PUSH2 0x1F3C DUP4 PUSH2 0x1F46 JUMP JUMPDEST LT ISZERO SWAP1 POP JUMPDEST SWAP2 SWAP1 POP JUMP JUMPDEST PUSH1 0x0 DUP1 PUSH2 0x1F52 DUP4 PUSH2 0x2633 JUMP JUMPDEST SWAP1 POP PUSH1 0x0 JUMPDEST DUP2 DUP2 LT ISZERO PUSH2 0x1F98 JUMPI PUSH2 0x1F71 PUSH2 0x1F6C DUP6 DUP4 PUSH2 0x1341 JUMP JUMPDEST PUSH2 0x2A27 JUMP JUMPDEST ISZERO PUSH2 0x1F85 JUMPI DUP3 DUP1 PUSH2 0x1F81 SWAP1 PUSH2 0x62F2 JUMP JUMPDEST SWAP4 POP POP JUMPDEST DUP1 DUP1 PUSH2 0x1F90 SWAP1 PUSH2 0x62F2 JUMP JUMPDEST SWAP2 POP POP PUSH2 0x1F57 JUMP JUMPDEST POP POP SWAP2 SWAP1 POP JUMP JUMPDEST PUSH2 0xC54 SLOAD DUP2 JUMP JUMPDEST PUSH2 0x1FAE PUSH2 0x35DA JUMP JUMPDEST PUSH1 0x0 PUSH20 0xFFFFFFFFFFFFFFFFFFFFFFFFFFFFFFFFFFFFFFFF AND DUP8 PUSH20 0xFFFFFFFFFFFFFFFFFFFFFFFFFFFFFFFFFFFFFFFF AND EQ ISZERO DUP1 ISZERO PUSH2 0x2007 JUMPI POP PUSH2 0x2005 DUP8 PUSH20 0xFFFFFFFFFFFFFFFFFFFFFFFFFFFFFFFFFFFFFFFF AND PUSH2 0x4279 JUMP JUMPDEST ISZERO JUMPDEST ISZERO PUSH2 0x204A JUMPI PUSH1 0x0 PUSH1 0x40 MLOAD PUSH32 0x6788E02B00000000000000000000000000000000000000000000000000000000 DUP2 MSTORE PUSH1 0x4 ADD PUSH2 0x2041 SWAP2 SWAP1 PUSH2 0x65B2 JUMP JUMPDEST PUSH1 0x40 MLOAD DUP1 SWAP2 SUB SWAP1 REVERT JUMPDEST PUSH1 0x0 PUSH20 0xFFFFFFFFFFFFFFFFFFFFFFFFFFFFFFFFFFFFFFFF AND DUP7 PUSH20 0xFFFFFFFFFFFFFFFFFFFFFFFFFFFFFFFFFFFFFFFF AND EQ ISZERO DUP1 ISZERO PUSH2 0x20A3 JUMPI POP PUSH2 0x20A1 DUP7 PUSH20 0xFFFFFFFFFFFFFFFFFFFFFFFFFFFFFFFFFFFFFFFF AND PUSH2 0x4279 JUMP JUMPDEST ISZERO JUMPDEST ISZERO PUSH2 0x20E6 JUMPI PUSH1 0x1 PUSH1 0x40 MLOAD PUSH32 0x6788E02B00000000000000000000000000000000000000000000000000000000 DUP2 MSTORE PUSH1 0x4 ADD PUSH2 0x20DD SWAP2 SWAP1 PUSH2 0x6608 JUMP JUMPDEST PUSH1 0x40 MLOAD DUP1 SWAP2 SUB SWAP1 REVERT JUMPDEST PUSH1 0x0 PUSH20 0xFFFFFFFFFFFFFFFFFFFFFFFFFFFFFFFFFFFFFFFF AND DUP6 PUSH20 0xFFFFFFFFFFFFFFFFFFFFFFFFFFFFFFFFFFFFFFFF AND EQ ISZERO DUP1 ISZERO PUSH2 0x213F JUMPI POP PUSH2 0x213D DUP6 PUSH20 0xFFFFFFFFFFFFFFFFFFFFFFFFFFFFFFFFFFFFFFFF AND PUSH2 0x4279 JUMP JUMPDEST ISZERO JUMPDEST ISZERO PUSH2 0x2182 JUMPI PUSH1 0x2 PUSH1 0x40 MLOAD PUSH32 0x6788E02B00000000000000000000000000000000000000000000000000000000 DUP2 MSTORE PUSH1 0x4 ADD PUSH2 0x2179 SWAP2 SWAP1 PUSH2 0x665E JUMP JUMPDEST PUSH1 0x40 MLOAD DUP1 SWAP2 SUB SWAP1 REVERT JUMPDEST PUSH1 0x0 PUSH20 0xFFFFFFFFFFFFFFFFFFFFFFFFFFFFFFFFFFFFFFFF AND DUP5 PUSH20 0xFFFFFFFFFFFFFFFFFFFFFFFFFFFFFFFFFFFFFFFF AND EQ ISZERO DUP1 ISZERO PUSH2 0x21DB JUMPI POP PUSH2 0x21D9 DUP5 PUSH20 0xFFFFFFFFFFFFFFFFFFFFFFFFFFFFFFFFFFFFFFFF AND PUSH2 0x4279 JUMP JUMPDEST ISZERO JUMPDEST ISZERO PUSH2 0x221E JUMPI PUSH1 0x3 PUSH1 0x40 MLOAD PUSH32 0x6788E02B00000000000000000000000000000000000000000000000000000000 DUP2 MSTORE PUSH1 0x4 ADD PUSH2 0x2215 SWAP2 SWAP1 PUSH2 0x66B4 JUMP JUMPDEST PUSH1 0x40 MLOAD DUP1 SWAP2 SUB SWAP1 REVERT JUMPDEST PUSH1 0x0 PUSH20 0xFFFFFFFFFFFFFFFFFFFFFFFFFFFFFFFFFFFFFFFF AND DUP4 PUSH20 0xFFFFFFFFFFFFFFFFFFFFFFFFFFFFFFFFFFFFFFFF AND EQ ISZERO DUP1 ISZERO PUSH2 0x2277 JUMPI POP PUSH2 0x2275 DUP4 PUSH20 0xFFFFFFFFFFFFFFFFFFFFFFFFFFFFFFFFFFFFFFFF AND PUSH2 0x4279 JUMP JUMPDEST ISZERO JUMPDEST ISZERO PUSH2 0x22BA JUMPI PUSH1 0x4 PUSH1 0x40 MLOAD PUSH32 0x6788E02B00000000000000000000000000000000000000000000000000000000 DUP2 MSTORE PUSH1 0x4 ADD PUSH2 0x22B1 SWAP2 SWAP1 PUSH2 0x670A JUMP JUMPDEST PUSH1 0x40 MLOAD DUP1 SWAP2 SUB SWAP1 REVERT JUMPDEST PUSH1 0x0 PUSH20 0xFFFFFFFFFFFFFFFFFFFFFFFFFFFFFFFFFFFFFFFF AND DUP3 PUSH20 0xFFFFFFFFFFFFFFFFFFFFFFFFFFFFFFFFFFFFFFFF AND EQ ISZERO DUP1 ISZERO PUSH2 0x2313 JUMPI POP PUSH2 0x2311 DUP3 PUSH20 0xFFFFFFFFFFFFFFFFFFFFFFFFFFFFFFFFFFFFFFFF AND PUSH2 0x4279 JUMP JUMPDEST ISZERO JUMPDEST ISZERO PUSH2 0x2356 JUMPI PUSH1 0x5 PUSH1 0x40 MLOAD PUSH32 0x6788E02B00000000000000000000000000000000000000000000000000000000 DUP2 MSTORE PUSH1 0x4 ADD PUSH2 0x234D SWAP2 SWAP1 PUSH2 0x6760 JUMP JUMPDEST PUSH1 0x40 MLOAD DUP1 SWAP2 SUB SWAP1 REVERT JUMPDEST PUSH1 0x0 PUSH20 0xFFFFFFFFFFFFFFFFFFFFFFFFFFFFFFFFFFFFFFFF AND DUP2 PUSH20 0xFFFFFFFFFFFFFFFFFFFFFFFFFFFFFFFFFFFFFFFF AND EQ ISZERO DUP1 ISZERO PUSH2 0x23AF JUMPI POP PUSH2 0x23AD DUP2 PUSH20 0xFFFFFFFFFFFFFFFFFFFFFFFFFFFFFFFFFFFFFFFF AND PUSH2 0x4279 JUMP JUMPDEST ISZERO JUMPDEST ISZERO PUSH2 0x23F2 JUMPI PUSH1 0x6 PUSH1 0x40 MLOAD PUSH32 0x6788E02B00000000000000000000000000000000000000000000000000000000 DUP2 MSTORE PUSH1 0x4 ADD PUSH2 0x23E9 SWAP2 SWAP1 PUSH2 0x67B6 JUMP JUMPDEST PUSH1 0x40 MLOAD DUP1 SWAP2 SUB SWAP1 REVERT JUMPDEST DUP7 PUSH2 0xC57 PUSH1 0x0 PUSH2 0x100 EXP DUP2 SLOAD DUP2 PUSH20 0xFFFFFFFFFFFFFFFFFFFFFFFFFFFFFFFFFFFFFFFF MUL NOT AND SWAP1 DUP4 PUSH20 0xFFFFFFFFFFFFFFFFFFFFFFFFFFFFFFFFFFFFFFFF AND MUL OR SWAP1 SSTORE POP DUP6 PUSH2 0xC58 PUSH1 0x0 PUSH2 0x100 EXP DUP2 SLOAD DUP2 PUSH20 0xFFFFFFFFFFFFFFFFFFFFFFFFFFFFFFFFFFFFFFFF MUL NOT AND SWAP1 DUP4 PUSH20 0xFFFFFFFFFFFFFFFFFFFFFFFFFFFFFFFFFFFFFFFF AND MUL OR SWAP1 SSTORE POP DUP4 PUSH2 0xC5A PUSH1 0x0 PUSH2 0x100 EXP DUP2 SLOAD DUP2 PUSH20 0xFFFFFFFFFFFFFFFFFFFFFFFFFFFFFFFFFFFFFFFF MUL NOT AND SWAP1 DUP4 PUSH20 0xFFFFFFFFFFFFFFFFFFFFFFFFFFFFFFFFFFFFFFFF AND MUL OR SWAP1 SSTORE POP DUP5 PUSH2 0xC59 PUSH1 0x0 PUSH2 0x100 EXP DUP2 SLOAD DUP2 PUSH20 0xFFFFFFFFFFFFFFFFFFFFFFFFFFFFFFFFFFFFFFFF MUL NOT AND SWAP1 DUP4 PUSH20 0xFFFFFFFFFFFFFFFFFFFFFFFFFFFFFFFFFFFFFFFF AND MUL OR SWAP1 SSTORE POP DUP3 PUSH2 0xC5D PUSH1 0x0 PUSH2 0x100 EXP DUP2 SLOAD DUP2 PUSH20 0xFFFFFFFFFFFFFFFFFFFFFFFFFFFFFFFFFFFFFFFF MUL NOT AND SWAP1 DUP4 PUSH20 0xFFFFFFFFFFFFFFFFFFFFFFFFFFFFFFFFFFFFFFFF AND MUL OR SWAP1 SSTORE POP DUP2 PUSH2 0xC5E PUSH1 0x0 PUSH2 0x100 EXP DUP2 SLOAD DUP2 PUSH20 0xFFFFFFFFFFFFFFFFFFFFFFFFFFFFFFFFFFFFFFFF MUL NOT AND SWAP1 DUP4 PUSH20 0xFFFFFFFFFFFFFFFFFFFFFFFFFFFFFFFFFFFFFFFF AND MUL OR SWAP1 SSTORE POP DUP1 PUSH2 0xC5F PUSH1 0x0 PUSH2 0x100 EXP DUP2 SLOAD DUP2 PUSH20 0xFFFFFFFFFFFFFFFFFFFFFFFFFFFFFFFFFFFFFFFF MUL NOT AND SWAP1 DUP4 PUSH20 0xFFFFFFFFFFFFFFFFFFFFFFFFFFFFFFFFFFFFFFFF AND MUL OR SWAP1 SSTORE POP PUSH32 0xA851288E37FA9A8BC562891998524E95C286FE84F693C1921E0FD0792171AF6 DUP8 DUP8 DUP8 DUP8 DUP8 DUP8 DUP8 PUSH1 0x40 MLOAD PUSH2 0x25FB SWAP8 SWAP7 SWAP6 SWAP5 SWAP4 SWAP3 SWAP2 SWAP1 PUSH2 0x67D1 JUMP JUMPDEST PUSH1 0x40 MLOAD DUP1 SWAP2 SUB SWAP1 LOG1 POP POP POP POP POP POP POP JUMP JUMPDEST PUSH2 0xC5A PUSH1 0x0 SWAP1 SLOAD SWAP1 PUSH2 0x100 EXP SWAP1 DIV PUSH20 0xFFFFFFFFFFFFFFFFFFFFFFFFFFFFFFFFFFFFFFFF AND DUP2 JUMP JUMPDEST PUSH1 0x0 DUP1 PUSH20 0xFFFFFFFFFFFFFFFFFFFFFFFFFFFFFFFFFFFFFFFF AND DUP3 PUSH20 0xFFFFFFFFFFFFFFFFFFFFFFFFFFFFFFFFFFFFFFFF AND SUB PUSH2 0x269A JUMPI PUSH1 0x40 MLOAD PUSH32 0x5963709B00000000000000000000000000000000000000000000000000000000 DUP2 MSTORE PUSH1 0x4 ADD PUSH1 0x40 MLOAD DUP1 SWAP2 SUB SWAP1 REVERT JUMPDEST PUSH2 0x104C PUSH1 0x0 DUP4 PUSH20 0xFFFFFFFFFFFFFFFFFFFFFFFFFFFFFFFFFFFFFFFF AND PUSH20 0xFFFFFFFFFFFFFFFFFFFFFFFFFFFFFFFFFFFFFFFF AND DUP2 MSTORE PUSH1 0x20 ADD SWAP1 DUP2 MSTORE PUSH1 0x20 ADD PUSH1 0x0 KECCAK256 SLOAD SWAP1 POP SWAP2 SWAP1 POP JUMP JUMPDEST PUSH2 0x26EA PUSH2 0x3731 JUMP JUMPDEST PUSH2 0x26F3 DUP3 PUSH2 0x3285 JUMP JUMPDEST PUSH2 0x26FD DUP3 DUP3 PUSH2 0x1B2F JUMP JUMPDEST POP PUSH2 0x2709 DUP3 PUSH1 0x0 PUSH2 0x429C JUMP JUMPDEST POP PUSH2 0x2717 PUSH2 0xC53 SLOAD DUP3 PUSH2 0x3A94 JUMP JUMPDEST PUSH2 0x272C PUSH2 0x2723 DUP4 PUSH2 0x1DDA JUMP JUMPDEST PUSH2 0xC53 SLOAD PUSH2 0x3C5B JUMP JUMPDEST PUSH2 0x2734 PUSH2 0x3F5F JUMP JUMPDEST PUSH2 0x273D DUP2 PUSH2 0x4014 JUMP JUMPDEST PUSH2 0x2749 PUSH2 0xC53 SLOAD PUSH2 0x3D9A JUMP JUMPDEST POP POP JUMP JUMPDEST PUSH1 0x1 PUSH2 0x2757 PUSH2 0x2CA0 JUMP JUMPDEST PUSH2 0x2761 SWAP2 SWAP1 PUSH2 0x6840 JUMP JUMPDEST PUSH2 0xFFFF AND PUSH2 0xC5B SLOAD EQ DUP1 PUSH2 0x2778 JUMPI POP PUSH1 0x0 PUSH2 0xC5B SLOAD EQ JUMPDEST PUSH2 0x27B7 JUMPI PUSH1 0x40 MLOAD PUSH32 0x8C379A000000000000000000000000000000000000000000000000000000000 DUP2 MSTORE PUSH1 0x4 ADD PUSH2 0x27AE SWAP1 PUSH2 0x68C2 JUMP JUMPDEST PUSH1 0x40 MLOAD DUP1 SWAP2 SUB SWAP1 REVERT JUMPDEST PUSH1 0x1 CHAINID SUB PUSH2 0x287C JUMPI PUSH1 0x0 PUSH20 0xE79B93F8E22676774F2A8DAD469175EBD00029FA SWAP1 POP DUP1 PUSH20 0xFFFFFFFFFFFFFFFFFFFFFFFFFFFFFFFFFFFFFFFF AND PUSH4 0xED9674BD PUSH1 0x40 MLOAD DUP2 PUSH4 0xFFFFFFFF AND PUSH1 0xE0 SHL DUP2 MSTORE PUSH1 0x4 ADD PUSH1 0x0 PUSH1 0x40 MLOAD DUP1 DUP4 SUB DUP2 PUSH1 0x0 DUP8 DUP1 EXTCODESIZE ISZERO DUP1 ISZERO PUSH2 0x2820 JUMPI PUSH1 0x0 DUP1 REVERT JUMPDEST POP GAS CALL ISZERO DUP1 ISZERO PUSH2 0x2834 JUMPI RETURNDATASIZE PUSH1 0x0 DUP1 RETURNDATACOPY RETURNDATASIZE PUSH1 0x0 REVERT JUMPDEST POP POP POP POP DUP1 PUSH2 0xC51 PUSH1 0x0 PUSH2 0x100 EXP DUP2 SLOAD DUP2 PUSH20 0xFFFFFFFFFFFFFFFFFFFFFFFFFFFFFFFFFFFFFFFF MUL NOT AND SWAP1 DUP4 PUSH20 0xFFFFFFFFFFFFFFFFFFFFFFFFFFFFFFFFFFFFFFFF AND MUL OR SWAP1 SSTORE POP POP JUMPDEST PUSH2 0x2884 PUSH2 0x2CA0 JUMP JUMPDEST PUSH2 0xFFFF AND PUSH2 0xC5B DUP2 SWAP1 SSTORE POP POP POP JUMP JUMPDEST PUSH1 0x0 PUSH1 0x65 PUSH1 0x0 DUP5 DUP2 MSTORE PUSH1 0x20 ADD SWAP1 DUP2 MSTORE PUSH1 0x20 ADD PUSH1 0x0 KECCAK256 PUSH1 0x0 ADD PUSH1 0x0 DUP4 PUSH20 0xFFFFFFFFFFFFFFFFFFFFFFFFFFFFFFFFFFFFFFFF AND PUSH20 0xFFFFFFFFFFFFFFFFFFFFFFFFFFFFFFFFFFFFFFFF AND DUP2 MSTORE PUSH1 0x20 ADD SWAP1 DUP2 MSTORE PUSH1 0x20 ADD PUSH1 0x0 KECCAK256 PUSH1 0x0 SWAP1 SLOAD SWAP1 PUSH2 0x100 EXP SWAP1 DIV PUSH1 0xFF AND SWAP1 POP SWAP3 SWAP2 POP POP JUMP JUMPDEST PUSH2 0x1045 SLOAD DUP2 JUMP JUMPDEST PUSH2 0x47F PUSH1 0x0 SWAP1 SLOAD SWAP1 PUSH2 0x100 EXP SWAP1 DIV PUSH20 0xFFFFFFFFFFFFFFFFFFFFFFFFFFFFFFFFFFFFFFFF AND DUP2 JUMP JUMPDEST PUSH1 0x0 DUP1 SHL DUP2 JUMP JUMPDEST PUSH2 0x293B PUSH2 0x35DA JUMP JUMPDEST PUSH2 0x2944 DUP2 PUSH2 0x44EA JUMP JUMPDEST PUSH1 0x0 PUSH2 0xC53 SLOAD SWAP1 POP PUSH1 0x0 PUSH2 0x47F PUSH1 0x0 SWAP1 SLOAD SWAP1 PUSH2 0x100 EXP SWAP1 DIV PUSH20 0xFFFFFFFFFFFFFFFFFFFFFFFFFFFFFFFFFFFFFFFF AND SWAP1 POP DUP4 PUSH2 0xC53 DUP2 SWAP1 SSTORE POP DUP3 PUSH2 0x47F PUSH1 0x0 PUSH2 0x100 EXP DUP2 SLOAD DUP2 PUSH20 0xFFFFFFFFFFFFFFFFFFFFFFFFFFFFFFFFFFFFFFFF MUL NOT AND SWAP1 DUP4 PUSH20 0xFFFFFFFFFFFFFFFFFFFFFFFFFFFFFFFFFFFFFFFF AND MUL OR SWAP1 SSTORE POP PUSH32 0x3615065CCF48367AC483AC86701248E2E5FF55BDD9BE845007D34A3B68D719D4 DUP3 PUSH2 0xC53 SLOAD DUP4 PUSH2 0x47F PUSH1 0x0 SWAP1 SLOAD SWAP1 PUSH2 0x100 EXP SWAP1 DIV PUSH20 0xFFFFFFFFFFFFFFFFFFFFFFFFFFFFFFFFFFFFFFFF AND PUSH1 0x40 MLOAD PUSH2 0x2A19 SWAP5 SWAP4 SWAP3 SWAP2 SWAP1 PUSH2 0x68E2 JUMP JUMPDEST PUSH1 0x40 MLOAD DUP1 SWAP2 SUB SWAP1 LOG1 POP POP POP POP JUMP JUMPDEST PUSH1 0x0 DUP1 TIMESTAMP PUSH2 0x1049 PUSH1 0x0 DUP6 DUP2 MSTORE PUSH1 0x20 ADD SWAP1 DUP2 MSTORE PUSH1 0x20 ADD PUSH1 0x0 KECCAK256 PUSH1 0x1 ADD SLOAD GT SWAP1 POP PUSH1 0x0 PUSH20 0xFFFFFFFFFFFFFFFFFFFFFFFFFFFFFFFFFFFFFFFF AND PUSH2 0xC59 PUSH1 0x0 SWAP1 SLOAD SWAP1 PUSH2 0x100 EXP SWAP1 DIV PUSH20 0xFFFFFFFFFFFFFFFFFFFFFFFFFFFFFFFFFFFFFFFF AND PUSH20 0xFFFFFFFFFFFFFFFFFFFFFFFFFFFFFFFFFFFFFFFF AND EQ PUSH2 0x2B92 JUMPI PUSH2 0xC59 PUSH1 0x0 SWAP1 SLOAD SWAP1 PUSH2 0x100 EXP SWAP1 DIV PUSH20 0xFFFFFFFFFFFFFFFFFFFFFFFFFFFFFFFFFFFFFFFF AND PUSH20 0xFFFFFFFFFFFFFFFFFFFFFFFFFFFFFFFFFFFFFFFF AND PUSH4 0x427EDE38 ADDRESS CALLER DUP7 PUSH2 0x1049 PUSH1 0x0 DUP10 DUP2 MSTORE PUSH1 0x20 ADD SWAP1 DUP2 MSTORE PUSH1 0x20 ADD PUSH1 0x0 KECCAK256 PUSH1 0x1 ADD SLOAD PUSH2 0x1044 PUSH1 0x0 DUP11 DUP2 MSTORE PUSH1 0x20 ADD SWAP1 DUP2 MSTORE PUSH1 0x20 ADD PUSH1 0x0 KECCAK256 PUSH1 0x0 SWAP1 SLOAD SWAP1 PUSH2 0x100 EXP SWAP1 DIV PUSH20 0xFFFFFFFFFFFFFFFFFFFFFFFFFFFFFFFFFFFFFFFF AND DUP8 PUSH1 0x40 MLOAD DUP8 PUSH4 0xFFFFFFFF AND PUSH1 0xE0 SHL DUP2 MSTORE PUSH1 0x4 ADD PUSH2 0x2B4E SWAP7 SWAP6 SWAP5 SWAP4 SWAP3 SWAP2 SWAP1 PUSH2 0x6927 JUMP JUMPDEST PUSH1 0x20 PUSH1 0x40 MLOAD DUP1 DUP4 SUB DUP2 DUP7 GAS STATICCALL ISZERO DUP1 ISZERO PUSH2 0x2B6B JUMPI RETURNDATASIZE PUSH1 0x0 DUP1 RETURNDATACOPY RETURNDATASIZE PUSH1 0x0 REVERT JUMPDEST POP POP POP POP PUSH1 0x40 MLOAD RETURNDATASIZE PUSH1 0x1F NOT PUSH1 0x1F DUP3 ADD AND DUP3 ADD DUP1 PUSH1 0x40 MSTORE POP DUP2 ADD SWAP1 PUSH2 0x2B8F SWAP2 SWAP1 PUSH2 0x6547 JUMP JUMPDEST SWAP1 POP JUMPDEST DUP1 SWAP2 POP POP SWAP2 SWAP1 POP JUMP JUMPDEST PUSH1 0x0 PUSH2 0x2BC7 PUSH32 0xB89CDD26CDDD51301940BF2715F765B626B8A5A9E2681AC62DC83CC2DB2530C0 DUP4 PUSH2 0x2893 JUMP JUMPDEST SWAP1 POP SWAP2 SWAP1 POP JUMP JUMPDEST PUSH2 0x2BD7 DUP3 PUSH2 0x3285 JUMP JUMPDEST PUSH2 0x2BE1 DUP3 CALLER PUSH2 0x45CF JUMP JUMPDEST ISZERO DUP1 ISZERO PUSH2 0x2BF4 JUMPI POP PUSH2 0x2BF2 CALLER PUSH2 0x2B9B JUMP JUMPDEST ISZERO JUMPDEST ISZERO PUSH2 0x2C2B JUMPI PUSH1 0x40 MLOAD PUSH32 0x866C2FA700000000000000000000000000000000000000000000000000000000 DUP2 MSTORE PUSH1 0x4 ADD PUSH1 0x40 MLOAD DUP1 SWAP2 SUB SWAP1 REVERT JUMPDEST PUSH2 0x2C35 DUP3 DUP3 PUSH2 0x46F7 JUMP JUMPDEST POP POP JUMP JUMPDEST PUSH2 0xC5F PUSH1 0x0 SWAP1 SLOAD SWAP1 PUSH2 0x100 EXP SWAP1 DIV PUSH20 0xFFFFFFFFFFFFFFFFFFFFFFFFFFFFFFFFFFFFFFFF AND DUP2 JUMP JUMPDEST PUSH2 0x1435 PUSH1 0x20 MSTORE DUP1 PUSH1 0x0 MSTORE PUSH1 0x40 PUSH1 0x0 KECCAK256 PUSH1 0x0 SWAP2 POP SWAP1 POP SLOAD DUP2 JUMP JUMPDEST PUSH2 0xC5E PUSH1 0x0 SWAP1 SLOAD SWAP1 PUSH2 0x100 EXP SWAP1 DIV PUSH20 0xFFFFFFFFFFFFFFFFFFFFFFFFFFFFFFFFFFFFFFFF AND DUP2 JUMP JUMPDEST PUSH1 0x0 PUSH1 0xD SWAP1 POP SWAP1 JUMP JUMPDEST PUSH2 0x2CB1 PUSH2 0x35DA JUMP JUMPDEST PUSH2 0x2CDB PUSH32 0xB89CDD26CDDD51301940BF2715F765B626B8A5A9E2681AC62DC83CC2DB2530C0 DUP3 PUSH2 0x1320 JUMP JUMPDEST DUP1 PUSH20 0xFFFFFFFFFFFFFFFFFFFFFFFFFFFFFFFFFFFFFFFF AND PUSH32 0x91D5C045D5BD98BF59A379B259EBCA05B93BF79AF1845FDF87E3172385D4C7F7 PUSH1 0x40 MLOAD PUSH1 0x40 MLOAD DUP1 SWAP2 SUB SWAP1 LOG2 POP JUMP JUMPDEST PUSH1 0x0 PUSH2 0xC5C SLOAD SWAP1 POP SWAP1 JUMP JUMPDEST PUSH2 0x2D35 DUP3 PUSH2 0x11D8 JUMP JUMPDEST PUSH2 0x2D3E DUP2 PUSH2 0x363C JUMP JUMPDEST PUSH2 0x2D48 DUP4 DUP4 PUSH2 0x4178 JUMP JUMPDEST POP POP POP JUMP JUMPDEST PUSH2 0x2D55 PUSH2 0x3731 JUMP JUMPDEST PUSH2 0x2D5E DUP5 PUSH2 0x3285 JUMP JUMPDEST PUSH2 0x2D69 DUP5 PUSH1 0x0 PUSH2 0x429C JUMP JUMPDEST POP PUSH1 0x0 PUSH2 0x2DC3 PUSH2 0x2D78 DUP7 PUSH2 0x1DDA JUMP JUMPDEST DUP6 DUP6 DUP6 DUP1 DUP1 PUSH1 0x1F ADD PUSH1 0x20 DUP1 SWAP2 DIV MUL PUSH1 0x20 ADD PUSH1 0x40 MLOAD SWAP1 DUP2 ADD PUSH1 0x40 MSTORE DUP1 SWAP4 SWAP3 SWAP2 SWAP1 DUP2 DUP2 MSTORE PUSH1 0x20 ADD DUP4 DUP4 DUP1 DUP3 DUP5 CALLDATACOPY PUSH1 0x0 DUP2 DUP5 ADD MSTORE PUSH1 0x1F NOT PUSH1 0x1F DUP3 ADD AND SWAP1 POP DUP1 DUP4 ADD SWAP3 POP POP POP POP POP POP POP PUSH2 0x1061 JUMP JUMPDEST SWAP1 POP PUSH1 0x0 PUSH20 0xFFFFFFFFFFFFFFFFFFFFFFFFFFFFFFFFFFFFFFFF AND PUSH2 0x47F PUSH1 0x0 SWAP1 SLOAD SWAP1 PUSH2 0x100 EXP SWAP1 DIV PUSH20 0xFFFFFFFFFFFFFFFFFFFFFFFFFFFFFFFFFFFFFFFF AND PUSH20 0xFFFFFFFFFFFFFFFFFFFFFFFFFFFFFFFFFFFFFFFF AND EQ PUSH2 0x2E27 JUMPI PUSH2 0x2E26 DUP7 DUP3 PUSH2 0x3A56 JUMP JUMPDEST JUMPDEST PUSH2 0x2E31 DUP2 DUP6 PUSH2 0x3A94 JUMP JUMPDEST PUSH2 0x2E3B CALLER DUP3 PUSH2 0x3C5B JUMP JUMPDEST PUSH2 0x2E45 DUP6 DUP3 PUSH2 0x38E1 JUMP JUMPDEST PUSH2 0x2E4D PUSH2 0x3F5F JUMP JUMPDEST PUSH2 0x2E56 DUP5 PUSH2 0x4014 JUMP JUMPDEST PUSH2 0x2E5F DUP2 PUSH2 0x3D9A JUMP JUMPDEST POP POP POP POP POP POP JUMP JUMPDEST PUSH2 0x2E6F PUSH2 0x35DA JUMP JUMPDEST PUSH1 0x0 DUP1 PUSH20 0xFFFFFFFFFFFFFFFFFFFFFFFFFFFFFFFFFFFFFFFF AND DUP5 PUSH20 0xFFFFFFFFFFFFFFFFFFFFFFFFFFFFFFFFFFFFFFFF AND SUB PUSH2 0x2EAC JUMPI SELFBALANCE SWAP1 POP PUSH2 0x2F29 JUMP JUMPDEST DUP4 PUSH20 0xFFFFFFFFFFFFFFFFFFFFFFFFFFFFFFFFFFFFFFFF AND PUSH4 0x70A08231 ADDRESS PUSH1 0x40 MLOAD DUP3 PUSH4 0xFFFFFFFF AND PUSH1 0xE0 SHL DUP2 MSTORE PUSH1 0x4 ADD PUSH2 0x2EE5 SWAP2 SWAP1 PUSH2 0x536D JUMP JUMPDEST PUSH1 0x20 PUSH1 0x40 MLOAD DUP1 DUP4 SUB DUP2 DUP7 GAS STATICCALL ISZERO DUP1 ISZERO PUSH2 0x2F02 JUMPI RETURNDATASIZE PUSH1 0x0 DUP1 RETURNDATACOPY RETURNDATASIZE PUSH1 0x0 REVERT JUMPDEST POP POP POP POP PUSH1 0x40 MLOAD RETURNDATASIZE PUSH1 0x1F NOT PUSH1 0x1F DUP3 ADD AND DUP3 ADD DUP1 PUSH1 0x40 MSTORE POP DUP2 ADD SWAP1 PUSH2 0x2F26 SWAP2 SWAP1 PUSH2 0x6114 JUMP JUMPDEST SWAP1 POP JUMPDEST PUSH1 0x0 DUP1 DUP4 EQ DUP1 PUSH2 0x2F38 JUMPI POP DUP2 DUP4 GT JUMPDEST ISZERO PUSH2 0x2F7F JUMPI PUSH1 0x0 DUP3 GT PUSH2 0x2F77 JUMPI PUSH1 0x40 MLOAD PUSH32 0x1F04DDC800000000000000000000000000000000000000000000000000000000 DUP2 MSTORE PUSH1 0x4 ADD PUSH1 0x40 MLOAD DUP1 SWAP2 SUB SWAP1 REVERT JUMPDEST DUP2 SWAP1 POP PUSH2 0x2F83 JUMP JUMPDEST DUP3 SWAP1 POP JUMPDEST DUP4 PUSH20 0xFFFFFFFFFFFFFFFFFFFFFFFFFFFFFFFFFFFFFFFF AND DUP6 PUSH20 0xFFFFFFFFFFFFFFFFFFFFFFFFFFFFFFFFFFFFFFFF AND CALLER PUSH20 0xFFFFFFFFFFFFFFFFFFFFFFFFFFFFFFFFFFFFFFFF AND PUSH32 0x342E7FF505A8A0364CD0DC2FF195C315E43BCE86B204846ECD36913E117B109E DUP5 PUSH1 0x40 MLOAD PUSH2 0x2FF7 SWAP2 SWAP1 PUSH2 0x55B8 JUMP JUMPDEST PUSH1 0x40 MLOAD DUP1 SWAP2 SUB SWAP1 LOG4 PUSH2 0x300A DUP6 DUP6 DUP4 PUSH2 0x4803 JUMP JUMPDEST POP POP POP POP POP JUMP JUMPDEST PUSH2 0x3019 PUSH2 0x35DA JUMP JUMPDEST DUP1 PUSH2 0x1435 PUSH1 0x0 DUP5 PUSH20 0xFFFFFFFFFFFFFFFFFFFFFFFFFFFFFFFFFFFFFFFF AND PUSH20 0xFFFFFFFFFFFFFFFFFFFFFFFFFFFFFFFFFFFFFFFF AND DUP2 MSTORE PUSH1 0x20 ADD SWAP1 DUP2 MSTORE PUSH1 0x20 ADD PUSH1 0x0 KECCAK256 DUP2 SWAP1 SSTORE POP DUP2 PUSH20 0xFFFFFFFFFFFFFFFFFFFFFFFFFFFFFFFFFFFFFFFF AND PUSH32 0xA027572BB55DE556A0DF93BD38C3871AAF311245C2CD34F0DA045AA33A66DBC5 DUP3 PUSH1 0x40 MLOAD PUSH2 0x30A4 SWAP2 SWAP1 PUSH2 0x55B8 JUMP JUMPDEST PUSH1 0x40 MLOAD DUP1 SWAP2 SUB SWAP1 LOG2 POP POP JUMP JUMPDEST PUSH1 0x0 PUSH2 0x1048 PUSH1 0x0 DUP5 PUSH20 0xFFFFFFFFFFFFFFFFFFFFFFFFFFFFFFFFFFFFFFFF AND PUSH20 0xFFFFFFFFFFFFFFFFFFFFFFFFFFFFFFFFFFFFFFFF AND DUP2 MSTORE PUSH1 0x20 ADD SWAP1 DUP2 MSTORE PUSH1 0x20 ADD PUSH1 0x0 KECCAK256 PUSH1 0x0 DUP4 PUSH20 0xFFFFFFFFFFFFFFFFFFFFFFFFFFFFFFFFFFFFFFFF AND PUSH20 0xFFFFFFFFFFFFFFFFFFFFFFFFFFFFFFFFFFFFFFFF AND DUP2 MSTORE PUSH1 0x20 ADD SWAP1 DUP2 MSTORE PUSH1 0x20 ADD PUSH1 0x0 KECCAK256 PUSH1 0x0 SWAP1 SLOAD SWAP1 PUSH2 0x100 EXP SWAP1 DIV PUSH1 0xFF AND SWAP1 POP SWAP3 SWAP2 POP POP JUMP JUMPDEST PUSH2 0x316F PUSH32 0xB89CDD26CDDD51301940BF2715F765B626B8A5A9E2681AC62DC83CC2DB2530C0 CALLER PUSH2 0x1948 JUMP JUMPDEST CALLER PUSH20 0xFFFFFFFFFFFFFFFFFFFFFFFFFFFFFFFFFFFFFFFF AND PUSH32 0x42885193B8178D25FCA25A38E6FCC93918501E91BE06D85E0C8AFB3BAD952380 PUSH1 0x40 MLOAD PUSH1 0x40 MLOAD DUP1 SWAP2 SUB SWAP1 LOG2 JUMP JUMPDEST PUSH2 0x31BC PUSH2 0x35DA JUMP JUMPDEST PUSH2 0x31C4 PUSH2 0x2CA0 JUMP JUMPDEST PUSH2 0xFFFF AND PUSH2 0xC5B DUP2 SWAP1 SSTORE POP JUMP JUMPDEST PUSH2 0x31D9 PUSH2 0x35DA JUMP JUMPDEST DUP1 PUSH2 0x1431 DUP2 SWAP1 SSTORE POP PUSH32 0x4D816C1058DE34C4241BA72C371FB3F2EA05147691B364F04D16BC967AE68A11 DUP2 PUSH1 0x40 MLOAD PUSH2 0x3210 SWAP2 SWAP1 PUSH2 0x55B8 JUMP JUMPDEST PUSH1 0x40 MLOAD DUP1 SWAP2 SUB SWAP1 LOG1 POP JUMP JUMPDEST PUSH1 0x0 PUSH32 0x1FFC9A700000000000000000000000000000000000000000000000000000000 PUSH28 0xFFFFFFFFFFFFFFFFFFFFFFFFFFFFFFFFFFFFFFFFFFFFFFFFFFFFFFFF NOT AND DUP3 PUSH28 0xFFFFFFFFFFFFFFFFFFFFFFFFFFFFFFFFFFFFFFFFFFFFFFFFFFFFFFFF NOT AND EQ SWAP1 POP SWAP2 SWAP1 POP JUMP JUMPDEST PUSH1 0x0 PUSH2 0x1049 PUSH1 0x0 DUP4 DUP2 MSTORE PUSH1 0x20 ADD SWAP1 DUP2 MSTORE PUSH1 0x20 ADD PUSH1 0x0 KECCAK256 PUSH1 0x0 ADD SLOAD SUB PUSH2 0x32D6 JUMPI PUSH1 0x40 MLOAD PUSH32 0x78FE247300000000000000000000000000000000000000000000000000000000 DUP2 MSTORE PUSH1 0x4 ADD PUSH1 0x40 MLOAD DUP1 SWAP2 SUB SWAP1 REVERT JUMPDEST POP JUMP JUMPDEST PUSH2 0x32E2 DUP2 PUSH2 0x2A27 JUMP JUMPDEST PUSH2 0x3318 JUMPI PUSH1 0x40 MLOAD PUSH32 0xD9F4FAE00000000000000000000000000000000000000000000000000000000 DUP2 MSTORE PUSH1 0x4 ADD PUSH1 0x40 MLOAD DUP1 SWAP2 SUB SWAP1 REVERT JUMPDEST POP JUMP JUMPDEST PUSH1 0x0 DUP1 PUSH20 0xFFFFFFFFFFFFFFFFFFFFFFFFFFFFFFFFFFFFFFFF AND PUSH2 0x1046 PUSH1 0x0 DUP5 DUP2 MSTORE PUSH1 0x20 ADD SWAP1 DUP2 MSTORE PUSH1 0x20 ADD PUSH1 0x0 KECCAK256 PUSH1 0x0 SWAP1 SLOAD SWAP1 PUSH2 0x100 EXP SWAP1 DIV PUSH20 0xFFFFFFFFFFFFFFFFFFFFFFFFFFFFFFFFFFFFFFFF AND PUSH20 0xFFFFFFFFFFFFFFFFFFFFFFFFFFFFFFFFFFFFFFFF AND EQ PUSH2 0x33BE JUMPI PUSH2 0x1046 PUSH1 0x0 DUP4 DUP2 MSTORE PUSH1 0x20 ADD SWAP1 DUP2 MSTORE PUSH1 0x20 ADD PUSH1 0x0 KECCAK256 PUSH1 0x0 SWAP1 SLOAD SWAP1 PUSH2 0x100 EXP SWAP1 DIV PUSH20 0xFFFFFFFFFFFFFFFFFFFFFFFFFFFFFFFFFFFFFFFF AND PUSH2 0x33F4 JUMP JUMPDEST PUSH2 0x1044 PUSH1 0x0 DUP4 DUP2 MSTORE PUSH1 0x20 ADD SWAP1 DUP2 MSTORE PUSH1 0x20 ADD PUSH1 0x0 KECCAK256 PUSH1 0x0 SWAP1 SLOAD SWAP1 PUSH2 0x100 EXP SWAP1 DIV PUSH20 0xFFFFFFFFFFFFFFFFFFFFFFFFFFFFFFFFFFFFFFFF AND JUMPDEST SWAP1 POP PUSH2 0x33FF CALLER PUSH2 0x2B9B JUMP JUMPDEST ISZERO DUP1 ISZERO PUSH2 0x3413 JUMPI POP PUSH2 0x3411 DUP3 CALLER PUSH2 0x45CF JUMP JUMPDEST ISZERO JUMPDEST DUP1 ISZERO PUSH2 0x347F JUMPI POP CALLER PUSH20 0xFFFFFFFFFFFFFFFFFFFFFFFFFFFFFFFFFFFFFFFF AND PUSH2 0x1047 PUSH1 0x0 DUP5 DUP2 MSTORE PUSH1 0x20 ADD SWAP1 DUP2 MSTORE PUSH1 0x20 ADD PUSH1 0x0 KECCAK256 PUSH1 0x0 SWAP1 SLOAD SWAP1 PUSH2 0x100 EXP SWAP1 DIV PUSH20 0xFFFFFFFFFFFFFFFFFFFFFFFFFFFFFFFFFFFFFFFF AND PUSH20 0xFFFFFFFFFFFFFFFFFFFFFFFFFFFFFFFFFFFFFFFF AND EQ ISZERO JUMPDEST DUP1 ISZERO PUSH2 0x3492 JUMPI POP PUSH2 0x3490 DUP2 CALLER PUSH2 0x30B0 JUMP JUMPDEST ISZERO JUMPDEST ISZERO PUSH2 0x34C9 JUMPI PUSH1 0x40 MLOAD PUSH32 0xE17C6D4500000000000000000000000000000000000000000000000000000000 DUP2 MSTORE PUSH1 0x4 ADD PUSH1 0x40 MLOAD DUP1 SWAP2 SUB SWAP1 REVERT JUMPDEST POP POP JUMP JUMPDEST PUSH2 0x34D6 DUP4 PUSH2 0x3285 JUMP JUMPDEST PUSH1 0x0 PUSH2 0x1049 PUSH1 0x0 DUP6 DUP2 MSTORE PUSH1 0x20 ADD SWAP1 DUP2 MSTORE PUSH1 0x20 ADD PUSH1 0x0 KECCAK256 PUSH1 0x1 ADD SLOAD SWAP1 POP DUP2 ISZERO PUSH2 0x3559 JUMPI TIMESTAMP DUP2 GT ISZERO PUSH2 0x352C JUMPI DUP3 DUP2 PUSH2 0x350C SWAP2 SWAP1 PUSH2 0x6178 JUMP JUMPDEST PUSH2 0x1049 PUSH1 0x0 DUP7 DUP2 MSTORE PUSH1 0x20 ADD SWAP1 DUP2 MSTORE PUSH1 0x20 ADD PUSH1 0x0 KECCAK256 PUSH1 0x1 ADD DUP2 SWAP1 SSTORE POP PUSH2 0x3554 JUMP JUMPDEST DUP3 TIMESTAMP PUSH2 0x3538 SWAP2 SWAP1 PUSH2 0x6178 JUMP JUMPDEST PUSH2 0x1049 PUSH1 0x0 DUP7 DUP2 MSTORE PUSH1 0x20 ADD SWAP1 DUP2 MSTORE PUSH1 0x20 ADD PUSH1 0x0 KECCAK256 PUSH1 0x1 ADD DUP2 SWAP1 SSTORE POP JUMPDEST PUSH2 0x3581 JUMP JUMPDEST DUP3 DUP2 PUSH2 0x3565 SWAP2 SWAP1 PUSH2 0x6000 JUMP JUMPDEST PUSH2 0x1049 PUSH1 0x0 DUP7 DUP2 MSTORE PUSH1 0x20 ADD SWAP1 DUP2 MSTORE PUSH1 0x20 ADD PUSH1 0x0 KECCAK256 PUSH1 0x1 ADD DUP2 SWAP1 SSTORE POP JUMPDEST DUP4 PUSH32 0x3C907806849E9204E0E26BB095DFE4B3071576C4323F766735C548211556D052 PUSH2 0x1049 PUSH1 0x0 DUP8 DUP2 MSTORE PUSH1 0x20 ADD SWAP1 DUP2 MSTORE PUSH1 0x20 ADD PUSH1 0x0 KECCAK256 PUSH1 0x1 ADD SLOAD DUP6 DUP6 PUSH1 0x40 MLOAD PUSH2 0x35CC SWAP4 SWAP3 SWAP2 SWAP1 PUSH2 0x6988 JUMP JUMPDEST PUSH1 0x40 MLOAD DUP1 SWAP2 SUB SWAP1 LOG2 POP POP POP POP JUMP JUMPDEST PUSH2 0x3604 PUSH32 0xB89CDD26CDDD51301940BF2715F765B626B8A5A9E2681AC62DC83CC2DB2530C0 CALLER PUSH2 0x2893 JUMP JUMPDEST PUSH2 0x363A JUMPI PUSH1 0x40 MLOAD PUSH32 0x8E1B58C400000000000000000000000000000000000000000000000000000000 DUP2 MSTORE PUSH1 0x4 ADD PUSH1 0x40 MLOAD DUP1 SWAP2 SUB SWAP1 REVERT JUMPDEST JUMP JUMPDEST PUSH2 0x364D DUP2 PUSH2 0x3648 PUSH2 0x4170 JUMP JUMPDEST PUSH2 0x48A6 JUMP JUMPDEST POP JUMP JUMPDEST PUSH2 0x365A DUP3 DUP3 PUSH2 0x2893 JUMP JUMPDEST PUSH2 0x372D JUMPI PUSH1 0x1 PUSH1 0x65 PUSH1 0x0 DUP5 DUP2 MSTORE PUSH1 0x20 ADD SWAP1 DUP2 MSTORE PUSH1 0x20 ADD PUSH1 0x0 KECCAK256 PUSH1 0x0 ADD PUSH1 0x0 DUP4 PUSH20 0xFFFFFFFFFFFFFFFFFFFFFFFFFFFFFFFFFFFFFFFF AND PUSH20 0xFFFFFFFFFFFFFFFFFFFFFFFFFFFFFFFFFFFFFFFF AND DUP2 MSTORE PUSH1 0x20 ADD SWAP1 DUP2 MSTORE PUSH1 0x20 ADD PUSH1 0x0 KECCAK256 PUSH1 0x0 PUSH2 0x100 EXP DUP2 SLOAD DUP2 PUSH1 0xFF MUL NOT AND SWAP1 DUP4 ISZERO ISZERO MUL OR SWAP1 SSTORE POP PUSH2 0x36D2 PUSH2 0x4170 JUMP JUMPDEST PUSH20 0xFFFFFFFFFFFFFFFFFFFFFFFFFFFFFFFFFFFFFFFF AND DUP2 PUSH20 0xFFFFFFFFFFFFFFFFFFFFFFFFFFFFFFFFFFFFFFFF AND DUP4 PUSH32 0x2F8788117E7EFF1D82E926EC794901D17C78024A50270940304540A733656F0D PUSH1 0x40 MLOAD PUSH1 0x40 MLOAD DUP1 SWAP2 SUB SWAP1 LOG4 JUMPDEST POP POP JUMP JUMPDEST PUSH2 0x3739 PUSH2 0x2CA0 JUMP JUMPDEST PUSH2 0xFFFF AND PUSH2 0xC5B SLOAD EQ PUSH2 0x3778 JUMPI PUSH1 0x40 MLOAD PUSH32 0xBAB80EC000000000000000000000000000000000000000000000000000000000 DUP2 MSTORE PUSH1 0x4 ADD PUSH1 0x40 MLOAD DUP1 SWAP2 SUB SWAP1 REVERT JUMPDEST JUMP JUMPDEST PUSH1 0x0 DUP1 PUSH20 0xFFFFFFFFFFFFFFFFFFFFFFFFFFFFFFFFFFFFFFFF AND DUP5 PUSH20 0xFFFFFFFFFFFFFFFFFFFFFFFFFFFFFFFFFFFFFFFF AND SUB PUSH2 0x37E1 JUMPI PUSH1 0x40 MLOAD PUSH32 0x5963709B00000000000000000000000000000000000000000000000000000000 DUP2 MSTORE PUSH1 0x4 ADD PUSH1 0x40 MLOAD DUP1 SWAP2 SUB SWAP1 REVERT JUMPDEST PUSH2 0xC55 PUSH1 0x0 DUP2 SLOAD DUP1 SWAP3 SWAP2 SWAP1 PUSH2 0x37F5 SWAP1 PUSH2 0x62F2 JUMP JUMPDEST SWAP2 SWAP1 POP SSTORE POP PUSH2 0xC55 SLOAD SWAP1 POP PUSH1 0x40 MLOAD DUP1 PUSH1 0x40 ADD PUSH1 0x40 MSTORE DUP1 DUP3 DUP2 MSTORE PUSH1 0x20 ADD DUP4 DUP2 MSTORE POP PUSH2 0x1049 PUSH1 0x0 DUP4 DUP2 MSTORE PUSH1 0x20 ADD SWAP1 DUP2 MSTORE PUSH1 0x20 ADD PUSH1 0x0 KECCAK256 PUSH1 0x0 DUP3 ADD MLOAD DUP2 PUSH1 0x0 ADD SSTORE PUSH1 0x20 DUP3 ADD MLOAD DUP2 PUSH1 0x1 ADD SSTORE SWAP1 POP POP PUSH1 0x0 PUSH2 0x384B DUP6 PUSH2 0x2633 JUMP JUMPDEST SUB PUSH2 0x386A JUMPI PUSH2 0x1045 PUSH1 0x0 DUP2 SLOAD DUP1 SWAP3 SWAP2 SWAP1 PUSH2 0x3864 SWAP1 PUSH2 0x62F2 JUMP JUMPDEST SWAP2 SWAP1 POP SSTORE POP JUMPDEST PUSH2 0x3874 DUP2 DUP6 PUSH2 0x492B JUMP JUMPDEST PUSH2 0x387E DUP2 DUP5 PUSH2 0x46F7 JUMP JUMPDEST DUP1 DUP5 PUSH20 0xFFFFFFFFFFFFFFFFFFFFFFFFFFFFFFFFFFFFFFFF AND PUSH1 0x0 PUSH20 0xFFFFFFFFFFFFFFFFFFFFFFFFFFFFFFFFFFFFFFFF AND PUSH32 0xDDF252AD1BE2C89B69C2B068FC378DAA952BA7F163C4A11628F55A4DF523B3EF PUSH1 0x40 MLOAD PUSH1 0x40 MLOAD DUP1 SWAP2 SUB SWAP1 LOG4 SWAP4 SWAP3 POP POP POP JUMP JUMPDEST DUP1 PUSH2 0x1432 PUSH1 0x0 DUP5 DUP2 MSTORE PUSH1 0x20 ADD SWAP1 DUP2 MSTORE PUSH1 0x20 ADD PUSH1 0x0 KECCAK256 SLOAD EQ PUSH2 0x3916 JUMPI DUP1 PUSH2 0x1432 PUSH1 0x0 DUP5 DUP2 MSTORE PUSH1 0x20 ADD SWAP1 DUP2 MSTORE PUSH1 0x20 ADD PUSH1 0x0 KECCAK256 DUP2 SWAP1 SSTORE POP JUMPDEST PUSH2 0xC52 SLOAD PUSH2 0x1433 PUSH1 0x0 DUP5 DUP2 MSTORE PUSH1 0x20 ADD SWAP1 DUP2 MSTORE PUSH1 0x20 ADD PUSH1 0x0 KECCAK256 SLOAD EQ PUSH2 0x3951 JUMPI PUSH2 0xC52 SLOAD PUSH2 0x1433 PUSH1 0x0 DUP5 DUP2 MSTORE PUSH1 0x20 ADD SWAP1 DUP2 MSTORE PUSH1 0x20 ADD PUSH1 0x0 KECCAK256 DUP2 SWAP1 SSTORE POP JUMPDEST PUSH2 0x47F PUSH1 0x0 SWAP1 SLOAD SWAP1 PUSH2 0x100 EXP SWAP1 DIV PUSH20 0xFFFFFFFFFFFFFFFFFFFFFFFFFFFFFFFFFFFFFFFF AND PUSH20 0xFFFFFFFFFFFFFFFFFFFFFFFFFFFFFFFFFFFFFFFF AND PUSH2 0x1434 PUSH1 0x0 DUP5 DUP2 MSTORE PUSH1 0x20 ADD SWAP1 DUP2 MSTORE PUSH1 0x20 ADD PUSH1 0x0 KECCAK256 PUSH1 0x0 SWAP1 SLOAD SWAP1 PUSH2 0x100 EXP SWAP1 DIV PUSH20 0xFFFFFFFFFFFFFFFFFFFFFFFFFFFFFFFFFFFFFFFF AND PUSH20 0xFFFFFFFFFFFFFFFFFFFFFFFFFFFFFFFFFFFFFFFF AND EQ PUSH2 0x3A52 JUMPI PUSH2 0x47F PUSH1 0x0 SWAP1 SLOAD SWAP1 PUSH2 0x100 EXP SWAP1 DIV PUSH20 0xFFFFFFFFFFFFFFFFFFFFFFFFFFFFFFFFFFFFFFFF AND PUSH2 0x1434 PUSH1 0x0 DUP5 DUP2 MSTORE PUSH1 0x20 ADD SWAP1 DUP2 MSTORE PUSH1 0x20 ADD PUSH1 0x0 KECCAK256 PUSH1 0x0 PUSH2 0x100 EXP DUP2 SLOAD DUP2 PUSH20 0xFFFFFFFFFFFFFFFFFFFFFFFFFFFFFFFFFFFFFFFF MUL NOT AND SWAP1 DUP4 PUSH20 0xFFFFFFFFFFFFFFFFFFFFFFFFFFFFFFFFFFFFFFFF AND MUL OR SWAP1 SSTORE POP JUMPDEST POP POP JUMP JUMPDEST DUP1 DUP3 LT ISZERO PUSH2 0x3A90 JUMPI PUSH1 0x40 MLOAD PUSH32 0xC0017EC400000000000000000000000000000000000000000000000000000000 DUP2 MSTORE PUSH1 0x4 ADD PUSH1 0x40 MLOAD DUP1 SWAP2 SUB SWAP1 REVERT JUMPDEST POP POP JUMP JUMPDEST PUSH1 0x0 PUSH2 0xC51 PUSH1 0x0 SWAP1 SLOAD SWAP1 PUSH2 0x100 EXP SWAP1 DIV PUSH20 0xFFFFFFFFFFFFFFFFFFFFFFFFFFFFFFFFFFFFFFFF AND PUSH20 0xFFFFFFFFFFFFFFFFFFFFFFFFFFFFFFFFFFFFFFFF AND EXTCODESIZE GT ISZERO PUSH2 0x3BE5 JUMPI PUSH2 0xC51 PUSH1 0x0 SWAP1 SLOAD SWAP1 PUSH2 0x100 EXP SWAP1 DIV PUSH20 0xFFFFFFFFFFFFFFFFFFFFFFFFFFFFFFFFFFFFFFFF AND PUSH20 0xFFFFFFFFFFFFFFFFFFFFFFFFFFFFFFFFFFFFFFFF AND PUSH4 0x939D9F1F PUSH3 0x493E0 DUP5 DUP5 PUSH1 0x40 MLOAD DUP5 PUSH4 0xFFFFFFFF AND PUSH1 0xE0 SHL DUP2 MSTORE PUSH1 0x4 ADD PUSH2 0x3B39 SWAP3 SWAP2 SWAP1 PUSH2 0x69BF JUMP JUMPDEST PUSH1 0x0 PUSH1 0x40 MLOAD DUP1 DUP4 SUB DUP2 PUSH1 0x0 DUP9 DUP1 EXTCODESIZE ISZERO DUP1 ISZERO PUSH2 0x3B53 JUMPI PUSH1 0x0 DUP1 REVERT JUMPDEST POP DUP8 CALL SWAP4 POP POP POP POP DUP1 ISZERO PUSH2 0x3B65 JUMPI POP PUSH1 0x1 JUMPDEST PUSH2 0x3BDF JUMPI ADDRESS PUSH20 0xFFFFFFFFFFFFFFFFFFFFFFFFFFFFFFFFFFFFFFFF AND PUSH32 0x6B18946261693DFD6C760D986B28AD2238B5B0267F8E5B6BC40A2F998E2F20AC PUSH2 0xC51 PUSH1 0x0 SWAP1 SLOAD SWAP1 PUSH2 0x100 EXP SWAP1 DIV PUSH20 0xFFFFFFFFFFFFFFFFFFFFFFFFFFFFFFFFFFFFFFFF AND PUSH1 0x40 MLOAD PUSH2 0x3BD2 SWAP2 SWAP1 PUSH2 0x536D JUMP JUMPDEST PUSH1 0x40 MLOAD DUP1 SWAP2 SUB SWAP1 LOG2 PUSH2 0x3BE0 JUMP JUMPDEST JUMPDEST PUSH2 0x3C57 JUMP JUMPDEST ADDRESS PUSH20 0xFFFFFFFFFFFFFFFFFFFFFFFFFFFFFFFFFFFFFFFF AND PUSH32 0x6B18946261693DFD6C760D986B28AD2238B5B0267F8E5B6BC40A2F998E2F20AC PUSH2 0xC51 PUSH1 0x0 SWAP1 SLOAD SWAP1 PUSH2 0x100 EXP SWAP1 DIV PUSH20 0xFFFFFFFFFFFFFFFFFFFFFFFFFFFFFFFFFFFFFFFF AND PUSH1 0x40 MLOAD PUSH2 0x3C4E SWAP2 SWAP1 PUSH2 0x536D JUMP JUMPDEST PUSH1 0x40 MLOAD DUP1 SWAP2 SUB SWAP1 LOG2 JUMPDEST POP POP JUMP JUMPDEST PUSH1 0x0 PUSH20 0xFFFFFFFFFFFFFFFFFFFFFFFFFFFFFFFFFFFFFFFF AND PUSH2 0x47F PUSH1 0x0 SWAP1 SLOAD SWAP1 PUSH2 0x100 EXP SWAP1 DIV PUSH20 0xFFFFFFFFFFFFFFFFFFFFFFFFFFFFFFFFFFFFFFFF AND PUSH20 0xFFFFFFFFFFFFFFFFFFFFFFFFFFFFFFFFFFFFFFFF AND EQ PUSH2 0x3D5B JUMPI PUSH2 0x47F PUSH1 0x0 SWAP1 SLOAD SWAP1 PUSH2 0x100 EXP SWAP1 DIV PUSH20 0xFFFFFFFFFFFFFFFFFFFFFFFFFFFFFFFFFFFFFFFF AND PUSH20 0xFFFFFFFFFFFFFFFFFFFFFFFFFFFFFFFFFFFFFFFF AND PUSH4 0x23B872DD DUP4 ADDRESS DUP5 PUSH1 0x40 MLOAD DUP5 PUSH4 0xFFFFFFFF AND PUSH1 0xE0 SHL DUP2 MSTORE PUSH1 0x4 ADD PUSH2 0x3D12 SWAP4 SWAP3 SWAP2 SWAP1 PUSH2 0x69E8 JUMP JUMPDEST PUSH1 0x20 PUSH1 0x40 MLOAD DUP1 DUP4 SUB DUP2 PUSH1 0x0 DUP8 GAS CALL ISZERO DUP1 ISZERO PUSH2 0x3D31 JUMPI RETURNDATASIZE PUSH1 0x0 DUP1 RETURNDATACOPY RETURNDATASIZE PUSH1 0x0 REVERT JUMPDEST POP POP POP POP PUSH1 0x40 MLOAD RETURNDATASIZE PUSH1 0x1F NOT PUSH1 0x1F DUP3 ADD AND DUP3 ADD DUP1 PUSH1 0x40 MSTORE POP DUP2 ADD SWAP1 PUSH2 0x3D55 SWAP2 SWAP1 PUSH2 0x6547 JUMP JUMPDEST POP PUSH2 0x3D96 JUMP JUMPDEST DUP1 CALLVALUE LT ISZERO PUSH2 0x3D95 JUMPI PUSH1 0x40 MLOAD PUSH32 0x6C3CDDF000000000000000000000000000000000000000000000000000000000 DUP2 MSTORE PUSH1 0x4 ADD PUSH1 0x40 MLOAD DUP1 SWAP2 SUB SWAP1 REVERT JUMPDEST JUMPDEST POP POP JUMP JUMPDEST PUSH1 0x0 DUP1 PUSH2 0xC51 PUSH1 0x0 SWAP1 SLOAD SWAP1 PUSH2 0x100 EXP SWAP1 DIV PUSH20 0xFFFFFFFFFFFFFFFFFFFFFFFFFFFFFFFFFFFFFFFF AND PUSH20 0xFFFFFFFFFFFFFFFFFFFFFFFFFFFFFFFFFFFFFFFF AND EXTCODESIZE GT ISZERO PUSH2 0x3F5B JUMPI PUSH2 0xC51 PUSH1 0x0 SWAP1 SLOAD SWAP1 PUSH2 0x100 EXP SWAP1 DIV PUSH20 0xFFFFFFFFFFFFFFFFFFFFFFFFFFFFFFFFFFFFFFFF AND PUSH20 0xFFFFFFFFFFFFFFFFFFFFFFFFFFFFFFFFFFFFFFFF AND PUSH4 0xB0E21E8A PUSH1 0x40 MLOAD DUP2 PUSH4 0xFFFFFFFF AND PUSH1 0xE0 SHL DUP2 MSTORE PUSH1 0x4 ADD PUSH1 0x20 PUSH1 0x40 MLOAD DUP1 DUP4 SUB DUP2 DUP7 GAS STATICCALL SWAP3 POP POP POP DUP1 ISZERO PUSH2 0x3E69 JUMPI POP PUSH1 0x40 MLOAD RETURNDATASIZE PUSH1 0x1F NOT PUSH1 0x1F DUP3 ADD AND DUP3 ADD DUP1 PUSH1 0x40 MSTORE POP DUP2 ADD SWAP1 PUSH2 0x3E66 SWAP2 SWAP1 PUSH2 0x6114 JUMP JUMPDEST PUSH1 0x1 JUMPDEST PUSH2 0x3EE3 JUMPI ADDRESS PUSH20 0xFFFFFFFFFFFFFFFFFFFFFFFFFFFFFFFFFFFFFFFF AND PUSH32 0x6B18946261693DFD6C760D986B28AD2238B5B0267F8E5B6BC40A2F998E2F20AC PUSH2 0xC51 PUSH1 0x0 SWAP1 SLOAD SWAP1 PUSH2 0x100 EXP SWAP1 DIV PUSH20 0xFFFFFFFFFFFFFFFFFFFFFFFFFFFFFFFFFFFFFFFF AND PUSH1 0x40 MLOAD PUSH2 0x3ED6 SWAP2 SWAP1 PUSH2 0x536D JUMP JUMPDEST PUSH1 0x40 MLOAD DUP1 SWAP2 SUB SWAP1 LOG2 PUSH2 0x3F5A JUMP JUMPDEST PUSH2 0x2710 DUP2 DUP5 PUSH2 0x3EF2 SWAP2 SWAP1 PUSH2 0x63DD JUMP JUMPDEST PUSH2 0x3EFC SWAP2 SWAP1 PUSH2 0x644E JUMP JUMPDEST SWAP2 POP PUSH1 0x0 DUP3 EQ PUSH2 0x3F58 JUMPI PUSH2 0x3F57 PUSH2 0x47F PUSH1 0x0 SWAP1 SLOAD SWAP1 PUSH2 0x100 EXP SWAP1 DIV PUSH20 0xFFFFFFFFFFFFFFFFFFFFFFFFFFFFFFFFFFFFFFFF AND PUSH2 0xC51 PUSH1 0x0 SWAP1 SLOAD SWAP1 PUSH2 0x100 EXP SWAP1 DIV PUSH20 0xFFFFFFFFFFFFFFFFFFFFFFFFFFFFFFFFFFFFFFFF AND DUP5 PUSH2 0x4803 JUMP JUMPDEST JUMPDEST POP JUMPDEST JUMPDEST POP POP JUMP JUMPDEST PUSH1 0x0 PUSH2 0x1431 SLOAD EQ PUSH2 0x4012 JUMPI PUSH2 0x3F9B PUSH2 0x47F PUSH1 0x0 SWAP1 SLOAD SWAP1 PUSH2 0x100 EXP SWAP1 DIV PUSH20 0xFFFFFFFFFFFFFFFFFFFFFFFFFFFFFFFFFFFFFFFF AND CALLER PUSH2 0x1431 SLOAD PUSH2 0x4803 JUMP JUMPDEST CALLER PUSH20 0xFFFFFFFFFFFFFFFFFFFFFFFFFFFFFFFFFFFFFFFF AND PUSH32 0x522A883B471164223F18B50F326DA8671372B64B4792EAC0E63D447E714C3E3B PUSH2 0x1431 SLOAD PUSH2 0x47F PUSH1 0x0 SWAP1 SLOAD SWAP1 PUSH2 0x100 EXP SWAP1 DIV PUSH20 0xFFFFFFFFFFFFFFFFFFFFFFFFFFFFFFFFFFFFFFFF AND PUSH1 0x40 MLOAD PUSH2 0x4009 SWAP3 SWAP2 SWAP1 PUSH2 0x69BF JUMP JUMPDEST PUSH1 0x40 MLOAD DUP1 SWAP2 SUB SWAP1 LOG2 JUMPDEST JUMP JUMPDEST PUSH1 0x0 PUSH20 0xFFFFFFFFFFFFFFFFFFFFFFFFFFFFFFFFFFFFFFFF AND DUP2 PUSH20 0xFFFFFFFFFFFFFFFFFFFFFFFFFFFFFFFFFFFFFFFF AND EQ PUSH2 0x416D JUMPI PUSH1 0x0 PUSH2 0x1435 PUSH1 0x0 DUP1 PUSH20 0xFFFFFFFFFFFFFFFFFFFFFFFFFFFFFFFFFFFFFFFF AND PUSH20 0xFFFFFFFFFFFFFFFFFFFFFFFFFFFFFFFFFFFFFFFF AND DUP2 MSTORE PUSH1 0x20 ADD SWAP1 DUP2 MSTORE PUSH1 0x20 ADD PUSH1 0x0 KECCAK256 SLOAD SWAP1 POP PUSH1 0x0 PUSH2 0x1435 PUSH1 0x0 DUP5 PUSH20 0xFFFFFFFFFFFFFFFFFFFFFFFFFFFFFFFFFFFFFFFF AND PUSH20 0xFFFFFFFFFFFFFFFFFFFFFFFFFFFFFFFFFFFFFFFF AND DUP2 MSTORE PUSH1 0x20 ADD SWAP1 DUP2 MSTORE PUSH1 0x20 ADD PUSH1 0x0 KECCAK256 SLOAD EQ PUSH2 0x4119 JUMPI PUSH2 0x1435 PUSH1 0x0 DUP4 PUSH20 0xFFFFFFFFFFFFFFFFFFFFFFFFFFFFFFFFFFFFFFFF AND PUSH20 0xFFFFFFFFFFFFFFFFFFFFFFFFFFFFFFFFFFFFFFFF AND DUP2 MSTORE PUSH1 0x20 ADD SWAP1 DUP2 MSTORE PUSH1 0x20 ADD PUSH1 0x0 KECCAK256 SLOAD SWAP1 POP JUMPDEST PUSH1 0x0 DUP2 EQ PUSH2 0x416B JUMPI PUSH2 0x416A PUSH2 0x47F PUSH1 0x0 SWAP1 SLOAD SWAP1 PUSH2 0x100 EXP SWAP1 DIV PUSH20 0xFFFFFFFFFFFFFFFFFFFFFFFFFFFFFFFFFFFFFFFF AND DUP4 PUSH2 0x2710 DUP5 PUSH2 0xC53 SLOAD PUSH2 0x415B SWAP2 SWAP1 PUSH2 0x63DD JUMP JUMPDEST PUSH2 0x4165 SWAP2 SWAP1 PUSH2 0x644E JUMP JUMPDEST PUSH2 0x4803 JUMP JUMPDEST JUMPDEST POP JUMPDEST POP JUMP JUMPDEST PUSH1 0x0 CALLER SWAP1 POP SWAP1 JUMP JUMPDEST PUSH2 0x4182 DUP3 DUP3 PUSH2 0x2893 JUMP JUMPDEST ISZERO PUSH2 0x4256 JUMPI PUSH1 0x0 PUSH1 0x65 PUSH1 0x0 DUP5 DUP2 MSTORE PUSH1 0x20 ADD SWAP1 DUP2 MSTORE PUSH1 0x20 ADD PUSH1 0x0 KECCAK256 PUSH1 0x0 ADD PUSH1 0x0 DUP4 PUSH20 0xFFFFFFFFFFFFFFFFFFFFFFFFFFFFFFFFFFFFFFFF AND PUSH20 0xFFFFFFFFFFFFFFFFFFFFFFFFFFFFFFFFFFFFFFFF AND DUP2 MSTORE PUSH1 0x20 ADD SWAP1 DUP2 MSTORE PUSH1 0x20 ADD PUSH1 0x0 KECCAK256 PUSH1 0x0 PUSH2 0x100 EXP DUP2 SLOAD DUP2 PUSH1 0xFF MUL NOT AND SWAP1 DUP4 ISZERO ISZERO MUL OR SWAP1 SSTORE POP PUSH2 0x41FB PUSH2 0x4170 JUMP JUMPDEST PUSH20 0xFFFFFFFFFFFFFFFFFFFFFFFFFFFFFFFFFFFFFFFF AND DUP2 PUSH20 0xFFFFFFFFFFFFFFFFFFFFFFFFFFFFFFFFFFFFFFFF AND DUP4 PUSH32 0xF6391F5C32D9C69D2A47EA670B442974B53935D1EDC7FD64EB21E047A839171B PUSH1 0x40 MLOAD PUSH1 0x40 MLOAD DUP1 SWAP2 SUB SWAP1 LOG4 JUMPDEST POP POP JUMP JUMPDEST TIMESTAMP PUSH2 0x1049 PUSH1 0x0 DUP4 DUP2 MSTORE PUSH1 0x20 ADD SWAP1 DUP2 MSTORE PUSH1 0x20 ADD PUSH1 0x0 KECCAK256 PUSH1 0x1 ADD DUP2 SWAP1 SSTORE POP POP JUMP JUMPDEST PUSH1 0x0 DUP1 DUP3 PUSH20 0xFFFFFFFFFFFFFFFFFFFFFFFFFFFFFFFFFFFFFFFF AND EXTCODESIZE GT SWAP1 POP SWAP2 SWAP1 POP JUMP JUMPDEST PUSH1 0x0 DUP1 PUSH2 0x1049 PUSH1 0x0 DUP6 DUP2 MSTORE PUSH1 0x20 ADD SWAP1 DUP2 MSTORE PUSH1 0x20 ADD PUSH1 0x0 KECCAK256 PUSH1 0x1 ADD SLOAD SWAP1 POP PUSH32 0xFFFFFFFFFFFFFFFFFFFFFFFFFFFFFFFFFFFFFFFFFFFFFFFFFFFFFFFFFFFFFFFF DUP2 SUB PUSH2 0x4312 JUMPI PUSH1 0x40 MLOAD PUSH32 0x1FDA338200000000000000000000000000000000000000000000000000000000 DUP2 MSTORE PUSH1 0x4 ADD PUSH1 0x40 MLOAD DUP1 SWAP2 SUB SWAP1 REVERT JUMPDEST PUSH1 0x0 DUP1 DUP5 EQ PUSH2 0x4321 JUMPI DUP4 PUSH2 0x4326 JUMP JUMPDEST PUSH2 0xC52 SLOAD JUMPDEST SWAP1 POP PUSH32 0xFFFFFFFFFFFFFFFFFFFFFFFFFFFFFFFFFFFFFFFFFFFFFFFFFFFFFFFFFFFFFFFF DUP2 SUB PUSH2 0x4377 JUMPI PUSH32 0xFFFFFFFFFFFFFFFFFFFFFFFFFFFFFFFFFFFFFFFFFFFFFFFFFFFFFFFFFFFFFFFF SWAP3 POP PUSH2 0x43A2 JUMP JUMPDEST TIMESTAMP DUP3 GT ISZERO PUSH2 0x4392 JUMPI DUP1 DUP3 PUSH2 0x438B SWAP2 SWAP1 PUSH2 0x6178 JUMP JUMPDEST SWAP3 POP PUSH2 0x43A1 JUMP JUMPDEST DUP1 TIMESTAMP PUSH2 0x439E SWAP2 SWAP1 PUSH2 0x6178 JUMP JUMPDEST SWAP3 POP JUMPDEST JUMPDEST DUP3 PUSH2 0x1049 PUSH1 0x0 DUP8 DUP2 MSTORE PUSH1 0x20 ADD SWAP1 DUP2 MSTORE PUSH1 0x20 ADD PUSH1 0x0 KECCAK256 PUSH1 0x1 ADD DUP2 SWAP1 SSTORE POP DUP5 PUSH32 0x3CA112768FF7861E008ACE1C11570C52E404C043E585545B5957A1E20961DDE3 DUP5 PUSH1 0x40 MLOAD PUSH2 0x43EE SWAP2 SWAP1 PUSH2 0x55B8 JUMP JUMPDEST PUSH1 0x40 MLOAD DUP1 SWAP2 SUB SWAP1 LOG2 PUSH1 0x0 PUSH20 0xFFFFFFFFFFFFFFFFFFFFFFFFFFFFFFFFFFFFFFFF AND PUSH2 0xC5E PUSH1 0x0 SWAP1 SLOAD SWAP1 PUSH2 0x100 EXP SWAP1 DIV PUSH20 0xFFFFFFFFFFFFFFFFFFFFFFFFFFFFFFFFFFFFFFFF AND PUSH20 0xFFFFFFFFFFFFFFFFFFFFFFFFFFFFFFFFFFFFFFFF AND EQ PUSH2 0x44E2 JUMPI PUSH2 0xC5E PUSH1 0x0 SWAP1 SLOAD SWAP1 PUSH2 0x100 EXP SWAP1 DIV PUSH20 0xFFFFFFFFFFFFFFFFFFFFFFFFFFFFFFFFFFFFFFFF AND PUSH20 0xFFFFFFFFFFFFFFFFFFFFFFFFFFFFFFFFFFFFFFFF AND PUSH4 0x16B9680 DUP7 CALLER DUP7 DUP7 PUSH1 0x40 MLOAD DUP6 PUSH4 0xFFFFFFFF AND PUSH1 0xE0 SHL DUP2 MSTORE PUSH1 0x4 ADD PUSH2 0x44AF SWAP5 SWAP4 SWAP3 SWAP2 SWAP1 PUSH2 0x6A1F JUMP JUMPDEST PUSH1 0x0 PUSH1 0x40 MLOAD DUP1 DUP4 SUB DUP2 PUSH1 0x0 DUP8 DUP1 EXTCODESIZE ISZERO DUP1 ISZERO PUSH2 0x44C9 JUMPI PUSH1 0x0 DUP1 REVERT JUMPDEST POP GAS CALL ISZERO DUP1 ISZERO PUSH2 0x44DD JUMPI RETURNDATASIZE PUSH1 0x0 DUP1 RETURNDATACOPY RETURNDATASIZE PUSH1 0x0 REVERT JUMPDEST POP POP POP POP JUMPDEST POP POP SWAP3 SWAP2 POP POP JUMP JUMPDEST PUSH1 0x0 PUSH20 0xFFFFFFFFFFFFFFFFFFFFFFFFFFFFFFFFFFFFFFFF AND DUP2 PUSH20 0xFFFFFFFFFFFFFFFFFFFFFFFFFFFFFFFFFFFFFFFF AND EQ ISZERO DUP1 ISZERO PUSH2 0x4595 JUMPI POP PUSH1 0x0 DUP2 PUSH20 0xFFFFFFFFFFFFFFFFFFFFFFFFFFFFFFFFFFFFFFFF AND PUSH4 0x18160DDD PUSH1 0x40 MLOAD DUP2 PUSH4 0xFFFFFFFF AND PUSH1 0xE0 SHL DUP2 MSTORE PUSH1 0x4 ADD PUSH1 0x20 PUSH1 0x40 MLOAD DUP1 DUP4 SUB DUP2 DUP7 GAS STATICCALL ISZERO DUP1 ISZERO PUSH2 0x456F JUMPI RETURNDATASIZE PUSH1 0x0 DUP1 RETURNDATACOPY RETURNDATASIZE PUSH1 0x0 REVERT JUMPDEST POP POP POP POP PUSH1 0x40 MLOAD RETURNDATASIZE PUSH1 0x1F NOT PUSH1 0x1F DUP3 ADD AND DUP3 ADD DUP1 PUSH1 0x40 MSTORE POP DUP2 ADD SWAP1 PUSH2 0x4593 SWAP2 SWAP1 PUSH2 0x6114 JUMP JUMPDEST LT JUMPDEST ISZERO PUSH2 0x45CC JUMPI PUSH1 0x40 MLOAD PUSH32 0xD0995CF200000000000000000000000000000000000000000000000000000000 DUP2 MSTORE PUSH1 0x4 ADD PUSH1 0x40 MLOAD DUP1 SWAP2 SUB SWAP1 REVERT JUMPDEST POP JUMP JUMPDEST PUSH1 0x0 DUP2 PUSH20 0xFFFFFFFFFFFFFFFFFFFFFFFFFFFFFFFFFFFFFFFF AND PUSH2 0x1046 PUSH1 0x0 DUP6 DUP2 MSTORE PUSH1 0x20 ADD SWAP1 DUP2 MSTORE PUSH1 0x20 ADD PUSH1 0x0 KECCAK256 PUSH1 0x0 SWAP1 SLOAD SWAP1 PUSH2 0x100 EXP SWAP1 DIV PUSH20 0xFFFFFFFFFFFFFFFFFFFFFFFFFFFFFFFFFFFFFFFF AND PUSH20 0xFFFFFFFFFFFFFFFFFFFFFFFFFFFFFFFFFFFFFFFF AND EQ DUP1 PUSH2 0x46DE JUMPI POP DUP2 PUSH20 0xFFFFFFFFFFFFFFFFFFFFFFFFFFFFFFFFFFFFFFFF AND PUSH2 0x465A DUP5 PUSH2 0x1DDA JUMP JUMPDEST PUSH20 0xFFFFFFFFFFFFFFFFFFFFFFFFFFFFFFFFFFFFFFFF AND EQ DUP1 ISZERO PUSH2 0x46DD JUMPI POP PUSH1 0x0 PUSH20 0xFFFFFFFFFFFFFFFFFFFFFFFFFFFFFFFFFFFFFFFF AND PUSH2 0x1046 PUSH1 0x0 DUP6 DUP2 MSTORE PUSH1 0x20 ADD SWAP1 DUP2 MSTORE PUSH1 0x20 ADD PUSH1 0x0 KECCAK256 PUSH1 0x0 SWAP1 SLOAD SWAP1 PUSH2 0x100 EXP SWAP1 DIV PUSH20 0xFFFFFFFFFFFFFFFFFFFFFFFFFFFFFFFFFFFFFFFF AND PUSH20 0xFFFFFFFFFFFFFFFFFFFFFFFFFFFFFFFFFFFFFFFF AND EQ JUMPDEST JUMPDEST ISZERO PUSH2 0x46EC JUMPI PUSH1 0x1 SWAP1 POP PUSH2 0x46F1 JUMP JUMPDEST PUSH1 0x0 SWAP1 POP JUMPDEST SWAP3 SWAP2 POP POP JUMP JUMPDEST DUP1 PUSH20 0xFFFFFFFFFFFFFFFFFFFFFFFFFFFFFFFFFFFFFFFF AND PUSH2 0x1046 PUSH1 0x0 DUP5 DUP2 MSTORE PUSH1 0x20 ADD SWAP1 DUP2 MSTORE PUSH1 0x20 ADD PUSH1 0x0 KECCAK256 PUSH1 0x0 SWAP1 SLOAD SWAP1 PUSH2 0x100 EXP SWAP1 DIV PUSH20 0xFFFFFFFFFFFFFFFFFFFFFFFFFFFFFFFFFFFFFFFF AND PUSH20 0xFFFFFFFFFFFFFFFFFFFFFFFFFFFFFFFFFFFFFFFF AND EQ PUSH2 0x47FF JUMPI DUP1 PUSH2 0x1046 PUSH1 0x0 DUP5 DUP2 MSTORE PUSH1 0x20 ADD SWAP1 DUP2 MSTORE PUSH1 0x20 ADD PUSH1 0x0 KECCAK256 PUSH1 0x0 PUSH2 0x100 EXP DUP2 SLOAD DUP2 PUSH20 0xFFFFFFFFFFFFFFFFFFFFFFFFFFFFFFFFFFFFFFFF MUL NOT AND SWAP1 DUP4 PUSH20 0xFFFFFFFFFFFFFFFFFFFFFFFFFFFFFFFFFFFFFFFF AND MUL OR SWAP1 SSTORE POP PUSH2 0x47BA DUP3 PUSH2 0x4A93 JUMP JUMPDEST DUP1 PUSH20 0xFFFFFFFFFFFFFFFFFFFFFFFFFFFFFFFFFFFFFFFF AND DUP3 PUSH32 0x9D2895C45A420624DE863A2F437B022D879F457BF7A829044055A10C5A6FD5E3 PUSH1 0x40 MLOAD PUSH1 0x40 MLOAD DUP1 SWAP2 SUB SWAP1 LOG3 JUMPDEST POP POP JUMP JUMPDEST PUSH1 0x0 DUP2 GT ISZERO PUSH2 0x48A1 JUMPI PUSH1 0x0 PUSH20 0xFFFFFFFFFFFFFFFFFFFFFFFFFFFFFFFFFFFFFFFF AND DUP4 PUSH20 0xFFFFFFFFFFFFFFFFFFFFFFFFFFFFFFFFFFFFFFFF AND SUB PUSH2 0x486E JUMPI PUSH2 0x4869 DUP2 DUP4 PUSH20 0xFFFFFFFFFFFFFFFFFFFFFFFFFFFFFFFFFFFFFFFF AND PUSH2 0x4B53 SWAP1 SWAP2 SWAP1 PUSH4 0xFFFFFFFF AND JUMP JUMPDEST PUSH2 0x48A0 JUMP JUMPDEST PUSH1 0x0 DUP4 SWAP1 POP PUSH2 0x489E DUP4 DUP4 DUP4 PUSH20 0xFFFFFFFFFFFFFFFFFFFFFFFFFFFFFFFFFFFFFFFF AND PUSH2 0x4C47 SWAP1 SWAP3 SWAP2 SWAP1 PUSH4 0xFFFFFFFF AND JUMP JUMPDEST POP JUMPDEST JUMPDEST POP POP POP JUMP JUMPDEST PUSH2 0x48B0 DUP3 DUP3 PUSH2 0x2893 JUMP JUMPDEST PUSH2 0x4927 JUMPI PUSH2 0x48BD DUP2 PUSH2 0x4CCD JUMP JUMPDEST PUSH2 0x48CB DUP4 PUSH1 0x0 SHR PUSH1 0x20 PUSH2 0x4CFA JUMP JUMPDEST PUSH1 0x40 MLOAD PUSH1 0x20 ADD PUSH2 0x48DC SWAP3 SWAP2 SWAP1 PUSH2 0x6B43 JUMP JUMPDEST PUSH1 0x40 MLOAD PUSH1 0x20 DUP2 DUP4 SUB SUB DUP2 MSTORE SWAP1 PUSH1 0x40 MSTORE PUSH1 0x40 MLOAD PUSH32 0x8C379A000000000000000000000000000000000000000000000000000000000 DUP2 MSTORE PUSH1 0x4 ADD PUSH2 0x491E SWAP2 SWAP1 PUSH2 0x6BB6 JUMP JUMPDEST PUSH1 0x40 MLOAD DUP1 SWAP2 SUB SWAP1 REVERT JUMPDEST POP POP JUMP JUMPDEST PUSH1 0x0 PUSH2 0x4936 DUP3 PUSH2 0x2633 JUMP JUMPDEST SWAP1 POP PUSH2 0xC5C SLOAD DUP2 LT PUSH2 0x4974 JUMPI PUSH1 0x40 MLOAD PUSH32 0x17ED864600000000000000000000000000000000000000000000000000000000 DUP2 MSTORE PUSH1 0x4 ADD PUSH1 0x40 MLOAD DUP1 SWAP2 SUB SWAP1 REVERT JUMPDEST DUP1 PUSH2 0x104B PUSH1 0x0 DUP6 DUP2 MSTORE PUSH1 0x20 ADD SWAP1 DUP2 MSTORE PUSH1 0x20 ADD PUSH1 0x0 KECCAK256 DUP2 SWAP1 SSTORE POP DUP3 PUSH2 0x104A PUSH1 0x0 DUP5 PUSH20 0xFFFFFFFFFFFFFFFFFFFFFFFFFFFFFFFFFFFFFFFF AND PUSH20 0xFFFFFFFFFFFFFFFFFFFFFFFFFFFFFFFFFFFFFFFF AND DUP2 MSTORE PUSH1 0x20 ADD SWAP1 DUP2 MSTORE PUSH1 0x20 ADD PUSH1 0x0 KECCAK256 PUSH1 0x0 DUP4 DUP2 MSTORE PUSH1 0x20 ADD SWAP1 DUP2 MSTORE PUSH1 0x20 ADD PUSH1 0x0 KECCAK256 DUP2 SWAP1 SSTORE POP DUP2 PUSH2 0x1044 PUSH1 0x0 DUP6 DUP2 MSTORE PUSH1 0x20 ADD SWAP1 DUP2 MSTORE PUSH1 0x20 ADD PUSH1 0x0 KECCAK256 PUSH1 0x0 PUSH2 0x100 EXP DUP2 SLOAD DUP2 PUSH20 0xFFFFFFFFFFFFFFFFFFFFFFFFFFFFFFFFFFFFFFFF MUL NOT AND SWAP1 DUP4 PUSH20 0xFFFFFFFFFFFFFFFFFFFFFFFFFFFFFFFFFFFFFFFF AND MUL OR SWAP1 SSTORE POP PUSH1 0x1 PUSH2 0x104C PUSH1 0x0 DUP5 PUSH20 0xFFFFFFFFFFFFFFFFFFFFFFFFFFFFFFFFFFFFFFFF AND PUSH20 0xFFFFFFFFFFFFFFFFFFFFFFFFFFFFFFFFFFFFFFFF AND DUP2 MSTORE PUSH1 0x20 ADD SWAP1 DUP2 MSTORE PUSH1 0x20 ADD PUSH1 0x0 KECCAK256 PUSH1 0x0 DUP3 DUP3 SLOAD PUSH2 0x4A87 SWAP2 SWAP1 PUSH2 0x6178 JUMP JUMPDEST SWAP3 POP POP DUP2 SWAP1 SSTORE POP POP POP POP JUMP JUMPDEST PUSH1 0x0 PUSH20 0xFFFFFFFFFFFFFFFFFFFFFFFFFFFFFFFFFFFFFFFF AND PUSH2 0x1047 PUSH1 0x0 DUP4 DUP2 MSTORE PUSH1 0x20 ADD SWAP1 DUP2 MSTORE PUSH1 0x20 ADD PUSH1 0x0 KECCAK256 PUSH1 0x0 SWAP1 SLOAD SWAP1 PUSH2 0x100 EXP SWAP1 DIV PUSH20 0xFFFFFFFFFFFFFFFFFFFFFFFFFFFFFFFFFFFFFFFF AND PUSH20 0xFFFFFFFFFFFFFFFFFFFFFFFFFFFFFFFFFFFFFFFF AND EQ PUSH2 0x4B50 JUMPI PUSH1 0x0 PUSH2 0x1047 PUSH1 0x0 DUP4 DUP2 MSTORE PUSH1 0x20 ADD SWAP1 DUP2 MSTORE PUSH1 0x20 ADD PUSH1 0x0 KECCAK256 PUSH1 0x0 PUSH2 0x100 EXP DUP2 SLOAD DUP2 PUSH20 0xFFFFFFFFFFFFFFFFFFFFFFFFFFFFFFFFFFFFFFFF MUL NOT AND SWAP1 DUP4 PUSH20 0xFFFFFFFFFFFFFFFFFFFFFFFFFFFFFFFFFFFFFFFF AND MUL OR SWAP1 SSTORE POP JUMPDEST POP JUMP JUMPDEST DUP1 SELFBALANCE LT ISZERO PUSH2 0x4B96 JUMPI PUSH1 0x40 MLOAD PUSH32 0x8C379A000000000000000000000000000000000000000000000000000000000 DUP2 MSTORE PUSH1 0x4 ADD PUSH2 0x4B8D SWAP1 PUSH2 0x6C24 JUMP JUMPDEST PUSH1 0x40 MLOAD DUP1 SWAP2 SUB SWAP1 REVERT JUMPDEST PUSH1 0x0 DUP3 PUSH20 0xFFFFFFFFFFFFFFFFFFFFFFFFFFFFFFFFFFFFFFFF AND DUP3 PUSH1 0x40 MLOAD PUSH2 0x4BBC SWAP1 PUSH2 0x6C75 JUMP JUMPDEST PUSH1 0x0 PUSH1 0x40 MLOAD DUP1 DUP4 SUB DUP2 DUP6 DUP8 GAS CALL SWAP3 POP POP POP RETURNDATASIZE DUP1 PUSH1 0x0 DUP2 EQ PUSH2 0x4BF9 JUMPI PUSH1 0x40 MLOAD SWAP2 POP PUSH1 0x1F NOT PUSH1 0x3F RETURNDATASIZE ADD AND DUP3 ADD PUSH1 0x40 MSTORE RETURNDATASIZE DUP3 MSTORE RETURNDATASIZE PUSH1 0x0 PUSH1 0x20 DUP5 ADD RETURNDATACOPY PUSH2 0x4BFE JUMP JUMPDEST PUSH1 0x60 SWAP2 POP JUMPDEST POP POP SWAP1 POP DUP1 PUSH2 0x4C42 JUMPI PUSH1 0x40 MLOAD PUSH32 0x8C379A000000000000000000000000000000000000000000000000000000000 DUP2 MSTORE PUSH1 0x4 ADD PUSH2 0x4C39 SWAP1 PUSH2 0x6CFC JUMP JUMPDEST PUSH1 0x40 MLOAD DUP1 SWAP2 SUB SWAP1 REVERT JUMPDEST POP POP POP JUMP JUMPDEST PUSH2 0x4CC8 DUP4 PUSH4 0xA9059CBB PUSH1 0xE0 SHL DUP5 DUP5 PUSH1 0x40 MLOAD PUSH1 0x24 ADD PUSH2 0x4C66 SWAP3 SWAP2 SWAP1 PUSH2 0x6D1C JUMP JUMPDEST PUSH1 0x40 MLOAD PUSH1 0x20 DUP2 DUP4 SUB SUB DUP2 MSTORE SWAP1 PUSH1 0x40 MSTORE SWAP1 PUSH28 0xFFFFFFFFFFFFFFFFFFFFFFFFFFFFFFFFFFFFFFFFFFFFFFFFFFFFFFFF NOT AND PUSH1 0x20 DUP3 ADD DUP1 MLOAD PUSH28 0xFFFFFFFFFFFFFFFFFFFFFFFFFFFFFFFFFFFFFFFFFFFFFFFFFFFFFFFF DUP4 DUP2 DUP4 AND OR DUP4 MSTORE POP POP POP POP PUSH2 0x4F36 JUMP JUMPDEST POP POP POP JUMP JUMPDEST PUSH1 0x60 PUSH2 0x4CF3 DUP3 PUSH20 0xFFFFFFFFFFFFFFFFFFFFFFFFFFFFFFFFFFFFFFFF AND PUSH1 0x14 PUSH1 0xFF AND PUSH2 0x4CFA JUMP JUMPDEST SWAP1 POP SWAP2 SWAP1 POP JUMP JUMPDEST PUSH1 0x60 PUSH1 0x0 PUSH1 0x2 DUP4 PUSH1 0x2 PUSH2 0x4D0D SWAP2 SWAP1 PUSH2 0x63DD JUMP JUMPDEST PUSH2 0x4D17 SWAP2 SWAP1 PUSH2 0x6178 JUMP JUMPDEST PUSH8 0xFFFFFFFFFFFFFFFF DUP2 GT ISZERO PUSH2 0x4D30 JUMPI PUSH2 0x4D2F PUSH2 0x540F JUMP JUMPDEST JUMPDEST PUSH1 0x40 MLOAD SWAP1 DUP1 DUP3 MSTORE DUP1 PUSH1 0x1F ADD PUSH1 0x1F NOT AND PUSH1 0x20 ADD DUP3 ADD PUSH1 0x40 MSTORE DUP1 ISZERO PUSH2 0x4D62 JUMPI DUP2 PUSH1 0x20 ADD PUSH1 0x1 DUP3 MUL DUP1 CALLDATASIZE DUP4 CALLDATACOPY DUP1 DUP3 ADD SWAP2 POP POP SWAP1 POP JUMPDEST POP SWAP1 POP PUSH32 0x3000000000000000000000000000000000000000000000000000000000000000 DUP2 PUSH1 0x0 DUP2 MLOAD DUP2 LT PUSH2 0x4D9A JUMPI PUSH2 0x4D99 PUSH2 0x61AC JUMP JUMPDEST JUMPDEST PUSH1 0x20 ADD ADD SWAP1 PUSH31 0xFFFFFFFFFFFFFFFFFFFFFFFFFFFFFFFFFFFFFFFFFFFFFFFFFFFFFFFFFFFFFF NOT AND SWAP1 DUP2 PUSH1 0x0 BYTE SWAP1 MSTORE8 POP PUSH32 0x7800000000000000000000000000000000000000000000000000000000000000 DUP2 PUSH1 0x1 DUP2 MLOAD DUP2 LT PUSH2 0x4DFE JUMPI PUSH2 0x4DFD PUSH2 0x61AC JUMP JUMPDEST JUMPDEST PUSH1 0x20 ADD ADD SWAP1 PUSH31 0xFFFFFFFFFFFFFFFFFFFFFFFFFFFFFFFFFFFFFFFFFFFFFFFFFFFFFFFFFFFFFF NOT AND SWAP1 DUP2 PUSH1 0x0 BYTE SWAP1 MSTORE8 POP PUSH1 0x0 PUSH1 0x1 DUP5 PUSH1 0x2 PUSH2 0x4E3E SWAP2 SWAP1 PUSH2 0x63DD JUMP JUMPDEST PUSH2 0x4E48 SWAP2 SWAP1 PUSH2 0x6178 JUMP JUMPDEST SWAP1 POP JUMPDEST PUSH1 0x1 DUP2 GT ISZERO PUSH2 0x4EE8 JUMPI PUSH32 0x3031323334353637383961626364656600000000000000000000000000000000 PUSH1 0xF DUP7 AND PUSH1 0x10 DUP2 LT PUSH2 0x4E8A JUMPI PUSH2 0x4E89 PUSH2 0x61AC JUMP JUMPDEST JUMPDEST BYTE PUSH1 0xF8 SHL DUP3 DUP3 DUP2 MLOAD DUP2 LT PUSH2 0x4EA1 JUMPI PUSH2 0x4EA0 PUSH2 0x61AC JUMP JUMPDEST JUMPDEST PUSH1 0x20 ADD ADD SWAP1 PUSH31 0xFFFFFFFFFFFFFFFFFFFFFFFFFFFFFFFFFFFFFFFFFFFFFFFFFFFFFFFFFFFFFF NOT AND SWAP1 DUP2 PUSH1 0x0 BYTE SWAP1 MSTORE8 POP PUSH1 0x4 DUP6 SWAP1 SHR SWAP5 POP DUP1 PUSH2 0x4EE1 SWAP1 PUSH2 0x6D45 JUMP JUMPDEST SWAP1 POP PUSH2 0x4E4B JUMP JUMPDEST POP PUSH1 0x0 DUP5 EQ PUSH2 0x4F2C JUMPI PUSH1 0x40 MLOAD PUSH32 0x8C379A000000000000000000000000000000000000000000000000000000000 DUP2 MSTORE PUSH1 0x4 ADD PUSH2 0x4F23 SWAP1 PUSH2 0x6DBA JUMP JUMPDEST PUSH1 0x40 MLOAD DUP1 SWAP2 SUB SWAP1 REVERT JUMPDEST DUP1 SWAP2 POP POP SWAP3 SWAP2 POP POP JUMP JUMPDEST PUSH1 0x0 PUSH2 0x4F98 DUP3 PUSH1 0x40 MLOAD DUP1 PUSH1 0x40 ADD PUSH1 0x40 MSTORE DUP1 PUSH1 0x20 DUP2 MSTORE PUSH1 0x20 ADD PUSH32 0x5361666545524332303A206C6F772D6C6576656C2063616C6C206661696C6564 DUP2 MSTORE POP DUP6 PUSH20 0xFFFFFFFFFFFFFFFFFFFFFFFFFFFFFFFFFFFFFFFF AND PUSH2 0x4FFD SWAP1 SWAP3 SWAP2 SWAP1 PUSH4 0xFFFFFFFF AND JUMP JUMPDEST SWAP1 POP PUSH1 0x0 DUP2 MLOAD GT ISZERO PUSH2 0x4FF8 JUMPI DUP1 DUP1 PUSH1 0x20 ADD SWAP1 MLOAD DUP2 ADD SWAP1 PUSH2 0x4FB8 SWAP2 SWAP1 PUSH2 0x6547 JUMP JUMPDEST PUSH2 0x4FF7 JUMPI PUSH1 0x40 MLOAD PUSH32 0x8C379A000000000000000000000000000000000000000000000000000000000 DUP2 MSTORE PUSH1 0x4 ADD PUSH2 0x4FEE SWAP1 PUSH2 0x6E4C JUMP JUMPDEST PUSH1 0x40 MLOAD DUP1 SWAP2 SUB SWAP1 REVERT JUMPDEST JUMPDEST POP POP POP JUMP JUMPDEST PUSH1 0x60 PUSH2 0x500C DUP5 DUP5 PUSH1 0x0 DUP6 PUSH2 0x5015 JUMP JUMPDEST SWAP1 POP SWAP4 SWAP3 POP POP POP JUMP JUMPDEST PUSH1 0x60 DUP3 SELFBALANCE LT ISZERO PUSH2 0x505A JUMPI PUSH1 0x40 MLOAD PUSH32 0x8C379A000000000000000000000000000000000000000000000000000000000 DUP2 MSTORE PUSH1 0x4 ADD PUSH2 0x5051 SWAP1 PUSH2 0x6EDE JUMP JUMPDEST PUSH1 0x40 MLOAD DUP1 SWAP2 SUB SWAP1 REVERT JUMPDEST PUSH1 0x0 DUP1 DUP7 PUSH20 0xFFFFFFFFFFFFFFFFFFFFFFFFFFFFFFFFFFFFFFFF AND DUP6 DUP8 PUSH1 0x40 MLOAD PUSH2 0x5083 SWAP2 SWAP1 PUSH2 0x6F2F JUMP JUMPDEST PUSH1 0x0 PUSH1 0x40 MLOAD DUP1 DUP4 SUB DUP2 DUP6 DUP8 GAS CALL SWAP3 POP POP POP RETURNDATASIZE DUP1 PUSH1 0x0 DUP2 EQ PUSH2 0x50C0 JUMPI PUSH1 0x40 MLOAD SWAP2 POP PUSH1 0x1F NOT PUSH1 0x3F RETURNDATASIZE ADD AND DUP3 ADD PUSH1 0x40 MSTORE RETURNDATASIZE DUP3 MSTORE RETURNDATASIZE PUSH1 0x0 PUSH1 0x20 DUP5 ADD RETURNDATACOPY PUSH2 0x50C5 JUMP JUMPDEST PUSH1 0x60 SWAP2 POP JUMPDEST POP SWAP2 POP SWAP2 POP PUSH2 0x50D6 DUP8 DUP4 DUP4 DUP8 PUSH2 0x50E2 JUMP JUMPDEST SWAP3 POP POP POP SWAP5 SWAP4 POP POP POP POP JUMP JUMPDEST PUSH1 0x60 DUP4 ISZERO PUSH2 0x5144 JUMPI PUSH1 0x0 DUP4 MLOAD SUB PUSH2 0x513C JUMPI PUSH2 0x50FC DUP6 PUSH2 0x4279 JUMP JUMPDEST PUSH2 0x513B JUMPI PUSH1 0x40 MLOAD PUSH32 0x8C379A000000000000000000000000000000000000000000000000000000000 DUP2 MSTORE PUSH1 0x4 ADD PUSH2 0x5132 SWAP1 PUSH2 0x6F92 JUMP JUMPDEST PUSH1 0x40 MLOAD DUP1 SWAP2 SUB SWAP1 REVERT JUMPDEST JUMPDEST DUP3 SWAP1 POP PUSH2 0x514F JUMP JUMPDEST PUSH2 0x514E DUP4 DUP4 PUSH2 0x5157 JUMP JUMPDEST JUMPDEST SWAP5 SWAP4 POP POP POP POP JUMP JUMPDEST PUSH1 0x0 DUP3 MLOAD GT ISZERO PUSH2 0x516A JUMPI DUP2 MLOAD DUP1 DUP4 PUSH1 0x20 ADD REVERT JUMPDEST DUP1 PUSH1 0x40 MLOAD PUSH32 0x8C379A000000000000000000000000000000000000000000000000000000000 DUP2 MSTORE PUSH1 0x4 ADD PUSH2 0x519E SWAP2 SWAP1 PUSH2 0x6BB6 JUMP JUMPDEST PUSH1 0x40 MLOAD DUP1 SWAP2 SUB SWAP1 REVERT JUMPDEST PUSH1 0x0 PUSH1 0x40 MLOAD SWAP1 POP SWAP1 JUMP JUMPDEST PUSH1 0x0 DUP1 REVERT JUMPDEST PUSH1 0x0 DUP1 REVERT JUMPDEST PUSH1 0x0 PUSH32 0xFFFFFFFF00000000000000000000000000000000000000000000000000000000 DUP3 AND SWAP1 POP SWAP2 SWAP1 POP JUMP JUMPDEST PUSH2 0x51F0 DUP2 PUSH2 0x51BB JUMP JUMPDEST DUP2 EQ PUSH2 0x51FB JUMPI PUSH1 0x0 DUP1 REVERT JUMPDEST POP JUMP JUMPDEST PUSH1 0x0 DUP2 CALLDATALOAD SWAP1 POP PUSH2 0x520D DUP2 PUSH2 0x51E7 JUMP JUMPDEST SWAP3 SWAP2 POP POP JUMP JUMPDEST PUSH1 0x0 PUSH1 0x20 DUP3 DUP5 SUB SLT ISZERO PUSH2 0x5229 JUMPI PUSH2 0x5228 PUSH2 0x51B1 JUMP JUMPDEST JUMPDEST PUSH1 0x0 PUSH2 0x5237 DUP5 DUP3 DUP6 ADD PUSH2 0x51FE JUMP JUMPDEST SWAP2 POP POP SWAP3 SWAP2 POP POP JUMP JUMPDEST PUSH1 0x0 DUP2 ISZERO ISZERO SWAP1 POP SWAP2 SWAP1 POP JUMP JUMPDEST PUSH2 0x5255 DUP2 PUSH2 0x5240 JUMP JUMPDEST DUP3 MSTORE POP POP JUMP JUMPDEST PUSH1 0x0 PUSH1 0x20 DUP3 ADD SWAP1 POP PUSH2 0x5270 PUSH1 0x0 DUP4 ADD DUP5 PUSH2 0x524C JUMP JUMPDEST SWAP3 SWAP2 POP POP JUMP JUMPDEST PUSH1 0x0 DUP2 SWAP1 POP SWAP2 SWAP1 POP JUMP JUMPDEST PUSH2 0x5289 DUP2 PUSH2 0x5276 JUMP JUMPDEST DUP2 EQ PUSH2 0x5294 JUMPI PUSH1 0x0 DUP1 REVERT JUMPDEST POP JUMP JUMPDEST PUSH1 0x0 DUP2 CALLDATALOAD SWAP1 POP PUSH2 0x52A6 DUP2 PUSH2 0x5280 JUMP JUMPDEST SWAP3 SWAP2 POP POP JUMP JUMPDEST PUSH1 0x0 DUP1 PUSH1 0x0 PUSH1 0x60 DUP5 DUP7 SUB SLT ISZERO PUSH2 0x52C5 JUMPI PUSH2 0x52C4 PUSH2 0x51B1 JUMP JUMPDEST JUMPDEST PUSH1 0x0 PUSH2 0x52D3 DUP7 DUP3 DUP8 ADD PUSH2 0x5297 JUMP JUMPDEST SWAP4 POP POP PUSH1 0x20 PUSH2 0x52E4 DUP7 DUP3 DUP8 ADD PUSH2 0x5297 JUMP JUMPDEST SWAP3 POP POP PUSH1 0x40 PUSH2 0x52F5 DUP7 DUP3 DUP8 ADD PUSH2 0x5297 JUMP JUMPDEST SWAP2 POP POP SWAP3 POP SWAP3 POP SWAP3 JUMP JUMPDEST PUSH1 0x0 PUSH1 0x20 DUP3 DUP5 SUB SLT ISZERO PUSH2 0x5315 JUMPI PUSH2 0x5314 PUSH2 0x51B1 JUMP JUMPDEST JUMPDEST PUSH1 0x0 PUSH2 0x5323 DUP5 DUP3 DUP6 ADD PUSH2 0x5297 JUMP JUMPDEST SWAP2 POP POP SWAP3 SWAP2 POP POP JUMP JUMPDEST PUSH1 0x0 PUSH20 0xFFFFFFFFFFFFFFFFFFFFFFFFFFFFFFFFFFFFFFFF DUP3 AND SWAP1 POP SWAP2 SWAP1 POP JUMP JUMPDEST PUSH1 0x0 PUSH2 0x5357 DUP3 PUSH2 0x532C JUMP JUMPDEST SWAP1 POP SWAP2 SWAP1 POP JUMP JUMPDEST PUSH2 0x5367 DUP2 PUSH2 0x534C JUMP JUMPDEST DUP3 MSTORE POP POP JUMP JUMPDEST PUSH1 0x0 PUSH1 0x20 DUP3 ADD SWAP1 POP PUSH2 0x5382 PUSH1 0x0 DUP4 ADD DUP5 PUSH2 0x535E JUMP JUMPDEST SWAP3 SWAP2 POP POP JUMP JUMPDEST PUSH2 0x5391 DUP2 PUSH2 0x534C JUMP JUMPDEST DUP2 EQ PUSH2 0x539C JUMPI PUSH1 0x0 DUP1 REVERT JUMPDEST POP JUMP JUMPDEST PUSH1 0x0 DUP2 CALLDATALOAD SWAP1 POP PUSH2 0x53AE DUP2 PUSH2 0x5388 JUMP JUMPDEST SWAP3 SWAP2 POP POP JUMP JUMPDEST PUSH1 0x0 DUP1 PUSH1 0x40 DUP4 DUP6 SUB SLT ISZERO PUSH2 0x53CB JUMPI PUSH2 0x53CA PUSH2 0x51B1 JUMP JUMPDEST JUMPDEST PUSH1 0x0 PUSH2 0x53D9 DUP6 DUP3 DUP7 ADD PUSH2 0x539F JUMP JUMPDEST SWAP3 POP POP PUSH1 0x20 PUSH2 0x53EA DUP6 DUP3 DUP7 ADD PUSH2 0x5297 JUMP JUMPDEST SWAP2 POP POP SWAP3 POP SWAP3 SWAP1 POP JUMP JUMPDEST PUSH1 0x0 DUP1 REVERT JUMPDEST PUSH1 0x0 DUP1 REVERT JUMPDEST PUSH1 0x0 PUSH1 0x1F NOT PUSH1 0x1F DUP4 ADD AND SWAP1 POP SWAP2 SWAP1 POP JUMP JUMPDEST PUSH32 0x4E487B7100000000000000000000000000000000000000000000000000000000 PUSH1 0x0 MSTORE PUSH1 0x41 PUSH1 0x4 MSTORE PUSH1 0x24 PUSH1 0x0 REVERT JUMPDEST PUSH2 0x5447 DUP3 PUSH2 0x53FE JUMP JUMPDEST DUP2 ADD DUP2 DUP2 LT PUSH8 0xFFFFFFFFFFFFFFFF DUP3 GT OR ISZERO PUSH2 0x5466 JUMPI PUSH2 0x5465 PUSH2 0x540F JUMP JUMPDEST JUMPDEST DUP1 PUSH1 0x40 MSTORE POP POP POP JUMP JUMPDEST PUSH1 0x0 PUSH2 0x5479 PUSH2 0x51A7 JUMP JUMPDEST SWAP1 POP PUSH2 0x5485 DUP3 DUP3 PUSH2 0x543E JUMP JUMPDEST SWAP2 SWAP1 POP JUMP JUMPDEST PUSH1 0x0 PUSH8 0xFFFFFFFFFFFFFFFF DUP3 GT ISZERO PUSH2 0x54A5 JUMPI PUSH2 0x54A4 PUSH2 0x540F JUMP JUMPDEST JUMPDEST PUSH2 0x54AE DUP3 PUSH2 0x53FE JUMP JUMPDEST SWAP1 POP PUSH1 0x20 DUP2 ADD SWAP1 POP SWAP2 SWAP1 POP JUMP JUMPDEST DUP3 DUP2 DUP4 CALLDATACOPY PUSH1 0x0 DUP4 DUP4 ADD MSTORE POP POP POP JUMP JUMPDEST PUSH1 0x0 PUSH2 0x54DD PUSH2 0x54D8 DUP5 PUSH2 0x548A JUMP JUMPDEST PUSH2 0x546F JUMP JUMPDEST SWAP1 POP DUP3 DUP2 MSTORE PUSH1 0x20 DUP2 ADD DUP5 DUP5 DUP5 ADD GT ISZERO PUSH2 0x54F9 JUMPI PUSH2 0x54F8 PUSH2 0x53F9 JUMP JUMPDEST JUMPDEST PUSH2 0x5504 DUP5 DUP3 DUP6 PUSH2 0x54BB JUMP JUMPDEST POP SWAP4 SWAP3 POP POP POP JUMP JUMPDEST PUSH1 0x0 DUP3 PUSH1 0x1F DUP4 ADD SLT PUSH2 0x5521 JUMPI PUSH2 0x5520 PUSH2 0x53F4 JUMP JUMPDEST JUMPDEST DUP2 CALLDATALOAD PUSH2 0x5531 DUP5 DUP3 PUSH1 0x20 DUP7 ADD PUSH2 0x54CA JUMP JUMPDEST SWAP2 POP POP SWAP3 SWAP2 POP POP JUMP JUMPDEST PUSH1 0x0 DUP1 PUSH1 0x0 PUSH1 0x60 DUP5 DUP7 SUB SLT ISZERO PUSH2 0x5553 JUMPI PUSH2 0x5552 PUSH2 0x51B1 JUMP JUMPDEST JUMPDEST PUSH1 0x0 PUSH2 0x5561 DUP7 DUP3 DUP8 ADD PUSH2 0x539F JUMP JUMPDEST SWAP4 POP POP PUSH1 0x20 PUSH2 0x5572 DUP7 DUP3 DUP8 ADD PUSH2 0x539F JUMP JUMPDEST SWAP3 POP POP PUSH1 0x40 DUP5 ADD CALLDATALOAD PUSH8 0xFFFFFFFFFFFFFFFF DUP2 GT ISZERO PUSH2 0x5593 JUMPI PUSH2 0x5592 PUSH2 0x51B6 JUMP JUMPDEST JUMPDEST PUSH2 0x559F DUP7 DUP3 DUP8 ADD PUSH2 0x550C JUMP JUMPDEST SWAP2 POP POP SWAP3 POP SWAP3 POP SWAP3 JUMP JUMPDEST PUSH2 0x55B2 DUP2 PUSH2 0x5276 JUMP JUMPDEST DUP3 MSTORE POP POP JUMP JUMPDEST PUSH1 0x0 PUSH1 0x20 DUP3 ADD SWAP1 POP PUSH2 0x55CD PUSH1 0x0 DUP4 ADD DUP5 PUSH2 0x55A9 JUMP JUMPDEST SWAP3 SWAP2 POP POP JUMP JUMPDEST PUSH1 0x0 DUP2 SWAP1 POP SWAP2 SWAP1 POP JUMP JUMPDEST PUSH1 0x0 PUSH2 0x55F8 PUSH2 0x55F3 PUSH2 0x55EE DUP5 PUSH2 0x532C JUMP JUMPDEST PUSH2 0x55D3 JUMP JUMPDEST PUSH2 0x532C JUMP JUMPDEST SWAP1 POP SWAP2 SWAP1 POP JUMP JUMPDEST PUSH1 0x0 PUSH2 0x560A DUP3 PUSH2 0x55DD JUMP JUMPDEST SWAP1 POP SWAP2 SWAP1 POP JUMP JUMPDEST PUSH1 0x0 PUSH2 0x561C DUP3 PUSH2 0x55FF JUMP JUMPDEST SWAP1 POP SWAP2 SWAP1 POP JUMP JUMPDEST PUSH2 0x562C DUP2 PUSH2 0x5611 JUMP JUMPDEST DUP3 MSTORE POP POP JUMP JUMPDEST PUSH1 0x0 PUSH1 0x20 DUP3 ADD SWAP1 POP PUSH2 0x5647 PUSH1 0x0 DUP4 ADD DUP5 PUSH2 0x5623 JUMP JUMPDEST SWAP3 SWAP2 POP POP JUMP JUMPDEST PUSH1 0x0 PUSH2 0x5658 DUP3 PUSH2 0x55FF JUMP JUMPDEST SWAP1 POP SWAP2 SWAP1 POP JUMP JUMPDEST PUSH2 0x5668 DUP2 PUSH2 0x564D JUMP JUMPDEST DUP3 MSTORE POP POP JUMP JUMPDEST PUSH1 0x0 PUSH1 0x20 DUP3 ADD SWAP1 POP PUSH2 0x5683 PUSH1 0x0 DUP4 ADD DUP5 PUSH2 0x565F JUMP JUMPDEST SWAP3 SWAP2 POP POP JUMP JUMPDEST PUSH1 0x0 DUP2 SWAP1 POP SWAP2 SWAP1 POP JUMP JUMPDEST PUSH2 0x569C DUP2 PUSH2 0x5689 JUMP JUMPDEST DUP2 EQ PUSH2 0x56A7 JUMPI PUSH1 0x0 DUP1 REVERT JUMPDEST POP JUMP JUMPDEST PUSH1 0x0 DUP2 CALLDATALOAD SWAP1 POP PUSH2 0x56B9 DUP2 PUSH2 0x5693 JUMP JUMPDEST SWAP3 SWAP2 POP POP JUMP JUMPDEST PUSH1 0x0 PUSH1 0x20 DUP3 DUP5 SUB SLT ISZERO PUSH2 0x56D5 JUMPI PUSH2 0x56D4 PUSH2 0x51B1 JUMP JUMPDEST JUMPDEST PUSH1 0x0 PUSH2 0x56E3 DUP5 DUP3 DUP6 ADD PUSH2 0x56AA JUMP JUMPDEST SWAP2 POP POP SWAP3 SWAP2 POP POP JUMP JUMPDEST PUSH2 0x56F5 DUP2 PUSH2 0x5689 JUMP JUMPDEST DUP3 MSTORE POP POP JUMP JUMPDEST PUSH1 0x0 PUSH1 0x20 DUP3 ADD SWAP1 POP PUSH2 0x5710 PUSH1 0x0 DUP4 ADD DUP5 PUSH2 0x56EC JUMP JUMPDEST SWAP3 SWAP2 POP POP JUMP JUMPDEST PUSH1 0x0 PUSH2 0x5721 DUP3 PUSH2 0x55FF JUMP JUMPDEST SWAP1 POP SWAP2 SWAP1 POP JUMP JUMPDEST PUSH2 0x5731 DUP2 PUSH2 0x5716 JUMP JUMPDEST DUP3 MSTORE POP POP JUMP JUMPDEST PUSH1 0x0 PUSH1 0x20 DUP3 ADD SWAP1 POP PUSH2 0x574C PUSH1 0x0 DUP4 ADD DUP5 PUSH2 0x5728 JUMP JUMPDEST SWAP3 SWAP2 POP POP JUMP JUMPDEST PUSH1 0x0 PUSH2 0x575D DUP3 PUSH2 0x55FF JUMP JUMPDEST SWAP1 POP SWAP2 SWAP1 POP JUMP JUMPDEST PUSH2 0x576D DUP2 PUSH2 0x5752 JUMP JUMPDEST DUP3 MSTORE POP POP JUMP JUMPDEST PUSH1 0x0 PUSH1 0x20 DUP3 ADD SWAP1 POP PUSH2 0x5788 PUSH1 0x0 DUP4 ADD DUP5 PUSH2 0x5764 JUMP JUMPDEST SWAP3 SWAP2 POP POP JUMP JUMPDEST PUSH1 0x0 DUP1 PUSH1 0x40 DUP4 DUP6 SUB SLT ISZERO PUSH2 0x57A5 JUMPI PUSH2 0x57A4 PUSH2 0x51B1 JUMP JUMPDEST JUMPDEST PUSH1 0x0 PUSH2 0x57B3 DUP6 DUP3 DUP7 ADD PUSH2 0x56AA JUMP JUMPDEST SWAP3 POP POP PUSH1 0x20 PUSH2 0x57C4 DUP6 DUP3 DUP7 ADD PUSH2 0x539F JUMP JUMPDEST SWAP2 POP POP SWAP3 POP SWAP3 SWAP1 POP JUMP JUMPDEST PUSH1 0x0 PUSH8 0xFFFFFFFFFFFFFFFF DUP3 GT ISZERO PUSH2 0x57E9 JUMPI PUSH2 0x57E8 PUSH2 0x540F JUMP JUMPDEST JUMPDEST PUSH1 0x20 DUP3 MUL SWAP1 POP PUSH1 0x20 DUP2 ADD SWAP1 POP SWAP2 SWAP1 POP JUMP JUMPDEST PUSH1 0x0 DUP1 REVERT JUMPDEST PUSH1 0x0 PUSH2 0x5812 PUSH2 0x580D DUP5 PUSH2 0x57CE JUMP JUMPDEST PUSH2 0x546F JUMP JUMPDEST SWAP1 POP DUP1 DUP4 DUP3 MSTORE PUSH1 0x20 DUP3 ADD SWAP1 POP PUSH1 0x20 DUP5 MUL DUP4 ADD DUP6 DUP2 GT ISZERO PUSH2 0x5835 JUMPI PUSH2 0x5834 PUSH2 0x57FA JUMP JUMPDEST JUMPDEST DUP4 JUMPDEST DUP2 DUP2 LT ISZERO PUSH2 0x585E JUMPI DUP1 PUSH2 0x584A DUP9 DUP3 PUSH2 0x5297 JUMP JUMPDEST DUP5 MSTORE PUSH1 0x20 DUP5 ADD SWAP4 POP POP PUSH1 0x20 DUP2 ADD SWAP1 POP PUSH2 0x5837 JUMP JUMPDEST POP POP POP SWAP4 SWAP3 POP POP POP JUMP JUMPDEST PUSH1 0x0 DUP3 PUSH1 0x1F DUP4 ADD SLT PUSH2 0x587D JUMPI PUSH2 0x587C PUSH2 0x53F4 JUMP JUMPDEST JUMPDEST DUP2 CALLDATALOAD PUSH2 0x588D DUP5 DUP3 PUSH1 0x20 DUP7 ADD PUSH2 0x57FF JUMP JUMPDEST SWAP2 POP POP SWAP3 SWAP2 POP POP JUMP JUMPDEST PUSH1 0x0 PUSH8 0xFFFFFFFFFFFFFFFF DUP3 GT ISZERO PUSH2 0x58B1 JUMPI PUSH2 0x58B0 PUSH2 0x540F JUMP JUMPDEST JUMPDEST PUSH1 0x20 DUP3 MUL SWAP1 POP PUSH1 0x20 DUP2 ADD SWAP1 POP SWAP2 SWAP1 POP JUMP JUMPDEST PUSH1 0x0 PUSH2 0x58D5 PUSH2 0x58D0 DUP5 PUSH2 0x5896 JUMP JUMPDEST PUSH2 0x546F JUMP JUMPDEST SWAP1 POP DUP1 DUP4 DUP3 MSTORE PUSH1 0x20 DUP3 ADD SWAP1 POP PUSH1 0x20 DUP5 MUL DUP4 ADD DUP6 DUP2 GT ISZERO PUSH2 0x58F8 JUMPI PUSH2 0x58F7 PUSH2 0x57FA JUMP JUMPDEST JUMPDEST DUP4 JUMPDEST DUP2 DUP2 LT ISZERO PUSH2 0x5921 JUMPI DUP1 PUSH2 0x590D DUP9 DUP3 PUSH2 0x539F JUMP JUMPDEST DUP5 MSTORE PUSH1 0x20 DUP5 ADD SWAP4 POP POP PUSH1 0x20 DUP2 ADD SWAP1 POP PUSH2 0x58FA JUMP JUMPDEST POP POP POP SWAP4 SWAP3 POP POP POP JUMP JUMPDEST PUSH1 0x0 DUP3 PUSH1 0x1F DUP4 ADD SLT PUSH2 0x5940 JUMPI PUSH2 0x593F PUSH2 0x53F4 JUMP JUMPDEST JUMPDEST DUP2 CALLDATALOAD PUSH2 0x5950 DUP5 DUP3 PUSH1 0x20 DUP7 ADD PUSH2 0x58C2 JUMP JUMPDEST SWAP2 POP POP SWAP3 SWAP2 POP POP JUMP JUMPDEST PUSH1 0x0 DUP1 REVERT JUMPDEST PUSH1 0x0 DUP1 DUP4 PUSH1 0x1F DUP5 ADD SLT PUSH2 0x5974 JUMPI PUSH2 0x5973 PUSH2 0x53F4 JUMP JUMPDEST JUMPDEST DUP3 CALLDATALOAD SWAP1 POP PUSH8 0xFFFFFFFFFFFFFFFF DUP2 GT ISZERO PUSH2 0x5991 JUMPI PUSH2 0x5990 PUSH2 0x5959 JUMP JUMPDEST JUMPDEST PUSH1 0x20 DUP4 ADD SWAP2 POP DUP4 PUSH1 0x20 DUP3 MUL DUP4 ADD GT ISZERO PUSH2 0x59AD JUMPI PUSH2 0x59AC PUSH2 0x57FA JUMP JUMPDEST JUMPDEST SWAP3 POP SWAP3 SWAP1 POP JUMP JUMPDEST PUSH1 0x0 DUP1 PUSH1 0x0 DUP1 PUSH1 0x0 DUP1 PUSH1 0xA0 DUP8 DUP10 SUB SLT ISZERO PUSH2 0x59D1 JUMPI PUSH2 0x59D0 PUSH2 0x51B1 JUMP JUMPDEST JUMPDEST PUSH1 0x0 DUP8 ADD CALLDATALOAD PUSH8 0xFFFFFFFFFFFFFFFF DUP2 GT ISZERO PUSH2 0x59EF JUMPI PUSH2 0x59EE PUSH2 0x51B6 JUMP JUMPDEST JUMPDEST PUSH2 0x59FB DUP10 DUP3 DUP11 ADD PUSH2 0x5868 JUMP JUMPDEST SWAP7 POP POP PUSH1 0x20 DUP8 ADD CALLDATALOAD PUSH8 0xFFFFFFFFFFFFFFFF DUP2 GT ISZERO PUSH2 0x5A1C JUMPI PUSH2 0x5A1B PUSH2 0x51B6 JUMP JUMPDEST JUMPDEST PUSH2 0x5A28 DUP10 DUP3 DUP11 ADD PUSH2 0x592B JUMP JUMPDEST SWAP6 POP POP PUSH1 0x40 DUP8 ADD CALLDATALOAD PUSH8 0xFFFFFFFFFFFFFFFF DUP2 GT ISZERO PUSH2 0x5A49 JUMPI PUSH2 0x5A48 PUSH2 0x51B6 JUMP JUMPDEST JUMPDEST PUSH2 0x5A55 DUP10 DUP3 DUP11 ADD PUSH2 0x592B JUMP JUMPDEST SWAP5 POP POP PUSH1 0x60 DUP8 ADD CALLDATALOAD PUSH8 0xFFFFFFFFFFFFFFFF DUP2 GT ISZERO PUSH2 0x5A76 JUMPI PUSH2 0x5A75 PUSH2 0x51B6 JUMP JUMPDEST JUMPDEST PUSH2 0x5A82 DUP10 DUP3 DUP11 ADD PUSH2 0x592B JUMP JUMPDEST SWAP4 POP POP PUSH1 0x80 DUP8 ADD CALLDATALOAD PUSH8 0xFFFFFFFFFFFFFFFF DUP2 GT ISZERO PUSH2 0x5AA3 JUMPI PUSH2 0x5AA2 PUSH2 0x51B6 JUMP JUMPDEST JUMPDEST PUSH2 0x5AAF DUP10 DUP3 DUP11 ADD PUSH2 0x595E JUMP JUMPDEST SWAP3 POP SWAP3 POP POP SWAP3 SWAP6 POP SWAP3 SWAP6 POP SWAP3 SWAP6 JUMP JUMPDEST PUSH1 0x0 DUP2 MLOAD SWAP1 POP SWAP2 SWAP1 POP JUMP JUMPDEST PUSH1 0x0 DUP3 DUP3 MSTORE PUSH1 0x20 DUP3 ADD SWAP1 POP SWAP3 SWAP2 POP POP JUMP JUMPDEST PUSH1 0x0 DUP2 SWAP1 POP PUSH1 0x20 DUP3 ADD SWAP1 POP SWAP2 SWAP1 POP JUMP JUMPDEST PUSH2 0x5AF3 DUP2 PUSH2 0x5276 JUMP JUMPDEST DUP3 MSTORE POP POP JUMP JUMPDEST PUSH1 0x0 PUSH2 0x5B05 DUP4 DUP4 PUSH2 0x5AEA JUMP JUMPDEST PUSH1 0x20 DUP4 ADD SWAP1 POP SWAP3 SWAP2 POP POP JUMP JUMPDEST PUSH1 0x0 PUSH1 0x20 DUP3 ADD SWAP1 POP SWAP2 SWAP1 POP JUMP JUMPDEST PUSH1 0x0 PUSH2 0x5B29 DUP3 PUSH2 0x5ABE JUMP JUMPDEST PUSH2 0x5B33 DUP2 DUP6 PUSH2 0x5AC9 JUMP JUMPDEST SWAP4 POP PUSH2 0x5B3E DUP4 PUSH2 0x5ADA JUMP JUMPDEST DUP1 PUSH1 0x0 JUMPDEST DUP4 DUP2 LT ISZERO PUSH2 0x5B6F JUMPI DUP2 MLOAD PUSH2 0x5B56 DUP9 DUP3 PUSH2 0x5AF9 JUMP JUMPDEST SWAP8 POP PUSH2 0x5B61 DUP4 PUSH2 0x5B11 JUMP JUMPDEST SWAP3 POP POP PUSH1 0x1 DUP2 ADD SWAP1 POP PUSH2 0x5B42 JUMP JUMPDEST POP DUP6 SWAP4 POP POP POP POP SWAP3 SWAP2 POP POP JUMP JUMPDEST PUSH1 0x0 PUSH1 0x20 DUP3 ADD SWAP1 POP DUP2 DUP2 SUB PUSH1 0x0 DUP4 ADD MSTORE PUSH2 0x5B96 DUP2 DUP5 PUSH2 0x5B1E JUMP JUMPDEST SWAP1 POP SWAP3 SWAP2 POP POP JUMP JUMPDEST PUSH1 0x0 PUSH2 0x5BA9 DUP3 PUSH2 0x55FF JUMP JUMPDEST SWAP1 POP SWAP2 SWAP1 POP JUMP JUMPDEST PUSH2 0x5BB9 DUP2 PUSH2 0x5B9E JUMP JUMPDEST DUP3 MSTORE POP POP JUMP JUMPDEST PUSH1 0x0 PUSH1 0x20 DUP3 ADD SWAP1 POP PUSH2 0x5BD4 PUSH1 0x0 DUP4 ADD DUP5 PUSH2 0x5BB0 JUMP JUMPDEST SWAP3 SWAP2 POP POP JUMP JUMPDEST PUSH1 0x0 DUP1 PUSH1 0x40 DUP4 DUP6 SUB SLT ISZERO PUSH2 0x5BF1 JUMPI PUSH2 0x5BF0 PUSH2 0x51B1 JUMP JUMPDEST JUMPDEST PUSH1 0x0 PUSH2 0x5BFF DUP6 DUP3 DUP7 ADD PUSH2 0x5297 JUMP JUMPDEST SWAP3 POP POP PUSH1 0x20 PUSH2 0x5C10 DUP6 DUP3 DUP7 ADD PUSH2 0x539F JUMP JUMPDEST SWAP2 POP POP SWAP3 POP SWAP3 SWAP1 POP JUMP JUMPDEST PUSH1 0x0 PUSH1 0x20 DUP3 DUP5 SUB SLT ISZERO PUSH2 0x5C30 JUMPI PUSH2 0x5C2F PUSH2 0x51B1 JUMP JUMPDEST JUMPDEST PUSH1 0x0 PUSH2 0x5C3E DUP5 DUP3 DUP6 ADD PUSH2 0x539F JUMP JUMPDEST SWAP2 POP POP SWAP3 SWAP2 POP POP JUMP JUMPDEST PUSH1 0x0 DUP1 PUSH1 0x0 DUP1 PUSH1 0x0 DUP1 PUSH1 0x0 PUSH1 0xE0 DUP9 DUP11 SUB SLT ISZERO PUSH2 0x5C66 JUMPI PUSH2 0x5C65 PUSH2 0x51B1 JUMP JUMPDEST JUMPDEST PUSH1 0x0 PUSH2 0x5C74 DUP11 DUP3 DUP12 ADD PUSH2 0x539F JUMP JUMPDEST SWAP8 POP POP PUSH1 0x20 PUSH2 0x5C85 DUP11 DUP3 DUP12 ADD PUSH2 0x539F JUMP JUMPDEST SWAP7 POP POP PUSH1 0x40 PUSH2 0x5C96 DUP11 DUP3 DUP12 ADD PUSH2 0x539F JUMP JUMPDEST SWAP6 POP POP PUSH1 0x60 PUSH2 0x5CA7 DUP11 DUP3 DUP12 ADD PUSH2 0x539F JUMP JUMPDEST SWAP5 POP POP PUSH1 0x80 PUSH2 0x5CB8 DUP11 DUP3 DUP12 ADD PUSH2 0x539F JUMP JUMPDEST SWAP4 POP POP PUSH1 0xA0 PUSH2 0x5CC9 DUP11 DUP3 DUP12 ADD PUSH2 0x539F JUMP JUMPDEST SWAP3 POP POP PUSH1 0xC0 PUSH2 0x5CDA DUP11 DUP3 DUP12 ADD PUSH2 0x539F JUMP JUMPDEST SWAP2 POP POP SWAP3 SWAP6 SWAP9 SWAP2 SWAP5 SWAP8 POP SWAP3 SWAP6 POP JUMP JUMPDEST PUSH1 0x0 PUSH2 0x5CF4 DUP3 PUSH2 0x55FF JUMP JUMPDEST SWAP1 POP SWAP2 SWAP1 POP JUMP JUMPDEST PUSH2 0x5D04 DUP2 PUSH2 0x5CE9 JUMP JUMPDEST DUP3 MSTORE POP POP JUMP JUMPDEST PUSH1 0x0 PUSH1 0x20 DUP3 ADD SWAP1 POP PUSH2 0x5D1F PUSH1 0x0 DUP4 ADD DUP5 PUSH2 0x5CFB JUMP JUMPDEST SWAP3 SWAP2 POP POP JUMP JUMPDEST PUSH1 0x0 DUP1 DUP4 PUSH1 0x1F DUP5 ADD SLT PUSH2 0x5D3B JUMPI PUSH2 0x5D3A PUSH2 0x53F4 JUMP JUMPDEST JUMPDEST DUP3 CALLDATALOAD SWAP1 POP PUSH8 0xFFFFFFFFFFFFFFFF DUP2 GT ISZERO PUSH2 0x5D58 JUMPI PUSH2 0x5D57 PUSH2 0x5959 JUMP JUMPDEST JUMPDEST PUSH1 0x20 DUP4 ADD SWAP2 POP DUP4 PUSH1 0x1 DUP3 MUL DUP4 ADD GT ISZERO PUSH2 0x5D74 JUMPI PUSH2 0x5D73 PUSH2 0x57FA JUMP JUMPDEST JUMPDEST SWAP3 POP SWAP3 SWAP1 POP JUMP JUMPDEST PUSH1 0x0 DUP1 PUSH1 0x20 DUP4 DUP6 SUB SLT ISZERO PUSH2 0x5D92 JUMPI PUSH2 0x5D91 PUSH2 0x51B1 JUMP JUMPDEST JUMPDEST PUSH1 0x0 DUP4 ADD CALLDATALOAD PUSH8 0xFFFFFFFFFFFFFFFF DUP2 GT ISZERO PUSH2 0x5DB0 JUMPI PUSH2 0x5DAF PUSH2 0x51B6 JUMP JUMPDEST JUMPDEST PUSH2 0x5DBC DUP6 DUP3 DUP7 ADD PUSH2 0x5D25 JUMP JUMPDEST SWAP3 POP SWAP3 POP POP SWAP3 POP SWAP3 SWAP1 POP JUMP JUMPDEST PUSH1 0x0 PUSH2 0x5DD3 DUP3 PUSH2 0x55FF JUMP JUMPDEST SWAP1 POP SWAP2 SWAP1 POP JUMP JUMPDEST PUSH2 0x5DE3 DUP2 PUSH2 0x5DC8 JUMP JUMPDEST DUP3 MSTORE POP POP JUMP JUMPDEST PUSH1 0x0 PUSH1 0x20 DUP3 ADD SWAP1 POP PUSH2 0x5DFE PUSH1 0x0 DUP4 ADD DUP5 PUSH2 0x5DDA JUMP JUMPDEST SWAP3 SWAP2 POP POP JUMP JUMPDEST PUSH1 0x0 PUSH2 0x5E0F DUP3 PUSH2 0x55FF JUMP JUMPDEST SWAP1 POP SWAP2 SWAP1 POP JUMP JUMPDEST PUSH2 0x5E1F DUP2 PUSH2 0x5E04 JUMP JUMPDEST DUP3 MSTORE POP POP JUMP JUMPDEST PUSH1 0x0 PUSH1 0x20 DUP3 ADD SWAP1 POP PUSH2 0x5E3A PUSH1 0x0 DUP4 ADD DUP5 PUSH2 0x5E16 JUMP JUMPDEST SWAP3 SWAP2 POP POP JUMP JUMPDEST PUSH1 0x0 PUSH2 0xFFFF DUP3 AND SWAP1 POP SWAP2 SWAP1 POP JUMP JUMPDEST PUSH2 0x5E57 DUP2 PUSH2 0x5E40 JUMP JUMPDEST DUP3 MSTORE POP POP JUMP JUMPDEST PUSH1 0x0 PUSH1 0x20 DUP3 ADD SWAP1 POP PUSH2 0x5E72 PUSH1 0x0 DUP4 ADD DUP5 PUSH2 0x5E4E JUMP JUMPDEST SWAP3 SWAP2 POP POP JUMP JUMPDEST PUSH1 0x0 DUP1 PUSH1 0x0 DUP1 PUSH1 0x0 PUSH1 0x80 DUP7 DUP9 SUB SLT ISZERO PUSH2 0x5E94 JUMPI PUSH2 0x5E93 PUSH2 0x51B1 JUMP JUMPDEST JUMPDEST PUSH1 0x0 PUSH2 0x5EA2 DUP9 DUP3 DUP10 ADD PUSH2 0x5297 JUMP JUMPDEST SWAP6 POP POP PUSH1 0x20 PUSH2 0x5EB3 DUP9 DUP3 DUP10 ADD PUSH2 0x5297 JUMP JUMPDEST SWAP5 POP POP PUSH1 0x40 PUSH2 0x5EC4 DUP9 DUP3 DUP10 ADD PUSH2 0x539F JUMP JUMPDEST SWAP4 POP POP PUSH1 0x60 DUP7 ADD CALLDATALOAD PUSH8 0xFFFFFFFFFFFFFFFF DUP2 GT ISZERO PUSH2 0x5EE5 JUMPI PUSH2 0x5EE4 PUSH2 0x51B6 JUMP JUMPDEST JUMPDEST PUSH2 0x5EF1 DUP9 DUP3 DUP10 ADD PUSH2 0x5D25 JUMP JUMPDEST SWAP3 POP SWAP3 POP POP SWAP3 SWAP6 POP SWAP3 SWAP6 SWAP1 SWAP4 POP JUMP JUMPDEST PUSH1 0x0 PUSH2 0x5F0B DUP3 PUSH2 0x532C JUMP JUMPDEST SWAP1 POP SWAP2 SWAP1 POP JUMP JUMPDEST PUSH2 0x5F1B DUP2 PUSH2 0x5F00 JUMP JUMPDEST DUP2 EQ PUSH2 0x5F26 JUMPI PUSH1 0x0 DUP1 REVERT JUMPDEST POP JUMP JUMPDEST PUSH1 0x0 DUP2 CALLDATALOAD SWAP1 POP PUSH2 0x5F38 DUP2 PUSH2 0x5F12 JUMP JUMPDEST SWAP3 SWAP2 POP POP JUMP JUMPDEST PUSH1 0x0 DUP1 PUSH1 0x0 PUSH1 0x60 DUP5 DUP7 SUB SLT ISZERO PUSH2 0x5F57 JUMPI PUSH2 0x5F56 PUSH2 0x51B1 JUMP JUMPDEST JUMPDEST PUSH1 0x0 PUSH2 0x5F65 DUP7 DUP3 DUP8 ADD PUSH2 0x539F JUMP JUMPDEST SWAP4 POP POP PUSH1 0x20 PUSH2 0x5F76 DUP7 DUP3 DUP8 ADD PUSH2 0x5F29 JUMP JUMPDEST SWAP3 POP POP PUSH1 0x40 PUSH2 0x5F87 DUP7 DUP3 DUP8 ADD PUSH2 0x5297 JUMP JUMPDEST SWAP2 POP POP SWAP3 POP SWAP3 POP SWAP3 JUMP JUMPDEST PUSH1 0x0 DUP1 PUSH1 0x40 DUP4 DUP6 SUB SLT ISZERO PUSH2 0x5FA8 JUMPI PUSH2 0x5FA7 PUSH2 0x51B1 JUMP JUMPDEST JUMPDEST PUSH1 0x0 PUSH2 0x5FB6 DUP6 DUP3 DUP7 ADD PUSH2 0x539F JUMP JUMPDEST SWAP3 POP POP PUSH1 0x20 PUSH2 0x5FC7 DUP6 DUP3 DUP7 ADD PUSH2 0x539F JUMP JUMPDEST SWAP2 POP POP SWAP3 POP SWAP3 SWAP1 POP JUMP JUMPDEST PUSH32 0x4E487B7100000000000000000000000000000000000000000000000000000000 PUSH1 0x0 MSTORE PUSH1 0x11 PUSH1 0x4 MSTORE PUSH1 0x24 PUSH1 0x0 REVERT JUMPDEST PUSH1 0x0 PUSH2 0x600B DUP3 PUSH2 0x5276 JUMP JUMPDEST SWAP2 POP PUSH2 0x6016 DUP4 PUSH2 0x5276 JUMP JUMPDEST SWAP3 POP DUP3 DUP3 SUB SWAP1 POP DUP2 DUP2 GT ISZERO PUSH2 0x602E JUMPI PUSH2 0x602D PUSH2 0x5FD1 JUMP JUMPDEST JUMPDEST SWAP3 SWAP2 POP POP JUMP JUMPDEST PUSH1 0x0 DUP2 MLOAD SWAP1 POP SWAP2 SWAP1 POP JUMP JUMPDEST PUSH1 0x0 DUP3 DUP3 MSTORE PUSH1 0x20 DUP3 ADD SWAP1 POP SWAP3 SWAP2 POP POP JUMP JUMPDEST PUSH1 0x0 JUMPDEST DUP4 DUP2 LT ISZERO PUSH2 0x606E JUMPI DUP1 DUP3 ADD MLOAD DUP2 DUP5 ADD MSTORE PUSH1 0x20 DUP2 ADD SWAP1 POP PUSH2 0x6053 JUMP JUMPDEST PUSH1 0x0 DUP5 DUP5 ADD MSTORE POP POP POP POP JUMP JUMPDEST PUSH1 0x0 PUSH2 0x6085 DUP3 PUSH2 0x6034 JUMP JUMPDEST PUSH2 0x608F DUP2 DUP6 PUSH2 0x603F JUMP JUMPDEST SWAP4 POP PUSH2 0x609F DUP2 DUP6 PUSH1 0x20 DUP7 ADD PUSH2 0x6050 JUMP JUMPDEST PUSH2 0x60A8 DUP2 PUSH2 0x53FE JUMP JUMPDEST DUP5 ADD SWAP2 POP POP SWAP3 SWAP2 POP POP JUMP JUMPDEST PUSH1 0x0 PUSH1 0x80 DUP3 ADD SWAP1 POP PUSH2 0x60C8 PUSH1 0x0 DUP4 ADD DUP8 PUSH2 0x535E JUMP JUMPDEST PUSH2 0x60D5 PUSH1 0x20 DUP4 ADD DUP7 PUSH2 0x535E JUMP JUMPDEST PUSH2 0x60E2 PUSH1 0x40 DUP4 ADD DUP6 PUSH2 0x535E JUMP JUMPDEST DUP2 DUP2 SUB PUSH1 0x60 DUP4 ADD MSTORE PUSH2 0x60F4 DUP2 DUP5 PUSH2 0x607A JUMP JUMPDEST SWAP1 POP SWAP6 SWAP5 POP POP POP POP POP JUMP JUMPDEST PUSH1 0x0 DUP2 MLOAD SWAP1 POP PUSH2 0x610E DUP2 PUSH2 0x5280 JUMP JUMPDEST SWAP3 SWAP2 POP POP JUMP JUMPDEST PUSH1 0x0 PUSH1 0x20 DUP3 DUP5 SUB SLT ISZERO PUSH2 0x612A JUMPI PUSH2 0x6129 PUSH2 0x51B1 JUMP JUMPDEST JUMPDEST PUSH1 0x0 PUSH2 0x6138 DUP5 DUP3 DUP6 ADD PUSH2 0x60FF JUMP JUMPDEST SWAP2 POP POP SWAP3 SWAP2 POP POP JUMP JUMPDEST PUSH1 0x0 PUSH1 0x60 DUP3 ADD SWAP1 POP PUSH2 0x6156 PUSH1 0x0 DUP4 ADD DUP7 PUSH2 0x55A9 JUMP JUMPDEST PUSH2 0x6163 PUSH1 0x20 DUP4 ADD DUP6 PUSH2 0x55A9 JUMP JUMPDEST PUSH2 0x6170 PUSH1 0x40 DUP4 ADD DUP5 PUSH2 0x55A9 JUMP JUMPDEST SWAP5 SWAP4 POP POP POP POP JUMP JUMPDEST PUSH1 0x0 PUSH2 0x6183 DUP3 PUSH2 0x5276 JUMP JUMPDEST SWAP2 POP PUSH2 0x618E DUP4 PUSH2 0x5276 JUMP JUMPDEST SWAP3 POP DUP3 DUP3 ADD SWAP1 POP DUP1 DUP3 GT ISZERO PUSH2 0x61A6 JUMPI PUSH2 0x61A5 PUSH2 0x5FD1 JUMP JUMPDEST JUMPDEST SWAP3 SWAP2 POP POP JUMP JUMPDEST PUSH32 0x4E487B7100000000000000000000000000000000000000000000000000000000 PUSH1 0x0 MSTORE PUSH1 0x32 PUSH1 0x4 MSTORE PUSH1 0x24 PUSH1 0x0 REVERT JUMPDEST PUSH1 0x0 DUP1 REVERT JUMPDEST PUSH1 0x0 DUP1 REVERT JUMPDEST PUSH1 0x0 DUP1 REVERT JUMPDEST PUSH1 0x0 DUP1 DUP4 CALLDATALOAD PUSH1 0x1 PUSH1 0x20 SUB DUP5 CALLDATASIZE SUB SUB DUP2 SLT PUSH2 0x6207 JUMPI PUSH2 0x6206 PUSH2 0x61DB JUMP JUMPDEST JUMPDEST DUP1 DUP5 ADD SWAP3 POP DUP3 CALLDATALOAD SWAP2 POP PUSH8 0xFFFFFFFFFFFFFFFF DUP3 GT ISZERO PUSH2 0x6229 JUMPI PUSH2 0x6228 PUSH2 0x61E0 JUMP JUMPDEST JUMPDEST PUSH1 0x20 DUP4 ADD SWAP3 POP PUSH1 0x1 DUP3 MUL CALLDATASIZE SUB DUP4 SGT ISZERO PUSH2 0x6245 JUMPI PUSH2 0x6244 PUSH2 0x61E5 JUMP JUMPDEST JUMPDEST POP SWAP3 POP SWAP3 SWAP1 POP JUMP JUMPDEST PUSH1 0x0 PUSH2 0x6259 DUP4 DUP6 PUSH2 0x603F JUMP JUMPDEST SWAP4 POP PUSH2 0x6266 DUP4 DUP6 DUP5 PUSH2 0x54BB JUMP JUMPDEST PUSH2 0x626F DUP4 PUSH2 0x53FE JUMP JUMPDEST DUP5 ADD SWAP1 POP SWAP4 SWAP3 POP POP POP JUMP JUMPDEST PUSH1 0x0 PUSH1 0xE0 DUP3 ADD SWAP1 POP PUSH2 0x628F PUSH1 0x0 DUP4 ADD DUP12 PUSH2 0x55A9 JUMP JUMPDEST PUSH2 0x629C PUSH1 0x20 DUP4 ADD DUP11 PUSH2 0x535E JUMP JUMPDEST PUSH2 0x62A9 PUSH1 0x40 DUP4 ADD DUP10 PUSH2 0x535E JUMP JUMPDEST PUSH2 0x62B6 PUSH1 0x60 DUP4 ADD DUP9 PUSH2 0x535E JUMP JUMPDEST DUP2 DUP2 SUB PUSH1 0x80 DUP4 ADD MSTORE PUSH2 0x62C9 DUP2 DUP7 DUP9 PUSH2 0x624D JUMP JUMPDEST SWAP1 POP PUSH2 0x62D8 PUSH1 0xA0 DUP4 ADD DUP6 PUSH2 0x55A9 JUMP JUMPDEST PUSH2 0x62E5 PUSH1 0xC0 DUP4 ADD DUP5 PUSH2 0x55A9 JUMP JUMPDEST SWAP10 SWAP9 POP POP POP POP POP POP POP POP POP JUMP JUMPDEST PUSH1 0x0 PUSH2 0x62FD DUP3 PUSH2 0x5276 JUMP JUMPDEST SWAP2 POP PUSH32 0xFFFFFFFFFFFFFFFFFFFFFFFFFFFFFFFFFFFFFFFFFFFFFFFFFFFFFFFFFFFFFFFF DUP3 SUB PUSH2 0x632F JUMPI PUSH2 0x632E PUSH2 0x5FD1 JUMP JUMPDEST JUMPDEST PUSH1 0x1 DUP3 ADD SWAP1 POP SWAP2 SWAP1 POP JUMP JUMPDEST PUSH1 0x0 DUP3 DUP3 MSTORE PUSH1 0x20 DUP3 ADD SWAP1 POP SWAP3 SWAP2 POP POP JUMP JUMPDEST PUSH32 0x416363657373436F6E74726F6C3A2063616E206F6E6C792072656E6F756E6365 PUSH1 0x0 DUP3 ADD MSTORE PUSH32 0x20726F6C657320666F722073656C660000000000000000000000000000000000 PUSH1 0x20 DUP3 ADD MSTORE POP JUMP JUMPDEST PUSH1 0x0 PUSH2 0x63A7 PUSH1 0x2F DUP4 PUSH2 0x633A JUMP JUMPDEST SWAP2 POP PUSH2 0x63B2 DUP3 PUSH2 0x634B JUMP JUMPDEST PUSH1 0x40 DUP3 ADD SWAP1 POP SWAP2 SWAP1 POP JUMP JUMPDEST PUSH1 0x0 PUSH1 0x20 DUP3 ADD SWAP1 POP DUP2 DUP2 SUB PUSH1 0x0 DUP4 ADD MSTORE PUSH2 0x63D6 DUP2 PUSH2 0x639A JUMP JUMPDEST SWAP1 POP SWAP2 SWAP1 POP JUMP JUMPDEST PUSH1 0x0 PUSH2 0x63E8 DUP3 PUSH2 0x5276 JUMP JUMPDEST SWAP2 POP PUSH2 0x63F3 DUP4 PUSH2 0x5276 JUMP JUMPDEST SWAP3 POP DUP3 DUP3 MUL PUSH2 0x6401 DUP2 PUSH2 0x5276 JUMP JUMPDEST SWAP2 POP DUP3 DUP3 DIV DUP5 EQ DUP4 ISZERO OR PUSH2 0x6418 JUMPI PUSH2 0x6417 PUSH2 0x5FD1 JUMP JUMPDEST JUMPDEST POP SWAP3 SWAP2 POP POP JUMP JUMPDEST PUSH32 0x4E487B7100000000000000000000000000000000000000000000000000000000 PUSH1 0x0 MSTORE PUSH1 0x12 PUSH1 0x4 MSTORE PUSH1 0x24 PUSH1 0x0 REVERT JUMPDEST PUSH1 0x0 PUSH2 0x6459 DUP3 PUSH2 0x5276 JUMP JUMPDEST SWAP2 POP PUSH2 0x6464 DUP4 PUSH2 0x5276 JUMP JUMPDEST SWAP3 POP DUP3 PUSH2 0x6474 JUMPI PUSH2 0x6473 PUSH2 0x641F JUMP JUMPDEST JUMPDEST DUP3 DUP3 DIV SWAP1 POP SWAP3 SWAP2 POP POP JUMP JUMPDEST PUSH1 0x0 DUP2 SWAP1 POP SWAP2 SWAP1 POP JUMP JUMPDEST PUSH1 0x0 PUSH2 0x64A4 PUSH2 0x649F PUSH2 0x649A DUP5 PUSH2 0x647F JUMP JUMPDEST PUSH2 0x55D3 JUMP JUMPDEST PUSH2 0x5276 JUMP JUMPDEST SWAP1 POP SWAP2 SWAP1 POP JUMP JUMPDEST PUSH2 0x64B4 DUP2 PUSH2 0x6489 JUMP JUMPDEST DUP3 MSTORE POP POP JUMP JUMPDEST PUSH1 0x0 PUSH1 0xC0 DUP3 ADD SWAP1 POP PUSH2 0x64CF PUSH1 0x0 DUP4 ADD DUP10 PUSH2 0x535E JUMP JUMPDEST PUSH2 0x64DC PUSH1 0x20 DUP4 ADD DUP9 PUSH2 0x535E JUMP JUMPDEST PUSH2 0x64E9 PUSH1 0x40 DUP4 ADD DUP8 PUSH2 0x64AB JUMP JUMPDEST PUSH2 0x64F6 PUSH1 0x60 DUP4 ADD DUP7 PUSH2 0x64AB JUMP JUMPDEST PUSH2 0x6503 PUSH1 0x80 DUP4 ADD DUP6 PUSH2 0x535E JUMP JUMPDEST PUSH2 0x6510 PUSH1 0xA0 DUP4 ADD DUP5 PUSH2 0x524C JUMP JUMPDEST SWAP8 SWAP7 POP POP POP POP POP POP POP JUMP JUMPDEST PUSH2 0x6524 DUP2 PUSH2 0x5240 JUMP JUMPDEST DUP2 EQ PUSH2 0x652F JUMPI PUSH1 0x0 DUP1 REVERT JUMPDEST POP JUMP JUMPDEST PUSH1 0x0 DUP2 MLOAD SWAP1 POP PUSH2 0x6541 DUP2 PUSH2 0x651B JUMP JUMPDEST SWAP3 SWAP2 POP POP JUMP JUMPDEST PUSH1 0x0 PUSH1 0x20 DUP3 DUP5 SUB SLT ISZERO PUSH2 0x655D JUMPI PUSH2 0x655C PUSH2 0x51B1 JUMP JUMPDEST JUMPDEST PUSH1 0x0 PUSH2 0x656B DUP5 DUP3 DUP6 ADD PUSH2 0x6532 JUMP JUMPDEST SWAP2 POP POP SWAP3 SWAP2 POP POP JUMP JUMPDEST PUSH1 0x0 PUSH1 0xFF DUP3 AND SWAP1 POP SWAP2 SWAP1 POP JUMP JUMPDEST PUSH1 0x0 PUSH2 0x659C PUSH2 0x6597 PUSH2 0x6592 DUP5 PUSH2 0x647F JUMP JUMPDEST PUSH2 0x55D3 JUMP JUMPDEST PUSH2 0x6574 JUMP JUMPDEST SWAP1 POP SWAP2 SWAP1 POP JUMP JUMPDEST PUSH2 0x65AC DUP2 PUSH2 0x6581 JUMP JUMPDEST DUP3 MSTORE POP POP JUMP JUMPDEST PUSH1 0x0 PUSH1 0x20 DUP3 ADD SWAP1 POP PUSH2 0x65C7 PUSH1 0x0 DUP4 ADD DUP5 PUSH2 0x65A3 JUMP JUMPDEST SWAP3 SWAP2 POP POP JUMP JUMPDEST PUSH1 0x0 DUP2 SWAP1 POP SWAP2 SWAP1 POP JUMP JUMPDEST PUSH1 0x0 PUSH2 0x65F2 PUSH2 0x65ED PUSH2 0x65E8 DUP5 PUSH2 0x65CD JUMP JUMPDEST PUSH2 0x55D3 JUMP JUMPDEST PUSH2 0x6574 JUMP JUMPDEST SWAP1 POP SWAP2 SWAP1 POP JUMP JUMPDEST PUSH2 0x6602 DUP2 PUSH2 0x65D7 JUMP JUMPDEST DUP3 MSTORE POP POP JUMP JUMPDEST PUSH1 0x0 PUSH1 0x20 DUP3 ADD SWAP1 POP PUSH2 0x661D PUSH1 0x0 DUP4 ADD DUP5 PUSH2 0x65F9 JUMP JUMPDEST SWAP3 SWAP2 POP POP JUMP JUMPDEST PUSH1 0x0 DUP2 SWAP1 POP SWAP2 SWAP1 POP JUMP JUMPDEST PUSH1 0x0 PUSH2 0x6648 PUSH2 0x6643 PUSH2 0x663E DUP5 PUSH2 0x6623 JUMP JUMPDEST PUSH2 0x55D3 JUMP JUMPDEST PUSH2 0x6574 JUMP JUMPDEST SWAP1 POP SWAP2 SWAP1 POP JUMP JUMPDEST PUSH2 0x6658 DUP2 PUSH2 0x662D JUMP JUMPDEST DUP3 MSTORE POP POP JUMP JUMPDEST PUSH1 0x0 PUSH1 0x20 DUP3 ADD SWAP1 POP PUSH2 0x6673 PUSH1 0x0 DUP4 ADD DUP5 PUSH2 0x664F JUMP JUMPDEST SWAP3 SWAP2 POP POP JUMP JUMPDEST PUSH1 0x0 DUP2 SWAP1 POP SWAP2 SWAP1 POP JUMP JUMPDEST PUSH1 0x0 PUSH2 0x669E PUSH2 0x6699 PUSH2 0x6694 DUP5 PUSH2 0x6679 JUMP JUMPDEST PUSH2 0x55D3 JUMP JUMPDEST PUSH2 0x6574 JUMP JUMPDEST SWAP1 POP SWAP2 SWAP1 POP JUMP JUMPDEST PUSH2 0x66AE DUP2 PUSH2 0x6683 JUMP JUMPDEST DUP3 MSTORE POP POP JUMP JUMPDEST PUSH1 0x0 PUSH1 0x20 DUP3 ADD SWAP1 POP PUSH2 0x66C9 PUSH1 0x0 DUP4 ADD DUP5 PUSH2 0x66A5 JUMP JUMPDEST SWAP3 SWAP2 POP POP JUMP JUMPDEST PUSH1 0x0 DUP2 SWAP1 POP SWAP2 SWAP1 POP JUMP JUMPDEST PUSH1 0x0 PUSH2 0x66F4 PUSH2 0x66EF PUSH2 0x66EA DUP5 PUSH2 0x66CF JUMP JUMPDEST PUSH2 0x55D3 JUMP JUMPDEST PUSH2 0x6574 JUMP JUMPDEST SWAP1 POP SWAP2 SWAP1 POP JUMP JUMPDEST PUSH2 0x6704 DUP2 PUSH2 0x66D9 JUMP JUMPDEST DUP3 MSTORE POP POP JUMP JUMPDEST PUSH1 0x0 PUSH1 0x20 DUP3 ADD SWAP1 POP PUSH2 0x671F PUSH1 0x0 DUP4 ADD DUP5 PUSH2 0x66FB JUMP JUMPDEST SWAP3 SWAP2 POP POP JUMP JUMPDEST PUSH1 0x0 DUP2 SWAP1 POP SWAP2 SWAP1 POP JUMP JUMPDEST PUSH1 0x0 PUSH2 0x674A PUSH2 0x6745 PUSH2 0x6740 DUP5 PUSH2 0x6725 JUMP JUMPDEST PUSH2 0x55D3 JUMP JUMPDEST PUSH2 0x6574 JUMP JUMPDEST SWAP1 POP SWAP2 SWAP1 POP JUMP JUMPDEST PUSH2 0x675A DUP2 PUSH2 0x672F JUMP JUMPDEST DUP3 MSTORE POP POP JUMP JUMPDEST PUSH1 0x0 PUSH1 0x20 DUP3 ADD SWAP1 POP PUSH2 0x6775 PUSH1 0x0 DUP4 ADD DUP5 PUSH2 0x6751 JUMP JUMPDEST SWAP3 SWAP2 POP POP JUMP JUMPDEST PUSH1 0x0 DUP2 SWAP1 POP SWAP2 SWAP1 POP JUMP JUMPDEST PUSH1 0x0 PUSH2 0x67A0 PUSH2 0x679B PUSH2 0x6796 DUP5 PUSH2 0x677B JUMP JUMPDEST PUSH2 0x55D3 JUMP JUMPDEST PUSH2 0x6574 JUMP JUMPDEST SWAP1 POP SWAP2 SWAP1 POP JUMP JUMPDEST PUSH2 0x67B0 DUP2 PUSH2 0x6785 JUMP JUMPDEST DUP3 MSTORE POP POP JUMP JUMPDEST PUSH1 0x0 PUSH1 0x20 DUP3 ADD SWAP1 POP PUSH2 0x67CB PUSH1 0x0 DUP4 ADD DUP5 PUSH2 0x67A7 JUMP JUMPDEST SWAP3 SWAP2 POP POP JUMP JUMPDEST PUSH1 0x0 PUSH1 0xE0 DUP3 ADD SWAP1 POP PUSH2 0x67E6 PUSH1 0x0 DUP4 ADD DUP11 PUSH2 0x535E JUMP JUMPDEST PUSH2 0x67F3 PUSH1 0x20 DUP4 ADD DUP10 PUSH2 0x535E JUMP JUMPDEST PUSH2 0x6800 PUSH1 0x40 DUP4 ADD DUP9 PUSH2 0x535E JUMP JUMPDEST PUSH2 0x680D PUSH1 0x60 DUP4 ADD DUP8 PUSH2 0x535E JUMP JUMPDEST PUSH2 0x681A PUSH1 0x80 DUP4 ADD DUP7 PUSH2 0x535E JUMP JUMPDEST PUSH2 0x6827 PUSH1 0xA0 DUP4 ADD DUP6 PUSH2 0x535E JUMP JUMPDEST PUSH2 0x6834 PUSH1 0xC0 DUP4 ADD DUP5 PUSH2 0x535E JUMP JUMPDEST SWAP9 SWAP8 POP POP POP POP POP POP POP POP JUMP JUMPDEST PUSH1 0x0 PUSH2 0x684B DUP3 PUSH2 0x5E40 JUMP JUMPDEST SWAP2 POP PUSH2 0x6856 DUP4 PUSH2 0x5E40 JUMP JUMPDEST SWAP3 POP DUP3 DUP3 SUB SWAP1 POP PUSH2 0xFFFF DUP2 GT ISZERO PUSH2 0x6870 JUMPI PUSH2 0x686F PUSH2 0x5FD1 JUMP JUMPDEST JUMPDEST SWAP3 SWAP2 POP POP JUMP JUMPDEST PUSH32 0x534348454D415F56455253494F4E5F4E4F545F434F5252454354000000000000 PUSH1 0x0 DUP3 ADD MSTORE POP JUMP JUMPDEST PUSH1 0x0 PUSH2 0x68AC PUSH1 0x1A DUP4 PUSH2 0x633A JUMP JUMPDEST SWAP2 POP PUSH2 0x68B7 DUP3 PUSH2 0x6876 JUMP JUMPDEST PUSH1 0x20 DUP3 ADD SWAP1 POP SWAP2 SWAP1 POP JUMP JUMPDEST PUSH1 0x0 PUSH1 0x20 DUP3 ADD SWAP1 POP DUP2 DUP2 SUB PUSH1 0x0 DUP4 ADD MSTORE PUSH2 0x68DB DUP2 PUSH2 0x689F JUMP JUMPDEST SWAP1 POP SWAP2 SWAP1 POP JUMP JUMPDEST PUSH1 0x0 PUSH1 0x80 DUP3 ADD SWAP1 POP PUSH2 0x68F7 PUSH1 0x0 DUP4 ADD DUP8 PUSH2 0x55A9 JUMP JUMPDEST PUSH2 0x6904 PUSH1 0x20 DUP4 ADD DUP7 PUSH2 0x55A9 JUMP JUMPDEST PUSH2 0x6911 PUSH1 0x40 DUP4 ADD DUP6 PUSH2 0x535E JUMP JUMPDEST PUSH2 0x691E PUSH1 0x60 DUP4 ADD DUP5 PUSH2 0x535E JUMP JUMPDEST SWAP6 SWAP5 POP POP POP POP POP JUMP JUMPDEST PUSH1 0x0 PUSH1 0xC0 DUP3 ADD SWAP1 POP PUSH2 0x693C PUSH1 0x0 DUP4 ADD DUP10 PUSH2 0x535E JUMP JUMPDEST PUSH2 0x6949 PUSH1 0x20 DUP4 ADD DUP9 PUSH2 0x535E JUMP JUMPDEST PUSH2 0x6956 PUSH1 0x40 DUP4 ADD DUP8 PUSH2 0x55A9 JUMP JUMPDEST PUSH2 0x6963 PUSH1 0x60 DUP4 ADD DUP7 PUSH2 0x55A9 JUMP JUMPDEST PUSH2 0x6970 PUSH1 0x80 DUP4 ADD DUP6 PUSH2 0x535E JUMP JUMPDEST PUSH2 0x697D PUSH1 0xA0 DUP4 ADD DUP5 PUSH2 0x524C JUMP JUMPDEST SWAP8 SWAP7 POP POP POP POP POP POP POP JUMP JUMPDEST PUSH1 0x0 PUSH1 0x60 DUP3 ADD SWAP1 POP PUSH2 0x699D PUSH1 0x0 DUP4 ADD DUP7 PUSH2 0x55A9 JUMP JUMPDEST PUSH2 0x69AA PUSH1 0x20 DUP4 ADD DUP6 PUSH2 0x55A9 JUMP JUMPDEST PUSH2 0x69B7 PUSH1 0x40 DUP4 ADD DUP5 PUSH2 0x524C JUMP JUMPDEST SWAP5 SWAP4 POP POP POP POP JUMP JUMPDEST PUSH1 0x0 PUSH1 0x40 DUP3 ADD SWAP1 POP PUSH2 0x69D4 PUSH1 0x0 DUP4 ADD DUP6 PUSH2 0x55A9 JUMP JUMPDEST PUSH2 0x69E1 PUSH1 0x20 DUP4 ADD DUP5 PUSH2 0x535E JUMP JUMPDEST SWAP4 SWAP3 POP POP POP JUMP JUMPDEST PUSH1 0x0 PUSH1 0x60 DUP3 ADD SWAP1 POP PUSH2 0x69FD PUSH1 0x0 DUP4 ADD DUP7 PUSH2 0x535E JUMP JUMPDEST PUSH2 0x6A0A PUSH1 0x20 DUP4 ADD DUP6 PUSH2 0x535E JUMP JUMPDEST PUSH2 0x6A17 PUSH1 0x40 DUP4 ADD DUP5 PUSH2 0x55A9 JUMP JUMPDEST SWAP5 SWAP4 POP POP POP POP JUMP JUMPDEST PUSH1 0x0 PUSH1 0x80 DUP3 ADD SWAP1 POP PUSH2 0x6A34 PUSH1 0x0 DUP4 ADD DUP8 PUSH2 0x55A9 JUMP JUMPDEST PUSH2 0x6A41 PUSH1 0x20 DUP4 ADD DUP7 PUSH2 0x535E JUMP JUMPDEST PUSH2 0x6A4E PUSH1 0x40 DUP4 ADD DUP6 PUSH2 0x55A9 JUMP JUMPDEST PUSH2 0x6A5B PUSH1 0x60 DUP4 ADD DUP5 PUSH2 0x55A9 JUMP JUMPDEST SWAP6 SWAP5 POP POP POP POP POP JUMP JUMPDEST PUSH1 0x0 DUP2 SWAP1 POP SWAP3 SWAP2 POP POP JUMP JUMPDEST PUSH32 0x416363657373436F6E74726F6C3A206163636F756E7420000000000000000000 PUSH1 0x0 DUP3 ADD MSTORE POP JUMP JUMPDEST PUSH1 0x0 PUSH2 0x6AA5 PUSH1 0x17 DUP4 PUSH2 0x6A64 JUMP JUMPDEST SWAP2 POP PUSH2 0x6AB0 DUP3 PUSH2 0x6A6F JUMP JUMPDEST PUSH1 0x17 DUP3 ADD SWAP1 POP SWAP2 SWAP1 POP JUMP JUMPDEST PUSH1 0x0 DUP2 MLOAD SWAP1 POP SWAP2 SWAP1 POP JUMP JUMPDEST PUSH1 0x0 PUSH2 0x6AD1 DUP3 PUSH2 0x6ABB JUMP JUMPDEST PUSH2 0x6ADB DUP2 DUP6 PUSH2 0x6A64 JUMP JUMPDEST SWAP4 POP PUSH2 0x6AEB DUP2 DUP6 PUSH1 0x20 DUP7 ADD PUSH2 0x6050 JUMP JUMPDEST DUP1 DUP5 ADD SWAP2 POP POP SWAP3 SWAP2 POP POP JUMP JUMPDEST PUSH32 0x206973206D697373696E6720726F6C6520000000000000000000000000000000 PUSH1 0x0 DUP3 ADD MSTORE POP JUMP JUMPDEST PUSH1 0x0 PUSH2 0x6B2D PUSH1 0x11 DUP4 PUSH2 0x6A64 JUMP JUMPDEST SWAP2 POP PUSH2 0x6B38 DUP3 PUSH2 0x6AF7 JUMP JUMPDEST PUSH1 0x11 DUP3 ADD SWAP1 POP SWAP2 SWAP1 POP JUMP JUMPDEST PUSH1 0x0 PUSH2 0x6B4E DUP3 PUSH2 0x6A98 JUMP JUMPDEST SWAP2 POP PUSH2 0x6B5A DUP3 DUP6 PUSH2 0x6AC6 JUMP JUMPDEST SWAP2 POP PUSH2 0x6B65 DUP3 PUSH2 0x6B20 JUMP JUMPDEST SWAP2 POP PUSH2 0x6B71 DUP3 DUP5 PUSH2 0x6AC6 JUMP JUMPDEST SWAP2 POP DUP2 SWAP1 POP SWAP4 SWAP3 POP POP POP JUMP JUMPDEST PUSH1 0x0 PUSH2 0x6B88 DUP3 PUSH2 0x6ABB JUMP JUMPDEST PUSH2 0x6B92 DUP2 DUP6 PUSH2 0x633A JUMP JUMPDEST SWAP4 POP PUSH2 0x6BA2 DUP2 DUP6 PUSH1 0x20 DUP7 ADD PUSH2 0x6050 JUMP JUMPDEST PUSH2 0x6BAB DUP2 PUSH2 0x53FE JUMP JUMPDEST DUP5 ADD SWAP2 POP POP SWAP3 SWAP2 POP POP JUMP JUMPDEST PUSH1 0x0 PUSH1 0x20 DUP3 ADD SWAP1 POP DUP2 DUP2 SUB PUSH1 0x0 DUP4 ADD MSTORE PUSH2 0x6BD0 DUP2 DUP5 PUSH2 0x6B7D JUMP JUMPDEST SWAP1 POP SWAP3 SWAP2 POP POP JUMP JUMPDEST PUSH32 0x416464726573733A20696E73756666696369656E742062616C616E6365000000 PUSH1 0x0 DUP3 ADD MSTORE POP JUMP JUMPDEST PUSH1 0x0 PUSH2 0x6C0E PUSH1 0x1D DUP4 PUSH2 0x633A JUMP JUMPDEST SWAP2 POP PUSH2 0x6C19 DUP3 PUSH2 0x6BD8 JUMP JUMPDEST PUSH1 0x20 DUP3 ADD SWAP1 POP SWAP2 SWAP1 POP JUMP JUMPDEST PUSH1 0x0 PUSH1 0x20 DUP3 ADD SWAP1 POP DUP2 DUP2 SUB PUSH1 0x0 DUP4 ADD MSTORE PUSH2 0x6C3D DUP2 PUSH2 0x6C01 JUMP JUMPDEST SWAP1 POP SWAP2 SWAP1 POP JUMP JUMPDEST PUSH1 0x0 DUP2 SWAP1 POP SWAP3 SWAP2 POP POP JUMP JUMPDEST POP JUMP JUMPDEST PUSH1 0x0 PUSH2 0x6C5F PUSH1 0x0 DUP4 PUSH2 0x6C44 JUMP JUMPDEST SWAP2 POP PUSH2 0x6C6A DUP3 PUSH2 0x6C4F JUMP JUMPDEST PUSH1 0x0 DUP3 ADD SWAP1 POP SWAP2 SWAP1 POP JUMP JUMPDEST PUSH1 0x0 PUSH2 0x6C80 DUP3 PUSH2 0x6C52 JUMP JUMPDEST SWAP2 POP DUP2 SWAP1 POP SWAP2 SWAP1 POP JUMP JUMPDEST PUSH32 0x416464726573733A20756E61626C6520746F2073656E642076616C75652C2072 PUSH1 0x0 DUP3 ADD MSTORE PUSH32 0x6563697069656E74206D61792068617665207265766572746564000000000000 PUSH1 0x20 DUP3 ADD MSTORE POP JUMP JUMPDEST PUSH1 0x0 PUSH2 0x6CE6 PUSH1 0x3A DUP4 PUSH2 0x633A JUMP JUMPDEST SWAP2 POP PUSH2 0x6CF1 DUP3 PUSH2 0x6C8A JUMP JUMPDEST PUSH1 0x40 DUP3 ADD SWAP1 POP SWAP2 SWAP1 POP JUMP JUMPDEST PUSH1 0x0 PUSH1 0x20 DUP3 ADD SWAP1 POP DUP2 DUP2 SUB PUSH1 0x0 DUP4 ADD MSTORE PUSH2 0x6D15 DUP2 PUSH2 0x6CD9 JUMP JUMPDEST SWAP1 POP SWAP2 SWAP1 POP JUMP JUMPDEST PUSH1 0x0 PUSH1 0x40 DUP3 ADD SWAP1 POP PUSH2 0x6D31 PUSH1 0x0 DUP4 ADD DUP6 PUSH2 0x535E JUMP JUMPDEST PUSH2 0x6D3E PUSH1 0x20 DUP4 ADD DUP5 PUSH2 0x55A9 JUMP JUMPDEST SWAP4 SWAP3 POP POP POP JUMP JUMPDEST PUSH1 0x0 PUSH2 0x6D50 DUP3 PUSH2 0x5276 JUMP JUMPDEST SWAP2 POP PUSH1 0x0 DUP3 SUB PUSH2 0x6D63 JUMPI PUSH2 0x6D62 PUSH2 0x5FD1 JUMP JUMPDEST JUMPDEST PUSH1 0x1 DUP3 SUB SWAP1 POP SWAP2 SWAP1 POP JUMP JUMPDEST PUSH32 0x537472696E67733A20686578206C656E67746820696E73756666696369656E74 PUSH1 0x0 DUP3 ADD MSTORE POP JUMP JUMPDEST PUSH1 0x0 PUSH2 0x6DA4 PUSH1 0x20 DUP4 PUSH2 0x633A JUMP JUMPDEST SWAP2 POP PUSH2 0x6DAF DUP3 PUSH2 0x6D6E JUMP JUMPDEST PUSH1 0x20 DUP3 ADD SWAP1 POP SWAP2 SWAP1 POP JUMP JUMPDEST PUSH1 0x0 PUSH1 0x20 DUP3 ADD SWAP1 POP DUP2 DUP2 SUB PUSH1 0x0 DUP4 ADD MSTORE PUSH2 0x6DD3 DUP2 PUSH2 0x6D97 JUMP JUMPDEST SWAP1 POP SWAP2 SWAP1 POP JUMP JUMPDEST PUSH32 0x5361666545524332303A204552433230206F7065726174696F6E20646964206E PUSH1 0x0 DUP3 ADD MSTORE PUSH32 0x6F74207375636365656400000000000000000000000000000000000000000000 PUSH1 0x20 DUP3 ADD MSTORE POP JUMP JUMPDEST PUSH1 0x0 PUSH2 0x6E36 PUSH1 0x2A DUP4 PUSH2 0x633A JUMP JUMPDEST SWAP2 POP PUSH2 0x6E41 DUP3 PUSH2 0x6DDA JUMP JUMPDEST PUSH1 0x40 DUP3 ADD SWAP1 POP SWAP2 SWAP1 POP JUMP JUMPDEST PUSH1 0x0 PUSH1 0x20 DUP3 ADD SWAP1 POP DUP2 DUP2 SUB PUSH1 0x0 DUP4 ADD MSTORE PUSH2 0x6E65 DUP2 PUSH2 0x6E29 JUMP JUMPDEST SWAP1 POP SWAP2 SWAP1 POP JUMP JUMPDEST PUSH32 0x416464726573733A20696E73756666696369656E742062616C616E636520666F PUSH1 0x0 DUP3 ADD MSTORE PUSH32 0x722063616C6C0000000000000000000000000000000000000000000000000000 PUSH1 0x20 DUP3 ADD MSTORE POP JUMP JUMPDEST PUSH1 0x0 PUSH2 0x6EC8 PUSH1 0x26 DUP4 PUSH2 0x633A JUMP JUMPDEST SWAP2 POP PUSH2 0x6ED3 DUP3 PUSH2 0x6E6C JUMP JUMPDEST PUSH1 0x40 DUP3 ADD SWAP1 POP SWAP2 SWAP1 POP JUMP JUMPDEST PUSH1 0x0 PUSH1 0x20 DUP3 ADD SWAP1 POP DUP2 DUP2 SUB PUSH1 0x0 DUP4 ADD MSTORE PUSH2 0x6EF7 DUP2 PUSH2 0x6EBB JUMP JUMPDEST SWAP1 POP SWAP2 SWAP1 POP JUMP JUMPDEST PUSH1 0x0 PUSH2 0x6F09 DUP3 PUSH2 0x6034 JUMP JUMPDEST PUSH2 0x6F13 DUP2 DUP6 PUSH2 0x6C44 JUMP JUMPDEST SWAP4 POP PUSH2 0x6F23 DUP2 DUP6 PUSH1 0x20 DUP7 ADD PUSH2 0x6050 JUMP JUMPDEST DUP1 DUP5 ADD SWAP2 POP POP SWAP3 SWAP2 POP POP JUMP JUMPDEST PUSH1 0x0 PUSH2 0x6F3B DUP3 DUP5 PUSH2 0x6EFE JUMP JUMPDEST SWAP2 POP DUP2 SWAP1 POP SWAP3 SWAP2 POP POP JUMP JUMPDEST PUSH32 0x416464726573733A2063616C6C20746F206E6F6E2D636F6E7472616374000000 PUSH1 0x0 DUP3 ADD MSTORE POP JUMP JUMPDEST PUSH1 0x0 PUSH2 0x6F7C PUSH1 0x1D DUP4 PUSH2 0x633A JUMP JUMPDEST SWAP2 POP PUSH2 0x6F87 DUP3 PUSH2 0x6F46 JUMP JUMPDEST PUSH1 0x20 DUP3 ADD SWAP1 POP SWAP2 SWAP1 POP JUMP JUMPDEST PUSH1 0x0 PUSH1 0x20 DUP3 ADD SWAP1 POP DUP2 DUP2 SUB PUSH1 0x0 DUP4 ADD MSTORE PUSH2 0x6FAB DUP2 PUSH2 0x6F6F JUMP JUMPDEST SWAP1 POP SWAP2 SWAP1 POP JUMP INVALID LOG2 PUSH5 0x6970667358 0x22 SLT KECCAK256 SWAP7 0xC1 PREVRANDAO 0xB5 PUSH17 0x476FDF25F784CBB62FA8E43E9E3C2ED055 DUP1 SWAP7 0x4C KECCAK256 0x27 0xDB MULMOD 0xE 0xF8 0xDC PUSH5 0x736F6C6343 STOP ADDMOD SLT STOP CALLER "
		},
		"gasEstimates": {
			"creation": {
				"codeDepositCost": "5729600",
				"executionCost": "6995",
				"totalCost": "5736595"
			},
			"external": {
				"DEFAULT_ADMIN_ROLE()": "447",
				"addLockManager(address)": "infinite",
				"approve(address,uint256)": "43084",
				"balanceOf(address)": "infinite",
				"burn(uint256)": "67333",
				"expirationDuration()": "2498",
				"extend(uint256,uint256,address,bytes)": "infinite",
				"gasRefundValue()": "2504",
				"getApproved(uint256)": "5228",
				"getHasValidKey(address)": "infinite",
				"getRoleAdmin(bytes32)": "infinite",
				"grantRole(bytes32,address)": "infinite",
				"hasRole(bytes32,address)": "3274",
				"isApprovedForAll(address,address)": "infinite",
				"isLockManager(address)": "3126",
				"isRenewable(uint256,address)": "infinite",
				"isValidKey(uint256)": "infinite",
				"keyExpirationTimestampFor(uint256)": "infinite",
				"keyManagerOf(uint256)": "2973",
				"keyPrice()": "2564",
				"maxKeysPerAddress()": "2548",
				"maxNumberOfKeys()": "2498",
				"mergeKeys(uint256,uint256,uint256)": "infinite",
				"migrate(bytes)": "infinite",
				"numberOfOwners()": "2497",
				"onKeyCancelHook()": "infinite",
				"onKeyExtendHook()": "infinite",
				"onKeyGrantHook()": "infinite",
				"onKeyPurchaseHook()": "infinite",
				"onKeyTransferHook()": "infinite",
				"onTokenURIHook()": "infinite",
				"onValidKeyHook()": "infinite",
				"ownerOf(uint256)": "2954",
				"publicLockVersion()": "410",
				"purchase(uint256[],address[],address[],address[],bytes[])": "infinite",
				"purchasePriceFor(address,address,bytes)": "infinite",
				"referrerFees(address)": "2904",
				"renewMembershipFor(uint256,address)": "infinite",
				"renounceLockManager()": "infinite",
				"renounceRole(bytes32,address)": "infinite",
				"revokeRole(bytes32,address)": "infinite",
				"schemaVersion()": "2497",
				"setEventHooks(address,address,address,address,address,address,address)": "infinite",
				"setGasRefundValue(uint256)": "infinite",
				"setKeyManagerOf(uint256,address)": "64694",
				"setReferrerFee(address,uint256)": "infinite",
				"supportsInterface(bytes4)": "797",
				"tokenAddress()": "2604",
				"tokenOfOwnerByIndex(address,uint256)": "infinite",
				"totalKeys(address)": "2944",
				"totalSupply()": "2528",
				"unlockProtocol()": "infinite",
				"updateKeyPricing(uint256,address)": "infinite",
				"updateLockConfig(uint256,uint256,uint256)": "infinite",
				"updateSchemaVersion()": "24807",
				"withdraw(address,address,uint256)": "infinite"
			},
			"internal": {
				"_checkValue(uint256,uint256)": "infinite",
				"_payProtocol(uint256)": "infinite",
				"_payReferrer(address)": "infinite",
				"_recordKeyPurchase(uint256,address)": "infinite",
				"_recordTokenTerms(uint256,uint256)": "83871",
				"_refundGas()": "infinite",
				"_transferValue(address,uint256)": "infinite"
			}
		},
		"methodIdentifiers": {
			"DEFAULT_ADMIN_ROLE()": "a217fddf",
			"addLockManager(address)": "d2503485",
			"approve(address,uint256)": "095ea7b3",
			"balanceOf(address)": "70a08231",
			"burn(uint256)": "42966c68",
			"expirationDuration()": "11a4c03a",
			"extend(uint256,uint256,address,bytes)": "d813cc19",
			"gasRefundValue()": "6207a8da",
			"getApproved(uint256)": "081812fc",
			"getHasValidKey(address)": "6d8ea5b4",
			"getRoleAdmin(bytes32)": "248a9ca3",
			"grantRole(bytes32,address)": "2f2ff15d",
			"hasRole(bytes32,address)": "91d14854",
			"isApprovedForAll(address,address)": "e985e9c5",
			"isLockManager(address)": "aae4b8f7",
			"isRenewable(uint256,address)": "50878a47",
			"isValidKey(uint256)": "a98d3623",
			"keyExpirationTimestampFor(uint256)": "54b249fb",
			"keyManagerOf(uint256)": "4d025fed",
			"keyPrice()": "10e56973",
			"maxKeysPerAddress()": "d52e4a10",
			"maxNumberOfKeys()": "74b6c106",
			"mergeKeys(uint256,uint256,uint256)": "068208cd",
			"migrate(bytes)": "8932a90d",
			"numberOfOwners()": "93fd1844",
			"onKeyCancelHook()": "217751bc",
			"onKeyExtendHook()": "c907c3ec",
			"onKeyGrantHook()": "b129694e",
			"onKeyPurchaseHook()": "2d33dd5b",
			"onKeyTransferHook()": "389f07e8",
			"onTokenURIHook()": "7ec2a724",
			"onValidKeyHook()": "26e9ca07",
			"ownerOf(uint256)": "6352211e",
			"publicLockVersion()": "d1bbd49c",
			"purchase(uint256[],address[],address[],address[],bytes[])": "33818997",
			"purchasePriceFor(address,address,bytes)": "097ba333",
			"referrerFees(address)": "c23135dd",
			"renewMembershipFor(uint256,address)": "8505fe95",
			"renounceLockManager()": "f0ba6040",
			"renounceRole(bytes32,address)": "36568abe",
			"revokeRole(bytes32,address)": "d547741f",
			"schemaVersion()": "4e2ce6d3",
			"setEventHooks(address,address,address,address,address,address,address)": "74cac47d",
			"setGasRefundValue(uint256)": "f5766b39",
			"setKeyManagerOf(uint256,address)": "b11d7ec1",
			"setReferrerFee(address,uint256)": "debe2b0d",
			"supportsInterface(bytes4)": "01ffc9a7",
			"tokenAddress()": "9d76ea58",
			"tokenOfOwnerByIndex(address,uint256)": "2f745c59",
			"totalKeys(address)": "812eecd4",
			"totalSupply()": "18160ddd",
			"unlockProtocol()": "0f15023b",
			"updateKeyPricing(uint256,address)": "a2e4cd2e",
			"updateLockConfig(uint256,uint256,uint256)": "282478df",
			"updateSchemaVersion()": "f32e8b24",
			"withdraw(address,address,uint256)": "d9caed12"
		}
	},
	"abi": [
		{
			"inputs": [],
			"name": "CANNOT_APPROVE_SELF",
			"type": "error"
		},
		{
			"inputs": [],
			"name": "CANT_BE_SMALLER_THAN_SUPPLY",
			"type": "error"
		},
		{
			"inputs": [],
			"name": "CANT_EXTEND_NON_EXPIRING_KEY",
			"type": "error"
		},
		{
			"inputs": [],
			"name": "GAS_REFUND_FAILED",
			"type": "error"
		},
		{
			"inputs": [],
			"name": "INSUFFICIENT_ERC20_VALUE",
			"type": "error"
		},
		{
			"inputs": [],
			"name": "INSUFFICIENT_VALUE",
			"type": "error"
		},
		{
			"inputs": [],
			"name": "INVALID_ADDRESS",
			"type": "error"
		},
		{
			"inputs": [
				{
					"internalType": "uint8",
					"name": "hookIndex",
					"type": "uint8"
				}
			],
			"name": "INVALID_HOOK",
			"type": "error"
		},
		{
			"inputs": [],
			"name": "INVALID_LENGTH",
			"type": "error"
		},
		{
			"inputs": [],
			"name": "INVALID_TOKEN",
			"type": "error"
		},
		{
			"inputs": [],
			"name": "KEY_NOT_VALID",
			"type": "error"
		},
		{
			"inputs": [],
			"name": "KEY_TRANSFERS_DISABLED",
			"type": "error"
		},
		{
			"inputs": [],
			"name": "LOCK_HAS_CHANGED",
			"type": "error"
		},
		{
			"inputs": [],
			"name": "LOCK_SOLD_OUT",
			"type": "error"
		},
		{
			"inputs": [],
			"name": "MAX_KEYS_REACHED",
			"type": "error"
		},
		{
			"inputs": [],
			"name": "MIGRATION_REQUIRED",
			"type": "error"
		},
		{
			"inputs": [],
			"name": "NON_COMPLIANT_ERC721_RECEIVER",
			"type": "error"
		},
		{
			"inputs": [],
			"name": "NON_RENEWABLE_LOCK",
			"type": "error"
		},
		{
			"inputs": [],
			"name": "NOT_ENOUGH_FUNDS",
			"type": "error"
		},
		{
			"inputs": [],
			"name": "NOT_ENOUGH_TIME",
			"type": "error"
		},
		{
			"inputs": [],
			"name": "NOT_READY_FOR_RENEWAL",
			"type": "error"
		},
		{
			"inputs": [],
			"name": "NO_SUCH_KEY",
			"type": "error"
		},
		{
			"inputs": [],
			"name": "NULL_VALUE",
			"type": "error"
		},
		{
			"inputs": [],
			"name": "ONLY_KEY_MANAGER_OR_APPROVED",
			"type": "error"
		},
		{
			"inputs": [],
			"name": "ONLY_LOCK_MANAGER",
			"type": "error"
		},
		{
			"inputs": [],
			"name": "ONLY_LOCK_MANAGER_OR_KEY_GRANTER",
			"type": "error"
		},
		{
			"inputs": [],
			"name": "OUT_OF_RANGE",
			"type": "error"
		},
		{
			"inputs": [],
			"name": "OWNER_CANT_BE_ADDRESS_ZERO",
			"type": "error"
		},
		{
			"inputs": [],
			"name": "SCHEMA_VERSION_NOT_CORRECT",
			"type": "error"
		},
		{
			"inputs": [],
			"name": "TRANSFER_TO_SELF",
			"type": "error"
		},
		{
			"inputs": [],
			"name": "TransferFailed",
			"type": "error"
		},
		{
			"inputs": [],
			"name": "UNAUTHORIZED",
			"type": "error"
		},
		{
			"inputs": [],
			"name": "UNAUTHORIZED_KEY_MANAGER_UPDATE",
			"type": "error"
		},
		{
			"anonymous": false,
			"inputs": [
				{
					"indexed": true,
					"internalType": "address",
					"name": "owner",
					"type": "address"
				},
				{
					"indexed": true,
					"internalType": "address",
					"name": "approved",
					"type": "address"
				},
				{
					"indexed": true,
					"internalType": "uint256",
					"name": "tokenId",
					"type": "uint256"
				}
			],
			"name": "Approval",
			"type": "event"
		},
		{
			"anonymous": false,
			"inputs": [
				{
					"indexed": true,
					"internalType": "address",
					"name": "owner",
					"type": "address"
				},
				{
					"indexed": true,
					"internalType": "address",
					"name": "operator",
					"type": "address"
				},
				{
					"indexed": false,
					"internalType": "bool",
					"name": "approved",
					"type": "bool"
				}
			],
			"name": "ApprovalForAll",
			"type": "event"
		},
		{
			"anonymous": false,
			"inputs": [
				{
					"indexed": false,
					"internalType": "address",
					"name": "onKeyPurchaseHook",
					"type": "address"
				},
				{
					"indexed": false,
					"internalType": "address",
					"name": "onKeyCancelHook",
					"type": "address"
				},
				{
					"indexed": false,
					"internalType": "address",
					"name": "onValidKeyHook",
					"type": "address"
				},
				{
					"indexed": false,
					"internalType": "address",
					"name": "onTokenURIHook",
					"type": "address"
				},
				{
					"indexed": false,
					"internalType": "address",
					"name": "onKeyTransferHook",
					"type": "address"
				},
				{
					"indexed": false,
					"internalType": "address",
					"name": "onKeyExtendHook",
					"type": "address"
				},
				{
					"indexed": false,
					"internalType": "address",
					"name": "onKeyGrantHook",
					"type": "address"
				}
			],
			"name": "EventHooksUpdated",
			"type": "event"
		},
		{
			"anonymous": false,
			"inputs": [
				{
					"indexed": true,
					"internalType": "uint256",
					"name": "tokenId",
					"type": "uint256"
				},
				{
					"indexed": false,
					"internalType": "uint256",
					"name": "newExpiration",
					"type": "uint256"
				},
				{
					"indexed": false,
					"internalType": "uint256",
					"name": "amount",
					"type": "uint256"
				},
				{
					"indexed": false,
					"internalType": "bool",
					"name": "timeAdded",
					"type": "bool"
				}
			],
			"name": "ExpirationChanged",
			"type": "event"
		},
		{
			"anonymous": false,
			"inputs": [
				{
					"indexed": true,
					"internalType": "uint256",
					"name": "tokenId",
					"type": "uint256"
				}
			],
			"name": "ExpireKey",
			"type": "event"
		},
		{
			"anonymous": false,
			"inputs": [
				{
					"indexed": false,
					"internalType": "uint256",
					"name": "refundValue",
					"type": "uint256"
				}
			],
			"name": "GasRefundValueChanged",
			"type": "event"
		},
		{
			"anonymous": false,
			"inputs": [
				{
					"indexed": true,
					"internalType": "address",
					"name": "receiver",
					"type": "address"
				},
				{
					"indexed": false,
					"internalType": "uint256",
					"name": "refundedAmount",
					"type": "uint256"
				},
				{
					"indexed": false,
					"internalType": "address",
					"name": "tokenAddress",
					"type": "address"
				}
			],
			"name": "GasRefunded",
			"type": "event"
		},
		{
			"anonymous": false,
			"inputs": [
				{
					"indexed": false,
					"internalType": "uint8",
					"name": "version",
					"type": "uint8"
				}
			],
			"name": "Initialized",
			"type": "event"
		},
		{
			"anonymous": false,
			"inputs": [
				{
					"indexed": true,
					"internalType": "uint256",
					"name": "tokenId",
					"type": "uint256"
				},
				{
					"indexed": false,
					"internalType": "uint256",
					"name": "newTimestamp",
					"type": "uint256"
				}
			],
			"name": "KeyExtended",
			"type": "event"
		},
		{
			"anonymous": false,
			"inputs": [
				{
					"indexed": true,
					"internalType": "address",
					"name": "account",
					"type": "address"
				}
			],
			"name": "KeyGranterAdded",
			"type": "event"
		},
		{
			"anonymous": false,
			"inputs": [
				{
					"indexed": true,
					"internalType": "address",
					"name": "account",
					"type": "address"
				}
			],
			"name": "KeyGranterRemoved",
			"type": "event"
		},
		{
			"anonymous": false,
			"inputs": [
				{
					"indexed": true,
					"internalType": "uint256",
					"name": "_tokenId",
					"type": "uint256"
				},
				{
					"indexed": true,
					"internalType": "address",
					"name": "_newManager",
					"type": "address"
				}
			],
			"name": "KeyManagerChanged",
			"type": "event"
		},
		{
			"anonymous": false,
			"inputs": [
				{
					"indexed": false,
					"internalType": "uint256",
					"name": "updatedRecordsCount",
					"type": "uint256"
				}
			],
			"name": "KeysMigrated",
			"type": "event"
		},
		{
			"anonymous": false,
			"inputs": [
				{
					"indexed": false,
					"internalType": "uint256",
					"name": "expirationDuration",
					"type": "uint256"
				},
				{
					"indexed": false,
					"internalType": "uint256",
					"name": "maxNumberOfKeys",
					"type": "uint256"
				},
				{
					"indexed": false,
					"internalType": "uint256",
					"name": "maxKeysPerAcccount",
					"type": "uint256"
				}
			],
			"name": "LockConfig",
			"type": "event"
		},
		{
			"anonymous": false,
			"inputs": [
				{
					"indexed": true,
					"internalType": "address",
					"name": "account",
					"type": "address"
				}
			],
			"name": "LockManagerAdded",
			"type": "event"
		},
		{
			"anonymous": false,
			"inputs": [
				{
					"indexed": true,
					"internalType": "address",
					"name": "account",
					"type": "address"
				}
			],
			"name": "LockManagerRemoved",
			"type": "event"
		},
		{
			"anonymous": false,
			"inputs": [
				{
					"indexed": false,
					"internalType": "uint256",
					"name": "oldKeyPrice",
					"type": "uint256"
				},
				{
					"indexed": false,
					"internalType": "uint256",
					"name": "keyPrice",
					"type": "uint256"
				},
				{
					"indexed": false,
					"internalType": "address",
					"name": "oldTokenAddress",
					"type": "address"
				},
				{
					"indexed": false,
					"internalType": "address",
					"name": "tokenAddress",
					"type": "address"
				}
			],
			"name": "PricingChanged",
			"type": "event"
		},
		{
			"anonymous": false,
			"inputs": [
				{
					"indexed": true,
					"internalType": "address",
					"name": "referrer",
					"type": "address"
				},
				{
					"indexed": false,
					"internalType": "uint256",
					"name": "fee",
					"type": "uint256"
				}
			],
			"name": "ReferrerFee",
			"type": "event"
		},
		{
			"anonymous": false,
			"inputs": [
				{
					"indexed": true,
					"internalType": "bytes32",
					"name": "role",
					"type": "bytes32"
				},
				{
					"indexed": true,
					"internalType": "bytes32",
					"name": "previousAdminRole",
					"type": "bytes32"
				},
				{
					"indexed": true,
					"internalType": "bytes32",
					"name": "newAdminRole",
					"type": "bytes32"
				}
			],
			"name": "RoleAdminChanged",
			"type": "event"
		},
		{
			"anonymous": false,
			"inputs": [
				{
					"indexed": true,
					"internalType": "bytes32",
					"name": "role",
					"type": "bytes32"
				},
				{
					"indexed": true,
					"internalType": "address",
					"name": "account",
					"type": "address"
				},
				{
					"indexed": true,
					"internalType": "address",
					"name": "sender",
					"type": "address"
				}
			],
			"name": "RoleGranted",
			"type": "event"
		},
		{
			"anonymous": false,
			"inputs": [
				{
					"indexed": true,
					"internalType": "bytes32",
					"name": "role",
					"type": "bytes32"
				},
				{
					"indexed": true,
					"internalType": "address",
					"name": "account",
					"type": "address"
				},
				{
					"indexed": true,
					"internalType": "address",
					"name": "sender",
					"type": "address"
				}
			],
			"name": "RoleRevoked",
			"type": "event"
		},
		{
			"anonymous": false,
			"inputs": [
				{
					"indexed": true,
					"internalType": "address",
					"name": "from",
					"type": "address"
				},
				{
					"indexed": true,
					"internalType": "address",
					"name": "to",
					"type": "address"
				},
				{
					"indexed": true,
					"internalType": "uint256",
					"name": "tokenId",
					"type": "uint256"
				}
			],
			"name": "Transfer",
			"type": "event"
		},
		{
			"anonymous": false,
			"inputs": [
				{
					"indexed": true,
					"internalType": "address",
					"name": "lockAddress",
					"type": "address"
				},
				{
					"indexed": false,
					"internalType": "address",
					"name": "unlockAddress",
					"type": "address"
				}
			],
			"name": "UnlockCallFailed",
			"type": "event"
		},
		{
			"anonymous": false,
			"inputs": [
				{
					"indexed": true,
					"internalType": "address",
					"name": "sender",
					"type": "address"
				},
				{
					"indexed": true,
					"internalType": "address",
					"name": "tokenAddress",
					"type": "address"
				},
				{
					"indexed": true,
					"internalType": "address",
					"name": "recipient",
					"type": "address"
				},
				{
					"indexed": false,
					"internalType": "uint256",
					"name": "amount",
					"type": "uint256"
				}
			],
			"name": "Withdrawal",
			"type": "event"
		},
		{
			"inputs": [],
			"name": "DEFAULT_ADMIN_ROLE",
			"outputs": [
				{
					"internalType": "bytes32",
					"name": "",
					"type": "bytes32"
				}
			],
			"stateMutability": "view",
			"type": "function"
		},
		{
			"inputs": [
				{
					"internalType": "address",
					"name": "account",
					"type": "address"
				}
			],
			"name": "addLockManager",
			"outputs": [],
			"stateMutability": "nonpayable",
			"type": "function"
		},
		{
			"inputs": [
				{
					"internalType": "address",
					"name": "_approved",
					"type": "address"
				},
				{
					"internalType": "uint256",
					"name": "_tokenId",
					"type": "uint256"
				}
			],
			"name": "approve",
			"outputs": [],
			"stateMutability": "nonpayable",
			"type": "function"
		},
		{
			"inputs": [
				{
					"internalType": "address",
					"name": "_keyOwner",
					"type": "address"
				}
			],
			"name": "balanceOf",
			"outputs": [
				{
					"internalType": "uint256",
					"name": "balance",
					"type": "uint256"
				}
			],
			"stateMutability": "view",
			"type": "function"
		},
		{
			"inputs": [
				{
					"internalType": "uint256",
					"name": "_tokenId",
					"type": "uint256"
				}
			],
			"name": "burn",
			"outputs": [],
			"stateMutability": "nonpayable",
			"type": "function"
		},
		{
			"inputs": [],
			"name": "expirationDuration",
			"outputs": [
				{
					"internalType": "uint256",
					"name": "",
					"type": "uint256"
				}
			],
			"stateMutability": "view",
			"type": "function"
		},
		{
			"inputs": [
				{
					"internalType": "uint256",
					"name": "_value",
					"type": "uint256"
				},
				{
					"internalType": "uint256",
					"name": "_tokenId",
					"type": "uint256"
				},
				{
					"internalType": "address",
					"name": "_referrer",
					"type": "address"
				},
				{
					"internalType": "bytes",
					"name": "_data",
					"type": "bytes"
				}
			],
			"name": "extend",
			"outputs": [],
			"stateMutability": "payable",
			"type": "function"
		},
		{
			"inputs": [],
			"name": "gasRefundValue",
			"outputs": [
				{
					"internalType": "uint256",
					"name": "_refundValue",
					"type": "uint256"
				}
			],
			"stateMutability": "view",
			"type": "function"
		},
		{
			"inputs": [
				{
					"internalType": "uint256",
					"name": "_tokenId",
					"type": "uint256"
				}
			],
			"name": "getApproved",
			"outputs": [
				{
					"internalType": "address",
					"name": "",
					"type": "address"
				}
			],
			"stateMutability": "view",
			"type": "function"
		},
		{
			"inputs": [
				{
					"internalType": "address",
					"name": "_keyOwner",
					"type": "address"
				}
			],
			"name": "getHasValidKey",
			"outputs": [
				{
					"internalType": "bool",
					"name": "isValid",
					"type": "bool"
				}
			],
			"stateMutability": "view",
			"type": "function"
		},
		{
			"inputs": [
				{
					"internalType": "bytes32",
					"name": "role",
					"type": "bytes32"
				}
			],
			"name": "getRoleAdmin",
			"outputs": [
				{
					"internalType": "bytes32",
					"name": "",
					"type": "bytes32"
				}
			],
			"stateMutability": "view",
			"type": "function"
		},
		{
			"inputs": [
				{
					"internalType": "bytes32",
					"name": "role",
					"type": "bytes32"
				},
				{
					"internalType": "address",
					"name": "account",
					"type": "address"
				}
			],
			"name": "grantRole",
			"outputs": [],
			"stateMutability": "nonpayable",
			"type": "function"
		},
		{
			"inputs": [
				{
					"internalType": "bytes32",
					"name": "role",
					"type": "bytes32"
				},
				{
					"internalType": "address",
					"name": "account",
					"type": "address"
				}
			],
			"name": "hasRole",
			"outputs": [
				{
					"internalType": "bool",
					"name": "",
					"type": "bool"
				}
			],
			"stateMutability": "view",
			"type": "function"
		},
		{
			"inputs": [
				{
					"internalType": "address",
					"name": "_owner",
					"type": "address"
				},
				{
					"internalType": "address",
					"name": "_operator",
					"type": "address"
				}
			],
			"name": "isApprovedForAll",
			"outputs": [
				{
					"internalType": "bool",
					"name": "",
					"type": "bool"
				}
			],
			"stateMutability": "view",
			"type": "function"
		},
		{
			"inputs": [
				{
					"internalType": "address",
					"name": "account",
					"type": "address"
				}
			],
			"name": "isLockManager",
			"outputs": [
				{
					"internalType": "bool",
					"name": "",
					"type": "bool"
				}
			],
			"stateMutability": "view",
			"type": "function"
		},
		{
			"inputs": [
				{
					"internalType": "uint256",
					"name": "_tokenId",
					"type": "uint256"
				},
				{
					"internalType": "address",
					"name": "_referrer",
					"type": "address"
				}
			],
			"name": "isRenewable",
			"outputs": [
				{
					"internalType": "bool",
					"name": "",
					"type": "bool"
				}
			],
			"stateMutability": "view",
			"type": "function"
		},
		{
			"inputs": [
				{
					"internalType": "uint256",
					"name": "_tokenId",
					"type": "uint256"
				}
			],
			"name": "isValidKey",
			"outputs": [
				{
					"internalType": "bool",
					"name": "",
					"type": "bool"
				}
			],
			"stateMutability": "view",
			"type": "function"
		},
		{
			"inputs": [
				{
					"internalType": "uint256",
					"name": "_tokenId",
					"type": "uint256"
				}
			],
			"name": "keyExpirationTimestampFor",
			"outputs": [
				{
					"internalType": "uint256",
					"name": "",
					"type": "uint256"
				}
			],
			"stateMutability": "view",
			"type": "function"
		},
		{
			"inputs": [
				{
					"internalType": "uint256",
					"name": "",
					"type": "uint256"
				}
			],
			"name": "keyManagerOf",
			"outputs": [
				{
					"internalType": "address",
					"name": "",
					"type": "address"
				}
			],
			"stateMutability": "view",
			"type": "function"
		},
		{
			"inputs": [],
			"name": "keyPrice",
			"outputs": [
				{
					"internalType": "uint256",
					"name": "",
					"type": "uint256"
				}
			],
			"stateMutability": "view",
			"type": "function"
		},
		{
			"inputs": [],
			"name": "maxKeysPerAddress",
			"outputs": [
				{
					"internalType": "uint256",
					"name": "",
					"type": "uint256"
				}
			],
			"stateMutability": "view",
			"type": "function"
		},
		{
			"inputs": [],
			"name": "maxNumberOfKeys",
			"outputs": [
				{
					"internalType": "uint256",
					"name": "",
					"type": "uint256"
				}
			],
			"stateMutability": "view",
			"type": "function"
		},
		{
			"inputs": [
				{
					"internalType": "uint256",
					"name": "_tokenIdFrom",
					"type": "uint256"
				},
				{
					"internalType": "uint256",
					"name": "_tokenIdTo",
					"type": "uint256"
				},
				{
					"internalType": "uint256",
					"name": "_amount",
					"type": "uint256"
				}
			],
			"name": "mergeKeys",
			"outputs": [],
			"stateMutability": "nonpayable",
			"type": "function"
		},
		{
			"inputs": [
				{
					"internalType": "bytes",
					"name": "",
					"type": "bytes"
				}
			],
			"name": "migrate",
			"outputs": [],
			"stateMutability": "nonpayable",
			"type": "function"
		},
		{
			"inputs": [],
			"name": "numberOfOwners",
			"outputs": [
				{
					"internalType": "uint256",
					"name": "",
					"type": "uint256"
				}
			],
			"stateMutability": "view",
			"type": "function"
		},
		{
			"inputs": [],
			"name": "onKeyCancelHook",
			"outputs": [
				{
					"internalType": "contract ILockKeyCancelHook",
					"name": "",
					"type": "address"
				}
			],
			"stateMutability": "view",
			"type": "function"
		},
		{
			"inputs": [],
			"name": "onKeyExtendHook",
			"outputs": [
				{
					"internalType": "contract ILockKeyExtendHook",
					"name": "",
					"type": "address"
				}
			],
			"stateMutability": "view",
			"type": "function"
		},
		{
			"inputs": [],
			"name": "onKeyGrantHook",
			"outputs": [
				{
					"internalType": "contract ILockKeyGrantHook",
					"name": "",
					"type": "address"
				}
			],
			"stateMutability": "view",
			"type": "function"
		},
		{
			"inputs": [],
			"name": "onKeyPurchaseHook",
			"outputs": [
				{
					"internalType": "contract ILockKeyPurchaseHook",
					"name": "",
					"type": "address"
				}
			],
			"stateMutability": "view",
			"type": "function"
		},
		{
			"inputs": [],
			"name": "onKeyTransferHook",
			"outputs": [
				{
					"internalType": "contract ILockKeyTransferHook",
					"name": "",
					"type": "address"
				}
			],
			"stateMutability": "view",
			"type": "function"
		},
		{
			"inputs": [],
			"name": "onTokenURIHook",
			"outputs": [
				{
					"internalType": "contract ILockTokenURIHook",
					"name": "",
					"type": "address"
				}
			],
			"stateMutability": "view",
			"type": "function"
		},
		{
			"inputs": [],
			"name": "onValidKeyHook",
			"outputs": [
				{
					"internalType": "contract ILockValidKeyHook",
					"name": "",
					"type": "address"
				}
			],
			"stateMutability": "view",
			"type": "function"
		},
		{
			"inputs": [
				{
					"internalType": "uint256",
					"name": "_tokenId",
					"type": "uint256"
				}
			],
			"name": "ownerOf",
			"outputs": [
				{
					"internalType": "address",
					"name": "",
					"type": "address"
				}
			],
			"stateMutability": "view",
			"type": "function"
		},
		{
			"inputs": [],
			"name": "publicLockVersion",
			"outputs": [
				{
					"internalType": "uint16",
					"name": "",
					"type": "uint16"
				}
			],
			"stateMutability": "pure",
			"type": "function"
		},
		{
			"inputs": [
				{
					"internalType": "uint256[]",
					"name": "_values",
					"type": "uint256[]"
				},
				{
					"internalType": "address[]",
					"name": "_recipients",
					"type": "address[]"
				},
				{
					"internalType": "address[]",
					"name": "_referrers",
					"type": "address[]"
				},
				{
					"internalType": "address[]",
					"name": "_keyManagers",
					"type": "address[]"
				},
				{
					"internalType": "bytes[]",
					"name": "_data",
					"type": "bytes[]"
				}
			],
			"name": "purchase",
			"outputs": [
				{
					"internalType": "uint256[]",
					"name": "",
					"type": "uint256[]"
				}
			],
			"stateMutability": "payable",
			"type": "function"
		},
		{
			"inputs": [
				{
					"internalType": "address",
					"name": "_recipient",
					"type": "address"
				},
				{
					"internalType": "address",
					"name": "_referrer",
					"type": "address"
				},
				{
					"internalType": "bytes",
					"name": "_data",
					"type": "bytes"
				}
			],
			"name": "purchasePriceFor",
			"outputs": [
				{
					"internalType": "uint256",
					"name": "minKeyPrice",
					"type": "uint256"
				}
			],
			"stateMutability": "view",
			"type": "function"
		},
		{
			"inputs": [
				{
					"internalType": "address",
					"name": "",
					"type": "address"
				}
			],
			"name": "referrerFees",
			"outputs": [
				{
					"internalType": "uint256",
					"name": "",
					"type": "uint256"
				}
			],
			"stateMutability": "view",
			"type": "function"
		},
		{
			"inputs": [
				{
					"internalType": "uint256",
					"name": "_tokenId",
					"type": "uint256"
				},
				{
					"internalType": "address",
					"name": "_referrer",
					"type": "address"
				}
			],
			"name": "renewMembershipFor",
			"outputs": [],
			"stateMutability": "nonpayable",
			"type": "function"
		},
		{
			"inputs": [],
			"name": "renounceLockManager",
			"outputs": [],
			"stateMutability": "nonpayable",
			"type": "function"
		},
		{
			"inputs": [
				{
					"internalType": "bytes32",
					"name": "role",
					"type": "bytes32"
				},
				{
					"internalType": "address",
					"name": "account",
					"type": "address"
				}
			],
			"name": "renounceRole",
			"outputs": [],
			"stateMutability": "nonpayable",
			"type": "function"
		},
		{
			"inputs": [
				{
					"internalType": "bytes32",
					"name": "role",
					"type": "bytes32"
				},
				{
					"internalType": "address",
					"name": "account",
					"type": "address"
				}
			],
			"name": "revokeRole",
			"outputs": [],
			"stateMutability": "nonpayable",
			"type": "function"
		},
		{
			"inputs": [],
			"name": "schemaVersion",
			"outputs": [
				{
					"internalType": "uint256",
					"name": "",
					"type": "uint256"
				}
			],
			"stateMutability": "view",
			"type": "function"
		},
		{
			"inputs": [
				{
					"internalType": "address",
					"name": "_onKeyPurchaseHook",
					"type": "address"
				},
				{
					"internalType": "address",
					"name": "_onKeyCancelHook",
					"type": "address"
				},
				{
					"internalType": "address",
					"name": "_onValidKeyHook",
					"type": "address"
				},
				{
					"internalType": "address",
					"name": "_onTokenURIHook",
					"type": "address"
				},
				{
					"internalType": "address",
					"name": "_onKeyTransferHook",
					"type": "address"
				},
				{
					"internalType": "address",
					"name": "_onKeyExtendHook",
					"type": "address"
				},
				{
					"internalType": "address",
					"name": "_onKeyGrantHook",
					"type": "address"
				}
			],
			"name": "setEventHooks",
			"outputs": [],
			"stateMutability": "nonpayable",
			"type": "function"
		},
		{
			"inputs": [
				{
					"internalType": "uint256",
					"name": "_refundValue",
					"type": "uint256"
				}
			],
			"name": "setGasRefundValue",
			"outputs": [],
			"stateMutability": "nonpayable",
			"type": "function"
		},
		{
			"inputs": [
				{
					"internalType": "uint256",
					"name": "_tokenId",
					"type": "uint256"
				},
				{
					"internalType": "address",
					"name": "_keyManager",
					"type": "address"
				}
			],
			"name": "setKeyManagerOf",
			"outputs": [],
			"stateMutability": "nonpayable",
			"type": "function"
		},
		{
			"inputs": [
				{
					"internalType": "address",
					"name": "_referrer",
					"type": "address"
				},
				{
					"internalType": "uint256",
					"name": "_feeBasisPoint",
					"type": "uint256"
				}
			],
			"name": "setReferrerFee",
			"outputs": [],
			"stateMutability": "nonpayable",
			"type": "function"
		},
		{
			"inputs": [
				{
					"internalType": "bytes4",
					"name": "interfaceId",
					"type": "bytes4"
				}
			],
			"name": "supportsInterface",
			"outputs": [
				{
					"internalType": "bool",
					"name": "",
					"type": "bool"
				}
			],
			"stateMutability": "view",
			"type": "function"
		},
		{
			"inputs": [],
			"name": "tokenAddress",
			"outputs": [
				{
					"internalType": "address",
					"name": "",
					"type": "address"
				}
			],
			"stateMutability": "view",
			"type": "function"
		},
		{
			"inputs": [
				{
					"internalType": "address",
					"name": "_keyOwner",
					"type": "address"
				},
				{
					"internalType": "uint256",
					"name": "_index",
					"type": "uint256"
				}
			],
			"name": "tokenOfOwnerByIndex",
			"outputs": [
				{
					"internalType": "uint256",
					"name": "",
					"type": "uint256"
				}
			],
			"stateMutability": "view",
			"type": "function"
		},
		{
			"inputs": [
				{
					"internalType": "address",
					"name": "_keyOwner",
					"type": "address"
				}
			],
			"name": "totalKeys",
			"outputs": [
				{
					"internalType": "uint256",
					"name": "",
					"type": "uint256"
				}
			],
			"stateMutability": "view",
			"type": "function"
		},
		{
			"inputs": [],
			"name": "totalSupply",
			"outputs": [
				{
					"internalType": "uint256",
					"name": "",
					"type": "uint256"
				}
			],
			"stateMutability": "view",
			"type": "function"
		},
		{
			"inputs": [],
			"name": "unlockProtocol",
			"outputs": [
				{
					"internalType": "contract IUnlock",
					"name": "",
					"type": "address"
				}
			],
			"stateMutability": "view",
			"type": "function"
		},
		{
			"inputs": [
				{
					"internalType": "uint256",
					"name": "_keyPrice",
					"type": "uint256"
				},
				{
					"internalType": "address",
					"name": "_tokenAddress",
					"type": "address"
				}
			],
			"name": "updateKeyPricing",
			"outputs": [],
			"stateMutability": "nonpayable",
			"type": "function"
		},
		{
			"inputs": [
				{
					"internalType": "uint256",
					"name": "_newExpirationDuration",
					"type": "uint256"
				},
				{
					"internalType": "uint256",
					"name": "_maxNumberOfKeys",
					"type": "uint256"
				},
				{
					"internalType": "uint256",
					"name": "_maxKeysPerAcccount",
					"type": "uint256"
				}
			],
			"name": "updateLockConfig",
			"outputs": [],
			"stateMutability": "nonpayable",
			"type": "function"
		},
		{
			"inputs": [],
			"name": "updateSchemaVersion",
			"outputs": [],
			"stateMutability": "nonpayable",
			"type": "function"
		},
		{
			"inputs": [
				{
					"internalType": "address",
					"name": "_tokenAddress",
					"type": "address"
				},
				{
					"internalType": "address payable",
					"name": "_recipient",
					"type": "address"
				},
				{
					"internalType": "uint256",
					"name": "_amount",
					"type": "uint256"
				}
			],
			"name": "withdraw",
			"outputs": [],
			"stateMutability": "nonpayable",
			"type": "function"
		}
	]
}