{
	"data": {
		"bytecode": {
			"linkReferences": {},
			"object": "60806040523480156200001157600080fd5b506181ff80620000226000396000f3fe6080604052600436106103d95760003560e01c806374b6c106116101fd578063b129694e11610118578063d547741f116100ab578063e985e9c51161007a578063e985e9c514610f19578063f0ba604014610f56578063f12c6b6e14610f6d578063f32e8b2414610f96578063f5766b3914610fad576103d9565b8063d547741f14610e82578063d813cc1914610eab578063d9caed1214610ec7578063debe2b0d14610ef0576103d9565b8063c907c3ec116100e7578063c907c3ec14610dd8578063d1bbd49c14610e03578063d250348514610e2e578063d52e4a1014610e57576103d9565b8063b129694e14610d0a578063b1a3b25d14610d35578063b88d4fde14610d72578063c23135dd14610d9b576103d9565b806393fd184411610190578063a2e4cd2e1161015f578063a2e4cd2e14610c3e578063a98d362314610c67578063aae4b8f714610ca4578063b11d7ec114610ce1576103d9565b806393fd184414610b945780639d76ea5814610bbf578063a217fddf14610bea578063a22cb46514610c15576103d9565b80638505fe95116101cc5780638505fe9514610adc5780638577a6d514610b055780638932a90d14610b2e57806391d1485414610b57576103d9565b806374b6c10614610a2057806374cac47d14610a4b5780637ec2a72414610a74578063812eecd414610a9f576103d9565b80632d33dd5b116102f857806342966c681161028b57806354b249fb1161025a57806354b249fb146109015780636207a8da1461093e5780636352211e146109695780636d8ea5b4146109a657806370a08231146109e3576103d9565b806342966c68146108335780634d025fed1461085c5780634e2ce6d31461089957806350878a47146108c4576103d9565b806336568abe116102c757806336568abe1461078d578063389f07e8146107b6578063407dc589146107e157806342842e0e1461080a576103d9565b80632d33dd5b146106cc5780632f2ff15d146106f75780632f745c5914610720578063338189971461075d576103d9565b806311a4c03a1161037057806323b872dd1161033f57806323b872dd14610612578063248a9ca31461063b57806326e9ca0714610678578063282478df146106a3576103d9565b806311a4c03a1461056657806318160ddd14610591578063183767da146105bc578063217751bc146105e7576103d9565b8063097ba333116103ac578063097ba333146104aa5780630c2db8d1146104e75780630f15023b1461051057806310e569731461053b576103d9565b806301ffc9a7146103de578063068208cd1461041b578063081812fc14610444578063095ea7b314610481575b600080fd5b3480156103ea57600080fd5b506104056004803603810190610400919061617d565b610fd6565b60405161041291906161c5565b60405180910390f35b34801561042757600080fd5b50610442600480360381019061043d9190616216565b611050565b005b34801561045057600080fd5b5061046b60048036038101906104669190616269565b6110de565b60405161047891906162d7565b60405180910390f35b34801561048d57600080fd5b506104a860048036038101906104a3919061631e565b61112b565b005b3480156104b657600080fd5b506104d160048036038101906104cc91906164a4565b61127f565b6040516104de9190616522565b60405180910390f35b3480156104f357600080fd5b5061050e6004803603810190610509919061653d565b61138f565b005b34801561051c57600080fd5b50610525611432565b60405161053291906165ef565b60405180910390f35b34801561054757600080fd5b50610550611459565b60405161055d9190616522565b60405180910390f35b34801561057257600080fd5b5061057b611460565b6040516105889190616522565b60405180910390f35b34801561059d57600080fd5b506105a6611467565b6040516105b39190616522565b60405180910390f35b3480156105c857600080fd5b506105d1611472565b6040516105de9190616522565b60405180910390f35b3480156105f357600080fd5b506105fc611479565b604051610609919061662b565b60405180910390f35b34801561061e57600080fd5b506106396004803603810190610634919061653d565b6114a0565b005b34801561064757600080fd5b50610662600480360381019061065d919061667c565b61150d565b60405161066f91906166b8565b60405180910390f35b34801561068457600080fd5b5061068d61152d565b60405161069a91906166f4565b60405180910390f35b3480156106af57600080fd5b506106ca60048036038101906106c59190616216565b611554565b005b3480156106d857600080fd5b506106e161162e565b6040516106ee9190616730565b60405180910390f35b34801561070357600080fd5b5061071e6004803603810190610719919061674b565b611655565b005b34801561072c57600080fd5b506107476004803603810190610742919061631e565b611676565b6040516107549190616522565b60405180910390f35b61077760048036038101906107729190616971565b611713565b6040516107849190616b39565b60405180910390f35b34801561079957600080fd5b506107b460048036038101906107af919061674b565b611c7d565b005b3480156107c257600080fd5b506107cb611d00565b6040516107d89190616b7c565b60405180910390f35b3480156107ed57600080fd5b506108086004803603810190610803919061631e565b611d27565b005b34801561081657600080fd5b50610831600480360381019061082c919061653d565b611dd7565b005b34801561083f57600080fd5b5061085a60048036038101906108559190616269565b611df7565b005b34801561086857600080fd5b50610883600480360381019061087e9190616269565b611ef9565b60405161089091906162d7565b60405180910390f35b3480156108a557600080fd5b506108ae611f2d565b6040516108bb9190616522565b60405180910390f35b3480156108d057600080fd5b506108eb60048036038101906108e69190616b97565b611f34565b6040516108f891906161c5565b60405180910390f35b34801561090d57600080fd5b5061092860048036038101906109239190616269565b6121b3565b6040516109359190616522565b60405180910390f35b34801561094a57600080fd5b506109536121d4565b6040516109609190616522565b60405180910390f35b34801561097557600080fd5b50610990600480360381019061098b9190616269565b6121df565b60405161099d91906162d7565b60405180910390f35b3480156109b257600080fd5b506109cd60048036038101906109c89190616bd7565b61221d565b6040516109da91906161c5565b60405180910390f35b3480156109ef57600080fd5b50610a0a6004803603810190610a059190616bd7565b61234b565b604051610a179190616522565b60405180910390f35b348015610a2c57600080fd5b50610a356123a4565b604051610a429190616522565b60405180910390f35b348015610a5757600080fd5b50610a726004803603810190610a6d9190616c04565b6123ab565b005b348015610a8057600080fd5b50610a89612a11565b604051610a969190616cc7565b60405180910390f35b348015610aab57600080fd5b50610ac66004803603810190610ac19190616bd7565b612a38565b604051610ad39190616522565b60405180910390f35b348015610ae857600080fd5b50610b036004803603810190610afe9190616b97565b612ae7565b005b348015610b1157600080fd5b50610b2c6004803603810190610b279190616269565b612b52565b005b348015610b3a57600080fd5b50610b556004803603810190610b509190616d38565b612b9c565b005b348015610b6357600080fd5b50610b7e6004803603810190610b79919061674b565b612ce2565b604051610b8b91906161c5565b60405180910390f35b348015610ba057600080fd5b50610ba9612d4d565b604051610bb69190616522565b60405180910390f35b348015610bcb57600080fd5b50610bd4612d54565b604051610be191906162d7565b60405180910390f35b348015610bf657600080fd5b50610bff612d7b565b604051610c0c91906166b8565b60405180910390f35b348015610c2157600080fd5b50610c3c6004803603810190610c379190616db1565b612d82565b005b348015610c4a57600080fd5b50610c656004803603810190610c609190616b97565b612eed565b005b348015610c7357600080fd5b50610c8e6004803603810190610c899190616269565b612fe1565b604051610c9b91906161c5565b60405180910390f35b348015610cb057600080fd5b50610ccb6004803603810190610cc69190616bd7565b613155565b604051610cd891906161c5565b60405180910390f35b348015610ced57600080fd5b50610d086004803603810190610d039190616b97565b613188565b005b348015610d1657600080fd5b50610d1f6131f3565b604051610d2c9190616e12565b60405180910390f35b348015610d4157600080fd5b50610d5c6004803603810190610d579190616e2d565b61321a565b604051610d699190616522565b60405180910390f35b348015610d7e57600080fd5b50610d996004803603810190610d949190616e6d565b61328b565b005b348015610da757600080fd5b50610dc26004803603810190610dbd9190616bd7565b6132de565b604051610dcf9190616522565b60405180910390f35b348015610de457600080fd5b50610ded6132f7565b604051610dfa9190616f11565b60405180910390f35b348015610e0f57600080fd5b50610e1861331e565b604051610e259190616f49565b60405180910390f35b348015610e3a57600080fd5b50610e556004803603810190610e509190616bd7565b613327565b005b348015610e6357600080fd5b50610e6c61339f565b604051610e799190616522565b60405180910390f35b348015610e8e57600080fd5b50610ea96004803603810190610ea4919061674b565b6133aa565b005b610ec56004803603810190610ec09190616f64565b6133cb565b005b348015610ed357600080fd5b50610eee6004803603810190610ee9919061702a565b6134e5565b005b348015610efc57600080fd5b50610f176004803603810190610f12919061631e565b61368f565b005b348015610f2557600080fd5b50610f406004803603810190610f3b919061707d565b61372e565b604051610f4d91906161c5565b60405180910390f35b348015610f6257600080fd5b50610f6b6137c3565b005b348015610f7957600080fd5b50610f946004803603810190610f8f91906170bd565b613832565b005b348015610fa257600080fd5b50610fab613a55565b005b348015610fb957600080fd5b50610fd46004803603810190610fcf9190616269565b613a72565b005b60007f7965db0b000000000000000000000000000000000000000000000000000000007bffffffffffffffffffffffffffffffffffffffffffffffffffffffff1916827bffffffffffffffffffffffffffffffffffffffffffffffffffffffff19161480611049575061104882613abc565b5b9050919050565b61105983613b26565b61106283613b7a565b61106b83613bbc565b61107482613b26565b4261107e846121b3565b611088919061713f565b8111156110c1576040517f8744776800000000000000000000000000000000000000000000000000000000815260040160405180910390fd5b6110cd83826000613d6e565b6110d982826001613d6e565b505050565b60006110e982613b26565b6000611047600084815260200190815260200160002060009054906101000a900473ffffffffffffffffffffffffffffffffffffffff16905080915050919050565b61113481613bbc565b8173ffffffffffffffffffffffffffffffffffffffff163373ffffffffffffffffffffffffffffffffffffffff1603611199576040517ff13228ca00000000000000000000000000000000000000000000000000000000815260040160405180910390fd5b81611047600083815260200190815260200160002060006101000a81548173ffffffffffffffffffffffffffffffffffffffff021916908373ffffffffffffffffffffffffffffffffffffffff160217905550808273ffffffffffffffffffffffffffffffffffffffff16611044600084815260200190815260200160002060009054906101000a900473ffffffffffffffffffffffffffffffffffffffff1673ffffffffffffffffffffffffffffffffffffffff167f8c5be1e5ebec7d5bd14f71427d1e84f3dd0314c0f7b2291e5b200ac8c7c3b92560405160405180910390a45050565b60008073ffffffffffffffffffffffffffffffffffffffff16610c5760009054906101000a900473ffffffffffffffffffffffffffffffffffffffff1673ffffffffffffffffffffffffffffffffffffffff161461138157610c5760009054906101000a900473ffffffffffffffffffffffffffffffffffffffff1673ffffffffffffffffffffffffffffffffffffffff1663221c1fd1338686866040518563ffffffff1660e01b815260040161133994939291906171f2565b602060405180830381865afa158015611356573d6000803e3d6000fd5b505050506040513d601f19601f8201168201806040525081019061137a9190617253565b9050611388565b610c535490505b9392505050565b6113998133613e7b565b6113cf576040517f075fd2b100000000000000000000000000000000000000000000000000000000815260040160405180910390fd5b6113da838383613fa3565b33611046600083815260200190815260200160002060006101000a81548173ffffffffffffffffffffffffffffffffffffffff021916908373ffffffffffffffffffffffffffffffffffffffff160217905550505050565b610c5160009054906101000a900473ffffffffffffffffffffffffffffffffffffffff1681565b610c535481565b610c525481565b6000610c5554905090565b61181a5481565b610c5860009054906101000a900473ffffffffffffffffffffffffffffffffffffffff1681565b6114a981613bbc565b6000611046600083815260200190815260200160002060006101000a81548173ffffffffffffffffffffffffffffffffffffffff021916908373ffffffffffffffffffffffffffffffffffffffff160217905550611508838383613fa3565b505050565b600060656000838152602001908152602001600020600101549050919050565b610c5960009054906101000a900473ffffffffffffffffffffffffffffffffffffffff1681565b61155c6142fa565b60008103611596576040517fe03b033d00000000000000000000000000000000000000000000000000000000815260040160405180910390fd5b610c55548210156115d3576040517f1d00cd6b00000000000000000000000000000000000000000000000000000000815260040160405180910390fd5b80610c5c8190555082610c528190555081610c54819055507f9a09448a3f24d3a01ccc67103c7cddbeea820176a18182cc83d0bce585f26a5b8383610c5c5460405161162193929190617280565b60405180910390a1505050565b610c5760009054906101000a900473ffffffffffffffffffffffffffffffffffffffff1681565b61165e8261150d565b6116678161435c565b6116718383614370565b505050565b600061168183612a38565b82106116b9576040517f08e22eae00000000000000000000000000000000000000000000000000000000815260040160405180910390fd5b61104a60008473ffffffffffffffffffffffffffffffffffffffff1673ffffffffffffffffffffffffffffffffffffffff168152602001908152602001600020600083815260200190815260200160002054905092915050565b606061171d614451565b610c54548651610c555461173191906172b7565b1115611769576040517f31af695100000000000000000000000000000000000000000000000000000000815260040160405180910390fd5b8451865114158061177c57508351865114155b156117b3576040517fed676a4a00000000000000000000000000000000000000000000000000000000815260040160405180910390fd5b600080875167ffffffffffffffff8111156117d1576117d0616379565b5b6040519080825280602002602001820160405280156117ff5781602001602082028036833780820191505090505b50905060005b8851811015611c0f576000898281518110611823576118226172eb565b5b602002602001015190506118b181898481518110611844576118436172eb565b5b60200260200101517fffffffffffffffffffffffffffffffffffffffffffffffffffffffffffffffff610c52541461188a57610c52544261188591906172b7565b6118ac565b7fffffffffffffffffffffffffffffffffffffffffffffffffffffffffffffffff5b61449a565b8383815181106118c4576118c36172eb565b5b602002602001018181525050600061195e828b85815181106118e9576118e86172eb565b5b60200260200101518a8a87818110611904576119036172eb565b5b90506020028101906119169190617329565b8080601f016020809104026020016040519081016040528093929190818152602001838380828437600081840152601f19601f8201169050808301925050505050505061127f565b9050808561196c91906172b7565b9450611992848481518110611984576119836172eb565b5b602002602001015182614601565b600073ffffffffffffffffffffffffffffffffffffffff1661047f60009054906101000a900473ffffffffffffffffffffffffffffffffffffffff1673ffffffffffffffffffffffffffffffffffffffff1614611a0e57611a0d8c84815181106119ff576119fe6172eb565b5b602002602001015182614776565b5b611a32818b8581518110611a2557611a246172eb565b5b60200260200101516147b4565b60008073ffffffffffffffffffffffffffffffffffffffff1661047f60009054906101000a900473ffffffffffffffffffffffffffffffffffffffff1673ffffffffffffffffffffffffffffffffffffffff1614611aaa578c8481518110611a9d57611a9c6172eb565b5b6020026020010151611aac565b345b9050600073ffffffffffffffffffffffffffffffffffffffff16610c5760009054906101000a900473ffffffffffffffffffffffffffffffffffffffff1673ffffffffffffffffffffffffffffffffffffffff1614611bf957610c5760009054906101000a900473ffffffffffffffffffffffffffffffffffffffff1673ffffffffffffffffffffffffffffffffffffffff16635e895f29868681518110611b5757611b566172eb565b5b602002602001015133868f8981518110611b7457611b736172eb565b5b60200260200101518e8e8b818110611b8f57611b8e6172eb565b5b9050602002810190611ba19190617329565b89896040518963ffffffff1660e01b8152600401611bc69897969594939291906173b9565b600060405180830381600087803b158015611be057600080fd5b505af1158015611bf4573d6000803e3d6000fd5b505050505b5050508080611c0790617431565b915050611805565b50611c1a338361497b565b611c2382614aba565b611c2b614c7f565b60005b8751811015611c6d57611c5a888281518110611c4d57611c4c6172eb565b5b6020026020010151614d34565b8080611c6590617431565b915050611c2e565b5080925050509695505050505050565b611c85614e90565b73ffffffffffffffffffffffffffffffffffffffff168173ffffffffffffffffffffffffffffffffffffffff1614611cf2576040517f08c379a0000000000000000000000000000000000000000000000000000000008152600401611ce9906174fc565b60405180910390fd5b611cfc8282614e98565b5050565b610c5d60009054906101000a900473ffffffffffffffffffffffffffffffffffffffff1681565b611046600082815260200190815260200160002060009054906101000a900473ffffffffffffffffffffffffffffffffffffffff1673ffffffffffffffffffffffffffffffffffffffff163373ffffffffffffffffffffffffffffffffffffffff1614611dc0576040517f075fd2b100000000000000000000000000000000000000000000000000000000815260040160405180910390fd5b611dd3611dcc826121df565b8383613fa3565b5050565b611df28383836040518060200160405280600081525061328b565b505050565b611e0081613b26565b611e0981613bbc565b80600073ffffffffffffffffffffffffffffffffffffffff16611044600084815260200190815260200160002060009054906101000a900473ffffffffffffffffffffffffffffffffffffffff1673ffffffffffffffffffffffffffffffffffffffff167fddf252ad1be2c89b69c2b068fc378daa952ba7f163c4a11628f55a4df523b3ef60405160405180910390a4611ea281614f7a565b6000611044600083815260200190815260200160002060006101000a81548173ffffffffffffffffffffffffffffffffffffffff021916908373ffffffffffffffffffffffffffffffffffffffff16021790555050565b6110466020528060005260406000206000915054906101000a900473ffffffffffffffffffffffffffffffffffffffff1681565b610c5b5481565b60007fffffffffffffffffffffffffffffffffffffffffffffffffffffffffffffffff6114336000858152602001908152602001600020541480611fc75750600073ffffffffffffffffffffffffffffffffffffffff1661047f60009054906101000a900473ffffffffffffffffffffffffffffffffffffffff1673ffffffffffffffffffffffffffffffffffffffff16145b15611ffe576040517fd9a81c2200000000000000000000000000000000000000000000000000000000815260040160405180910390fd5b61202061200a846121df565b836040518060200160405280600081525061127f565b61143260008581526020019081526020016000205410806120575750610c5254611433600085815260200190815260200160002054115b806120e5575061047f60009054906101000a900473ffffffffffffffffffffffffffffffffffffffff1673ffffffffffffffffffffffffffffffffffffffff16611434600085815260200190815260200160002060009054906101000a900473ffffffffffffffffffffffffffffffffffffffff1673ffffffffffffffffffffffffffffffffffffffff1614155b1561211c576040517f986739e700000000000000000000000000000000000000000000000000000000815260040160405180910390fd5b6000612710612328610c5254612132919061751c565b61213c919061758d565b610c5254611049600087815260200190815260200160002060010154612162919061713f565b61216c91906172b7565b9050804210156121a8576040517fc1b1d86600000000000000000000000000000000000000000000000000000000815260040160405180910390fd5b600191505092915050565b60006110496000838152602001908152602001600020600101549050919050565b600061143154905090565b6000611044600083815260200190815260200160002060009054906101000a900473ffffffffffffffffffffffffffffffffffffffff169050919050565b6000806122298361234b565b0361233657600073ffffffffffffffffffffffffffffffffffffffff16610c5960009054906101000a900473ffffffffffffffffffffffffffffffffffffffff1673ffffffffffffffffffffffffffffffffffffffff161461233557610c5960009054906101000a900473ffffffffffffffffffffffffffffffffffffffff1673ffffffffffffffffffffffffffffffffffffffff1663427ede3830336000808760006040518763ffffffff1660e01b81526004016122ed969594939291906175f9565b602060405180830381865afa15801561230a573d6000803e3d6000fd5b505050506040513d601f19601f8201168201806040525081019061232e919061766f565b9050612346565b5b60016123418361234b565b101590505b919050565b60008061235783612a38565b905060005b8181101561239d576123766123718583611676565b612fe1565b1561238a57828061238690617431565b9350505b808061239590617431565b91505061235c565b5050919050565b610c545481565b6123b36142fa565b600073ffffffffffffffffffffffffffffffffffffffff168773ffffffffffffffffffffffffffffffffffffffff161415801561240c575061240a8773ffffffffffffffffffffffffffffffffffffffff16614f99565b155b1561244f5760006040517f6788e02b00000000000000000000000000000000000000000000000000000000815260040161244691906176da565b60405180910390fd5b600073ffffffffffffffffffffffffffffffffffffffff168673ffffffffffffffffffffffffffffffffffffffff16141580156124a857506124a68673ffffffffffffffffffffffffffffffffffffffff16614f99565b155b156124eb5760016040517f6788e02b0000000000000000000000000000000000000000000000000000000081526004016124e29190617730565b60405180910390fd5b600073ffffffffffffffffffffffffffffffffffffffff168573ffffffffffffffffffffffffffffffffffffffff161415801561254457506125428573ffffffffffffffffffffffffffffffffffffffff16614f99565b155b156125875760026040517f6788e02b00000000000000000000000000000000000000000000000000000000815260040161257e9190617786565b60405180910390fd5b600073ffffffffffffffffffffffffffffffffffffffff168473ffffffffffffffffffffffffffffffffffffffff16141580156125e057506125de8473ffffffffffffffffffffffffffffffffffffffff16614f99565b155b156126235760036040517f6788e02b00000000000000000000000000000000000000000000000000000000815260040161261a91906177dc565b60405180910390fd5b600073ffffffffffffffffffffffffffffffffffffffff168373ffffffffffffffffffffffffffffffffffffffff161415801561267c575061267a8373ffffffffffffffffffffffffffffffffffffffff16614f99565b155b156126bf5760046040517f6788e02b0000000000000000000000000000000000000000000000000000000081526004016126b69190617832565b60405180910390fd5b600073ffffffffffffffffffffffffffffffffffffffff168273ffffffffffffffffffffffffffffffffffffffff161415801561271857506127168273ffffffffffffffffffffffffffffffffffffffff16614f99565b155b1561275b5760056040517f6788e02b0000000000000000000000000000000000000000000000000000000081526004016127529190617888565b60405180910390fd5b600073ffffffffffffffffffffffffffffffffffffffff168173ffffffffffffffffffffffffffffffffffffffff16141580156127b457506127b28173ffffffffffffffffffffffffffffffffffffffff16614f99565b155b156127f75760066040517f6788e02b0000000000000000000000000000000000000000000000000000000081526004016127ee91906178de565b60405180910390fd5b86610c5760006101000a81548173ffffffffffffffffffffffffffffffffffffffff021916908373ffffffffffffffffffffffffffffffffffffffff16021790555085610c5860006101000a81548173ffffffffffffffffffffffffffffffffffffffff021916908373ffffffffffffffffffffffffffffffffffffffff16021790555083610c5a60006101000a81548173ffffffffffffffffffffffffffffffffffffffff021916908373ffffffffffffffffffffffffffffffffffffffff16021790555084610c5960006101000a81548173ffffffffffffffffffffffffffffffffffffffff021916908373ffffffffffffffffffffffffffffffffffffffff16021790555082610c5d60006101000a81548173ffffffffffffffffffffffffffffffffffffffff021916908373ffffffffffffffffffffffffffffffffffffffff16021790555081610c5e60006101000a81548173ffffffffffffffffffffffffffffffffffffffff021916908373ffffffffffffffffffffffffffffffffffffffff16021790555080610c5f60006101000a81548173ffffffffffffffffffffffffffffffffffffffff021916908373ffffffffffffffffffffffffffffffffffffffff1602179055507f0a851288e37fa9a8bc562891998524e95c286fe84f693c1921e0fd0792171af687878787878787604051612a0097969594939291906178f9565b60405180910390a150505050505050565b610c5a60009054906101000a900473ffffffffffffffffffffffffffffffffffffffff1681565b60008073ffffffffffffffffffffffffffffffffffffffff168273ffffffffffffffffffffffffffffffffffffffff1603612a9f576040517f5963709b00000000000000000000000000000000000000000000000000000000815260040160405180910390fd5b61104c60008373ffffffffffffffffffffffffffffffffffffffff1673ffffffffffffffffffffffffffffffffffffffff168152602001908152602001600020549050919050565b612aef614451565b612af882613b26565b612b028282611f34565b50612b0e826000614fbc565b50612b1c610c5354826147b4565b612b31612b28836121df565b610c535461497b565b612b39614c7f565b612b4281614d34565b612b4e610c5354614aba565b5050565b612b5a6142fa565b7f0496ed1e61eb69727f9659a8e859288db4758ffb1f744d1c1424634f90a257f481604051612b899190616522565b60405180910390a18061181a8190555050565b6001612ba661331e565b612bb09190617968565b61ffff16610c5b541480612bc757506000610c5b54145b612c06576040517f08c379a0000000000000000000000000000000000000000000000000000000008152600401612bfd906179ea565b60405180910390fd5b60014603612ccb57600073e79b93f8e22676774f2a8dad469175ebd00029fa90508073ffffffffffffffffffffffffffffffffffffffff1663ed9674bd6040518163ffffffff1660e01b8152600401600060405180830381600087803b158015612c6f57600080fd5b505af1158015612c83573d6000803e3d6000fd5b5050505080610c5160006101000a81548173ffffffffffffffffffffffffffffffffffffffff021916908373ffffffffffffffffffffffffffffffffffffffff160217905550505b612cd361331e565b61ffff16610c5b819055505050565b60006065600084815260200190815260200160002060000160008373ffffffffffffffffffffffffffffffffffffffff1673ffffffffffffffffffffffffffffffffffffffff16815260200190815260200160002060009054906101000a900460ff16905092915050565b6110455481565b61047f60009054906101000a900473ffffffffffffffffffffffffffffffffffffffff1681565b6000801b81565b612d8a61520a565b3373ffffffffffffffffffffffffffffffffffffffff168273ffffffffffffffffffffffffffffffffffffffff1603612def576040517ff13228ca00000000000000000000000000000000000000000000000000000000815260040160405180910390fd5b8061104860003373ffffffffffffffffffffffffffffffffffffffff1673ffffffffffffffffffffffffffffffffffffffff16815260200190815260200160002060008473ffffffffffffffffffffffffffffffffffffffff1673ffffffffffffffffffffffffffffffffffffffff16815260200190815260200160002060006101000a81548160ff0219169083151502179055508173ffffffffffffffffffffffffffffffffffffffff163373ffffffffffffffffffffffffffffffffffffffff167f17307eab39ab6107e8899845ad3d59bd9653f200f220920489ca2b5937696c3183604051612ee191906161c5565b60405180910390a35050565b612ef56142fa565b612efe8161525e565b6000610c53549050600061047f60009054906101000a900473ffffffffffffffffffffffffffffffffffffffff16905083610c53819055508261047f60006101000a81548173ffffffffffffffffffffffffffffffffffffffff021916908373ffffffffffffffffffffffffffffffffffffffff1602179055507f3615065ccf48367ac483ac86701248e2e5ff55bdd9be845007d34a3b68d719d482610c53548361047f60009054906101000a900473ffffffffffffffffffffffffffffffffffffffff16604051612fd39493929190617a0a565b60405180910390a150505050565b60008042611049600085815260200190815260200160002060010154119050600073ffffffffffffffffffffffffffffffffffffffff16610c5960009054906101000a900473ffffffffffffffffffffffffffffffffffffffff1673ffffffffffffffffffffffffffffffffffffffff161461314c57610c5960009054906101000a900473ffffffffffffffffffffffffffffffffffffffff1673ffffffffffffffffffffffffffffffffffffffff1663427ede3830338661104960008981526020019081526020016000206001015461104460008a815260200190815260200160002060009054906101000a900473ffffffffffffffffffffffffffffffffffffffff16876040518763ffffffff1660e01b815260040161310896959493929190617a4f565b602060405180830381865afa158015613125573d6000803e3d6000fd5b505050506040513d601f19601f82011682018060405250810190613149919061766f565b90505b80915050919050565b60006131817fb89cdd26cddd51301940bf2715f765b626b8a5a9e2681ac62dc83cc2db2530c083612ce2565b9050919050565b61319182613b26565b61319b8233613e7b565b1580156131ae57506131ac33613155565b155b156131e5576040517f866c2fa700000000000000000000000000000000000000000000000000000000815260040160405180910390fd5b6131ef8282615343565b5050565b610c5f60009054906101000a900473ffffffffffffffffffffffffffffffffffffffff1681565b600061322583613b26565b6000613230846121b3565b905042811015613244576000915050613285565b6000808403613260574282613259919061713f565b9050613264565b8390505b61271061181a5482613276919061751c565b613280919061758d565b925050505b92915050565b6132968484846114a0565b6132a28484848461544f565b6132d8576040517f3f8ea15000000000000000000000000000000000000000000000000000000000815260040160405180910390fd5b50505050565b6114356020528060005260406000206000915090505481565b610c5e60009054906101000a900473ffffffffffffffffffffffffffffffffffffffff1681565b6000600d905090565b61332f6142fa565b6133597fb89cdd26cddd51301940bf2715f765b626b8a5a9e2681ac62dc83cc2db2530c082611655565b8073ffffffffffffffffffffffffffffffffffffffff167f91d5c045d5bd98bf59a379b259ebca05b93bf79af1845fdf87e3172385d4c7f760405160405180910390a250565b6000610c5c54905090565b6133b38261150d565b6133bc8161435c565b6133c68383614e98565b505050565b6133d3614451565b6133dc84613b26565b6133e7846000614fbc565b5060006134416133f6866121df565b8585858080601f016020809104026020016040519081016040528093929190818152602001838380828437600081840152601f19601f8201169050808301925050505050505061127f565b9050600073ffffffffffffffffffffffffffffffffffffffff1661047f60009054906101000a900473ffffffffffffffffffffffffffffffffffffffff1673ffffffffffffffffffffffffffffffffffffffff16146134a5576134a48682614776565b5b6134af81856147b4565b6134b9338261497b565b6134c38582614601565b6134cb614c7f565b6134d484614d34565b6134dd81614aba565b505050505050565b6134ed6142fa565b60008073ffffffffffffffffffffffffffffffffffffffff168473ffffffffffffffffffffffffffffffffffffffff160361352a574790506135a7565b8373ffffffffffffffffffffffffffffffffffffffff166370a08231306040518263ffffffff1660e01b815260040161356391906162d7565b602060405180830381865afa158015613580573d6000803e3d6000fd5b505050506040513d601f19601f820116820180604052508101906135a49190617253565b90505b6000808314806135b657508183115b156135fd57600082116135f5576040517f1f04ddc800000000000000000000000000000000000000000000000000000000815260040160405180910390fd5b819050613601565b8290505b8373ffffffffffffffffffffffffffffffffffffffff168573ffffffffffffffffffffffffffffffffffffffff163373ffffffffffffffffffffffffffffffffffffffff167f342e7ff505a8a0364cd0dc2ff195c315e43bce86b204846ecd36913e117b109e846040516136759190616522565b60405180910390a4613688858583615557565b5050505050565b6136976142fa565b8061143560008473ffffffffffffffffffffffffffffffffffffffff1673ffffffffffffffffffffffffffffffffffffffff168152602001908152602001600020819055508173ffffffffffffffffffffffffffffffffffffffff167fa027572bb55de556a0df93bd38c3871aaf311245c2cd34f0da045aa33a66dbc5826040516137229190616522565b60405180910390a25050565b600061104860008473ffffffffffffffffffffffffffffffffffffffff1673ffffffffffffffffffffffffffffffffffffffff16815260200190815260200160002060008373ffffffffffffffffffffffffffffffffffffffff1673ffffffffffffffffffffffffffffffffffffffff16815260200190815260200160002060009054906101000a900460ff16905092915050565b6137ed7fb89cdd26cddd51301940bf2715f765b626b8a5a9e2681ac62dc83cc2db2530c033611c7d565b3373ffffffffffffffffffffffffffffffffffffffff167f42885193b8178d25fca25a38e6fcc93918501e91be06d85e0c8afb3bad95238060405160405180910390a2565b61383a614451565b610c5554610c545411613879576040517f31af695100000000000000000000000000000000000000000000000000000000815260040160405180910390fd5b61388282613bbc565b61388b82613b7a565b61389361520a565b6000611044600084815260200190815260200160002060009054906101000a900473ffffffffffffffffffffffffffffffffffffffff169050600080426138d9866121b3565b6138e3919061713f565b905060006138f1868661321a565b90506000818661390191906172b7565b90508281101561391f5785935061391a87826000613d6e565b613983565b613929878461321a565b91508183613937919061713f565b935042611049600089815260200190815260200160002060010181905550867f59f2fe866dd27a1c2d34115520888c3150365cbc931aab97fa88c4b9ab40b79560405160405180910390a25b600061399c896000874261399791906172b7565b61449a565b9050808973ffffffffffffffffffffffffffffffffffffffff168773ffffffffffffffffffffffffffffffffffffffff167fddf252ad1be2c89b69c2b068fc378daa952ba7f163c4a11628f55a4df523b3ef60405160405180910390a4613a14868a836040518060200160405280600081525061544f565b613a4a576040517f3f8ea15000000000000000000000000000000000000000000000000000000000815260040160405180910390fd5b505050505050505050565b613a5d6142fa565b613a6561331e565b61ffff16610c5b81905550565b613a7a6142fa565b80611431819055507f4d816c1058de34c4241ba72c371fb3f2ea05147691b364f04d16bc967ae68a1181604051613ab19190616522565b60405180910390a150565b60007f01ffc9a7000000000000000000000000000000000000000000000000000000007bffffffffffffffffffffffffffffffffffffffffffffffffffffffff1916827bffffffffffffffffffffffffffffffffffffffffffffffffffffffff1916149050919050565b600061104960008381526020019081526020016000206000015403613b77576040517f78fe247300000000000000000000000000000000000000000000000000000000815260040160405180910390fd5b50565b613b8381612fe1565b613bb9576040517f0d9f4fae00000000000000000000000000000000000000000000000000000000815260040160405180910390fd5b50565b60008073ffffffffffffffffffffffffffffffffffffffff16611046600084815260200190815260200160002060009054906101000a900473ffffffffffffffffffffffffffffffffffffffff1673ffffffffffffffffffffffffffffffffffffffff1614613c5f57611046600083815260200190815260200160002060009054906101000a900473ffffffffffffffffffffffffffffffffffffffff16613c95565b611044600083815260200190815260200160002060009054906101000a900473ffffffffffffffffffffffffffffffffffffffff165b9050613ca033613155565b158015613cb45750613cb28233613e7b565b155b8015613d2057503373ffffffffffffffffffffffffffffffffffffffff16611047600084815260200190815260200160002060009054906101000a900473ffffffffffffffffffffffffffffffffffffffff1673ffffffffffffffffffffffffffffffffffffffff1614155b8015613d335750613d31813361372e565b155b15613d6a576040517fe17c6d4500000000000000000000000000000000000000000000000000000000815260040160405180910390fd5b5050565b613d7783613b26565b600061104960008581526020019081526020016000206001015490508115613dfa5742811115613dcd578281613dad91906172b7565b611049600086815260200190815260200160002060010181905550613df5565b8242613dd991906172b7565b6110496000868152602001908152602001600020600101819055505b613e22565b8281613e06919061713f565b6110496000868152602001908152602001600020600101819055505b837f3c907806849e9204e0e26bb095dfe4b3071576c4323f766735c548211556d0526110496000878152602001908152602001600020600101548585604051613e6d93929190617ab0565b60405180910390a250505050565b60008173ffffffffffffffffffffffffffffffffffffffff16611046600085815260200190815260200160002060009054906101000a900473ffffffffffffffffffffffffffffffffffffffff1673ffffffffffffffffffffffffffffffffffffffff161480613f8a57508173ffffffffffffffffffffffffffffffffffffffff16613f06846121df565b73ffffffffffffffffffffffffffffffffffffffff16148015613f895750600073ffffffffffffffffffffffffffffffffffffffff16611046600085815260200190815260200160002060009054906101000a900473ffffffffffffffffffffffffffffffffffffffff1673ffffffffffffffffffffffffffffffffffffffff16145b5b15613f985760019050613f9d565b600090505b92915050565b613fac81613b7a565b613fb461520a565b8273ffffffffffffffffffffffffffffffffffffffff16613fd4826121df565b73ffffffffffffffffffffffffffffffffffffffff1614614021576040517f075fd2b100000000000000000000000000000000000000000000000000000000815260040160405180910390fd5b600073ffffffffffffffffffffffffffffffffffffffff168273ffffffffffffffffffffffffffffffffffffffff1603614087576040517f5963709b00000000000000000000000000000000000000000000000000000000815260040160405180910390fd5b8173ffffffffffffffffffffffffffffffffffffffff168373ffffffffffffffffffffffffffffffffffffffff16036140ec576040517f3fbd1a4900000000000000000000000000000000000000000000000000000000815260040160405180910390fd5b614102816140fb83600061321a565b6000613d6e565b600061104960008381526020019081526020016000209050614123826121b3565b8160010181905550600061413684612a38565b0361415557611045600081548092919061414f90617431565b91905055505b61415e826155fa565b6141688284615810565b61417182615978565b60006114336000848152602001908152602001600020819055506000611432600084815260200190815260200160002081905550818373ffffffffffffffffffffffffffffffffffffffff168573ffffffffffffffffffffffffffffffffffffffff167fddf252ad1be2c89b69c2b068fc378daa952ba7f163c4a11628f55a4df523b3ef60405160405180910390a4600073ffffffffffffffffffffffffffffffffffffffff16610c5d60009054906101000a900473ffffffffffffffffffffffffffffffffffffffff1673ffffffffffffffffffffffffffffffffffffffff16146142f457610c5d60009054906101000a900473ffffffffffffffffffffffffffffffffffffffff1673ffffffffffffffffffffffffffffffffffffffff166375b37aef308433888887600101546040518763ffffffff1660e01b81526004016142c196959493929190617ae7565b600060405180830381600087803b1580156142db57600080fd5b505af11580156142ef573d6000803e3d6000fd5b505050505b50505050565b6143247fb89cdd26cddd51301940bf2715f765b626b8a5a9e2681ac62dc83cc2db2530c033612ce2565b61435a576040517f8e1b58c400000000000000000000000000000000000000000000000000000000815260040160405180910390fd5b565b61436d81614368614e90565b615a38565b50565b61437a8282612ce2565b61444d5760016065600084815260200190815260200160002060000160008373ffffffffffffffffffffffffffffffffffffffff1673ffffffffffffffffffffffffffffffffffffffff16815260200190815260200160002060006101000a81548160ff0219169083151502179055506143f2614e90565b73ffffffffffffffffffffffffffffffffffffffff168173ffffffffffffffffffffffffffffffffffffffff16837f2f8788117e7eff1d82e926ec794901d17c78024a50270940304540a733656f0d60405160405180910390a45b5050565b61445961331e565b61ffff16610c5b5414614498576040517fbab80ec000000000000000000000000000000000000000000000000000000000815260040160405180910390fd5b565b60008073ffffffffffffffffffffffffffffffffffffffff168473ffffffffffffffffffffffffffffffffffffffff1603614501576040517f5963709b00000000000000000000000000000000000000000000000000000000815260040160405180910390fd5b610c55600081548092919061451590617431565b9190505550610c5554905060405180604001604052808281526020018381525061104960008381526020019081526020016000206000820151816000015560208201518160010155905050600061456b85612a38565b0361458a57611045600081548092919061458490617431565b91905055505b6145948185615810565b61459e8184615343565b808473ffffffffffffffffffffffffffffffffffffffff16600073ffffffffffffffffffffffffffffffffffffffff167fddf252ad1be2c89b69c2b068fc378daa952ba7f163c4a11628f55a4df523b3ef60405160405180910390a49392505050565b806114326000848152602001908152602001600020541461463657806114326000848152602001908152602001600020819055505b610c52546114336000848152602001908152602001600020541461467157610c52546114336000848152602001908152602001600020819055505b61047f60009054906101000a900473ffffffffffffffffffffffffffffffffffffffff1673ffffffffffffffffffffffffffffffffffffffff16611434600084815260200190815260200160002060009054906101000a900473ffffffffffffffffffffffffffffffffffffffff1673ffffffffffffffffffffffffffffffffffffffff16146147725761047f60009054906101000a900473ffffffffffffffffffffffffffffffffffffffff16611434600084815260200190815260200160002060006101000a81548173ffffffffffffffffffffffffffffffffffffffff021916908373ffffffffffffffffffffffffffffffffffffffff1602179055505b5050565b808210156147b0576040517fc0017ec400000000000000000000000000000000000000000000000000000000815260040160405180910390fd5b5050565b6000610c5160009054906101000a900473ffffffffffffffffffffffffffffffffffffffff1673ffffffffffffffffffffffffffffffffffffffff163b111561490557610c5160009054906101000a900473ffffffffffffffffffffffffffffffffffffffff1673ffffffffffffffffffffffffffffffffffffffff1663939d9f1f620493e084846040518463ffffffff1660e01b8152600401614859929190617b48565b600060405180830381600088803b15801561487357600080fd5b5087f193505050508015614885575060015b6148ff573073ffffffffffffffffffffffffffffffffffffffff167f6b18946261693dfd6c760d986b28ad2238b5b0267f8e5b6bc40a2f998e2f20ac610c5160009054906101000a900473ffffffffffffffffffffffffffffffffffffffff166040516148f291906162d7565b60405180910390a2614900565b5b614977565b3073ffffffffffffffffffffffffffffffffffffffff167f6b18946261693dfd6c760d986b28ad2238b5b0267f8e5b6bc40a2f998e2f20ac610c5160009054906101000a900473ffffffffffffffffffffffffffffffffffffffff1660405161496e91906162d7565b60405180910390a25b5050565b600073ffffffffffffffffffffffffffffffffffffffff1661047f60009054906101000a900473ffffffffffffffffffffffffffffffffffffffff1673ffffffffffffffffffffffffffffffffffffffff1614614a7b5761047f60009054906101000a900473ffffffffffffffffffffffffffffffffffffffff1673ffffffffffffffffffffffffffffffffffffffff166323b872dd8330846040518463ffffffff1660e01b8152600401614a3293929190617b71565b6020604051808303816000875af1158015614a51573d6000803e3d6000fd5b505050506040513d601f19601f82011682018060405250810190614a75919061766f565b50614ab6565b80341015614ab5576040517f6c3cddf000000000000000000000000000000000000000000000000000000000815260040160405180910390fd5b5b5050565b600080610c5160009054906101000a900473ffffffffffffffffffffffffffffffffffffffff1673ffffffffffffffffffffffffffffffffffffffff163b1115614c7b57610c5160009054906101000a900473ffffffffffffffffffffffffffffffffffffffff1673ffffffffffffffffffffffffffffffffffffffff1663b0e21e8a6040518163ffffffff1660e01b8152600401602060405180830381865afa925050508015614b8957506040513d601f19601f82011682018060405250810190614b869190617253565b60015b614c03573073ffffffffffffffffffffffffffffffffffffffff167f6b18946261693dfd6c760d986b28ad2238b5b0267f8e5b6bc40a2f998e2f20ac610c5160009054906101000a900473ffffffffffffffffffffffffffffffffffffffff16604051614bf691906162d7565b60405180910390a2614c7a565b6127108184614c12919061751c565b614c1c919061758d565b915060008214614c7857614c7761047f60009054906101000a900473ffffffffffffffffffffffffffffffffffffffff16610c5160009054906101000a900473ffffffffffffffffffffffffffffffffffffffff1684615557565b5b505b5b5050565b60006114315414614d3257614cbb61047f60009054906101000a900473ffffffffffffffffffffffffffffffffffffffff163361143154615557565b3373ffffffffffffffffffffffffffffffffffffffff167f522a883b471164223f18b50f326da8671372b64b4792eac0e63d447e714c3e3b6114315461047f60009054906101000a900473ffffffffffffffffffffffffffffffffffffffff16604051614d29929190617b48565b60405180910390a25b565b600073ffffffffffffffffffffffffffffffffffffffff168173ffffffffffffffffffffffffffffffffffffffff1614614e8d57600061143560008073ffffffffffffffffffffffffffffffffffffffff1673ffffffffffffffffffffffffffffffffffffffff168152602001908152602001600020549050600061143560008473ffffffffffffffffffffffffffffffffffffffff1673ffffffffffffffffffffffffffffffffffffffff1681526020019081526020016000205414614e395761143560008373ffffffffffffffffffffffffffffffffffffffff1673ffffffffffffffffffffffffffffffffffffffff1681526020019081526020016000205490505b60008114614e8b57614e8a61047f60009054906101000a900473ffffffffffffffffffffffffffffffffffffffff168361271084610c5354614e7b919061751c565b614e85919061758d565b615557565b5b505b50565b600033905090565b614ea28282612ce2565b15614f765760006065600084815260200190815260200160002060000160008373ffffffffffffffffffffffffffffffffffffffff1673ffffffffffffffffffffffffffffffffffffffff16815260200190815260200160002060006101000a81548160ff021916908315150217905550614f1b614e90565b73ffffffffffffffffffffffffffffffffffffffff168173ffffffffffffffffffffffffffffffffffffffff16837ff6391f5c32d9c69d2a47ea670b442974b53935d1edc7fd64eb21e047a839171b60405160405180910390a45b5050565b4261104960008381526020019081526020016000206001018190555050565b6000808273ffffffffffffffffffffffffffffffffffffffff163b119050919050565b60008061104960008581526020019081526020016000206001015490507fffffffffffffffffffffffffffffffffffffffffffffffffffffffffffffffff8103615032576040517f1fda338200000000000000000000000000000000000000000000000000000000815260040160405180910390fd5b60008084146150415783615046565b610c52545b90507fffffffffffffffffffffffffffffffffffffffffffffffffffffffffffffffff8103615097577fffffffffffffffffffffffffffffffffffffffffffffffffffffffffffffffff92506150c2565b428211156150b25780826150ab91906172b7565b92506150c1565b80426150be91906172b7565b92505b5b82611049600087815260200190815260200160002060010181905550847f3ca112768ff7861e008ace1c11570c52e404c043e585545b5957a1e20961dde38460405161510e9190616522565b60405180910390a2600073ffffffffffffffffffffffffffffffffffffffff16610c5e60009054906101000a900473ffffffffffffffffffffffffffffffffffffffff1673ffffffffffffffffffffffffffffffffffffffff161461520257610c5e60009054906101000a900473ffffffffffffffffffffffffffffffffffffffff1673ffffffffffffffffffffffffffffffffffffffff1663016b9680863386866040518563ffffffff1660e01b81526004016151cf9493929190617ba8565b600060405180830381600087803b1580156151e957600080fd5b505af11580156151fd573d6000803e3d6000fd5b505050505b505092915050565b61271061181a5410158015615225575061522333613155565b155b1561525c576040517f8fc868f400000000000000000000000000000000000000000000000000000000815260040160405180910390fd5b565b600073ffffffffffffffffffffffffffffffffffffffff168173ffffffffffffffffffffffffffffffffffffffff1614158015615309575060008173ffffffffffffffffffffffffffffffffffffffff166318160ddd6040518163ffffffff1660e01b8152600401602060405180830381865afa1580156152e3573d6000803e3d6000fd5b505050506040513d601f19601f820116820180604052508101906153079190617253565b105b15615340576040517fd0995cf200000000000000000000000000000000000000000000000000000000815260040160405180910390fd5b50565b8073ffffffffffffffffffffffffffffffffffffffff16611046600084815260200190815260200160002060009054906101000a900473ffffffffffffffffffffffffffffffffffffffff1673ffffffffffffffffffffffffffffffffffffffff161461544b5780611046600084815260200190815260200160002060006101000a81548173ffffffffffffffffffffffffffffffffffffffff021916908373ffffffffffffffffffffffffffffffffffffffff16021790555061540682615978565b8073ffffffffffffffffffffffffffffffffffffffff16827f9d2895c45a420624de863a2f437b022d879f457bf7a829044055a10c5a6fd5e360405160405180910390a35b5050565b60006154708473ffffffffffffffffffffffffffffffffffffffff16614f99565b61547d576001905061554f565b60008473ffffffffffffffffffffffffffffffffffffffff1663150b7a02338887876040518563ffffffff1660e01b81526004016154be9493929190617bed565b6020604051808303816000875af11580156154dd573d6000803e3d6000fd5b505050506040513d601f19601f820116820180604052508101906155019190617c4e565b905063150b7a0260e01b7bffffffffffffffffffffffffffffffffffffffffffffffffffffffff1916817bffffffffffffffffffffffffffffffffffffffffffffffffffffffff1916149150505b949350505050565b60008111156155f557600073ffffffffffffffffffffffffffffffffffffffff168373ffffffffffffffffffffffffffffffffffffffff16036155c2576155bd818373ffffffffffffffffffffffffffffffffffffffff16615abd90919063ffffffff16565b6155f4565b60008390506155f283838373ffffffffffffffffffffffffffffffffffffffff16615bb19092919063ffffffff16565b505b5b505050565b6000611044600083815260200190815260200160002060009054906101000a900473ffffffffffffffffffffffffffffffffffffffff1690506000600161564083612a38565b61564a919061713f565b9050600061104b600085815260200190815260200160002054905081811461573357600061104a60008573ffffffffffffffffffffffffffffffffffffffff1673ffffffffffffffffffffffffffffffffffffffff16815260200190815260200160002060008481526020019081526020016000205490508061104a60008673ffffffffffffffffffffffffffffffffffffffff1673ffffffffffffffffffffffffffffffffffffffff1681526020019081526020016000206000848152602001908152602001600020819055508161104b600083815260200190815260200160002081905550505b61104a60008473ffffffffffffffffffffffffffffffffffffffff1673ffffffffffffffffffffffffffffffffffffffff168152602001908152602001600020600083815260200190815260200160002060009055600161579384612a38565b036157b25761104560008154809291906157ac90617c7b565b91905055505b600161104c60008573ffffffffffffffffffffffffffffffffffffffff1673ffffffffffffffffffffffffffffffffffffffff1681526020019081526020016000206000828254615803919061713f565b9250508190555050505050565b600061581b82612a38565b9050610c5c548110615859576040517f17ed864600000000000000000000000000000000000000000000000000000000815260040160405180910390fd5b8061104b6000858152602001908152602001600020819055508261104a60008473ffffffffffffffffffffffffffffffffffffffff1673ffffffffffffffffffffffffffffffffffffffff16815260200190815260200160002060008381526020019081526020016000208190555081611044600085815260200190815260200160002060006101000a81548173ffffffffffffffffffffffffffffffffffffffff021916908373ffffffffffffffffffffffffffffffffffffffff160217905550600161104c60008473ffffffffffffffffffffffffffffffffffffffff1673ffffffffffffffffffffffffffffffffffffffff168152602001908152602001600020600082825461596c91906172b7565b92505081905550505050565b600073ffffffffffffffffffffffffffffffffffffffff16611047600083815260200190815260200160002060009054906101000a900473ffffffffffffffffffffffffffffffffffffffff1673ffffffffffffffffffffffffffffffffffffffff1614615a35576000611047600083815260200190815260200160002060006101000a81548173ffffffffffffffffffffffffffffffffffffffff021916908373ffffffffffffffffffffffffffffffffffffffff1602179055505b50565b615a428282612ce2565b615ab957615a4f81615c37565b615a5d8360001c6020615c64565b604051602001615a6e929190617d83565b6040516020818303038152906040526040517f08c379a0000000000000000000000000000000000000000000000000000000008152600401615ab09190617df6565b60405180910390fd5b5050565b80471015615b00576040517f08c379a0000000000000000000000000000000000000000000000000000000008152600401615af790617e64565b60405180910390fd5b60008273ffffffffffffffffffffffffffffffffffffffff1682604051615b2690617eb5565b60006040518083038185875af1925050503d8060008114615b63576040519150601f19603f3d011682016040523d82523d6000602084013e615b68565b606091505b5050905080615bac576040517f08c379a0000000000000000000000000000000000000000000000000000000008152600401615ba390617f3c565b60405180910390fd5b505050565b615c328363a9059cbb60e01b8484604051602401615bd0929190617f5c565b604051602081830303815290604052907bffffffffffffffffffffffffffffffffffffffffffffffffffffffff19166020820180517bffffffffffffffffffffffffffffffffffffffffffffffffffffffff8381831617835250505050615ea0565b505050565b6060615c5d8273ffffffffffffffffffffffffffffffffffffffff16601460ff16615c64565b9050919050565b606060006002836002615c77919061751c565b615c8191906172b7565b67ffffffffffffffff811115615c9a57615c99616379565b5b6040519080825280601f01601f191660200182016040528015615ccc5781602001600182028036833780820191505090505b5090507f300000000000000000000000000000000000000000000000000000000000000081600081518110615d0457615d036172eb565b5b60200101907effffffffffffffffffffffffffffffffffffffffffffffffffffffffffffff1916908160001a9053507f780000000000000000000000000000000000000000000000000000000000000081600181518110615d6857615d676172eb565b5b60200101907effffffffffffffffffffffffffffffffffffffffffffffffffffffffffffff1916908160001a90535060006001846002615da8919061751c565b615db291906172b7565b90505b6001811115615e52577f3031323334353637383961626364656600000000000000000000000000000000600f861660108110615df457615df36172eb565b5b1a60f81b828281518110615e0b57615e0a6172eb565b5b60200101907effffffffffffffffffffffffffffffffffffffffffffffffffffffffffffff1916908160001a905350600485901c945080615e4b90617c7b565b9050615db5565b5060008414615e96576040517f08c379a0000000000000000000000000000000000000000000000000000000008152600401615e8d90617fd1565b60405180910390fd5b8091505092915050565b6000615f02826040518060400160405280602081526020017f5361666545524332303a206c6f772d6c6576656c2063616c6c206661696c65648152508573ffffffffffffffffffffffffffffffffffffffff16615f679092919063ffffffff16565b9050600081511115615f625780806020019051810190615f22919061766f565b615f61576040517f08c379a0000000000000000000000000000000000000000000000000000000008152600401615f5890618063565b60405180910390fd5b5b505050565b6060615f768484600085615f7f565b90509392505050565b606082471015615fc4576040517f08c379a0000000000000000000000000000000000000000000000000000000008152600401615fbb906180f5565b60405180910390fd5b6000808673ffffffffffffffffffffffffffffffffffffffff168587604051615fed9190618146565b60006040518083038185875af1925050503d806000811461602a576040519150601f19603f3d011682016040523d82523d6000602084013e61602f565b606091505b50915091506160408783838761604c565b92505050949350505050565b606083156160ae5760008351036160a65761606685614f99565b6160a5576040517f08c379a000000000000000000000000000000000000000000000000000000000815260040161609c906181a9565b60405180910390fd5b5b8290506160b9565b6160b883836160c1565b5b949350505050565b6000825111156160d45781518083602001fd5b806040517f08c379a00000000000000000000000000000000000000000000000000000000081526004016161089190617df6565b60405180910390fd5b6000604051905090565b600080fd5b600080fd5b60007fffffffff0000000000000000000000000000000000000000000000000000000082169050919050565b61615a81616125565b811461616557600080fd5b50565b60008135905061617781616151565b92915050565b6000602082840312156161935761619261611b565b5b60006161a184828501616168565b91505092915050565b60008115159050919050565b6161bf816161aa565b82525050565b60006020820190506161da60008301846161b6565b92915050565b6000819050919050565b6161f3816161e0565b81146161fe57600080fd5b50565b600081359050616210816161ea565b92915050565b60008060006060848603121561622f5761622e61611b565b5b600061623d86828701616201565b935050602061624e86828701616201565b925050604061625f86828701616201565b9150509250925092565b60006020828403121561627f5761627e61611b565b5b600061628d84828501616201565b91505092915050565b600073ffffffffffffffffffffffffffffffffffffffff82169050919050565b60006162c182616296565b9050919050565b6162d1816162b6565b82525050565b60006020820190506162ec60008301846162c8565b92915050565b6162fb816162b6565b811461630657600080fd5b50565b600081359050616318816162f2565b92915050565b600080604083850312156163355761633461611b565b5b600061634385828601616309565b925050602061635485828601616201565b9150509250929050565b600080fd5b600080fd5b6000601f19601f8301169050919050565b7f4e487b7100000000000000000000000000000000000000000000000000000000600052604160045260246000fd5b6163b182616368565b810181811067ffffffffffffffff821117156163d0576163cf616379565b5b80604052505050565b60006163e3616111565b90506163ef82826163a8565b919050565b600067ffffffffffffffff82111561640f5761640e616379565b5b61641882616368565b9050602081019050919050565b82818337600083830152505050565b6000616447616442846163f4565b6163d9565b90508281526020810184848401111561646357616462616363565b5b61646e848285616425565b509392505050565b600082601f83011261648b5761648a61635e565b5b813561649b848260208601616434565b91505092915050565b6000806000606084860312156164bd576164bc61611b565b5b60006164cb86828701616309565b93505060206164dc86828701616309565b925050604084013567ffffffffffffffff8111156164fd576164fc616120565b5b61650986828701616476565b9150509250925092565b61651c816161e0565b82525050565b60006020820190506165376000830184616513565b92915050565b6000806000606084860312156165565761655561611b565b5b600061656486828701616309565b935050602061657586828701616309565b925050604061658686828701616201565b9150509250925092565b6000819050919050565b60006165b56165b06165ab84616296565b616590565b616296565b9050919050565b60006165c78261659a565b9050919050565b60006165d9826165bc565b9050919050565b6165e9816165ce565b82525050565b600060208201905061660460008301846165e0565b92915050565b6000616615826165bc565b9050919050565b6166258161660a565b82525050565b6000602082019050616640600083018461661c565b92915050565b6000819050919050565b61665981616646565b811461666457600080fd5b50565b60008135905061667681616650565b92915050565b6000602082840312156166925761669161611b565b5b60006166a084828501616667565b91505092915050565b6166b281616646565b82525050565b60006020820190506166cd60008301846166a9565b92915050565b60006166de826165bc565b9050919050565b6166ee816166d3565b82525050565b600060208201905061670960008301846166e5565b92915050565b600061671a826165bc565b9050919050565b61672a8161670f565b82525050565b60006020820190506167456000830184616721565b92915050565b600080604083850312156167625761676161611b565b5b600061677085828601616667565b925050602061678185828601616309565b9150509250929050565b600067ffffffffffffffff8211156167a6576167a5616379565b5b602082029050602081019050919050565b600080fd5b60006167cf6167ca8461678b565b6163d9565b905080838252602082019050602084028301858111156167f2576167f16167b7565b5b835b8181101561681b57806168078882616201565b8452602084019350506020810190506167f4565b5050509392505050565b600082601f83011261683a5761683961635e565b5b813561684a8482602086016167bc565b91505092915050565b600067ffffffffffffffff82111561686e5761686d616379565b5b602082029050602081019050919050565b600061689261688d84616853565b6163d9565b905080838252602082019050602084028301858111156168b5576168b46167b7565b5b835b818110156168de57806168ca8882616309565b8452602084019350506020810190506168b7565b5050509392505050565b600082601f8301126168fd576168fc61635e565b5b813561690d84826020860161687f565b91505092915050565b600080fd5b60008083601f8401126169315761693061635e565b5b8235905067ffffffffffffffff81111561694e5761694d616916565b5b60208301915083602082028301111561696a576169696167b7565b5b9250929050565b60008060008060008060a0878903121561698e5761698d61611b565b5b600087013567ffffffffffffffff8111156169ac576169ab616120565b5b6169b889828a01616825565b965050602087013567ffffffffffffffff8111156169d9576169d8616120565b5b6169e589828a016168e8565b955050604087013567ffffffffffffffff811115616a0657616a05616120565b5b616a1289828a016168e8565b945050606087013567ffffffffffffffff811115616a3357616a32616120565b5b616a3f89828a016168e8565b935050608087013567ffffffffffffffff811115616a6057616a5f616120565b5b616a6c89828a0161691b565b92509250509295509295509295565b600081519050919050565b600082825260208201905092915050565b6000819050602082019050919050565b616ab0816161e0565b82525050565b6000616ac28383616aa7565b60208301905092915050565b6000602082019050919050565b6000616ae682616a7b565b616af08185616a86565b9350616afb83616a97565b8060005b83811015616b2c578151616b138882616ab6565b9750616b1e83616ace565b925050600181019050616aff565b5085935050505092915050565b60006020820190508181036000830152616b538184616adb565b905092915050565b6000616b66826165bc565b9050919050565b616b7681616b5b565b82525050565b6000602082019050616b916000830184616b6d565b92915050565b60008060408385031215616bae57616bad61611b565b5b6000616bbc85828601616201565b9250506020616bcd85828601616309565b9150509250929050565b600060208284031215616bed57616bec61611b565b5b6000616bfb84828501616309565b91505092915050565b600080600080600080600060e0888a031215616c2357616c2261611b565b5b6000616c318a828b01616309565b9750506020616c428a828b01616309565b9650506040616c538a828b01616309565b9550506060616c648a828b01616309565b9450506080616c758a828b01616309565b93505060a0616c868a828b01616309565b92505060c0616c978a828b01616309565b91505092959891949750929550565b6000616cb1826165bc565b9050919050565b616cc181616ca6565b82525050565b6000602082019050616cdc6000830184616cb8565b92915050565b60008083601f840112616cf857616cf761635e565b5b8235905067ffffffffffffffff811115616d1557616d14616916565b5b602083019150836001820283011115616d3157616d306167b7565b5b9250929050565b60008060208385031215616d4f57616d4e61611b565b5b600083013567ffffffffffffffff811115616d6d57616d6c616120565b5b616d7985828601616ce2565b92509250509250929050565b616d8e816161aa565b8114616d9957600080fd5b50565b600081359050616dab81616d85565b92915050565b60008060408385031215616dc857616dc761611b565b5b6000616dd685828601616309565b9250506020616de785828601616d9c565b9150509250929050565b6000616dfc826165bc565b9050919050565b616e0c81616df1565b82525050565b6000602082019050616e276000830184616e03565b92915050565b60008060408385031215616e4457616e4361611b565b5b6000616e5285828601616201565b9250506020616e6385828601616201565b9150509250929050565b60008060008060808587031215616e8757616e8661611b565b5b6000616e9587828801616309565b9450506020616ea687828801616309565b9350506040616eb787828801616201565b925050606085013567ffffffffffffffff811115616ed857616ed7616120565b5b616ee487828801616476565b91505092959194509250565b6000616efb826165bc565b9050919050565b616f0b81616ef0565b82525050565b6000602082019050616f266000830184616f02565b92915050565b600061ffff82169050919050565b616f4381616f2c565b82525050565b6000602082019050616f5e6000830184616f3a565b92915050565b600080600080600060808688031215616f8057616f7f61611b565b5b6000616f8e88828901616201565b9550506020616f9f88828901616201565b9450506040616fb088828901616309565b935050606086013567ffffffffffffffff811115616fd157616fd0616120565b5b616fdd88828901616ce2565b92509250509295509295909350565b6000616ff782616296565b9050919050565b61700781616fec565b811461701257600080fd5b50565b60008135905061702481616ffe565b92915050565b6000806000606084860312156170435761704261611b565b5b600061705186828701616309565b935050602061706286828701617015565b925050604061707386828701616201565b9150509250925092565b600080604083850312156170945761709361611b565b5b60006170a285828601616309565b92505060206170b385828601616309565b9150509250929050565b6000806000606084860312156170d6576170d561611b565b5b60006170e486828701616309565b93505060206170f586828701616201565b925050604061710686828701616201565b9150509250925092565b7f4e487b7100000000000000000000000000000000000000000000000000000000600052601160045260246000fd5b600061714a826161e0565b9150617155836161e0565b925082820390508181111561716d5761716c617110565b5b92915050565b600081519050919050565b600082825260208201905092915050565b60005b838110156171ad578082015181840152602081019050617192565b60008484015250505050565b60006171c482617173565b6171ce818561717e565b93506171de81856020860161718f565b6171e781616368565b840191505092915050565b600060808201905061720760008301876162c8565b61721460208301866162c8565b61722160408301856162c8565b818103606083015261723381846171b9565b905095945050505050565b60008151905061724d816161ea565b92915050565b6000602082840312156172695761726861611b565b5b60006172778482850161723e565b91505092915050565b60006060820190506172956000830186616513565b6172a26020830185616513565b6172af6040830184616513565b949350505050565b60006172c2826161e0565b91506172cd836161e0565b92508282019050808211156172e5576172e4617110565b5b92915050565b7f4e487b7100000000000000000000000000000000000000000000000000000000600052603260045260246000fd5b600080fd5b600080fd5b600080fd5b600080833560016020038436030381126173465761734561731a565b5b80840192508235915067ffffffffffffffff8211156173685761736761731f565b5b60208301925060018202360383131561738457617383617324565b5b509250929050565b6000617398838561717e565b93506173a5838584616425565b6173ae83616368565b840190509392505050565b600060e0820190506173ce600083018b616513565b6173db602083018a6162c8565b6173e860408301896162c8565b6173f560608301886162c8565b818103608083015261740881868861738c565b905061741760a0830185616513565b61742460c0830184616513565b9998505050505050505050565b600061743c826161e0565b91507fffffffffffffffffffffffffffffffffffffffffffffffffffffffffffffffff820361746e5761746d617110565b5b600182019050919050565b600082825260208201905092915050565b7f416363657373436f6e74726f6c3a2063616e206f6e6c792072656e6f756e636560008201527f20726f6c657320666f722073656c660000000000000000000000000000000000602082015250565b60006174e6602f83617479565b91506174f18261748a565b604082019050919050565b60006020820190508181036000830152617515816174d9565b9050919050565b6000617527826161e0565b9150617532836161e0565b9250828202617540816161e0565b9150828204841483151761755757617556617110565b5b5092915050565b7f4e487b7100000000000000000000000000000000000000000000000000000000600052601260045260246000fd5b6000617598826161e0565b91506175a3836161e0565b9250826175b3576175b261755e565b5b828204905092915050565b6000819050919050565b60006175e36175de6175d9846175be565b616590565b6161e0565b9050919050565b6175f3816175c8565b82525050565b600060c08201905061760e60008301896162c8565b61761b60208301886162c8565b61762860408301876175ea565b61763560608301866175ea565b61764260808301856162c8565b61764f60a08301846161b6565b979650505050505050565b60008151905061766981616d85565b92915050565b6000602082840312156176855761768461611b565b5b60006176938482850161765a565b91505092915050565b600060ff82169050919050565b60006176c46176bf6176ba846175be565b616590565b61769c565b9050919050565b6176d4816176a9565b82525050565b60006020820190506176ef60008301846176cb565b92915050565b6000819050919050565b600061771a617715617710846176f5565b616590565b61769c565b9050919050565b61772a816176ff565b82525050565b60006020820190506177456000830184617721565b92915050565b6000819050919050565b600061777061776b6177668461774b565b616590565b61769c565b9050919050565b61778081617755565b82525050565b600060208201905061779b6000830184617777565b92915050565b6000819050919050565b60006177c66177c16177bc846177a1565b616590565b61769c565b9050919050565b6177d6816177ab565b82525050565b60006020820190506177f160008301846177cd565b92915050565b6000819050919050565b600061781c617817617812846177f7565b616590565b61769c565b9050919050565b61782c81617801565b82525050565b60006020820190506178476000830184617823565b92915050565b6000819050919050565b600061787261786d6178688461784d565b616590565b61769c565b9050919050565b61788281617857565b82525050565b600060208201905061789d6000830184617879565b92915050565b6000819050919050565b60006178c86178c36178be846178a3565b616590565b61769c565b9050919050565b6178d8816178ad565b82525050565b60006020820190506178f360008301846178cf565b92915050565b600060e08201905061790e600083018a6162c8565b61791b60208301896162c8565b61792860408301886162c8565b61793560608301876162c8565b61794260808301866162c8565b61794f60a08301856162c8565b61795c60c08301846162c8565b98975050505050505050565b600061797382616f2c565b915061797e83616f2c565b9250828203905061ffff81111561799857617997617110565b5b92915050565b7f534348454d415f56455253494f4e5f4e4f545f434f5252454354000000000000600082015250565b60006179d4601a83617479565b91506179df8261799e565b602082019050919050565b60006020820190508181036000830152617a03816179c7565b9050919050565b6000608082019050617a1f6000830187616513565b617a2c6020830186616513565b617a3960408301856162c8565b617a4660608301846162c8565b95945050505050565b600060c082019050617a6460008301896162c8565b617a7160208301886162c8565b617a7e6040830187616513565b617a8b6060830186616513565b617a9860808301856162c8565b617aa560a08301846161b6565b979650505050505050565b6000606082019050617ac56000830186616513565b617ad26020830185616513565b617adf60408301846161b6565b949350505050565b600060c082019050617afc60008301896162c8565b617b096020830188616513565b617b1660408301876162c8565b617b2360608301866162c8565b617b3060808301856162c8565b617b3d60a0830184616513565b979650505050505050565b6000604082019050617b5d6000830185616513565b617b6a60208301846162c8565b9392505050565b6000606082019050617b8660008301866162c8565b617b9360208301856162c8565b617ba06040830184616513565b949350505050565b6000608082019050617bbd6000830187616513565b617bca60208301866162c8565b617bd76040830185616513565b617be46060830184616513565b95945050505050565b6000608082019050617c0260008301876162c8565b617c0f60208301866162c8565b617c1c6040830185616513565b8181036060830152617c2e81846171b9565b905095945050505050565b600081519050617c4881616151565b92915050565b600060208284031215617c6457617c6361611b565b5b6000617c7284828501617c39565b91505092915050565b6000617c86826161e0565b915060008203617c9957617c98617110565b5b600182039050919050565b600081905092915050565b7f416363657373436f6e74726f6c3a206163636f756e7420000000000000000000600082015250565b6000617ce5601783617ca4565b9150617cf082617caf565b601782019050919050565b600081519050919050565b6000617d1182617cfb565b617d1b8185617ca4565b9350617d2b81856020860161718f565b80840191505092915050565b7f206973206d697373696e6720726f6c6520000000000000000000000000000000600082015250565b6000617d6d601183617ca4565b9150617d7882617d37565b601182019050919050565b6000617d8e82617cd8565b9150617d9a8285617d06565b9150617da582617d60565b9150617db18284617d06565b91508190509392505050565b6000617dc882617cfb565b617dd28185617479565b9350617de281856020860161718f565b617deb81616368565b840191505092915050565b60006020820190508181036000830152617e108184617dbd565b905092915050565b7f416464726573733a20696e73756666696369656e742062616c616e6365000000600082015250565b6000617e4e601d83617479565b9150617e5982617e18565b602082019050919050565b60006020820190508181036000830152617e7d81617e41565b9050919050565b600081905092915050565b50565b6000617e9f600083617e84565b9150617eaa82617e8f565b600082019050919050565b6000617ec082617e92565b9150819050919050565b7f416464726573733a20756e61626c6520746f2073656e642076616c75652c207260008201527f6563697069656e74206d61792068617665207265766572746564000000000000602082015250565b6000617f26603a83617479565b9150617f3182617eca565b604082019050919050565b60006020820190508181036000830152617f5581617f19565b9050919050565b6000604082019050617f7160008301856162c8565b617f7e6020830184616513565b9392505050565b7f537472696e67733a20686578206c656e67746820696e73756666696369656e74600082015250565b6000617fbb602083617479565b9150617fc682617f85565b602082019050919050565b60006020820190508181036000830152617fea81617fae565b9050919050565b7f5361666545524332303a204552433230206f7065726174696f6e20646964206e60008201527f6f74207375636365656400000000000000000000000000000000000000000000602082015250565b600061804d602a83617479565b915061805882617ff1565b604082019050919050565b6000602082019050818103600083015261807c81618040565b9050919050565b7f416464726573733a20696e73756666696369656e742062616c616e636520666f60008201527f722063616c6c0000000000000000000000000000000000000000000000000000602082015250565b60006180df602683617479565b91506180ea82618083565b604082019050919050565b6000602082019050818103600083015261810e816180d2565b9050919050565b600061812082617173565b61812a8185617e84565b935061813a81856020860161718f565b80840191505092915050565b60006181528284618115565b915081905092915050565b7f416464726573733a2063616c6c20746f206e6f6e2d636f6e7472616374000000600082015250565b6000618193601d83617479565b915061819e8261815d565b602082019050919050565b600060208201905081810360008301526181c281618186565b905091905056fea26469706673582212200f64c04c30af65e9c9d4a7b3fa3924ff851810831aec1c7e8c64e5cb1347d3d064736f6c63430008120033",
			"opcodes": "PUSH1 0x80 PUSH1 0x40 MSTORE CALLVALUE DUP1 ISZERO PUSH3 0x11 JUMPI PUSH1 0x0 DUP1 REVERT JUMPDEST POP PUSH2 0x81FF DUP1 PUSH3 0x22 PUSH1 0x0 CODECOPY PUSH1 0x0 RETURN INVALID PUSH1 0x80 PUSH1 0x40 MSTORE PUSH1 0x4 CALLDATASIZE LT PUSH2 0x3D9 JUMPI PUSH1 0x0 CALLDATALOAD PUSH1 0xE0 SHR DUP1 PUSH4 0x74B6C106 GT PUSH2 0x1FD JUMPI DUP1 PUSH4 0xB129694E GT PUSH2 0x118 JUMPI DUP1 PUSH4 0xD547741F GT PUSH2 0xAB JUMPI DUP1 PUSH4 0xE985E9C5 GT PUSH2 0x7A JUMPI DUP1 PUSH4 0xE985E9C5 EQ PUSH2 0xF19 JUMPI DUP1 PUSH4 0xF0BA6040 EQ PUSH2 0xF56 JUMPI DUP1 PUSH4 0xF12C6B6E EQ PUSH2 0xF6D JUMPI DUP1 PUSH4 0xF32E8B24 EQ PUSH2 0xF96 JUMPI DUP1 PUSH4 0xF5766B39 EQ PUSH2 0xFAD JUMPI PUSH2 0x3D9 JUMP JUMPDEST DUP1 PUSH4 0xD547741F EQ PUSH2 0xE82 JUMPI DUP1 PUSH4 0xD813CC19 EQ PUSH2 0xEAB JUMPI DUP1 PUSH4 0xD9CAED12 EQ PUSH2 0xEC7 JUMPI DUP1 PUSH4 0xDEBE2B0D EQ PUSH2 0xEF0 JUMPI PUSH2 0x3D9 JUMP JUMPDEST DUP1 PUSH4 0xC907C3EC GT PUSH2 0xE7 JUMPI DUP1 PUSH4 0xC907C3EC EQ PUSH2 0xDD8 JUMPI DUP1 PUSH4 0xD1BBD49C EQ PUSH2 0xE03 JUMPI DUP1 PUSH4 0xD2503485 EQ PUSH2 0xE2E JUMPI DUP1 PUSH4 0xD52E4A10 EQ PUSH2 0xE57 JUMPI PUSH2 0x3D9 JUMP JUMPDEST DUP1 PUSH4 0xB129694E EQ PUSH2 0xD0A JUMPI DUP1 PUSH4 0xB1A3B25D EQ PUSH2 0xD35 JUMPI DUP1 PUSH4 0xB88D4FDE EQ PUSH2 0xD72 JUMPI DUP1 PUSH4 0xC23135DD EQ PUSH2 0xD9B JUMPI PUSH2 0x3D9 JUMP JUMPDEST DUP1 PUSH4 0x93FD1844 GT PUSH2 0x190 JUMPI DUP1 PUSH4 0xA2E4CD2E GT PUSH2 0x15F JUMPI DUP1 PUSH4 0xA2E4CD2E EQ PUSH2 0xC3E JUMPI DUP1 PUSH4 0xA98D3623 EQ PUSH2 0xC67 JUMPI DUP1 PUSH4 0xAAE4B8F7 EQ PUSH2 0xCA4 JUMPI DUP1 PUSH4 0xB11D7EC1 EQ PUSH2 0xCE1 JUMPI PUSH2 0x3D9 JUMP JUMPDEST DUP1 PUSH4 0x93FD1844 EQ PUSH2 0xB94 JUMPI DUP1 PUSH4 0x9D76EA58 EQ PUSH2 0xBBF JUMPI DUP1 PUSH4 0xA217FDDF EQ PUSH2 0xBEA JUMPI DUP1 PUSH4 0xA22CB465 EQ PUSH2 0xC15 JUMPI PUSH2 0x3D9 JUMP JUMPDEST DUP1 PUSH4 0x8505FE95 GT PUSH2 0x1CC JUMPI DUP1 PUSH4 0x8505FE95 EQ PUSH2 0xADC JUMPI DUP1 PUSH4 0x8577A6D5 EQ PUSH2 0xB05 JUMPI DUP1 PUSH4 0x8932A90D EQ PUSH2 0xB2E JUMPI DUP1 PUSH4 0x91D14854 EQ PUSH2 0xB57 JUMPI PUSH2 0x3D9 JUMP JUMPDEST DUP1 PUSH4 0x74B6C106 EQ PUSH2 0xA20 JUMPI DUP1 PUSH4 0x74CAC47D EQ PUSH2 0xA4B JUMPI DUP1 PUSH4 0x7EC2A724 EQ PUSH2 0xA74 JUMPI DUP1 PUSH4 0x812EECD4 EQ PUSH2 0xA9F JUMPI PUSH2 0x3D9 JUMP JUMPDEST DUP1 PUSH4 0x2D33DD5B GT PUSH2 0x2F8 JUMPI DUP1 PUSH4 0x42966C68 GT PUSH2 0x28B JUMPI DUP1 PUSH4 0x54B249FB GT PUSH2 0x25A JUMPI DUP1 PUSH4 0x54B249FB EQ PUSH2 0x901 JUMPI DUP1 PUSH4 0x6207A8DA EQ PUSH2 0x93E JUMPI DUP1 PUSH4 0x6352211E EQ PUSH2 0x969 JUMPI DUP1 PUSH4 0x6D8EA5B4 EQ PUSH2 0x9A6 JUMPI DUP1 PUSH4 0x70A08231 EQ PUSH2 0x9E3 JUMPI PUSH2 0x3D9 JUMP JUMPDEST DUP1 PUSH4 0x42966C68 EQ PUSH2 0x833 JUMPI DUP1 PUSH4 0x4D025FED EQ PUSH2 0x85C JUMPI DUP1 PUSH4 0x4E2CE6D3 EQ PUSH2 0x899 JUMPI DUP1 PUSH4 0x50878A47 EQ PUSH2 0x8C4 JUMPI PUSH2 0x3D9 JUMP JUMPDEST DUP1 PUSH4 0x36568ABE GT PUSH2 0x2C7 JUMPI DUP1 PUSH4 0x36568ABE EQ PUSH2 0x78D JUMPI DUP1 PUSH4 0x389F07E8 EQ PUSH2 0x7B6 JUMPI DUP1 PUSH4 0x407DC589 EQ PUSH2 0x7E1 JUMPI DUP1 PUSH4 0x42842E0E EQ PUSH2 0x80A JUMPI PUSH2 0x3D9 JUMP JUMPDEST DUP1 PUSH4 0x2D33DD5B EQ PUSH2 0x6CC JUMPI DUP1 PUSH4 0x2F2FF15D EQ PUSH2 0x6F7 JUMPI DUP1 PUSH4 0x2F745C59 EQ PUSH2 0x720 JUMPI DUP1 PUSH4 0x33818997 EQ PUSH2 0x75D JUMPI PUSH2 0x3D9 JUMP JUMPDEST DUP1 PUSH4 0x11A4C03A GT PUSH2 0x370 JUMPI DUP1 PUSH4 0x23B872DD GT PUSH2 0x33F JUMPI DUP1 PUSH4 0x23B872DD EQ PUSH2 0x612 JUMPI DUP1 PUSH4 0x248A9CA3 EQ PUSH2 0x63B JUMPI DUP1 PUSH4 0x26E9CA07 EQ PUSH2 0x678 JUMPI DUP1 PUSH4 0x282478DF EQ PUSH2 0x6A3 JUMPI PUSH2 0x3D9 JUMP JUMPDEST DUP1 PUSH4 0x11A4C03A EQ PUSH2 0x566 JUMPI DUP1 PUSH4 0x18160DDD EQ PUSH2 0x591 JUMPI DUP1 PUSH4 0x183767DA EQ PUSH2 0x5BC JUMPI DUP1 PUSH4 0x217751BC EQ PUSH2 0x5E7 JUMPI PUSH2 0x3D9 JUMP JUMPDEST DUP1 PUSH4 0x97BA333 GT PUSH2 0x3AC JUMPI DUP1 PUSH4 0x97BA333 EQ PUSH2 0x4AA JUMPI DUP1 PUSH4 0xC2DB8D1 EQ PUSH2 0x4E7 JUMPI DUP1 PUSH4 0xF15023B EQ PUSH2 0x510 JUMPI DUP1 PUSH4 0x10E56973 EQ PUSH2 0x53B JUMPI PUSH2 0x3D9 JUMP JUMPDEST DUP1 PUSH4 0x1FFC9A7 EQ PUSH2 0x3DE JUMPI DUP1 PUSH4 0x68208CD EQ PUSH2 0x41B JUMPI DUP1 PUSH4 0x81812FC EQ PUSH2 0x444 JUMPI DUP1 PUSH4 0x95EA7B3 EQ PUSH2 0x481 JUMPI JUMPDEST PUSH1 0x0 DUP1 REVERT JUMPDEST CALLVALUE DUP1 ISZERO PUSH2 0x3EA JUMPI PUSH1 0x0 DUP1 REVERT JUMPDEST POP PUSH2 0x405 PUSH1 0x4 DUP1 CALLDATASIZE SUB DUP2 ADD SWAP1 PUSH2 0x400 SWAP2 SWAP1 PUSH2 0x617D JUMP JUMPDEST PUSH2 0xFD6 JUMP JUMPDEST PUSH1 0x40 MLOAD PUSH2 0x412 SWAP2 SWAP1 PUSH2 0x61C5 JUMP JUMPDEST PUSH1 0x40 MLOAD DUP1 SWAP2 SUB SWAP1 RETURN JUMPDEST CALLVALUE DUP1 ISZERO PUSH2 0x427 JUMPI PUSH1 0x0 DUP1 REVERT JUMPDEST POP PUSH2 0x442 PUSH1 0x4 DUP1 CALLDATASIZE SUB DUP2 ADD SWAP1 PUSH2 0x43D SWAP2 SWAP1 PUSH2 0x6216 JUMP JUMPDEST PUSH2 0x1050 JUMP JUMPDEST STOP JUMPDEST CALLVALUE DUP1 ISZERO PUSH2 0x450 JUMPI PUSH1 0x0 DUP1 REVERT JUMPDEST POP PUSH2 0x46B PUSH1 0x4 DUP1 CALLDATASIZE SUB DUP2 ADD SWAP1 PUSH2 0x466 SWAP2 SWAP1 PUSH2 0x6269 JUMP JUMPDEST PUSH2 0x10DE JUMP JUMPDEST PUSH1 0x40 MLOAD PUSH2 0x478 SWAP2 SWAP1 PUSH2 0x62D7 JUMP JUMPDEST PUSH1 0x40 MLOAD DUP1 SWAP2 SUB SWAP1 RETURN JUMPDEST CALLVALUE DUP1 ISZERO PUSH2 0x48D JUMPI PUSH1 0x0 DUP1 REVERT JUMPDEST POP PUSH2 0x4A8 PUSH1 0x4 DUP1 CALLDATASIZE SUB DUP2 ADD SWAP1 PUSH2 0x4A3 SWAP2 SWAP1 PUSH2 0x631E JUMP JUMPDEST PUSH2 0x112B JUMP JUMPDEST STOP JUMPDEST CALLVALUE DUP1 ISZERO PUSH2 0x4B6 JUMPI PUSH1 0x0 DUP1 REVERT JUMPDEST POP PUSH2 0x4D1 PUSH1 0x4 DUP1 CALLDATASIZE SUB DUP2 ADD SWAP1 PUSH2 0x4CC SWAP2 SWAP1 PUSH2 0x64A4 JUMP JUMPDEST PUSH2 0x127F JUMP JUMPDEST PUSH1 0x40 MLOAD PUSH2 0x4DE SWAP2 SWAP1 PUSH2 0x6522 JUMP JUMPDEST PUSH1 0x40 MLOAD DUP1 SWAP2 SUB SWAP1 RETURN JUMPDEST CALLVALUE DUP1 ISZERO PUSH2 0x4F3 JUMPI PUSH1 0x0 DUP1 REVERT JUMPDEST POP PUSH2 0x50E PUSH1 0x4 DUP1 CALLDATASIZE SUB DUP2 ADD SWAP1 PUSH2 0x509 SWAP2 SWAP1 PUSH2 0x653D JUMP JUMPDEST PUSH2 0x138F JUMP JUMPDEST STOP JUMPDEST CALLVALUE DUP1 ISZERO PUSH2 0x51C JUMPI PUSH1 0x0 DUP1 REVERT JUMPDEST POP PUSH2 0x525 PUSH2 0x1432 JUMP JUMPDEST PUSH1 0x40 MLOAD PUSH2 0x532 SWAP2 SWAP1 PUSH2 0x65EF JUMP JUMPDEST PUSH1 0x40 MLOAD DUP1 SWAP2 SUB SWAP1 RETURN JUMPDEST CALLVALUE DUP1 ISZERO PUSH2 0x547 JUMPI PUSH1 0x0 DUP1 REVERT JUMPDEST POP PUSH2 0x550 PUSH2 0x1459 JUMP JUMPDEST PUSH1 0x40 MLOAD PUSH2 0x55D SWAP2 SWAP1 PUSH2 0x6522 JUMP JUMPDEST PUSH1 0x40 MLOAD DUP1 SWAP2 SUB SWAP1 RETURN JUMPDEST CALLVALUE DUP1 ISZERO PUSH2 0x572 JUMPI PUSH1 0x0 DUP1 REVERT JUMPDEST POP PUSH2 0x57B PUSH2 0x1460 JUMP JUMPDEST PUSH1 0x40 MLOAD PUSH2 0x588 SWAP2 SWAP1 PUSH2 0x6522 JUMP JUMPDEST PUSH1 0x40 MLOAD DUP1 SWAP2 SUB SWAP1 RETURN JUMPDEST CALLVALUE DUP1 ISZERO PUSH2 0x59D JUMPI PUSH1 0x0 DUP1 REVERT JUMPDEST POP PUSH2 0x5A6 PUSH2 0x1467 JUMP JUMPDEST PUSH1 0x40 MLOAD PUSH2 0x5B3 SWAP2 SWAP1 PUSH2 0x6522 JUMP JUMPDEST PUSH1 0x40 MLOAD DUP1 SWAP2 SUB SWAP1 RETURN JUMPDEST CALLVALUE DUP1 ISZERO PUSH2 0x5C8 JUMPI PUSH1 0x0 DUP1 REVERT JUMPDEST POP PUSH2 0x5D1 PUSH2 0x1472 JUMP JUMPDEST PUSH1 0x40 MLOAD PUSH2 0x5DE SWAP2 SWAP1 PUSH2 0x6522 JUMP JUMPDEST PUSH1 0x40 MLOAD DUP1 SWAP2 SUB SWAP1 RETURN JUMPDEST CALLVALUE DUP1 ISZERO PUSH2 0x5F3 JUMPI PUSH1 0x0 DUP1 REVERT JUMPDEST POP PUSH2 0x5FC PUSH2 0x1479 JUMP JUMPDEST PUSH1 0x40 MLOAD PUSH2 0x609 SWAP2 SWAP1 PUSH2 0x662B JUMP JUMPDEST PUSH1 0x40 MLOAD DUP1 SWAP2 SUB SWAP1 RETURN JUMPDEST CALLVALUE DUP1 ISZERO PUSH2 0x61E JUMPI PUSH1 0x0 DUP1 REVERT JUMPDEST POP PUSH2 0x639 PUSH1 0x4 DUP1 CALLDATASIZE SUB DUP2 ADD SWAP1 PUSH2 0x634 SWAP2 SWAP1 PUSH2 0x653D JUMP JUMPDEST PUSH2 0x14A0 JUMP JUMPDEST STOP JUMPDEST CALLVALUE DUP1 ISZERO PUSH2 0x647 JUMPI PUSH1 0x0 DUP1 REVERT JUMPDEST POP PUSH2 0x662 PUSH1 0x4 DUP1 CALLDATASIZE SUB DUP2 ADD SWAP1 PUSH2 0x65D SWAP2 SWAP1 PUSH2 0x667C JUMP JUMPDEST PUSH2 0x150D JUMP JUMPDEST PUSH1 0x40 MLOAD PUSH2 0x66F SWAP2 SWAP1 PUSH2 0x66B8 JUMP JUMPDEST PUSH1 0x40 MLOAD DUP1 SWAP2 SUB SWAP1 RETURN JUMPDEST CALLVALUE DUP1 ISZERO PUSH2 0x684 JUMPI PUSH1 0x0 DUP1 REVERT JUMPDEST POP PUSH2 0x68D PUSH2 0x152D JUMP JUMPDEST PUSH1 0x40 MLOAD PUSH2 0x69A SWAP2 SWAP1 PUSH2 0x66F4 JUMP JUMPDEST PUSH1 0x40 MLOAD DUP1 SWAP2 SUB SWAP1 RETURN JUMPDEST CALLVALUE DUP1 ISZERO PUSH2 0x6AF JUMPI PUSH1 0x0 DUP1 REVERT JUMPDEST POP PUSH2 0x6CA PUSH1 0x4 DUP1 CALLDATASIZE SUB DUP2 ADD SWAP1 PUSH2 0x6C5 SWAP2 SWAP1 PUSH2 0x6216 JUMP JUMPDEST PUSH2 0x1554 JUMP JUMPDEST STOP JUMPDEST CALLVALUE DUP1 ISZERO PUSH2 0x6D8 JUMPI PUSH1 0x0 DUP1 REVERT JUMPDEST POP PUSH2 0x6E1 PUSH2 0x162E JUMP JUMPDEST PUSH1 0x40 MLOAD PUSH2 0x6EE SWAP2 SWAP1 PUSH2 0x6730 JUMP JUMPDEST PUSH1 0x40 MLOAD DUP1 SWAP2 SUB SWAP1 RETURN JUMPDEST CALLVALUE DUP1 ISZERO PUSH2 0x703 JUMPI PUSH1 0x0 DUP1 REVERT JUMPDEST POP PUSH2 0x71E PUSH1 0x4 DUP1 CALLDATASIZE SUB DUP2 ADD SWAP1 PUSH2 0x719 SWAP2 SWAP1 PUSH2 0x674B JUMP JUMPDEST PUSH2 0x1655 JUMP JUMPDEST STOP JUMPDEST CALLVALUE DUP1 ISZERO PUSH2 0x72C JUMPI PUSH1 0x0 DUP1 REVERT JUMPDEST POP PUSH2 0x747 PUSH1 0x4 DUP1 CALLDATASIZE SUB DUP2 ADD SWAP1 PUSH2 0x742 SWAP2 SWAP1 PUSH2 0x631E JUMP JUMPDEST PUSH2 0x1676 JUMP JUMPDEST PUSH1 0x40 MLOAD PUSH2 0x754 SWAP2 SWAP1 PUSH2 0x6522 JUMP JUMPDEST PUSH1 0x40 MLOAD DUP1 SWAP2 SUB SWAP1 RETURN JUMPDEST PUSH2 0x777 PUSH1 0x4 DUP1 CALLDATASIZE SUB DUP2 ADD SWAP1 PUSH2 0x772 SWAP2 SWAP1 PUSH2 0x6971 JUMP JUMPDEST PUSH2 0x1713 JUMP JUMPDEST PUSH1 0x40 MLOAD PUSH2 0x784 SWAP2 SWAP1 PUSH2 0x6B39 JUMP JUMPDEST PUSH1 0x40 MLOAD DUP1 SWAP2 SUB SWAP1 RETURN JUMPDEST CALLVALUE DUP1 ISZERO PUSH2 0x799 JUMPI PUSH1 0x0 DUP1 REVERT JUMPDEST POP PUSH2 0x7B4 PUSH1 0x4 DUP1 CALLDATASIZE SUB DUP2 ADD SWAP1 PUSH2 0x7AF SWAP2 SWAP1 PUSH2 0x674B JUMP JUMPDEST PUSH2 0x1C7D JUMP JUMPDEST STOP JUMPDEST CALLVALUE DUP1 ISZERO PUSH2 0x7C2 JUMPI PUSH1 0x0 DUP1 REVERT JUMPDEST POP PUSH2 0x7CB PUSH2 0x1D00 JUMP JUMPDEST PUSH1 0x40 MLOAD PUSH2 0x7D8 SWAP2 SWAP1 PUSH2 0x6B7C JUMP JUMPDEST PUSH1 0x40 MLOAD DUP1 SWAP2 SUB SWAP1 RETURN JUMPDEST CALLVALUE DUP1 ISZERO PUSH2 0x7ED JUMPI PUSH1 0x0 DUP1 REVERT JUMPDEST POP PUSH2 0x808 PUSH1 0x4 DUP1 CALLDATASIZE SUB DUP2 ADD SWAP1 PUSH2 0x803 SWAP2 SWAP1 PUSH2 0x631E JUMP JUMPDEST PUSH2 0x1D27 JUMP JUMPDEST STOP JUMPDEST CALLVALUE DUP1 ISZERO PUSH2 0x816 JUMPI PUSH1 0x0 DUP1 REVERT JUMPDEST POP PUSH2 0x831 PUSH1 0x4 DUP1 CALLDATASIZE SUB DUP2 ADD SWAP1 PUSH2 0x82C SWAP2 SWAP1 PUSH2 0x653D JUMP JUMPDEST PUSH2 0x1DD7 JUMP JUMPDEST STOP JUMPDEST CALLVALUE DUP1 ISZERO PUSH2 0x83F JUMPI PUSH1 0x0 DUP1 REVERT JUMPDEST POP PUSH2 0x85A PUSH1 0x4 DUP1 CALLDATASIZE SUB DUP2 ADD SWAP1 PUSH2 0x855 SWAP2 SWAP1 PUSH2 0x6269 JUMP JUMPDEST PUSH2 0x1DF7 JUMP JUMPDEST STOP JUMPDEST CALLVALUE DUP1 ISZERO PUSH2 0x868 JUMPI PUSH1 0x0 DUP1 REVERT JUMPDEST POP PUSH2 0x883 PUSH1 0x4 DUP1 CALLDATASIZE SUB DUP2 ADD SWAP1 PUSH2 0x87E SWAP2 SWAP1 PUSH2 0x6269 JUMP JUMPDEST PUSH2 0x1EF9 JUMP JUMPDEST PUSH1 0x40 MLOAD PUSH2 0x890 SWAP2 SWAP1 PUSH2 0x62D7 JUMP JUMPDEST PUSH1 0x40 MLOAD DUP1 SWAP2 SUB SWAP1 RETURN JUMPDEST CALLVALUE DUP1 ISZERO PUSH2 0x8A5 JUMPI PUSH1 0x0 DUP1 REVERT JUMPDEST POP PUSH2 0x8AE PUSH2 0x1F2D JUMP JUMPDEST PUSH1 0x40 MLOAD PUSH2 0x8BB SWAP2 SWAP1 PUSH2 0x6522 JUMP JUMPDEST PUSH1 0x40 MLOAD DUP1 SWAP2 SUB SWAP1 RETURN JUMPDEST CALLVALUE DUP1 ISZERO PUSH2 0x8D0 JUMPI PUSH1 0x0 DUP1 REVERT JUMPDEST POP PUSH2 0x8EB PUSH1 0x4 DUP1 CALLDATASIZE SUB DUP2 ADD SWAP1 PUSH2 0x8E6 SWAP2 SWAP1 PUSH2 0x6B97 JUMP JUMPDEST PUSH2 0x1F34 JUMP JUMPDEST PUSH1 0x40 MLOAD PUSH2 0x8F8 SWAP2 SWAP1 PUSH2 0x61C5 JUMP JUMPDEST PUSH1 0x40 MLOAD DUP1 SWAP2 SUB SWAP1 RETURN JUMPDEST CALLVALUE DUP1 ISZERO PUSH2 0x90D JUMPI PUSH1 0x0 DUP1 REVERT JUMPDEST POP PUSH2 0x928 PUSH1 0x4 DUP1 CALLDATASIZE SUB DUP2 ADD SWAP1 PUSH2 0x923 SWAP2 SWAP1 PUSH2 0x6269 JUMP JUMPDEST PUSH2 0x21B3 JUMP JUMPDEST PUSH1 0x40 MLOAD PUSH2 0x935 SWAP2 SWAP1 PUSH2 0x6522 JUMP JUMPDEST PUSH1 0x40 MLOAD DUP1 SWAP2 SUB SWAP1 RETURN JUMPDEST CALLVALUE DUP1 ISZERO PUSH2 0x94A JUMPI PUSH1 0x0 DUP1 REVERT JUMPDEST POP PUSH2 0x953 PUSH2 0x21D4 JUMP JUMPDEST PUSH1 0x40 MLOAD PUSH2 0x960 SWAP2 SWAP1 PUSH2 0x6522 JUMP JUMPDEST PUSH1 0x40 MLOAD DUP1 SWAP2 SUB SWAP1 RETURN JUMPDEST CALLVALUE DUP1 ISZERO PUSH2 0x975 JUMPI PUSH1 0x0 DUP1 REVERT JUMPDEST POP PUSH2 0x990 PUSH1 0x4 DUP1 CALLDATASIZE SUB DUP2 ADD SWAP1 PUSH2 0x98B SWAP2 SWAP1 PUSH2 0x6269 JUMP JUMPDEST PUSH2 0x21DF JUMP JUMPDEST PUSH1 0x40 MLOAD PUSH2 0x99D SWAP2 SWAP1 PUSH2 0x62D7 JUMP JUMPDEST PUSH1 0x40 MLOAD DUP1 SWAP2 SUB SWAP1 RETURN JUMPDEST CALLVALUE DUP1 ISZERO PUSH2 0x9B2 JUMPI PUSH1 0x0 DUP1 REVERT JUMPDEST POP PUSH2 0x9CD PUSH1 0x4 DUP1 CALLDATASIZE SUB DUP2 ADD SWAP1 PUSH2 0x9C8 SWAP2 SWAP1 PUSH2 0x6BD7 JUMP JUMPDEST PUSH2 0x221D JUMP JUMPDEST PUSH1 0x40 MLOAD PUSH2 0x9DA SWAP2 SWAP1 PUSH2 0x61C5 JUMP JUMPDEST PUSH1 0x40 MLOAD DUP1 SWAP2 SUB SWAP1 RETURN JUMPDEST CALLVALUE DUP1 ISZERO PUSH2 0x9EF JUMPI PUSH1 0x0 DUP1 REVERT JUMPDEST POP PUSH2 0xA0A PUSH1 0x4 DUP1 CALLDATASIZE SUB DUP2 ADD SWAP1 PUSH2 0xA05 SWAP2 SWAP1 PUSH2 0x6BD7 JUMP JUMPDEST PUSH2 0x234B JUMP JUMPDEST PUSH1 0x40 MLOAD PUSH2 0xA17 SWAP2 SWAP1 PUSH2 0x6522 JUMP JUMPDEST PUSH1 0x40 MLOAD DUP1 SWAP2 SUB SWAP1 RETURN JUMPDEST CALLVALUE DUP1 ISZERO PUSH2 0xA2C JUMPI PUSH1 0x0 DUP1 REVERT JUMPDEST POP PUSH2 0xA35 PUSH2 0x23A4 JUMP JUMPDEST PUSH1 0x40 MLOAD PUSH2 0xA42 SWAP2 SWAP1 PUSH2 0x6522 JUMP JUMPDEST PUSH1 0x40 MLOAD DUP1 SWAP2 SUB SWAP1 RETURN JUMPDEST CALLVALUE DUP1 ISZERO PUSH2 0xA57 JUMPI PUSH1 0x0 DUP1 REVERT JUMPDEST POP PUSH2 0xA72 PUSH1 0x4 DUP1 CALLDATASIZE SUB DUP2 ADD SWAP1 PUSH2 0xA6D SWAP2 SWAP1 PUSH2 0x6C04 JUMP JUMPDEST PUSH2 0x23AB JUMP JUMPDEST STOP JUMPDEST CALLVALUE DUP1 ISZERO PUSH2 0xA80 JUMPI PUSH1 0x0 DUP1 REVERT JUMPDEST POP PUSH2 0xA89 PUSH2 0x2A11 JUMP JUMPDEST PUSH1 0x40 MLOAD PUSH2 0xA96 SWAP2 SWAP1 PUSH2 0x6CC7 JUMP JUMPDEST PUSH1 0x40 MLOAD DUP1 SWAP2 SUB SWAP1 RETURN JUMPDEST CALLVALUE DUP1 ISZERO PUSH2 0xAAB JUMPI PUSH1 0x0 DUP1 REVERT JUMPDEST POP PUSH2 0xAC6 PUSH1 0x4 DUP1 CALLDATASIZE SUB DUP2 ADD SWAP1 PUSH2 0xAC1 SWAP2 SWAP1 PUSH2 0x6BD7 JUMP JUMPDEST PUSH2 0x2A38 JUMP JUMPDEST PUSH1 0x40 MLOAD PUSH2 0xAD3 SWAP2 SWAP1 PUSH2 0x6522 JUMP JUMPDEST PUSH1 0x40 MLOAD DUP1 SWAP2 SUB SWAP1 RETURN JUMPDEST CALLVALUE DUP1 ISZERO PUSH2 0xAE8 JUMPI PUSH1 0x0 DUP1 REVERT JUMPDEST POP PUSH2 0xB03 PUSH1 0x4 DUP1 CALLDATASIZE SUB DUP2 ADD SWAP1 PUSH2 0xAFE SWAP2 SWAP1 PUSH2 0x6B97 JUMP JUMPDEST PUSH2 0x2AE7 JUMP JUMPDEST STOP JUMPDEST CALLVALUE DUP1 ISZERO PUSH2 0xB11 JUMPI PUSH1 0x0 DUP1 REVERT JUMPDEST POP PUSH2 0xB2C PUSH1 0x4 DUP1 CALLDATASIZE SUB DUP2 ADD SWAP1 PUSH2 0xB27 SWAP2 SWAP1 PUSH2 0x6269 JUMP JUMPDEST PUSH2 0x2B52 JUMP JUMPDEST STOP JUMPDEST CALLVALUE DUP1 ISZERO PUSH2 0xB3A JUMPI PUSH1 0x0 DUP1 REVERT JUMPDEST POP PUSH2 0xB55 PUSH1 0x4 DUP1 CALLDATASIZE SUB DUP2 ADD SWAP1 PUSH2 0xB50 SWAP2 SWAP1 PUSH2 0x6D38 JUMP JUMPDEST PUSH2 0x2B9C JUMP JUMPDEST STOP JUMPDEST CALLVALUE DUP1 ISZERO PUSH2 0xB63 JUMPI PUSH1 0x0 DUP1 REVERT JUMPDEST POP PUSH2 0xB7E PUSH1 0x4 DUP1 CALLDATASIZE SUB DUP2 ADD SWAP1 PUSH2 0xB79 SWAP2 SWAP1 PUSH2 0x674B JUMP JUMPDEST PUSH2 0x2CE2 JUMP JUMPDEST PUSH1 0x40 MLOAD PUSH2 0xB8B SWAP2 SWAP1 PUSH2 0x61C5 JUMP JUMPDEST PUSH1 0x40 MLOAD DUP1 SWAP2 SUB SWAP1 RETURN JUMPDEST CALLVALUE DUP1 ISZERO PUSH2 0xBA0 JUMPI PUSH1 0x0 DUP1 REVERT JUMPDEST POP PUSH2 0xBA9 PUSH2 0x2D4D JUMP JUMPDEST PUSH1 0x40 MLOAD PUSH2 0xBB6 SWAP2 SWAP1 PUSH2 0x6522 JUMP JUMPDEST PUSH1 0x40 MLOAD DUP1 SWAP2 SUB SWAP1 RETURN JUMPDEST CALLVALUE DUP1 ISZERO PUSH2 0xBCB JUMPI PUSH1 0x0 DUP1 REVERT JUMPDEST POP PUSH2 0xBD4 PUSH2 0x2D54 JUMP JUMPDEST PUSH1 0x40 MLOAD PUSH2 0xBE1 SWAP2 SWAP1 PUSH2 0x62D7 JUMP JUMPDEST PUSH1 0x40 MLOAD DUP1 SWAP2 SUB SWAP1 RETURN JUMPDEST CALLVALUE DUP1 ISZERO PUSH2 0xBF6 JUMPI PUSH1 0x0 DUP1 REVERT JUMPDEST POP PUSH2 0xBFF PUSH2 0x2D7B JUMP JUMPDEST PUSH1 0x40 MLOAD PUSH2 0xC0C SWAP2 SWAP1 PUSH2 0x66B8 JUMP JUMPDEST PUSH1 0x40 MLOAD DUP1 SWAP2 SUB SWAP1 RETURN JUMPDEST CALLVALUE DUP1 ISZERO PUSH2 0xC21 JUMPI PUSH1 0x0 DUP1 REVERT JUMPDEST POP PUSH2 0xC3C PUSH1 0x4 DUP1 CALLDATASIZE SUB DUP2 ADD SWAP1 PUSH2 0xC37 SWAP2 SWAP1 PUSH2 0x6DB1 JUMP JUMPDEST PUSH2 0x2D82 JUMP JUMPDEST STOP JUMPDEST CALLVALUE DUP1 ISZERO PUSH2 0xC4A JUMPI PUSH1 0x0 DUP1 REVERT JUMPDEST POP PUSH2 0xC65 PUSH1 0x4 DUP1 CALLDATASIZE SUB DUP2 ADD SWAP1 PUSH2 0xC60 SWAP2 SWAP1 PUSH2 0x6B97 JUMP JUMPDEST PUSH2 0x2EED JUMP JUMPDEST STOP JUMPDEST CALLVALUE DUP1 ISZERO PUSH2 0xC73 JUMPI PUSH1 0x0 DUP1 REVERT JUMPDEST POP PUSH2 0xC8E PUSH1 0x4 DUP1 CALLDATASIZE SUB DUP2 ADD SWAP1 PUSH2 0xC89 SWAP2 SWAP1 PUSH2 0x6269 JUMP JUMPDEST PUSH2 0x2FE1 JUMP JUMPDEST PUSH1 0x40 MLOAD PUSH2 0xC9B SWAP2 SWAP1 PUSH2 0x61C5 JUMP JUMPDEST PUSH1 0x40 MLOAD DUP1 SWAP2 SUB SWAP1 RETURN JUMPDEST CALLVALUE DUP1 ISZERO PUSH2 0xCB0 JUMPI PUSH1 0x0 DUP1 REVERT JUMPDEST POP PUSH2 0xCCB PUSH1 0x4 DUP1 CALLDATASIZE SUB DUP2 ADD SWAP1 PUSH2 0xCC6 SWAP2 SWAP1 PUSH2 0x6BD7 JUMP JUMPDEST PUSH2 0x3155 JUMP JUMPDEST PUSH1 0x40 MLOAD PUSH2 0xCD8 SWAP2 SWAP1 PUSH2 0x61C5 JUMP JUMPDEST PUSH1 0x40 MLOAD DUP1 SWAP2 SUB SWAP1 RETURN JUMPDEST CALLVALUE DUP1 ISZERO PUSH2 0xCED JUMPI PUSH1 0x0 DUP1 REVERT JUMPDEST POP PUSH2 0xD08 PUSH1 0x4 DUP1 CALLDATASIZE SUB DUP2 ADD SWAP1 PUSH2 0xD03 SWAP2 SWAP1 PUSH2 0x6B97 JUMP JUMPDEST PUSH2 0x3188 JUMP JUMPDEST STOP JUMPDEST CALLVALUE DUP1 ISZERO PUSH2 0xD16 JUMPI PUSH1 0x0 DUP1 REVERT JUMPDEST POP PUSH2 0xD1F PUSH2 0x31F3 JUMP JUMPDEST PUSH1 0x40 MLOAD PUSH2 0xD2C SWAP2 SWAP1 PUSH2 0x6E12 JUMP JUMPDEST PUSH1 0x40 MLOAD DUP1 SWAP2 SUB SWAP1 RETURN JUMPDEST CALLVALUE DUP1 ISZERO PUSH2 0xD41 JUMPI PUSH1 0x0 DUP1 REVERT JUMPDEST POP PUSH2 0xD5C PUSH1 0x4 DUP1 CALLDATASIZE SUB DUP2 ADD SWAP1 PUSH2 0xD57 SWAP2 SWAP1 PUSH2 0x6E2D JUMP JUMPDEST PUSH2 0x321A JUMP JUMPDEST PUSH1 0x40 MLOAD PUSH2 0xD69 SWAP2 SWAP1 PUSH2 0x6522 JUMP JUMPDEST PUSH1 0x40 MLOAD DUP1 SWAP2 SUB SWAP1 RETURN JUMPDEST CALLVALUE DUP1 ISZERO PUSH2 0xD7E JUMPI PUSH1 0x0 DUP1 REVERT JUMPDEST POP PUSH2 0xD99 PUSH1 0x4 DUP1 CALLDATASIZE SUB DUP2 ADD SWAP1 PUSH2 0xD94 SWAP2 SWAP1 PUSH2 0x6E6D JUMP JUMPDEST PUSH2 0x328B JUMP JUMPDEST STOP JUMPDEST CALLVALUE DUP1 ISZERO PUSH2 0xDA7 JUMPI PUSH1 0x0 DUP1 REVERT JUMPDEST POP PUSH2 0xDC2 PUSH1 0x4 DUP1 CALLDATASIZE SUB DUP2 ADD SWAP1 PUSH2 0xDBD SWAP2 SWAP1 PUSH2 0x6BD7 JUMP JUMPDEST PUSH2 0x32DE JUMP JUMPDEST PUSH1 0x40 MLOAD PUSH2 0xDCF SWAP2 SWAP1 PUSH2 0x6522 JUMP JUMPDEST PUSH1 0x40 MLOAD DUP1 SWAP2 SUB SWAP1 RETURN JUMPDEST CALLVALUE DUP1 ISZERO PUSH2 0xDE4 JUMPI PUSH1 0x0 DUP1 REVERT JUMPDEST POP PUSH2 0xDED PUSH2 0x32F7 JUMP JUMPDEST PUSH1 0x40 MLOAD PUSH2 0xDFA SWAP2 SWAP1 PUSH2 0x6F11 JUMP JUMPDEST PUSH1 0x40 MLOAD DUP1 SWAP2 SUB SWAP1 RETURN JUMPDEST CALLVALUE DUP1 ISZERO PUSH2 0xE0F JUMPI PUSH1 0x0 DUP1 REVERT JUMPDEST POP PUSH2 0xE18 PUSH2 0x331E JUMP JUMPDEST PUSH1 0x40 MLOAD PUSH2 0xE25 SWAP2 SWAP1 PUSH2 0x6F49 JUMP JUMPDEST PUSH1 0x40 MLOAD DUP1 SWAP2 SUB SWAP1 RETURN JUMPDEST CALLVALUE DUP1 ISZERO PUSH2 0xE3A JUMPI PUSH1 0x0 DUP1 REVERT JUMPDEST POP PUSH2 0xE55 PUSH1 0x4 DUP1 CALLDATASIZE SUB DUP2 ADD SWAP1 PUSH2 0xE50 SWAP2 SWAP1 PUSH2 0x6BD7 JUMP JUMPDEST PUSH2 0x3327 JUMP JUMPDEST STOP JUMPDEST CALLVALUE DUP1 ISZERO PUSH2 0xE63 JUMPI PUSH1 0x0 DUP1 REVERT JUMPDEST POP PUSH2 0xE6C PUSH2 0x339F JUMP JUMPDEST PUSH1 0x40 MLOAD PUSH2 0xE79 SWAP2 SWAP1 PUSH2 0x6522 JUMP JUMPDEST PUSH1 0x40 MLOAD DUP1 SWAP2 SUB SWAP1 RETURN JUMPDEST CALLVALUE DUP1 ISZERO PUSH2 0xE8E JUMPI PUSH1 0x0 DUP1 REVERT JUMPDEST POP PUSH2 0xEA9 PUSH1 0x4 DUP1 CALLDATASIZE SUB DUP2 ADD SWAP1 PUSH2 0xEA4 SWAP2 SWAP1 PUSH2 0x674B JUMP JUMPDEST PUSH2 0x33AA JUMP JUMPDEST STOP JUMPDEST PUSH2 0xEC5 PUSH1 0x4 DUP1 CALLDATASIZE SUB DUP2 ADD SWAP1 PUSH2 0xEC0 SWAP2 SWAP1 PUSH2 0x6F64 JUMP JUMPDEST PUSH2 0x33CB JUMP JUMPDEST STOP JUMPDEST CALLVALUE DUP1 ISZERO PUSH2 0xED3 JUMPI PUSH1 0x0 DUP1 REVERT JUMPDEST POP PUSH2 0xEEE PUSH1 0x4 DUP1 CALLDATASIZE SUB DUP2 ADD SWAP1 PUSH2 0xEE9 SWAP2 SWAP1 PUSH2 0x702A JUMP JUMPDEST PUSH2 0x34E5 JUMP JUMPDEST STOP JUMPDEST CALLVALUE DUP1 ISZERO PUSH2 0xEFC JUMPI PUSH1 0x0 DUP1 REVERT JUMPDEST POP PUSH2 0xF17 PUSH1 0x4 DUP1 CALLDATASIZE SUB DUP2 ADD SWAP1 PUSH2 0xF12 SWAP2 SWAP1 PUSH2 0x631E JUMP JUMPDEST PUSH2 0x368F JUMP JUMPDEST STOP JUMPDEST CALLVALUE DUP1 ISZERO PUSH2 0xF25 JUMPI PUSH1 0x0 DUP1 REVERT JUMPDEST POP PUSH2 0xF40 PUSH1 0x4 DUP1 CALLDATASIZE SUB DUP2 ADD SWAP1 PUSH2 0xF3B SWAP2 SWAP1 PUSH2 0x707D JUMP JUMPDEST PUSH2 0x372E JUMP JUMPDEST PUSH1 0x40 MLOAD PUSH2 0xF4D SWAP2 SWAP1 PUSH2 0x61C5 JUMP JUMPDEST PUSH1 0x40 MLOAD DUP1 SWAP2 SUB SWAP1 RETURN JUMPDEST CALLVALUE DUP1 ISZERO PUSH2 0xF62 JUMPI PUSH1 0x0 DUP1 REVERT JUMPDEST POP PUSH2 0xF6B PUSH2 0x37C3 JUMP JUMPDEST STOP JUMPDEST CALLVALUE DUP1 ISZERO PUSH2 0xF79 JUMPI PUSH1 0x0 DUP1 REVERT JUMPDEST POP PUSH2 0xF94 PUSH1 0x4 DUP1 CALLDATASIZE SUB DUP2 ADD SWAP1 PUSH2 0xF8F SWAP2 SWAP1 PUSH2 0x70BD JUMP JUMPDEST PUSH2 0x3832 JUMP JUMPDEST STOP JUMPDEST CALLVALUE DUP1 ISZERO PUSH2 0xFA2 JUMPI PUSH1 0x0 DUP1 REVERT JUMPDEST POP PUSH2 0xFAB PUSH2 0x3A55 JUMP JUMPDEST STOP JUMPDEST CALLVALUE DUP1 ISZERO PUSH2 0xFB9 JUMPI PUSH1 0x0 DUP1 REVERT JUMPDEST POP PUSH2 0xFD4 PUSH1 0x4 DUP1 CALLDATASIZE SUB DUP2 ADD SWAP1 PUSH2 0xFCF SWAP2 SWAP1 PUSH2 0x6269 JUMP JUMPDEST PUSH2 0x3A72 JUMP JUMPDEST STOP JUMPDEST PUSH1 0x0 PUSH32 0x7965DB0B00000000000000000000000000000000000000000000000000000000 PUSH28 0xFFFFFFFFFFFFFFFFFFFFFFFFFFFFFFFFFFFFFFFFFFFFFFFFFFFFFFFF NOT AND DUP3 PUSH28 0xFFFFFFFFFFFFFFFFFFFFFFFFFFFFFFFFFFFFFFFFFFFFFFFFFFFFFFFF NOT AND EQ DUP1 PUSH2 0x1049 JUMPI POP PUSH2 0x1048 DUP3 PUSH2 0x3ABC JUMP JUMPDEST JUMPDEST SWAP1 POP SWAP2 SWAP1 POP JUMP JUMPDEST PUSH2 0x1059 DUP4 PUSH2 0x3B26 JUMP JUMPDEST PUSH2 0x1062 DUP4 PUSH2 0x3B7A JUMP JUMPDEST PUSH2 0x106B DUP4 PUSH2 0x3BBC JUMP JUMPDEST PUSH2 0x1074 DUP3 PUSH2 0x3B26 JUMP JUMPDEST TIMESTAMP PUSH2 0x107E DUP5 PUSH2 0x21B3 JUMP JUMPDEST PUSH2 0x1088 SWAP2 SWAP1 PUSH2 0x713F JUMP JUMPDEST DUP2 GT ISZERO PUSH2 0x10C1 JUMPI PUSH1 0x40 MLOAD PUSH32 0x8744776800000000000000000000000000000000000000000000000000000000 DUP2 MSTORE PUSH1 0x4 ADD PUSH1 0x40 MLOAD DUP1 SWAP2 SUB SWAP1 REVERT JUMPDEST PUSH2 0x10CD DUP4 DUP3 PUSH1 0x0 PUSH2 0x3D6E JUMP JUMPDEST PUSH2 0x10D9 DUP3 DUP3 PUSH1 0x1 PUSH2 0x3D6E JUMP JUMPDEST POP POP POP JUMP JUMPDEST PUSH1 0x0 PUSH2 0x10E9 DUP3 PUSH2 0x3B26 JUMP JUMPDEST PUSH1 0x0 PUSH2 0x1047 PUSH1 0x0 DUP5 DUP2 MSTORE PUSH1 0x20 ADD SWAP1 DUP2 MSTORE PUSH1 0x20 ADD PUSH1 0x0 KECCAK256 PUSH1 0x0 SWAP1 SLOAD SWAP1 PUSH2 0x100 EXP SWAP1 DIV PUSH20 0xFFFFFFFFFFFFFFFFFFFFFFFFFFFFFFFFFFFFFFFF AND SWAP1 POP DUP1 SWAP2 POP POP SWAP2 SWAP1 POP JUMP JUMPDEST PUSH2 0x1134 DUP2 PUSH2 0x3BBC JUMP JUMPDEST DUP2 PUSH20 0xFFFFFFFFFFFFFFFFFFFFFFFFFFFFFFFFFFFFFFFF AND CALLER PUSH20 0xFFFFFFFFFFFFFFFFFFFFFFFFFFFFFFFFFFFFFFFF AND SUB PUSH2 0x1199 JUMPI PUSH1 0x40 MLOAD PUSH32 0xF13228CA00000000000000000000000000000000000000000000000000000000 DUP2 MSTORE PUSH1 0x4 ADD PUSH1 0x40 MLOAD DUP1 SWAP2 SUB SWAP1 REVERT JUMPDEST DUP2 PUSH2 0x1047 PUSH1 0x0 DUP4 DUP2 MSTORE PUSH1 0x20 ADD SWAP1 DUP2 MSTORE PUSH1 0x20 ADD PUSH1 0x0 KECCAK256 PUSH1 0x0 PUSH2 0x100 EXP DUP2 SLOAD DUP2 PUSH20 0xFFFFFFFFFFFFFFFFFFFFFFFFFFFFFFFFFFFFFFFF MUL NOT AND SWAP1 DUP4 PUSH20 0xFFFFFFFFFFFFFFFFFFFFFFFFFFFFFFFFFFFFFFFF AND MUL OR SWAP1 SSTORE POP DUP1 DUP3 PUSH20 0xFFFFFFFFFFFFFFFFFFFFFFFFFFFFFFFFFFFFFFFF AND PUSH2 0x1044 PUSH1 0x0 DUP5 DUP2 MSTORE PUSH1 0x20 ADD SWAP1 DUP2 MSTORE PUSH1 0x20 ADD PUSH1 0x0 KECCAK256 PUSH1 0x0 SWAP1 SLOAD SWAP1 PUSH2 0x100 EXP SWAP1 DIV PUSH20 0xFFFFFFFFFFFFFFFFFFFFFFFFFFFFFFFFFFFFFFFF AND PUSH20 0xFFFFFFFFFFFFFFFFFFFFFFFFFFFFFFFFFFFFFFFF AND PUSH32 0x8C5BE1E5EBEC7D5BD14F71427D1E84F3DD0314C0F7B2291E5B200AC8C7C3B925 PUSH1 0x40 MLOAD PUSH1 0x40 MLOAD DUP1 SWAP2 SUB SWAP1 LOG4 POP POP JUMP JUMPDEST PUSH1 0x0 DUP1 PUSH20 0xFFFFFFFFFFFFFFFFFFFFFFFFFFFFFFFFFFFFFFFF AND PUSH2 0xC57 PUSH1 0x0 SWAP1 SLOAD SWAP1 PUSH2 0x100 EXP SWAP1 DIV PUSH20 0xFFFFFFFFFFFFFFFFFFFFFFFFFFFFFFFFFFFFFFFF AND PUSH20 0xFFFFFFFFFFFFFFFFFFFFFFFFFFFFFFFFFFFFFFFF AND EQ PUSH2 0x1381 JUMPI PUSH2 0xC57 PUSH1 0x0 SWAP1 SLOAD SWAP1 PUSH2 0x100 EXP SWAP1 DIV PUSH20 0xFFFFFFFFFFFFFFFFFFFFFFFFFFFFFFFFFFFFFFFF AND PUSH20 0xFFFFFFFFFFFFFFFFFFFFFFFFFFFFFFFFFFFFFFFF AND PUSH4 0x221C1FD1 CALLER DUP7 DUP7 DUP7 PUSH1 0x40 MLOAD DUP6 PUSH4 0xFFFFFFFF AND PUSH1 0xE0 SHL DUP2 MSTORE PUSH1 0x4 ADD PUSH2 0x1339 SWAP5 SWAP4 SWAP3 SWAP2 SWAP1 PUSH2 0x71F2 JUMP JUMPDEST PUSH1 0x20 PUSH1 0x40 MLOAD DUP1 DUP4 SUB DUP2 DUP7 GAS STATICCALL ISZERO DUP1 ISZERO PUSH2 0x1356 JUMPI RETURNDATASIZE PUSH1 0x0 DUP1 RETURNDATACOPY RETURNDATASIZE PUSH1 0x0 REVERT JUMPDEST POP POP POP POP PUSH1 0x40 MLOAD RETURNDATASIZE PUSH1 0x1F NOT PUSH1 0x1F DUP3 ADD AND DUP3 ADD DUP1 PUSH1 0x40 MSTORE POP DUP2 ADD SWAP1 PUSH2 0x137A SWAP2 SWAP1 PUSH2 0x7253 JUMP JUMPDEST SWAP1 POP PUSH2 0x1388 JUMP JUMPDEST PUSH2 0xC53 SLOAD SWAP1 POP JUMPDEST SWAP4 SWAP3 POP POP POP JUMP JUMPDEST PUSH2 0x1399 DUP2 CALLER PUSH2 0x3E7B JUMP JUMPDEST PUSH2 0x13CF JUMPI PUSH1 0x40 MLOAD PUSH32 0x75FD2B100000000000000000000000000000000000000000000000000000000 DUP2 MSTORE PUSH1 0x4 ADD PUSH1 0x40 MLOAD DUP1 SWAP2 SUB SWAP1 REVERT JUMPDEST PUSH2 0x13DA DUP4 DUP4 DUP4 PUSH2 0x3FA3 JUMP JUMPDEST CALLER PUSH2 0x1046 PUSH1 0x0 DUP4 DUP2 MSTORE PUSH1 0x20 ADD SWAP1 DUP2 MSTORE PUSH1 0x20 ADD PUSH1 0x0 KECCAK256 PUSH1 0x0 PUSH2 0x100 EXP DUP2 SLOAD DUP2 PUSH20 0xFFFFFFFFFFFFFFFFFFFFFFFFFFFFFFFFFFFFFFFF MUL NOT AND SWAP1 DUP4 PUSH20 0xFFFFFFFFFFFFFFFFFFFFFFFFFFFFFFFFFFFFFFFF AND MUL OR SWAP1 SSTORE POP POP POP POP JUMP JUMPDEST PUSH2 0xC51 PUSH1 0x0 SWAP1 SLOAD SWAP1 PUSH2 0x100 EXP SWAP1 DIV PUSH20 0xFFFFFFFFFFFFFFFFFFFFFFFFFFFFFFFFFFFFFFFF AND DUP2 JUMP JUMPDEST PUSH2 0xC53 SLOAD DUP2 JUMP JUMPDEST PUSH2 0xC52 SLOAD DUP2 JUMP JUMPDEST PUSH1 0x0 PUSH2 0xC55 SLOAD SWAP1 POP SWAP1 JUMP JUMPDEST PUSH2 0x181A SLOAD DUP2 JUMP JUMPDEST PUSH2 0xC58 PUSH1 0x0 SWAP1 SLOAD SWAP1 PUSH2 0x100 EXP SWAP1 DIV PUSH20 0xFFFFFFFFFFFFFFFFFFFFFFFFFFFFFFFFFFFFFFFF AND DUP2 JUMP JUMPDEST PUSH2 0x14A9 DUP2 PUSH2 0x3BBC JUMP JUMPDEST PUSH1 0x0 PUSH2 0x1046 PUSH1 0x0 DUP4 DUP2 MSTORE PUSH1 0x20 ADD SWAP1 DUP2 MSTORE PUSH1 0x20 ADD PUSH1 0x0 KECCAK256 PUSH1 0x0 PUSH2 0x100 EXP DUP2 SLOAD DUP2 PUSH20 0xFFFFFFFFFFFFFFFFFFFFFFFFFFFFFFFFFFFFFFFF MUL NOT AND SWAP1 DUP4 PUSH20 0xFFFFFFFFFFFFFFFFFFFFFFFFFFFFFFFFFFFFFFFF AND MUL OR SWAP1 SSTORE POP PUSH2 0x1508 DUP4 DUP4 DUP4 PUSH2 0x3FA3 JUMP JUMPDEST POP POP POP JUMP JUMPDEST PUSH1 0x0 PUSH1 0x65 PUSH1 0x0 DUP4 DUP2 MSTORE PUSH1 0x20 ADD SWAP1 DUP2 MSTORE PUSH1 0x20 ADD PUSH1 0x0 KECCAK256 PUSH1 0x1 ADD SLOAD SWAP1 POP SWAP2 SWAP1 POP JUMP JUMPDEST PUSH2 0xC59 PUSH1 0x0 SWAP1 SLOAD SWAP1 PUSH2 0x100 EXP SWAP1 DIV PUSH20 0xFFFFFFFFFFFFFFFFFFFFFFFFFFFFFFFFFFFFFFFF AND DUP2 JUMP JUMPDEST PUSH2 0x155C PUSH2 0x42FA JUMP JUMPDEST PUSH1 0x0 DUP2 SUB PUSH2 0x1596 JUMPI PUSH1 0x40 MLOAD PUSH32 0xE03B033D00000000000000000000000000000000000000000000000000000000 DUP2 MSTORE PUSH1 0x4 ADD PUSH1 0x40 MLOAD DUP1 SWAP2 SUB SWAP1 REVERT JUMPDEST PUSH2 0xC55 SLOAD DUP3 LT ISZERO PUSH2 0x15D3 JUMPI PUSH1 0x40 MLOAD PUSH32 0x1D00CD6B00000000000000000000000000000000000000000000000000000000 DUP2 MSTORE PUSH1 0x4 ADD PUSH1 0x40 MLOAD DUP1 SWAP2 SUB SWAP1 REVERT JUMPDEST DUP1 PUSH2 0xC5C DUP2 SWAP1 SSTORE POP DUP3 PUSH2 0xC52 DUP2 SWAP1 SSTORE POP DUP2 PUSH2 0xC54 DUP2 SWAP1 SSTORE POP PUSH32 0x9A09448A3F24D3A01CCC67103C7CDDBEEA820176A18182CC83D0BCE585F26A5B DUP4 DUP4 PUSH2 0xC5C SLOAD PUSH1 0x40 MLOAD PUSH2 0x1621 SWAP4 SWAP3 SWAP2 SWAP1 PUSH2 0x7280 JUMP JUMPDEST PUSH1 0x40 MLOAD DUP1 SWAP2 SUB SWAP1 LOG1 POP POP POP JUMP JUMPDEST PUSH2 0xC57 PUSH1 0x0 SWAP1 SLOAD SWAP1 PUSH2 0x100 EXP SWAP1 DIV PUSH20 0xFFFFFFFFFFFFFFFFFFFFFFFFFFFFFFFFFFFFFFFF AND DUP2 JUMP JUMPDEST PUSH2 0x165E DUP3 PUSH2 0x150D JUMP JUMPDEST PUSH2 0x1667 DUP2 PUSH2 0x435C JUMP JUMPDEST PUSH2 0x1671 DUP4 DUP4 PUSH2 0x4370 JUMP JUMPDEST POP POP POP JUMP JUMPDEST PUSH1 0x0 PUSH2 0x1681 DUP4 PUSH2 0x2A38 JUMP JUMPDEST DUP3 LT PUSH2 0x16B9 JUMPI PUSH1 0x40 MLOAD PUSH32 0x8E22EAE00000000000000000000000000000000000000000000000000000000 DUP2 MSTORE PUSH1 0x4 ADD PUSH1 0x40 MLOAD DUP1 SWAP2 SUB SWAP1 REVERT JUMPDEST PUSH2 0x104A PUSH1 0x0 DUP5 PUSH20 0xFFFFFFFFFFFFFFFFFFFFFFFFFFFFFFFFFFFFFFFF AND PUSH20 0xFFFFFFFFFFFFFFFFFFFFFFFFFFFFFFFFFFFFFFFF AND DUP2 MSTORE PUSH1 0x20 ADD SWAP1 DUP2 MSTORE PUSH1 0x20 ADD PUSH1 0x0 KECCAK256 PUSH1 0x0 DUP4 DUP2 MSTORE PUSH1 0x20 ADD SWAP1 DUP2 MSTORE PUSH1 0x20 ADD PUSH1 0x0 KECCAK256 SLOAD SWAP1 POP SWAP3 SWAP2 POP POP JUMP JUMPDEST PUSH1 0x60 PUSH2 0x171D PUSH2 0x4451 JUMP JUMPDEST PUSH2 0xC54 SLOAD DUP7 MLOAD PUSH2 0xC55 SLOAD PUSH2 0x1731 SWAP2 SWAP1 PUSH2 0x72B7 JUMP JUMPDEST GT ISZERO PUSH2 0x1769 JUMPI PUSH1 0x40 MLOAD PUSH32 0x31AF695100000000000000000000000000000000000000000000000000000000 DUP2 MSTORE PUSH1 0x4 ADD PUSH1 0x40 MLOAD DUP1 SWAP2 SUB SWAP1 REVERT JUMPDEST DUP5 MLOAD DUP7 MLOAD EQ ISZERO DUP1 PUSH2 0x177C JUMPI POP DUP4 MLOAD DUP7 MLOAD EQ ISZERO JUMPDEST ISZERO PUSH2 0x17B3 JUMPI PUSH1 0x40 MLOAD PUSH32 0xED676A4A00000000000000000000000000000000000000000000000000000000 DUP2 MSTORE PUSH1 0x4 ADD PUSH1 0x40 MLOAD DUP1 SWAP2 SUB SWAP1 REVERT JUMPDEST PUSH1 0x0 DUP1 DUP8 MLOAD PUSH8 0xFFFFFFFFFFFFFFFF DUP2 GT ISZERO PUSH2 0x17D1 JUMPI PUSH2 0x17D0 PUSH2 0x6379 JUMP JUMPDEST JUMPDEST PUSH1 0x40 MLOAD SWAP1 DUP1 DUP3 MSTORE DUP1 PUSH1 0x20 MUL PUSH1 0x20 ADD DUP3 ADD PUSH1 0x40 MSTORE DUP1 ISZERO PUSH2 0x17FF JUMPI DUP2 PUSH1 0x20 ADD PUSH1 0x20 DUP3 MUL DUP1 CALLDATASIZE DUP4 CALLDATACOPY DUP1 DUP3 ADD SWAP2 POP POP SWAP1 POP JUMPDEST POP SWAP1 POP PUSH1 0x0 JUMPDEST DUP9 MLOAD DUP2 LT ISZERO PUSH2 0x1C0F JUMPI PUSH1 0x0 DUP10 DUP3 DUP2 MLOAD DUP2 LT PUSH2 0x1823 JUMPI PUSH2 0x1822 PUSH2 0x72EB JUMP JUMPDEST JUMPDEST PUSH1 0x20 MUL PUSH1 0x20 ADD ADD MLOAD SWAP1 POP PUSH2 0x18B1 DUP2 DUP10 DUP5 DUP2 MLOAD DUP2 LT PUSH2 0x1844 JUMPI PUSH2 0x1843 PUSH2 0x72EB JUMP JUMPDEST JUMPDEST PUSH1 0x20 MUL PUSH1 0x20 ADD ADD MLOAD PUSH32 0xFFFFFFFFFFFFFFFFFFFFFFFFFFFFFFFFFFFFFFFFFFFFFFFFFFFFFFFFFFFFFFFF PUSH2 0xC52 SLOAD EQ PUSH2 0x188A JUMPI PUSH2 0xC52 SLOAD TIMESTAMP PUSH2 0x1885 SWAP2 SWAP1 PUSH2 0x72B7 JUMP JUMPDEST PUSH2 0x18AC JUMP JUMPDEST PUSH32 0xFFFFFFFFFFFFFFFFFFFFFFFFFFFFFFFFFFFFFFFFFFFFFFFFFFFFFFFFFFFFFFFF JUMPDEST PUSH2 0x449A JUMP JUMPDEST DUP4 DUP4 DUP2 MLOAD DUP2 LT PUSH2 0x18C4 JUMPI PUSH2 0x18C3 PUSH2 0x72EB JUMP JUMPDEST JUMPDEST PUSH1 0x20 MUL PUSH1 0x20 ADD ADD DUP2 DUP2 MSTORE POP POP PUSH1 0x0 PUSH2 0x195E DUP3 DUP12 DUP6 DUP2 MLOAD DUP2 LT PUSH2 0x18E9 JUMPI PUSH2 0x18E8 PUSH2 0x72EB JUMP JUMPDEST JUMPDEST PUSH1 0x20 MUL PUSH1 0x20 ADD ADD MLOAD DUP11 DUP11 DUP8 DUP2 DUP2 LT PUSH2 0x1904 JUMPI PUSH2 0x1903 PUSH2 0x72EB JUMP JUMPDEST JUMPDEST SWAP1 POP PUSH1 0x20 MUL DUP2 ADD SWAP1 PUSH2 0x1916 SWAP2 SWAP1 PUSH2 0x7329 JUMP JUMPDEST DUP1 DUP1 PUSH1 0x1F ADD PUSH1 0x20 DUP1 SWAP2 DIV MUL PUSH1 0x20 ADD PUSH1 0x40 MLOAD SWAP1 DUP2 ADD PUSH1 0x40 MSTORE DUP1 SWAP4 SWAP3 SWAP2 SWAP1 DUP2 DUP2 MSTORE PUSH1 0x20 ADD DUP4 DUP4 DUP1 DUP3 DUP5 CALLDATACOPY PUSH1 0x0 DUP2 DUP5 ADD MSTORE PUSH1 0x1F NOT PUSH1 0x1F DUP3 ADD AND SWAP1 POP DUP1 DUP4 ADD SWAP3 POP POP POP POP POP POP POP PUSH2 0x127F JUMP JUMPDEST SWAP1 POP DUP1 DUP6 PUSH2 0x196C SWAP2 SWAP1 PUSH2 0x72B7 JUMP JUMPDEST SWAP5 POP PUSH2 0x1992 DUP5 DUP5 DUP2 MLOAD DUP2 LT PUSH2 0x1984 JUMPI PUSH2 0x1983 PUSH2 0x72EB JUMP JUMPDEST JUMPDEST PUSH1 0x20 MUL PUSH1 0x20 ADD ADD MLOAD DUP3 PUSH2 0x4601 JUMP JUMPDEST PUSH1 0x0 PUSH20 0xFFFFFFFFFFFFFFFFFFFFFFFFFFFFFFFFFFFFFFFF AND PUSH2 0x47F PUSH1 0x0 SWAP1 SLOAD SWAP1 PUSH2 0x100 EXP SWAP1 DIV PUSH20 0xFFFFFFFFFFFFFFFFFFFFFFFFFFFFFFFFFFFFFFFF AND PUSH20 0xFFFFFFFFFFFFFFFFFFFFFFFFFFFFFFFFFFFFFFFF AND EQ PUSH2 0x1A0E JUMPI PUSH2 0x1A0D DUP13 DUP5 DUP2 MLOAD DUP2 LT PUSH2 0x19FF JUMPI PUSH2 0x19FE PUSH2 0x72EB JUMP JUMPDEST JUMPDEST PUSH1 0x20 MUL PUSH1 0x20 ADD ADD MLOAD DUP3 PUSH2 0x4776 JUMP JUMPDEST JUMPDEST PUSH2 0x1A32 DUP2 DUP12 DUP6 DUP2 MLOAD DUP2 LT PUSH2 0x1A25 JUMPI PUSH2 0x1A24 PUSH2 0x72EB JUMP JUMPDEST JUMPDEST PUSH1 0x20 MUL PUSH1 0x20 ADD ADD MLOAD PUSH2 0x47B4 JUMP JUMPDEST PUSH1 0x0 DUP1 PUSH20 0xFFFFFFFFFFFFFFFFFFFFFFFFFFFFFFFFFFFFFFFF AND PUSH2 0x47F PUSH1 0x0 SWAP1 SLOAD SWAP1 PUSH2 0x100 EXP SWAP1 DIV PUSH20 0xFFFFFFFFFFFFFFFFFFFFFFFFFFFFFFFFFFFFFFFF AND PUSH20 0xFFFFFFFFFFFFFFFFFFFFFFFFFFFFFFFFFFFFFFFF AND EQ PUSH2 0x1AAA JUMPI DUP13 DUP5 DUP2 MLOAD DUP2 LT PUSH2 0x1A9D JUMPI PUSH2 0x1A9C PUSH2 0x72EB JUMP JUMPDEST JUMPDEST PUSH1 0x20 MUL PUSH1 0x20 ADD ADD MLOAD PUSH2 0x1AAC JUMP JUMPDEST CALLVALUE JUMPDEST SWAP1 POP PUSH1 0x0 PUSH20 0xFFFFFFFFFFFFFFFFFFFFFFFFFFFFFFFFFFFFFFFF AND PUSH2 0xC57 PUSH1 0x0 SWAP1 SLOAD SWAP1 PUSH2 0x100 EXP SWAP1 DIV PUSH20 0xFFFFFFFFFFFFFFFFFFFFFFFFFFFFFFFFFFFFFFFF AND PUSH20 0xFFFFFFFFFFFFFFFFFFFFFFFFFFFFFFFFFFFFFFFF AND EQ PUSH2 0x1BF9 JUMPI PUSH2 0xC57 PUSH1 0x0 SWAP1 SLOAD SWAP1 PUSH2 0x100 EXP SWAP1 DIV PUSH20 0xFFFFFFFFFFFFFFFFFFFFFFFFFFFFFFFFFFFFFFFF AND PUSH20 0xFFFFFFFFFFFFFFFFFFFFFFFFFFFFFFFFFFFFFFFF AND PUSH4 0x5E895F29 DUP7 DUP7 DUP2 MLOAD DUP2 LT PUSH2 0x1B57 JUMPI PUSH2 0x1B56 PUSH2 0x72EB JUMP JUMPDEST JUMPDEST PUSH1 0x20 MUL PUSH1 0x20 ADD ADD MLOAD CALLER DUP7 DUP16 DUP10 DUP2 MLOAD DUP2 LT PUSH2 0x1B74 JUMPI PUSH2 0x1B73 PUSH2 0x72EB JUMP JUMPDEST JUMPDEST PUSH1 0x20 MUL PUSH1 0x20 ADD ADD MLOAD DUP15 DUP15 DUP12 DUP2 DUP2 LT PUSH2 0x1B8F JUMPI PUSH2 0x1B8E PUSH2 0x72EB JUMP JUMPDEST JUMPDEST SWAP1 POP PUSH1 0x20 MUL DUP2 ADD SWAP1 PUSH2 0x1BA1 SWAP2 SWAP1 PUSH2 0x7329 JUMP JUMPDEST DUP10 DUP10 PUSH1 0x40 MLOAD DUP10 PUSH4 0xFFFFFFFF AND PUSH1 0xE0 SHL DUP2 MSTORE PUSH1 0x4 ADD PUSH2 0x1BC6 SWAP9 SWAP8 SWAP7 SWAP6 SWAP5 SWAP4 SWAP3 SWAP2 SWAP1 PUSH2 0x73B9 JUMP JUMPDEST PUSH1 0x0 PUSH1 0x40 MLOAD DUP1 DUP4 SUB DUP2 PUSH1 0x0 DUP8 DUP1 EXTCODESIZE ISZERO DUP1 ISZERO PUSH2 0x1BE0 JUMPI PUSH1 0x0 DUP1 REVERT JUMPDEST POP GAS CALL ISZERO DUP1 ISZERO PUSH2 0x1BF4 JUMPI RETURNDATASIZE PUSH1 0x0 DUP1 RETURNDATACOPY RETURNDATASIZE PUSH1 0x0 REVERT JUMPDEST POP POP POP POP JUMPDEST POP POP POP DUP1 DUP1 PUSH2 0x1C07 SWAP1 PUSH2 0x7431 JUMP JUMPDEST SWAP2 POP POP PUSH2 0x1805 JUMP JUMPDEST POP PUSH2 0x1C1A CALLER DUP4 PUSH2 0x497B JUMP JUMPDEST PUSH2 0x1C23 DUP3 PUSH2 0x4ABA JUMP JUMPDEST PUSH2 0x1C2B PUSH2 0x4C7F JUMP JUMPDEST PUSH1 0x0 JUMPDEST DUP8 MLOAD DUP2 LT ISZERO PUSH2 0x1C6D JUMPI PUSH2 0x1C5A DUP9 DUP3 DUP2 MLOAD DUP2 LT PUSH2 0x1C4D JUMPI PUSH2 0x1C4C PUSH2 0x72EB JUMP JUMPDEST JUMPDEST PUSH1 0x20 MUL PUSH1 0x20 ADD ADD MLOAD PUSH2 0x4D34 JUMP JUMPDEST DUP1 DUP1 PUSH2 0x1C65 SWAP1 PUSH2 0x7431 JUMP JUMPDEST SWAP2 POP POP PUSH2 0x1C2E JUMP JUMPDEST POP DUP1 SWAP3 POP POP POP SWAP7 SWAP6 POP POP POP POP POP POP JUMP JUMPDEST PUSH2 0x1C85 PUSH2 0x4E90 JUMP JUMPDEST PUSH20 0xFFFFFFFFFFFFFFFFFFFFFFFFFFFFFFFFFFFFFFFF AND DUP2 PUSH20 0xFFFFFFFFFFFFFFFFFFFFFFFFFFFFFFFFFFFFFFFF AND EQ PUSH2 0x1CF2 JUMPI PUSH1 0x40 MLOAD PUSH32 0x8C379A000000000000000000000000000000000000000000000000000000000 DUP2 MSTORE PUSH1 0x4 ADD PUSH2 0x1CE9 SWAP1 PUSH2 0x74FC JUMP JUMPDEST PUSH1 0x40 MLOAD DUP1 SWAP2 SUB SWAP1 REVERT JUMPDEST PUSH2 0x1CFC DUP3 DUP3 PUSH2 0x4E98 JUMP JUMPDEST POP POP JUMP JUMPDEST PUSH2 0xC5D PUSH1 0x0 SWAP1 SLOAD SWAP1 PUSH2 0x100 EXP SWAP1 DIV PUSH20 0xFFFFFFFFFFFFFFFFFFFFFFFFFFFFFFFFFFFFFFFF AND DUP2 JUMP JUMPDEST PUSH2 0x1046 PUSH1 0x0 DUP3 DUP2 MSTORE PUSH1 0x20 ADD SWAP1 DUP2 MSTORE PUSH1 0x20 ADD PUSH1 0x0 KECCAK256 PUSH1 0x0 SWAP1 SLOAD SWAP1 PUSH2 0x100 EXP SWAP1 DIV PUSH20 0xFFFFFFFFFFFFFFFFFFFFFFFFFFFFFFFFFFFFFFFF AND PUSH20 0xFFFFFFFFFFFFFFFFFFFFFFFFFFFFFFFFFFFFFFFF AND CALLER PUSH20 0xFFFFFFFFFFFFFFFFFFFFFFFFFFFFFFFFFFFFFFFF AND EQ PUSH2 0x1DC0 JUMPI PUSH1 0x40 MLOAD PUSH32 0x75FD2B100000000000000000000000000000000000000000000000000000000 DUP2 MSTORE PUSH1 0x4 ADD PUSH1 0x40 MLOAD DUP1 SWAP2 SUB SWAP1 REVERT JUMPDEST PUSH2 0x1DD3 PUSH2 0x1DCC DUP3 PUSH2 0x21DF JUMP JUMPDEST DUP4 DUP4 PUSH2 0x3FA3 JUMP JUMPDEST POP POP JUMP JUMPDEST PUSH2 0x1DF2 DUP4 DUP4 DUP4 PUSH1 0x40 MLOAD DUP1 PUSH1 0x20 ADD PUSH1 0x40 MSTORE DUP1 PUSH1 0x0 DUP2 MSTORE POP PUSH2 0x328B JUMP JUMPDEST POP POP POP JUMP JUMPDEST PUSH2 0x1E00 DUP2 PUSH2 0x3B26 JUMP JUMPDEST PUSH2 0x1E09 DUP2 PUSH2 0x3BBC JUMP JUMPDEST DUP1 PUSH1 0x0 PUSH20 0xFFFFFFFFFFFFFFFFFFFFFFFFFFFFFFFFFFFFFFFF AND PUSH2 0x1044 PUSH1 0x0 DUP5 DUP2 MSTORE PUSH1 0x20 ADD SWAP1 DUP2 MSTORE PUSH1 0x20 ADD PUSH1 0x0 KECCAK256 PUSH1 0x0 SWAP1 SLOAD SWAP1 PUSH2 0x100 EXP SWAP1 DIV PUSH20 0xFFFFFFFFFFFFFFFFFFFFFFFFFFFFFFFFFFFFFFFF AND PUSH20 0xFFFFFFFFFFFFFFFFFFFFFFFFFFFFFFFFFFFFFFFF AND PUSH32 0xDDF252AD1BE2C89B69C2B068FC378DAA952BA7F163C4A11628F55A4DF523B3EF PUSH1 0x40 MLOAD PUSH1 0x40 MLOAD DUP1 SWAP2 SUB SWAP1 LOG4 PUSH2 0x1EA2 DUP2 PUSH2 0x4F7A JUMP JUMPDEST PUSH1 0x0 PUSH2 0x1044 PUSH1 0x0 DUP4 DUP2 MSTORE PUSH1 0x20 ADD SWAP1 DUP2 MSTORE PUSH1 0x20 ADD PUSH1 0x0 KECCAK256 PUSH1 0x0 PUSH2 0x100 EXP DUP2 SLOAD DUP2 PUSH20 0xFFFFFFFFFFFFFFFFFFFFFFFFFFFFFFFFFFFFFFFF MUL NOT AND SWAP1 DUP4 PUSH20 0xFFFFFFFFFFFFFFFFFFFFFFFFFFFFFFFFFFFFFFFF AND MUL OR SWAP1 SSTORE POP POP JUMP JUMPDEST PUSH2 0x1046 PUSH1 0x20 MSTORE DUP1 PUSH1 0x0 MSTORE PUSH1 0x40 PUSH1 0x0 KECCAK256 PUSH1 0x0 SWAP2 POP SLOAD SWAP1 PUSH2 0x100 EXP SWAP1 DIV PUSH20 0xFFFFFFFFFFFFFFFFFFFFFFFFFFFFFFFFFFFFFFFF AND DUP2 JUMP JUMPDEST PUSH2 0xC5B SLOAD DUP2 JUMP JUMPDEST PUSH1 0x0 PUSH32 0xFFFFFFFFFFFFFFFFFFFFFFFFFFFFFFFFFFFFFFFFFFFFFFFFFFFFFFFFFFFFFFFF PUSH2 0x1433 PUSH1 0x0 DUP6 DUP2 MSTORE PUSH1 0x20 ADD SWAP1 DUP2 MSTORE PUSH1 0x20 ADD PUSH1 0x0 KECCAK256 SLOAD EQ DUP1 PUSH2 0x1FC7 JUMPI POP PUSH1 0x0 PUSH20 0xFFFFFFFFFFFFFFFFFFFFFFFFFFFFFFFFFFFFFFFF AND PUSH2 0x47F PUSH1 0x0 SWAP1 SLOAD SWAP1 PUSH2 0x100 EXP SWAP1 DIV PUSH20 0xFFFFFFFFFFFFFFFFFFFFFFFFFFFFFFFFFFFFFFFF AND PUSH20 0xFFFFFFFFFFFFFFFFFFFFFFFFFFFFFFFFFFFFFFFF AND EQ JUMPDEST ISZERO PUSH2 0x1FFE JUMPI PUSH1 0x40 MLOAD PUSH32 0xD9A81C2200000000000000000000000000000000000000000000000000000000 DUP2 MSTORE PUSH1 0x4 ADD PUSH1 0x40 MLOAD DUP1 SWAP2 SUB SWAP1 REVERT JUMPDEST PUSH2 0x2020 PUSH2 0x200A DUP5 PUSH2 0x21DF JUMP JUMPDEST DUP4 PUSH1 0x40 MLOAD DUP1 PUSH1 0x20 ADD PUSH1 0x40 MSTORE DUP1 PUSH1 0x0 DUP2 MSTORE POP PUSH2 0x127F JUMP JUMPDEST PUSH2 0x1432 PUSH1 0x0 DUP6 DUP2 MSTORE PUSH1 0x20 ADD SWAP1 DUP2 MSTORE PUSH1 0x20 ADD PUSH1 0x0 KECCAK256 SLOAD LT DUP1 PUSH2 0x2057 JUMPI POP PUSH2 0xC52 SLOAD PUSH2 0x1433 PUSH1 0x0 DUP6 DUP2 MSTORE PUSH1 0x20 ADD SWAP1 DUP2 MSTORE PUSH1 0x20 ADD PUSH1 0x0 KECCAK256 SLOAD GT JUMPDEST DUP1 PUSH2 0x20E5 JUMPI POP PUSH2 0x47F PUSH1 0x0 SWAP1 SLOAD SWAP1 PUSH2 0x100 EXP SWAP1 DIV PUSH20 0xFFFFFFFFFFFFFFFFFFFFFFFFFFFFFFFFFFFFFFFF AND PUSH20 0xFFFFFFFFFFFFFFFFFFFFFFFFFFFFFFFFFFFFFFFF AND PUSH2 0x1434 PUSH1 0x0 DUP6 DUP2 MSTORE PUSH1 0x20 ADD SWAP1 DUP2 MSTORE PUSH1 0x20 ADD PUSH1 0x0 KECCAK256 PUSH1 0x0 SWAP1 SLOAD SWAP1 PUSH2 0x100 EXP SWAP1 DIV PUSH20 0xFFFFFFFFFFFFFFFFFFFFFFFFFFFFFFFFFFFFFFFF AND PUSH20 0xFFFFFFFFFFFFFFFFFFFFFFFFFFFFFFFFFFFFFFFF AND EQ ISZERO JUMPDEST ISZERO PUSH2 0x211C JUMPI PUSH1 0x40 MLOAD PUSH32 0x986739E700000000000000000000000000000000000000000000000000000000 DUP2 MSTORE PUSH1 0x4 ADD PUSH1 0x40 MLOAD DUP1 SWAP2 SUB SWAP1 REVERT JUMPDEST PUSH1 0x0 PUSH2 0x2710 PUSH2 0x2328 PUSH2 0xC52 SLOAD PUSH2 0x2132 SWAP2 SWAP1 PUSH2 0x751C JUMP JUMPDEST PUSH2 0x213C SWAP2 SWAP1 PUSH2 0x758D JUMP JUMPDEST PUSH2 0xC52 SLOAD PUSH2 0x1049 PUSH1 0x0 DUP8 DUP2 MSTORE PUSH1 0x20 ADD SWAP1 DUP2 MSTORE PUSH1 0x20 ADD PUSH1 0x0 KECCAK256 PUSH1 0x1 ADD SLOAD PUSH2 0x2162 SWAP2 SWAP1 PUSH2 0x713F JUMP JUMPDEST PUSH2 0x216C SWAP2 SWAP1 PUSH2 0x72B7 JUMP JUMPDEST SWAP1 POP DUP1 TIMESTAMP LT ISZERO PUSH2 0x21A8 JUMPI PUSH1 0x40 MLOAD PUSH32 0xC1B1D86600000000000000000000000000000000000000000000000000000000 DUP2 MSTORE PUSH1 0x4 ADD PUSH1 0x40 MLOAD DUP1 SWAP2 SUB SWAP1 REVERT JUMPDEST PUSH1 0x1 SWAP2 POP POP SWAP3 SWAP2 POP POP JUMP JUMPDEST PUSH1 0x0 PUSH2 0x1049 PUSH1 0x0 DUP4 DUP2 MSTORE PUSH1 0x20 ADD SWAP1 DUP2 MSTORE PUSH1 0x20 ADD PUSH1 0x0 KECCAK256 PUSH1 0x1 ADD SLOAD SWAP1 POP SWAP2 SWAP1 POP JUMP JUMPDEST PUSH1 0x0 PUSH2 0x1431 SLOAD SWAP1 POP SWAP1 JUMP JUMPDEST PUSH1 0x0 PUSH2 0x1044 PUSH1 0x0 DUP4 DUP2 MSTORE PUSH1 0x20 ADD SWAP1 DUP2 MSTORE PUSH1 0x20 ADD PUSH1 0x0 KECCAK256 PUSH1 0x0 SWAP1 SLOAD SWAP1 PUSH2 0x100 EXP SWAP1 DIV PUSH20 0xFFFFFFFFFFFFFFFFFFFFFFFFFFFFFFFFFFFFFFFF AND SWAP1 POP SWAP2 SWAP1 POP JUMP JUMPDEST PUSH1 0x0 DUP1 PUSH2 0x2229 DUP4 PUSH2 0x234B JUMP JUMPDEST SUB PUSH2 0x2336 JUMPI PUSH1 0x0 PUSH20 0xFFFFFFFFFFFFFFFFFFFFFFFFFFFFFFFFFFFFFFFF AND PUSH2 0xC59 PUSH1 0x0 SWAP1 SLOAD SWAP1 PUSH2 0x100 EXP SWAP1 DIV PUSH20 0xFFFFFFFFFFFFFFFFFFFFFFFFFFFFFFFFFFFFFFFF AND PUSH20 0xFFFFFFFFFFFFFFFFFFFFFFFFFFFFFFFFFFFFFFFF AND EQ PUSH2 0x2335 JUMPI PUSH2 0xC59 PUSH1 0x0 SWAP1 SLOAD SWAP1 PUSH2 0x100 EXP SWAP1 DIV PUSH20 0xFFFFFFFFFFFFFFFFFFFFFFFFFFFFFFFFFFFFFFFF AND PUSH20 0xFFFFFFFFFFFFFFFFFFFFFFFFFFFFFFFFFFFFFFFF AND PUSH4 0x427EDE38 ADDRESS CALLER PUSH1 0x0 DUP1 DUP8 PUSH1 0x0 PUSH1 0x40 MLOAD DUP8 PUSH4 0xFFFFFFFF AND PUSH1 0xE0 SHL DUP2 MSTORE PUSH1 0x4 ADD PUSH2 0x22ED SWAP7 SWAP6 SWAP5 SWAP4 SWAP3 SWAP2 SWAP1 PUSH2 0x75F9 JUMP JUMPDEST PUSH1 0x20 PUSH1 0x40 MLOAD DUP1 DUP4 SUB DUP2 DUP7 GAS STATICCALL ISZERO DUP1 ISZERO PUSH2 0x230A JUMPI RETURNDATASIZE PUSH1 0x0 DUP1 RETURNDATACOPY RETURNDATASIZE PUSH1 0x0 REVERT JUMPDEST POP POP POP POP PUSH1 0x40 MLOAD RETURNDATASIZE PUSH1 0x1F NOT PUSH1 0x1F DUP3 ADD AND DUP3 ADD DUP1 PUSH1 0x40 MSTORE POP DUP2 ADD SWAP1 PUSH2 0x232E SWAP2 SWAP1 PUSH2 0x766F JUMP JUMPDEST SWAP1 POP PUSH2 0x2346 JUMP JUMPDEST JUMPDEST PUSH1 0x1 PUSH2 0x2341 DUP4 PUSH2 0x234B JUMP JUMPDEST LT ISZERO SWAP1 POP JUMPDEST SWAP2 SWAP1 POP JUMP JUMPDEST PUSH1 0x0 DUP1 PUSH2 0x2357 DUP4 PUSH2 0x2A38 JUMP JUMPDEST SWAP1 POP PUSH1 0x0 JUMPDEST DUP2 DUP2 LT ISZERO PUSH2 0x239D JUMPI PUSH2 0x2376 PUSH2 0x2371 DUP6 DUP4 PUSH2 0x1676 JUMP JUMPDEST PUSH2 0x2FE1 JUMP JUMPDEST ISZERO PUSH2 0x238A JUMPI DUP3 DUP1 PUSH2 0x2386 SWAP1 PUSH2 0x7431 JUMP JUMPDEST SWAP4 POP POP JUMPDEST DUP1 DUP1 PUSH2 0x2395 SWAP1 PUSH2 0x7431 JUMP JUMPDEST SWAP2 POP POP PUSH2 0x235C JUMP JUMPDEST POP POP SWAP2 SWAP1 POP JUMP JUMPDEST PUSH2 0xC54 SLOAD DUP2 JUMP JUMPDEST PUSH2 0x23B3 PUSH2 0x42FA JUMP JUMPDEST PUSH1 0x0 PUSH20 0xFFFFFFFFFFFFFFFFFFFFFFFFFFFFFFFFFFFFFFFF AND DUP8 PUSH20 0xFFFFFFFFFFFFFFFFFFFFFFFFFFFFFFFFFFFFFFFF AND EQ ISZERO DUP1 ISZERO PUSH2 0x240C JUMPI POP PUSH2 0x240A DUP8 PUSH20 0xFFFFFFFFFFFFFFFFFFFFFFFFFFFFFFFFFFFFFFFF AND PUSH2 0x4F99 JUMP JUMPDEST ISZERO JUMPDEST ISZERO PUSH2 0x244F JUMPI PUSH1 0x0 PUSH1 0x40 MLOAD PUSH32 0x6788E02B00000000000000000000000000000000000000000000000000000000 DUP2 MSTORE PUSH1 0x4 ADD PUSH2 0x2446 SWAP2 SWAP1 PUSH2 0x76DA JUMP JUMPDEST PUSH1 0x40 MLOAD DUP1 SWAP2 SUB SWAP1 REVERT JUMPDEST PUSH1 0x0 PUSH20 0xFFFFFFFFFFFFFFFFFFFFFFFFFFFFFFFFFFFFFFFF AND DUP7 PUSH20 0xFFFFFFFFFFFFFFFFFFFFFFFFFFFFFFFFFFFFFFFF AND EQ ISZERO DUP1 ISZERO PUSH2 0x24A8 JUMPI POP PUSH2 0x24A6 DUP7 PUSH20 0xFFFFFFFFFFFFFFFFFFFFFFFFFFFFFFFFFFFFFFFF AND PUSH2 0x4F99 JUMP JUMPDEST ISZERO JUMPDEST ISZERO PUSH2 0x24EB JUMPI PUSH1 0x1 PUSH1 0x40 MLOAD PUSH32 0x6788E02B00000000000000000000000000000000000000000000000000000000 DUP2 MSTORE PUSH1 0x4 ADD PUSH2 0x24E2 SWAP2 SWAP1 PUSH2 0x7730 JUMP JUMPDEST PUSH1 0x40 MLOAD DUP1 SWAP2 SUB SWAP1 REVERT JUMPDEST PUSH1 0x0 PUSH20 0xFFFFFFFFFFFFFFFFFFFFFFFFFFFFFFFFFFFFFFFF AND DUP6 PUSH20 0xFFFFFFFFFFFFFFFFFFFFFFFFFFFFFFFFFFFFFFFF AND EQ ISZERO DUP1 ISZERO PUSH2 0x2544 JUMPI POP PUSH2 0x2542 DUP6 PUSH20 0xFFFFFFFFFFFFFFFFFFFFFFFFFFFFFFFFFFFFFFFF AND PUSH2 0x4F99 JUMP JUMPDEST ISZERO JUMPDEST ISZERO PUSH2 0x2587 JUMPI PUSH1 0x2 PUSH1 0x40 MLOAD PUSH32 0x6788E02B00000000000000000000000000000000000000000000000000000000 DUP2 MSTORE PUSH1 0x4 ADD PUSH2 0x257E SWAP2 SWAP1 PUSH2 0x7786 JUMP JUMPDEST PUSH1 0x40 MLOAD DUP1 SWAP2 SUB SWAP1 REVERT JUMPDEST PUSH1 0x0 PUSH20 0xFFFFFFFFFFFFFFFFFFFFFFFFFFFFFFFFFFFFFFFF AND DUP5 PUSH20 0xFFFFFFFFFFFFFFFFFFFFFFFFFFFFFFFFFFFFFFFF AND EQ ISZERO DUP1 ISZERO PUSH2 0x25E0 JUMPI POP PUSH2 0x25DE DUP5 PUSH20 0xFFFFFFFFFFFFFFFFFFFFFFFFFFFFFFFFFFFFFFFF AND PUSH2 0x4F99 JUMP JUMPDEST ISZERO JUMPDEST ISZERO PUSH2 0x2623 JUMPI PUSH1 0x3 PUSH1 0x40 MLOAD PUSH32 0x6788E02B00000000000000000000000000000000000000000000000000000000 DUP2 MSTORE PUSH1 0x4 ADD PUSH2 0x261A SWAP2 SWAP1 PUSH2 0x77DC JUMP JUMPDEST PUSH1 0x40 MLOAD DUP1 SWAP2 SUB SWAP1 REVERT JUMPDEST PUSH1 0x0 PUSH20 0xFFFFFFFFFFFFFFFFFFFFFFFFFFFFFFFFFFFFFFFF AND DUP4 PUSH20 0xFFFFFFFFFFFFFFFFFFFFFFFFFFFFFFFFFFFFFFFF AND EQ ISZERO DUP1 ISZERO PUSH2 0x267C JUMPI POP PUSH2 0x267A DUP4 PUSH20 0xFFFFFFFFFFFFFFFFFFFFFFFFFFFFFFFFFFFFFFFF AND PUSH2 0x4F99 JUMP JUMPDEST ISZERO JUMPDEST ISZERO PUSH2 0x26BF JUMPI PUSH1 0x4 PUSH1 0x40 MLOAD PUSH32 0x6788E02B00000000000000000000000000000000000000000000000000000000 DUP2 MSTORE PUSH1 0x4 ADD PUSH2 0x26B6 SWAP2 SWAP1 PUSH2 0x7832 JUMP JUMPDEST PUSH1 0x40 MLOAD DUP1 SWAP2 SUB SWAP1 REVERT JUMPDEST PUSH1 0x0 PUSH20 0xFFFFFFFFFFFFFFFFFFFFFFFFFFFFFFFFFFFFFFFF AND DUP3 PUSH20 0xFFFFFFFFFFFFFFFFFFFFFFFFFFFFFFFFFFFFFFFF AND EQ ISZERO DUP1 ISZERO PUSH2 0x2718 JUMPI POP PUSH2 0x2716 DUP3 PUSH20 0xFFFFFFFFFFFFFFFFFFFFFFFFFFFFFFFFFFFFFFFF AND PUSH2 0x4F99 JUMP JUMPDEST ISZERO JUMPDEST ISZERO PUSH2 0x275B JUMPI PUSH1 0x5 PUSH1 0x40 MLOAD PUSH32 0x6788E02B00000000000000000000000000000000000000000000000000000000 DUP2 MSTORE PUSH1 0x4 ADD PUSH2 0x2752 SWAP2 SWAP1 PUSH2 0x7888 JUMP JUMPDEST PUSH1 0x40 MLOAD DUP1 SWAP2 SUB SWAP1 REVERT JUMPDEST PUSH1 0x0 PUSH20 0xFFFFFFFFFFFFFFFFFFFFFFFFFFFFFFFFFFFFFFFF AND DUP2 PUSH20 0xFFFFFFFFFFFFFFFFFFFFFFFFFFFFFFFFFFFFFFFF AND EQ ISZERO DUP1 ISZERO PUSH2 0x27B4 JUMPI POP PUSH2 0x27B2 DUP2 PUSH20 0xFFFFFFFFFFFFFFFFFFFFFFFFFFFFFFFFFFFFFFFF AND PUSH2 0x4F99 JUMP JUMPDEST ISZERO JUMPDEST ISZERO PUSH2 0x27F7 JUMPI PUSH1 0x6 PUSH1 0x40 MLOAD PUSH32 0x6788E02B00000000000000000000000000000000000000000000000000000000 DUP2 MSTORE PUSH1 0x4 ADD PUSH2 0x27EE SWAP2 SWAP1 PUSH2 0x78DE JUMP JUMPDEST PUSH1 0x40 MLOAD DUP1 SWAP2 SUB SWAP1 REVERT JUMPDEST DUP7 PUSH2 0xC57 PUSH1 0x0 PUSH2 0x100 EXP DUP2 SLOAD DUP2 PUSH20 0xFFFFFFFFFFFFFFFFFFFFFFFFFFFFFFFFFFFFFFFF MUL NOT AND SWAP1 DUP4 PUSH20 0xFFFFFFFFFFFFFFFFFFFFFFFFFFFFFFFFFFFFFFFF AND MUL OR SWAP1 SSTORE POP DUP6 PUSH2 0xC58 PUSH1 0x0 PUSH2 0x100 EXP DUP2 SLOAD DUP2 PUSH20 0xFFFFFFFFFFFFFFFFFFFFFFFFFFFFFFFFFFFFFFFF MUL NOT AND SWAP1 DUP4 PUSH20 0xFFFFFFFFFFFFFFFFFFFFFFFFFFFFFFFFFFFFFFFF AND MUL OR SWAP1 SSTORE POP DUP4 PUSH2 0xC5A PUSH1 0x0 PUSH2 0x100 EXP DUP2 SLOAD DUP2 PUSH20 0xFFFFFFFFFFFFFFFFFFFFFFFFFFFFFFFFFFFFFFFF MUL NOT AND SWAP1 DUP4 PUSH20 0xFFFFFFFFFFFFFFFFFFFFFFFFFFFFFFFFFFFFFFFF AND MUL OR SWAP1 SSTORE POP DUP5 PUSH2 0xC59 PUSH1 0x0 PUSH2 0x100 EXP DUP2 SLOAD DUP2 PUSH20 0xFFFFFFFFFFFFFFFFFFFFFFFFFFFFFFFFFFFFFFFF MUL NOT AND SWAP1 DUP4 PUSH20 0xFFFFFFFFFFFFFFFFFFFFFFFFFFFFFFFFFFFFFFFF AND MUL OR SWAP1 SSTORE POP DUP3 PUSH2 0xC5D PUSH1 0x0 PUSH2 0x100 EXP DUP2 SLOAD DUP2 PUSH20 0xFFFFFFFFFFFFFFFFFFFFFFFFFFFFFFFFFFFFFFFF MUL NOT AND SWAP1 DUP4 PUSH20 0xFFFFFFFFFFFFFFFFFFFFFFFFFFFFFFFFFFFFFFFF AND MUL OR SWAP1 SSTORE POP DUP2 PUSH2 0xC5E PUSH1 0x0 PUSH2 0x100 EXP DUP2 SLOAD DUP2 PUSH20 0xFFFFFFFFFFFFFFFFFFFFFFFFFFFFFFFFFFFFFFFF MUL NOT AND SWAP1 DUP4 PUSH20 0xFFFFFFFFFFFFFFFFFFFFFFFFFFFFFFFFFFFFFFFF AND MUL OR SWAP1 SSTORE POP DUP1 PUSH2 0xC5F PUSH1 0x0 PUSH2 0x100 EXP DUP2 SLOAD DUP2 PUSH20 0xFFFFFFFFFFFFFFFFFFFFFFFFFFFFFFFFFFFFFFFF MUL NOT AND SWAP1 DUP4 PUSH20 0xFFFFFFFFFFFFFFFFFFFFFFFFFFFFFFFFFFFFFFFF AND MUL OR SWAP1 SSTORE POP PUSH32 0xA851288E37FA9A8BC562891998524E95C286FE84F693C1921E0FD0792171AF6 DUP8 DUP8 DUP8 DUP8 DUP8 DUP8 DUP8 PUSH1 0x40 MLOAD PUSH2 0x2A00 SWAP8 SWAP7 SWAP6 SWAP5 SWAP4 SWAP3 SWAP2 SWAP1 PUSH2 0x78F9 JUMP JUMPDEST PUSH1 0x40 MLOAD DUP1 SWAP2 SUB SWAP1 LOG1 POP POP POP POP POP POP POP JUMP JUMPDEST PUSH2 0xC5A PUSH1 0x0 SWAP1 SLOAD SWAP1 PUSH2 0x100 EXP SWAP1 DIV PUSH20 0xFFFFFFFFFFFFFFFFFFFFFFFFFFFFFFFFFFFFFFFF AND DUP2 JUMP JUMPDEST PUSH1 0x0 DUP1 PUSH20 0xFFFFFFFFFFFFFFFFFFFFFFFFFFFFFFFFFFFFFFFF AND DUP3 PUSH20 0xFFFFFFFFFFFFFFFFFFFFFFFFFFFFFFFFFFFFFFFF AND SUB PUSH2 0x2A9F JUMPI PUSH1 0x40 MLOAD PUSH32 0x5963709B00000000000000000000000000000000000000000000000000000000 DUP2 MSTORE PUSH1 0x4 ADD PUSH1 0x40 MLOAD DUP1 SWAP2 SUB SWAP1 REVERT JUMPDEST PUSH2 0x104C PUSH1 0x0 DUP4 PUSH20 0xFFFFFFFFFFFFFFFFFFFFFFFFFFFFFFFFFFFFFFFF AND PUSH20 0xFFFFFFFFFFFFFFFFFFFFFFFFFFFFFFFFFFFFFFFF AND DUP2 MSTORE PUSH1 0x20 ADD SWAP1 DUP2 MSTORE PUSH1 0x20 ADD PUSH1 0x0 KECCAK256 SLOAD SWAP1 POP SWAP2 SWAP1 POP JUMP JUMPDEST PUSH2 0x2AEF PUSH2 0x4451 JUMP JUMPDEST PUSH2 0x2AF8 DUP3 PUSH2 0x3B26 JUMP JUMPDEST PUSH2 0x2B02 DUP3 DUP3 PUSH2 0x1F34 JUMP JUMPDEST POP PUSH2 0x2B0E DUP3 PUSH1 0x0 PUSH2 0x4FBC JUMP JUMPDEST POP PUSH2 0x2B1C PUSH2 0xC53 SLOAD DUP3 PUSH2 0x47B4 JUMP JUMPDEST PUSH2 0x2B31 PUSH2 0x2B28 DUP4 PUSH2 0x21DF JUMP JUMPDEST PUSH2 0xC53 SLOAD PUSH2 0x497B JUMP JUMPDEST PUSH2 0x2B39 PUSH2 0x4C7F JUMP JUMPDEST PUSH2 0x2B42 DUP2 PUSH2 0x4D34 JUMP JUMPDEST PUSH2 0x2B4E PUSH2 0xC53 SLOAD PUSH2 0x4ABA JUMP JUMPDEST POP POP JUMP JUMPDEST PUSH2 0x2B5A PUSH2 0x42FA JUMP JUMPDEST PUSH32 0x496ED1E61EB69727F9659A8E859288DB4758FFB1F744D1C1424634F90A257F4 DUP2 PUSH1 0x40 MLOAD PUSH2 0x2B89 SWAP2 SWAP1 PUSH2 0x6522 JUMP JUMPDEST PUSH1 0x40 MLOAD DUP1 SWAP2 SUB SWAP1 LOG1 DUP1 PUSH2 0x181A DUP2 SWAP1 SSTORE POP POP JUMP JUMPDEST PUSH1 0x1 PUSH2 0x2BA6 PUSH2 0x331E JUMP JUMPDEST PUSH2 0x2BB0 SWAP2 SWAP1 PUSH2 0x7968 JUMP JUMPDEST PUSH2 0xFFFF AND PUSH2 0xC5B SLOAD EQ DUP1 PUSH2 0x2BC7 JUMPI POP PUSH1 0x0 PUSH2 0xC5B SLOAD EQ JUMPDEST PUSH2 0x2C06 JUMPI PUSH1 0x40 MLOAD PUSH32 0x8C379A000000000000000000000000000000000000000000000000000000000 DUP2 MSTORE PUSH1 0x4 ADD PUSH2 0x2BFD SWAP1 PUSH2 0x79EA JUMP JUMPDEST PUSH1 0x40 MLOAD DUP1 SWAP2 SUB SWAP1 REVERT JUMPDEST PUSH1 0x1 CHAINID SUB PUSH2 0x2CCB JUMPI PUSH1 0x0 PUSH20 0xE79B93F8E22676774F2A8DAD469175EBD00029FA SWAP1 POP DUP1 PUSH20 0xFFFFFFFFFFFFFFFFFFFFFFFFFFFFFFFFFFFFFFFF AND PUSH4 0xED9674BD PUSH1 0x40 MLOAD DUP2 PUSH4 0xFFFFFFFF AND PUSH1 0xE0 SHL DUP2 MSTORE PUSH1 0x4 ADD PUSH1 0x0 PUSH1 0x40 MLOAD DUP1 DUP4 SUB DUP2 PUSH1 0x0 DUP8 DUP1 EXTCODESIZE ISZERO DUP1 ISZERO PUSH2 0x2C6F JUMPI PUSH1 0x0 DUP1 REVERT JUMPDEST POP GAS CALL ISZERO DUP1 ISZERO PUSH2 0x2C83 JUMPI RETURNDATASIZE PUSH1 0x0 DUP1 RETURNDATACOPY RETURNDATASIZE PUSH1 0x0 REVERT JUMPDEST POP POP POP POP DUP1 PUSH2 0xC51 PUSH1 0x0 PUSH2 0x100 EXP DUP2 SLOAD DUP2 PUSH20 0xFFFFFFFFFFFFFFFFFFFFFFFFFFFFFFFFFFFFFFFF MUL NOT AND SWAP1 DUP4 PUSH20 0xFFFFFFFFFFFFFFFFFFFFFFFFFFFFFFFFFFFFFFFF AND MUL OR SWAP1 SSTORE POP POP JUMPDEST PUSH2 0x2CD3 PUSH2 0x331E JUMP JUMPDEST PUSH2 0xFFFF AND PUSH2 0xC5B DUP2 SWAP1 SSTORE POP POP POP JUMP JUMPDEST PUSH1 0x0 PUSH1 0x65 PUSH1 0x0 DUP5 DUP2 MSTORE PUSH1 0x20 ADD SWAP1 DUP2 MSTORE PUSH1 0x20 ADD PUSH1 0x0 KECCAK256 PUSH1 0x0 ADD PUSH1 0x0 DUP4 PUSH20 0xFFFFFFFFFFFFFFFFFFFFFFFFFFFFFFFFFFFFFFFF AND PUSH20 0xFFFFFFFFFFFFFFFFFFFFFFFFFFFFFFFFFFFFFFFF AND DUP2 MSTORE PUSH1 0x20 ADD SWAP1 DUP2 MSTORE PUSH1 0x20 ADD PUSH1 0x0 KECCAK256 PUSH1 0x0 SWAP1 SLOAD SWAP1 PUSH2 0x100 EXP SWAP1 DIV PUSH1 0xFF AND SWAP1 POP SWAP3 SWAP2 POP POP JUMP JUMPDEST PUSH2 0x1045 SLOAD DUP2 JUMP JUMPDEST PUSH2 0x47F PUSH1 0x0 SWAP1 SLOAD SWAP1 PUSH2 0x100 EXP SWAP1 DIV PUSH20 0xFFFFFFFFFFFFFFFFFFFFFFFFFFFFFFFFFFFFFFFF AND DUP2 JUMP JUMPDEST PUSH1 0x0 DUP1 SHL DUP2 JUMP JUMPDEST PUSH2 0x2D8A PUSH2 0x520A JUMP JUMPDEST CALLER PUSH20 0xFFFFFFFFFFFFFFFFFFFFFFFFFFFFFFFFFFFFFFFF AND DUP3 PUSH20 0xFFFFFFFFFFFFFFFFFFFFFFFFFFFFFFFFFFFFFFFF AND SUB PUSH2 0x2DEF JUMPI PUSH1 0x40 MLOAD PUSH32 0xF13228CA00000000000000000000000000000000000000000000000000000000 DUP2 MSTORE PUSH1 0x4 ADD PUSH1 0x40 MLOAD DUP1 SWAP2 SUB SWAP1 REVERT JUMPDEST DUP1 PUSH2 0x1048 PUSH1 0x0 CALLER PUSH20 0xFFFFFFFFFFFFFFFFFFFFFFFFFFFFFFFFFFFFFFFF AND PUSH20 0xFFFFFFFFFFFFFFFFFFFFFFFFFFFFFFFFFFFFFFFF AND DUP2 MSTORE PUSH1 0x20 ADD SWAP1 DUP2 MSTORE PUSH1 0x20 ADD PUSH1 0x0 KECCAK256 PUSH1 0x0 DUP5 PUSH20 0xFFFFFFFFFFFFFFFFFFFFFFFFFFFFFFFFFFFFFFFF AND PUSH20 0xFFFFFFFFFFFFFFFFFFFFFFFFFFFFFFFFFFFFFFFF AND DUP2 MSTORE PUSH1 0x20 ADD SWAP1 DUP2 MSTORE PUSH1 0x20 ADD PUSH1 0x0 KECCAK256 PUSH1 0x0 PUSH2 0x100 EXP DUP2 SLOAD DUP2 PUSH1 0xFF MUL NOT AND SWAP1 DUP4 ISZERO ISZERO MUL OR SWAP1 SSTORE POP DUP2 PUSH20 0xFFFFFFFFFFFFFFFFFFFFFFFFFFFFFFFFFFFFFFFF AND CALLER PUSH20 0xFFFFFFFFFFFFFFFFFFFFFFFFFFFFFFFFFFFFFFFF AND PUSH32 0x17307EAB39AB6107E8899845AD3D59BD9653F200F220920489CA2B5937696C31 DUP4 PUSH1 0x40 MLOAD PUSH2 0x2EE1 SWAP2 SWAP1 PUSH2 0x61C5 JUMP JUMPDEST PUSH1 0x40 MLOAD DUP1 SWAP2 SUB SWAP1 LOG3 POP POP JUMP JUMPDEST PUSH2 0x2EF5 PUSH2 0x42FA JUMP JUMPDEST PUSH2 0x2EFE DUP2 PUSH2 0x525E JUMP JUMPDEST PUSH1 0x0 PUSH2 0xC53 SLOAD SWAP1 POP PUSH1 0x0 PUSH2 0x47F PUSH1 0x0 SWAP1 SLOAD SWAP1 PUSH2 0x100 EXP SWAP1 DIV PUSH20 0xFFFFFFFFFFFFFFFFFFFFFFFFFFFFFFFFFFFFFFFF AND SWAP1 POP DUP4 PUSH2 0xC53 DUP2 SWAP1 SSTORE POP DUP3 PUSH2 0x47F PUSH1 0x0 PUSH2 0x100 EXP DUP2 SLOAD DUP2 PUSH20 0xFFFFFFFFFFFFFFFFFFFFFFFFFFFFFFFFFFFFFFFF MUL NOT AND SWAP1 DUP4 PUSH20 0xFFFFFFFFFFFFFFFFFFFFFFFFFFFFFFFFFFFFFFFF AND MUL OR SWAP1 SSTORE POP PUSH32 0x3615065CCF48367AC483AC86701248E2E5FF55BDD9BE845007D34A3B68D719D4 DUP3 PUSH2 0xC53 SLOAD DUP4 PUSH2 0x47F PUSH1 0x0 SWAP1 SLOAD SWAP1 PUSH2 0x100 EXP SWAP1 DIV PUSH20 0xFFFFFFFFFFFFFFFFFFFFFFFFFFFFFFFFFFFFFFFF AND PUSH1 0x40 MLOAD PUSH2 0x2FD3 SWAP5 SWAP4 SWAP3 SWAP2 SWAP1 PUSH2 0x7A0A JUMP JUMPDEST PUSH1 0x40 MLOAD DUP1 SWAP2 SUB SWAP1 LOG1 POP POP POP POP JUMP JUMPDEST PUSH1 0x0 DUP1 TIMESTAMP PUSH2 0x1049 PUSH1 0x0 DUP6 DUP2 MSTORE PUSH1 0x20 ADD SWAP1 DUP2 MSTORE PUSH1 0x20 ADD PUSH1 0x0 KECCAK256 PUSH1 0x1 ADD SLOAD GT SWAP1 POP PUSH1 0x0 PUSH20 0xFFFFFFFFFFFFFFFFFFFFFFFFFFFFFFFFFFFFFFFF AND PUSH2 0xC59 PUSH1 0x0 SWAP1 SLOAD SWAP1 PUSH2 0x100 EXP SWAP1 DIV PUSH20 0xFFFFFFFFFFFFFFFFFFFFFFFFFFFFFFFFFFFFFFFF AND PUSH20 0xFFFFFFFFFFFFFFFFFFFFFFFFFFFFFFFFFFFFFFFF AND EQ PUSH2 0x314C JUMPI PUSH2 0xC59 PUSH1 0x0 SWAP1 SLOAD SWAP1 PUSH2 0x100 EXP SWAP1 DIV PUSH20 0xFFFFFFFFFFFFFFFFFFFFFFFFFFFFFFFFFFFFFFFF AND PUSH20 0xFFFFFFFFFFFFFFFFFFFFFFFFFFFFFFFFFFFFFFFF AND PUSH4 0x427EDE38 ADDRESS CALLER DUP7 PUSH2 0x1049 PUSH1 0x0 DUP10 DUP2 MSTORE PUSH1 0x20 ADD SWAP1 DUP2 MSTORE PUSH1 0x20 ADD PUSH1 0x0 KECCAK256 PUSH1 0x1 ADD SLOAD PUSH2 0x1044 PUSH1 0x0 DUP11 DUP2 MSTORE PUSH1 0x20 ADD SWAP1 DUP2 MSTORE PUSH1 0x20 ADD PUSH1 0x0 KECCAK256 PUSH1 0x0 SWAP1 SLOAD SWAP1 PUSH2 0x100 EXP SWAP1 DIV PUSH20 0xFFFFFFFFFFFFFFFFFFFFFFFFFFFFFFFFFFFFFFFF AND DUP8 PUSH1 0x40 MLOAD DUP8 PUSH4 0xFFFFFFFF AND PUSH1 0xE0 SHL DUP2 MSTORE PUSH1 0x4 ADD PUSH2 0x3108 SWAP7 SWAP6 SWAP5 SWAP4 SWAP3 SWAP2 SWAP1 PUSH2 0x7A4F JUMP JUMPDEST PUSH1 0x20 PUSH1 0x40 MLOAD DUP1 DUP4 SUB DUP2 DUP7 GAS STATICCALL ISZERO DUP1 ISZERO PUSH2 0x3125 JUMPI RETURNDATASIZE PUSH1 0x0 DUP1 RETURNDATACOPY RETURNDATASIZE PUSH1 0x0 REVERT JUMPDEST POP POP POP POP PUSH1 0x40 MLOAD RETURNDATASIZE PUSH1 0x1F NOT PUSH1 0x1F DUP3 ADD AND DUP3 ADD DUP1 PUSH1 0x40 MSTORE POP DUP2 ADD SWAP1 PUSH2 0x3149 SWAP2 SWAP1 PUSH2 0x766F JUMP JUMPDEST SWAP1 POP JUMPDEST DUP1 SWAP2 POP POP SWAP2 SWAP1 POP JUMP JUMPDEST PUSH1 0x0 PUSH2 0x3181 PUSH32 0xB89CDD26CDDD51301940BF2715F765B626B8A5A9E2681AC62DC83CC2DB2530C0 DUP4 PUSH2 0x2CE2 JUMP JUMPDEST SWAP1 POP SWAP2 SWAP1 POP JUMP JUMPDEST PUSH2 0x3191 DUP3 PUSH2 0x3B26 JUMP JUMPDEST PUSH2 0x319B DUP3 CALLER PUSH2 0x3E7B JUMP JUMPDEST ISZERO DUP1 ISZERO PUSH2 0x31AE JUMPI POP PUSH2 0x31AC CALLER PUSH2 0x3155 JUMP JUMPDEST ISZERO JUMPDEST ISZERO PUSH2 0x31E5 JUMPI PUSH1 0x40 MLOAD PUSH32 0x866C2FA700000000000000000000000000000000000000000000000000000000 DUP2 MSTORE PUSH1 0x4 ADD PUSH1 0x40 MLOAD DUP1 SWAP2 SUB SWAP1 REVERT JUMPDEST PUSH2 0x31EF DUP3 DUP3 PUSH2 0x5343 JUMP JUMPDEST POP POP JUMP JUMPDEST PUSH2 0xC5F PUSH1 0x0 SWAP1 SLOAD SWAP1 PUSH2 0x100 EXP SWAP1 DIV PUSH20 0xFFFFFFFFFFFFFFFFFFFFFFFFFFFFFFFFFFFFFFFF AND DUP2 JUMP JUMPDEST PUSH1 0x0 PUSH2 0x3225 DUP4 PUSH2 0x3B26 JUMP JUMPDEST PUSH1 0x0 PUSH2 0x3230 DUP5 PUSH2 0x21B3 JUMP JUMPDEST SWAP1 POP TIMESTAMP DUP2 LT ISZERO PUSH2 0x3244 JUMPI PUSH1 0x0 SWAP2 POP POP PUSH2 0x3285 JUMP JUMPDEST PUSH1 0x0 DUP1 DUP5 SUB PUSH2 0x3260 JUMPI TIMESTAMP DUP3 PUSH2 0x3259 SWAP2 SWAP1 PUSH2 0x713F JUMP JUMPDEST SWAP1 POP PUSH2 0x3264 JUMP JUMPDEST DUP4 SWAP1 POP JUMPDEST PUSH2 0x2710 PUSH2 0x181A SLOAD DUP3 PUSH2 0x3276 SWAP2 SWAP1 PUSH2 0x751C JUMP JUMPDEST PUSH2 0x3280 SWAP2 SWAP1 PUSH2 0x758D JUMP JUMPDEST SWAP3 POP POP POP JUMPDEST SWAP3 SWAP2 POP POP JUMP JUMPDEST PUSH2 0x3296 DUP5 DUP5 DUP5 PUSH2 0x14A0 JUMP JUMPDEST PUSH2 0x32A2 DUP5 DUP5 DUP5 DUP5 PUSH2 0x544F JUMP JUMPDEST PUSH2 0x32D8 JUMPI PUSH1 0x40 MLOAD PUSH32 0x3F8EA15000000000000000000000000000000000000000000000000000000000 DUP2 MSTORE PUSH1 0x4 ADD PUSH1 0x40 MLOAD DUP1 SWAP2 SUB SWAP1 REVERT JUMPDEST POP POP POP POP JUMP JUMPDEST PUSH2 0x1435 PUSH1 0x20 MSTORE DUP1 PUSH1 0x0 MSTORE PUSH1 0x40 PUSH1 0x0 KECCAK256 PUSH1 0x0 SWAP2 POP SWAP1 POP SLOAD DUP2 JUMP JUMPDEST PUSH2 0xC5E PUSH1 0x0 SWAP1 SLOAD SWAP1 PUSH2 0x100 EXP SWAP1 DIV PUSH20 0xFFFFFFFFFFFFFFFFFFFFFFFFFFFFFFFFFFFFFFFF AND DUP2 JUMP JUMPDEST PUSH1 0x0 PUSH1 0xD SWAP1 POP SWAP1 JUMP JUMPDEST PUSH2 0x332F PUSH2 0x42FA JUMP JUMPDEST PUSH2 0x3359 PUSH32 0xB89CDD26CDDD51301940BF2715F765B626B8A5A9E2681AC62DC83CC2DB2530C0 DUP3 PUSH2 0x1655 JUMP JUMPDEST DUP1 PUSH20 0xFFFFFFFFFFFFFFFFFFFFFFFFFFFFFFFFFFFFFFFF AND PUSH32 0x91D5C045D5BD98BF59A379B259EBCA05B93BF79AF1845FDF87E3172385D4C7F7 PUSH1 0x40 MLOAD PUSH1 0x40 MLOAD DUP1 SWAP2 SUB SWAP1 LOG2 POP JUMP JUMPDEST PUSH1 0x0 PUSH2 0xC5C SLOAD SWAP1 POP SWAP1 JUMP JUMPDEST PUSH2 0x33B3 DUP3 PUSH2 0x150D JUMP JUMPDEST PUSH2 0x33BC DUP2 PUSH2 0x435C JUMP JUMPDEST PUSH2 0x33C6 DUP4 DUP4 PUSH2 0x4E98 JUMP JUMPDEST POP POP POP JUMP JUMPDEST PUSH2 0x33D3 PUSH2 0x4451 JUMP JUMPDEST PUSH2 0x33DC DUP5 PUSH2 0x3B26 JUMP JUMPDEST PUSH2 0x33E7 DUP5 PUSH1 0x0 PUSH2 0x4FBC JUMP JUMPDEST POP PUSH1 0x0 PUSH2 0x3441 PUSH2 0x33F6 DUP7 PUSH2 0x21DF JUMP JUMPDEST DUP6 DUP6 DUP6 DUP1 DUP1 PUSH1 0x1F ADD PUSH1 0x20 DUP1 SWAP2 DIV MUL PUSH1 0x20 ADD PUSH1 0x40 MLOAD SWAP1 DUP2 ADD PUSH1 0x40 MSTORE DUP1 SWAP4 SWAP3 SWAP2 SWAP1 DUP2 DUP2 MSTORE PUSH1 0x20 ADD DUP4 DUP4 DUP1 DUP3 DUP5 CALLDATACOPY PUSH1 0x0 DUP2 DUP5 ADD MSTORE PUSH1 0x1F NOT PUSH1 0x1F DUP3 ADD AND SWAP1 POP DUP1 DUP4 ADD SWAP3 POP POP POP POP POP POP POP PUSH2 0x127F JUMP JUMPDEST SWAP1 POP PUSH1 0x0 PUSH20 0xFFFFFFFFFFFFFFFFFFFFFFFFFFFFFFFFFFFFFFFF AND PUSH2 0x47F PUSH1 0x0 SWAP1 SLOAD SWAP1 PUSH2 0x100 EXP SWAP1 DIV PUSH20 0xFFFFFFFFFFFFFFFFFFFFFFFFFFFFFFFFFFFFFFFF AND PUSH20 0xFFFFFFFFFFFFFFFFFFFFFFFFFFFFFFFFFFFFFFFF AND EQ PUSH2 0x34A5 JUMPI PUSH2 0x34A4 DUP7 DUP3 PUSH2 0x4776 JUMP JUMPDEST JUMPDEST PUSH2 0x34AF DUP2 DUP6 PUSH2 0x47B4 JUMP JUMPDEST PUSH2 0x34B9 CALLER DUP3 PUSH2 0x497B JUMP JUMPDEST PUSH2 0x34C3 DUP6 DUP3 PUSH2 0x4601 JUMP JUMPDEST PUSH2 0x34CB PUSH2 0x4C7F JUMP JUMPDEST PUSH2 0x34D4 DUP5 PUSH2 0x4D34 JUMP JUMPDEST PUSH2 0x34DD DUP2 PUSH2 0x4ABA JUMP JUMPDEST POP POP POP POP POP POP JUMP JUMPDEST PUSH2 0x34ED PUSH2 0x42FA JUMP JUMPDEST PUSH1 0x0 DUP1 PUSH20 0xFFFFFFFFFFFFFFFFFFFFFFFFFFFFFFFFFFFFFFFF AND DUP5 PUSH20 0xFFFFFFFFFFFFFFFFFFFFFFFFFFFFFFFFFFFFFFFF AND SUB PUSH2 0x352A JUMPI SELFBALANCE SWAP1 POP PUSH2 0x35A7 JUMP JUMPDEST DUP4 PUSH20 0xFFFFFFFFFFFFFFFFFFFFFFFFFFFFFFFFFFFFFFFF AND PUSH4 0x70A08231 ADDRESS PUSH1 0x40 MLOAD DUP3 PUSH4 0xFFFFFFFF AND PUSH1 0xE0 SHL DUP2 MSTORE PUSH1 0x4 ADD PUSH2 0x3563 SWAP2 SWAP1 PUSH2 0x62D7 JUMP JUMPDEST PUSH1 0x20 PUSH1 0x40 MLOAD DUP1 DUP4 SUB DUP2 DUP7 GAS STATICCALL ISZERO DUP1 ISZERO PUSH2 0x3580 JUMPI RETURNDATASIZE PUSH1 0x0 DUP1 RETURNDATACOPY RETURNDATASIZE PUSH1 0x0 REVERT JUMPDEST POP POP POP POP PUSH1 0x40 MLOAD RETURNDATASIZE PUSH1 0x1F NOT PUSH1 0x1F DUP3 ADD AND DUP3 ADD DUP1 PUSH1 0x40 MSTORE POP DUP2 ADD SWAP1 PUSH2 0x35A4 SWAP2 SWAP1 PUSH2 0x7253 JUMP JUMPDEST SWAP1 POP JUMPDEST PUSH1 0x0 DUP1 DUP4 EQ DUP1 PUSH2 0x35B6 JUMPI POP DUP2 DUP4 GT JUMPDEST ISZERO PUSH2 0x35FD JUMPI PUSH1 0x0 DUP3 GT PUSH2 0x35F5 JUMPI PUSH1 0x40 MLOAD PUSH32 0x1F04DDC800000000000000000000000000000000000000000000000000000000 DUP2 MSTORE PUSH1 0x4 ADD PUSH1 0x40 MLOAD DUP1 SWAP2 SUB SWAP1 REVERT JUMPDEST DUP2 SWAP1 POP PUSH2 0x3601 JUMP JUMPDEST DUP3 SWAP1 POP JUMPDEST DUP4 PUSH20 0xFFFFFFFFFFFFFFFFFFFFFFFFFFFFFFFFFFFFFFFF AND DUP6 PUSH20 0xFFFFFFFFFFFFFFFFFFFFFFFFFFFFFFFFFFFFFFFF AND CALLER PUSH20 0xFFFFFFFFFFFFFFFFFFFFFFFFFFFFFFFFFFFFFFFF AND PUSH32 0x342E7FF505A8A0364CD0DC2FF195C315E43BCE86B204846ECD36913E117B109E DUP5 PUSH1 0x40 MLOAD PUSH2 0x3675 SWAP2 SWAP1 PUSH2 0x6522 JUMP JUMPDEST PUSH1 0x40 MLOAD DUP1 SWAP2 SUB SWAP1 LOG4 PUSH2 0x3688 DUP6 DUP6 DUP4 PUSH2 0x5557 JUMP JUMPDEST POP POP POP POP POP JUMP JUMPDEST PUSH2 0x3697 PUSH2 0x42FA JUMP JUMPDEST DUP1 PUSH2 0x1435 PUSH1 0x0 DUP5 PUSH20 0xFFFFFFFFFFFFFFFFFFFFFFFFFFFFFFFFFFFFFFFF AND PUSH20 0xFFFFFFFFFFFFFFFFFFFFFFFFFFFFFFFFFFFFFFFF AND DUP2 MSTORE PUSH1 0x20 ADD SWAP1 DUP2 MSTORE PUSH1 0x20 ADD PUSH1 0x0 KECCAK256 DUP2 SWAP1 SSTORE POP DUP2 PUSH20 0xFFFFFFFFFFFFFFFFFFFFFFFFFFFFFFFFFFFFFFFF AND PUSH32 0xA027572BB55DE556A0DF93BD38C3871AAF311245C2CD34F0DA045AA33A66DBC5 DUP3 PUSH1 0x40 MLOAD PUSH2 0x3722 SWAP2 SWAP1 PUSH2 0x6522 JUMP JUMPDEST PUSH1 0x40 MLOAD DUP1 SWAP2 SUB SWAP1 LOG2 POP POP JUMP JUMPDEST PUSH1 0x0 PUSH2 0x1048 PUSH1 0x0 DUP5 PUSH20 0xFFFFFFFFFFFFFFFFFFFFFFFFFFFFFFFFFFFFFFFF AND PUSH20 0xFFFFFFFFFFFFFFFFFFFFFFFFFFFFFFFFFFFFFFFF AND DUP2 MSTORE PUSH1 0x20 ADD SWAP1 DUP2 MSTORE PUSH1 0x20 ADD PUSH1 0x0 KECCAK256 PUSH1 0x0 DUP4 PUSH20 0xFFFFFFFFFFFFFFFFFFFFFFFFFFFFFFFFFFFFFFFF AND PUSH20 0xFFFFFFFFFFFFFFFFFFFFFFFFFFFFFFFFFFFFFFFF AND DUP2 MSTORE PUSH1 0x20 ADD SWAP1 DUP2 MSTORE PUSH1 0x20 ADD PUSH1 0x0 KECCAK256 PUSH1 0x0 SWAP1 SLOAD SWAP1 PUSH2 0x100 EXP SWAP1 DIV PUSH1 0xFF AND SWAP1 POP SWAP3 SWAP2 POP POP JUMP JUMPDEST PUSH2 0x37ED PUSH32 0xB89CDD26CDDD51301940BF2715F765B626B8A5A9E2681AC62DC83CC2DB2530C0 CALLER PUSH2 0x1C7D JUMP JUMPDEST CALLER PUSH20 0xFFFFFFFFFFFFFFFFFFFFFFFFFFFFFFFFFFFFFFFF AND PUSH32 0x42885193B8178D25FCA25A38E6FCC93918501E91BE06D85E0C8AFB3BAD952380 PUSH1 0x40 MLOAD PUSH1 0x40 MLOAD DUP1 SWAP2 SUB SWAP1 LOG2 JUMP JUMPDEST PUSH2 0x383A PUSH2 0x4451 JUMP JUMPDEST PUSH2 0xC55 SLOAD PUSH2 0xC54 SLOAD GT PUSH2 0x3879 JUMPI PUSH1 0x40 MLOAD PUSH32 0x31AF695100000000000000000000000000000000000000000000000000000000 DUP2 MSTORE PUSH1 0x4 ADD PUSH1 0x40 MLOAD DUP1 SWAP2 SUB SWAP1 REVERT JUMPDEST PUSH2 0x3882 DUP3 PUSH2 0x3BBC JUMP JUMPDEST PUSH2 0x388B DUP3 PUSH2 0x3B7A JUMP JUMPDEST PUSH2 0x3893 PUSH2 0x520A JUMP JUMPDEST PUSH1 0x0 PUSH2 0x1044 PUSH1 0x0 DUP5 DUP2 MSTORE PUSH1 0x20 ADD SWAP1 DUP2 MSTORE PUSH1 0x20 ADD PUSH1 0x0 KECCAK256 PUSH1 0x0 SWAP1 SLOAD SWAP1 PUSH2 0x100 EXP SWAP1 DIV PUSH20 0xFFFFFFFFFFFFFFFFFFFFFFFFFFFFFFFFFFFFFFFF AND SWAP1 POP PUSH1 0x0 DUP1 TIMESTAMP PUSH2 0x38D9 DUP7 PUSH2 0x21B3 JUMP JUMPDEST PUSH2 0x38E3 SWAP2 SWAP1 PUSH2 0x713F JUMP JUMPDEST SWAP1 POP PUSH1 0x0 PUSH2 0x38F1 DUP7 DUP7 PUSH2 0x321A JUMP JUMPDEST SWAP1 POP PUSH1 0x0 DUP2 DUP7 PUSH2 0x3901 SWAP2 SWAP1 PUSH2 0x72B7 JUMP JUMPDEST SWAP1 POP DUP3 DUP2 LT ISZERO PUSH2 0x391F JUMPI DUP6 SWAP4 POP PUSH2 0x391A DUP8 DUP3 PUSH1 0x0 PUSH2 0x3D6E JUMP JUMPDEST PUSH2 0x3983 JUMP JUMPDEST PUSH2 0x3929 DUP8 DUP5 PUSH2 0x321A JUMP JUMPDEST SWAP2 POP DUP2 DUP4 PUSH2 0x3937 SWAP2 SWAP1 PUSH2 0x713F JUMP JUMPDEST SWAP4 POP TIMESTAMP PUSH2 0x1049 PUSH1 0x0 DUP10 DUP2 MSTORE PUSH1 0x20 ADD SWAP1 DUP2 MSTORE PUSH1 0x20 ADD PUSH1 0x0 KECCAK256 PUSH1 0x1 ADD DUP2 SWAP1 SSTORE POP DUP7 PUSH32 0x59F2FE866DD27A1C2D34115520888C3150365CBC931AAB97FA88C4B9AB40B795 PUSH1 0x40 MLOAD PUSH1 0x40 MLOAD DUP1 SWAP2 SUB SWAP1 LOG2 JUMPDEST PUSH1 0x0 PUSH2 0x399C DUP10 PUSH1 0x0 DUP8 TIMESTAMP PUSH2 0x3997 SWAP2 SWAP1 PUSH2 0x72B7 JUMP JUMPDEST PUSH2 0x449A JUMP JUMPDEST SWAP1 POP DUP1 DUP10 PUSH20 0xFFFFFFFFFFFFFFFFFFFFFFFFFFFFFFFFFFFFFFFF AND DUP8 PUSH20 0xFFFFFFFFFFFFFFFFFFFFFFFFFFFFFFFFFFFFFFFF AND PUSH32 0xDDF252AD1BE2C89B69C2B068FC378DAA952BA7F163C4A11628F55A4DF523B3EF PUSH1 0x40 MLOAD PUSH1 0x40 MLOAD DUP1 SWAP2 SUB SWAP1 LOG4 PUSH2 0x3A14 DUP7 DUP11 DUP4 PUSH1 0x40 MLOAD DUP1 PUSH1 0x20 ADD PUSH1 0x40 MSTORE DUP1 PUSH1 0x0 DUP2 MSTORE POP PUSH2 0x544F JUMP JUMPDEST PUSH2 0x3A4A JUMPI PUSH1 0x40 MLOAD PUSH32 0x3F8EA15000000000000000000000000000000000000000000000000000000000 DUP2 MSTORE PUSH1 0x4 ADD PUSH1 0x40 MLOAD DUP1 SWAP2 SUB SWAP1 REVERT JUMPDEST POP POP POP POP POP POP POP POP POP JUMP JUMPDEST PUSH2 0x3A5D PUSH2 0x42FA JUMP JUMPDEST PUSH2 0x3A65 PUSH2 0x331E JUMP JUMPDEST PUSH2 0xFFFF AND PUSH2 0xC5B DUP2 SWAP1 SSTORE POP JUMP JUMPDEST PUSH2 0x3A7A PUSH2 0x42FA JUMP JUMPDEST DUP1 PUSH2 0x1431 DUP2 SWAP1 SSTORE POP PUSH32 0x4D816C1058DE34C4241BA72C371FB3F2EA05147691B364F04D16BC967AE68A11 DUP2 PUSH1 0x40 MLOAD PUSH2 0x3AB1 SWAP2 SWAP1 PUSH2 0x6522 JUMP JUMPDEST PUSH1 0x40 MLOAD DUP1 SWAP2 SUB SWAP1 LOG1 POP JUMP JUMPDEST PUSH1 0x0 PUSH32 0x1FFC9A700000000000000000000000000000000000000000000000000000000 PUSH28 0xFFFFFFFFFFFFFFFFFFFFFFFFFFFFFFFFFFFFFFFFFFFFFFFFFFFFFFFF NOT AND DUP3 PUSH28 0xFFFFFFFFFFFFFFFFFFFFFFFFFFFFFFFFFFFFFFFFFFFFFFFFFFFFFFFF NOT AND EQ SWAP1 POP SWAP2 SWAP1 POP JUMP JUMPDEST PUSH1 0x0 PUSH2 0x1049 PUSH1 0x0 DUP4 DUP2 MSTORE PUSH1 0x20 ADD SWAP1 DUP2 MSTORE PUSH1 0x20 ADD PUSH1 0x0 KECCAK256 PUSH1 0x0 ADD SLOAD SUB PUSH2 0x3B77 JUMPI PUSH1 0x40 MLOAD PUSH32 0x78FE247300000000000000000000000000000000000000000000000000000000 DUP2 MSTORE PUSH1 0x4 ADD PUSH1 0x40 MLOAD DUP1 SWAP2 SUB SWAP1 REVERT JUMPDEST POP JUMP JUMPDEST PUSH2 0x3B83 DUP2 PUSH2 0x2FE1 JUMP JUMPDEST PUSH2 0x3BB9 JUMPI PUSH1 0x40 MLOAD PUSH32 0xD9F4FAE00000000000000000000000000000000000000000000000000000000 DUP2 MSTORE PUSH1 0x4 ADD PUSH1 0x40 MLOAD DUP1 SWAP2 SUB SWAP1 REVERT JUMPDEST POP JUMP JUMPDEST PUSH1 0x0 DUP1 PUSH20 0xFFFFFFFFFFFFFFFFFFFFFFFFFFFFFFFFFFFFFFFF AND PUSH2 0x1046 PUSH1 0x0 DUP5 DUP2 MSTORE PUSH1 0x20 ADD SWAP1 DUP2 MSTORE PUSH1 0x20 ADD PUSH1 0x0 KECCAK256 PUSH1 0x0 SWAP1 SLOAD SWAP1 PUSH2 0x100 EXP SWAP1 DIV PUSH20 0xFFFFFFFFFFFFFFFFFFFFFFFFFFFFFFFFFFFFFFFF AND PUSH20 0xFFFFFFFFFFFFFFFFFFFFFFFFFFFFFFFFFFFFFFFF AND EQ PUSH2 0x3C5F JUMPI PUSH2 0x1046 PUSH1 0x0 DUP4 DUP2 MSTORE PUSH1 0x20 ADD SWAP1 DUP2 MSTORE PUSH1 0x20 ADD PUSH1 0x0 KECCAK256 PUSH1 0x0 SWAP1 SLOAD SWAP1 PUSH2 0x100 EXP SWAP1 DIV PUSH20 0xFFFFFFFFFFFFFFFFFFFFFFFFFFFFFFFFFFFFFFFF AND PUSH2 0x3C95 JUMP JUMPDEST PUSH2 0x1044 PUSH1 0x0 DUP4 DUP2 MSTORE PUSH1 0x20 ADD SWAP1 DUP2 MSTORE PUSH1 0x20 ADD PUSH1 0x0 KECCAK256 PUSH1 0x0 SWAP1 SLOAD SWAP1 PUSH2 0x100 EXP SWAP1 DIV PUSH20 0xFFFFFFFFFFFFFFFFFFFFFFFFFFFFFFFFFFFFFFFF AND JUMPDEST SWAP1 POP PUSH2 0x3CA0 CALLER PUSH2 0x3155 JUMP JUMPDEST ISZERO DUP1 ISZERO PUSH2 0x3CB4 JUMPI POP PUSH2 0x3CB2 DUP3 CALLER PUSH2 0x3E7B JUMP JUMPDEST ISZERO JUMPDEST DUP1 ISZERO PUSH2 0x3D20 JUMPI POP CALLER PUSH20 0xFFFFFFFFFFFFFFFFFFFFFFFFFFFFFFFFFFFFFFFF AND PUSH2 0x1047 PUSH1 0x0 DUP5 DUP2 MSTORE PUSH1 0x20 ADD SWAP1 DUP2 MSTORE PUSH1 0x20 ADD PUSH1 0x0 KECCAK256 PUSH1 0x0 SWAP1 SLOAD SWAP1 PUSH2 0x100 EXP SWAP1 DIV PUSH20 0xFFFFFFFFFFFFFFFFFFFFFFFFFFFFFFFFFFFFFFFF AND PUSH20 0xFFFFFFFFFFFFFFFFFFFFFFFFFFFFFFFFFFFFFFFF AND EQ ISZERO JUMPDEST DUP1 ISZERO PUSH2 0x3D33 JUMPI POP PUSH2 0x3D31 DUP2 CALLER PUSH2 0x372E JUMP JUMPDEST ISZERO JUMPDEST ISZERO PUSH2 0x3D6A JUMPI PUSH1 0x40 MLOAD PUSH32 0xE17C6D4500000000000000000000000000000000000000000000000000000000 DUP2 MSTORE PUSH1 0x4 ADD PUSH1 0x40 MLOAD DUP1 SWAP2 SUB SWAP1 REVERT JUMPDEST POP POP JUMP JUMPDEST PUSH2 0x3D77 DUP4 PUSH2 0x3B26 JUMP JUMPDEST PUSH1 0x0 PUSH2 0x1049 PUSH1 0x0 DUP6 DUP2 MSTORE PUSH1 0x20 ADD SWAP1 DUP2 MSTORE PUSH1 0x20 ADD PUSH1 0x0 KECCAK256 PUSH1 0x1 ADD SLOAD SWAP1 POP DUP2 ISZERO PUSH2 0x3DFA JUMPI TIMESTAMP DUP2 GT ISZERO PUSH2 0x3DCD JUMPI DUP3 DUP2 PUSH2 0x3DAD SWAP2 SWAP1 PUSH2 0x72B7 JUMP JUMPDEST PUSH2 0x1049 PUSH1 0x0 DUP7 DUP2 MSTORE PUSH1 0x20 ADD SWAP1 DUP2 MSTORE PUSH1 0x20 ADD PUSH1 0x0 KECCAK256 PUSH1 0x1 ADD DUP2 SWAP1 SSTORE POP PUSH2 0x3DF5 JUMP JUMPDEST DUP3 TIMESTAMP PUSH2 0x3DD9 SWAP2 SWAP1 PUSH2 0x72B7 JUMP JUMPDEST PUSH2 0x1049 PUSH1 0x0 DUP7 DUP2 MSTORE PUSH1 0x20 ADD SWAP1 DUP2 MSTORE PUSH1 0x20 ADD PUSH1 0x0 KECCAK256 PUSH1 0x1 ADD DUP2 SWAP1 SSTORE POP JUMPDEST PUSH2 0x3E22 JUMP JUMPDEST DUP3 DUP2 PUSH2 0x3E06 SWAP2 SWAP1 PUSH2 0x713F JUMP JUMPDEST PUSH2 0x1049 PUSH1 0x0 DUP7 DUP2 MSTORE PUSH1 0x20 ADD SWAP1 DUP2 MSTORE PUSH1 0x20 ADD PUSH1 0x0 KECCAK256 PUSH1 0x1 ADD DUP2 SWAP1 SSTORE POP JUMPDEST DUP4 PUSH32 0x3C907806849E9204E0E26BB095DFE4B3071576C4323F766735C548211556D052 PUSH2 0x1049 PUSH1 0x0 DUP8 DUP2 MSTORE PUSH1 0x20 ADD SWAP1 DUP2 MSTORE PUSH1 0x20 ADD PUSH1 0x0 KECCAK256 PUSH1 0x1 ADD SLOAD DUP6 DUP6 PUSH1 0x40 MLOAD PUSH2 0x3E6D SWAP4 SWAP3 SWAP2 SWAP1 PUSH2 0x7AB0 JUMP JUMPDEST PUSH1 0x40 MLOAD DUP1 SWAP2 SUB SWAP1 LOG2 POP POP POP POP JUMP JUMPDEST PUSH1 0x0 DUP2 PUSH20 0xFFFFFFFFFFFFFFFFFFFFFFFFFFFFFFFFFFFFFFFF AND PUSH2 0x1046 PUSH1 0x0 DUP6 DUP2 MSTORE PUSH1 0x20 ADD SWAP1 DUP2 MSTORE PUSH1 0x20 ADD PUSH1 0x0 KECCAK256 PUSH1 0x0 SWAP1 SLOAD SWAP1 PUSH2 0x100 EXP SWAP1 DIV PUSH20 0xFFFFFFFFFFFFFFFFFFFFFFFFFFFFFFFFFFFFFFFF AND PUSH20 0xFFFFFFFFFFFFFFFFFFFFFFFFFFFFFFFFFFFFFFFF AND EQ DUP1 PUSH2 0x3F8A JUMPI POP DUP2 PUSH20 0xFFFFFFFFFFFFFFFFFFFFFFFFFFFFFFFFFFFFFFFF AND PUSH2 0x3F06 DUP5 PUSH2 0x21DF JUMP JUMPDEST PUSH20 0xFFFFFFFFFFFFFFFFFFFFFFFFFFFFFFFFFFFFFFFF AND EQ DUP1 ISZERO PUSH2 0x3F89 JUMPI POP PUSH1 0x0 PUSH20 0xFFFFFFFFFFFFFFFFFFFFFFFFFFFFFFFFFFFFFFFF AND PUSH2 0x1046 PUSH1 0x0 DUP6 DUP2 MSTORE PUSH1 0x20 ADD SWAP1 DUP2 MSTORE PUSH1 0x20 ADD PUSH1 0x0 KECCAK256 PUSH1 0x0 SWAP1 SLOAD SWAP1 PUSH2 0x100 EXP SWAP1 DIV PUSH20 0xFFFFFFFFFFFFFFFFFFFFFFFFFFFFFFFFFFFFFFFF AND PUSH20 0xFFFFFFFFFFFFFFFFFFFFFFFFFFFFFFFFFFFFFFFF AND EQ JUMPDEST JUMPDEST ISZERO PUSH2 0x3F98 JUMPI PUSH1 0x1 SWAP1 POP PUSH2 0x3F9D JUMP JUMPDEST PUSH1 0x0 SWAP1 POP JUMPDEST SWAP3 SWAP2 POP POP JUMP JUMPDEST PUSH2 0x3FAC DUP2 PUSH2 0x3B7A JUMP JUMPDEST PUSH2 0x3FB4 PUSH2 0x520A JUMP JUMPDEST DUP3 PUSH20 0xFFFFFFFFFFFFFFFFFFFFFFFFFFFFFFFFFFFFFFFF AND PUSH2 0x3FD4 DUP3 PUSH2 0x21DF JUMP JUMPDEST PUSH20 0xFFFFFFFFFFFFFFFFFFFFFFFFFFFFFFFFFFFFFFFF AND EQ PUSH2 0x4021 JUMPI PUSH1 0x40 MLOAD PUSH32 0x75FD2B100000000000000000000000000000000000000000000000000000000 DUP2 MSTORE PUSH1 0x4 ADD PUSH1 0x40 MLOAD DUP1 SWAP2 SUB SWAP1 REVERT JUMPDEST PUSH1 0x0 PUSH20 0xFFFFFFFFFFFFFFFFFFFFFFFFFFFFFFFFFFFFFFFF AND DUP3 PUSH20 0xFFFFFFFFFFFFFFFFFFFFFFFFFFFFFFFFFFFFFFFF AND SUB PUSH2 0x4087 JUMPI PUSH1 0x40 MLOAD PUSH32 0x5963709B00000000000000000000000000000000000000000000000000000000 DUP2 MSTORE PUSH1 0x4 ADD PUSH1 0x40 MLOAD DUP1 SWAP2 SUB SWAP1 REVERT JUMPDEST DUP2 PUSH20 0xFFFFFFFFFFFFFFFFFFFFFFFFFFFFFFFFFFFFFFFF AND DUP4 PUSH20 0xFFFFFFFFFFFFFFFFFFFFFFFFFFFFFFFFFFFFFFFF AND SUB PUSH2 0x40EC JUMPI PUSH1 0x40 MLOAD PUSH32 0x3FBD1A4900000000000000000000000000000000000000000000000000000000 DUP2 MSTORE PUSH1 0x4 ADD PUSH1 0x40 MLOAD DUP1 SWAP2 SUB SWAP1 REVERT JUMPDEST PUSH2 0x4102 DUP2 PUSH2 0x40FB DUP4 PUSH1 0x0 PUSH2 0x321A JUMP JUMPDEST PUSH1 0x0 PUSH2 0x3D6E JUMP JUMPDEST PUSH1 0x0 PUSH2 0x1049 PUSH1 0x0 DUP4 DUP2 MSTORE PUSH1 0x20 ADD SWAP1 DUP2 MSTORE PUSH1 0x20 ADD PUSH1 0x0 KECCAK256 SWAP1 POP PUSH2 0x4123 DUP3 PUSH2 0x21B3 JUMP JUMPDEST DUP2 PUSH1 0x1 ADD DUP2 SWAP1 SSTORE POP PUSH1 0x0 PUSH2 0x4136 DUP5 PUSH2 0x2A38 JUMP JUMPDEST SUB PUSH2 0x4155 JUMPI PUSH2 0x1045 PUSH1 0x0 DUP2 SLOAD DUP1 SWAP3 SWAP2 SWAP1 PUSH2 0x414F SWAP1 PUSH2 0x7431 JUMP JUMPDEST SWAP2 SWAP1 POP SSTORE POP JUMPDEST PUSH2 0x415E DUP3 PUSH2 0x55FA JUMP JUMPDEST PUSH2 0x4168 DUP3 DUP5 PUSH2 0x5810 JUMP JUMPDEST PUSH2 0x4171 DUP3 PUSH2 0x5978 JUMP JUMPDEST PUSH1 0x0 PUSH2 0x1433 PUSH1 0x0 DUP5 DUP2 MSTORE PUSH1 0x20 ADD SWAP1 DUP2 MSTORE PUSH1 0x20 ADD PUSH1 0x0 KECCAK256 DUP2 SWAP1 SSTORE POP PUSH1 0x0 PUSH2 0x1432 PUSH1 0x0 DUP5 DUP2 MSTORE PUSH1 0x20 ADD SWAP1 DUP2 MSTORE PUSH1 0x20 ADD PUSH1 0x0 KECCAK256 DUP2 SWAP1 SSTORE POP DUP2 DUP4 PUSH20 0xFFFFFFFFFFFFFFFFFFFFFFFFFFFFFFFFFFFFFFFF AND DUP6 PUSH20 0xFFFFFFFFFFFFFFFFFFFFFFFFFFFFFFFFFFFFFFFF AND PUSH32 0xDDF252AD1BE2C89B69C2B068FC378DAA952BA7F163C4A11628F55A4DF523B3EF PUSH1 0x40 MLOAD PUSH1 0x40 MLOAD DUP1 SWAP2 SUB SWAP1 LOG4 PUSH1 0x0 PUSH20 0xFFFFFFFFFFFFFFFFFFFFFFFFFFFFFFFFFFFFFFFF AND PUSH2 0xC5D PUSH1 0x0 SWAP1 SLOAD SWAP1 PUSH2 0x100 EXP SWAP1 DIV PUSH20 0xFFFFFFFFFFFFFFFFFFFFFFFFFFFFFFFFFFFFFFFF AND PUSH20 0xFFFFFFFFFFFFFFFFFFFFFFFFFFFFFFFFFFFFFFFF AND EQ PUSH2 0x42F4 JUMPI PUSH2 0xC5D PUSH1 0x0 SWAP1 SLOAD SWAP1 PUSH2 0x100 EXP SWAP1 DIV PUSH20 0xFFFFFFFFFFFFFFFFFFFFFFFFFFFFFFFFFFFFFFFF AND PUSH20 0xFFFFFFFFFFFFFFFFFFFFFFFFFFFFFFFFFFFFFFFF AND PUSH4 0x75B37AEF ADDRESS DUP5 CALLER DUP9 DUP9 DUP8 PUSH1 0x1 ADD SLOAD PUSH1 0x40 MLOAD DUP8 PUSH4 0xFFFFFFFF AND PUSH1 0xE0 SHL DUP2 MSTORE PUSH1 0x4 ADD PUSH2 0x42C1 SWAP7 SWAP6 SWAP5 SWAP4 SWAP3 SWAP2 SWAP1 PUSH2 0x7AE7 JUMP JUMPDEST PUSH1 0x0 PUSH1 0x40 MLOAD DUP1 DUP4 SUB DUP2 PUSH1 0x0 DUP8 DUP1 EXTCODESIZE ISZERO DUP1 ISZERO PUSH2 0x42DB JUMPI PUSH1 0x0 DUP1 REVERT JUMPDEST POP GAS CALL ISZERO DUP1 ISZERO PUSH2 0x42EF JUMPI RETURNDATASIZE PUSH1 0x0 DUP1 RETURNDATACOPY RETURNDATASIZE PUSH1 0x0 REVERT JUMPDEST POP POP POP POP JUMPDEST POP POP POP POP JUMP JUMPDEST PUSH2 0x4324 PUSH32 0xB89CDD26CDDD51301940BF2715F765B626B8A5A9E2681AC62DC83CC2DB2530C0 CALLER PUSH2 0x2CE2 JUMP JUMPDEST PUSH2 0x435A JUMPI PUSH1 0x40 MLOAD PUSH32 0x8E1B58C400000000000000000000000000000000000000000000000000000000 DUP2 MSTORE PUSH1 0x4 ADD PUSH1 0x40 MLOAD DUP1 SWAP2 SUB SWAP1 REVERT JUMPDEST JUMP JUMPDEST PUSH2 0x436D DUP2 PUSH2 0x4368 PUSH2 0x4E90 JUMP JUMPDEST PUSH2 0x5A38 JUMP JUMPDEST POP JUMP JUMPDEST PUSH2 0x437A DUP3 DUP3 PUSH2 0x2CE2 JUMP JUMPDEST PUSH2 0x444D JUMPI PUSH1 0x1 PUSH1 0x65 PUSH1 0x0 DUP5 DUP2 MSTORE PUSH1 0x20 ADD SWAP1 DUP2 MSTORE PUSH1 0x20 ADD PUSH1 0x0 KECCAK256 PUSH1 0x0 ADD PUSH1 0x0 DUP4 PUSH20 0xFFFFFFFFFFFFFFFFFFFFFFFFFFFFFFFFFFFFFFFF AND PUSH20 0xFFFFFFFFFFFFFFFFFFFFFFFFFFFFFFFFFFFFFFFF AND DUP2 MSTORE PUSH1 0x20 ADD SWAP1 DUP2 MSTORE PUSH1 0x20 ADD PUSH1 0x0 KECCAK256 PUSH1 0x0 PUSH2 0x100 EXP DUP2 SLOAD DUP2 PUSH1 0xFF MUL NOT AND SWAP1 DUP4 ISZERO ISZERO MUL OR SWAP1 SSTORE POP PUSH2 0x43F2 PUSH2 0x4E90 JUMP JUMPDEST PUSH20 0xFFFFFFFFFFFFFFFFFFFFFFFFFFFFFFFFFFFFFFFF AND DUP2 PUSH20 0xFFFFFFFFFFFFFFFFFFFFFFFFFFFFFFFFFFFFFFFF AND DUP4 PUSH32 0x2F8788117E7EFF1D82E926EC794901D17C78024A50270940304540A733656F0D PUSH1 0x40 MLOAD PUSH1 0x40 MLOAD DUP1 SWAP2 SUB SWAP1 LOG4 JUMPDEST POP POP JUMP JUMPDEST PUSH2 0x4459 PUSH2 0x331E JUMP JUMPDEST PUSH2 0xFFFF AND PUSH2 0xC5B SLOAD EQ PUSH2 0x4498 JUMPI PUSH1 0x40 MLOAD PUSH32 0xBAB80EC000000000000000000000000000000000000000000000000000000000 DUP2 MSTORE PUSH1 0x4 ADD PUSH1 0x40 MLOAD DUP1 SWAP2 SUB SWAP1 REVERT JUMPDEST JUMP JUMPDEST PUSH1 0x0 DUP1 PUSH20 0xFFFFFFFFFFFFFFFFFFFFFFFFFFFFFFFFFFFFFFFF AND DUP5 PUSH20 0xFFFFFFFFFFFFFFFFFFFFFFFFFFFFFFFFFFFFFFFF AND SUB PUSH2 0x4501 JUMPI PUSH1 0x40 MLOAD PUSH32 0x5963709B00000000000000000000000000000000000000000000000000000000 DUP2 MSTORE PUSH1 0x4 ADD PUSH1 0x40 MLOAD DUP1 SWAP2 SUB SWAP1 REVERT JUMPDEST PUSH2 0xC55 PUSH1 0x0 DUP2 SLOAD DUP1 SWAP3 SWAP2 SWAP1 PUSH2 0x4515 SWAP1 PUSH2 0x7431 JUMP JUMPDEST SWAP2 SWAP1 POP SSTORE POP PUSH2 0xC55 SLOAD SWAP1 POP PUSH1 0x40 MLOAD DUP1 PUSH1 0x40 ADD PUSH1 0x40 MSTORE DUP1 DUP3 DUP2 MSTORE PUSH1 0x20 ADD DUP4 DUP2 MSTORE POP PUSH2 0x1049 PUSH1 0x0 DUP4 DUP2 MSTORE PUSH1 0x20 ADD SWAP1 DUP2 MSTORE PUSH1 0x20 ADD PUSH1 0x0 KECCAK256 PUSH1 0x0 DUP3 ADD MLOAD DUP2 PUSH1 0x0 ADD SSTORE PUSH1 0x20 DUP3 ADD MLOAD DUP2 PUSH1 0x1 ADD SSTORE SWAP1 POP POP PUSH1 0x0 PUSH2 0x456B DUP6 PUSH2 0x2A38 JUMP JUMPDEST SUB PUSH2 0x458A JUMPI PUSH2 0x1045 PUSH1 0x0 DUP2 SLOAD DUP1 SWAP3 SWAP2 SWAP1 PUSH2 0x4584 SWAP1 PUSH2 0x7431 JUMP JUMPDEST SWAP2 SWAP1 POP SSTORE POP JUMPDEST PUSH2 0x4594 DUP2 DUP6 PUSH2 0x5810 JUMP JUMPDEST PUSH2 0x459E DUP2 DUP5 PUSH2 0x5343 JUMP JUMPDEST DUP1 DUP5 PUSH20 0xFFFFFFFFFFFFFFFFFFFFFFFFFFFFFFFFFFFFFFFF AND PUSH1 0x0 PUSH20 0xFFFFFFFFFFFFFFFFFFFFFFFFFFFFFFFFFFFFFFFF AND PUSH32 0xDDF252AD1BE2C89B69C2B068FC378DAA952BA7F163C4A11628F55A4DF523B3EF PUSH1 0x40 MLOAD PUSH1 0x40 MLOAD DUP1 SWAP2 SUB SWAP1 LOG4 SWAP4 SWAP3 POP POP POP JUMP JUMPDEST DUP1 PUSH2 0x1432 PUSH1 0x0 DUP5 DUP2 MSTORE PUSH1 0x20 ADD SWAP1 DUP2 MSTORE PUSH1 0x20 ADD PUSH1 0x0 KECCAK256 SLOAD EQ PUSH2 0x4636 JUMPI DUP1 PUSH2 0x1432 PUSH1 0x0 DUP5 DUP2 MSTORE PUSH1 0x20 ADD SWAP1 DUP2 MSTORE PUSH1 0x20 ADD PUSH1 0x0 KECCAK256 DUP2 SWAP1 SSTORE POP JUMPDEST PUSH2 0xC52 SLOAD PUSH2 0x1433 PUSH1 0x0 DUP5 DUP2 MSTORE PUSH1 0x20 ADD SWAP1 DUP2 MSTORE PUSH1 0x20 ADD PUSH1 0x0 KECCAK256 SLOAD EQ PUSH2 0x4671 JUMPI PUSH2 0xC52 SLOAD PUSH2 0x1433 PUSH1 0x0 DUP5 DUP2 MSTORE PUSH1 0x20 ADD SWAP1 DUP2 MSTORE PUSH1 0x20 ADD PUSH1 0x0 KECCAK256 DUP2 SWAP1 SSTORE POP JUMPDEST PUSH2 0x47F PUSH1 0x0 SWAP1 SLOAD SWAP1 PUSH2 0x100 EXP SWAP1 DIV PUSH20 0xFFFFFFFFFFFFFFFFFFFFFFFFFFFFFFFFFFFFFFFF AND PUSH20 0xFFFFFFFFFFFFFFFFFFFFFFFFFFFFFFFFFFFFFFFF AND PUSH2 0x1434 PUSH1 0x0 DUP5 DUP2 MSTORE PUSH1 0x20 ADD SWAP1 DUP2 MSTORE PUSH1 0x20 ADD PUSH1 0x0 KECCAK256 PUSH1 0x0 SWAP1 SLOAD SWAP1 PUSH2 0x100 EXP SWAP1 DIV PUSH20 0xFFFFFFFFFFFFFFFFFFFFFFFFFFFFFFFFFFFFFFFF AND PUSH20 0xFFFFFFFFFFFFFFFFFFFFFFFFFFFFFFFFFFFFFFFF AND EQ PUSH2 0x4772 JUMPI PUSH2 0x47F PUSH1 0x0 SWAP1 SLOAD SWAP1 PUSH2 0x100 EXP SWAP1 DIV PUSH20 0xFFFFFFFFFFFFFFFFFFFFFFFFFFFFFFFFFFFFFFFF AND PUSH2 0x1434 PUSH1 0x0 DUP5 DUP2 MSTORE PUSH1 0x20 ADD SWAP1 DUP2 MSTORE PUSH1 0x20 ADD PUSH1 0x0 KECCAK256 PUSH1 0x0 PUSH2 0x100 EXP DUP2 SLOAD DUP2 PUSH20 0xFFFFFFFFFFFFFFFFFFFFFFFFFFFFFFFFFFFFFFFF MUL NOT AND SWAP1 DUP4 PUSH20 0xFFFFFFFFFFFFFFFFFFFFFFFFFFFFFFFFFFFFFFFF AND MUL OR SWAP1 SSTORE POP JUMPDEST POP POP JUMP JUMPDEST DUP1 DUP3 LT ISZERO PUSH2 0x47B0 JUMPI PUSH1 0x40 MLOAD PUSH32 0xC0017EC400000000000000000000000000000000000000000000000000000000 DUP2 MSTORE PUSH1 0x4 ADD PUSH1 0x40 MLOAD DUP1 SWAP2 SUB SWAP1 REVERT JUMPDEST POP POP JUMP JUMPDEST PUSH1 0x0 PUSH2 0xC51 PUSH1 0x0 SWAP1 SLOAD SWAP1 PUSH2 0x100 EXP SWAP1 DIV PUSH20 0xFFFFFFFFFFFFFFFFFFFFFFFFFFFFFFFFFFFFFFFF AND PUSH20 0xFFFFFFFFFFFFFFFFFFFFFFFFFFFFFFFFFFFFFFFF AND EXTCODESIZE GT ISZERO PUSH2 0x4905 JUMPI PUSH2 0xC51 PUSH1 0x0 SWAP1 SLOAD SWAP1 PUSH2 0x100 EXP SWAP1 DIV PUSH20 0xFFFFFFFFFFFFFFFFFFFFFFFFFFFFFFFFFFFFFFFF AND PUSH20 0xFFFFFFFFFFFFFFFFFFFFFFFFFFFFFFFFFFFFFFFF AND PUSH4 0x939D9F1F PUSH3 0x493E0 DUP5 DUP5 PUSH1 0x40 MLOAD DUP5 PUSH4 0xFFFFFFFF AND PUSH1 0xE0 SHL DUP2 MSTORE PUSH1 0x4 ADD PUSH2 0x4859 SWAP3 SWAP2 SWAP1 PUSH2 0x7B48 JUMP JUMPDEST PUSH1 0x0 PUSH1 0x40 MLOAD DUP1 DUP4 SUB DUP2 PUSH1 0x0 DUP9 DUP1 EXTCODESIZE ISZERO DUP1 ISZERO PUSH2 0x4873 JUMPI PUSH1 0x0 DUP1 REVERT JUMPDEST POP DUP8 CALL SWAP4 POP POP POP POP DUP1 ISZERO PUSH2 0x4885 JUMPI POP PUSH1 0x1 JUMPDEST PUSH2 0x48FF JUMPI ADDRESS PUSH20 0xFFFFFFFFFFFFFFFFFFFFFFFFFFFFFFFFFFFFFFFF AND PUSH32 0x6B18946261693DFD6C760D986B28AD2238B5B0267F8E5B6BC40A2F998E2F20AC PUSH2 0xC51 PUSH1 0x0 SWAP1 SLOAD SWAP1 PUSH2 0x100 EXP SWAP1 DIV PUSH20 0xFFFFFFFFFFFFFFFFFFFFFFFFFFFFFFFFFFFFFFFF AND PUSH1 0x40 MLOAD PUSH2 0x48F2 SWAP2 SWAP1 PUSH2 0x62D7 JUMP JUMPDEST PUSH1 0x40 MLOAD DUP1 SWAP2 SUB SWAP1 LOG2 PUSH2 0x4900 JUMP JUMPDEST JUMPDEST PUSH2 0x4977 JUMP JUMPDEST ADDRESS PUSH20 0xFFFFFFFFFFFFFFFFFFFFFFFFFFFFFFFFFFFFFFFF AND PUSH32 0x6B18946261693DFD6C760D986B28AD2238B5B0267F8E5B6BC40A2F998E2F20AC PUSH2 0xC51 PUSH1 0x0 SWAP1 SLOAD SWAP1 PUSH2 0x100 EXP SWAP1 DIV PUSH20 0xFFFFFFFFFFFFFFFFFFFFFFFFFFFFFFFFFFFFFFFF AND PUSH1 0x40 MLOAD PUSH2 0x496E SWAP2 SWAP1 PUSH2 0x62D7 JUMP JUMPDEST PUSH1 0x40 MLOAD DUP1 SWAP2 SUB SWAP1 LOG2 JUMPDEST POP POP JUMP JUMPDEST PUSH1 0x0 PUSH20 0xFFFFFFFFFFFFFFFFFFFFFFFFFFFFFFFFFFFFFFFF AND PUSH2 0x47F PUSH1 0x0 SWAP1 SLOAD SWAP1 PUSH2 0x100 EXP SWAP1 DIV PUSH20 0xFFFFFFFFFFFFFFFFFFFFFFFFFFFFFFFFFFFFFFFF AND PUSH20 0xFFFFFFFFFFFFFFFFFFFFFFFFFFFFFFFFFFFFFFFF AND EQ PUSH2 0x4A7B JUMPI PUSH2 0x47F PUSH1 0x0 SWAP1 SLOAD SWAP1 PUSH2 0x100 EXP SWAP1 DIV PUSH20 0xFFFFFFFFFFFFFFFFFFFFFFFFFFFFFFFFFFFFFFFF AND PUSH20 0xFFFFFFFFFFFFFFFFFFFFFFFFFFFFFFFFFFFFFFFF AND PUSH4 0x23B872DD DUP4 ADDRESS DUP5 PUSH1 0x40 MLOAD DUP5 PUSH4 0xFFFFFFFF AND PUSH1 0xE0 SHL DUP2 MSTORE PUSH1 0x4 ADD PUSH2 0x4A32 SWAP4 SWAP3 SWAP2 SWAP1 PUSH2 0x7B71 JUMP JUMPDEST PUSH1 0x20 PUSH1 0x40 MLOAD DUP1 DUP4 SUB DUP2 PUSH1 0x0 DUP8 GAS CALL ISZERO DUP1 ISZERO PUSH2 0x4A51 JUMPI RETURNDATASIZE PUSH1 0x0 DUP1 RETURNDATACOPY RETURNDATASIZE PUSH1 0x0 REVERT JUMPDEST POP POP POP POP PUSH1 0x40 MLOAD RETURNDATASIZE PUSH1 0x1F NOT PUSH1 0x1F DUP3 ADD AND DUP3 ADD DUP1 PUSH1 0x40 MSTORE POP DUP2 ADD SWAP1 PUSH2 0x4A75 SWAP2 SWAP1 PUSH2 0x766F JUMP JUMPDEST POP PUSH2 0x4AB6 JUMP JUMPDEST DUP1 CALLVALUE LT ISZERO PUSH2 0x4AB5 JUMPI PUSH1 0x40 MLOAD PUSH32 0x6C3CDDF000000000000000000000000000000000000000000000000000000000 DUP2 MSTORE PUSH1 0x4 ADD PUSH1 0x40 MLOAD DUP1 SWAP2 SUB SWAP1 REVERT JUMPDEST JUMPDEST POP POP JUMP JUMPDEST PUSH1 0x0 DUP1 PUSH2 0xC51 PUSH1 0x0 SWAP1 SLOAD SWAP1 PUSH2 0x100 EXP SWAP1 DIV PUSH20 0xFFFFFFFFFFFFFFFFFFFFFFFFFFFFFFFFFFFFFFFF AND PUSH20 0xFFFFFFFFFFFFFFFFFFFFFFFFFFFFFFFFFFFFFFFF AND EXTCODESIZE GT ISZERO PUSH2 0x4C7B JUMPI PUSH2 0xC51 PUSH1 0x0 SWAP1 SLOAD SWAP1 PUSH2 0x100 EXP SWAP1 DIV PUSH20 0xFFFFFFFFFFFFFFFFFFFFFFFFFFFFFFFFFFFFFFFF AND PUSH20 0xFFFFFFFFFFFFFFFFFFFFFFFFFFFFFFFFFFFFFFFF AND PUSH4 0xB0E21E8A PUSH1 0x40 MLOAD DUP2 PUSH4 0xFFFFFFFF AND PUSH1 0xE0 SHL DUP2 MSTORE PUSH1 0x4 ADD PUSH1 0x20 PUSH1 0x40 MLOAD DUP1 DUP4 SUB DUP2 DUP7 GAS STATICCALL SWAP3 POP POP POP DUP1 ISZERO PUSH2 0x4B89 JUMPI POP PUSH1 0x40 MLOAD RETURNDATASIZE PUSH1 0x1F NOT PUSH1 0x1F DUP3 ADD AND DUP3 ADD DUP1 PUSH1 0x40 MSTORE POP DUP2 ADD SWAP1 PUSH2 0x4B86 SWAP2 SWAP1 PUSH2 0x7253 JUMP JUMPDEST PUSH1 0x1 JUMPDEST PUSH2 0x4C03 JUMPI ADDRESS PUSH20 0xFFFFFFFFFFFFFFFFFFFFFFFFFFFFFFFFFFFFFFFF AND PUSH32 0x6B18946261693DFD6C760D986B28AD2238B5B0267F8E5B6BC40A2F998E2F20AC PUSH2 0xC51 PUSH1 0x0 SWAP1 SLOAD SWAP1 PUSH2 0x100 EXP SWAP1 DIV PUSH20 0xFFFFFFFFFFFFFFFFFFFFFFFFFFFFFFFFFFFFFFFF AND PUSH1 0x40 MLOAD PUSH2 0x4BF6 SWAP2 SWAP1 PUSH2 0x62D7 JUMP JUMPDEST PUSH1 0x40 MLOAD DUP1 SWAP2 SUB SWAP1 LOG2 PUSH2 0x4C7A JUMP JUMPDEST PUSH2 0x2710 DUP2 DUP5 PUSH2 0x4C12 SWAP2 SWAP1 PUSH2 0x751C JUMP JUMPDEST PUSH2 0x4C1C SWAP2 SWAP1 PUSH2 0x758D JUMP JUMPDEST SWAP2 POP PUSH1 0x0 DUP3 EQ PUSH2 0x4C78 JUMPI PUSH2 0x4C77 PUSH2 0x47F PUSH1 0x0 SWAP1 SLOAD SWAP1 PUSH2 0x100 EXP SWAP1 DIV PUSH20 0xFFFFFFFFFFFFFFFFFFFFFFFFFFFFFFFFFFFFFFFF AND PUSH2 0xC51 PUSH1 0x0 SWAP1 SLOAD SWAP1 PUSH2 0x100 EXP SWAP1 DIV PUSH20 0xFFFFFFFFFFFFFFFFFFFFFFFFFFFFFFFFFFFFFFFF AND DUP5 PUSH2 0x5557 JUMP JUMPDEST JUMPDEST POP JUMPDEST JUMPDEST POP POP JUMP JUMPDEST PUSH1 0x0 PUSH2 0x1431 SLOAD EQ PUSH2 0x4D32 JUMPI PUSH2 0x4CBB PUSH2 0x47F PUSH1 0x0 SWAP1 SLOAD SWAP1 PUSH2 0x100 EXP SWAP1 DIV PUSH20 0xFFFFFFFFFFFFFFFFFFFFFFFFFFFFFFFFFFFFFFFF AND CALLER PUSH2 0x1431 SLOAD PUSH2 0x5557 JUMP JUMPDEST CALLER PUSH20 0xFFFFFFFFFFFFFFFFFFFFFFFFFFFFFFFFFFFFFFFF AND PUSH32 0x522A883B471164223F18B50F326DA8671372B64B4792EAC0E63D447E714C3E3B PUSH2 0x1431 SLOAD PUSH2 0x47F PUSH1 0x0 SWAP1 SLOAD SWAP1 PUSH2 0x100 EXP SWAP1 DIV PUSH20 0xFFFFFFFFFFFFFFFFFFFFFFFFFFFFFFFFFFFFFFFF AND PUSH1 0x40 MLOAD PUSH2 0x4D29 SWAP3 SWAP2 SWAP1 PUSH2 0x7B48 JUMP JUMPDEST PUSH1 0x40 MLOAD DUP1 SWAP2 SUB SWAP1 LOG2 JUMPDEST JUMP JUMPDEST PUSH1 0x0 PUSH20 0xFFFFFFFFFFFFFFFFFFFFFFFFFFFFFFFFFFFFFFFF AND DUP2 PUSH20 0xFFFFFFFFFFFFFFFFFFFFFFFFFFFFFFFFFFFFFFFF AND EQ PUSH2 0x4E8D JUMPI PUSH1 0x0 PUSH2 0x1435 PUSH1 0x0 DUP1 PUSH20 0xFFFFFFFFFFFFFFFFFFFFFFFFFFFFFFFFFFFFFFFF AND PUSH20 0xFFFFFFFFFFFFFFFFFFFFFFFFFFFFFFFFFFFFFFFF AND DUP2 MSTORE PUSH1 0x20 ADD SWAP1 DUP2 MSTORE PUSH1 0x20 ADD PUSH1 0x0 KECCAK256 SLOAD SWAP1 POP PUSH1 0x0 PUSH2 0x1435 PUSH1 0x0 DUP5 PUSH20 0xFFFFFFFFFFFFFFFFFFFFFFFFFFFFFFFFFFFFFFFF AND PUSH20 0xFFFFFFFFFFFFFFFFFFFFFFFFFFFFFFFFFFFFFFFF AND DUP2 MSTORE PUSH1 0x20 ADD SWAP1 DUP2 MSTORE PUSH1 0x20 ADD PUSH1 0x0 KECCAK256 SLOAD EQ PUSH2 0x4E39 JUMPI PUSH2 0x1435 PUSH1 0x0 DUP4 PUSH20 0xFFFFFFFFFFFFFFFFFFFFFFFFFFFFFFFFFFFFFFFF AND PUSH20 0xFFFFFFFFFFFFFFFFFFFFFFFFFFFFFFFFFFFFFFFF AND DUP2 MSTORE PUSH1 0x20 ADD SWAP1 DUP2 MSTORE PUSH1 0x20 ADD PUSH1 0x0 KECCAK256 SLOAD SWAP1 POP JUMPDEST PUSH1 0x0 DUP2 EQ PUSH2 0x4E8B JUMPI PUSH2 0x4E8A PUSH2 0x47F PUSH1 0x0 SWAP1 SLOAD SWAP1 PUSH2 0x100 EXP SWAP1 DIV PUSH20 0xFFFFFFFFFFFFFFFFFFFFFFFFFFFFFFFFFFFFFFFF AND DUP4 PUSH2 0x2710 DUP5 PUSH2 0xC53 SLOAD PUSH2 0x4E7B SWAP2 SWAP1 PUSH2 0x751C JUMP JUMPDEST PUSH2 0x4E85 SWAP2 SWAP1 PUSH2 0x758D JUMP JUMPDEST PUSH2 0x5557 JUMP JUMPDEST JUMPDEST POP JUMPDEST POP JUMP JUMPDEST PUSH1 0x0 CALLER SWAP1 POP SWAP1 JUMP JUMPDEST PUSH2 0x4EA2 DUP3 DUP3 PUSH2 0x2CE2 JUMP JUMPDEST ISZERO PUSH2 0x4F76 JUMPI PUSH1 0x0 PUSH1 0x65 PUSH1 0x0 DUP5 DUP2 MSTORE PUSH1 0x20 ADD SWAP1 DUP2 MSTORE PUSH1 0x20 ADD PUSH1 0x0 KECCAK256 PUSH1 0x0 ADD PUSH1 0x0 DUP4 PUSH20 0xFFFFFFFFFFFFFFFFFFFFFFFFFFFFFFFFFFFFFFFF AND PUSH20 0xFFFFFFFFFFFFFFFFFFFFFFFFFFFFFFFFFFFFFFFF AND DUP2 MSTORE PUSH1 0x20 ADD SWAP1 DUP2 MSTORE PUSH1 0x20 ADD PUSH1 0x0 KECCAK256 PUSH1 0x0 PUSH2 0x100 EXP DUP2 SLOAD DUP2 PUSH1 0xFF MUL NOT AND SWAP1 DUP4 ISZERO ISZERO MUL OR SWAP1 SSTORE POP PUSH2 0x4F1B PUSH2 0x4E90 JUMP JUMPDEST PUSH20 0xFFFFFFFFFFFFFFFFFFFFFFFFFFFFFFFFFFFFFFFF AND DUP2 PUSH20 0xFFFFFFFFFFFFFFFFFFFFFFFFFFFFFFFFFFFFFFFF AND DUP4 PUSH32 0xF6391F5C32D9C69D2A47EA670B442974B53935D1EDC7FD64EB21E047A839171B PUSH1 0x40 MLOAD PUSH1 0x40 MLOAD DUP1 SWAP2 SUB SWAP1 LOG4 JUMPDEST POP POP JUMP JUMPDEST TIMESTAMP PUSH2 0x1049 PUSH1 0x0 DUP4 DUP2 MSTORE PUSH1 0x20 ADD SWAP1 DUP2 MSTORE PUSH1 0x20 ADD PUSH1 0x0 KECCAK256 PUSH1 0x1 ADD DUP2 SWAP1 SSTORE POP POP JUMP JUMPDEST PUSH1 0x0 DUP1 DUP3 PUSH20 0xFFFFFFFFFFFFFFFFFFFFFFFFFFFFFFFFFFFFFFFF AND EXTCODESIZE GT SWAP1 POP SWAP2 SWAP1 POP JUMP JUMPDEST PUSH1 0x0 DUP1 PUSH2 0x1049 PUSH1 0x0 DUP6 DUP2 MSTORE PUSH1 0x20 ADD SWAP1 DUP2 MSTORE PUSH1 0x20 ADD PUSH1 0x0 KECCAK256 PUSH1 0x1 ADD SLOAD SWAP1 POP PUSH32 0xFFFFFFFFFFFFFFFFFFFFFFFFFFFFFFFFFFFFFFFFFFFFFFFFFFFFFFFFFFFFFFFF DUP2 SUB PUSH2 0x5032 JUMPI PUSH1 0x40 MLOAD PUSH32 0x1FDA338200000000000000000000000000000000000000000000000000000000 DUP2 MSTORE PUSH1 0x4 ADD PUSH1 0x40 MLOAD DUP1 SWAP2 SUB SWAP1 REVERT JUMPDEST PUSH1 0x0 DUP1 DUP5 EQ PUSH2 0x5041 JUMPI DUP4 PUSH2 0x5046 JUMP JUMPDEST PUSH2 0xC52 SLOAD JUMPDEST SWAP1 POP PUSH32 0xFFFFFFFFFFFFFFFFFFFFFFFFFFFFFFFFFFFFFFFFFFFFFFFFFFFFFFFFFFFFFFFF DUP2 SUB PUSH2 0x5097 JUMPI PUSH32 0xFFFFFFFFFFFFFFFFFFFFFFFFFFFFFFFFFFFFFFFFFFFFFFFFFFFFFFFFFFFFFFFF SWAP3 POP PUSH2 0x50C2 JUMP JUMPDEST TIMESTAMP DUP3 GT ISZERO PUSH2 0x50B2 JUMPI DUP1 DUP3 PUSH2 0x50AB SWAP2 SWAP1 PUSH2 0x72B7 JUMP JUMPDEST SWAP3 POP PUSH2 0x50C1 JUMP JUMPDEST DUP1 TIMESTAMP PUSH2 0x50BE SWAP2 SWAP1 PUSH2 0x72B7 JUMP JUMPDEST SWAP3 POP JUMPDEST JUMPDEST DUP3 PUSH2 0x1049 PUSH1 0x0 DUP8 DUP2 MSTORE PUSH1 0x20 ADD SWAP1 DUP2 MSTORE PUSH1 0x20 ADD PUSH1 0x0 KECCAK256 PUSH1 0x1 ADD DUP2 SWAP1 SSTORE POP DUP5 PUSH32 0x3CA112768FF7861E008ACE1C11570C52E404C043E585545B5957A1E20961DDE3 DUP5 PUSH1 0x40 MLOAD PUSH2 0x510E SWAP2 SWAP1 PUSH2 0x6522 JUMP JUMPDEST PUSH1 0x40 MLOAD DUP1 SWAP2 SUB SWAP1 LOG2 PUSH1 0x0 PUSH20 0xFFFFFFFFFFFFFFFFFFFFFFFFFFFFFFFFFFFFFFFF AND PUSH2 0xC5E PUSH1 0x0 SWAP1 SLOAD SWAP1 PUSH2 0x100 EXP SWAP1 DIV PUSH20 0xFFFFFFFFFFFFFFFFFFFFFFFFFFFFFFFFFFFFFFFF AND PUSH20 0xFFFFFFFFFFFFFFFFFFFFFFFFFFFFFFFFFFFFFFFF AND EQ PUSH2 0x5202 JUMPI PUSH2 0xC5E PUSH1 0x0 SWAP1 SLOAD SWAP1 PUSH2 0x100 EXP SWAP1 DIV PUSH20 0xFFFFFFFFFFFFFFFFFFFFFFFFFFFFFFFFFFFFFFFF AND PUSH20 0xFFFFFFFFFFFFFFFFFFFFFFFFFFFFFFFFFFFFFFFF AND PUSH4 0x16B9680 DUP7 CALLER DUP7 DUP7 PUSH1 0x40 MLOAD DUP6 PUSH4 0xFFFFFFFF AND PUSH1 0xE0 SHL DUP2 MSTORE PUSH1 0x4 ADD PUSH2 0x51CF SWAP5 SWAP4 SWAP3 SWAP2 SWAP1 PUSH2 0x7BA8 JUMP JUMPDEST PUSH1 0x0 PUSH1 0x40 MLOAD DUP1 DUP4 SUB DUP2 PUSH1 0x0 DUP8 DUP1 EXTCODESIZE ISZERO DUP1 ISZERO PUSH2 0x51E9 JUMPI PUSH1 0x0 DUP1 REVERT JUMPDEST POP GAS CALL ISZERO DUP1 ISZERO PUSH2 0x51FD JUMPI RETURNDATASIZE PUSH1 0x0 DUP1 RETURNDATACOPY RETURNDATASIZE PUSH1 0x0 REVERT JUMPDEST POP POP POP POP JUMPDEST POP POP SWAP3 SWAP2 POP POP JUMP JUMPDEST PUSH2 0x2710 PUSH2 0x181A SLOAD LT ISZERO DUP1 ISZERO PUSH2 0x5225 JUMPI POP PUSH2 0x5223 CALLER PUSH2 0x3155 JUMP JUMPDEST ISZERO JUMPDEST ISZERO PUSH2 0x525C JUMPI PUSH1 0x40 MLOAD PUSH32 0x8FC868F400000000000000000000000000000000000000000000000000000000 DUP2 MSTORE PUSH1 0x4 ADD PUSH1 0x40 MLOAD DUP1 SWAP2 SUB SWAP1 REVERT JUMPDEST JUMP JUMPDEST PUSH1 0x0 PUSH20 0xFFFFFFFFFFFFFFFFFFFFFFFFFFFFFFFFFFFFFFFF AND DUP2 PUSH20 0xFFFFFFFFFFFFFFFFFFFFFFFFFFFFFFFFFFFFFFFF AND EQ ISZERO DUP1 ISZERO PUSH2 0x5309 JUMPI POP PUSH1 0x0 DUP2 PUSH20 0xFFFFFFFFFFFFFFFFFFFFFFFFFFFFFFFFFFFFFFFF AND PUSH4 0x18160DDD PUSH1 0x40 MLOAD DUP2 PUSH4 0xFFFFFFFF AND PUSH1 0xE0 SHL DUP2 MSTORE PUSH1 0x4 ADD PUSH1 0x20 PUSH1 0x40 MLOAD DUP1 DUP4 SUB DUP2 DUP7 GAS STATICCALL ISZERO DUP1 ISZERO PUSH2 0x52E3 JUMPI RETURNDATASIZE PUSH1 0x0 DUP1 RETURNDATACOPY RETURNDATASIZE PUSH1 0x0 REVERT JUMPDEST POP POP POP POP PUSH1 0x40 MLOAD RETURNDATASIZE PUSH1 0x1F NOT PUSH1 0x1F DUP3 ADD AND DUP3 ADD DUP1 PUSH1 0x40 MSTORE POP DUP2 ADD SWAP1 PUSH2 0x5307 SWAP2 SWAP1 PUSH2 0x7253 JUMP JUMPDEST LT JUMPDEST ISZERO PUSH2 0x5340 JUMPI PUSH1 0x40 MLOAD PUSH32 0xD0995CF200000000000000000000000000000000000000000000000000000000 DUP2 MSTORE PUSH1 0x4 ADD PUSH1 0x40 MLOAD DUP1 SWAP2 SUB SWAP1 REVERT JUMPDEST POP JUMP JUMPDEST DUP1 PUSH20 0xFFFFFFFFFFFFFFFFFFFFFFFFFFFFFFFFFFFFFFFF AND PUSH2 0x1046 PUSH1 0x0 DUP5 DUP2 MSTORE PUSH1 0x20 ADD SWAP1 DUP2 MSTORE PUSH1 0x20 ADD PUSH1 0x0 KECCAK256 PUSH1 0x0 SWAP1 SLOAD SWAP1 PUSH2 0x100 EXP SWAP1 DIV PUSH20 0xFFFFFFFFFFFFFFFFFFFFFFFFFFFFFFFFFFFFFFFF AND PUSH20 0xFFFFFFFFFFFFFFFFFFFFFFFFFFFFFFFFFFFFFFFF AND EQ PUSH2 0x544B JUMPI DUP1 PUSH2 0x1046 PUSH1 0x0 DUP5 DUP2 MSTORE PUSH1 0x20 ADD SWAP1 DUP2 MSTORE PUSH1 0x20 ADD PUSH1 0x0 KECCAK256 PUSH1 0x0 PUSH2 0x100 EXP DUP2 SLOAD DUP2 PUSH20 0xFFFFFFFFFFFFFFFFFFFFFFFFFFFFFFFFFFFFFFFF MUL NOT AND SWAP1 DUP4 PUSH20 0xFFFFFFFFFFFFFFFFFFFFFFFFFFFFFFFFFFFFFFFF AND MUL OR SWAP1 SSTORE POP PUSH2 0x5406 DUP3 PUSH2 0x5978 JUMP JUMPDEST DUP1 PUSH20 0xFFFFFFFFFFFFFFFFFFFFFFFFFFFFFFFFFFFFFFFF AND DUP3 PUSH32 0x9D2895C45A420624DE863A2F437B022D879F457BF7A829044055A10C5A6FD5E3 PUSH1 0x40 MLOAD PUSH1 0x40 MLOAD DUP1 SWAP2 SUB SWAP1 LOG3 JUMPDEST POP POP JUMP JUMPDEST PUSH1 0x0 PUSH2 0x5470 DUP5 PUSH20 0xFFFFFFFFFFFFFFFFFFFFFFFFFFFFFFFFFFFFFFFF AND PUSH2 0x4F99 JUMP JUMPDEST PUSH2 0x547D JUMPI PUSH1 0x1 SWAP1 POP PUSH2 0x554F JUMP JUMPDEST PUSH1 0x0 DUP5 PUSH20 0xFFFFFFFFFFFFFFFFFFFFFFFFFFFFFFFFFFFFFFFF AND PUSH4 0x150B7A02 CALLER DUP9 DUP8 DUP8 PUSH1 0x40 MLOAD DUP6 PUSH4 0xFFFFFFFF AND PUSH1 0xE0 SHL DUP2 MSTORE PUSH1 0x4 ADD PUSH2 0x54BE SWAP5 SWAP4 SWAP3 SWAP2 SWAP1 PUSH2 0x7BED JUMP JUMPDEST PUSH1 0x20 PUSH1 0x40 MLOAD DUP1 DUP4 SUB DUP2 PUSH1 0x0 DUP8 GAS CALL ISZERO DUP1 ISZERO PUSH2 0x54DD JUMPI RETURNDATASIZE PUSH1 0x0 DUP1 RETURNDATACOPY RETURNDATASIZE PUSH1 0x0 REVERT JUMPDEST POP POP POP POP PUSH1 0x40 MLOAD RETURNDATASIZE PUSH1 0x1F NOT PUSH1 0x1F DUP3 ADD AND DUP3 ADD DUP1 PUSH1 0x40 MSTORE POP DUP2 ADD SWAP1 PUSH2 0x5501 SWAP2 SWAP1 PUSH2 0x7C4E JUMP JUMPDEST SWAP1 POP PUSH4 0x150B7A02 PUSH1 0xE0 SHL PUSH28 0xFFFFFFFFFFFFFFFFFFFFFFFFFFFFFFFFFFFFFFFFFFFFFFFFFFFFFFFF NOT AND DUP2 PUSH28 0xFFFFFFFFFFFFFFFFFFFFFFFFFFFFFFFFFFFFFFFFFFFFFFFFFFFFFFFF NOT AND EQ SWAP2 POP POP JUMPDEST SWAP5 SWAP4 POP POP POP POP JUMP JUMPDEST PUSH1 0x0 DUP2 GT ISZERO PUSH2 0x55F5 JUMPI PUSH1 0x0 PUSH20 0xFFFFFFFFFFFFFFFFFFFFFFFFFFFFFFFFFFFFFFFF AND DUP4 PUSH20 0xFFFFFFFFFFFFFFFFFFFFFFFFFFFFFFFFFFFFFFFF AND SUB PUSH2 0x55C2 JUMPI PUSH2 0x55BD DUP2 DUP4 PUSH20 0xFFFFFFFFFFFFFFFFFFFFFFFFFFFFFFFFFFFFFFFF AND PUSH2 0x5ABD SWAP1 SWAP2 SWAP1 PUSH4 0xFFFFFFFF AND JUMP JUMPDEST PUSH2 0x55F4 JUMP JUMPDEST PUSH1 0x0 DUP4 SWAP1 POP PUSH2 0x55F2 DUP4 DUP4 DUP4 PUSH20 0xFFFFFFFFFFFFFFFFFFFFFFFFFFFFFFFFFFFFFFFF AND PUSH2 0x5BB1 SWAP1 SWAP3 SWAP2 SWAP1 PUSH4 0xFFFFFFFF AND JUMP JUMPDEST POP JUMPDEST JUMPDEST POP POP POP JUMP JUMPDEST PUSH1 0x0 PUSH2 0x1044 PUSH1 0x0 DUP4 DUP2 MSTORE PUSH1 0x20 ADD SWAP1 DUP2 MSTORE PUSH1 0x20 ADD PUSH1 0x0 KECCAK256 PUSH1 0x0 SWAP1 SLOAD SWAP1 PUSH2 0x100 EXP SWAP1 DIV PUSH20 0xFFFFFFFFFFFFFFFFFFFFFFFFFFFFFFFFFFFFFFFF AND SWAP1 POP PUSH1 0x0 PUSH1 0x1 PUSH2 0x5640 DUP4 PUSH2 0x2A38 JUMP JUMPDEST PUSH2 0x564A SWAP2 SWAP1 PUSH2 0x713F JUMP JUMPDEST SWAP1 POP PUSH1 0x0 PUSH2 0x104B PUSH1 0x0 DUP6 DUP2 MSTORE PUSH1 0x20 ADD SWAP1 DUP2 MSTORE PUSH1 0x20 ADD PUSH1 0x0 KECCAK256 SLOAD SWAP1 POP DUP2 DUP2 EQ PUSH2 0x5733 JUMPI PUSH1 0x0 PUSH2 0x104A PUSH1 0x0 DUP6 PUSH20 0xFFFFFFFFFFFFFFFFFFFFFFFFFFFFFFFFFFFFFFFF AND PUSH20 0xFFFFFFFFFFFFFFFFFFFFFFFFFFFFFFFFFFFFFFFF AND DUP2 MSTORE PUSH1 0x20 ADD SWAP1 DUP2 MSTORE PUSH1 0x20 ADD PUSH1 0x0 KECCAK256 PUSH1 0x0 DUP5 DUP2 MSTORE PUSH1 0x20 ADD SWAP1 DUP2 MSTORE PUSH1 0x20 ADD PUSH1 0x0 KECCAK256 SLOAD SWAP1 POP DUP1 PUSH2 0x104A PUSH1 0x0 DUP7 PUSH20 0xFFFFFFFFFFFFFFFFFFFFFFFFFFFFFFFFFFFFFFFF AND PUSH20 0xFFFFFFFFFFFFFFFFFFFFFFFFFFFFFFFFFFFFFFFF AND DUP2 MSTORE PUSH1 0x20 ADD SWAP1 DUP2 MSTORE PUSH1 0x20 ADD PUSH1 0x0 KECCAK256 PUSH1 0x0 DUP5 DUP2 MSTORE PUSH1 0x20 ADD SWAP1 DUP2 MSTORE PUSH1 0x20 ADD PUSH1 0x0 KECCAK256 DUP2 SWAP1 SSTORE POP DUP2 PUSH2 0x104B PUSH1 0x0 DUP4 DUP2 MSTORE PUSH1 0x20 ADD SWAP1 DUP2 MSTORE PUSH1 0x20 ADD PUSH1 0x0 KECCAK256 DUP2 SWAP1 SSTORE POP POP JUMPDEST PUSH2 0x104A PUSH1 0x0 DUP5 PUSH20 0xFFFFFFFFFFFFFFFFFFFFFFFFFFFFFFFFFFFFFFFF AND PUSH20 0xFFFFFFFFFFFFFFFFFFFFFFFFFFFFFFFFFFFFFFFF AND DUP2 MSTORE PUSH1 0x20 ADD SWAP1 DUP2 MSTORE PUSH1 0x20 ADD PUSH1 0x0 KECCAK256 PUSH1 0x0 DUP4 DUP2 MSTORE PUSH1 0x20 ADD SWAP1 DUP2 MSTORE PUSH1 0x20 ADD PUSH1 0x0 KECCAK256 PUSH1 0x0 SWAP1 SSTORE PUSH1 0x1 PUSH2 0x5793 DUP5 PUSH2 0x2A38 JUMP JUMPDEST SUB PUSH2 0x57B2 JUMPI PUSH2 0x1045 PUSH1 0x0 DUP2 SLOAD DUP1 SWAP3 SWAP2 SWAP1 PUSH2 0x57AC SWAP1 PUSH2 0x7C7B JUMP JUMPDEST SWAP2 SWAP1 POP SSTORE POP JUMPDEST PUSH1 0x1 PUSH2 0x104C PUSH1 0x0 DUP6 PUSH20 0xFFFFFFFFFFFFFFFFFFFFFFFFFFFFFFFFFFFFFFFF AND PUSH20 0xFFFFFFFFFFFFFFFFFFFFFFFFFFFFFFFFFFFFFFFF AND DUP2 MSTORE PUSH1 0x20 ADD SWAP1 DUP2 MSTORE PUSH1 0x20 ADD PUSH1 0x0 KECCAK256 PUSH1 0x0 DUP3 DUP3 SLOAD PUSH2 0x5803 SWAP2 SWAP1 PUSH2 0x713F JUMP JUMPDEST SWAP3 POP POP DUP2 SWAP1 SSTORE POP POP POP POP POP JUMP JUMPDEST PUSH1 0x0 PUSH2 0x581B DUP3 PUSH2 0x2A38 JUMP JUMPDEST SWAP1 POP PUSH2 0xC5C SLOAD DUP2 LT PUSH2 0x5859 JUMPI PUSH1 0x40 MLOAD PUSH32 0x17ED864600000000000000000000000000000000000000000000000000000000 DUP2 MSTORE PUSH1 0x4 ADD PUSH1 0x40 MLOAD DUP1 SWAP2 SUB SWAP1 REVERT JUMPDEST DUP1 PUSH2 0x104B PUSH1 0x0 DUP6 DUP2 MSTORE PUSH1 0x20 ADD SWAP1 DUP2 MSTORE PUSH1 0x20 ADD PUSH1 0x0 KECCAK256 DUP2 SWAP1 SSTORE POP DUP3 PUSH2 0x104A PUSH1 0x0 DUP5 PUSH20 0xFFFFFFFFFFFFFFFFFFFFFFFFFFFFFFFFFFFFFFFF AND PUSH20 0xFFFFFFFFFFFFFFFFFFFFFFFFFFFFFFFFFFFFFFFF AND DUP2 MSTORE PUSH1 0x20 ADD SWAP1 DUP2 MSTORE PUSH1 0x20 ADD PUSH1 0x0 KECCAK256 PUSH1 0x0 DUP4 DUP2 MSTORE PUSH1 0x20 ADD SWAP1 DUP2 MSTORE PUSH1 0x20 ADD PUSH1 0x0 KECCAK256 DUP2 SWAP1 SSTORE POP DUP2 PUSH2 0x1044 PUSH1 0x0 DUP6 DUP2 MSTORE PUSH1 0x20 ADD SWAP1 DUP2 MSTORE PUSH1 0x20 ADD PUSH1 0x0 KECCAK256 PUSH1 0x0 PUSH2 0x100 EXP DUP2 SLOAD DUP2 PUSH20 0xFFFFFFFFFFFFFFFFFFFFFFFFFFFFFFFFFFFFFFFF MUL NOT AND SWAP1 DUP4 PUSH20 0xFFFFFFFFFFFFFFFFFFFFFFFFFFFFFFFFFFFFFFFF AND MUL OR SWAP1 SSTORE POP PUSH1 0x1 PUSH2 0x104C PUSH1 0x0 DUP5 PUSH20 0xFFFFFFFFFFFFFFFFFFFFFFFFFFFFFFFFFFFFFFFF AND PUSH20 0xFFFFFFFFFFFFFFFFFFFFFFFFFFFFFFFFFFFFFFFF AND DUP2 MSTORE PUSH1 0x20 ADD SWAP1 DUP2 MSTORE PUSH1 0x20 ADD PUSH1 0x0 KECCAK256 PUSH1 0x0 DUP3 DUP3 SLOAD PUSH2 0x596C SWAP2 SWAP1 PUSH2 0x72B7 JUMP JUMPDEST SWAP3 POP POP DUP2 SWAP1 SSTORE POP POP POP POP JUMP JUMPDEST PUSH1 0x0 PUSH20 0xFFFFFFFFFFFFFFFFFFFFFFFFFFFFFFFFFFFFFFFF AND PUSH2 0x1047 PUSH1 0x0 DUP4 DUP2 MSTORE PUSH1 0x20 ADD SWAP1 DUP2 MSTORE PUSH1 0x20 ADD PUSH1 0x0 KECCAK256 PUSH1 0x0 SWAP1 SLOAD SWAP1 PUSH2 0x100 EXP SWAP1 DIV PUSH20 0xFFFFFFFFFFFFFFFFFFFFFFFFFFFFFFFFFFFFFFFF AND PUSH20 0xFFFFFFFFFFFFFFFFFFFFFFFFFFFFFFFFFFFFFFFF AND EQ PUSH2 0x5A35 JUMPI PUSH1 0x0 PUSH2 0x1047 PUSH1 0x0 DUP4 DUP2 MSTORE PUSH1 0x20 ADD SWAP1 DUP2 MSTORE PUSH1 0x20 ADD PUSH1 0x0 KECCAK256 PUSH1 0x0 PUSH2 0x100 EXP DUP2 SLOAD DUP2 PUSH20 0xFFFFFFFFFFFFFFFFFFFFFFFFFFFFFFFFFFFFFFFF MUL NOT AND SWAP1 DUP4 PUSH20 0xFFFFFFFFFFFFFFFFFFFFFFFFFFFFFFFFFFFFFFFF AND MUL OR SWAP1 SSTORE POP JUMPDEST POP JUMP JUMPDEST PUSH2 0x5A42 DUP3 DUP3 PUSH2 0x2CE2 JUMP JUMPDEST PUSH2 0x5AB9 JUMPI PUSH2 0x5A4F DUP2 PUSH2 0x5C37 JUMP JUMPDEST PUSH2 0x5A5D DUP4 PUSH1 0x0 SHR PUSH1 0x20 PUSH2 0x5C64 JUMP JUMPDEST PUSH1 0x40 MLOAD PUSH1 0x20 ADD PUSH2 0x5A6E SWAP3 SWAP2 SWAP1 PUSH2 0x7D83 JUMP JUMPDEST PUSH1 0x40 MLOAD PUSH1 0x20 DUP2 DUP4 SUB SUB DUP2 MSTORE SWAP1 PUSH1 0x40 MSTORE PUSH1 0x40 MLOAD PUSH32 0x8C379A000000000000000000000000000000000000000000000000000000000 DUP2 MSTORE PUSH1 0x4 ADD PUSH2 0x5AB0 SWAP2 SWAP1 PUSH2 0x7DF6 JUMP JUMPDEST PUSH1 0x40 MLOAD DUP1 SWAP2 SUB SWAP1 REVERT JUMPDEST POP POP JUMP JUMPDEST DUP1 SELFBALANCE LT ISZERO PUSH2 0x5B00 JUMPI PUSH1 0x40 MLOAD PUSH32 0x8C379A000000000000000000000000000000000000000000000000000000000 DUP2 MSTORE PUSH1 0x4 ADD PUSH2 0x5AF7 SWAP1 PUSH2 0x7E64 JUMP JUMPDEST PUSH1 0x40 MLOAD DUP1 SWAP2 SUB SWAP1 REVERT JUMPDEST PUSH1 0x0 DUP3 PUSH20 0xFFFFFFFFFFFFFFFFFFFFFFFFFFFFFFFFFFFFFFFF AND DUP3 PUSH1 0x40 MLOAD PUSH2 0x5B26 SWAP1 PUSH2 0x7EB5 JUMP JUMPDEST PUSH1 0x0 PUSH1 0x40 MLOAD DUP1 DUP4 SUB DUP2 DUP6 DUP8 GAS CALL SWAP3 POP POP POP RETURNDATASIZE DUP1 PUSH1 0x0 DUP2 EQ PUSH2 0x5B63 JUMPI PUSH1 0x40 MLOAD SWAP2 POP PUSH1 0x1F NOT PUSH1 0x3F RETURNDATASIZE ADD AND DUP3 ADD PUSH1 0x40 MSTORE RETURNDATASIZE DUP3 MSTORE RETURNDATASIZE PUSH1 0x0 PUSH1 0x20 DUP5 ADD RETURNDATACOPY PUSH2 0x5B68 JUMP JUMPDEST PUSH1 0x60 SWAP2 POP JUMPDEST POP POP SWAP1 POP DUP1 PUSH2 0x5BAC JUMPI PUSH1 0x40 MLOAD PUSH32 0x8C379A000000000000000000000000000000000000000000000000000000000 DUP2 MSTORE PUSH1 0x4 ADD PUSH2 0x5BA3 SWAP1 PUSH2 0x7F3C JUMP JUMPDEST PUSH1 0x40 MLOAD DUP1 SWAP2 SUB SWAP1 REVERT JUMPDEST POP POP POP JUMP JUMPDEST PUSH2 0x5C32 DUP4 PUSH4 0xA9059CBB PUSH1 0xE0 SHL DUP5 DUP5 PUSH1 0x40 MLOAD PUSH1 0x24 ADD PUSH2 0x5BD0 SWAP3 SWAP2 SWAP1 PUSH2 0x7F5C JUMP JUMPDEST PUSH1 0x40 MLOAD PUSH1 0x20 DUP2 DUP4 SUB SUB DUP2 MSTORE SWAP1 PUSH1 0x40 MSTORE SWAP1 PUSH28 0xFFFFFFFFFFFFFFFFFFFFFFFFFFFFFFFFFFFFFFFFFFFFFFFFFFFFFFFF NOT AND PUSH1 0x20 DUP3 ADD DUP1 MLOAD PUSH28 0xFFFFFFFFFFFFFFFFFFFFFFFFFFFFFFFFFFFFFFFFFFFFFFFFFFFFFFFF DUP4 DUP2 DUP4 AND OR DUP4 MSTORE POP POP POP POP PUSH2 0x5EA0 JUMP JUMPDEST POP POP POP JUMP JUMPDEST PUSH1 0x60 PUSH2 0x5C5D DUP3 PUSH20 0xFFFFFFFFFFFFFFFFFFFFFFFFFFFFFFFFFFFFFFFF AND PUSH1 0x14 PUSH1 0xFF AND PUSH2 0x5C64 JUMP JUMPDEST SWAP1 POP SWAP2 SWAP1 POP JUMP JUMPDEST PUSH1 0x60 PUSH1 0x0 PUSH1 0x2 DUP4 PUSH1 0x2 PUSH2 0x5C77 SWAP2 SWAP1 PUSH2 0x751C JUMP JUMPDEST PUSH2 0x5C81 SWAP2 SWAP1 PUSH2 0x72B7 JUMP JUMPDEST PUSH8 0xFFFFFFFFFFFFFFFF DUP2 GT ISZERO PUSH2 0x5C9A JUMPI PUSH2 0x5C99 PUSH2 0x6379 JUMP JUMPDEST JUMPDEST PUSH1 0x40 MLOAD SWAP1 DUP1 DUP3 MSTORE DUP1 PUSH1 0x1F ADD PUSH1 0x1F NOT AND PUSH1 0x20 ADD DUP3 ADD PUSH1 0x40 MSTORE DUP1 ISZERO PUSH2 0x5CCC JUMPI DUP2 PUSH1 0x20 ADD PUSH1 0x1 DUP3 MUL DUP1 CALLDATASIZE DUP4 CALLDATACOPY DUP1 DUP3 ADD SWAP2 POP POP SWAP1 POP JUMPDEST POP SWAP1 POP PUSH32 0x3000000000000000000000000000000000000000000000000000000000000000 DUP2 PUSH1 0x0 DUP2 MLOAD DUP2 LT PUSH2 0x5D04 JUMPI PUSH2 0x5D03 PUSH2 0x72EB JUMP JUMPDEST JUMPDEST PUSH1 0x20 ADD ADD SWAP1 PUSH31 0xFFFFFFFFFFFFFFFFFFFFFFFFFFFFFFFFFFFFFFFFFFFFFFFFFFFFFFFFFFFFFF NOT AND SWAP1 DUP2 PUSH1 0x0 BYTE SWAP1 MSTORE8 POP PUSH32 0x7800000000000000000000000000000000000000000000000000000000000000 DUP2 PUSH1 0x1 DUP2 MLOAD DUP2 LT PUSH2 0x5D68 JUMPI PUSH2 0x5D67 PUSH2 0x72EB JUMP JUMPDEST JUMPDEST PUSH1 0x20 ADD ADD SWAP1 PUSH31 0xFFFFFFFFFFFFFFFFFFFFFFFFFFFFFFFFFFFFFFFFFFFFFFFFFFFFFFFFFFFFFF NOT AND SWAP1 DUP2 PUSH1 0x0 BYTE SWAP1 MSTORE8 POP PUSH1 0x0 PUSH1 0x1 DUP5 PUSH1 0x2 PUSH2 0x5DA8 SWAP2 SWAP1 PUSH2 0x751C JUMP JUMPDEST PUSH2 0x5DB2 SWAP2 SWAP1 PUSH2 0x72B7 JUMP JUMPDEST SWAP1 POP JUMPDEST PUSH1 0x1 DUP2 GT ISZERO PUSH2 0x5E52 JUMPI PUSH32 0x3031323334353637383961626364656600000000000000000000000000000000 PUSH1 0xF DUP7 AND PUSH1 0x10 DUP2 LT PUSH2 0x5DF4 JUMPI PUSH2 0x5DF3 PUSH2 0x72EB JUMP JUMPDEST JUMPDEST BYTE PUSH1 0xF8 SHL DUP3 DUP3 DUP2 MLOAD DUP2 LT PUSH2 0x5E0B JUMPI PUSH2 0x5E0A PUSH2 0x72EB JUMP JUMPDEST JUMPDEST PUSH1 0x20 ADD ADD SWAP1 PUSH31 0xFFFFFFFFFFFFFFFFFFFFFFFFFFFFFFFFFFFFFFFFFFFFFFFFFFFFFFFFFFFFFF NOT AND SWAP1 DUP2 PUSH1 0x0 BYTE SWAP1 MSTORE8 POP PUSH1 0x4 DUP6 SWAP1 SHR SWAP5 POP DUP1 PUSH2 0x5E4B SWAP1 PUSH2 0x7C7B JUMP JUMPDEST SWAP1 POP PUSH2 0x5DB5 JUMP JUMPDEST POP PUSH1 0x0 DUP5 EQ PUSH2 0x5E96 JUMPI PUSH1 0x40 MLOAD PUSH32 0x8C379A000000000000000000000000000000000000000000000000000000000 DUP2 MSTORE PUSH1 0x4 ADD PUSH2 0x5E8D SWAP1 PUSH2 0x7FD1 JUMP JUMPDEST PUSH1 0x40 MLOAD DUP1 SWAP2 SUB SWAP1 REVERT JUMPDEST DUP1 SWAP2 POP POP SWAP3 SWAP2 POP POP JUMP JUMPDEST PUSH1 0x0 PUSH2 0x5F02 DUP3 PUSH1 0x40 MLOAD DUP1 PUSH1 0x40 ADD PUSH1 0x40 MSTORE DUP1 PUSH1 0x20 DUP2 MSTORE PUSH1 0x20 ADD PUSH32 0x5361666545524332303A206C6F772D6C6576656C2063616C6C206661696C6564 DUP2 MSTORE POP DUP6 PUSH20 0xFFFFFFFFFFFFFFFFFFFFFFFFFFFFFFFFFFFFFFFF AND PUSH2 0x5F67 SWAP1 SWAP3 SWAP2 SWAP1 PUSH4 0xFFFFFFFF AND JUMP JUMPDEST SWAP1 POP PUSH1 0x0 DUP2 MLOAD GT ISZERO PUSH2 0x5F62 JUMPI DUP1 DUP1 PUSH1 0x20 ADD SWAP1 MLOAD DUP2 ADD SWAP1 PUSH2 0x5F22 SWAP2 SWAP1 PUSH2 0x766F JUMP JUMPDEST PUSH2 0x5F61 JUMPI PUSH1 0x40 MLOAD PUSH32 0x8C379A000000000000000000000000000000000000000000000000000000000 DUP2 MSTORE PUSH1 0x4 ADD PUSH2 0x5F58 SWAP1 PUSH2 0x8063 JUMP JUMPDEST PUSH1 0x40 MLOAD DUP1 SWAP2 SUB SWAP1 REVERT JUMPDEST JUMPDEST POP POP POP JUMP JUMPDEST PUSH1 0x60 PUSH2 0x5F76 DUP5 DUP5 PUSH1 0x0 DUP6 PUSH2 0x5F7F JUMP JUMPDEST SWAP1 POP SWAP4 SWAP3 POP POP POP JUMP JUMPDEST PUSH1 0x60 DUP3 SELFBALANCE LT ISZERO PUSH2 0x5FC4 JUMPI PUSH1 0x40 MLOAD PUSH32 0x8C379A000000000000000000000000000000000000000000000000000000000 DUP2 MSTORE PUSH1 0x4 ADD PUSH2 0x5FBB SWAP1 PUSH2 0x80F5 JUMP JUMPDEST PUSH1 0x40 MLOAD DUP1 SWAP2 SUB SWAP1 REVERT JUMPDEST PUSH1 0x0 DUP1 DUP7 PUSH20 0xFFFFFFFFFFFFFFFFFFFFFFFFFFFFFFFFFFFFFFFF AND DUP6 DUP8 PUSH1 0x40 MLOAD PUSH2 0x5FED SWAP2 SWAP1 PUSH2 0x8146 JUMP JUMPDEST PUSH1 0x0 PUSH1 0x40 MLOAD DUP1 DUP4 SUB DUP2 DUP6 DUP8 GAS CALL SWAP3 POP POP POP RETURNDATASIZE DUP1 PUSH1 0x0 DUP2 EQ PUSH2 0x602A JUMPI PUSH1 0x40 MLOAD SWAP2 POP PUSH1 0x1F NOT PUSH1 0x3F RETURNDATASIZE ADD AND DUP3 ADD PUSH1 0x40 MSTORE RETURNDATASIZE DUP3 MSTORE RETURNDATASIZE PUSH1 0x0 PUSH1 0x20 DUP5 ADD RETURNDATACOPY PUSH2 0x602F JUMP JUMPDEST PUSH1 0x60 SWAP2 POP JUMPDEST POP SWAP2 POP SWAP2 POP PUSH2 0x6040 DUP8 DUP4 DUP4 DUP8 PUSH2 0x604C JUMP JUMPDEST SWAP3 POP POP POP SWAP5 SWAP4 POP POP POP POP JUMP JUMPDEST PUSH1 0x60 DUP4 ISZERO PUSH2 0x60AE JUMPI PUSH1 0x0 DUP4 MLOAD SUB PUSH2 0x60A6 JUMPI PUSH2 0x6066 DUP6 PUSH2 0x4F99 JUMP JUMPDEST PUSH2 0x60A5 JUMPI PUSH1 0x40 MLOAD PUSH32 0x8C379A000000000000000000000000000000000000000000000000000000000 DUP2 MSTORE PUSH1 0x4 ADD PUSH2 0x609C SWAP1 PUSH2 0x81A9 JUMP JUMPDEST PUSH1 0x40 MLOAD DUP1 SWAP2 SUB SWAP1 REVERT JUMPDEST JUMPDEST DUP3 SWAP1 POP PUSH2 0x60B9 JUMP JUMPDEST PUSH2 0x60B8 DUP4 DUP4 PUSH2 0x60C1 JUMP JUMPDEST JUMPDEST SWAP5 SWAP4 POP POP POP POP JUMP JUMPDEST PUSH1 0x0 DUP3 MLOAD GT ISZERO PUSH2 0x60D4 JUMPI DUP2 MLOAD DUP1 DUP4 PUSH1 0x20 ADD REVERT JUMPDEST DUP1 PUSH1 0x40 MLOAD PUSH32 0x8C379A000000000000000000000000000000000000000000000000000000000 DUP2 MSTORE PUSH1 0x4 ADD PUSH2 0x6108 SWAP2 SWAP1 PUSH2 0x7DF6 JUMP JUMPDEST PUSH1 0x40 MLOAD DUP1 SWAP2 SUB SWAP1 REVERT JUMPDEST PUSH1 0x0 PUSH1 0x40 MLOAD SWAP1 POP SWAP1 JUMP JUMPDEST PUSH1 0x0 DUP1 REVERT JUMPDEST PUSH1 0x0 DUP1 REVERT JUMPDEST PUSH1 0x0 PUSH32 0xFFFFFFFF00000000000000000000000000000000000000000000000000000000 DUP3 AND SWAP1 POP SWAP2 SWAP1 POP JUMP JUMPDEST PUSH2 0x615A DUP2 PUSH2 0x6125 JUMP JUMPDEST DUP2 EQ PUSH2 0x6165 JUMPI PUSH1 0x0 DUP1 REVERT JUMPDEST POP JUMP JUMPDEST PUSH1 0x0 DUP2 CALLDATALOAD SWAP1 POP PUSH2 0x6177 DUP2 PUSH2 0x6151 JUMP JUMPDEST SWAP3 SWAP2 POP POP JUMP JUMPDEST PUSH1 0x0 PUSH1 0x20 DUP3 DUP5 SUB SLT ISZERO PUSH2 0x6193 JUMPI PUSH2 0x6192 PUSH2 0x611B JUMP JUMPDEST JUMPDEST PUSH1 0x0 PUSH2 0x61A1 DUP5 DUP3 DUP6 ADD PUSH2 0x6168 JUMP JUMPDEST SWAP2 POP POP SWAP3 SWAP2 POP POP JUMP JUMPDEST PUSH1 0x0 DUP2 ISZERO ISZERO SWAP1 POP SWAP2 SWAP1 POP JUMP JUMPDEST PUSH2 0x61BF DUP2 PUSH2 0x61AA JUMP JUMPDEST DUP3 MSTORE POP POP JUMP JUMPDEST PUSH1 0x0 PUSH1 0x20 DUP3 ADD SWAP1 POP PUSH2 0x61DA PUSH1 0x0 DUP4 ADD DUP5 PUSH2 0x61B6 JUMP JUMPDEST SWAP3 SWAP2 POP POP JUMP JUMPDEST PUSH1 0x0 DUP2 SWAP1 POP SWAP2 SWAP1 POP JUMP JUMPDEST PUSH2 0x61F3 DUP2 PUSH2 0x61E0 JUMP JUMPDEST DUP2 EQ PUSH2 0x61FE JUMPI PUSH1 0x0 DUP1 REVERT JUMPDEST POP JUMP JUMPDEST PUSH1 0x0 DUP2 CALLDATALOAD SWAP1 POP PUSH2 0x6210 DUP2 PUSH2 0x61EA JUMP JUMPDEST SWAP3 SWAP2 POP POP JUMP JUMPDEST PUSH1 0x0 DUP1 PUSH1 0x0 PUSH1 0x60 DUP5 DUP7 SUB SLT ISZERO PUSH2 0x622F JUMPI PUSH2 0x622E PUSH2 0x611B JUMP JUMPDEST JUMPDEST PUSH1 0x0 PUSH2 0x623D DUP7 DUP3 DUP8 ADD PUSH2 0x6201 JUMP JUMPDEST SWAP4 POP POP PUSH1 0x20 PUSH2 0x624E DUP7 DUP3 DUP8 ADD PUSH2 0x6201 JUMP JUMPDEST SWAP3 POP POP PUSH1 0x40 PUSH2 0x625F DUP7 DUP3 DUP8 ADD PUSH2 0x6201 JUMP JUMPDEST SWAP2 POP POP SWAP3 POP SWAP3 POP SWAP3 JUMP JUMPDEST PUSH1 0x0 PUSH1 0x20 DUP3 DUP5 SUB SLT ISZERO PUSH2 0x627F JUMPI PUSH2 0x627E PUSH2 0x611B JUMP JUMPDEST JUMPDEST PUSH1 0x0 PUSH2 0x628D DUP5 DUP3 DUP6 ADD PUSH2 0x6201 JUMP JUMPDEST SWAP2 POP POP SWAP3 SWAP2 POP POP JUMP JUMPDEST PUSH1 0x0 PUSH20 0xFFFFFFFFFFFFFFFFFFFFFFFFFFFFFFFFFFFFFFFF DUP3 AND SWAP1 POP SWAP2 SWAP1 POP JUMP JUMPDEST PUSH1 0x0 PUSH2 0x62C1 DUP3 PUSH2 0x6296 JUMP JUMPDEST SWAP1 POP SWAP2 SWAP1 POP JUMP JUMPDEST PUSH2 0x62D1 DUP2 PUSH2 0x62B6 JUMP JUMPDEST DUP3 MSTORE POP POP JUMP JUMPDEST PUSH1 0x0 PUSH1 0x20 DUP3 ADD SWAP1 POP PUSH2 0x62EC PUSH1 0x0 DUP4 ADD DUP5 PUSH2 0x62C8 JUMP JUMPDEST SWAP3 SWAP2 POP POP JUMP JUMPDEST PUSH2 0x62FB DUP2 PUSH2 0x62B6 JUMP JUMPDEST DUP2 EQ PUSH2 0x6306 JUMPI PUSH1 0x0 DUP1 REVERT JUMPDEST POP JUMP JUMPDEST PUSH1 0x0 DUP2 CALLDATALOAD SWAP1 POP PUSH2 0x6318 DUP2 PUSH2 0x62F2 JUMP JUMPDEST SWAP3 SWAP2 POP POP JUMP JUMPDEST PUSH1 0x0 DUP1 PUSH1 0x40 DUP4 DUP6 SUB SLT ISZERO PUSH2 0x6335 JUMPI PUSH2 0x6334 PUSH2 0x611B JUMP JUMPDEST JUMPDEST PUSH1 0x0 PUSH2 0x6343 DUP6 DUP3 DUP7 ADD PUSH2 0x6309 JUMP JUMPDEST SWAP3 POP POP PUSH1 0x20 PUSH2 0x6354 DUP6 DUP3 DUP7 ADD PUSH2 0x6201 JUMP JUMPDEST SWAP2 POP POP SWAP3 POP SWAP3 SWAP1 POP JUMP JUMPDEST PUSH1 0x0 DUP1 REVERT JUMPDEST PUSH1 0x0 DUP1 REVERT JUMPDEST PUSH1 0x0 PUSH1 0x1F NOT PUSH1 0x1F DUP4 ADD AND SWAP1 POP SWAP2 SWAP1 POP JUMP JUMPDEST PUSH32 0x4E487B7100000000000000000000000000000000000000000000000000000000 PUSH1 0x0 MSTORE PUSH1 0x41 PUSH1 0x4 MSTORE PUSH1 0x24 PUSH1 0x0 REVERT JUMPDEST PUSH2 0x63B1 DUP3 PUSH2 0x6368 JUMP JUMPDEST DUP2 ADD DUP2 DUP2 LT PUSH8 0xFFFFFFFFFFFFFFFF DUP3 GT OR ISZERO PUSH2 0x63D0 JUMPI PUSH2 0x63CF PUSH2 0x6379 JUMP JUMPDEST JUMPDEST DUP1 PUSH1 0x40 MSTORE POP POP POP JUMP JUMPDEST PUSH1 0x0 PUSH2 0x63E3 PUSH2 0x6111 JUMP JUMPDEST SWAP1 POP PUSH2 0x63EF DUP3 DUP3 PUSH2 0x63A8 JUMP JUMPDEST SWAP2 SWAP1 POP JUMP JUMPDEST PUSH1 0x0 PUSH8 0xFFFFFFFFFFFFFFFF DUP3 GT ISZERO PUSH2 0x640F JUMPI PUSH2 0x640E PUSH2 0x6379 JUMP JUMPDEST JUMPDEST PUSH2 0x6418 DUP3 PUSH2 0x6368 JUMP JUMPDEST SWAP1 POP PUSH1 0x20 DUP2 ADD SWAP1 POP SWAP2 SWAP1 POP JUMP JUMPDEST DUP3 DUP2 DUP4 CALLDATACOPY PUSH1 0x0 DUP4 DUP4 ADD MSTORE POP POP POP JUMP JUMPDEST PUSH1 0x0 PUSH2 0x6447 PUSH2 0x6442 DUP5 PUSH2 0x63F4 JUMP JUMPDEST PUSH2 0x63D9 JUMP JUMPDEST SWAP1 POP DUP3 DUP2 MSTORE PUSH1 0x20 DUP2 ADD DUP5 DUP5 DUP5 ADD GT ISZERO PUSH2 0x6463 JUMPI PUSH2 0x6462 PUSH2 0x6363 JUMP JUMPDEST JUMPDEST PUSH2 0x646E DUP5 DUP3 DUP6 PUSH2 0x6425 JUMP JUMPDEST POP SWAP4 SWAP3 POP POP POP JUMP JUMPDEST PUSH1 0x0 DUP3 PUSH1 0x1F DUP4 ADD SLT PUSH2 0x648B JUMPI PUSH2 0x648A PUSH2 0x635E JUMP JUMPDEST JUMPDEST DUP2 CALLDATALOAD PUSH2 0x649B DUP5 DUP3 PUSH1 0x20 DUP7 ADD PUSH2 0x6434 JUMP JUMPDEST SWAP2 POP POP SWAP3 SWAP2 POP POP JUMP JUMPDEST PUSH1 0x0 DUP1 PUSH1 0x0 PUSH1 0x60 DUP5 DUP7 SUB SLT ISZERO PUSH2 0x64BD JUMPI PUSH2 0x64BC PUSH2 0x611B JUMP JUMPDEST JUMPDEST PUSH1 0x0 PUSH2 0x64CB DUP7 DUP3 DUP8 ADD PUSH2 0x6309 JUMP JUMPDEST SWAP4 POP POP PUSH1 0x20 PUSH2 0x64DC DUP7 DUP3 DUP8 ADD PUSH2 0x6309 JUMP JUMPDEST SWAP3 POP POP PUSH1 0x40 DUP5 ADD CALLDATALOAD PUSH8 0xFFFFFFFFFFFFFFFF DUP2 GT ISZERO PUSH2 0x64FD JUMPI PUSH2 0x64FC PUSH2 0x6120 JUMP JUMPDEST JUMPDEST PUSH2 0x6509 DUP7 DUP3 DUP8 ADD PUSH2 0x6476 JUMP JUMPDEST SWAP2 POP POP SWAP3 POP SWAP3 POP SWAP3 JUMP JUMPDEST PUSH2 0x651C DUP2 PUSH2 0x61E0 JUMP JUMPDEST DUP3 MSTORE POP POP JUMP JUMPDEST PUSH1 0x0 PUSH1 0x20 DUP3 ADD SWAP1 POP PUSH2 0x6537 PUSH1 0x0 DUP4 ADD DUP5 PUSH2 0x6513 JUMP JUMPDEST SWAP3 SWAP2 POP POP JUMP JUMPDEST PUSH1 0x0 DUP1 PUSH1 0x0 PUSH1 0x60 DUP5 DUP7 SUB SLT ISZERO PUSH2 0x6556 JUMPI PUSH2 0x6555 PUSH2 0x611B JUMP JUMPDEST JUMPDEST PUSH1 0x0 PUSH2 0x6564 DUP7 DUP3 DUP8 ADD PUSH2 0x6309 JUMP JUMPDEST SWAP4 POP POP PUSH1 0x20 PUSH2 0x6575 DUP7 DUP3 DUP8 ADD PUSH2 0x6309 JUMP JUMPDEST SWAP3 POP POP PUSH1 0x40 PUSH2 0x6586 DUP7 DUP3 DUP8 ADD PUSH2 0x6201 JUMP JUMPDEST SWAP2 POP POP SWAP3 POP SWAP3 POP SWAP3 JUMP JUMPDEST PUSH1 0x0 DUP2 SWAP1 POP SWAP2 SWAP1 POP JUMP JUMPDEST PUSH1 0x0 PUSH2 0x65B5 PUSH2 0x65B0 PUSH2 0x65AB DUP5 PUSH2 0x6296 JUMP JUMPDEST PUSH2 0x6590 JUMP JUMPDEST PUSH2 0x6296 JUMP JUMPDEST SWAP1 POP SWAP2 SWAP1 POP JUMP JUMPDEST PUSH1 0x0 PUSH2 0x65C7 DUP3 PUSH2 0x659A JUMP JUMPDEST SWAP1 POP SWAP2 SWAP1 POP JUMP JUMPDEST PUSH1 0x0 PUSH2 0x65D9 DUP3 PUSH2 0x65BC JUMP JUMPDEST SWAP1 POP SWAP2 SWAP1 POP JUMP JUMPDEST PUSH2 0x65E9 DUP2 PUSH2 0x65CE JUMP JUMPDEST DUP3 MSTORE POP POP JUMP JUMPDEST PUSH1 0x0 PUSH1 0x20 DUP3 ADD SWAP1 POP PUSH2 0x6604 PUSH1 0x0 DUP4 ADD DUP5 PUSH2 0x65E0 JUMP JUMPDEST SWAP3 SWAP2 POP POP JUMP JUMPDEST PUSH1 0x0 PUSH2 0x6615 DUP3 PUSH2 0x65BC JUMP JUMPDEST SWAP1 POP SWAP2 SWAP1 POP JUMP JUMPDEST PUSH2 0x6625 DUP2 PUSH2 0x660A JUMP JUMPDEST DUP3 MSTORE POP POP JUMP JUMPDEST PUSH1 0x0 PUSH1 0x20 DUP3 ADD SWAP1 POP PUSH2 0x6640 PUSH1 0x0 DUP4 ADD DUP5 PUSH2 0x661C JUMP JUMPDEST SWAP3 SWAP2 POP POP JUMP JUMPDEST PUSH1 0x0 DUP2 SWAP1 POP SWAP2 SWAP1 POP JUMP JUMPDEST PUSH2 0x6659 DUP2 PUSH2 0x6646 JUMP JUMPDEST DUP2 EQ PUSH2 0x6664 JUMPI PUSH1 0x0 DUP1 REVERT JUMPDEST POP JUMP JUMPDEST PUSH1 0x0 DUP2 CALLDATALOAD SWAP1 POP PUSH2 0x6676 DUP2 PUSH2 0x6650 JUMP JUMPDEST SWAP3 SWAP2 POP POP JUMP JUMPDEST PUSH1 0x0 PUSH1 0x20 DUP3 DUP5 SUB SLT ISZERO PUSH2 0x6692 JUMPI PUSH2 0x6691 PUSH2 0x611B JUMP JUMPDEST JUMPDEST PUSH1 0x0 PUSH2 0x66A0 DUP5 DUP3 DUP6 ADD PUSH2 0x6667 JUMP JUMPDEST SWAP2 POP POP SWAP3 SWAP2 POP POP JUMP JUMPDEST PUSH2 0x66B2 DUP2 PUSH2 0x6646 JUMP JUMPDEST DUP3 MSTORE POP POP JUMP JUMPDEST PUSH1 0x0 PUSH1 0x20 DUP3 ADD SWAP1 POP PUSH2 0x66CD PUSH1 0x0 DUP4 ADD DUP5 PUSH2 0x66A9 JUMP JUMPDEST SWAP3 SWAP2 POP POP JUMP JUMPDEST PUSH1 0x0 PUSH2 0x66DE DUP3 PUSH2 0x65BC JUMP JUMPDEST SWAP1 POP SWAP2 SWAP1 POP JUMP JUMPDEST PUSH2 0x66EE DUP2 PUSH2 0x66D3 JUMP JUMPDEST DUP3 MSTORE POP POP JUMP JUMPDEST PUSH1 0x0 PUSH1 0x20 DUP3 ADD SWAP1 POP PUSH2 0x6709 PUSH1 0x0 DUP4 ADD DUP5 PUSH2 0x66E5 JUMP JUMPDEST SWAP3 SWAP2 POP POP JUMP JUMPDEST PUSH1 0x0 PUSH2 0x671A DUP3 PUSH2 0x65BC JUMP JUMPDEST SWAP1 POP SWAP2 SWAP1 POP JUMP JUMPDEST PUSH2 0x672A DUP2 PUSH2 0x670F JUMP JUMPDEST DUP3 MSTORE POP POP JUMP JUMPDEST PUSH1 0x0 PUSH1 0x20 DUP3 ADD SWAP1 POP PUSH2 0x6745 PUSH1 0x0 DUP4 ADD DUP5 PUSH2 0x6721 JUMP JUMPDEST SWAP3 SWAP2 POP POP JUMP JUMPDEST PUSH1 0x0 DUP1 PUSH1 0x40 DUP4 DUP6 SUB SLT ISZERO PUSH2 0x6762 JUMPI PUSH2 0x6761 PUSH2 0x611B JUMP JUMPDEST JUMPDEST PUSH1 0x0 PUSH2 0x6770 DUP6 DUP3 DUP7 ADD PUSH2 0x6667 JUMP JUMPDEST SWAP3 POP POP PUSH1 0x20 PUSH2 0x6781 DUP6 DUP3 DUP7 ADD PUSH2 0x6309 JUMP JUMPDEST SWAP2 POP POP SWAP3 POP SWAP3 SWAP1 POP JUMP JUMPDEST PUSH1 0x0 PUSH8 0xFFFFFFFFFFFFFFFF DUP3 GT ISZERO PUSH2 0x67A6 JUMPI PUSH2 0x67A5 PUSH2 0x6379 JUMP JUMPDEST JUMPDEST PUSH1 0x20 DUP3 MUL SWAP1 POP PUSH1 0x20 DUP2 ADD SWAP1 POP SWAP2 SWAP1 POP JUMP JUMPDEST PUSH1 0x0 DUP1 REVERT JUMPDEST PUSH1 0x0 PUSH2 0x67CF PUSH2 0x67CA DUP5 PUSH2 0x678B JUMP JUMPDEST PUSH2 0x63D9 JUMP JUMPDEST SWAP1 POP DUP1 DUP4 DUP3 MSTORE PUSH1 0x20 DUP3 ADD SWAP1 POP PUSH1 0x20 DUP5 MUL DUP4 ADD DUP6 DUP2 GT ISZERO PUSH2 0x67F2 JUMPI PUSH2 0x67F1 PUSH2 0x67B7 JUMP JUMPDEST JUMPDEST DUP4 JUMPDEST DUP2 DUP2 LT ISZERO PUSH2 0x681B JUMPI DUP1 PUSH2 0x6807 DUP9 DUP3 PUSH2 0x6201 JUMP JUMPDEST DUP5 MSTORE PUSH1 0x20 DUP5 ADD SWAP4 POP POP PUSH1 0x20 DUP2 ADD SWAP1 POP PUSH2 0x67F4 JUMP JUMPDEST POP POP POP SWAP4 SWAP3 POP POP POP JUMP JUMPDEST PUSH1 0x0 DUP3 PUSH1 0x1F DUP4 ADD SLT PUSH2 0x683A JUMPI PUSH2 0x6839 PUSH2 0x635E JUMP JUMPDEST JUMPDEST DUP2 CALLDATALOAD PUSH2 0x684A DUP5 DUP3 PUSH1 0x20 DUP7 ADD PUSH2 0x67BC JUMP JUMPDEST SWAP2 POP POP SWAP3 SWAP2 POP POP JUMP JUMPDEST PUSH1 0x0 PUSH8 0xFFFFFFFFFFFFFFFF DUP3 GT ISZERO PUSH2 0x686E JUMPI PUSH2 0x686D PUSH2 0x6379 JUMP JUMPDEST JUMPDEST PUSH1 0x20 DUP3 MUL SWAP1 POP PUSH1 0x20 DUP2 ADD SWAP1 POP SWAP2 SWAP1 POP JUMP JUMPDEST PUSH1 0x0 PUSH2 0x6892 PUSH2 0x688D DUP5 PUSH2 0x6853 JUMP JUMPDEST PUSH2 0x63D9 JUMP JUMPDEST SWAP1 POP DUP1 DUP4 DUP3 MSTORE PUSH1 0x20 DUP3 ADD SWAP1 POP PUSH1 0x20 DUP5 MUL DUP4 ADD DUP6 DUP2 GT ISZERO PUSH2 0x68B5 JUMPI PUSH2 0x68B4 PUSH2 0x67B7 JUMP JUMPDEST JUMPDEST DUP4 JUMPDEST DUP2 DUP2 LT ISZERO PUSH2 0x68DE JUMPI DUP1 PUSH2 0x68CA DUP9 DUP3 PUSH2 0x6309 JUMP JUMPDEST DUP5 MSTORE PUSH1 0x20 DUP5 ADD SWAP4 POP POP PUSH1 0x20 DUP2 ADD SWAP1 POP PUSH2 0x68B7 JUMP JUMPDEST POP POP POP SWAP4 SWAP3 POP POP POP JUMP JUMPDEST PUSH1 0x0 DUP3 PUSH1 0x1F DUP4 ADD SLT PUSH2 0x68FD JUMPI PUSH2 0x68FC PUSH2 0x635E JUMP JUMPDEST JUMPDEST DUP2 CALLDATALOAD PUSH2 0x690D DUP5 DUP3 PUSH1 0x20 DUP7 ADD PUSH2 0x687F JUMP JUMPDEST SWAP2 POP POP SWAP3 SWAP2 POP POP JUMP JUMPDEST PUSH1 0x0 DUP1 REVERT JUMPDEST PUSH1 0x0 DUP1 DUP4 PUSH1 0x1F DUP5 ADD SLT PUSH2 0x6931 JUMPI PUSH2 0x6930 PUSH2 0x635E JUMP JUMPDEST JUMPDEST DUP3 CALLDATALOAD SWAP1 POP PUSH8 0xFFFFFFFFFFFFFFFF DUP2 GT ISZERO PUSH2 0x694E JUMPI PUSH2 0x694D PUSH2 0x6916 JUMP JUMPDEST JUMPDEST PUSH1 0x20 DUP4 ADD SWAP2 POP DUP4 PUSH1 0x20 DUP3 MUL DUP4 ADD GT ISZERO PUSH2 0x696A JUMPI PUSH2 0x6969 PUSH2 0x67B7 JUMP JUMPDEST JUMPDEST SWAP3 POP SWAP3 SWAP1 POP JUMP JUMPDEST PUSH1 0x0 DUP1 PUSH1 0x0 DUP1 PUSH1 0x0 DUP1 PUSH1 0xA0 DUP8 DUP10 SUB SLT ISZERO PUSH2 0x698E JUMPI PUSH2 0x698D PUSH2 0x611B JUMP JUMPDEST JUMPDEST PUSH1 0x0 DUP8 ADD CALLDATALOAD PUSH8 0xFFFFFFFFFFFFFFFF DUP2 GT ISZERO PUSH2 0x69AC JUMPI PUSH2 0x69AB PUSH2 0x6120 JUMP JUMPDEST JUMPDEST PUSH2 0x69B8 DUP10 DUP3 DUP11 ADD PUSH2 0x6825 JUMP JUMPDEST SWAP7 POP POP PUSH1 0x20 DUP8 ADD CALLDATALOAD PUSH8 0xFFFFFFFFFFFFFFFF DUP2 GT ISZERO PUSH2 0x69D9 JUMPI PUSH2 0x69D8 PUSH2 0x6120 JUMP JUMPDEST JUMPDEST PUSH2 0x69E5 DUP10 DUP3 DUP11 ADD PUSH2 0x68E8 JUMP JUMPDEST SWAP6 POP POP PUSH1 0x40 DUP8 ADD CALLDATALOAD PUSH8 0xFFFFFFFFFFFFFFFF DUP2 GT ISZERO PUSH2 0x6A06 JUMPI PUSH2 0x6A05 PUSH2 0x6120 JUMP JUMPDEST JUMPDEST PUSH2 0x6A12 DUP10 DUP3 DUP11 ADD PUSH2 0x68E8 JUMP JUMPDEST SWAP5 POP POP PUSH1 0x60 DUP8 ADD CALLDATALOAD PUSH8 0xFFFFFFFFFFFFFFFF DUP2 GT ISZERO PUSH2 0x6A33 JUMPI PUSH2 0x6A32 PUSH2 0x6120 JUMP JUMPDEST JUMPDEST PUSH2 0x6A3F DUP10 DUP3 DUP11 ADD PUSH2 0x68E8 JUMP JUMPDEST SWAP4 POP POP PUSH1 0x80 DUP8 ADD CALLDATALOAD PUSH8 0xFFFFFFFFFFFFFFFF DUP2 GT ISZERO PUSH2 0x6A60 JUMPI PUSH2 0x6A5F PUSH2 0x6120 JUMP JUMPDEST JUMPDEST PUSH2 0x6A6C DUP10 DUP3 DUP11 ADD PUSH2 0x691B JUMP JUMPDEST SWAP3 POP SWAP3 POP POP SWAP3 SWAP6 POP SWAP3 SWAP6 POP SWAP3 SWAP6 JUMP JUMPDEST PUSH1 0x0 DUP2 MLOAD SWAP1 POP SWAP2 SWAP1 POP JUMP JUMPDEST PUSH1 0x0 DUP3 DUP3 MSTORE PUSH1 0x20 DUP3 ADD SWAP1 POP SWAP3 SWAP2 POP POP JUMP JUMPDEST PUSH1 0x0 DUP2 SWAP1 POP PUSH1 0x20 DUP3 ADD SWAP1 POP SWAP2 SWAP1 POP JUMP JUMPDEST PUSH2 0x6AB0 DUP2 PUSH2 0x61E0 JUMP JUMPDEST DUP3 MSTORE POP POP JUMP JUMPDEST PUSH1 0x0 PUSH2 0x6AC2 DUP4 DUP4 PUSH2 0x6AA7 JUMP JUMPDEST PUSH1 0x20 DUP4 ADD SWAP1 POP SWAP3 SWAP2 POP POP JUMP JUMPDEST PUSH1 0x0 PUSH1 0x20 DUP3 ADD SWAP1 POP SWAP2 SWAP1 POP JUMP JUMPDEST PUSH1 0x0 PUSH2 0x6AE6 DUP3 PUSH2 0x6A7B JUMP JUMPDEST PUSH2 0x6AF0 DUP2 DUP6 PUSH2 0x6A86 JUMP JUMPDEST SWAP4 POP PUSH2 0x6AFB DUP4 PUSH2 0x6A97 JUMP JUMPDEST DUP1 PUSH1 0x0 JUMPDEST DUP4 DUP2 LT ISZERO PUSH2 0x6B2C JUMPI DUP2 MLOAD PUSH2 0x6B13 DUP9 DUP3 PUSH2 0x6AB6 JUMP JUMPDEST SWAP8 POP PUSH2 0x6B1E DUP4 PUSH2 0x6ACE JUMP JUMPDEST SWAP3 POP POP PUSH1 0x1 DUP2 ADD SWAP1 POP PUSH2 0x6AFF JUMP JUMPDEST POP DUP6 SWAP4 POP POP POP POP SWAP3 SWAP2 POP POP JUMP JUMPDEST PUSH1 0x0 PUSH1 0x20 DUP3 ADD SWAP1 POP DUP2 DUP2 SUB PUSH1 0x0 DUP4 ADD MSTORE PUSH2 0x6B53 DUP2 DUP5 PUSH2 0x6ADB JUMP JUMPDEST SWAP1 POP SWAP3 SWAP2 POP POP JUMP JUMPDEST PUSH1 0x0 PUSH2 0x6B66 DUP3 PUSH2 0x65BC JUMP JUMPDEST SWAP1 POP SWAP2 SWAP1 POP JUMP JUMPDEST PUSH2 0x6B76 DUP2 PUSH2 0x6B5B JUMP JUMPDEST DUP3 MSTORE POP POP JUMP JUMPDEST PUSH1 0x0 PUSH1 0x20 DUP3 ADD SWAP1 POP PUSH2 0x6B91 PUSH1 0x0 DUP4 ADD DUP5 PUSH2 0x6B6D JUMP JUMPDEST SWAP3 SWAP2 POP POP JUMP JUMPDEST PUSH1 0x0 DUP1 PUSH1 0x40 DUP4 DUP6 SUB SLT ISZERO PUSH2 0x6BAE JUMPI PUSH2 0x6BAD PUSH2 0x611B JUMP JUMPDEST JUMPDEST PUSH1 0x0 PUSH2 0x6BBC DUP6 DUP3 DUP7 ADD PUSH2 0x6201 JUMP JUMPDEST SWAP3 POP POP PUSH1 0x20 PUSH2 0x6BCD DUP6 DUP3 DUP7 ADD PUSH2 0x6309 JUMP JUMPDEST SWAP2 POP POP SWAP3 POP SWAP3 SWAP1 POP JUMP JUMPDEST PUSH1 0x0 PUSH1 0x20 DUP3 DUP5 SUB SLT ISZERO PUSH2 0x6BED JUMPI PUSH2 0x6BEC PUSH2 0x611B JUMP JUMPDEST JUMPDEST PUSH1 0x0 PUSH2 0x6BFB DUP5 DUP3 DUP6 ADD PUSH2 0x6309 JUMP JUMPDEST SWAP2 POP POP SWAP3 SWAP2 POP POP JUMP JUMPDEST PUSH1 0x0 DUP1 PUSH1 0x0 DUP1 PUSH1 0x0 DUP1 PUSH1 0x0 PUSH1 0xE0 DUP9 DUP11 SUB SLT ISZERO PUSH2 0x6C23 JUMPI PUSH2 0x6C22 PUSH2 0x611B JUMP JUMPDEST JUMPDEST PUSH1 0x0 PUSH2 0x6C31 DUP11 DUP3 DUP12 ADD PUSH2 0x6309 JUMP JUMPDEST SWAP8 POP POP PUSH1 0x20 PUSH2 0x6C42 DUP11 DUP3 DUP12 ADD PUSH2 0x6309 JUMP JUMPDEST SWAP7 POP POP PUSH1 0x40 PUSH2 0x6C53 DUP11 DUP3 DUP12 ADD PUSH2 0x6309 JUMP JUMPDEST SWAP6 POP POP PUSH1 0x60 PUSH2 0x6C64 DUP11 DUP3 DUP12 ADD PUSH2 0x6309 JUMP JUMPDEST SWAP5 POP POP PUSH1 0x80 PUSH2 0x6C75 DUP11 DUP3 DUP12 ADD PUSH2 0x6309 JUMP JUMPDEST SWAP4 POP POP PUSH1 0xA0 PUSH2 0x6C86 DUP11 DUP3 DUP12 ADD PUSH2 0x6309 JUMP JUMPDEST SWAP3 POP POP PUSH1 0xC0 PUSH2 0x6C97 DUP11 DUP3 DUP12 ADD PUSH2 0x6309 JUMP JUMPDEST SWAP2 POP POP SWAP3 SWAP6 SWAP9 SWAP2 SWAP5 SWAP8 POP SWAP3 SWAP6 POP JUMP JUMPDEST PUSH1 0x0 PUSH2 0x6CB1 DUP3 PUSH2 0x65BC JUMP JUMPDEST SWAP1 POP SWAP2 SWAP1 POP JUMP JUMPDEST PUSH2 0x6CC1 DUP2 PUSH2 0x6CA6 JUMP JUMPDEST DUP3 MSTORE POP POP JUMP JUMPDEST PUSH1 0x0 PUSH1 0x20 DUP3 ADD SWAP1 POP PUSH2 0x6CDC PUSH1 0x0 DUP4 ADD DUP5 PUSH2 0x6CB8 JUMP JUMPDEST SWAP3 SWAP2 POP POP JUMP JUMPDEST PUSH1 0x0 DUP1 DUP4 PUSH1 0x1F DUP5 ADD SLT PUSH2 0x6CF8 JUMPI PUSH2 0x6CF7 PUSH2 0x635E JUMP JUMPDEST JUMPDEST DUP3 CALLDATALOAD SWAP1 POP PUSH8 0xFFFFFFFFFFFFFFFF DUP2 GT ISZERO PUSH2 0x6D15 JUMPI PUSH2 0x6D14 PUSH2 0x6916 JUMP JUMPDEST JUMPDEST PUSH1 0x20 DUP4 ADD SWAP2 POP DUP4 PUSH1 0x1 DUP3 MUL DUP4 ADD GT ISZERO PUSH2 0x6D31 JUMPI PUSH2 0x6D30 PUSH2 0x67B7 JUMP JUMPDEST JUMPDEST SWAP3 POP SWAP3 SWAP1 POP JUMP JUMPDEST PUSH1 0x0 DUP1 PUSH1 0x20 DUP4 DUP6 SUB SLT ISZERO PUSH2 0x6D4F JUMPI PUSH2 0x6D4E PUSH2 0x611B JUMP JUMPDEST JUMPDEST PUSH1 0x0 DUP4 ADD CALLDATALOAD PUSH8 0xFFFFFFFFFFFFFFFF DUP2 GT ISZERO PUSH2 0x6D6D JUMPI PUSH2 0x6D6C PUSH2 0x6120 JUMP JUMPDEST JUMPDEST PUSH2 0x6D79 DUP6 DUP3 DUP7 ADD PUSH2 0x6CE2 JUMP JUMPDEST SWAP3 POP SWAP3 POP POP SWAP3 POP SWAP3 SWAP1 POP JUMP JUMPDEST PUSH2 0x6D8E DUP2 PUSH2 0x61AA JUMP JUMPDEST DUP2 EQ PUSH2 0x6D99 JUMPI PUSH1 0x0 DUP1 REVERT JUMPDEST POP JUMP JUMPDEST PUSH1 0x0 DUP2 CALLDATALOAD SWAP1 POP PUSH2 0x6DAB DUP2 PUSH2 0x6D85 JUMP JUMPDEST SWAP3 SWAP2 POP POP JUMP JUMPDEST PUSH1 0x0 DUP1 PUSH1 0x40 DUP4 DUP6 SUB SLT ISZERO PUSH2 0x6DC8 JUMPI PUSH2 0x6DC7 PUSH2 0x611B JUMP JUMPDEST JUMPDEST PUSH1 0x0 PUSH2 0x6DD6 DUP6 DUP3 DUP7 ADD PUSH2 0x6309 JUMP JUMPDEST SWAP3 POP POP PUSH1 0x20 PUSH2 0x6DE7 DUP6 DUP3 DUP7 ADD PUSH2 0x6D9C JUMP JUMPDEST SWAP2 POP POP SWAP3 POP SWAP3 SWAP1 POP JUMP JUMPDEST PUSH1 0x0 PUSH2 0x6DFC DUP3 PUSH2 0x65BC JUMP JUMPDEST SWAP1 POP SWAP2 SWAP1 POP JUMP JUMPDEST PUSH2 0x6E0C DUP2 PUSH2 0x6DF1 JUMP JUMPDEST DUP3 MSTORE POP POP JUMP JUMPDEST PUSH1 0x0 PUSH1 0x20 DUP3 ADD SWAP1 POP PUSH2 0x6E27 PUSH1 0x0 DUP4 ADD DUP5 PUSH2 0x6E03 JUMP JUMPDEST SWAP3 SWAP2 POP POP JUMP JUMPDEST PUSH1 0x0 DUP1 PUSH1 0x40 DUP4 DUP6 SUB SLT ISZERO PUSH2 0x6E44 JUMPI PUSH2 0x6E43 PUSH2 0x611B JUMP JUMPDEST JUMPDEST PUSH1 0x0 PUSH2 0x6E52 DUP6 DUP3 DUP7 ADD PUSH2 0x6201 JUMP JUMPDEST SWAP3 POP POP PUSH1 0x20 PUSH2 0x6E63 DUP6 DUP3 DUP7 ADD PUSH2 0x6201 JUMP JUMPDEST SWAP2 POP POP SWAP3 POP SWAP3 SWAP1 POP JUMP JUMPDEST PUSH1 0x0 DUP1 PUSH1 0x0 DUP1 PUSH1 0x80 DUP6 DUP8 SUB SLT ISZERO PUSH2 0x6E87 JUMPI PUSH2 0x6E86 PUSH2 0x611B JUMP JUMPDEST JUMPDEST PUSH1 0x0 PUSH2 0x6E95 DUP8 DUP3 DUP9 ADD PUSH2 0x6309 JUMP JUMPDEST SWAP5 POP POP PUSH1 0x20 PUSH2 0x6EA6 DUP8 DUP3 DUP9 ADD PUSH2 0x6309 JUMP JUMPDEST SWAP4 POP POP PUSH1 0x40 PUSH2 0x6EB7 DUP8 DUP3 DUP9 ADD PUSH2 0x6201 JUMP JUMPDEST SWAP3 POP POP PUSH1 0x60 DUP6 ADD CALLDATALOAD PUSH8 0xFFFFFFFFFFFFFFFF DUP2 GT ISZERO PUSH2 0x6ED8 JUMPI PUSH2 0x6ED7 PUSH2 0x6120 JUMP JUMPDEST JUMPDEST PUSH2 0x6EE4 DUP8 DUP3 DUP9 ADD PUSH2 0x6476 JUMP JUMPDEST SWAP2 POP POP SWAP3 SWAP6 SWAP2 SWAP5 POP SWAP3 POP JUMP JUMPDEST PUSH1 0x0 PUSH2 0x6EFB DUP3 PUSH2 0x65BC JUMP JUMPDEST SWAP1 POP SWAP2 SWAP1 POP JUMP JUMPDEST PUSH2 0x6F0B DUP2 PUSH2 0x6EF0 JUMP JUMPDEST DUP3 MSTORE POP POP JUMP JUMPDEST PUSH1 0x0 PUSH1 0x20 DUP3 ADD SWAP1 POP PUSH2 0x6F26 PUSH1 0x0 DUP4 ADD DUP5 PUSH2 0x6F02 JUMP JUMPDEST SWAP3 SWAP2 POP POP JUMP JUMPDEST PUSH1 0x0 PUSH2 0xFFFF DUP3 AND SWAP1 POP SWAP2 SWAP1 POP JUMP JUMPDEST PUSH2 0x6F43 DUP2 PUSH2 0x6F2C JUMP JUMPDEST DUP3 MSTORE POP POP JUMP JUMPDEST PUSH1 0x0 PUSH1 0x20 DUP3 ADD SWAP1 POP PUSH2 0x6F5E PUSH1 0x0 DUP4 ADD DUP5 PUSH2 0x6F3A JUMP JUMPDEST SWAP3 SWAP2 POP POP JUMP JUMPDEST PUSH1 0x0 DUP1 PUSH1 0x0 DUP1 PUSH1 0x0 PUSH1 0x80 DUP7 DUP9 SUB SLT ISZERO PUSH2 0x6F80 JUMPI PUSH2 0x6F7F PUSH2 0x611B JUMP JUMPDEST JUMPDEST PUSH1 0x0 PUSH2 0x6F8E DUP9 DUP3 DUP10 ADD PUSH2 0x6201 JUMP JUMPDEST SWAP6 POP POP PUSH1 0x20 PUSH2 0x6F9F DUP9 DUP3 DUP10 ADD PUSH2 0x6201 JUMP JUMPDEST SWAP5 POP POP PUSH1 0x40 PUSH2 0x6FB0 DUP9 DUP3 DUP10 ADD PUSH2 0x6309 JUMP JUMPDEST SWAP4 POP POP PUSH1 0x60 DUP7 ADD CALLDATALOAD PUSH8 0xFFFFFFFFFFFFFFFF DUP2 GT ISZERO PUSH2 0x6FD1 JUMPI PUSH2 0x6FD0 PUSH2 0x6120 JUMP JUMPDEST JUMPDEST PUSH2 0x6FDD DUP9 DUP3 DUP10 ADD PUSH2 0x6CE2 JUMP JUMPDEST SWAP3 POP SWAP3 POP POP SWAP3 SWAP6 POP SWAP3 SWAP6 SWAP1 SWAP4 POP JUMP JUMPDEST PUSH1 0x0 PUSH2 0x6FF7 DUP3 PUSH2 0x6296 JUMP JUMPDEST SWAP1 POP SWAP2 SWAP1 POP JUMP JUMPDEST PUSH2 0x7007 DUP2 PUSH2 0x6FEC JUMP JUMPDEST DUP2 EQ PUSH2 0x7012 JUMPI PUSH1 0x0 DUP1 REVERT JUMPDEST POP JUMP JUMPDEST PUSH1 0x0 DUP2 CALLDATALOAD SWAP1 POP PUSH2 0x7024 DUP2 PUSH2 0x6FFE JUMP JUMPDEST SWAP3 SWAP2 POP POP JUMP JUMPDEST PUSH1 0x0 DUP1 PUSH1 0x0 PUSH1 0x60 DUP5 DUP7 SUB SLT ISZERO PUSH2 0x7043 JUMPI PUSH2 0x7042 PUSH2 0x611B JUMP JUMPDEST JUMPDEST PUSH1 0x0 PUSH2 0x7051 DUP7 DUP3 DUP8 ADD PUSH2 0x6309 JUMP JUMPDEST SWAP4 POP POP PUSH1 0x20 PUSH2 0x7062 DUP7 DUP3 DUP8 ADD PUSH2 0x7015 JUMP JUMPDEST SWAP3 POP POP PUSH1 0x40 PUSH2 0x7073 DUP7 DUP3 DUP8 ADD PUSH2 0x6201 JUMP JUMPDEST SWAP2 POP POP SWAP3 POP SWAP3 POP SWAP3 JUMP JUMPDEST PUSH1 0x0 DUP1 PUSH1 0x40 DUP4 DUP6 SUB SLT ISZERO PUSH2 0x7094 JUMPI PUSH2 0x7093 PUSH2 0x611B JUMP JUMPDEST JUMPDEST PUSH1 0x0 PUSH2 0x70A2 DUP6 DUP3 DUP7 ADD PUSH2 0x6309 JUMP JUMPDEST SWAP3 POP POP PUSH1 0x20 PUSH2 0x70B3 DUP6 DUP3 DUP7 ADD PUSH2 0x6309 JUMP JUMPDEST SWAP2 POP POP SWAP3 POP SWAP3 SWAP1 POP JUMP JUMPDEST PUSH1 0x0 DUP1 PUSH1 0x0 PUSH1 0x60 DUP5 DUP7 SUB SLT ISZERO PUSH2 0x70D6 JUMPI PUSH2 0x70D5 PUSH2 0x611B JUMP JUMPDEST JUMPDEST PUSH1 0x0 PUSH2 0x70E4 DUP7 DUP3 DUP8 ADD PUSH2 0x6309 JUMP JUMPDEST SWAP4 POP POP PUSH1 0x20 PUSH2 0x70F5 DUP7 DUP3 DUP8 ADD PUSH2 0x6201 JUMP JUMPDEST SWAP3 POP POP PUSH1 0x40 PUSH2 0x7106 DUP7 DUP3 DUP8 ADD PUSH2 0x6201 JUMP JUMPDEST SWAP2 POP POP SWAP3 POP SWAP3 POP SWAP3 JUMP JUMPDEST PUSH32 0x4E487B7100000000000000000000000000000000000000000000000000000000 PUSH1 0x0 MSTORE PUSH1 0x11 PUSH1 0x4 MSTORE PUSH1 0x24 PUSH1 0x0 REVERT JUMPDEST PUSH1 0x0 PUSH2 0x714A DUP3 PUSH2 0x61E0 JUMP JUMPDEST SWAP2 POP PUSH2 0x7155 DUP4 PUSH2 0x61E0 JUMP JUMPDEST SWAP3 POP DUP3 DUP3 SUB SWAP1 POP DUP2 DUP2 GT ISZERO PUSH2 0x716D JUMPI PUSH2 0x716C PUSH2 0x7110 JUMP JUMPDEST JUMPDEST SWAP3 SWAP2 POP POP JUMP JUMPDEST PUSH1 0x0 DUP2 MLOAD SWAP1 POP SWAP2 SWAP1 POP JUMP JUMPDEST PUSH1 0x0 DUP3 DUP3 MSTORE PUSH1 0x20 DUP3 ADD SWAP1 POP SWAP3 SWAP2 POP POP JUMP JUMPDEST PUSH1 0x0 JUMPDEST DUP4 DUP2 LT ISZERO PUSH2 0x71AD JUMPI DUP1 DUP3 ADD MLOAD DUP2 DUP5 ADD MSTORE PUSH1 0x20 DUP2 ADD SWAP1 POP PUSH2 0x7192 JUMP JUMPDEST PUSH1 0x0 DUP5 DUP5 ADD MSTORE POP POP POP POP JUMP JUMPDEST PUSH1 0x0 PUSH2 0x71C4 DUP3 PUSH2 0x7173 JUMP JUMPDEST PUSH2 0x71CE DUP2 DUP6 PUSH2 0x717E JUMP JUMPDEST SWAP4 POP PUSH2 0x71DE DUP2 DUP6 PUSH1 0x20 DUP7 ADD PUSH2 0x718F JUMP JUMPDEST PUSH2 0x71E7 DUP2 PUSH2 0x6368 JUMP JUMPDEST DUP5 ADD SWAP2 POP POP SWAP3 SWAP2 POP POP JUMP JUMPDEST PUSH1 0x0 PUSH1 0x80 DUP3 ADD SWAP1 POP PUSH2 0x7207 PUSH1 0x0 DUP4 ADD DUP8 PUSH2 0x62C8 JUMP JUMPDEST PUSH2 0x7214 PUSH1 0x20 DUP4 ADD DUP7 PUSH2 0x62C8 JUMP JUMPDEST PUSH2 0x7221 PUSH1 0x40 DUP4 ADD DUP6 PUSH2 0x62C8 JUMP JUMPDEST DUP2 DUP2 SUB PUSH1 0x60 DUP4 ADD MSTORE PUSH2 0x7233 DUP2 DUP5 PUSH2 0x71B9 JUMP JUMPDEST SWAP1 POP SWAP6 SWAP5 POP POP POP POP POP JUMP JUMPDEST PUSH1 0x0 DUP2 MLOAD SWAP1 POP PUSH2 0x724D DUP2 PUSH2 0x61EA JUMP JUMPDEST SWAP3 SWAP2 POP POP JUMP JUMPDEST PUSH1 0x0 PUSH1 0x20 DUP3 DUP5 SUB SLT ISZERO PUSH2 0x7269 JUMPI PUSH2 0x7268 PUSH2 0x611B JUMP JUMPDEST JUMPDEST PUSH1 0x0 PUSH2 0x7277 DUP5 DUP3 DUP6 ADD PUSH2 0x723E JUMP JUMPDEST SWAP2 POP POP SWAP3 SWAP2 POP POP JUMP JUMPDEST PUSH1 0x0 PUSH1 0x60 DUP3 ADD SWAP1 POP PUSH2 0x7295 PUSH1 0x0 DUP4 ADD DUP7 PUSH2 0x6513 JUMP JUMPDEST PUSH2 0x72A2 PUSH1 0x20 DUP4 ADD DUP6 PUSH2 0x6513 JUMP JUMPDEST PUSH2 0x72AF PUSH1 0x40 DUP4 ADD DUP5 PUSH2 0x6513 JUMP JUMPDEST SWAP5 SWAP4 POP POP POP POP JUMP JUMPDEST PUSH1 0x0 PUSH2 0x72C2 DUP3 PUSH2 0x61E0 JUMP JUMPDEST SWAP2 POP PUSH2 0x72CD DUP4 PUSH2 0x61E0 JUMP JUMPDEST SWAP3 POP DUP3 DUP3 ADD SWAP1 POP DUP1 DUP3 GT ISZERO PUSH2 0x72E5 JUMPI PUSH2 0x72E4 PUSH2 0x7110 JUMP JUMPDEST JUMPDEST SWAP3 SWAP2 POP POP JUMP JUMPDEST PUSH32 0x4E487B7100000000000000000000000000000000000000000000000000000000 PUSH1 0x0 MSTORE PUSH1 0x32 PUSH1 0x4 MSTORE PUSH1 0x24 PUSH1 0x0 REVERT JUMPDEST PUSH1 0x0 DUP1 REVERT JUMPDEST PUSH1 0x0 DUP1 REVERT JUMPDEST PUSH1 0x0 DUP1 REVERT JUMPDEST PUSH1 0x0 DUP1 DUP4 CALLDATALOAD PUSH1 0x1 PUSH1 0x20 SUB DUP5 CALLDATASIZE SUB SUB DUP2 SLT PUSH2 0x7346 JUMPI PUSH2 0x7345 PUSH2 0x731A JUMP JUMPDEST JUMPDEST DUP1 DUP5 ADD SWAP3 POP DUP3 CALLDATALOAD SWAP2 POP PUSH8 0xFFFFFFFFFFFFFFFF DUP3 GT ISZERO PUSH2 0x7368 JUMPI PUSH2 0x7367 PUSH2 0x731F JUMP JUMPDEST JUMPDEST PUSH1 0x20 DUP4 ADD SWAP3 POP PUSH1 0x1 DUP3 MUL CALLDATASIZE SUB DUP4 SGT ISZERO PUSH2 0x7384 JUMPI PUSH2 0x7383 PUSH2 0x7324 JUMP JUMPDEST JUMPDEST POP SWAP3 POP SWAP3 SWAP1 POP JUMP JUMPDEST PUSH1 0x0 PUSH2 0x7398 DUP4 DUP6 PUSH2 0x717E JUMP JUMPDEST SWAP4 POP PUSH2 0x73A5 DUP4 DUP6 DUP5 PUSH2 0x6425 JUMP JUMPDEST PUSH2 0x73AE DUP4 PUSH2 0x6368 JUMP JUMPDEST DUP5 ADD SWAP1 POP SWAP4 SWAP3 POP POP POP JUMP JUMPDEST PUSH1 0x0 PUSH1 0xE0 DUP3 ADD SWAP1 POP PUSH2 0x73CE PUSH1 0x0 DUP4 ADD DUP12 PUSH2 0x6513 JUMP JUMPDEST PUSH2 0x73DB PUSH1 0x20 DUP4 ADD DUP11 PUSH2 0x62C8 JUMP JUMPDEST PUSH2 0x73E8 PUSH1 0x40 DUP4 ADD DUP10 PUSH2 0x62C8 JUMP JUMPDEST PUSH2 0x73F5 PUSH1 0x60 DUP4 ADD DUP9 PUSH2 0x62C8 JUMP JUMPDEST DUP2 DUP2 SUB PUSH1 0x80 DUP4 ADD MSTORE PUSH2 0x7408 DUP2 DUP7 DUP9 PUSH2 0x738C JUMP JUMPDEST SWAP1 POP PUSH2 0x7417 PUSH1 0xA0 DUP4 ADD DUP6 PUSH2 0x6513 JUMP JUMPDEST PUSH2 0x7424 PUSH1 0xC0 DUP4 ADD DUP5 PUSH2 0x6513 JUMP JUMPDEST SWAP10 SWAP9 POP POP POP POP POP POP POP POP POP JUMP JUMPDEST PUSH1 0x0 PUSH2 0x743C DUP3 PUSH2 0x61E0 JUMP JUMPDEST SWAP2 POP PUSH32 0xFFFFFFFFFFFFFFFFFFFFFFFFFFFFFFFFFFFFFFFFFFFFFFFFFFFFFFFFFFFFFFFF DUP3 SUB PUSH2 0x746E JUMPI PUSH2 0x746D PUSH2 0x7110 JUMP JUMPDEST JUMPDEST PUSH1 0x1 DUP3 ADD SWAP1 POP SWAP2 SWAP1 POP JUMP JUMPDEST PUSH1 0x0 DUP3 DUP3 MSTORE PUSH1 0x20 DUP3 ADD SWAP1 POP SWAP3 SWAP2 POP POP JUMP JUMPDEST PUSH32 0x416363657373436F6E74726F6C3A2063616E206F6E6C792072656E6F756E6365 PUSH1 0x0 DUP3 ADD MSTORE PUSH32 0x20726F6C657320666F722073656C660000000000000000000000000000000000 PUSH1 0x20 DUP3 ADD MSTORE POP JUMP JUMPDEST PUSH1 0x0 PUSH2 0x74E6 PUSH1 0x2F DUP4 PUSH2 0x7479 JUMP JUMPDEST SWAP2 POP PUSH2 0x74F1 DUP3 PUSH2 0x748A JUMP JUMPDEST PUSH1 0x40 DUP3 ADD SWAP1 POP SWAP2 SWAP1 POP JUMP JUMPDEST PUSH1 0x0 PUSH1 0x20 DUP3 ADD SWAP1 POP DUP2 DUP2 SUB PUSH1 0x0 DUP4 ADD MSTORE PUSH2 0x7515 DUP2 PUSH2 0x74D9 JUMP JUMPDEST SWAP1 POP SWAP2 SWAP1 POP JUMP JUMPDEST PUSH1 0x0 PUSH2 0x7527 DUP3 PUSH2 0x61E0 JUMP JUMPDEST SWAP2 POP PUSH2 0x7532 DUP4 PUSH2 0x61E0 JUMP JUMPDEST SWAP3 POP DUP3 DUP3 MUL PUSH2 0x7540 DUP2 PUSH2 0x61E0 JUMP JUMPDEST SWAP2 POP DUP3 DUP3 DIV DUP5 EQ DUP4 ISZERO OR PUSH2 0x7557 JUMPI PUSH2 0x7556 PUSH2 0x7110 JUMP JUMPDEST JUMPDEST POP SWAP3 SWAP2 POP POP JUMP JUMPDEST PUSH32 0x4E487B7100000000000000000000000000000000000000000000000000000000 PUSH1 0x0 MSTORE PUSH1 0x12 PUSH1 0x4 MSTORE PUSH1 0x24 PUSH1 0x0 REVERT JUMPDEST PUSH1 0x0 PUSH2 0x7598 DUP3 PUSH2 0x61E0 JUMP JUMPDEST SWAP2 POP PUSH2 0x75A3 DUP4 PUSH2 0x61E0 JUMP JUMPDEST SWAP3 POP DUP3 PUSH2 0x75B3 JUMPI PUSH2 0x75B2 PUSH2 0x755E JUMP JUMPDEST JUMPDEST DUP3 DUP3 DIV SWAP1 POP SWAP3 SWAP2 POP POP JUMP JUMPDEST PUSH1 0x0 DUP2 SWAP1 POP SWAP2 SWAP1 POP JUMP JUMPDEST PUSH1 0x0 PUSH2 0x75E3 PUSH2 0x75DE PUSH2 0x75D9 DUP5 PUSH2 0x75BE JUMP JUMPDEST PUSH2 0x6590 JUMP JUMPDEST PUSH2 0x61E0 JUMP JUMPDEST SWAP1 POP SWAP2 SWAP1 POP JUMP JUMPDEST PUSH2 0x75F3 DUP2 PUSH2 0x75C8 JUMP JUMPDEST DUP3 MSTORE POP POP JUMP JUMPDEST PUSH1 0x0 PUSH1 0xC0 DUP3 ADD SWAP1 POP PUSH2 0x760E PUSH1 0x0 DUP4 ADD DUP10 PUSH2 0x62C8 JUMP JUMPDEST PUSH2 0x761B PUSH1 0x20 DUP4 ADD DUP9 PUSH2 0x62C8 JUMP JUMPDEST PUSH2 0x7628 PUSH1 0x40 DUP4 ADD DUP8 PUSH2 0x75EA JUMP JUMPDEST PUSH2 0x7635 PUSH1 0x60 DUP4 ADD DUP7 PUSH2 0x75EA JUMP JUMPDEST PUSH2 0x7642 PUSH1 0x80 DUP4 ADD DUP6 PUSH2 0x62C8 JUMP JUMPDEST PUSH2 0x764F PUSH1 0xA0 DUP4 ADD DUP5 PUSH2 0x61B6 JUMP JUMPDEST SWAP8 SWAP7 POP POP POP POP POP POP POP JUMP JUMPDEST PUSH1 0x0 DUP2 MLOAD SWAP1 POP PUSH2 0x7669 DUP2 PUSH2 0x6D85 JUMP JUMPDEST SWAP3 SWAP2 POP POP JUMP JUMPDEST PUSH1 0x0 PUSH1 0x20 DUP3 DUP5 SUB SLT ISZERO PUSH2 0x7685 JUMPI PUSH2 0x7684 PUSH2 0x611B JUMP JUMPDEST JUMPDEST PUSH1 0x0 PUSH2 0x7693 DUP5 DUP3 DUP6 ADD PUSH2 0x765A JUMP JUMPDEST SWAP2 POP POP SWAP3 SWAP2 POP POP JUMP JUMPDEST PUSH1 0x0 PUSH1 0xFF DUP3 AND SWAP1 POP SWAP2 SWAP1 POP JUMP JUMPDEST PUSH1 0x0 PUSH2 0x76C4 PUSH2 0x76BF PUSH2 0x76BA DUP5 PUSH2 0x75BE JUMP JUMPDEST PUSH2 0x6590 JUMP JUMPDEST PUSH2 0x769C JUMP JUMPDEST SWAP1 POP SWAP2 SWAP1 POP JUMP JUMPDEST PUSH2 0x76D4 DUP2 PUSH2 0x76A9 JUMP JUMPDEST DUP3 MSTORE POP POP JUMP JUMPDEST PUSH1 0x0 PUSH1 0x20 DUP3 ADD SWAP1 POP PUSH2 0x76EF PUSH1 0x0 DUP4 ADD DUP5 PUSH2 0x76CB JUMP JUMPDEST SWAP3 SWAP2 POP POP JUMP JUMPDEST PUSH1 0x0 DUP2 SWAP1 POP SWAP2 SWAP1 POP JUMP JUMPDEST PUSH1 0x0 PUSH2 0x771A PUSH2 0x7715 PUSH2 0x7710 DUP5 PUSH2 0x76F5 JUMP JUMPDEST PUSH2 0x6590 JUMP JUMPDEST PUSH2 0x769C JUMP JUMPDEST SWAP1 POP SWAP2 SWAP1 POP JUMP JUMPDEST PUSH2 0x772A DUP2 PUSH2 0x76FF JUMP JUMPDEST DUP3 MSTORE POP POP JUMP JUMPDEST PUSH1 0x0 PUSH1 0x20 DUP3 ADD SWAP1 POP PUSH2 0x7745 PUSH1 0x0 DUP4 ADD DUP5 PUSH2 0x7721 JUMP JUMPDEST SWAP3 SWAP2 POP POP JUMP JUMPDEST PUSH1 0x0 DUP2 SWAP1 POP SWAP2 SWAP1 POP JUMP JUMPDEST PUSH1 0x0 PUSH2 0x7770 PUSH2 0x776B PUSH2 0x7766 DUP5 PUSH2 0x774B JUMP JUMPDEST PUSH2 0x6590 JUMP JUMPDEST PUSH2 0x769C JUMP JUMPDEST SWAP1 POP SWAP2 SWAP1 POP JUMP JUMPDEST PUSH2 0x7780 DUP2 PUSH2 0x7755 JUMP JUMPDEST DUP3 MSTORE POP POP JUMP JUMPDEST PUSH1 0x0 PUSH1 0x20 DUP3 ADD SWAP1 POP PUSH2 0x779B PUSH1 0x0 DUP4 ADD DUP5 PUSH2 0x7777 JUMP JUMPDEST SWAP3 SWAP2 POP POP JUMP JUMPDEST PUSH1 0x0 DUP2 SWAP1 POP SWAP2 SWAP1 POP JUMP JUMPDEST PUSH1 0x0 PUSH2 0x77C6 PUSH2 0x77C1 PUSH2 0x77BC DUP5 PUSH2 0x77A1 JUMP JUMPDEST PUSH2 0x6590 JUMP JUMPDEST PUSH2 0x769C JUMP JUMPDEST SWAP1 POP SWAP2 SWAP1 POP JUMP JUMPDEST PUSH2 0x77D6 DUP2 PUSH2 0x77AB JUMP JUMPDEST DUP3 MSTORE POP POP JUMP JUMPDEST PUSH1 0x0 PUSH1 0x20 DUP3 ADD SWAP1 POP PUSH2 0x77F1 PUSH1 0x0 DUP4 ADD DUP5 PUSH2 0x77CD JUMP JUMPDEST SWAP3 SWAP2 POP POP JUMP JUMPDEST PUSH1 0x0 DUP2 SWAP1 POP SWAP2 SWAP1 POP JUMP JUMPDEST PUSH1 0x0 PUSH2 0x781C PUSH2 0x7817 PUSH2 0x7812 DUP5 PUSH2 0x77F7 JUMP JUMPDEST PUSH2 0x6590 JUMP JUMPDEST PUSH2 0x769C JUMP JUMPDEST SWAP1 POP SWAP2 SWAP1 POP JUMP JUMPDEST PUSH2 0x782C DUP2 PUSH2 0x7801 JUMP JUMPDEST DUP3 MSTORE POP POP JUMP JUMPDEST PUSH1 0x0 PUSH1 0x20 DUP3 ADD SWAP1 POP PUSH2 0x7847 PUSH1 0x0 DUP4 ADD DUP5 PUSH2 0x7823 JUMP JUMPDEST SWAP3 SWAP2 POP POP JUMP JUMPDEST PUSH1 0x0 DUP2 SWAP1 POP SWAP2 SWAP1 POP JUMP JUMPDEST PUSH1 0x0 PUSH2 0x7872 PUSH2 0x786D PUSH2 0x7868 DUP5 PUSH2 0x784D JUMP JUMPDEST PUSH2 0x6590 JUMP JUMPDEST PUSH2 0x769C JUMP JUMPDEST SWAP1 POP SWAP2 SWAP1 POP JUMP JUMPDEST PUSH2 0x7882 DUP2 PUSH2 0x7857 JUMP JUMPDEST DUP3 MSTORE POP POP JUMP JUMPDEST PUSH1 0x0 PUSH1 0x20 DUP3 ADD SWAP1 POP PUSH2 0x789D PUSH1 0x0 DUP4 ADD DUP5 PUSH2 0x7879 JUMP JUMPDEST SWAP3 SWAP2 POP POP JUMP JUMPDEST PUSH1 0x0 DUP2 SWAP1 POP SWAP2 SWAP1 POP JUMP JUMPDEST PUSH1 0x0 PUSH2 0x78C8 PUSH2 0x78C3 PUSH2 0x78BE DUP5 PUSH2 0x78A3 JUMP JUMPDEST PUSH2 0x6590 JUMP JUMPDEST PUSH2 0x769C JUMP JUMPDEST SWAP1 POP SWAP2 SWAP1 POP JUMP JUMPDEST PUSH2 0x78D8 DUP2 PUSH2 0x78AD JUMP JUMPDEST DUP3 MSTORE POP POP JUMP JUMPDEST PUSH1 0x0 PUSH1 0x20 DUP3 ADD SWAP1 POP PUSH2 0x78F3 PUSH1 0x0 DUP4 ADD DUP5 PUSH2 0x78CF JUMP JUMPDEST SWAP3 SWAP2 POP POP JUMP JUMPDEST PUSH1 0x0 PUSH1 0xE0 DUP3 ADD SWAP1 POP PUSH2 0x790E PUSH1 0x0 DUP4 ADD DUP11 PUSH2 0x62C8 JUMP JUMPDEST PUSH2 0x791B PUSH1 0x20 DUP4 ADD DUP10 PUSH2 0x62C8 JUMP JUMPDEST PUSH2 0x7928 PUSH1 0x40 DUP4 ADD DUP9 PUSH2 0x62C8 JUMP JUMPDEST PUSH2 0x7935 PUSH1 0x60 DUP4 ADD DUP8 PUSH2 0x62C8 JUMP JUMPDEST PUSH2 0x7942 PUSH1 0x80 DUP4 ADD DUP7 PUSH2 0x62C8 JUMP JUMPDEST PUSH2 0x794F PUSH1 0xA0 DUP4 ADD DUP6 PUSH2 0x62C8 JUMP JUMPDEST PUSH2 0x795C PUSH1 0xC0 DUP4 ADD DUP5 PUSH2 0x62C8 JUMP JUMPDEST SWAP9 SWAP8 POP POP POP POP POP POP POP POP JUMP JUMPDEST PUSH1 0x0 PUSH2 0x7973 DUP3 PUSH2 0x6F2C JUMP JUMPDEST SWAP2 POP PUSH2 0x797E DUP4 PUSH2 0x6F2C JUMP JUMPDEST SWAP3 POP DUP3 DUP3 SUB SWAP1 POP PUSH2 0xFFFF DUP2 GT ISZERO PUSH2 0x7998 JUMPI PUSH2 0x7997 PUSH2 0x7110 JUMP JUMPDEST JUMPDEST SWAP3 SWAP2 POP POP JUMP JUMPDEST PUSH32 0x534348454D415F56455253494F4E5F4E4F545F434F5252454354000000000000 PUSH1 0x0 DUP3 ADD MSTORE POP JUMP JUMPDEST PUSH1 0x0 PUSH2 0x79D4 PUSH1 0x1A DUP4 PUSH2 0x7479 JUMP JUMPDEST SWAP2 POP PUSH2 0x79DF DUP3 PUSH2 0x799E JUMP JUMPDEST PUSH1 0x20 DUP3 ADD SWAP1 POP SWAP2 SWAP1 POP JUMP JUMPDEST PUSH1 0x0 PUSH1 0x20 DUP3 ADD SWAP1 POP DUP2 DUP2 SUB PUSH1 0x0 DUP4 ADD MSTORE PUSH2 0x7A03 DUP2 PUSH2 0x79C7 JUMP JUMPDEST SWAP1 POP SWAP2 SWAP1 POP JUMP JUMPDEST PUSH1 0x0 PUSH1 0x80 DUP3 ADD SWAP1 POP PUSH2 0x7A1F PUSH1 0x0 DUP4 ADD DUP8 PUSH2 0x6513 JUMP JUMPDEST PUSH2 0x7A2C PUSH1 0x20 DUP4 ADD DUP7 PUSH2 0x6513 JUMP JUMPDEST PUSH2 0x7A39 PUSH1 0x40 DUP4 ADD DUP6 PUSH2 0x62C8 JUMP JUMPDEST PUSH2 0x7A46 PUSH1 0x60 DUP4 ADD DUP5 PUSH2 0x62C8 JUMP JUMPDEST SWAP6 SWAP5 POP POP POP POP POP JUMP JUMPDEST PUSH1 0x0 PUSH1 0xC0 DUP3 ADD SWAP1 POP PUSH2 0x7A64 PUSH1 0x0 DUP4 ADD DUP10 PUSH2 0x62C8 JUMP JUMPDEST PUSH2 0x7A71 PUSH1 0x20 DUP4 ADD DUP9 PUSH2 0x62C8 JUMP JUMPDEST PUSH2 0x7A7E PUSH1 0x40 DUP4 ADD DUP8 PUSH2 0x6513 JUMP JUMPDEST PUSH2 0x7A8B PUSH1 0x60 DUP4 ADD DUP7 PUSH2 0x6513 JUMP JUMPDEST PUSH2 0x7A98 PUSH1 0x80 DUP4 ADD DUP6 PUSH2 0x62C8 JUMP JUMPDEST PUSH2 0x7AA5 PUSH1 0xA0 DUP4 ADD DUP5 PUSH2 0x61B6 JUMP JUMPDEST SWAP8 SWAP7 POP POP POP POP POP POP POP JUMP JUMPDEST PUSH1 0x0 PUSH1 0x60 DUP3 ADD SWAP1 POP PUSH2 0x7AC5 PUSH1 0x0 DUP4 ADD DUP7 PUSH2 0x6513 JUMP JUMPDEST PUSH2 0x7AD2 PUSH1 0x20 DUP4 ADD DUP6 PUSH2 0x6513 JUMP JUMPDEST PUSH2 0x7ADF PUSH1 0x40 DUP4 ADD DUP5 PUSH2 0x61B6 JUMP JUMPDEST SWAP5 SWAP4 POP POP POP POP JUMP JUMPDEST PUSH1 0x0 PUSH1 0xC0 DUP3 ADD SWAP1 POP PUSH2 0x7AFC PUSH1 0x0 DUP4 ADD DUP10 PUSH2 0x62C8 JUMP JUMPDEST PUSH2 0x7B09 PUSH1 0x20 DUP4 ADD DUP9 PUSH2 0x6513 JUMP JUMPDEST PUSH2 0x7B16 PUSH1 0x40 DUP4 ADD DUP8 PUSH2 0x62C8 JUMP JUMPDEST PUSH2 0x7B23 PUSH1 0x60 DUP4 ADD DUP7 PUSH2 0x62C8 JUMP JUMPDEST PUSH2 0x7B30 PUSH1 0x80 DUP4 ADD DUP6 PUSH2 0x62C8 JUMP JUMPDEST PUSH2 0x7B3D PUSH1 0xA0 DUP4 ADD DUP5 PUSH2 0x6513 JUMP JUMPDEST SWAP8 SWAP7 POP POP POP POP POP POP POP JUMP JUMPDEST PUSH1 0x0 PUSH1 0x40 DUP3 ADD SWAP1 POP PUSH2 0x7B5D PUSH1 0x0 DUP4 ADD DUP6 PUSH2 0x6513 JUMP JUMPDEST PUSH2 0x7B6A PUSH1 0x20 DUP4 ADD DUP5 PUSH2 0x62C8 JUMP JUMPDEST SWAP4 SWAP3 POP POP POP JUMP JUMPDEST PUSH1 0x0 PUSH1 0x60 DUP3 ADD SWAP1 POP PUSH2 0x7B86 PUSH1 0x0 DUP4 ADD DUP7 PUSH2 0x62C8 JUMP JUMPDEST PUSH2 0x7B93 PUSH1 0x20 DUP4 ADD DUP6 PUSH2 0x62C8 JUMP JUMPDEST PUSH2 0x7BA0 PUSH1 0x40 DUP4 ADD DUP5 PUSH2 0x6513 JUMP JUMPDEST SWAP5 SWAP4 POP POP POP POP JUMP JUMPDEST PUSH1 0x0 PUSH1 0x80 DUP3 ADD SWAP1 POP PUSH2 0x7BBD PUSH1 0x0 DUP4 ADD DUP8 PUSH2 0x6513 JUMP JUMPDEST PUSH2 0x7BCA PUSH1 0x20 DUP4 ADD DUP7 PUSH2 0x62C8 JUMP JUMPDEST PUSH2 0x7BD7 PUSH1 0x40 DUP4 ADD DUP6 PUSH2 0x6513 JUMP JUMPDEST PUSH2 0x7BE4 PUSH1 0x60 DUP4 ADD DUP5 PUSH2 0x6513 JUMP JUMPDEST SWAP6 SWAP5 POP POP POP POP POP JUMP JUMPDEST PUSH1 0x0 PUSH1 0x80 DUP3 ADD SWAP1 POP PUSH2 0x7C02 PUSH1 0x0 DUP4 ADD DUP8 PUSH2 0x62C8 JUMP JUMPDEST PUSH2 0x7C0F PUSH1 0x20 DUP4 ADD DUP7 PUSH2 0x62C8 JUMP JUMPDEST PUSH2 0x7C1C PUSH1 0x40 DUP4 ADD DUP6 PUSH2 0x6513 JUMP JUMPDEST DUP2 DUP2 SUB PUSH1 0x60 DUP4 ADD MSTORE PUSH2 0x7C2E DUP2 DUP5 PUSH2 0x71B9 JUMP JUMPDEST SWAP1 POP SWAP6 SWAP5 POP POP POP POP POP JUMP JUMPDEST PUSH1 0x0 DUP2 MLOAD SWAP1 POP PUSH2 0x7C48 DUP2 PUSH2 0x6151 JUMP JUMPDEST SWAP3 SWAP2 POP POP JUMP JUMPDEST PUSH1 0x0 PUSH1 0x20 DUP3 DUP5 SUB SLT ISZERO PUSH2 0x7C64 JUMPI PUSH2 0x7C63 PUSH2 0x611B JUMP JUMPDEST JUMPDEST PUSH1 0x0 PUSH2 0x7C72 DUP5 DUP3 DUP6 ADD PUSH2 0x7C39 JUMP JUMPDEST SWAP2 POP POP SWAP3 SWAP2 POP POP JUMP JUMPDEST PUSH1 0x0 PUSH2 0x7C86 DUP3 PUSH2 0x61E0 JUMP JUMPDEST SWAP2 POP PUSH1 0x0 DUP3 SUB PUSH2 0x7C99 JUMPI PUSH2 0x7C98 PUSH2 0x7110 JUMP JUMPDEST JUMPDEST PUSH1 0x1 DUP3 SUB SWAP1 POP SWAP2 SWAP1 POP JUMP JUMPDEST PUSH1 0x0 DUP2 SWAP1 POP SWAP3 SWAP2 POP POP JUMP JUMPDEST PUSH32 0x416363657373436F6E74726F6C3A206163636F756E7420000000000000000000 PUSH1 0x0 DUP3 ADD MSTORE POP JUMP JUMPDEST PUSH1 0x0 PUSH2 0x7CE5 PUSH1 0x17 DUP4 PUSH2 0x7CA4 JUMP JUMPDEST SWAP2 POP PUSH2 0x7CF0 DUP3 PUSH2 0x7CAF JUMP JUMPDEST PUSH1 0x17 DUP3 ADD SWAP1 POP SWAP2 SWAP1 POP JUMP JUMPDEST PUSH1 0x0 DUP2 MLOAD SWAP1 POP SWAP2 SWAP1 POP JUMP JUMPDEST PUSH1 0x0 PUSH2 0x7D11 DUP3 PUSH2 0x7CFB JUMP JUMPDEST PUSH2 0x7D1B DUP2 DUP6 PUSH2 0x7CA4 JUMP JUMPDEST SWAP4 POP PUSH2 0x7D2B DUP2 DUP6 PUSH1 0x20 DUP7 ADD PUSH2 0x718F JUMP JUMPDEST DUP1 DUP5 ADD SWAP2 POP POP SWAP3 SWAP2 POP POP JUMP JUMPDEST PUSH32 0x206973206D697373696E6720726F6C6520000000000000000000000000000000 PUSH1 0x0 DUP3 ADD MSTORE POP JUMP JUMPDEST PUSH1 0x0 PUSH2 0x7D6D PUSH1 0x11 DUP4 PUSH2 0x7CA4 JUMP JUMPDEST SWAP2 POP PUSH2 0x7D78 DUP3 PUSH2 0x7D37 JUMP JUMPDEST PUSH1 0x11 DUP3 ADD SWAP1 POP SWAP2 SWAP1 POP JUMP JUMPDEST PUSH1 0x0 PUSH2 0x7D8E DUP3 PUSH2 0x7CD8 JUMP JUMPDEST SWAP2 POP PUSH2 0x7D9A DUP3 DUP6 PUSH2 0x7D06 JUMP JUMPDEST SWAP2 POP PUSH2 0x7DA5 DUP3 PUSH2 0x7D60 JUMP JUMPDEST SWAP2 POP PUSH2 0x7DB1 DUP3 DUP5 PUSH2 0x7D06 JUMP JUMPDEST SWAP2 POP DUP2 SWAP1 POP SWAP4 SWAP3 POP POP POP JUMP JUMPDEST PUSH1 0x0 PUSH2 0x7DC8 DUP3 PUSH2 0x7CFB JUMP JUMPDEST PUSH2 0x7DD2 DUP2 DUP6 PUSH2 0x7479 JUMP JUMPDEST SWAP4 POP PUSH2 0x7DE2 DUP2 DUP6 PUSH1 0x20 DUP7 ADD PUSH2 0x718F JUMP JUMPDEST PUSH2 0x7DEB DUP2 PUSH2 0x6368 JUMP JUMPDEST DUP5 ADD SWAP2 POP POP SWAP3 SWAP2 POP POP JUMP JUMPDEST PUSH1 0x0 PUSH1 0x20 DUP3 ADD SWAP1 POP DUP2 DUP2 SUB PUSH1 0x0 DUP4 ADD MSTORE PUSH2 0x7E10 DUP2 DUP5 PUSH2 0x7DBD JUMP JUMPDEST SWAP1 POP SWAP3 SWAP2 POP POP JUMP JUMPDEST PUSH32 0x416464726573733A20696E73756666696369656E742062616C616E6365000000 PUSH1 0x0 DUP3 ADD MSTORE POP JUMP JUMPDEST PUSH1 0x0 PUSH2 0x7E4E PUSH1 0x1D DUP4 PUSH2 0x7479 JUMP JUMPDEST SWAP2 POP PUSH2 0x7E59 DUP3 PUSH2 0x7E18 JUMP JUMPDEST PUSH1 0x20 DUP3 ADD SWAP1 POP SWAP2 SWAP1 POP JUMP JUMPDEST PUSH1 0x0 PUSH1 0x20 DUP3 ADD SWAP1 POP DUP2 DUP2 SUB PUSH1 0x0 DUP4 ADD MSTORE PUSH2 0x7E7D DUP2 PUSH2 0x7E41 JUMP JUMPDEST SWAP1 POP SWAP2 SWAP1 POP JUMP JUMPDEST PUSH1 0x0 DUP2 SWAP1 POP SWAP3 SWAP2 POP POP JUMP JUMPDEST POP JUMP JUMPDEST PUSH1 0x0 PUSH2 0x7E9F PUSH1 0x0 DUP4 PUSH2 0x7E84 JUMP JUMPDEST SWAP2 POP PUSH2 0x7EAA DUP3 PUSH2 0x7E8F JUMP JUMPDEST PUSH1 0x0 DUP3 ADD SWAP1 POP SWAP2 SWAP1 POP JUMP JUMPDEST PUSH1 0x0 PUSH2 0x7EC0 DUP3 PUSH2 0x7E92 JUMP JUMPDEST SWAP2 POP DUP2 SWAP1 POP SWAP2 SWAP1 POP JUMP JUMPDEST PUSH32 0x416464726573733A20756E61626C6520746F2073656E642076616C75652C2072 PUSH1 0x0 DUP3 ADD MSTORE PUSH32 0x6563697069656E74206D61792068617665207265766572746564000000000000 PUSH1 0x20 DUP3 ADD MSTORE POP JUMP JUMPDEST PUSH1 0x0 PUSH2 0x7F26 PUSH1 0x3A DUP4 PUSH2 0x7479 JUMP JUMPDEST SWAP2 POP PUSH2 0x7F31 DUP3 PUSH2 0x7ECA JUMP JUMPDEST PUSH1 0x40 DUP3 ADD SWAP1 POP SWAP2 SWAP1 POP JUMP JUMPDEST PUSH1 0x0 PUSH1 0x20 DUP3 ADD SWAP1 POP DUP2 DUP2 SUB PUSH1 0x0 DUP4 ADD MSTORE PUSH2 0x7F55 DUP2 PUSH2 0x7F19 JUMP JUMPDEST SWAP1 POP SWAP2 SWAP1 POP JUMP JUMPDEST PUSH1 0x0 PUSH1 0x40 DUP3 ADD SWAP1 POP PUSH2 0x7F71 PUSH1 0x0 DUP4 ADD DUP6 PUSH2 0x62C8 JUMP JUMPDEST PUSH2 0x7F7E PUSH1 0x20 DUP4 ADD DUP5 PUSH2 0x6513 JUMP JUMPDEST SWAP4 SWAP3 POP POP POP JUMP JUMPDEST PUSH32 0x537472696E67733A20686578206C656E67746820696E73756666696369656E74 PUSH1 0x0 DUP3 ADD MSTORE POP JUMP JUMPDEST PUSH1 0x0 PUSH2 0x7FBB PUSH1 0x20 DUP4 PUSH2 0x7479 JUMP JUMPDEST SWAP2 POP PUSH2 0x7FC6 DUP3 PUSH2 0x7F85 JUMP JUMPDEST PUSH1 0x20 DUP3 ADD SWAP1 POP SWAP2 SWAP1 POP JUMP JUMPDEST PUSH1 0x0 PUSH1 0x20 DUP3 ADD SWAP1 POP DUP2 DUP2 SUB PUSH1 0x0 DUP4 ADD MSTORE PUSH2 0x7FEA DUP2 PUSH2 0x7FAE JUMP JUMPDEST SWAP1 POP SWAP2 SWAP1 POP JUMP JUMPDEST PUSH32 0x5361666545524332303A204552433230206F7065726174696F6E20646964206E PUSH1 0x0 DUP3 ADD MSTORE PUSH32 0x6F74207375636365656400000000000000000000000000000000000000000000 PUSH1 0x20 DUP3 ADD MSTORE POP JUMP JUMPDEST PUSH1 0x0 PUSH2 0x804D PUSH1 0x2A DUP4 PUSH2 0x7479 JUMP JUMPDEST SWAP2 POP PUSH2 0x8058 DUP3 PUSH2 0x7FF1 JUMP JUMPDEST PUSH1 0x40 DUP3 ADD SWAP1 POP SWAP2 SWAP1 POP JUMP JUMPDEST PUSH1 0x0 PUSH1 0x20 DUP3 ADD SWAP1 POP DUP2 DUP2 SUB PUSH1 0x0 DUP4 ADD MSTORE PUSH2 0x807C DUP2 PUSH2 0x8040 JUMP JUMPDEST SWAP1 POP SWAP2 SWAP1 POP JUMP JUMPDEST PUSH32 0x416464726573733A20696E73756666696369656E742062616C616E636520666F PUSH1 0x0 DUP3 ADD MSTORE PUSH32 0x722063616C6C0000000000000000000000000000000000000000000000000000 PUSH1 0x20 DUP3 ADD MSTORE POP JUMP JUMPDEST PUSH1 0x0 PUSH2 0x80DF PUSH1 0x26 DUP4 PUSH2 0x7479 JUMP JUMPDEST SWAP2 POP PUSH2 0x80EA DUP3 PUSH2 0x8083 JUMP JUMPDEST PUSH1 0x40 DUP3 ADD SWAP1 POP SWAP2 SWAP1 POP JUMP JUMPDEST PUSH1 0x0 PUSH1 0x20 DUP3 ADD SWAP1 POP DUP2 DUP2 SUB PUSH1 0x0 DUP4 ADD MSTORE PUSH2 0x810E DUP2 PUSH2 0x80D2 JUMP JUMPDEST SWAP1 POP SWAP2 SWAP1 POP JUMP JUMPDEST PUSH1 0x0 PUSH2 0x8120 DUP3 PUSH2 0x7173 JUMP JUMPDEST PUSH2 0x812A DUP2 DUP6 PUSH2 0x7E84 JUMP JUMPDEST SWAP4 POP PUSH2 0x813A DUP2 DUP6 PUSH1 0x20 DUP7 ADD PUSH2 0x718F JUMP JUMPDEST DUP1 DUP5 ADD SWAP2 POP POP SWAP3 SWAP2 POP POP JUMP JUMPDEST PUSH1 0x0 PUSH2 0x8152 DUP3 DUP5 PUSH2 0x8115 JUMP JUMPDEST SWAP2 POP DUP2 SWAP1 POP SWAP3 SWAP2 POP POP JUMP JUMPDEST PUSH32 0x416464726573733A2063616C6C20746F206E6F6E2D636F6E7472616374000000 PUSH1 0x0 DUP3 ADD MSTORE POP JUMP JUMPDEST PUSH1 0x0 PUSH2 0x8193 PUSH1 0x1D DUP4 PUSH2 0x7479 JUMP JUMPDEST SWAP2 POP PUSH2 0x819E DUP3 PUSH2 0x815D JUMP JUMPDEST PUSH1 0x20 DUP3 ADD SWAP1 POP SWAP2 SWAP1 POP JUMP JUMPDEST PUSH1 0x0 PUSH1 0x20 DUP3 ADD SWAP1 POP DUP2 DUP2 SUB PUSH1 0x0 DUP4 ADD MSTORE PUSH2 0x81C2 DUP2 PUSH2 0x8186 JUMP JUMPDEST SWAP1 POP SWAP2 SWAP1 POP JUMP INVALID LOG2 PUSH5 0x6970667358 0x22 SLT KECCAK256 0xF PUSH5 0xC04C30AF65 0xE9 0xC9 0xD4 0xA7 0xB3 STATICCALL CODECOPY 0x24 SELFDESTRUCT DUP6 XOR LT DUP4 BYTE 0xEC SHR PUSH31 0x8C64E5CB1347D3D064736F6C63430008120033000000000000000000000000 "
		},
		"gasEstimates": {
			"creation": {
				"codeDepositCost": "6655800",
				"executionCost": "8403",
				"totalCost": "6664203"
			},
			"external": {
				"DEFAULT_ADMIN_ROLE()": "447",
				"addLockManager(address)": "infinite",
				"approve(address,uint256)": "43151",
				"balanceOf(address)": "infinite",
				"burn(uint256)": "67289",
				"expirationDuration()": "2498",
				"extend(uint256,uint256,address,bytes)": "infinite",
				"gasRefundValue()": "2526",
				"getApproved(uint256)": "5228",
				"getHasValidKey(address)": "infinite",
				"getRoleAdmin(bytes32)": "infinite",
				"getTransferFee(uint256,uint256)": "infinite",
				"grantRole(bytes32,address)": "infinite",
				"hasRole(bytes32,address)": "3274",
				"isApprovedForAll(address,address)": "infinite",
				"isLockManager(address)": "3126",
				"isRenewable(uint256,address)": "infinite",
				"isValidKey(uint256)": "infinite",
				"keyExpirationTimestampFor(uint256)": "infinite",
				"keyManagerOf(uint256)": "2929",
				"keyPrice()": "2564",
				"lendKey(address,address,uint256)": "infinite",
				"maxKeysPerAddress()": "2570",
				"maxNumberOfKeys()": "2498",
				"mergeKeys(uint256,uint256,uint256)": "infinite",
				"migrate(bytes)": "infinite",
				"numberOfOwners()": "2497",
				"onKeyCancelHook()": "infinite",
				"onKeyExtendHook()": "infinite",
				"onKeyGrantHook()": "infinite",
				"onKeyPurchaseHook()": "infinite",
				"onKeyTransferHook()": "infinite",
				"onTokenURIHook()": "infinite",
				"onValidKeyHook()": "infinite",
				"ownerOf(uint256)": "2976",
				"publicLockVersion()": "432",
				"purchase(uint256[],address[],address[],address[],bytes[])": "infinite",
				"purchasePriceFor(address,address,bytes)": "infinite",
				"referrerFees(address)": "2948",
				"renewMembershipFor(uint256,address)": "infinite",
				"renounceLockManager()": "infinite",
				"renounceRole(bytes32,address)": "infinite",
				"revokeRole(bytes32,address)": "infinite",
				"safeTransferFrom(address,address,uint256)": "infinite",
				"safeTransferFrom(address,address,uint256,bytes)": "infinite",
				"schemaVersion()": "2541",
				"setApprovalForAll(address,bool)": "infinite",
				"setEventHooks(address,address,address,address,address,address,address)": "infinite",
				"setGasRefundValue(uint256)": "infinite",
				"setKeyManagerOf(uint256,address)": "64694",
				"setReferrerFee(address,uint256)": "infinite",
				"shareKey(address,uint256,uint256)": "infinite",
				"supportsInterface(bytes4)": "797",
				"tokenAddress()": "2604",
				"tokenOfOwnerByIndex(address,uint256)": "infinite",
				"totalKeys(address)": "3011",
				"totalSupply()": "2528",
				"transferFeeBasisPoints()": "2542",
				"transferFrom(address,address,uint256)": "infinite",
				"unlendKey(address,uint256)": "infinite",
				"unlockProtocol()": "infinite",
				"updateKeyPricing(uint256,address)": "infinite",
				"updateLockConfig(uint256,uint256,uint256)": "infinite",
				"updateSchemaVersion()": "24829",
				"updateTransferFee(uint256)": "infinite",
				"withdraw(address,address,uint256)": "infinite"
			},
			"internal": {
				"_checkOnERC721Received(address,address,uint256,bytes memory)": "infinite",
				"_transferFrom(address,address,uint256)": "infinite",
				"_transferNotDisabled()": "infinite"
			}
		},
		"methodIdentifiers": {
			"DEFAULT_ADMIN_ROLE()": "a217fddf",
			"addLockManager(address)": "d2503485",
			"approve(address,uint256)": "095ea7b3",
			"balanceOf(address)": "70a08231",
			"burn(uint256)": "42966c68",
			"expirationDuration()": "11a4c03a",
			"extend(uint256,uint256,address,bytes)": "d813cc19",
			"gasRefundValue()": "6207a8da",
			"getApproved(uint256)": "081812fc",
			"getHasValidKey(address)": "6d8ea5b4",
			"getRoleAdmin(bytes32)": "248a9ca3",
			"getTransferFee(uint256,uint256)": "b1a3b25d",
			"grantRole(bytes32,address)": "2f2ff15d",
			"hasRole(bytes32,address)": "91d14854",
			"isApprovedForAll(address,address)": "e985e9c5",
			"isLockManager(address)": "aae4b8f7",
			"isRenewable(uint256,address)": "50878a47",
			"isValidKey(uint256)": "a98d3623",
			"keyExpirationTimestampFor(uint256)": "54b249fb",
			"keyManagerOf(uint256)": "4d025fed",
			"keyPrice()": "10e56973",
			"lendKey(address,address,uint256)": "0c2db8d1",
			"maxKeysPerAddress()": "d52e4a10",
			"maxNumberOfKeys()": "74b6c106",
			"mergeKeys(uint256,uint256,uint256)": "068208cd",
			"migrate(bytes)": "8932a90d",
			"numberOfOwners()": "93fd1844",
			"onKeyCancelHook()": "217751bc",
			"onKeyExtendHook()": "c907c3ec",
			"onKeyGrantHook()": "b129694e",
			"onKeyPurchaseHook()": "2d33dd5b",
			"onKeyTransferHook()": "389f07e8",
			"onTokenURIHook()": "7ec2a724",
			"onValidKeyHook()": "26e9ca07",
			"ownerOf(uint256)": "6352211e",
			"publicLockVersion()": "d1bbd49c",
			"purchase(uint256[],address[],address[],address[],bytes[])": "33818997",
			"purchasePriceFor(address,address,bytes)": "097ba333",
			"referrerFees(address)": "c23135dd",
			"renewMembershipFor(uint256,address)": "8505fe95",
			"renounceLockManager()": "f0ba6040",
			"renounceRole(bytes32,address)": "36568abe",
			"revokeRole(bytes32,address)": "d547741f",
			"safeTransferFrom(address,address,uint256)": "42842e0e",
			"safeTransferFrom(address,address,uint256,bytes)": "b88d4fde",
			"schemaVersion()": "4e2ce6d3",
			"setApprovalForAll(address,bool)": "a22cb465",
			"setEventHooks(address,address,address,address,address,address,address)": "74cac47d",
			"setGasRefundValue(uint256)": "f5766b39",
			"setKeyManagerOf(uint256,address)": "b11d7ec1",
			"setReferrerFee(address,uint256)": "debe2b0d",
			"shareKey(address,uint256,uint256)": "f12c6b6e",
			"supportsInterface(bytes4)": "01ffc9a7",
			"tokenAddress()": "9d76ea58",
			"tokenOfOwnerByIndex(address,uint256)": "2f745c59",
			"totalKeys(address)": "812eecd4",
			"totalSupply()": "18160ddd",
			"transferFeeBasisPoints()": "183767da",
			"transferFrom(address,address,uint256)": "23b872dd",
			"unlendKey(address,uint256)": "407dc589",
			"unlockProtocol()": "0f15023b",
			"updateKeyPricing(uint256,address)": "a2e4cd2e",
			"updateLockConfig(uint256,uint256,uint256)": "282478df",
			"updateSchemaVersion()": "f32e8b24",
			"updateTransferFee(uint256)": "8577a6d5",
			"withdraw(address,address,uint256)": "d9caed12"
		}
	},
	"abi": [
		{
			"inputs": [],
			"name": "CANNOT_APPROVE_SELF",
			"type": "error"
		},
		{
			"inputs": [],
			"name": "CANT_BE_SMALLER_THAN_SUPPLY",
			"type": "error"
		},
		{
			"inputs": [],
			"name": "CANT_EXTEND_NON_EXPIRING_KEY",
			"type": "error"
		},
		{
			"inputs": [],
			"name": "GAS_REFUND_FAILED",
			"type": "error"
		},
		{
			"inputs": [],
			"name": "INSUFFICIENT_ERC20_VALUE",
			"type": "error"
		},
		{
			"inputs": [],
			"name": "INSUFFICIENT_VALUE",
			"type": "error"
		},
		{
			"inputs": [],
			"name": "INVALID_ADDRESS",
			"type": "error"
		},
		{
			"inputs": [
				{
					"internalType": "uint8",
					"name": "hookIndex",
					"type": "uint8"
				}
			],
			"name": "INVALID_HOOK",
			"type": "error"
		},
		{
			"inputs": [],
			"name": "INVALID_LENGTH",
			"type": "error"
		},
		{
			"inputs": [],
			"name": "INVALID_TOKEN",
			"type": "error"
		},
		{
			"inputs": [],
			"name": "KEY_NOT_VALID",
			"type": "error"
		},
		{
			"inputs": [],
			"name": "KEY_TRANSFERS_DISABLED",
			"type": "error"
		},
		{
			"inputs": [],
			"name": "LOCK_HAS_CHANGED",
			"type": "error"
		},
		{
			"inputs": [],
			"name": "LOCK_SOLD_OUT",
			"type": "error"
		},
		{
			"inputs": [],
			"name": "MAX_KEYS_REACHED",
			"type": "error"
		},
		{
			"inputs": [],
			"name": "MIGRATION_REQUIRED",
			"type": "error"
		},
		{
			"inputs": [],
			"name": "NON_COMPLIANT_ERC721_RECEIVER",
			"type": "error"
		},
		{
			"inputs": [],
			"name": "NON_RENEWABLE_LOCK",
			"type": "error"
		},
		{
			"inputs": [],
			"name": "NOT_ENOUGH_FUNDS",
			"type": "error"
		},
		{
			"inputs": [],
			"name": "NOT_ENOUGH_TIME",
			"type": "error"
		},
		{
			"inputs": [],
			"name": "NOT_READY_FOR_RENEWAL",
			"type": "error"
		},
		{
			"inputs": [],
			"name": "NO_SUCH_KEY",
			"type": "error"
		},
		{
			"inputs": [],
			"name": "NULL_VALUE",
			"type": "error"
		},
		{
			"inputs": [],
			"name": "ONLY_KEY_MANAGER_OR_APPROVED",
			"type": "error"
		},
		{
			"inputs": [],
			"name": "ONLY_LOCK_MANAGER",
			"type": "error"
		},
		{
			"inputs": [],
			"name": "ONLY_LOCK_MANAGER_OR_KEY_GRANTER",
			"type": "error"
		},
		{
			"inputs": [],
			"name": "OUT_OF_RANGE",
			"type": "error"
		},
		{
			"inputs": [],
			"name": "OWNER_CANT_BE_ADDRESS_ZERO",
			"type": "error"
		},
		{
			"inputs": [],
			"name": "SCHEMA_VERSION_NOT_CORRECT",
			"type": "error"
		},
		{
			"inputs": [],
			"name": "TRANSFER_TO_SELF",
			"type": "error"
		},
		{
			"inputs": [],
			"name": "TransferFailed",
			"type": "error"
		},
		{
			"inputs": [],
			"name": "UNAUTHORIZED",
			"type": "error"
		},
		{
			"inputs": [],
			"name": "UNAUTHORIZED_KEY_MANAGER_UPDATE",
			"type": "error"
		},
		{
			"anonymous": false,
			"inputs": [
				{
					"indexed": true,
					"internalType": "address",
					"name": "owner",
					"type": "address"
				},
				{
					"indexed": true,
					"internalType": "address",
					"name": "approved",
					"type": "address"
				},
				{
					"indexed": true,
					"internalType": "uint256",
					"name": "tokenId",
					"type": "uint256"
				}
			],
			"name": "Approval",
			"type": "event"
		},
		{
			"anonymous": false,
			"inputs": [
				{
					"indexed": true,
					"internalType": "address",
					"name": "owner",
					"type": "address"
				},
				{
					"indexed": true,
					"internalType": "address",
					"name": "operator",
					"type": "address"
				},
				{
					"indexed": false,
					"internalType": "bool",
					"name": "approved",
					"type": "bool"
				}
			],
			"name": "ApprovalForAll",
			"type": "event"
		},
		{
			"anonymous": false,
			"inputs": [
				{
					"indexed": false,
					"internalType": "address",
					"name": "onKeyPurchaseHook",
					"type": "address"
				},
				{
					"indexed": false,
					"internalType": "address",
					"name": "onKeyCancelHook",
					"type": "address"
				},
				{
					"indexed": false,
					"internalType": "address",
					"name": "onValidKeyHook",
					"type": "address"
				},
				{
					"indexed": false,
					"internalType": "address",
					"name": "onTokenURIHook",
					"type": "address"
				},
				{
					"indexed": false,
					"internalType": "address",
					"name": "onKeyTransferHook",
					"type": "address"
				},
				{
					"indexed": false,
					"internalType": "address",
					"name": "onKeyExtendHook",
					"type": "address"
				},
				{
					"indexed": false,
					"internalType": "address",
					"name": "onKeyGrantHook",
					"type": "address"
				}
			],
			"name": "EventHooksUpdated",
			"type": "event"
		},
		{
			"anonymous": false,
			"inputs": [
				{
					"indexed": true,
					"internalType": "uint256",
					"name": "tokenId",
					"type": "uint256"
				},
				{
					"indexed": false,
					"internalType": "uint256",
					"name": "newExpiration",
					"type": "uint256"
				},
				{
					"indexed": false,
					"internalType": "uint256",
					"name": "amount",
					"type": "uint256"
				},
				{
					"indexed": false,
					"internalType": "bool",
					"name": "timeAdded",
					"type": "bool"
				}
			],
			"name": "ExpirationChanged",
			"type": "event"
		},
		{
			"anonymous": false,
			"inputs": [
				{
					"indexed": true,
					"internalType": "uint256",
					"name": "tokenId",
					"type": "uint256"
				}
			],
			"name": "ExpireKey",
			"type": "event"
		},
		{
			"anonymous": false,
			"inputs": [
				{
					"indexed": false,
					"internalType": "uint256",
					"name": "refundValue",
					"type": "uint256"
				}
			],
			"name": "GasRefundValueChanged",
			"type": "event"
		},
		{
			"anonymous": false,
			"inputs": [
				{
					"indexed": true,
					"internalType": "address",
					"name": "receiver",
					"type": "address"
				},
				{
					"indexed": false,
					"internalType": "uint256",
					"name": "refundedAmount",
					"type": "uint256"
				},
				{
					"indexed": false,
					"internalType": "address",
					"name": "tokenAddress",
					"type": "address"
				}
			],
			"name": "GasRefunded",
			"type": "event"
		},
		{
			"anonymous": false,
			"inputs": [
				{
					"indexed": false,
					"internalType": "uint8",
					"name": "version",
					"type": "uint8"
				}
			],
			"name": "Initialized",
			"type": "event"
		},
		{
			"anonymous": false,
			"inputs": [
				{
					"indexed": true,
					"internalType": "uint256",
					"name": "tokenId",
					"type": "uint256"
				},
				{
					"indexed": false,
					"internalType": "uint256",
					"name": "newTimestamp",
					"type": "uint256"
				}
			],
			"name": "KeyExtended",
			"type": "event"
		},
		{
			"anonymous": false,
			"inputs": [
				{
					"indexed": true,
					"internalType": "address",
					"name": "account",
					"type": "address"
				}
			],
			"name": "KeyGranterAdded",
			"type": "event"
		},
		{
			"anonymous": false,
			"inputs": [
				{
					"indexed": true,
					"internalType": "address",
					"name": "account",
					"type": "address"
				}
			],
			"name": "KeyGranterRemoved",
			"type": "event"
		},
		{
			"anonymous": false,
			"inputs": [
				{
					"indexed": true,
					"internalType": "uint256",
					"name": "_tokenId",
					"type": "uint256"
				},
				{
					"indexed": true,
					"internalType": "address",
					"name": "_newManager",
					"type": "address"
				}
			],
			"name": "KeyManagerChanged",
			"type": "event"
		},
		{
			"anonymous": false,
			"inputs": [
				{
					"indexed": false,
					"internalType": "uint256",
					"name": "updatedRecordsCount",
					"type": "uint256"
				}
			],
			"name": "KeysMigrated",
			"type": "event"
		},
		{
			"anonymous": false,
			"inputs": [
				{
					"indexed": false,
					"internalType": "uint256",
					"name": "expirationDuration",
					"type": "uint256"
				},
				{
					"indexed": false,
					"internalType": "uint256",
					"name": "maxNumberOfKeys",
					"type": "uint256"
				},
				{
					"indexed": false,
					"internalType": "uint256",
					"name": "maxKeysPerAcccount",
					"type": "uint256"
				}
			],
			"name": "LockConfig",
			"type": "event"
		},
		{
			"anonymous": false,
			"inputs": [
				{
					"indexed": true,
					"internalType": "address",
					"name": "account",
					"type": "address"
				}
			],
			"name": "LockManagerAdded",
			"type": "event"
		},
		{
			"anonymous": false,
			"inputs": [
				{
					"indexed": true,
					"internalType": "address",
					"name": "account",
					"type": "address"
				}
			],
			"name": "LockManagerRemoved",
			"type": "event"
		},
		{
			"anonymous": false,
			"inputs": [
				{
					"indexed": false,
					"internalType": "uint256",
					"name": "oldKeyPrice",
					"type": "uint256"
				},
				{
					"indexed": false,
					"internalType": "uint256",
					"name": "keyPrice",
					"type": "uint256"
				},
				{
					"indexed": false,
					"internalType": "address",
					"name": "oldTokenAddress",
					"type": "address"
				},
				{
					"indexed": false,
					"internalType": "address",
					"name": "tokenAddress",
					"type": "address"
				}
			],
			"name": "PricingChanged",
			"type": "event"
		},
		{
			"anonymous": false,
			"inputs": [
				{
					"indexed": true,
					"internalType": "address",
					"name": "referrer",
					"type": "address"
				},
				{
					"indexed": false,
					"internalType": "uint256",
					"name": "fee",
					"type": "uint256"
				}
			],
			"name": "ReferrerFee",
			"type": "event"
		},
		{
			"anonymous": false,
			"inputs": [
				{
					"indexed": true,
					"internalType": "bytes32",
					"name": "role",
					"type": "bytes32"
				},
				{
					"indexed": true,
					"internalType": "bytes32",
					"name": "previousAdminRole",
					"type": "bytes32"
				},
				{
					"indexed": true,
					"internalType": "bytes32",
					"name": "newAdminRole",
					"type": "bytes32"
				}
			],
			"name": "RoleAdminChanged",
			"type": "event"
		},
		{
			"anonymous": false,
			"inputs": [
				{
					"indexed": true,
					"internalType": "bytes32",
					"name": "role",
					"type": "bytes32"
				},
				{
					"indexed": true,
					"internalType": "address",
					"name": "account",
					"type": "address"
				},
				{
					"indexed": true,
					"internalType": "address",
					"name": "sender",
					"type": "address"
				}
			],
			"name": "RoleGranted",
			"type": "event"
		},
		{
			"anonymous": false,
			"inputs": [
				{
					"indexed": true,
					"internalType": "bytes32",
					"name": "role",
					"type": "bytes32"
				},
				{
					"indexed": true,
					"internalType": "address",
					"name": "account",
					"type": "address"
				},
				{
					"indexed": true,
					"internalType": "address",
					"name": "sender",
					"type": "address"
				}
			],
			"name": "RoleRevoked",
			"type": "event"
		},
		{
			"anonymous": false,
			"inputs": [
				{
					"indexed": true,
					"internalType": "address",
					"name": "from",
					"type": "address"
				},
				{
					"indexed": true,
					"internalType": "address",
					"name": "to",
					"type": "address"
				},
				{
					"indexed": true,
					"internalType": "uint256",
					"name": "tokenId",
					"type": "uint256"
				}
			],
			"name": "Transfer",
			"type": "event"
		},
		{
			"anonymous": false,
			"inputs": [
				{
					"indexed": false,
					"internalType": "uint256",
					"name": "transferFeeBasisPoints",
					"type": "uint256"
				}
			],
			"name": "TransferFeeChanged",
			"type": "event"
		},
		{
			"anonymous": false,
			"inputs": [
				{
					"indexed": true,
					"internalType": "address",
					"name": "lockAddress",
					"type": "address"
				},
				{
					"indexed": false,
					"internalType": "address",
					"name": "unlockAddress",
					"type": "address"
				}
			],
			"name": "UnlockCallFailed",
			"type": "event"
		},
		{
			"anonymous": false,
			"inputs": [
				{
					"indexed": true,
					"internalType": "address",
					"name": "sender",
					"type": "address"
				},
				{
					"indexed": true,
					"internalType": "address",
					"name": "tokenAddress",
					"type": "address"
				},
				{
					"indexed": true,
					"internalType": "address",
					"name": "recipient",
					"type": "address"
				},
				{
					"indexed": false,
					"internalType": "uint256",
					"name": "amount",
					"type": "uint256"
				}
			],
			"name": "Withdrawal",
			"type": "event"
		},
		{
			"inputs": [],
			"name": "DEFAULT_ADMIN_ROLE",
			"outputs": [
				{
					"internalType": "bytes32",
					"name": "",
					"type": "bytes32"
				}
			],
			"stateMutability": "view",
			"type": "function"
		},
		{
			"inputs": [
				{
					"internalType": "address",
					"name": "account",
					"type": "address"
				}
			],
			"name": "addLockManager",
			"outputs": [],
			"stateMutability": "nonpayable",
			"type": "function"
		},
		{
			"inputs": [
				{
					"internalType": "address",
					"name": "_approved",
					"type": "address"
				},
				{
					"internalType": "uint256",
					"name": "_tokenId",
					"type": "uint256"
				}
			],
			"name": "approve",
			"outputs": [],
			"stateMutability": "nonpayable",
			"type": "function"
		},
		{
			"inputs": [
				{
					"internalType": "address",
					"name": "_keyOwner",
					"type": "address"
				}
			],
			"name": "balanceOf",
			"outputs": [
				{
					"internalType": "uint256",
					"name": "balance",
					"type": "uint256"
				}
			],
			"stateMutability": "view",
			"type": "function"
		},
		{
			"inputs": [
				{
					"internalType": "uint256",
					"name": "_tokenId",
					"type": "uint256"
				}
			],
			"name": "burn",
			"outputs": [],
			"stateMutability": "nonpayable",
			"type": "function"
		},
		{
			"inputs": [],
			"name": "expirationDuration",
			"outputs": [
				{
					"internalType": "uint256",
					"name": "",
					"type": "uint256"
				}
			],
			"stateMutability": "view",
			"type": "function"
		},
		{
			"inputs": [
				{
					"internalType": "uint256",
					"name": "_value",
					"type": "uint256"
				},
				{
					"internalType": "uint256",
					"name": "_tokenId",
					"type": "uint256"
				},
				{
					"internalType": "address",
					"name": "_referrer",
					"type": "address"
				},
				{
					"internalType": "bytes",
					"name": "_data",
					"type": "bytes"
				}
			],
			"name": "extend",
			"outputs": [],
			"stateMutability": "payable",
			"type": "function"
		},
		{
			"inputs": [],
			"name": "gasRefundValue",
			"outputs": [
				{
					"internalType": "uint256",
					"name": "_refundValue",
					"type": "uint256"
				}
			],
			"stateMutability": "view",
			"type": "function"
		},
		{
			"inputs": [
				{
					"internalType": "uint256",
					"name": "_tokenId",
					"type": "uint256"
				}
			],
			"name": "getApproved",
			"outputs": [
				{
					"internalType": "address",
					"name": "",
					"type": "address"
				}
			],
			"stateMutability": "view",
			"type": "function"
		},
		{
			"inputs": [
				{
					"internalType": "address",
					"name": "_keyOwner",
					"type": "address"
				}
			],
			"name": "getHasValidKey",
			"outputs": [
				{
					"internalType": "bool",
					"name": "isValid",
					"type": "bool"
				}
			],
			"stateMutability": "view",
			"type": "function"
		},
		{
			"inputs": [
				{
					"internalType": "bytes32",
					"name": "role",
					"type": "bytes32"
				}
			],
			"name": "getRoleAdmin",
			"outputs": [
				{
					"internalType": "bytes32",
					"name": "",
					"type": "bytes32"
				}
			],
			"stateMutability": "view",
			"type": "function"
		},
		{
			"inputs": [
				{
					"internalType": "uint256",
					"name": "_tokenId",
					"type": "uint256"
				},
				{
					"internalType": "uint256",
					"name": "_time",
					"type": "uint256"
				}
			],
			"name": "getTransferFee",
			"outputs": [
				{
					"internalType": "uint256",
					"name": "",
					"type": "uint256"
				}
			],
			"stateMutability": "view",
			"type": "function"
		},
		{
			"inputs": [
				{
					"internalType": "bytes32",
					"name": "role",
					"type": "bytes32"
				},
				{
					"internalType": "address",
					"name": "account",
					"type": "address"
				}
			],
			"name": "grantRole",
			"outputs": [],
			"stateMutability": "nonpayable",
			"type": "function"
		},
		{
			"inputs": [
				{
					"internalType": "bytes32",
					"name": "role",
					"type": "bytes32"
				},
				{
					"internalType": "address",
					"name": "account",
					"type": "address"
				}
			],
			"name": "hasRole",
			"outputs": [
				{
					"internalType": "bool",
					"name": "",
					"type": "bool"
				}
			],
			"stateMutability": "view",
			"type": "function"
		},
		{
			"inputs": [
				{
					"internalType": "address",
					"name": "_owner",
					"type": "address"
				},
				{
					"internalType": "address",
					"name": "_operator",
					"type": "address"
				}
			],
			"name": "isApprovedForAll",
			"outputs": [
				{
					"internalType": "bool",
					"name": "",
					"type": "bool"
				}
			],
			"stateMutability": "view",
			"type": "function"
		},
		{
			"inputs": [
				{
					"internalType": "address",
					"name": "account",
					"type": "address"
				}
			],
			"name": "isLockManager",
			"outputs": [
				{
					"internalType": "bool",
					"name": "",
					"type": "bool"
				}
			],
			"stateMutability": "view",
			"type": "function"
		},
		{
			"inputs": [
				{
					"internalType": "uint256",
					"name": "_tokenId",
					"type": "uint256"
				},
				{
					"internalType": "address",
					"name": "_referrer",
					"type": "address"
				}
			],
			"name": "isRenewable",
			"outputs": [
				{
					"internalType": "bool",
					"name": "",
					"type": "bool"
				}
			],
			"stateMutability": "view",
			"type": "function"
		},
		{
			"inputs": [
				{
					"internalType": "uint256",
					"name": "_tokenId",
					"type": "uint256"
				}
			],
			"name": "isValidKey",
			"outputs": [
				{
					"internalType": "bool",
					"name": "",
					"type": "bool"
				}
			],
			"stateMutability": "view",
			"type": "function"
		},
		{
			"inputs": [
				{
					"internalType": "uint256",
					"name": "_tokenId",
					"type": "uint256"
				}
			],
			"name": "keyExpirationTimestampFor",
			"outputs": [
				{
					"internalType": "uint256",
					"name": "",
					"type": "uint256"
				}
			],
			"stateMutability": "view",
			"type": "function"
		},
		{
			"inputs": [
				{
					"internalType": "uint256",
					"name": "",
					"type": "uint256"
				}
			],
			"name": "keyManagerOf",
			"outputs": [
				{
					"internalType": "address",
					"name": "",
					"type": "address"
				}
			],
			"stateMutability": "view",
			"type": "function"
		},
		{
			"inputs": [],
			"name": "keyPrice",
			"outputs": [
				{
					"internalType": "uint256",
					"name": "",
					"type": "uint256"
				}
			],
			"stateMutability": "view",
			"type": "function"
		},
		{
			"inputs": [
				{
					"internalType": "address",
					"name": "_from",
					"type": "address"
				},
				{
					"internalType": "address",
					"name": "_recipient",
					"type": "address"
				},
				{
					"internalType": "uint256",
					"name": "_tokenId",
					"type": "uint256"
				}
			],
			"name": "lendKey",
			"outputs": [],
			"stateMutability": "nonpayable",
			"type": "function"
		},
		{
			"inputs": [],
			"name": "maxKeysPerAddress",
			"outputs": [
				{
					"internalType": "uint256",
					"name": "",
					"type": "uint256"
				}
			],
			"stateMutability": "view",
			"type": "function"
		},
		{
			"inputs": [],
			"name": "maxNumberOfKeys",
			"outputs": [
				{
					"internalType": "uint256",
					"name": "",
					"type": "uint256"
				}
			],
			"stateMutability": "view",
			"type": "function"
		},
		{
			"inputs": [
				{
					"internalType": "uint256",
					"name": "_tokenIdFrom",
					"type": "uint256"
				},
				{
					"internalType": "uint256",
					"name": "_tokenIdTo",
					"type": "uint256"
				},
				{
					"internalType": "uint256",
					"name": "_amount",
					"type": "uint256"
				}
			],
			"name": "mergeKeys",
			"outputs": [],
			"stateMutability": "nonpayable",
			"type": "function"
		},
		{
			"inputs": [
				{
					"internalType": "bytes",
					"name": "",
					"type": "bytes"
				}
			],
			"name": "migrate",
			"outputs": [],
			"stateMutability": "nonpayable",
			"type": "function"
		},
		{
			"inputs": [],
			"name": "numberOfOwners",
			"outputs": [
				{
					"internalType": "uint256",
					"name": "",
					"type": "uint256"
				}
			],
			"stateMutability": "view",
			"type": "function"
		},
		{
			"inputs": [],
			"name": "onKeyCancelHook",
			"outputs": [
				{
					"internalType": "contract ILockKeyCancelHook",
					"name": "",
					"type": "address"
				}
			],
			"stateMutability": "view",
			"type": "function"
		},
		{
			"inputs": [],
			"name": "onKeyExtendHook",
			"outputs": [
				{
					"internalType": "contract ILockKeyExtendHook",
					"name": "",
					"type": "address"
				}
			],
			"stateMutability": "view",
			"type": "function"
		},
		{
			"inputs": [],
			"name": "onKeyGrantHook",
			"outputs": [
				{
					"internalType": "contract ILockKeyGrantHook",
					"name": "",
					"type": "address"
				}
			],
			"stateMutability": "view",
			"type": "function"
		},
		{
			"inputs": [],
			"name": "onKeyPurchaseHook",
			"outputs": [
				{
					"internalType": "contract ILockKeyPurchaseHook",
					"name": "",
					"type": "address"
				}
			],
			"stateMutability": "view",
			"type": "function"
		},
		{
			"inputs": [],
			"name": "onKeyTransferHook",
			"outputs": [
				{
					"internalType": "contract ILockKeyTransferHook",
					"name": "",
					"type": "address"
				}
			],
			"stateMutability": "view",
			"type": "function"
		},
		{
			"inputs": [],
			"name": "onTokenURIHook",
			"outputs": [
				{
					"internalType": "contract ILockTokenURIHook",
					"name": "",
					"type": "address"
				}
			],
			"stateMutability": "view",
			"type": "function"
		},
		{
			"inputs": [],
			"name": "onValidKeyHook",
			"outputs": [
				{
					"internalType": "contract ILockValidKeyHook",
					"name": "",
					"type": "address"
				}
			],
			"stateMutability": "view",
			"type": "function"
		},
		{
			"inputs": [
				{
					"internalType": "uint256",
					"name": "_tokenId",
					"type": "uint256"
				}
			],
			"name": "ownerOf",
			"outputs": [
				{
					"internalType": "address",
					"name": "",
					"type": "address"
				}
			],
			"stateMutability": "view",
			"type": "function"
		},
		{
			"inputs": [],
			"name": "publicLockVersion",
			"outputs": [
				{
					"internalType": "uint16",
					"name": "",
					"type": "uint16"
				}
			],
			"stateMutability": "pure",
			"type": "function"
		},
		{
			"inputs": [
				{
					"internalType": "uint256[]",
					"name": "_values",
					"type": "uint256[]"
				},
				{
					"internalType": "address[]",
					"name": "_recipients",
					"type": "address[]"
				},
				{
					"internalType": "address[]",
					"name": "_referrers",
					"type": "address[]"
				},
				{
					"internalType": "address[]",
					"name": "_keyManagers",
					"type": "address[]"
				},
				{
					"internalType": "bytes[]",
					"name": "_data",
					"type": "bytes[]"
				}
			],
			"name": "purchase",
			"outputs": [
				{
					"internalType": "uint256[]",
					"name": "",
					"type": "uint256[]"
				}
			],
			"stateMutability": "payable",
			"type": "function"
		},
		{
			"inputs": [
				{
					"internalType": "address",
					"name": "_recipient",
					"type": "address"
				},
				{
					"internalType": "address",
					"name": "_referrer",
					"type": "address"
				},
				{
					"internalType": "bytes",
					"name": "_data",
					"type": "bytes"
				}
			],
			"name": "purchasePriceFor",
			"outputs": [
				{
					"internalType": "uint256",
					"name": "minKeyPrice",
					"type": "uint256"
				}
			],
			"stateMutability": "view",
			"type": "function"
		},
		{
			"inputs": [
				{
					"internalType": "address",
					"name": "",
					"type": "address"
				}
			],
			"name": "referrerFees",
			"outputs": [
				{
					"internalType": "uint256",
					"name": "",
					"type": "uint256"
				}
			],
			"stateMutability": "view",
			"type": "function"
		},
		{
			"inputs": [
				{
					"internalType": "uint256",
					"name": "_tokenId",
					"type": "uint256"
				},
				{
					"internalType": "address",
					"name": "_referrer",
					"type": "address"
				}
			],
			"name": "renewMembershipFor",
			"outputs": [],
			"stateMutability": "nonpayable",
			"type": "function"
		},
		{
			"inputs": [],
			"name": "renounceLockManager",
			"outputs": [],
			"stateMutability": "nonpayable",
			"type": "function"
		},
		{
			"inputs": [
				{
					"internalType": "bytes32",
					"name": "role",
					"type": "bytes32"
				},
				{
					"internalType": "address",
					"name": "account",
					"type": "address"
				}
			],
			"name": "renounceRole",
			"outputs": [],
			"stateMutability": "nonpayable",
			"type": "function"
		},
		{
			"inputs": [
				{
					"internalType": "bytes32",
					"name": "role",
					"type": "bytes32"
				},
				{
					"internalType": "address",
					"name": "account",
					"type": "address"
				}
			],
			"name": "revokeRole",
			"outputs": [],
			"stateMutability": "nonpayable",
			"type": "function"
		},
		{
			"inputs": [
				{
					"internalType": "address",
					"name": "_from",
					"type": "address"
				},
				{
					"internalType": "address",
					"name": "_to",
					"type": "address"
				},
				{
					"internalType": "uint256",
					"name": "_tokenId",
					"type": "uint256"
				}
			],
			"name": "safeTransferFrom",
			"outputs": [],
			"stateMutability": "nonpayable",
			"type": "function"
		},
		{
			"inputs": [
				{
					"internalType": "address",
					"name": "_from",
					"type": "address"
				},
				{
					"internalType": "address",
					"name": "_to",
					"type": "address"
				},
				{
					"internalType": "uint256",
					"name": "_tokenId",
					"type": "uint256"
				},
				{
					"internalType": "bytes",
					"name": "_data",
					"type": "bytes"
				}
			],
			"name": "safeTransferFrom",
			"outputs": [],
			"stateMutability": "nonpayable",
			"type": "function"
		},
		{
			"inputs": [],
			"name": "schemaVersion",
			"outputs": [
				{
					"internalType": "uint256",
					"name": "",
					"type": "uint256"
				}
			],
			"stateMutability": "view",
			"type": "function"
		},
		{
			"inputs": [
				{
					"internalType": "address",
					"name": "_to",
					"type": "address"
				},
				{
					"internalType": "bool",
					"name": "_approved",
					"type": "bool"
				}
			],
			"name": "setApprovalForAll",
			"outputs": [],
			"stateMutability": "nonpayable",
			"type": "function"
		},
		{
			"inputs": [
				{
					"internalType": "address",
					"name": "_onKeyPurchaseHook",
					"type": "address"
				},
				{
					"internalType": "address",
					"name": "_onKeyCancelHook",
					"type": "address"
				},
				{
					"internalType": "address",
					"name": "_onValidKeyHook",
					"type": "address"
				},
				{
					"internalType": "address",
					"name": "_onTokenURIHook",
					"type": "address"
				},
				{
					"internalType": "address",
					"name": "_onKeyTransferHook",
					"type": "address"
				},
				{
					"internalType": "address",
					"name": "_onKeyExtendHook",
					"type": "address"
				},
				{
					"internalType": "address",
					"name": "_onKeyGrantHook",
					"type": "address"
				}
			],
			"name": "setEventHooks",
			"outputs": [],
			"stateMutability": "nonpayable",
			"type": "function"
		},
		{
			"inputs": [
				{
					"internalType": "uint256",
					"name": "_refundValue",
					"type": "uint256"
				}
			],
			"name": "setGasRefundValue",
			"outputs": [],
			"stateMutability": "nonpayable",
			"type": "function"
		},
		{
			"inputs": [
				{
					"internalType": "uint256",
					"name": "_tokenId",
					"type": "uint256"
				},
				{
					"internalType": "address",
					"name": "_keyManager",
					"type": "address"
				}
			],
			"name": "setKeyManagerOf",
			"outputs": [],
			"stateMutability": "nonpayable",
			"type": "function"
		},
		{
			"inputs": [
				{
					"internalType": "address",
					"name": "_referrer",
					"type": "address"
				},
				{
					"internalType": "uint256",
					"name": "_feeBasisPoint",
					"type": "uint256"
				}
			],
			"name": "setReferrerFee",
			"outputs": [],
			"stateMutability": "nonpayable",
			"type": "function"
		},
		{
			"inputs": [
				{
					"internalType": "address",
					"name": "_to",
					"type": "address"
				},
				{
					"internalType": "uint256",
					"name": "_tokenIdFrom",
					"type": "uint256"
				},
				{
					"internalType": "uint256",
					"name": "_timeShared",
					"type": "uint256"
				}
			],
			"name": "shareKey",
			"outputs": [],
			"stateMutability": "nonpayable",
			"type": "function"
		},
		{
			"inputs": [
				{
					"internalType": "bytes4",
					"name": "interfaceId",
					"type": "bytes4"
				}
			],
			"name": "supportsInterface",
			"outputs": [
				{
					"internalType": "bool",
					"name": "",
					"type": "bool"
				}
			],
			"stateMutability": "view",
			"type": "function"
		},
		{
			"inputs": [],
			"name": "tokenAddress",
			"outputs": [
				{
					"internalType": "address",
					"name": "",
					"type": "address"
				}
			],
			"stateMutability": "view",
			"type": "function"
		},
		{
			"inputs": [
				{
					"internalType": "address",
					"name": "_keyOwner",
					"type": "address"
				},
				{
					"internalType": "uint256",
					"name": "_index",
					"type": "uint256"
				}
			],
			"name": "tokenOfOwnerByIndex",
			"outputs": [
				{
					"internalType": "uint256",
					"name": "",
					"type": "uint256"
				}
			],
			"stateMutability": "view",
			"type": "function"
		},
		{
			"inputs": [
				{
					"internalType": "address",
					"name": "_keyOwner",
					"type": "address"
				}
			],
			"name": "totalKeys",
			"outputs": [
				{
					"internalType": "uint256",
					"name": "",
					"type": "uint256"
				}
			],
			"stateMutability": "view",
			"type": "function"
		},
		{
			"inputs": [],
			"name": "totalSupply",
			"outputs": [
				{
					"internalType": "uint256",
					"name": "",
					"type": "uint256"
				}
			],
			"stateMutability": "view",
			"type": "function"
		},
		{
			"inputs": [],
			"name": "transferFeeBasisPoints",
			"outputs": [
				{
					"internalType": "uint256",
					"name": "",
					"type": "uint256"
				}
			],
			"stateMutability": "view",
			"type": "function"
		},
		{
			"inputs": [
				{
					"internalType": "address",
					"name": "_from",
					"type": "address"
				},
				{
					"internalType": "address",
					"name": "_recipient",
					"type": "address"
				},
				{
					"internalType": "uint256",
					"name": "_tokenId",
					"type": "uint256"
				}
			],
			"name": "transferFrom",
			"outputs": [],
			"stateMutability": "nonpayable",
			"type": "function"
		},
		{
			"inputs": [
				{
					"internalType": "address",
					"name": "_recipient",
					"type": "address"
				},
				{
					"internalType": "uint256",
					"name": "_tokenId",
					"type": "uint256"
				}
			],
			"name": "unlendKey",
			"outputs": [],
			"stateMutability": "nonpayable",
			"type": "function"
		},
		{
			"inputs": [],
			"name": "unlockProtocol",
			"outputs": [
				{
					"internalType": "contract IUnlock",
					"name": "",
					"type": "address"
				}
			],
			"stateMutability": "view",
			"type": "function"
		},
		{
			"inputs": [
				{
					"internalType": "uint256",
					"name": "_keyPrice",
					"type": "uint256"
				},
				{
					"internalType": "address",
					"name": "_tokenAddress",
					"type": "address"
				}
			],
			"name": "updateKeyPricing",
			"outputs": [],
			"stateMutability": "nonpayable",
			"type": "function"
		},
		{
			"inputs": [
				{
					"internalType": "uint256",
					"name": "_newExpirationDuration",
					"type": "uint256"
				},
				{
					"internalType": "uint256",
					"name": "_maxNumberOfKeys",
					"type": "uint256"
				},
				{
					"internalType": "uint256",
					"name": "_maxKeysPerAcccount",
					"type": "uint256"
				}
			],
			"name": "updateLockConfig",
			"outputs": [],
			"stateMutability": "nonpayable",
			"type": "function"
		},
		{
			"inputs": [],
			"name": "updateSchemaVersion",
			"outputs": [],
			"stateMutability": "nonpayable",
			"type": "function"
		},
		{
			"inputs": [
				{
					"internalType": "uint256",
					"name": "_transferFeeBasisPoints",
					"type": "uint256"
				}
			],
			"name": "updateTransferFee",
			"outputs": [],
			"stateMutability": "nonpayable",
			"type": "function"
		},
		{
			"inputs": [
				{
					"internalType": "address",
					"name": "_tokenAddress",
					"type": "address"
				},
				{
					"internalType": "address payable",
					"name": "_recipient",
					"type": "address"
				},
				{
					"internalType": "uint256",
					"name": "_amount",
					"type": "uint256"
				}
			],
			"name": "withdraw",
			"outputs": [],
			"stateMutability": "nonpayable",
			"type": "function"
		}
	]
}