{
	"data": {
		"bytecode": {
			"linkReferences": {},
			"object": "608060405234801561001057600080fd5b50614a17806100206000396000f3fe608060405234801561001057600080fd5b50600436106102a05760003560e01c806370a0823111610167578063aae4b8f7116100ce578063d52e4a1011610087578063d52e4a1014610877578063d547741f14610895578063d9caed12146108b1578063e985e9c5146108cd578063f0ba6040146108fd578063f32e8b2414610907576102a0565b8063aae4b8f7146107b5578063b11d7ec1146107e5578063b129694e14610801578063c907c3ec1461081f578063d1bbd49c1461083d578063d25034851461085b576102a0565b806391d148541161012057806391d14854146106df57806393fd18441461070f5780639d76ea581461072d578063a217fddf1461074b578063a2e4cd2e14610769578063a98d362314610785576102a0565b806370a082311461060b57806374b6c1061461063b57806374cac47d146106595780637ec2a72414610675578063812eecd4146106935780638932a90d146106c3576102a0565b80632d33dd5b1161020b5780634d025fed116101c45780634d025fed146104fd5780634e2ce6d31461052d5780634f6ccce71461054b57806354b249fb1461057b5780636352211e146105ab5780636d8ea5b4146105db576102a0565b80632d33dd5b1461043d5780632f2ff15d1461045b5780632f745c591461047757806336568abe146104a7578063389f07e8146104c357806342966c68146104e1576102a0565b806311a4c03a1161025d57806311a4c03a1461037957806318160ddd14610397578063217751bc146103b5578063248a9ca3146103d357806326e9ca0714610403578063282478df14610421576102a0565b806301ffc9a7146102a5578063068208cd146102d5578063081812fc146102f1578063095ea7b3146103215780630f15023b1461033d57806310e569731461035b575b600080fd5b6102bf60048036038101906102ba91906134b2565b610911565b6040516102cc91906134fa565b60405180910390f35b6102ef60048036038101906102ea919061354b565b610923565b005b61030b6004803603810190610306919061359e565b6109b1565b604051610318919061360c565b60405180910390f35b61033b60048036038101906103369190613653565b6109fe565b005b610345610b52565b60405161035291906136f2565b60405180910390f35b610363610b79565b604051610370919061371c565b60405180910390f35b610381610b80565b60405161038e919061371c565b60405180910390f35b61039f610b87565b6040516103ac919061371c565b60405180910390f35b6103bd610b92565b6040516103ca9190613758565b60405180910390f35b6103ed60048036038101906103e891906137a9565b610bb9565b6040516103fa91906137e5565b60405180910390f35b61040b610bd9565b6040516104189190613821565b60405180910390f35b61043b6004803603810190610436919061354b565b610c00565b005b610445610cda565b604051610452919061385d565b60405180910390f35b61047560048036038101906104709190613878565b610d01565b005b610491600480360381019061048c9190613653565b610d22565b60405161049e919061371c565b60405180910390f35b6104c160048036038101906104bc9190613878565b610dbf565b005b6104cb610e42565b6040516104d891906138d9565b60405180910390f35b6104fb60048036038101906104f6919061359e565b610e69565b005b6105176004803603810190610512919061359e565b610f6b565b604051610524919061360c565b60405180910390f35b610535610f9f565b604051610542919061371c565b60405180910390f35b6105656004803603810190610560919061359e565b610fa6565b604051610572919061371c565b60405180910390f35b6105956004803603810190610590919061359e565b610fec565b6040516105a2919061371c565b60405180910390f35b6105c560048036038101906105c0919061359e565b61100d565b6040516105d2919061360c565b60405180910390f35b6105f560048036038101906105f091906138f4565b61104b565b60405161060291906134fa565b60405180910390f35b610625600480360381019061062091906138f4565b611179565b604051610632919061371c565b60405180910390f35b6106436111d2565b604051610650919061371c565b60405180910390f35b610673600480360381019061066e9190613921565b6111d9565b005b61067d61183f565b60405161068a91906139e4565b60405180910390f35b6106ad60048036038101906106a891906138f4565b611866565b6040516106ba919061371c565b60405180910390f35b6106dd60048036038101906106d89190613a64565b611915565b005b6106f960048036038101906106f49190613878565b611a5b565b60405161070691906134fa565b60405180910390f35b610717611ac6565b604051610724919061371c565b60405180910390f35b610735611acd565b604051610742919061360c565b60405180910390f35b610753611af4565b60405161076091906137e5565b60405180910390f35b610783600480360381019061077e9190613ab1565b611afb565b005b61079f600480360381019061079a919061359e565b611bef565b6040516107ac91906134fa565b60405180910390f35b6107cf60048036038101906107ca91906138f4565b611d63565b6040516107dc91906134fa565b60405180910390f35b6107ff60048036038101906107fa9190613ab1565b611d96565b005b610809611e01565b6040516108169190613b12565b60405180910390f35b610827611e28565b6040516108349190613b4e565b60405180910390f35b610845611e4f565b6040516108529190613b86565b60405180910390f35b610875600480360381019061087091906138f4565b611e58565b005b61087f611ed0565b60405161088c919061371c565b60405180910390f35b6108af60048036038101906108aa9190613878565b611edb565b005b6108cb60048036038101906108c69190613bdf565b611efc565b005b6108e760048036038101906108e29190613c32565b6120a6565b6040516108f491906134fa565b60405180910390f35b61090561213b565b005b61090f6121aa565b005b600061091c826121c7565b9050919050565b61092c83612241565b61093583612295565b61093e836122d7565b61094782612241565b4261095184610fec565b61095b9190613ca1565b811115610994576040517f8744776800000000000000000000000000000000000000000000000000000000815260040160405180910390fd5b6109a083826000612489565b6109ac82826001612489565b505050565b60006109bc82612241565b6000611079600084815260200190815260200160002060009054906101000a900473ffffffffffffffffffffffffffffffffffffffff16905080915050919050565b610a07816122d7565b8173ffffffffffffffffffffffffffffffffffffffff163373ffffffffffffffffffffffffffffffffffffffff1603610a6c576040517ff13228ca00000000000000000000000000000000000000000000000000000000815260040160405180910390fd5b81611079600083815260200190815260200160002060006101000a81548173ffffffffffffffffffffffffffffffffffffffff021916908373ffffffffffffffffffffffffffffffffffffffff160217905550808273ffffffffffffffffffffffffffffffffffffffff16611076600084815260200190815260200160002060009054906101000a900473ffffffffffffffffffffffffffffffffffffffff1673ffffffffffffffffffffffffffffffffffffffff167f8c5be1e5ebec7d5bd14f71427d1e84f3dd0314c0f7b2291e5b200ac8c7c3b92560405160405180910390a45050565b610c8360009054906101000a900473ffffffffffffffffffffffffffffffffffffffff1681565b610c855481565b610c845481565b6000610c8754905090565b610c8a60009054906101000a900473ffffffffffffffffffffffffffffffffffffffff1681565b600060976000838152602001908152602001600020600101549050919050565b610c8b60009054906101000a900473ffffffffffffffffffffffffffffffffffffffff1681565b610c08612596565b60008103610c42576040517fe03b033d00000000000000000000000000000000000000000000000000000000815260040160405180910390fd5b610c8754821015610c7f576040517f1d00cd6b00000000000000000000000000000000000000000000000000000000815260040160405180910390fd5b80610c8e8190555082610c848190555081610c86819055507f9a09448a3f24d3a01ccc67103c7cddbeea820176a18182cc83d0bce585f26a5b8383610c8e54604051610ccd93929190613cd5565b60405180910390a1505050565b610c8960009054906101000a900473ffffffffffffffffffffffffffffffffffffffff1681565b610d0a82610bb9565b610d13816125f8565b610d1d838361260c565b505050565b6000610d2d83611866565b8210610d65576040517f08e22eae00000000000000000000000000000000000000000000000000000000815260040160405180910390fd5b61107c60008473ffffffffffffffffffffffffffffffffffffffff1673ffffffffffffffffffffffffffffffffffffffff168152602001908152602001600020600083815260200190815260200160002054905092915050565b610dc76126ed565b73ffffffffffffffffffffffffffffffffffffffff168173ffffffffffffffffffffffffffffffffffffffff1614610e34576040517f08c379a0000000000000000000000000000000000000000000000000000000008152600401610e2b90613d8f565b60405180910390fd5b610e3e82826126f5565b5050565b610c8f60009054906101000a900473ffffffffffffffffffffffffffffffffffffffff1681565b610e7281612241565b610e7b816122d7565b80600073ffffffffffffffffffffffffffffffffffffffff16611076600084815260200190815260200160002060009054906101000a900473ffffffffffffffffffffffffffffffffffffffff1673ffffffffffffffffffffffffffffffffffffffff167fddf252ad1be2c89b69c2b068fc378daa952ba7f163c4a11628f55a4df523b3ef60405160405180910390a4610f14816127d7565b6000611076600083815260200190815260200160002060006101000a81548173ffffffffffffffffffffffffffffffffffffffff021916908373ffffffffffffffffffffffffffffffffffffffff16021790555050565b6110786020528060005260406000206000915054906101000a900473ffffffffffffffffffffffffffffffffffffffff1681565b610c8d5481565b6000610c87548210610fe4576040517f08e22eae00000000000000000000000000000000000000000000000000000000815260040160405180910390fd5b819050919050565b600061107b6000838152602001908152602001600020600101549050919050565b6000611076600083815260200190815260200160002060009054906101000a900473ffffffffffffffffffffffffffffffffffffffff169050919050565b60008061105783611179565b0361116457600073ffffffffffffffffffffffffffffffffffffffff16610c8b60009054906101000a900473ffffffffffffffffffffffffffffffffffffffff1673ffffffffffffffffffffffffffffffffffffffff161461116357610c8b60009054906101000a900473ffffffffffffffffffffffffffffffffffffffff1673ffffffffffffffffffffffffffffffffffffffff1663427ede3830336000808760006040518763ffffffff1660e01b815260040161111b96959493929190613dea565b602060405180830381865afa158015611138573d6000803e3d6000fd5b505050506040513d601f19601f8201168201806040525081019061115c9190613e77565b9050611174565b5b600161116f83611179565b101590505b919050565b60008061118583611866565b905060005b818110156111cb576111a461119f8583610d22565b611bef565b156111b85782806111b490613ea4565b9350505b80806111c390613ea4565b91505061118a565b5050919050565b610c865481565b6111e1612596565b600073ffffffffffffffffffffffffffffffffffffffff168773ffffffffffffffffffffffffffffffffffffffff161415801561123a57506112388773ffffffffffffffffffffffffffffffffffffffff166127f6565b155b1561127d5760006040517f6788e02b0000000000000000000000000000000000000000000000000000000081526004016112749190613f2a565b60405180910390fd5b600073ffffffffffffffffffffffffffffffffffffffff168673ffffffffffffffffffffffffffffffffffffffff16141580156112d657506112d48673ffffffffffffffffffffffffffffffffffffffff166127f6565b155b156113195760016040517f6788e02b0000000000000000000000000000000000000000000000000000000081526004016113109190613f80565b60405180910390fd5b600073ffffffffffffffffffffffffffffffffffffffff168573ffffffffffffffffffffffffffffffffffffffff161415801561137257506113708573ffffffffffffffffffffffffffffffffffffffff166127f6565b155b156113b55760026040517f6788e02b0000000000000000000000000000000000000000000000000000000081526004016113ac9190613fd6565b60405180910390fd5b600073ffffffffffffffffffffffffffffffffffffffff168473ffffffffffffffffffffffffffffffffffffffff161415801561140e575061140c8473ffffffffffffffffffffffffffffffffffffffff166127f6565b155b156114515760036040517f6788e02b000000000000000000000000000000000000000000000000000000008152600401611448919061402c565b60405180910390fd5b600073ffffffffffffffffffffffffffffffffffffffff168373ffffffffffffffffffffffffffffffffffffffff16141580156114aa57506114a88373ffffffffffffffffffffffffffffffffffffffff166127f6565b155b156114ed5760046040517f6788e02b0000000000000000000000000000000000000000000000000000000081526004016114e49190614082565b60405180910390fd5b600073ffffffffffffffffffffffffffffffffffffffff168273ffffffffffffffffffffffffffffffffffffffff161415801561154657506115448273ffffffffffffffffffffffffffffffffffffffff166127f6565b155b156115895760056040517f6788e02b00000000000000000000000000000000000000000000000000000000815260040161158091906140d8565b60405180910390fd5b600073ffffffffffffffffffffffffffffffffffffffff168173ffffffffffffffffffffffffffffffffffffffff16141580156115e257506115e08173ffffffffffffffffffffffffffffffffffffffff166127f6565b155b156116255760066040517f6788e02b00000000000000000000000000000000000000000000000000000000815260040161161c919061412e565b60405180910390fd5b86610c8960006101000a81548173ffffffffffffffffffffffffffffffffffffffff021916908373ffffffffffffffffffffffffffffffffffffffff16021790555085610c8a60006101000a81548173ffffffffffffffffffffffffffffffffffffffff021916908373ffffffffffffffffffffffffffffffffffffffff16021790555083610c8c60006101000a81548173ffffffffffffffffffffffffffffffffffffffff021916908373ffffffffffffffffffffffffffffffffffffffff16021790555084610c8b60006101000a81548173ffffffffffffffffffffffffffffffffffffffff021916908373ffffffffffffffffffffffffffffffffffffffff16021790555082610c8f60006101000a81548173ffffffffffffffffffffffffffffffffffffffff021916908373ffffffffffffffffffffffffffffffffffffffff16021790555081610c9060006101000a81548173ffffffffffffffffffffffffffffffffffffffff021916908373ffffffffffffffffffffffffffffffffffffffff16021790555080610c9160006101000a81548173ffffffffffffffffffffffffffffffffffffffff021916908373ffffffffffffffffffffffffffffffffffffffff1602179055507f0a851288e37fa9a8bc562891998524e95c286fe84f693c1921e0fd0792171af68787878787878760405161182e9796959493929190614149565b60405180910390a150505050505050565b610c8c60009054906101000a900473ffffffffffffffffffffffffffffffffffffffff1681565b60008073ffffffffffffffffffffffffffffffffffffffff168273ffffffffffffffffffffffffffffffffffffffff16036118cd576040517f5963709b00000000000000000000000000000000000000000000000000000000815260040160405180910390fd5b61107e60008373ffffffffffffffffffffffffffffffffffffffff1673ffffffffffffffffffffffffffffffffffffffff168152602001908152602001600020549050919050565b600161191f611e4f565b61192991906141b8565b61ffff16610c8d54148061194057506000610c8d54145b61197f576040517f08c379a00000000000000000000000000000000000000000000000000000000081526004016119769061423a565b60405180910390fd5b60014603611a4457600073e79b93f8e22676774f2a8dad469175ebd00029fa90508073ffffffffffffffffffffffffffffffffffffffff1663ed9674bd6040518163ffffffff1660e01b8152600401600060405180830381600087803b1580156119e857600080fd5b505af11580156119fc573d6000803e3d6000fd5b5050505080610c8360006101000a81548173ffffffffffffffffffffffffffffffffffffffff021916908373ffffffffffffffffffffffffffffffffffffffff160217905550505b611a4c611e4f565b61ffff16610c8d819055505050565b60006097600084815260200190815260200160002060000160008373ffffffffffffffffffffffffffffffffffffffff1673ffffffffffffffffffffffffffffffffffffffff16815260200190815260200160002060009054906101000a900460ff16905092915050565b6110775481565b6104b160009054906101000a900473ffffffffffffffffffffffffffffffffffffffff1681565b6000801b81565b611b03612596565b611b0c81612819565b6000610c8554905060006104b160009054906101000a900473ffffffffffffffffffffffffffffffffffffffff16905083610c8581905550826104b160006101000a81548173ffffffffffffffffffffffffffffffffffffffff021916908373ffffffffffffffffffffffffffffffffffffffff1602179055507f3615065ccf48367ac483ac86701248e2e5ff55bdd9be845007d34a3b68d719d482610c8554836104b160009054906101000a900473ffffffffffffffffffffffffffffffffffffffff16604051611be1949392919061425a565b60405180910390a150505050565b6000804261107b600085815260200190815260200160002060010154119050600073ffffffffffffffffffffffffffffffffffffffff16610c8b60009054906101000a900473ffffffffffffffffffffffffffffffffffffffff1673ffffffffffffffffffffffffffffffffffffffff1614611d5a57610c8b60009054906101000a900473ffffffffffffffffffffffffffffffffffffffff1673ffffffffffffffffffffffffffffffffffffffff1663427ede3830338661107b60008981526020019081526020016000206001015461107660008a815260200190815260200160002060009054906101000a900473ffffffffffffffffffffffffffffffffffffffff16876040518763ffffffff1660e01b8152600401611d169695949392919061429f565b602060405180830381865afa158015611d33573d6000803e3d6000fd5b505050506040513d601f19601f82011682018060405250810190611d579190613e77565b90505b80915050919050565b6000611d8f7fb89cdd26cddd51301940bf2715f765b626b8a5a9e2681ac62dc83cc2db2530c083611a5b565b9050919050565b611d9f82612241565b611da982336128fe565b158015611dbc5750611dba33611d63565b155b15611df3576040517f866c2fa700000000000000000000000000000000000000000000000000000000815260040160405180910390fd5b611dfd8282612a26565b5050565b610c9160009054906101000a900473ffffffffffffffffffffffffffffffffffffffff1681565b610c9060009054906101000a900473ffffffffffffffffffffffffffffffffffffffff1681565b6000600d905090565b611e60612596565b611e8a7fb89cdd26cddd51301940bf2715f765b626b8a5a9e2681ac62dc83cc2db2530c082610d01565b8073ffffffffffffffffffffffffffffffffffffffff167f91d5c045d5bd98bf59a379b259ebca05b93bf79af1845fdf87e3172385d4c7f760405160405180910390a250565b6000610c8e54905090565b611ee482610bb9565b611eed816125f8565b611ef783836126f5565b505050565b611f04612596565b60008073ffffffffffffffffffffffffffffffffffffffff168473ffffffffffffffffffffffffffffffffffffffff1603611f4157479050611fbe565b8373ffffffffffffffffffffffffffffffffffffffff166370a08231306040518263ffffffff1660e01b8152600401611f7a919061360c565b602060405180830381865afa158015611f97573d6000803e3d6000fd5b505050506040513d601f19601f82011682018060405250810190611fbb9190614315565b90505b600080831480611fcd57508183115b15612014576000821161200c576040517f1f04ddc800000000000000000000000000000000000000000000000000000000815260040160405180910390fd5b819050612018565b8290505b8373ffffffffffffffffffffffffffffffffffffffff168573ffffffffffffffffffffffffffffffffffffffff163373ffffffffffffffffffffffffffffffffffffffff167f342e7ff505a8a0364cd0dc2ff195c315e43bce86b204846ecd36913e117b109e8460405161208c919061371c565b60405180910390a461209f858583612b32565b5050505050565b600061107a60008473ffffffffffffffffffffffffffffffffffffffff1673ffffffffffffffffffffffffffffffffffffffff16815260200190815260200160002060008373ffffffffffffffffffffffffffffffffffffffff1673ffffffffffffffffffffffffffffffffffffffff16815260200190815260200160002060009054906101000a900460ff16905092915050565b6121657fb89cdd26cddd51301940bf2715f765b626b8a5a9e2681ac62dc83cc2db2530c033610dbf565b3373ffffffffffffffffffffffffffffffffffffffff167f42885193b8178d25fca25a38e6fcc93918501e91be06d85e0c8afb3bad95238060405160405180910390a2565b6121b2612596565b6121ba611e4f565b61ffff16610c8d81905550565b60007f7965db0b000000000000000000000000000000000000000000000000000000007bffffffffffffffffffffffffffffffffffffffffffffffffffffffff1916827bffffffffffffffffffffffffffffffffffffffffffffffffffffffff1916148061223a575061223982612bd5565b5b9050919050565b600061107b60008381526020019081526020016000206000015403612292576040517f78fe247300000000000000000000000000000000000000000000000000000000815260040160405180910390fd5b50565b61229e81611bef565b6122d4576040517f0d9f4fae00000000000000000000000000000000000000000000000000000000815260040160405180910390fd5b50565b60008073ffffffffffffffffffffffffffffffffffffffff16611078600084815260200190815260200160002060009054906101000a900473ffffffffffffffffffffffffffffffffffffffff1673ffffffffffffffffffffffffffffffffffffffff161461237a57611078600083815260200190815260200160002060009054906101000a900473ffffffffffffffffffffffffffffffffffffffff166123b0565b611076600083815260200190815260200160002060009054906101000a900473ffffffffffffffffffffffffffffffffffffffff165b90506123bb33611d63565b1580156123cf57506123cd82336128fe565b155b801561243b57503373ffffffffffffffffffffffffffffffffffffffff16611079600084815260200190815260200160002060009054906101000a900473ffffffffffffffffffffffffffffffffffffffff1673ffffffffffffffffffffffffffffffffffffffff1614155b801561244e575061244c81336120a6565b155b15612485576040517fe17c6d4500000000000000000000000000000000000000000000000000000000815260040160405180910390fd5b5050565b61249283612241565b600061107b6000858152602001908152602001600020600101549050811561251557428111156124e85782816124c89190614342565b61107b600086815260200190815260200160002060010181905550612510565b82426124f49190614342565b61107b6000868152602001908152602001600020600101819055505b61253d565b82816125219190613ca1565b61107b6000868152602001908152602001600020600101819055505b837f3c907806849e9204e0e26bb095dfe4b3071576c4323f766735c548211556d05261107b600087815260200190815260200160002060010154858560405161258893929190614376565b60405180910390a250505050565b6125c07fb89cdd26cddd51301940bf2715f765b626b8a5a9e2681ac62dc83cc2db2530c033611a5b565b6125f6576040517f8e1b58c400000000000000000000000000000000000000000000000000000000815260040160405180910390fd5b565b612609816126046126ed565b612c4d565b50565b6126168282611a5b565b6126e95760016097600084815260200190815260200160002060000160008373ffffffffffffffffffffffffffffffffffffffff1673ffffffffffffffffffffffffffffffffffffffff16815260200190815260200160002060006101000a81548160ff02191690831515021790555061268e6126ed565b73ffffffffffffffffffffffffffffffffffffffff168173ffffffffffffffffffffffffffffffffffffffff16837f2f8788117e7eff1d82e926ec794901d17c78024a50270940304540a733656f0d60405160405180910390a45b5050565b600033905090565b6126ff8282611a5b565b156127d35760006097600084815260200190815260200160002060000160008373ffffffffffffffffffffffffffffffffffffffff1673ffffffffffffffffffffffffffffffffffffffff16815260200190815260200160002060006101000a81548160ff0219169083151502179055506127786126ed565b73ffffffffffffffffffffffffffffffffffffffff168173ffffffffffffffffffffffffffffffffffffffff16837ff6391f5c32d9c69d2a47ea670b442974b53935d1edc7fd64eb21e047a839171b60405160405180910390a45b5050565b4261107b60008381526020019081526020016000206001018190555050565b6000808273ffffffffffffffffffffffffffffffffffffffff163b119050919050565b600073ffffffffffffffffffffffffffffffffffffffff168173ffffffffffffffffffffffffffffffffffffffff16141580156128c4575060008173ffffffffffffffffffffffffffffffffffffffff166318160ddd6040518163ffffffff1660e01b8152600401602060405180830381865afa15801561289e573d6000803e3d6000fd5b505050506040513d601f19601f820116820180604052508101906128c29190614315565b105b156128fb576040517fd0995cf200000000000000000000000000000000000000000000000000000000815260040160405180910390fd5b50565b60008173ffffffffffffffffffffffffffffffffffffffff16611078600085815260200190815260200160002060009054906101000a900473ffffffffffffffffffffffffffffffffffffffff1673ffffffffffffffffffffffffffffffffffffffff161480612a0d57508173ffffffffffffffffffffffffffffffffffffffff166129898461100d565b73ffffffffffffffffffffffffffffffffffffffff16148015612a0c5750600073ffffffffffffffffffffffffffffffffffffffff16611078600085815260200190815260200160002060009054906101000a900473ffffffffffffffffffffffffffffffffffffffff1673ffffffffffffffffffffffffffffffffffffffff16145b5b15612a1b5760019050612a20565b600090505b92915050565b8073ffffffffffffffffffffffffffffffffffffffff16611078600084815260200190815260200160002060009054906101000a900473ffffffffffffffffffffffffffffffffffffffff1673ffffffffffffffffffffffffffffffffffffffff1614612b2e5780611078600084815260200190815260200160002060006101000a81548173ffffffffffffffffffffffffffffffffffffffff021916908373ffffffffffffffffffffffffffffffffffffffff160217905550612ae982612cd2565b8073ffffffffffffffffffffffffffffffffffffffff16827f9d2895c45a420624de863a2f437b022d879f457bf7a829044055a10c5a6fd5e360405160405180910390a35b5050565b6000811115612bd057600073ffffffffffffffffffffffffffffffffffffffff168373ffffffffffffffffffffffffffffffffffffffff1603612b9d57612b98818373ffffffffffffffffffffffffffffffffffffffff16612d9290919063ffffffff16565b612bcf565b6000839050612bcd83838373ffffffffffffffffffffffffffffffffffffffff16612e869092919063ffffffff16565b505b5b505050565b6000612be082612f0c565b80612c46575060656000837bffffffffffffffffffffffffffffffffffffffffffffffffffffffff19167bffffffffffffffffffffffffffffffffffffffffffffffffffffffff1916815260200190815260200160002060009054906101000a900460ff165b9050919050565b612c578282611a5b565b612cce57612c6481612f76565b612c728360001c6020612fa3565b604051602001612c839291906144b6565b6040516020818303038152906040526040517f08c379a0000000000000000000000000000000000000000000000000000000008152600401612cc5919061453a565b60405180910390fd5b5050565b600073ffffffffffffffffffffffffffffffffffffffff16611079600083815260200190815260200160002060009054906101000a900473ffffffffffffffffffffffffffffffffffffffff1673ffffffffffffffffffffffffffffffffffffffff1614612d8f576000611079600083815260200190815260200160002060006101000a81548173ffffffffffffffffffffffffffffffffffffffff021916908373ffffffffffffffffffffffffffffffffffffffff1602179055505b50565b80471015612dd5576040517f08c379a0000000000000000000000000000000000000000000000000000000008152600401612dcc906145a8565b60405180910390fd5b60008273ffffffffffffffffffffffffffffffffffffffff1682604051612dfb906145f9565b60006040518083038185875af1925050503d8060008114612e38576040519150601f19603f3d011682016040523d82523d6000602084013e612e3d565b606091505b5050905080612e81576040517f08c379a0000000000000000000000000000000000000000000000000000000008152600401612e7890614680565b60405180910390fd5b505050565b612f078363a9059cbb60e01b8484604051602401612ea59291906146a0565b604051602081830303815290604052907bffffffffffffffffffffffffffffffffffffffffffffffffffffffff19166020820180517bffffffffffffffffffffffffffffffffffffffffffffffffffffffff83818316178352505050506131df565b505050565b60007f01ffc9a7000000000000000000000000000000000000000000000000000000007bffffffffffffffffffffffffffffffffffffffffffffffffffffffff1916827bffffffffffffffffffffffffffffffffffffffffffffffffffffffff1916149050919050565b6060612f9c8273ffffffffffffffffffffffffffffffffffffffff16601460ff16612fa3565b9050919050565b606060006002836002612fb691906146c9565b612fc09190614342565b67ffffffffffffffff811115612fd957612fd861470b565b5b6040519080825280601f01601f19166020018201604052801561300b5781602001600182028036833780820191505090505b5090507f3000000000000000000000000000000000000000000000000000000000000000816000815181106130435761304261473a565b5b60200101907effffffffffffffffffffffffffffffffffffffffffffffffffffffffffffff1916908160001a9053507f7800000000000000000000000000000000000000000000000000000000000000816001815181106130a7576130a661473a565b5b60200101907effffffffffffffffffffffffffffffffffffffffffffffffffffffffffffff1916908160001a905350600060018460026130e791906146c9565b6130f19190614342565b90505b6001811115613191577f3031323334353637383961626364656600000000000000000000000000000000600f8616601081106131335761313261473a565b5b1a60f81b82828151811061314a5761314961473a565b5b60200101907effffffffffffffffffffffffffffffffffffffffffffffffffffffffffffff1916908160001a905350600485901c94508061318a90614769565b90506130f4565b50600084146131d5576040517f08c379a00000000000000000000000000000000000000000000000000000000081526004016131cc906147de565b60405180910390fd5b8091505092915050565b6000613241826040518060400160405280602081526020017f5361666545524332303a206c6f772d6c6576656c2063616c6c206661696c65648152508573ffffffffffffffffffffffffffffffffffffffff166132a69092919063ffffffff16565b90506000815111156132a157808060200190518101906132619190613e77565b6132a0576040517f08c379a000000000000000000000000000000000000000000000000000000000815260040161329790614870565b60405180910390fd5b5b505050565b60606132b584846000856132be565b90509392505050565b606082471015613303576040517f08c379a00000000000000000000000000000000000000000000000000000000081526004016132fa90614902565b60405180910390fd5b6000808673ffffffffffffffffffffffffffffffffffffffff16858760405161332c919061495e565b60006040518083038185875af1925050503d8060008114613369576040519150601f19603f3d011682016040523d82523d6000602084013e61336e565b606091505b509150915061337f8783838761338b565b92505050949350505050565b606083156133ed5760008351036133e5576133a5856127f6565b6133e4576040517f08c379a00000000000000000000000000000000000000000000000000000000081526004016133db906149c1565b60405180910390fd5b5b8290506133f8565b6133f78383613400565b5b949350505050565b6000825111156134135781518083602001fd5b806040517f08c379a0000000000000000000000000000000000000000000000000000000008152600401613447919061453a565b60405180910390fd5b600080fd5b600080fd5b60007fffffffff0000000000000000000000000000000000000000000000000000000082169050919050565b61348f8161345a565b811461349a57600080fd5b50565b6000813590506134ac81613486565b92915050565b6000602082840312156134c8576134c7613450565b5b60006134d68482850161349d565b91505092915050565b60008115159050919050565b6134f4816134df565b82525050565b600060208201905061350f60008301846134eb565b92915050565b6000819050919050565b61352881613515565b811461353357600080fd5b50565b6000813590506135458161351f565b92915050565b60008060006060848603121561356457613563613450565b5b600061357286828701613536565b935050602061358386828701613536565b925050604061359486828701613536565b9150509250925092565b6000602082840312156135b4576135b3613450565b5b60006135c284828501613536565b91505092915050565b600073ffffffffffffffffffffffffffffffffffffffff82169050919050565b60006135f6826135cb565b9050919050565b613606816135eb565b82525050565b600060208201905061362160008301846135fd565b92915050565b613630816135eb565b811461363b57600080fd5b50565b60008135905061364d81613627565b92915050565b6000806040838503121561366a57613669613450565b5b60006136788582860161363e565b925050602061368985828601613536565b9150509250929050565b6000819050919050565b60006136b86136b36136ae846135cb565b613693565b6135cb565b9050919050565b60006136ca8261369d565b9050919050565b60006136dc826136bf565b9050919050565b6136ec816136d1565b82525050565b600060208201905061370760008301846136e3565b92915050565b61371681613515565b82525050565b6000602082019050613731600083018461370d565b92915050565b6000613742826136bf565b9050919050565b61375281613737565b82525050565b600060208201905061376d6000830184613749565b92915050565b6000819050919050565b61378681613773565b811461379157600080fd5b50565b6000813590506137a38161377d565b92915050565b6000602082840312156137bf576137be613450565b5b60006137cd84828501613794565b91505092915050565b6137df81613773565b82525050565b60006020820190506137fa60008301846137d6565b92915050565b600061380b826136bf565b9050919050565b61381b81613800565b82525050565b60006020820190506138366000830184613812565b92915050565b6000613847826136bf565b9050919050565b6138578161383c565b82525050565b6000602082019050613872600083018461384e565b92915050565b6000806040838503121561388f5761388e613450565b5b600061389d85828601613794565b92505060206138ae8582860161363e565b9150509250929050565b60006138c3826136bf565b9050919050565b6138d3816138b8565b82525050565b60006020820190506138ee60008301846138ca565b92915050565b60006020828403121561390a57613909613450565b5b60006139188482850161363e565b91505092915050565b600080600080600080600060e0888a0312156139405761393f613450565b5b600061394e8a828b0161363e565b975050602061395f8a828b0161363e565b96505060406139708a828b0161363e565b95505060606139818a828b0161363e565b94505060806139928a828b0161363e565b93505060a06139a38a828b0161363e565b92505060c06139b48a828b0161363e565b91505092959891949750929550565b60006139ce826136bf565b9050919050565b6139de816139c3565b82525050565b60006020820190506139f960008301846139d5565b92915050565b600080fd5b600080fd5b600080fd5b60008083601f840112613a2457613a236139ff565b5b8235905067ffffffffffffffff811115613a4157613a40613a04565b5b602083019150836001820283011115613a5d57613a5c613a09565b5b9250929050565b60008060208385031215613a7b57613a7a613450565b5b600083013567ffffffffffffffff811115613a9957613a98613455565b5b613aa585828601613a0e565b92509250509250929050565b60008060408385031215613ac857613ac7613450565b5b6000613ad685828601613536565b9250506020613ae78582860161363e565b9150509250929050565b6000613afc826136bf565b9050919050565b613b0c81613af1565b82525050565b6000602082019050613b276000830184613b03565b92915050565b6000613b38826136bf565b9050919050565b613b4881613b2d565b82525050565b6000602082019050613b636000830184613b3f565b92915050565b600061ffff82169050919050565b613b8081613b69565b82525050565b6000602082019050613b9b6000830184613b77565b92915050565b6000613bac826135cb565b9050919050565b613bbc81613ba1565b8114613bc757600080fd5b50565b600081359050613bd981613bb3565b92915050565b600080600060608486031215613bf857613bf7613450565b5b6000613c068682870161363e565b9350506020613c1786828701613bca565b9250506040613c2886828701613536565b9150509250925092565b60008060408385031215613c4957613c48613450565b5b6000613c578582860161363e565b9250506020613c688582860161363e565b9150509250929050565b7f4e487b7100000000000000000000000000000000000000000000000000000000600052601160045260246000fd5b6000613cac82613515565b9150613cb783613515565b9250828203905081811115613ccf57613cce613c72565b5b92915050565b6000606082019050613cea600083018661370d565b613cf7602083018561370d565b613d04604083018461370d565b949350505050565b600082825260208201905092915050565b7f416363657373436f6e74726f6c3a2063616e206f6e6c792072656e6f756e636560008201527f20726f6c657320666f722073656c660000000000000000000000000000000000602082015250565b6000613d79602f83613d0c565b9150613d8482613d1d565b604082019050919050565b60006020820190508181036000830152613da881613d6c565b9050919050565b6000819050919050565b6000613dd4613dcf613dca84613daf565b613693565b613515565b9050919050565b613de481613db9565b82525050565b600060c082019050613dff60008301896135fd565b613e0c60208301886135fd565b613e196040830187613ddb565b613e266060830186613ddb565b613e3360808301856135fd565b613e4060a08301846134eb565b979650505050505050565b613e54816134df565b8114613e5f57600080fd5b50565b600081519050613e7181613e4b565b92915050565b600060208284031215613e8d57613e8c613450565b5b6000613e9b84828501613e62565b91505092915050565b6000613eaf82613515565b91507fffffffffffffffffffffffffffffffffffffffffffffffffffffffffffffffff8203613ee157613ee0613c72565b5b600182019050919050565b600060ff82169050919050565b6000613f14613f0f613f0a84613daf565b613693565b613eec565b9050919050565b613f2481613ef9565b82525050565b6000602082019050613f3f6000830184613f1b565b92915050565b6000819050919050565b6000613f6a613f65613f6084613f45565b613693565b613eec565b9050919050565b613f7a81613f4f565b82525050565b6000602082019050613f956000830184613f71565b92915050565b6000819050919050565b6000613fc0613fbb613fb684613f9b565b613693565b613eec565b9050919050565b613fd081613fa5565b82525050565b6000602082019050613feb6000830184613fc7565b92915050565b6000819050919050565b600061401661401161400c84613ff1565b613693565b613eec565b9050919050565b61402681613ffb565b82525050565b6000602082019050614041600083018461401d565b92915050565b6000819050919050565b600061406c61406761406284614047565b613693565b613eec565b9050919050565b61407c81614051565b82525050565b60006020820190506140976000830184614073565b92915050565b6000819050919050565b60006140c26140bd6140b88461409d565b613693565b613eec565b9050919050565b6140d2816140a7565b82525050565b60006020820190506140ed60008301846140c9565b92915050565b6000819050919050565b600061411861411361410e846140f3565b613693565b613eec565b9050919050565b614128816140fd565b82525050565b6000602082019050614143600083018461411f565b92915050565b600060e08201905061415e600083018a6135fd565b61416b60208301896135fd565b61417860408301886135fd565b61418560608301876135fd565b61419260808301866135fd565b61419f60a08301856135fd565b6141ac60c08301846135fd565b98975050505050505050565b60006141c382613b69565b91506141ce83613b69565b9250828203905061ffff8111156141e8576141e7613c72565b5b92915050565b7f534348454d415f56455253494f4e5f4e4f545f434f5252454354000000000000600082015250565b6000614224601a83613d0c565b915061422f826141ee565b602082019050919050565b6000602082019050818103600083015261425381614217565b9050919050565b600060808201905061426f600083018761370d565b61427c602083018661370d565b61428960408301856135fd565b61429660608301846135fd565b95945050505050565b600060c0820190506142b460008301896135fd565b6142c160208301886135fd565b6142ce604083018761370d565b6142db606083018661370d565b6142e860808301856135fd565b6142f560a08301846134eb565b979650505050505050565b60008151905061430f8161351f565b92915050565b60006020828403121561432b5761432a613450565b5b600061433984828501614300565b91505092915050565b600061434d82613515565b915061435883613515565b92508282019050808211156143705761436f613c72565b5b92915050565b600060608201905061438b600083018661370d565b614398602083018561370d565b6143a560408301846134eb565b949350505050565b600081905092915050565b7f416363657373436f6e74726f6c3a206163636f756e7420000000000000000000600082015250565b60006143ee6017836143ad565b91506143f9826143b8565b601782019050919050565b600081519050919050565b60005b8381101561442d578082015181840152602081019050614412565b60008484015250505050565b600061444482614404565b61444e81856143ad565b935061445e81856020860161440f565b80840191505092915050565b7f206973206d697373696e6720726f6c6520000000000000000000000000000000600082015250565b60006144a06011836143ad565b91506144ab8261446a565b601182019050919050565b60006144c1826143e1565b91506144cd8285614439565b91506144d882614493565b91506144e48284614439565b91508190509392505050565b6000601f19601f8301169050919050565b600061450c82614404565b6145168185613d0c565b935061452681856020860161440f565b61452f816144f0565b840191505092915050565b600060208201905081810360008301526145548184614501565b905092915050565b7f416464726573733a20696e73756666696369656e742062616c616e6365000000600082015250565b6000614592601d83613d0c565b915061459d8261455c565b602082019050919050565b600060208201905081810360008301526145c181614585565b9050919050565b600081905092915050565b50565b60006145e36000836145c8565b91506145ee826145d3565b600082019050919050565b6000614604826145d6565b9150819050919050565b7f416464726573733a20756e61626c6520746f2073656e642076616c75652c207260008201527f6563697069656e74206d61792068617665207265766572746564000000000000602082015250565b600061466a603a83613d0c565b91506146758261460e565b604082019050919050565b600060208201905081810360008301526146998161465d565b9050919050565b60006040820190506146b560008301856135fd565b6146c2602083018461370d565b9392505050565b60006146d482613515565b91506146df83613515565b92508282026146ed81613515565b9150828204841483151761470457614703613c72565b5b5092915050565b7f4e487b7100000000000000000000000000000000000000000000000000000000600052604160045260246000fd5b7f4e487b7100000000000000000000000000000000000000000000000000000000600052603260045260246000fd5b600061477482613515565b91506000820361478757614786613c72565b5b600182039050919050565b7f537472696e67733a20686578206c656e67746820696e73756666696369656e74600082015250565b60006147c8602083613d0c565b91506147d382614792565b602082019050919050565b600060208201905081810360008301526147f7816147bb565b9050919050565b7f5361666545524332303a204552433230206f7065726174696f6e20646964206e60008201527f6f74207375636365656400000000000000000000000000000000000000000000602082015250565b600061485a602a83613d0c565b9150614865826147fe565b604082019050919050565b600060208201905081810360008301526148898161484d565b9050919050565b7f416464726573733a20696e73756666696369656e742062616c616e636520666f60008201527f722063616c6c0000000000000000000000000000000000000000000000000000602082015250565b60006148ec602683613d0c565b91506148f782614890565b604082019050919050565b6000602082019050818103600083015261491b816148df565b9050919050565b600081519050919050565b600061493882614922565b61494281856145c8565b935061495281856020860161440f565b80840191505092915050565b600061496a828461492d565b915081905092915050565b7f416464726573733a2063616c6c20746f206e6f6e2d636f6e7472616374000000600082015250565b60006149ab601d83613d0c565b91506149b682614975565b602082019050919050565b600060208201905081810360008301526149da8161499e565b905091905056fea264697066735822122044abd92a194adf5760ac8a1316f979bb6e8a2ce5d54f6b07754a35c62e74d47864736f6c63430008120033",
			"opcodes": "PUSH1 0x80 PUSH1 0x40 MSTORE CALLVALUE DUP1 ISZERO PUSH2 0x10 JUMPI PUSH1 0x0 DUP1 REVERT JUMPDEST POP PUSH2 0x4A17 DUP1 PUSH2 0x20 PUSH1 0x0 CODECOPY PUSH1 0x0 RETURN INVALID PUSH1 0x80 PUSH1 0x40 MSTORE CALLVALUE DUP1 ISZERO PUSH2 0x10 JUMPI PUSH1 0x0 DUP1 REVERT JUMPDEST POP PUSH1 0x4 CALLDATASIZE LT PUSH2 0x2A0 JUMPI PUSH1 0x0 CALLDATALOAD PUSH1 0xE0 SHR DUP1 PUSH4 0x70A08231 GT PUSH2 0x167 JUMPI DUP1 PUSH4 0xAAE4B8F7 GT PUSH2 0xCE JUMPI DUP1 PUSH4 0xD52E4A10 GT PUSH2 0x87 JUMPI DUP1 PUSH4 0xD52E4A10 EQ PUSH2 0x877 JUMPI DUP1 PUSH4 0xD547741F EQ PUSH2 0x895 JUMPI DUP1 PUSH4 0xD9CAED12 EQ PUSH2 0x8B1 JUMPI DUP1 PUSH4 0xE985E9C5 EQ PUSH2 0x8CD JUMPI DUP1 PUSH4 0xF0BA6040 EQ PUSH2 0x8FD JUMPI DUP1 PUSH4 0xF32E8B24 EQ PUSH2 0x907 JUMPI PUSH2 0x2A0 JUMP JUMPDEST DUP1 PUSH4 0xAAE4B8F7 EQ PUSH2 0x7B5 JUMPI DUP1 PUSH4 0xB11D7EC1 EQ PUSH2 0x7E5 JUMPI DUP1 PUSH4 0xB129694E EQ PUSH2 0x801 JUMPI DUP1 PUSH4 0xC907C3EC EQ PUSH2 0x81F JUMPI DUP1 PUSH4 0xD1BBD49C EQ PUSH2 0x83D JUMPI DUP1 PUSH4 0xD2503485 EQ PUSH2 0x85B JUMPI PUSH2 0x2A0 JUMP JUMPDEST DUP1 PUSH4 0x91D14854 GT PUSH2 0x120 JUMPI DUP1 PUSH4 0x91D14854 EQ PUSH2 0x6DF JUMPI DUP1 PUSH4 0x93FD1844 EQ PUSH2 0x70F JUMPI DUP1 PUSH4 0x9D76EA58 EQ PUSH2 0x72D JUMPI DUP1 PUSH4 0xA217FDDF EQ PUSH2 0x74B JUMPI DUP1 PUSH4 0xA2E4CD2E EQ PUSH2 0x769 JUMPI DUP1 PUSH4 0xA98D3623 EQ PUSH2 0x785 JUMPI PUSH2 0x2A0 JUMP JUMPDEST DUP1 PUSH4 0x70A08231 EQ PUSH2 0x60B JUMPI DUP1 PUSH4 0x74B6C106 EQ PUSH2 0x63B JUMPI DUP1 PUSH4 0x74CAC47D EQ PUSH2 0x659 JUMPI DUP1 PUSH4 0x7EC2A724 EQ PUSH2 0x675 JUMPI DUP1 PUSH4 0x812EECD4 EQ PUSH2 0x693 JUMPI DUP1 PUSH4 0x8932A90D EQ PUSH2 0x6C3 JUMPI PUSH2 0x2A0 JUMP JUMPDEST DUP1 PUSH4 0x2D33DD5B GT PUSH2 0x20B JUMPI DUP1 PUSH4 0x4D025FED GT PUSH2 0x1C4 JUMPI DUP1 PUSH4 0x4D025FED EQ PUSH2 0x4FD JUMPI DUP1 PUSH4 0x4E2CE6D3 EQ PUSH2 0x52D JUMPI DUP1 PUSH4 0x4F6CCCE7 EQ PUSH2 0x54B JUMPI DUP1 PUSH4 0x54B249FB EQ PUSH2 0x57B JUMPI DUP1 PUSH4 0x6352211E EQ PUSH2 0x5AB JUMPI DUP1 PUSH4 0x6D8EA5B4 EQ PUSH2 0x5DB JUMPI PUSH2 0x2A0 JUMP JUMPDEST DUP1 PUSH4 0x2D33DD5B EQ PUSH2 0x43D JUMPI DUP1 PUSH4 0x2F2FF15D EQ PUSH2 0x45B JUMPI DUP1 PUSH4 0x2F745C59 EQ PUSH2 0x477 JUMPI DUP1 PUSH4 0x36568ABE EQ PUSH2 0x4A7 JUMPI DUP1 PUSH4 0x389F07E8 EQ PUSH2 0x4C3 JUMPI DUP1 PUSH4 0x42966C68 EQ PUSH2 0x4E1 JUMPI PUSH2 0x2A0 JUMP JUMPDEST DUP1 PUSH4 0x11A4C03A GT PUSH2 0x25D JUMPI DUP1 PUSH4 0x11A4C03A EQ PUSH2 0x379 JUMPI DUP1 PUSH4 0x18160DDD EQ PUSH2 0x397 JUMPI DUP1 PUSH4 0x217751BC EQ PUSH2 0x3B5 JUMPI DUP1 PUSH4 0x248A9CA3 EQ PUSH2 0x3D3 JUMPI DUP1 PUSH4 0x26E9CA07 EQ PUSH2 0x403 JUMPI DUP1 PUSH4 0x282478DF EQ PUSH2 0x421 JUMPI PUSH2 0x2A0 JUMP JUMPDEST DUP1 PUSH4 0x1FFC9A7 EQ PUSH2 0x2A5 JUMPI DUP1 PUSH4 0x68208CD EQ PUSH2 0x2D5 JUMPI DUP1 PUSH4 0x81812FC EQ PUSH2 0x2F1 JUMPI DUP1 PUSH4 0x95EA7B3 EQ PUSH2 0x321 JUMPI DUP1 PUSH4 0xF15023B EQ PUSH2 0x33D JUMPI DUP1 PUSH4 0x10E56973 EQ PUSH2 0x35B JUMPI JUMPDEST PUSH1 0x0 DUP1 REVERT JUMPDEST PUSH2 0x2BF PUSH1 0x4 DUP1 CALLDATASIZE SUB DUP2 ADD SWAP1 PUSH2 0x2BA SWAP2 SWAP1 PUSH2 0x34B2 JUMP JUMPDEST PUSH2 0x911 JUMP JUMPDEST PUSH1 0x40 MLOAD PUSH2 0x2CC SWAP2 SWAP1 PUSH2 0x34FA JUMP JUMPDEST PUSH1 0x40 MLOAD DUP1 SWAP2 SUB SWAP1 RETURN JUMPDEST PUSH2 0x2EF PUSH1 0x4 DUP1 CALLDATASIZE SUB DUP2 ADD SWAP1 PUSH2 0x2EA SWAP2 SWAP1 PUSH2 0x354B JUMP JUMPDEST PUSH2 0x923 JUMP JUMPDEST STOP JUMPDEST PUSH2 0x30B PUSH1 0x4 DUP1 CALLDATASIZE SUB DUP2 ADD SWAP1 PUSH2 0x306 SWAP2 SWAP1 PUSH2 0x359E JUMP JUMPDEST PUSH2 0x9B1 JUMP JUMPDEST PUSH1 0x40 MLOAD PUSH2 0x318 SWAP2 SWAP1 PUSH2 0x360C JUMP JUMPDEST PUSH1 0x40 MLOAD DUP1 SWAP2 SUB SWAP1 RETURN JUMPDEST PUSH2 0x33B PUSH1 0x4 DUP1 CALLDATASIZE SUB DUP2 ADD SWAP1 PUSH2 0x336 SWAP2 SWAP1 PUSH2 0x3653 JUMP JUMPDEST PUSH2 0x9FE JUMP JUMPDEST STOP JUMPDEST PUSH2 0x345 PUSH2 0xB52 JUMP JUMPDEST PUSH1 0x40 MLOAD PUSH2 0x352 SWAP2 SWAP1 PUSH2 0x36F2 JUMP JUMPDEST PUSH1 0x40 MLOAD DUP1 SWAP2 SUB SWAP1 RETURN JUMPDEST PUSH2 0x363 PUSH2 0xB79 JUMP JUMPDEST PUSH1 0x40 MLOAD PUSH2 0x370 SWAP2 SWAP1 PUSH2 0x371C JUMP JUMPDEST PUSH1 0x40 MLOAD DUP1 SWAP2 SUB SWAP1 RETURN JUMPDEST PUSH2 0x381 PUSH2 0xB80 JUMP JUMPDEST PUSH1 0x40 MLOAD PUSH2 0x38E SWAP2 SWAP1 PUSH2 0x371C JUMP JUMPDEST PUSH1 0x40 MLOAD DUP1 SWAP2 SUB SWAP1 RETURN JUMPDEST PUSH2 0x39F PUSH2 0xB87 JUMP JUMPDEST PUSH1 0x40 MLOAD PUSH2 0x3AC SWAP2 SWAP1 PUSH2 0x371C JUMP JUMPDEST PUSH1 0x40 MLOAD DUP1 SWAP2 SUB SWAP1 RETURN JUMPDEST PUSH2 0x3BD PUSH2 0xB92 JUMP JUMPDEST PUSH1 0x40 MLOAD PUSH2 0x3CA SWAP2 SWAP1 PUSH2 0x3758 JUMP JUMPDEST PUSH1 0x40 MLOAD DUP1 SWAP2 SUB SWAP1 RETURN JUMPDEST PUSH2 0x3ED PUSH1 0x4 DUP1 CALLDATASIZE SUB DUP2 ADD SWAP1 PUSH2 0x3E8 SWAP2 SWAP1 PUSH2 0x37A9 JUMP JUMPDEST PUSH2 0xBB9 JUMP JUMPDEST PUSH1 0x40 MLOAD PUSH2 0x3FA SWAP2 SWAP1 PUSH2 0x37E5 JUMP JUMPDEST PUSH1 0x40 MLOAD DUP1 SWAP2 SUB SWAP1 RETURN JUMPDEST PUSH2 0x40B PUSH2 0xBD9 JUMP JUMPDEST PUSH1 0x40 MLOAD PUSH2 0x418 SWAP2 SWAP1 PUSH2 0x3821 JUMP JUMPDEST PUSH1 0x40 MLOAD DUP1 SWAP2 SUB SWAP1 RETURN JUMPDEST PUSH2 0x43B PUSH1 0x4 DUP1 CALLDATASIZE SUB DUP2 ADD SWAP1 PUSH2 0x436 SWAP2 SWAP1 PUSH2 0x354B JUMP JUMPDEST PUSH2 0xC00 JUMP JUMPDEST STOP JUMPDEST PUSH2 0x445 PUSH2 0xCDA JUMP JUMPDEST PUSH1 0x40 MLOAD PUSH2 0x452 SWAP2 SWAP1 PUSH2 0x385D JUMP JUMPDEST PUSH1 0x40 MLOAD DUP1 SWAP2 SUB SWAP1 RETURN JUMPDEST PUSH2 0x475 PUSH1 0x4 DUP1 CALLDATASIZE SUB DUP2 ADD SWAP1 PUSH2 0x470 SWAP2 SWAP1 PUSH2 0x3878 JUMP JUMPDEST PUSH2 0xD01 JUMP JUMPDEST STOP JUMPDEST PUSH2 0x491 PUSH1 0x4 DUP1 CALLDATASIZE SUB DUP2 ADD SWAP1 PUSH2 0x48C SWAP2 SWAP1 PUSH2 0x3653 JUMP JUMPDEST PUSH2 0xD22 JUMP JUMPDEST PUSH1 0x40 MLOAD PUSH2 0x49E SWAP2 SWAP1 PUSH2 0x371C JUMP JUMPDEST PUSH1 0x40 MLOAD DUP1 SWAP2 SUB SWAP1 RETURN JUMPDEST PUSH2 0x4C1 PUSH1 0x4 DUP1 CALLDATASIZE SUB DUP2 ADD SWAP1 PUSH2 0x4BC SWAP2 SWAP1 PUSH2 0x3878 JUMP JUMPDEST PUSH2 0xDBF JUMP JUMPDEST STOP JUMPDEST PUSH2 0x4CB PUSH2 0xE42 JUMP JUMPDEST PUSH1 0x40 MLOAD PUSH2 0x4D8 SWAP2 SWAP1 PUSH2 0x38D9 JUMP JUMPDEST PUSH1 0x40 MLOAD DUP1 SWAP2 SUB SWAP1 RETURN JUMPDEST PUSH2 0x4FB PUSH1 0x4 DUP1 CALLDATASIZE SUB DUP2 ADD SWAP1 PUSH2 0x4F6 SWAP2 SWAP1 PUSH2 0x359E JUMP JUMPDEST PUSH2 0xE69 JUMP JUMPDEST STOP JUMPDEST PUSH2 0x517 PUSH1 0x4 DUP1 CALLDATASIZE SUB DUP2 ADD SWAP1 PUSH2 0x512 SWAP2 SWAP1 PUSH2 0x359E JUMP JUMPDEST PUSH2 0xF6B JUMP JUMPDEST PUSH1 0x40 MLOAD PUSH2 0x524 SWAP2 SWAP1 PUSH2 0x360C JUMP JUMPDEST PUSH1 0x40 MLOAD DUP1 SWAP2 SUB SWAP1 RETURN JUMPDEST PUSH2 0x535 PUSH2 0xF9F JUMP JUMPDEST PUSH1 0x40 MLOAD PUSH2 0x542 SWAP2 SWAP1 PUSH2 0x371C JUMP JUMPDEST PUSH1 0x40 MLOAD DUP1 SWAP2 SUB SWAP1 RETURN JUMPDEST PUSH2 0x565 PUSH1 0x4 DUP1 CALLDATASIZE SUB DUP2 ADD SWAP1 PUSH2 0x560 SWAP2 SWAP1 PUSH2 0x359E JUMP JUMPDEST PUSH2 0xFA6 JUMP JUMPDEST PUSH1 0x40 MLOAD PUSH2 0x572 SWAP2 SWAP1 PUSH2 0x371C JUMP JUMPDEST PUSH1 0x40 MLOAD DUP1 SWAP2 SUB SWAP1 RETURN JUMPDEST PUSH2 0x595 PUSH1 0x4 DUP1 CALLDATASIZE SUB DUP2 ADD SWAP1 PUSH2 0x590 SWAP2 SWAP1 PUSH2 0x359E JUMP JUMPDEST PUSH2 0xFEC JUMP JUMPDEST PUSH1 0x40 MLOAD PUSH2 0x5A2 SWAP2 SWAP1 PUSH2 0x371C JUMP JUMPDEST PUSH1 0x40 MLOAD DUP1 SWAP2 SUB SWAP1 RETURN JUMPDEST PUSH2 0x5C5 PUSH1 0x4 DUP1 CALLDATASIZE SUB DUP2 ADD SWAP1 PUSH2 0x5C0 SWAP2 SWAP1 PUSH2 0x359E JUMP JUMPDEST PUSH2 0x100D JUMP JUMPDEST PUSH1 0x40 MLOAD PUSH2 0x5D2 SWAP2 SWAP1 PUSH2 0x360C JUMP JUMPDEST PUSH1 0x40 MLOAD DUP1 SWAP2 SUB SWAP1 RETURN JUMPDEST PUSH2 0x5F5 PUSH1 0x4 DUP1 CALLDATASIZE SUB DUP2 ADD SWAP1 PUSH2 0x5F0 SWAP2 SWAP1 PUSH2 0x38F4 JUMP JUMPDEST PUSH2 0x104B JUMP JUMPDEST PUSH1 0x40 MLOAD PUSH2 0x602 SWAP2 SWAP1 PUSH2 0x34FA JUMP JUMPDEST PUSH1 0x40 MLOAD DUP1 SWAP2 SUB SWAP1 RETURN JUMPDEST PUSH2 0x625 PUSH1 0x4 DUP1 CALLDATASIZE SUB DUP2 ADD SWAP1 PUSH2 0x620 SWAP2 SWAP1 PUSH2 0x38F4 JUMP JUMPDEST PUSH2 0x1179 JUMP JUMPDEST PUSH1 0x40 MLOAD PUSH2 0x632 SWAP2 SWAP1 PUSH2 0x371C JUMP JUMPDEST PUSH1 0x40 MLOAD DUP1 SWAP2 SUB SWAP1 RETURN JUMPDEST PUSH2 0x643 PUSH2 0x11D2 JUMP JUMPDEST PUSH1 0x40 MLOAD PUSH2 0x650 SWAP2 SWAP1 PUSH2 0x371C JUMP JUMPDEST PUSH1 0x40 MLOAD DUP1 SWAP2 SUB SWAP1 RETURN JUMPDEST PUSH2 0x673 PUSH1 0x4 DUP1 CALLDATASIZE SUB DUP2 ADD SWAP1 PUSH2 0x66E SWAP2 SWAP1 PUSH2 0x3921 JUMP JUMPDEST PUSH2 0x11D9 JUMP JUMPDEST STOP JUMPDEST PUSH2 0x67D PUSH2 0x183F JUMP JUMPDEST PUSH1 0x40 MLOAD PUSH2 0x68A SWAP2 SWAP1 PUSH2 0x39E4 JUMP JUMPDEST PUSH1 0x40 MLOAD DUP1 SWAP2 SUB SWAP1 RETURN JUMPDEST PUSH2 0x6AD PUSH1 0x4 DUP1 CALLDATASIZE SUB DUP2 ADD SWAP1 PUSH2 0x6A8 SWAP2 SWAP1 PUSH2 0x38F4 JUMP JUMPDEST PUSH2 0x1866 JUMP JUMPDEST PUSH1 0x40 MLOAD PUSH2 0x6BA SWAP2 SWAP1 PUSH2 0x371C JUMP JUMPDEST PUSH1 0x40 MLOAD DUP1 SWAP2 SUB SWAP1 RETURN JUMPDEST PUSH2 0x6DD PUSH1 0x4 DUP1 CALLDATASIZE SUB DUP2 ADD SWAP1 PUSH2 0x6D8 SWAP2 SWAP1 PUSH2 0x3A64 JUMP JUMPDEST PUSH2 0x1915 JUMP JUMPDEST STOP JUMPDEST PUSH2 0x6F9 PUSH1 0x4 DUP1 CALLDATASIZE SUB DUP2 ADD SWAP1 PUSH2 0x6F4 SWAP2 SWAP1 PUSH2 0x3878 JUMP JUMPDEST PUSH2 0x1A5B JUMP JUMPDEST PUSH1 0x40 MLOAD PUSH2 0x706 SWAP2 SWAP1 PUSH2 0x34FA JUMP JUMPDEST PUSH1 0x40 MLOAD DUP1 SWAP2 SUB SWAP1 RETURN JUMPDEST PUSH2 0x717 PUSH2 0x1AC6 JUMP JUMPDEST PUSH1 0x40 MLOAD PUSH2 0x724 SWAP2 SWAP1 PUSH2 0x371C JUMP JUMPDEST PUSH1 0x40 MLOAD DUP1 SWAP2 SUB SWAP1 RETURN JUMPDEST PUSH2 0x735 PUSH2 0x1ACD JUMP JUMPDEST PUSH1 0x40 MLOAD PUSH2 0x742 SWAP2 SWAP1 PUSH2 0x360C JUMP JUMPDEST PUSH1 0x40 MLOAD DUP1 SWAP2 SUB SWAP1 RETURN JUMPDEST PUSH2 0x753 PUSH2 0x1AF4 JUMP JUMPDEST PUSH1 0x40 MLOAD PUSH2 0x760 SWAP2 SWAP1 PUSH2 0x37E5 JUMP JUMPDEST PUSH1 0x40 MLOAD DUP1 SWAP2 SUB SWAP1 RETURN JUMPDEST PUSH2 0x783 PUSH1 0x4 DUP1 CALLDATASIZE SUB DUP2 ADD SWAP1 PUSH2 0x77E SWAP2 SWAP1 PUSH2 0x3AB1 JUMP JUMPDEST PUSH2 0x1AFB JUMP JUMPDEST STOP JUMPDEST PUSH2 0x79F PUSH1 0x4 DUP1 CALLDATASIZE SUB DUP2 ADD SWAP1 PUSH2 0x79A SWAP2 SWAP1 PUSH2 0x359E JUMP JUMPDEST PUSH2 0x1BEF JUMP JUMPDEST PUSH1 0x40 MLOAD PUSH2 0x7AC SWAP2 SWAP1 PUSH2 0x34FA JUMP JUMPDEST PUSH1 0x40 MLOAD DUP1 SWAP2 SUB SWAP1 RETURN JUMPDEST PUSH2 0x7CF PUSH1 0x4 DUP1 CALLDATASIZE SUB DUP2 ADD SWAP1 PUSH2 0x7CA SWAP2 SWAP1 PUSH2 0x38F4 JUMP JUMPDEST PUSH2 0x1D63 JUMP JUMPDEST PUSH1 0x40 MLOAD PUSH2 0x7DC SWAP2 SWAP1 PUSH2 0x34FA JUMP JUMPDEST PUSH1 0x40 MLOAD DUP1 SWAP2 SUB SWAP1 RETURN JUMPDEST PUSH2 0x7FF PUSH1 0x4 DUP1 CALLDATASIZE SUB DUP2 ADD SWAP1 PUSH2 0x7FA SWAP2 SWAP1 PUSH2 0x3AB1 JUMP JUMPDEST PUSH2 0x1D96 JUMP JUMPDEST STOP JUMPDEST PUSH2 0x809 PUSH2 0x1E01 JUMP JUMPDEST PUSH1 0x40 MLOAD PUSH2 0x816 SWAP2 SWAP1 PUSH2 0x3B12 JUMP JUMPDEST PUSH1 0x40 MLOAD DUP1 SWAP2 SUB SWAP1 RETURN JUMPDEST PUSH2 0x827 PUSH2 0x1E28 JUMP JUMPDEST PUSH1 0x40 MLOAD PUSH2 0x834 SWAP2 SWAP1 PUSH2 0x3B4E JUMP JUMPDEST PUSH1 0x40 MLOAD DUP1 SWAP2 SUB SWAP1 RETURN JUMPDEST PUSH2 0x845 PUSH2 0x1E4F JUMP JUMPDEST PUSH1 0x40 MLOAD PUSH2 0x852 SWAP2 SWAP1 PUSH2 0x3B86 JUMP JUMPDEST PUSH1 0x40 MLOAD DUP1 SWAP2 SUB SWAP1 RETURN JUMPDEST PUSH2 0x875 PUSH1 0x4 DUP1 CALLDATASIZE SUB DUP2 ADD SWAP1 PUSH2 0x870 SWAP2 SWAP1 PUSH2 0x38F4 JUMP JUMPDEST PUSH2 0x1E58 JUMP JUMPDEST STOP JUMPDEST PUSH2 0x87F PUSH2 0x1ED0 JUMP JUMPDEST PUSH1 0x40 MLOAD PUSH2 0x88C SWAP2 SWAP1 PUSH2 0x371C JUMP JUMPDEST PUSH1 0x40 MLOAD DUP1 SWAP2 SUB SWAP1 RETURN JUMPDEST PUSH2 0x8AF PUSH1 0x4 DUP1 CALLDATASIZE SUB DUP2 ADD SWAP1 PUSH2 0x8AA SWAP2 SWAP1 PUSH2 0x3878 JUMP JUMPDEST PUSH2 0x1EDB JUMP JUMPDEST STOP JUMPDEST PUSH2 0x8CB PUSH1 0x4 DUP1 CALLDATASIZE SUB DUP2 ADD SWAP1 PUSH2 0x8C6 SWAP2 SWAP1 PUSH2 0x3BDF JUMP JUMPDEST PUSH2 0x1EFC JUMP JUMPDEST STOP JUMPDEST PUSH2 0x8E7 PUSH1 0x4 DUP1 CALLDATASIZE SUB DUP2 ADD SWAP1 PUSH2 0x8E2 SWAP2 SWAP1 PUSH2 0x3C32 JUMP JUMPDEST PUSH2 0x20A6 JUMP JUMPDEST PUSH1 0x40 MLOAD PUSH2 0x8F4 SWAP2 SWAP1 PUSH2 0x34FA JUMP JUMPDEST PUSH1 0x40 MLOAD DUP1 SWAP2 SUB SWAP1 RETURN JUMPDEST PUSH2 0x905 PUSH2 0x213B JUMP JUMPDEST STOP JUMPDEST PUSH2 0x90F PUSH2 0x21AA JUMP JUMPDEST STOP JUMPDEST PUSH1 0x0 PUSH2 0x91C DUP3 PUSH2 0x21C7 JUMP JUMPDEST SWAP1 POP SWAP2 SWAP1 POP JUMP JUMPDEST PUSH2 0x92C DUP4 PUSH2 0x2241 JUMP JUMPDEST PUSH2 0x935 DUP4 PUSH2 0x2295 JUMP JUMPDEST PUSH2 0x93E DUP4 PUSH2 0x22D7 JUMP JUMPDEST PUSH2 0x947 DUP3 PUSH2 0x2241 JUMP JUMPDEST TIMESTAMP PUSH2 0x951 DUP5 PUSH2 0xFEC JUMP JUMPDEST PUSH2 0x95B SWAP2 SWAP1 PUSH2 0x3CA1 JUMP JUMPDEST DUP2 GT ISZERO PUSH2 0x994 JUMPI PUSH1 0x40 MLOAD PUSH32 0x8744776800000000000000000000000000000000000000000000000000000000 DUP2 MSTORE PUSH1 0x4 ADD PUSH1 0x40 MLOAD DUP1 SWAP2 SUB SWAP1 REVERT JUMPDEST PUSH2 0x9A0 DUP4 DUP3 PUSH1 0x0 PUSH2 0x2489 JUMP JUMPDEST PUSH2 0x9AC DUP3 DUP3 PUSH1 0x1 PUSH2 0x2489 JUMP JUMPDEST POP POP POP JUMP JUMPDEST PUSH1 0x0 PUSH2 0x9BC DUP3 PUSH2 0x2241 JUMP JUMPDEST PUSH1 0x0 PUSH2 0x1079 PUSH1 0x0 DUP5 DUP2 MSTORE PUSH1 0x20 ADD SWAP1 DUP2 MSTORE PUSH1 0x20 ADD PUSH1 0x0 KECCAK256 PUSH1 0x0 SWAP1 SLOAD SWAP1 PUSH2 0x100 EXP SWAP1 DIV PUSH20 0xFFFFFFFFFFFFFFFFFFFFFFFFFFFFFFFFFFFFFFFF AND SWAP1 POP DUP1 SWAP2 POP POP SWAP2 SWAP1 POP JUMP JUMPDEST PUSH2 0xA07 DUP2 PUSH2 0x22D7 JUMP JUMPDEST DUP2 PUSH20 0xFFFFFFFFFFFFFFFFFFFFFFFFFFFFFFFFFFFFFFFF AND CALLER PUSH20 0xFFFFFFFFFFFFFFFFFFFFFFFFFFFFFFFFFFFFFFFF AND SUB PUSH2 0xA6C JUMPI PUSH1 0x40 MLOAD PUSH32 0xF13228CA00000000000000000000000000000000000000000000000000000000 DUP2 MSTORE PUSH1 0x4 ADD PUSH1 0x40 MLOAD DUP1 SWAP2 SUB SWAP1 REVERT JUMPDEST DUP2 PUSH2 0x1079 PUSH1 0x0 DUP4 DUP2 MSTORE PUSH1 0x20 ADD SWAP1 DUP2 MSTORE PUSH1 0x20 ADD PUSH1 0x0 KECCAK256 PUSH1 0x0 PUSH2 0x100 EXP DUP2 SLOAD DUP2 PUSH20 0xFFFFFFFFFFFFFFFFFFFFFFFFFFFFFFFFFFFFFFFF MUL NOT AND SWAP1 DUP4 PUSH20 0xFFFFFFFFFFFFFFFFFFFFFFFFFFFFFFFFFFFFFFFF AND MUL OR SWAP1 SSTORE POP DUP1 DUP3 PUSH20 0xFFFFFFFFFFFFFFFFFFFFFFFFFFFFFFFFFFFFFFFF AND PUSH2 0x1076 PUSH1 0x0 DUP5 DUP2 MSTORE PUSH1 0x20 ADD SWAP1 DUP2 MSTORE PUSH1 0x20 ADD PUSH1 0x0 KECCAK256 PUSH1 0x0 SWAP1 SLOAD SWAP1 PUSH2 0x100 EXP SWAP1 DIV PUSH20 0xFFFFFFFFFFFFFFFFFFFFFFFFFFFFFFFFFFFFFFFF AND PUSH20 0xFFFFFFFFFFFFFFFFFFFFFFFFFFFFFFFFFFFFFFFF AND PUSH32 0x8C5BE1E5EBEC7D5BD14F71427D1E84F3DD0314C0F7B2291E5B200AC8C7C3B925 PUSH1 0x40 MLOAD PUSH1 0x40 MLOAD DUP1 SWAP2 SUB SWAP1 LOG4 POP POP JUMP JUMPDEST PUSH2 0xC83 PUSH1 0x0 SWAP1 SLOAD SWAP1 PUSH2 0x100 EXP SWAP1 DIV PUSH20 0xFFFFFFFFFFFFFFFFFFFFFFFFFFFFFFFFFFFFFFFF AND DUP2 JUMP JUMPDEST PUSH2 0xC85 SLOAD DUP2 JUMP JUMPDEST PUSH2 0xC84 SLOAD DUP2 JUMP JUMPDEST PUSH1 0x0 PUSH2 0xC87 SLOAD SWAP1 POP SWAP1 JUMP JUMPDEST PUSH2 0xC8A PUSH1 0x0 SWAP1 SLOAD SWAP1 PUSH2 0x100 EXP SWAP1 DIV PUSH20 0xFFFFFFFFFFFFFFFFFFFFFFFFFFFFFFFFFFFFFFFF AND DUP2 JUMP JUMPDEST PUSH1 0x0 PUSH1 0x97 PUSH1 0x0 DUP4 DUP2 MSTORE PUSH1 0x20 ADD SWAP1 DUP2 MSTORE PUSH1 0x20 ADD PUSH1 0x0 KECCAK256 PUSH1 0x1 ADD SLOAD SWAP1 POP SWAP2 SWAP1 POP JUMP JUMPDEST PUSH2 0xC8B PUSH1 0x0 SWAP1 SLOAD SWAP1 PUSH2 0x100 EXP SWAP1 DIV PUSH20 0xFFFFFFFFFFFFFFFFFFFFFFFFFFFFFFFFFFFFFFFF AND DUP2 JUMP JUMPDEST PUSH2 0xC08 PUSH2 0x2596 JUMP JUMPDEST PUSH1 0x0 DUP2 SUB PUSH2 0xC42 JUMPI PUSH1 0x40 MLOAD PUSH32 0xE03B033D00000000000000000000000000000000000000000000000000000000 DUP2 MSTORE PUSH1 0x4 ADD PUSH1 0x40 MLOAD DUP1 SWAP2 SUB SWAP1 REVERT JUMPDEST PUSH2 0xC87 SLOAD DUP3 LT ISZERO PUSH2 0xC7F JUMPI PUSH1 0x40 MLOAD PUSH32 0x1D00CD6B00000000000000000000000000000000000000000000000000000000 DUP2 MSTORE PUSH1 0x4 ADD PUSH1 0x40 MLOAD DUP1 SWAP2 SUB SWAP1 REVERT JUMPDEST DUP1 PUSH2 0xC8E DUP2 SWAP1 SSTORE POP DUP3 PUSH2 0xC84 DUP2 SWAP1 SSTORE POP DUP2 PUSH2 0xC86 DUP2 SWAP1 SSTORE POP PUSH32 0x9A09448A3F24D3A01CCC67103C7CDDBEEA820176A18182CC83D0BCE585F26A5B DUP4 DUP4 PUSH2 0xC8E SLOAD PUSH1 0x40 MLOAD PUSH2 0xCCD SWAP4 SWAP3 SWAP2 SWAP1 PUSH2 0x3CD5 JUMP JUMPDEST PUSH1 0x40 MLOAD DUP1 SWAP2 SUB SWAP1 LOG1 POP POP POP JUMP JUMPDEST PUSH2 0xC89 PUSH1 0x0 SWAP1 SLOAD SWAP1 PUSH2 0x100 EXP SWAP1 DIV PUSH20 0xFFFFFFFFFFFFFFFFFFFFFFFFFFFFFFFFFFFFFFFF AND DUP2 JUMP JUMPDEST PUSH2 0xD0A DUP3 PUSH2 0xBB9 JUMP JUMPDEST PUSH2 0xD13 DUP2 PUSH2 0x25F8 JUMP JUMPDEST PUSH2 0xD1D DUP4 DUP4 PUSH2 0x260C JUMP JUMPDEST POP POP POP JUMP JUMPDEST PUSH1 0x0 PUSH2 0xD2D DUP4 PUSH2 0x1866 JUMP JUMPDEST DUP3 LT PUSH2 0xD65 JUMPI PUSH1 0x40 MLOAD PUSH32 0x8E22EAE00000000000000000000000000000000000000000000000000000000 DUP2 MSTORE PUSH1 0x4 ADD PUSH1 0x40 MLOAD DUP1 SWAP2 SUB SWAP1 REVERT JUMPDEST PUSH2 0x107C PUSH1 0x0 DUP5 PUSH20 0xFFFFFFFFFFFFFFFFFFFFFFFFFFFFFFFFFFFFFFFF AND PUSH20 0xFFFFFFFFFFFFFFFFFFFFFFFFFFFFFFFFFFFFFFFF AND DUP2 MSTORE PUSH1 0x20 ADD SWAP1 DUP2 MSTORE PUSH1 0x20 ADD PUSH1 0x0 KECCAK256 PUSH1 0x0 DUP4 DUP2 MSTORE PUSH1 0x20 ADD SWAP1 DUP2 MSTORE PUSH1 0x20 ADD PUSH1 0x0 KECCAK256 SLOAD SWAP1 POP SWAP3 SWAP2 POP POP JUMP JUMPDEST PUSH2 0xDC7 PUSH2 0x26ED JUMP JUMPDEST PUSH20 0xFFFFFFFFFFFFFFFFFFFFFFFFFFFFFFFFFFFFFFFF AND DUP2 PUSH20 0xFFFFFFFFFFFFFFFFFFFFFFFFFFFFFFFFFFFFFFFF AND EQ PUSH2 0xE34 JUMPI PUSH1 0x40 MLOAD PUSH32 0x8C379A000000000000000000000000000000000000000000000000000000000 DUP2 MSTORE PUSH1 0x4 ADD PUSH2 0xE2B SWAP1 PUSH2 0x3D8F JUMP JUMPDEST PUSH1 0x40 MLOAD DUP1 SWAP2 SUB SWAP1 REVERT JUMPDEST PUSH2 0xE3E DUP3 DUP3 PUSH2 0x26F5 JUMP JUMPDEST POP POP JUMP JUMPDEST PUSH2 0xC8F PUSH1 0x0 SWAP1 SLOAD SWAP1 PUSH2 0x100 EXP SWAP1 DIV PUSH20 0xFFFFFFFFFFFFFFFFFFFFFFFFFFFFFFFFFFFFFFFF AND DUP2 JUMP JUMPDEST PUSH2 0xE72 DUP2 PUSH2 0x2241 JUMP JUMPDEST PUSH2 0xE7B DUP2 PUSH2 0x22D7 JUMP JUMPDEST DUP1 PUSH1 0x0 PUSH20 0xFFFFFFFFFFFFFFFFFFFFFFFFFFFFFFFFFFFFFFFF AND PUSH2 0x1076 PUSH1 0x0 DUP5 DUP2 MSTORE PUSH1 0x20 ADD SWAP1 DUP2 MSTORE PUSH1 0x20 ADD PUSH1 0x0 KECCAK256 PUSH1 0x0 SWAP1 SLOAD SWAP1 PUSH2 0x100 EXP SWAP1 DIV PUSH20 0xFFFFFFFFFFFFFFFFFFFFFFFFFFFFFFFFFFFFFFFF AND PUSH20 0xFFFFFFFFFFFFFFFFFFFFFFFFFFFFFFFFFFFFFFFF AND PUSH32 0xDDF252AD1BE2C89B69C2B068FC378DAA952BA7F163C4A11628F55A4DF523B3EF PUSH1 0x40 MLOAD PUSH1 0x40 MLOAD DUP1 SWAP2 SUB SWAP1 LOG4 PUSH2 0xF14 DUP2 PUSH2 0x27D7 JUMP JUMPDEST PUSH1 0x0 PUSH2 0x1076 PUSH1 0x0 DUP4 DUP2 MSTORE PUSH1 0x20 ADD SWAP1 DUP2 MSTORE PUSH1 0x20 ADD PUSH1 0x0 KECCAK256 PUSH1 0x0 PUSH2 0x100 EXP DUP2 SLOAD DUP2 PUSH20 0xFFFFFFFFFFFFFFFFFFFFFFFFFFFFFFFFFFFFFFFF MUL NOT AND SWAP1 DUP4 PUSH20 0xFFFFFFFFFFFFFFFFFFFFFFFFFFFFFFFFFFFFFFFF AND MUL OR SWAP1 SSTORE POP POP JUMP JUMPDEST PUSH2 0x1078 PUSH1 0x20 MSTORE DUP1 PUSH1 0x0 MSTORE PUSH1 0x40 PUSH1 0x0 KECCAK256 PUSH1 0x0 SWAP2 POP SLOAD SWAP1 PUSH2 0x100 EXP SWAP1 DIV PUSH20 0xFFFFFFFFFFFFFFFFFFFFFFFFFFFFFFFFFFFFFFFF AND DUP2 JUMP JUMPDEST PUSH2 0xC8D SLOAD DUP2 JUMP JUMPDEST PUSH1 0x0 PUSH2 0xC87 SLOAD DUP3 LT PUSH2 0xFE4 JUMPI PUSH1 0x40 MLOAD PUSH32 0x8E22EAE00000000000000000000000000000000000000000000000000000000 DUP2 MSTORE PUSH1 0x4 ADD PUSH1 0x40 MLOAD DUP1 SWAP2 SUB SWAP1 REVERT JUMPDEST DUP2 SWAP1 POP SWAP2 SWAP1 POP JUMP JUMPDEST PUSH1 0x0 PUSH2 0x107B PUSH1 0x0 DUP4 DUP2 MSTORE PUSH1 0x20 ADD SWAP1 DUP2 MSTORE PUSH1 0x20 ADD PUSH1 0x0 KECCAK256 PUSH1 0x1 ADD SLOAD SWAP1 POP SWAP2 SWAP1 POP JUMP JUMPDEST PUSH1 0x0 PUSH2 0x1076 PUSH1 0x0 DUP4 DUP2 MSTORE PUSH1 0x20 ADD SWAP1 DUP2 MSTORE PUSH1 0x20 ADD PUSH1 0x0 KECCAK256 PUSH1 0x0 SWAP1 SLOAD SWAP1 PUSH2 0x100 EXP SWAP1 DIV PUSH20 0xFFFFFFFFFFFFFFFFFFFFFFFFFFFFFFFFFFFFFFFF AND SWAP1 POP SWAP2 SWAP1 POP JUMP JUMPDEST PUSH1 0x0 DUP1 PUSH2 0x1057 DUP4 PUSH2 0x1179 JUMP JUMPDEST SUB PUSH2 0x1164 JUMPI PUSH1 0x0 PUSH20 0xFFFFFFFFFFFFFFFFFFFFFFFFFFFFFFFFFFFFFFFF AND PUSH2 0xC8B PUSH1 0x0 SWAP1 SLOAD SWAP1 PUSH2 0x100 EXP SWAP1 DIV PUSH20 0xFFFFFFFFFFFFFFFFFFFFFFFFFFFFFFFFFFFFFFFF AND PUSH20 0xFFFFFFFFFFFFFFFFFFFFFFFFFFFFFFFFFFFFFFFF AND EQ PUSH2 0x1163 JUMPI PUSH2 0xC8B PUSH1 0x0 SWAP1 SLOAD SWAP1 PUSH2 0x100 EXP SWAP1 DIV PUSH20 0xFFFFFFFFFFFFFFFFFFFFFFFFFFFFFFFFFFFFFFFF AND PUSH20 0xFFFFFFFFFFFFFFFFFFFFFFFFFFFFFFFFFFFFFFFF AND PUSH4 0x427EDE38 ADDRESS CALLER PUSH1 0x0 DUP1 DUP8 PUSH1 0x0 PUSH1 0x40 MLOAD DUP8 PUSH4 0xFFFFFFFF AND PUSH1 0xE0 SHL DUP2 MSTORE PUSH1 0x4 ADD PUSH2 0x111B SWAP7 SWAP6 SWAP5 SWAP4 SWAP3 SWAP2 SWAP1 PUSH2 0x3DEA JUMP JUMPDEST PUSH1 0x20 PUSH1 0x40 MLOAD DUP1 DUP4 SUB DUP2 DUP7 GAS STATICCALL ISZERO DUP1 ISZERO PUSH2 0x1138 JUMPI RETURNDATASIZE PUSH1 0x0 DUP1 RETURNDATACOPY RETURNDATASIZE PUSH1 0x0 REVERT JUMPDEST POP POP POP POP PUSH1 0x40 MLOAD RETURNDATASIZE PUSH1 0x1F NOT PUSH1 0x1F DUP3 ADD AND DUP3 ADD DUP1 PUSH1 0x40 MSTORE POP DUP2 ADD SWAP1 PUSH2 0x115C SWAP2 SWAP1 PUSH2 0x3E77 JUMP JUMPDEST SWAP1 POP PUSH2 0x1174 JUMP JUMPDEST JUMPDEST PUSH1 0x1 PUSH2 0x116F DUP4 PUSH2 0x1179 JUMP JUMPDEST LT ISZERO SWAP1 POP JUMPDEST SWAP2 SWAP1 POP JUMP JUMPDEST PUSH1 0x0 DUP1 PUSH2 0x1185 DUP4 PUSH2 0x1866 JUMP JUMPDEST SWAP1 POP PUSH1 0x0 JUMPDEST DUP2 DUP2 LT ISZERO PUSH2 0x11CB JUMPI PUSH2 0x11A4 PUSH2 0x119F DUP6 DUP4 PUSH2 0xD22 JUMP JUMPDEST PUSH2 0x1BEF JUMP JUMPDEST ISZERO PUSH2 0x11B8 JUMPI DUP3 DUP1 PUSH2 0x11B4 SWAP1 PUSH2 0x3EA4 JUMP JUMPDEST SWAP4 POP POP JUMPDEST DUP1 DUP1 PUSH2 0x11C3 SWAP1 PUSH2 0x3EA4 JUMP JUMPDEST SWAP2 POP POP PUSH2 0x118A JUMP JUMPDEST POP POP SWAP2 SWAP1 POP JUMP JUMPDEST PUSH2 0xC86 SLOAD DUP2 JUMP JUMPDEST PUSH2 0x11E1 PUSH2 0x2596 JUMP JUMPDEST PUSH1 0x0 PUSH20 0xFFFFFFFFFFFFFFFFFFFFFFFFFFFFFFFFFFFFFFFF AND DUP8 PUSH20 0xFFFFFFFFFFFFFFFFFFFFFFFFFFFFFFFFFFFFFFFF AND EQ ISZERO DUP1 ISZERO PUSH2 0x123A JUMPI POP PUSH2 0x1238 DUP8 PUSH20 0xFFFFFFFFFFFFFFFFFFFFFFFFFFFFFFFFFFFFFFFF AND PUSH2 0x27F6 JUMP JUMPDEST ISZERO JUMPDEST ISZERO PUSH2 0x127D JUMPI PUSH1 0x0 PUSH1 0x40 MLOAD PUSH32 0x6788E02B00000000000000000000000000000000000000000000000000000000 DUP2 MSTORE PUSH1 0x4 ADD PUSH2 0x1274 SWAP2 SWAP1 PUSH2 0x3F2A JUMP JUMPDEST PUSH1 0x40 MLOAD DUP1 SWAP2 SUB SWAP1 REVERT JUMPDEST PUSH1 0x0 PUSH20 0xFFFFFFFFFFFFFFFFFFFFFFFFFFFFFFFFFFFFFFFF AND DUP7 PUSH20 0xFFFFFFFFFFFFFFFFFFFFFFFFFFFFFFFFFFFFFFFF AND EQ ISZERO DUP1 ISZERO PUSH2 0x12D6 JUMPI POP PUSH2 0x12D4 DUP7 PUSH20 0xFFFFFFFFFFFFFFFFFFFFFFFFFFFFFFFFFFFFFFFF AND PUSH2 0x27F6 JUMP JUMPDEST ISZERO JUMPDEST ISZERO PUSH2 0x1319 JUMPI PUSH1 0x1 PUSH1 0x40 MLOAD PUSH32 0x6788E02B00000000000000000000000000000000000000000000000000000000 DUP2 MSTORE PUSH1 0x4 ADD PUSH2 0x1310 SWAP2 SWAP1 PUSH2 0x3F80 JUMP JUMPDEST PUSH1 0x40 MLOAD DUP1 SWAP2 SUB SWAP1 REVERT JUMPDEST PUSH1 0x0 PUSH20 0xFFFFFFFFFFFFFFFFFFFFFFFFFFFFFFFFFFFFFFFF AND DUP6 PUSH20 0xFFFFFFFFFFFFFFFFFFFFFFFFFFFFFFFFFFFFFFFF AND EQ ISZERO DUP1 ISZERO PUSH2 0x1372 JUMPI POP PUSH2 0x1370 DUP6 PUSH20 0xFFFFFFFFFFFFFFFFFFFFFFFFFFFFFFFFFFFFFFFF AND PUSH2 0x27F6 JUMP JUMPDEST ISZERO JUMPDEST ISZERO PUSH2 0x13B5 JUMPI PUSH1 0x2 PUSH1 0x40 MLOAD PUSH32 0x6788E02B00000000000000000000000000000000000000000000000000000000 DUP2 MSTORE PUSH1 0x4 ADD PUSH2 0x13AC SWAP2 SWAP1 PUSH2 0x3FD6 JUMP JUMPDEST PUSH1 0x40 MLOAD DUP1 SWAP2 SUB SWAP1 REVERT JUMPDEST PUSH1 0x0 PUSH20 0xFFFFFFFFFFFFFFFFFFFFFFFFFFFFFFFFFFFFFFFF AND DUP5 PUSH20 0xFFFFFFFFFFFFFFFFFFFFFFFFFFFFFFFFFFFFFFFF AND EQ ISZERO DUP1 ISZERO PUSH2 0x140E JUMPI POP PUSH2 0x140C DUP5 PUSH20 0xFFFFFFFFFFFFFFFFFFFFFFFFFFFFFFFFFFFFFFFF AND PUSH2 0x27F6 JUMP JUMPDEST ISZERO JUMPDEST ISZERO PUSH2 0x1451 JUMPI PUSH1 0x3 PUSH1 0x40 MLOAD PUSH32 0x6788E02B00000000000000000000000000000000000000000000000000000000 DUP2 MSTORE PUSH1 0x4 ADD PUSH2 0x1448 SWAP2 SWAP1 PUSH2 0x402C JUMP JUMPDEST PUSH1 0x40 MLOAD DUP1 SWAP2 SUB SWAP1 REVERT JUMPDEST PUSH1 0x0 PUSH20 0xFFFFFFFFFFFFFFFFFFFFFFFFFFFFFFFFFFFFFFFF AND DUP4 PUSH20 0xFFFFFFFFFFFFFFFFFFFFFFFFFFFFFFFFFFFFFFFF AND EQ ISZERO DUP1 ISZERO PUSH2 0x14AA JUMPI POP PUSH2 0x14A8 DUP4 PUSH20 0xFFFFFFFFFFFFFFFFFFFFFFFFFFFFFFFFFFFFFFFF AND PUSH2 0x27F6 JUMP JUMPDEST ISZERO JUMPDEST ISZERO PUSH2 0x14ED JUMPI PUSH1 0x4 PUSH1 0x40 MLOAD PUSH32 0x6788E02B00000000000000000000000000000000000000000000000000000000 DUP2 MSTORE PUSH1 0x4 ADD PUSH2 0x14E4 SWAP2 SWAP1 PUSH2 0x4082 JUMP JUMPDEST PUSH1 0x40 MLOAD DUP1 SWAP2 SUB SWAP1 REVERT JUMPDEST PUSH1 0x0 PUSH20 0xFFFFFFFFFFFFFFFFFFFFFFFFFFFFFFFFFFFFFFFF AND DUP3 PUSH20 0xFFFFFFFFFFFFFFFFFFFFFFFFFFFFFFFFFFFFFFFF AND EQ ISZERO DUP1 ISZERO PUSH2 0x1546 JUMPI POP PUSH2 0x1544 DUP3 PUSH20 0xFFFFFFFFFFFFFFFFFFFFFFFFFFFFFFFFFFFFFFFF AND PUSH2 0x27F6 JUMP JUMPDEST ISZERO JUMPDEST ISZERO PUSH2 0x1589 JUMPI PUSH1 0x5 PUSH1 0x40 MLOAD PUSH32 0x6788E02B00000000000000000000000000000000000000000000000000000000 DUP2 MSTORE PUSH1 0x4 ADD PUSH2 0x1580 SWAP2 SWAP1 PUSH2 0x40D8 JUMP JUMPDEST PUSH1 0x40 MLOAD DUP1 SWAP2 SUB SWAP1 REVERT JUMPDEST PUSH1 0x0 PUSH20 0xFFFFFFFFFFFFFFFFFFFFFFFFFFFFFFFFFFFFFFFF AND DUP2 PUSH20 0xFFFFFFFFFFFFFFFFFFFFFFFFFFFFFFFFFFFFFFFF AND EQ ISZERO DUP1 ISZERO PUSH2 0x15E2 JUMPI POP PUSH2 0x15E0 DUP2 PUSH20 0xFFFFFFFFFFFFFFFFFFFFFFFFFFFFFFFFFFFFFFFF AND PUSH2 0x27F6 JUMP JUMPDEST ISZERO JUMPDEST ISZERO PUSH2 0x1625 JUMPI PUSH1 0x6 PUSH1 0x40 MLOAD PUSH32 0x6788E02B00000000000000000000000000000000000000000000000000000000 DUP2 MSTORE PUSH1 0x4 ADD PUSH2 0x161C SWAP2 SWAP1 PUSH2 0x412E JUMP JUMPDEST PUSH1 0x40 MLOAD DUP1 SWAP2 SUB SWAP1 REVERT JUMPDEST DUP7 PUSH2 0xC89 PUSH1 0x0 PUSH2 0x100 EXP DUP2 SLOAD DUP2 PUSH20 0xFFFFFFFFFFFFFFFFFFFFFFFFFFFFFFFFFFFFFFFF MUL NOT AND SWAP1 DUP4 PUSH20 0xFFFFFFFFFFFFFFFFFFFFFFFFFFFFFFFFFFFFFFFF AND MUL OR SWAP1 SSTORE POP DUP6 PUSH2 0xC8A PUSH1 0x0 PUSH2 0x100 EXP DUP2 SLOAD DUP2 PUSH20 0xFFFFFFFFFFFFFFFFFFFFFFFFFFFFFFFFFFFFFFFF MUL NOT AND SWAP1 DUP4 PUSH20 0xFFFFFFFFFFFFFFFFFFFFFFFFFFFFFFFFFFFFFFFF AND MUL OR SWAP1 SSTORE POP DUP4 PUSH2 0xC8C PUSH1 0x0 PUSH2 0x100 EXP DUP2 SLOAD DUP2 PUSH20 0xFFFFFFFFFFFFFFFFFFFFFFFFFFFFFFFFFFFFFFFF MUL NOT AND SWAP1 DUP4 PUSH20 0xFFFFFFFFFFFFFFFFFFFFFFFFFFFFFFFFFFFFFFFF AND MUL OR SWAP1 SSTORE POP DUP5 PUSH2 0xC8B PUSH1 0x0 PUSH2 0x100 EXP DUP2 SLOAD DUP2 PUSH20 0xFFFFFFFFFFFFFFFFFFFFFFFFFFFFFFFFFFFFFFFF MUL NOT AND SWAP1 DUP4 PUSH20 0xFFFFFFFFFFFFFFFFFFFFFFFFFFFFFFFFFFFFFFFF AND MUL OR SWAP1 SSTORE POP DUP3 PUSH2 0xC8F PUSH1 0x0 PUSH2 0x100 EXP DUP2 SLOAD DUP2 PUSH20 0xFFFFFFFFFFFFFFFFFFFFFFFFFFFFFFFFFFFFFFFF MUL NOT AND SWAP1 DUP4 PUSH20 0xFFFFFFFFFFFFFFFFFFFFFFFFFFFFFFFFFFFFFFFF AND MUL OR SWAP1 SSTORE POP DUP2 PUSH2 0xC90 PUSH1 0x0 PUSH2 0x100 EXP DUP2 SLOAD DUP2 PUSH20 0xFFFFFFFFFFFFFFFFFFFFFFFFFFFFFFFFFFFFFFFF MUL NOT AND SWAP1 DUP4 PUSH20 0xFFFFFFFFFFFFFFFFFFFFFFFFFFFFFFFFFFFFFFFF AND MUL OR SWAP1 SSTORE POP DUP1 PUSH2 0xC91 PUSH1 0x0 PUSH2 0x100 EXP DUP2 SLOAD DUP2 PUSH20 0xFFFFFFFFFFFFFFFFFFFFFFFFFFFFFFFFFFFFFFFF MUL NOT AND SWAP1 DUP4 PUSH20 0xFFFFFFFFFFFFFFFFFFFFFFFFFFFFFFFFFFFFFFFF AND MUL OR SWAP1 SSTORE POP PUSH32 0xA851288E37FA9A8BC562891998524E95C286FE84F693C1921E0FD0792171AF6 DUP8 DUP8 DUP8 DUP8 DUP8 DUP8 DUP8 PUSH1 0x40 MLOAD PUSH2 0x182E SWAP8 SWAP7 SWAP6 SWAP5 SWAP4 SWAP3 SWAP2 SWAP1 PUSH2 0x4149 JUMP JUMPDEST PUSH1 0x40 MLOAD DUP1 SWAP2 SUB SWAP1 LOG1 POP POP POP POP POP POP POP JUMP JUMPDEST PUSH2 0xC8C PUSH1 0x0 SWAP1 SLOAD SWAP1 PUSH2 0x100 EXP SWAP1 DIV PUSH20 0xFFFFFFFFFFFFFFFFFFFFFFFFFFFFFFFFFFFFFFFF AND DUP2 JUMP JUMPDEST PUSH1 0x0 DUP1 PUSH20 0xFFFFFFFFFFFFFFFFFFFFFFFFFFFFFFFFFFFFFFFF AND DUP3 PUSH20 0xFFFFFFFFFFFFFFFFFFFFFFFFFFFFFFFFFFFFFFFF AND SUB PUSH2 0x18CD JUMPI PUSH1 0x40 MLOAD PUSH32 0x5963709B00000000000000000000000000000000000000000000000000000000 DUP2 MSTORE PUSH1 0x4 ADD PUSH1 0x40 MLOAD DUP1 SWAP2 SUB SWAP1 REVERT JUMPDEST PUSH2 0x107E PUSH1 0x0 DUP4 PUSH20 0xFFFFFFFFFFFFFFFFFFFFFFFFFFFFFFFFFFFFFFFF AND PUSH20 0xFFFFFFFFFFFFFFFFFFFFFFFFFFFFFFFFFFFFFFFF AND DUP2 MSTORE PUSH1 0x20 ADD SWAP1 DUP2 MSTORE PUSH1 0x20 ADD PUSH1 0x0 KECCAK256 SLOAD SWAP1 POP SWAP2 SWAP1 POP JUMP JUMPDEST PUSH1 0x1 PUSH2 0x191F PUSH2 0x1E4F JUMP JUMPDEST PUSH2 0x1929 SWAP2 SWAP1 PUSH2 0x41B8 JUMP JUMPDEST PUSH2 0xFFFF AND PUSH2 0xC8D SLOAD EQ DUP1 PUSH2 0x1940 JUMPI POP PUSH1 0x0 PUSH2 0xC8D SLOAD EQ JUMPDEST PUSH2 0x197F JUMPI PUSH1 0x40 MLOAD PUSH32 0x8C379A000000000000000000000000000000000000000000000000000000000 DUP2 MSTORE PUSH1 0x4 ADD PUSH2 0x1976 SWAP1 PUSH2 0x423A JUMP JUMPDEST PUSH1 0x40 MLOAD DUP1 SWAP2 SUB SWAP1 REVERT JUMPDEST PUSH1 0x1 CHAINID SUB PUSH2 0x1A44 JUMPI PUSH1 0x0 PUSH20 0xE79B93F8E22676774F2A8DAD469175EBD00029FA SWAP1 POP DUP1 PUSH20 0xFFFFFFFFFFFFFFFFFFFFFFFFFFFFFFFFFFFFFFFF AND PUSH4 0xED9674BD PUSH1 0x40 MLOAD DUP2 PUSH4 0xFFFFFFFF AND PUSH1 0xE0 SHL DUP2 MSTORE PUSH1 0x4 ADD PUSH1 0x0 PUSH1 0x40 MLOAD DUP1 DUP4 SUB DUP2 PUSH1 0x0 DUP8 DUP1 EXTCODESIZE ISZERO DUP1 ISZERO PUSH2 0x19E8 JUMPI PUSH1 0x0 DUP1 REVERT JUMPDEST POP GAS CALL ISZERO DUP1 ISZERO PUSH2 0x19FC JUMPI RETURNDATASIZE PUSH1 0x0 DUP1 RETURNDATACOPY RETURNDATASIZE PUSH1 0x0 REVERT JUMPDEST POP POP POP POP DUP1 PUSH2 0xC83 PUSH1 0x0 PUSH2 0x100 EXP DUP2 SLOAD DUP2 PUSH20 0xFFFFFFFFFFFFFFFFFFFFFFFFFFFFFFFFFFFFFFFF MUL NOT AND SWAP1 DUP4 PUSH20 0xFFFFFFFFFFFFFFFFFFFFFFFFFFFFFFFFFFFFFFFF AND MUL OR SWAP1 SSTORE POP POP JUMPDEST PUSH2 0x1A4C PUSH2 0x1E4F JUMP JUMPDEST PUSH2 0xFFFF AND PUSH2 0xC8D DUP2 SWAP1 SSTORE POP POP POP JUMP JUMPDEST PUSH1 0x0 PUSH1 0x97 PUSH1 0x0 DUP5 DUP2 MSTORE PUSH1 0x20 ADD SWAP1 DUP2 MSTORE PUSH1 0x20 ADD PUSH1 0x0 KECCAK256 PUSH1 0x0 ADD PUSH1 0x0 DUP4 PUSH20 0xFFFFFFFFFFFFFFFFFFFFFFFFFFFFFFFFFFFFFFFF AND PUSH20 0xFFFFFFFFFFFFFFFFFFFFFFFFFFFFFFFFFFFFFFFF AND DUP2 MSTORE PUSH1 0x20 ADD SWAP1 DUP2 MSTORE PUSH1 0x20 ADD PUSH1 0x0 KECCAK256 PUSH1 0x0 SWAP1 SLOAD SWAP1 PUSH2 0x100 EXP SWAP1 DIV PUSH1 0xFF AND SWAP1 POP SWAP3 SWAP2 POP POP JUMP JUMPDEST PUSH2 0x1077 SLOAD DUP2 JUMP JUMPDEST PUSH2 0x4B1 PUSH1 0x0 SWAP1 SLOAD SWAP1 PUSH2 0x100 EXP SWAP1 DIV PUSH20 0xFFFFFFFFFFFFFFFFFFFFFFFFFFFFFFFFFFFFFFFF AND DUP2 JUMP JUMPDEST PUSH1 0x0 DUP1 SHL DUP2 JUMP JUMPDEST PUSH2 0x1B03 PUSH2 0x2596 JUMP JUMPDEST PUSH2 0x1B0C DUP2 PUSH2 0x2819 JUMP JUMPDEST PUSH1 0x0 PUSH2 0xC85 SLOAD SWAP1 POP PUSH1 0x0 PUSH2 0x4B1 PUSH1 0x0 SWAP1 SLOAD SWAP1 PUSH2 0x100 EXP SWAP1 DIV PUSH20 0xFFFFFFFFFFFFFFFFFFFFFFFFFFFFFFFFFFFFFFFF AND SWAP1 POP DUP4 PUSH2 0xC85 DUP2 SWAP1 SSTORE POP DUP3 PUSH2 0x4B1 PUSH1 0x0 PUSH2 0x100 EXP DUP2 SLOAD DUP2 PUSH20 0xFFFFFFFFFFFFFFFFFFFFFFFFFFFFFFFFFFFFFFFF MUL NOT AND SWAP1 DUP4 PUSH20 0xFFFFFFFFFFFFFFFFFFFFFFFFFFFFFFFFFFFFFFFF AND MUL OR SWAP1 SSTORE POP PUSH32 0x3615065CCF48367AC483AC86701248E2E5FF55BDD9BE845007D34A3B68D719D4 DUP3 PUSH2 0xC85 SLOAD DUP4 PUSH2 0x4B1 PUSH1 0x0 SWAP1 SLOAD SWAP1 PUSH2 0x100 EXP SWAP1 DIV PUSH20 0xFFFFFFFFFFFFFFFFFFFFFFFFFFFFFFFFFFFFFFFF AND PUSH1 0x40 MLOAD PUSH2 0x1BE1 SWAP5 SWAP4 SWAP3 SWAP2 SWAP1 PUSH2 0x425A JUMP JUMPDEST PUSH1 0x40 MLOAD DUP1 SWAP2 SUB SWAP1 LOG1 POP POP POP POP JUMP JUMPDEST PUSH1 0x0 DUP1 TIMESTAMP PUSH2 0x107B PUSH1 0x0 DUP6 DUP2 MSTORE PUSH1 0x20 ADD SWAP1 DUP2 MSTORE PUSH1 0x20 ADD PUSH1 0x0 KECCAK256 PUSH1 0x1 ADD SLOAD GT SWAP1 POP PUSH1 0x0 PUSH20 0xFFFFFFFFFFFFFFFFFFFFFFFFFFFFFFFFFFFFFFFF AND PUSH2 0xC8B PUSH1 0x0 SWAP1 SLOAD SWAP1 PUSH2 0x100 EXP SWAP1 DIV PUSH20 0xFFFFFFFFFFFFFFFFFFFFFFFFFFFFFFFFFFFFFFFF AND PUSH20 0xFFFFFFFFFFFFFFFFFFFFFFFFFFFFFFFFFFFFFFFF AND EQ PUSH2 0x1D5A JUMPI PUSH2 0xC8B PUSH1 0x0 SWAP1 SLOAD SWAP1 PUSH2 0x100 EXP SWAP1 DIV PUSH20 0xFFFFFFFFFFFFFFFFFFFFFFFFFFFFFFFFFFFFFFFF AND PUSH20 0xFFFFFFFFFFFFFFFFFFFFFFFFFFFFFFFFFFFFFFFF AND PUSH4 0x427EDE38 ADDRESS CALLER DUP7 PUSH2 0x107B PUSH1 0x0 DUP10 DUP2 MSTORE PUSH1 0x20 ADD SWAP1 DUP2 MSTORE PUSH1 0x20 ADD PUSH1 0x0 KECCAK256 PUSH1 0x1 ADD SLOAD PUSH2 0x1076 PUSH1 0x0 DUP11 DUP2 MSTORE PUSH1 0x20 ADD SWAP1 DUP2 MSTORE PUSH1 0x20 ADD PUSH1 0x0 KECCAK256 PUSH1 0x0 SWAP1 SLOAD SWAP1 PUSH2 0x100 EXP SWAP1 DIV PUSH20 0xFFFFFFFFFFFFFFFFFFFFFFFFFFFFFFFFFFFFFFFF AND DUP8 PUSH1 0x40 MLOAD DUP8 PUSH4 0xFFFFFFFF AND PUSH1 0xE0 SHL DUP2 MSTORE PUSH1 0x4 ADD PUSH2 0x1D16 SWAP7 SWAP6 SWAP5 SWAP4 SWAP3 SWAP2 SWAP1 PUSH2 0x429F JUMP JUMPDEST PUSH1 0x20 PUSH1 0x40 MLOAD DUP1 DUP4 SUB DUP2 DUP7 GAS STATICCALL ISZERO DUP1 ISZERO PUSH2 0x1D33 JUMPI RETURNDATASIZE PUSH1 0x0 DUP1 RETURNDATACOPY RETURNDATASIZE PUSH1 0x0 REVERT JUMPDEST POP POP POP POP PUSH1 0x40 MLOAD RETURNDATASIZE PUSH1 0x1F NOT PUSH1 0x1F DUP3 ADD AND DUP3 ADD DUP1 PUSH1 0x40 MSTORE POP DUP2 ADD SWAP1 PUSH2 0x1D57 SWAP2 SWAP1 PUSH2 0x3E77 JUMP JUMPDEST SWAP1 POP JUMPDEST DUP1 SWAP2 POP POP SWAP2 SWAP1 POP JUMP JUMPDEST PUSH1 0x0 PUSH2 0x1D8F PUSH32 0xB89CDD26CDDD51301940BF2715F765B626B8A5A9E2681AC62DC83CC2DB2530C0 DUP4 PUSH2 0x1A5B JUMP JUMPDEST SWAP1 POP SWAP2 SWAP1 POP JUMP JUMPDEST PUSH2 0x1D9F DUP3 PUSH2 0x2241 JUMP JUMPDEST PUSH2 0x1DA9 DUP3 CALLER PUSH2 0x28FE JUMP JUMPDEST ISZERO DUP1 ISZERO PUSH2 0x1DBC JUMPI POP PUSH2 0x1DBA CALLER PUSH2 0x1D63 JUMP JUMPDEST ISZERO JUMPDEST ISZERO PUSH2 0x1DF3 JUMPI PUSH1 0x40 MLOAD PUSH32 0x866C2FA700000000000000000000000000000000000000000000000000000000 DUP2 MSTORE PUSH1 0x4 ADD PUSH1 0x40 MLOAD DUP1 SWAP2 SUB SWAP1 REVERT JUMPDEST PUSH2 0x1DFD DUP3 DUP3 PUSH2 0x2A26 JUMP JUMPDEST POP POP JUMP JUMPDEST PUSH2 0xC91 PUSH1 0x0 SWAP1 SLOAD SWAP1 PUSH2 0x100 EXP SWAP1 DIV PUSH20 0xFFFFFFFFFFFFFFFFFFFFFFFFFFFFFFFFFFFFFFFF AND DUP2 JUMP JUMPDEST PUSH2 0xC90 PUSH1 0x0 SWAP1 SLOAD SWAP1 PUSH2 0x100 EXP SWAP1 DIV PUSH20 0xFFFFFFFFFFFFFFFFFFFFFFFFFFFFFFFFFFFFFFFF AND DUP2 JUMP JUMPDEST PUSH1 0x0 PUSH1 0xD SWAP1 POP SWAP1 JUMP JUMPDEST PUSH2 0x1E60 PUSH2 0x2596 JUMP JUMPDEST PUSH2 0x1E8A PUSH32 0xB89CDD26CDDD51301940BF2715F765B626B8A5A9E2681AC62DC83CC2DB2530C0 DUP3 PUSH2 0xD01 JUMP JUMPDEST DUP1 PUSH20 0xFFFFFFFFFFFFFFFFFFFFFFFFFFFFFFFFFFFFFFFF AND PUSH32 0x91D5C045D5BD98BF59A379B259EBCA05B93BF79AF1845FDF87E3172385D4C7F7 PUSH1 0x40 MLOAD PUSH1 0x40 MLOAD DUP1 SWAP2 SUB SWAP1 LOG2 POP JUMP JUMPDEST PUSH1 0x0 PUSH2 0xC8E SLOAD SWAP1 POP SWAP1 JUMP JUMPDEST PUSH2 0x1EE4 DUP3 PUSH2 0xBB9 JUMP JUMPDEST PUSH2 0x1EED DUP2 PUSH2 0x25F8 JUMP JUMPDEST PUSH2 0x1EF7 DUP4 DUP4 PUSH2 0x26F5 JUMP JUMPDEST POP POP POP JUMP JUMPDEST PUSH2 0x1F04 PUSH2 0x2596 JUMP JUMPDEST PUSH1 0x0 DUP1 PUSH20 0xFFFFFFFFFFFFFFFFFFFFFFFFFFFFFFFFFFFFFFFF AND DUP5 PUSH20 0xFFFFFFFFFFFFFFFFFFFFFFFFFFFFFFFFFFFFFFFF AND SUB PUSH2 0x1F41 JUMPI SELFBALANCE SWAP1 POP PUSH2 0x1FBE JUMP JUMPDEST DUP4 PUSH20 0xFFFFFFFFFFFFFFFFFFFFFFFFFFFFFFFFFFFFFFFF AND PUSH4 0x70A08231 ADDRESS PUSH1 0x40 MLOAD DUP3 PUSH4 0xFFFFFFFF AND PUSH1 0xE0 SHL DUP2 MSTORE PUSH1 0x4 ADD PUSH2 0x1F7A SWAP2 SWAP1 PUSH2 0x360C JUMP JUMPDEST PUSH1 0x20 PUSH1 0x40 MLOAD DUP1 DUP4 SUB DUP2 DUP7 GAS STATICCALL ISZERO DUP1 ISZERO PUSH2 0x1F97 JUMPI RETURNDATASIZE PUSH1 0x0 DUP1 RETURNDATACOPY RETURNDATASIZE PUSH1 0x0 REVERT JUMPDEST POP POP POP POP PUSH1 0x40 MLOAD RETURNDATASIZE PUSH1 0x1F NOT PUSH1 0x1F DUP3 ADD AND DUP3 ADD DUP1 PUSH1 0x40 MSTORE POP DUP2 ADD SWAP1 PUSH2 0x1FBB SWAP2 SWAP1 PUSH2 0x4315 JUMP JUMPDEST SWAP1 POP JUMPDEST PUSH1 0x0 DUP1 DUP4 EQ DUP1 PUSH2 0x1FCD JUMPI POP DUP2 DUP4 GT JUMPDEST ISZERO PUSH2 0x2014 JUMPI PUSH1 0x0 DUP3 GT PUSH2 0x200C JUMPI PUSH1 0x40 MLOAD PUSH32 0x1F04DDC800000000000000000000000000000000000000000000000000000000 DUP2 MSTORE PUSH1 0x4 ADD PUSH1 0x40 MLOAD DUP1 SWAP2 SUB SWAP1 REVERT JUMPDEST DUP2 SWAP1 POP PUSH2 0x2018 JUMP JUMPDEST DUP3 SWAP1 POP JUMPDEST DUP4 PUSH20 0xFFFFFFFFFFFFFFFFFFFFFFFFFFFFFFFFFFFFFFFF AND DUP6 PUSH20 0xFFFFFFFFFFFFFFFFFFFFFFFFFFFFFFFFFFFFFFFF AND CALLER PUSH20 0xFFFFFFFFFFFFFFFFFFFFFFFFFFFFFFFFFFFFFFFF AND PUSH32 0x342E7FF505A8A0364CD0DC2FF195C315E43BCE86B204846ECD36913E117B109E DUP5 PUSH1 0x40 MLOAD PUSH2 0x208C SWAP2 SWAP1 PUSH2 0x371C JUMP JUMPDEST PUSH1 0x40 MLOAD DUP1 SWAP2 SUB SWAP1 LOG4 PUSH2 0x209F DUP6 DUP6 DUP4 PUSH2 0x2B32 JUMP JUMPDEST POP POP POP POP POP JUMP JUMPDEST PUSH1 0x0 PUSH2 0x107A PUSH1 0x0 DUP5 PUSH20 0xFFFFFFFFFFFFFFFFFFFFFFFFFFFFFFFFFFFFFFFF AND PUSH20 0xFFFFFFFFFFFFFFFFFFFFFFFFFFFFFFFFFFFFFFFF AND DUP2 MSTORE PUSH1 0x20 ADD SWAP1 DUP2 MSTORE PUSH1 0x20 ADD PUSH1 0x0 KECCAK256 PUSH1 0x0 DUP4 PUSH20 0xFFFFFFFFFFFFFFFFFFFFFFFFFFFFFFFFFFFFFFFF AND PUSH20 0xFFFFFFFFFFFFFFFFFFFFFFFFFFFFFFFFFFFFFFFF AND DUP2 MSTORE PUSH1 0x20 ADD SWAP1 DUP2 MSTORE PUSH1 0x20 ADD PUSH1 0x0 KECCAK256 PUSH1 0x0 SWAP1 SLOAD SWAP1 PUSH2 0x100 EXP SWAP1 DIV PUSH1 0xFF AND SWAP1 POP SWAP3 SWAP2 POP POP JUMP JUMPDEST PUSH2 0x2165 PUSH32 0xB89CDD26CDDD51301940BF2715F765B626B8A5A9E2681AC62DC83CC2DB2530C0 CALLER PUSH2 0xDBF JUMP JUMPDEST CALLER PUSH20 0xFFFFFFFFFFFFFFFFFFFFFFFFFFFFFFFFFFFFFFFF AND PUSH32 0x42885193B8178D25FCA25A38E6FCC93918501E91BE06D85E0C8AFB3BAD952380 PUSH1 0x40 MLOAD PUSH1 0x40 MLOAD DUP1 SWAP2 SUB SWAP1 LOG2 JUMP JUMPDEST PUSH2 0x21B2 PUSH2 0x2596 JUMP JUMPDEST PUSH2 0x21BA PUSH2 0x1E4F JUMP JUMPDEST PUSH2 0xFFFF AND PUSH2 0xC8D DUP2 SWAP1 SSTORE POP JUMP JUMPDEST PUSH1 0x0 PUSH32 0x7965DB0B00000000000000000000000000000000000000000000000000000000 PUSH28 0xFFFFFFFFFFFFFFFFFFFFFFFFFFFFFFFFFFFFFFFFFFFFFFFFFFFFFFFF NOT AND DUP3 PUSH28 0xFFFFFFFFFFFFFFFFFFFFFFFFFFFFFFFFFFFFFFFFFFFFFFFFFFFFFFFF NOT AND EQ DUP1 PUSH2 0x223A JUMPI POP PUSH2 0x2239 DUP3 PUSH2 0x2BD5 JUMP JUMPDEST JUMPDEST SWAP1 POP SWAP2 SWAP1 POP JUMP JUMPDEST PUSH1 0x0 PUSH2 0x107B PUSH1 0x0 DUP4 DUP2 MSTORE PUSH1 0x20 ADD SWAP1 DUP2 MSTORE PUSH1 0x20 ADD PUSH1 0x0 KECCAK256 PUSH1 0x0 ADD SLOAD SUB PUSH2 0x2292 JUMPI PUSH1 0x40 MLOAD PUSH32 0x78FE247300000000000000000000000000000000000000000000000000000000 DUP2 MSTORE PUSH1 0x4 ADD PUSH1 0x40 MLOAD DUP1 SWAP2 SUB SWAP1 REVERT JUMPDEST POP JUMP JUMPDEST PUSH2 0x229E DUP2 PUSH2 0x1BEF JUMP JUMPDEST PUSH2 0x22D4 JUMPI PUSH1 0x40 MLOAD PUSH32 0xD9F4FAE00000000000000000000000000000000000000000000000000000000 DUP2 MSTORE PUSH1 0x4 ADD PUSH1 0x40 MLOAD DUP1 SWAP2 SUB SWAP1 REVERT JUMPDEST POP JUMP JUMPDEST PUSH1 0x0 DUP1 PUSH20 0xFFFFFFFFFFFFFFFFFFFFFFFFFFFFFFFFFFFFFFFF AND PUSH2 0x1078 PUSH1 0x0 DUP5 DUP2 MSTORE PUSH1 0x20 ADD SWAP1 DUP2 MSTORE PUSH1 0x20 ADD PUSH1 0x0 KECCAK256 PUSH1 0x0 SWAP1 SLOAD SWAP1 PUSH2 0x100 EXP SWAP1 DIV PUSH20 0xFFFFFFFFFFFFFFFFFFFFFFFFFFFFFFFFFFFFFFFF AND PUSH20 0xFFFFFFFFFFFFFFFFFFFFFFFFFFFFFFFFFFFFFFFF AND EQ PUSH2 0x237A JUMPI PUSH2 0x1078 PUSH1 0x0 DUP4 DUP2 MSTORE PUSH1 0x20 ADD SWAP1 DUP2 MSTORE PUSH1 0x20 ADD PUSH1 0x0 KECCAK256 PUSH1 0x0 SWAP1 SLOAD SWAP1 PUSH2 0x100 EXP SWAP1 DIV PUSH20 0xFFFFFFFFFFFFFFFFFFFFFFFFFFFFFFFFFFFFFFFF AND PUSH2 0x23B0 JUMP JUMPDEST PUSH2 0x1076 PUSH1 0x0 DUP4 DUP2 MSTORE PUSH1 0x20 ADD SWAP1 DUP2 MSTORE PUSH1 0x20 ADD PUSH1 0x0 KECCAK256 PUSH1 0x0 SWAP1 SLOAD SWAP1 PUSH2 0x100 EXP SWAP1 DIV PUSH20 0xFFFFFFFFFFFFFFFFFFFFFFFFFFFFFFFFFFFFFFFF AND JUMPDEST SWAP1 POP PUSH2 0x23BB CALLER PUSH2 0x1D63 JUMP JUMPDEST ISZERO DUP1 ISZERO PUSH2 0x23CF JUMPI POP PUSH2 0x23CD DUP3 CALLER PUSH2 0x28FE JUMP JUMPDEST ISZERO JUMPDEST DUP1 ISZERO PUSH2 0x243B JUMPI POP CALLER PUSH20 0xFFFFFFFFFFFFFFFFFFFFFFFFFFFFFFFFFFFFFFFF AND PUSH2 0x1079 PUSH1 0x0 DUP5 DUP2 MSTORE PUSH1 0x20 ADD SWAP1 DUP2 MSTORE PUSH1 0x20 ADD PUSH1 0x0 KECCAK256 PUSH1 0x0 SWAP1 SLOAD SWAP1 PUSH2 0x100 EXP SWAP1 DIV PUSH20 0xFFFFFFFFFFFFFFFFFFFFFFFFFFFFFFFFFFFFFFFF AND PUSH20 0xFFFFFFFFFFFFFFFFFFFFFFFFFFFFFFFFFFFFFFFF AND EQ ISZERO JUMPDEST DUP1 ISZERO PUSH2 0x244E JUMPI POP PUSH2 0x244C DUP2 CALLER PUSH2 0x20A6 JUMP JUMPDEST ISZERO JUMPDEST ISZERO PUSH2 0x2485 JUMPI PUSH1 0x40 MLOAD PUSH32 0xE17C6D4500000000000000000000000000000000000000000000000000000000 DUP2 MSTORE PUSH1 0x4 ADD PUSH1 0x40 MLOAD DUP1 SWAP2 SUB SWAP1 REVERT JUMPDEST POP POP JUMP JUMPDEST PUSH2 0x2492 DUP4 PUSH2 0x2241 JUMP JUMPDEST PUSH1 0x0 PUSH2 0x107B PUSH1 0x0 DUP6 DUP2 MSTORE PUSH1 0x20 ADD SWAP1 DUP2 MSTORE PUSH1 0x20 ADD PUSH1 0x0 KECCAK256 PUSH1 0x1 ADD SLOAD SWAP1 POP DUP2 ISZERO PUSH2 0x2515 JUMPI TIMESTAMP DUP2 GT ISZERO PUSH2 0x24E8 JUMPI DUP3 DUP2 PUSH2 0x24C8 SWAP2 SWAP1 PUSH2 0x4342 JUMP JUMPDEST PUSH2 0x107B PUSH1 0x0 DUP7 DUP2 MSTORE PUSH1 0x20 ADD SWAP1 DUP2 MSTORE PUSH1 0x20 ADD PUSH1 0x0 KECCAK256 PUSH1 0x1 ADD DUP2 SWAP1 SSTORE POP PUSH2 0x2510 JUMP JUMPDEST DUP3 TIMESTAMP PUSH2 0x24F4 SWAP2 SWAP1 PUSH2 0x4342 JUMP JUMPDEST PUSH2 0x107B PUSH1 0x0 DUP7 DUP2 MSTORE PUSH1 0x20 ADD SWAP1 DUP2 MSTORE PUSH1 0x20 ADD PUSH1 0x0 KECCAK256 PUSH1 0x1 ADD DUP2 SWAP1 SSTORE POP JUMPDEST PUSH2 0x253D JUMP JUMPDEST DUP3 DUP2 PUSH2 0x2521 SWAP2 SWAP1 PUSH2 0x3CA1 JUMP JUMPDEST PUSH2 0x107B PUSH1 0x0 DUP7 DUP2 MSTORE PUSH1 0x20 ADD SWAP1 DUP2 MSTORE PUSH1 0x20 ADD PUSH1 0x0 KECCAK256 PUSH1 0x1 ADD DUP2 SWAP1 SSTORE POP JUMPDEST DUP4 PUSH32 0x3C907806849E9204E0E26BB095DFE4B3071576C4323F766735C548211556D052 PUSH2 0x107B PUSH1 0x0 DUP8 DUP2 MSTORE PUSH1 0x20 ADD SWAP1 DUP2 MSTORE PUSH1 0x20 ADD PUSH1 0x0 KECCAK256 PUSH1 0x1 ADD SLOAD DUP6 DUP6 PUSH1 0x40 MLOAD PUSH2 0x2588 SWAP4 SWAP3 SWAP2 SWAP1 PUSH2 0x4376 JUMP JUMPDEST PUSH1 0x40 MLOAD DUP1 SWAP2 SUB SWAP1 LOG2 POP POP POP POP JUMP JUMPDEST PUSH2 0x25C0 PUSH32 0xB89CDD26CDDD51301940BF2715F765B626B8A5A9E2681AC62DC83CC2DB2530C0 CALLER PUSH2 0x1A5B JUMP JUMPDEST PUSH2 0x25F6 JUMPI PUSH1 0x40 MLOAD PUSH32 0x8E1B58C400000000000000000000000000000000000000000000000000000000 DUP2 MSTORE PUSH1 0x4 ADD PUSH1 0x40 MLOAD DUP1 SWAP2 SUB SWAP1 REVERT JUMPDEST JUMP JUMPDEST PUSH2 0x2609 DUP2 PUSH2 0x2604 PUSH2 0x26ED JUMP JUMPDEST PUSH2 0x2C4D JUMP JUMPDEST POP JUMP JUMPDEST PUSH2 0x2616 DUP3 DUP3 PUSH2 0x1A5B JUMP JUMPDEST PUSH2 0x26E9 JUMPI PUSH1 0x1 PUSH1 0x97 PUSH1 0x0 DUP5 DUP2 MSTORE PUSH1 0x20 ADD SWAP1 DUP2 MSTORE PUSH1 0x20 ADD PUSH1 0x0 KECCAK256 PUSH1 0x0 ADD PUSH1 0x0 DUP4 PUSH20 0xFFFFFFFFFFFFFFFFFFFFFFFFFFFFFFFFFFFFFFFF AND PUSH20 0xFFFFFFFFFFFFFFFFFFFFFFFFFFFFFFFFFFFFFFFF AND DUP2 MSTORE PUSH1 0x20 ADD SWAP1 DUP2 MSTORE PUSH1 0x20 ADD PUSH1 0x0 KECCAK256 PUSH1 0x0 PUSH2 0x100 EXP DUP2 SLOAD DUP2 PUSH1 0xFF MUL NOT AND SWAP1 DUP4 ISZERO ISZERO MUL OR SWAP1 SSTORE POP PUSH2 0x268E PUSH2 0x26ED JUMP JUMPDEST PUSH20 0xFFFFFFFFFFFFFFFFFFFFFFFFFFFFFFFFFFFFFFFF AND DUP2 PUSH20 0xFFFFFFFFFFFFFFFFFFFFFFFFFFFFFFFFFFFFFFFF AND DUP4 PUSH32 0x2F8788117E7EFF1D82E926EC794901D17C78024A50270940304540A733656F0D PUSH1 0x40 MLOAD PUSH1 0x40 MLOAD DUP1 SWAP2 SUB SWAP1 LOG4 JUMPDEST POP POP JUMP JUMPDEST PUSH1 0x0 CALLER SWAP1 POP SWAP1 JUMP JUMPDEST PUSH2 0x26FF DUP3 DUP3 PUSH2 0x1A5B JUMP JUMPDEST ISZERO PUSH2 0x27D3 JUMPI PUSH1 0x0 PUSH1 0x97 PUSH1 0x0 DUP5 DUP2 MSTORE PUSH1 0x20 ADD SWAP1 DUP2 MSTORE PUSH1 0x20 ADD PUSH1 0x0 KECCAK256 PUSH1 0x0 ADD PUSH1 0x0 DUP4 PUSH20 0xFFFFFFFFFFFFFFFFFFFFFFFFFFFFFFFFFFFFFFFF AND PUSH20 0xFFFFFFFFFFFFFFFFFFFFFFFFFFFFFFFFFFFFFFFF AND DUP2 MSTORE PUSH1 0x20 ADD SWAP1 DUP2 MSTORE PUSH1 0x20 ADD PUSH1 0x0 KECCAK256 PUSH1 0x0 PUSH2 0x100 EXP DUP2 SLOAD DUP2 PUSH1 0xFF MUL NOT AND SWAP1 DUP4 ISZERO ISZERO MUL OR SWAP1 SSTORE POP PUSH2 0x2778 PUSH2 0x26ED JUMP JUMPDEST PUSH20 0xFFFFFFFFFFFFFFFFFFFFFFFFFFFFFFFFFFFFFFFF AND DUP2 PUSH20 0xFFFFFFFFFFFFFFFFFFFFFFFFFFFFFFFFFFFFFFFF AND DUP4 PUSH32 0xF6391F5C32D9C69D2A47EA670B442974B53935D1EDC7FD64EB21E047A839171B PUSH1 0x40 MLOAD PUSH1 0x40 MLOAD DUP1 SWAP2 SUB SWAP1 LOG4 JUMPDEST POP POP JUMP JUMPDEST TIMESTAMP PUSH2 0x107B PUSH1 0x0 DUP4 DUP2 MSTORE PUSH1 0x20 ADD SWAP1 DUP2 MSTORE PUSH1 0x20 ADD PUSH1 0x0 KECCAK256 PUSH1 0x1 ADD DUP2 SWAP1 SSTORE POP POP JUMP JUMPDEST PUSH1 0x0 DUP1 DUP3 PUSH20 0xFFFFFFFFFFFFFFFFFFFFFFFFFFFFFFFFFFFFFFFF AND EXTCODESIZE GT SWAP1 POP SWAP2 SWAP1 POP JUMP JUMPDEST PUSH1 0x0 PUSH20 0xFFFFFFFFFFFFFFFFFFFFFFFFFFFFFFFFFFFFFFFF AND DUP2 PUSH20 0xFFFFFFFFFFFFFFFFFFFFFFFFFFFFFFFFFFFFFFFF AND EQ ISZERO DUP1 ISZERO PUSH2 0x28C4 JUMPI POP PUSH1 0x0 DUP2 PUSH20 0xFFFFFFFFFFFFFFFFFFFFFFFFFFFFFFFFFFFFFFFF AND PUSH4 0x18160DDD PUSH1 0x40 MLOAD DUP2 PUSH4 0xFFFFFFFF AND PUSH1 0xE0 SHL DUP2 MSTORE PUSH1 0x4 ADD PUSH1 0x20 PUSH1 0x40 MLOAD DUP1 DUP4 SUB DUP2 DUP7 GAS STATICCALL ISZERO DUP1 ISZERO PUSH2 0x289E JUMPI RETURNDATASIZE PUSH1 0x0 DUP1 RETURNDATACOPY RETURNDATASIZE PUSH1 0x0 REVERT JUMPDEST POP POP POP POP PUSH1 0x40 MLOAD RETURNDATASIZE PUSH1 0x1F NOT PUSH1 0x1F DUP3 ADD AND DUP3 ADD DUP1 PUSH1 0x40 MSTORE POP DUP2 ADD SWAP1 PUSH2 0x28C2 SWAP2 SWAP1 PUSH2 0x4315 JUMP JUMPDEST LT JUMPDEST ISZERO PUSH2 0x28FB JUMPI PUSH1 0x40 MLOAD PUSH32 0xD0995CF200000000000000000000000000000000000000000000000000000000 DUP2 MSTORE PUSH1 0x4 ADD PUSH1 0x40 MLOAD DUP1 SWAP2 SUB SWAP1 REVERT JUMPDEST POP JUMP JUMPDEST PUSH1 0x0 DUP2 PUSH20 0xFFFFFFFFFFFFFFFFFFFFFFFFFFFFFFFFFFFFFFFF AND PUSH2 0x1078 PUSH1 0x0 DUP6 DUP2 MSTORE PUSH1 0x20 ADD SWAP1 DUP2 MSTORE PUSH1 0x20 ADD PUSH1 0x0 KECCAK256 PUSH1 0x0 SWAP1 SLOAD SWAP1 PUSH2 0x100 EXP SWAP1 DIV PUSH20 0xFFFFFFFFFFFFFFFFFFFFFFFFFFFFFFFFFFFFFFFF AND PUSH20 0xFFFFFFFFFFFFFFFFFFFFFFFFFFFFFFFFFFFFFFFF AND EQ DUP1 PUSH2 0x2A0D JUMPI POP DUP2 PUSH20 0xFFFFFFFFFFFFFFFFFFFFFFFFFFFFFFFFFFFFFFFF AND PUSH2 0x2989 DUP5 PUSH2 0x100D JUMP JUMPDEST PUSH20 0xFFFFFFFFFFFFFFFFFFFFFFFFFFFFFFFFFFFFFFFF AND EQ DUP1 ISZERO PUSH2 0x2A0C JUMPI POP PUSH1 0x0 PUSH20 0xFFFFFFFFFFFFFFFFFFFFFFFFFFFFFFFFFFFFFFFF AND PUSH2 0x1078 PUSH1 0x0 DUP6 DUP2 MSTORE PUSH1 0x20 ADD SWAP1 DUP2 MSTORE PUSH1 0x20 ADD PUSH1 0x0 KECCAK256 PUSH1 0x0 SWAP1 SLOAD SWAP1 PUSH2 0x100 EXP SWAP1 DIV PUSH20 0xFFFFFFFFFFFFFFFFFFFFFFFFFFFFFFFFFFFFFFFF AND PUSH20 0xFFFFFFFFFFFFFFFFFFFFFFFFFFFFFFFFFFFFFFFF AND EQ JUMPDEST JUMPDEST ISZERO PUSH2 0x2A1B JUMPI PUSH1 0x1 SWAP1 POP PUSH2 0x2A20 JUMP JUMPDEST PUSH1 0x0 SWAP1 POP JUMPDEST SWAP3 SWAP2 POP POP JUMP JUMPDEST DUP1 PUSH20 0xFFFFFFFFFFFFFFFFFFFFFFFFFFFFFFFFFFFFFFFF AND PUSH2 0x1078 PUSH1 0x0 DUP5 DUP2 MSTORE PUSH1 0x20 ADD SWAP1 DUP2 MSTORE PUSH1 0x20 ADD PUSH1 0x0 KECCAK256 PUSH1 0x0 SWAP1 SLOAD SWAP1 PUSH2 0x100 EXP SWAP1 DIV PUSH20 0xFFFFFFFFFFFFFFFFFFFFFFFFFFFFFFFFFFFFFFFF AND PUSH20 0xFFFFFFFFFFFFFFFFFFFFFFFFFFFFFFFFFFFFFFFF AND EQ PUSH2 0x2B2E JUMPI DUP1 PUSH2 0x1078 PUSH1 0x0 DUP5 DUP2 MSTORE PUSH1 0x20 ADD SWAP1 DUP2 MSTORE PUSH1 0x20 ADD PUSH1 0x0 KECCAK256 PUSH1 0x0 PUSH2 0x100 EXP DUP2 SLOAD DUP2 PUSH20 0xFFFFFFFFFFFFFFFFFFFFFFFFFFFFFFFFFFFFFFFF MUL NOT AND SWAP1 DUP4 PUSH20 0xFFFFFFFFFFFFFFFFFFFFFFFFFFFFFFFFFFFFFFFF AND MUL OR SWAP1 SSTORE POP PUSH2 0x2AE9 DUP3 PUSH2 0x2CD2 JUMP JUMPDEST DUP1 PUSH20 0xFFFFFFFFFFFFFFFFFFFFFFFFFFFFFFFFFFFFFFFF AND DUP3 PUSH32 0x9D2895C45A420624DE863A2F437B022D879F457BF7A829044055A10C5A6FD5E3 PUSH1 0x40 MLOAD PUSH1 0x40 MLOAD DUP1 SWAP2 SUB SWAP1 LOG3 JUMPDEST POP POP JUMP JUMPDEST PUSH1 0x0 DUP2 GT ISZERO PUSH2 0x2BD0 JUMPI PUSH1 0x0 PUSH20 0xFFFFFFFFFFFFFFFFFFFFFFFFFFFFFFFFFFFFFFFF AND DUP4 PUSH20 0xFFFFFFFFFFFFFFFFFFFFFFFFFFFFFFFFFFFFFFFF AND SUB PUSH2 0x2B9D JUMPI PUSH2 0x2B98 DUP2 DUP4 PUSH20 0xFFFFFFFFFFFFFFFFFFFFFFFFFFFFFFFFFFFFFFFF AND PUSH2 0x2D92 SWAP1 SWAP2 SWAP1 PUSH4 0xFFFFFFFF AND JUMP JUMPDEST PUSH2 0x2BCF JUMP JUMPDEST PUSH1 0x0 DUP4 SWAP1 POP PUSH2 0x2BCD DUP4 DUP4 DUP4 PUSH20 0xFFFFFFFFFFFFFFFFFFFFFFFFFFFFFFFFFFFFFFFF AND PUSH2 0x2E86 SWAP1 SWAP3 SWAP2 SWAP1 PUSH4 0xFFFFFFFF AND JUMP JUMPDEST POP JUMPDEST JUMPDEST POP POP POP JUMP JUMPDEST PUSH1 0x0 PUSH2 0x2BE0 DUP3 PUSH2 0x2F0C JUMP JUMPDEST DUP1 PUSH2 0x2C46 JUMPI POP PUSH1 0x65 PUSH1 0x0 DUP4 PUSH28 0xFFFFFFFFFFFFFFFFFFFFFFFFFFFFFFFFFFFFFFFFFFFFFFFFFFFFFFFF NOT AND PUSH28 0xFFFFFFFFFFFFFFFFFFFFFFFFFFFFFFFFFFFFFFFFFFFFFFFFFFFFFFFF NOT AND DUP2 MSTORE PUSH1 0x20 ADD SWAP1 DUP2 MSTORE PUSH1 0x20 ADD PUSH1 0x0 KECCAK256 PUSH1 0x0 SWAP1 SLOAD SWAP1 PUSH2 0x100 EXP SWAP1 DIV PUSH1 0xFF AND JUMPDEST SWAP1 POP SWAP2 SWAP1 POP JUMP JUMPDEST PUSH2 0x2C57 DUP3 DUP3 PUSH2 0x1A5B JUMP JUMPDEST PUSH2 0x2CCE JUMPI PUSH2 0x2C64 DUP2 PUSH2 0x2F76 JUMP JUMPDEST PUSH2 0x2C72 DUP4 PUSH1 0x0 SHR PUSH1 0x20 PUSH2 0x2FA3 JUMP JUMPDEST PUSH1 0x40 MLOAD PUSH1 0x20 ADD PUSH2 0x2C83 SWAP3 SWAP2 SWAP1 PUSH2 0x44B6 JUMP JUMPDEST PUSH1 0x40 MLOAD PUSH1 0x20 DUP2 DUP4 SUB SUB DUP2 MSTORE SWAP1 PUSH1 0x40 MSTORE PUSH1 0x40 MLOAD PUSH32 0x8C379A000000000000000000000000000000000000000000000000000000000 DUP2 MSTORE PUSH1 0x4 ADD PUSH2 0x2CC5 SWAP2 SWAP1 PUSH2 0x453A JUMP JUMPDEST PUSH1 0x40 MLOAD DUP1 SWAP2 SUB SWAP1 REVERT JUMPDEST POP POP JUMP JUMPDEST PUSH1 0x0 PUSH20 0xFFFFFFFFFFFFFFFFFFFFFFFFFFFFFFFFFFFFFFFF AND PUSH2 0x1079 PUSH1 0x0 DUP4 DUP2 MSTORE PUSH1 0x20 ADD SWAP1 DUP2 MSTORE PUSH1 0x20 ADD PUSH1 0x0 KECCAK256 PUSH1 0x0 SWAP1 SLOAD SWAP1 PUSH2 0x100 EXP SWAP1 DIV PUSH20 0xFFFFFFFFFFFFFFFFFFFFFFFFFFFFFFFFFFFFFFFF AND PUSH20 0xFFFFFFFFFFFFFFFFFFFFFFFFFFFFFFFFFFFFFFFF AND EQ PUSH2 0x2D8F JUMPI PUSH1 0x0 PUSH2 0x1079 PUSH1 0x0 DUP4 DUP2 MSTORE PUSH1 0x20 ADD SWAP1 DUP2 MSTORE PUSH1 0x20 ADD PUSH1 0x0 KECCAK256 PUSH1 0x0 PUSH2 0x100 EXP DUP2 SLOAD DUP2 PUSH20 0xFFFFFFFFFFFFFFFFFFFFFFFFFFFFFFFFFFFFFFFF MUL NOT AND SWAP1 DUP4 PUSH20 0xFFFFFFFFFFFFFFFFFFFFFFFFFFFFFFFFFFFFFFFF AND MUL OR SWAP1 SSTORE POP JUMPDEST POP JUMP JUMPDEST DUP1 SELFBALANCE LT ISZERO PUSH2 0x2DD5 JUMPI PUSH1 0x40 MLOAD PUSH32 0x8C379A000000000000000000000000000000000000000000000000000000000 DUP2 MSTORE PUSH1 0x4 ADD PUSH2 0x2DCC SWAP1 PUSH2 0x45A8 JUMP JUMPDEST PUSH1 0x40 MLOAD DUP1 SWAP2 SUB SWAP1 REVERT JUMPDEST PUSH1 0x0 DUP3 PUSH20 0xFFFFFFFFFFFFFFFFFFFFFFFFFFFFFFFFFFFFFFFF AND DUP3 PUSH1 0x40 MLOAD PUSH2 0x2DFB SWAP1 PUSH2 0x45F9 JUMP JUMPDEST PUSH1 0x0 PUSH1 0x40 MLOAD DUP1 DUP4 SUB DUP2 DUP6 DUP8 GAS CALL SWAP3 POP POP POP RETURNDATASIZE DUP1 PUSH1 0x0 DUP2 EQ PUSH2 0x2E38 JUMPI PUSH1 0x40 MLOAD SWAP2 POP PUSH1 0x1F NOT PUSH1 0x3F RETURNDATASIZE ADD AND DUP3 ADD PUSH1 0x40 MSTORE RETURNDATASIZE DUP3 MSTORE RETURNDATASIZE PUSH1 0x0 PUSH1 0x20 DUP5 ADD RETURNDATACOPY PUSH2 0x2E3D JUMP JUMPDEST PUSH1 0x60 SWAP2 POP JUMPDEST POP POP SWAP1 POP DUP1 PUSH2 0x2E81 JUMPI PUSH1 0x40 MLOAD PUSH32 0x8C379A000000000000000000000000000000000000000000000000000000000 DUP2 MSTORE PUSH1 0x4 ADD PUSH2 0x2E78 SWAP1 PUSH2 0x4680 JUMP JUMPDEST PUSH1 0x40 MLOAD DUP1 SWAP2 SUB SWAP1 REVERT JUMPDEST POP POP POP JUMP JUMPDEST PUSH2 0x2F07 DUP4 PUSH4 0xA9059CBB PUSH1 0xE0 SHL DUP5 DUP5 PUSH1 0x40 MLOAD PUSH1 0x24 ADD PUSH2 0x2EA5 SWAP3 SWAP2 SWAP1 PUSH2 0x46A0 JUMP JUMPDEST PUSH1 0x40 MLOAD PUSH1 0x20 DUP2 DUP4 SUB SUB DUP2 MSTORE SWAP1 PUSH1 0x40 MSTORE SWAP1 PUSH28 0xFFFFFFFFFFFFFFFFFFFFFFFFFFFFFFFFFFFFFFFFFFFFFFFFFFFFFFFF NOT AND PUSH1 0x20 DUP3 ADD DUP1 MLOAD PUSH28 0xFFFFFFFFFFFFFFFFFFFFFFFFFFFFFFFFFFFFFFFFFFFFFFFFFFFFFFFF DUP4 DUP2 DUP4 AND OR DUP4 MSTORE POP POP POP POP PUSH2 0x31DF JUMP JUMPDEST POP POP POP JUMP JUMPDEST PUSH1 0x0 PUSH32 0x1FFC9A700000000000000000000000000000000000000000000000000000000 PUSH28 0xFFFFFFFFFFFFFFFFFFFFFFFFFFFFFFFFFFFFFFFFFFFFFFFFFFFFFFFF NOT AND DUP3 PUSH28 0xFFFFFFFFFFFFFFFFFFFFFFFFFFFFFFFFFFFFFFFFFFFFFFFFFFFFFFFF NOT AND EQ SWAP1 POP SWAP2 SWAP1 POP JUMP JUMPDEST PUSH1 0x60 PUSH2 0x2F9C DUP3 PUSH20 0xFFFFFFFFFFFFFFFFFFFFFFFFFFFFFFFFFFFFFFFF AND PUSH1 0x14 PUSH1 0xFF AND PUSH2 0x2FA3 JUMP JUMPDEST SWAP1 POP SWAP2 SWAP1 POP JUMP JUMPDEST PUSH1 0x60 PUSH1 0x0 PUSH1 0x2 DUP4 PUSH1 0x2 PUSH2 0x2FB6 SWAP2 SWAP1 PUSH2 0x46C9 JUMP JUMPDEST PUSH2 0x2FC0 SWAP2 SWAP1 PUSH2 0x4342 JUMP JUMPDEST PUSH8 0xFFFFFFFFFFFFFFFF DUP2 GT ISZERO PUSH2 0x2FD9 JUMPI PUSH2 0x2FD8 PUSH2 0x470B JUMP JUMPDEST JUMPDEST PUSH1 0x40 MLOAD SWAP1 DUP1 DUP3 MSTORE DUP1 PUSH1 0x1F ADD PUSH1 0x1F NOT AND PUSH1 0x20 ADD DUP3 ADD PUSH1 0x40 MSTORE DUP1 ISZERO PUSH2 0x300B JUMPI DUP2 PUSH1 0x20 ADD PUSH1 0x1 DUP3 MUL DUP1 CALLDATASIZE DUP4 CALLDATACOPY DUP1 DUP3 ADD SWAP2 POP POP SWAP1 POP JUMPDEST POP SWAP1 POP PUSH32 0x3000000000000000000000000000000000000000000000000000000000000000 DUP2 PUSH1 0x0 DUP2 MLOAD DUP2 LT PUSH2 0x3043 JUMPI PUSH2 0x3042 PUSH2 0x473A JUMP JUMPDEST JUMPDEST PUSH1 0x20 ADD ADD SWAP1 PUSH31 0xFFFFFFFFFFFFFFFFFFFFFFFFFFFFFFFFFFFFFFFFFFFFFFFFFFFFFFFFFFFFFF NOT AND SWAP1 DUP2 PUSH1 0x0 BYTE SWAP1 MSTORE8 POP PUSH32 0x7800000000000000000000000000000000000000000000000000000000000000 DUP2 PUSH1 0x1 DUP2 MLOAD DUP2 LT PUSH2 0x30A7 JUMPI PUSH2 0x30A6 PUSH2 0x473A JUMP JUMPDEST JUMPDEST PUSH1 0x20 ADD ADD SWAP1 PUSH31 0xFFFFFFFFFFFFFFFFFFFFFFFFFFFFFFFFFFFFFFFFFFFFFFFFFFFFFFFFFFFFFF NOT AND SWAP1 DUP2 PUSH1 0x0 BYTE SWAP1 MSTORE8 POP PUSH1 0x0 PUSH1 0x1 DUP5 PUSH1 0x2 PUSH2 0x30E7 SWAP2 SWAP1 PUSH2 0x46C9 JUMP JUMPDEST PUSH2 0x30F1 SWAP2 SWAP1 PUSH2 0x4342 JUMP JUMPDEST SWAP1 POP JUMPDEST PUSH1 0x1 DUP2 GT ISZERO PUSH2 0x3191 JUMPI PUSH32 0x3031323334353637383961626364656600000000000000000000000000000000 PUSH1 0xF DUP7 AND PUSH1 0x10 DUP2 LT PUSH2 0x3133 JUMPI PUSH2 0x3132 PUSH2 0x473A JUMP JUMPDEST JUMPDEST BYTE PUSH1 0xF8 SHL DUP3 DUP3 DUP2 MLOAD DUP2 LT PUSH2 0x314A JUMPI PUSH2 0x3149 PUSH2 0x473A JUMP JUMPDEST JUMPDEST PUSH1 0x20 ADD ADD SWAP1 PUSH31 0xFFFFFFFFFFFFFFFFFFFFFFFFFFFFFFFFFFFFFFFFFFFFFFFFFFFFFFFFFFFFFF NOT AND SWAP1 DUP2 PUSH1 0x0 BYTE SWAP1 MSTORE8 POP PUSH1 0x4 DUP6 SWAP1 SHR SWAP5 POP DUP1 PUSH2 0x318A SWAP1 PUSH2 0x4769 JUMP JUMPDEST SWAP1 POP PUSH2 0x30F4 JUMP JUMPDEST POP PUSH1 0x0 DUP5 EQ PUSH2 0x31D5 JUMPI PUSH1 0x40 MLOAD PUSH32 0x8C379A000000000000000000000000000000000000000000000000000000000 DUP2 MSTORE PUSH1 0x4 ADD PUSH2 0x31CC SWAP1 PUSH2 0x47DE JUMP JUMPDEST PUSH1 0x40 MLOAD DUP1 SWAP2 SUB SWAP1 REVERT JUMPDEST DUP1 SWAP2 POP POP SWAP3 SWAP2 POP POP JUMP JUMPDEST PUSH1 0x0 PUSH2 0x3241 DUP3 PUSH1 0x40 MLOAD DUP1 PUSH1 0x40 ADD PUSH1 0x40 MSTORE DUP1 PUSH1 0x20 DUP2 MSTORE PUSH1 0x20 ADD PUSH32 0x5361666545524332303A206C6F772D6C6576656C2063616C6C206661696C6564 DUP2 MSTORE POP DUP6 PUSH20 0xFFFFFFFFFFFFFFFFFFFFFFFFFFFFFFFFFFFFFFFF AND PUSH2 0x32A6 SWAP1 SWAP3 SWAP2 SWAP1 PUSH4 0xFFFFFFFF AND JUMP JUMPDEST SWAP1 POP PUSH1 0x0 DUP2 MLOAD GT ISZERO PUSH2 0x32A1 JUMPI DUP1 DUP1 PUSH1 0x20 ADD SWAP1 MLOAD DUP2 ADD SWAP1 PUSH2 0x3261 SWAP2 SWAP1 PUSH2 0x3E77 JUMP JUMPDEST PUSH2 0x32A0 JUMPI PUSH1 0x40 MLOAD PUSH32 0x8C379A000000000000000000000000000000000000000000000000000000000 DUP2 MSTORE PUSH1 0x4 ADD PUSH2 0x3297 SWAP1 PUSH2 0x4870 JUMP JUMPDEST PUSH1 0x40 MLOAD DUP1 SWAP2 SUB SWAP1 REVERT JUMPDEST JUMPDEST POP POP POP JUMP JUMPDEST PUSH1 0x60 PUSH2 0x32B5 DUP5 DUP5 PUSH1 0x0 DUP6 PUSH2 0x32BE JUMP JUMPDEST SWAP1 POP SWAP4 SWAP3 POP POP POP JUMP JUMPDEST PUSH1 0x60 DUP3 SELFBALANCE LT ISZERO PUSH2 0x3303 JUMPI PUSH1 0x40 MLOAD PUSH32 0x8C379A000000000000000000000000000000000000000000000000000000000 DUP2 MSTORE PUSH1 0x4 ADD PUSH2 0x32FA SWAP1 PUSH2 0x4902 JUMP JUMPDEST PUSH1 0x40 MLOAD DUP1 SWAP2 SUB SWAP1 REVERT JUMPDEST PUSH1 0x0 DUP1 DUP7 PUSH20 0xFFFFFFFFFFFFFFFFFFFFFFFFFFFFFFFFFFFFFFFF AND DUP6 DUP8 PUSH1 0x40 MLOAD PUSH2 0x332C SWAP2 SWAP1 PUSH2 0x495E JUMP JUMPDEST PUSH1 0x0 PUSH1 0x40 MLOAD DUP1 DUP4 SUB DUP2 DUP6 DUP8 GAS CALL SWAP3 POP POP POP RETURNDATASIZE DUP1 PUSH1 0x0 DUP2 EQ PUSH2 0x3369 JUMPI PUSH1 0x40 MLOAD SWAP2 POP PUSH1 0x1F NOT PUSH1 0x3F RETURNDATASIZE ADD AND DUP3 ADD PUSH1 0x40 MSTORE RETURNDATASIZE DUP3 MSTORE RETURNDATASIZE PUSH1 0x0 PUSH1 0x20 DUP5 ADD RETURNDATACOPY PUSH2 0x336E JUMP JUMPDEST PUSH1 0x60 SWAP2 POP JUMPDEST POP SWAP2 POP SWAP2 POP PUSH2 0x337F DUP8 DUP4 DUP4 DUP8 PUSH2 0x338B JUMP JUMPDEST SWAP3 POP POP POP SWAP5 SWAP4 POP POP POP POP JUMP JUMPDEST PUSH1 0x60 DUP4 ISZERO PUSH2 0x33ED JUMPI PUSH1 0x0 DUP4 MLOAD SUB PUSH2 0x33E5 JUMPI PUSH2 0x33A5 DUP6 PUSH2 0x27F6 JUMP JUMPDEST PUSH2 0x33E4 JUMPI PUSH1 0x40 MLOAD PUSH32 0x8C379A000000000000000000000000000000000000000000000000000000000 DUP2 MSTORE PUSH1 0x4 ADD PUSH2 0x33DB SWAP1 PUSH2 0x49C1 JUMP JUMPDEST PUSH1 0x40 MLOAD DUP1 SWAP2 SUB SWAP1 REVERT JUMPDEST JUMPDEST DUP3 SWAP1 POP PUSH2 0x33F8 JUMP JUMPDEST PUSH2 0x33F7 DUP4 DUP4 PUSH2 0x3400 JUMP JUMPDEST JUMPDEST SWAP5 SWAP4 POP POP POP POP JUMP JUMPDEST PUSH1 0x0 DUP3 MLOAD GT ISZERO PUSH2 0x3413 JUMPI DUP2 MLOAD DUP1 DUP4 PUSH1 0x20 ADD REVERT JUMPDEST DUP1 PUSH1 0x40 MLOAD PUSH32 0x8C379A000000000000000000000000000000000000000000000000000000000 DUP2 MSTORE PUSH1 0x4 ADD PUSH2 0x3447 SWAP2 SWAP1 PUSH2 0x453A JUMP JUMPDEST PUSH1 0x40 MLOAD DUP1 SWAP2 SUB SWAP1 REVERT JUMPDEST PUSH1 0x0 DUP1 REVERT JUMPDEST PUSH1 0x0 DUP1 REVERT JUMPDEST PUSH1 0x0 PUSH32 0xFFFFFFFF00000000000000000000000000000000000000000000000000000000 DUP3 AND SWAP1 POP SWAP2 SWAP1 POP JUMP JUMPDEST PUSH2 0x348F DUP2 PUSH2 0x345A JUMP JUMPDEST DUP2 EQ PUSH2 0x349A JUMPI PUSH1 0x0 DUP1 REVERT JUMPDEST POP JUMP JUMPDEST PUSH1 0x0 DUP2 CALLDATALOAD SWAP1 POP PUSH2 0x34AC DUP2 PUSH2 0x3486 JUMP JUMPDEST SWAP3 SWAP2 POP POP JUMP JUMPDEST PUSH1 0x0 PUSH1 0x20 DUP3 DUP5 SUB SLT ISZERO PUSH2 0x34C8 JUMPI PUSH2 0x34C7 PUSH2 0x3450 JUMP JUMPDEST JUMPDEST PUSH1 0x0 PUSH2 0x34D6 DUP5 DUP3 DUP6 ADD PUSH2 0x349D JUMP JUMPDEST SWAP2 POP POP SWAP3 SWAP2 POP POP JUMP JUMPDEST PUSH1 0x0 DUP2 ISZERO ISZERO SWAP1 POP SWAP2 SWAP1 POP JUMP JUMPDEST PUSH2 0x34F4 DUP2 PUSH2 0x34DF JUMP JUMPDEST DUP3 MSTORE POP POP JUMP JUMPDEST PUSH1 0x0 PUSH1 0x20 DUP3 ADD SWAP1 POP PUSH2 0x350F PUSH1 0x0 DUP4 ADD DUP5 PUSH2 0x34EB JUMP JUMPDEST SWAP3 SWAP2 POP POP JUMP JUMPDEST PUSH1 0x0 DUP2 SWAP1 POP SWAP2 SWAP1 POP JUMP JUMPDEST PUSH2 0x3528 DUP2 PUSH2 0x3515 JUMP JUMPDEST DUP2 EQ PUSH2 0x3533 JUMPI PUSH1 0x0 DUP1 REVERT JUMPDEST POP JUMP JUMPDEST PUSH1 0x0 DUP2 CALLDATALOAD SWAP1 POP PUSH2 0x3545 DUP2 PUSH2 0x351F JUMP JUMPDEST SWAP3 SWAP2 POP POP JUMP JUMPDEST PUSH1 0x0 DUP1 PUSH1 0x0 PUSH1 0x60 DUP5 DUP7 SUB SLT ISZERO PUSH2 0x3564 JUMPI PUSH2 0x3563 PUSH2 0x3450 JUMP JUMPDEST JUMPDEST PUSH1 0x0 PUSH2 0x3572 DUP7 DUP3 DUP8 ADD PUSH2 0x3536 JUMP JUMPDEST SWAP4 POP POP PUSH1 0x20 PUSH2 0x3583 DUP7 DUP3 DUP8 ADD PUSH2 0x3536 JUMP JUMPDEST SWAP3 POP POP PUSH1 0x40 PUSH2 0x3594 DUP7 DUP3 DUP8 ADD PUSH2 0x3536 JUMP JUMPDEST SWAP2 POP POP SWAP3 POP SWAP3 POP SWAP3 JUMP JUMPDEST PUSH1 0x0 PUSH1 0x20 DUP3 DUP5 SUB SLT ISZERO PUSH2 0x35B4 JUMPI PUSH2 0x35B3 PUSH2 0x3450 JUMP JUMPDEST JUMPDEST PUSH1 0x0 PUSH2 0x35C2 DUP5 DUP3 DUP6 ADD PUSH2 0x3536 JUMP JUMPDEST SWAP2 POP POP SWAP3 SWAP2 POP POP JUMP JUMPDEST PUSH1 0x0 PUSH20 0xFFFFFFFFFFFFFFFFFFFFFFFFFFFFFFFFFFFFFFFF DUP3 AND SWAP1 POP SWAP2 SWAP1 POP JUMP JUMPDEST PUSH1 0x0 PUSH2 0x35F6 DUP3 PUSH2 0x35CB JUMP JUMPDEST SWAP1 POP SWAP2 SWAP1 POP JUMP JUMPDEST PUSH2 0x3606 DUP2 PUSH2 0x35EB JUMP JUMPDEST DUP3 MSTORE POP POP JUMP JUMPDEST PUSH1 0x0 PUSH1 0x20 DUP3 ADD SWAP1 POP PUSH2 0x3621 PUSH1 0x0 DUP4 ADD DUP5 PUSH2 0x35FD JUMP JUMPDEST SWAP3 SWAP2 POP POP JUMP JUMPDEST PUSH2 0x3630 DUP2 PUSH2 0x35EB JUMP JUMPDEST DUP2 EQ PUSH2 0x363B JUMPI PUSH1 0x0 DUP1 REVERT JUMPDEST POP JUMP JUMPDEST PUSH1 0x0 DUP2 CALLDATALOAD SWAP1 POP PUSH2 0x364D DUP2 PUSH2 0x3627 JUMP JUMPDEST SWAP3 SWAP2 POP POP JUMP JUMPDEST PUSH1 0x0 DUP1 PUSH1 0x40 DUP4 DUP6 SUB SLT ISZERO PUSH2 0x366A JUMPI PUSH2 0x3669 PUSH2 0x3450 JUMP JUMPDEST JUMPDEST PUSH1 0x0 PUSH2 0x3678 DUP6 DUP3 DUP7 ADD PUSH2 0x363E JUMP JUMPDEST SWAP3 POP POP PUSH1 0x20 PUSH2 0x3689 DUP6 DUP3 DUP7 ADD PUSH2 0x3536 JUMP JUMPDEST SWAP2 POP POP SWAP3 POP SWAP3 SWAP1 POP JUMP JUMPDEST PUSH1 0x0 DUP2 SWAP1 POP SWAP2 SWAP1 POP JUMP JUMPDEST PUSH1 0x0 PUSH2 0x36B8 PUSH2 0x36B3 PUSH2 0x36AE DUP5 PUSH2 0x35CB JUMP JUMPDEST PUSH2 0x3693 JUMP JUMPDEST PUSH2 0x35CB JUMP JUMPDEST SWAP1 POP SWAP2 SWAP1 POP JUMP JUMPDEST PUSH1 0x0 PUSH2 0x36CA DUP3 PUSH2 0x369D JUMP JUMPDEST SWAP1 POP SWAP2 SWAP1 POP JUMP JUMPDEST PUSH1 0x0 PUSH2 0x36DC DUP3 PUSH2 0x36BF JUMP JUMPDEST SWAP1 POP SWAP2 SWAP1 POP JUMP JUMPDEST PUSH2 0x36EC DUP2 PUSH2 0x36D1 JUMP JUMPDEST DUP3 MSTORE POP POP JUMP JUMPDEST PUSH1 0x0 PUSH1 0x20 DUP3 ADD SWAP1 POP PUSH2 0x3707 PUSH1 0x0 DUP4 ADD DUP5 PUSH2 0x36E3 JUMP JUMPDEST SWAP3 SWAP2 POP POP JUMP JUMPDEST PUSH2 0x3716 DUP2 PUSH2 0x3515 JUMP JUMPDEST DUP3 MSTORE POP POP JUMP JUMPDEST PUSH1 0x0 PUSH1 0x20 DUP3 ADD SWAP1 POP PUSH2 0x3731 PUSH1 0x0 DUP4 ADD DUP5 PUSH2 0x370D JUMP JUMPDEST SWAP3 SWAP2 POP POP JUMP JUMPDEST PUSH1 0x0 PUSH2 0x3742 DUP3 PUSH2 0x36BF JUMP JUMPDEST SWAP1 POP SWAP2 SWAP1 POP JUMP JUMPDEST PUSH2 0x3752 DUP2 PUSH2 0x3737 JUMP JUMPDEST DUP3 MSTORE POP POP JUMP JUMPDEST PUSH1 0x0 PUSH1 0x20 DUP3 ADD SWAP1 POP PUSH2 0x376D PUSH1 0x0 DUP4 ADD DUP5 PUSH2 0x3749 JUMP JUMPDEST SWAP3 SWAP2 POP POP JUMP JUMPDEST PUSH1 0x0 DUP2 SWAP1 POP SWAP2 SWAP1 POP JUMP JUMPDEST PUSH2 0x3786 DUP2 PUSH2 0x3773 JUMP JUMPDEST DUP2 EQ PUSH2 0x3791 JUMPI PUSH1 0x0 DUP1 REVERT JUMPDEST POP JUMP JUMPDEST PUSH1 0x0 DUP2 CALLDATALOAD SWAP1 POP PUSH2 0x37A3 DUP2 PUSH2 0x377D JUMP JUMPDEST SWAP3 SWAP2 POP POP JUMP JUMPDEST PUSH1 0x0 PUSH1 0x20 DUP3 DUP5 SUB SLT ISZERO PUSH2 0x37BF JUMPI PUSH2 0x37BE PUSH2 0x3450 JUMP JUMPDEST JUMPDEST PUSH1 0x0 PUSH2 0x37CD DUP5 DUP3 DUP6 ADD PUSH2 0x3794 JUMP JUMPDEST SWAP2 POP POP SWAP3 SWAP2 POP POP JUMP JUMPDEST PUSH2 0x37DF DUP2 PUSH2 0x3773 JUMP JUMPDEST DUP3 MSTORE POP POP JUMP JUMPDEST PUSH1 0x0 PUSH1 0x20 DUP3 ADD SWAP1 POP PUSH2 0x37FA PUSH1 0x0 DUP4 ADD DUP5 PUSH2 0x37D6 JUMP JUMPDEST SWAP3 SWAP2 POP POP JUMP JUMPDEST PUSH1 0x0 PUSH2 0x380B DUP3 PUSH2 0x36BF JUMP JUMPDEST SWAP1 POP SWAP2 SWAP1 POP JUMP JUMPDEST PUSH2 0x381B DUP2 PUSH2 0x3800 JUMP JUMPDEST DUP3 MSTORE POP POP JUMP JUMPDEST PUSH1 0x0 PUSH1 0x20 DUP3 ADD SWAP1 POP PUSH2 0x3836 PUSH1 0x0 DUP4 ADD DUP5 PUSH2 0x3812 JUMP JUMPDEST SWAP3 SWAP2 POP POP JUMP JUMPDEST PUSH1 0x0 PUSH2 0x3847 DUP3 PUSH2 0x36BF JUMP JUMPDEST SWAP1 POP SWAP2 SWAP1 POP JUMP JUMPDEST PUSH2 0x3857 DUP2 PUSH2 0x383C JUMP JUMPDEST DUP3 MSTORE POP POP JUMP JUMPDEST PUSH1 0x0 PUSH1 0x20 DUP3 ADD SWAP1 POP PUSH2 0x3872 PUSH1 0x0 DUP4 ADD DUP5 PUSH2 0x384E JUMP JUMPDEST SWAP3 SWAP2 POP POP JUMP JUMPDEST PUSH1 0x0 DUP1 PUSH1 0x40 DUP4 DUP6 SUB SLT ISZERO PUSH2 0x388F JUMPI PUSH2 0x388E PUSH2 0x3450 JUMP JUMPDEST JUMPDEST PUSH1 0x0 PUSH2 0x389D DUP6 DUP3 DUP7 ADD PUSH2 0x3794 JUMP JUMPDEST SWAP3 POP POP PUSH1 0x20 PUSH2 0x38AE DUP6 DUP3 DUP7 ADD PUSH2 0x363E JUMP JUMPDEST SWAP2 POP POP SWAP3 POP SWAP3 SWAP1 POP JUMP JUMPDEST PUSH1 0x0 PUSH2 0x38C3 DUP3 PUSH2 0x36BF JUMP JUMPDEST SWAP1 POP SWAP2 SWAP1 POP JUMP JUMPDEST PUSH2 0x38D3 DUP2 PUSH2 0x38B8 JUMP JUMPDEST DUP3 MSTORE POP POP JUMP JUMPDEST PUSH1 0x0 PUSH1 0x20 DUP3 ADD SWAP1 POP PUSH2 0x38EE PUSH1 0x0 DUP4 ADD DUP5 PUSH2 0x38CA JUMP JUMPDEST SWAP3 SWAP2 POP POP JUMP JUMPDEST PUSH1 0x0 PUSH1 0x20 DUP3 DUP5 SUB SLT ISZERO PUSH2 0x390A JUMPI PUSH2 0x3909 PUSH2 0x3450 JUMP JUMPDEST JUMPDEST PUSH1 0x0 PUSH2 0x3918 DUP5 DUP3 DUP6 ADD PUSH2 0x363E JUMP JUMPDEST SWAP2 POP POP SWAP3 SWAP2 POP POP JUMP JUMPDEST PUSH1 0x0 DUP1 PUSH1 0x0 DUP1 PUSH1 0x0 DUP1 PUSH1 0x0 PUSH1 0xE0 DUP9 DUP11 SUB SLT ISZERO PUSH2 0x3940 JUMPI PUSH2 0x393F PUSH2 0x3450 JUMP JUMPDEST JUMPDEST PUSH1 0x0 PUSH2 0x394E DUP11 DUP3 DUP12 ADD PUSH2 0x363E JUMP JUMPDEST SWAP8 POP POP PUSH1 0x20 PUSH2 0x395F DUP11 DUP3 DUP12 ADD PUSH2 0x363E JUMP JUMPDEST SWAP7 POP POP PUSH1 0x40 PUSH2 0x3970 DUP11 DUP3 DUP12 ADD PUSH2 0x363E JUMP JUMPDEST SWAP6 POP POP PUSH1 0x60 PUSH2 0x3981 DUP11 DUP3 DUP12 ADD PUSH2 0x363E JUMP JUMPDEST SWAP5 POP POP PUSH1 0x80 PUSH2 0x3992 DUP11 DUP3 DUP12 ADD PUSH2 0x363E JUMP JUMPDEST SWAP4 POP POP PUSH1 0xA0 PUSH2 0x39A3 DUP11 DUP3 DUP12 ADD PUSH2 0x363E JUMP JUMPDEST SWAP3 POP POP PUSH1 0xC0 PUSH2 0x39B4 DUP11 DUP3 DUP12 ADD PUSH2 0x363E JUMP JUMPDEST SWAP2 POP POP SWAP3 SWAP6 SWAP9 SWAP2 SWAP5 SWAP8 POP SWAP3 SWAP6 POP JUMP JUMPDEST PUSH1 0x0 PUSH2 0x39CE DUP3 PUSH2 0x36BF JUMP JUMPDEST SWAP1 POP SWAP2 SWAP1 POP JUMP JUMPDEST PUSH2 0x39DE DUP2 PUSH2 0x39C3 JUMP JUMPDEST DUP3 MSTORE POP POP JUMP JUMPDEST PUSH1 0x0 PUSH1 0x20 DUP3 ADD SWAP1 POP PUSH2 0x39F9 PUSH1 0x0 DUP4 ADD DUP5 PUSH2 0x39D5 JUMP JUMPDEST SWAP3 SWAP2 POP POP JUMP JUMPDEST PUSH1 0x0 DUP1 REVERT JUMPDEST PUSH1 0x0 DUP1 REVERT JUMPDEST PUSH1 0x0 DUP1 REVERT JUMPDEST PUSH1 0x0 DUP1 DUP4 PUSH1 0x1F DUP5 ADD SLT PUSH2 0x3A24 JUMPI PUSH2 0x3A23 PUSH2 0x39FF JUMP JUMPDEST JUMPDEST DUP3 CALLDATALOAD SWAP1 POP PUSH8 0xFFFFFFFFFFFFFFFF DUP2 GT ISZERO PUSH2 0x3A41 JUMPI PUSH2 0x3A40 PUSH2 0x3A04 JUMP JUMPDEST JUMPDEST PUSH1 0x20 DUP4 ADD SWAP2 POP DUP4 PUSH1 0x1 DUP3 MUL DUP4 ADD GT ISZERO PUSH2 0x3A5D JUMPI PUSH2 0x3A5C PUSH2 0x3A09 JUMP JUMPDEST JUMPDEST SWAP3 POP SWAP3 SWAP1 POP JUMP JUMPDEST PUSH1 0x0 DUP1 PUSH1 0x20 DUP4 DUP6 SUB SLT ISZERO PUSH2 0x3A7B JUMPI PUSH2 0x3A7A PUSH2 0x3450 JUMP JUMPDEST JUMPDEST PUSH1 0x0 DUP4 ADD CALLDATALOAD PUSH8 0xFFFFFFFFFFFFFFFF DUP2 GT ISZERO PUSH2 0x3A99 JUMPI PUSH2 0x3A98 PUSH2 0x3455 JUMP JUMPDEST JUMPDEST PUSH2 0x3AA5 DUP6 DUP3 DUP7 ADD PUSH2 0x3A0E JUMP JUMPDEST SWAP3 POP SWAP3 POP POP SWAP3 POP SWAP3 SWAP1 POP JUMP JUMPDEST PUSH1 0x0 DUP1 PUSH1 0x40 DUP4 DUP6 SUB SLT ISZERO PUSH2 0x3AC8 JUMPI PUSH2 0x3AC7 PUSH2 0x3450 JUMP JUMPDEST JUMPDEST PUSH1 0x0 PUSH2 0x3AD6 DUP6 DUP3 DUP7 ADD PUSH2 0x3536 JUMP JUMPDEST SWAP3 POP POP PUSH1 0x20 PUSH2 0x3AE7 DUP6 DUP3 DUP7 ADD PUSH2 0x363E JUMP JUMPDEST SWAP2 POP POP SWAP3 POP SWAP3 SWAP1 POP JUMP JUMPDEST PUSH1 0x0 PUSH2 0x3AFC DUP3 PUSH2 0x36BF JUMP JUMPDEST SWAP1 POP SWAP2 SWAP1 POP JUMP JUMPDEST PUSH2 0x3B0C DUP2 PUSH2 0x3AF1 JUMP JUMPDEST DUP3 MSTORE POP POP JUMP JUMPDEST PUSH1 0x0 PUSH1 0x20 DUP3 ADD SWAP1 POP PUSH2 0x3B27 PUSH1 0x0 DUP4 ADD DUP5 PUSH2 0x3B03 JUMP JUMPDEST SWAP3 SWAP2 POP POP JUMP JUMPDEST PUSH1 0x0 PUSH2 0x3B38 DUP3 PUSH2 0x36BF JUMP JUMPDEST SWAP1 POP SWAP2 SWAP1 POP JUMP JUMPDEST PUSH2 0x3B48 DUP2 PUSH2 0x3B2D JUMP JUMPDEST DUP3 MSTORE POP POP JUMP JUMPDEST PUSH1 0x0 PUSH1 0x20 DUP3 ADD SWAP1 POP PUSH2 0x3B63 PUSH1 0x0 DUP4 ADD DUP5 PUSH2 0x3B3F JUMP JUMPDEST SWAP3 SWAP2 POP POP JUMP JUMPDEST PUSH1 0x0 PUSH2 0xFFFF DUP3 AND SWAP1 POP SWAP2 SWAP1 POP JUMP JUMPDEST PUSH2 0x3B80 DUP2 PUSH2 0x3B69 JUMP JUMPDEST DUP3 MSTORE POP POP JUMP JUMPDEST PUSH1 0x0 PUSH1 0x20 DUP3 ADD SWAP1 POP PUSH2 0x3B9B PUSH1 0x0 DUP4 ADD DUP5 PUSH2 0x3B77 JUMP JUMPDEST SWAP3 SWAP2 POP POP JUMP JUMPDEST PUSH1 0x0 PUSH2 0x3BAC DUP3 PUSH2 0x35CB JUMP JUMPDEST SWAP1 POP SWAP2 SWAP1 POP JUMP JUMPDEST PUSH2 0x3BBC DUP2 PUSH2 0x3BA1 JUMP JUMPDEST DUP2 EQ PUSH2 0x3BC7 JUMPI PUSH1 0x0 DUP1 REVERT JUMPDEST POP JUMP JUMPDEST PUSH1 0x0 DUP2 CALLDATALOAD SWAP1 POP PUSH2 0x3BD9 DUP2 PUSH2 0x3BB3 JUMP JUMPDEST SWAP3 SWAP2 POP POP JUMP JUMPDEST PUSH1 0x0 DUP1 PUSH1 0x0 PUSH1 0x60 DUP5 DUP7 SUB SLT ISZERO PUSH2 0x3BF8 JUMPI PUSH2 0x3BF7 PUSH2 0x3450 JUMP JUMPDEST JUMPDEST PUSH1 0x0 PUSH2 0x3C06 DUP7 DUP3 DUP8 ADD PUSH2 0x363E JUMP JUMPDEST SWAP4 POP POP PUSH1 0x20 PUSH2 0x3C17 DUP7 DUP3 DUP8 ADD PUSH2 0x3BCA JUMP JUMPDEST SWAP3 POP POP PUSH1 0x40 PUSH2 0x3C28 DUP7 DUP3 DUP8 ADD PUSH2 0x3536 JUMP JUMPDEST SWAP2 POP POP SWAP3 POP SWAP3 POP SWAP3 JUMP JUMPDEST PUSH1 0x0 DUP1 PUSH1 0x40 DUP4 DUP6 SUB SLT ISZERO PUSH2 0x3C49 JUMPI PUSH2 0x3C48 PUSH2 0x3450 JUMP JUMPDEST JUMPDEST PUSH1 0x0 PUSH2 0x3C57 DUP6 DUP3 DUP7 ADD PUSH2 0x363E JUMP JUMPDEST SWAP3 POP POP PUSH1 0x20 PUSH2 0x3C68 DUP6 DUP3 DUP7 ADD PUSH2 0x363E JUMP JUMPDEST SWAP2 POP POP SWAP3 POP SWAP3 SWAP1 POP JUMP JUMPDEST PUSH32 0x4E487B7100000000000000000000000000000000000000000000000000000000 PUSH1 0x0 MSTORE PUSH1 0x11 PUSH1 0x4 MSTORE PUSH1 0x24 PUSH1 0x0 REVERT JUMPDEST PUSH1 0x0 PUSH2 0x3CAC DUP3 PUSH2 0x3515 JUMP JUMPDEST SWAP2 POP PUSH2 0x3CB7 DUP4 PUSH2 0x3515 JUMP JUMPDEST SWAP3 POP DUP3 DUP3 SUB SWAP1 POP DUP2 DUP2 GT ISZERO PUSH2 0x3CCF JUMPI PUSH2 0x3CCE PUSH2 0x3C72 JUMP JUMPDEST JUMPDEST SWAP3 SWAP2 POP POP JUMP JUMPDEST PUSH1 0x0 PUSH1 0x60 DUP3 ADD SWAP1 POP PUSH2 0x3CEA PUSH1 0x0 DUP4 ADD DUP7 PUSH2 0x370D JUMP JUMPDEST PUSH2 0x3CF7 PUSH1 0x20 DUP4 ADD DUP6 PUSH2 0x370D JUMP JUMPDEST PUSH2 0x3D04 PUSH1 0x40 DUP4 ADD DUP5 PUSH2 0x370D JUMP JUMPDEST SWAP5 SWAP4 POP POP POP POP JUMP JUMPDEST PUSH1 0x0 DUP3 DUP3 MSTORE PUSH1 0x20 DUP3 ADD SWAP1 POP SWAP3 SWAP2 POP POP JUMP JUMPDEST PUSH32 0x416363657373436F6E74726F6C3A2063616E206F6E6C792072656E6F756E6365 PUSH1 0x0 DUP3 ADD MSTORE PUSH32 0x20726F6C657320666F722073656C660000000000000000000000000000000000 PUSH1 0x20 DUP3 ADD MSTORE POP JUMP JUMPDEST PUSH1 0x0 PUSH2 0x3D79 PUSH1 0x2F DUP4 PUSH2 0x3D0C JUMP JUMPDEST SWAP2 POP PUSH2 0x3D84 DUP3 PUSH2 0x3D1D JUMP JUMPDEST PUSH1 0x40 DUP3 ADD SWAP1 POP SWAP2 SWAP1 POP JUMP JUMPDEST PUSH1 0x0 PUSH1 0x20 DUP3 ADD SWAP1 POP DUP2 DUP2 SUB PUSH1 0x0 DUP4 ADD MSTORE PUSH2 0x3DA8 DUP2 PUSH2 0x3D6C JUMP JUMPDEST SWAP1 POP SWAP2 SWAP1 POP JUMP JUMPDEST PUSH1 0x0 DUP2 SWAP1 POP SWAP2 SWAP1 POP JUMP JUMPDEST PUSH1 0x0 PUSH2 0x3DD4 PUSH2 0x3DCF PUSH2 0x3DCA DUP5 PUSH2 0x3DAF JUMP JUMPDEST PUSH2 0x3693 JUMP JUMPDEST PUSH2 0x3515 JUMP JUMPDEST SWAP1 POP SWAP2 SWAP1 POP JUMP JUMPDEST PUSH2 0x3DE4 DUP2 PUSH2 0x3DB9 JUMP JUMPDEST DUP3 MSTORE POP POP JUMP JUMPDEST PUSH1 0x0 PUSH1 0xC0 DUP3 ADD SWAP1 POP PUSH2 0x3DFF PUSH1 0x0 DUP4 ADD DUP10 PUSH2 0x35FD JUMP JUMPDEST PUSH2 0x3E0C PUSH1 0x20 DUP4 ADD DUP9 PUSH2 0x35FD JUMP JUMPDEST PUSH2 0x3E19 PUSH1 0x40 DUP4 ADD DUP8 PUSH2 0x3DDB JUMP JUMPDEST PUSH2 0x3E26 PUSH1 0x60 DUP4 ADD DUP7 PUSH2 0x3DDB JUMP JUMPDEST PUSH2 0x3E33 PUSH1 0x80 DUP4 ADD DUP6 PUSH2 0x35FD JUMP JUMPDEST PUSH2 0x3E40 PUSH1 0xA0 DUP4 ADD DUP5 PUSH2 0x34EB JUMP JUMPDEST SWAP8 SWAP7 POP POP POP POP POP POP POP JUMP JUMPDEST PUSH2 0x3E54 DUP2 PUSH2 0x34DF JUMP JUMPDEST DUP2 EQ PUSH2 0x3E5F JUMPI PUSH1 0x0 DUP1 REVERT JUMPDEST POP JUMP JUMPDEST PUSH1 0x0 DUP2 MLOAD SWAP1 POP PUSH2 0x3E71 DUP2 PUSH2 0x3E4B JUMP JUMPDEST SWAP3 SWAP2 POP POP JUMP JUMPDEST PUSH1 0x0 PUSH1 0x20 DUP3 DUP5 SUB SLT ISZERO PUSH2 0x3E8D JUMPI PUSH2 0x3E8C PUSH2 0x3450 JUMP JUMPDEST JUMPDEST PUSH1 0x0 PUSH2 0x3E9B DUP5 DUP3 DUP6 ADD PUSH2 0x3E62 JUMP JUMPDEST SWAP2 POP POP SWAP3 SWAP2 POP POP JUMP JUMPDEST PUSH1 0x0 PUSH2 0x3EAF DUP3 PUSH2 0x3515 JUMP JUMPDEST SWAP2 POP PUSH32 0xFFFFFFFFFFFFFFFFFFFFFFFFFFFFFFFFFFFFFFFFFFFFFFFFFFFFFFFFFFFFFFFF DUP3 SUB PUSH2 0x3EE1 JUMPI PUSH2 0x3EE0 PUSH2 0x3C72 JUMP JUMPDEST JUMPDEST PUSH1 0x1 DUP3 ADD SWAP1 POP SWAP2 SWAP1 POP JUMP JUMPDEST PUSH1 0x0 PUSH1 0xFF DUP3 AND SWAP1 POP SWAP2 SWAP1 POP JUMP JUMPDEST PUSH1 0x0 PUSH2 0x3F14 PUSH2 0x3F0F PUSH2 0x3F0A DUP5 PUSH2 0x3DAF JUMP JUMPDEST PUSH2 0x3693 JUMP JUMPDEST PUSH2 0x3EEC JUMP JUMPDEST SWAP1 POP SWAP2 SWAP1 POP JUMP JUMPDEST PUSH2 0x3F24 DUP2 PUSH2 0x3EF9 JUMP JUMPDEST DUP3 MSTORE POP POP JUMP JUMPDEST PUSH1 0x0 PUSH1 0x20 DUP3 ADD SWAP1 POP PUSH2 0x3F3F PUSH1 0x0 DUP4 ADD DUP5 PUSH2 0x3F1B JUMP JUMPDEST SWAP3 SWAP2 POP POP JUMP JUMPDEST PUSH1 0x0 DUP2 SWAP1 POP SWAP2 SWAP1 POP JUMP JUMPDEST PUSH1 0x0 PUSH2 0x3F6A PUSH2 0x3F65 PUSH2 0x3F60 DUP5 PUSH2 0x3F45 JUMP JUMPDEST PUSH2 0x3693 JUMP JUMPDEST PUSH2 0x3EEC JUMP JUMPDEST SWAP1 POP SWAP2 SWAP1 POP JUMP JUMPDEST PUSH2 0x3F7A DUP2 PUSH2 0x3F4F JUMP JUMPDEST DUP3 MSTORE POP POP JUMP JUMPDEST PUSH1 0x0 PUSH1 0x20 DUP3 ADD SWAP1 POP PUSH2 0x3F95 PUSH1 0x0 DUP4 ADD DUP5 PUSH2 0x3F71 JUMP JUMPDEST SWAP3 SWAP2 POP POP JUMP JUMPDEST PUSH1 0x0 DUP2 SWAP1 POP SWAP2 SWAP1 POP JUMP JUMPDEST PUSH1 0x0 PUSH2 0x3FC0 PUSH2 0x3FBB PUSH2 0x3FB6 DUP5 PUSH2 0x3F9B JUMP JUMPDEST PUSH2 0x3693 JUMP JUMPDEST PUSH2 0x3EEC JUMP JUMPDEST SWAP1 POP SWAP2 SWAP1 POP JUMP JUMPDEST PUSH2 0x3FD0 DUP2 PUSH2 0x3FA5 JUMP JUMPDEST DUP3 MSTORE POP POP JUMP JUMPDEST PUSH1 0x0 PUSH1 0x20 DUP3 ADD SWAP1 POP PUSH2 0x3FEB PUSH1 0x0 DUP4 ADD DUP5 PUSH2 0x3FC7 JUMP JUMPDEST SWAP3 SWAP2 POP POP JUMP JUMPDEST PUSH1 0x0 DUP2 SWAP1 POP SWAP2 SWAP1 POP JUMP JUMPDEST PUSH1 0x0 PUSH2 0x4016 PUSH2 0x4011 PUSH2 0x400C DUP5 PUSH2 0x3FF1 JUMP JUMPDEST PUSH2 0x3693 JUMP JUMPDEST PUSH2 0x3EEC JUMP JUMPDEST SWAP1 POP SWAP2 SWAP1 POP JUMP JUMPDEST PUSH2 0x4026 DUP2 PUSH2 0x3FFB JUMP JUMPDEST DUP3 MSTORE POP POP JUMP JUMPDEST PUSH1 0x0 PUSH1 0x20 DUP3 ADD SWAP1 POP PUSH2 0x4041 PUSH1 0x0 DUP4 ADD DUP5 PUSH2 0x401D JUMP JUMPDEST SWAP3 SWAP2 POP POP JUMP JUMPDEST PUSH1 0x0 DUP2 SWAP1 POP SWAP2 SWAP1 POP JUMP JUMPDEST PUSH1 0x0 PUSH2 0x406C PUSH2 0x4067 PUSH2 0x4062 DUP5 PUSH2 0x4047 JUMP JUMPDEST PUSH2 0x3693 JUMP JUMPDEST PUSH2 0x3EEC JUMP JUMPDEST SWAP1 POP SWAP2 SWAP1 POP JUMP JUMPDEST PUSH2 0x407C DUP2 PUSH2 0x4051 JUMP JUMPDEST DUP3 MSTORE POP POP JUMP JUMPDEST PUSH1 0x0 PUSH1 0x20 DUP3 ADD SWAP1 POP PUSH2 0x4097 PUSH1 0x0 DUP4 ADD DUP5 PUSH2 0x4073 JUMP JUMPDEST SWAP3 SWAP2 POP POP JUMP JUMPDEST PUSH1 0x0 DUP2 SWAP1 POP SWAP2 SWAP1 POP JUMP JUMPDEST PUSH1 0x0 PUSH2 0x40C2 PUSH2 0x40BD PUSH2 0x40B8 DUP5 PUSH2 0x409D JUMP JUMPDEST PUSH2 0x3693 JUMP JUMPDEST PUSH2 0x3EEC JUMP JUMPDEST SWAP1 POP SWAP2 SWAP1 POP JUMP JUMPDEST PUSH2 0x40D2 DUP2 PUSH2 0x40A7 JUMP JUMPDEST DUP3 MSTORE POP POP JUMP JUMPDEST PUSH1 0x0 PUSH1 0x20 DUP3 ADD SWAP1 POP PUSH2 0x40ED PUSH1 0x0 DUP4 ADD DUP5 PUSH2 0x40C9 JUMP JUMPDEST SWAP3 SWAP2 POP POP JUMP JUMPDEST PUSH1 0x0 DUP2 SWAP1 POP SWAP2 SWAP1 POP JUMP JUMPDEST PUSH1 0x0 PUSH2 0x4118 PUSH2 0x4113 PUSH2 0x410E DUP5 PUSH2 0x40F3 JUMP JUMPDEST PUSH2 0x3693 JUMP JUMPDEST PUSH2 0x3EEC JUMP JUMPDEST SWAP1 POP SWAP2 SWAP1 POP JUMP JUMPDEST PUSH2 0x4128 DUP2 PUSH2 0x40FD JUMP JUMPDEST DUP3 MSTORE POP POP JUMP JUMPDEST PUSH1 0x0 PUSH1 0x20 DUP3 ADD SWAP1 POP PUSH2 0x4143 PUSH1 0x0 DUP4 ADD DUP5 PUSH2 0x411F JUMP JUMPDEST SWAP3 SWAP2 POP POP JUMP JUMPDEST PUSH1 0x0 PUSH1 0xE0 DUP3 ADD SWAP1 POP PUSH2 0x415E PUSH1 0x0 DUP4 ADD DUP11 PUSH2 0x35FD JUMP JUMPDEST PUSH2 0x416B PUSH1 0x20 DUP4 ADD DUP10 PUSH2 0x35FD JUMP JUMPDEST PUSH2 0x4178 PUSH1 0x40 DUP4 ADD DUP9 PUSH2 0x35FD JUMP JUMPDEST PUSH2 0x4185 PUSH1 0x60 DUP4 ADD DUP8 PUSH2 0x35FD JUMP JUMPDEST PUSH2 0x4192 PUSH1 0x80 DUP4 ADD DUP7 PUSH2 0x35FD JUMP JUMPDEST PUSH2 0x419F PUSH1 0xA0 DUP4 ADD DUP6 PUSH2 0x35FD JUMP JUMPDEST PUSH2 0x41AC PUSH1 0xC0 DUP4 ADD DUP5 PUSH2 0x35FD JUMP JUMPDEST SWAP9 SWAP8 POP POP POP POP POP POP POP POP JUMP JUMPDEST PUSH1 0x0 PUSH2 0x41C3 DUP3 PUSH2 0x3B69 JUMP JUMPDEST SWAP2 POP PUSH2 0x41CE DUP4 PUSH2 0x3B69 JUMP JUMPDEST SWAP3 POP DUP3 DUP3 SUB SWAP1 POP PUSH2 0xFFFF DUP2 GT ISZERO PUSH2 0x41E8 JUMPI PUSH2 0x41E7 PUSH2 0x3C72 JUMP JUMPDEST JUMPDEST SWAP3 SWAP2 POP POP JUMP JUMPDEST PUSH32 0x534348454D415F56455253494F4E5F4E4F545F434F5252454354000000000000 PUSH1 0x0 DUP3 ADD MSTORE POP JUMP JUMPDEST PUSH1 0x0 PUSH2 0x4224 PUSH1 0x1A DUP4 PUSH2 0x3D0C JUMP JUMPDEST SWAP2 POP PUSH2 0x422F DUP3 PUSH2 0x41EE JUMP JUMPDEST PUSH1 0x20 DUP3 ADD SWAP1 POP SWAP2 SWAP1 POP JUMP JUMPDEST PUSH1 0x0 PUSH1 0x20 DUP3 ADD SWAP1 POP DUP2 DUP2 SUB PUSH1 0x0 DUP4 ADD MSTORE PUSH2 0x4253 DUP2 PUSH2 0x4217 JUMP JUMPDEST SWAP1 POP SWAP2 SWAP1 POP JUMP JUMPDEST PUSH1 0x0 PUSH1 0x80 DUP3 ADD SWAP1 POP PUSH2 0x426F PUSH1 0x0 DUP4 ADD DUP8 PUSH2 0x370D JUMP JUMPDEST PUSH2 0x427C PUSH1 0x20 DUP4 ADD DUP7 PUSH2 0x370D JUMP JUMPDEST PUSH2 0x4289 PUSH1 0x40 DUP4 ADD DUP6 PUSH2 0x35FD JUMP JUMPDEST PUSH2 0x4296 PUSH1 0x60 DUP4 ADD DUP5 PUSH2 0x35FD JUMP JUMPDEST SWAP6 SWAP5 POP POP POP POP POP JUMP JUMPDEST PUSH1 0x0 PUSH1 0xC0 DUP3 ADD SWAP1 POP PUSH2 0x42B4 PUSH1 0x0 DUP4 ADD DUP10 PUSH2 0x35FD JUMP JUMPDEST PUSH2 0x42C1 PUSH1 0x20 DUP4 ADD DUP9 PUSH2 0x35FD JUMP JUMPDEST PUSH2 0x42CE PUSH1 0x40 DUP4 ADD DUP8 PUSH2 0x370D JUMP JUMPDEST PUSH2 0x42DB PUSH1 0x60 DUP4 ADD DUP7 PUSH2 0x370D JUMP JUMPDEST PUSH2 0x42E8 PUSH1 0x80 DUP4 ADD DUP6 PUSH2 0x35FD JUMP JUMPDEST PUSH2 0x42F5 PUSH1 0xA0 DUP4 ADD DUP5 PUSH2 0x34EB JUMP JUMPDEST SWAP8 SWAP7 POP POP POP POP POP POP POP JUMP JUMPDEST PUSH1 0x0 DUP2 MLOAD SWAP1 POP PUSH2 0x430F DUP2 PUSH2 0x351F JUMP JUMPDEST SWAP3 SWAP2 POP POP JUMP JUMPDEST PUSH1 0x0 PUSH1 0x20 DUP3 DUP5 SUB SLT ISZERO PUSH2 0x432B JUMPI PUSH2 0x432A PUSH2 0x3450 JUMP JUMPDEST JUMPDEST PUSH1 0x0 PUSH2 0x4339 DUP5 DUP3 DUP6 ADD PUSH2 0x4300 JUMP JUMPDEST SWAP2 POP POP SWAP3 SWAP2 POP POP JUMP JUMPDEST PUSH1 0x0 PUSH2 0x434D DUP3 PUSH2 0x3515 JUMP JUMPDEST SWAP2 POP PUSH2 0x4358 DUP4 PUSH2 0x3515 JUMP JUMPDEST SWAP3 POP DUP3 DUP3 ADD SWAP1 POP DUP1 DUP3 GT ISZERO PUSH2 0x4370 JUMPI PUSH2 0x436F PUSH2 0x3C72 JUMP JUMPDEST JUMPDEST SWAP3 SWAP2 POP POP JUMP JUMPDEST PUSH1 0x0 PUSH1 0x60 DUP3 ADD SWAP1 POP PUSH2 0x438B PUSH1 0x0 DUP4 ADD DUP7 PUSH2 0x370D JUMP JUMPDEST PUSH2 0x4398 PUSH1 0x20 DUP4 ADD DUP6 PUSH2 0x370D JUMP JUMPDEST PUSH2 0x43A5 PUSH1 0x40 DUP4 ADD DUP5 PUSH2 0x34EB JUMP JUMPDEST SWAP5 SWAP4 POP POP POP POP JUMP JUMPDEST PUSH1 0x0 DUP2 SWAP1 POP SWAP3 SWAP2 POP POP JUMP JUMPDEST PUSH32 0x416363657373436F6E74726F6C3A206163636F756E7420000000000000000000 PUSH1 0x0 DUP3 ADD MSTORE POP JUMP JUMPDEST PUSH1 0x0 PUSH2 0x43EE PUSH1 0x17 DUP4 PUSH2 0x43AD JUMP JUMPDEST SWAP2 POP PUSH2 0x43F9 DUP3 PUSH2 0x43B8 JUMP JUMPDEST PUSH1 0x17 DUP3 ADD SWAP1 POP SWAP2 SWAP1 POP JUMP JUMPDEST PUSH1 0x0 DUP2 MLOAD SWAP1 POP SWAP2 SWAP1 POP JUMP JUMPDEST PUSH1 0x0 JUMPDEST DUP4 DUP2 LT ISZERO PUSH2 0x442D JUMPI DUP1 DUP3 ADD MLOAD DUP2 DUP5 ADD MSTORE PUSH1 0x20 DUP2 ADD SWAP1 POP PUSH2 0x4412 JUMP JUMPDEST PUSH1 0x0 DUP5 DUP5 ADD MSTORE POP POP POP POP JUMP JUMPDEST PUSH1 0x0 PUSH2 0x4444 DUP3 PUSH2 0x4404 JUMP JUMPDEST PUSH2 0x444E DUP2 DUP6 PUSH2 0x43AD JUMP JUMPDEST SWAP4 POP PUSH2 0x445E DUP2 DUP6 PUSH1 0x20 DUP7 ADD PUSH2 0x440F JUMP JUMPDEST DUP1 DUP5 ADD SWAP2 POP POP SWAP3 SWAP2 POP POP JUMP JUMPDEST PUSH32 0x206973206D697373696E6720726F6C6520000000000000000000000000000000 PUSH1 0x0 DUP3 ADD MSTORE POP JUMP JUMPDEST PUSH1 0x0 PUSH2 0x44A0 PUSH1 0x11 DUP4 PUSH2 0x43AD JUMP JUMPDEST SWAP2 POP PUSH2 0x44AB DUP3 PUSH2 0x446A JUMP JUMPDEST PUSH1 0x11 DUP3 ADD SWAP1 POP SWAP2 SWAP1 POP JUMP JUMPDEST PUSH1 0x0 PUSH2 0x44C1 DUP3 PUSH2 0x43E1 JUMP JUMPDEST SWAP2 POP PUSH2 0x44CD DUP3 DUP6 PUSH2 0x4439 JUMP JUMPDEST SWAP2 POP PUSH2 0x44D8 DUP3 PUSH2 0x4493 JUMP JUMPDEST SWAP2 POP PUSH2 0x44E4 DUP3 DUP5 PUSH2 0x4439 JUMP JUMPDEST SWAP2 POP DUP2 SWAP1 POP SWAP4 SWAP3 POP POP POP JUMP JUMPDEST PUSH1 0x0 PUSH1 0x1F NOT PUSH1 0x1F DUP4 ADD AND SWAP1 POP SWAP2 SWAP1 POP JUMP JUMPDEST PUSH1 0x0 PUSH2 0x450C DUP3 PUSH2 0x4404 JUMP JUMPDEST PUSH2 0x4516 DUP2 DUP6 PUSH2 0x3D0C JUMP JUMPDEST SWAP4 POP PUSH2 0x4526 DUP2 DUP6 PUSH1 0x20 DUP7 ADD PUSH2 0x440F JUMP JUMPDEST PUSH2 0x452F DUP2 PUSH2 0x44F0 JUMP JUMPDEST DUP5 ADD SWAP2 POP POP SWAP3 SWAP2 POP POP JUMP JUMPDEST PUSH1 0x0 PUSH1 0x20 DUP3 ADD SWAP1 POP DUP2 DUP2 SUB PUSH1 0x0 DUP4 ADD MSTORE PUSH2 0x4554 DUP2 DUP5 PUSH2 0x4501 JUMP JUMPDEST SWAP1 POP SWAP3 SWAP2 POP POP JUMP JUMPDEST PUSH32 0x416464726573733A20696E73756666696369656E742062616C616E6365000000 PUSH1 0x0 DUP3 ADD MSTORE POP JUMP JUMPDEST PUSH1 0x0 PUSH2 0x4592 PUSH1 0x1D DUP4 PUSH2 0x3D0C JUMP JUMPDEST SWAP2 POP PUSH2 0x459D DUP3 PUSH2 0x455C JUMP JUMPDEST PUSH1 0x20 DUP3 ADD SWAP1 POP SWAP2 SWAP1 POP JUMP JUMPDEST PUSH1 0x0 PUSH1 0x20 DUP3 ADD SWAP1 POP DUP2 DUP2 SUB PUSH1 0x0 DUP4 ADD MSTORE PUSH2 0x45C1 DUP2 PUSH2 0x4585 JUMP JUMPDEST SWAP1 POP SWAP2 SWAP1 POP JUMP JUMPDEST PUSH1 0x0 DUP2 SWAP1 POP SWAP3 SWAP2 POP POP JUMP JUMPDEST POP JUMP JUMPDEST PUSH1 0x0 PUSH2 0x45E3 PUSH1 0x0 DUP4 PUSH2 0x45C8 JUMP JUMPDEST SWAP2 POP PUSH2 0x45EE DUP3 PUSH2 0x45D3 JUMP JUMPDEST PUSH1 0x0 DUP3 ADD SWAP1 POP SWAP2 SWAP1 POP JUMP JUMPDEST PUSH1 0x0 PUSH2 0x4604 DUP3 PUSH2 0x45D6 JUMP JUMPDEST SWAP2 POP DUP2 SWAP1 POP SWAP2 SWAP1 POP JUMP JUMPDEST PUSH32 0x416464726573733A20756E61626C6520746F2073656E642076616C75652C2072 PUSH1 0x0 DUP3 ADD MSTORE PUSH32 0x6563697069656E74206D61792068617665207265766572746564000000000000 PUSH1 0x20 DUP3 ADD MSTORE POP JUMP JUMPDEST PUSH1 0x0 PUSH2 0x466A PUSH1 0x3A DUP4 PUSH2 0x3D0C JUMP JUMPDEST SWAP2 POP PUSH2 0x4675 DUP3 PUSH2 0x460E JUMP JUMPDEST PUSH1 0x40 DUP3 ADD SWAP1 POP SWAP2 SWAP1 POP JUMP JUMPDEST PUSH1 0x0 PUSH1 0x20 DUP3 ADD SWAP1 POP DUP2 DUP2 SUB PUSH1 0x0 DUP4 ADD MSTORE PUSH2 0x4699 DUP2 PUSH2 0x465D JUMP JUMPDEST SWAP1 POP SWAP2 SWAP1 POP JUMP JUMPDEST PUSH1 0x0 PUSH1 0x40 DUP3 ADD SWAP1 POP PUSH2 0x46B5 PUSH1 0x0 DUP4 ADD DUP6 PUSH2 0x35FD JUMP JUMPDEST PUSH2 0x46C2 PUSH1 0x20 DUP4 ADD DUP5 PUSH2 0x370D JUMP JUMPDEST SWAP4 SWAP3 POP POP POP JUMP JUMPDEST PUSH1 0x0 PUSH2 0x46D4 DUP3 PUSH2 0x3515 JUMP JUMPDEST SWAP2 POP PUSH2 0x46DF DUP4 PUSH2 0x3515 JUMP JUMPDEST SWAP3 POP DUP3 DUP3 MUL PUSH2 0x46ED DUP2 PUSH2 0x3515 JUMP JUMPDEST SWAP2 POP DUP3 DUP3 DIV DUP5 EQ DUP4 ISZERO OR PUSH2 0x4704 JUMPI PUSH2 0x4703 PUSH2 0x3C72 JUMP JUMPDEST JUMPDEST POP SWAP3 SWAP2 POP POP JUMP JUMPDEST PUSH32 0x4E487B7100000000000000000000000000000000000000000000000000000000 PUSH1 0x0 MSTORE PUSH1 0x41 PUSH1 0x4 MSTORE PUSH1 0x24 PUSH1 0x0 REVERT JUMPDEST PUSH32 0x4E487B7100000000000000000000000000000000000000000000000000000000 PUSH1 0x0 MSTORE PUSH1 0x32 PUSH1 0x4 MSTORE PUSH1 0x24 PUSH1 0x0 REVERT JUMPDEST PUSH1 0x0 PUSH2 0x4774 DUP3 PUSH2 0x3515 JUMP JUMPDEST SWAP2 POP PUSH1 0x0 DUP3 SUB PUSH2 0x4787 JUMPI PUSH2 0x4786 PUSH2 0x3C72 JUMP JUMPDEST JUMPDEST PUSH1 0x1 DUP3 SUB SWAP1 POP SWAP2 SWAP1 POP JUMP JUMPDEST PUSH32 0x537472696E67733A20686578206C656E67746820696E73756666696369656E74 PUSH1 0x0 DUP3 ADD MSTORE POP JUMP JUMPDEST PUSH1 0x0 PUSH2 0x47C8 PUSH1 0x20 DUP4 PUSH2 0x3D0C JUMP JUMPDEST SWAP2 POP PUSH2 0x47D3 DUP3 PUSH2 0x4792 JUMP JUMPDEST PUSH1 0x20 DUP3 ADD SWAP1 POP SWAP2 SWAP1 POP JUMP JUMPDEST PUSH1 0x0 PUSH1 0x20 DUP3 ADD SWAP1 POP DUP2 DUP2 SUB PUSH1 0x0 DUP4 ADD MSTORE PUSH2 0x47F7 DUP2 PUSH2 0x47BB JUMP JUMPDEST SWAP1 POP SWAP2 SWAP1 POP JUMP JUMPDEST PUSH32 0x5361666545524332303A204552433230206F7065726174696F6E20646964206E PUSH1 0x0 DUP3 ADD MSTORE PUSH32 0x6F74207375636365656400000000000000000000000000000000000000000000 PUSH1 0x20 DUP3 ADD MSTORE POP JUMP JUMPDEST PUSH1 0x0 PUSH2 0x485A PUSH1 0x2A DUP4 PUSH2 0x3D0C JUMP JUMPDEST SWAP2 POP PUSH2 0x4865 DUP3 PUSH2 0x47FE JUMP JUMPDEST PUSH1 0x40 DUP3 ADD SWAP1 POP SWAP2 SWAP1 POP JUMP JUMPDEST PUSH1 0x0 PUSH1 0x20 DUP3 ADD SWAP1 POP DUP2 DUP2 SUB PUSH1 0x0 DUP4 ADD MSTORE PUSH2 0x4889 DUP2 PUSH2 0x484D JUMP JUMPDEST SWAP1 POP SWAP2 SWAP1 POP JUMP JUMPDEST PUSH32 0x416464726573733A20696E73756666696369656E742062616C616E636520666F PUSH1 0x0 DUP3 ADD MSTORE PUSH32 0x722063616C6C0000000000000000000000000000000000000000000000000000 PUSH1 0x20 DUP3 ADD MSTORE POP JUMP JUMPDEST PUSH1 0x0 PUSH2 0x48EC PUSH1 0x26 DUP4 PUSH2 0x3D0C JUMP JUMPDEST SWAP2 POP PUSH2 0x48F7 DUP3 PUSH2 0x4890 JUMP JUMPDEST PUSH1 0x40 DUP3 ADD SWAP1 POP SWAP2 SWAP1 POP JUMP JUMPDEST PUSH1 0x0 PUSH1 0x20 DUP3 ADD SWAP1 POP DUP2 DUP2 SUB PUSH1 0x0 DUP4 ADD MSTORE PUSH2 0x491B DUP2 PUSH2 0x48DF JUMP JUMPDEST SWAP1 POP SWAP2 SWAP1 POP JUMP JUMPDEST PUSH1 0x0 DUP2 MLOAD SWAP1 POP SWAP2 SWAP1 POP JUMP JUMPDEST PUSH1 0x0 PUSH2 0x4938 DUP3 PUSH2 0x4922 JUMP JUMPDEST PUSH2 0x4942 DUP2 DUP6 PUSH2 0x45C8 JUMP JUMPDEST SWAP4 POP PUSH2 0x4952 DUP2 DUP6 PUSH1 0x20 DUP7 ADD PUSH2 0x440F JUMP JUMPDEST DUP1 DUP5 ADD SWAP2 POP POP SWAP3 SWAP2 POP POP JUMP JUMPDEST PUSH1 0x0 PUSH2 0x496A DUP3 DUP5 PUSH2 0x492D JUMP JUMPDEST SWAP2 POP DUP2 SWAP1 POP SWAP3 SWAP2 POP POP JUMP JUMPDEST PUSH32 0x416464726573733A2063616C6C20746F206E6F6E2D636F6E7472616374000000 PUSH1 0x0 DUP3 ADD MSTORE POP JUMP JUMPDEST PUSH1 0x0 PUSH2 0x49AB PUSH1 0x1D DUP4 PUSH2 0x3D0C JUMP JUMPDEST SWAP2 POP PUSH2 0x49B6 DUP3 PUSH2 0x4975 JUMP JUMPDEST PUSH1 0x20 DUP3 ADD SWAP1 POP SWAP2 SWAP1 POP JUMP JUMPDEST PUSH1 0x0 PUSH1 0x20 DUP3 ADD SWAP1 POP DUP2 DUP2 SUB PUSH1 0x0 DUP4 ADD MSTORE PUSH2 0x49DA DUP2 PUSH2 0x499E JUMP JUMPDEST SWAP1 POP SWAP2 SWAP1 POP JUMP INVALID LOG2 PUSH5 0x6970667358 0x22 SLT KECCAK256 PREVRANDAO 0xAB 0xD9 0x2A NOT 0x4A 0xDF JUMPI PUSH1 0xAC DUP11 SGT AND 0xF9 PUSH26 0xBB6E8A2CE5D54F6B07754A35C62E74D47864736F6C6343000812 STOP CALLER "
		},
		"gasEstimates": {
			"creation": {
				"codeDepositCost": "3793400",
				"executionCost": "4295",
				"totalCost": "3797695"
			},
			"external": {
				"DEFAULT_ADMIN_ROLE()": "446",
				"addLockManager(address)": "infinite",
				"approve(address,uint256)": "43128",
				"balanceOf(address)": "infinite",
				"burn(uint256)": "67377",
				"expirationDuration()": "2475",
				"getApproved(uint256)": "5205",
				"getHasValidKey(address)": "infinite",
				"getRoleAdmin(bytes32)": "infinite",
				"grantRole(bytes32,address)": "infinite",
				"hasRole(bytes32,address)": "3185",
				"isApprovedForAll(address,address)": "infinite",
				"isLockManager(address)": "3060",
				"isValidKey(uint256)": "infinite",
				"keyExpirationTimestampFor(uint256)": "infinite",
				"keyManagerOf(uint256)": "2884",
				"keyPrice()": "2586",
				"maxKeysPerAddress()": "2481",
				"maxNumberOfKeys()": "2497",
				"mergeKeys(uint256,uint256,uint256)": "infinite",
				"migrate(bytes)": "infinite",
				"numberOfOwners()": "2496",
				"onKeyCancelHook()": "infinite",
				"onKeyExtendHook()": "infinite",
				"onKeyGrantHook()": "infinite",
				"onKeyPurchaseHook()": "infinite",
				"onKeyTransferHook()": "infinite",
				"onTokenURIHook()": "infinite",
				"onValidKeyHook()": "infinite",
				"ownerOf(uint256)": "2998",
				"publicLockVersion()": "476",
				"renounceLockManager()": "infinite",
				"renounceRole(bytes32,address)": "infinite",
				"revokeRole(bytes32,address)": "infinite",
				"schemaVersion()": "2496",
				"setEventHooks(address,address,address,address,address,address,address)": "infinite",
				"setKeyManagerOf(uint256,address)": "64628",
				"supportsInterface(bytes4)": "3114",
				"tokenAddress()": "2603",
				"tokenByIndex(uint256)": "infinite",
				"tokenOfOwnerByIndex(address,uint256)": "infinite",
				"totalKeys(address)": "3010",
				"totalSupply()": "2505",
				"unlockProtocol()": "infinite",
				"updateKeyPricing(uint256,address)": "infinite",
				"updateLockConfig(uint256,uint256,uint256)": "infinite",
				"updateSchemaVersion()": "24851",
				"withdraw(address,address,uint256)": "infinite"
			},
			"internal": {
				"_initializeMixinERC721Enumerable()": "infinite"
			}
		},
		"methodIdentifiers": {
			"DEFAULT_ADMIN_ROLE()": "a217fddf",
			"addLockManager(address)": "d2503485",
			"approve(address,uint256)": "095ea7b3",
			"balanceOf(address)": "70a08231",
			"burn(uint256)": "42966c68",
			"expirationDuration()": "11a4c03a",
			"getApproved(uint256)": "081812fc",
			"getHasValidKey(address)": "6d8ea5b4",
			"getRoleAdmin(bytes32)": "248a9ca3",
			"grantRole(bytes32,address)": "2f2ff15d",
			"hasRole(bytes32,address)": "91d14854",
			"isApprovedForAll(address,address)": "e985e9c5",
			"isLockManager(address)": "aae4b8f7",
			"isValidKey(uint256)": "a98d3623",
			"keyExpirationTimestampFor(uint256)": "54b249fb",
			"keyManagerOf(uint256)": "4d025fed",
			"keyPrice()": "10e56973",
			"maxKeysPerAddress()": "d52e4a10",
			"maxNumberOfKeys()": "74b6c106",
			"mergeKeys(uint256,uint256,uint256)": "068208cd",
			"migrate(bytes)": "8932a90d",
			"numberOfOwners()": "93fd1844",
			"onKeyCancelHook()": "217751bc",
			"onKeyExtendHook()": "c907c3ec",
			"onKeyGrantHook()": "b129694e",
			"onKeyPurchaseHook()": "2d33dd5b",
			"onKeyTransferHook()": "389f07e8",
			"onTokenURIHook()": "7ec2a724",
			"onValidKeyHook()": "26e9ca07",
			"ownerOf(uint256)": "6352211e",
			"publicLockVersion()": "d1bbd49c",
			"renounceLockManager()": "f0ba6040",
			"renounceRole(bytes32,address)": "36568abe",
			"revokeRole(bytes32,address)": "d547741f",
			"schemaVersion()": "4e2ce6d3",
			"setEventHooks(address,address,address,address,address,address,address)": "74cac47d",
			"setKeyManagerOf(uint256,address)": "b11d7ec1",
			"supportsInterface(bytes4)": "01ffc9a7",
			"tokenAddress()": "9d76ea58",
			"tokenByIndex(uint256)": "4f6ccce7",
			"tokenOfOwnerByIndex(address,uint256)": "2f745c59",
			"totalKeys(address)": "812eecd4",
			"totalSupply()": "18160ddd",
			"unlockProtocol()": "0f15023b",
			"updateKeyPricing(uint256,address)": "a2e4cd2e",
			"updateLockConfig(uint256,uint256,uint256)": "282478df",
			"updateSchemaVersion()": "f32e8b24",
			"withdraw(address,address,uint256)": "d9caed12"
		}
	},
	"abi": [
		{
			"inputs": [],
			"name": "CANNOT_APPROVE_SELF",
			"type": "error"
		},
		{
			"inputs": [],
			"name": "CANT_BE_SMALLER_THAN_SUPPLY",
			"type": "error"
		},
		{
			"inputs": [],
			"name": "CANT_EXTEND_NON_EXPIRING_KEY",
			"type": "error"
		},
		{
			"inputs": [],
			"name": "GAS_REFUND_FAILED",
			"type": "error"
		},
		{
			"inputs": [],
			"name": "INSUFFICIENT_ERC20_VALUE",
			"type": "error"
		},
		{
			"inputs": [],
			"name": "INSUFFICIENT_VALUE",
			"type": "error"
		},
		{
			"inputs": [],
			"name": "INVALID_ADDRESS",
			"type": "error"
		},
		{
			"inputs": [
				{
					"internalType": "uint8",
					"name": "hookIndex",
					"type": "uint8"
				}
			],
			"name": "INVALID_HOOK",
			"type": "error"
		},
		{
			"inputs": [],
			"name": "INVALID_LENGTH",
			"type": "error"
		},
		{
			"inputs": [],
			"name": "INVALID_TOKEN",
			"type": "error"
		},
		{
			"inputs": [],
			"name": "KEY_NOT_VALID",
			"type": "error"
		},
		{
			"inputs": [],
			"name": "KEY_TRANSFERS_DISABLED",
			"type": "error"
		},
		{
			"inputs": [],
			"name": "LOCK_HAS_CHANGED",
			"type": "error"
		},
		{
			"inputs": [],
			"name": "LOCK_SOLD_OUT",
			"type": "error"
		},
		{
			"inputs": [],
			"name": "MAX_KEYS_REACHED",
			"type": "error"
		},
		{
			"inputs": [],
			"name": "MIGRATION_REQUIRED",
			"type": "error"
		},
		{
			"inputs": [],
			"name": "NON_COMPLIANT_ERC721_RECEIVER",
			"type": "error"
		},
		{
			"inputs": [],
			"name": "NON_RENEWABLE_LOCK",
			"type": "error"
		},
		{
			"inputs": [],
			"name": "NOT_ENOUGH_FUNDS",
			"type": "error"
		},
		{
			"inputs": [],
			"name": "NOT_ENOUGH_TIME",
			"type": "error"
		},
		{
			"inputs": [],
			"name": "NOT_READY_FOR_RENEWAL",
			"type": "error"
		},
		{
			"inputs": [],
			"name": "NO_SUCH_KEY",
			"type": "error"
		},
		{
			"inputs": [],
			"name": "NULL_VALUE",
			"type": "error"
		},
		{
			"inputs": [],
			"name": "ONLY_KEY_MANAGER_OR_APPROVED",
			"type": "error"
		},
		{
			"inputs": [],
			"name": "ONLY_LOCK_MANAGER",
			"type": "error"
		},
		{
			"inputs": [],
			"name": "ONLY_LOCK_MANAGER_OR_KEY_GRANTER",
			"type": "error"
		},
		{
			"inputs": [],
			"name": "OUT_OF_RANGE",
			"type": "error"
		},
		{
			"inputs": [],
			"name": "OWNER_CANT_BE_ADDRESS_ZERO",
			"type": "error"
		},
		{
			"inputs": [],
			"name": "SCHEMA_VERSION_NOT_CORRECT",
			"type": "error"
		},
		{
			"inputs": [],
			"name": "TRANSFER_TO_SELF",
			"type": "error"
		},
		{
			"inputs": [],
			"name": "UNAUTHORIZED",
			"type": "error"
		},
		{
			"inputs": [],
			"name": "UNAUTHORIZED_KEY_MANAGER_UPDATE",
			"type": "error"
		},
		{
			"anonymous": false,
			"inputs": [
				{
					"indexed": true,
					"internalType": "address",
					"name": "owner",
					"type": "address"
				},
				{
					"indexed": true,
					"internalType": "address",
					"name": "approved",
					"type": "address"
				},
				{
					"indexed": true,
					"internalType": "uint256",
					"name": "tokenId",
					"type": "uint256"
				}
			],
			"name": "Approval",
			"type": "event"
		},
		{
			"anonymous": false,
			"inputs": [
				{
					"indexed": true,
					"internalType": "address",
					"name": "owner",
					"type": "address"
				},
				{
					"indexed": true,
					"internalType": "address",
					"name": "operator",
					"type": "address"
				},
				{
					"indexed": false,
					"internalType": "bool",
					"name": "approved",
					"type": "bool"
				}
			],
			"name": "ApprovalForAll",
			"type": "event"
		},
		{
			"anonymous": false,
			"inputs": [
				{
					"indexed": false,
					"internalType": "address",
					"name": "onKeyPurchaseHook",
					"type": "address"
				},
				{
					"indexed": false,
					"internalType": "address",
					"name": "onKeyCancelHook",
					"type": "address"
				},
				{
					"indexed": false,
					"internalType": "address",
					"name": "onValidKeyHook",
					"type": "address"
				},
				{
					"indexed": false,
					"internalType": "address",
					"name": "onTokenURIHook",
					"type": "address"
				},
				{
					"indexed": false,
					"internalType": "address",
					"name": "onKeyTransferHook",
					"type": "address"
				},
				{
					"indexed": false,
					"internalType": "address",
					"name": "onKeyExtendHook",
					"type": "address"
				},
				{
					"indexed": false,
					"internalType": "address",
					"name": "onKeyGrantHook",
					"type": "address"
				}
			],
			"name": "EventHooksUpdated",
			"type": "event"
		},
		{
			"anonymous": false,
			"inputs": [
				{
					"indexed": true,
					"internalType": "uint256",
					"name": "tokenId",
					"type": "uint256"
				},
				{
					"indexed": false,
					"internalType": "uint256",
					"name": "newExpiration",
					"type": "uint256"
				},
				{
					"indexed": false,
					"internalType": "uint256",
					"name": "amount",
					"type": "uint256"
				},
				{
					"indexed": false,
					"internalType": "bool",
					"name": "timeAdded",
					"type": "bool"
				}
			],
			"name": "ExpirationChanged",
			"type": "event"
		},
		{
			"anonymous": false,
			"inputs": [
				{
					"indexed": true,
					"internalType": "uint256",
					"name": "tokenId",
					"type": "uint256"
				}
			],
			"name": "ExpireKey",
			"type": "event"
		},
		{
			"anonymous": false,
			"inputs": [
				{
					"indexed": false,
					"internalType": "uint8",
					"name": "version",
					"type": "uint8"
				}
			],
			"name": "Initialized",
			"type": "event"
		},
		{
			"anonymous": false,
			"inputs": [
				{
					"indexed": true,
					"internalType": "uint256",
					"name": "tokenId",
					"type": "uint256"
				},
				{
					"indexed": false,
					"internalType": "uint256",
					"name": "newTimestamp",
					"type": "uint256"
				}
			],
			"name": "KeyExtended",
			"type": "event"
		},
		{
			"anonymous": false,
			"inputs": [
				{
					"indexed": true,
					"internalType": "address",
					"name": "account",
					"type": "address"
				}
			],
			"name": "KeyGranterAdded",
			"type": "event"
		},
		{
			"anonymous": false,
			"inputs": [
				{
					"indexed": true,
					"internalType": "address",
					"name": "account",
					"type": "address"
				}
			],
			"name": "KeyGranterRemoved",
			"type": "event"
		},
		{
			"anonymous": false,
			"inputs": [
				{
					"indexed": true,
					"internalType": "uint256",
					"name": "_tokenId",
					"type": "uint256"
				},
				{
					"indexed": true,
					"internalType": "address",
					"name": "_newManager",
					"type": "address"
				}
			],
			"name": "KeyManagerChanged",
			"type": "event"
		},
		{
			"anonymous": false,
			"inputs": [
				{
					"indexed": false,
					"internalType": "uint256",
					"name": "updatedRecordsCount",
					"type": "uint256"
				}
			],
			"name": "KeysMigrated",
			"type": "event"
		},
		{
			"anonymous": false,
			"inputs": [
				{
					"indexed": false,
					"internalType": "uint256",
					"name": "expirationDuration",
					"type": "uint256"
				},
				{
					"indexed": false,
					"internalType": "uint256",
					"name": "maxNumberOfKeys",
					"type": "uint256"
				},
				{
					"indexed": false,
					"internalType": "uint256",
					"name": "maxKeysPerAcccount",
					"type": "uint256"
				}
			],
			"name": "LockConfig",
			"type": "event"
		},
		{
			"anonymous": false,
			"inputs": [
				{
					"indexed": true,
					"internalType": "address",
					"name": "account",
					"type": "address"
				}
			],
			"name": "LockManagerAdded",
			"type": "event"
		},
		{
			"anonymous": false,
			"inputs": [
				{
					"indexed": true,
					"internalType": "address",
					"name": "account",
					"type": "address"
				}
			],
			"name": "LockManagerRemoved",
			"type": "event"
		},
		{
			"anonymous": false,
			"inputs": [
				{
					"indexed": false,
					"internalType": "uint256",
					"name": "oldKeyPrice",
					"type": "uint256"
				},
				{
					"indexed": false,
					"internalType": "uint256",
					"name": "keyPrice",
					"type": "uint256"
				},
				{
					"indexed": false,
					"internalType": "address",
					"name": "oldTokenAddress",
					"type": "address"
				},
				{
					"indexed": false,
					"internalType": "address",
					"name": "tokenAddress",
					"type": "address"
				}
			],
			"name": "PricingChanged",
			"type": "event"
		},
		{
			"anonymous": false,
			"inputs": [
				{
					"indexed": true,
					"internalType": "bytes32",
					"name": "role",
					"type": "bytes32"
				},
				{
					"indexed": true,
					"internalType": "bytes32",
					"name": "previousAdminRole",
					"type": "bytes32"
				},
				{
					"indexed": true,
					"internalType": "bytes32",
					"name": "newAdminRole",
					"type": "bytes32"
				}
			],
			"name": "RoleAdminChanged",
			"type": "event"
		},
		{
			"anonymous": false,
			"inputs": [
				{
					"indexed": true,
					"internalType": "bytes32",
					"name": "role",
					"type": "bytes32"
				},
				{
					"indexed": true,
					"internalType": "address",
					"name": "account",
					"type": "address"
				},
				{
					"indexed": true,
					"internalType": "address",
					"name": "sender",
					"type": "address"
				}
			],
			"name": "RoleGranted",
			"type": "event"
		},
		{
			"anonymous": false,
			"inputs": [
				{
					"indexed": true,
					"internalType": "bytes32",
					"name": "role",
					"type": "bytes32"
				},
				{
					"indexed": true,
					"internalType": "address",
					"name": "account",
					"type": "address"
				},
				{
					"indexed": true,
					"internalType": "address",
					"name": "sender",
					"type": "address"
				}
			],
			"name": "RoleRevoked",
			"type": "event"
		},
		{
			"anonymous": false,
			"inputs": [
				{
					"indexed": true,
					"internalType": "address",
					"name": "from",
					"type": "address"
				},
				{
					"indexed": true,
					"internalType": "address",
					"name": "to",
					"type": "address"
				},
				{
					"indexed": true,
					"internalType": "uint256",
					"name": "tokenId",
					"type": "uint256"
				}
			],
			"name": "Transfer",
			"type": "event"
		},
		{
			"anonymous": false,
			"inputs": [
				{
					"indexed": true,
					"internalType": "address",
					"name": "sender",
					"type": "address"
				},
				{
					"indexed": true,
					"internalType": "address",
					"name": "tokenAddress",
					"type": "address"
				},
				{
					"indexed": true,
					"internalType": "address",
					"name": "recipient",
					"type": "address"
				},
				{
					"indexed": false,
					"internalType": "uint256",
					"name": "amount",
					"type": "uint256"
				}
			],
			"name": "Withdrawal",
			"type": "event"
		},
		{
			"inputs": [],
			"name": "DEFAULT_ADMIN_ROLE",
			"outputs": [
				{
					"internalType": "bytes32",
					"name": "",
					"type": "bytes32"
				}
			],
			"stateMutability": "view",
			"type": "function"
		},
		{
			"inputs": [
				{
					"internalType": "address",
					"name": "account",
					"type": "address"
				}
			],
			"name": "addLockManager",
			"outputs": [],
			"stateMutability": "nonpayable",
			"type": "function"
		},
		{
			"inputs": [
				{
					"internalType": "address",
					"name": "_approved",
					"type": "address"
				},
				{
					"internalType": "uint256",
					"name": "_tokenId",
					"type": "uint256"
				}
			],
			"name": "approve",
			"outputs": [],
			"stateMutability": "nonpayable",
			"type": "function"
		},
		{
			"inputs": [
				{
					"internalType": "address",
					"name": "_keyOwner",
					"type": "address"
				}
			],
			"name": "balanceOf",
			"outputs": [
				{
					"internalType": "uint256",
					"name": "balance",
					"type": "uint256"
				}
			],
			"stateMutability": "view",
			"type": "function"
		},
		{
			"inputs": [
				{
					"internalType": "uint256",
					"name": "_tokenId",
					"type": "uint256"
				}
			],
			"name": "burn",
			"outputs": [],
			"stateMutability": "nonpayable",
			"type": "function"
		},
		{
			"inputs": [],
			"name": "expirationDuration",
			"outputs": [
				{
					"internalType": "uint256",
					"name": "",
					"type": "uint256"
				}
			],
			"stateMutability": "view",
			"type": "function"
		},
		{
			"inputs": [
				{
					"internalType": "uint256",
					"name": "_tokenId",
					"type": "uint256"
				}
			],
			"name": "getApproved",
			"outputs": [
				{
					"internalType": "address",
					"name": "",
					"type": "address"
				}
			],
			"stateMutability": "view",
			"type": "function"
		},
		{
			"inputs": [
				{
					"internalType": "address",
					"name": "_keyOwner",
					"type": "address"
				}
			],
			"name": "getHasValidKey",
			"outputs": [
				{
					"internalType": "bool",
					"name": "isValid",
					"type": "bool"
				}
			],
			"stateMutability": "view",
			"type": "function"
		},
		{
			"inputs": [
				{
					"internalType": "bytes32",
					"name": "role",
					"type": "bytes32"
				}
			],
			"name": "getRoleAdmin",
			"outputs": [
				{
					"internalType": "bytes32",
					"name": "",
					"type": "bytes32"
				}
			],
			"stateMutability": "view",
			"type": "function"
		},
		{
			"inputs": [
				{
					"internalType": "bytes32",
					"name": "role",
					"type": "bytes32"
				},
				{
					"internalType": "address",
					"name": "account",
					"type": "address"
				}
			],
			"name": "grantRole",
			"outputs": [],
			"stateMutability": "nonpayable",
			"type": "function"
		},
		{
			"inputs": [
				{
					"internalType": "bytes32",
					"name": "role",
					"type": "bytes32"
				},
				{
					"internalType": "address",
					"name": "account",
					"type": "address"
				}
			],
			"name": "hasRole",
			"outputs": [
				{
					"internalType": "bool",
					"name": "",
					"type": "bool"
				}
			],
			"stateMutability": "view",
			"type": "function"
		},
		{
			"inputs": [
				{
					"internalType": "address",
					"name": "_owner",
					"type": "address"
				},
				{
					"internalType": "address",
					"name": "_operator",
					"type": "address"
				}
			],
			"name": "isApprovedForAll",
			"outputs": [
				{
					"internalType": "bool",
					"name": "",
					"type": "bool"
				}
			],
			"stateMutability": "view",
			"type": "function"
		},
		{
			"inputs": [
				{
					"internalType": "address",
					"name": "account",
					"type": "address"
				}
			],
			"name": "isLockManager",
			"outputs": [
				{
					"internalType": "bool",
					"name": "",
					"type": "bool"
				}
			],
			"stateMutability": "view",
			"type": "function"
		},
		{
			"inputs": [
				{
					"internalType": "uint256",
					"name": "_tokenId",
					"type": "uint256"
				}
			],
			"name": "isValidKey",
			"outputs": [
				{
					"internalType": "bool",
					"name": "",
					"type": "bool"
				}
			],
			"stateMutability": "view",
			"type": "function"
		},
		{
			"inputs": [
				{
					"internalType": "uint256",
					"name": "_tokenId",
					"type": "uint256"
				}
			],
			"name": "keyExpirationTimestampFor",
			"outputs": [
				{
					"internalType": "uint256",
					"name": "",
					"type": "uint256"
				}
			],
			"stateMutability": "view",
			"type": "function"
		},
		{
			"inputs": [
				{
					"internalType": "uint256",
					"name": "",
					"type": "uint256"
				}
			],
			"name": "keyManagerOf",
			"outputs": [
				{
					"internalType": "address",
					"name": "",
					"type": "address"
				}
			],
			"stateMutability": "view",
			"type": "function"
		},
		{
			"inputs": [],
			"name": "keyPrice",
			"outputs": [
				{
					"internalType": "uint256",
					"name": "",
					"type": "uint256"
				}
			],
			"stateMutability": "view",
			"type": "function"
		},
		{
			"inputs": [],
			"name": "maxKeysPerAddress",
			"outputs": [
				{
					"internalType": "uint256",
					"name": "",
					"type": "uint256"
				}
			],
			"stateMutability": "view",
			"type": "function"
		},
		{
			"inputs": [],
			"name": "maxNumberOfKeys",
			"outputs": [
				{
					"internalType": "uint256",
					"name": "",
					"type": "uint256"
				}
			],
			"stateMutability": "view",
			"type": "function"
		},
		{
			"inputs": [
				{
					"internalType": "uint256",
					"name": "_tokenIdFrom",
					"type": "uint256"
				},
				{
					"internalType": "uint256",
					"name": "_tokenIdTo",
					"type": "uint256"
				},
				{
					"internalType": "uint256",
					"name": "_amount",
					"type": "uint256"
				}
			],
			"name": "mergeKeys",
			"outputs": [],
			"stateMutability": "nonpayable",
			"type": "function"
		},
		{
			"inputs": [
				{
					"internalType": "bytes",
					"name": "",
					"type": "bytes"
				}
			],
			"name": "migrate",
			"outputs": [],
			"stateMutability": "nonpayable",
			"type": "function"
		},
		{
			"inputs": [],
			"name": "numberOfOwners",
			"outputs": [
				{
					"internalType": "uint256",
					"name": "",
					"type": "uint256"
				}
			],
			"stateMutability": "view",
			"type": "function"
		},
		{
			"inputs": [],
			"name": "onKeyCancelHook",
			"outputs": [
				{
					"internalType": "contract ILockKeyCancelHook",
					"name": "",
					"type": "address"
				}
			],
			"stateMutability": "view",
			"type": "function"
		},
		{
			"inputs": [],
			"name": "onKeyExtendHook",
			"outputs": [
				{
					"internalType": "contract ILockKeyExtendHook",
					"name": "",
					"type": "address"
				}
			],
			"stateMutability": "view",
			"type": "function"
		},
		{
			"inputs": [],
			"name": "onKeyGrantHook",
			"outputs": [
				{
					"internalType": "contract ILockKeyGrantHook",
					"name": "",
					"type": "address"
				}
			],
			"stateMutability": "view",
			"type": "function"
		},
		{
			"inputs": [],
			"name": "onKeyPurchaseHook",
			"outputs": [
				{
					"internalType": "contract ILockKeyPurchaseHook",
					"name": "",
					"type": "address"
				}
			],
			"stateMutability": "view",
			"type": "function"
		},
		{
			"inputs": [],
			"name": "onKeyTransferHook",
			"outputs": [
				{
					"internalType": "contract ILockKeyTransferHook",
					"name": "",
					"type": "address"
				}
			],
			"stateMutability": "view",
			"type": "function"
		},
		{
			"inputs": [],
			"name": "onTokenURIHook",
			"outputs": [
				{
					"internalType": "contract ILockTokenURIHook",
					"name": "",
					"type": "address"
				}
			],
			"stateMutability": "view",
			"type": "function"
		},
		{
			"inputs": [],
			"name": "onValidKeyHook",
			"outputs": [
				{
					"internalType": "contract ILockValidKeyHook",
					"name": "",
					"type": "address"
				}
			],
			"stateMutability": "view",
			"type": "function"
		},
		{
			"inputs": [
				{
					"internalType": "uint256",
					"name": "_tokenId",
					"type": "uint256"
				}
			],
			"name": "ownerOf",
			"outputs": [
				{
					"internalType": "address",
					"name": "",
					"type": "address"
				}
			],
			"stateMutability": "view",
			"type": "function"
		},
		{
			"inputs": [],
			"name": "publicLockVersion",
			"outputs": [
				{
					"internalType": "uint16",
					"name": "",
					"type": "uint16"
				}
			],
			"stateMutability": "pure",
			"type": "function"
		},
		{
			"inputs": [],
			"name": "renounceLockManager",
			"outputs": [],
			"stateMutability": "nonpayable",
			"type": "function"
		},
		{
			"inputs": [
				{
					"internalType": "bytes32",
					"name": "role",
					"type": "bytes32"
				},
				{
					"internalType": "address",
					"name": "account",
					"type": "address"
				}
			],
			"name": "renounceRole",
			"outputs": [],
			"stateMutability": "nonpayable",
			"type": "function"
		},
		{
			"inputs": [
				{
					"internalType": "bytes32",
					"name": "role",
					"type": "bytes32"
				},
				{
					"internalType": "address",
					"name": "account",
					"type": "address"
				}
			],
			"name": "revokeRole",
			"outputs": [],
			"stateMutability": "nonpayable",
			"type": "function"
		},
		{
			"inputs": [],
			"name": "schemaVersion",
			"outputs": [
				{
					"internalType": "uint256",
					"name": "",
					"type": "uint256"
				}
			],
			"stateMutability": "view",
			"type": "function"
		},
		{
			"inputs": [
				{
					"internalType": "address",
					"name": "_onKeyPurchaseHook",
					"type": "address"
				},
				{
					"internalType": "address",
					"name": "_onKeyCancelHook",
					"type": "address"
				},
				{
					"internalType": "address",
					"name": "_onValidKeyHook",
					"type": "address"
				},
				{
					"internalType": "address",
					"name": "_onTokenURIHook",
					"type": "address"
				},
				{
					"internalType": "address",
					"name": "_onKeyTransferHook",
					"type": "address"
				},
				{
					"internalType": "address",
					"name": "_onKeyExtendHook",
					"type": "address"
				},
				{
					"internalType": "address",
					"name": "_onKeyGrantHook",
					"type": "address"
				}
			],
			"name": "setEventHooks",
			"outputs": [],
			"stateMutability": "nonpayable",
			"type": "function"
		},
		{
			"inputs": [
				{
					"internalType": "uint256",
					"name": "_tokenId",
					"type": "uint256"
				},
				{
					"internalType": "address",
					"name": "_keyManager",
					"type": "address"
				}
			],
			"name": "setKeyManagerOf",
			"outputs": [],
			"stateMutability": "nonpayable",
			"type": "function"
		},
		{
			"inputs": [
				{
					"internalType": "bytes4",
					"name": "interfaceId",
					"type": "bytes4"
				}
			],
			"name": "supportsInterface",
			"outputs": [
				{
					"internalType": "bool",
					"name": "",
					"type": "bool"
				}
			],
			"stateMutability": "view",
			"type": "function"
		},
		{
			"inputs": [],
			"name": "tokenAddress",
			"outputs": [
				{
					"internalType": "address",
					"name": "",
					"type": "address"
				}
			],
			"stateMutability": "view",
			"type": "function"
		},
		{
			"inputs": [
				{
					"internalType": "uint256",
					"name": "_index",
					"type": "uint256"
				}
			],
			"name": "tokenByIndex",
			"outputs": [
				{
					"internalType": "uint256",
					"name": "",
					"type": "uint256"
				}
			],
			"stateMutability": "view",
			"type": "function"
		},
		{
			"inputs": [
				{
					"internalType": "address",
					"name": "_keyOwner",
					"type": "address"
				},
				{
					"internalType": "uint256",
					"name": "_index",
					"type": "uint256"
				}
			],
			"name": "tokenOfOwnerByIndex",
			"outputs": [
				{
					"internalType": "uint256",
					"name": "",
					"type": "uint256"
				}
			],
			"stateMutability": "view",
			"type": "function"
		},
		{
			"inputs": [
				{
					"internalType": "address",
					"name": "_keyOwner",
					"type": "address"
				}
			],
			"name": "totalKeys",
			"outputs": [
				{
					"internalType": "uint256",
					"name": "",
					"type": "uint256"
				}
			],
			"stateMutability": "view",
			"type": "function"
		},
		{
			"inputs": [],
			"name": "totalSupply",
			"outputs": [
				{
					"internalType": "uint256",
					"name": "",
					"type": "uint256"
				}
			],
			"stateMutability": "view",
			"type": "function"
		},
		{
			"inputs": [],
			"name": "unlockProtocol",
			"outputs": [
				{
					"internalType": "contract IUnlock",
					"name": "",
					"type": "address"
				}
			],
			"stateMutability": "view",
			"type": "function"
		},
		{
			"inputs": [
				{
					"internalType": "uint256",
					"name": "_keyPrice",
					"type": "uint256"
				},
				{
					"internalType": "address",
					"name": "_tokenAddress",
					"type": "address"
				}
			],
			"name": "updateKeyPricing",
			"outputs": [],
			"stateMutability": "nonpayable",
			"type": "function"
		},
		{
			"inputs": [
				{
					"internalType": "uint256",
					"name": "_newExpirationDuration",
					"type": "uint256"
				},
				{
					"internalType": "uint256",
					"name": "_maxNumberOfKeys",
					"type": "uint256"
				},
				{
					"internalType": "uint256",
					"name": "_maxKeysPerAcccount",
					"type": "uint256"
				}
			],
			"name": "updateLockConfig",
			"outputs": [],
			"stateMutability": "nonpayable",
			"type": "function"
		},
		{
			"inputs": [],
			"name": "updateSchemaVersion",
			"outputs": [],
			"stateMutability": "nonpayable",
			"type": "function"
		},
		{
			"inputs": [
				{
					"internalType": "address",
					"name": "_tokenAddress",
					"type": "address"
				},
				{
					"internalType": "address payable",
					"name": "_recipient",
					"type": "address"
				},
				{
					"internalType": "uint256",
					"name": "_amount",
					"type": "uint256"
				}
			],
			"name": "withdraw",
			"outputs": [],
			"stateMutability": "nonpayable",
			"type": "function"
		}
	]
}