{
	"data": {
		"bytecode": {
			"linkReferences": {},
			"object": "608060405234801561001057600080fd5b5061490c806100206000396000f3fe608060405234801561001057600080fd5b50600436106102955760003560e01c806370a0823111610167578063aae4b8f7116100ce578063d52e4a1011610087578063d52e4a101461083c578063d547741f1461085a578063d9caed1214610876578063e985e9c514610892578063f0ba6040146108c2578063f32e8b24146108cc57610295565b8063aae4b8f71461077a578063b11d7ec1146107aa578063b129694e146107c6578063c907c3ec146107e4578063d1bbd49c14610802578063d25034851461082057610295565b806391d148541161012057806391d14854146106a457806393fd1844146106d45780639d76ea58146106f2578063a217fddf14610710578063a2e4cd2e1461072e578063a98d36231461074a57610295565b806370a08231146105d057806374b6c1061461060057806374cac47d1461061e5780637ec2a7241461063a578063812eecd4146106585780638932a90d1461068857610295565b8063282478df1161020b57806342966c68116101c457806342966c68146104d65780634d025fed146104f25780634e2ce6d31461052257806354b249fb146105405780636352211e146105705780636d8ea5b4146105a057610295565b8063282478df146104165780632d33dd5b146104325780632f2ff15d146104505780632f745c591461046c57806336568abe1461049c578063389f07e8146104b857610295565b806310e569731161025d57806310e569731461035057806311a4c03a1461036e57806318160ddd1461038c578063217751bc146103aa578063248a9ca3146103c857806326e9ca07146103f857610295565b806301ffc9a71461029a578063068208cd146102ca578063081812fc146102e6578063095ea7b3146103165780630f15023b14610332575b600080fd5b6102b460048036038101906102af91906133a7565b6108d6565b6040516102c191906133ef565b60405180910390f35b6102e460048036038101906102df9190613440565b610950565b005b61030060048036038101906102fb9190613493565b6109de565b60405161030d9190613501565b60405180910390f35b610330600480360381019061032b9190613548565b610a2b565b005b61033a610b7f565b60405161034791906135e7565b60405180910390f35b610358610ba6565b6040516103659190613611565b60405180910390f35b610376610bad565b6040516103839190613611565b60405180910390f35b610394610bb4565b6040516103a19190613611565b60405180910390f35b6103b2610bbf565b6040516103bf919061364d565b60405180910390f35b6103e260048036038101906103dd919061369e565b610be6565b6040516103ef91906136da565b60405180910390f35b610400610c06565b60405161040d9190613716565b60405180910390f35b610430600480360381019061042b9190613440565b610c2d565b005b61043a610d07565b6040516104479190613752565b60405180910390f35b61046a6004803603810190610465919061376d565b610d2e565b005b61048660048036038101906104819190613548565b610d4f565b6040516104939190613611565b60405180910390f35b6104b660048036038101906104b1919061376d565b610dec565b005b6104c0610e6f565b6040516104cd91906137ce565b60405180910390f35b6104f060048036038101906104eb9190613493565b610e96565b005b61050c60048036038101906105079190613493565b610f98565b6040516105199190613501565b60405180910390f35b61052a610fcc565b6040516105379190613611565b60405180910390f35b61055a60048036038101906105559190613493565b610fd3565b6040516105679190613611565b60405180910390f35b61058a60048036038101906105859190613493565b610ff4565b6040516105979190613501565b60405180910390f35b6105ba60048036038101906105b591906137e9565b611032565b6040516105c791906133ef565b60405180910390f35b6105ea60048036038101906105e591906137e9565b611160565b6040516105f79190613611565b60405180910390f35b6106086111b9565b6040516106159190613611565b60405180910390f35b61063860048036038101906106339190613816565b6111c0565b005b610642611826565b60405161064f91906138d9565b60405180910390f35b610672600480360381019061066d91906137e9565b61184d565b60405161067f9190613611565b60405180910390f35b6106a2600480360381019061069d9190613959565b6118fc565b005b6106be60048036038101906106b9919061376d565b611a42565b6040516106cb91906133ef565b60405180910390f35b6106dc611aad565b6040516106e99190613611565b60405180910390f35b6106fa611ab4565b6040516107079190613501565b60405180910390f35b610718611adb565b60405161072591906136da565b60405180910390f35b610748600480360381019061074391906139a6565b611ae2565b005b610764600480360381019061075f9190613493565b611bd6565b60405161077191906133ef565b60405180910390f35b610794600480360381019061078f91906137e9565b611d4a565b6040516107a191906133ef565b60405180910390f35b6107c460048036038101906107bf91906139a6565b611d7d565b005b6107ce611de8565b6040516107db9190613a07565b60405180910390f35b6107ec611e0f565b6040516107f99190613a43565b60405180910390f35b61080a611e36565b6040516108179190613a7b565b60405180910390f35b61083a600480360381019061083591906137e9565b611e3f565b005b610844611eb7565b6040516108519190613611565b60405180910390f35b610874600480360381019061086f919061376d565b611ec2565b005b610890600480360381019061088b9190613ad4565b611ee3565b005b6108ac60048036038101906108a79190613b27565b61208d565b6040516108b991906133ef565b60405180910390f35b6108ca612122565b005b6108d4612191565b005b60007f7965db0b000000000000000000000000000000000000000000000000000000007bffffffffffffffffffffffffffffffffffffffffffffffffffffffff1916827bffffffffffffffffffffffffffffffffffffffffffffffffffffffff191614806109495750610948826121ae565b5b9050919050565b61095983612218565b6109628361226c565b61096b836122ae565b61097482612218565b4261097e84610fd3565b6109889190613b96565b8111156109c1576040517f8744776800000000000000000000000000000000000000000000000000000000815260040160405180910390fd5b6109cd83826000612460565b6109d982826001612460565b505050565b60006109e982612218565b6000611047600084815260200190815260200160002060009054906101000a900473ffffffffffffffffffffffffffffffffffffffff16905080915050919050565b610a34816122ae565b8173ffffffffffffffffffffffffffffffffffffffff163373ffffffffffffffffffffffffffffffffffffffff1603610a99576040517ff13228ca00000000000000000000000000000000000000000000000000000000815260040160405180910390fd5b81611047600083815260200190815260200160002060006101000a81548173ffffffffffffffffffffffffffffffffffffffff021916908373ffffffffffffffffffffffffffffffffffffffff160217905550808273ffffffffffffffffffffffffffffffffffffffff16611044600084815260200190815260200160002060009054906101000a900473ffffffffffffffffffffffffffffffffffffffff1673ffffffffffffffffffffffffffffffffffffffff167f8c5be1e5ebec7d5bd14f71427d1e84f3dd0314c0f7b2291e5b200ac8c7c3b92560405160405180910390a45050565b610c5160009054906101000a900473ffffffffffffffffffffffffffffffffffffffff1681565b610c535481565b610c525481565b6000610c5554905090565b610c5860009054906101000a900473ffffffffffffffffffffffffffffffffffffffff1681565b600060656000838152602001908152602001600020600101549050919050565b610c5960009054906101000a900473ffffffffffffffffffffffffffffffffffffffff1681565b610c3561256d565b60008103610c6f576040517fe03b033d00000000000000000000000000000000000000000000000000000000815260040160405180910390fd5b610c5554821015610cac576040517f1d00cd6b00000000000000000000000000000000000000000000000000000000815260040160405180910390fd5b80610c5c8190555082610c528190555081610c54819055507f9a09448a3f24d3a01ccc67103c7cddbeea820176a18182cc83d0bce585f26a5b8383610c5c54604051610cfa93929190613bca565b60405180910390a1505050565b610c5760009054906101000a900473ffffffffffffffffffffffffffffffffffffffff1681565b610d3782610be6565b610d40816125cf565b610d4a83836125e3565b505050565b6000610d5a8361184d565b8210610d92576040517f08e22eae00000000000000000000000000000000000000000000000000000000815260040160405180910390fd5b61104a60008473ffffffffffffffffffffffffffffffffffffffff1673ffffffffffffffffffffffffffffffffffffffff168152602001908152602001600020600083815260200190815260200160002054905092915050565b610df46126c4565b73ffffffffffffffffffffffffffffffffffffffff168173ffffffffffffffffffffffffffffffffffffffff1614610e61576040517f08c379a0000000000000000000000000000000000000000000000000000000008152600401610e5890613c84565b60405180910390fd5b610e6b82826126cc565b5050565b610c5d60009054906101000a900473ffffffffffffffffffffffffffffffffffffffff1681565b610e9f81612218565b610ea8816122ae565b80600073ffffffffffffffffffffffffffffffffffffffff16611044600084815260200190815260200160002060009054906101000a900473ffffffffffffffffffffffffffffffffffffffff1673ffffffffffffffffffffffffffffffffffffffff167fddf252ad1be2c89b69c2b068fc378daa952ba7f163c4a11628f55a4df523b3ef60405160405180910390a4610f41816127ae565b6000611044600083815260200190815260200160002060006101000a81548173ffffffffffffffffffffffffffffffffffffffff021916908373ffffffffffffffffffffffffffffffffffffffff16021790555050565b6110466020528060005260406000206000915054906101000a900473ffffffffffffffffffffffffffffffffffffffff1681565b610c5b5481565b60006110496000838152602001908152602001600020600101549050919050565b6000611044600083815260200190815260200160002060009054906101000a900473ffffffffffffffffffffffffffffffffffffffff169050919050565b60008061103e83611160565b0361114b57600073ffffffffffffffffffffffffffffffffffffffff16610c5960009054906101000a900473ffffffffffffffffffffffffffffffffffffffff1673ffffffffffffffffffffffffffffffffffffffff161461114a57610c5960009054906101000a900473ffffffffffffffffffffffffffffffffffffffff1673ffffffffffffffffffffffffffffffffffffffff1663427ede3830336000808760006040518763ffffffff1660e01b815260040161110296959493929190613cdf565b602060405180830381865afa15801561111f573d6000803e3d6000fd5b505050506040513d601f19601f820116820180604052508101906111439190613d6c565b905061115b565b5b600161115683611160565b101590505b919050565b60008061116c8361184d565b905060005b818110156111b25761118b6111868583610d4f565b611bd6565b1561119f57828061119b90613d99565b9350505b80806111aa90613d99565b915050611171565b5050919050565b610c545481565b6111c861256d565b600073ffffffffffffffffffffffffffffffffffffffff168773ffffffffffffffffffffffffffffffffffffffff1614158015611221575061121f8773ffffffffffffffffffffffffffffffffffffffff166127cd565b155b156112645760006040517f6788e02b00000000000000000000000000000000000000000000000000000000815260040161125b9190613e1f565b60405180910390fd5b600073ffffffffffffffffffffffffffffffffffffffff168673ffffffffffffffffffffffffffffffffffffffff16141580156112bd57506112bb8673ffffffffffffffffffffffffffffffffffffffff166127cd565b155b156113005760016040517f6788e02b0000000000000000000000000000000000000000000000000000000081526004016112f79190613e75565b60405180910390fd5b600073ffffffffffffffffffffffffffffffffffffffff168573ffffffffffffffffffffffffffffffffffffffff161415801561135957506113578573ffffffffffffffffffffffffffffffffffffffff166127cd565b155b1561139c5760026040517f6788e02b0000000000000000000000000000000000000000000000000000000081526004016113939190613ecb565b60405180910390fd5b600073ffffffffffffffffffffffffffffffffffffffff168473ffffffffffffffffffffffffffffffffffffffff16141580156113f557506113f38473ffffffffffffffffffffffffffffffffffffffff166127cd565b155b156114385760036040517f6788e02b00000000000000000000000000000000000000000000000000000000815260040161142f9190613f21565b60405180910390fd5b600073ffffffffffffffffffffffffffffffffffffffff168373ffffffffffffffffffffffffffffffffffffffff1614158015611491575061148f8373ffffffffffffffffffffffffffffffffffffffff166127cd565b155b156114d45760046040517f6788e02b0000000000000000000000000000000000000000000000000000000081526004016114cb9190613f77565b60405180910390fd5b600073ffffffffffffffffffffffffffffffffffffffff168273ffffffffffffffffffffffffffffffffffffffff161415801561152d575061152b8273ffffffffffffffffffffffffffffffffffffffff166127cd565b155b156115705760056040517f6788e02b0000000000000000000000000000000000000000000000000000000081526004016115679190613fcd565b60405180910390fd5b600073ffffffffffffffffffffffffffffffffffffffff168173ffffffffffffffffffffffffffffffffffffffff16141580156115c957506115c78173ffffffffffffffffffffffffffffffffffffffff166127cd565b155b1561160c5760066040517f6788e02b0000000000000000000000000000000000000000000000000000000081526004016116039190614023565b60405180910390fd5b86610c5760006101000a81548173ffffffffffffffffffffffffffffffffffffffff021916908373ffffffffffffffffffffffffffffffffffffffff16021790555085610c5860006101000a81548173ffffffffffffffffffffffffffffffffffffffff021916908373ffffffffffffffffffffffffffffffffffffffff16021790555083610c5a60006101000a81548173ffffffffffffffffffffffffffffffffffffffff021916908373ffffffffffffffffffffffffffffffffffffffff16021790555084610c5960006101000a81548173ffffffffffffffffffffffffffffffffffffffff021916908373ffffffffffffffffffffffffffffffffffffffff16021790555082610c5d60006101000a81548173ffffffffffffffffffffffffffffffffffffffff021916908373ffffffffffffffffffffffffffffffffffffffff16021790555081610c5e60006101000a81548173ffffffffffffffffffffffffffffffffffffffff021916908373ffffffffffffffffffffffffffffffffffffffff16021790555080610c5f60006101000a81548173ffffffffffffffffffffffffffffffffffffffff021916908373ffffffffffffffffffffffffffffffffffffffff1602179055507f0a851288e37fa9a8bc562891998524e95c286fe84f693c1921e0fd0792171af687878787878787604051611815979695949392919061403e565b60405180910390a150505050505050565b610c5a60009054906101000a900473ffffffffffffffffffffffffffffffffffffffff1681565b60008073ffffffffffffffffffffffffffffffffffffffff168273ffffffffffffffffffffffffffffffffffffffff16036118b4576040517f5963709b00000000000000000000000000000000000000000000000000000000815260040160405180910390fd5b61104c60008373ffffffffffffffffffffffffffffffffffffffff1673ffffffffffffffffffffffffffffffffffffffff168152602001908152602001600020549050919050565b6001611906611e36565b61191091906140ad565b61ffff16610c5b54148061192757506000610c5b54145b611966576040517f08c379a000000000000000000000000000000000000000000000000000000000815260040161195d9061412f565b60405180910390fd5b60014603611a2b57600073e79b93f8e22676774f2a8dad469175ebd00029fa90508073ffffffffffffffffffffffffffffffffffffffff1663ed9674bd6040518163ffffffff1660e01b8152600401600060405180830381600087803b1580156119cf57600080fd5b505af11580156119e3573d6000803e3d6000fd5b5050505080610c5160006101000a81548173ffffffffffffffffffffffffffffffffffffffff021916908373ffffffffffffffffffffffffffffffffffffffff160217905550505b611a33611e36565b61ffff16610c5b819055505050565b60006065600084815260200190815260200160002060000160008373ffffffffffffffffffffffffffffffffffffffff1673ffffffffffffffffffffffffffffffffffffffff16815260200190815260200160002060009054906101000a900460ff16905092915050565b6110455481565b61047f60009054906101000a900473ffffffffffffffffffffffffffffffffffffffff1681565b6000801b81565b611aea61256d565b611af3816127f0565b6000610c53549050600061047f60009054906101000a900473ffffffffffffffffffffffffffffffffffffffff16905083610c53819055508261047f60006101000a81548173ffffffffffffffffffffffffffffffffffffffff021916908373ffffffffffffffffffffffffffffffffffffffff1602179055507f3615065ccf48367ac483ac86701248e2e5ff55bdd9be845007d34a3b68d719d482610c53548361047f60009054906101000a900473ffffffffffffffffffffffffffffffffffffffff16604051611bc8949392919061414f565b60405180910390a150505050565b60008042611049600085815260200190815260200160002060010154119050600073ffffffffffffffffffffffffffffffffffffffff16610c5960009054906101000a900473ffffffffffffffffffffffffffffffffffffffff1673ffffffffffffffffffffffffffffffffffffffff1614611d4157610c5960009054906101000a900473ffffffffffffffffffffffffffffffffffffffff1673ffffffffffffffffffffffffffffffffffffffff1663427ede3830338661104960008981526020019081526020016000206001015461104460008a815260200190815260200160002060009054906101000a900473ffffffffffffffffffffffffffffffffffffffff16876040518763ffffffff1660e01b8152600401611cfd96959493929190614194565b602060405180830381865afa158015611d1a573d6000803e3d6000fd5b505050506040513d601f19601f82011682018060405250810190611d3e9190613d6c565b90505b80915050919050565b6000611d767fb89cdd26cddd51301940bf2715f765b626b8a5a9e2681ac62dc83cc2db2530c083611a42565b9050919050565b611d8682612218565b611d9082336128d5565b158015611da35750611da133611d4a565b155b15611dda576040517f866c2fa700000000000000000000000000000000000000000000000000000000815260040160405180910390fd5b611de482826129fd565b5050565b610c5f60009054906101000a900473ffffffffffffffffffffffffffffffffffffffff1681565b610c5e60009054906101000a900473ffffffffffffffffffffffffffffffffffffffff1681565b6000600d905090565b611e4761256d565b611e717fb89cdd26cddd51301940bf2715f765b626b8a5a9e2681ac62dc83cc2db2530c082610d2e565b8073ffffffffffffffffffffffffffffffffffffffff167f91d5c045d5bd98bf59a379b259ebca05b93bf79af1845fdf87e3172385d4c7f760405160405180910390a250565b6000610c5c54905090565b611ecb82610be6565b611ed4816125cf565b611ede83836126cc565b505050565b611eeb61256d565b60008073ffffffffffffffffffffffffffffffffffffffff168473ffffffffffffffffffffffffffffffffffffffff1603611f2857479050611fa5565b8373ffffffffffffffffffffffffffffffffffffffff166370a08231306040518263ffffffff1660e01b8152600401611f619190613501565b602060405180830381865afa158015611f7e573d6000803e3d6000fd5b505050506040513d601f19601f82011682018060405250810190611fa2919061420a565b90505b600080831480611fb457508183115b15611ffb5760008211611ff3576040517f1f04ddc800000000000000000000000000000000000000000000000000000000815260040160405180910390fd5b819050611fff565b8290505b8373ffffffffffffffffffffffffffffffffffffffff168573ffffffffffffffffffffffffffffffffffffffff163373ffffffffffffffffffffffffffffffffffffffff167f342e7ff505a8a0364cd0dc2ff195c315e43bce86b204846ecd36913e117b109e846040516120739190613611565b60405180910390a4612086858583612b09565b5050505050565b600061104860008473ffffffffffffffffffffffffffffffffffffffff1673ffffffffffffffffffffffffffffffffffffffff16815260200190815260200160002060008373ffffffffffffffffffffffffffffffffffffffff1673ffffffffffffffffffffffffffffffffffffffff16815260200190815260200160002060009054906101000a900460ff16905092915050565b61214c7fb89cdd26cddd51301940bf2715f765b626b8a5a9e2681ac62dc83cc2db2530c033610dec565b3373ffffffffffffffffffffffffffffffffffffffff167f42885193b8178d25fca25a38e6fcc93918501e91be06d85e0c8afb3bad95238060405160405180910390a2565b61219961256d565b6121a1611e36565b61ffff16610c5b81905550565b60007f01ffc9a7000000000000000000000000000000000000000000000000000000007bffffffffffffffffffffffffffffffffffffffffffffffffffffffff1916827bffffffffffffffffffffffffffffffffffffffffffffffffffffffff1916149050919050565b600061104960008381526020019081526020016000206000015403612269576040517f78fe247300000000000000000000000000000000000000000000000000000000815260040160405180910390fd5b50565b61227581611bd6565b6122ab576040517f0d9f4fae00000000000000000000000000000000000000000000000000000000815260040160405180910390fd5b50565b60008073ffffffffffffffffffffffffffffffffffffffff16611046600084815260200190815260200160002060009054906101000a900473ffffffffffffffffffffffffffffffffffffffff1673ffffffffffffffffffffffffffffffffffffffff161461235157611046600083815260200190815260200160002060009054906101000a900473ffffffffffffffffffffffffffffffffffffffff16612387565b611044600083815260200190815260200160002060009054906101000a900473ffffffffffffffffffffffffffffffffffffffff165b905061239233611d4a565b1580156123a657506123a482336128d5565b155b801561241257503373ffffffffffffffffffffffffffffffffffffffff16611047600084815260200190815260200160002060009054906101000a900473ffffffffffffffffffffffffffffffffffffffff1673ffffffffffffffffffffffffffffffffffffffff1614155b80156124255750612423813361208d565b155b1561245c576040517fe17c6d4500000000000000000000000000000000000000000000000000000000815260040160405180910390fd5b5050565b61246983612218565b6000611049600085815260200190815260200160002060010154905081156124ec57428111156124bf57828161249f9190614237565b6110496000868152602001908152602001600020600101819055506124e7565b82426124cb9190614237565b6110496000868152602001908152602001600020600101819055505b612514565b82816124f89190613b96565b6110496000868152602001908152602001600020600101819055505b837f3c907806849e9204e0e26bb095dfe4b3071576c4323f766735c548211556d052611049600087815260200190815260200160002060010154858560405161255f9392919061426b565b60405180910390a250505050565b6125977fb89cdd26cddd51301940bf2715f765b626b8a5a9e2681ac62dc83cc2db2530c033611a42565b6125cd576040517f8e1b58c400000000000000000000000000000000000000000000000000000000815260040160405180910390fd5b565b6125e0816125db6126c4565b612bac565b50565b6125ed8282611a42565b6126c05760016065600084815260200190815260200160002060000160008373ffffffffffffffffffffffffffffffffffffffff1673ffffffffffffffffffffffffffffffffffffffff16815260200190815260200160002060006101000a81548160ff0219169083151502179055506126656126c4565b73ffffffffffffffffffffffffffffffffffffffff168173ffffffffffffffffffffffffffffffffffffffff16837f2f8788117e7eff1d82e926ec794901d17c78024a50270940304540a733656f0d60405160405180910390a45b5050565b600033905090565b6126d68282611a42565b156127aa5760006065600084815260200190815260200160002060000160008373ffffffffffffffffffffffffffffffffffffffff1673ffffffffffffffffffffffffffffffffffffffff16815260200190815260200160002060006101000a81548160ff02191690831515021790555061274f6126c4565b73ffffffffffffffffffffffffffffffffffffffff168173ffffffffffffffffffffffffffffffffffffffff16837ff6391f5c32d9c69d2a47ea670b442974b53935d1edc7fd64eb21e047a839171b60405160405180910390a45b5050565b4261104960008381526020019081526020016000206001018190555050565b6000808273ffffffffffffffffffffffffffffffffffffffff163b119050919050565b600073ffffffffffffffffffffffffffffffffffffffff168173ffffffffffffffffffffffffffffffffffffffff161415801561289b575060008173ffffffffffffffffffffffffffffffffffffffff166318160ddd6040518163ffffffff1660e01b8152600401602060405180830381865afa158015612875573d6000803e3d6000fd5b505050506040513d601f19601f82011682018060405250810190612899919061420a565b105b156128d2576040517fd0995cf200000000000000000000000000000000000000000000000000000000815260040160405180910390fd5b50565b60008173ffffffffffffffffffffffffffffffffffffffff16611046600085815260200190815260200160002060009054906101000a900473ffffffffffffffffffffffffffffffffffffffff1673ffffffffffffffffffffffffffffffffffffffff1614806129e457508173ffffffffffffffffffffffffffffffffffffffff1661296084610ff4565b73ffffffffffffffffffffffffffffffffffffffff161480156129e35750600073ffffffffffffffffffffffffffffffffffffffff16611046600085815260200190815260200160002060009054906101000a900473ffffffffffffffffffffffffffffffffffffffff1673ffffffffffffffffffffffffffffffffffffffff16145b5b156129f257600190506129f7565b600090505b92915050565b8073ffffffffffffffffffffffffffffffffffffffff16611046600084815260200190815260200160002060009054906101000a900473ffffffffffffffffffffffffffffffffffffffff1673ffffffffffffffffffffffffffffffffffffffff1614612b055780611046600084815260200190815260200160002060006101000a81548173ffffffffffffffffffffffffffffffffffffffff021916908373ffffffffffffffffffffffffffffffffffffffff160217905550612ac082612c31565b8073ffffffffffffffffffffffffffffffffffffffff16827f9d2895c45a420624de863a2f437b022d879f457bf7a829044055a10c5a6fd5e360405160405180910390a35b5050565b6000811115612ba757600073ffffffffffffffffffffffffffffffffffffffff168373ffffffffffffffffffffffffffffffffffffffff1603612b7457612b6f818373ffffffffffffffffffffffffffffffffffffffff16612cf190919063ffffffff16565b612ba6565b6000839050612ba483838373ffffffffffffffffffffffffffffffffffffffff16612de59092919063ffffffff16565b505b5b505050565b612bb68282611a42565b612c2d57612bc381612e6b565b612bd18360001c6020612e98565b604051602001612be29291906143ab565b6040516020818303038152906040526040517f08c379a0000000000000000000000000000000000000000000000000000000008152600401612c24919061442f565b60405180910390fd5b5050565b600073ffffffffffffffffffffffffffffffffffffffff16611047600083815260200190815260200160002060009054906101000a900473ffffffffffffffffffffffffffffffffffffffff1673ffffffffffffffffffffffffffffffffffffffff1614612cee576000611047600083815260200190815260200160002060006101000a81548173ffffffffffffffffffffffffffffffffffffffff021916908373ffffffffffffffffffffffffffffffffffffffff1602179055505b50565b80471015612d34576040517f08c379a0000000000000000000000000000000000000000000000000000000008152600401612d2b9061449d565b60405180910390fd5b60008273ffffffffffffffffffffffffffffffffffffffff1682604051612d5a906144ee565b60006040518083038185875af1925050503d8060008114612d97576040519150601f19603f3d011682016040523d82523d6000602084013e612d9c565b606091505b5050905080612de0576040517f08c379a0000000000000000000000000000000000000000000000000000000008152600401612dd790614575565b60405180910390fd5b505050565b612e668363a9059cbb60e01b8484604051602401612e04929190614595565b604051602081830303815290604052907bffffffffffffffffffffffffffffffffffffffffffffffffffffffff19166020820180517bffffffffffffffffffffffffffffffffffffffffffffffffffffffff83818316178352505050506130d4565b505050565b6060612e918273ffffffffffffffffffffffffffffffffffffffff16601460ff16612e98565b9050919050565b606060006002836002612eab91906145be565b612eb59190614237565b67ffffffffffffffff811115612ece57612ecd614600565b5b6040519080825280601f01601f191660200182016040528015612f005781602001600182028036833780820191505090505b5090507f300000000000000000000000000000000000000000000000000000000000000081600081518110612f3857612f3761462f565b5b60200101907effffffffffffffffffffffffffffffffffffffffffffffffffffffffffffff1916908160001a9053507f780000000000000000000000000000000000000000000000000000000000000081600181518110612f9c57612f9b61462f565b5b60200101907effffffffffffffffffffffffffffffffffffffffffffffffffffffffffffff1916908160001a90535060006001846002612fdc91906145be565b612fe69190614237565b90505b6001811115613086577f3031323334353637383961626364656600000000000000000000000000000000600f8616601081106130285761302761462f565b5b1a60f81b82828151811061303f5761303e61462f565b5b60200101907effffffffffffffffffffffffffffffffffffffffffffffffffffffffffffff1916908160001a905350600485901c94508061307f9061465e565b9050612fe9565b50600084146130ca576040517f08c379a00000000000000000000000000000000000000000000000000000000081526004016130c1906146d3565b60405180910390fd5b8091505092915050565b6000613136826040518060400160405280602081526020017f5361666545524332303a206c6f772d6c6576656c2063616c6c206661696c65648152508573ffffffffffffffffffffffffffffffffffffffff1661319b9092919063ffffffff16565b905060008151111561319657808060200190518101906131569190613d6c565b613195576040517f08c379a000000000000000000000000000000000000000000000000000000000815260040161318c90614765565b60405180910390fd5b5b505050565b60606131aa84846000856131b3565b90509392505050565b6060824710156131f8576040517f08c379a00000000000000000000000000000000000000000000000000000000081526004016131ef906147f7565b60405180910390fd5b6000808673ffffffffffffffffffffffffffffffffffffffff1685876040516132219190614853565b60006040518083038185875af1925050503d806000811461325e576040519150601f19603f3d011682016040523d82523d6000602084013e613263565b606091505b509150915061327487838387613280565b92505050949350505050565b606083156132e25760008351036132da5761329a856127cd565b6132d9576040517f08c379a00000000000000000000000000000000000000000000000000000000081526004016132d0906148b6565b60405180910390fd5b5b8290506132ed565b6132ec83836132f5565b5b949350505050565b6000825111156133085781518083602001fd5b806040517f08c379a000000000000000000000000000000000000000000000000000000000815260040161333c919061442f565b60405180910390fd5b600080fd5b600080fd5b60007fffffffff0000000000000000000000000000000000000000000000000000000082169050919050565b6133848161334f565b811461338f57600080fd5b50565b6000813590506133a18161337b565b92915050565b6000602082840312156133bd576133bc613345565b5b60006133cb84828501613392565b91505092915050565b60008115159050919050565b6133e9816133d4565b82525050565b600060208201905061340460008301846133e0565b92915050565b6000819050919050565b61341d8161340a565b811461342857600080fd5b50565b60008135905061343a81613414565b92915050565b60008060006060848603121561345957613458613345565b5b60006134678682870161342b565b93505060206134788682870161342b565b92505060406134898682870161342b565b9150509250925092565b6000602082840312156134a9576134a8613345565b5b60006134b78482850161342b565b91505092915050565b600073ffffffffffffffffffffffffffffffffffffffff82169050919050565b60006134eb826134c0565b9050919050565b6134fb816134e0565b82525050565b600060208201905061351660008301846134f2565b92915050565b613525816134e0565b811461353057600080fd5b50565b6000813590506135428161351c565b92915050565b6000806040838503121561355f5761355e613345565b5b600061356d85828601613533565b925050602061357e8582860161342b565b9150509250929050565b6000819050919050565b60006135ad6135a86135a3846134c0565b613588565b6134c0565b9050919050565b60006135bf82613592565b9050919050565b60006135d1826135b4565b9050919050565b6135e1816135c6565b82525050565b60006020820190506135fc60008301846135d8565b92915050565b61360b8161340a565b82525050565b60006020820190506136266000830184613602565b92915050565b6000613637826135b4565b9050919050565b6136478161362c565b82525050565b6000602082019050613662600083018461363e565b92915050565b6000819050919050565b61367b81613668565b811461368657600080fd5b50565b60008135905061369881613672565b92915050565b6000602082840312156136b4576136b3613345565b5b60006136c284828501613689565b91505092915050565b6136d481613668565b82525050565b60006020820190506136ef60008301846136cb565b92915050565b6000613700826135b4565b9050919050565b613710816136f5565b82525050565b600060208201905061372b6000830184613707565b92915050565b600061373c826135b4565b9050919050565b61374c81613731565b82525050565b60006020820190506137676000830184613743565b92915050565b6000806040838503121561378457613783613345565b5b600061379285828601613689565b92505060206137a385828601613533565b9150509250929050565b60006137b8826135b4565b9050919050565b6137c8816137ad565b82525050565b60006020820190506137e360008301846137bf565b92915050565b6000602082840312156137ff576137fe613345565b5b600061380d84828501613533565b91505092915050565b600080600080600080600060e0888a03121561383557613834613345565b5b60006138438a828b01613533565b97505060206138548a828b01613533565b96505060406138658a828b01613533565b95505060606138768a828b01613533565b94505060806138878a828b01613533565b93505060a06138988a828b01613533565b92505060c06138a98a828b01613533565b91505092959891949750929550565b60006138c3826135b4565b9050919050565b6138d3816138b8565b82525050565b60006020820190506138ee60008301846138ca565b92915050565b600080fd5b600080fd5b600080fd5b60008083601f840112613919576139186138f4565b5b8235905067ffffffffffffffff811115613936576139356138f9565b5b602083019150836001820283011115613952576139516138fe565b5b9250929050565b600080602083850312156139705761396f613345565b5b600083013567ffffffffffffffff81111561398e5761398d61334a565b5b61399a85828601613903565b92509250509250929050565b600080604083850312156139bd576139bc613345565b5b60006139cb8582860161342b565b92505060206139dc85828601613533565b9150509250929050565b60006139f1826135b4565b9050919050565b613a01816139e6565b82525050565b6000602082019050613a1c60008301846139f8565b92915050565b6000613a2d826135b4565b9050919050565b613a3d81613a22565b82525050565b6000602082019050613a586000830184613a34565b92915050565b600061ffff82169050919050565b613a7581613a5e565b82525050565b6000602082019050613a906000830184613a6c565b92915050565b6000613aa1826134c0565b9050919050565b613ab181613a96565b8114613abc57600080fd5b50565b600081359050613ace81613aa8565b92915050565b600080600060608486031215613aed57613aec613345565b5b6000613afb86828701613533565b9350506020613b0c86828701613abf565b9250506040613b1d8682870161342b565b9150509250925092565b60008060408385031215613b3e57613b3d613345565b5b6000613b4c85828601613533565b9250506020613b5d85828601613533565b9150509250929050565b7f4e487b7100000000000000000000000000000000000000000000000000000000600052601160045260246000fd5b6000613ba18261340a565b9150613bac8361340a565b9250828203905081811115613bc457613bc3613b67565b5b92915050565b6000606082019050613bdf6000830186613602565b613bec6020830185613602565b613bf96040830184613602565b949350505050565b600082825260208201905092915050565b7f416363657373436f6e74726f6c3a2063616e206f6e6c792072656e6f756e636560008201527f20726f6c657320666f722073656c660000000000000000000000000000000000602082015250565b6000613c6e602f83613c01565b9150613c7982613c12565b604082019050919050565b60006020820190508181036000830152613c9d81613c61565b9050919050565b6000819050919050565b6000613cc9613cc4613cbf84613ca4565b613588565b61340a565b9050919050565b613cd981613cae565b82525050565b600060c082019050613cf460008301896134f2565b613d0160208301886134f2565b613d0e6040830187613cd0565b613d1b6060830186613cd0565b613d2860808301856134f2565b613d3560a08301846133e0565b979650505050505050565b613d49816133d4565b8114613d5457600080fd5b50565b600081519050613d6681613d40565b92915050565b600060208284031215613d8257613d81613345565b5b6000613d9084828501613d57565b91505092915050565b6000613da48261340a565b91507fffffffffffffffffffffffffffffffffffffffffffffffffffffffffffffffff8203613dd657613dd5613b67565b5b600182019050919050565b600060ff82169050919050565b6000613e09613e04613dff84613ca4565b613588565b613de1565b9050919050565b613e1981613dee565b82525050565b6000602082019050613e346000830184613e10565b92915050565b6000819050919050565b6000613e5f613e5a613e5584613e3a565b613588565b613de1565b9050919050565b613e6f81613e44565b82525050565b6000602082019050613e8a6000830184613e66565b92915050565b6000819050919050565b6000613eb5613eb0613eab84613e90565b613588565b613de1565b9050919050565b613ec581613e9a565b82525050565b6000602082019050613ee06000830184613ebc565b92915050565b6000819050919050565b6000613f0b613f06613f0184613ee6565b613588565b613de1565b9050919050565b613f1b81613ef0565b82525050565b6000602082019050613f366000830184613f12565b92915050565b6000819050919050565b6000613f61613f5c613f5784613f3c565b613588565b613de1565b9050919050565b613f7181613f46565b82525050565b6000602082019050613f8c6000830184613f68565b92915050565b6000819050919050565b6000613fb7613fb2613fad84613f92565b613588565b613de1565b9050919050565b613fc781613f9c565b82525050565b6000602082019050613fe26000830184613fbe565b92915050565b6000819050919050565b600061400d61400861400384613fe8565b613588565b613de1565b9050919050565b61401d81613ff2565b82525050565b60006020820190506140386000830184614014565b92915050565b600060e082019050614053600083018a6134f2565b61406060208301896134f2565b61406d60408301886134f2565b61407a60608301876134f2565b61408760808301866134f2565b61409460a08301856134f2565b6140a160c08301846134f2565b98975050505050505050565b60006140b882613a5e565b91506140c383613a5e565b9250828203905061ffff8111156140dd576140dc613b67565b5b92915050565b7f534348454d415f56455253494f4e5f4e4f545f434f5252454354000000000000600082015250565b6000614119601a83613c01565b9150614124826140e3565b602082019050919050565b600060208201905081810360008301526141488161410c565b9050919050565b60006080820190506141646000830187613602565b6141716020830186613602565b61417e60408301856134f2565b61418b60608301846134f2565b95945050505050565b600060c0820190506141a960008301896134f2565b6141b660208301886134f2565b6141c36040830187613602565b6141d06060830186613602565b6141dd60808301856134f2565b6141ea60a08301846133e0565b979650505050505050565b60008151905061420481613414565b92915050565b6000602082840312156142205761421f613345565b5b600061422e848285016141f5565b91505092915050565b60006142428261340a565b915061424d8361340a565b925082820190508082111561426557614264613b67565b5b92915050565b60006060820190506142806000830186613602565b61428d6020830185613602565b61429a60408301846133e0565b949350505050565b600081905092915050565b7f416363657373436f6e74726f6c3a206163636f756e7420000000000000000000600082015250565b60006142e36017836142a2565b91506142ee826142ad565b601782019050919050565b600081519050919050565b60005b83811015614322578082015181840152602081019050614307565b60008484015250505050565b6000614339826142f9565b61434381856142a2565b9350614353818560208601614304565b80840191505092915050565b7f206973206d697373696e6720726f6c6520000000000000000000000000000000600082015250565b60006143956011836142a2565b91506143a08261435f565b601182019050919050565b60006143b6826142d6565b91506143c2828561432e565b91506143cd82614388565b91506143d9828461432e565b91508190509392505050565b6000601f19601f8301169050919050565b6000614401826142f9565b61440b8185613c01565b935061441b818560208601614304565b614424816143e5565b840191505092915050565b6000602082019050818103600083015261444981846143f6565b905092915050565b7f416464726573733a20696e73756666696369656e742062616c616e6365000000600082015250565b6000614487601d83613c01565b915061449282614451565b602082019050919050565b600060208201905081810360008301526144b68161447a565b9050919050565b600081905092915050565b50565b60006144d86000836144bd565b91506144e3826144c8565b600082019050919050565b60006144f9826144cb565b9150819050919050565b7f416464726573733a20756e61626c6520746f2073656e642076616c75652c207260008201527f6563697069656e74206d61792068617665207265766572746564000000000000602082015250565b600061455f603a83613c01565b915061456a82614503565b604082019050919050565b6000602082019050818103600083015261458e81614552565b9050919050565b60006040820190506145aa60008301856134f2565b6145b76020830184613602565b9392505050565b60006145c98261340a565b91506145d48361340a565b92508282026145e28161340a565b915082820484148315176145f9576145f8613b67565b5b5092915050565b7f4e487b7100000000000000000000000000000000000000000000000000000000600052604160045260246000fd5b7f4e487b7100000000000000000000000000000000000000000000000000000000600052603260045260246000fd5b60006146698261340a565b91506000820361467c5761467b613b67565b5b600182039050919050565b7f537472696e67733a20686578206c656e67746820696e73756666696369656e74600082015250565b60006146bd602083613c01565b91506146c882614687565b602082019050919050565b600060208201905081810360008301526146ec816146b0565b9050919050565b7f5361666545524332303a204552433230206f7065726174696f6e20646964206e60008201527f6f74207375636365656400000000000000000000000000000000000000000000602082015250565b600061474f602a83613c01565b915061475a826146f3565b604082019050919050565b6000602082019050818103600083015261477e81614742565b9050919050565b7f416464726573733a20696e73756666696369656e742062616c616e636520666f60008201527f722063616c6c0000000000000000000000000000000000000000000000000000602082015250565b60006147e1602683613c01565b91506147ec82614785565b604082019050919050565b60006020820190508181036000830152614810816147d4565b9050919050565b600081519050919050565b600061482d82614817565b61483781856144bd565b9350614847818560208601614304565b80840191505092915050565b600061485f8284614822565b915081905092915050565b7f416464726573733a2063616c6c20746f206e6f6e2d636f6e7472616374000000600082015250565b60006148a0601d83613c01565b91506148ab8261486a565b602082019050919050565b600060208201905081810360008301526148cf81614893565b905091905056fea26469706673582212200e038df159ca4df3f9ee30ec4f1681788c9dbafa1158cb6763efd33af3edc31464736f6c63430008120033",
			"opcodes": "PUSH1 0x80 PUSH1 0x40 MSTORE CALLVALUE DUP1 ISZERO PUSH2 0x10 JUMPI PUSH1 0x0 DUP1 REVERT JUMPDEST POP PUSH2 0x490C DUP1 PUSH2 0x20 PUSH1 0x0 CODECOPY PUSH1 0x0 RETURN INVALID PUSH1 0x80 PUSH1 0x40 MSTORE CALLVALUE DUP1 ISZERO PUSH2 0x10 JUMPI PUSH1 0x0 DUP1 REVERT JUMPDEST POP PUSH1 0x4 CALLDATASIZE LT PUSH2 0x295 JUMPI PUSH1 0x0 CALLDATALOAD PUSH1 0xE0 SHR DUP1 PUSH4 0x70A08231 GT PUSH2 0x167 JUMPI DUP1 PUSH4 0xAAE4B8F7 GT PUSH2 0xCE JUMPI DUP1 PUSH4 0xD52E4A10 GT PUSH2 0x87 JUMPI DUP1 PUSH4 0xD52E4A10 EQ PUSH2 0x83C JUMPI DUP1 PUSH4 0xD547741F EQ PUSH2 0x85A JUMPI DUP1 PUSH4 0xD9CAED12 EQ PUSH2 0x876 JUMPI DUP1 PUSH4 0xE985E9C5 EQ PUSH2 0x892 JUMPI DUP1 PUSH4 0xF0BA6040 EQ PUSH2 0x8C2 JUMPI DUP1 PUSH4 0xF32E8B24 EQ PUSH2 0x8CC JUMPI PUSH2 0x295 JUMP JUMPDEST DUP1 PUSH4 0xAAE4B8F7 EQ PUSH2 0x77A JUMPI DUP1 PUSH4 0xB11D7EC1 EQ PUSH2 0x7AA JUMPI DUP1 PUSH4 0xB129694E EQ PUSH2 0x7C6 JUMPI DUP1 PUSH4 0xC907C3EC EQ PUSH2 0x7E4 JUMPI DUP1 PUSH4 0xD1BBD49C EQ PUSH2 0x802 JUMPI DUP1 PUSH4 0xD2503485 EQ PUSH2 0x820 JUMPI PUSH2 0x295 JUMP JUMPDEST DUP1 PUSH4 0x91D14854 GT PUSH2 0x120 JUMPI DUP1 PUSH4 0x91D14854 EQ PUSH2 0x6A4 JUMPI DUP1 PUSH4 0x93FD1844 EQ PUSH2 0x6D4 JUMPI DUP1 PUSH4 0x9D76EA58 EQ PUSH2 0x6F2 JUMPI DUP1 PUSH4 0xA217FDDF EQ PUSH2 0x710 JUMPI DUP1 PUSH4 0xA2E4CD2E EQ PUSH2 0x72E JUMPI DUP1 PUSH4 0xA98D3623 EQ PUSH2 0x74A JUMPI PUSH2 0x295 JUMP JUMPDEST DUP1 PUSH4 0x70A08231 EQ PUSH2 0x5D0 JUMPI DUP1 PUSH4 0x74B6C106 EQ PUSH2 0x600 JUMPI DUP1 PUSH4 0x74CAC47D EQ PUSH2 0x61E JUMPI DUP1 PUSH4 0x7EC2A724 EQ PUSH2 0x63A JUMPI DUP1 PUSH4 0x812EECD4 EQ PUSH2 0x658 JUMPI DUP1 PUSH4 0x8932A90D EQ PUSH2 0x688 JUMPI PUSH2 0x295 JUMP JUMPDEST DUP1 PUSH4 0x282478DF GT PUSH2 0x20B JUMPI DUP1 PUSH4 0x42966C68 GT PUSH2 0x1C4 JUMPI DUP1 PUSH4 0x42966C68 EQ PUSH2 0x4D6 JUMPI DUP1 PUSH4 0x4D025FED EQ PUSH2 0x4F2 JUMPI DUP1 PUSH4 0x4E2CE6D3 EQ PUSH2 0x522 JUMPI DUP1 PUSH4 0x54B249FB EQ PUSH2 0x540 JUMPI DUP1 PUSH4 0x6352211E EQ PUSH2 0x570 JUMPI DUP1 PUSH4 0x6D8EA5B4 EQ PUSH2 0x5A0 JUMPI PUSH2 0x295 JUMP JUMPDEST DUP1 PUSH4 0x282478DF EQ PUSH2 0x416 JUMPI DUP1 PUSH4 0x2D33DD5B EQ PUSH2 0x432 JUMPI DUP1 PUSH4 0x2F2FF15D EQ PUSH2 0x450 JUMPI DUP1 PUSH4 0x2F745C59 EQ PUSH2 0x46C JUMPI DUP1 PUSH4 0x36568ABE EQ PUSH2 0x49C JUMPI DUP1 PUSH4 0x389F07E8 EQ PUSH2 0x4B8 JUMPI PUSH2 0x295 JUMP JUMPDEST DUP1 PUSH4 0x10E56973 GT PUSH2 0x25D JUMPI DUP1 PUSH4 0x10E56973 EQ PUSH2 0x350 JUMPI DUP1 PUSH4 0x11A4C03A EQ PUSH2 0x36E JUMPI DUP1 PUSH4 0x18160DDD EQ PUSH2 0x38C JUMPI DUP1 PUSH4 0x217751BC EQ PUSH2 0x3AA JUMPI DUP1 PUSH4 0x248A9CA3 EQ PUSH2 0x3C8 JUMPI DUP1 PUSH4 0x26E9CA07 EQ PUSH2 0x3F8 JUMPI PUSH2 0x295 JUMP JUMPDEST DUP1 PUSH4 0x1FFC9A7 EQ PUSH2 0x29A JUMPI DUP1 PUSH4 0x68208CD EQ PUSH2 0x2CA JUMPI DUP1 PUSH4 0x81812FC EQ PUSH2 0x2E6 JUMPI DUP1 PUSH4 0x95EA7B3 EQ PUSH2 0x316 JUMPI DUP1 PUSH4 0xF15023B EQ PUSH2 0x332 JUMPI JUMPDEST PUSH1 0x0 DUP1 REVERT JUMPDEST PUSH2 0x2B4 PUSH1 0x4 DUP1 CALLDATASIZE SUB DUP2 ADD SWAP1 PUSH2 0x2AF SWAP2 SWAP1 PUSH2 0x33A7 JUMP JUMPDEST PUSH2 0x8D6 JUMP JUMPDEST PUSH1 0x40 MLOAD PUSH2 0x2C1 SWAP2 SWAP1 PUSH2 0x33EF JUMP JUMPDEST PUSH1 0x40 MLOAD DUP1 SWAP2 SUB SWAP1 RETURN JUMPDEST PUSH2 0x2E4 PUSH1 0x4 DUP1 CALLDATASIZE SUB DUP2 ADD SWAP1 PUSH2 0x2DF SWAP2 SWAP1 PUSH2 0x3440 JUMP JUMPDEST PUSH2 0x950 JUMP JUMPDEST STOP JUMPDEST PUSH2 0x300 PUSH1 0x4 DUP1 CALLDATASIZE SUB DUP2 ADD SWAP1 PUSH2 0x2FB SWAP2 SWAP1 PUSH2 0x3493 JUMP JUMPDEST PUSH2 0x9DE JUMP JUMPDEST PUSH1 0x40 MLOAD PUSH2 0x30D SWAP2 SWAP1 PUSH2 0x3501 JUMP JUMPDEST PUSH1 0x40 MLOAD DUP1 SWAP2 SUB SWAP1 RETURN JUMPDEST PUSH2 0x330 PUSH1 0x4 DUP1 CALLDATASIZE SUB DUP2 ADD SWAP1 PUSH2 0x32B SWAP2 SWAP1 PUSH2 0x3548 JUMP JUMPDEST PUSH2 0xA2B JUMP JUMPDEST STOP JUMPDEST PUSH2 0x33A PUSH2 0xB7F JUMP JUMPDEST PUSH1 0x40 MLOAD PUSH2 0x347 SWAP2 SWAP1 PUSH2 0x35E7 JUMP JUMPDEST PUSH1 0x40 MLOAD DUP1 SWAP2 SUB SWAP1 RETURN JUMPDEST PUSH2 0x358 PUSH2 0xBA6 JUMP JUMPDEST PUSH1 0x40 MLOAD PUSH2 0x365 SWAP2 SWAP1 PUSH2 0x3611 JUMP JUMPDEST PUSH1 0x40 MLOAD DUP1 SWAP2 SUB SWAP1 RETURN JUMPDEST PUSH2 0x376 PUSH2 0xBAD JUMP JUMPDEST PUSH1 0x40 MLOAD PUSH2 0x383 SWAP2 SWAP1 PUSH2 0x3611 JUMP JUMPDEST PUSH1 0x40 MLOAD DUP1 SWAP2 SUB SWAP1 RETURN JUMPDEST PUSH2 0x394 PUSH2 0xBB4 JUMP JUMPDEST PUSH1 0x40 MLOAD PUSH2 0x3A1 SWAP2 SWAP1 PUSH2 0x3611 JUMP JUMPDEST PUSH1 0x40 MLOAD DUP1 SWAP2 SUB SWAP1 RETURN JUMPDEST PUSH2 0x3B2 PUSH2 0xBBF JUMP JUMPDEST PUSH1 0x40 MLOAD PUSH2 0x3BF SWAP2 SWAP1 PUSH2 0x364D JUMP JUMPDEST PUSH1 0x40 MLOAD DUP1 SWAP2 SUB SWAP1 RETURN JUMPDEST PUSH2 0x3E2 PUSH1 0x4 DUP1 CALLDATASIZE SUB DUP2 ADD SWAP1 PUSH2 0x3DD SWAP2 SWAP1 PUSH2 0x369E JUMP JUMPDEST PUSH2 0xBE6 JUMP JUMPDEST PUSH1 0x40 MLOAD PUSH2 0x3EF SWAP2 SWAP1 PUSH2 0x36DA JUMP JUMPDEST PUSH1 0x40 MLOAD DUP1 SWAP2 SUB SWAP1 RETURN JUMPDEST PUSH2 0x400 PUSH2 0xC06 JUMP JUMPDEST PUSH1 0x40 MLOAD PUSH2 0x40D SWAP2 SWAP1 PUSH2 0x3716 JUMP JUMPDEST PUSH1 0x40 MLOAD DUP1 SWAP2 SUB SWAP1 RETURN JUMPDEST PUSH2 0x430 PUSH1 0x4 DUP1 CALLDATASIZE SUB DUP2 ADD SWAP1 PUSH2 0x42B SWAP2 SWAP1 PUSH2 0x3440 JUMP JUMPDEST PUSH2 0xC2D JUMP JUMPDEST STOP JUMPDEST PUSH2 0x43A PUSH2 0xD07 JUMP JUMPDEST PUSH1 0x40 MLOAD PUSH2 0x447 SWAP2 SWAP1 PUSH2 0x3752 JUMP JUMPDEST PUSH1 0x40 MLOAD DUP1 SWAP2 SUB SWAP1 RETURN JUMPDEST PUSH2 0x46A PUSH1 0x4 DUP1 CALLDATASIZE SUB DUP2 ADD SWAP1 PUSH2 0x465 SWAP2 SWAP1 PUSH2 0x376D JUMP JUMPDEST PUSH2 0xD2E JUMP JUMPDEST STOP JUMPDEST PUSH2 0x486 PUSH1 0x4 DUP1 CALLDATASIZE SUB DUP2 ADD SWAP1 PUSH2 0x481 SWAP2 SWAP1 PUSH2 0x3548 JUMP JUMPDEST PUSH2 0xD4F JUMP JUMPDEST PUSH1 0x40 MLOAD PUSH2 0x493 SWAP2 SWAP1 PUSH2 0x3611 JUMP JUMPDEST PUSH1 0x40 MLOAD DUP1 SWAP2 SUB SWAP1 RETURN JUMPDEST PUSH2 0x4B6 PUSH1 0x4 DUP1 CALLDATASIZE SUB DUP2 ADD SWAP1 PUSH2 0x4B1 SWAP2 SWAP1 PUSH2 0x376D JUMP JUMPDEST PUSH2 0xDEC JUMP JUMPDEST STOP JUMPDEST PUSH2 0x4C0 PUSH2 0xE6F JUMP JUMPDEST PUSH1 0x40 MLOAD PUSH2 0x4CD SWAP2 SWAP1 PUSH2 0x37CE JUMP JUMPDEST PUSH1 0x40 MLOAD DUP1 SWAP2 SUB SWAP1 RETURN JUMPDEST PUSH2 0x4F0 PUSH1 0x4 DUP1 CALLDATASIZE SUB DUP2 ADD SWAP1 PUSH2 0x4EB SWAP2 SWAP1 PUSH2 0x3493 JUMP JUMPDEST PUSH2 0xE96 JUMP JUMPDEST STOP JUMPDEST PUSH2 0x50C PUSH1 0x4 DUP1 CALLDATASIZE SUB DUP2 ADD SWAP1 PUSH2 0x507 SWAP2 SWAP1 PUSH2 0x3493 JUMP JUMPDEST PUSH2 0xF98 JUMP JUMPDEST PUSH1 0x40 MLOAD PUSH2 0x519 SWAP2 SWAP1 PUSH2 0x3501 JUMP JUMPDEST PUSH1 0x40 MLOAD DUP1 SWAP2 SUB SWAP1 RETURN JUMPDEST PUSH2 0x52A PUSH2 0xFCC JUMP JUMPDEST PUSH1 0x40 MLOAD PUSH2 0x537 SWAP2 SWAP1 PUSH2 0x3611 JUMP JUMPDEST PUSH1 0x40 MLOAD DUP1 SWAP2 SUB SWAP1 RETURN JUMPDEST PUSH2 0x55A PUSH1 0x4 DUP1 CALLDATASIZE SUB DUP2 ADD SWAP1 PUSH2 0x555 SWAP2 SWAP1 PUSH2 0x3493 JUMP JUMPDEST PUSH2 0xFD3 JUMP JUMPDEST PUSH1 0x40 MLOAD PUSH2 0x567 SWAP2 SWAP1 PUSH2 0x3611 JUMP JUMPDEST PUSH1 0x40 MLOAD DUP1 SWAP2 SUB SWAP1 RETURN JUMPDEST PUSH2 0x58A PUSH1 0x4 DUP1 CALLDATASIZE SUB DUP2 ADD SWAP1 PUSH2 0x585 SWAP2 SWAP1 PUSH2 0x3493 JUMP JUMPDEST PUSH2 0xFF4 JUMP JUMPDEST PUSH1 0x40 MLOAD PUSH2 0x597 SWAP2 SWAP1 PUSH2 0x3501 JUMP JUMPDEST PUSH1 0x40 MLOAD DUP1 SWAP2 SUB SWAP1 RETURN JUMPDEST PUSH2 0x5BA PUSH1 0x4 DUP1 CALLDATASIZE SUB DUP2 ADD SWAP1 PUSH2 0x5B5 SWAP2 SWAP1 PUSH2 0x37E9 JUMP JUMPDEST PUSH2 0x1032 JUMP JUMPDEST PUSH1 0x40 MLOAD PUSH2 0x5C7 SWAP2 SWAP1 PUSH2 0x33EF JUMP JUMPDEST PUSH1 0x40 MLOAD DUP1 SWAP2 SUB SWAP1 RETURN JUMPDEST PUSH2 0x5EA PUSH1 0x4 DUP1 CALLDATASIZE SUB DUP2 ADD SWAP1 PUSH2 0x5E5 SWAP2 SWAP1 PUSH2 0x37E9 JUMP JUMPDEST PUSH2 0x1160 JUMP JUMPDEST PUSH1 0x40 MLOAD PUSH2 0x5F7 SWAP2 SWAP1 PUSH2 0x3611 JUMP JUMPDEST PUSH1 0x40 MLOAD DUP1 SWAP2 SUB SWAP1 RETURN JUMPDEST PUSH2 0x608 PUSH2 0x11B9 JUMP JUMPDEST PUSH1 0x40 MLOAD PUSH2 0x615 SWAP2 SWAP1 PUSH2 0x3611 JUMP JUMPDEST PUSH1 0x40 MLOAD DUP1 SWAP2 SUB SWAP1 RETURN JUMPDEST PUSH2 0x638 PUSH1 0x4 DUP1 CALLDATASIZE SUB DUP2 ADD SWAP1 PUSH2 0x633 SWAP2 SWAP1 PUSH2 0x3816 JUMP JUMPDEST PUSH2 0x11C0 JUMP JUMPDEST STOP JUMPDEST PUSH2 0x642 PUSH2 0x1826 JUMP JUMPDEST PUSH1 0x40 MLOAD PUSH2 0x64F SWAP2 SWAP1 PUSH2 0x38D9 JUMP JUMPDEST PUSH1 0x40 MLOAD DUP1 SWAP2 SUB SWAP1 RETURN JUMPDEST PUSH2 0x672 PUSH1 0x4 DUP1 CALLDATASIZE SUB DUP2 ADD SWAP1 PUSH2 0x66D SWAP2 SWAP1 PUSH2 0x37E9 JUMP JUMPDEST PUSH2 0x184D JUMP JUMPDEST PUSH1 0x40 MLOAD PUSH2 0x67F SWAP2 SWAP1 PUSH2 0x3611 JUMP JUMPDEST PUSH1 0x40 MLOAD DUP1 SWAP2 SUB SWAP1 RETURN JUMPDEST PUSH2 0x6A2 PUSH1 0x4 DUP1 CALLDATASIZE SUB DUP2 ADD SWAP1 PUSH2 0x69D SWAP2 SWAP1 PUSH2 0x3959 JUMP JUMPDEST PUSH2 0x18FC JUMP JUMPDEST STOP JUMPDEST PUSH2 0x6BE PUSH1 0x4 DUP1 CALLDATASIZE SUB DUP2 ADD SWAP1 PUSH2 0x6B9 SWAP2 SWAP1 PUSH2 0x376D JUMP JUMPDEST PUSH2 0x1A42 JUMP JUMPDEST PUSH1 0x40 MLOAD PUSH2 0x6CB SWAP2 SWAP1 PUSH2 0x33EF JUMP JUMPDEST PUSH1 0x40 MLOAD DUP1 SWAP2 SUB SWAP1 RETURN JUMPDEST PUSH2 0x6DC PUSH2 0x1AAD JUMP JUMPDEST PUSH1 0x40 MLOAD PUSH2 0x6E9 SWAP2 SWAP1 PUSH2 0x3611 JUMP JUMPDEST PUSH1 0x40 MLOAD DUP1 SWAP2 SUB SWAP1 RETURN JUMPDEST PUSH2 0x6FA PUSH2 0x1AB4 JUMP JUMPDEST PUSH1 0x40 MLOAD PUSH2 0x707 SWAP2 SWAP1 PUSH2 0x3501 JUMP JUMPDEST PUSH1 0x40 MLOAD DUP1 SWAP2 SUB SWAP1 RETURN JUMPDEST PUSH2 0x718 PUSH2 0x1ADB JUMP JUMPDEST PUSH1 0x40 MLOAD PUSH2 0x725 SWAP2 SWAP1 PUSH2 0x36DA JUMP JUMPDEST PUSH1 0x40 MLOAD DUP1 SWAP2 SUB SWAP1 RETURN JUMPDEST PUSH2 0x748 PUSH1 0x4 DUP1 CALLDATASIZE SUB DUP2 ADD SWAP1 PUSH2 0x743 SWAP2 SWAP1 PUSH2 0x39A6 JUMP JUMPDEST PUSH2 0x1AE2 JUMP JUMPDEST STOP JUMPDEST PUSH2 0x764 PUSH1 0x4 DUP1 CALLDATASIZE SUB DUP2 ADD SWAP1 PUSH2 0x75F SWAP2 SWAP1 PUSH2 0x3493 JUMP JUMPDEST PUSH2 0x1BD6 JUMP JUMPDEST PUSH1 0x40 MLOAD PUSH2 0x771 SWAP2 SWAP1 PUSH2 0x33EF JUMP JUMPDEST PUSH1 0x40 MLOAD DUP1 SWAP2 SUB SWAP1 RETURN JUMPDEST PUSH2 0x794 PUSH1 0x4 DUP1 CALLDATASIZE SUB DUP2 ADD SWAP1 PUSH2 0x78F SWAP2 SWAP1 PUSH2 0x37E9 JUMP JUMPDEST PUSH2 0x1D4A JUMP JUMPDEST PUSH1 0x40 MLOAD PUSH2 0x7A1 SWAP2 SWAP1 PUSH2 0x33EF JUMP JUMPDEST PUSH1 0x40 MLOAD DUP1 SWAP2 SUB SWAP1 RETURN JUMPDEST PUSH2 0x7C4 PUSH1 0x4 DUP1 CALLDATASIZE SUB DUP2 ADD SWAP1 PUSH2 0x7BF SWAP2 SWAP1 PUSH2 0x39A6 JUMP JUMPDEST PUSH2 0x1D7D JUMP JUMPDEST STOP JUMPDEST PUSH2 0x7CE PUSH2 0x1DE8 JUMP JUMPDEST PUSH1 0x40 MLOAD PUSH2 0x7DB SWAP2 SWAP1 PUSH2 0x3A07 JUMP JUMPDEST PUSH1 0x40 MLOAD DUP1 SWAP2 SUB SWAP1 RETURN JUMPDEST PUSH2 0x7EC PUSH2 0x1E0F JUMP JUMPDEST PUSH1 0x40 MLOAD PUSH2 0x7F9 SWAP2 SWAP1 PUSH2 0x3A43 JUMP JUMPDEST PUSH1 0x40 MLOAD DUP1 SWAP2 SUB SWAP1 RETURN JUMPDEST PUSH2 0x80A PUSH2 0x1E36 JUMP JUMPDEST PUSH1 0x40 MLOAD PUSH2 0x817 SWAP2 SWAP1 PUSH2 0x3A7B JUMP JUMPDEST PUSH1 0x40 MLOAD DUP1 SWAP2 SUB SWAP1 RETURN JUMPDEST PUSH2 0x83A PUSH1 0x4 DUP1 CALLDATASIZE SUB DUP2 ADD SWAP1 PUSH2 0x835 SWAP2 SWAP1 PUSH2 0x37E9 JUMP JUMPDEST PUSH2 0x1E3F JUMP JUMPDEST STOP JUMPDEST PUSH2 0x844 PUSH2 0x1EB7 JUMP JUMPDEST PUSH1 0x40 MLOAD PUSH2 0x851 SWAP2 SWAP1 PUSH2 0x3611 JUMP JUMPDEST PUSH1 0x40 MLOAD DUP1 SWAP2 SUB SWAP1 RETURN JUMPDEST PUSH2 0x874 PUSH1 0x4 DUP1 CALLDATASIZE SUB DUP2 ADD SWAP1 PUSH2 0x86F SWAP2 SWAP1 PUSH2 0x376D JUMP JUMPDEST PUSH2 0x1EC2 JUMP JUMPDEST STOP JUMPDEST PUSH2 0x890 PUSH1 0x4 DUP1 CALLDATASIZE SUB DUP2 ADD SWAP1 PUSH2 0x88B SWAP2 SWAP1 PUSH2 0x3AD4 JUMP JUMPDEST PUSH2 0x1EE3 JUMP JUMPDEST STOP JUMPDEST PUSH2 0x8AC PUSH1 0x4 DUP1 CALLDATASIZE SUB DUP2 ADD SWAP1 PUSH2 0x8A7 SWAP2 SWAP1 PUSH2 0x3B27 JUMP JUMPDEST PUSH2 0x208D JUMP JUMPDEST PUSH1 0x40 MLOAD PUSH2 0x8B9 SWAP2 SWAP1 PUSH2 0x33EF JUMP JUMPDEST PUSH1 0x40 MLOAD DUP1 SWAP2 SUB SWAP1 RETURN JUMPDEST PUSH2 0x8CA PUSH2 0x2122 JUMP JUMPDEST STOP JUMPDEST PUSH2 0x8D4 PUSH2 0x2191 JUMP JUMPDEST STOP JUMPDEST PUSH1 0x0 PUSH32 0x7965DB0B00000000000000000000000000000000000000000000000000000000 PUSH28 0xFFFFFFFFFFFFFFFFFFFFFFFFFFFFFFFFFFFFFFFFFFFFFFFFFFFFFFFF NOT AND DUP3 PUSH28 0xFFFFFFFFFFFFFFFFFFFFFFFFFFFFFFFFFFFFFFFFFFFFFFFFFFFFFFFF NOT AND EQ DUP1 PUSH2 0x949 JUMPI POP PUSH2 0x948 DUP3 PUSH2 0x21AE JUMP JUMPDEST JUMPDEST SWAP1 POP SWAP2 SWAP1 POP JUMP JUMPDEST PUSH2 0x959 DUP4 PUSH2 0x2218 JUMP JUMPDEST PUSH2 0x962 DUP4 PUSH2 0x226C JUMP JUMPDEST PUSH2 0x96B DUP4 PUSH2 0x22AE JUMP JUMPDEST PUSH2 0x974 DUP3 PUSH2 0x2218 JUMP JUMPDEST TIMESTAMP PUSH2 0x97E DUP5 PUSH2 0xFD3 JUMP JUMPDEST PUSH2 0x988 SWAP2 SWAP1 PUSH2 0x3B96 JUMP JUMPDEST DUP2 GT ISZERO PUSH2 0x9C1 JUMPI PUSH1 0x40 MLOAD PUSH32 0x8744776800000000000000000000000000000000000000000000000000000000 DUP2 MSTORE PUSH1 0x4 ADD PUSH1 0x40 MLOAD DUP1 SWAP2 SUB SWAP1 REVERT JUMPDEST PUSH2 0x9CD DUP4 DUP3 PUSH1 0x0 PUSH2 0x2460 JUMP JUMPDEST PUSH2 0x9D9 DUP3 DUP3 PUSH1 0x1 PUSH2 0x2460 JUMP JUMPDEST POP POP POP JUMP JUMPDEST PUSH1 0x0 PUSH2 0x9E9 DUP3 PUSH2 0x2218 JUMP JUMPDEST PUSH1 0x0 PUSH2 0x1047 PUSH1 0x0 DUP5 DUP2 MSTORE PUSH1 0x20 ADD SWAP1 DUP2 MSTORE PUSH1 0x20 ADD PUSH1 0x0 KECCAK256 PUSH1 0x0 SWAP1 SLOAD SWAP1 PUSH2 0x100 EXP SWAP1 DIV PUSH20 0xFFFFFFFFFFFFFFFFFFFFFFFFFFFFFFFFFFFFFFFF AND SWAP1 POP DUP1 SWAP2 POP POP SWAP2 SWAP1 POP JUMP JUMPDEST PUSH2 0xA34 DUP2 PUSH2 0x22AE JUMP JUMPDEST DUP2 PUSH20 0xFFFFFFFFFFFFFFFFFFFFFFFFFFFFFFFFFFFFFFFF AND CALLER PUSH20 0xFFFFFFFFFFFFFFFFFFFFFFFFFFFFFFFFFFFFFFFF AND SUB PUSH2 0xA99 JUMPI PUSH1 0x40 MLOAD PUSH32 0xF13228CA00000000000000000000000000000000000000000000000000000000 DUP2 MSTORE PUSH1 0x4 ADD PUSH1 0x40 MLOAD DUP1 SWAP2 SUB SWAP1 REVERT JUMPDEST DUP2 PUSH2 0x1047 PUSH1 0x0 DUP4 DUP2 MSTORE PUSH1 0x20 ADD SWAP1 DUP2 MSTORE PUSH1 0x20 ADD PUSH1 0x0 KECCAK256 PUSH1 0x0 PUSH2 0x100 EXP DUP2 SLOAD DUP2 PUSH20 0xFFFFFFFFFFFFFFFFFFFFFFFFFFFFFFFFFFFFFFFF MUL NOT AND SWAP1 DUP4 PUSH20 0xFFFFFFFFFFFFFFFFFFFFFFFFFFFFFFFFFFFFFFFF AND MUL OR SWAP1 SSTORE POP DUP1 DUP3 PUSH20 0xFFFFFFFFFFFFFFFFFFFFFFFFFFFFFFFFFFFFFFFF AND PUSH2 0x1044 PUSH1 0x0 DUP5 DUP2 MSTORE PUSH1 0x20 ADD SWAP1 DUP2 MSTORE PUSH1 0x20 ADD PUSH1 0x0 KECCAK256 PUSH1 0x0 SWAP1 SLOAD SWAP1 PUSH2 0x100 EXP SWAP1 DIV PUSH20 0xFFFFFFFFFFFFFFFFFFFFFFFFFFFFFFFFFFFFFFFF AND PUSH20 0xFFFFFFFFFFFFFFFFFFFFFFFFFFFFFFFFFFFFFFFF AND PUSH32 0x8C5BE1E5EBEC7D5BD14F71427D1E84F3DD0314C0F7B2291E5B200AC8C7C3B925 PUSH1 0x40 MLOAD PUSH1 0x40 MLOAD DUP1 SWAP2 SUB SWAP1 LOG4 POP POP JUMP JUMPDEST PUSH2 0xC51 PUSH1 0x0 SWAP1 SLOAD SWAP1 PUSH2 0x100 EXP SWAP1 DIV PUSH20 0xFFFFFFFFFFFFFFFFFFFFFFFFFFFFFFFFFFFFFFFF AND DUP2 JUMP JUMPDEST PUSH2 0xC53 SLOAD DUP2 JUMP JUMPDEST PUSH2 0xC52 SLOAD DUP2 JUMP JUMPDEST PUSH1 0x0 PUSH2 0xC55 SLOAD SWAP1 POP SWAP1 JUMP JUMPDEST PUSH2 0xC58 PUSH1 0x0 SWAP1 SLOAD SWAP1 PUSH2 0x100 EXP SWAP1 DIV PUSH20 0xFFFFFFFFFFFFFFFFFFFFFFFFFFFFFFFFFFFFFFFF AND DUP2 JUMP JUMPDEST PUSH1 0x0 PUSH1 0x65 PUSH1 0x0 DUP4 DUP2 MSTORE PUSH1 0x20 ADD SWAP1 DUP2 MSTORE PUSH1 0x20 ADD PUSH1 0x0 KECCAK256 PUSH1 0x1 ADD SLOAD SWAP1 POP SWAP2 SWAP1 POP JUMP JUMPDEST PUSH2 0xC59 PUSH1 0x0 SWAP1 SLOAD SWAP1 PUSH2 0x100 EXP SWAP1 DIV PUSH20 0xFFFFFFFFFFFFFFFFFFFFFFFFFFFFFFFFFFFFFFFF AND DUP2 JUMP JUMPDEST PUSH2 0xC35 PUSH2 0x256D JUMP JUMPDEST PUSH1 0x0 DUP2 SUB PUSH2 0xC6F JUMPI PUSH1 0x40 MLOAD PUSH32 0xE03B033D00000000000000000000000000000000000000000000000000000000 DUP2 MSTORE PUSH1 0x4 ADD PUSH1 0x40 MLOAD DUP1 SWAP2 SUB SWAP1 REVERT JUMPDEST PUSH2 0xC55 SLOAD DUP3 LT ISZERO PUSH2 0xCAC JUMPI PUSH1 0x40 MLOAD PUSH32 0x1D00CD6B00000000000000000000000000000000000000000000000000000000 DUP2 MSTORE PUSH1 0x4 ADD PUSH1 0x40 MLOAD DUP1 SWAP2 SUB SWAP1 REVERT JUMPDEST DUP1 PUSH2 0xC5C DUP2 SWAP1 SSTORE POP DUP3 PUSH2 0xC52 DUP2 SWAP1 SSTORE POP DUP2 PUSH2 0xC54 DUP2 SWAP1 SSTORE POP PUSH32 0x9A09448A3F24D3A01CCC67103C7CDDBEEA820176A18182CC83D0BCE585F26A5B DUP4 DUP4 PUSH2 0xC5C SLOAD PUSH1 0x40 MLOAD PUSH2 0xCFA SWAP4 SWAP3 SWAP2 SWAP1 PUSH2 0x3BCA JUMP JUMPDEST PUSH1 0x40 MLOAD DUP1 SWAP2 SUB SWAP1 LOG1 POP POP POP JUMP JUMPDEST PUSH2 0xC57 PUSH1 0x0 SWAP1 SLOAD SWAP1 PUSH2 0x100 EXP SWAP1 DIV PUSH20 0xFFFFFFFFFFFFFFFFFFFFFFFFFFFFFFFFFFFFFFFF AND DUP2 JUMP JUMPDEST PUSH2 0xD37 DUP3 PUSH2 0xBE6 JUMP JUMPDEST PUSH2 0xD40 DUP2 PUSH2 0x25CF JUMP JUMPDEST PUSH2 0xD4A DUP4 DUP4 PUSH2 0x25E3 JUMP JUMPDEST POP POP POP JUMP JUMPDEST PUSH1 0x0 PUSH2 0xD5A DUP4 PUSH2 0x184D JUMP JUMPDEST DUP3 LT PUSH2 0xD92 JUMPI PUSH1 0x40 MLOAD PUSH32 0x8E22EAE00000000000000000000000000000000000000000000000000000000 DUP2 MSTORE PUSH1 0x4 ADD PUSH1 0x40 MLOAD DUP1 SWAP2 SUB SWAP1 REVERT JUMPDEST PUSH2 0x104A PUSH1 0x0 DUP5 PUSH20 0xFFFFFFFFFFFFFFFFFFFFFFFFFFFFFFFFFFFFFFFF AND PUSH20 0xFFFFFFFFFFFFFFFFFFFFFFFFFFFFFFFFFFFFFFFF AND DUP2 MSTORE PUSH1 0x20 ADD SWAP1 DUP2 MSTORE PUSH1 0x20 ADD PUSH1 0x0 KECCAK256 PUSH1 0x0 DUP4 DUP2 MSTORE PUSH1 0x20 ADD SWAP1 DUP2 MSTORE PUSH1 0x20 ADD PUSH1 0x0 KECCAK256 SLOAD SWAP1 POP SWAP3 SWAP2 POP POP JUMP JUMPDEST PUSH2 0xDF4 PUSH2 0x26C4 JUMP JUMPDEST PUSH20 0xFFFFFFFFFFFFFFFFFFFFFFFFFFFFFFFFFFFFFFFF AND DUP2 PUSH20 0xFFFFFFFFFFFFFFFFFFFFFFFFFFFFFFFFFFFFFFFF AND EQ PUSH2 0xE61 JUMPI PUSH1 0x40 MLOAD PUSH32 0x8C379A000000000000000000000000000000000000000000000000000000000 DUP2 MSTORE PUSH1 0x4 ADD PUSH2 0xE58 SWAP1 PUSH2 0x3C84 JUMP JUMPDEST PUSH1 0x40 MLOAD DUP1 SWAP2 SUB SWAP1 REVERT JUMPDEST PUSH2 0xE6B DUP3 DUP3 PUSH2 0x26CC JUMP JUMPDEST POP POP JUMP JUMPDEST PUSH2 0xC5D PUSH1 0x0 SWAP1 SLOAD SWAP1 PUSH2 0x100 EXP SWAP1 DIV PUSH20 0xFFFFFFFFFFFFFFFFFFFFFFFFFFFFFFFFFFFFFFFF AND DUP2 JUMP JUMPDEST PUSH2 0xE9F DUP2 PUSH2 0x2218 JUMP JUMPDEST PUSH2 0xEA8 DUP2 PUSH2 0x22AE JUMP JUMPDEST DUP1 PUSH1 0x0 PUSH20 0xFFFFFFFFFFFFFFFFFFFFFFFFFFFFFFFFFFFFFFFF AND PUSH2 0x1044 PUSH1 0x0 DUP5 DUP2 MSTORE PUSH1 0x20 ADD SWAP1 DUP2 MSTORE PUSH1 0x20 ADD PUSH1 0x0 KECCAK256 PUSH1 0x0 SWAP1 SLOAD SWAP1 PUSH2 0x100 EXP SWAP1 DIV PUSH20 0xFFFFFFFFFFFFFFFFFFFFFFFFFFFFFFFFFFFFFFFF AND PUSH20 0xFFFFFFFFFFFFFFFFFFFFFFFFFFFFFFFFFFFFFFFF AND PUSH32 0xDDF252AD1BE2C89B69C2B068FC378DAA952BA7F163C4A11628F55A4DF523B3EF PUSH1 0x40 MLOAD PUSH1 0x40 MLOAD DUP1 SWAP2 SUB SWAP1 LOG4 PUSH2 0xF41 DUP2 PUSH2 0x27AE JUMP JUMPDEST PUSH1 0x0 PUSH2 0x1044 PUSH1 0x0 DUP4 DUP2 MSTORE PUSH1 0x20 ADD SWAP1 DUP2 MSTORE PUSH1 0x20 ADD PUSH1 0x0 KECCAK256 PUSH1 0x0 PUSH2 0x100 EXP DUP2 SLOAD DUP2 PUSH20 0xFFFFFFFFFFFFFFFFFFFFFFFFFFFFFFFFFFFFFFFF MUL NOT AND SWAP1 DUP4 PUSH20 0xFFFFFFFFFFFFFFFFFFFFFFFFFFFFFFFFFFFFFFFF AND MUL OR SWAP1 SSTORE POP POP JUMP JUMPDEST PUSH2 0x1046 PUSH1 0x20 MSTORE DUP1 PUSH1 0x0 MSTORE PUSH1 0x40 PUSH1 0x0 KECCAK256 PUSH1 0x0 SWAP2 POP SLOAD SWAP1 PUSH2 0x100 EXP SWAP1 DIV PUSH20 0xFFFFFFFFFFFFFFFFFFFFFFFFFFFFFFFFFFFFFFFF AND DUP2 JUMP JUMPDEST PUSH2 0xC5B SLOAD DUP2 JUMP JUMPDEST PUSH1 0x0 PUSH2 0x1049 PUSH1 0x0 DUP4 DUP2 MSTORE PUSH1 0x20 ADD SWAP1 DUP2 MSTORE PUSH1 0x20 ADD PUSH1 0x0 KECCAK256 PUSH1 0x1 ADD SLOAD SWAP1 POP SWAP2 SWAP1 POP JUMP JUMPDEST PUSH1 0x0 PUSH2 0x1044 PUSH1 0x0 DUP4 DUP2 MSTORE PUSH1 0x20 ADD SWAP1 DUP2 MSTORE PUSH1 0x20 ADD PUSH1 0x0 KECCAK256 PUSH1 0x0 SWAP1 SLOAD SWAP1 PUSH2 0x100 EXP SWAP1 DIV PUSH20 0xFFFFFFFFFFFFFFFFFFFFFFFFFFFFFFFFFFFFFFFF AND SWAP1 POP SWAP2 SWAP1 POP JUMP JUMPDEST PUSH1 0x0 DUP1 PUSH2 0x103E DUP4 PUSH2 0x1160 JUMP JUMPDEST SUB PUSH2 0x114B JUMPI PUSH1 0x0 PUSH20 0xFFFFFFFFFFFFFFFFFFFFFFFFFFFFFFFFFFFFFFFF AND PUSH2 0xC59 PUSH1 0x0 SWAP1 SLOAD SWAP1 PUSH2 0x100 EXP SWAP1 DIV PUSH20 0xFFFFFFFFFFFFFFFFFFFFFFFFFFFFFFFFFFFFFFFF AND PUSH20 0xFFFFFFFFFFFFFFFFFFFFFFFFFFFFFFFFFFFFFFFF AND EQ PUSH2 0x114A JUMPI PUSH2 0xC59 PUSH1 0x0 SWAP1 SLOAD SWAP1 PUSH2 0x100 EXP SWAP1 DIV PUSH20 0xFFFFFFFFFFFFFFFFFFFFFFFFFFFFFFFFFFFFFFFF AND PUSH20 0xFFFFFFFFFFFFFFFFFFFFFFFFFFFFFFFFFFFFFFFF AND PUSH4 0x427EDE38 ADDRESS CALLER PUSH1 0x0 DUP1 DUP8 PUSH1 0x0 PUSH1 0x40 MLOAD DUP8 PUSH4 0xFFFFFFFF AND PUSH1 0xE0 SHL DUP2 MSTORE PUSH1 0x4 ADD PUSH2 0x1102 SWAP7 SWAP6 SWAP5 SWAP4 SWAP3 SWAP2 SWAP1 PUSH2 0x3CDF JUMP JUMPDEST PUSH1 0x20 PUSH1 0x40 MLOAD DUP1 DUP4 SUB DUP2 DUP7 GAS STATICCALL ISZERO DUP1 ISZERO PUSH2 0x111F JUMPI RETURNDATASIZE PUSH1 0x0 DUP1 RETURNDATACOPY RETURNDATASIZE PUSH1 0x0 REVERT JUMPDEST POP POP POP POP PUSH1 0x40 MLOAD RETURNDATASIZE PUSH1 0x1F NOT PUSH1 0x1F DUP3 ADD AND DUP3 ADD DUP1 PUSH1 0x40 MSTORE POP DUP2 ADD SWAP1 PUSH2 0x1143 SWAP2 SWAP1 PUSH2 0x3D6C JUMP JUMPDEST SWAP1 POP PUSH2 0x115B JUMP JUMPDEST JUMPDEST PUSH1 0x1 PUSH2 0x1156 DUP4 PUSH2 0x1160 JUMP JUMPDEST LT ISZERO SWAP1 POP JUMPDEST SWAP2 SWAP1 POP JUMP JUMPDEST PUSH1 0x0 DUP1 PUSH2 0x116C DUP4 PUSH2 0x184D JUMP JUMPDEST SWAP1 POP PUSH1 0x0 JUMPDEST DUP2 DUP2 LT ISZERO PUSH2 0x11B2 JUMPI PUSH2 0x118B PUSH2 0x1186 DUP6 DUP4 PUSH2 0xD4F JUMP JUMPDEST PUSH2 0x1BD6 JUMP JUMPDEST ISZERO PUSH2 0x119F JUMPI DUP3 DUP1 PUSH2 0x119B SWAP1 PUSH2 0x3D99 JUMP JUMPDEST SWAP4 POP POP JUMPDEST DUP1 DUP1 PUSH2 0x11AA SWAP1 PUSH2 0x3D99 JUMP JUMPDEST SWAP2 POP POP PUSH2 0x1171 JUMP JUMPDEST POP POP SWAP2 SWAP1 POP JUMP JUMPDEST PUSH2 0xC54 SLOAD DUP2 JUMP JUMPDEST PUSH2 0x11C8 PUSH2 0x256D JUMP JUMPDEST PUSH1 0x0 PUSH20 0xFFFFFFFFFFFFFFFFFFFFFFFFFFFFFFFFFFFFFFFF AND DUP8 PUSH20 0xFFFFFFFFFFFFFFFFFFFFFFFFFFFFFFFFFFFFFFFF AND EQ ISZERO DUP1 ISZERO PUSH2 0x1221 JUMPI POP PUSH2 0x121F DUP8 PUSH20 0xFFFFFFFFFFFFFFFFFFFFFFFFFFFFFFFFFFFFFFFF AND PUSH2 0x27CD JUMP JUMPDEST ISZERO JUMPDEST ISZERO PUSH2 0x1264 JUMPI PUSH1 0x0 PUSH1 0x40 MLOAD PUSH32 0x6788E02B00000000000000000000000000000000000000000000000000000000 DUP2 MSTORE PUSH1 0x4 ADD PUSH2 0x125B SWAP2 SWAP1 PUSH2 0x3E1F JUMP JUMPDEST PUSH1 0x40 MLOAD DUP1 SWAP2 SUB SWAP1 REVERT JUMPDEST PUSH1 0x0 PUSH20 0xFFFFFFFFFFFFFFFFFFFFFFFFFFFFFFFFFFFFFFFF AND DUP7 PUSH20 0xFFFFFFFFFFFFFFFFFFFFFFFFFFFFFFFFFFFFFFFF AND EQ ISZERO DUP1 ISZERO PUSH2 0x12BD JUMPI POP PUSH2 0x12BB DUP7 PUSH20 0xFFFFFFFFFFFFFFFFFFFFFFFFFFFFFFFFFFFFFFFF AND PUSH2 0x27CD JUMP JUMPDEST ISZERO JUMPDEST ISZERO PUSH2 0x1300 JUMPI PUSH1 0x1 PUSH1 0x40 MLOAD PUSH32 0x6788E02B00000000000000000000000000000000000000000000000000000000 DUP2 MSTORE PUSH1 0x4 ADD PUSH2 0x12F7 SWAP2 SWAP1 PUSH2 0x3E75 JUMP JUMPDEST PUSH1 0x40 MLOAD DUP1 SWAP2 SUB SWAP1 REVERT JUMPDEST PUSH1 0x0 PUSH20 0xFFFFFFFFFFFFFFFFFFFFFFFFFFFFFFFFFFFFFFFF AND DUP6 PUSH20 0xFFFFFFFFFFFFFFFFFFFFFFFFFFFFFFFFFFFFFFFF AND EQ ISZERO DUP1 ISZERO PUSH2 0x1359 JUMPI POP PUSH2 0x1357 DUP6 PUSH20 0xFFFFFFFFFFFFFFFFFFFFFFFFFFFFFFFFFFFFFFFF AND PUSH2 0x27CD JUMP JUMPDEST ISZERO JUMPDEST ISZERO PUSH2 0x139C JUMPI PUSH1 0x2 PUSH1 0x40 MLOAD PUSH32 0x6788E02B00000000000000000000000000000000000000000000000000000000 DUP2 MSTORE PUSH1 0x4 ADD PUSH2 0x1393 SWAP2 SWAP1 PUSH2 0x3ECB JUMP JUMPDEST PUSH1 0x40 MLOAD DUP1 SWAP2 SUB SWAP1 REVERT JUMPDEST PUSH1 0x0 PUSH20 0xFFFFFFFFFFFFFFFFFFFFFFFFFFFFFFFFFFFFFFFF AND DUP5 PUSH20 0xFFFFFFFFFFFFFFFFFFFFFFFFFFFFFFFFFFFFFFFF AND EQ ISZERO DUP1 ISZERO PUSH2 0x13F5 JUMPI POP PUSH2 0x13F3 DUP5 PUSH20 0xFFFFFFFFFFFFFFFFFFFFFFFFFFFFFFFFFFFFFFFF AND PUSH2 0x27CD JUMP JUMPDEST ISZERO JUMPDEST ISZERO PUSH2 0x1438 JUMPI PUSH1 0x3 PUSH1 0x40 MLOAD PUSH32 0x6788E02B00000000000000000000000000000000000000000000000000000000 DUP2 MSTORE PUSH1 0x4 ADD PUSH2 0x142F SWAP2 SWAP1 PUSH2 0x3F21 JUMP JUMPDEST PUSH1 0x40 MLOAD DUP1 SWAP2 SUB SWAP1 REVERT JUMPDEST PUSH1 0x0 PUSH20 0xFFFFFFFFFFFFFFFFFFFFFFFFFFFFFFFFFFFFFFFF AND DUP4 PUSH20 0xFFFFFFFFFFFFFFFFFFFFFFFFFFFFFFFFFFFFFFFF AND EQ ISZERO DUP1 ISZERO PUSH2 0x1491 JUMPI POP PUSH2 0x148F DUP4 PUSH20 0xFFFFFFFFFFFFFFFFFFFFFFFFFFFFFFFFFFFFFFFF AND PUSH2 0x27CD JUMP JUMPDEST ISZERO JUMPDEST ISZERO PUSH2 0x14D4 JUMPI PUSH1 0x4 PUSH1 0x40 MLOAD PUSH32 0x6788E02B00000000000000000000000000000000000000000000000000000000 DUP2 MSTORE PUSH1 0x4 ADD PUSH2 0x14CB SWAP2 SWAP1 PUSH2 0x3F77 JUMP JUMPDEST PUSH1 0x40 MLOAD DUP1 SWAP2 SUB SWAP1 REVERT JUMPDEST PUSH1 0x0 PUSH20 0xFFFFFFFFFFFFFFFFFFFFFFFFFFFFFFFFFFFFFFFF AND DUP3 PUSH20 0xFFFFFFFFFFFFFFFFFFFFFFFFFFFFFFFFFFFFFFFF AND EQ ISZERO DUP1 ISZERO PUSH2 0x152D JUMPI POP PUSH2 0x152B DUP3 PUSH20 0xFFFFFFFFFFFFFFFFFFFFFFFFFFFFFFFFFFFFFFFF AND PUSH2 0x27CD JUMP JUMPDEST ISZERO JUMPDEST ISZERO PUSH2 0x1570 JUMPI PUSH1 0x5 PUSH1 0x40 MLOAD PUSH32 0x6788E02B00000000000000000000000000000000000000000000000000000000 DUP2 MSTORE PUSH1 0x4 ADD PUSH2 0x1567 SWAP2 SWAP1 PUSH2 0x3FCD JUMP JUMPDEST PUSH1 0x40 MLOAD DUP1 SWAP2 SUB SWAP1 REVERT JUMPDEST PUSH1 0x0 PUSH20 0xFFFFFFFFFFFFFFFFFFFFFFFFFFFFFFFFFFFFFFFF AND DUP2 PUSH20 0xFFFFFFFFFFFFFFFFFFFFFFFFFFFFFFFFFFFFFFFF AND EQ ISZERO DUP1 ISZERO PUSH2 0x15C9 JUMPI POP PUSH2 0x15C7 DUP2 PUSH20 0xFFFFFFFFFFFFFFFFFFFFFFFFFFFFFFFFFFFFFFFF AND PUSH2 0x27CD JUMP JUMPDEST ISZERO JUMPDEST ISZERO PUSH2 0x160C JUMPI PUSH1 0x6 PUSH1 0x40 MLOAD PUSH32 0x6788E02B00000000000000000000000000000000000000000000000000000000 DUP2 MSTORE PUSH1 0x4 ADD PUSH2 0x1603 SWAP2 SWAP1 PUSH2 0x4023 JUMP JUMPDEST PUSH1 0x40 MLOAD DUP1 SWAP2 SUB SWAP1 REVERT JUMPDEST DUP7 PUSH2 0xC57 PUSH1 0x0 PUSH2 0x100 EXP DUP2 SLOAD DUP2 PUSH20 0xFFFFFFFFFFFFFFFFFFFFFFFFFFFFFFFFFFFFFFFF MUL NOT AND SWAP1 DUP4 PUSH20 0xFFFFFFFFFFFFFFFFFFFFFFFFFFFFFFFFFFFFFFFF AND MUL OR SWAP1 SSTORE POP DUP6 PUSH2 0xC58 PUSH1 0x0 PUSH2 0x100 EXP DUP2 SLOAD DUP2 PUSH20 0xFFFFFFFFFFFFFFFFFFFFFFFFFFFFFFFFFFFFFFFF MUL NOT AND SWAP1 DUP4 PUSH20 0xFFFFFFFFFFFFFFFFFFFFFFFFFFFFFFFFFFFFFFFF AND MUL OR SWAP1 SSTORE POP DUP4 PUSH2 0xC5A PUSH1 0x0 PUSH2 0x100 EXP DUP2 SLOAD DUP2 PUSH20 0xFFFFFFFFFFFFFFFFFFFFFFFFFFFFFFFFFFFFFFFF MUL NOT AND SWAP1 DUP4 PUSH20 0xFFFFFFFFFFFFFFFFFFFFFFFFFFFFFFFFFFFFFFFF AND MUL OR SWAP1 SSTORE POP DUP5 PUSH2 0xC59 PUSH1 0x0 PUSH2 0x100 EXP DUP2 SLOAD DUP2 PUSH20 0xFFFFFFFFFFFFFFFFFFFFFFFFFFFFFFFFFFFFFFFF MUL NOT AND SWAP1 DUP4 PUSH20 0xFFFFFFFFFFFFFFFFFFFFFFFFFFFFFFFFFFFFFFFF AND MUL OR SWAP1 SSTORE POP DUP3 PUSH2 0xC5D PUSH1 0x0 PUSH2 0x100 EXP DUP2 SLOAD DUP2 PUSH20 0xFFFFFFFFFFFFFFFFFFFFFFFFFFFFFFFFFFFFFFFF MUL NOT AND SWAP1 DUP4 PUSH20 0xFFFFFFFFFFFFFFFFFFFFFFFFFFFFFFFFFFFFFFFF AND MUL OR SWAP1 SSTORE POP DUP2 PUSH2 0xC5E PUSH1 0x0 PUSH2 0x100 EXP DUP2 SLOAD DUP2 PUSH20 0xFFFFFFFFFFFFFFFFFFFFFFFFFFFFFFFFFFFFFFFF MUL NOT AND SWAP1 DUP4 PUSH20 0xFFFFFFFFFFFFFFFFFFFFFFFFFFFFFFFFFFFFFFFF AND MUL OR SWAP1 SSTORE POP DUP1 PUSH2 0xC5F PUSH1 0x0 PUSH2 0x100 EXP DUP2 SLOAD DUP2 PUSH20 0xFFFFFFFFFFFFFFFFFFFFFFFFFFFFFFFFFFFFFFFF MUL NOT AND SWAP1 DUP4 PUSH20 0xFFFFFFFFFFFFFFFFFFFFFFFFFFFFFFFFFFFFFFFF AND MUL OR SWAP1 SSTORE POP PUSH32 0xA851288E37FA9A8BC562891998524E95C286FE84F693C1921E0FD0792171AF6 DUP8 DUP8 DUP8 DUP8 DUP8 DUP8 DUP8 PUSH1 0x40 MLOAD PUSH2 0x1815 SWAP8 SWAP7 SWAP6 SWAP5 SWAP4 SWAP3 SWAP2 SWAP1 PUSH2 0x403E JUMP JUMPDEST PUSH1 0x40 MLOAD DUP1 SWAP2 SUB SWAP1 LOG1 POP POP POP POP POP POP POP JUMP JUMPDEST PUSH2 0xC5A PUSH1 0x0 SWAP1 SLOAD SWAP1 PUSH2 0x100 EXP SWAP1 DIV PUSH20 0xFFFFFFFFFFFFFFFFFFFFFFFFFFFFFFFFFFFFFFFF AND DUP2 JUMP JUMPDEST PUSH1 0x0 DUP1 PUSH20 0xFFFFFFFFFFFFFFFFFFFFFFFFFFFFFFFFFFFFFFFF AND DUP3 PUSH20 0xFFFFFFFFFFFFFFFFFFFFFFFFFFFFFFFFFFFFFFFF AND SUB PUSH2 0x18B4 JUMPI PUSH1 0x40 MLOAD PUSH32 0x5963709B00000000000000000000000000000000000000000000000000000000 DUP2 MSTORE PUSH1 0x4 ADD PUSH1 0x40 MLOAD DUP1 SWAP2 SUB SWAP1 REVERT JUMPDEST PUSH2 0x104C PUSH1 0x0 DUP4 PUSH20 0xFFFFFFFFFFFFFFFFFFFFFFFFFFFFFFFFFFFFFFFF AND PUSH20 0xFFFFFFFFFFFFFFFFFFFFFFFFFFFFFFFFFFFFFFFF AND DUP2 MSTORE PUSH1 0x20 ADD SWAP1 DUP2 MSTORE PUSH1 0x20 ADD PUSH1 0x0 KECCAK256 SLOAD SWAP1 POP SWAP2 SWAP1 POP JUMP JUMPDEST PUSH1 0x1 PUSH2 0x1906 PUSH2 0x1E36 JUMP JUMPDEST PUSH2 0x1910 SWAP2 SWAP1 PUSH2 0x40AD JUMP JUMPDEST PUSH2 0xFFFF AND PUSH2 0xC5B SLOAD EQ DUP1 PUSH2 0x1927 JUMPI POP PUSH1 0x0 PUSH2 0xC5B SLOAD EQ JUMPDEST PUSH2 0x1966 JUMPI PUSH1 0x40 MLOAD PUSH32 0x8C379A000000000000000000000000000000000000000000000000000000000 DUP2 MSTORE PUSH1 0x4 ADD PUSH2 0x195D SWAP1 PUSH2 0x412F JUMP JUMPDEST PUSH1 0x40 MLOAD DUP1 SWAP2 SUB SWAP1 REVERT JUMPDEST PUSH1 0x1 CHAINID SUB PUSH2 0x1A2B JUMPI PUSH1 0x0 PUSH20 0xE79B93F8E22676774F2A8DAD469175EBD00029FA SWAP1 POP DUP1 PUSH20 0xFFFFFFFFFFFFFFFFFFFFFFFFFFFFFFFFFFFFFFFF AND PUSH4 0xED9674BD PUSH1 0x40 MLOAD DUP2 PUSH4 0xFFFFFFFF AND PUSH1 0xE0 SHL DUP2 MSTORE PUSH1 0x4 ADD PUSH1 0x0 PUSH1 0x40 MLOAD DUP1 DUP4 SUB DUP2 PUSH1 0x0 DUP8 DUP1 EXTCODESIZE ISZERO DUP1 ISZERO PUSH2 0x19CF JUMPI PUSH1 0x0 DUP1 REVERT JUMPDEST POP GAS CALL ISZERO DUP1 ISZERO PUSH2 0x19E3 JUMPI RETURNDATASIZE PUSH1 0x0 DUP1 RETURNDATACOPY RETURNDATASIZE PUSH1 0x0 REVERT JUMPDEST POP POP POP POP DUP1 PUSH2 0xC51 PUSH1 0x0 PUSH2 0x100 EXP DUP2 SLOAD DUP2 PUSH20 0xFFFFFFFFFFFFFFFFFFFFFFFFFFFFFFFFFFFFFFFF MUL NOT AND SWAP1 DUP4 PUSH20 0xFFFFFFFFFFFFFFFFFFFFFFFFFFFFFFFFFFFFFFFF AND MUL OR SWAP1 SSTORE POP POP JUMPDEST PUSH2 0x1A33 PUSH2 0x1E36 JUMP JUMPDEST PUSH2 0xFFFF AND PUSH2 0xC5B DUP2 SWAP1 SSTORE POP POP POP JUMP JUMPDEST PUSH1 0x0 PUSH1 0x65 PUSH1 0x0 DUP5 DUP2 MSTORE PUSH1 0x20 ADD SWAP1 DUP2 MSTORE PUSH1 0x20 ADD PUSH1 0x0 KECCAK256 PUSH1 0x0 ADD PUSH1 0x0 DUP4 PUSH20 0xFFFFFFFFFFFFFFFFFFFFFFFFFFFFFFFFFFFFFFFF AND PUSH20 0xFFFFFFFFFFFFFFFFFFFFFFFFFFFFFFFFFFFFFFFF AND DUP2 MSTORE PUSH1 0x20 ADD SWAP1 DUP2 MSTORE PUSH1 0x20 ADD PUSH1 0x0 KECCAK256 PUSH1 0x0 SWAP1 SLOAD SWAP1 PUSH2 0x100 EXP SWAP1 DIV PUSH1 0xFF AND SWAP1 POP SWAP3 SWAP2 POP POP JUMP JUMPDEST PUSH2 0x1045 SLOAD DUP2 JUMP JUMPDEST PUSH2 0x47F PUSH1 0x0 SWAP1 SLOAD SWAP1 PUSH2 0x100 EXP SWAP1 DIV PUSH20 0xFFFFFFFFFFFFFFFFFFFFFFFFFFFFFFFFFFFFFFFF AND DUP2 JUMP JUMPDEST PUSH1 0x0 DUP1 SHL DUP2 JUMP JUMPDEST PUSH2 0x1AEA PUSH2 0x256D JUMP JUMPDEST PUSH2 0x1AF3 DUP2 PUSH2 0x27F0 JUMP JUMPDEST PUSH1 0x0 PUSH2 0xC53 SLOAD SWAP1 POP PUSH1 0x0 PUSH2 0x47F PUSH1 0x0 SWAP1 SLOAD SWAP1 PUSH2 0x100 EXP SWAP1 DIV PUSH20 0xFFFFFFFFFFFFFFFFFFFFFFFFFFFFFFFFFFFFFFFF AND SWAP1 POP DUP4 PUSH2 0xC53 DUP2 SWAP1 SSTORE POP DUP3 PUSH2 0x47F PUSH1 0x0 PUSH2 0x100 EXP DUP2 SLOAD DUP2 PUSH20 0xFFFFFFFFFFFFFFFFFFFFFFFFFFFFFFFFFFFFFFFF MUL NOT AND SWAP1 DUP4 PUSH20 0xFFFFFFFFFFFFFFFFFFFFFFFFFFFFFFFFFFFFFFFF AND MUL OR SWAP1 SSTORE POP PUSH32 0x3615065CCF48367AC483AC86701248E2E5FF55BDD9BE845007D34A3B68D719D4 DUP3 PUSH2 0xC53 SLOAD DUP4 PUSH2 0x47F PUSH1 0x0 SWAP1 SLOAD SWAP1 PUSH2 0x100 EXP SWAP1 DIV PUSH20 0xFFFFFFFFFFFFFFFFFFFFFFFFFFFFFFFFFFFFFFFF AND PUSH1 0x40 MLOAD PUSH2 0x1BC8 SWAP5 SWAP4 SWAP3 SWAP2 SWAP1 PUSH2 0x414F JUMP JUMPDEST PUSH1 0x40 MLOAD DUP1 SWAP2 SUB SWAP1 LOG1 POP POP POP POP JUMP JUMPDEST PUSH1 0x0 DUP1 TIMESTAMP PUSH2 0x1049 PUSH1 0x0 DUP6 DUP2 MSTORE PUSH1 0x20 ADD SWAP1 DUP2 MSTORE PUSH1 0x20 ADD PUSH1 0x0 KECCAK256 PUSH1 0x1 ADD SLOAD GT SWAP1 POP PUSH1 0x0 PUSH20 0xFFFFFFFFFFFFFFFFFFFFFFFFFFFFFFFFFFFFFFFF AND PUSH2 0xC59 PUSH1 0x0 SWAP1 SLOAD SWAP1 PUSH2 0x100 EXP SWAP1 DIV PUSH20 0xFFFFFFFFFFFFFFFFFFFFFFFFFFFFFFFFFFFFFFFF AND PUSH20 0xFFFFFFFFFFFFFFFFFFFFFFFFFFFFFFFFFFFFFFFF AND EQ PUSH2 0x1D41 JUMPI PUSH2 0xC59 PUSH1 0x0 SWAP1 SLOAD SWAP1 PUSH2 0x100 EXP SWAP1 DIV PUSH20 0xFFFFFFFFFFFFFFFFFFFFFFFFFFFFFFFFFFFFFFFF AND PUSH20 0xFFFFFFFFFFFFFFFFFFFFFFFFFFFFFFFFFFFFFFFF AND PUSH4 0x427EDE38 ADDRESS CALLER DUP7 PUSH2 0x1049 PUSH1 0x0 DUP10 DUP2 MSTORE PUSH1 0x20 ADD SWAP1 DUP2 MSTORE PUSH1 0x20 ADD PUSH1 0x0 KECCAK256 PUSH1 0x1 ADD SLOAD PUSH2 0x1044 PUSH1 0x0 DUP11 DUP2 MSTORE PUSH1 0x20 ADD SWAP1 DUP2 MSTORE PUSH1 0x20 ADD PUSH1 0x0 KECCAK256 PUSH1 0x0 SWAP1 SLOAD SWAP1 PUSH2 0x100 EXP SWAP1 DIV PUSH20 0xFFFFFFFFFFFFFFFFFFFFFFFFFFFFFFFFFFFFFFFF AND DUP8 PUSH1 0x40 MLOAD DUP8 PUSH4 0xFFFFFFFF AND PUSH1 0xE0 SHL DUP2 MSTORE PUSH1 0x4 ADD PUSH2 0x1CFD SWAP7 SWAP6 SWAP5 SWAP4 SWAP3 SWAP2 SWAP1 PUSH2 0x4194 JUMP JUMPDEST PUSH1 0x20 PUSH1 0x40 MLOAD DUP1 DUP4 SUB DUP2 DUP7 GAS STATICCALL ISZERO DUP1 ISZERO PUSH2 0x1D1A JUMPI RETURNDATASIZE PUSH1 0x0 DUP1 RETURNDATACOPY RETURNDATASIZE PUSH1 0x0 REVERT JUMPDEST POP POP POP POP PUSH1 0x40 MLOAD RETURNDATASIZE PUSH1 0x1F NOT PUSH1 0x1F DUP3 ADD AND DUP3 ADD DUP1 PUSH1 0x40 MSTORE POP DUP2 ADD SWAP1 PUSH2 0x1D3E SWAP2 SWAP1 PUSH2 0x3D6C JUMP JUMPDEST SWAP1 POP JUMPDEST DUP1 SWAP2 POP POP SWAP2 SWAP1 POP JUMP JUMPDEST PUSH1 0x0 PUSH2 0x1D76 PUSH32 0xB89CDD26CDDD51301940BF2715F765B626B8A5A9E2681AC62DC83CC2DB2530C0 DUP4 PUSH2 0x1A42 JUMP JUMPDEST SWAP1 POP SWAP2 SWAP1 POP JUMP JUMPDEST PUSH2 0x1D86 DUP3 PUSH2 0x2218 JUMP JUMPDEST PUSH2 0x1D90 DUP3 CALLER PUSH2 0x28D5 JUMP JUMPDEST ISZERO DUP1 ISZERO PUSH2 0x1DA3 JUMPI POP PUSH2 0x1DA1 CALLER PUSH2 0x1D4A JUMP JUMPDEST ISZERO JUMPDEST ISZERO PUSH2 0x1DDA JUMPI PUSH1 0x40 MLOAD PUSH32 0x866C2FA700000000000000000000000000000000000000000000000000000000 DUP2 MSTORE PUSH1 0x4 ADD PUSH1 0x40 MLOAD DUP1 SWAP2 SUB SWAP1 REVERT JUMPDEST PUSH2 0x1DE4 DUP3 DUP3 PUSH2 0x29FD JUMP JUMPDEST POP POP JUMP JUMPDEST PUSH2 0xC5F PUSH1 0x0 SWAP1 SLOAD SWAP1 PUSH2 0x100 EXP SWAP1 DIV PUSH20 0xFFFFFFFFFFFFFFFFFFFFFFFFFFFFFFFFFFFFFFFF AND DUP2 JUMP JUMPDEST PUSH2 0xC5E PUSH1 0x0 SWAP1 SLOAD SWAP1 PUSH2 0x100 EXP SWAP1 DIV PUSH20 0xFFFFFFFFFFFFFFFFFFFFFFFFFFFFFFFFFFFFFFFF AND DUP2 JUMP JUMPDEST PUSH1 0x0 PUSH1 0xD SWAP1 POP SWAP1 JUMP JUMPDEST PUSH2 0x1E47 PUSH2 0x256D JUMP JUMPDEST PUSH2 0x1E71 PUSH32 0xB89CDD26CDDD51301940BF2715F765B626B8A5A9E2681AC62DC83CC2DB2530C0 DUP3 PUSH2 0xD2E JUMP JUMPDEST DUP1 PUSH20 0xFFFFFFFFFFFFFFFFFFFFFFFFFFFFFFFFFFFFFFFF AND PUSH32 0x91D5C045D5BD98BF59A379B259EBCA05B93BF79AF1845FDF87E3172385D4C7F7 PUSH1 0x40 MLOAD PUSH1 0x40 MLOAD DUP1 SWAP2 SUB SWAP1 LOG2 POP JUMP JUMPDEST PUSH1 0x0 PUSH2 0xC5C SLOAD SWAP1 POP SWAP1 JUMP JUMPDEST PUSH2 0x1ECB DUP3 PUSH2 0xBE6 JUMP JUMPDEST PUSH2 0x1ED4 DUP2 PUSH2 0x25CF JUMP JUMPDEST PUSH2 0x1EDE DUP4 DUP4 PUSH2 0x26CC JUMP JUMPDEST POP POP POP JUMP JUMPDEST PUSH2 0x1EEB PUSH2 0x256D JUMP JUMPDEST PUSH1 0x0 DUP1 PUSH20 0xFFFFFFFFFFFFFFFFFFFFFFFFFFFFFFFFFFFFFFFF AND DUP5 PUSH20 0xFFFFFFFFFFFFFFFFFFFFFFFFFFFFFFFFFFFFFFFF AND SUB PUSH2 0x1F28 JUMPI SELFBALANCE SWAP1 POP PUSH2 0x1FA5 JUMP JUMPDEST DUP4 PUSH20 0xFFFFFFFFFFFFFFFFFFFFFFFFFFFFFFFFFFFFFFFF AND PUSH4 0x70A08231 ADDRESS PUSH1 0x40 MLOAD DUP3 PUSH4 0xFFFFFFFF AND PUSH1 0xE0 SHL DUP2 MSTORE PUSH1 0x4 ADD PUSH2 0x1F61 SWAP2 SWAP1 PUSH2 0x3501 JUMP JUMPDEST PUSH1 0x20 PUSH1 0x40 MLOAD DUP1 DUP4 SUB DUP2 DUP7 GAS STATICCALL ISZERO DUP1 ISZERO PUSH2 0x1F7E JUMPI RETURNDATASIZE PUSH1 0x0 DUP1 RETURNDATACOPY RETURNDATASIZE PUSH1 0x0 REVERT JUMPDEST POP POP POP POP PUSH1 0x40 MLOAD RETURNDATASIZE PUSH1 0x1F NOT PUSH1 0x1F DUP3 ADD AND DUP3 ADD DUP1 PUSH1 0x40 MSTORE POP DUP2 ADD SWAP1 PUSH2 0x1FA2 SWAP2 SWAP1 PUSH2 0x420A JUMP JUMPDEST SWAP1 POP JUMPDEST PUSH1 0x0 DUP1 DUP4 EQ DUP1 PUSH2 0x1FB4 JUMPI POP DUP2 DUP4 GT JUMPDEST ISZERO PUSH2 0x1FFB JUMPI PUSH1 0x0 DUP3 GT PUSH2 0x1FF3 JUMPI PUSH1 0x40 MLOAD PUSH32 0x1F04DDC800000000000000000000000000000000000000000000000000000000 DUP2 MSTORE PUSH1 0x4 ADD PUSH1 0x40 MLOAD DUP1 SWAP2 SUB SWAP1 REVERT JUMPDEST DUP2 SWAP1 POP PUSH2 0x1FFF JUMP JUMPDEST DUP3 SWAP1 POP JUMPDEST DUP4 PUSH20 0xFFFFFFFFFFFFFFFFFFFFFFFFFFFFFFFFFFFFFFFF AND DUP6 PUSH20 0xFFFFFFFFFFFFFFFFFFFFFFFFFFFFFFFFFFFFFFFF AND CALLER PUSH20 0xFFFFFFFFFFFFFFFFFFFFFFFFFFFFFFFFFFFFFFFF AND PUSH32 0x342E7FF505A8A0364CD0DC2FF195C315E43BCE86B204846ECD36913E117B109E DUP5 PUSH1 0x40 MLOAD PUSH2 0x2073 SWAP2 SWAP1 PUSH2 0x3611 JUMP JUMPDEST PUSH1 0x40 MLOAD DUP1 SWAP2 SUB SWAP1 LOG4 PUSH2 0x2086 DUP6 DUP6 DUP4 PUSH2 0x2B09 JUMP JUMPDEST POP POP POP POP POP JUMP JUMPDEST PUSH1 0x0 PUSH2 0x1048 PUSH1 0x0 DUP5 PUSH20 0xFFFFFFFFFFFFFFFFFFFFFFFFFFFFFFFFFFFFFFFF AND PUSH20 0xFFFFFFFFFFFFFFFFFFFFFFFFFFFFFFFFFFFFFFFF AND DUP2 MSTORE PUSH1 0x20 ADD SWAP1 DUP2 MSTORE PUSH1 0x20 ADD PUSH1 0x0 KECCAK256 PUSH1 0x0 DUP4 PUSH20 0xFFFFFFFFFFFFFFFFFFFFFFFFFFFFFFFFFFFFFFFF AND PUSH20 0xFFFFFFFFFFFFFFFFFFFFFFFFFFFFFFFFFFFFFFFF AND DUP2 MSTORE PUSH1 0x20 ADD SWAP1 DUP2 MSTORE PUSH1 0x20 ADD PUSH1 0x0 KECCAK256 PUSH1 0x0 SWAP1 SLOAD SWAP1 PUSH2 0x100 EXP SWAP1 DIV PUSH1 0xFF AND SWAP1 POP SWAP3 SWAP2 POP POP JUMP JUMPDEST PUSH2 0x214C PUSH32 0xB89CDD26CDDD51301940BF2715F765B626B8A5A9E2681AC62DC83CC2DB2530C0 CALLER PUSH2 0xDEC JUMP JUMPDEST CALLER PUSH20 0xFFFFFFFFFFFFFFFFFFFFFFFFFFFFFFFFFFFFFFFF AND PUSH32 0x42885193B8178D25FCA25A38E6FCC93918501E91BE06D85E0C8AFB3BAD952380 PUSH1 0x40 MLOAD PUSH1 0x40 MLOAD DUP1 SWAP2 SUB SWAP1 LOG2 JUMP JUMPDEST PUSH2 0x2199 PUSH2 0x256D JUMP JUMPDEST PUSH2 0x21A1 PUSH2 0x1E36 JUMP JUMPDEST PUSH2 0xFFFF AND PUSH2 0xC5B DUP2 SWAP1 SSTORE POP JUMP JUMPDEST PUSH1 0x0 PUSH32 0x1FFC9A700000000000000000000000000000000000000000000000000000000 PUSH28 0xFFFFFFFFFFFFFFFFFFFFFFFFFFFFFFFFFFFFFFFFFFFFFFFFFFFFFFFF NOT AND DUP3 PUSH28 0xFFFFFFFFFFFFFFFFFFFFFFFFFFFFFFFFFFFFFFFFFFFFFFFFFFFFFFFF NOT AND EQ SWAP1 POP SWAP2 SWAP1 POP JUMP JUMPDEST PUSH1 0x0 PUSH2 0x1049 PUSH1 0x0 DUP4 DUP2 MSTORE PUSH1 0x20 ADD SWAP1 DUP2 MSTORE PUSH1 0x20 ADD PUSH1 0x0 KECCAK256 PUSH1 0x0 ADD SLOAD SUB PUSH2 0x2269 JUMPI PUSH1 0x40 MLOAD PUSH32 0x78FE247300000000000000000000000000000000000000000000000000000000 DUP2 MSTORE PUSH1 0x4 ADD PUSH1 0x40 MLOAD DUP1 SWAP2 SUB SWAP1 REVERT JUMPDEST POP JUMP JUMPDEST PUSH2 0x2275 DUP2 PUSH2 0x1BD6 JUMP JUMPDEST PUSH2 0x22AB JUMPI PUSH1 0x40 MLOAD PUSH32 0xD9F4FAE00000000000000000000000000000000000000000000000000000000 DUP2 MSTORE PUSH1 0x4 ADD PUSH1 0x40 MLOAD DUP1 SWAP2 SUB SWAP1 REVERT JUMPDEST POP JUMP JUMPDEST PUSH1 0x0 DUP1 PUSH20 0xFFFFFFFFFFFFFFFFFFFFFFFFFFFFFFFFFFFFFFFF AND PUSH2 0x1046 PUSH1 0x0 DUP5 DUP2 MSTORE PUSH1 0x20 ADD SWAP1 DUP2 MSTORE PUSH1 0x20 ADD PUSH1 0x0 KECCAK256 PUSH1 0x0 SWAP1 SLOAD SWAP1 PUSH2 0x100 EXP SWAP1 DIV PUSH20 0xFFFFFFFFFFFFFFFFFFFFFFFFFFFFFFFFFFFFFFFF AND PUSH20 0xFFFFFFFFFFFFFFFFFFFFFFFFFFFFFFFFFFFFFFFF AND EQ PUSH2 0x2351 JUMPI PUSH2 0x1046 PUSH1 0x0 DUP4 DUP2 MSTORE PUSH1 0x20 ADD SWAP1 DUP2 MSTORE PUSH1 0x20 ADD PUSH1 0x0 KECCAK256 PUSH1 0x0 SWAP1 SLOAD SWAP1 PUSH2 0x100 EXP SWAP1 DIV PUSH20 0xFFFFFFFFFFFFFFFFFFFFFFFFFFFFFFFFFFFFFFFF AND PUSH2 0x2387 JUMP JUMPDEST PUSH2 0x1044 PUSH1 0x0 DUP4 DUP2 MSTORE PUSH1 0x20 ADD SWAP1 DUP2 MSTORE PUSH1 0x20 ADD PUSH1 0x0 KECCAK256 PUSH1 0x0 SWAP1 SLOAD SWAP1 PUSH2 0x100 EXP SWAP1 DIV PUSH20 0xFFFFFFFFFFFFFFFFFFFFFFFFFFFFFFFFFFFFFFFF AND JUMPDEST SWAP1 POP PUSH2 0x2392 CALLER PUSH2 0x1D4A JUMP JUMPDEST ISZERO DUP1 ISZERO PUSH2 0x23A6 JUMPI POP PUSH2 0x23A4 DUP3 CALLER PUSH2 0x28D5 JUMP JUMPDEST ISZERO JUMPDEST DUP1 ISZERO PUSH2 0x2412 JUMPI POP CALLER PUSH20 0xFFFFFFFFFFFFFFFFFFFFFFFFFFFFFFFFFFFFFFFF AND PUSH2 0x1047 PUSH1 0x0 DUP5 DUP2 MSTORE PUSH1 0x20 ADD SWAP1 DUP2 MSTORE PUSH1 0x20 ADD PUSH1 0x0 KECCAK256 PUSH1 0x0 SWAP1 SLOAD SWAP1 PUSH2 0x100 EXP SWAP1 DIV PUSH20 0xFFFFFFFFFFFFFFFFFFFFFFFFFFFFFFFFFFFFFFFF AND PUSH20 0xFFFFFFFFFFFFFFFFFFFFFFFFFFFFFFFFFFFFFFFF AND EQ ISZERO JUMPDEST DUP1 ISZERO PUSH2 0x2425 JUMPI POP PUSH2 0x2423 DUP2 CALLER PUSH2 0x208D JUMP JUMPDEST ISZERO JUMPDEST ISZERO PUSH2 0x245C JUMPI PUSH1 0x40 MLOAD PUSH32 0xE17C6D4500000000000000000000000000000000000000000000000000000000 DUP2 MSTORE PUSH1 0x4 ADD PUSH1 0x40 MLOAD DUP1 SWAP2 SUB SWAP1 REVERT JUMPDEST POP POP JUMP JUMPDEST PUSH2 0x2469 DUP4 PUSH2 0x2218 JUMP JUMPDEST PUSH1 0x0 PUSH2 0x1049 PUSH1 0x0 DUP6 DUP2 MSTORE PUSH1 0x20 ADD SWAP1 DUP2 MSTORE PUSH1 0x20 ADD PUSH1 0x0 KECCAK256 PUSH1 0x1 ADD SLOAD SWAP1 POP DUP2 ISZERO PUSH2 0x24EC JUMPI TIMESTAMP DUP2 GT ISZERO PUSH2 0x24BF JUMPI DUP3 DUP2 PUSH2 0x249F SWAP2 SWAP1 PUSH2 0x4237 JUMP JUMPDEST PUSH2 0x1049 PUSH1 0x0 DUP7 DUP2 MSTORE PUSH1 0x20 ADD SWAP1 DUP2 MSTORE PUSH1 0x20 ADD PUSH1 0x0 KECCAK256 PUSH1 0x1 ADD DUP2 SWAP1 SSTORE POP PUSH2 0x24E7 JUMP JUMPDEST DUP3 TIMESTAMP PUSH2 0x24CB SWAP2 SWAP1 PUSH2 0x4237 JUMP JUMPDEST PUSH2 0x1049 PUSH1 0x0 DUP7 DUP2 MSTORE PUSH1 0x20 ADD SWAP1 DUP2 MSTORE PUSH1 0x20 ADD PUSH1 0x0 KECCAK256 PUSH1 0x1 ADD DUP2 SWAP1 SSTORE POP JUMPDEST PUSH2 0x2514 JUMP JUMPDEST DUP3 DUP2 PUSH2 0x24F8 SWAP2 SWAP1 PUSH2 0x3B96 JUMP JUMPDEST PUSH2 0x1049 PUSH1 0x0 DUP7 DUP2 MSTORE PUSH1 0x20 ADD SWAP1 DUP2 MSTORE PUSH1 0x20 ADD PUSH1 0x0 KECCAK256 PUSH1 0x1 ADD DUP2 SWAP1 SSTORE POP JUMPDEST DUP4 PUSH32 0x3C907806849E9204E0E26BB095DFE4B3071576C4323F766735C548211556D052 PUSH2 0x1049 PUSH1 0x0 DUP8 DUP2 MSTORE PUSH1 0x20 ADD SWAP1 DUP2 MSTORE PUSH1 0x20 ADD PUSH1 0x0 KECCAK256 PUSH1 0x1 ADD SLOAD DUP6 DUP6 PUSH1 0x40 MLOAD PUSH2 0x255F SWAP4 SWAP3 SWAP2 SWAP1 PUSH2 0x426B JUMP JUMPDEST PUSH1 0x40 MLOAD DUP1 SWAP2 SUB SWAP1 LOG2 POP POP POP POP JUMP JUMPDEST PUSH2 0x2597 PUSH32 0xB89CDD26CDDD51301940BF2715F765B626B8A5A9E2681AC62DC83CC2DB2530C0 CALLER PUSH2 0x1A42 JUMP JUMPDEST PUSH2 0x25CD JUMPI PUSH1 0x40 MLOAD PUSH32 0x8E1B58C400000000000000000000000000000000000000000000000000000000 DUP2 MSTORE PUSH1 0x4 ADD PUSH1 0x40 MLOAD DUP1 SWAP2 SUB SWAP1 REVERT JUMPDEST JUMP JUMPDEST PUSH2 0x25E0 DUP2 PUSH2 0x25DB PUSH2 0x26C4 JUMP JUMPDEST PUSH2 0x2BAC JUMP JUMPDEST POP JUMP JUMPDEST PUSH2 0x25ED DUP3 DUP3 PUSH2 0x1A42 JUMP JUMPDEST PUSH2 0x26C0 JUMPI PUSH1 0x1 PUSH1 0x65 PUSH1 0x0 DUP5 DUP2 MSTORE PUSH1 0x20 ADD SWAP1 DUP2 MSTORE PUSH1 0x20 ADD PUSH1 0x0 KECCAK256 PUSH1 0x0 ADD PUSH1 0x0 DUP4 PUSH20 0xFFFFFFFFFFFFFFFFFFFFFFFFFFFFFFFFFFFFFFFF AND PUSH20 0xFFFFFFFFFFFFFFFFFFFFFFFFFFFFFFFFFFFFFFFF AND DUP2 MSTORE PUSH1 0x20 ADD SWAP1 DUP2 MSTORE PUSH1 0x20 ADD PUSH1 0x0 KECCAK256 PUSH1 0x0 PUSH2 0x100 EXP DUP2 SLOAD DUP2 PUSH1 0xFF MUL NOT AND SWAP1 DUP4 ISZERO ISZERO MUL OR SWAP1 SSTORE POP PUSH2 0x2665 PUSH2 0x26C4 JUMP JUMPDEST PUSH20 0xFFFFFFFFFFFFFFFFFFFFFFFFFFFFFFFFFFFFFFFF AND DUP2 PUSH20 0xFFFFFFFFFFFFFFFFFFFFFFFFFFFFFFFFFFFFFFFF AND DUP4 PUSH32 0x2F8788117E7EFF1D82E926EC794901D17C78024A50270940304540A733656F0D PUSH1 0x40 MLOAD PUSH1 0x40 MLOAD DUP1 SWAP2 SUB SWAP1 LOG4 JUMPDEST POP POP JUMP JUMPDEST PUSH1 0x0 CALLER SWAP1 POP SWAP1 JUMP JUMPDEST PUSH2 0x26D6 DUP3 DUP3 PUSH2 0x1A42 JUMP JUMPDEST ISZERO PUSH2 0x27AA JUMPI PUSH1 0x0 PUSH1 0x65 PUSH1 0x0 DUP5 DUP2 MSTORE PUSH1 0x20 ADD SWAP1 DUP2 MSTORE PUSH1 0x20 ADD PUSH1 0x0 KECCAK256 PUSH1 0x0 ADD PUSH1 0x0 DUP4 PUSH20 0xFFFFFFFFFFFFFFFFFFFFFFFFFFFFFFFFFFFFFFFF AND PUSH20 0xFFFFFFFFFFFFFFFFFFFFFFFFFFFFFFFFFFFFFFFF AND DUP2 MSTORE PUSH1 0x20 ADD SWAP1 DUP2 MSTORE PUSH1 0x20 ADD PUSH1 0x0 KECCAK256 PUSH1 0x0 PUSH2 0x100 EXP DUP2 SLOAD DUP2 PUSH1 0xFF MUL NOT AND SWAP1 DUP4 ISZERO ISZERO MUL OR SWAP1 SSTORE POP PUSH2 0x274F PUSH2 0x26C4 JUMP JUMPDEST PUSH20 0xFFFFFFFFFFFFFFFFFFFFFFFFFFFFFFFFFFFFFFFF AND DUP2 PUSH20 0xFFFFFFFFFFFFFFFFFFFFFFFFFFFFFFFFFFFFFFFF AND DUP4 PUSH32 0xF6391F5C32D9C69D2A47EA670B442974B53935D1EDC7FD64EB21E047A839171B PUSH1 0x40 MLOAD PUSH1 0x40 MLOAD DUP1 SWAP2 SUB SWAP1 LOG4 JUMPDEST POP POP JUMP JUMPDEST TIMESTAMP PUSH2 0x1049 PUSH1 0x0 DUP4 DUP2 MSTORE PUSH1 0x20 ADD SWAP1 DUP2 MSTORE PUSH1 0x20 ADD PUSH1 0x0 KECCAK256 PUSH1 0x1 ADD DUP2 SWAP1 SSTORE POP POP JUMP JUMPDEST PUSH1 0x0 DUP1 DUP3 PUSH20 0xFFFFFFFFFFFFFFFFFFFFFFFFFFFFFFFFFFFFFFFF AND EXTCODESIZE GT SWAP1 POP SWAP2 SWAP1 POP JUMP JUMPDEST PUSH1 0x0 PUSH20 0xFFFFFFFFFFFFFFFFFFFFFFFFFFFFFFFFFFFFFFFF AND DUP2 PUSH20 0xFFFFFFFFFFFFFFFFFFFFFFFFFFFFFFFFFFFFFFFF AND EQ ISZERO DUP1 ISZERO PUSH2 0x289B JUMPI POP PUSH1 0x0 DUP2 PUSH20 0xFFFFFFFFFFFFFFFFFFFFFFFFFFFFFFFFFFFFFFFF AND PUSH4 0x18160DDD PUSH1 0x40 MLOAD DUP2 PUSH4 0xFFFFFFFF AND PUSH1 0xE0 SHL DUP2 MSTORE PUSH1 0x4 ADD PUSH1 0x20 PUSH1 0x40 MLOAD DUP1 DUP4 SUB DUP2 DUP7 GAS STATICCALL ISZERO DUP1 ISZERO PUSH2 0x2875 JUMPI RETURNDATASIZE PUSH1 0x0 DUP1 RETURNDATACOPY RETURNDATASIZE PUSH1 0x0 REVERT JUMPDEST POP POP POP POP PUSH1 0x40 MLOAD RETURNDATASIZE PUSH1 0x1F NOT PUSH1 0x1F DUP3 ADD AND DUP3 ADD DUP1 PUSH1 0x40 MSTORE POP DUP2 ADD SWAP1 PUSH2 0x2899 SWAP2 SWAP1 PUSH2 0x420A JUMP JUMPDEST LT JUMPDEST ISZERO PUSH2 0x28D2 JUMPI PUSH1 0x40 MLOAD PUSH32 0xD0995CF200000000000000000000000000000000000000000000000000000000 DUP2 MSTORE PUSH1 0x4 ADD PUSH1 0x40 MLOAD DUP1 SWAP2 SUB SWAP1 REVERT JUMPDEST POP JUMP JUMPDEST PUSH1 0x0 DUP2 PUSH20 0xFFFFFFFFFFFFFFFFFFFFFFFFFFFFFFFFFFFFFFFF AND PUSH2 0x1046 PUSH1 0x0 DUP6 DUP2 MSTORE PUSH1 0x20 ADD SWAP1 DUP2 MSTORE PUSH1 0x20 ADD PUSH1 0x0 KECCAK256 PUSH1 0x0 SWAP1 SLOAD SWAP1 PUSH2 0x100 EXP SWAP1 DIV PUSH20 0xFFFFFFFFFFFFFFFFFFFFFFFFFFFFFFFFFFFFFFFF AND PUSH20 0xFFFFFFFFFFFFFFFFFFFFFFFFFFFFFFFFFFFFFFFF AND EQ DUP1 PUSH2 0x29E4 JUMPI POP DUP2 PUSH20 0xFFFFFFFFFFFFFFFFFFFFFFFFFFFFFFFFFFFFFFFF AND PUSH2 0x2960 DUP5 PUSH2 0xFF4 JUMP JUMPDEST PUSH20 0xFFFFFFFFFFFFFFFFFFFFFFFFFFFFFFFFFFFFFFFF AND EQ DUP1 ISZERO PUSH2 0x29E3 JUMPI POP PUSH1 0x0 PUSH20 0xFFFFFFFFFFFFFFFFFFFFFFFFFFFFFFFFFFFFFFFF AND PUSH2 0x1046 PUSH1 0x0 DUP6 DUP2 MSTORE PUSH1 0x20 ADD SWAP1 DUP2 MSTORE PUSH1 0x20 ADD PUSH1 0x0 KECCAK256 PUSH1 0x0 SWAP1 SLOAD SWAP1 PUSH2 0x100 EXP SWAP1 DIV PUSH20 0xFFFFFFFFFFFFFFFFFFFFFFFFFFFFFFFFFFFFFFFF AND PUSH20 0xFFFFFFFFFFFFFFFFFFFFFFFFFFFFFFFFFFFFFFFF AND EQ JUMPDEST JUMPDEST ISZERO PUSH2 0x29F2 JUMPI PUSH1 0x1 SWAP1 POP PUSH2 0x29F7 JUMP JUMPDEST PUSH1 0x0 SWAP1 POP JUMPDEST SWAP3 SWAP2 POP POP JUMP JUMPDEST DUP1 PUSH20 0xFFFFFFFFFFFFFFFFFFFFFFFFFFFFFFFFFFFFFFFF AND PUSH2 0x1046 PUSH1 0x0 DUP5 DUP2 MSTORE PUSH1 0x20 ADD SWAP1 DUP2 MSTORE PUSH1 0x20 ADD PUSH1 0x0 KECCAK256 PUSH1 0x0 SWAP1 SLOAD SWAP1 PUSH2 0x100 EXP SWAP1 DIV PUSH20 0xFFFFFFFFFFFFFFFFFFFFFFFFFFFFFFFFFFFFFFFF AND PUSH20 0xFFFFFFFFFFFFFFFFFFFFFFFFFFFFFFFFFFFFFFFF AND EQ PUSH2 0x2B05 JUMPI DUP1 PUSH2 0x1046 PUSH1 0x0 DUP5 DUP2 MSTORE PUSH1 0x20 ADD SWAP1 DUP2 MSTORE PUSH1 0x20 ADD PUSH1 0x0 KECCAK256 PUSH1 0x0 PUSH2 0x100 EXP DUP2 SLOAD DUP2 PUSH20 0xFFFFFFFFFFFFFFFFFFFFFFFFFFFFFFFFFFFFFFFF MUL NOT AND SWAP1 DUP4 PUSH20 0xFFFFFFFFFFFFFFFFFFFFFFFFFFFFFFFFFFFFFFFF AND MUL OR SWAP1 SSTORE POP PUSH2 0x2AC0 DUP3 PUSH2 0x2C31 JUMP JUMPDEST DUP1 PUSH20 0xFFFFFFFFFFFFFFFFFFFFFFFFFFFFFFFFFFFFFFFF AND DUP3 PUSH32 0x9D2895C45A420624DE863A2F437B022D879F457BF7A829044055A10C5A6FD5E3 PUSH1 0x40 MLOAD PUSH1 0x40 MLOAD DUP1 SWAP2 SUB SWAP1 LOG3 JUMPDEST POP POP JUMP JUMPDEST PUSH1 0x0 DUP2 GT ISZERO PUSH2 0x2BA7 JUMPI PUSH1 0x0 PUSH20 0xFFFFFFFFFFFFFFFFFFFFFFFFFFFFFFFFFFFFFFFF AND DUP4 PUSH20 0xFFFFFFFFFFFFFFFFFFFFFFFFFFFFFFFFFFFFFFFF AND SUB PUSH2 0x2B74 JUMPI PUSH2 0x2B6F DUP2 DUP4 PUSH20 0xFFFFFFFFFFFFFFFFFFFFFFFFFFFFFFFFFFFFFFFF AND PUSH2 0x2CF1 SWAP1 SWAP2 SWAP1 PUSH4 0xFFFFFFFF AND JUMP JUMPDEST PUSH2 0x2BA6 JUMP JUMPDEST PUSH1 0x0 DUP4 SWAP1 POP PUSH2 0x2BA4 DUP4 DUP4 DUP4 PUSH20 0xFFFFFFFFFFFFFFFFFFFFFFFFFFFFFFFFFFFFFFFF AND PUSH2 0x2DE5 SWAP1 SWAP3 SWAP2 SWAP1 PUSH4 0xFFFFFFFF AND JUMP JUMPDEST POP JUMPDEST JUMPDEST POP POP POP JUMP JUMPDEST PUSH2 0x2BB6 DUP3 DUP3 PUSH2 0x1A42 JUMP JUMPDEST PUSH2 0x2C2D JUMPI PUSH2 0x2BC3 DUP2 PUSH2 0x2E6B JUMP JUMPDEST PUSH2 0x2BD1 DUP4 PUSH1 0x0 SHR PUSH1 0x20 PUSH2 0x2E98 JUMP JUMPDEST PUSH1 0x40 MLOAD PUSH1 0x20 ADD PUSH2 0x2BE2 SWAP3 SWAP2 SWAP1 PUSH2 0x43AB JUMP JUMPDEST PUSH1 0x40 MLOAD PUSH1 0x20 DUP2 DUP4 SUB SUB DUP2 MSTORE SWAP1 PUSH1 0x40 MSTORE PUSH1 0x40 MLOAD PUSH32 0x8C379A000000000000000000000000000000000000000000000000000000000 DUP2 MSTORE PUSH1 0x4 ADD PUSH2 0x2C24 SWAP2 SWAP1 PUSH2 0x442F JUMP JUMPDEST PUSH1 0x40 MLOAD DUP1 SWAP2 SUB SWAP1 REVERT JUMPDEST POP POP JUMP JUMPDEST PUSH1 0x0 PUSH20 0xFFFFFFFFFFFFFFFFFFFFFFFFFFFFFFFFFFFFFFFF AND PUSH2 0x1047 PUSH1 0x0 DUP4 DUP2 MSTORE PUSH1 0x20 ADD SWAP1 DUP2 MSTORE PUSH1 0x20 ADD PUSH1 0x0 KECCAK256 PUSH1 0x0 SWAP1 SLOAD SWAP1 PUSH2 0x100 EXP SWAP1 DIV PUSH20 0xFFFFFFFFFFFFFFFFFFFFFFFFFFFFFFFFFFFFFFFF AND PUSH20 0xFFFFFFFFFFFFFFFFFFFFFFFFFFFFFFFFFFFFFFFF AND EQ PUSH2 0x2CEE JUMPI PUSH1 0x0 PUSH2 0x1047 PUSH1 0x0 DUP4 DUP2 MSTORE PUSH1 0x20 ADD SWAP1 DUP2 MSTORE PUSH1 0x20 ADD PUSH1 0x0 KECCAK256 PUSH1 0x0 PUSH2 0x100 EXP DUP2 SLOAD DUP2 PUSH20 0xFFFFFFFFFFFFFFFFFFFFFFFFFFFFFFFFFFFFFFFF MUL NOT AND SWAP1 DUP4 PUSH20 0xFFFFFFFFFFFFFFFFFFFFFFFFFFFFFFFFFFFFFFFF AND MUL OR SWAP1 SSTORE POP JUMPDEST POP JUMP JUMPDEST DUP1 SELFBALANCE LT ISZERO PUSH2 0x2D34 JUMPI PUSH1 0x40 MLOAD PUSH32 0x8C379A000000000000000000000000000000000000000000000000000000000 DUP2 MSTORE PUSH1 0x4 ADD PUSH2 0x2D2B SWAP1 PUSH2 0x449D JUMP JUMPDEST PUSH1 0x40 MLOAD DUP1 SWAP2 SUB SWAP1 REVERT JUMPDEST PUSH1 0x0 DUP3 PUSH20 0xFFFFFFFFFFFFFFFFFFFFFFFFFFFFFFFFFFFFFFFF AND DUP3 PUSH1 0x40 MLOAD PUSH2 0x2D5A SWAP1 PUSH2 0x44EE JUMP JUMPDEST PUSH1 0x0 PUSH1 0x40 MLOAD DUP1 DUP4 SUB DUP2 DUP6 DUP8 GAS CALL SWAP3 POP POP POP RETURNDATASIZE DUP1 PUSH1 0x0 DUP2 EQ PUSH2 0x2D97 JUMPI PUSH1 0x40 MLOAD SWAP2 POP PUSH1 0x1F NOT PUSH1 0x3F RETURNDATASIZE ADD AND DUP3 ADD PUSH1 0x40 MSTORE RETURNDATASIZE DUP3 MSTORE RETURNDATASIZE PUSH1 0x0 PUSH1 0x20 DUP5 ADD RETURNDATACOPY PUSH2 0x2D9C JUMP JUMPDEST PUSH1 0x60 SWAP2 POP JUMPDEST POP POP SWAP1 POP DUP1 PUSH2 0x2DE0 JUMPI PUSH1 0x40 MLOAD PUSH32 0x8C379A000000000000000000000000000000000000000000000000000000000 DUP2 MSTORE PUSH1 0x4 ADD PUSH2 0x2DD7 SWAP1 PUSH2 0x4575 JUMP JUMPDEST PUSH1 0x40 MLOAD DUP1 SWAP2 SUB SWAP1 REVERT JUMPDEST POP POP POP JUMP JUMPDEST PUSH2 0x2E66 DUP4 PUSH4 0xA9059CBB PUSH1 0xE0 SHL DUP5 DUP5 PUSH1 0x40 MLOAD PUSH1 0x24 ADD PUSH2 0x2E04 SWAP3 SWAP2 SWAP1 PUSH2 0x4595 JUMP JUMPDEST PUSH1 0x40 MLOAD PUSH1 0x20 DUP2 DUP4 SUB SUB DUP2 MSTORE SWAP1 PUSH1 0x40 MSTORE SWAP1 PUSH28 0xFFFFFFFFFFFFFFFFFFFFFFFFFFFFFFFFFFFFFFFFFFFFFFFFFFFFFFFF NOT AND PUSH1 0x20 DUP3 ADD DUP1 MLOAD PUSH28 0xFFFFFFFFFFFFFFFFFFFFFFFFFFFFFFFFFFFFFFFFFFFFFFFFFFFFFFFF DUP4 DUP2 DUP4 AND OR DUP4 MSTORE POP POP POP POP PUSH2 0x30D4 JUMP JUMPDEST POP POP POP JUMP JUMPDEST PUSH1 0x60 PUSH2 0x2E91 DUP3 PUSH20 0xFFFFFFFFFFFFFFFFFFFFFFFFFFFFFFFFFFFFFFFF AND PUSH1 0x14 PUSH1 0xFF AND PUSH2 0x2E98 JUMP JUMPDEST SWAP1 POP SWAP2 SWAP1 POP JUMP JUMPDEST PUSH1 0x60 PUSH1 0x0 PUSH1 0x2 DUP4 PUSH1 0x2 PUSH2 0x2EAB SWAP2 SWAP1 PUSH2 0x45BE JUMP JUMPDEST PUSH2 0x2EB5 SWAP2 SWAP1 PUSH2 0x4237 JUMP JUMPDEST PUSH8 0xFFFFFFFFFFFFFFFF DUP2 GT ISZERO PUSH2 0x2ECE JUMPI PUSH2 0x2ECD PUSH2 0x4600 JUMP JUMPDEST JUMPDEST PUSH1 0x40 MLOAD SWAP1 DUP1 DUP3 MSTORE DUP1 PUSH1 0x1F ADD PUSH1 0x1F NOT AND PUSH1 0x20 ADD DUP3 ADD PUSH1 0x40 MSTORE DUP1 ISZERO PUSH2 0x2F00 JUMPI DUP2 PUSH1 0x20 ADD PUSH1 0x1 DUP3 MUL DUP1 CALLDATASIZE DUP4 CALLDATACOPY DUP1 DUP3 ADD SWAP2 POP POP SWAP1 POP JUMPDEST POP SWAP1 POP PUSH32 0x3000000000000000000000000000000000000000000000000000000000000000 DUP2 PUSH1 0x0 DUP2 MLOAD DUP2 LT PUSH2 0x2F38 JUMPI PUSH2 0x2F37 PUSH2 0x462F JUMP JUMPDEST JUMPDEST PUSH1 0x20 ADD ADD SWAP1 PUSH31 0xFFFFFFFFFFFFFFFFFFFFFFFFFFFFFFFFFFFFFFFFFFFFFFFFFFFFFFFFFFFFFF NOT AND SWAP1 DUP2 PUSH1 0x0 BYTE SWAP1 MSTORE8 POP PUSH32 0x7800000000000000000000000000000000000000000000000000000000000000 DUP2 PUSH1 0x1 DUP2 MLOAD DUP2 LT PUSH2 0x2F9C JUMPI PUSH2 0x2F9B PUSH2 0x462F JUMP JUMPDEST JUMPDEST PUSH1 0x20 ADD ADD SWAP1 PUSH31 0xFFFFFFFFFFFFFFFFFFFFFFFFFFFFFFFFFFFFFFFFFFFFFFFFFFFFFFFFFFFFFF NOT AND SWAP1 DUP2 PUSH1 0x0 BYTE SWAP1 MSTORE8 POP PUSH1 0x0 PUSH1 0x1 DUP5 PUSH1 0x2 PUSH2 0x2FDC SWAP2 SWAP1 PUSH2 0x45BE JUMP JUMPDEST PUSH2 0x2FE6 SWAP2 SWAP1 PUSH2 0x4237 JUMP JUMPDEST SWAP1 POP JUMPDEST PUSH1 0x1 DUP2 GT ISZERO PUSH2 0x3086 JUMPI PUSH32 0x3031323334353637383961626364656600000000000000000000000000000000 PUSH1 0xF DUP7 AND PUSH1 0x10 DUP2 LT PUSH2 0x3028 JUMPI PUSH2 0x3027 PUSH2 0x462F JUMP JUMPDEST JUMPDEST BYTE PUSH1 0xF8 SHL DUP3 DUP3 DUP2 MLOAD DUP2 LT PUSH2 0x303F JUMPI PUSH2 0x303E PUSH2 0x462F JUMP JUMPDEST JUMPDEST PUSH1 0x20 ADD ADD SWAP1 PUSH31 0xFFFFFFFFFFFFFFFFFFFFFFFFFFFFFFFFFFFFFFFFFFFFFFFFFFFFFFFFFFFFFF NOT AND SWAP1 DUP2 PUSH1 0x0 BYTE SWAP1 MSTORE8 POP PUSH1 0x4 DUP6 SWAP1 SHR SWAP5 POP DUP1 PUSH2 0x307F SWAP1 PUSH2 0x465E JUMP JUMPDEST SWAP1 POP PUSH2 0x2FE9 JUMP JUMPDEST POP PUSH1 0x0 DUP5 EQ PUSH2 0x30CA JUMPI PUSH1 0x40 MLOAD PUSH32 0x8C379A000000000000000000000000000000000000000000000000000000000 DUP2 MSTORE PUSH1 0x4 ADD PUSH2 0x30C1 SWAP1 PUSH2 0x46D3 JUMP JUMPDEST PUSH1 0x40 MLOAD DUP1 SWAP2 SUB SWAP1 REVERT JUMPDEST DUP1 SWAP2 POP POP SWAP3 SWAP2 POP POP JUMP JUMPDEST PUSH1 0x0 PUSH2 0x3136 DUP3 PUSH1 0x40 MLOAD DUP1 PUSH1 0x40 ADD PUSH1 0x40 MSTORE DUP1 PUSH1 0x20 DUP2 MSTORE PUSH1 0x20 ADD PUSH32 0x5361666545524332303A206C6F772D6C6576656C2063616C6C206661696C6564 DUP2 MSTORE POP DUP6 PUSH20 0xFFFFFFFFFFFFFFFFFFFFFFFFFFFFFFFFFFFFFFFF AND PUSH2 0x319B SWAP1 SWAP3 SWAP2 SWAP1 PUSH4 0xFFFFFFFF AND JUMP JUMPDEST SWAP1 POP PUSH1 0x0 DUP2 MLOAD GT ISZERO PUSH2 0x3196 JUMPI DUP1 DUP1 PUSH1 0x20 ADD SWAP1 MLOAD DUP2 ADD SWAP1 PUSH2 0x3156 SWAP2 SWAP1 PUSH2 0x3D6C JUMP JUMPDEST PUSH2 0x3195 JUMPI PUSH1 0x40 MLOAD PUSH32 0x8C379A000000000000000000000000000000000000000000000000000000000 DUP2 MSTORE PUSH1 0x4 ADD PUSH2 0x318C SWAP1 PUSH2 0x4765 JUMP JUMPDEST PUSH1 0x40 MLOAD DUP1 SWAP2 SUB SWAP1 REVERT JUMPDEST JUMPDEST POP POP POP JUMP JUMPDEST PUSH1 0x60 PUSH2 0x31AA DUP5 DUP5 PUSH1 0x0 DUP6 PUSH2 0x31B3 JUMP JUMPDEST SWAP1 POP SWAP4 SWAP3 POP POP POP JUMP JUMPDEST PUSH1 0x60 DUP3 SELFBALANCE LT ISZERO PUSH2 0x31F8 JUMPI PUSH1 0x40 MLOAD PUSH32 0x8C379A000000000000000000000000000000000000000000000000000000000 DUP2 MSTORE PUSH1 0x4 ADD PUSH2 0x31EF SWAP1 PUSH2 0x47F7 JUMP JUMPDEST PUSH1 0x40 MLOAD DUP1 SWAP2 SUB SWAP1 REVERT JUMPDEST PUSH1 0x0 DUP1 DUP7 PUSH20 0xFFFFFFFFFFFFFFFFFFFFFFFFFFFFFFFFFFFFFFFF AND DUP6 DUP8 PUSH1 0x40 MLOAD PUSH2 0x3221 SWAP2 SWAP1 PUSH2 0x4853 JUMP JUMPDEST PUSH1 0x0 PUSH1 0x40 MLOAD DUP1 DUP4 SUB DUP2 DUP6 DUP8 GAS CALL SWAP3 POP POP POP RETURNDATASIZE DUP1 PUSH1 0x0 DUP2 EQ PUSH2 0x325E JUMPI PUSH1 0x40 MLOAD SWAP2 POP PUSH1 0x1F NOT PUSH1 0x3F RETURNDATASIZE ADD AND DUP3 ADD PUSH1 0x40 MSTORE RETURNDATASIZE DUP3 MSTORE RETURNDATASIZE PUSH1 0x0 PUSH1 0x20 DUP5 ADD RETURNDATACOPY PUSH2 0x3263 JUMP JUMPDEST PUSH1 0x60 SWAP2 POP JUMPDEST POP SWAP2 POP SWAP2 POP PUSH2 0x3274 DUP8 DUP4 DUP4 DUP8 PUSH2 0x3280 JUMP JUMPDEST SWAP3 POP POP POP SWAP5 SWAP4 POP POP POP POP JUMP JUMPDEST PUSH1 0x60 DUP4 ISZERO PUSH2 0x32E2 JUMPI PUSH1 0x0 DUP4 MLOAD SUB PUSH2 0x32DA JUMPI PUSH2 0x329A DUP6 PUSH2 0x27CD JUMP JUMPDEST PUSH2 0x32D9 JUMPI PUSH1 0x40 MLOAD PUSH32 0x8C379A000000000000000000000000000000000000000000000000000000000 DUP2 MSTORE PUSH1 0x4 ADD PUSH2 0x32D0 SWAP1 PUSH2 0x48B6 JUMP JUMPDEST PUSH1 0x40 MLOAD DUP1 SWAP2 SUB SWAP1 REVERT JUMPDEST JUMPDEST DUP3 SWAP1 POP PUSH2 0x32ED JUMP JUMPDEST PUSH2 0x32EC DUP4 DUP4 PUSH2 0x32F5 JUMP JUMPDEST JUMPDEST SWAP5 SWAP4 POP POP POP POP JUMP JUMPDEST PUSH1 0x0 DUP3 MLOAD GT ISZERO PUSH2 0x3308 JUMPI DUP2 MLOAD DUP1 DUP4 PUSH1 0x20 ADD REVERT JUMPDEST DUP1 PUSH1 0x40 MLOAD PUSH32 0x8C379A000000000000000000000000000000000000000000000000000000000 DUP2 MSTORE PUSH1 0x4 ADD PUSH2 0x333C SWAP2 SWAP1 PUSH2 0x442F JUMP JUMPDEST PUSH1 0x40 MLOAD DUP1 SWAP2 SUB SWAP1 REVERT JUMPDEST PUSH1 0x0 DUP1 REVERT JUMPDEST PUSH1 0x0 DUP1 REVERT JUMPDEST PUSH1 0x0 PUSH32 0xFFFFFFFF00000000000000000000000000000000000000000000000000000000 DUP3 AND SWAP1 POP SWAP2 SWAP1 POP JUMP JUMPDEST PUSH2 0x3384 DUP2 PUSH2 0x334F JUMP JUMPDEST DUP2 EQ PUSH2 0x338F JUMPI PUSH1 0x0 DUP1 REVERT JUMPDEST POP JUMP JUMPDEST PUSH1 0x0 DUP2 CALLDATALOAD SWAP1 POP PUSH2 0x33A1 DUP2 PUSH2 0x337B JUMP JUMPDEST SWAP3 SWAP2 POP POP JUMP JUMPDEST PUSH1 0x0 PUSH1 0x20 DUP3 DUP5 SUB SLT ISZERO PUSH2 0x33BD JUMPI PUSH2 0x33BC PUSH2 0x3345 JUMP JUMPDEST JUMPDEST PUSH1 0x0 PUSH2 0x33CB DUP5 DUP3 DUP6 ADD PUSH2 0x3392 JUMP JUMPDEST SWAP2 POP POP SWAP3 SWAP2 POP POP JUMP JUMPDEST PUSH1 0x0 DUP2 ISZERO ISZERO SWAP1 POP SWAP2 SWAP1 POP JUMP JUMPDEST PUSH2 0x33E9 DUP2 PUSH2 0x33D4 JUMP JUMPDEST DUP3 MSTORE POP POP JUMP JUMPDEST PUSH1 0x0 PUSH1 0x20 DUP3 ADD SWAP1 POP PUSH2 0x3404 PUSH1 0x0 DUP4 ADD DUP5 PUSH2 0x33E0 JUMP JUMPDEST SWAP3 SWAP2 POP POP JUMP JUMPDEST PUSH1 0x0 DUP2 SWAP1 POP SWAP2 SWAP1 POP JUMP JUMPDEST PUSH2 0x341D DUP2 PUSH2 0x340A JUMP JUMPDEST DUP2 EQ PUSH2 0x3428 JUMPI PUSH1 0x0 DUP1 REVERT JUMPDEST POP JUMP JUMPDEST PUSH1 0x0 DUP2 CALLDATALOAD SWAP1 POP PUSH2 0x343A DUP2 PUSH2 0x3414 JUMP JUMPDEST SWAP3 SWAP2 POP POP JUMP JUMPDEST PUSH1 0x0 DUP1 PUSH1 0x0 PUSH1 0x60 DUP5 DUP7 SUB SLT ISZERO PUSH2 0x3459 JUMPI PUSH2 0x3458 PUSH2 0x3345 JUMP JUMPDEST JUMPDEST PUSH1 0x0 PUSH2 0x3467 DUP7 DUP3 DUP8 ADD PUSH2 0x342B JUMP JUMPDEST SWAP4 POP POP PUSH1 0x20 PUSH2 0x3478 DUP7 DUP3 DUP8 ADD PUSH2 0x342B JUMP JUMPDEST SWAP3 POP POP PUSH1 0x40 PUSH2 0x3489 DUP7 DUP3 DUP8 ADD PUSH2 0x342B JUMP JUMPDEST SWAP2 POP POP SWAP3 POP SWAP3 POP SWAP3 JUMP JUMPDEST PUSH1 0x0 PUSH1 0x20 DUP3 DUP5 SUB SLT ISZERO PUSH2 0x34A9 JUMPI PUSH2 0x34A8 PUSH2 0x3345 JUMP JUMPDEST JUMPDEST PUSH1 0x0 PUSH2 0x34B7 DUP5 DUP3 DUP6 ADD PUSH2 0x342B JUMP JUMPDEST SWAP2 POP POP SWAP3 SWAP2 POP POP JUMP JUMPDEST PUSH1 0x0 PUSH20 0xFFFFFFFFFFFFFFFFFFFFFFFFFFFFFFFFFFFFFFFF DUP3 AND SWAP1 POP SWAP2 SWAP1 POP JUMP JUMPDEST PUSH1 0x0 PUSH2 0x34EB DUP3 PUSH2 0x34C0 JUMP JUMPDEST SWAP1 POP SWAP2 SWAP1 POP JUMP JUMPDEST PUSH2 0x34FB DUP2 PUSH2 0x34E0 JUMP JUMPDEST DUP3 MSTORE POP POP JUMP JUMPDEST PUSH1 0x0 PUSH1 0x20 DUP3 ADD SWAP1 POP PUSH2 0x3516 PUSH1 0x0 DUP4 ADD DUP5 PUSH2 0x34F2 JUMP JUMPDEST SWAP3 SWAP2 POP POP JUMP JUMPDEST PUSH2 0x3525 DUP2 PUSH2 0x34E0 JUMP JUMPDEST DUP2 EQ PUSH2 0x3530 JUMPI PUSH1 0x0 DUP1 REVERT JUMPDEST POP JUMP JUMPDEST PUSH1 0x0 DUP2 CALLDATALOAD SWAP1 POP PUSH2 0x3542 DUP2 PUSH2 0x351C JUMP JUMPDEST SWAP3 SWAP2 POP POP JUMP JUMPDEST PUSH1 0x0 DUP1 PUSH1 0x40 DUP4 DUP6 SUB SLT ISZERO PUSH2 0x355F JUMPI PUSH2 0x355E PUSH2 0x3345 JUMP JUMPDEST JUMPDEST PUSH1 0x0 PUSH2 0x356D DUP6 DUP3 DUP7 ADD PUSH2 0x3533 JUMP JUMPDEST SWAP3 POP POP PUSH1 0x20 PUSH2 0x357E DUP6 DUP3 DUP7 ADD PUSH2 0x342B JUMP JUMPDEST SWAP2 POP POP SWAP3 POP SWAP3 SWAP1 POP JUMP JUMPDEST PUSH1 0x0 DUP2 SWAP1 POP SWAP2 SWAP1 POP JUMP JUMPDEST PUSH1 0x0 PUSH2 0x35AD PUSH2 0x35A8 PUSH2 0x35A3 DUP5 PUSH2 0x34C0 JUMP JUMPDEST PUSH2 0x3588 JUMP JUMPDEST PUSH2 0x34C0 JUMP JUMPDEST SWAP1 POP SWAP2 SWAP1 POP JUMP JUMPDEST PUSH1 0x0 PUSH2 0x35BF DUP3 PUSH2 0x3592 JUMP JUMPDEST SWAP1 POP SWAP2 SWAP1 POP JUMP JUMPDEST PUSH1 0x0 PUSH2 0x35D1 DUP3 PUSH2 0x35B4 JUMP JUMPDEST SWAP1 POP SWAP2 SWAP1 POP JUMP JUMPDEST PUSH2 0x35E1 DUP2 PUSH2 0x35C6 JUMP JUMPDEST DUP3 MSTORE POP POP JUMP JUMPDEST PUSH1 0x0 PUSH1 0x20 DUP3 ADD SWAP1 POP PUSH2 0x35FC PUSH1 0x0 DUP4 ADD DUP5 PUSH2 0x35D8 JUMP JUMPDEST SWAP3 SWAP2 POP POP JUMP JUMPDEST PUSH2 0x360B DUP2 PUSH2 0x340A JUMP JUMPDEST DUP3 MSTORE POP POP JUMP JUMPDEST PUSH1 0x0 PUSH1 0x20 DUP3 ADD SWAP1 POP PUSH2 0x3626 PUSH1 0x0 DUP4 ADD DUP5 PUSH2 0x3602 JUMP JUMPDEST SWAP3 SWAP2 POP POP JUMP JUMPDEST PUSH1 0x0 PUSH2 0x3637 DUP3 PUSH2 0x35B4 JUMP JUMPDEST SWAP1 POP SWAP2 SWAP1 POP JUMP JUMPDEST PUSH2 0x3647 DUP2 PUSH2 0x362C JUMP JUMPDEST DUP3 MSTORE POP POP JUMP JUMPDEST PUSH1 0x0 PUSH1 0x20 DUP3 ADD SWAP1 POP PUSH2 0x3662 PUSH1 0x0 DUP4 ADD DUP5 PUSH2 0x363E JUMP JUMPDEST SWAP3 SWAP2 POP POP JUMP JUMPDEST PUSH1 0x0 DUP2 SWAP1 POP SWAP2 SWAP1 POP JUMP JUMPDEST PUSH2 0x367B DUP2 PUSH2 0x3668 JUMP JUMPDEST DUP2 EQ PUSH2 0x3686 JUMPI PUSH1 0x0 DUP1 REVERT JUMPDEST POP JUMP JUMPDEST PUSH1 0x0 DUP2 CALLDATALOAD SWAP1 POP PUSH2 0x3698 DUP2 PUSH2 0x3672 JUMP JUMPDEST SWAP3 SWAP2 POP POP JUMP JUMPDEST PUSH1 0x0 PUSH1 0x20 DUP3 DUP5 SUB SLT ISZERO PUSH2 0x36B4 JUMPI PUSH2 0x36B3 PUSH2 0x3345 JUMP JUMPDEST JUMPDEST PUSH1 0x0 PUSH2 0x36C2 DUP5 DUP3 DUP6 ADD PUSH2 0x3689 JUMP JUMPDEST SWAP2 POP POP SWAP3 SWAP2 POP POP JUMP JUMPDEST PUSH2 0x36D4 DUP2 PUSH2 0x3668 JUMP JUMPDEST DUP3 MSTORE POP POP JUMP JUMPDEST PUSH1 0x0 PUSH1 0x20 DUP3 ADD SWAP1 POP PUSH2 0x36EF PUSH1 0x0 DUP4 ADD DUP5 PUSH2 0x36CB JUMP JUMPDEST SWAP3 SWAP2 POP POP JUMP JUMPDEST PUSH1 0x0 PUSH2 0x3700 DUP3 PUSH2 0x35B4 JUMP JUMPDEST SWAP1 POP SWAP2 SWAP1 POP JUMP JUMPDEST PUSH2 0x3710 DUP2 PUSH2 0x36F5 JUMP JUMPDEST DUP3 MSTORE POP POP JUMP JUMPDEST PUSH1 0x0 PUSH1 0x20 DUP3 ADD SWAP1 POP PUSH2 0x372B PUSH1 0x0 DUP4 ADD DUP5 PUSH2 0x3707 JUMP JUMPDEST SWAP3 SWAP2 POP POP JUMP JUMPDEST PUSH1 0x0 PUSH2 0x373C DUP3 PUSH2 0x35B4 JUMP JUMPDEST SWAP1 POP SWAP2 SWAP1 POP JUMP JUMPDEST PUSH2 0x374C DUP2 PUSH2 0x3731 JUMP JUMPDEST DUP3 MSTORE POP POP JUMP JUMPDEST PUSH1 0x0 PUSH1 0x20 DUP3 ADD SWAP1 POP PUSH2 0x3767 PUSH1 0x0 DUP4 ADD DUP5 PUSH2 0x3743 JUMP JUMPDEST SWAP3 SWAP2 POP POP JUMP JUMPDEST PUSH1 0x0 DUP1 PUSH1 0x40 DUP4 DUP6 SUB SLT ISZERO PUSH2 0x3784 JUMPI PUSH2 0x3783 PUSH2 0x3345 JUMP JUMPDEST JUMPDEST PUSH1 0x0 PUSH2 0x3792 DUP6 DUP3 DUP7 ADD PUSH2 0x3689 JUMP JUMPDEST SWAP3 POP POP PUSH1 0x20 PUSH2 0x37A3 DUP6 DUP3 DUP7 ADD PUSH2 0x3533 JUMP JUMPDEST SWAP2 POP POP SWAP3 POP SWAP3 SWAP1 POP JUMP JUMPDEST PUSH1 0x0 PUSH2 0x37B8 DUP3 PUSH2 0x35B4 JUMP JUMPDEST SWAP1 POP SWAP2 SWAP1 POP JUMP JUMPDEST PUSH2 0x37C8 DUP2 PUSH2 0x37AD JUMP JUMPDEST DUP3 MSTORE POP POP JUMP JUMPDEST PUSH1 0x0 PUSH1 0x20 DUP3 ADD SWAP1 POP PUSH2 0x37E3 PUSH1 0x0 DUP4 ADD DUP5 PUSH2 0x37BF JUMP JUMPDEST SWAP3 SWAP2 POP POP JUMP JUMPDEST PUSH1 0x0 PUSH1 0x20 DUP3 DUP5 SUB SLT ISZERO PUSH2 0x37FF JUMPI PUSH2 0x37FE PUSH2 0x3345 JUMP JUMPDEST JUMPDEST PUSH1 0x0 PUSH2 0x380D DUP5 DUP3 DUP6 ADD PUSH2 0x3533 JUMP JUMPDEST SWAP2 POP POP SWAP3 SWAP2 POP POP JUMP JUMPDEST PUSH1 0x0 DUP1 PUSH1 0x0 DUP1 PUSH1 0x0 DUP1 PUSH1 0x0 PUSH1 0xE0 DUP9 DUP11 SUB SLT ISZERO PUSH2 0x3835 JUMPI PUSH2 0x3834 PUSH2 0x3345 JUMP JUMPDEST JUMPDEST PUSH1 0x0 PUSH2 0x3843 DUP11 DUP3 DUP12 ADD PUSH2 0x3533 JUMP JUMPDEST SWAP8 POP POP PUSH1 0x20 PUSH2 0x3854 DUP11 DUP3 DUP12 ADD PUSH2 0x3533 JUMP JUMPDEST SWAP7 POP POP PUSH1 0x40 PUSH2 0x3865 DUP11 DUP3 DUP12 ADD PUSH2 0x3533 JUMP JUMPDEST SWAP6 POP POP PUSH1 0x60 PUSH2 0x3876 DUP11 DUP3 DUP12 ADD PUSH2 0x3533 JUMP JUMPDEST SWAP5 POP POP PUSH1 0x80 PUSH2 0x3887 DUP11 DUP3 DUP12 ADD PUSH2 0x3533 JUMP JUMPDEST SWAP4 POP POP PUSH1 0xA0 PUSH2 0x3898 DUP11 DUP3 DUP12 ADD PUSH2 0x3533 JUMP JUMPDEST SWAP3 POP POP PUSH1 0xC0 PUSH2 0x38A9 DUP11 DUP3 DUP12 ADD PUSH2 0x3533 JUMP JUMPDEST SWAP2 POP POP SWAP3 SWAP6 SWAP9 SWAP2 SWAP5 SWAP8 POP SWAP3 SWAP6 POP JUMP JUMPDEST PUSH1 0x0 PUSH2 0x38C3 DUP3 PUSH2 0x35B4 JUMP JUMPDEST SWAP1 POP SWAP2 SWAP1 POP JUMP JUMPDEST PUSH2 0x38D3 DUP2 PUSH2 0x38B8 JUMP JUMPDEST DUP3 MSTORE POP POP JUMP JUMPDEST PUSH1 0x0 PUSH1 0x20 DUP3 ADD SWAP1 POP PUSH2 0x38EE PUSH1 0x0 DUP4 ADD DUP5 PUSH2 0x38CA JUMP JUMPDEST SWAP3 SWAP2 POP POP JUMP JUMPDEST PUSH1 0x0 DUP1 REVERT JUMPDEST PUSH1 0x0 DUP1 REVERT JUMPDEST PUSH1 0x0 DUP1 REVERT JUMPDEST PUSH1 0x0 DUP1 DUP4 PUSH1 0x1F DUP5 ADD SLT PUSH2 0x3919 JUMPI PUSH2 0x3918 PUSH2 0x38F4 JUMP JUMPDEST JUMPDEST DUP3 CALLDATALOAD SWAP1 POP PUSH8 0xFFFFFFFFFFFFFFFF DUP2 GT ISZERO PUSH2 0x3936 JUMPI PUSH2 0x3935 PUSH2 0x38F9 JUMP JUMPDEST JUMPDEST PUSH1 0x20 DUP4 ADD SWAP2 POP DUP4 PUSH1 0x1 DUP3 MUL DUP4 ADD GT ISZERO PUSH2 0x3952 JUMPI PUSH2 0x3951 PUSH2 0x38FE JUMP JUMPDEST JUMPDEST SWAP3 POP SWAP3 SWAP1 POP JUMP JUMPDEST PUSH1 0x0 DUP1 PUSH1 0x20 DUP4 DUP6 SUB SLT ISZERO PUSH2 0x3970 JUMPI PUSH2 0x396F PUSH2 0x3345 JUMP JUMPDEST JUMPDEST PUSH1 0x0 DUP4 ADD CALLDATALOAD PUSH8 0xFFFFFFFFFFFFFFFF DUP2 GT ISZERO PUSH2 0x398E JUMPI PUSH2 0x398D PUSH2 0x334A JUMP JUMPDEST JUMPDEST PUSH2 0x399A DUP6 DUP3 DUP7 ADD PUSH2 0x3903 JUMP JUMPDEST SWAP3 POP SWAP3 POP POP SWAP3 POP SWAP3 SWAP1 POP JUMP JUMPDEST PUSH1 0x0 DUP1 PUSH1 0x40 DUP4 DUP6 SUB SLT ISZERO PUSH2 0x39BD JUMPI PUSH2 0x39BC PUSH2 0x3345 JUMP JUMPDEST JUMPDEST PUSH1 0x0 PUSH2 0x39CB DUP6 DUP3 DUP7 ADD PUSH2 0x342B JUMP JUMPDEST SWAP3 POP POP PUSH1 0x20 PUSH2 0x39DC DUP6 DUP3 DUP7 ADD PUSH2 0x3533 JUMP JUMPDEST SWAP2 POP POP SWAP3 POP SWAP3 SWAP1 POP JUMP JUMPDEST PUSH1 0x0 PUSH2 0x39F1 DUP3 PUSH2 0x35B4 JUMP JUMPDEST SWAP1 POP SWAP2 SWAP1 POP JUMP JUMPDEST PUSH2 0x3A01 DUP2 PUSH2 0x39E6 JUMP JUMPDEST DUP3 MSTORE POP POP JUMP JUMPDEST PUSH1 0x0 PUSH1 0x20 DUP3 ADD SWAP1 POP PUSH2 0x3A1C PUSH1 0x0 DUP4 ADD DUP5 PUSH2 0x39F8 JUMP JUMPDEST SWAP3 SWAP2 POP POP JUMP JUMPDEST PUSH1 0x0 PUSH2 0x3A2D DUP3 PUSH2 0x35B4 JUMP JUMPDEST SWAP1 POP SWAP2 SWAP1 POP JUMP JUMPDEST PUSH2 0x3A3D DUP2 PUSH2 0x3A22 JUMP JUMPDEST DUP3 MSTORE POP POP JUMP JUMPDEST PUSH1 0x0 PUSH1 0x20 DUP3 ADD SWAP1 POP PUSH2 0x3A58 PUSH1 0x0 DUP4 ADD DUP5 PUSH2 0x3A34 JUMP JUMPDEST SWAP3 SWAP2 POP POP JUMP JUMPDEST PUSH1 0x0 PUSH2 0xFFFF DUP3 AND SWAP1 POP SWAP2 SWAP1 POP JUMP JUMPDEST PUSH2 0x3A75 DUP2 PUSH2 0x3A5E JUMP JUMPDEST DUP3 MSTORE POP POP JUMP JUMPDEST PUSH1 0x0 PUSH1 0x20 DUP3 ADD SWAP1 POP PUSH2 0x3A90 PUSH1 0x0 DUP4 ADD DUP5 PUSH2 0x3A6C JUMP JUMPDEST SWAP3 SWAP2 POP POP JUMP JUMPDEST PUSH1 0x0 PUSH2 0x3AA1 DUP3 PUSH2 0x34C0 JUMP JUMPDEST SWAP1 POP SWAP2 SWAP1 POP JUMP JUMPDEST PUSH2 0x3AB1 DUP2 PUSH2 0x3A96 JUMP JUMPDEST DUP2 EQ PUSH2 0x3ABC JUMPI PUSH1 0x0 DUP1 REVERT JUMPDEST POP JUMP JUMPDEST PUSH1 0x0 DUP2 CALLDATALOAD SWAP1 POP PUSH2 0x3ACE DUP2 PUSH2 0x3AA8 JUMP JUMPDEST SWAP3 SWAP2 POP POP JUMP JUMPDEST PUSH1 0x0 DUP1 PUSH1 0x0 PUSH1 0x60 DUP5 DUP7 SUB SLT ISZERO PUSH2 0x3AED JUMPI PUSH2 0x3AEC PUSH2 0x3345 JUMP JUMPDEST JUMPDEST PUSH1 0x0 PUSH2 0x3AFB DUP7 DUP3 DUP8 ADD PUSH2 0x3533 JUMP JUMPDEST SWAP4 POP POP PUSH1 0x20 PUSH2 0x3B0C DUP7 DUP3 DUP8 ADD PUSH2 0x3ABF JUMP JUMPDEST SWAP3 POP POP PUSH1 0x40 PUSH2 0x3B1D DUP7 DUP3 DUP8 ADD PUSH2 0x342B JUMP JUMPDEST SWAP2 POP POP SWAP3 POP SWAP3 POP SWAP3 JUMP JUMPDEST PUSH1 0x0 DUP1 PUSH1 0x40 DUP4 DUP6 SUB SLT ISZERO PUSH2 0x3B3E JUMPI PUSH2 0x3B3D PUSH2 0x3345 JUMP JUMPDEST JUMPDEST PUSH1 0x0 PUSH2 0x3B4C DUP6 DUP3 DUP7 ADD PUSH2 0x3533 JUMP JUMPDEST SWAP3 POP POP PUSH1 0x20 PUSH2 0x3B5D DUP6 DUP3 DUP7 ADD PUSH2 0x3533 JUMP JUMPDEST SWAP2 POP POP SWAP3 POP SWAP3 SWAP1 POP JUMP JUMPDEST PUSH32 0x4E487B7100000000000000000000000000000000000000000000000000000000 PUSH1 0x0 MSTORE PUSH1 0x11 PUSH1 0x4 MSTORE PUSH1 0x24 PUSH1 0x0 REVERT JUMPDEST PUSH1 0x0 PUSH2 0x3BA1 DUP3 PUSH2 0x340A JUMP JUMPDEST SWAP2 POP PUSH2 0x3BAC DUP4 PUSH2 0x340A JUMP JUMPDEST SWAP3 POP DUP3 DUP3 SUB SWAP1 POP DUP2 DUP2 GT ISZERO PUSH2 0x3BC4 JUMPI PUSH2 0x3BC3 PUSH2 0x3B67 JUMP JUMPDEST JUMPDEST SWAP3 SWAP2 POP POP JUMP JUMPDEST PUSH1 0x0 PUSH1 0x60 DUP3 ADD SWAP1 POP PUSH2 0x3BDF PUSH1 0x0 DUP4 ADD DUP7 PUSH2 0x3602 JUMP JUMPDEST PUSH2 0x3BEC PUSH1 0x20 DUP4 ADD DUP6 PUSH2 0x3602 JUMP JUMPDEST PUSH2 0x3BF9 PUSH1 0x40 DUP4 ADD DUP5 PUSH2 0x3602 JUMP JUMPDEST SWAP5 SWAP4 POP POP POP POP JUMP JUMPDEST PUSH1 0x0 DUP3 DUP3 MSTORE PUSH1 0x20 DUP3 ADD SWAP1 POP SWAP3 SWAP2 POP POP JUMP JUMPDEST PUSH32 0x416363657373436F6E74726F6C3A2063616E206F6E6C792072656E6F756E6365 PUSH1 0x0 DUP3 ADD MSTORE PUSH32 0x20726F6C657320666F722073656C660000000000000000000000000000000000 PUSH1 0x20 DUP3 ADD MSTORE POP JUMP JUMPDEST PUSH1 0x0 PUSH2 0x3C6E PUSH1 0x2F DUP4 PUSH2 0x3C01 JUMP JUMPDEST SWAP2 POP PUSH2 0x3C79 DUP3 PUSH2 0x3C12 JUMP JUMPDEST PUSH1 0x40 DUP3 ADD SWAP1 POP SWAP2 SWAP1 POP JUMP JUMPDEST PUSH1 0x0 PUSH1 0x20 DUP3 ADD SWAP1 POP DUP2 DUP2 SUB PUSH1 0x0 DUP4 ADD MSTORE PUSH2 0x3C9D DUP2 PUSH2 0x3C61 JUMP JUMPDEST SWAP1 POP SWAP2 SWAP1 POP JUMP JUMPDEST PUSH1 0x0 DUP2 SWAP1 POP SWAP2 SWAP1 POP JUMP JUMPDEST PUSH1 0x0 PUSH2 0x3CC9 PUSH2 0x3CC4 PUSH2 0x3CBF DUP5 PUSH2 0x3CA4 JUMP JUMPDEST PUSH2 0x3588 JUMP JUMPDEST PUSH2 0x340A JUMP JUMPDEST SWAP1 POP SWAP2 SWAP1 POP JUMP JUMPDEST PUSH2 0x3CD9 DUP2 PUSH2 0x3CAE JUMP JUMPDEST DUP3 MSTORE POP POP JUMP JUMPDEST PUSH1 0x0 PUSH1 0xC0 DUP3 ADD SWAP1 POP PUSH2 0x3CF4 PUSH1 0x0 DUP4 ADD DUP10 PUSH2 0x34F2 JUMP JUMPDEST PUSH2 0x3D01 PUSH1 0x20 DUP4 ADD DUP9 PUSH2 0x34F2 JUMP JUMPDEST PUSH2 0x3D0E PUSH1 0x40 DUP4 ADD DUP8 PUSH2 0x3CD0 JUMP JUMPDEST PUSH2 0x3D1B PUSH1 0x60 DUP4 ADD DUP7 PUSH2 0x3CD0 JUMP JUMPDEST PUSH2 0x3D28 PUSH1 0x80 DUP4 ADD DUP6 PUSH2 0x34F2 JUMP JUMPDEST PUSH2 0x3D35 PUSH1 0xA0 DUP4 ADD DUP5 PUSH2 0x33E0 JUMP JUMPDEST SWAP8 SWAP7 POP POP POP POP POP POP POP JUMP JUMPDEST PUSH2 0x3D49 DUP2 PUSH2 0x33D4 JUMP JUMPDEST DUP2 EQ PUSH2 0x3D54 JUMPI PUSH1 0x0 DUP1 REVERT JUMPDEST POP JUMP JUMPDEST PUSH1 0x0 DUP2 MLOAD SWAP1 POP PUSH2 0x3D66 DUP2 PUSH2 0x3D40 JUMP JUMPDEST SWAP3 SWAP2 POP POP JUMP JUMPDEST PUSH1 0x0 PUSH1 0x20 DUP3 DUP5 SUB SLT ISZERO PUSH2 0x3D82 JUMPI PUSH2 0x3D81 PUSH2 0x3345 JUMP JUMPDEST JUMPDEST PUSH1 0x0 PUSH2 0x3D90 DUP5 DUP3 DUP6 ADD PUSH2 0x3D57 JUMP JUMPDEST SWAP2 POP POP SWAP3 SWAP2 POP POP JUMP JUMPDEST PUSH1 0x0 PUSH2 0x3DA4 DUP3 PUSH2 0x340A JUMP JUMPDEST SWAP2 POP PUSH32 0xFFFFFFFFFFFFFFFFFFFFFFFFFFFFFFFFFFFFFFFFFFFFFFFFFFFFFFFFFFFFFFFF DUP3 SUB PUSH2 0x3DD6 JUMPI PUSH2 0x3DD5 PUSH2 0x3B67 JUMP JUMPDEST JUMPDEST PUSH1 0x1 DUP3 ADD SWAP1 POP SWAP2 SWAP1 POP JUMP JUMPDEST PUSH1 0x0 PUSH1 0xFF DUP3 AND SWAP1 POP SWAP2 SWAP1 POP JUMP JUMPDEST PUSH1 0x0 PUSH2 0x3E09 PUSH2 0x3E04 PUSH2 0x3DFF DUP5 PUSH2 0x3CA4 JUMP JUMPDEST PUSH2 0x3588 JUMP JUMPDEST PUSH2 0x3DE1 JUMP JUMPDEST SWAP1 POP SWAP2 SWAP1 POP JUMP JUMPDEST PUSH2 0x3E19 DUP2 PUSH2 0x3DEE JUMP JUMPDEST DUP3 MSTORE POP POP JUMP JUMPDEST PUSH1 0x0 PUSH1 0x20 DUP3 ADD SWAP1 POP PUSH2 0x3E34 PUSH1 0x0 DUP4 ADD DUP5 PUSH2 0x3E10 JUMP JUMPDEST SWAP3 SWAP2 POP POP JUMP JUMPDEST PUSH1 0x0 DUP2 SWAP1 POP SWAP2 SWAP1 POP JUMP JUMPDEST PUSH1 0x0 PUSH2 0x3E5F PUSH2 0x3E5A PUSH2 0x3E55 DUP5 PUSH2 0x3E3A JUMP JUMPDEST PUSH2 0x3588 JUMP JUMPDEST PUSH2 0x3DE1 JUMP JUMPDEST SWAP1 POP SWAP2 SWAP1 POP JUMP JUMPDEST PUSH2 0x3E6F DUP2 PUSH2 0x3E44 JUMP JUMPDEST DUP3 MSTORE POP POP JUMP JUMPDEST PUSH1 0x0 PUSH1 0x20 DUP3 ADD SWAP1 POP PUSH2 0x3E8A PUSH1 0x0 DUP4 ADD DUP5 PUSH2 0x3E66 JUMP JUMPDEST SWAP3 SWAP2 POP POP JUMP JUMPDEST PUSH1 0x0 DUP2 SWAP1 POP SWAP2 SWAP1 POP JUMP JUMPDEST PUSH1 0x0 PUSH2 0x3EB5 PUSH2 0x3EB0 PUSH2 0x3EAB DUP5 PUSH2 0x3E90 JUMP JUMPDEST PUSH2 0x3588 JUMP JUMPDEST PUSH2 0x3DE1 JUMP JUMPDEST SWAP1 POP SWAP2 SWAP1 POP JUMP JUMPDEST PUSH2 0x3EC5 DUP2 PUSH2 0x3E9A JUMP JUMPDEST DUP3 MSTORE POP POP JUMP JUMPDEST PUSH1 0x0 PUSH1 0x20 DUP3 ADD SWAP1 POP PUSH2 0x3EE0 PUSH1 0x0 DUP4 ADD DUP5 PUSH2 0x3EBC JUMP JUMPDEST SWAP3 SWAP2 POP POP JUMP JUMPDEST PUSH1 0x0 DUP2 SWAP1 POP SWAP2 SWAP1 POP JUMP JUMPDEST PUSH1 0x0 PUSH2 0x3F0B PUSH2 0x3F06 PUSH2 0x3F01 DUP5 PUSH2 0x3EE6 JUMP JUMPDEST PUSH2 0x3588 JUMP JUMPDEST PUSH2 0x3DE1 JUMP JUMPDEST SWAP1 POP SWAP2 SWAP1 POP JUMP JUMPDEST PUSH2 0x3F1B DUP2 PUSH2 0x3EF0 JUMP JUMPDEST DUP3 MSTORE POP POP JUMP JUMPDEST PUSH1 0x0 PUSH1 0x20 DUP3 ADD SWAP1 POP PUSH2 0x3F36 PUSH1 0x0 DUP4 ADD DUP5 PUSH2 0x3F12 JUMP JUMPDEST SWAP3 SWAP2 POP POP JUMP JUMPDEST PUSH1 0x0 DUP2 SWAP1 POP SWAP2 SWAP1 POP JUMP JUMPDEST PUSH1 0x0 PUSH2 0x3F61 PUSH2 0x3F5C PUSH2 0x3F57 DUP5 PUSH2 0x3F3C JUMP JUMPDEST PUSH2 0x3588 JUMP JUMPDEST PUSH2 0x3DE1 JUMP JUMPDEST SWAP1 POP SWAP2 SWAP1 POP JUMP JUMPDEST PUSH2 0x3F71 DUP2 PUSH2 0x3F46 JUMP JUMPDEST DUP3 MSTORE POP POP JUMP JUMPDEST PUSH1 0x0 PUSH1 0x20 DUP3 ADD SWAP1 POP PUSH2 0x3F8C PUSH1 0x0 DUP4 ADD DUP5 PUSH2 0x3F68 JUMP JUMPDEST SWAP3 SWAP2 POP POP JUMP JUMPDEST PUSH1 0x0 DUP2 SWAP1 POP SWAP2 SWAP1 POP JUMP JUMPDEST PUSH1 0x0 PUSH2 0x3FB7 PUSH2 0x3FB2 PUSH2 0x3FAD DUP5 PUSH2 0x3F92 JUMP JUMPDEST PUSH2 0x3588 JUMP JUMPDEST PUSH2 0x3DE1 JUMP JUMPDEST SWAP1 POP SWAP2 SWAP1 POP JUMP JUMPDEST PUSH2 0x3FC7 DUP2 PUSH2 0x3F9C JUMP JUMPDEST DUP3 MSTORE POP POP JUMP JUMPDEST PUSH1 0x0 PUSH1 0x20 DUP3 ADD SWAP1 POP PUSH2 0x3FE2 PUSH1 0x0 DUP4 ADD DUP5 PUSH2 0x3FBE JUMP JUMPDEST SWAP3 SWAP2 POP POP JUMP JUMPDEST PUSH1 0x0 DUP2 SWAP1 POP SWAP2 SWAP1 POP JUMP JUMPDEST PUSH1 0x0 PUSH2 0x400D PUSH2 0x4008 PUSH2 0x4003 DUP5 PUSH2 0x3FE8 JUMP JUMPDEST PUSH2 0x3588 JUMP JUMPDEST PUSH2 0x3DE1 JUMP JUMPDEST SWAP1 POP SWAP2 SWAP1 POP JUMP JUMPDEST PUSH2 0x401D DUP2 PUSH2 0x3FF2 JUMP JUMPDEST DUP3 MSTORE POP POP JUMP JUMPDEST PUSH1 0x0 PUSH1 0x20 DUP3 ADD SWAP1 POP PUSH2 0x4038 PUSH1 0x0 DUP4 ADD DUP5 PUSH2 0x4014 JUMP JUMPDEST SWAP3 SWAP2 POP POP JUMP JUMPDEST PUSH1 0x0 PUSH1 0xE0 DUP3 ADD SWAP1 POP PUSH2 0x4053 PUSH1 0x0 DUP4 ADD DUP11 PUSH2 0x34F2 JUMP JUMPDEST PUSH2 0x4060 PUSH1 0x20 DUP4 ADD DUP10 PUSH2 0x34F2 JUMP JUMPDEST PUSH2 0x406D PUSH1 0x40 DUP4 ADD DUP9 PUSH2 0x34F2 JUMP JUMPDEST PUSH2 0x407A PUSH1 0x60 DUP4 ADD DUP8 PUSH2 0x34F2 JUMP JUMPDEST PUSH2 0x4087 PUSH1 0x80 DUP4 ADD DUP7 PUSH2 0x34F2 JUMP JUMPDEST PUSH2 0x4094 PUSH1 0xA0 DUP4 ADD DUP6 PUSH2 0x34F2 JUMP JUMPDEST PUSH2 0x40A1 PUSH1 0xC0 DUP4 ADD DUP5 PUSH2 0x34F2 JUMP JUMPDEST SWAP9 SWAP8 POP POP POP POP POP POP POP POP JUMP JUMPDEST PUSH1 0x0 PUSH2 0x40B8 DUP3 PUSH2 0x3A5E JUMP JUMPDEST SWAP2 POP PUSH2 0x40C3 DUP4 PUSH2 0x3A5E JUMP JUMPDEST SWAP3 POP DUP3 DUP3 SUB SWAP1 POP PUSH2 0xFFFF DUP2 GT ISZERO PUSH2 0x40DD JUMPI PUSH2 0x40DC PUSH2 0x3B67 JUMP JUMPDEST JUMPDEST SWAP3 SWAP2 POP POP JUMP JUMPDEST PUSH32 0x534348454D415F56455253494F4E5F4E4F545F434F5252454354000000000000 PUSH1 0x0 DUP3 ADD MSTORE POP JUMP JUMPDEST PUSH1 0x0 PUSH2 0x4119 PUSH1 0x1A DUP4 PUSH2 0x3C01 JUMP JUMPDEST SWAP2 POP PUSH2 0x4124 DUP3 PUSH2 0x40E3 JUMP JUMPDEST PUSH1 0x20 DUP3 ADD SWAP1 POP SWAP2 SWAP1 POP JUMP JUMPDEST PUSH1 0x0 PUSH1 0x20 DUP3 ADD SWAP1 POP DUP2 DUP2 SUB PUSH1 0x0 DUP4 ADD MSTORE PUSH2 0x4148 DUP2 PUSH2 0x410C JUMP JUMPDEST SWAP1 POP SWAP2 SWAP1 POP JUMP JUMPDEST PUSH1 0x0 PUSH1 0x80 DUP3 ADD SWAP1 POP PUSH2 0x4164 PUSH1 0x0 DUP4 ADD DUP8 PUSH2 0x3602 JUMP JUMPDEST PUSH2 0x4171 PUSH1 0x20 DUP4 ADD DUP7 PUSH2 0x3602 JUMP JUMPDEST PUSH2 0x417E PUSH1 0x40 DUP4 ADD DUP6 PUSH2 0x34F2 JUMP JUMPDEST PUSH2 0x418B PUSH1 0x60 DUP4 ADD DUP5 PUSH2 0x34F2 JUMP JUMPDEST SWAP6 SWAP5 POP POP POP POP POP JUMP JUMPDEST PUSH1 0x0 PUSH1 0xC0 DUP3 ADD SWAP1 POP PUSH2 0x41A9 PUSH1 0x0 DUP4 ADD DUP10 PUSH2 0x34F2 JUMP JUMPDEST PUSH2 0x41B6 PUSH1 0x20 DUP4 ADD DUP9 PUSH2 0x34F2 JUMP JUMPDEST PUSH2 0x41C3 PUSH1 0x40 DUP4 ADD DUP8 PUSH2 0x3602 JUMP JUMPDEST PUSH2 0x41D0 PUSH1 0x60 DUP4 ADD DUP7 PUSH2 0x3602 JUMP JUMPDEST PUSH2 0x41DD PUSH1 0x80 DUP4 ADD DUP6 PUSH2 0x34F2 JUMP JUMPDEST PUSH2 0x41EA PUSH1 0xA0 DUP4 ADD DUP5 PUSH2 0x33E0 JUMP JUMPDEST SWAP8 SWAP7 POP POP POP POP POP POP POP JUMP JUMPDEST PUSH1 0x0 DUP2 MLOAD SWAP1 POP PUSH2 0x4204 DUP2 PUSH2 0x3414 JUMP JUMPDEST SWAP3 SWAP2 POP POP JUMP JUMPDEST PUSH1 0x0 PUSH1 0x20 DUP3 DUP5 SUB SLT ISZERO PUSH2 0x4220 JUMPI PUSH2 0x421F PUSH2 0x3345 JUMP JUMPDEST JUMPDEST PUSH1 0x0 PUSH2 0x422E DUP5 DUP3 DUP6 ADD PUSH2 0x41F5 JUMP JUMPDEST SWAP2 POP POP SWAP3 SWAP2 POP POP JUMP JUMPDEST PUSH1 0x0 PUSH2 0x4242 DUP3 PUSH2 0x340A JUMP JUMPDEST SWAP2 POP PUSH2 0x424D DUP4 PUSH2 0x340A JUMP JUMPDEST SWAP3 POP DUP3 DUP3 ADD SWAP1 POP DUP1 DUP3 GT ISZERO PUSH2 0x4265 JUMPI PUSH2 0x4264 PUSH2 0x3B67 JUMP JUMPDEST JUMPDEST SWAP3 SWAP2 POP POP JUMP JUMPDEST PUSH1 0x0 PUSH1 0x60 DUP3 ADD SWAP1 POP PUSH2 0x4280 PUSH1 0x0 DUP4 ADD DUP7 PUSH2 0x3602 JUMP JUMPDEST PUSH2 0x428D PUSH1 0x20 DUP4 ADD DUP6 PUSH2 0x3602 JUMP JUMPDEST PUSH2 0x429A PUSH1 0x40 DUP4 ADD DUP5 PUSH2 0x33E0 JUMP JUMPDEST SWAP5 SWAP4 POP POP POP POP JUMP JUMPDEST PUSH1 0x0 DUP2 SWAP1 POP SWAP3 SWAP2 POP POP JUMP JUMPDEST PUSH32 0x416363657373436F6E74726F6C3A206163636F756E7420000000000000000000 PUSH1 0x0 DUP3 ADD MSTORE POP JUMP JUMPDEST PUSH1 0x0 PUSH2 0x42E3 PUSH1 0x17 DUP4 PUSH2 0x42A2 JUMP JUMPDEST SWAP2 POP PUSH2 0x42EE DUP3 PUSH2 0x42AD JUMP JUMPDEST PUSH1 0x17 DUP3 ADD SWAP1 POP SWAP2 SWAP1 POP JUMP JUMPDEST PUSH1 0x0 DUP2 MLOAD SWAP1 POP SWAP2 SWAP1 POP JUMP JUMPDEST PUSH1 0x0 JUMPDEST DUP4 DUP2 LT ISZERO PUSH2 0x4322 JUMPI DUP1 DUP3 ADD MLOAD DUP2 DUP5 ADD MSTORE PUSH1 0x20 DUP2 ADD SWAP1 POP PUSH2 0x4307 JUMP JUMPDEST PUSH1 0x0 DUP5 DUP5 ADD MSTORE POP POP POP POP JUMP JUMPDEST PUSH1 0x0 PUSH2 0x4339 DUP3 PUSH2 0x42F9 JUMP JUMPDEST PUSH2 0x4343 DUP2 DUP6 PUSH2 0x42A2 JUMP JUMPDEST SWAP4 POP PUSH2 0x4353 DUP2 DUP6 PUSH1 0x20 DUP7 ADD PUSH2 0x4304 JUMP JUMPDEST DUP1 DUP5 ADD SWAP2 POP POP SWAP3 SWAP2 POP POP JUMP JUMPDEST PUSH32 0x206973206D697373696E6720726F6C6520000000000000000000000000000000 PUSH1 0x0 DUP3 ADD MSTORE POP JUMP JUMPDEST PUSH1 0x0 PUSH2 0x4395 PUSH1 0x11 DUP4 PUSH2 0x42A2 JUMP JUMPDEST SWAP2 POP PUSH2 0x43A0 DUP3 PUSH2 0x435F JUMP JUMPDEST PUSH1 0x11 DUP3 ADD SWAP1 POP SWAP2 SWAP1 POP JUMP JUMPDEST PUSH1 0x0 PUSH2 0x43B6 DUP3 PUSH2 0x42D6 JUMP JUMPDEST SWAP2 POP PUSH2 0x43C2 DUP3 DUP6 PUSH2 0x432E JUMP JUMPDEST SWAP2 POP PUSH2 0x43CD DUP3 PUSH2 0x4388 JUMP JUMPDEST SWAP2 POP PUSH2 0x43D9 DUP3 DUP5 PUSH2 0x432E JUMP JUMPDEST SWAP2 POP DUP2 SWAP1 POP SWAP4 SWAP3 POP POP POP JUMP JUMPDEST PUSH1 0x0 PUSH1 0x1F NOT PUSH1 0x1F DUP4 ADD AND SWAP1 POP SWAP2 SWAP1 POP JUMP JUMPDEST PUSH1 0x0 PUSH2 0x4401 DUP3 PUSH2 0x42F9 JUMP JUMPDEST PUSH2 0x440B DUP2 DUP6 PUSH2 0x3C01 JUMP JUMPDEST SWAP4 POP PUSH2 0x441B DUP2 DUP6 PUSH1 0x20 DUP7 ADD PUSH2 0x4304 JUMP JUMPDEST PUSH2 0x4424 DUP2 PUSH2 0x43E5 JUMP JUMPDEST DUP5 ADD SWAP2 POP POP SWAP3 SWAP2 POP POP JUMP JUMPDEST PUSH1 0x0 PUSH1 0x20 DUP3 ADD SWAP1 POP DUP2 DUP2 SUB PUSH1 0x0 DUP4 ADD MSTORE PUSH2 0x4449 DUP2 DUP5 PUSH2 0x43F6 JUMP JUMPDEST SWAP1 POP SWAP3 SWAP2 POP POP JUMP JUMPDEST PUSH32 0x416464726573733A20696E73756666696369656E742062616C616E6365000000 PUSH1 0x0 DUP3 ADD MSTORE POP JUMP JUMPDEST PUSH1 0x0 PUSH2 0x4487 PUSH1 0x1D DUP4 PUSH2 0x3C01 JUMP JUMPDEST SWAP2 POP PUSH2 0x4492 DUP3 PUSH2 0x4451 JUMP JUMPDEST PUSH1 0x20 DUP3 ADD SWAP1 POP SWAP2 SWAP1 POP JUMP JUMPDEST PUSH1 0x0 PUSH1 0x20 DUP3 ADD SWAP1 POP DUP2 DUP2 SUB PUSH1 0x0 DUP4 ADD MSTORE PUSH2 0x44B6 DUP2 PUSH2 0x447A JUMP JUMPDEST SWAP1 POP SWAP2 SWAP1 POP JUMP JUMPDEST PUSH1 0x0 DUP2 SWAP1 POP SWAP3 SWAP2 POP POP JUMP JUMPDEST POP JUMP JUMPDEST PUSH1 0x0 PUSH2 0x44D8 PUSH1 0x0 DUP4 PUSH2 0x44BD JUMP JUMPDEST SWAP2 POP PUSH2 0x44E3 DUP3 PUSH2 0x44C8 JUMP JUMPDEST PUSH1 0x0 DUP3 ADD SWAP1 POP SWAP2 SWAP1 POP JUMP JUMPDEST PUSH1 0x0 PUSH2 0x44F9 DUP3 PUSH2 0x44CB JUMP JUMPDEST SWAP2 POP DUP2 SWAP1 POP SWAP2 SWAP1 POP JUMP JUMPDEST PUSH32 0x416464726573733A20756E61626C6520746F2073656E642076616C75652C2072 PUSH1 0x0 DUP3 ADD MSTORE PUSH32 0x6563697069656E74206D61792068617665207265766572746564000000000000 PUSH1 0x20 DUP3 ADD MSTORE POP JUMP JUMPDEST PUSH1 0x0 PUSH2 0x455F PUSH1 0x3A DUP4 PUSH2 0x3C01 JUMP JUMPDEST SWAP2 POP PUSH2 0x456A DUP3 PUSH2 0x4503 JUMP JUMPDEST PUSH1 0x40 DUP3 ADD SWAP1 POP SWAP2 SWAP1 POP JUMP JUMPDEST PUSH1 0x0 PUSH1 0x20 DUP3 ADD SWAP1 POP DUP2 DUP2 SUB PUSH1 0x0 DUP4 ADD MSTORE PUSH2 0x458E DUP2 PUSH2 0x4552 JUMP JUMPDEST SWAP1 POP SWAP2 SWAP1 POP JUMP JUMPDEST PUSH1 0x0 PUSH1 0x40 DUP3 ADD SWAP1 POP PUSH2 0x45AA PUSH1 0x0 DUP4 ADD DUP6 PUSH2 0x34F2 JUMP JUMPDEST PUSH2 0x45B7 PUSH1 0x20 DUP4 ADD DUP5 PUSH2 0x3602 JUMP JUMPDEST SWAP4 SWAP3 POP POP POP JUMP JUMPDEST PUSH1 0x0 PUSH2 0x45C9 DUP3 PUSH2 0x340A JUMP JUMPDEST SWAP2 POP PUSH2 0x45D4 DUP4 PUSH2 0x340A JUMP JUMPDEST SWAP3 POP DUP3 DUP3 MUL PUSH2 0x45E2 DUP2 PUSH2 0x340A JUMP JUMPDEST SWAP2 POP DUP3 DUP3 DIV DUP5 EQ DUP4 ISZERO OR PUSH2 0x45F9 JUMPI PUSH2 0x45F8 PUSH2 0x3B67 JUMP JUMPDEST JUMPDEST POP SWAP3 SWAP2 POP POP JUMP JUMPDEST PUSH32 0x4E487B7100000000000000000000000000000000000000000000000000000000 PUSH1 0x0 MSTORE PUSH1 0x41 PUSH1 0x4 MSTORE PUSH1 0x24 PUSH1 0x0 REVERT JUMPDEST PUSH32 0x4E487B7100000000000000000000000000000000000000000000000000000000 PUSH1 0x0 MSTORE PUSH1 0x32 PUSH1 0x4 MSTORE PUSH1 0x24 PUSH1 0x0 REVERT JUMPDEST PUSH1 0x0 PUSH2 0x4669 DUP3 PUSH2 0x340A JUMP JUMPDEST SWAP2 POP PUSH1 0x0 DUP3 SUB PUSH2 0x467C JUMPI PUSH2 0x467B PUSH2 0x3B67 JUMP JUMPDEST JUMPDEST PUSH1 0x1 DUP3 SUB SWAP1 POP SWAP2 SWAP1 POP JUMP JUMPDEST PUSH32 0x537472696E67733A20686578206C656E67746820696E73756666696369656E74 PUSH1 0x0 DUP3 ADD MSTORE POP JUMP JUMPDEST PUSH1 0x0 PUSH2 0x46BD PUSH1 0x20 DUP4 PUSH2 0x3C01 JUMP JUMPDEST SWAP2 POP PUSH2 0x46C8 DUP3 PUSH2 0x4687 JUMP JUMPDEST PUSH1 0x20 DUP3 ADD SWAP1 POP SWAP2 SWAP1 POP JUMP JUMPDEST PUSH1 0x0 PUSH1 0x20 DUP3 ADD SWAP1 POP DUP2 DUP2 SUB PUSH1 0x0 DUP4 ADD MSTORE PUSH2 0x46EC DUP2 PUSH2 0x46B0 JUMP JUMPDEST SWAP1 POP SWAP2 SWAP1 POP JUMP JUMPDEST PUSH32 0x5361666545524332303A204552433230206F7065726174696F6E20646964206E PUSH1 0x0 DUP3 ADD MSTORE PUSH32 0x6F74207375636365656400000000000000000000000000000000000000000000 PUSH1 0x20 DUP3 ADD MSTORE POP JUMP JUMPDEST PUSH1 0x0 PUSH2 0x474F PUSH1 0x2A DUP4 PUSH2 0x3C01 JUMP JUMPDEST SWAP2 POP PUSH2 0x475A DUP3 PUSH2 0x46F3 JUMP JUMPDEST PUSH1 0x40 DUP3 ADD SWAP1 POP SWAP2 SWAP1 POP JUMP JUMPDEST PUSH1 0x0 PUSH1 0x20 DUP3 ADD SWAP1 POP DUP2 DUP2 SUB PUSH1 0x0 DUP4 ADD MSTORE PUSH2 0x477E DUP2 PUSH2 0x4742 JUMP JUMPDEST SWAP1 POP SWAP2 SWAP1 POP JUMP JUMPDEST PUSH32 0x416464726573733A20696E73756666696369656E742062616C616E636520666F PUSH1 0x0 DUP3 ADD MSTORE PUSH32 0x722063616C6C0000000000000000000000000000000000000000000000000000 PUSH1 0x20 DUP3 ADD MSTORE POP JUMP JUMPDEST PUSH1 0x0 PUSH2 0x47E1 PUSH1 0x26 DUP4 PUSH2 0x3C01 JUMP JUMPDEST SWAP2 POP PUSH2 0x47EC DUP3 PUSH2 0x4785 JUMP JUMPDEST PUSH1 0x40 DUP3 ADD SWAP1 POP SWAP2 SWAP1 POP JUMP JUMPDEST PUSH1 0x0 PUSH1 0x20 DUP3 ADD SWAP1 POP DUP2 DUP2 SUB PUSH1 0x0 DUP4 ADD MSTORE PUSH2 0x4810 DUP2 PUSH2 0x47D4 JUMP JUMPDEST SWAP1 POP SWAP2 SWAP1 POP JUMP JUMPDEST PUSH1 0x0 DUP2 MLOAD SWAP1 POP SWAP2 SWAP1 POP JUMP JUMPDEST PUSH1 0x0 PUSH2 0x482D DUP3 PUSH2 0x4817 JUMP JUMPDEST PUSH2 0x4837 DUP2 DUP6 PUSH2 0x44BD JUMP JUMPDEST SWAP4 POP PUSH2 0x4847 DUP2 DUP6 PUSH1 0x20 DUP7 ADD PUSH2 0x4304 JUMP JUMPDEST DUP1 DUP5 ADD SWAP2 POP POP SWAP3 SWAP2 POP POP JUMP JUMPDEST PUSH1 0x0 PUSH2 0x485F DUP3 DUP5 PUSH2 0x4822 JUMP JUMPDEST SWAP2 POP DUP2 SWAP1 POP SWAP3 SWAP2 POP POP JUMP JUMPDEST PUSH32 0x416464726573733A2063616C6C20746F206E6F6E2D636F6E7472616374000000 PUSH1 0x0 DUP3 ADD MSTORE POP JUMP JUMPDEST PUSH1 0x0 PUSH2 0x48A0 PUSH1 0x1D DUP4 PUSH2 0x3C01 JUMP JUMPDEST SWAP2 POP PUSH2 0x48AB DUP3 PUSH2 0x486A JUMP JUMPDEST PUSH1 0x20 DUP3 ADD SWAP1 POP SWAP2 SWAP1 POP JUMP JUMPDEST PUSH1 0x0 PUSH1 0x20 DUP3 ADD SWAP1 POP DUP2 DUP2 SUB PUSH1 0x0 DUP4 ADD MSTORE PUSH2 0x48CF DUP2 PUSH2 0x4893 JUMP JUMPDEST SWAP1 POP SWAP2 SWAP1 POP JUMP INVALID LOG2 PUSH5 0x6970667358 0x22 SLT KECCAK256 0xE SUB DUP14 CALL MSIZE 0xCA 0x4D RETURN 0xF9 0xEE ADDRESS 0xEC 0x4F AND DUP2 PUSH25 0x8C9DBAFA1158CB6763EFD33AF3EDC31464736F6C6343000812 STOP CALLER "
		},
		"gasEstimates": {
			"creation": {
				"codeDepositCost": "3740000",
				"executionCost": "4229",
				"totalCost": "3744229"
			},
			"external": {
				"DEFAULT_ADMIN_ROLE()": "446",
				"addLockManager(address)": "infinite",
				"approve(address,uint256)": "43128",
				"balanceOf(address)": "infinite",
				"burn(uint256)": "67266",
				"expirationDuration()": "2497",
				"getApproved(uint256)": "5205",
				"getHasValidKey(address)": "infinite",
				"getRoleAdmin(bytes32)": "infinite",
				"grantRole(bytes32,address)": "infinite",
				"hasRole(bytes32,address)": "3185",
				"isApprovedForAll(address,address)": "infinite",
				"isLockManager(address)": "3060",
				"isValidKey(uint256)": "infinite",
				"keyExpirationTimestampFor(uint256)": "infinite",
				"keyManagerOf(uint256)": "2906",
				"keyPrice()": "2475",
				"maxKeysPerAddress()": "2481",
				"maxNumberOfKeys()": "2497",
				"mergeKeys(uint256,uint256,uint256)": "infinite",
				"migrate(bytes)": "infinite",
				"numberOfOwners()": "2496",
				"onKeyCancelHook()": "infinite",
				"onKeyExtendHook()": "infinite",
				"onKeyGrantHook()": "infinite",
				"onKeyPurchaseHook()": "infinite",
				"onKeyTransferHook()": "infinite",
				"onTokenURIHook()": "infinite",
				"onValidKeyHook()": "infinite",
				"ownerOf(uint256)": "2998",
				"publicLockVersion()": "476",
				"renounceLockManager()": "infinite",
				"renounceRole(bytes32,address)": "infinite",
				"revokeRole(bytes32,address)": "infinite",
				"schemaVersion()": "2518",
				"setEventHooks(address,address,address,address,address,address,address)": "infinite",
				"setKeyManagerOf(uint256,address)": "64628",
				"supportsInterface(bytes4)": "774",
				"tokenAddress()": "2603",
				"tokenOfOwnerByIndex(address,uint256)": "infinite",
				"totalKeys(address)": "3010",
				"totalSupply()": "2527",
				"unlockProtocol()": "infinite",
				"updateKeyPricing(uint256,address)": "infinite",
				"updateLockConfig(uint256,uint256,uint256)": "infinite",
				"updateSchemaVersion()": "24851",
				"withdraw(address,address,uint256)": "infinite"
			},
			"internal": {
				"_cancelKey(uint256)": "22214",
				"_clearApproval(uint256)": "26611",
				"_createNewKey(address,address,uint256)": "infinite",
				"_createOwnershipRecord(uint256,address)": "infinite",
				"_deleteOwnershipRecord(uint256)": "infinite",
				"_extendKey(uint256,uint256)": "infinite",
				"_isKey(uint256)": "infinite",
				"_isKeyManager(uint256,address)": "6853",
				"_isValidKey(uint256)": "infinite",
				"_onlyKeyManagerOrApproved(uint256)": "infinite",
				"_setKeyManagerOf(uint256,address)": "54778",
				"_timeMachine(uint256,uint256,bool)": "infinite"
			}
		},
		"methodIdentifiers": {
			"DEFAULT_ADMIN_ROLE()": "a217fddf",
			"addLockManager(address)": "d2503485",
			"approve(address,uint256)": "095ea7b3",
			"balanceOf(address)": "70a08231",
			"burn(uint256)": "42966c68",
			"expirationDuration()": "11a4c03a",
			"getApproved(uint256)": "081812fc",
			"getHasValidKey(address)": "6d8ea5b4",
			"getRoleAdmin(bytes32)": "248a9ca3",
			"grantRole(bytes32,address)": "2f2ff15d",
			"hasRole(bytes32,address)": "91d14854",
			"isApprovedForAll(address,address)": "e985e9c5",
			"isLockManager(address)": "aae4b8f7",
			"isValidKey(uint256)": "a98d3623",
			"keyExpirationTimestampFor(uint256)": "54b249fb",
			"keyManagerOf(uint256)": "4d025fed",
			"keyPrice()": "10e56973",
			"maxKeysPerAddress()": "d52e4a10",
			"maxNumberOfKeys()": "74b6c106",
			"mergeKeys(uint256,uint256,uint256)": "068208cd",
			"migrate(bytes)": "8932a90d",
			"numberOfOwners()": "93fd1844",
			"onKeyCancelHook()": "217751bc",
			"onKeyExtendHook()": "c907c3ec",
			"onKeyGrantHook()": "b129694e",
			"onKeyPurchaseHook()": "2d33dd5b",
			"onKeyTransferHook()": "389f07e8",
			"onTokenURIHook()": "7ec2a724",
			"onValidKeyHook()": "26e9ca07",
			"ownerOf(uint256)": "6352211e",
			"publicLockVersion()": "d1bbd49c",
			"renounceLockManager()": "f0ba6040",
			"renounceRole(bytes32,address)": "36568abe",
			"revokeRole(bytes32,address)": "d547741f",
			"schemaVersion()": "4e2ce6d3",
			"setEventHooks(address,address,address,address,address,address,address)": "74cac47d",
			"setKeyManagerOf(uint256,address)": "b11d7ec1",
			"supportsInterface(bytes4)": "01ffc9a7",
			"tokenAddress()": "9d76ea58",
			"tokenOfOwnerByIndex(address,uint256)": "2f745c59",
			"totalKeys(address)": "812eecd4",
			"totalSupply()": "18160ddd",
			"unlockProtocol()": "0f15023b",
			"updateKeyPricing(uint256,address)": "a2e4cd2e",
			"updateLockConfig(uint256,uint256,uint256)": "282478df",
			"updateSchemaVersion()": "f32e8b24",
			"withdraw(address,address,uint256)": "d9caed12"
		}
	},
	"abi": [
		{
			"inputs": [],
			"name": "CANNOT_APPROVE_SELF",
			"type": "error"
		},
		{
			"inputs": [],
			"name": "CANT_BE_SMALLER_THAN_SUPPLY",
			"type": "error"
		},
		{
			"inputs": [],
			"name": "CANT_EXTEND_NON_EXPIRING_KEY",
			"type": "error"
		},
		{
			"inputs": [],
			"name": "GAS_REFUND_FAILED",
			"type": "error"
		},
		{
			"inputs": [],
			"name": "INSUFFICIENT_ERC20_VALUE",
			"type": "error"
		},
		{
			"inputs": [],
			"name": "INSUFFICIENT_VALUE",
			"type": "error"
		},
		{
			"inputs": [],
			"name": "INVALID_ADDRESS",
			"type": "error"
		},
		{
			"inputs": [
				{
					"internalType": "uint8",
					"name": "hookIndex",
					"type": "uint8"
				}
			],
			"name": "INVALID_HOOK",
			"type": "error"
		},
		{
			"inputs": [],
			"name": "INVALID_LENGTH",
			"type": "error"
		},
		{
			"inputs": [],
			"name": "INVALID_TOKEN",
			"type": "error"
		},
		{
			"inputs": [],
			"name": "KEY_NOT_VALID",
			"type": "error"
		},
		{
			"inputs": [],
			"name": "KEY_TRANSFERS_DISABLED",
			"type": "error"
		},
		{
			"inputs": [],
			"name": "LOCK_HAS_CHANGED",
			"type": "error"
		},
		{
			"inputs": [],
			"name": "LOCK_SOLD_OUT",
			"type": "error"
		},
		{
			"inputs": [],
			"name": "MAX_KEYS_REACHED",
			"type": "error"
		},
		{
			"inputs": [],
			"name": "MIGRATION_REQUIRED",
			"type": "error"
		},
		{
			"inputs": [],
			"name": "NON_COMPLIANT_ERC721_RECEIVER",
			"type": "error"
		},
		{
			"inputs": [],
			"name": "NON_RENEWABLE_LOCK",
			"type": "error"
		},
		{
			"inputs": [],
			"name": "NOT_ENOUGH_FUNDS",
			"type": "error"
		},
		{
			"inputs": [],
			"name": "NOT_ENOUGH_TIME",
			"type": "error"
		},
		{
			"inputs": [],
			"name": "NOT_READY_FOR_RENEWAL",
			"type": "error"
		},
		{
			"inputs": [],
			"name": "NO_SUCH_KEY",
			"type": "error"
		},
		{
			"inputs": [],
			"name": "NULL_VALUE",
			"type": "error"
		},
		{
			"inputs": [],
			"name": "ONLY_KEY_MANAGER_OR_APPROVED",
			"type": "error"
		},
		{
			"inputs": [],
			"name": "ONLY_LOCK_MANAGER",
			"type": "error"
		},
		{
			"inputs": [],
			"name": "ONLY_LOCK_MANAGER_OR_KEY_GRANTER",
			"type": "error"
		},
		{
			"inputs": [],
			"name": "OUT_OF_RANGE",
			"type": "error"
		},
		{
			"inputs": [],
			"name": "OWNER_CANT_BE_ADDRESS_ZERO",
			"type": "error"
		},
		{
			"inputs": [],
			"name": "SCHEMA_VERSION_NOT_CORRECT",
			"type": "error"
		},
		{
			"inputs": [],
			"name": "TRANSFER_TO_SELF",
			"type": "error"
		},
		{
			"inputs": [],
			"name": "UNAUTHORIZED",
			"type": "error"
		},
		{
			"inputs": [],
			"name": "UNAUTHORIZED_KEY_MANAGER_UPDATE",
			"type": "error"
		},
		{
			"anonymous": false,
			"inputs": [
				{
					"indexed": true,
					"internalType": "address",
					"name": "owner",
					"type": "address"
				},
				{
					"indexed": true,
					"internalType": "address",
					"name": "approved",
					"type": "address"
				},
				{
					"indexed": true,
					"internalType": "uint256",
					"name": "tokenId",
					"type": "uint256"
				}
			],
			"name": "Approval",
			"type": "event"
		},
		{
			"anonymous": false,
			"inputs": [
				{
					"indexed": true,
					"internalType": "address",
					"name": "owner",
					"type": "address"
				},
				{
					"indexed": true,
					"internalType": "address",
					"name": "operator",
					"type": "address"
				},
				{
					"indexed": false,
					"internalType": "bool",
					"name": "approved",
					"type": "bool"
				}
			],
			"name": "ApprovalForAll",
			"type": "event"
		},
		{
			"anonymous": false,
			"inputs": [
				{
					"indexed": false,
					"internalType": "address",
					"name": "onKeyPurchaseHook",
					"type": "address"
				},
				{
					"indexed": false,
					"internalType": "address",
					"name": "onKeyCancelHook",
					"type": "address"
				},
				{
					"indexed": false,
					"internalType": "address",
					"name": "onValidKeyHook",
					"type": "address"
				},
				{
					"indexed": false,
					"internalType": "address",
					"name": "onTokenURIHook",
					"type": "address"
				},
				{
					"indexed": false,
					"internalType": "address",
					"name": "onKeyTransferHook",
					"type": "address"
				},
				{
					"indexed": false,
					"internalType": "address",
					"name": "onKeyExtendHook",
					"type": "address"
				},
				{
					"indexed": false,
					"internalType": "address",
					"name": "onKeyGrantHook",
					"type": "address"
				}
			],
			"name": "EventHooksUpdated",
			"type": "event"
		},
		{
			"anonymous": false,
			"inputs": [
				{
					"indexed": true,
					"internalType": "uint256",
					"name": "tokenId",
					"type": "uint256"
				},
				{
					"indexed": false,
					"internalType": "uint256",
					"name": "newExpiration",
					"type": "uint256"
				},
				{
					"indexed": false,
					"internalType": "uint256",
					"name": "amount",
					"type": "uint256"
				},
				{
					"indexed": false,
					"internalType": "bool",
					"name": "timeAdded",
					"type": "bool"
				}
			],
			"name": "ExpirationChanged",
			"type": "event"
		},
		{
			"anonymous": false,
			"inputs": [
				{
					"indexed": true,
					"internalType": "uint256",
					"name": "tokenId",
					"type": "uint256"
				}
			],
			"name": "ExpireKey",
			"type": "event"
		},
		{
			"anonymous": false,
			"inputs": [
				{
					"indexed": false,
					"internalType": "uint8",
					"name": "version",
					"type": "uint8"
				}
			],
			"name": "Initialized",
			"type": "event"
		},
		{
			"anonymous": false,
			"inputs": [
				{
					"indexed": true,
					"internalType": "uint256",
					"name": "tokenId",
					"type": "uint256"
				},
				{
					"indexed": false,
					"internalType": "uint256",
					"name": "newTimestamp",
					"type": "uint256"
				}
			],
			"name": "KeyExtended",
			"type": "event"
		},
		{
			"anonymous": false,
			"inputs": [
				{
					"indexed": true,
					"internalType": "address",
					"name": "account",
					"type": "address"
				}
			],
			"name": "KeyGranterAdded",
			"type": "event"
		},
		{
			"anonymous": false,
			"inputs": [
				{
					"indexed": true,
					"internalType": "address",
					"name": "account",
					"type": "address"
				}
			],
			"name": "KeyGranterRemoved",
			"type": "event"
		},
		{
			"anonymous": false,
			"inputs": [
				{
					"indexed": true,
					"internalType": "uint256",
					"name": "_tokenId",
					"type": "uint256"
				},
				{
					"indexed": true,
					"internalType": "address",
					"name": "_newManager",
					"type": "address"
				}
			],
			"name": "KeyManagerChanged",
			"type": "event"
		},
		{
			"anonymous": false,
			"inputs": [
				{
					"indexed": false,
					"internalType": "uint256",
					"name": "updatedRecordsCount",
					"type": "uint256"
				}
			],
			"name": "KeysMigrated",
			"type": "event"
		},
		{
			"anonymous": false,
			"inputs": [
				{
					"indexed": false,
					"internalType": "uint256",
					"name": "expirationDuration",
					"type": "uint256"
				},
				{
					"indexed": false,
					"internalType": "uint256",
					"name": "maxNumberOfKeys",
					"type": "uint256"
				},
				{
					"indexed": false,
					"internalType": "uint256",
					"name": "maxKeysPerAcccount",
					"type": "uint256"
				}
			],
			"name": "LockConfig",
			"type": "event"
		},
		{
			"anonymous": false,
			"inputs": [
				{
					"indexed": true,
					"internalType": "address",
					"name": "account",
					"type": "address"
				}
			],
			"name": "LockManagerAdded",
			"type": "event"
		},
		{
			"anonymous": false,
			"inputs": [
				{
					"indexed": true,
					"internalType": "address",
					"name": "account",
					"type": "address"
				}
			],
			"name": "LockManagerRemoved",
			"type": "event"
		},
		{
			"anonymous": false,
			"inputs": [
				{
					"indexed": false,
					"internalType": "uint256",
					"name": "oldKeyPrice",
					"type": "uint256"
				},
				{
					"indexed": false,
					"internalType": "uint256",
					"name": "keyPrice",
					"type": "uint256"
				},
				{
					"indexed": false,
					"internalType": "address",
					"name": "oldTokenAddress",
					"type": "address"
				},
				{
					"indexed": false,
					"internalType": "address",
					"name": "tokenAddress",
					"type": "address"
				}
			],
			"name": "PricingChanged",
			"type": "event"
		},
		{
			"anonymous": false,
			"inputs": [
				{
					"indexed": true,
					"internalType": "bytes32",
					"name": "role",
					"type": "bytes32"
				},
				{
					"indexed": true,
					"internalType": "bytes32",
					"name": "previousAdminRole",
					"type": "bytes32"
				},
				{
					"indexed": true,
					"internalType": "bytes32",
					"name": "newAdminRole",
					"type": "bytes32"
				}
			],
			"name": "RoleAdminChanged",
			"type": "event"
		},
		{
			"anonymous": false,
			"inputs": [
				{
					"indexed": true,
					"internalType": "bytes32",
					"name": "role",
					"type": "bytes32"
				},
				{
					"indexed": true,
					"internalType": "address",
					"name": "account",
					"type": "address"
				},
				{
					"indexed": true,
					"internalType": "address",
					"name": "sender",
					"type": "address"
				}
			],
			"name": "RoleGranted",
			"type": "event"
		},
		{
			"anonymous": false,
			"inputs": [
				{
					"indexed": true,
					"internalType": "bytes32",
					"name": "role",
					"type": "bytes32"
				},
				{
					"indexed": true,
					"internalType": "address",
					"name": "account",
					"type": "address"
				},
				{
					"indexed": true,
					"internalType": "address",
					"name": "sender",
					"type": "address"
				}
			],
			"name": "RoleRevoked",
			"type": "event"
		},
		{
			"anonymous": false,
			"inputs": [
				{
					"indexed": true,
					"internalType": "address",
					"name": "from",
					"type": "address"
				},
				{
					"indexed": true,
					"internalType": "address",
					"name": "to",
					"type": "address"
				},
				{
					"indexed": true,
					"internalType": "uint256",
					"name": "tokenId",
					"type": "uint256"
				}
			],
			"name": "Transfer",
			"type": "event"
		},
		{
			"anonymous": false,
			"inputs": [
				{
					"indexed": true,
					"internalType": "address",
					"name": "sender",
					"type": "address"
				},
				{
					"indexed": true,
					"internalType": "address",
					"name": "tokenAddress",
					"type": "address"
				},
				{
					"indexed": true,
					"internalType": "address",
					"name": "recipient",
					"type": "address"
				},
				{
					"indexed": false,
					"internalType": "uint256",
					"name": "amount",
					"type": "uint256"
				}
			],
			"name": "Withdrawal",
			"type": "event"
		},
		{
			"inputs": [],
			"name": "DEFAULT_ADMIN_ROLE",
			"outputs": [
				{
					"internalType": "bytes32",
					"name": "",
					"type": "bytes32"
				}
			],
			"stateMutability": "view",
			"type": "function"
		},
		{
			"inputs": [
				{
					"internalType": "address",
					"name": "account",
					"type": "address"
				}
			],
			"name": "addLockManager",
			"outputs": [],
			"stateMutability": "nonpayable",
			"type": "function"
		},
		{
			"inputs": [
				{
					"internalType": "address",
					"name": "_approved",
					"type": "address"
				},
				{
					"internalType": "uint256",
					"name": "_tokenId",
					"type": "uint256"
				}
			],
			"name": "approve",
			"outputs": [],
			"stateMutability": "nonpayable",
			"type": "function"
		},
		{
			"inputs": [
				{
					"internalType": "address",
					"name": "_keyOwner",
					"type": "address"
				}
			],
			"name": "balanceOf",
			"outputs": [
				{
					"internalType": "uint256",
					"name": "balance",
					"type": "uint256"
				}
			],
			"stateMutability": "view",
			"type": "function"
		},
		{
			"inputs": [
				{
					"internalType": "uint256",
					"name": "_tokenId",
					"type": "uint256"
				}
			],
			"name": "burn",
			"outputs": [],
			"stateMutability": "nonpayable",
			"type": "function"
		},
		{
			"inputs": [],
			"name": "expirationDuration",
			"outputs": [
				{
					"internalType": "uint256",
					"name": "",
					"type": "uint256"
				}
			],
			"stateMutability": "view",
			"type": "function"
		},
		{
			"inputs": [
				{
					"internalType": "uint256",
					"name": "_tokenId",
					"type": "uint256"
				}
			],
			"name": "getApproved",
			"outputs": [
				{
					"internalType": "address",
					"name": "",
					"type": "address"
				}
			],
			"stateMutability": "view",
			"type": "function"
		},
		{
			"inputs": [
				{
					"internalType": "address",
					"name": "_keyOwner",
					"type": "address"
				}
			],
			"name": "getHasValidKey",
			"outputs": [
				{
					"internalType": "bool",
					"name": "isValid",
					"type": "bool"
				}
			],
			"stateMutability": "view",
			"type": "function"
		},
		{
			"inputs": [
				{
					"internalType": "bytes32",
					"name": "role",
					"type": "bytes32"
				}
			],
			"name": "getRoleAdmin",
			"outputs": [
				{
					"internalType": "bytes32",
					"name": "",
					"type": "bytes32"
				}
			],
			"stateMutability": "view",
			"type": "function"
		},
		{
			"inputs": [
				{
					"internalType": "bytes32",
					"name": "role",
					"type": "bytes32"
				},
				{
					"internalType": "address",
					"name": "account",
					"type": "address"
				}
			],
			"name": "grantRole",
			"outputs": [],
			"stateMutability": "nonpayable",
			"type": "function"
		},
		{
			"inputs": [
				{
					"internalType": "bytes32",
					"name": "role",
					"type": "bytes32"
				},
				{
					"internalType": "address",
					"name": "account",
					"type": "address"
				}
			],
			"name": "hasRole",
			"outputs": [
				{
					"internalType": "bool",
					"name": "",
					"type": "bool"
				}
			],
			"stateMutability": "view",
			"type": "function"
		},
		{
			"inputs": [
				{
					"internalType": "address",
					"name": "_owner",
					"type": "address"
				},
				{
					"internalType": "address",
					"name": "_operator",
					"type": "address"
				}
			],
			"name": "isApprovedForAll",
			"outputs": [
				{
					"internalType": "bool",
					"name": "",
					"type": "bool"
				}
			],
			"stateMutability": "view",
			"type": "function"
		},
		{
			"inputs": [
				{
					"internalType": "address",
					"name": "account",
					"type": "address"
				}
			],
			"name": "isLockManager",
			"outputs": [
				{
					"internalType": "bool",
					"name": "",
					"type": "bool"
				}
			],
			"stateMutability": "view",
			"type": "function"
		},
		{
			"inputs": [
				{
					"internalType": "uint256",
					"name": "_tokenId",
					"type": "uint256"
				}
			],
			"name": "isValidKey",
			"outputs": [
				{
					"internalType": "bool",
					"name": "",
					"type": "bool"
				}
			],
			"stateMutability": "view",
			"type": "function"
		},
		{
			"inputs": [
				{
					"internalType": "uint256",
					"name": "_tokenId",
					"type": "uint256"
				}
			],
			"name": "keyExpirationTimestampFor",
			"outputs": [
				{
					"internalType": "uint256",
					"name": "",
					"type": "uint256"
				}
			],
			"stateMutability": "view",
			"type": "function"
		},
		{
			"inputs": [
				{
					"internalType": "uint256",
					"name": "",
					"type": "uint256"
				}
			],
			"name": "keyManagerOf",
			"outputs": [
				{
					"internalType": "address",
					"name": "",
					"type": "address"
				}
			],
			"stateMutability": "view",
			"type": "function"
		},
		{
			"inputs": [],
			"name": "keyPrice",
			"outputs": [
				{
					"internalType": "uint256",
					"name": "",
					"type": "uint256"
				}
			],
			"stateMutability": "view",
			"type": "function"
		},
		{
			"inputs": [],
			"name": "maxKeysPerAddress",
			"outputs": [
				{
					"internalType": "uint256",
					"name": "",
					"type": "uint256"
				}
			],
			"stateMutability": "view",
			"type": "function"
		},
		{
			"inputs": [],
			"name": "maxNumberOfKeys",
			"outputs": [
				{
					"internalType": "uint256",
					"name": "",
					"type": "uint256"
				}
			],
			"stateMutability": "view",
			"type": "function"
		},
		{
			"inputs": [
				{
					"internalType": "uint256",
					"name": "_tokenIdFrom",
					"type": "uint256"
				},
				{
					"internalType": "uint256",
					"name": "_tokenIdTo",
					"type": "uint256"
				},
				{
					"internalType": "uint256",
					"name": "_amount",
					"type": "uint256"
				}
			],
			"name": "mergeKeys",
			"outputs": [],
			"stateMutability": "nonpayable",
			"type": "function"
		},
		{
			"inputs": [
				{
					"internalType": "bytes",
					"name": "",
					"type": "bytes"
				}
			],
			"name": "migrate",
			"outputs": [],
			"stateMutability": "nonpayable",
			"type": "function"
		},
		{
			"inputs": [],
			"name": "numberOfOwners",
			"outputs": [
				{
					"internalType": "uint256",
					"name": "",
					"type": "uint256"
				}
			],
			"stateMutability": "view",
			"type": "function"
		},
		{
			"inputs": [],
			"name": "onKeyCancelHook",
			"outputs": [
				{
					"internalType": "contract ILockKeyCancelHook",
					"name": "",
					"type": "address"
				}
			],
			"stateMutability": "view",
			"type": "function"
		},
		{
			"inputs": [],
			"name": "onKeyExtendHook",
			"outputs": [
				{
					"internalType": "contract ILockKeyExtendHook",
					"name": "",
					"type": "address"
				}
			],
			"stateMutability": "view",
			"type": "function"
		},
		{
			"inputs": [],
			"name": "onKeyGrantHook",
			"outputs": [
				{
					"internalType": "contract ILockKeyGrantHook",
					"name": "",
					"type": "address"
				}
			],
			"stateMutability": "view",
			"type": "function"
		},
		{
			"inputs": [],
			"name": "onKeyPurchaseHook",
			"outputs": [
				{
					"internalType": "contract ILockKeyPurchaseHook",
					"name": "",
					"type": "address"
				}
			],
			"stateMutability": "view",
			"type": "function"
		},
		{
			"inputs": [],
			"name": "onKeyTransferHook",
			"outputs": [
				{
					"internalType": "contract ILockKeyTransferHook",
					"name": "",
					"type": "address"
				}
			],
			"stateMutability": "view",
			"type": "function"
		},
		{
			"inputs": [],
			"name": "onTokenURIHook",
			"outputs": [
				{
					"internalType": "contract ILockTokenURIHook",
					"name": "",
					"type": "address"
				}
			],
			"stateMutability": "view",
			"type": "function"
		},
		{
			"inputs": [],
			"name": "onValidKeyHook",
			"outputs": [
				{
					"internalType": "contract ILockValidKeyHook",
					"name": "",
					"type": "address"
				}
			],
			"stateMutability": "view",
			"type": "function"
		},
		{
			"inputs": [
				{
					"internalType": "uint256",
					"name": "_tokenId",
					"type": "uint256"
				}
			],
			"name": "ownerOf",
			"outputs": [
				{
					"internalType": "address",
					"name": "",
					"type": "address"
				}
			],
			"stateMutability": "view",
			"type": "function"
		},
		{
			"inputs": [],
			"name": "publicLockVersion",
			"outputs": [
				{
					"internalType": "uint16",
					"name": "",
					"type": "uint16"
				}
			],
			"stateMutability": "pure",
			"type": "function"
		},
		{
			"inputs": [],
			"name": "renounceLockManager",
			"outputs": [],
			"stateMutability": "nonpayable",
			"type": "function"
		},
		{
			"inputs": [
				{
					"internalType": "bytes32",
					"name": "role",
					"type": "bytes32"
				},
				{
					"internalType": "address",
					"name": "account",
					"type": "address"
				}
			],
			"name": "renounceRole",
			"outputs": [],
			"stateMutability": "nonpayable",
			"type": "function"
		},
		{
			"inputs": [
				{
					"internalType": "bytes32",
					"name": "role",
					"type": "bytes32"
				},
				{
					"internalType": "address",
					"name": "account",
					"type": "address"
				}
			],
			"name": "revokeRole",
			"outputs": [],
			"stateMutability": "nonpayable",
			"type": "function"
		},
		{
			"inputs": [],
			"name": "schemaVersion",
			"outputs": [
				{
					"internalType": "uint256",
					"name": "",
					"type": "uint256"
				}
			],
			"stateMutability": "view",
			"type": "function"
		},
		{
			"inputs": [
				{
					"internalType": "address",
					"name": "_onKeyPurchaseHook",
					"type": "address"
				},
				{
					"internalType": "address",
					"name": "_onKeyCancelHook",
					"type": "address"
				},
				{
					"internalType": "address",
					"name": "_onValidKeyHook",
					"type": "address"
				},
				{
					"internalType": "address",
					"name": "_onTokenURIHook",
					"type": "address"
				},
				{
					"internalType": "address",
					"name": "_onKeyTransferHook",
					"type": "address"
				},
				{
					"internalType": "address",
					"name": "_onKeyExtendHook",
					"type": "address"
				},
				{
					"internalType": "address",
					"name": "_onKeyGrantHook",
					"type": "address"
				}
			],
			"name": "setEventHooks",
			"outputs": [],
			"stateMutability": "nonpayable",
			"type": "function"
		},
		{
			"inputs": [
				{
					"internalType": "uint256",
					"name": "_tokenId",
					"type": "uint256"
				},
				{
					"internalType": "address",
					"name": "_keyManager",
					"type": "address"
				}
			],
			"name": "setKeyManagerOf",
			"outputs": [],
			"stateMutability": "nonpayable",
			"type": "function"
		},
		{
			"inputs": [
				{
					"internalType": "bytes4",
					"name": "interfaceId",
					"type": "bytes4"
				}
			],
			"name": "supportsInterface",
			"outputs": [
				{
					"internalType": "bool",
					"name": "",
					"type": "bool"
				}
			],
			"stateMutability": "view",
			"type": "function"
		},
		{
			"inputs": [],
			"name": "tokenAddress",
			"outputs": [
				{
					"internalType": "address",
					"name": "",
					"type": "address"
				}
			],
			"stateMutability": "view",
			"type": "function"
		},
		{
			"inputs": [
				{
					"internalType": "address",
					"name": "_keyOwner",
					"type": "address"
				},
				{
					"internalType": "uint256",
					"name": "_index",
					"type": "uint256"
				}
			],
			"name": "tokenOfOwnerByIndex",
			"outputs": [
				{
					"internalType": "uint256",
					"name": "",
					"type": "uint256"
				}
			],
			"stateMutability": "view",
			"type": "function"
		},
		{
			"inputs": [
				{
					"internalType": "address",
					"name": "_keyOwner",
					"type": "address"
				}
			],
			"name": "totalKeys",
			"outputs": [
				{
					"internalType": "uint256",
					"name": "",
					"type": "uint256"
				}
			],
			"stateMutability": "view",
			"type": "function"
		},
		{
			"inputs": [],
			"name": "totalSupply",
			"outputs": [
				{
					"internalType": "uint256",
					"name": "",
					"type": "uint256"
				}
			],
			"stateMutability": "view",
			"type": "function"
		},
		{
			"inputs": [],
			"name": "unlockProtocol",
			"outputs": [
				{
					"internalType": "contract IUnlock",
					"name": "",
					"type": "address"
				}
			],
			"stateMutability": "view",
			"type": "function"
		},
		{
			"inputs": [
				{
					"internalType": "uint256",
					"name": "_keyPrice",
					"type": "uint256"
				},
				{
					"internalType": "address",
					"name": "_tokenAddress",
					"type": "address"
				}
			],
			"name": "updateKeyPricing",
			"outputs": [],
			"stateMutability": "nonpayable",
			"type": "function"
		},
		{
			"inputs": [
				{
					"internalType": "uint256",
					"name": "_newExpirationDuration",
					"type": "uint256"
				},
				{
					"internalType": "uint256",
					"name": "_maxNumberOfKeys",
					"type": "uint256"
				},
				{
					"internalType": "uint256",
					"name": "_maxKeysPerAcccount",
					"type": "uint256"
				}
			],
			"name": "updateLockConfig",
			"outputs": [],
			"stateMutability": "nonpayable",
			"type": "function"
		},
		{
			"inputs": [],
			"name": "updateSchemaVersion",
			"outputs": [],
			"stateMutability": "nonpayable",
			"type": "function"
		},
		{
			"inputs": [
				{
					"internalType": "address",
					"name": "_tokenAddress",
					"type": "address"
				},
				{
					"internalType": "address payable",
					"name": "_recipient",
					"type": "address"
				},
				{
					"internalType": "uint256",
					"name": "_amount",
					"type": "uint256"
				}
			],
			"name": "withdraw",
			"outputs": [],
			"stateMutability": "nonpayable",
			"type": "function"
		}
	]
}