{
	"data": {
		"bytecode": {
			"linkReferences": {},
			"object": "608060405234801561001057600080fd5b5061759f80620000216000396000f3fe6080604052600436106103ad5760003560e01c806374b6c106116101e7578063b11d7ec11161010d578063d547741f116100a0578063e985e9c51161006f578063e985e9c514610e74578063f0ba604014610eb1578063f32e8b2414610ec8578063f5766b3914610edf576103ad565b8063d547741f14610ddd578063d813cc1914610e06578063d9caed1214610e22578063debe2b0d14610e4b576103ad565b8063d1bbd49c116100dc578063d1bbd49c14610d35578063d250348514610d60578063d32bfb6c14610d89578063d52e4a1014610db2576103ad565b8063b11d7ec114610c79578063b129694e14610ca2578063c23135dd14610ccd578063c907c3ec14610d0a576103ad565b806392ac98a511610185578063a2e4cd2e11610154578063a2e4cd2e14610bab578063a375cb0514610bd4578063a98d362314610bff578063aae4b8f714610c3c576103ad565b806392ac98a514610aed57806393fd184414610b2a5780639d76ea5814610b55578063a217fddf14610b80576103ad565b8063812eecd4116101c1578063812eecd414610a215780638505fe9514610a5e5780638932a90d14610a8757806391d1485414610ab0576103ad565b806374b6c106146109a257806374cac47d146109cd5780637ec2a724146109f6576103ad565b80632f745c59116102d757806350878a471161026a5780636207a8da116102395780636207a8da146108c05780636352211e146108eb5780636d8ea5b41461092857806370a0823114610965576103ad565b806350878a47146107f257806354b249fb1461082f578063558b71e91461086c57806356e0d51f14610895576103ad565b806339f46986116102a657806339f469861461073857806342966c68146107615780634d025fed1461078a5780634e2ce6d3146107c7576103ad565b80632f745c591461067757806333818997146106b457806336568abe146106e4578063389f07e81461070d576103ad565b806311a4c03a1161034f57806326e9ca071161031e57806326e9ca07146105cf578063282478df146105fa5780632d33dd5b146106235780632f2ff15d1461064e576103ad565b806311a4c03a1461051157806318160ddd1461053c578063217751bc14610567578063248a9ca314610592576103ad565b8063095ea7b31161038b578063095ea7b314610455578063097ba3331461047e5780630f15023b146104bb57806310e56973146104e6576103ad565b806301ffc9a7146103b2578063068208cd146103ef578063081812fc14610418575b600080fd5b3480156103be57600080fd5b506103d960048036038101906103d49190615709565b610f08565b6040516103e69190615751565b60405180910390f35b3480156103fb57600080fd5b50610416600480360381019061041191906157a2565b610f82565b005b34801561042457600080fd5b5061043f600480360381019061043a91906157f5565b611010565b60405161044c9190615863565b60405180910390f35b34801561046157600080fd5b5061047c600480360381019061047791906158aa565b61105d565b005b34801561048a57600080fd5b506104a560048036038101906104a09190615a30565b6111b1565b6040516104b29190615aae565b60405180910390f35b3480156104c757600080fd5b506104d06112c1565b6040516104dd9190615b28565b60405180910390f35b3480156104f257600080fd5b506104fb6112e8565b6040516105089190615aae565b60405180910390f35b34801561051d57600080fd5b506105266112ef565b6040516105339190615aae565b60405180910390f35b34801561054857600080fd5b506105516112f6565b60405161055e9190615aae565b60405180910390f35b34801561057357600080fd5b5061057c611301565b6040516105899190615b64565b60405180910390f35b34801561059e57600080fd5b506105b960048036038101906105b49190615bb5565b611328565b6040516105c69190615bf1565b60405180910390f35b3480156105db57600080fd5b506105e4611348565b6040516105f19190615c2d565b60405180910390f35b34801561060657600080fd5b50610621600480360381019061061c91906157a2565b61136f565b005b34801561062f57600080fd5b50610638611449565b6040516106459190615c69565b60405180910390f35b34801561065a57600080fd5b5061067560048036038101906106709190615c84565b611470565b005b34801561068357600080fd5b5061069e600480360381019061069991906158aa565b611491565b6040516106ab9190615aae565b60405180910390f35b6106ce60048036038101906106c99190615eaa565b61152e565b6040516106db9190616072565b60405180910390f35b3480156106f057600080fd5b5061070b60048036038101906107069190615c84565b611a98565b005b34801561071957600080fd5b50610722611b1b565b60405161072f91906160b5565b60405180910390f35b34801561074457600080fd5b5061075f600480360381019061075a91906160d0565b611b42565b005b34801561076d57600080fd5b50610788600480360381019061078391906157f5565b611b97565b005b34801561079657600080fd5b506107b160048036038101906107ac91906157f5565b611c99565b6040516107be9190615863565b60405180910390f35b3480156107d357600080fd5b506107dc611ccd565b6040516107e99190615aae565b60405180910390f35b3480156107fe57600080fd5b5061081960048036038101906108149190616110565b611cd4565b6040516108269190615751565b60405180910390f35b34801561083b57600080fd5b50610856600480360381019061085191906157f5565b611f53565b6040516108639190615aae565b60405180910390f35b34801561087857600080fd5b50610893600480360381019061088e91906160d0565b611f74565b005b3480156108a157600080fd5b506108aa611f9c565b6040516108b79190615aae565b60405180910390f35b3480156108cc57600080fd5b506108d5611fa3565b6040516108e29190615aae565b60405180910390f35b3480156108f757600080fd5b50610912600480360381019061090d91906157f5565b611fae565b60405161091f9190615863565b60405180910390f35b34801561093457600080fd5b5061094f600480360381019061094a9190616150565b611fec565b60405161095c9190615751565b60405180910390f35b34801561097157600080fd5b5061098c60048036038101906109879190616150565b61211a565b6040516109999190615aae565b60405180910390f35b3480156109ae57600080fd5b506109b7612173565b6040516109c49190615aae565b60405180910390f35b3480156109d957600080fd5b506109f460048036038101906109ef919061617d565b61217a565b005b348015610a0257600080fd5b50610a0b6127e0565b604051610a189190616240565b60405180910390f35b348015610a2d57600080fd5b50610a486004803603810190610a439190616150565b612807565b604051610a559190615aae565b60405180910390f35b348015610a6a57600080fd5b50610a856004803603810190610a809190616110565b6128b6565b005b348015610a9357600080fd5b50610aae6004803603810190610aa991906162b1565b612921565b005b348015610abc57600080fd5b50610ad76004803603810190610ad29190615c84565b612a67565b604051610ae49190615751565b60405180910390f35b348015610af957600080fd5b50610b146004803603810190610b0f91906157f5565b612ad2565b604051610b219190615aae565b60405180910390f35b348015610b3657600080fd5b50610b3f612be0565b604051610b4c9190615aae565b60405180910390f35b348015610b6157600080fd5b50610b6a612be7565b604051610b779190615863565b60405180910390f35b348015610b8c57600080fd5b50610b95612c0e565b604051610ba29190615bf1565b60405180910390f35b348015610bb757600080fd5b50610bd26004803603810190610bcd9190616110565b612c15565b005b348015610be057600080fd5b50610be9612d09565b604051610bf69190615aae565b60405180910390f35b348015610c0b57600080fd5b50610c266004803603810190610c2191906157f5565b612d10565b604051610c339190615751565b60405180910390f35b348015610c4857600080fd5b50610c636004803603810190610c5e9190616150565b612e84565b604051610c709190615751565b60405180910390f35b348015610c8557600080fd5b50610ca06004803603810190610c9b9190616110565b612eb7565b005b348015610cae57600080fd5b50610cb7612f22565b604051610cc4919061631f565b60405180910390f35b348015610cd957600080fd5b50610cf46004803603810190610cef9190616150565b612f49565b604051610d019190615aae565b60405180910390f35b348015610d1657600080fd5b50610d1f612f62565b604051610d2c919061635b565b60405180910390f35b348015610d4157600080fd5b50610d4a612f89565b604051610d579190616393565b60405180910390f35b348015610d6c57600080fd5b50610d876004803603810190610d829190616150565b612f92565b005b348015610d9557600080fd5b50610db06004803603810190610dab91906157f5565b61300a565b005b348015610dbe57600080fd5b50610dc7613040565b604051610dd49190615aae565b60405180910390f35b348015610de957600080fd5b50610e046004803603810190610dff9190615c84565b61304b565b005b610e206004803603810190610e1b91906163ae565b61306c565b005b348015610e2e57600080fd5b50610e496004803603810190610e449190616474565b613186565b005b348015610e5757600080fd5b50610e726004803603810190610e6d91906158aa565b613330565b005b348015610e8057600080fd5b50610e9b6004803603810190610e9691906164c7565b6133cf565b604051610ea89190615751565b60405180910390f35b348015610ebd57600080fd5b50610ec6613464565b005b348015610ed457600080fd5b50610edd6134d3565b005b348015610eeb57600080fd5b50610f066004803603810190610f0191906157f5565b6134f0565b005b60007f7965db0b000000000000000000000000000000000000000000000000000000007bffffffffffffffffffffffffffffffffffffffffffffffffffffffff1916827bffffffffffffffffffffffffffffffffffffffffffffffffffffffff19161480610f7b5750610f7a8261353a565b5b9050919050565b610f8b836135a4565b610f94836135f8565b610f9d8361363a565b610fa6826135a4565b42610fb084611f53565b610fba9190616536565b811115610ff3576040517f8744776800000000000000000000000000000000000000000000000000000000815260040160405180910390fd5b610fff838260006137ec565b61100b828260016137ec565b505050565b600061101b826135a4565b6000611047600084815260200190815260200160002060009054906101000a900473ffffffffffffffffffffffffffffffffffffffff16905080915050919050565b6110668161363a565b8173ffffffffffffffffffffffffffffffffffffffff163373ffffffffffffffffffffffffffffffffffffffff16036110cb576040517ff13228ca00000000000000000000000000000000000000000000000000000000815260040160405180910390fd5b81611047600083815260200190815260200160002060006101000a81548173ffffffffffffffffffffffffffffffffffffffff021916908373ffffffffffffffffffffffffffffffffffffffff160217905550808273ffffffffffffffffffffffffffffffffffffffff16611044600084815260200190815260200160002060009054906101000a900473ffffffffffffffffffffffffffffffffffffffff1673ffffffffffffffffffffffffffffffffffffffff167f8c5be1e5ebec7d5bd14f71427d1e84f3dd0314c0f7b2291e5b200ac8c7c3b92560405160405180910390a45050565b60008073ffffffffffffffffffffffffffffffffffffffff16610c5760009054906101000a900473ffffffffffffffffffffffffffffffffffffffff1673ffffffffffffffffffffffffffffffffffffffff16146112b357610c5760009054906101000a900473ffffffffffffffffffffffffffffffffffffffff1673ffffffffffffffffffffffffffffffffffffffff1663221c1fd1338686866040518563ffffffff1660e01b815260040161126b94939291906165e9565b602060405180830381865afa158015611288573d6000803e3d6000fd5b505050506040513d601f19601f820116820180604052508101906112ac919061664a565b90506112ba565b610c535490505b9392505050565b610c5160009054906101000a900473ffffffffffffffffffffffffffffffffffffffff1681565b610c535481565b610c525481565b6000610c5554905090565b610c5860009054906101000a900473ffffffffffffffffffffffffffffffffffffffff1681565b600060656000838152602001908152602001600020600101549050919050565b610c5960009054906101000a900473ffffffffffffffffffffffffffffffffffffffff1681565b6113776138f9565b600081036113b1576040517fe03b033d00000000000000000000000000000000000000000000000000000000815260040160405180910390fd5b610c55548210156113ee576040517f1d00cd6b00000000000000000000000000000000000000000000000000000000815260040160405180910390fd5b80610c5c8190555082610c528190555081610c54819055507f9a09448a3f24d3a01ccc67103c7cddbeea820176a18182cc83d0bce585f26a5b8383610c5c5460405161143c93929190616677565b60405180910390a1505050565b610c5760009054906101000a900473ffffffffffffffffffffffffffffffffffffffff1681565b61147982611328565b6114828161395b565b61148c838361396f565b505050565b600061149c83612807565b82106114d4576040517f08e22eae00000000000000000000000000000000000000000000000000000000815260040160405180910390fd5b61104a60008473ffffffffffffffffffffffffffffffffffffffff1673ffffffffffffffffffffffffffffffffffffffff168152602001908152602001600020600083815260200190815260200160002054905092915050565b6060611538613a50565b610c54548651610c555461154c91906166ae565b1115611584576040517f31af695100000000000000000000000000000000000000000000000000000000815260040160405180910390fd5b8451865114158061159757508351865114155b156115ce576040517fed676a4a00000000000000000000000000000000000000000000000000000000815260040160405180910390fd5b600080875167ffffffffffffffff8111156115ec576115eb615905565b5b60405190808252806020026020018201604052801561161a5781602001602082028036833780820191505090505b50905060005b8851811015611a2a57600089828151811061163e5761163d6166e2565b5b602002602001015190506116cc8189848151811061165f5761165e6166e2565b5b60200260200101517fffffffffffffffffffffffffffffffffffffffffffffffffffffffffffffffff610c5254146116a557610c5254426116a091906166ae565b6116c7565b7fffffffffffffffffffffffffffffffffffffffffffffffffffffffffffffffff5b613a99565b8383815181106116df576116de6166e2565b5b6020026020010181815250506000611779828b8581518110611704576117036166e2565b5b60200260200101518a8a8781811061171f5761171e6166e2565b5b90506020028101906117319190616720565b8080601f016020809104026020016040519081016040528093929190818152602001838380828437600081840152601f19601f820116905080830192505050505050506111b1565b9050808561178791906166ae565b94506117ad84848151811061179f5761179e6166e2565b5b602002602001015182613c00565b600073ffffffffffffffffffffffffffffffffffffffff1661047f60009054906101000a900473ffffffffffffffffffffffffffffffffffffffff1673ffffffffffffffffffffffffffffffffffffffff1614611829576118288c848151811061181a576118196166e2565b5b602002602001015182613d75565b5b61184d818b85815181106118405761183f6166e2565b5b6020026020010151613db3565b60008073ffffffffffffffffffffffffffffffffffffffff1661047f60009054906101000a900473ffffffffffffffffffffffffffffffffffffffff1673ffffffffffffffffffffffffffffffffffffffff16146118c5578c84815181106118b8576118b76166e2565b5b60200260200101516118c7565b345b9050600073ffffffffffffffffffffffffffffffffffffffff16610c5760009054906101000a900473ffffffffffffffffffffffffffffffffffffffff1673ffffffffffffffffffffffffffffffffffffffff1614611a1457610c5760009054906101000a900473ffffffffffffffffffffffffffffffffffffffff1673ffffffffffffffffffffffffffffffffffffffff16635e895f29868681518110611972576119716166e2565b5b602002602001015133868f898151811061198f5761198e6166e2565b5b60200260200101518e8e8b8181106119aa576119a96166e2565b5b90506020028101906119bc9190616720565b89896040518963ffffffff1660e01b81526004016119e19897969594939291906167b0565b600060405180830381600087803b1580156119fb57600080fd5b505af1158015611a0f573d6000803e3d6000fd5b505050505b5050508080611a2290616828565b915050611620565b50611a353383613f7a565b611a3e826140b9565b611a4661427e565b60005b8751811015611a8857611a75888281518110611a6857611a676166e2565b5b6020026020010151614333565b8080611a8090616828565b915050611a49565b5080925050509695505050505050565b611aa061448f565b73ffffffffffffffffffffffffffffffffffffffff168173ffffffffffffffffffffffffffffffffffffffff1614611b0d576040517f08c379a0000000000000000000000000000000000000000000000000000000008152600401611b04906168f3565b60405180910390fd5b611b178282614497565b5050565b610c5d60009054906101000a900473ffffffffffffffffffffffffffffffffffffffff1681565b611b4a6138f9565b7fd6867bc538320e67d7bdc35860c27c08486eb490b4fd9b820fff18fb28381d3c8282604051611b7b929190616913565b60405180910390a18161181b819055508061181a819055505050565b611ba0816135a4565b611ba98161363a565b80600073ffffffffffffffffffffffffffffffffffffffff16611044600084815260200190815260200160002060009054906101000a900473ffffffffffffffffffffffffffffffffffffffff1673ffffffffffffffffffffffffffffffffffffffff167fddf252ad1be2c89b69c2b068fc378daa952ba7f163c4a11628f55a4df523b3ef60405160405180910390a4611c4281614579565b6000611044600083815260200190815260200160002060006101000a81548173ffffffffffffffffffffffffffffffffffffffff021916908373ffffffffffffffffffffffffffffffffffffffff16021790555050565b6110466020528060005260406000206000915054906101000a900473ffffffffffffffffffffffffffffffffffffffff1681565b610c5b5481565b60007fffffffffffffffffffffffffffffffffffffffffffffffffffffffffffffffff6114336000858152602001908152602001600020541480611d675750600073ffffffffffffffffffffffffffffffffffffffff1661047f60009054906101000a900473ffffffffffffffffffffffffffffffffffffffff1673ffffffffffffffffffffffffffffffffffffffff16145b15611d9e576040517fd9a81c2200000000000000000000000000000000000000000000000000000000815260040160405180910390fd5b611dc0611daa84611fae565b83604051806020016040528060008152506111b1565b6114326000858152602001908152602001600020541080611df75750610c5254611433600085815260200190815260200160002054115b80611e85575061047f60009054906101000a900473ffffffffffffffffffffffffffffffffffffffff1673ffffffffffffffffffffffffffffffffffffffff16611434600085815260200190815260200160002060009054906101000a900473ffffffffffffffffffffffffffffffffffffffff1673ffffffffffffffffffffffffffffffffffffffff1614155b15611ebc576040517f986739e700000000000000000000000000000000000000000000000000000000815260040160405180910390fd5b6000612710612328610c5254611ed2919061693c565b611edc91906169ad565b610c5254611049600087815260200190815260200160002060010154611f029190616536565b611f0c91906166ae565b905080421015611f48576040517fc1b1d86600000000000000000000000000000000000000000000000000000000815260040160405180910390fd5b600191505092915050565b60006110496000838152602001908152602001600020600101549050919050565b611f7d826135a4565b611f86826135f8565b611f8e6138f9565b611f988282614598565b5050565b61181a5481565b600061143154905090565b6000611044600083815260200190815260200160002060009054906101000a900473ffffffffffffffffffffffffffffffffffffffff169050919050565b600080611ff88361211a565b0361210557600073ffffffffffffffffffffffffffffffffffffffff16610c5960009054906101000a900473ffffffffffffffffffffffffffffffffffffffff1673ffffffffffffffffffffffffffffffffffffffff161461210457610c5960009054906101000a900473ffffffffffffffffffffffffffffffffffffffff1673ffffffffffffffffffffffffffffffffffffffff1663427ede3830336000808760006040518763ffffffff1660e01b81526004016120bc96959493929190616a19565b602060405180830381865afa1580156120d9573d6000803e3d6000fd5b505050506040513d601f19601f820116820180604052508101906120fd9190616aa6565b9050612115565b5b60016121108361211a565b101590505b919050565b60008061212683612807565b905060005b8181101561216c576121456121408583611491565b612d10565b1561215957828061215590616828565b9350505b808061216490616828565b91505061212b565b5050919050565b610c545481565b6121826138f9565b600073ffffffffffffffffffffffffffffffffffffffff168773ffffffffffffffffffffffffffffffffffffffff16141580156121db57506121d98773ffffffffffffffffffffffffffffffffffffffff1661476f565b155b1561221e5760006040517f6788e02b0000000000000000000000000000000000000000000000000000000081526004016122159190616b11565b60405180910390fd5b600073ffffffffffffffffffffffffffffffffffffffff168673ffffffffffffffffffffffffffffffffffffffff161415801561227757506122758673ffffffffffffffffffffffffffffffffffffffff1661476f565b155b156122ba5760016040517f6788e02b0000000000000000000000000000000000000000000000000000000081526004016122b19190616b67565b60405180910390fd5b600073ffffffffffffffffffffffffffffffffffffffff168573ffffffffffffffffffffffffffffffffffffffff161415801561231357506123118573ffffffffffffffffffffffffffffffffffffffff1661476f565b155b156123565760026040517f6788e02b00000000000000000000000000000000000000000000000000000000815260040161234d9190616bbd565b60405180910390fd5b600073ffffffffffffffffffffffffffffffffffffffff168473ffffffffffffffffffffffffffffffffffffffff16141580156123af57506123ad8473ffffffffffffffffffffffffffffffffffffffff1661476f565b155b156123f25760036040517f6788e02b0000000000000000000000000000000000000000000000000000000081526004016123e99190616c13565b60405180910390fd5b600073ffffffffffffffffffffffffffffffffffffffff168373ffffffffffffffffffffffffffffffffffffffff161415801561244b57506124498373ffffffffffffffffffffffffffffffffffffffff1661476f565b155b1561248e5760046040517f6788e02b0000000000000000000000000000000000000000000000000000000081526004016124859190616c69565b60405180910390fd5b600073ffffffffffffffffffffffffffffffffffffffff168273ffffffffffffffffffffffffffffffffffffffff16141580156124e757506124e58273ffffffffffffffffffffffffffffffffffffffff1661476f565b155b1561252a5760056040517f6788e02b0000000000000000000000000000000000000000000000000000000081526004016125219190616cbf565b60405180910390fd5b600073ffffffffffffffffffffffffffffffffffffffff168173ffffffffffffffffffffffffffffffffffffffff161415801561258357506125818173ffffffffffffffffffffffffffffffffffffffff1661476f565b155b156125c65760066040517f6788e02b0000000000000000000000000000000000000000000000000000000081526004016125bd9190616d15565b60405180910390fd5b86610c5760006101000a81548173ffffffffffffffffffffffffffffffffffffffff021916908373ffffffffffffffffffffffffffffffffffffffff16021790555085610c5860006101000a81548173ffffffffffffffffffffffffffffffffffffffff021916908373ffffffffffffffffffffffffffffffffffffffff16021790555083610c5a60006101000a81548173ffffffffffffffffffffffffffffffffffffffff021916908373ffffffffffffffffffffffffffffffffffffffff16021790555084610c5960006101000a81548173ffffffffffffffffffffffffffffffffffffffff021916908373ffffffffffffffffffffffffffffffffffffffff16021790555082610c5d60006101000a81548173ffffffffffffffffffffffffffffffffffffffff021916908373ffffffffffffffffffffffffffffffffffffffff16021790555081610c5e60006101000a81548173ffffffffffffffffffffffffffffffffffffffff021916908373ffffffffffffffffffffffffffffffffffffffff16021790555080610c5f60006101000a81548173ffffffffffffffffffffffffffffffffffffffff021916908373ffffffffffffffffffffffffffffffffffffffff1602179055507f0a851288e37fa9a8bc562891998524e95c286fe84f693c1921e0fd0792171af6878787878787876040516127cf9796959493929190616d30565b60405180910390a150505050505050565b610c5a60009054906101000a900473ffffffffffffffffffffffffffffffffffffffff1681565b60008073ffffffffffffffffffffffffffffffffffffffff168273ffffffffffffffffffffffffffffffffffffffff160361286e576040517f5963709b00000000000000000000000000000000000000000000000000000000815260040160405180910390fd5b61104c60008373ffffffffffffffffffffffffffffffffffffffff1673ffffffffffffffffffffffffffffffffffffffff168152602001908152602001600020549050919050565b6128be613a50565b6128c7826135a4565b6128d18282611cd4565b506128dd826000614792565b506128eb610c535482613db3565b6129006128f783611fae565b610c5354613f7a565b61290861427e565b61291181614333565b61291d610c53546140b9565b5050565b600161292b612f89565b6129359190616d9f565b61ffff16610c5b54148061294c57506000610c5b54145b61298b576040517f08c379a000000000000000000000000000000000000000000000000000000000815260040161298290616e21565b60405180910390fd5b60014603612a5057600073e79b93f8e22676774f2a8dad469175ebd00029fa90508073ffffffffffffffffffffffffffffffffffffffff1663ed9674bd6040518163ffffffff1660e01b8152600401600060405180830381600087803b1580156129f457600080fd5b505af1158015612a08573d6000803e3d6000fd5b5050505080610c5160006101000a81548173ffffffffffffffffffffffffffffffffffffffff021916908373ffffffffffffffffffffffffffffffffffffffff160217905550505b612a58612f89565b61ffff16610c5b819055505050565b60006065600084815260200190815260200160002060000160008373ffffffffffffffffffffffffffffffffffffffff1673ffffffffffffffffffffffffffffffffffffffff16815260200190815260200160002060009054906101000a900460ff16905092915050565b6000612add826135f8565b7fffffffffffffffffffffffffffffffffffffffffffffffffffffffffffffffff610c525403612b1257610c53549050612bdb565b600042612b1e84611f53565b612b289190616536565b9050610c525461181b5482612b3d91906166ae565b10612b4d57610c53549150612b6d565b610c525481610c5354612b60919061693c565b612b6a91906169ad565b91505b600061181b541480612b8f5750610c525461181b5482612b8d91906166ae565b105b15612bd957600061271061181a54610c5354612bab919061693c565b612bb591906169ad565b905080831115612bd2578083612bcb9190616536565b9250612bd7565b600092505b505b505b919050565b6110455481565b61047f60009054906101000a900473ffffffffffffffffffffffffffffffffffffffff1681565b6000801b81565b612c1d6138f9565b612c26816149e0565b6000610c53549050600061047f60009054906101000a900473ffffffffffffffffffffffffffffffffffffffff16905083610c53819055508261047f60006101000a81548173ffffffffffffffffffffffffffffffffffffffff021916908373ffffffffffffffffffffffffffffffffffffffff1602179055507f3615065ccf48367ac483ac86701248e2e5ff55bdd9be845007d34a3b68d719d482610c53548361047f60009054906101000a900473ffffffffffffffffffffffffffffffffffffffff16604051612cfb9493929190616e41565b60405180910390a150505050565b61181b5481565b60008042611049600085815260200190815260200160002060010154119050600073ffffffffffffffffffffffffffffffffffffffff16610c5960009054906101000a900473ffffffffffffffffffffffffffffffffffffffff1673ffffffffffffffffffffffffffffffffffffffff1614612e7b57610c5960009054906101000a900473ffffffffffffffffffffffffffffffffffffffff1673ffffffffffffffffffffffffffffffffffffffff1663427ede3830338661104960008981526020019081526020016000206001015461104460008a815260200190815260200160002060009054906101000a900473ffffffffffffffffffffffffffffffffffffffff16876040518763ffffffff1660e01b8152600401612e3796959493929190616e86565b602060405180830381865afa158015612e54573d6000803e3d6000fd5b505050506040513d601f19601f82011682018060405250810190612e789190616aa6565b90505b80915050919050565b6000612eb07fb89cdd26cddd51301940bf2715f765b626b8a5a9e2681ac62dc83cc2db2530c083612a67565b9050919050565b612ec0826135a4565b612eca8233614ac5565b158015612edd5750612edb33612e84565b155b15612f14576040517f866c2fa700000000000000000000000000000000000000000000000000000000815260040160405180910390fd5b612f1e8282614bed565b5050565b610c5f60009054906101000a900473ffffffffffffffffffffffffffffffffffffffff1681565b6114356020528060005260406000206000915090505481565b610c5e60009054906101000a900473ffffffffffffffffffffffffffffffffffffffff1681565b6000600d905090565b612f9a6138f9565b612fc47fb89cdd26cddd51301940bf2715f765b626b8a5a9e2681ac62dc83cc2db2530c082611470565b8073ffffffffffffffffffffffffffffffffffffffff167f91d5c045d5bd98bf59a379b259ebca05b93bf79af1845fdf87e3172385d4c7f760405160405180910390a250565b613013816135a4565b61301c816135f8565b6130258161363a565b600061303082612ad2565b905061303c8282614598565b5050565b6000610c5c54905090565b61305482611328565b61305d8161395b565b6130678383614497565b505050565b613074613a50565b61307d846135a4565b613088846000614792565b5060006130e261309786611fae565b8585858080601f016020809104026020016040519081016040528093929190818152602001838380828437600081840152601f19601f820116905080830192505050505050506111b1565b9050600073ffffffffffffffffffffffffffffffffffffffff1661047f60009054906101000a900473ffffffffffffffffffffffffffffffffffffffff1673ffffffffffffffffffffffffffffffffffffffff1614613146576131458682613d75565b5b6131508185613db3565b61315a3382613f7a565b6131648582613c00565b61316c61427e565b61317584614333565b61317e816140b9565b505050505050565b61318e6138f9565b60008073ffffffffffffffffffffffffffffffffffffffff168473ffffffffffffffffffffffffffffffffffffffff16036131cb57479050613248565b8373ffffffffffffffffffffffffffffffffffffffff166370a08231306040518263ffffffff1660e01b81526004016132049190615863565b602060405180830381865afa158015613221573d6000803e3d6000fd5b505050506040513d601f19601f82011682018060405250810190613245919061664a565b90505b60008083148061325757508183115b1561329e5760008211613296576040517f1f04ddc800000000000000000000000000000000000000000000000000000000815260040160405180910390fd5b8190506132a2565b8290505b8373ffffffffffffffffffffffffffffffffffffffff168573ffffffffffffffffffffffffffffffffffffffff163373ffffffffffffffffffffffffffffffffffffffff167f342e7ff505a8a0364cd0dc2ff195c315e43bce86b204846ecd36913e117b109e846040516133169190615aae565b60405180910390a4613329858583614cf9565b5050505050565b6133386138f9565b8061143560008473ffffffffffffffffffffffffffffffffffffffff1673ffffffffffffffffffffffffffffffffffffffff168152602001908152602001600020819055508173ffffffffffffffffffffffffffffffffffffffff167fa027572bb55de556a0df93bd38c3871aaf311245c2cd34f0da045aa33a66dbc5826040516133c39190615aae565b60405180910390a25050565b600061104860008473ffffffffffffffffffffffffffffffffffffffff1673ffffffffffffffffffffffffffffffffffffffff16815260200190815260200160002060008373ffffffffffffffffffffffffffffffffffffffff1673ffffffffffffffffffffffffffffffffffffffff16815260200190815260200160002060009054906101000a900460ff16905092915050565b61348e7fb89cdd26cddd51301940bf2715f765b626b8a5a9e2681ac62dc83cc2db2530c033611a98565b3373ffffffffffffffffffffffffffffffffffffffff167f42885193b8178d25fca25a38e6fcc93918501e91be06d85e0c8afb3bad95238060405160405180910390a2565b6134db6138f9565b6134e3612f89565b61ffff16610c5b81905550565b6134f86138f9565b80611431819055507f4d816c1058de34c4241ba72c371fb3f2ea05147691b364f04d16bc967ae68a118160405161352f9190615aae565b60405180910390a150565b60007f01ffc9a7000000000000000000000000000000000000000000000000000000007bffffffffffffffffffffffffffffffffffffffffffffffffffffffff1916827bffffffffffffffffffffffffffffffffffffffffffffffffffffffff1916149050919050565b6000611049600083815260200190815260200160002060000154036135f5576040517f78fe247300000000000000000000000000000000000000000000000000000000815260040160405180910390fd5b50565b61360181612d10565b613637576040517f0d9f4fae00000000000000000000000000000000000000000000000000000000815260040160405180910390fd5b50565b60008073ffffffffffffffffffffffffffffffffffffffff16611046600084815260200190815260200160002060009054906101000a900473ffffffffffffffffffffffffffffffffffffffff1673ffffffffffffffffffffffffffffffffffffffff16146136dd57611046600083815260200190815260200160002060009054906101000a900473ffffffffffffffffffffffffffffffffffffffff16613713565b611044600083815260200190815260200160002060009054906101000a900473ffffffffffffffffffffffffffffffffffffffff165b905061371e33612e84565b15801561373257506137308233614ac5565b155b801561379e57503373ffffffffffffffffffffffffffffffffffffffff16611047600084815260200190815260200160002060009054906101000a900473ffffffffffffffffffffffffffffffffffffffff1673ffffffffffffffffffffffffffffffffffffffff1614155b80156137b157506137af81336133cf565b155b156137e8576040517fe17c6d4500000000000000000000000000000000000000000000000000000000815260040160405180910390fd5b5050565b6137f5836135a4565b600061104960008581526020019081526020016000206001015490508115613878574281111561384b57828161382b91906166ae565b611049600086815260200190815260200160002060010181905550613873565b824261385791906166ae565b6110496000868152602001908152602001600020600101819055505b6138a0565b82816138849190616536565b6110496000868152602001908152602001600020600101819055505b837f3c907806849e9204e0e26bb095dfe4b3071576c4323f766735c548211556d05261104960008781526020019081526020016000206001015485856040516138eb93929190616ee7565b60405180910390a250505050565b6139237fb89cdd26cddd51301940bf2715f765b626b8a5a9e2681ac62dc83cc2db2530c033612a67565b613959576040517f8e1b58c400000000000000000000000000000000000000000000000000000000815260040160405180910390fd5b565b61396c8161396761448f565b614d9c565b50565b6139798282612a67565b613a4c5760016065600084815260200190815260200160002060000160008373ffffffffffffffffffffffffffffffffffffffff1673ffffffffffffffffffffffffffffffffffffffff16815260200190815260200160002060006101000a81548160ff0219169083151502179055506139f161448f565b73ffffffffffffffffffffffffffffffffffffffff168173ffffffffffffffffffffffffffffffffffffffff16837f2f8788117e7eff1d82e926ec794901d17c78024a50270940304540a733656f0d60405160405180910390a45b5050565b613a58612f89565b61ffff16610c5b5414613a97576040517fbab80ec000000000000000000000000000000000000000000000000000000000815260040160405180910390fd5b565b60008073ffffffffffffffffffffffffffffffffffffffff168473ffffffffffffffffffffffffffffffffffffffff1603613b00576040517f5963709b00000000000000000000000000000000000000000000000000000000815260040160405180910390fd5b610c556000815480929190613b1490616828565b9190505550610c55549050604051806040016040528082815260200183815250611049600083815260200190815260200160002060008201518160000155602082015181600101559050506000613b6a85612807565b03613b89576110456000815480929190613b8390616828565b91905055505b613b938185614e21565b613b9d8184614bed565b808473ffffffffffffffffffffffffffffffffffffffff16600073ffffffffffffffffffffffffffffffffffffffff167fddf252ad1be2c89b69c2b068fc378daa952ba7f163c4a11628f55a4df523b3ef60405160405180910390a49392505050565b8061143260008481526020019081526020016000205414613c3557806114326000848152602001908152602001600020819055505b610c525461143360008481526020019081526020016000205414613c7057610c52546114336000848152602001908152602001600020819055505b61047f60009054906101000a900473ffffffffffffffffffffffffffffffffffffffff1673ffffffffffffffffffffffffffffffffffffffff16611434600084815260200190815260200160002060009054906101000a900473ffffffffffffffffffffffffffffffffffffffff1673ffffffffffffffffffffffffffffffffffffffff1614613d715761047f60009054906101000a900473ffffffffffffffffffffffffffffffffffffffff16611434600084815260200190815260200160002060006101000a81548173ffffffffffffffffffffffffffffffffffffffff021916908373ffffffffffffffffffffffffffffffffffffffff1602179055505b5050565b80821015613daf576040517fc0017ec400000000000000000000000000000000000000000000000000000000815260040160405180910390fd5b5050565b6000610c5160009054906101000a900473ffffffffffffffffffffffffffffffffffffffff1673ffffffffffffffffffffffffffffffffffffffff163b1115613f0457610c5160009054906101000a900473ffffffffffffffffffffffffffffffffffffffff1673ffffffffffffffffffffffffffffffffffffffff1663939d9f1f620493e084846040518463ffffffff1660e01b8152600401613e58929190616f1e565b600060405180830381600088803b158015613e7257600080fd5b5087f193505050508015613e84575060015b613efe573073ffffffffffffffffffffffffffffffffffffffff167f6b18946261693dfd6c760d986b28ad2238b5b0267f8e5b6bc40a2f998e2f20ac610c5160009054906101000a900473ffffffffffffffffffffffffffffffffffffffff16604051613ef19190615863565b60405180910390a2613eff565b5b613f76565b3073ffffffffffffffffffffffffffffffffffffffff167f6b18946261693dfd6c760d986b28ad2238b5b0267f8e5b6bc40a2f998e2f20ac610c5160009054906101000a900473ffffffffffffffffffffffffffffffffffffffff16604051613f6d9190615863565b60405180910390a25b5050565b600073ffffffffffffffffffffffffffffffffffffffff1661047f60009054906101000a900473ffffffffffffffffffffffffffffffffffffffff1673ffffffffffffffffffffffffffffffffffffffff161461407a5761047f60009054906101000a900473ffffffffffffffffffffffffffffffffffffffff1673ffffffffffffffffffffffffffffffffffffffff166323b872dd8330846040518463ffffffff1660e01b815260040161403193929190616f47565b6020604051808303816000875af1158015614050573d6000803e3d6000fd5b505050506040513d601f19601f820116820180604052508101906140749190616aa6565b506140b5565b803410156140b4576040517f6c3cddf000000000000000000000000000000000000000000000000000000000815260040160405180910390fd5b5b5050565b600080610c5160009054906101000a900473ffffffffffffffffffffffffffffffffffffffff1673ffffffffffffffffffffffffffffffffffffffff163b111561427a57610c5160009054906101000a900473ffffffffffffffffffffffffffffffffffffffff1673ffffffffffffffffffffffffffffffffffffffff1663b0e21e8a6040518163ffffffff1660e01b8152600401602060405180830381865afa92505050801561418857506040513d601f19601f82011682018060405250810190614185919061664a565b60015b614202573073ffffffffffffffffffffffffffffffffffffffff167f6b18946261693dfd6c760d986b28ad2238b5b0267f8e5b6bc40a2f998e2f20ac610c5160009054906101000a900473ffffffffffffffffffffffffffffffffffffffff166040516141f59190615863565b60405180910390a2614279565b6127108184614211919061693c565b61421b91906169ad565b9150600082146142775761427661047f60009054906101000a900473ffffffffffffffffffffffffffffffffffffffff16610c5160009054906101000a900473ffffffffffffffffffffffffffffffffffffffff1684614cf9565b5b505b5b5050565b60006114315414614331576142ba61047f60009054906101000a900473ffffffffffffffffffffffffffffffffffffffff163361143154614cf9565b3373ffffffffffffffffffffffffffffffffffffffff167f522a883b471164223f18b50f326da8671372b64b4792eac0e63d447e714c3e3b6114315461047f60009054906101000a900473ffffffffffffffffffffffffffffffffffffffff16604051614328929190616f1e565b60405180910390a25b565b600073ffffffffffffffffffffffffffffffffffffffff168173ffffffffffffffffffffffffffffffffffffffff161461448c57600061143560008073ffffffffffffffffffffffffffffffffffffffff1673ffffffffffffffffffffffffffffffffffffffff168152602001908152602001600020549050600061143560008473ffffffffffffffffffffffffffffffffffffffff1673ffffffffffffffffffffffffffffffffffffffff16815260200190815260200160002054146144385761143560008373ffffffffffffffffffffffffffffffffffffffff1673ffffffffffffffffffffffffffffffffffffffff1681526020019081526020016000205490505b6000811461448a5761448961047f60009054906101000a900473ffffffffffffffffffffffffffffffffffffffff168361271084610c535461447a919061693c565b61448491906169ad565b614cf9565b5b505b50565b600033905090565b6144a18282612a67565b156145755760006065600084815260200190815260200160002060000160008373ffffffffffffffffffffffffffffffffffffffff1673ffffffffffffffffffffffffffffffffffffffff16815260200190815260200160002060006101000a81548160ff02191690831515021790555061451a61448f565b73ffffffffffffffffffffffffffffffffffffffff168173ffffffffffffffffffffffffffffffffffffffff16837ff6391f5c32d9c69d2a47ea670b442974b53935d1edc7fd64eb21e047a839171b60405160405180910390a45b5050565b4261104960008381526020019081526020016000206001018190555050565b60006145a383611fae565b90506145ae83614579565b3373ffffffffffffffffffffffffffffffffffffffff168173ffffffffffffffffffffffffffffffffffffffff16847f0a7068a9989857441c039a14a42b67ed71dd1fcfe5a9b17cc87b252e47bce5288560405161460c9190615aae565b60405180910390a4600082111561464c5761464b61047f60009054906101000a900473ffffffffffffffffffffffffffffffffffffffff168284614cf9565b5b60006114336000858152602001908152602001600020819055506000611432600085815260200190815260200160002081905550600073ffffffffffffffffffffffffffffffffffffffff16610c5860009054906101000a900473ffffffffffffffffffffffffffffffffffffffff1673ffffffffffffffffffffffffffffffffffffffff161461476a57610c5860009054906101000a900473ffffffffffffffffffffffffffffffffffffffff1673ffffffffffffffffffffffffffffffffffffffff1663b499b6c53383856040518463ffffffff1660e01b815260040161473793929190616f9f565b600060405180830381600087803b15801561475157600080fd5b505af1158015614765573d6000803e3d6000fd5b505050505b505050565b6000808273ffffffffffffffffffffffffffffffffffffffff163b119050919050565b60008061104960008581526020019081526020016000206001015490507fffffffffffffffffffffffffffffffffffffffffffffffffffffffffffffffff8103614808576040517f1fda338200000000000000000000000000000000000000000000000000000000815260040160405180910390fd5b6000808414614817578361481c565b610c52545b90507fffffffffffffffffffffffffffffffffffffffffffffffffffffffffffffffff810361486d577fffffffffffffffffffffffffffffffffffffffffffffffffffffffffffffffff9250614898565b4282111561488857808261488191906166ae565b9250614897565b804261489491906166ae565b92505b5b82611049600087815260200190815260200160002060010181905550847f3ca112768ff7861e008ace1c11570c52e404c043e585545b5957a1e20961dde3846040516148e49190615aae565b60405180910390a2600073ffffffffffffffffffffffffffffffffffffffff16610c5e60009054906101000a900473ffffffffffffffffffffffffffffffffffffffff1673ffffffffffffffffffffffffffffffffffffffff16146149d857610c5e60009054906101000a900473ffffffffffffffffffffffffffffffffffffffff1673ffffffffffffffffffffffffffffffffffffffff1663016b9680863386866040518563ffffffff1660e01b81526004016149a59493929190616fd6565b600060405180830381600087803b1580156149bf57600080fd5b505af11580156149d3573d6000803e3d6000fd5b505050505b505092915050565b600073ffffffffffffffffffffffffffffffffffffffff168173ffffffffffffffffffffffffffffffffffffffff1614158015614a8b575060008173ffffffffffffffffffffffffffffffffffffffff166318160ddd6040518163ffffffff1660e01b8152600401602060405180830381865afa158015614a65573d6000803e3d6000fd5b505050506040513d601f19601f82011682018060405250810190614a89919061664a565b105b15614ac2576040517fd0995cf200000000000000000000000000000000000000000000000000000000815260040160405180910390fd5b50565b60008173ffffffffffffffffffffffffffffffffffffffff16611046600085815260200190815260200160002060009054906101000a900473ffffffffffffffffffffffffffffffffffffffff1673ffffffffffffffffffffffffffffffffffffffff161480614bd457508173ffffffffffffffffffffffffffffffffffffffff16614b5084611fae565b73ffffffffffffffffffffffffffffffffffffffff16148015614bd35750600073ffffffffffffffffffffffffffffffffffffffff16611046600085815260200190815260200160002060009054906101000a900473ffffffffffffffffffffffffffffffffffffffff1673ffffffffffffffffffffffffffffffffffffffff16145b5b15614be25760019050614be7565b600090505b92915050565b8073ffffffffffffffffffffffffffffffffffffffff16611046600084815260200190815260200160002060009054906101000a900473ffffffffffffffffffffffffffffffffffffffff1673ffffffffffffffffffffffffffffffffffffffff1614614cf55780611046600084815260200190815260200160002060006101000a81548173ffffffffffffffffffffffffffffffffffffffff021916908373ffffffffffffffffffffffffffffffffffffffff160217905550614cb082614f89565b8073ffffffffffffffffffffffffffffffffffffffff16827f9d2895c45a420624de863a2f437b022d879f457bf7a829044055a10c5a6fd5e360405160405180910390a35b5050565b6000811115614d9757600073ffffffffffffffffffffffffffffffffffffffff168373ffffffffffffffffffffffffffffffffffffffff1603614d6457614d5f818373ffffffffffffffffffffffffffffffffffffffff1661504990919063ffffffff16565b614d96565b6000839050614d9483838373ffffffffffffffffffffffffffffffffffffffff1661513d9092919063ffffffff16565b505b5b505050565b614da68282612a67565b614e1d57614db3816151c3565b614dc18360001c60206151f0565b604051602001614dd29291906170fa565b6040516020818303038152906040526040517f08c379a0000000000000000000000000000000000000000000000000000000008152600401614e14919061716d565b60405180910390fd5b5050565b6000614e2c82612807565b9050610c5c548110614e6a576040517f17ed864600000000000000000000000000000000000000000000000000000000815260040160405180910390fd5b8061104b6000858152602001908152602001600020819055508261104a60008473ffffffffffffffffffffffffffffffffffffffff1673ffffffffffffffffffffffffffffffffffffffff16815260200190815260200160002060008381526020019081526020016000208190555081611044600085815260200190815260200160002060006101000a81548173ffffffffffffffffffffffffffffffffffffffff021916908373ffffffffffffffffffffffffffffffffffffffff160217905550600161104c60008473ffffffffffffffffffffffffffffffffffffffff1673ffffffffffffffffffffffffffffffffffffffff1681526020019081526020016000206000828254614f7d91906166ae565b92505081905550505050565b600073ffffffffffffffffffffffffffffffffffffffff16611047600083815260200190815260200160002060009054906101000a900473ffffffffffffffffffffffffffffffffffffffff1673ffffffffffffffffffffffffffffffffffffffff1614615046576000611047600083815260200190815260200160002060006101000a81548173ffffffffffffffffffffffffffffffffffffffff021916908373ffffffffffffffffffffffffffffffffffffffff1602179055505b50565b8047101561508c576040517f08c379a0000000000000000000000000000000000000000000000000000000008152600401615083906171db565b60405180910390fd5b60008273ffffffffffffffffffffffffffffffffffffffff16826040516150b29061722c565b60006040518083038185875af1925050503d80600081146150ef576040519150601f19603f3d011682016040523d82523d6000602084013e6150f4565b606091505b5050905080615138576040517f08c379a000000000000000000000000000000000000000000000000000000000815260040161512f906172b3565b60405180910390fd5b505050565b6151be8363a9059cbb60e01b848460405160240161515c9291906172d3565b604051602081830303815290604052907bffffffffffffffffffffffffffffffffffffffffffffffffffffffff19166020820180517bffffffffffffffffffffffffffffffffffffffffffffffffffffffff838183161783525050505061542c565b505050565b60606151e98273ffffffffffffffffffffffffffffffffffffffff16601460ff166151f0565b9050919050565b606060006002836002615203919061693c565b61520d91906166ae565b67ffffffffffffffff81111561522657615225615905565b5b6040519080825280601f01601f1916602001820160405280156152585781602001600182028036833780820191505090505b5090507f3000000000000000000000000000000000000000000000000000000000000000816000815181106152905761528f6166e2565b5b60200101907effffffffffffffffffffffffffffffffffffffffffffffffffffffffffffff1916908160001a9053507f7800000000000000000000000000000000000000000000000000000000000000816001815181106152f4576152f36166e2565b5b60200101907effffffffffffffffffffffffffffffffffffffffffffffffffffffffffffff1916908160001a90535060006001846002615334919061693c565b61533e91906166ae565b90505b60018111156153de577f3031323334353637383961626364656600000000000000000000000000000000600f8616601081106153805761537f6166e2565b5b1a60f81b828281518110615397576153966166e2565b5b60200101907effffffffffffffffffffffffffffffffffffffffffffffffffffffffffffff1916908160001a905350600485901c9450806153d7906172fc565b9050615341565b5060008414615422576040517f08c379a000000000000000000000000000000000000000000000000000000000815260040161541990617371565b60405180910390fd5b8091505092915050565b600061548e826040518060400160405280602081526020017f5361666545524332303a206c6f772d6c6576656c2063616c6c206661696c65648152508573ffffffffffffffffffffffffffffffffffffffff166154f39092919063ffffffff16565b90506000815111156154ee57808060200190518101906154ae9190616aa6565b6154ed576040517f08c379a00000000000000000000000000000000000000000000000000000000081526004016154e490617403565b60405180910390fd5b5b505050565b6060615502848460008561550b565b90509392505050565b606082471015615550576040517f08c379a000000000000000000000000000000000000000000000000000000000815260040161554790617495565b60405180910390fd5b6000808673ffffffffffffffffffffffffffffffffffffffff16858760405161557991906174e6565b60006040518083038185875af1925050503d80600081146155b6576040519150601f19603f3d011682016040523d82523d6000602084013e6155bb565b606091505b50915091506155cc878383876155d8565b92505050949350505050565b6060831561563a576000835103615632576155f28561476f565b615631576040517f08c379a000000000000000000000000000000000000000000000000000000000815260040161562890617549565b60405180910390fd5b5b829050615645565b615644838361564d565b5b949350505050565b6000825111156156605781518083602001fd5b806040517f08c379a0000000000000000000000000000000000000000000000000000000008152600401615694919061716d565b60405180910390fd5b6000604051905090565b600080fd5b600080fd5b60007fffffffff0000000000000000000000000000000000000000000000000000000082169050919050565b6156e6816156b1565b81146156f157600080fd5b50565b600081359050615703816156dd565b92915050565b60006020828403121561571f5761571e6156a7565b5b600061572d848285016156f4565b91505092915050565b60008115159050919050565b61574b81615736565b82525050565b60006020820190506157666000830184615742565b92915050565b6000819050919050565b61577f8161576c565b811461578a57600080fd5b50565b60008135905061579c81615776565b92915050565b6000806000606084860312156157bb576157ba6156a7565b5b60006157c98682870161578d565b93505060206157da8682870161578d565b92505060406157eb8682870161578d565b9150509250925092565b60006020828403121561580b5761580a6156a7565b5b60006158198482850161578d565b91505092915050565b600073ffffffffffffffffffffffffffffffffffffffff82169050919050565b600061584d82615822565b9050919050565b61585d81615842565b82525050565b60006020820190506158786000830184615854565b92915050565b61588781615842565b811461589257600080fd5b50565b6000813590506158a48161587e565b92915050565b600080604083850312156158c1576158c06156a7565b5b60006158cf85828601615895565b92505060206158e08582860161578d565b9150509250929050565b600080fd5b600080fd5b6000601f19601f8301169050919050565b7f4e487b7100000000000000000000000000000000000000000000000000000000600052604160045260246000fd5b61593d826158f4565b810181811067ffffffffffffffff8211171561595c5761595b615905565b5b80604052505050565b600061596f61569d565b905061597b8282615934565b919050565b600067ffffffffffffffff82111561599b5761599a615905565b5b6159a4826158f4565b9050602081019050919050565b82818337600083830152505050565b60006159d36159ce84615980565b615965565b9050828152602081018484840111156159ef576159ee6158ef565b5b6159fa8482856159b1565b509392505050565b600082601f830112615a1757615a166158ea565b5b8135615a278482602086016159c0565b91505092915050565b600080600060608486031215615a4957615a486156a7565b5b6000615a5786828701615895565b9350506020615a6886828701615895565b925050604084013567ffffffffffffffff811115615a8957615a886156ac565b5b615a9586828701615a02565b9150509250925092565b615aa88161576c565b82525050565b6000602082019050615ac36000830184615a9f565b92915050565b6000819050919050565b6000615aee615ae9615ae484615822565b615ac9565b615822565b9050919050565b6000615b0082615ad3565b9050919050565b6000615b1282615af5565b9050919050565b615b2281615b07565b82525050565b6000602082019050615b3d6000830184615b19565b92915050565b6000615b4e82615af5565b9050919050565b615b5e81615b43565b82525050565b6000602082019050615b796000830184615b55565b92915050565b6000819050919050565b615b9281615b7f565b8114615b9d57600080fd5b50565b600081359050615baf81615b89565b92915050565b600060208284031215615bcb57615bca6156a7565b5b6000615bd984828501615ba0565b91505092915050565b615beb81615b7f565b82525050565b6000602082019050615c066000830184615be2565b92915050565b6000615c1782615af5565b9050919050565b615c2781615c0c565b82525050565b6000602082019050615c426000830184615c1e565b92915050565b6000615c5382615af5565b9050919050565b615c6381615c48565b82525050565b6000602082019050615c7e6000830184615c5a565b92915050565b60008060408385031215615c9b57615c9a6156a7565b5b6000615ca985828601615ba0565b9250506020615cba85828601615895565b9150509250929050565b600067ffffffffffffffff821115615cdf57615cde615905565b5b602082029050602081019050919050565b600080fd5b6000615d08615d0384615cc4565b615965565b90508083825260208201905060208402830185811115615d2b57615d2a615cf0565b5b835b81811015615d545780615d40888261578d565b845260208401935050602081019050615d2d565b5050509392505050565b600082601f830112615d7357615d726158ea565b5b8135615d83848260208601615cf5565b91505092915050565b600067ffffffffffffffff821115615da757615da6615905565b5b602082029050602081019050919050565b6000615dcb615dc684615d8c565b615965565b90508083825260208201905060208402830185811115615dee57615ded615cf0565b5b835b81811015615e175780615e038882615895565b845260208401935050602081019050615df0565b5050509392505050565b600082601f830112615e3657615e356158ea565b5b8135615e46848260208601615db8565b91505092915050565b600080fd5b60008083601f840112615e6a57615e696158ea565b5b8235905067ffffffffffffffff811115615e8757615e86615e4f565b5b602083019150836020820283011115615ea357615ea2615cf0565b5b9250929050565b60008060008060008060a08789031215615ec757615ec66156a7565b5b600087013567ffffffffffffffff811115615ee557615ee46156ac565b5b615ef189828a01615d5e565b965050602087013567ffffffffffffffff811115615f1257615f116156ac565b5b615f1e89828a01615e21565b955050604087013567ffffffffffffffff811115615f3f57615f3e6156ac565b5b615f4b89828a01615e21565b945050606087013567ffffffffffffffff811115615f6c57615f6b6156ac565b5b615f7889828a01615e21565b935050608087013567ffffffffffffffff811115615f9957615f986156ac565b5b615fa589828a01615e54565b92509250509295509295509295565b600081519050919050565b600082825260208201905092915050565b6000819050602082019050919050565b615fe98161576c565b82525050565b6000615ffb8383615fe0565b60208301905092915050565b6000602082019050919050565b600061601f82615fb4565b6160298185615fbf565b935061603483615fd0565b8060005b8381101561606557815161604c8882615fef565b975061605783616007565b925050600181019050616038565b5085935050505092915050565b6000602082019050818103600083015261608c8184616014565b905092915050565b600061609f82615af5565b9050919050565b6160af81616094565b82525050565b60006020820190506160ca60008301846160a6565b92915050565b600080604083850312156160e7576160e66156a7565b5b60006160f58582860161578d565b92505060206161068582860161578d565b9150509250929050565b60008060408385031215616127576161266156a7565b5b60006161358582860161578d565b925050602061614685828601615895565b9150509250929050565b600060208284031215616166576161656156a7565b5b600061617484828501615895565b91505092915050565b600080600080600080600060e0888a03121561619c5761619b6156a7565b5b60006161aa8a828b01615895565b97505060206161bb8a828b01615895565b96505060406161cc8a828b01615895565b95505060606161dd8a828b01615895565b94505060806161ee8a828b01615895565b93505060a06161ff8a828b01615895565b92505060c06162108a828b01615895565b91505092959891949750929550565b600061622a82615af5565b9050919050565b61623a8161621f565b82525050565b60006020820190506162556000830184616231565b92915050565b60008083601f840112616271576162706158ea565b5b8235905067ffffffffffffffff81111561628e5761628d615e4f565b5b6020830191508360018202830111156162aa576162a9615cf0565b5b9250929050565b600080602083850312156162c8576162c76156a7565b5b600083013567ffffffffffffffff8111156162e6576162e56156ac565b5b6162f28582860161625b565b92509250509250929050565b600061630982615af5565b9050919050565b616319816162fe565b82525050565b60006020820190506163346000830184616310565b92915050565b600061634582615af5565b9050919050565b6163558161633a565b82525050565b6000602082019050616370600083018461634c565b92915050565b600061ffff82169050919050565b61638d81616376565b82525050565b60006020820190506163a86000830184616384565b92915050565b6000806000806000608086880312156163ca576163c96156a7565b5b60006163d88882890161578d565b95505060206163e98882890161578d565b94505060406163fa88828901615895565b935050606086013567ffffffffffffffff81111561641b5761641a6156ac565b5b6164278882890161625b565b92509250509295509295909350565b600061644182615822565b9050919050565b61645181616436565b811461645c57600080fd5b50565b60008135905061646e81616448565b92915050565b60008060006060848603121561648d5761648c6156a7565b5b600061649b86828701615895565b93505060206164ac8682870161645f565b92505060406164bd8682870161578d565b9150509250925092565b600080604083850312156164de576164dd6156a7565b5b60006164ec85828601615895565b92505060206164fd85828601615895565b9150509250929050565b7f4e487b7100000000000000000000000000000000000000000000000000000000600052601160045260246000fd5b60006165418261576c565b915061654c8361576c565b925082820390508181111561656457616563616507565b5b92915050565b600081519050919050565b600082825260208201905092915050565b60005b838110156165a4578082015181840152602081019050616589565b60008484015250505050565b60006165bb8261656a565b6165c58185616575565b93506165d5818560208601616586565b6165de816158f4565b840191505092915050565b60006080820190506165fe6000830187615854565b61660b6020830186615854565b6166186040830185615854565b818103606083015261662a81846165b0565b905095945050505050565b60008151905061664481615776565b92915050565b6000602082840312156166605761665f6156a7565b5b600061666e84828501616635565b91505092915050565b600060608201905061668c6000830186615a9f565b6166996020830185615a9f565b6166a66040830184615a9f565b949350505050565b60006166b98261576c565b91506166c48361576c565b92508282019050808211156166dc576166db616507565b5b92915050565b7f4e487b7100000000000000000000000000000000000000000000000000000000600052603260045260246000fd5b600080fd5b600080fd5b600080fd5b6000808335600160200384360303811261673d5761673c616711565b5b80840192508235915067ffffffffffffffff82111561675f5761675e616716565b5b60208301925060018202360383131561677b5761677a61671b565b5b509250929050565b600061678f8385616575565b935061679c8385846159b1565b6167a5836158f4565b840190509392505050565b600060e0820190506167c5600083018b615a9f565b6167d2602083018a615854565b6167df6040830189615854565b6167ec6060830188615854565b81810360808301526167ff818688616783565b905061680e60a0830185615a9f565b61681b60c0830184615a9f565b9998505050505050505050565b60006168338261576c565b91507fffffffffffffffffffffffffffffffffffffffffffffffffffffffffffffffff820361686557616864616507565b5b600182019050919050565b600082825260208201905092915050565b7f416363657373436f6e74726f6c3a2063616e206f6e6c792072656e6f756e636560008201527f20726f6c657320666f722073656c660000000000000000000000000000000000602082015250565b60006168dd602f83616870565b91506168e882616881565b604082019050919050565b6000602082019050818103600083015261690c816168d0565b9050919050565b60006040820190506169286000830185615a9f565b6169356020830184615a9f565b9392505050565b60006169478261576c565b91506169528361576c565b92508282026169608161576c565b9150828204841483151761697757616976616507565b5b5092915050565b7f4e487b7100000000000000000000000000000000000000000000000000000000600052601260045260246000fd5b60006169b88261576c565b91506169c38361576c565b9250826169d3576169d261697e565b5b828204905092915050565b6000819050919050565b6000616a036169fe6169f9846169de565b615ac9565b61576c565b9050919050565b616a13816169e8565b82525050565b600060c082019050616a2e6000830189615854565b616a3b6020830188615854565b616a486040830187616a0a565b616a556060830186616a0a565b616a626080830185615854565b616a6f60a0830184615742565b979650505050505050565b616a8381615736565b8114616a8e57600080fd5b50565b600081519050616aa081616a7a565b92915050565b600060208284031215616abc57616abb6156a7565b5b6000616aca84828501616a91565b91505092915050565b600060ff82169050919050565b6000616afb616af6616af1846169de565b615ac9565b616ad3565b9050919050565b616b0b81616ae0565b82525050565b6000602082019050616b266000830184616b02565b92915050565b6000819050919050565b6000616b51616b4c616b4784616b2c565b615ac9565b616ad3565b9050919050565b616b6181616b36565b82525050565b6000602082019050616b7c6000830184616b58565b92915050565b6000819050919050565b6000616ba7616ba2616b9d84616b82565b615ac9565b616ad3565b9050919050565b616bb781616b8c565b82525050565b6000602082019050616bd26000830184616bae565b92915050565b6000819050919050565b6000616bfd616bf8616bf384616bd8565b615ac9565b616ad3565b9050919050565b616c0d81616be2565b82525050565b6000602082019050616c286000830184616c04565b92915050565b6000819050919050565b6000616c53616c4e616c4984616c2e565b615ac9565b616ad3565b9050919050565b616c6381616c38565b82525050565b6000602082019050616c7e6000830184616c5a565b92915050565b6000819050919050565b6000616ca9616ca4616c9f84616c84565b615ac9565b616ad3565b9050919050565b616cb981616c8e565b82525050565b6000602082019050616cd46000830184616cb0565b92915050565b6000819050919050565b6000616cff616cfa616cf584616cda565b615ac9565b616ad3565b9050919050565b616d0f81616ce4565b82525050565b6000602082019050616d2a6000830184616d06565b92915050565b600060e082019050616d45600083018a615854565b616d526020830189615854565b616d5f6040830188615854565b616d6c6060830187615854565b616d796080830186615854565b616d8660a0830185615854565b616d9360c0830184615854565b98975050505050505050565b6000616daa82616376565b9150616db583616376565b9250828203905061ffff811115616dcf57616dce616507565b5b92915050565b7f534348454d415f56455253494f4e5f4e4f545f434f5252454354000000000000600082015250565b6000616e0b601a83616870565b9150616e1682616dd5565b602082019050919050565b60006020820190508181036000830152616e3a81616dfe565b9050919050565b6000608082019050616e566000830187615a9f565b616e636020830186615a9f565b616e706040830185615854565b616e7d6060830184615854565b95945050505050565b600060c082019050616e9b6000830189615854565b616ea86020830188615854565b616eb56040830187615a9f565b616ec26060830186615a9f565b616ecf6080830185615854565b616edc60a0830184615742565b979650505050505050565b6000606082019050616efc6000830186615a9f565b616f096020830185615a9f565b616f166040830184615742565b949350505050565b6000604082019050616f336000830185615a9f565b616f406020830184615854565b9392505050565b6000606082019050616f5c6000830186615854565b616f696020830185615854565b616f766040830184615a9f565b949350505050565b6000616f8982615af5565b9050919050565b616f9981616f7e565b82525050565b6000606082019050616fb46000830186615854565b616fc16020830185616f90565b616fce6040830184615a9f565b949350505050565b6000608082019050616feb6000830187615a9f565b616ff86020830186615854565b6170056040830185615a9f565b6170126060830184615a9f565b95945050505050565b600081905092915050565b7f416363657373436f6e74726f6c3a206163636f756e7420000000000000000000600082015250565b600061705c60178361701b565b915061706782617026565b601782019050919050565b600081519050919050565b600061708882617072565b617092818561701b565b93506170a2818560208601616586565b80840191505092915050565b7f206973206d697373696e6720726f6c6520000000000000000000000000000000600082015250565b60006170e460118361701b565b91506170ef826170ae565b601182019050919050565b60006171058261704f565b9150617111828561707d565b915061711c826170d7565b9150617128828461707d565b91508190509392505050565b600061713f82617072565b6171498185616870565b9350617159818560208601616586565b617162816158f4565b840191505092915050565b600060208201905081810360008301526171878184617134565b905092915050565b7f416464726573733a20696e73756666696369656e742062616c616e6365000000600082015250565b60006171c5601d83616870565b91506171d08261718f565b602082019050919050565b600060208201905081810360008301526171f4816171b8565b9050919050565b600081905092915050565b50565b60006172166000836171fb565b915061722182617206565b600082019050919050565b600061723782617209565b9150819050919050565b7f416464726573733a20756e61626c6520746f2073656e642076616c75652c207260008201527f6563697069656e74206d61792068617665207265766572746564000000000000602082015250565b600061729d603a83616870565b91506172a882617241565b604082019050919050565b600060208201905081810360008301526172cc81617290565b9050919050565b60006040820190506172e86000830185615854565b6172f56020830184615a9f565b9392505050565b60006173078261576c565b91506000820361731a57617319616507565b5b600182039050919050565b7f537472696e67733a20686578206c656e67746820696e73756666696369656e74600082015250565b600061735b602083616870565b915061736682617325565b602082019050919050565b6000602082019050818103600083015261738a8161734e565b9050919050565b7f5361666545524332303a204552433230206f7065726174696f6e20646964206e60008201527f6f74207375636365656400000000000000000000000000000000000000000000602082015250565b60006173ed602a83616870565b91506173f882617391565b604082019050919050565b6000602082019050818103600083015261741c816173e0565b9050919050565b7f416464726573733a20696e73756666696369656e742062616c616e636520666f60008201527f722063616c6c0000000000000000000000000000000000000000000000000000602082015250565b600061747f602683616870565b915061748a82617423565b604082019050919050565b600060208201905081810360008301526174ae81617472565b9050919050565b60006174c08261656a565b6174ca81856171fb565b93506174da818560208601616586565b80840191505092915050565b60006174f282846174b5565b915081905092915050565b7f416464726573733a2063616c6c20746f206e6f6e2d636f6e7472616374000000600082015250565b6000617533601d83616870565b915061753e826174fd565b602082019050919050565b6000602082019050818103600083015261756281617526565b905091905056fea264697066735822122056d8350f03a597bb2c79fc26497a84270a24ae22a35aa77c08e7439c8c9c868164736f6c63430008120033",
			"opcodes": "PUSH1 0x80 PUSH1 0x40 MSTORE CALLVALUE DUP1 ISZERO PUSH2 0x10 JUMPI PUSH1 0x0 DUP1 REVERT JUMPDEST POP PUSH2 0x759F DUP1 PUSH3 0x21 PUSH1 0x0 CODECOPY PUSH1 0x0 RETURN INVALID PUSH1 0x80 PUSH1 0x40 MSTORE PUSH1 0x4 CALLDATASIZE LT PUSH2 0x3AD JUMPI PUSH1 0x0 CALLDATALOAD PUSH1 0xE0 SHR DUP1 PUSH4 0x74B6C106 GT PUSH2 0x1E7 JUMPI DUP1 PUSH4 0xB11D7EC1 GT PUSH2 0x10D JUMPI DUP1 PUSH4 0xD547741F GT PUSH2 0xA0 JUMPI DUP1 PUSH4 0xE985E9C5 GT PUSH2 0x6F JUMPI DUP1 PUSH4 0xE985E9C5 EQ PUSH2 0xE74 JUMPI DUP1 PUSH4 0xF0BA6040 EQ PUSH2 0xEB1 JUMPI DUP1 PUSH4 0xF32E8B24 EQ PUSH2 0xEC8 JUMPI DUP1 PUSH4 0xF5766B39 EQ PUSH2 0xEDF JUMPI PUSH2 0x3AD JUMP JUMPDEST DUP1 PUSH4 0xD547741F EQ PUSH2 0xDDD JUMPI DUP1 PUSH4 0xD813CC19 EQ PUSH2 0xE06 JUMPI DUP1 PUSH4 0xD9CAED12 EQ PUSH2 0xE22 JUMPI DUP1 PUSH4 0xDEBE2B0D EQ PUSH2 0xE4B JUMPI PUSH2 0x3AD JUMP JUMPDEST DUP1 PUSH4 0xD1BBD49C GT PUSH2 0xDC JUMPI DUP1 PUSH4 0xD1BBD49C EQ PUSH2 0xD35 JUMPI DUP1 PUSH4 0xD2503485 EQ PUSH2 0xD60 JUMPI DUP1 PUSH4 0xD32BFB6C EQ PUSH2 0xD89 JUMPI DUP1 PUSH4 0xD52E4A10 EQ PUSH2 0xDB2 JUMPI PUSH2 0x3AD JUMP JUMPDEST DUP1 PUSH4 0xB11D7EC1 EQ PUSH2 0xC79 JUMPI DUP1 PUSH4 0xB129694E EQ PUSH2 0xCA2 JUMPI DUP1 PUSH4 0xC23135DD EQ PUSH2 0xCCD JUMPI DUP1 PUSH4 0xC907C3EC EQ PUSH2 0xD0A JUMPI PUSH2 0x3AD JUMP JUMPDEST DUP1 PUSH4 0x92AC98A5 GT PUSH2 0x185 JUMPI DUP1 PUSH4 0xA2E4CD2E GT PUSH2 0x154 JUMPI DUP1 PUSH4 0xA2E4CD2E EQ PUSH2 0xBAB JUMPI DUP1 PUSH4 0xA375CB05 EQ PUSH2 0xBD4 JUMPI DUP1 PUSH4 0xA98D3623 EQ PUSH2 0xBFF JUMPI DUP1 PUSH4 0xAAE4B8F7 EQ PUSH2 0xC3C JUMPI PUSH2 0x3AD JUMP JUMPDEST DUP1 PUSH4 0x92AC98A5 EQ PUSH2 0xAED JUMPI DUP1 PUSH4 0x93FD1844 EQ PUSH2 0xB2A JUMPI DUP1 PUSH4 0x9D76EA58 EQ PUSH2 0xB55 JUMPI DUP1 PUSH4 0xA217FDDF EQ PUSH2 0xB80 JUMPI PUSH2 0x3AD JUMP JUMPDEST DUP1 PUSH4 0x812EECD4 GT PUSH2 0x1C1 JUMPI DUP1 PUSH4 0x812EECD4 EQ PUSH2 0xA21 JUMPI DUP1 PUSH4 0x8505FE95 EQ PUSH2 0xA5E JUMPI DUP1 PUSH4 0x8932A90D EQ PUSH2 0xA87 JUMPI DUP1 PUSH4 0x91D14854 EQ PUSH2 0xAB0 JUMPI PUSH2 0x3AD JUMP JUMPDEST DUP1 PUSH4 0x74B6C106 EQ PUSH2 0x9A2 JUMPI DUP1 PUSH4 0x74CAC47D EQ PUSH2 0x9CD JUMPI DUP1 PUSH4 0x7EC2A724 EQ PUSH2 0x9F6 JUMPI PUSH2 0x3AD JUMP JUMPDEST DUP1 PUSH4 0x2F745C59 GT PUSH2 0x2D7 JUMPI DUP1 PUSH4 0x50878A47 GT PUSH2 0x26A JUMPI DUP1 PUSH4 0x6207A8DA GT PUSH2 0x239 JUMPI DUP1 PUSH4 0x6207A8DA EQ PUSH2 0x8C0 JUMPI DUP1 PUSH4 0x6352211E EQ PUSH2 0x8EB JUMPI DUP1 PUSH4 0x6D8EA5B4 EQ PUSH2 0x928 JUMPI DUP1 PUSH4 0x70A08231 EQ PUSH2 0x965 JUMPI PUSH2 0x3AD JUMP JUMPDEST DUP1 PUSH4 0x50878A47 EQ PUSH2 0x7F2 JUMPI DUP1 PUSH4 0x54B249FB EQ PUSH2 0x82F JUMPI DUP1 PUSH4 0x558B71E9 EQ PUSH2 0x86C JUMPI DUP1 PUSH4 0x56E0D51F EQ PUSH2 0x895 JUMPI PUSH2 0x3AD JUMP JUMPDEST DUP1 PUSH4 0x39F46986 GT PUSH2 0x2A6 JUMPI DUP1 PUSH4 0x39F46986 EQ PUSH2 0x738 JUMPI DUP1 PUSH4 0x42966C68 EQ PUSH2 0x761 JUMPI DUP1 PUSH4 0x4D025FED EQ PUSH2 0x78A JUMPI DUP1 PUSH4 0x4E2CE6D3 EQ PUSH2 0x7C7 JUMPI PUSH2 0x3AD JUMP JUMPDEST DUP1 PUSH4 0x2F745C59 EQ PUSH2 0x677 JUMPI DUP1 PUSH4 0x33818997 EQ PUSH2 0x6B4 JUMPI DUP1 PUSH4 0x36568ABE EQ PUSH2 0x6E4 JUMPI DUP1 PUSH4 0x389F07E8 EQ PUSH2 0x70D JUMPI PUSH2 0x3AD JUMP JUMPDEST DUP1 PUSH4 0x11A4C03A GT PUSH2 0x34F JUMPI DUP1 PUSH4 0x26E9CA07 GT PUSH2 0x31E JUMPI DUP1 PUSH4 0x26E9CA07 EQ PUSH2 0x5CF JUMPI DUP1 PUSH4 0x282478DF EQ PUSH2 0x5FA JUMPI DUP1 PUSH4 0x2D33DD5B EQ PUSH2 0x623 JUMPI DUP1 PUSH4 0x2F2FF15D EQ PUSH2 0x64E JUMPI PUSH2 0x3AD JUMP JUMPDEST DUP1 PUSH4 0x11A4C03A EQ PUSH2 0x511 JUMPI DUP1 PUSH4 0x18160DDD EQ PUSH2 0x53C JUMPI DUP1 PUSH4 0x217751BC EQ PUSH2 0x567 JUMPI DUP1 PUSH4 0x248A9CA3 EQ PUSH2 0x592 JUMPI PUSH2 0x3AD JUMP JUMPDEST DUP1 PUSH4 0x95EA7B3 GT PUSH2 0x38B JUMPI DUP1 PUSH4 0x95EA7B3 EQ PUSH2 0x455 JUMPI DUP1 PUSH4 0x97BA333 EQ PUSH2 0x47E JUMPI DUP1 PUSH4 0xF15023B EQ PUSH2 0x4BB JUMPI DUP1 PUSH4 0x10E56973 EQ PUSH2 0x4E6 JUMPI PUSH2 0x3AD JUMP JUMPDEST DUP1 PUSH4 0x1FFC9A7 EQ PUSH2 0x3B2 JUMPI DUP1 PUSH4 0x68208CD EQ PUSH2 0x3EF JUMPI DUP1 PUSH4 0x81812FC EQ PUSH2 0x418 JUMPI JUMPDEST PUSH1 0x0 DUP1 REVERT JUMPDEST CALLVALUE DUP1 ISZERO PUSH2 0x3BE JUMPI PUSH1 0x0 DUP1 REVERT JUMPDEST POP PUSH2 0x3D9 PUSH1 0x4 DUP1 CALLDATASIZE SUB DUP2 ADD SWAP1 PUSH2 0x3D4 SWAP2 SWAP1 PUSH2 0x5709 JUMP JUMPDEST PUSH2 0xF08 JUMP JUMPDEST PUSH1 0x40 MLOAD PUSH2 0x3E6 SWAP2 SWAP1 PUSH2 0x5751 JUMP JUMPDEST PUSH1 0x40 MLOAD DUP1 SWAP2 SUB SWAP1 RETURN JUMPDEST CALLVALUE DUP1 ISZERO PUSH2 0x3FB JUMPI PUSH1 0x0 DUP1 REVERT JUMPDEST POP PUSH2 0x416 PUSH1 0x4 DUP1 CALLDATASIZE SUB DUP2 ADD SWAP1 PUSH2 0x411 SWAP2 SWAP1 PUSH2 0x57A2 JUMP JUMPDEST PUSH2 0xF82 JUMP JUMPDEST STOP JUMPDEST CALLVALUE DUP1 ISZERO PUSH2 0x424 JUMPI PUSH1 0x0 DUP1 REVERT JUMPDEST POP PUSH2 0x43F PUSH1 0x4 DUP1 CALLDATASIZE SUB DUP2 ADD SWAP1 PUSH2 0x43A SWAP2 SWAP1 PUSH2 0x57F5 JUMP JUMPDEST PUSH2 0x1010 JUMP JUMPDEST PUSH1 0x40 MLOAD PUSH2 0x44C SWAP2 SWAP1 PUSH2 0x5863 JUMP JUMPDEST PUSH1 0x40 MLOAD DUP1 SWAP2 SUB SWAP1 RETURN JUMPDEST CALLVALUE DUP1 ISZERO PUSH2 0x461 JUMPI PUSH1 0x0 DUP1 REVERT JUMPDEST POP PUSH2 0x47C PUSH1 0x4 DUP1 CALLDATASIZE SUB DUP2 ADD SWAP1 PUSH2 0x477 SWAP2 SWAP1 PUSH2 0x58AA JUMP JUMPDEST PUSH2 0x105D JUMP JUMPDEST STOP JUMPDEST CALLVALUE DUP1 ISZERO PUSH2 0x48A JUMPI PUSH1 0x0 DUP1 REVERT JUMPDEST POP PUSH2 0x4A5 PUSH1 0x4 DUP1 CALLDATASIZE SUB DUP2 ADD SWAP1 PUSH2 0x4A0 SWAP2 SWAP1 PUSH2 0x5A30 JUMP JUMPDEST PUSH2 0x11B1 JUMP JUMPDEST PUSH1 0x40 MLOAD PUSH2 0x4B2 SWAP2 SWAP1 PUSH2 0x5AAE JUMP JUMPDEST PUSH1 0x40 MLOAD DUP1 SWAP2 SUB SWAP1 RETURN JUMPDEST CALLVALUE DUP1 ISZERO PUSH2 0x4C7 JUMPI PUSH1 0x0 DUP1 REVERT JUMPDEST POP PUSH2 0x4D0 PUSH2 0x12C1 JUMP JUMPDEST PUSH1 0x40 MLOAD PUSH2 0x4DD SWAP2 SWAP1 PUSH2 0x5B28 JUMP JUMPDEST PUSH1 0x40 MLOAD DUP1 SWAP2 SUB SWAP1 RETURN JUMPDEST CALLVALUE DUP1 ISZERO PUSH2 0x4F2 JUMPI PUSH1 0x0 DUP1 REVERT JUMPDEST POP PUSH2 0x4FB PUSH2 0x12E8 JUMP JUMPDEST PUSH1 0x40 MLOAD PUSH2 0x508 SWAP2 SWAP1 PUSH2 0x5AAE JUMP JUMPDEST PUSH1 0x40 MLOAD DUP1 SWAP2 SUB SWAP1 RETURN JUMPDEST CALLVALUE DUP1 ISZERO PUSH2 0x51D JUMPI PUSH1 0x0 DUP1 REVERT JUMPDEST POP PUSH2 0x526 PUSH2 0x12EF JUMP JUMPDEST PUSH1 0x40 MLOAD PUSH2 0x533 SWAP2 SWAP1 PUSH2 0x5AAE JUMP JUMPDEST PUSH1 0x40 MLOAD DUP1 SWAP2 SUB SWAP1 RETURN JUMPDEST CALLVALUE DUP1 ISZERO PUSH2 0x548 JUMPI PUSH1 0x0 DUP1 REVERT JUMPDEST POP PUSH2 0x551 PUSH2 0x12F6 JUMP JUMPDEST PUSH1 0x40 MLOAD PUSH2 0x55E SWAP2 SWAP1 PUSH2 0x5AAE JUMP JUMPDEST PUSH1 0x40 MLOAD DUP1 SWAP2 SUB SWAP1 RETURN JUMPDEST CALLVALUE DUP1 ISZERO PUSH2 0x573 JUMPI PUSH1 0x0 DUP1 REVERT JUMPDEST POP PUSH2 0x57C PUSH2 0x1301 JUMP JUMPDEST PUSH1 0x40 MLOAD PUSH2 0x589 SWAP2 SWAP1 PUSH2 0x5B64 JUMP JUMPDEST PUSH1 0x40 MLOAD DUP1 SWAP2 SUB SWAP1 RETURN JUMPDEST CALLVALUE DUP1 ISZERO PUSH2 0x59E JUMPI PUSH1 0x0 DUP1 REVERT JUMPDEST POP PUSH2 0x5B9 PUSH1 0x4 DUP1 CALLDATASIZE SUB DUP2 ADD SWAP1 PUSH2 0x5B4 SWAP2 SWAP1 PUSH2 0x5BB5 JUMP JUMPDEST PUSH2 0x1328 JUMP JUMPDEST PUSH1 0x40 MLOAD PUSH2 0x5C6 SWAP2 SWAP1 PUSH2 0x5BF1 JUMP JUMPDEST PUSH1 0x40 MLOAD DUP1 SWAP2 SUB SWAP1 RETURN JUMPDEST CALLVALUE DUP1 ISZERO PUSH2 0x5DB JUMPI PUSH1 0x0 DUP1 REVERT JUMPDEST POP PUSH2 0x5E4 PUSH2 0x1348 JUMP JUMPDEST PUSH1 0x40 MLOAD PUSH2 0x5F1 SWAP2 SWAP1 PUSH2 0x5C2D JUMP JUMPDEST PUSH1 0x40 MLOAD DUP1 SWAP2 SUB SWAP1 RETURN JUMPDEST CALLVALUE DUP1 ISZERO PUSH2 0x606 JUMPI PUSH1 0x0 DUP1 REVERT JUMPDEST POP PUSH2 0x621 PUSH1 0x4 DUP1 CALLDATASIZE SUB DUP2 ADD SWAP1 PUSH2 0x61C SWAP2 SWAP1 PUSH2 0x57A2 JUMP JUMPDEST PUSH2 0x136F JUMP JUMPDEST STOP JUMPDEST CALLVALUE DUP1 ISZERO PUSH2 0x62F JUMPI PUSH1 0x0 DUP1 REVERT JUMPDEST POP PUSH2 0x638 PUSH2 0x1449 JUMP JUMPDEST PUSH1 0x40 MLOAD PUSH2 0x645 SWAP2 SWAP1 PUSH2 0x5C69 JUMP JUMPDEST PUSH1 0x40 MLOAD DUP1 SWAP2 SUB SWAP1 RETURN JUMPDEST CALLVALUE DUP1 ISZERO PUSH2 0x65A JUMPI PUSH1 0x0 DUP1 REVERT JUMPDEST POP PUSH2 0x675 PUSH1 0x4 DUP1 CALLDATASIZE SUB DUP2 ADD SWAP1 PUSH2 0x670 SWAP2 SWAP1 PUSH2 0x5C84 JUMP JUMPDEST PUSH2 0x1470 JUMP JUMPDEST STOP JUMPDEST CALLVALUE DUP1 ISZERO PUSH2 0x683 JUMPI PUSH1 0x0 DUP1 REVERT JUMPDEST POP PUSH2 0x69E PUSH1 0x4 DUP1 CALLDATASIZE SUB DUP2 ADD SWAP1 PUSH2 0x699 SWAP2 SWAP1 PUSH2 0x58AA JUMP JUMPDEST PUSH2 0x1491 JUMP JUMPDEST PUSH1 0x40 MLOAD PUSH2 0x6AB SWAP2 SWAP1 PUSH2 0x5AAE JUMP JUMPDEST PUSH1 0x40 MLOAD DUP1 SWAP2 SUB SWAP1 RETURN JUMPDEST PUSH2 0x6CE PUSH1 0x4 DUP1 CALLDATASIZE SUB DUP2 ADD SWAP1 PUSH2 0x6C9 SWAP2 SWAP1 PUSH2 0x5EAA JUMP JUMPDEST PUSH2 0x152E JUMP JUMPDEST PUSH1 0x40 MLOAD PUSH2 0x6DB SWAP2 SWAP1 PUSH2 0x6072 JUMP JUMPDEST PUSH1 0x40 MLOAD DUP1 SWAP2 SUB SWAP1 RETURN JUMPDEST CALLVALUE DUP1 ISZERO PUSH2 0x6F0 JUMPI PUSH1 0x0 DUP1 REVERT JUMPDEST POP PUSH2 0x70B PUSH1 0x4 DUP1 CALLDATASIZE SUB DUP2 ADD SWAP1 PUSH2 0x706 SWAP2 SWAP1 PUSH2 0x5C84 JUMP JUMPDEST PUSH2 0x1A98 JUMP JUMPDEST STOP JUMPDEST CALLVALUE DUP1 ISZERO PUSH2 0x719 JUMPI PUSH1 0x0 DUP1 REVERT JUMPDEST POP PUSH2 0x722 PUSH2 0x1B1B JUMP JUMPDEST PUSH1 0x40 MLOAD PUSH2 0x72F SWAP2 SWAP1 PUSH2 0x60B5 JUMP JUMPDEST PUSH1 0x40 MLOAD DUP1 SWAP2 SUB SWAP1 RETURN JUMPDEST CALLVALUE DUP1 ISZERO PUSH2 0x744 JUMPI PUSH1 0x0 DUP1 REVERT JUMPDEST POP PUSH2 0x75F PUSH1 0x4 DUP1 CALLDATASIZE SUB DUP2 ADD SWAP1 PUSH2 0x75A SWAP2 SWAP1 PUSH2 0x60D0 JUMP JUMPDEST PUSH2 0x1B42 JUMP JUMPDEST STOP JUMPDEST CALLVALUE DUP1 ISZERO PUSH2 0x76D JUMPI PUSH1 0x0 DUP1 REVERT JUMPDEST POP PUSH2 0x788 PUSH1 0x4 DUP1 CALLDATASIZE SUB DUP2 ADD SWAP1 PUSH2 0x783 SWAP2 SWAP1 PUSH2 0x57F5 JUMP JUMPDEST PUSH2 0x1B97 JUMP JUMPDEST STOP JUMPDEST CALLVALUE DUP1 ISZERO PUSH2 0x796 JUMPI PUSH1 0x0 DUP1 REVERT JUMPDEST POP PUSH2 0x7B1 PUSH1 0x4 DUP1 CALLDATASIZE SUB DUP2 ADD SWAP1 PUSH2 0x7AC SWAP2 SWAP1 PUSH2 0x57F5 JUMP JUMPDEST PUSH2 0x1C99 JUMP JUMPDEST PUSH1 0x40 MLOAD PUSH2 0x7BE SWAP2 SWAP1 PUSH2 0x5863 JUMP JUMPDEST PUSH1 0x40 MLOAD DUP1 SWAP2 SUB SWAP1 RETURN JUMPDEST CALLVALUE DUP1 ISZERO PUSH2 0x7D3 JUMPI PUSH1 0x0 DUP1 REVERT JUMPDEST POP PUSH2 0x7DC PUSH2 0x1CCD JUMP JUMPDEST PUSH1 0x40 MLOAD PUSH2 0x7E9 SWAP2 SWAP1 PUSH2 0x5AAE JUMP JUMPDEST PUSH1 0x40 MLOAD DUP1 SWAP2 SUB SWAP1 RETURN JUMPDEST CALLVALUE DUP1 ISZERO PUSH2 0x7FE JUMPI PUSH1 0x0 DUP1 REVERT JUMPDEST POP PUSH2 0x819 PUSH1 0x4 DUP1 CALLDATASIZE SUB DUP2 ADD SWAP1 PUSH2 0x814 SWAP2 SWAP1 PUSH2 0x6110 JUMP JUMPDEST PUSH2 0x1CD4 JUMP JUMPDEST PUSH1 0x40 MLOAD PUSH2 0x826 SWAP2 SWAP1 PUSH2 0x5751 JUMP JUMPDEST PUSH1 0x40 MLOAD DUP1 SWAP2 SUB SWAP1 RETURN JUMPDEST CALLVALUE DUP1 ISZERO PUSH2 0x83B JUMPI PUSH1 0x0 DUP1 REVERT JUMPDEST POP PUSH2 0x856 PUSH1 0x4 DUP1 CALLDATASIZE SUB DUP2 ADD SWAP1 PUSH2 0x851 SWAP2 SWAP1 PUSH2 0x57F5 JUMP JUMPDEST PUSH2 0x1F53 JUMP JUMPDEST PUSH1 0x40 MLOAD PUSH2 0x863 SWAP2 SWAP1 PUSH2 0x5AAE JUMP JUMPDEST PUSH1 0x40 MLOAD DUP1 SWAP2 SUB SWAP1 RETURN JUMPDEST CALLVALUE DUP1 ISZERO PUSH2 0x878 JUMPI PUSH1 0x0 DUP1 REVERT JUMPDEST POP PUSH2 0x893 PUSH1 0x4 DUP1 CALLDATASIZE SUB DUP2 ADD SWAP1 PUSH2 0x88E SWAP2 SWAP1 PUSH2 0x60D0 JUMP JUMPDEST PUSH2 0x1F74 JUMP JUMPDEST STOP JUMPDEST CALLVALUE DUP1 ISZERO PUSH2 0x8A1 JUMPI PUSH1 0x0 DUP1 REVERT JUMPDEST POP PUSH2 0x8AA PUSH2 0x1F9C JUMP JUMPDEST PUSH1 0x40 MLOAD PUSH2 0x8B7 SWAP2 SWAP1 PUSH2 0x5AAE JUMP JUMPDEST PUSH1 0x40 MLOAD DUP1 SWAP2 SUB SWAP1 RETURN JUMPDEST CALLVALUE DUP1 ISZERO PUSH2 0x8CC JUMPI PUSH1 0x0 DUP1 REVERT JUMPDEST POP PUSH2 0x8D5 PUSH2 0x1FA3 JUMP JUMPDEST PUSH1 0x40 MLOAD PUSH2 0x8E2 SWAP2 SWAP1 PUSH2 0x5AAE JUMP JUMPDEST PUSH1 0x40 MLOAD DUP1 SWAP2 SUB SWAP1 RETURN JUMPDEST CALLVALUE DUP1 ISZERO PUSH2 0x8F7 JUMPI PUSH1 0x0 DUP1 REVERT JUMPDEST POP PUSH2 0x912 PUSH1 0x4 DUP1 CALLDATASIZE SUB DUP2 ADD SWAP1 PUSH2 0x90D SWAP2 SWAP1 PUSH2 0x57F5 JUMP JUMPDEST PUSH2 0x1FAE JUMP JUMPDEST PUSH1 0x40 MLOAD PUSH2 0x91F SWAP2 SWAP1 PUSH2 0x5863 JUMP JUMPDEST PUSH1 0x40 MLOAD DUP1 SWAP2 SUB SWAP1 RETURN JUMPDEST CALLVALUE DUP1 ISZERO PUSH2 0x934 JUMPI PUSH1 0x0 DUP1 REVERT JUMPDEST POP PUSH2 0x94F PUSH1 0x4 DUP1 CALLDATASIZE SUB DUP2 ADD SWAP1 PUSH2 0x94A SWAP2 SWAP1 PUSH2 0x6150 JUMP JUMPDEST PUSH2 0x1FEC JUMP JUMPDEST PUSH1 0x40 MLOAD PUSH2 0x95C SWAP2 SWAP1 PUSH2 0x5751 JUMP JUMPDEST PUSH1 0x40 MLOAD DUP1 SWAP2 SUB SWAP1 RETURN JUMPDEST CALLVALUE DUP1 ISZERO PUSH2 0x971 JUMPI PUSH1 0x0 DUP1 REVERT JUMPDEST POP PUSH2 0x98C PUSH1 0x4 DUP1 CALLDATASIZE SUB DUP2 ADD SWAP1 PUSH2 0x987 SWAP2 SWAP1 PUSH2 0x6150 JUMP JUMPDEST PUSH2 0x211A JUMP JUMPDEST PUSH1 0x40 MLOAD PUSH2 0x999 SWAP2 SWAP1 PUSH2 0x5AAE JUMP JUMPDEST PUSH1 0x40 MLOAD DUP1 SWAP2 SUB SWAP1 RETURN JUMPDEST CALLVALUE DUP1 ISZERO PUSH2 0x9AE JUMPI PUSH1 0x0 DUP1 REVERT JUMPDEST POP PUSH2 0x9B7 PUSH2 0x2173 JUMP JUMPDEST PUSH1 0x40 MLOAD PUSH2 0x9C4 SWAP2 SWAP1 PUSH2 0x5AAE JUMP JUMPDEST PUSH1 0x40 MLOAD DUP1 SWAP2 SUB SWAP1 RETURN JUMPDEST CALLVALUE DUP1 ISZERO PUSH2 0x9D9 JUMPI PUSH1 0x0 DUP1 REVERT JUMPDEST POP PUSH2 0x9F4 PUSH1 0x4 DUP1 CALLDATASIZE SUB DUP2 ADD SWAP1 PUSH2 0x9EF SWAP2 SWAP1 PUSH2 0x617D JUMP JUMPDEST PUSH2 0x217A JUMP JUMPDEST STOP JUMPDEST CALLVALUE DUP1 ISZERO PUSH2 0xA02 JUMPI PUSH1 0x0 DUP1 REVERT JUMPDEST POP PUSH2 0xA0B PUSH2 0x27E0 JUMP JUMPDEST PUSH1 0x40 MLOAD PUSH2 0xA18 SWAP2 SWAP1 PUSH2 0x6240 JUMP JUMPDEST PUSH1 0x40 MLOAD DUP1 SWAP2 SUB SWAP1 RETURN JUMPDEST CALLVALUE DUP1 ISZERO PUSH2 0xA2D JUMPI PUSH1 0x0 DUP1 REVERT JUMPDEST POP PUSH2 0xA48 PUSH1 0x4 DUP1 CALLDATASIZE SUB DUP2 ADD SWAP1 PUSH2 0xA43 SWAP2 SWAP1 PUSH2 0x6150 JUMP JUMPDEST PUSH2 0x2807 JUMP JUMPDEST PUSH1 0x40 MLOAD PUSH2 0xA55 SWAP2 SWAP1 PUSH2 0x5AAE JUMP JUMPDEST PUSH1 0x40 MLOAD DUP1 SWAP2 SUB SWAP1 RETURN JUMPDEST CALLVALUE DUP1 ISZERO PUSH2 0xA6A JUMPI PUSH1 0x0 DUP1 REVERT JUMPDEST POP PUSH2 0xA85 PUSH1 0x4 DUP1 CALLDATASIZE SUB DUP2 ADD SWAP1 PUSH2 0xA80 SWAP2 SWAP1 PUSH2 0x6110 JUMP JUMPDEST PUSH2 0x28B6 JUMP JUMPDEST STOP JUMPDEST CALLVALUE DUP1 ISZERO PUSH2 0xA93 JUMPI PUSH1 0x0 DUP1 REVERT JUMPDEST POP PUSH2 0xAAE PUSH1 0x4 DUP1 CALLDATASIZE SUB DUP2 ADD SWAP1 PUSH2 0xAA9 SWAP2 SWAP1 PUSH2 0x62B1 JUMP JUMPDEST PUSH2 0x2921 JUMP JUMPDEST STOP JUMPDEST CALLVALUE DUP1 ISZERO PUSH2 0xABC JUMPI PUSH1 0x0 DUP1 REVERT JUMPDEST POP PUSH2 0xAD7 PUSH1 0x4 DUP1 CALLDATASIZE SUB DUP2 ADD SWAP1 PUSH2 0xAD2 SWAP2 SWAP1 PUSH2 0x5C84 JUMP JUMPDEST PUSH2 0x2A67 JUMP JUMPDEST PUSH1 0x40 MLOAD PUSH2 0xAE4 SWAP2 SWAP1 PUSH2 0x5751 JUMP JUMPDEST PUSH1 0x40 MLOAD DUP1 SWAP2 SUB SWAP1 RETURN JUMPDEST CALLVALUE DUP1 ISZERO PUSH2 0xAF9 JUMPI PUSH1 0x0 DUP1 REVERT JUMPDEST POP PUSH2 0xB14 PUSH1 0x4 DUP1 CALLDATASIZE SUB DUP2 ADD SWAP1 PUSH2 0xB0F SWAP2 SWAP1 PUSH2 0x57F5 JUMP JUMPDEST PUSH2 0x2AD2 JUMP JUMPDEST PUSH1 0x40 MLOAD PUSH2 0xB21 SWAP2 SWAP1 PUSH2 0x5AAE JUMP JUMPDEST PUSH1 0x40 MLOAD DUP1 SWAP2 SUB SWAP1 RETURN JUMPDEST CALLVALUE DUP1 ISZERO PUSH2 0xB36 JUMPI PUSH1 0x0 DUP1 REVERT JUMPDEST POP PUSH2 0xB3F PUSH2 0x2BE0 JUMP JUMPDEST PUSH1 0x40 MLOAD PUSH2 0xB4C SWAP2 SWAP1 PUSH2 0x5AAE JUMP JUMPDEST PUSH1 0x40 MLOAD DUP1 SWAP2 SUB SWAP1 RETURN JUMPDEST CALLVALUE DUP1 ISZERO PUSH2 0xB61 JUMPI PUSH1 0x0 DUP1 REVERT JUMPDEST POP PUSH2 0xB6A PUSH2 0x2BE7 JUMP JUMPDEST PUSH1 0x40 MLOAD PUSH2 0xB77 SWAP2 SWAP1 PUSH2 0x5863 JUMP JUMPDEST PUSH1 0x40 MLOAD DUP1 SWAP2 SUB SWAP1 RETURN JUMPDEST CALLVALUE DUP1 ISZERO PUSH2 0xB8C JUMPI PUSH1 0x0 DUP1 REVERT JUMPDEST POP PUSH2 0xB95 PUSH2 0x2C0E JUMP JUMPDEST PUSH1 0x40 MLOAD PUSH2 0xBA2 SWAP2 SWAP1 PUSH2 0x5BF1 JUMP JUMPDEST PUSH1 0x40 MLOAD DUP1 SWAP2 SUB SWAP1 RETURN JUMPDEST CALLVALUE DUP1 ISZERO PUSH2 0xBB7 JUMPI PUSH1 0x0 DUP1 REVERT JUMPDEST POP PUSH2 0xBD2 PUSH1 0x4 DUP1 CALLDATASIZE SUB DUP2 ADD SWAP1 PUSH2 0xBCD SWAP2 SWAP1 PUSH2 0x6110 JUMP JUMPDEST PUSH2 0x2C15 JUMP JUMPDEST STOP JUMPDEST CALLVALUE DUP1 ISZERO PUSH2 0xBE0 JUMPI PUSH1 0x0 DUP1 REVERT JUMPDEST POP PUSH2 0xBE9 PUSH2 0x2D09 JUMP JUMPDEST PUSH1 0x40 MLOAD PUSH2 0xBF6 SWAP2 SWAP1 PUSH2 0x5AAE JUMP JUMPDEST PUSH1 0x40 MLOAD DUP1 SWAP2 SUB SWAP1 RETURN JUMPDEST CALLVALUE DUP1 ISZERO PUSH2 0xC0B JUMPI PUSH1 0x0 DUP1 REVERT JUMPDEST POP PUSH2 0xC26 PUSH1 0x4 DUP1 CALLDATASIZE SUB DUP2 ADD SWAP1 PUSH2 0xC21 SWAP2 SWAP1 PUSH2 0x57F5 JUMP JUMPDEST PUSH2 0x2D10 JUMP JUMPDEST PUSH1 0x40 MLOAD PUSH2 0xC33 SWAP2 SWAP1 PUSH2 0x5751 JUMP JUMPDEST PUSH1 0x40 MLOAD DUP1 SWAP2 SUB SWAP1 RETURN JUMPDEST CALLVALUE DUP1 ISZERO PUSH2 0xC48 JUMPI PUSH1 0x0 DUP1 REVERT JUMPDEST POP PUSH2 0xC63 PUSH1 0x4 DUP1 CALLDATASIZE SUB DUP2 ADD SWAP1 PUSH2 0xC5E SWAP2 SWAP1 PUSH2 0x6150 JUMP JUMPDEST PUSH2 0x2E84 JUMP JUMPDEST PUSH1 0x40 MLOAD PUSH2 0xC70 SWAP2 SWAP1 PUSH2 0x5751 JUMP JUMPDEST PUSH1 0x40 MLOAD DUP1 SWAP2 SUB SWAP1 RETURN JUMPDEST CALLVALUE DUP1 ISZERO PUSH2 0xC85 JUMPI PUSH1 0x0 DUP1 REVERT JUMPDEST POP PUSH2 0xCA0 PUSH1 0x4 DUP1 CALLDATASIZE SUB DUP2 ADD SWAP1 PUSH2 0xC9B SWAP2 SWAP1 PUSH2 0x6110 JUMP JUMPDEST PUSH2 0x2EB7 JUMP JUMPDEST STOP JUMPDEST CALLVALUE DUP1 ISZERO PUSH2 0xCAE JUMPI PUSH1 0x0 DUP1 REVERT JUMPDEST POP PUSH2 0xCB7 PUSH2 0x2F22 JUMP JUMPDEST PUSH1 0x40 MLOAD PUSH2 0xCC4 SWAP2 SWAP1 PUSH2 0x631F JUMP JUMPDEST PUSH1 0x40 MLOAD DUP1 SWAP2 SUB SWAP1 RETURN JUMPDEST CALLVALUE DUP1 ISZERO PUSH2 0xCD9 JUMPI PUSH1 0x0 DUP1 REVERT JUMPDEST POP PUSH2 0xCF4 PUSH1 0x4 DUP1 CALLDATASIZE SUB DUP2 ADD SWAP1 PUSH2 0xCEF SWAP2 SWAP1 PUSH2 0x6150 JUMP JUMPDEST PUSH2 0x2F49 JUMP JUMPDEST PUSH1 0x40 MLOAD PUSH2 0xD01 SWAP2 SWAP1 PUSH2 0x5AAE JUMP JUMPDEST PUSH1 0x40 MLOAD DUP1 SWAP2 SUB SWAP1 RETURN JUMPDEST CALLVALUE DUP1 ISZERO PUSH2 0xD16 JUMPI PUSH1 0x0 DUP1 REVERT JUMPDEST POP PUSH2 0xD1F PUSH2 0x2F62 JUMP JUMPDEST PUSH1 0x40 MLOAD PUSH2 0xD2C SWAP2 SWAP1 PUSH2 0x635B JUMP JUMPDEST PUSH1 0x40 MLOAD DUP1 SWAP2 SUB SWAP1 RETURN JUMPDEST CALLVALUE DUP1 ISZERO PUSH2 0xD41 JUMPI PUSH1 0x0 DUP1 REVERT JUMPDEST POP PUSH2 0xD4A PUSH2 0x2F89 JUMP JUMPDEST PUSH1 0x40 MLOAD PUSH2 0xD57 SWAP2 SWAP1 PUSH2 0x6393 JUMP JUMPDEST PUSH1 0x40 MLOAD DUP1 SWAP2 SUB SWAP1 RETURN JUMPDEST CALLVALUE DUP1 ISZERO PUSH2 0xD6C JUMPI PUSH1 0x0 DUP1 REVERT JUMPDEST POP PUSH2 0xD87 PUSH1 0x4 DUP1 CALLDATASIZE SUB DUP2 ADD SWAP1 PUSH2 0xD82 SWAP2 SWAP1 PUSH2 0x6150 JUMP JUMPDEST PUSH2 0x2F92 JUMP JUMPDEST STOP JUMPDEST CALLVALUE DUP1 ISZERO PUSH2 0xD95 JUMPI PUSH1 0x0 DUP1 REVERT JUMPDEST POP PUSH2 0xDB0 PUSH1 0x4 DUP1 CALLDATASIZE SUB DUP2 ADD SWAP1 PUSH2 0xDAB SWAP2 SWAP1 PUSH2 0x57F5 JUMP JUMPDEST PUSH2 0x300A JUMP JUMPDEST STOP JUMPDEST CALLVALUE DUP1 ISZERO PUSH2 0xDBE JUMPI PUSH1 0x0 DUP1 REVERT JUMPDEST POP PUSH2 0xDC7 PUSH2 0x3040 JUMP JUMPDEST PUSH1 0x40 MLOAD PUSH2 0xDD4 SWAP2 SWAP1 PUSH2 0x5AAE JUMP JUMPDEST PUSH1 0x40 MLOAD DUP1 SWAP2 SUB SWAP1 RETURN JUMPDEST CALLVALUE DUP1 ISZERO PUSH2 0xDE9 JUMPI PUSH1 0x0 DUP1 REVERT JUMPDEST POP PUSH2 0xE04 PUSH1 0x4 DUP1 CALLDATASIZE SUB DUP2 ADD SWAP1 PUSH2 0xDFF SWAP2 SWAP1 PUSH2 0x5C84 JUMP JUMPDEST PUSH2 0x304B JUMP JUMPDEST STOP JUMPDEST PUSH2 0xE20 PUSH1 0x4 DUP1 CALLDATASIZE SUB DUP2 ADD SWAP1 PUSH2 0xE1B SWAP2 SWAP1 PUSH2 0x63AE JUMP JUMPDEST PUSH2 0x306C JUMP JUMPDEST STOP JUMPDEST CALLVALUE DUP1 ISZERO PUSH2 0xE2E JUMPI PUSH1 0x0 DUP1 REVERT JUMPDEST POP PUSH2 0xE49 PUSH1 0x4 DUP1 CALLDATASIZE SUB DUP2 ADD SWAP1 PUSH2 0xE44 SWAP2 SWAP1 PUSH2 0x6474 JUMP JUMPDEST PUSH2 0x3186 JUMP JUMPDEST STOP JUMPDEST CALLVALUE DUP1 ISZERO PUSH2 0xE57 JUMPI PUSH1 0x0 DUP1 REVERT JUMPDEST POP PUSH2 0xE72 PUSH1 0x4 DUP1 CALLDATASIZE SUB DUP2 ADD SWAP1 PUSH2 0xE6D SWAP2 SWAP1 PUSH2 0x58AA JUMP JUMPDEST PUSH2 0x3330 JUMP JUMPDEST STOP JUMPDEST CALLVALUE DUP1 ISZERO PUSH2 0xE80 JUMPI PUSH1 0x0 DUP1 REVERT JUMPDEST POP PUSH2 0xE9B PUSH1 0x4 DUP1 CALLDATASIZE SUB DUP2 ADD SWAP1 PUSH2 0xE96 SWAP2 SWAP1 PUSH2 0x64C7 JUMP JUMPDEST PUSH2 0x33CF JUMP JUMPDEST PUSH1 0x40 MLOAD PUSH2 0xEA8 SWAP2 SWAP1 PUSH2 0x5751 JUMP JUMPDEST PUSH1 0x40 MLOAD DUP1 SWAP2 SUB SWAP1 RETURN JUMPDEST CALLVALUE DUP1 ISZERO PUSH2 0xEBD JUMPI PUSH1 0x0 DUP1 REVERT JUMPDEST POP PUSH2 0xEC6 PUSH2 0x3464 JUMP JUMPDEST STOP JUMPDEST CALLVALUE DUP1 ISZERO PUSH2 0xED4 JUMPI PUSH1 0x0 DUP1 REVERT JUMPDEST POP PUSH2 0xEDD PUSH2 0x34D3 JUMP JUMPDEST STOP JUMPDEST CALLVALUE DUP1 ISZERO PUSH2 0xEEB JUMPI PUSH1 0x0 DUP1 REVERT JUMPDEST POP PUSH2 0xF06 PUSH1 0x4 DUP1 CALLDATASIZE SUB DUP2 ADD SWAP1 PUSH2 0xF01 SWAP2 SWAP1 PUSH2 0x57F5 JUMP JUMPDEST PUSH2 0x34F0 JUMP JUMPDEST STOP JUMPDEST PUSH1 0x0 PUSH32 0x7965DB0B00000000000000000000000000000000000000000000000000000000 PUSH28 0xFFFFFFFFFFFFFFFFFFFFFFFFFFFFFFFFFFFFFFFFFFFFFFFFFFFFFFFF NOT AND DUP3 PUSH28 0xFFFFFFFFFFFFFFFFFFFFFFFFFFFFFFFFFFFFFFFFFFFFFFFFFFFFFFFF NOT AND EQ DUP1 PUSH2 0xF7B JUMPI POP PUSH2 0xF7A DUP3 PUSH2 0x353A JUMP JUMPDEST JUMPDEST SWAP1 POP SWAP2 SWAP1 POP JUMP JUMPDEST PUSH2 0xF8B DUP4 PUSH2 0x35A4 JUMP JUMPDEST PUSH2 0xF94 DUP4 PUSH2 0x35F8 JUMP JUMPDEST PUSH2 0xF9D DUP4 PUSH2 0x363A JUMP JUMPDEST PUSH2 0xFA6 DUP3 PUSH2 0x35A4 JUMP JUMPDEST TIMESTAMP PUSH2 0xFB0 DUP5 PUSH2 0x1F53 JUMP JUMPDEST PUSH2 0xFBA SWAP2 SWAP1 PUSH2 0x6536 JUMP JUMPDEST DUP2 GT ISZERO PUSH2 0xFF3 JUMPI PUSH1 0x40 MLOAD PUSH32 0x8744776800000000000000000000000000000000000000000000000000000000 DUP2 MSTORE PUSH1 0x4 ADD PUSH1 0x40 MLOAD DUP1 SWAP2 SUB SWAP1 REVERT JUMPDEST PUSH2 0xFFF DUP4 DUP3 PUSH1 0x0 PUSH2 0x37EC JUMP JUMPDEST PUSH2 0x100B DUP3 DUP3 PUSH1 0x1 PUSH2 0x37EC JUMP JUMPDEST POP POP POP JUMP JUMPDEST PUSH1 0x0 PUSH2 0x101B DUP3 PUSH2 0x35A4 JUMP JUMPDEST PUSH1 0x0 PUSH2 0x1047 PUSH1 0x0 DUP5 DUP2 MSTORE PUSH1 0x20 ADD SWAP1 DUP2 MSTORE PUSH1 0x20 ADD PUSH1 0x0 KECCAK256 PUSH1 0x0 SWAP1 SLOAD SWAP1 PUSH2 0x100 EXP SWAP1 DIV PUSH20 0xFFFFFFFFFFFFFFFFFFFFFFFFFFFFFFFFFFFFFFFF AND SWAP1 POP DUP1 SWAP2 POP POP SWAP2 SWAP1 POP JUMP JUMPDEST PUSH2 0x1066 DUP2 PUSH2 0x363A JUMP JUMPDEST DUP2 PUSH20 0xFFFFFFFFFFFFFFFFFFFFFFFFFFFFFFFFFFFFFFFF AND CALLER PUSH20 0xFFFFFFFFFFFFFFFFFFFFFFFFFFFFFFFFFFFFFFFF AND SUB PUSH2 0x10CB JUMPI PUSH1 0x40 MLOAD PUSH32 0xF13228CA00000000000000000000000000000000000000000000000000000000 DUP2 MSTORE PUSH1 0x4 ADD PUSH1 0x40 MLOAD DUP1 SWAP2 SUB SWAP1 REVERT JUMPDEST DUP2 PUSH2 0x1047 PUSH1 0x0 DUP4 DUP2 MSTORE PUSH1 0x20 ADD SWAP1 DUP2 MSTORE PUSH1 0x20 ADD PUSH1 0x0 KECCAK256 PUSH1 0x0 PUSH2 0x100 EXP DUP2 SLOAD DUP2 PUSH20 0xFFFFFFFFFFFFFFFFFFFFFFFFFFFFFFFFFFFFFFFF MUL NOT AND SWAP1 DUP4 PUSH20 0xFFFFFFFFFFFFFFFFFFFFFFFFFFFFFFFFFFFFFFFF AND MUL OR SWAP1 SSTORE POP DUP1 DUP3 PUSH20 0xFFFFFFFFFFFFFFFFFFFFFFFFFFFFFFFFFFFFFFFF AND PUSH2 0x1044 PUSH1 0x0 DUP5 DUP2 MSTORE PUSH1 0x20 ADD SWAP1 DUP2 MSTORE PUSH1 0x20 ADD PUSH1 0x0 KECCAK256 PUSH1 0x0 SWAP1 SLOAD SWAP1 PUSH2 0x100 EXP SWAP1 DIV PUSH20 0xFFFFFFFFFFFFFFFFFFFFFFFFFFFFFFFFFFFFFFFF AND PUSH20 0xFFFFFFFFFFFFFFFFFFFFFFFFFFFFFFFFFFFFFFFF AND PUSH32 0x8C5BE1E5EBEC7D5BD14F71427D1E84F3DD0314C0F7B2291E5B200AC8C7C3B925 PUSH1 0x40 MLOAD PUSH1 0x40 MLOAD DUP1 SWAP2 SUB SWAP1 LOG4 POP POP JUMP JUMPDEST PUSH1 0x0 DUP1 PUSH20 0xFFFFFFFFFFFFFFFFFFFFFFFFFFFFFFFFFFFFFFFF AND PUSH2 0xC57 PUSH1 0x0 SWAP1 SLOAD SWAP1 PUSH2 0x100 EXP SWAP1 DIV PUSH20 0xFFFFFFFFFFFFFFFFFFFFFFFFFFFFFFFFFFFFFFFF AND PUSH20 0xFFFFFFFFFFFFFFFFFFFFFFFFFFFFFFFFFFFFFFFF AND EQ PUSH2 0x12B3 JUMPI PUSH2 0xC57 PUSH1 0x0 SWAP1 SLOAD SWAP1 PUSH2 0x100 EXP SWAP1 DIV PUSH20 0xFFFFFFFFFFFFFFFFFFFFFFFFFFFFFFFFFFFFFFFF AND PUSH20 0xFFFFFFFFFFFFFFFFFFFFFFFFFFFFFFFFFFFFFFFF AND PUSH4 0x221C1FD1 CALLER DUP7 DUP7 DUP7 PUSH1 0x40 MLOAD DUP6 PUSH4 0xFFFFFFFF AND PUSH1 0xE0 SHL DUP2 MSTORE PUSH1 0x4 ADD PUSH2 0x126B SWAP5 SWAP4 SWAP3 SWAP2 SWAP1 PUSH2 0x65E9 JUMP JUMPDEST PUSH1 0x20 PUSH1 0x40 MLOAD DUP1 DUP4 SUB DUP2 DUP7 GAS STATICCALL ISZERO DUP1 ISZERO PUSH2 0x1288 JUMPI RETURNDATASIZE PUSH1 0x0 DUP1 RETURNDATACOPY RETURNDATASIZE PUSH1 0x0 REVERT JUMPDEST POP POP POP POP PUSH1 0x40 MLOAD RETURNDATASIZE PUSH1 0x1F NOT PUSH1 0x1F DUP3 ADD AND DUP3 ADD DUP1 PUSH1 0x40 MSTORE POP DUP2 ADD SWAP1 PUSH2 0x12AC SWAP2 SWAP1 PUSH2 0x664A JUMP JUMPDEST SWAP1 POP PUSH2 0x12BA JUMP JUMPDEST PUSH2 0xC53 SLOAD SWAP1 POP JUMPDEST SWAP4 SWAP3 POP POP POP JUMP JUMPDEST PUSH2 0xC51 PUSH1 0x0 SWAP1 SLOAD SWAP1 PUSH2 0x100 EXP SWAP1 DIV PUSH20 0xFFFFFFFFFFFFFFFFFFFFFFFFFFFFFFFFFFFFFFFF AND DUP2 JUMP JUMPDEST PUSH2 0xC53 SLOAD DUP2 JUMP JUMPDEST PUSH2 0xC52 SLOAD DUP2 JUMP JUMPDEST PUSH1 0x0 PUSH2 0xC55 SLOAD SWAP1 POP SWAP1 JUMP JUMPDEST PUSH2 0xC58 PUSH1 0x0 SWAP1 SLOAD SWAP1 PUSH2 0x100 EXP SWAP1 DIV PUSH20 0xFFFFFFFFFFFFFFFFFFFFFFFFFFFFFFFFFFFFFFFF AND DUP2 JUMP JUMPDEST PUSH1 0x0 PUSH1 0x65 PUSH1 0x0 DUP4 DUP2 MSTORE PUSH1 0x20 ADD SWAP1 DUP2 MSTORE PUSH1 0x20 ADD PUSH1 0x0 KECCAK256 PUSH1 0x1 ADD SLOAD SWAP1 POP SWAP2 SWAP1 POP JUMP JUMPDEST PUSH2 0xC59 PUSH1 0x0 SWAP1 SLOAD SWAP1 PUSH2 0x100 EXP SWAP1 DIV PUSH20 0xFFFFFFFFFFFFFFFFFFFFFFFFFFFFFFFFFFFFFFFF AND DUP2 JUMP JUMPDEST PUSH2 0x1377 PUSH2 0x38F9 JUMP JUMPDEST PUSH1 0x0 DUP2 SUB PUSH2 0x13B1 JUMPI PUSH1 0x40 MLOAD PUSH32 0xE03B033D00000000000000000000000000000000000000000000000000000000 DUP2 MSTORE PUSH1 0x4 ADD PUSH1 0x40 MLOAD DUP1 SWAP2 SUB SWAP1 REVERT JUMPDEST PUSH2 0xC55 SLOAD DUP3 LT ISZERO PUSH2 0x13EE JUMPI PUSH1 0x40 MLOAD PUSH32 0x1D00CD6B00000000000000000000000000000000000000000000000000000000 DUP2 MSTORE PUSH1 0x4 ADD PUSH1 0x40 MLOAD DUP1 SWAP2 SUB SWAP1 REVERT JUMPDEST DUP1 PUSH2 0xC5C DUP2 SWAP1 SSTORE POP DUP3 PUSH2 0xC52 DUP2 SWAP1 SSTORE POP DUP2 PUSH2 0xC54 DUP2 SWAP1 SSTORE POP PUSH32 0x9A09448A3F24D3A01CCC67103C7CDDBEEA820176A18182CC83D0BCE585F26A5B DUP4 DUP4 PUSH2 0xC5C SLOAD PUSH1 0x40 MLOAD PUSH2 0x143C SWAP4 SWAP3 SWAP2 SWAP1 PUSH2 0x6677 JUMP JUMPDEST PUSH1 0x40 MLOAD DUP1 SWAP2 SUB SWAP1 LOG1 POP POP POP JUMP JUMPDEST PUSH2 0xC57 PUSH1 0x0 SWAP1 SLOAD SWAP1 PUSH2 0x100 EXP SWAP1 DIV PUSH20 0xFFFFFFFFFFFFFFFFFFFFFFFFFFFFFFFFFFFFFFFF AND DUP2 JUMP JUMPDEST PUSH2 0x1479 DUP3 PUSH2 0x1328 JUMP JUMPDEST PUSH2 0x1482 DUP2 PUSH2 0x395B JUMP JUMPDEST PUSH2 0x148C DUP4 DUP4 PUSH2 0x396F JUMP JUMPDEST POP POP POP JUMP JUMPDEST PUSH1 0x0 PUSH2 0x149C DUP4 PUSH2 0x2807 JUMP JUMPDEST DUP3 LT PUSH2 0x14D4 JUMPI PUSH1 0x40 MLOAD PUSH32 0x8E22EAE00000000000000000000000000000000000000000000000000000000 DUP2 MSTORE PUSH1 0x4 ADD PUSH1 0x40 MLOAD DUP1 SWAP2 SUB SWAP1 REVERT JUMPDEST PUSH2 0x104A PUSH1 0x0 DUP5 PUSH20 0xFFFFFFFFFFFFFFFFFFFFFFFFFFFFFFFFFFFFFFFF AND PUSH20 0xFFFFFFFFFFFFFFFFFFFFFFFFFFFFFFFFFFFFFFFF AND DUP2 MSTORE PUSH1 0x20 ADD SWAP1 DUP2 MSTORE PUSH1 0x20 ADD PUSH1 0x0 KECCAK256 PUSH1 0x0 DUP4 DUP2 MSTORE PUSH1 0x20 ADD SWAP1 DUP2 MSTORE PUSH1 0x20 ADD PUSH1 0x0 KECCAK256 SLOAD SWAP1 POP SWAP3 SWAP2 POP POP JUMP JUMPDEST PUSH1 0x60 PUSH2 0x1538 PUSH2 0x3A50 JUMP JUMPDEST PUSH2 0xC54 SLOAD DUP7 MLOAD PUSH2 0xC55 SLOAD PUSH2 0x154C SWAP2 SWAP1 PUSH2 0x66AE JUMP JUMPDEST GT ISZERO PUSH2 0x1584 JUMPI PUSH1 0x40 MLOAD PUSH32 0x31AF695100000000000000000000000000000000000000000000000000000000 DUP2 MSTORE PUSH1 0x4 ADD PUSH1 0x40 MLOAD DUP1 SWAP2 SUB SWAP1 REVERT JUMPDEST DUP5 MLOAD DUP7 MLOAD EQ ISZERO DUP1 PUSH2 0x1597 JUMPI POP DUP4 MLOAD DUP7 MLOAD EQ ISZERO JUMPDEST ISZERO PUSH2 0x15CE JUMPI PUSH1 0x40 MLOAD PUSH32 0xED676A4A00000000000000000000000000000000000000000000000000000000 DUP2 MSTORE PUSH1 0x4 ADD PUSH1 0x40 MLOAD DUP1 SWAP2 SUB SWAP1 REVERT JUMPDEST PUSH1 0x0 DUP1 DUP8 MLOAD PUSH8 0xFFFFFFFFFFFFFFFF DUP2 GT ISZERO PUSH2 0x15EC JUMPI PUSH2 0x15EB PUSH2 0x5905 JUMP JUMPDEST JUMPDEST PUSH1 0x40 MLOAD SWAP1 DUP1 DUP3 MSTORE DUP1 PUSH1 0x20 MUL PUSH1 0x20 ADD DUP3 ADD PUSH1 0x40 MSTORE DUP1 ISZERO PUSH2 0x161A JUMPI DUP2 PUSH1 0x20 ADD PUSH1 0x20 DUP3 MUL DUP1 CALLDATASIZE DUP4 CALLDATACOPY DUP1 DUP3 ADD SWAP2 POP POP SWAP1 POP JUMPDEST POP SWAP1 POP PUSH1 0x0 JUMPDEST DUP9 MLOAD DUP2 LT ISZERO PUSH2 0x1A2A JUMPI PUSH1 0x0 DUP10 DUP3 DUP2 MLOAD DUP2 LT PUSH2 0x163E JUMPI PUSH2 0x163D PUSH2 0x66E2 JUMP JUMPDEST JUMPDEST PUSH1 0x20 MUL PUSH1 0x20 ADD ADD MLOAD SWAP1 POP PUSH2 0x16CC DUP2 DUP10 DUP5 DUP2 MLOAD DUP2 LT PUSH2 0x165F JUMPI PUSH2 0x165E PUSH2 0x66E2 JUMP JUMPDEST JUMPDEST PUSH1 0x20 MUL PUSH1 0x20 ADD ADD MLOAD PUSH32 0xFFFFFFFFFFFFFFFFFFFFFFFFFFFFFFFFFFFFFFFFFFFFFFFFFFFFFFFFFFFFFFFF PUSH2 0xC52 SLOAD EQ PUSH2 0x16A5 JUMPI PUSH2 0xC52 SLOAD TIMESTAMP PUSH2 0x16A0 SWAP2 SWAP1 PUSH2 0x66AE JUMP JUMPDEST PUSH2 0x16C7 JUMP JUMPDEST PUSH32 0xFFFFFFFFFFFFFFFFFFFFFFFFFFFFFFFFFFFFFFFFFFFFFFFFFFFFFFFFFFFFFFFF JUMPDEST PUSH2 0x3A99 JUMP JUMPDEST DUP4 DUP4 DUP2 MLOAD DUP2 LT PUSH2 0x16DF JUMPI PUSH2 0x16DE PUSH2 0x66E2 JUMP JUMPDEST JUMPDEST PUSH1 0x20 MUL PUSH1 0x20 ADD ADD DUP2 DUP2 MSTORE POP POP PUSH1 0x0 PUSH2 0x1779 DUP3 DUP12 DUP6 DUP2 MLOAD DUP2 LT PUSH2 0x1704 JUMPI PUSH2 0x1703 PUSH2 0x66E2 JUMP JUMPDEST JUMPDEST PUSH1 0x20 MUL PUSH1 0x20 ADD ADD MLOAD DUP11 DUP11 DUP8 DUP2 DUP2 LT PUSH2 0x171F JUMPI PUSH2 0x171E PUSH2 0x66E2 JUMP JUMPDEST JUMPDEST SWAP1 POP PUSH1 0x20 MUL DUP2 ADD SWAP1 PUSH2 0x1731 SWAP2 SWAP1 PUSH2 0x6720 JUMP JUMPDEST DUP1 DUP1 PUSH1 0x1F ADD PUSH1 0x20 DUP1 SWAP2 DIV MUL PUSH1 0x20 ADD PUSH1 0x40 MLOAD SWAP1 DUP2 ADD PUSH1 0x40 MSTORE DUP1 SWAP4 SWAP3 SWAP2 SWAP1 DUP2 DUP2 MSTORE PUSH1 0x20 ADD DUP4 DUP4 DUP1 DUP3 DUP5 CALLDATACOPY PUSH1 0x0 DUP2 DUP5 ADD MSTORE PUSH1 0x1F NOT PUSH1 0x1F DUP3 ADD AND SWAP1 POP DUP1 DUP4 ADD SWAP3 POP POP POP POP POP POP POP PUSH2 0x11B1 JUMP JUMPDEST SWAP1 POP DUP1 DUP6 PUSH2 0x1787 SWAP2 SWAP1 PUSH2 0x66AE JUMP JUMPDEST SWAP5 POP PUSH2 0x17AD DUP5 DUP5 DUP2 MLOAD DUP2 LT PUSH2 0x179F JUMPI PUSH2 0x179E PUSH2 0x66E2 JUMP JUMPDEST JUMPDEST PUSH1 0x20 MUL PUSH1 0x20 ADD ADD MLOAD DUP3 PUSH2 0x3C00 JUMP JUMPDEST PUSH1 0x0 PUSH20 0xFFFFFFFFFFFFFFFFFFFFFFFFFFFFFFFFFFFFFFFF AND PUSH2 0x47F PUSH1 0x0 SWAP1 SLOAD SWAP1 PUSH2 0x100 EXP SWAP1 DIV PUSH20 0xFFFFFFFFFFFFFFFFFFFFFFFFFFFFFFFFFFFFFFFF AND PUSH20 0xFFFFFFFFFFFFFFFFFFFFFFFFFFFFFFFFFFFFFFFF AND EQ PUSH2 0x1829 JUMPI PUSH2 0x1828 DUP13 DUP5 DUP2 MLOAD DUP2 LT PUSH2 0x181A JUMPI PUSH2 0x1819 PUSH2 0x66E2 JUMP JUMPDEST JUMPDEST PUSH1 0x20 MUL PUSH1 0x20 ADD ADD MLOAD DUP3 PUSH2 0x3D75 JUMP JUMPDEST JUMPDEST PUSH2 0x184D DUP2 DUP12 DUP6 DUP2 MLOAD DUP2 LT PUSH2 0x1840 JUMPI PUSH2 0x183F PUSH2 0x66E2 JUMP JUMPDEST JUMPDEST PUSH1 0x20 MUL PUSH1 0x20 ADD ADD MLOAD PUSH2 0x3DB3 JUMP JUMPDEST PUSH1 0x0 DUP1 PUSH20 0xFFFFFFFFFFFFFFFFFFFFFFFFFFFFFFFFFFFFFFFF AND PUSH2 0x47F PUSH1 0x0 SWAP1 SLOAD SWAP1 PUSH2 0x100 EXP SWAP1 DIV PUSH20 0xFFFFFFFFFFFFFFFFFFFFFFFFFFFFFFFFFFFFFFFF AND PUSH20 0xFFFFFFFFFFFFFFFFFFFFFFFFFFFFFFFFFFFFFFFF AND EQ PUSH2 0x18C5 JUMPI DUP13 DUP5 DUP2 MLOAD DUP2 LT PUSH2 0x18B8 JUMPI PUSH2 0x18B7 PUSH2 0x66E2 JUMP JUMPDEST JUMPDEST PUSH1 0x20 MUL PUSH1 0x20 ADD ADD MLOAD PUSH2 0x18C7 JUMP JUMPDEST CALLVALUE JUMPDEST SWAP1 POP PUSH1 0x0 PUSH20 0xFFFFFFFFFFFFFFFFFFFFFFFFFFFFFFFFFFFFFFFF AND PUSH2 0xC57 PUSH1 0x0 SWAP1 SLOAD SWAP1 PUSH2 0x100 EXP SWAP1 DIV PUSH20 0xFFFFFFFFFFFFFFFFFFFFFFFFFFFFFFFFFFFFFFFF AND PUSH20 0xFFFFFFFFFFFFFFFFFFFFFFFFFFFFFFFFFFFFFFFF AND EQ PUSH2 0x1A14 JUMPI PUSH2 0xC57 PUSH1 0x0 SWAP1 SLOAD SWAP1 PUSH2 0x100 EXP SWAP1 DIV PUSH20 0xFFFFFFFFFFFFFFFFFFFFFFFFFFFFFFFFFFFFFFFF AND PUSH20 0xFFFFFFFFFFFFFFFFFFFFFFFFFFFFFFFFFFFFFFFF AND PUSH4 0x5E895F29 DUP7 DUP7 DUP2 MLOAD DUP2 LT PUSH2 0x1972 JUMPI PUSH2 0x1971 PUSH2 0x66E2 JUMP JUMPDEST JUMPDEST PUSH1 0x20 MUL PUSH1 0x20 ADD ADD MLOAD CALLER DUP7 DUP16 DUP10 DUP2 MLOAD DUP2 LT PUSH2 0x198F JUMPI PUSH2 0x198E PUSH2 0x66E2 JUMP JUMPDEST JUMPDEST PUSH1 0x20 MUL PUSH1 0x20 ADD ADD MLOAD DUP15 DUP15 DUP12 DUP2 DUP2 LT PUSH2 0x19AA JUMPI PUSH2 0x19A9 PUSH2 0x66E2 JUMP JUMPDEST JUMPDEST SWAP1 POP PUSH1 0x20 MUL DUP2 ADD SWAP1 PUSH2 0x19BC SWAP2 SWAP1 PUSH2 0x6720 JUMP JUMPDEST DUP10 DUP10 PUSH1 0x40 MLOAD DUP10 PUSH4 0xFFFFFFFF AND PUSH1 0xE0 SHL DUP2 MSTORE PUSH1 0x4 ADD PUSH2 0x19E1 SWAP9 SWAP8 SWAP7 SWAP6 SWAP5 SWAP4 SWAP3 SWAP2 SWAP1 PUSH2 0x67B0 JUMP JUMPDEST PUSH1 0x0 PUSH1 0x40 MLOAD DUP1 DUP4 SUB DUP2 PUSH1 0x0 DUP8 DUP1 EXTCODESIZE ISZERO DUP1 ISZERO PUSH2 0x19FB JUMPI PUSH1 0x0 DUP1 REVERT JUMPDEST POP GAS CALL ISZERO DUP1 ISZERO PUSH2 0x1A0F JUMPI RETURNDATASIZE PUSH1 0x0 DUP1 RETURNDATACOPY RETURNDATASIZE PUSH1 0x0 REVERT JUMPDEST POP POP POP POP JUMPDEST POP POP POP DUP1 DUP1 PUSH2 0x1A22 SWAP1 PUSH2 0x6828 JUMP JUMPDEST SWAP2 POP POP PUSH2 0x1620 JUMP JUMPDEST POP PUSH2 0x1A35 CALLER DUP4 PUSH2 0x3F7A JUMP JUMPDEST PUSH2 0x1A3E DUP3 PUSH2 0x40B9 JUMP JUMPDEST PUSH2 0x1A46 PUSH2 0x427E JUMP JUMPDEST PUSH1 0x0 JUMPDEST DUP8 MLOAD DUP2 LT ISZERO PUSH2 0x1A88 JUMPI PUSH2 0x1A75 DUP9 DUP3 DUP2 MLOAD DUP2 LT PUSH2 0x1A68 JUMPI PUSH2 0x1A67 PUSH2 0x66E2 JUMP JUMPDEST JUMPDEST PUSH1 0x20 MUL PUSH1 0x20 ADD ADD MLOAD PUSH2 0x4333 JUMP JUMPDEST DUP1 DUP1 PUSH2 0x1A80 SWAP1 PUSH2 0x6828 JUMP JUMPDEST SWAP2 POP POP PUSH2 0x1A49 JUMP JUMPDEST POP DUP1 SWAP3 POP POP POP SWAP7 SWAP6 POP POP POP POP POP POP JUMP JUMPDEST PUSH2 0x1AA0 PUSH2 0x448F JUMP JUMPDEST PUSH20 0xFFFFFFFFFFFFFFFFFFFFFFFFFFFFFFFFFFFFFFFF AND DUP2 PUSH20 0xFFFFFFFFFFFFFFFFFFFFFFFFFFFFFFFFFFFFFFFF AND EQ PUSH2 0x1B0D JUMPI PUSH1 0x40 MLOAD PUSH32 0x8C379A000000000000000000000000000000000000000000000000000000000 DUP2 MSTORE PUSH1 0x4 ADD PUSH2 0x1B04 SWAP1 PUSH2 0x68F3 JUMP JUMPDEST PUSH1 0x40 MLOAD DUP1 SWAP2 SUB SWAP1 REVERT JUMPDEST PUSH2 0x1B17 DUP3 DUP3 PUSH2 0x4497 JUMP JUMPDEST POP POP JUMP JUMPDEST PUSH2 0xC5D PUSH1 0x0 SWAP1 SLOAD SWAP1 PUSH2 0x100 EXP SWAP1 DIV PUSH20 0xFFFFFFFFFFFFFFFFFFFFFFFFFFFFFFFFFFFFFFFF AND DUP2 JUMP JUMPDEST PUSH2 0x1B4A PUSH2 0x38F9 JUMP JUMPDEST PUSH32 0xD6867BC538320E67D7BDC35860C27C08486EB490B4FD9B820FFF18FB28381D3C DUP3 DUP3 PUSH1 0x40 MLOAD PUSH2 0x1B7B SWAP3 SWAP2 SWAP1 PUSH2 0x6913 JUMP JUMPDEST PUSH1 0x40 MLOAD DUP1 SWAP2 SUB SWAP1 LOG1 DUP2 PUSH2 0x181B DUP2 SWAP1 SSTORE POP DUP1 PUSH2 0x181A DUP2 SWAP1 SSTORE POP POP POP JUMP JUMPDEST PUSH2 0x1BA0 DUP2 PUSH2 0x35A4 JUMP JUMPDEST PUSH2 0x1BA9 DUP2 PUSH2 0x363A JUMP JUMPDEST DUP1 PUSH1 0x0 PUSH20 0xFFFFFFFFFFFFFFFFFFFFFFFFFFFFFFFFFFFFFFFF AND PUSH2 0x1044 PUSH1 0x0 DUP5 DUP2 MSTORE PUSH1 0x20 ADD SWAP1 DUP2 MSTORE PUSH1 0x20 ADD PUSH1 0x0 KECCAK256 PUSH1 0x0 SWAP1 SLOAD SWAP1 PUSH2 0x100 EXP SWAP1 DIV PUSH20 0xFFFFFFFFFFFFFFFFFFFFFFFFFFFFFFFFFFFFFFFF AND PUSH20 0xFFFFFFFFFFFFFFFFFFFFFFFFFFFFFFFFFFFFFFFF AND PUSH32 0xDDF252AD1BE2C89B69C2B068FC378DAA952BA7F163C4A11628F55A4DF523B3EF PUSH1 0x40 MLOAD PUSH1 0x40 MLOAD DUP1 SWAP2 SUB SWAP1 LOG4 PUSH2 0x1C42 DUP2 PUSH2 0x4579 JUMP JUMPDEST PUSH1 0x0 PUSH2 0x1044 PUSH1 0x0 DUP4 DUP2 MSTORE PUSH1 0x20 ADD SWAP1 DUP2 MSTORE PUSH1 0x20 ADD PUSH1 0x0 KECCAK256 PUSH1 0x0 PUSH2 0x100 EXP DUP2 SLOAD DUP2 PUSH20 0xFFFFFFFFFFFFFFFFFFFFFFFFFFFFFFFFFFFFFFFF MUL NOT AND SWAP1 DUP4 PUSH20 0xFFFFFFFFFFFFFFFFFFFFFFFFFFFFFFFFFFFFFFFF AND MUL OR SWAP1 SSTORE POP POP JUMP JUMPDEST PUSH2 0x1046 PUSH1 0x20 MSTORE DUP1 PUSH1 0x0 MSTORE PUSH1 0x40 PUSH1 0x0 KECCAK256 PUSH1 0x0 SWAP2 POP SLOAD SWAP1 PUSH2 0x100 EXP SWAP1 DIV PUSH20 0xFFFFFFFFFFFFFFFFFFFFFFFFFFFFFFFFFFFFFFFF AND DUP2 JUMP JUMPDEST PUSH2 0xC5B SLOAD DUP2 JUMP JUMPDEST PUSH1 0x0 PUSH32 0xFFFFFFFFFFFFFFFFFFFFFFFFFFFFFFFFFFFFFFFFFFFFFFFFFFFFFFFFFFFFFFFF PUSH2 0x1433 PUSH1 0x0 DUP6 DUP2 MSTORE PUSH1 0x20 ADD SWAP1 DUP2 MSTORE PUSH1 0x20 ADD PUSH1 0x0 KECCAK256 SLOAD EQ DUP1 PUSH2 0x1D67 JUMPI POP PUSH1 0x0 PUSH20 0xFFFFFFFFFFFFFFFFFFFFFFFFFFFFFFFFFFFFFFFF AND PUSH2 0x47F PUSH1 0x0 SWAP1 SLOAD SWAP1 PUSH2 0x100 EXP SWAP1 DIV PUSH20 0xFFFFFFFFFFFFFFFFFFFFFFFFFFFFFFFFFFFFFFFF AND PUSH20 0xFFFFFFFFFFFFFFFFFFFFFFFFFFFFFFFFFFFFFFFF AND EQ JUMPDEST ISZERO PUSH2 0x1D9E JUMPI PUSH1 0x40 MLOAD PUSH32 0xD9A81C2200000000000000000000000000000000000000000000000000000000 DUP2 MSTORE PUSH1 0x4 ADD PUSH1 0x40 MLOAD DUP1 SWAP2 SUB SWAP1 REVERT JUMPDEST PUSH2 0x1DC0 PUSH2 0x1DAA DUP5 PUSH2 0x1FAE JUMP JUMPDEST DUP4 PUSH1 0x40 MLOAD DUP1 PUSH1 0x20 ADD PUSH1 0x40 MSTORE DUP1 PUSH1 0x0 DUP2 MSTORE POP PUSH2 0x11B1 JUMP JUMPDEST PUSH2 0x1432 PUSH1 0x0 DUP6 DUP2 MSTORE PUSH1 0x20 ADD SWAP1 DUP2 MSTORE PUSH1 0x20 ADD PUSH1 0x0 KECCAK256 SLOAD LT DUP1 PUSH2 0x1DF7 JUMPI POP PUSH2 0xC52 SLOAD PUSH2 0x1433 PUSH1 0x0 DUP6 DUP2 MSTORE PUSH1 0x20 ADD SWAP1 DUP2 MSTORE PUSH1 0x20 ADD PUSH1 0x0 KECCAK256 SLOAD GT JUMPDEST DUP1 PUSH2 0x1E85 JUMPI POP PUSH2 0x47F PUSH1 0x0 SWAP1 SLOAD SWAP1 PUSH2 0x100 EXP SWAP1 DIV PUSH20 0xFFFFFFFFFFFFFFFFFFFFFFFFFFFFFFFFFFFFFFFF AND PUSH20 0xFFFFFFFFFFFFFFFFFFFFFFFFFFFFFFFFFFFFFFFF AND PUSH2 0x1434 PUSH1 0x0 DUP6 DUP2 MSTORE PUSH1 0x20 ADD SWAP1 DUP2 MSTORE PUSH1 0x20 ADD PUSH1 0x0 KECCAK256 PUSH1 0x0 SWAP1 SLOAD SWAP1 PUSH2 0x100 EXP SWAP1 DIV PUSH20 0xFFFFFFFFFFFFFFFFFFFFFFFFFFFFFFFFFFFFFFFF AND PUSH20 0xFFFFFFFFFFFFFFFFFFFFFFFFFFFFFFFFFFFFFFFF AND EQ ISZERO JUMPDEST ISZERO PUSH2 0x1EBC JUMPI PUSH1 0x40 MLOAD PUSH32 0x986739E700000000000000000000000000000000000000000000000000000000 DUP2 MSTORE PUSH1 0x4 ADD PUSH1 0x40 MLOAD DUP1 SWAP2 SUB SWAP1 REVERT JUMPDEST PUSH1 0x0 PUSH2 0x2710 PUSH2 0x2328 PUSH2 0xC52 SLOAD PUSH2 0x1ED2 SWAP2 SWAP1 PUSH2 0x693C JUMP JUMPDEST PUSH2 0x1EDC SWAP2 SWAP1 PUSH2 0x69AD JUMP JUMPDEST PUSH2 0xC52 SLOAD PUSH2 0x1049 PUSH1 0x0 DUP8 DUP2 MSTORE PUSH1 0x20 ADD SWAP1 DUP2 MSTORE PUSH1 0x20 ADD PUSH1 0x0 KECCAK256 PUSH1 0x1 ADD SLOAD PUSH2 0x1F02 SWAP2 SWAP1 PUSH2 0x6536 JUMP JUMPDEST PUSH2 0x1F0C SWAP2 SWAP1 PUSH2 0x66AE JUMP JUMPDEST SWAP1 POP DUP1 TIMESTAMP LT ISZERO PUSH2 0x1F48 JUMPI PUSH1 0x40 MLOAD PUSH32 0xC1B1D86600000000000000000000000000000000000000000000000000000000 DUP2 MSTORE PUSH1 0x4 ADD PUSH1 0x40 MLOAD DUP1 SWAP2 SUB SWAP1 REVERT JUMPDEST PUSH1 0x1 SWAP2 POP POP SWAP3 SWAP2 POP POP JUMP JUMPDEST PUSH1 0x0 PUSH2 0x1049 PUSH1 0x0 DUP4 DUP2 MSTORE PUSH1 0x20 ADD SWAP1 DUP2 MSTORE PUSH1 0x20 ADD PUSH1 0x0 KECCAK256 PUSH1 0x1 ADD SLOAD SWAP1 POP SWAP2 SWAP1 POP JUMP JUMPDEST PUSH2 0x1F7D DUP3 PUSH2 0x35A4 JUMP JUMPDEST PUSH2 0x1F86 DUP3 PUSH2 0x35F8 JUMP JUMPDEST PUSH2 0x1F8E PUSH2 0x38F9 JUMP JUMPDEST PUSH2 0x1F98 DUP3 DUP3 PUSH2 0x4598 JUMP JUMPDEST POP POP JUMP JUMPDEST PUSH2 0x181A SLOAD DUP2 JUMP JUMPDEST PUSH1 0x0 PUSH2 0x1431 SLOAD SWAP1 POP SWAP1 JUMP JUMPDEST PUSH1 0x0 PUSH2 0x1044 PUSH1 0x0 DUP4 DUP2 MSTORE PUSH1 0x20 ADD SWAP1 DUP2 MSTORE PUSH1 0x20 ADD PUSH1 0x0 KECCAK256 PUSH1 0x0 SWAP1 SLOAD SWAP1 PUSH2 0x100 EXP SWAP1 DIV PUSH20 0xFFFFFFFFFFFFFFFFFFFFFFFFFFFFFFFFFFFFFFFF AND SWAP1 POP SWAP2 SWAP1 POP JUMP JUMPDEST PUSH1 0x0 DUP1 PUSH2 0x1FF8 DUP4 PUSH2 0x211A JUMP JUMPDEST SUB PUSH2 0x2105 JUMPI PUSH1 0x0 PUSH20 0xFFFFFFFFFFFFFFFFFFFFFFFFFFFFFFFFFFFFFFFF AND PUSH2 0xC59 PUSH1 0x0 SWAP1 SLOAD SWAP1 PUSH2 0x100 EXP SWAP1 DIV PUSH20 0xFFFFFFFFFFFFFFFFFFFFFFFFFFFFFFFFFFFFFFFF AND PUSH20 0xFFFFFFFFFFFFFFFFFFFFFFFFFFFFFFFFFFFFFFFF AND EQ PUSH2 0x2104 JUMPI PUSH2 0xC59 PUSH1 0x0 SWAP1 SLOAD SWAP1 PUSH2 0x100 EXP SWAP1 DIV PUSH20 0xFFFFFFFFFFFFFFFFFFFFFFFFFFFFFFFFFFFFFFFF AND PUSH20 0xFFFFFFFFFFFFFFFFFFFFFFFFFFFFFFFFFFFFFFFF AND PUSH4 0x427EDE38 ADDRESS CALLER PUSH1 0x0 DUP1 DUP8 PUSH1 0x0 PUSH1 0x40 MLOAD DUP8 PUSH4 0xFFFFFFFF AND PUSH1 0xE0 SHL DUP2 MSTORE PUSH1 0x4 ADD PUSH2 0x20BC SWAP7 SWAP6 SWAP5 SWAP4 SWAP3 SWAP2 SWAP1 PUSH2 0x6A19 JUMP JUMPDEST PUSH1 0x20 PUSH1 0x40 MLOAD DUP1 DUP4 SUB DUP2 DUP7 GAS STATICCALL ISZERO DUP1 ISZERO PUSH2 0x20D9 JUMPI RETURNDATASIZE PUSH1 0x0 DUP1 RETURNDATACOPY RETURNDATASIZE PUSH1 0x0 REVERT JUMPDEST POP POP POP POP PUSH1 0x40 MLOAD RETURNDATASIZE PUSH1 0x1F NOT PUSH1 0x1F DUP3 ADD AND DUP3 ADD DUP1 PUSH1 0x40 MSTORE POP DUP2 ADD SWAP1 PUSH2 0x20FD SWAP2 SWAP1 PUSH2 0x6AA6 JUMP JUMPDEST SWAP1 POP PUSH2 0x2115 JUMP JUMPDEST JUMPDEST PUSH1 0x1 PUSH2 0x2110 DUP4 PUSH2 0x211A JUMP JUMPDEST LT ISZERO SWAP1 POP JUMPDEST SWAP2 SWAP1 POP JUMP JUMPDEST PUSH1 0x0 DUP1 PUSH2 0x2126 DUP4 PUSH2 0x2807 JUMP JUMPDEST SWAP1 POP PUSH1 0x0 JUMPDEST DUP2 DUP2 LT ISZERO PUSH2 0x216C JUMPI PUSH2 0x2145 PUSH2 0x2140 DUP6 DUP4 PUSH2 0x1491 JUMP JUMPDEST PUSH2 0x2D10 JUMP JUMPDEST ISZERO PUSH2 0x2159 JUMPI DUP3 DUP1 PUSH2 0x2155 SWAP1 PUSH2 0x6828 JUMP JUMPDEST SWAP4 POP POP JUMPDEST DUP1 DUP1 PUSH2 0x2164 SWAP1 PUSH2 0x6828 JUMP JUMPDEST SWAP2 POP POP PUSH2 0x212B JUMP JUMPDEST POP POP SWAP2 SWAP1 POP JUMP JUMPDEST PUSH2 0xC54 SLOAD DUP2 JUMP JUMPDEST PUSH2 0x2182 PUSH2 0x38F9 JUMP JUMPDEST PUSH1 0x0 PUSH20 0xFFFFFFFFFFFFFFFFFFFFFFFFFFFFFFFFFFFFFFFF AND DUP8 PUSH20 0xFFFFFFFFFFFFFFFFFFFFFFFFFFFFFFFFFFFFFFFF AND EQ ISZERO DUP1 ISZERO PUSH2 0x21DB JUMPI POP PUSH2 0x21D9 DUP8 PUSH20 0xFFFFFFFFFFFFFFFFFFFFFFFFFFFFFFFFFFFFFFFF AND PUSH2 0x476F JUMP JUMPDEST ISZERO JUMPDEST ISZERO PUSH2 0x221E JUMPI PUSH1 0x0 PUSH1 0x40 MLOAD PUSH32 0x6788E02B00000000000000000000000000000000000000000000000000000000 DUP2 MSTORE PUSH1 0x4 ADD PUSH2 0x2215 SWAP2 SWAP1 PUSH2 0x6B11 JUMP JUMPDEST PUSH1 0x40 MLOAD DUP1 SWAP2 SUB SWAP1 REVERT JUMPDEST PUSH1 0x0 PUSH20 0xFFFFFFFFFFFFFFFFFFFFFFFFFFFFFFFFFFFFFFFF AND DUP7 PUSH20 0xFFFFFFFFFFFFFFFFFFFFFFFFFFFFFFFFFFFFFFFF AND EQ ISZERO DUP1 ISZERO PUSH2 0x2277 JUMPI POP PUSH2 0x2275 DUP7 PUSH20 0xFFFFFFFFFFFFFFFFFFFFFFFFFFFFFFFFFFFFFFFF AND PUSH2 0x476F JUMP JUMPDEST ISZERO JUMPDEST ISZERO PUSH2 0x22BA JUMPI PUSH1 0x1 PUSH1 0x40 MLOAD PUSH32 0x6788E02B00000000000000000000000000000000000000000000000000000000 DUP2 MSTORE PUSH1 0x4 ADD PUSH2 0x22B1 SWAP2 SWAP1 PUSH2 0x6B67 JUMP JUMPDEST PUSH1 0x40 MLOAD DUP1 SWAP2 SUB SWAP1 REVERT JUMPDEST PUSH1 0x0 PUSH20 0xFFFFFFFFFFFFFFFFFFFFFFFFFFFFFFFFFFFFFFFF AND DUP6 PUSH20 0xFFFFFFFFFFFFFFFFFFFFFFFFFFFFFFFFFFFFFFFF AND EQ ISZERO DUP1 ISZERO PUSH2 0x2313 JUMPI POP PUSH2 0x2311 DUP6 PUSH20 0xFFFFFFFFFFFFFFFFFFFFFFFFFFFFFFFFFFFFFFFF AND PUSH2 0x476F JUMP JUMPDEST ISZERO JUMPDEST ISZERO PUSH2 0x2356 JUMPI PUSH1 0x2 PUSH1 0x40 MLOAD PUSH32 0x6788E02B00000000000000000000000000000000000000000000000000000000 DUP2 MSTORE PUSH1 0x4 ADD PUSH2 0x234D SWAP2 SWAP1 PUSH2 0x6BBD JUMP JUMPDEST PUSH1 0x40 MLOAD DUP1 SWAP2 SUB SWAP1 REVERT JUMPDEST PUSH1 0x0 PUSH20 0xFFFFFFFFFFFFFFFFFFFFFFFFFFFFFFFFFFFFFFFF AND DUP5 PUSH20 0xFFFFFFFFFFFFFFFFFFFFFFFFFFFFFFFFFFFFFFFF AND EQ ISZERO DUP1 ISZERO PUSH2 0x23AF JUMPI POP PUSH2 0x23AD DUP5 PUSH20 0xFFFFFFFFFFFFFFFFFFFFFFFFFFFFFFFFFFFFFFFF AND PUSH2 0x476F JUMP JUMPDEST ISZERO JUMPDEST ISZERO PUSH2 0x23F2 JUMPI PUSH1 0x3 PUSH1 0x40 MLOAD PUSH32 0x6788E02B00000000000000000000000000000000000000000000000000000000 DUP2 MSTORE PUSH1 0x4 ADD PUSH2 0x23E9 SWAP2 SWAP1 PUSH2 0x6C13 JUMP JUMPDEST PUSH1 0x40 MLOAD DUP1 SWAP2 SUB SWAP1 REVERT JUMPDEST PUSH1 0x0 PUSH20 0xFFFFFFFFFFFFFFFFFFFFFFFFFFFFFFFFFFFFFFFF AND DUP4 PUSH20 0xFFFFFFFFFFFFFFFFFFFFFFFFFFFFFFFFFFFFFFFF AND EQ ISZERO DUP1 ISZERO PUSH2 0x244B JUMPI POP PUSH2 0x2449 DUP4 PUSH20 0xFFFFFFFFFFFFFFFFFFFFFFFFFFFFFFFFFFFFFFFF AND PUSH2 0x476F JUMP JUMPDEST ISZERO JUMPDEST ISZERO PUSH2 0x248E JUMPI PUSH1 0x4 PUSH1 0x40 MLOAD PUSH32 0x6788E02B00000000000000000000000000000000000000000000000000000000 DUP2 MSTORE PUSH1 0x4 ADD PUSH2 0x2485 SWAP2 SWAP1 PUSH2 0x6C69 JUMP JUMPDEST PUSH1 0x40 MLOAD DUP1 SWAP2 SUB SWAP1 REVERT JUMPDEST PUSH1 0x0 PUSH20 0xFFFFFFFFFFFFFFFFFFFFFFFFFFFFFFFFFFFFFFFF AND DUP3 PUSH20 0xFFFFFFFFFFFFFFFFFFFFFFFFFFFFFFFFFFFFFFFF AND EQ ISZERO DUP1 ISZERO PUSH2 0x24E7 JUMPI POP PUSH2 0x24E5 DUP3 PUSH20 0xFFFFFFFFFFFFFFFFFFFFFFFFFFFFFFFFFFFFFFFF AND PUSH2 0x476F JUMP JUMPDEST ISZERO JUMPDEST ISZERO PUSH2 0x252A JUMPI PUSH1 0x5 PUSH1 0x40 MLOAD PUSH32 0x6788E02B00000000000000000000000000000000000000000000000000000000 DUP2 MSTORE PUSH1 0x4 ADD PUSH2 0x2521 SWAP2 SWAP1 PUSH2 0x6CBF JUMP JUMPDEST PUSH1 0x40 MLOAD DUP1 SWAP2 SUB SWAP1 REVERT JUMPDEST PUSH1 0x0 PUSH20 0xFFFFFFFFFFFFFFFFFFFFFFFFFFFFFFFFFFFFFFFF AND DUP2 PUSH20 0xFFFFFFFFFFFFFFFFFFFFFFFFFFFFFFFFFFFFFFFF AND EQ ISZERO DUP1 ISZERO PUSH2 0x2583 JUMPI POP PUSH2 0x2581 DUP2 PUSH20 0xFFFFFFFFFFFFFFFFFFFFFFFFFFFFFFFFFFFFFFFF AND PUSH2 0x476F JUMP JUMPDEST ISZERO JUMPDEST ISZERO PUSH2 0x25C6 JUMPI PUSH1 0x6 PUSH1 0x40 MLOAD PUSH32 0x6788E02B00000000000000000000000000000000000000000000000000000000 DUP2 MSTORE PUSH1 0x4 ADD PUSH2 0x25BD SWAP2 SWAP1 PUSH2 0x6D15 JUMP JUMPDEST PUSH1 0x40 MLOAD DUP1 SWAP2 SUB SWAP1 REVERT JUMPDEST DUP7 PUSH2 0xC57 PUSH1 0x0 PUSH2 0x100 EXP DUP2 SLOAD DUP2 PUSH20 0xFFFFFFFFFFFFFFFFFFFFFFFFFFFFFFFFFFFFFFFF MUL NOT AND SWAP1 DUP4 PUSH20 0xFFFFFFFFFFFFFFFFFFFFFFFFFFFFFFFFFFFFFFFF AND MUL OR SWAP1 SSTORE POP DUP6 PUSH2 0xC58 PUSH1 0x0 PUSH2 0x100 EXP DUP2 SLOAD DUP2 PUSH20 0xFFFFFFFFFFFFFFFFFFFFFFFFFFFFFFFFFFFFFFFF MUL NOT AND SWAP1 DUP4 PUSH20 0xFFFFFFFFFFFFFFFFFFFFFFFFFFFFFFFFFFFFFFFF AND MUL OR SWAP1 SSTORE POP DUP4 PUSH2 0xC5A PUSH1 0x0 PUSH2 0x100 EXP DUP2 SLOAD DUP2 PUSH20 0xFFFFFFFFFFFFFFFFFFFFFFFFFFFFFFFFFFFFFFFF MUL NOT AND SWAP1 DUP4 PUSH20 0xFFFFFFFFFFFFFFFFFFFFFFFFFFFFFFFFFFFFFFFF AND MUL OR SWAP1 SSTORE POP DUP5 PUSH2 0xC59 PUSH1 0x0 PUSH2 0x100 EXP DUP2 SLOAD DUP2 PUSH20 0xFFFFFFFFFFFFFFFFFFFFFFFFFFFFFFFFFFFFFFFF MUL NOT AND SWAP1 DUP4 PUSH20 0xFFFFFFFFFFFFFFFFFFFFFFFFFFFFFFFFFFFFFFFF AND MUL OR SWAP1 SSTORE POP DUP3 PUSH2 0xC5D PUSH1 0x0 PUSH2 0x100 EXP DUP2 SLOAD DUP2 PUSH20 0xFFFFFFFFFFFFFFFFFFFFFFFFFFFFFFFFFFFFFFFF MUL NOT AND SWAP1 DUP4 PUSH20 0xFFFFFFFFFFFFFFFFFFFFFFFFFFFFFFFFFFFFFFFF AND MUL OR SWAP1 SSTORE POP DUP2 PUSH2 0xC5E PUSH1 0x0 PUSH2 0x100 EXP DUP2 SLOAD DUP2 PUSH20 0xFFFFFFFFFFFFFFFFFFFFFFFFFFFFFFFFFFFFFFFF MUL NOT AND SWAP1 DUP4 PUSH20 0xFFFFFFFFFFFFFFFFFFFFFFFFFFFFFFFFFFFFFFFF AND MUL OR SWAP1 SSTORE POP DUP1 PUSH2 0xC5F PUSH1 0x0 PUSH2 0x100 EXP DUP2 SLOAD DUP2 PUSH20 0xFFFFFFFFFFFFFFFFFFFFFFFFFFFFFFFFFFFFFFFF MUL NOT AND SWAP1 DUP4 PUSH20 0xFFFFFFFFFFFFFFFFFFFFFFFFFFFFFFFFFFFFFFFF AND MUL OR SWAP1 SSTORE POP PUSH32 0xA851288E37FA9A8BC562891998524E95C286FE84F693C1921E0FD0792171AF6 DUP8 DUP8 DUP8 DUP8 DUP8 DUP8 DUP8 PUSH1 0x40 MLOAD PUSH2 0x27CF SWAP8 SWAP7 SWAP6 SWAP5 SWAP4 SWAP3 SWAP2 SWAP1 PUSH2 0x6D30 JUMP JUMPDEST PUSH1 0x40 MLOAD DUP1 SWAP2 SUB SWAP1 LOG1 POP POP POP POP POP POP POP JUMP JUMPDEST PUSH2 0xC5A PUSH1 0x0 SWAP1 SLOAD SWAP1 PUSH2 0x100 EXP SWAP1 DIV PUSH20 0xFFFFFFFFFFFFFFFFFFFFFFFFFFFFFFFFFFFFFFFF AND DUP2 JUMP JUMPDEST PUSH1 0x0 DUP1 PUSH20 0xFFFFFFFFFFFFFFFFFFFFFFFFFFFFFFFFFFFFFFFF AND DUP3 PUSH20 0xFFFFFFFFFFFFFFFFFFFFFFFFFFFFFFFFFFFFFFFF AND SUB PUSH2 0x286E JUMPI PUSH1 0x40 MLOAD PUSH32 0x5963709B00000000000000000000000000000000000000000000000000000000 DUP2 MSTORE PUSH1 0x4 ADD PUSH1 0x40 MLOAD DUP1 SWAP2 SUB SWAP1 REVERT JUMPDEST PUSH2 0x104C PUSH1 0x0 DUP4 PUSH20 0xFFFFFFFFFFFFFFFFFFFFFFFFFFFFFFFFFFFFFFFF AND PUSH20 0xFFFFFFFFFFFFFFFFFFFFFFFFFFFFFFFFFFFFFFFF AND DUP2 MSTORE PUSH1 0x20 ADD SWAP1 DUP2 MSTORE PUSH1 0x20 ADD PUSH1 0x0 KECCAK256 SLOAD SWAP1 POP SWAP2 SWAP1 POP JUMP JUMPDEST PUSH2 0x28BE PUSH2 0x3A50 JUMP JUMPDEST PUSH2 0x28C7 DUP3 PUSH2 0x35A4 JUMP JUMPDEST PUSH2 0x28D1 DUP3 DUP3 PUSH2 0x1CD4 JUMP JUMPDEST POP PUSH2 0x28DD DUP3 PUSH1 0x0 PUSH2 0x4792 JUMP JUMPDEST POP PUSH2 0x28EB PUSH2 0xC53 SLOAD DUP3 PUSH2 0x3DB3 JUMP JUMPDEST PUSH2 0x2900 PUSH2 0x28F7 DUP4 PUSH2 0x1FAE JUMP JUMPDEST PUSH2 0xC53 SLOAD PUSH2 0x3F7A JUMP JUMPDEST PUSH2 0x2908 PUSH2 0x427E JUMP JUMPDEST PUSH2 0x2911 DUP2 PUSH2 0x4333 JUMP JUMPDEST PUSH2 0x291D PUSH2 0xC53 SLOAD PUSH2 0x40B9 JUMP JUMPDEST POP POP JUMP JUMPDEST PUSH1 0x1 PUSH2 0x292B PUSH2 0x2F89 JUMP JUMPDEST PUSH2 0x2935 SWAP2 SWAP1 PUSH2 0x6D9F JUMP JUMPDEST PUSH2 0xFFFF AND PUSH2 0xC5B SLOAD EQ DUP1 PUSH2 0x294C JUMPI POP PUSH1 0x0 PUSH2 0xC5B SLOAD EQ JUMPDEST PUSH2 0x298B JUMPI PUSH1 0x40 MLOAD PUSH32 0x8C379A000000000000000000000000000000000000000000000000000000000 DUP2 MSTORE PUSH1 0x4 ADD PUSH2 0x2982 SWAP1 PUSH2 0x6E21 JUMP JUMPDEST PUSH1 0x40 MLOAD DUP1 SWAP2 SUB SWAP1 REVERT JUMPDEST PUSH1 0x1 CHAINID SUB PUSH2 0x2A50 JUMPI PUSH1 0x0 PUSH20 0xE79B93F8E22676774F2A8DAD469175EBD00029FA SWAP1 POP DUP1 PUSH20 0xFFFFFFFFFFFFFFFFFFFFFFFFFFFFFFFFFFFFFFFF AND PUSH4 0xED9674BD PUSH1 0x40 MLOAD DUP2 PUSH4 0xFFFFFFFF AND PUSH1 0xE0 SHL DUP2 MSTORE PUSH1 0x4 ADD PUSH1 0x0 PUSH1 0x40 MLOAD DUP1 DUP4 SUB DUP2 PUSH1 0x0 DUP8 DUP1 EXTCODESIZE ISZERO DUP1 ISZERO PUSH2 0x29F4 JUMPI PUSH1 0x0 DUP1 REVERT JUMPDEST POP GAS CALL ISZERO DUP1 ISZERO PUSH2 0x2A08 JUMPI RETURNDATASIZE PUSH1 0x0 DUP1 RETURNDATACOPY RETURNDATASIZE PUSH1 0x0 REVERT JUMPDEST POP POP POP POP DUP1 PUSH2 0xC51 PUSH1 0x0 PUSH2 0x100 EXP DUP2 SLOAD DUP2 PUSH20 0xFFFFFFFFFFFFFFFFFFFFFFFFFFFFFFFFFFFFFFFF MUL NOT AND SWAP1 DUP4 PUSH20 0xFFFFFFFFFFFFFFFFFFFFFFFFFFFFFFFFFFFFFFFF AND MUL OR SWAP1 SSTORE POP POP JUMPDEST PUSH2 0x2A58 PUSH2 0x2F89 JUMP JUMPDEST PUSH2 0xFFFF AND PUSH2 0xC5B DUP2 SWAP1 SSTORE POP POP POP JUMP JUMPDEST PUSH1 0x0 PUSH1 0x65 PUSH1 0x0 DUP5 DUP2 MSTORE PUSH1 0x20 ADD SWAP1 DUP2 MSTORE PUSH1 0x20 ADD PUSH1 0x0 KECCAK256 PUSH1 0x0 ADD PUSH1 0x0 DUP4 PUSH20 0xFFFFFFFFFFFFFFFFFFFFFFFFFFFFFFFFFFFFFFFF AND PUSH20 0xFFFFFFFFFFFFFFFFFFFFFFFFFFFFFFFFFFFFFFFF AND DUP2 MSTORE PUSH1 0x20 ADD SWAP1 DUP2 MSTORE PUSH1 0x20 ADD PUSH1 0x0 KECCAK256 PUSH1 0x0 SWAP1 SLOAD SWAP1 PUSH2 0x100 EXP SWAP1 DIV PUSH1 0xFF AND SWAP1 POP SWAP3 SWAP2 POP POP JUMP JUMPDEST PUSH1 0x0 PUSH2 0x2ADD DUP3 PUSH2 0x35F8 JUMP JUMPDEST PUSH32 0xFFFFFFFFFFFFFFFFFFFFFFFFFFFFFFFFFFFFFFFFFFFFFFFFFFFFFFFFFFFFFFFF PUSH2 0xC52 SLOAD SUB PUSH2 0x2B12 JUMPI PUSH2 0xC53 SLOAD SWAP1 POP PUSH2 0x2BDB JUMP JUMPDEST PUSH1 0x0 TIMESTAMP PUSH2 0x2B1E DUP5 PUSH2 0x1F53 JUMP JUMPDEST PUSH2 0x2B28 SWAP2 SWAP1 PUSH2 0x6536 JUMP JUMPDEST SWAP1 POP PUSH2 0xC52 SLOAD PUSH2 0x181B SLOAD DUP3 PUSH2 0x2B3D SWAP2 SWAP1 PUSH2 0x66AE JUMP JUMPDEST LT PUSH2 0x2B4D JUMPI PUSH2 0xC53 SLOAD SWAP2 POP PUSH2 0x2B6D JUMP JUMPDEST PUSH2 0xC52 SLOAD DUP2 PUSH2 0xC53 SLOAD PUSH2 0x2B60 SWAP2 SWAP1 PUSH2 0x693C JUMP JUMPDEST PUSH2 0x2B6A SWAP2 SWAP1 PUSH2 0x69AD JUMP JUMPDEST SWAP2 POP JUMPDEST PUSH1 0x0 PUSH2 0x181B SLOAD EQ DUP1 PUSH2 0x2B8F JUMPI POP PUSH2 0xC52 SLOAD PUSH2 0x181B SLOAD DUP3 PUSH2 0x2B8D SWAP2 SWAP1 PUSH2 0x66AE JUMP JUMPDEST LT JUMPDEST ISZERO PUSH2 0x2BD9 JUMPI PUSH1 0x0 PUSH2 0x2710 PUSH2 0x181A SLOAD PUSH2 0xC53 SLOAD PUSH2 0x2BAB SWAP2 SWAP1 PUSH2 0x693C JUMP JUMPDEST PUSH2 0x2BB5 SWAP2 SWAP1 PUSH2 0x69AD JUMP JUMPDEST SWAP1 POP DUP1 DUP4 GT ISZERO PUSH2 0x2BD2 JUMPI DUP1 DUP4 PUSH2 0x2BCB SWAP2 SWAP1 PUSH2 0x6536 JUMP JUMPDEST SWAP3 POP PUSH2 0x2BD7 JUMP JUMPDEST PUSH1 0x0 SWAP3 POP JUMPDEST POP JUMPDEST POP JUMPDEST SWAP2 SWAP1 POP JUMP JUMPDEST PUSH2 0x1045 SLOAD DUP2 JUMP JUMPDEST PUSH2 0x47F PUSH1 0x0 SWAP1 SLOAD SWAP1 PUSH2 0x100 EXP SWAP1 DIV PUSH20 0xFFFFFFFFFFFFFFFFFFFFFFFFFFFFFFFFFFFFFFFF AND DUP2 JUMP JUMPDEST PUSH1 0x0 DUP1 SHL DUP2 JUMP JUMPDEST PUSH2 0x2C1D PUSH2 0x38F9 JUMP JUMPDEST PUSH2 0x2C26 DUP2 PUSH2 0x49E0 JUMP JUMPDEST PUSH1 0x0 PUSH2 0xC53 SLOAD SWAP1 POP PUSH1 0x0 PUSH2 0x47F PUSH1 0x0 SWAP1 SLOAD SWAP1 PUSH2 0x100 EXP SWAP1 DIV PUSH20 0xFFFFFFFFFFFFFFFFFFFFFFFFFFFFFFFFFFFFFFFF AND SWAP1 POP DUP4 PUSH2 0xC53 DUP2 SWAP1 SSTORE POP DUP3 PUSH2 0x47F PUSH1 0x0 PUSH2 0x100 EXP DUP2 SLOAD DUP2 PUSH20 0xFFFFFFFFFFFFFFFFFFFFFFFFFFFFFFFFFFFFFFFF MUL NOT AND SWAP1 DUP4 PUSH20 0xFFFFFFFFFFFFFFFFFFFFFFFFFFFFFFFFFFFFFFFF AND MUL OR SWAP1 SSTORE POP PUSH32 0x3615065CCF48367AC483AC86701248E2E5FF55BDD9BE845007D34A3B68D719D4 DUP3 PUSH2 0xC53 SLOAD DUP4 PUSH2 0x47F PUSH1 0x0 SWAP1 SLOAD SWAP1 PUSH2 0x100 EXP SWAP1 DIV PUSH20 0xFFFFFFFFFFFFFFFFFFFFFFFFFFFFFFFFFFFFFFFF AND PUSH1 0x40 MLOAD PUSH2 0x2CFB SWAP5 SWAP4 SWAP3 SWAP2 SWAP1 PUSH2 0x6E41 JUMP JUMPDEST PUSH1 0x40 MLOAD DUP1 SWAP2 SUB SWAP1 LOG1 POP POP POP POP JUMP JUMPDEST PUSH2 0x181B SLOAD DUP2 JUMP JUMPDEST PUSH1 0x0 DUP1 TIMESTAMP PUSH2 0x1049 PUSH1 0x0 DUP6 DUP2 MSTORE PUSH1 0x20 ADD SWAP1 DUP2 MSTORE PUSH1 0x20 ADD PUSH1 0x0 KECCAK256 PUSH1 0x1 ADD SLOAD GT SWAP1 POP PUSH1 0x0 PUSH20 0xFFFFFFFFFFFFFFFFFFFFFFFFFFFFFFFFFFFFFFFF AND PUSH2 0xC59 PUSH1 0x0 SWAP1 SLOAD SWAP1 PUSH2 0x100 EXP SWAP1 DIV PUSH20 0xFFFFFFFFFFFFFFFFFFFFFFFFFFFFFFFFFFFFFFFF AND PUSH20 0xFFFFFFFFFFFFFFFFFFFFFFFFFFFFFFFFFFFFFFFF AND EQ PUSH2 0x2E7B JUMPI PUSH2 0xC59 PUSH1 0x0 SWAP1 SLOAD SWAP1 PUSH2 0x100 EXP SWAP1 DIV PUSH20 0xFFFFFFFFFFFFFFFFFFFFFFFFFFFFFFFFFFFFFFFF AND PUSH20 0xFFFFFFFFFFFFFFFFFFFFFFFFFFFFFFFFFFFFFFFF AND PUSH4 0x427EDE38 ADDRESS CALLER DUP7 PUSH2 0x1049 PUSH1 0x0 DUP10 DUP2 MSTORE PUSH1 0x20 ADD SWAP1 DUP2 MSTORE PUSH1 0x20 ADD PUSH1 0x0 KECCAK256 PUSH1 0x1 ADD SLOAD PUSH2 0x1044 PUSH1 0x0 DUP11 DUP2 MSTORE PUSH1 0x20 ADD SWAP1 DUP2 MSTORE PUSH1 0x20 ADD PUSH1 0x0 KECCAK256 PUSH1 0x0 SWAP1 SLOAD SWAP1 PUSH2 0x100 EXP SWAP1 DIV PUSH20 0xFFFFFFFFFFFFFFFFFFFFFFFFFFFFFFFFFFFFFFFF AND DUP8 PUSH1 0x40 MLOAD DUP8 PUSH4 0xFFFFFFFF AND PUSH1 0xE0 SHL DUP2 MSTORE PUSH1 0x4 ADD PUSH2 0x2E37 SWAP7 SWAP6 SWAP5 SWAP4 SWAP3 SWAP2 SWAP1 PUSH2 0x6E86 JUMP JUMPDEST PUSH1 0x20 PUSH1 0x40 MLOAD DUP1 DUP4 SUB DUP2 DUP7 GAS STATICCALL ISZERO DUP1 ISZERO PUSH2 0x2E54 JUMPI RETURNDATASIZE PUSH1 0x0 DUP1 RETURNDATACOPY RETURNDATASIZE PUSH1 0x0 REVERT JUMPDEST POP POP POP POP PUSH1 0x40 MLOAD RETURNDATASIZE PUSH1 0x1F NOT PUSH1 0x1F DUP3 ADD AND DUP3 ADD DUP1 PUSH1 0x40 MSTORE POP DUP2 ADD SWAP1 PUSH2 0x2E78 SWAP2 SWAP1 PUSH2 0x6AA6 JUMP JUMPDEST SWAP1 POP JUMPDEST DUP1 SWAP2 POP POP SWAP2 SWAP1 POP JUMP JUMPDEST PUSH1 0x0 PUSH2 0x2EB0 PUSH32 0xB89CDD26CDDD51301940BF2715F765B626B8A5A9E2681AC62DC83CC2DB2530C0 DUP4 PUSH2 0x2A67 JUMP JUMPDEST SWAP1 POP SWAP2 SWAP1 POP JUMP JUMPDEST PUSH2 0x2EC0 DUP3 PUSH2 0x35A4 JUMP JUMPDEST PUSH2 0x2ECA DUP3 CALLER PUSH2 0x4AC5 JUMP JUMPDEST ISZERO DUP1 ISZERO PUSH2 0x2EDD JUMPI POP PUSH2 0x2EDB CALLER PUSH2 0x2E84 JUMP JUMPDEST ISZERO JUMPDEST ISZERO PUSH2 0x2F14 JUMPI PUSH1 0x40 MLOAD PUSH32 0x866C2FA700000000000000000000000000000000000000000000000000000000 DUP2 MSTORE PUSH1 0x4 ADD PUSH1 0x40 MLOAD DUP1 SWAP2 SUB SWAP1 REVERT JUMPDEST PUSH2 0x2F1E DUP3 DUP3 PUSH2 0x4BED JUMP JUMPDEST POP POP JUMP JUMPDEST PUSH2 0xC5F PUSH1 0x0 SWAP1 SLOAD SWAP1 PUSH2 0x100 EXP SWAP1 DIV PUSH20 0xFFFFFFFFFFFFFFFFFFFFFFFFFFFFFFFFFFFFFFFF AND DUP2 JUMP JUMPDEST PUSH2 0x1435 PUSH1 0x20 MSTORE DUP1 PUSH1 0x0 MSTORE PUSH1 0x40 PUSH1 0x0 KECCAK256 PUSH1 0x0 SWAP2 POP SWAP1 POP SLOAD DUP2 JUMP JUMPDEST PUSH2 0xC5E PUSH1 0x0 SWAP1 SLOAD SWAP1 PUSH2 0x100 EXP SWAP1 DIV PUSH20 0xFFFFFFFFFFFFFFFFFFFFFFFFFFFFFFFFFFFFFFFF AND DUP2 JUMP JUMPDEST PUSH1 0x0 PUSH1 0xD SWAP1 POP SWAP1 JUMP JUMPDEST PUSH2 0x2F9A PUSH2 0x38F9 JUMP JUMPDEST PUSH2 0x2FC4 PUSH32 0xB89CDD26CDDD51301940BF2715F765B626B8A5A9E2681AC62DC83CC2DB2530C0 DUP3 PUSH2 0x1470 JUMP JUMPDEST DUP1 PUSH20 0xFFFFFFFFFFFFFFFFFFFFFFFFFFFFFFFFFFFFFFFF AND PUSH32 0x91D5C045D5BD98BF59A379B259EBCA05B93BF79AF1845FDF87E3172385D4C7F7 PUSH1 0x40 MLOAD PUSH1 0x40 MLOAD DUP1 SWAP2 SUB SWAP1 LOG2 POP JUMP JUMPDEST PUSH2 0x3013 DUP2 PUSH2 0x35A4 JUMP JUMPDEST PUSH2 0x301C DUP2 PUSH2 0x35F8 JUMP JUMPDEST PUSH2 0x3025 DUP2 PUSH2 0x363A JUMP JUMPDEST PUSH1 0x0 PUSH2 0x3030 DUP3 PUSH2 0x2AD2 JUMP JUMPDEST SWAP1 POP PUSH2 0x303C DUP3 DUP3 PUSH2 0x4598 JUMP JUMPDEST POP POP JUMP JUMPDEST PUSH1 0x0 PUSH2 0xC5C SLOAD SWAP1 POP SWAP1 JUMP JUMPDEST PUSH2 0x3054 DUP3 PUSH2 0x1328 JUMP JUMPDEST PUSH2 0x305D DUP2 PUSH2 0x395B JUMP JUMPDEST PUSH2 0x3067 DUP4 DUP4 PUSH2 0x4497 JUMP JUMPDEST POP POP POP JUMP JUMPDEST PUSH2 0x3074 PUSH2 0x3A50 JUMP JUMPDEST PUSH2 0x307D DUP5 PUSH2 0x35A4 JUMP JUMPDEST PUSH2 0x3088 DUP5 PUSH1 0x0 PUSH2 0x4792 JUMP JUMPDEST POP PUSH1 0x0 PUSH2 0x30E2 PUSH2 0x3097 DUP7 PUSH2 0x1FAE JUMP JUMPDEST DUP6 DUP6 DUP6 DUP1 DUP1 PUSH1 0x1F ADD PUSH1 0x20 DUP1 SWAP2 DIV MUL PUSH1 0x20 ADD PUSH1 0x40 MLOAD SWAP1 DUP2 ADD PUSH1 0x40 MSTORE DUP1 SWAP4 SWAP3 SWAP2 SWAP1 DUP2 DUP2 MSTORE PUSH1 0x20 ADD DUP4 DUP4 DUP1 DUP3 DUP5 CALLDATACOPY PUSH1 0x0 DUP2 DUP5 ADD MSTORE PUSH1 0x1F NOT PUSH1 0x1F DUP3 ADD AND SWAP1 POP DUP1 DUP4 ADD SWAP3 POP POP POP POP POP POP POP PUSH2 0x11B1 JUMP JUMPDEST SWAP1 POP PUSH1 0x0 PUSH20 0xFFFFFFFFFFFFFFFFFFFFFFFFFFFFFFFFFFFFFFFF AND PUSH2 0x47F PUSH1 0x0 SWAP1 SLOAD SWAP1 PUSH2 0x100 EXP SWAP1 DIV PUSH20 0xFFFFFFFFFFFFFFFFFFFFFFFFFFFFFFFFFFFFFFFF AND PUSH20 0xFFFFFFFFFFFFFFFFFFFFFFFFFFFFFFFFFFFFFFFF AND EQ PUSH2 0x3146 JUMPI PUSH2 0x3145 DUP7 DUP3 PUSH2 0x3D75 JUMP JUMPDEST JUMPDEST PUSH2 0x3150 DUP2 DUP6 PUSH2 0x3DB3 JUMP JUMPDEST PUSH2 0x315A CALLER DUP3 PUSH2 0x3F7A JUMP JUMPDEST PUSH2 0x3164 DUP6 DUP3 PUSH2 0x3C00 JUMP JUMPDEST PUSH2 0x316C PUSH2 0x427E JUMP JUMPDEST PUSH2 0x3175 DUP5 PUSH2 0x4333 JUMP JUMPDEST PUSH2 0x317E DUP2 PUSH2 0x40B9 JUMP JUMPDEST POP POP POP POP POP POP JUMP JUMPDEST PUSH2 0x318E PUSH2 0x38F9 JUMP JUMPDEST PUSH1 0x0 DUP1 PUSH20 0xFFFFFFFFFFFFFFFFFFFFFFFFFFFFFFFFFFFFFFFF AND DUP5 PUSH20 0xFFFFFFFFFFFFFFFFFFFFFFFFFFFFFFFFFFFFFFFF AND SUB PUSH2 0x31CB JUMPI SELFBALANCE SWAP1 POP PUSH2 0x3248 JUMP JUMPDEST DUP4 PUSH20 0xFFFFFFFFFFFFFFFFFFFFFFFFFFFFFFFFFFFFFFFF AND PUSH4 0x70A08231 ADDRESS PUSH1 0x40 MLOAD DUP3 PUSH4 0xFFFFFFFF AND PUSH1 0xE0 SHL DUP2 MSTORE PUSH1 0x4 ADD PUSH2 0x3204 SWAP2 SWAP1 PUSH2 0x5863 JUMP JUMPDEST PUSH1 0x20 PUSH1 0x40 MLOAD DUP1 DUP4 SUB DUP2 DUP7 GAS STATICCALL ISZERO DUP1 ISZERO PUSH2 0x3221 JUMPI RETURNDATASIZE PUSH1 0x0 DUP1 RETURNDATACOPY RETURNDATASIZE PUSH1 0x0 REVERT JUMPDEST POP POP POP POP PUSH1 0x40 MLOAD RETURNDATASIZE PUSH1 0x1F NOT PUSH1 0x1F DUP3 ADD AND DUP3 ADD DUP1 PUSH1 0x40 MSTORE POP DUP2 ADD SWAP1 PUSH2 0x3245 SWAP2 SWAP1 PUSH2 0x664A JUMP JUMPDEST SWAP1 POP JUMPDEST PUSH1 0x0 DUP1 DUP4 EQ DUP1 PUSH2 0x3257 JUMPI POP DUP2 DUP4 GT JUMPDEST ISZERO PUSH2 0x329E JUMPI PUSH1 0x0 DUP3 GT PUSH2 0x3296 JUMPI PUSH1 0x40 MLOAD PUSH32 0x1F04DDC800000000000000000000000000000000000000000000000000000000 DUP2 MSTORE PUSH1 0x4 ADD PUSH1 0x40 MLOAD DUP1 SWAP2 SUB SWAP1 REVERT JUMPDEST DUP2 SWAP1 POP PUSH2 0x32A2 JUMP JUMPDEST DUP3 SWAP1 POP JUMPDEST DUP4 PUSH20 0xFFFFFFFFFFFFFFFFFFFFFFFFFFFFFFFFFFFFFFFF AND DUP6 PUSH20 0xFFFFFFFFFFFFFFFFFFFFFFFFFFFFFFFFFFFFFFFF AND CALLER PUSH20 0xFFFFFFFFFFFFFFFFFFFFFFFFFFFFFFFFFFFFFFFF AND PUSH32 0x342E7FF505A8A0364CD0DC2FF195C315E43BCE86B204846ECD36913E117B109E DUP5 PUSH1 0x40 MLOAD PUSH2 0x3316 SWAP2 SWAP1 PUSH2 0x5AAE JUMP JUMPDEST PUSH1 0x40 MLOAD DUP1 SWAP2 SUB SWAP1 LOG4 PUSH2 0x3329 DUP6 DUP6 DUP4 PUSH2 0x4CF9 JUMP JUMPDEST POP POP POP POP POP JUMP JUMPDEST PUSH2 0x3338 PUSH2 0x38F9 JUMP JUMPDEST DUP1 PUSH2 0x1435 PUSH1 0x0 DUP5 PUSH20 0xFFFFFFFFFFFFFFFFFFFFFFFFFFFFFFFFFFFFFFFF AND PUSH20 0xFFFFFFFFFFFFFFFFFFFFFFFFFFFFFFFFFFFFFFFF AND DUP2 MSTORE PUSH1 0x20 ADD SWAP1 DUP2 MSTORE PUSH1 0x20 ADD PUSH1 0x0 KECCAK256 DUP2 SWAP1 SSTORE POP DUP2 PUSH20 0xFFFFFFFFFFFFFFFFFFFFFFFFFFFFFFFFFFFFFFFF AND PUSH32 0xA027572BB55DE556A0DF93BD38C3871AAF311245C2CD34F0DA045AA33A66DBC5 DUP3 PUSH1 0x40 MLOAD PUSH2 0x33C3 SWAP2 SWAP1 PUSH2 0x5AAE JUMP JUMPDEST PUSH1 0x40 MLOAD DUP1 SWAP2 SUB SWAP1 LOG2 POP POP JUMP JUMPDEST PUSH1 0x0 PUSH2 0x1048 PUSH1 0x0 DUP5 PUSH20 0xFFFFFFFFFFFFFFFFFFFFFFFFFFFFFFFFFFFFFFFF AND PUSH20 0xFFFFFFFFFFFFFFFFFFFFFFFFFFFFFFFFFFFFFFFF AND DUP2 MSTORE PUSH1 0x20 ADD SWAP1 DUP2 MSTORE PUSH1 0x20 ADD PUSH1 0x0 KECCAK256 PUSH1 0x0 DUP4 PUSH20 0xFFFFFFFFFFFFFFFFFFFFFFFFFFFFFFFFFFFFFFFF AND PUSH20 0xFFFFFFFFFFFFFFFFFFFFFFFFFFFFFFFFFFFFFFFF AND DUP2 MSTORE PUSH1 0x20 ADD SWAP1 DUP2 MSTORE PUSH1 0x20 ADD PUSH1 0x0 KECCAK256 PUSH1 0x0 SWAP1 SLOAD SWAP1 PUSH2 0x100 EXP SWAP1 DIV PUSH1 0xFF AND SWAP1 POP SWAP3 SWAP2 POP POP JUMP JUMPDEST PUSH2 0x348E PUSH32 0xB89CDD26CDDD51301940BF2715F765B626B8A5A9E2681AC62DC83CC2DB2530C0 CALLER PUSH2 0x1A98 JUMP JUMPDEST CALLER PUSH20 0xFFFFFFFFFFFFFFFFFFFFFFFFFFFFFFFFFFFFFFFF AND PUSH32 0x42885193B8178D25FCA25A38E6FCC93918501E91BE06D85E0C8AFB3BAD952380 PUSH1 0x40 MLOAD PUSH1 0x40 MLOAD DUP1 SWAP2 SUB SWAP1 LOG2 JUMP JUMPDEST PUSH2 0x34DB PUSH2 0x38F9 JUMP JUMPDEST PUSH2 0x34E3 PUSH2 0x2F89 JUMP JUMPDEST PUSH2 0xFFFF AND PUSH2 0xC5B DUP2 SWAP1 SSTORE POP JUMP JUMPDEST PUSH2 0x34F8 PUSH2 0x38F9 JUMP JUMPDEST DUP1 PUSH2 0x1431 DUP2 SWAP1 SSTORE POP PUSH32 0x4D816C1058DE34C4241BA72C371FB3F2EA05147691B364F04D16BC967AE68A11 DUP2 PUSH1 0x40 MLOAD PUSH2 0x352F SWAP2 SWAP1 PUSH2 0x5AAE JUMP JUMPDEST PUSH1 0x40 MLOAD DUP1 SWAP2 SUB SWAP1 LOG1 POP JUMP JUMPDEST PUSH1 0x0 PUSH32 0x1FFC9A700000000000000000000000000000000000000000000000000000000 PUSH28 0xFFFFFFFFFFFFFFFFFFFFFFFFFFFFFFFFFFFFFFFFFFFFFFFFFFFFFFFF NOT AND DUP3 PUSH28 0xFFFFFFFFFFFFFFFFFFFFFFFFFFFFFFFFFFFFFFFFFFFFFFFFFFFFFFFF NOT AND EQ SWAP1 POP SWAP2 SWAP1 POP JUMP JUMPDEST PUSH1 0x0 PUSH2 0x1049 PUSH1 0x0 DUP4 DUP2 MSTORE PUSH1 0x20 ADD SWAP1 DUP2 MSTORE PUSH1 0x20 ADD PUSH1 0x0 KECCAK256 PUSH1 0x0 ADD SLOAD SUB PUSH2 0x35F5 JUMPI PUSH1 0x40 MLOAD PUSH32 0x78FE247300000000000000000000000000000000000000000000000000000000 DUP2 MSTORE PUSH1 0x4 ADD PUSH1 0x40 MLOAD DUP1 SWAP2 SUB SWAP1 REVERT JUMPDEST POP JUMP JUMPDEST PUSH2 0x3601 DUP2 PUSH2 0x2D10 JUMP JUMPDEST PUSH2 0x3637 JUMPI PUSH1 0x40 MLOAD PUSH32 0xD9F4FAE00000000000000000000000000000000000000000000000000000000 DUP2 MSTORE PUSH1 0x4 ADD PUSH1 0x40 MLOAD DUP1 SWAP2 SUB SWAP1 REVERT JUMPDEST POP JUMP JUMPDEST PUSH1 0x0 DUP1 PUSH20 0xFFFFFFFFFFFFFFFFFFFFFFFFFFFFFFFFFFFFFFFF AND PUSH2 0x1046 PUSH1 0x0 DUP5 DUP2 MSTORE PUSH1 0x20 ADD SWAP1 DUP2 MSTORE PUSH1 0x20 ADD PUSH1 0x0 KECCAK256 PUSH1 0x0 SWAP1 SLOAD SWAP1 PUSH2 0x100 EXP SWAP1 DIV PUSH20 0xFFFFFFFFFFFFFFFFFFFFFFFFFFFFFFFFFFFFFFFF AND PUSH20 0xFFFFFFFFFFFFFFFFFFFFFFFFFFFFFFFFFFFFFFFF AND EQ PUSH2 0x36DD JUMPI PUSH2 0x1046 PUSH1 0x0 DUP4 DUP2 MSTORE PUSH1 0x20 ADD SWAP1 DUP2 MSTORE PUSH1 0x20 ADD PUSH1 0x0 KECCAK256 PUSH1 0x0 SWAP1 SLOAD SWAP1 PUSH2 0x100 EXP SWAP1 DIV PUSH20 0xFFFFFFFFFFFFFFFFFFFFFFFFFFFFFFFFFFFFFFFF AND PUSH2 0x3713 JUMP JUMPDEST PUSH2 0x1044 PUSH1 0x0 DUP4 DUP2 MSTORE PUSH1 0x20 ADD SWAP1 DUP2 MSTORE PUSH1 0x20 ADD PUSH1 0x0 KECCAK256 PUSH1 0x0 SWAP1 SLOAD SWAP1 PUSH2 0x100 EXP SWAP1 DIV PUSH20 0xFFFFFFFFFFFFFFFFFFFFFFFFFFFFFFFFFFFFFFFF AND JUMPDEST SWAP1 POP PUSH2 0x371E CALLER PUSH2 0x2E84 JUMP JUMPDEST ISZERO DUP1 ISZERO PUSH2 0x3732 JUMPI POP PUSH2 0x3730 DUP3 CALLER PUSH2 0x4AC5 JUMP JUMPDEST ISZERO JUMPDEST DUP1 ISZERO PUSH2 0x379E JUMPI POP CALLER PUSH20 0xFFFFFFFFFFFFFFFFFFFFFFFFFFFFFFFFFFFFFFFF AND PUSH2 0x1047 PUSH1 0x0 DUP5 DUP2 MSTORE PUSH1 0x20 ADD SWAP1 DUP2 MSTORE PUSH1 0x20 ADD PUSH1 0x0 KECCAK256 PUSH1 0x0 SWAP1 SLOAD SWAP1 PUSH2 0x100 EXP SWAP1 DIV PUSH20 0xFFFFFFFFFFFFFFFFFFFFFFFFFFFFFFFFFFFFFFFF AND PUSH20 0xFFFFFFFFFFFFFFFFFFFFFFFFFFFFFFFFFFFFFFFF AND EQ ISZERO JUMPDEST DUP1 ISZERO PUSH2 0x37B1 JUMPI POP PUSH2 0x37AF DUP2 CALLER PUSH2 0x33CF JUMP JUMPDEST ISZERO JUMPDEST ISZERO PUSH2 0x37E8 JUMPI PUSH1 0x40 MLOAD PUSH32 0xE17C6D4500000000000000000000000000000000000000000000000000000000 DUP2 MSTORE PUSH1 0x4 ADD PUSH1 0x40 MLOAD DUP1 SWAP2 SUB SWAP1 REVERT JUMPDEST POP POP JUMP JUMPDEST PUSH2 0x37F5 DUP4 PUSH2 0x35A4 JUMP JUMPDEST PUSH1 0x0 PUSH2 0x1049 PUSH1 0x0 DUP6 DUP2 MSTORE PUSH1 0x20 ADD SWAP1 DUP2 MSTORE PUSH1 0x20 ADD PUSH1 0x0 KECCAK256 PUSH1 0x1 ADD SLOAD SWAP1 POP DUP2 ISZERO PUSH2 0x3878 JUMPI TIMESTAMP DUP2 GT ISZERO PUSH2 0x384B JUMPI DUP3 DUP2 PUSH2 0x382B SWAP2 SWAP1 PUSH2 0x66AE JUMP JUMPDEST PUSH2 0x1049 PUSH1 0x0 DUP7 DUP2 MSTORE PUSH1 0x20 ADD SWAP1 DUP2 MSTORE PUSH1 0x20 ADD PUSH1 0x0 KECCAK256 PUSH1 0x1 ADD DUP2 SWAP1 SSTORE POP PUSH2 0x3873 JUMP JUMPDEST DUP3 TIMESTAMP PUSH2 0x3857 SWAP2 SWAP1 PUSH2 0x66AE JUMP JUMPDEST PUSH2 0x1049 PUSH1 0x0 DUP7 DUP2 MSTORE PUSH1 0x20 ADD SWAP1 DUP2 MSTORE PUSH1 0x20 ADD PUSH1 0x0 KECCAK256 PUSH1 0x1 ADD DUP2 SWAP1 SSTORE POP JUMPDEST PUSH2 0x38A0 JUMP JUMPDEST DUP3 DUP2 PUSH2 0x3884 SWAP2 SWAP1 PUSH2 0x6536 JUMP JUMPDEST PUSH2 0x1049 PUSH1 0x0 DUP7 DUP2 MSTORE PUSH1 0x20 ADD SWAP1 DUP2 MSTORE PUSH1 0x20 ADD PUSH1 0x0 KECCAK256 PUSH1 0x1 ADD DUP2 SWAP1 SSTORE POP JUMPDEST DUP4 PUSH32 0x3C907806849E9204E0E26BB095DFE4B3071576C4323F766735C548211556D052 PUSH2 0x1049 PUSH1 0x0 DUP8 DUP2 MSTORE PUSH1 0x20 ADD SWAP1 DUP2 MSTORE PUSH1 0x20 ADD PUSH1 0x0 KECCAK256 PUSH1 0x1 ADD SLOAD DUP6 DUP6 PUSH1 0x40 MLOAD PUSH2 0x38EB SWAP4 SWAP3 SWAP2 SWAP1 PUSH2 0x6EE7 JUMP JUMPDEST PUSH1 0x40 MLOAD DUP1 SWAP2 SUB SWAP1 LOG2 POP POP POP POP JUMP JUMPDEST PUSH2 0x3923 PUSH32 0xB89CDD26CDDD51301940BF2715F765B626B8A5A9E2681AC62DC83CC2DB2530C0 CALLER PUSH2 0x2A67 JUMP JUMPDEST PUSH2 0x3959 JUMPI PUSH1 0x40 MLOAD PUSH32 0x8E1B58C400000000000000000000000000000000000000000000000000000000 DUP2 MSTORE PUSH1 0x4 ADD PUSH1 0x40 MLOAD DUP1 SWAP2 SUB SWAP1 REVERT JUMPDEST JUMP JUMPDEST PUSH2 0x396C DUP2 PUSH2 0x3967 PUSH2 0x448F JUMP JUMPDEST PUSH2 0x4D9C JUMP JUMPDEST POP JUMP JUMPDEST PUSH2 0x3979 DUP3 DUP3 PUSH2 0x2A67 JUMP JUMPDEST PUSH2 0x3A4C JUMPI PUSH1 0x1 PUSH1 0x65 PUSH1 0x0 DUP5 DUP2 MSTORE PUSH1 0x20 ADD SWAP1 DUP2 MSTORE PUSH1 0x20 ADD PUSH1 0x0 KECCAK256 PUSH1 0x0 ADD PUSH1 0x0 DUP4 PUSH20 0xFFFFFFFFFFFFFFFFFFFFFFFFFFFFFFFFFFFFFFFF AND PUSH20 0xFFFFFFFFFFFFFFFFFFFFFFFFFFFFFFFFFFFFFFFF AND DUP2 MSTORE PUSH1 0x20 ADD SWAP1 DUP2 MSTORE PUSH1 0x20 ADD PUSH1 0x0 KECCAK256 PUSH1 0x0 PUSH2 0x100 EXP DUP2 SLOAD DUP2 PUSH1 0xFF MUL NOT AND SWAP1 DUP4 ISZERO ISZERO MUL OR SWAP1 SSTORE POP PUSH2 0x39F1 PUSH2 0x448F JUMP JUMPDEST PUSH20 0xFFFFFFFFFFFFFFFFFFFFFFFFFFFFFFFFFFFFFFFF AND DUP2 PUSH20 0xFFFFFFFFFFFFFFFFFFFFFFFFFFFFFFFFFFFFFFFF AND DUP4 PUSH32 0x2F8788117E7EFF1D82E926EC794901D17C78024A50270940304540A733656F0D PUSH1 0x40 MLOAD PUSH1 0x40 MLOAD DUP1 SWAP2 SUB SWAP1 LOG4 JUMPDEST POP POP JUMP JUMPDEST PUSH2 0x3A58 PUSH2 0x2F89 JUMP JUMPDEST PUSH2 0xFFFF AND PUSH2 0xC5B SLOAD EQ PUSH2 0x3A97 JUMPI PUSH1 0x40 MLOAD PUSH32 0xBAB80EC000000000000000000000000000000000000000000000000000000000 DUP2 MSTORE PUSH1 0x4 ADD PUSH1 0x40 MLOAD DUP1 SWAP2 SUB SWAP1 REVERT JUMPDEST JUMP JUMPDEST PUSH1 0x0 DUP1 PUSH20 0xFFFFFFFFFFFFFFFFFFFFFFFFFFFFFFFFFFFFFFFF AND DUP5 PUSH20 0xFFFFFFFFFFFFFFFFFFFFFFFFFFFFFFFFFFFFFFFF AND SUB PUSH2 0x3B00 JUMPI PUSH1 0x40 MLOAD PUSH32 0x5963709B00000000000000000000000000000000000000000000000000000000 DUP2 MSTORE PUSH1 0x4 ADD PUSH1 0x40 MLOAD DUP1 SWAP2 SUB SWAP1 REVERT JUMPDEST PUSH2 0xC55 PUSH1 0x0 DUP2 SLOAD DUP1 SWAP3 SWAP2 SWAP1 PUSH2 0x3B14 SWAP1 PUSH2 0x6828 JUMP JUMPDEST SWAP2 SWAP1 POP SSTORE POP PUSH2 0xC55 SLOAD SWAP1 POP PUSH1 0x40 MLOAD DUP1 PUSH1 0x40 ADD PUSH1 0x40 MSTORE DUP1 DUP3 DUP2 MSTORE PUSH1 0x20 ADD DUP4 DUP2 MSTORE POP PUSH2 0x1049 PUSH1 0x0 DUP4 DUP2 MSTORE PUSH1 0x20 ADD SWAP1 DUP2 MSTORE PUSH1 0x20 ADD PUSH1 0x0 KECCAK256 PUSH1 0x0 DUP3 ADD MLOAD DUP2 PUSH1 0x0 ADD SSTORE PUSH1 0x20 DUP3 ADD MLOAD DUP2 PUSH1 0x1 ADD SSTORE SWAP1 POP POP PUSH1 0x0 PUSH2 0x3B6A DUP6 PUSH2 0x2807 JUMP JUMPDEST SUB PUSH2 0x3B89 JUMPI PUSH2 0x1045 PUSH1 0x0 DUP2 SLOAD DUP1 SWAP3 SWAP2 SWAP1 PUSH2 0x3B83 SWAP1 PUSH2 0x6828 JUMP JUMPDEST SWAP2 SWAP1 POP SSTORE POP JUMPDEST PUSH2 0x3B93 DUP2 DUP6 PUSH2 0x4E21 JUMP JUMPDEST PUSH2 0x3B9D DUP2 DUP5 PUSH2 0x4BED JUMP JUMPDEST DUP1 DUP5 PUSH20 0xFFFFFFFFFFFFFFFFFFFFFFFFFFFFFFFFFFFFFFFF AND PUSH1 0x0 PUSH20 0xFFFFFFFFFFFFFFFFFFFFFFFFFFFFFFFFFFFFFFFF AND PUSH32 0xDDF252AD1BE2C89B69C2B068FC378DAA952BA7F163C4A11628F55A4DF523B3EF PUSH1 0x40 MLOAD PUSH1 0x40 MLOAD DUP1 SWAP2 SUB SWAP1 LOG4 SWAP4 SWAP3 POP POP POP JUMP JUMPDEST DUP1 PUSH2 0x1432 PUSH1 0x0 DUP5 DUP2 MSTORE PUSH1 0x20 ADD SWAP1 DUP2 MSTORE PUSH1 0x20 ADD PUSH1 0x0 KECCAK256 SLOAD EQ PUSH2 0x3C35 JUMPI DUP1 PUSH2 0x1432 PUSH1 0x0 DUP5 DUP2 MSTORE PUSH1 0x20 ADD SWAP1 DUP2 MSTORE PUSH1 0x20 ADD PUSH1 0x0 KECCAK256 DUP2 SWAP1 SSTORE POP JUMPDEST PUSH2 0xC52 SLOAD PUSH2 0x1433 PUSH1 0x0 DUP5 DUP2 MSTORE PUSH1 0x20 ADD SWAP1 DUP2 MSTORE PUSH1 0x20 ADD PUSH1 0x0 KECCAK256 SLOAD EQ PUSH2 0x3C70 JUMPI PUSH2 0xC52 SLOAD PUSH2 0x1433 PUSH1 0x0 DUP5 DUP2 MSTORE PUSH1 0x20 ADD SWAP1 DUP2 MSTORE PUSH1 0x20 ADD PUSH1 0x0 KECCAK256 DUP2 SWAP1 SSTORE POP JUMPDEST PUSH2 0x47F PUSH1 0x0 SWAP1 SLOAD SWAP1 PUSH2 0x100 EXP SWAP1 DIV PUSH20 0xFFFFFFFFFFFFFFFFFFFFFFFFFFFFFFFFFFFFFFFF AND PUSH20 0xFFFFFFFFFFFFFFFFFFFFFFFFFFFFFFFFFFFFFFFF AND PUSH2 0x1434 PUSH1 0x0 DUP5 DUP2 MSTORE PUSH1 0x20 ADD SWAP1 DUP2 MSTORE PUSH1 0x20 ADD PUSH1 0x0 KECCAK256 PUSH1 0x0 SWAP1 SLOAD SWAP1 PUSH2 0x100 EXP SWAP1 DIV PUSH20 0xFFFFFFFFFFFFFFFFFFFFFFFFFFFFFFFFFFFFFFFF AND PUSH20 0xFFFFFFFFFFFFFFFFFFFFFFFFFFFFFFFFFFFFFFFF AND EQ PUSH2 0x3D71 JUMPI PUSH2 0x47F PUSH1 0x0 SWAP1 SLOAD SWAP1 PUSH2 0x100 EXP SWAP1 DIV PUSH20 0xFFFFFFFFFFFFFFFFFFFFFFFFFFFFFFFFFFFFFFFF AND PUSH2 0x1434 PUSH1 0x0 DUP5 DUP2 MSTORE PUSH1 0x20 ADD SWAP1 DUP2 MSTORE PUSH1 0x20 ADD PUSH1 0x0 KECCAK256 PUSH1 0x0 PUSH2 0x100 EXP DUP2 SLOAD DUP2 PUSH20 0xFFFFFFFFFFFFFFFFFFFFFFFFFFFFFFFFFFFFFFFF MUL NOT AND SWAP1 DUP4 PUSH20 0xFFFFFFFFFFFFFFFFFFFFFFFFFFFFFFFFFFFFFFFF AND MUL OR SWAP1 SSTORE POP JUMPDEST POP POP JUMP JUMPDEST DUP1 DUP3 LT ISZERO PUSH2 0x3DAF JUMPI PUSH1 0x40 MLOAD PUSH32 0xC0017EC400000000000000000000000000000000000000000000000000000000 DUP2 MSTORE PUSH1 0x4 ADD PUSH1 0x40 MLOAD DUP1 SWAP2 SUB SWAP1 REVERT JUMPDEST POP POP JUMP JUMPDEST PUSH1 0x0 PUSH2 0xC51 PUSH1 0x0 SWAP1 SLOAD SWAP1 PUSH2 0x100 EXP SWAP1 DIV PUSH20 0xFFFFFFFFFFFFFFFFFFFFFFFFFFFFFFFFFFFFFFFF AND PUSH20 0xFFFFFFFFFFFFFFFFFFFFFFFFFFFFFFFFFFFFFFFF AND EXTCODESIZE GT ISZERO PUSH2 0x3F04 JUMPI PUSH2 0xC51 PUSH1 0x0 SWAP1 SLOAD SWAP1 PUSH2 0x100 EXP SWAP1 DIV PUSH20 0xFFFFFFFFFFFFFFFFFFFFFFFFFFFFFFFFFFFFFFFF AND PUSH20 0xFFFFFFFFFFFFFFFFFFFFFFFFFFFFFFFFFFFFFFFF AND PUSH4 0x939D9F1F PUSH3 0x493E0 DUP5 DUP5 PUSH1 0x40 MLOAD DUP5 PUSH4 0xFFFFFFFF AND PUSH1 0xE0 SHL DUP2 MSTORE PUSH1 0x4 ADD PUSH2 0x3E58 SWAP3 SWAP2 SWAP1 PUSH2 0x6F1E JUMP JUMPDEST PUSH1 0x0 PUSH1 0x40 MLOAD DUP1 DUP4 SUB DUP2 PUSH1 0x0 DUP9 DUP1 EXTCODESIZE ISZERO DUP1 ISZERO PUSH2 0x3E72 JUMPI PUSH1 0x0 DUP1 REVERT JUMPDEST POP DUP8 CALL SWAP4 POP POP POP POP DUP1 ISZERO PUSH2 0x3E84 JUMPI POP PUSH1 0x1 JUMPDEST PUSH2 0x3EFE JUMPI ADDRESS PUSH20 0xFFFFFFFFFFFFFFFFFFFFFFFFFFFFFFFFFFFFFFFF AND PUSH32 0x6B18946261693DFD6C760D986B28AD2238B5B0267F8E5B6BC40A2F998E2F20AC PUSH2 0xC51 PUSH1 0x0 SWAP1 SLOAD SWAP1 PUSH2 0x100 EXP SWAP1 DIV PUSH20 0xFFFFFFFFFFFFFFFFFFFFFFFFFFFFFFFFFFFFFFFF AND PUSH1 0x40 MLOAD PUSH2 0x3EF1 SWAP2 SWAP1 PUSH2 0x5863 JUMP JUMPDEST PUSH1 0x40 MLOAD DUP1 SWAP2 SUB SWAP1 LOG2 PUSH2 0x3EFF JUMP JUMPDEST JUMPDEST PUSH2 0x3F76 JUMP JUMPDEST ADDRESS PUSH20 0xFFFFFFFFFFFFFFFFFFFFFFFFFFFFFFFFFFFFFFFF AND PUSH32 0x6B18946261693DFD6C760D986B28AD2238B5B0267F8E5B6BC40A2F998E2F20AC PUSH2 0xC51 PUSH1 0x0 SWAP1 SLOAD SWAP1 PUSH2 0x100 EXP SWAP1 DIV PUSH20 0xFFFFFFFFFFFFFFFFFFFFFFFFFFFFFFFFFFFFFFFF AND PUSH1 0x40 MLOAD PUSH2 0x3F6D SWAP2 SWAP1 PUSH2 0x5863 JUMP JUMPDEST PUSH1 0x40 MLOAD DUP1 SWAP2 SUB SWAP1 LOG2 JUMPDEST POP POP JUMP JUMPDEST PUSH1 0x0 PUSH20 0xFFFFFFFFFFFFFFFFFFFFFFFFFFFFFFFFFFFFFFFF AND PUSH2 0x47F PUSH1 0x0 SWAP1 SLOAD SWAP1 PUSH2 0x100 EXP SWAP1 DIV PUSH20 0xFFFFFFFFFFFFFFFFFFFFFFFFFFFFFFFFFFFFFFFF AND PUSH20 0xFFFFFFFFFFFFFFFFFFFFFFFFFFFFFFFFFFFFFFFF AND EQ PUSH2 0x407A JUMPI PUSH2 0x47F PUSH1 0x0 SWAP1 SLOAD SWAP1 PUSH2 0x100 EXP SWAP1 DIV PUSH20 0xFFFFFFFFFFFFFFFFFFFFFFFFFFFFFFFFFFFFFFFF AND PUSH20 0xFFFFFFFFFFFFFFFFFFFFFFFFFFFFFFFFFFFFFFFF AND PUSH4 0x23B872DD DUP4 ADDRESS DUP5 PUSH1 0x40 MLOAD DUP5 PUSH4 0xFFFFFFFF AND PUSH1 0xE0 SHL DUP2 MSTORE PUSH1 0x4 ADD PUSH2 0x4031 SWAP4 SWAP3 SWAP2 SWAP1 PUSH2 0x6F47 JUMP JUMPDEST PUSH1 0x20 PUSH1 0x40 MLOAD DUP1 DUP4 SUB DUP2 PUSH1 0x0 DUP8 GAS CALL ISZERO DUP1 ISZERO PUSH2 0x4050 JUMPI RETURNDATASIZE PUSH1 0x0 DUP1 RETURNDATACOPY RETURNDATASIZE PUSH1 0x0 REVERT JUMPDEST POP POP POP POP PUSH1 0x40 MLOAD RETURNDATASIZE PUSH1 0x1F NOT PUSH1 0x1F DUP3 ADD AND DUP3 ADD DUP1 PUSH1 0x40 MSTORE POP DUP2 ADD SWAP1 PUSH2 0x4074 SWAP2 SWAP1 PUSH2 0x6AA6 JUMP JUMPDEST POP PUSH2 0x40B5 JUMP JUMPDEST DUP1 CALLVALUE LT ISZERO PUSH2 0x40B4 JUMPI PUSH1 0x40 MLOAD PUSH32 0x6C3CDDF000000000000000000000000000000000000000000000000000000000 DUP2 MSTORE PUSH1 0x4 ADD PUSH1 0x40 MLOAD DUP1 SWAP2 SUB SWAP1 REVERT JUMPDEST JUMPDEST POP POP JUMP JUMPDEST PUSH1 0x0 DUP1 PUSH2 0xC51 PUSH1 0x0 SWAP1 SLOAD SWAP1 PUSH2 0x100 EXP SWAP1 DIV PUSH20 0xFFFFFFFFFFFFFFFFFFFFFFFFFFFFFFFFFFFFFFFF AND PUSH20 0xFFFFFFFFFFFFFFFFFFFFFFFFFFFFFFFFFFFFFFFF AND EXTCODESIZE GT ISZERO PUSH2 0x427A JUMPI PUSH2 0xC51 PUSH1 0x0 SWAP1 SLOAD SWAP1 PUSH2 0x100 EXP SWAP1 DIV PUSH20 0xFFFFFFFFFFFFFFFFFFFFFFFFFFFFFFFFFFFFFFFF AND PUSH20 0xFFFFFFFFFFFFFFFFFFFFFFFFFFFFFFFFFFFFFFFF AND PUSH4 0xB0E21E8A PUSH1 0x40 MLOAD DUP2 PUSH4 0xFFFFFFFF AND PUSH1 0xE0 SHL DUP2 MSTORE PUSH1 0x4 ADD PUSH1 0x20 PUSH1 0x40 MLOAD DUP1 DUP4 SUB DUP2 DUP7 GAS STATICCALL SWAP3 POP POP POP DUP1 ISZERO PUSH2 0x4188 JUMPI POP PUSH1 0x40 MLOAD RETURNDATASIZE PUSH1 0x1F NOT PUSH1 0x1F DUP3 ADD AND DUP3 ADD DUP1 PUSH1 0x40 MSTORE POP DUP2 ADD SWAP1 PUSH2 0x4185 SWAP2 SWAP1 PUSH2 0x664A JUMP JUMPDEST PUSH1 0x1 JUMPDEST PUSH2 0x4202 JUMPI ADDRESS PUSH20 0xFFFFFFFFFFFFFFFFFFFFFFFFFFFFFFFFFFFFFFFF AND PUSH32 0x6B18946261693DFD6C760D986B28AD2238B5B0267F8E5B6BC40A2F998E2F20AC PUSH2 0xC51 PUSH1 0x0 SWAP1 SLOAD SWAP1 PUSH2 0x100 EXP SWAP1 DIV PUSH20 0xFFFFFFFFFFFFFFFFFFFFFFFFFFFFFFFFFFFFFFFF AND PUSH1 0x40 MLOAD PUSH2 0x41F5 SWAP2 SWAP1 PUSH2 0x5863 JUMP JUMPDEST PUSH1 0x40 MLOAD DUP1 SWAP2 SUB SWAP1 LOG2 PUSH2 0x4279 JUMP JUMPDEST PUSH2 0x2710 DUP2 DUP5 PUSH2 0x4211 SWAP2 SWAP1 PUSH2 0x693C JUMP JUMPDEST PUSH2 0x421B SWAP2 SWAP1 PUSH2 0x69AD JUMP JUMPDEST SWAP2 POP PUSH1 0x0 DUP3 EQ PUSH2 0x4277 JUMPI PUSH2 0x4276 PUSH2 0x47F PUSH1 0x0 SWAP1 SLOAD SWAP1 PUSH2 0x100 EXP SWAP1 DIV PUSH20 0xFFFFFFFFFFFFFFFFFFFFFFFFFFFFFFFFFFFFFFFF AND PUSH2 0xC51 PUSH1 0x0 SWAP1 SLOAD SWAP1 PUSH2 0x100 EXP SWAP1 DIV PUSH20 0xFFFFFFFFFFFFFFFFFFFFFFFFFFFFFFFFFFFFFFFF AND DUP5 PUSH2 0x4CF9 JUMP JUMPDEST JUMPDEST POP JUMPDEST JUMPDEST POP POP JUMP JUMPDEST PUSH1 0x0 PUSH2 0x1431 SLOAD EQ PUSH2 0x4331 JUMPI PUSH2 0x42BA PUSH2 0x47F PUSH1 0x0 SWAP1 SLOAD SWAP1 PUSH2 0x100 EXP SWAP1 DIV PUSH20 0xFFFFFFFFFFFFFFFFFFFFFFFFFFFFFFFFFFFFFFFF AND CALLER PUSH2 0x1431 SLOAD PUSH2 0x4CF9 JUMP JUMPDEST CALLER PUSH20 0xFFFFFFFFFFFFFFFFFFFFFFFFFFFFFFFFFFFFFFFF AND PUSH32 0x522A883B471164223F18B50F326DA8671372B64B4792EAC0E63D447E714C3E3B PUSH2 0x1431 SLOAD PUSH2 0x47F PUSH1 0x0 SWAP1 SLOAD SWAP1 PUSH2 0x100 EXP SWAP1 DIV PUSH20 0xFFFFFFFFFFFFFFFFFFFFFFFFFFFFFFFFFFFFFFFF AND PUSH1 0x40 MLOAD PUSH2 0x4328 SWAP3 SWAP2 SWAP1 PUSH2 0x6F1E JUMP JUMPDEST PUSH1 0x40 MLOAD DUP1 SWAP2 SUB SWAP1 LOG2 JUMPDEST JUMP JUMPDEST PUSH1 0x0 PUSH20 0xFFFFFFFFFFFFFFFFFFFFFFFFFFFFFFFFFFFFFFFF AND DUP2 PUSH20 0xFFFFFFFFFFFFFFFFFFFFFFFFFFFFFFFFFFFFFFFF AND EQ PUSH2 0x448C JUMPI PUSH1 0x0 PUSH2 0x1435 PUSH1 0x0 DUP1 PUSH20 0xFFFFFFFFFFFFFFFFFFFFFFFFFFFFFFFFFFFFFFFF AND PUSH20 0xFFFFFFFFFFFFFFFFFFFFFFFFFFFFFFFFFFFFFFFF AND DUP2 MSTORE PUSH1 0x20 ADD SWAP1 DUP2 MSTORE PUSH1 0x20 ADD PUSH1 0x0 KECCAK256 SLOAD SWAP1 POP PUSH1 0x0 PUSH2 0x1435 PUSH1 0x0 DUP5 PUSH20 0xFFFFFFFFFFFFFFFFFFFFFFFFFFFFFFFFFFFFFFFF AND PUSH20 0xFFFFFFFFFFFFFFFFFFFFFFFFFFFFFFFFFFFFFFFF AND DUP2 MSTORE PUSH1 0x20 ADD SWAP1 DUP2 MSTORE PUSH1 0x20 ADD PUSH1 0x0 KECCAK256 SLOAD EQ PUSH2 0x4438 JUMPI PUSH2 0x1435 PUSH1 0x0 DUP4 PUSH20 0xFFFFFFFFFFFFFFFFFFFFFFFFFFFFFFFFFFFFFFFF AND PUSH20 0xFFFFFFFFFFFFFFFFFFFFFFFFFFFFFFFFFFFFFFFF AND DUP2 MSTORE PUSH1 0x20 ADD SWAP1 DUP2 MSTORE PUSH1 0x20 ADD PUSH1 0x0 KECCAK256 SLOAD SWAP1 POP JUMPDEST PUSH1 0x0 DUP2 EQ PUSH2 0x448A JUMPI PUSH2 0x4489 PUSH2 0x47F PUSH1 0x0 SWAP1 SLOAD SWAP1 PUSH2 0x100 EXP SWAP1 DIV PUSH20 0xFFFFFFFFFFFFFFFFFFFFFFFFFFFFFFFFFFFFFFFF AND DUP4 PUSH2 0x2710 DUP5 PUSH2 0xC53 SLOAD PUSH2 0x447A SWAP2 SWAP1 PUSH2 0x693C JUMP JUMPDEST PUSH2 0x4484 SWAP2 SWAP1 PUSH2 0x69AD JUMP JUMPDEST PUSH2 0x4CF9 JUMP JUMPDEST JUMPDEST POP JUMPDEST POP JUMP JUMPDEST PUSH1 0x0 CALLER SWAP1 POP SWAP1 JUMP JUMPDEST PUSH2 0x44A1 DUP3 DUP3 PUSH2 0x2A67 JUMP JUMPDEST ISZERO PUSH2 0x4575 JUMPI PUSH1 0x0 PUSH1 0x65 PUSH1 0x0 DUP5 DUP2 MSTORE PUSH1 0x20 ADD SWAP1 DUP2 MSTORE PUSH1 0x20 ADD PUSH1 0x0 KECCAK256 PUSH1 0x0 ADD PUSH1 0x0 DUP4 PUSH20 0xFFFFFFFFFFFFFFFFFFFFFFFFFFFFFFFFFFFFFFFF AND PUSH20 0xFFFFFFFFFFFFFFFFFFFFFFFFFFFFFFFFFFFFFFFF AND DUP2 MSTORE PUSH1 0x20 ADD SWAP1 DUP2 MSTORE PUSH1 0x20 ADD PUSH1 0x0 KECCAK256 PUSH1 0x0 PUSH2 0x100 EXP DUP2 SLOAD DUP2 PUSH1 0xFF MUL NOT AND SWAP1 DUP4 ISZERO ISZERO MUL OR SWAP1 SSTORE POP PUSH2 0x451A PUSH2 0x448F JUMP JUMPDEST PUSH20 0xFFFFFFFFFFFFFFFFFFFFFFFFFFFFFFFFFFFFFFFF AND DUP2 PUSH20 0xFFFFFFFFFFFFFFFFFFFFFFFFFFFFFFFFFFFFFFFF AND DUP4 PUSH32 0xF6391F5C32D9C69D2A47EA670B442974B53935D1EDC7FD64EB21E047A839171B PUSH1 0x40 MLOAD PUSH1 0x40 MLOAD DUP1 SWAP2 SUB SWAP1 LOG4 JUMPDEST POP POP JUMP JUMPDEST TIMESTAMP PUSH2 0x1049 PUSH1 0x0 DUP4 DUP2 MSTORE PUSH1 0x20 ADD SWAP1 DUP2 MSTORE PUSH1 0x20 ADD PUSH1 0x0 KECCAK256 PUSH1 0x1 ADD DUP2 SWAP1 SSTORE POP POP JUMP JUMPDEST PUSH1 0x0 PUSH2 0x45A3 DUP4 PUSH2 0x1FAE JUMP JUMPDEST SWAP1 POP PUSH2 0x45AE DUP4 PUSH2 0x4579 JUMP JUMPDEST CALLER PUSH20 0xFFFFFFFFFFFFFFFFFFFFFFFFFFFFFFFFFFFFFFFF AND DUP2 PUSH20 0xFFFFFFFFFFFFFFFFFFFFFFFFFFFFFFFFFFFFFFFF AND DUP5 PUSH32 0xA7068A9989857441C039A14A42B67ED71DD1FCFE5A9B17CC87B252E47BCE528 DUP6 PUSH1 0x40 MLOAD PUSH2 0x460C SWAP2 SWAP1 PUSH2 0x5AAE JUMP JUMPDEST PUSH1 0x40 MLOAD DUP1 SWAP2 SUB SWAP1 LOG4 PUSH1 0x0 DUP3 GT ISZERO PUSH2 0x464C JUMPI PUSH2 0x464B PUSH2 0x47F PUSH1 0x0 SWAP1 SLOAD SWAP1 PUSH2 0x100 EXP SWAP1 DIV PUSH20 0xFFFFFFFFFFFFFFFFFFFFFFFFFFFFFFFFFFFFFFFF AND DUP3 DUP5 PUSH2 0x4CF9 JUMP JUMPDEST JUMPDEST PUSH1 0x0 PUSH2 0x1433 PUSH1 0x0 DUP6 DUP2 MSTORE PUSH1 0x20 ADD SWAP1 DUP2 MSTORE PUSH1 0x20 ADD PUSH1 0x0 KECCAK256 DUP2 SWAP1 SSTORE POP PUSH1 0x0 PUSH2 0x1432 PUSH1 0x0 DUP6 DUP2 MSTORE PUSH1 0x20 ADD SWAP1 DUP2 MSTORE PUSH1 0x20 ADD PUSH1 0x0 KECCAK256 DUP2 SWAP1 SSTORE POP PUSH1 0x0 PUSH20 0xFFFFFFFFFFFFFFFFFFFFFFFFFFFFFFFFFFFFFFFF AND PUSH2 0xC58 PUSH1 0x0 SWAP1 SLOAD SWAP1 PUSH2 0x100 EXP SWAP1 DIV PUSH20 0xFFFFFFFFFFFFFFFFFFFFFFFFFFFFFFFFFFFFFFFF AND PUSH20 0xFFFFFFFFFFFFFFFFFFFFFFFFFFFFFFFFFFFFFFFF AND EQ PUSH2 0x476A JUMPI PUSH2 0xC58 PUSH1 0x0 SWAP1 SLOAD SWAP1 PUSH2 0x100 EXP SWAP1 DIV PUSH20 0xFFFFFFFFFFFFFFFFFFFFFFFFFFFFFFFFFFFFFFFF AND PUSH20 0xFFFFFFFFFFFFFFFFFFFFFFFFFFFFFFFFFFFFFFFF AND PUSH4 0xB499B6C5 CALLER DUP4 DUP6 PUSH1 0x40 MLOAD DUP5 PUSH4 0xFFFFFFFF AND PUSH1 0xE0 SHL DUP2 MSTORE PUSH1 0x4 ADD PUSH2 0x4737 SWAP4 SWAP3 SWAP2 SWAP1 PUSH2 0x6F9F JUMP JUMPDEST PUSH1 0x0 PUSH1 0x40 MLOAD DUP1 DUP4 SUB DUP2 PUSH1 0x0 DUP8 DUP1 EXTCODESIZE ISZERO DUP1 ISZERO PUSH2 0x4751 JUMPI PUSH1 0x0 DUP1 REVERT JUMPDEST POP GAS CALL ISZERO DUP1 ISZERO PUSH2 0x4765 JUMPI RETURNDATASIZE PUSH1 0x0 DUP1 RETURNDATACOPY RETURNDATASIZE PUSH1 0x0 REVERT JUMPDEST POP POP POP POP JUMPDEST POP POP POP JUMP JUMPDEST PUSH1 0x0 DUP1 DUP3 PUSH20 0xFFFFFFFFFFFFFFFFFFFFFFFFFFFFFFFFFFFFFFFF AND EXTCODESIZE GT SWAP1 POP SWAP2 SWAP1 POP JUMP JUMPDEST PUSH1 0x0 DUP1 PUSH2 0x1049 PUSH1 0x0 DUP6 DUP2 MSTORE PUSH1 0x20 ADD SWAP1 DUP2 MSTORE PUSH1 0x20 ADD PUSH1 0x0 KECCAK256 PUSH1 0x1 ADD SLOAD SWAP1 POP PUSH32 0xFFFFFFFFFFFFFFFFFFFFFFFFFFFFFFFFFFFFFFFFFFFFFFFFFFFFFFFFFFFFFFFF DUP2 SUB PUSH2 0x4808 JUMPI PUSH1 0x40 MLOAD PUSH32 0x1FDA338200000000000000000000000000000000000000000000000000000000 DUP2 MSTORE PUSH1 0x4 ADD PUSH1 0x40 MLOAD DUP1 SWAP2 SUB SWAP1 REVERT JUMPDEST PUSH1 0x0 DUP1 DUP5 EQ PUSH2 0x4817 JUMPI DUP4 PUSH2 0x481C JUMP JUMPDEST PUSH2 0xC52 SLOAD JUMPDEST SWAP1 POP PUSH32 0xFFFFFFFFFFFFFFFFFFFFFFFFFFFFFFFFFFFFFFFFFFFFFFFFFFFFFFFFFFFFFFFF DUP2 SUB PUSH2 0x486D JUMPI PUSH32 0xFFFFFFFFFFFFFFFFFFFFFFFFFFFFFFFFFFFFFFFFFFFFFFFFFFFFFFFFFFFFFFFF SWAP3 POP PUSH2 0x4898 JUMP JUMPDEST TIMESTAMP DUP3 GT ISZERO PUSH2 0x4888 JUMPI DUP1 DUP3 PUSH2 0x4881 SWAP2 SWAP1 PUSH2 0x66AE JUMP JUMPDEST SWAP3 POP PUSH2 0x4897 JUMP JUMPDEST DUP1 TIMESTAMP PUSH2 0x4894 SWAP2 SWAP1 PUSH2 0x66AE JUMP JUMPDEST SWAP3 POP JUMPDEST JUMPDEST DUP3 PUSH2 0x1049 PUSH1 0x0 DUP8 DUP2 MSTORE PUSH1 0x20 ADD SWAP1 DUP2 MSTORE PUSH1 0x20 ADD PUSH1 0x0 KECCAK256 PUSH1 0x1 ADD DUP2 SWAP1 SSTORE POP DUP5 PUSH32 0x3CA112768FF7861E008ACE1C11570C52E404C043E585545B5957A1E20961DDE3 DUP5 PUSH1 0x40 MLOAD PUSH2 0x48E4 SWAP2 SWAP1 PUSH2 0x5AAE JUMP JUMPDEST PUSH1 0x40 MLOAD DUP1 SWAP2 SUB SWAP1 LOG2 PUSH1 0x0 PUSH20 0xFFFFFFFFFFFFFFFFFFFFFFFFFFFFFFFFFFFFFFFF AND PUSH2 0xC5E PUSH1 0x0 SWAP1 SLOAD SWAP1 PUSH2 0x100 EXP SWAP1 DIV PUSH20 0xFFFFFFFFFFFFFFFFFFFFFFFFFFFFFFFFFFFFFFFF AND PUSH20 0xFFFFFFFFFFFFFFFFFFFFFFFFFFFFFFFFFFFFFFFF AND EQ PUSH2 0x49D8 JUMPI PUSH2 0xC5E PUSH1 0x0 SWAP1 SLOAD SWAP1 PUSH2 0x100 EXP SWAP1 DIV PUSH20 0xFFFFFFFFFFFFFFFFFFFFFFFFFFFFFFFFFFFFFFFF AND PUSH20 0xFFFFFFFFFFFFFFFFFFFFFFFFFFFFFFFFFFFFFFFF AND PUSH4 0x16B9680 DUP7 CALLER DUP7 DUP7 PUSH1 0x40 MLOAD DUP6 PUSH4 0xFFFFFFFF AND PUSH1 0xE0 SHL DUP2 MSTORE PUSH1 0x4 ADD PUSH2 0x49A5 SWAP5 SWAP4 SWAP3 SWAP2 SWAP1 PUSH2 0x6FD6 JUMP JUMPDEST PUSH1 0x0 PUSH1 0x40 MLOAD DUP1 DUP4 SUB DUP2 PUSH1 0x0 DUP8 DUP1 EXTCODESIZE ISZERO DUP1 ISZERO PUSH2 0x49BF JUMPI PUSH1 0x0 DUP1 REVERT JUMPDEST POP GAS CALL ISZERO DUP1 ISZERO PUSH2 0x49D3 JUMPI RETURNDATASIZE PUSH1 0x0 DUP1 RETURNDATACOPY RETURNDATASIZE PUSH1 0x0 REVERT JUMPDEST POP POP POP POP JUMPDEST POP POP SWAP3 SWAP2 POP POP JUMP JUMPDEST PUSH1 0x0 PUSH20 0xFFFFFFFFFFFFFFFFFFFFFFFFFFFFFFFFFFFFFFFF AND DUP2 PUSH20 0xFFFFFFFFFFFFFFFFFFFFFFFFFFFFFFFFFFFFFFFF AND EQ ISZERO DUP1 ISZERO PUSH2 0x4A8B JUMPI POP PUSH1 0x0 DUP2 PUSH20 0xFFFFFFFFFFFFFFFFFFFFFFFFFFFFFFFFFFFFFFFF AND PUSH4 0x18160DDD PUSH1 0x40 MLOAD DUP2 PUSH4 0xFFFFFFFF AND PUSH1 0xE0 SHL DUP2 MSTORE PUSH1 0x4 ADD PUSH1 0x20 PUSH1 0x40 MLOAD DUP1 DUP4 SUB DUP2 DUP7 GAS STATICCALL ISZERO DUP1 ISZERO PUSH2 0x4A65 JUMPI RETURNDATASIZE PUSH1 0x0 DUP1 RETURNDATACOPY RETURNDATASIZE PUSH1 0x0 REVERT JUMPDEST POP POP POP POP PUSH1 0x40 MLOAD RETURNDATASIZE PUSH1 0x1F NOT PUSH1 0x1F DUP3 ADD AND DUP3 ADD DUP1 PUSH1 0x40 MSTORE POP DUP2 ADD SWAP1 PUSH2 0x4A89 SWAP2 SWAP1 PUSH2 0x664A JUMP JUMPDEST LT JUMPDEST ISZERO PUSH2 0x4AC2 JUMPI PUSH1 0x40 MLOAD PUSH32 0xD0995CF200000000000000000000000000000000000000000000000000000000 DUP2 MSTORE PUSH1 0x4 ADD PUSH1 0x40 MLOAD DUP1 SWAP2 SUB SWAP1 REVERT JUMPDEST POP JUMP JUMPDEST PUSH1 0x0 DUP2 PUSH20 0xFFFFFFFFFFFFFFFFFFFFFFFFFFFFFFFFFFFFFFFF AND PUSH2 0x1046 PUSH1 0x0 DUP6 DUP2 MSTORE PUSH1 0x20 ADD SWAP1 DUP2 MSTORE PUSH1 0x20 ADD PUSH1 0x0 KECCAK256 PUSH1 0x0 SWAP1 SLOAD SWAP1 PUSH2 0x100 EXP SWAP1 DIV PUSH20 0xFFFFFFFFFFFFFFFFFFFFFFFFFFFFFFFFFFFFFFFF AND PUSH20 0xFFFFFFFFFFFFFFFFFFFFFFFFFFFFFFFFFFFFFFFF AND EQ DUP1 PUSH2 0x4BD4 JUMPI POP DUP2 PUSH20 0xFFFFFFFFFFFFFFFFFFFFFFFFFFFFFFFFFFFFFFFF AND PUSH2 0x4B50 DUP5 PUSH2 0x1FAE JUMP JUMPDEST PUSH20 0xFFFFFFFFFFFFFFFFFFFFFFFFFFFFFFFFFFFFFFFF AND EQ DUP1 ISZERO PUSH2 0x4BD3 JUMPI POP PUSH1 0x0 PUSH20 0xFFFFFFFFFFFFFFFFFFFFFFFFFFFFFFFFFFFFFFFF AND PUSH2 0x1046 PUSH1 0x0 DUP6 DUP2 MSTORE PUSH1 0x20 ADD SWAP1 DUP2 MSTORE PUSH1 0x20 ADD PUSH1 0x0 KECCAK256 PUSH1 0x0 SWAP1 SLOAD SWAP1 PUSH2 0x100 EXP SWAP1 DIV PUSH20 0xFFFFFFFFFFFFFFFFFFFFFFFFFFFFFFFFFFFFFFFF AND PUSH20 0xFFFFFFFFFFFFFFFFFFFFFFFFFFFFFFFFFFFFFFFF AND EQ JUMPDEST JUMPDEST ISZERO PUSH2 0x4BE2 JUMPI PUSH1 0x1 SWAP1 POP PUSH2 0x4BE7 JUMP JUMPDEST PUSH1 0x0 SWAP1 POP JUMPDEST SWAP3 SWAP2 POP POP JUMP JUMPDEST DUP1 PUSH20 0xFFFFFFFFFFFFFFFFFFFFFFFFFFFFFFFFFFFFFFFF AND PUSH2 0x1046 PUSH1 0x0 DUP5 DUP2 MSTORE PUSH1 0x20 ADD SWAP1 DUP2 MSTORE PUSH1 0x20 ADD PUSH1 0x0 KECCAK256 PUSH1 0x0 SWAP1 SLOAD SWAP1 PUSH2 0x100 EXP SWAP1 DIV PUSH20 0xFFFFFFFFFFFFFFFFFFFFFFFFFFFFFFFFFFFFFFFF AND PUSH20 0xFFFFFFFFFFFFFFFFFFFFFFFFFFFFFFFFFFFFFFFF AND EQ PUSH2 0x4CF5 JUMPI DUP1 PUSH2 0x1046 PUSH1 0x0 DUP5 DUP2 MSTORE PUSH1 0x20 ADD SWAP1 DUP2 MSTORE PUSH1 0x20 ADD PUSH1 0x0 KECCAK256 PUSH1 0x0 PUSH2 0x100 EXP DUP2 SLOAD DUP2 PUSH20 0xFFFFFFFFFFFFFFFFFFFFFFFFFFFFFFFFFFFFFFFF MUL NOT AND SWAP1 DUP4 PUSH20 0xFFFFFFFFFFFFFFFFFFFFFFFFFFFFFFFFFFFFFFFF AND MUL OR SWAP1 SSTORE POP PUSH2 0x4CB0 DUP3 PUSH2 0x4F89 JUMP JUMPDEST DUP1 PUSH20 0xFFFFFFFFFFFFFFFFFFFFFFFFFFFFFFFFFFFFFFFF AND DUP3 PUSH32 0x9D2895C45A420624DE863A2F437B022D879F457BF7A829044055A10C5A6FD5E3 PUSH1 0x40 MLOAD PUSH1 0x40 MLOAD DUP1 SWAP2 SUB SWAP1 LOG3 JUMPDEST POP POP JUMP JUMPDEST PUSH1 0x0 DUP2 GT ISZERO PUSH2 0x4D97 JUMPI PUSH1 0x0 PUSH20 0xFFFFFFFFFFFFFFFFFFFFFFFFFFFFFFFFFFFFFFFF AND DUP4 PUSH20 0xFFFFFFFFFFFFFFFFFFFFFFFFFFFFFFFFFFFFFFFF AND SUB PUSH2 0x4D64 JUMPI PUSH2 0x4D5F DUP2 DUP4 PUSH20 0xFFFFFFFFFFFFFFFFFFFFFFFFFFFFFFFFFFFFFFFF AND PUSH2 0x5049 SWAP1 SWAP2 SWAP1 PUSH4 0xFFFFFFFF AND JUMP JUMPDEST PUSH2 0x4D96 JUMP JUMPDEST PUSH1 0x0 DUP4 SWAP1 POP PUSH2 0x4D94 DUP4 DUP4 DUP4 PUSH20 0xFFFFFFFFFFFFFFFFFFFFFFFFFFFFFFFFFFFFFFFF AND PUSH2 0x513D SWAP1 SWAP3 SWAP2 SWAP1 PUSH4 0xFFFFFFFF AND JUMP JUMPDEST POP JUMPDEST JUMPDEST POP POP POP JUMP JUMPDEST PUSH2 0x4DA6 DUP3 DUP3 PUSH2 0x2A67 JUMP JUMPDEST PUSH2 0x4E1D JUMPI PUSH2 0x4DB3 DUP2 PUSH2 0x51C3 JUMP JUMPDEST PUSH2 0x4DC1 DUP4 PUSH1 0x0 SHR PUSH1 0x20 PUSH2 0x51F0 JUMP JUMPDEST PUSH1 0x40 MLOAD PUSH1 0x20 ADD PUSH2 0x4DD2 SWAP3 SWAP2 SWAP1 PUSH2 0x70FA JUMP JUMPDEST PUSH1 0x40 MLOAD PUSH1 0x20 DUP2 DUP4 SUB SUB DUP2 MSTORE SWAP1 PUSH1 0x40 MSTORE PUSH1 0x40 MLOAD PUSH32 0x8C379A000000000000000000000000000000000000000000000000000000000 DUP2 MSTORE PUSH1 0x4 ADD PUSH2 0x4E14 SWAP2 SWAP1 PUSH2 0x716D JUMP JUMPDEST PUSH1 0x40 MLOAD DUP1 SWAP2 SUB SWAP1 REVERT JUMPDEST POP POP JUMP JUMPDEST PUSH1 0x0 PUSH2 0x4E2C DUP3 PUSH2 0x2807 JUMP JUMPDEST SWAP1 POP PUSH2 0xC5C SLOAD DUP2 LT PUSH2 0x4E6A JUMPI PUSH1 0x40 MLOAD PUSH32 0x17ED864600000000000000000000000000000000000000000000000000000000 DUP2 MSTORE PUSH1 0x4 ADD PUSH1 0x40 MLOAD DUP1 SWAP2 SUB SWAP1 REVERT JUMPDEST DUP1 PUSH2 0x104B PUSH1 0x0 DUP6 DUP2 MSTORE PUSH1 0x20 ADD SWAP1 DUP2 MSTORE PUSH1 0x20 ADD PUSH1 0x0 KECCAK256 DUP2 SWAP1 SSTORE POP DUP3 PUSH2 0x104A PUSH1 0x0 DUP5 PUSH20 0xFFFFFFFFFFFFFFFFFFFFFFFFFFFFFFFFFFFFFFFF AND PUSH20 0xFFFFFFFFFFFFFFFFFFFFFFFFFFFFFFFFFFFFFFFF AND DUP2 MSTORE PUSH1 0x20 ADD SWAP1 DUP2 MSTORE PUSH1 0x20 ADD PUSH1 0x0 KECCAK256 PUSH1 0x0 DUP4 DUP2 MSTORE PUSH1 0x20 ADD SWAP1 DUP2 MSTORE PUSH1 0x20 ADD PUSH1 0x0 KECCAK256 DUP2 SWAP1 SSTORE POP DUP2 PUSH2 0x1044 PUSH1 0x0 DUP6 DUP2 MSTORE PUSH1 0x20 ADD SWAP1 DUP2 MSTORE PUSH1 0x20 ADD PUSH1 0x0 KECCAK256 PUSH1 0x0 PUSH2 0x100 EXP DUP2 SLOAD DUP2 PUSH20 0xFFFFFFFFFFFFFFFFFFFFFFFFFFFFFFFFFFFFFFFF MUL NOT AND SWAP1 DUP4 PUSH20 0xFFFFFFFFFFFFFFFFFFFFFFFFFFFFFFFFFFFFFFFF AND MUL OR SWAP1 SSTORE POP PUSH1 0x1 PUSH2 0x104C PUSH1 0x0 DUP5 PUSH20 0xFFFFFFFFFFFFFFFFFFFFFFFFFFFFFFFFFFFFFFFF AND PUSH20 0xFFFFFFFFFFFFFFFFFFFFFFFFFFFFFFFFFFFFFFFF AND DUP2 MSTORE PUSH1 0x20 ADD SWAP1 DUP2 MSTORE PUSH1 0x20 ADD PUSH1 0x0 KECCAK256 PUSH1 0x0 DUP3 DUP3 SLOAD PUSH2 0x4F7D SWAP2 SWAP1 PUSH2 0x66AE JUMP JUMPDEST SWAP3 POP POP DUP2 SWAP1 SSTORE POP POP POP POP JUMP JUMPDEST PUSH1 0x0 PUSH20 0xFFFFFFFFFFFFFFFFFFFFFFFFFFFFFFFFFFFFFFFF AND PUSH2 0x1047 PUSH1 0x0 DUP4 DUP2 MSTORE PUSH1 0x20 ADD SWAP1 DUP2 MSTORE PUSH1 0x20 ADD PUSH1 0x0 KECCAK256 PUSH1 0x0 SWAP1 SLOAD SWAP1 PUSH2 0x100 EXP SWAP1 DIV PUSH20 0xFFFFFFFFFFFFFFFFFFFFFFFFFFFFFFFFFFFFFFFF AND PUSH20 0xFFFFFFFFFFFFFFFFFFFFFFFFFFFFFFFFFFFFFFFF AND EQ PUSH2 0x5046 JUMPI PUSH1 0x0 PUSH2 0x1047 PUSH1 0x0 DUP4 DUP2 MSTORE PUSH1 0x20 ADD SWAP1 DUP2 MSTORE PUSH1 0x20 ADD PUSH1 0x0 KECCAK256 PUSH1 0x0 PUSH2 0x100 EXP DUP2 SLOAD DUP2 PUSH20 0xFFFFFFFFFFFFFFFFFFFFFFFFFFFFFFFFFFFFFFFF MUL NOT AND SWAP1 DUP4 PUSH20 0xFFFFFFFFFFFFFFFFFFFFFFFFFFFFFFFFFFFFFFFF AND MUL OR SWAP1 SSTORE POP JUMPDEST POP JUMP JUMPDEST DUP1 SELFBALANCE LT ISZERO PUSH2 0x508C JUMPI PUSH1 0x40 MLOAD PUSH32 0x8C379A000000000000000000000000000000000000000000000000000000000 DUP2 MSTORE PUSH1 0x4 ADD PUSH2 0x5083 SWAP1 PUSH2 0x71DB JUMP JUMPDEST PUSH1 0x40 MLOAD DUP1 SWAP2 SUB SWAP1 REVERT JUMPDEST PUSH1 0x0 DUP3 PUSH20 0xFFFFFFFFFFFFFFFFFFFFFFFFFFFFFFFFFFFFFFFF AND DUP3 PUSH1 0x40 MLOAD PUSH2 0x50B2 SWAP1 PUSH2 0x722C JUMP JUMPDEST PUSH1 0x0 PUSH1 0x40 MLOAD DUP1 DUP4 SUB DUP2 DUP6 DUP8 GAS CALL SWAP3 POP POP POP RETURNDATASIZE DUP1 PUSH1 0x0 DUP2 EQ PUSH2 0x50EF JUMPI PUSH1 0x40 MLOAD SWAP2 POP PUSH1 0x1F NOT PUSH1 0x3F RETURNDATASIZE ADD AND DUP3 ADD PUSH1 0x40 MSTORE RETURNDATASIZE DUP3 MSTORE RETURNDATASIZE PUSH1 0x0 PUSH1 0x20 DUP5 ADD RETURNDATACOPY PUSH2 0x50F4 JUMP JUMPDEST PUSH1 0x60 SWAP2 POP JUMPDEST POP POP SWAP1 POP DUP1 PUSH2 0x5138 JUMPI PUSH1 0x40 MLOAD PUSH32 0x8C379A000000000000000000000000000000000000000000000000000000000 DUP2 MSTORE PUSH1 0x4 ADD PUSH2 0x512F SWAP1 PUSH2 0x72B3 JUMP JUMPDEST PUSH1 0x40 MLOAD DUP1 SWAP2 SUB SWAP1 REVERT JUMPDEST POP POP POP JUMP JUMPDEST PUSH2 0x51BE DUP4 PUSH4 0xA9059CBB PUSH1 0xE0 SHL DUP5 DUP5 PUSH1 0x40 MLOAD PUSH1 0x24 ADD PUSH2 0x515C SWAP3 SWAP2 SWAP1 PUSH2 0x72D3 JUMP JUMPDEST PUSH1 0x40 MLOAD PUSH1 0x20 DUP2 DUP4 SUB SUB DUP2 MSTORE SWAP1 PUSH1 0x40 MSTORE SWAP1 PUSH28 0xFFFFFFFFFFFFFFFFFFFFFFFFFFFFFFFFFFFFFFFFFFFFFFFFFFFFFFFF NOT AND PUSH1 0x20 DUP3 ADD DUP1 MLOAD PUSH28 0xFFFFFFFFFFFFFFFFFFFFFFFFFFFFFFFFFFFFFFFFFFFFFFFFFFFFFFFF DUP4 DUP2 DUP4 AND OR DUP4 MSTORE POP POP POP POP PUSH2 0x542C JUMP JUMPDEST POP POP POP JUMP JUMPDEST PUSH1 0x60 PUSH2 0x51E9 DUP3 PUSH20 0xFFFFFFFFFFFFFFFFFFFFFFFFFFFFFFFFFFFFFFFF AND PUSH1 0x14 PUSH1 0xFF AND PUSH2 0x51F0 JUMP JUMPDEST SWAP1 POP SWAP2 SWAP1 POP JUMP JUMPDEST PUSH1 0x60 PUSH1 0x0 PUSH1 0x2 DUP4 PUSH1 0x2 PUSH2 0x5203 SWAP2 SWAP1 PUSH2 0x693C JUMP JUMPDEST PUSH2 0x520D SWAP2 SWAP1 PUSH2 0x66AE JUMP JUMPDEST PUSH8 0xFFFFFFFFFFFFFFFF DUP2 GT ISZERO PUSH2 0x5226 JUMPI PUSH2 0x5225 PUSH2 0x5905 JUMP JUMPDEST JUMPDEST PUSH1 0x40 MLOAD SWAP1 DUP1 DUP3 MSTORE DUP1 PUSH1 0x1F ADD PUSH1 0x1F NOT AND PUSH1 0x20 ADD DUP3 ADD PUSH1 0x40 MSTORE DUP1 ISZERO PUSH2 0x5258 JUMPI DUP2 PUSH1 0x20 ADD PUSH1 0x1 DUP3 MUL DUP1 CALLDATASIZE DUP4 CALLDATACOPY DUP1 DUP3 ADD SWAP2 POP POP SWAP1 POP JUMPDEST POP SWAP1 POP PUSH32 0x3000000000000000000000000000000000000000000000000000000000000000 DUP2 PUSH1 0x0 DUP2 MLOAD DUP2 LT PUSH2 0x5290 JUMPI PUSH2 0x528F PUSH2 0x66E2 JUMP JUMPDEST JUMPDEST PUSH1 0x20 ADD ADD SWAP1 PUSH31 0xFFFFFFFFFFFFFFFFFFFFFFFFFFFFFFFFFFFFFFFFFFFFFFFFFFFFFFFFFFFFFF NOT AND SWAP1 DUP2 PUSH1 0x0 BYTE SWAP1 MSTORE8 POP PUSH32 0x7800000000000000000000000000000000000000000000000000000000000000 DUP2 PUSH1 0x1 DUP2 MLOAD DUP2 LT PUSH2 0x52F4 JUMPI PUSH2 0x52F3 PUSH2 0x66E2 JUMP JUMPDEST JUMPDEST PUSH1 0x20 ADD ADD SWAP1 PUSH31 0xFFFFFFFFFFFFFFFFFFFFFFFFFFFFFFFFFFFFFFFFFFFFFFFFFFFFFFFFFFFFFF NOT AND SWAP1 DUP2 PUSH1 0x0 BYTE SWAP1 MSTORE8 POP PUSH1 0x0 PUSH1 0x1 DUP5 PUSH1 0x2 PUSH2 0x5334 SWAP2 SWAP1 PUSH2 0x693C JUMP JUMPDEST PUSH2 0x533E SWAP2 SWAP1 PUSH2 0x66AE JUMP JUMPDEST SWAP1 POP JUMPDEST PUSH1 0x1 DUP2 GT ISZERO PUSH2 0x53DE JUMPI PUSH32 0x3031323334353637383961626364656600000000000000000000000000000000 PUSH1 0xF DUP7 AND PUSH1 0x10 DUP2 LT PUSH2 0x5380 JUMPI PUSH2 0x537F PUSH2 0x66E2 JUMP JUMPDEST JUMPDEST BYTE PUSH1 0xF8 SHL DUP3 DUP3 DUP2 MLOAD DUP2 LT PUSH2 0x5397 JUMPI PUSH2 0x5396 PUSH2 0x66E2 JUMP JUMPDEST JUMPDEST PUSH1 0x20 ADD ADD SWAP1 PUSH31 0xFFFFFFFFFFFFFFFFFFFFFFFFFFFFFFFFFFFFFFFFFFFFFFFFFFFFFFFFFFFFFF NOT AND SWAP1 DUP2 PUSH1 0x0 BYTE SWAP1 MSTORE8 POP PUSH1 0x4 DUP6 SWAP1 SHR SWAP5 POP DUP1 PUSH2 0x53D7 SWAP1 PUSH2 0x72FC JUMP JUMPDEST SWAP1 POP PUSH2 0x5341 JUMP JUMPDEST POP PUSH1 0x0 DUP5 EQ PUSH2 0x5422 JUMPI PUSH1 0x40 MLOAD PUSH32 0x8C379A000000000000000000000000000000000000000000000000000000000 DUP2 MSTORE PUSH1 0x4 ADD PUSH2 0x5419 SWAP1 PUSH2 0x7371 JUMP JUMPDEST PUSH1 0x40 MLOAD DUP1 SWAP2 SUB SWAP1 REVERT JUMPDEST DUP1 SWAP2 POP POP SWAP3 SWAP2 POP POP JUMP JUMPDEST PUSH1 0x0 PUSH2 0x548E DUP3 PUSH1 0x40 MLOAD DUP1 PUSH1 0x40 ADD PUSH1 0x40 MSTORE DUP1 PUSH1 0x20 DUP2 MSTORE PUSH1 0x20 ADD PUSH32 0x5361666545524332303A206C6F772D6C6576656C2063616C6C206661696C6564 DUP2 MSTORE POP DUP6 PUSH20 0xFFFFFFFFFFFFFFFFFFFFFFFFFFFFFFFFFFFFFFFF AND PUSH2 0x54F3 SWAP1 SWAP3 SWAP2 SWAP1 PUSH4 0xFFFFFFFF AND JUMP JUMPDEST SWAP1 POP PUSH1 0x0 DUP2 MLOAD GT ISZERO PUSH2 0x54EE JUMPI DUP1 DUP1 PUSH1 0x20 ADD SWAP1 MLOAD DUP2 ADD SWAP1 PUSH2 0x54AE SWAP2 SWAP1 PUSH2 0x6AA6 JUMP JUMPDEST PUSH2 0x54ED JUMPI PUSH1 0x40 MLOAD PUSH32 0x8C379A000000000000000000000000000000000000000000000000000000000 DUP2 MSTORE PUSH1 0x4 ADD PUSH2 0x54E4 SWAP1 PUSH2 0x7403 JUMP JUMPDEST PUSH1 0x40 MLOAD DUP1 SWAP2 SUB SWAP1 REVERT JUMPDEST JUMPDEST POP POP POP JUMP JUMPDEST PUSH1 0x60 PUSH2 0x5502 DUP5 DUP5 PUSH1 0x0 DUP6 PUSH2 0x550B JUMP JUMPDEST SWAP1 POP SWAP4 SWAP3 POP POP POP JUMP JUMPDEST PUSH1 0x60 DUP3 SELFBALANCE LT ISZERO PUSH2 0x5550 JUMPI PUSH1 0x40 MLOAD PUSH32 0x8C379A000000000000000000000000000000000000000000000000000000000 DUP2 MSTORE PUSH1 0x4 ADD PUSH2 0x5547 SWAP1 PUSH2 0x7495 JUMP JUMPDEST PUSH1 0x40 MLOAD DUP1 SWAP2 SUB SWAP1 REVERT JUMPDEST PUSH1 0x0 DUP1 DUP7 PUSH20 0xFFFFFFFFFFFFFFFFFFFFFFFFFFFFFFFFFFFFFFFF AND DUP6 DUP8 PUSH1 0x40 MLOAD PUSH2 0x5579 SWAP2 SWAP1 PUSH2 0x74E6 JUMP JUMPDEST PUSH1 0x0 PUSH1 0x40 MLOAD DUP1 DUP4 SUB DUP2 DUP6 DUP8 GAS CALL SWAP3 POP POP POP RETURNDATASIZE DUP1 PUSH1 0x0 DUP2 EQ PUSH2 0x55B6 JUMPI PUSH1 0x40 MLOAD SWAP2 POP PUSH1 0x1F NOT PUSH1 0x3F RETURNDATASIZE ADD AND DUP3 ADD PUSH1 0x40 MSTORE RETURNDATASIZE DUP3 MSTORE RETURNDATASIZE PUSH1 0x0 PUSH1 0x20 DUP5 ADD RETURNDATACOPY PUSH2 0x55BB JUMP JUMPDEST PUSH1 0x60 SWAP2 POP JUMPDEST POP SWAP2 POP SWAP2 POP PUSH2 0x55CC DUP8 DUP4 DUP4 DUP8 PUSH2 0x55D8 JUMP JUMPDEST SWAP3 POP POP POP SWAP5 SWAP4 POP POP POP POP JUMP JUMPDEST PUSH1 0x60 DUP4 ISZERO PUSH2 0x563A JUMPI PUSH1 0x0 DUP4 MLOAD SUB PUSH2 0x5632 JUMPI PUSH2 0x55F2 DUP6 PUSH2 0x476F JUMP JUMPDEST PUSH2 0x5631 JUMPI PUSH1 0x40 MLOAD PUSH32 0x8C379A000000000000000000000000000000000000000000000000000000000 DUP2 MSTORE PUSH1 0x4 ADD PUSH2 0x5628 SWAP1 PUSH2 0x7549 JUMP JUMPDEST PUSH1 0x40 MLOAD DUP1 SWAP2 SUB SWAP1 REVERT JUMPDEST JUMPDEST DUP3 SWAP1 POP PUSH2 0x5645 JUMP JUMPDEST PUSH2 0x5644 DUP4 DUP4 PUSH2 0x564D JUMP JUMPDEST JUMPDEST SWAP5 SWAP4 POP POP POP POP JUMP JUMPDEST PUSH1 0x0 DUP3 MLOAD GT ISZERO PUSH2 0x5660 JUMPI DUP2 MLOAD DUP1 DUP4 PUSH1 0x20 ADD REVERT JUMPDEST DUP1 PUSH1 0x40 MLOAD PUSH32 0x8C379A000000000000000000000000000000000000000000000000000000000 DUP2 MSTORE PUSH1 0x4 ADD PUSH2 0x5694 SWAP2 SWAP1 PUSH2 0x716D JUMP JUMPDEST PUSH1 0x40 MLOAD DUP1 SWAP2 SUB SWAP1 REVERT JUMPDEST PUSH1 0x0 PUSH1 0x40 MLOAD SWAP1 POP SWAP1 JUMP JUMPDEST PUSH1 0x0 DUP1 REVERT JUMPDEST PUSH1 0x0 DUP1 REVERT JUMPDEST PUSH1 0x0 PUSH32 0xFFFFFFFF00000000000000000000000000000000000000000000000000000000 DUP3 AND SWAP1 POP SWAP2 SWAP1 POP JUMP JUMPDEST PUSH2 0x56E6 DUP2 PUSH2 0x56B1 JUMP JUMPDEST DUP2 EQ PUSH2 0x56F1 JUMPI PUSH1 0x0 DUP1 REVERT JUMPDEST POP JUMP JUMPDEST PUSH1 0x0 DUP2 CALLDATALOAD SWAP1 POP PUSH2 0x5703 DUP2 PUSH2 0x56DD JUMP JUMPDEST SWAP3 SWAP2 POP POP JUMP JUMPDEST PUSH1 0x0 PUSH1 0x20 DUP3 DUP5 SUB SLT ISZERO PUSH2 0x571F JUMPI PUSH2 0x571E PUSH2 0x56A7 JUMP JUMPDEST JUMPDEST PUSH1 0x0 PUSH2 0x572D DUP5 DUP3 DUP6 ADD PUSH2 0x56F4 JUMP JUMPDEST SWAP2 POP POP SWAP3 SWAP2 POP POP JUMP JUMPDEST PUSH1 0x0 DUP2 ISZERO ISZERO SWAP1 POP SWAP2 SWAP1 POP JUMP JUMPDEST PUSH2 0x574B DUP2 PUSH2 0x5736 JUMP JUMPDEST DUP3 MSTORE POP POP JUMP JUMPDEST PUSH1 0x0 PUSH1 0x20 DUP3 ADD SWAP1 POP PUSH2 0x5766 PUSH1 0x0 DUP4 ADD DUP5 PUSH2 0x5742 JUMP JUMPDEST SWAP3 SWAP2 POP POP JUMP JUMPDEST PUSH1 0x0 DUP2 SWAP1 POP SWAP2 SWAP1 POP JUMP JUMPDEST PUSH2 0x577F DUP2 PUSH2 0x576C JUMP JUMPDEST DUP2 EQ PUSH2 0x578A JUMPI PUSH1 0x0 DUP1 REVERT JUMPDEST POP JUMP JUMPDEST PUSH1 0x0 DUP2 CALLDATALOAD SWAP1 POP PUSH2 0x579C DUP2 PUSH2 0x5776 JUMP JUMPDEST SWAP3 SWAP2 POP POP JUMP JUMPDEST PUSH1 0x0 DUP1 PUSH1 0x0 PUSH1 0x60 DUP5 DUP7 SUB SLT ISZERO PUSH2 0x57BB JUMPI PUSH2 0x57BA PUSH2 0x56A7 JUMP JUMPDEST JUMPDEST PUSH1 0x0 PUSH2 0x57C9 DUP7 DUP3 DUP8 ADD PUSH2 0x578D JUMP JUMPDEST SWAP4 POP POP PUSH1 0x20 PUSH2 0x57DA DUP7 DUP3 DUP8 ADD PUSH2 0x578D JUMP JUMPDEST SWAP3 POP POP PUSH1 0x40 PUSH2 0x57EB DUP7 DUP3 DUP8 ADD PUSH2 0x578D JUMP JUMPDEST SWAP2 POP POP SWAP3 POP SWAP3 POP SWAP3 JUMP JUMPDEST PUSH1 0x0 PUSH1 0x20 DUP3 DUP5 SUB SLT ISZERO PUSH2 0x580B JUMPI PUSH2 0x580A PUSH2 0x56A7 JUMP JUMPDEST JUMPDEST PUSH1 0x0 PUSH2 0x5819 DUP5 DUP3 DUP6 ADD PUSH2 0x578D JUMP JUMPDEST SWAP2 POP POP SWAP3 SWAP2 POP POP JUMP JUMPDEST PUSH1 0x0 PUSH20 0xFFFFFFFFFFFFFFFFFFFFFFFFFFFFFFFFFFFFFFFF DUP3 AND SWAP1 POP SWAP2 SWAP1 POP JUMP JUMPDEST PUSH1 0x0 PUSH2 0x584D DUP3 PUSH2 0x5822 JUMP JUMPDEST SWAP1 POP SWAP2 SWAP1 POP JUMP JUMPDEST PUSH2 0x585D DUP2 PUSH2 0x5842 JUMP JUMPDEST DUP3 MSTORE POP POP JUMP JUMPDEST PUSH1 0x0 PUSH1 0x20 DUP3 ADD SWAP1 POP PUSH2 0x5878 PUSH1 0x0 DUP4 ADD DUP5 PUSH2 0x5854 JUMP JUMPDEST SWAP3 SWAP2 POP POP JUMP JUMPDEST PUSH2 0x5887 DUP2 PUSH2 0x5842 JUMP JUMPDEST DUP2 EQ PUSH2 0x5892 JUMPI PUSH1 0x0 DUP1 REVERT JUMPDEST POP JUMP JUMPDEST PUSH1 0x0 DUP2 CALLDATALOAD SWAP1 POP PUSH2 0x58A4 DUP2 PUSH2 0x587E JUMP JUMPDEST SWAP3 SWAP2 POP POP JUMP JUMPDEST PUSH1 0x0 DUP1 PUSH1 0x40 DUP4 DUP6 SUB SLT ISZERO PUSH2 0x58C1 JUMPI PUSH2 0x58C0 PUSH2 0x56A7 JUMP JUMPDEST JUMPDEST PUSH1 0x0 PUSH2 0x58CF DUP6 DUP3 DUP7 ADD PUSH2 0x5895 JUMP JUMPDEST SWAP3 POP POP PUSH1 0x20 PUSH2 0x58E0 DUP6 DUP3 DUP7 ADD PUSH2 0x578D JUMP JUMPDEST SWAP2 POP POP SWAP3 POP SWAP3 SWAP1 POP JUMP JUMPDEST PUSH1 0x0 DUP1 REVERT JUMPDEST PUSH1 0x0 DUP1 REVERT JUMPDEST PUSH1 0x0 PUSH1 0x1F NOT PUSH1 0x1F DUP4 ADD AND SWAP1 POP SWAP2 SWAP1 POP JUMP JUMPDEST PUSH32 0x4E487B7100000000000000000000000000000000000000000000000000000000 PUSH1 0x0 MSTORE PUSH1 0x41 PUSH1 0x4 MSTORE PUSH1 0x24 PUSH1 0x0 REVERT JUMPDEST PUSH2 0x593D DUP3 PUSH2 0x58F4 JUMP JUMPDEST DUP2 ADD DUP2 DUP2 LT PUSH8 0xFFFFFFFFFFFFFFFF DUP3 GT OR ISZERO PUSH2 0x595C JUMPI PUSH2 0x595B PUSH2 0x5905 JUMP JUMPDEST JUMPDEST DUP1 PUSH1 0x40 MSTORE POP POP POP JUMP JUMPDEST PUSH1 0x0 PUSH2 0x596F PUSH2 0x569D JUMP JUMPDEST SWAP1 POP PUSH2 0x597B DUP3 DUP3 PUSH2 0x5934 JUMP JUMPDEST SWAP2 SWAP1 POP JUMP JUMPDEST PUSH1 0x0 PUSH8 0xFFFFFFFFFFFFFFFF DUP3 GT ISZERO PUSH2 0x599B JUMPI PUSH2 0x599A PUSH2 0x5905 JUMP JUMPDEST JUMPDEST PUSH2 0x59A4 DUP3 PUSH2 0x58F4 JUMP JUMPDEST SWAP1 POP PUSH1 0x20 DUP2 ADD SWAP1 POP SWAP2 SWAP1 POP JUMP JUMPDEST DUP3 DUP2 DUP4 CALLDATACOPY PUSH1 0x0 DUP4 DUP4 ADD MSTORE POP POP POP JUMP JUMPDEST PUSH1 0x0 PUSH2 0x59D3 PUSH2 0x59CE DUP5 PUSH2 0x5980 JUMP JUMPDEST PUSH2 0x5965 JUMP JUMPDEST SWAP1 POP DUP3 DUP2 MSTORE PUSH1 0x20 DUP2 ADD DUP5 DUP5 DUP5 ADD GT ISZERO PUSH2 0x59EF JUMPI PUSH2 0x59EE PUSH2 0x58EF JUMP JUMPDEST JUMPDEST PUSH2 0x59FA DUP5 DUP3 DUP6 PUSH2 0x59B1 JUMP JUMPDEST POP SWAP4 SWAP3 POP POP POP JUMP JUMPDEST PUSH1 0x0 DUP3 PUSH1 0x1F DUP4 ADD SLT PUSH2 0x5A17 JUMPI PUSH2 0x5A16 PUSH2 0x58EA JUMP JUMPDEST JUMPDEST DUP2 CALLDATALOAD PUSH2 0x5A27 DUP5 DUP3 PUSH1 0x20 DUP7 ADD PUSH2 0x59C0 JUMP JUMPDEST SWAP2 POP POP SWAP3 SWAP2 POP POP JUMP JUMPDEST PUSH1 0x0 DUP1 PUSH1 0x0 PUSH1 0x60 DUP5 DUP7 SUB SLT ISZERO PUSH2 0x5A49 JUMPI PUSH2 0x5A48 PUSH2 0x56A7 JUMP JUMPDEST JUMPDEST PUSH1 0x0 PUSH2 0x5A57 DUP7 DUP3 DUP8 ADD PUSH2 0x5895 JUMP JUMPDEST SWAP4 POP POP PUSH1 0x20 PUSH2 0x5A68 DUP7 DUP3 DUP8 ADD PUSH2 0x5895 JUMP JUMPDEST SWAP3 POP POP PUSH1 0x40 DUP5 ADD CALLDATALOAD PUSH8 0xFFFFFFFFFFFFFFFF DUP2 GT ISZERO PUSH2 0x5A89 JUMPI PUSH2 0x5A88 PUSH2 0x56AC JUMP JUMPDEST JUMPDEST PUSH2 0x5A95 DUP7 DUP3 DUP8 ADD PUSH2 0x5A02 JUMP JUMPDEST SWAP2 POP POP SWAP3 POP SWAP3 POP SWAP3 JUMP JUMPDEST PUSH2 0x5AA8 DUP2 PUSH2 0x576C JUMP JUMPDEST DUP3 MSTORE POP POP JUMP JUMPDEST PUSH1 0x0 PUSH1 0x20 DUP3 ADD SWAP1 POP PUSH2 0x5AC3 PUSH1 0x0 DUP4 ADD DUP5 PUSH2 0x5A9F JUMP JUMPDEST SWAP3 SWAP2 POP POP JUMP JUMPDEST PUSH1 0x0 DUP2 SWAP1 POP SWAP2 SWAP1 POP JUMP JUMPDEST PUSH1 0x0 PUSH2 0x5AEE PUSH2 0x5AE9 PUSH2 0x5AE4 DUP5 PUSH2 0x5822 JUMP JUMPDEST PUSH2 0x5AC9 JUMP JUMPDEST PUSH2 0x5822 JUMP JUMPDEST SWAP1 POP SWAP2 SWAP1 POP JUMP JUMPDEST PUSH1 0x0 PUSH2 0x5B00 DUP3 PUSH2 0x5AD3 JUMP JUMPDEST SWAP1 POP SWAP2 SWAP1 POP JUMP JUMPDEST PUSH1 0x0 PUSH2 0x5B12 DUP3 PUSH2 0x5AF5 JUMP JUMPDEST SWAP1 POP SWAP2 SWAP1 POP JUMP JUMPDEST PUSH2 0x5B22 DUP2 PUSH2 0x5B07 JUMP JUMPDEST DUP3 MSTORE POP POP JUMP JUMPDEST PUSH1 0x0 PUSH1 0x20 DUP3 ADD SWAP1 POP PUSH2 0x5B3D PUSH1 0x0 DUP4 ADD DUP5 PUSH2 0x5B19 JUMP JUMPDEST SWAP3 SWAP2 POP POP JUMP JUMPDEST PUSH1 0x0 PUSH2 0x5B4E DUP3 PUSH2 0x5AF5 JUMP JUMPDEST SWAP1 POP SWAP2 SWAP1 POP JUMP JUMPDEST PUSH2 0x5B5E DUP2 PUSH2 0x5B43 JUMP JUMPDEST DUP3 MSTORE POP POP JUMP JUMPDEST PUSH1 0x0 PUSH1 0x20 DUP3 ADD SWAP1 POP PUSH2 0x5B79 PUSH1 0x0 DUP4 ADD DUP5 PUSH2 0x5B55 JUMP JUMPDEST SWAP3 SWAP2 POP POP JUMP JUMPDEST PUSH1 0x0 DUP2 SWAP1 POP SWAP2 SWAP1 POP JUMP JUMPDEST PUSH2 0x5B92 DUP2 PUSH2 0x5B7F JUMP JUMPDEST DUP2 EQ PUSH2 0x5B9D JUMPI PUSH1 0x0 DUP1 REVERT JUMPDEST POP JUMP JUMPDEST PUSH1 0x0 DUP2 CALLDATALOAD SWAP1 POP PUSH2 0x5BAF DUP2 PUSH2 0x5B89 JUMP JUMPDEST SWAP3 SWAP2 POP POP JUMP JUMPDEST PUSH1 0x0 PUSH1 0x20 DUP3 DUP5 SUB SLT ISZERO PUSH2 0x5BCB JUMPI PUSH2 0x5BCA PUSH2 0x56A7 JUMP JUMPDEST JUMPDEST PUSH1 0x0 PUSH2 0x5BD9 DUP5 DUP3 DUP6 ADD PUSH2 0x5BA0 JUMP JUMPDEST SWAP2 POP POP SWAP3 SWAP2 POP POP JUMP JUMPDEST PUSH2 0x5BEB DUP2 PUSH2 0x5B7F JUMP JUMPDEST DUP3 MSTORE POP POP JUMP JUMPDEST PUSH1 0x0 PUSH1 0x20 DUP3 ADD SWAP1 POP PUSH2 0x5C06 PUSH1 0x0 DUP4 ADD DUP5 PUSH2 0x5BE2 JUMP JUMPDEST SWAP3 SWAP2 POP POP JUMP JUMPDEST PUSH1 0x0 PUSH2 0x5C17 DUP3 PUSH2 0x5AF5 JUMP JUMPDEST SWAP1 POP SWAP2 SWAP1 POP JUMP JUMPDEST PUSH2 0x5C27 DUP2 PUSH2 0x5C0C JUMP JUMPDEST DUP3 MSTORE POP POP JUMP JUMPDEST PUSH1 0x0 PUSH1 0x20 DUP3 ADD SWAP1 POP PUSH2 0x5C42 PUSH1 0x0 DUP4 ADD DUP5 PUSH2 0x5C1E JUMP JUMPDEST SWAP3 SWAP2 POP POP JUMP JUMPDEST PUSH1 0x0 PUSH2 0x5C53 DUP3 PUSH2 0x5AF5 JUMP JUMPDEST SWAP1 POP SWAP2 SWAP1 POP JUMP JUMPDEST PUSH2 0x5C63 DUP2 PUSH2 0x5C48 JUMP JUMPDEST DUP3 MSTORE POP POP JUMP JUMPDEST PUSH1 0x0 PUSH1 0x20 DUP3 ADD SWAP1 POP PUSH2 0x5C7E PUSH1 0x0 DUP4 ADD DUP5 PUSH2 0x5C5A JUMP JUMPDEST SWAP3 SWAP2 POP POP JUMP JUMPDEST PUSH1 0x0 DUP1 PUSH1 0x40 DUP4 DUP6 SUB SLT ISZERO PUSH2 0x5C9B JUMPI PUSH2 0x5C9A PUSH2 0x56A7 JUMP JUMPDEST JUMPDEST PUSH1 0x0 PUSH2 0x5CA9 DUP6 DUP3 DUP7 ADD PUSH2 0x5BA0 JUMP JUMPDEST SWAP3 POP POP PUSH1 0x20 PUSH2 0x5CBA DUP6 DUP3 DUP7 ADD PUSH2 0x5895 JUMP JUMPDEST SWAP2 POP POP SWAP3 POP SWAP3 SWAP1 POP JUMP JUMPDEST PUSH1 0x0 PUSH8 0xFFFFFFFFFFFFFFFF DUP3 GT ISZERO PUSH2 0x5CDF JUMPI PUSH2 0x5CDE PUSH2 0x5905 JUMP JUMPDEST JUMPDEST PUSH1 0x20 DUP3 MUL SWAP1 POP PUSH1 0x20 DUP2 ADD SWAP1 POP SWAP2 SWAP1 POP JUMP JUMPDEST PUSH1 0x0 DUP1 REVERT JUMPDEST PUSH1 0x0 PUSH2 0x5D08 PUSH2 0x5D03 DUP5 PUSH2 0x5CC4 JUMP JUMPDEST PUSH2 0x5965 JUMP JUMPDEST SWAP1 POP DUP1 DUP4 DUP3 MSTORE PUSH1 0x20 DUP3 ADD SWAP1 POP PUSH1 0x20 DUP5 MUL DUP4 ADD DUP6 DUP2 GT ISZERO PUSH2 0x5D2B JUMPI PUSH2 0x5D2A PUSH2 0x5CF0 JUMP JUMPDEST JUMPDEST DUP4 JUMPDEST DUP2 DUP2 LT ISZERO PUSH2 0x5D54 JUMPI DUP1 PUSH2 0x5D40 DUP9 DUP3 PUSH2 0x578D JUMP JUMPDEST DUP5 MSTORE PUSH1 0x20 DUP5 ADD SWAP4 POP POP PUSH1 0x20 DUP2 ADD SWAP1 POP PUSH2 0x5D2D JUMP JUMPDEST POP POP POP SWAP4 SWAP3 POP POP POP JUMP JUMPDEST PUSH1 0x0 DUP3 PUSH1 0x1F DUP4 ADD SLT PUSH2 0x5D73 JUMPI PUSH2 0x5D72 PUSH2 0x58EA JUMP JUMPDEST JUMPDEST DUP2 CALLDATALOAD PUSH2 0x5D83 DUP5 DUP3 PUSH1 0x20 DUP7 ADD PUSH2 0x5CF5 JUMP JUMPDEST SWAP2 POP POP SWAP3 SWAP2 POP POP JUMP JUMPDEST PUSH1 0x0 PUSH8 0xFFFFFFFFFFFFFFFF DUP3 GT ISZERO PUSH2 0x5DA7 JUMPI PUSH2 0x5DA6 PUSH2 0x5905 JUMP JUMPDEST JUMPDEST PUSH1 0x20 DUP3 MUL SWAP1 POP PUSH1 0x20 DUP2 ADD SWAP1 POP SWAP2 SWAP1 POP JUMP JUMPDEST PUSH1 0x0 PUSH2 0x5DCB PUSH2 0x5DC6 DUP5 PUSH2 0x5D8C JUMP JUMPDEST PUSH2 0x5965 JUMP JUMPDEST SWAP1 POP DUP1 DUP4 DUP3 MSTORE PUSH1 0x20 DUP3 ADD SWAP1 POP PUSH1 0x20 DUP5 MUL DUP4 ADD DUP6 DUP2 GT ISZERO PUSH2 0x5DEE JUMPI PUSH2 0x5DED PUSH2 0x5CF0 JUMP JUMPDEST JUMPDEST DUP4 JUMPDEST DUP2 DUP2 LT ISZERO PUSH2 0x5E17 JUMPI DUP1 PUSH2 0x5E03 DUP9 DUP3 PUSH2 0x5895 JUMP JUMPDEST DUP5 MSTORE PUSH1 0x20 DUP5 ADD SWAP4 POP POP PUSH1 0x20 DUP2 ADD SWAP1 POP PUSH2 0x5DF0 JUMP JUMPDEST POP POP POP SWAP4 SWAP3 POP POP POP JUMP JUMPDEST PUSH1 0x0 DUP3 PUSH1 0x1F DUP4 ADD SLT PUSH2 0x5E36 JUMPI PUSH2 0x5E35 PUSH2 0x58EA JUMP JUMPDEST JUMPDEST DUP2 CALLDATALOAD PUSH2 0x5E46 DUP5 DUP3 PUSH1 0x20 DUP7 ADD PUSH2 0x5DB8 JUMP JUMPDEST SWAP2 POP POP SWAP3 SWAP2 POP POP JUMP JUMPDEST PUSH1 0x0 DUP1 REVERT JUMPDEST PUSH1 0x0 DUP1 DUP4 PUSH1 0x1F DUP5 ADD SLT PUSH2 0x5E6A JUMPI PUSH2 0x5E69 PUSH2 0x58EA JUMP JUMPDEST JUMPDEST DUP3 CALLDATALOAD SWAP1 POP PUSH8 0xFFFFFFFFFFFFFFFF DUP2 GT ISZERO PUSH2 0x5E87 JUMPI PUSH2 0x5E86 PUSH2 0x5E4F JUMP JUMPDEST JUMPDEST PUSH1 0x20 DUP4 ADD SWAP2 POP DUP4 PUSH1 0x20 DUP3 MUL DUP4 ADD GT ISZERO PUSH2 0x5EA3 JUMPI PUSH2 0x5EA2 PUSH2 0x5CF0 JUMP JUMPDEST JUMPDEST SWAP3 POP SWAP3 SWAP1 POP JUMP JUMPDEST PUSH1 0x0 DUP1 PUSH1 0x0 DUP1 PUSH1 0x0 DUP1 PUSH1 0xA0 DUP8 DUP10 SUB SLT ISZERO PUSH2 0x5EC7 JUMPI PUSH2 0x5EC6 PUSH2 0x56A7 JUMP JUMPDEST JUMPDEST PUSH1 0x0 DUP8 ADD CALLDATALOAD PUSH8 0xFFFFFFFFFFFFFFFF DUP2 GT ISZERO PUSH2 0x5EE5 JUMPI PUSH2 0x5EE4 PUSH2 0x56AC JUMP JUMPDEST JUMPDEST PUSH2 0x5EF1 DUP10 DUP3 DUP11 ADD PUSH2 0x5D5E JUMP JUMPDEST SWAP7 POP POP PUSH1 0x20 DUP8 ADD CALLDATALOAD PUSH8 0xFFFFFFFFFFFFFFFF DUP2 GT ISZERO PUSH2 0x5F12 JUMPI PUSH2 0x5F11 PUSH2 0x56AC JUMP JUMPDEST JUMPDEST PUSH2 0x5F1E DUP10 DUP3 DUP11 ADD PUSH2 0x5E21 JUMP JUMPDEST SWAP6 POP POP PUSH1 0x40 DUP8 ADD CALLDATALOAD PUSH8 0xFFFFFFFFFFFFFFFF DUP2 GT ISZERO PUSH2 0x5F3F JUMPI PUSH2 0x5F3E PUSH2 0x56AC JUMP JUMPDEST JUMPDEST PUSH2 0x5F4B DUP10 DUP3 DUP11 ADD PUSH2 0x5E21 JUMP JUMPDEST SWAP5 POP POP PUSH1 0x60 DUP8 ADD CALLDATALOAD PUSH8 0xFFFFFFFFFFFFFFFF DUP2 GT ISZERO PUSH2 0x5F6C JUMPI PUSH2 0x5F6B PUSH2 0x56AC JUMP JUMPDEST JUMPDEST PUSH2 0x5F78 DUP10 DUP3 DUP11 ADD PUSH2 0x5E21 JUMP JUMPDEST SWAP4 POP POP PUSH1 0x80 DUP8 ADD CALLDATALOAD PUSH8 0xFFFFFFFFFFFFFFFF DUP2 GT ISZERO PUSH2 0x5F99 JUMPI PUSH2 0x5F98 PUSH2 0x56AC JUMP JUMPDEST JUMPDEST PUSH2 0x5FA5 DUP10 DUP3 DUP11 ADD PUSH2 0x5E54 JUMP JUMPDEST SWAP3 POP SWAP3 POP POP SWAP3 SWAP6 POP SWAP3 SWAP6 POP SWAP3 SWAP6 JUMP JUMPDEST PUSH1 0x0 DUP2 MLOAD SWAP1 POP SWAP2 SWAP1 POP JUMP JUMPDEST PUSH1 0x0 DUP3 DUP3 MSTORE PUSH1 0x20 DUP3 ADD SWAP1 POP SWAP3 SWAP2 POP POP JUMP JUMPDEST PUSH1 0x0 DUP2 SWAP1 POP PUSH1 0x20 DUP3 ADD SWAP1 POP SWAP2 SWAP1 POP JUMP JUMPDEST PUSH2 0x5FE9 DUP2 PUSH2 0x576C JUMP JUMPDEST DUP3 MSTORE POP POP JUMP JUMPDEST PUSH1 0x0 PUSH2 0x5FFB DUP4 DUP4 PUSH2 0x5FE0 JUMP JUMPDEST PUSH1 0x20 DUP4 ADD SWAP1 POP SWAP3 SWAP2 POP POP JUMP JUMPDEST PUSH1 0x0 PUSH1 0x20 DUP3 ADD SWAP1 POP SWAP2 SWAP1 POP JUMP JUMPDEST PUSH1 0x0 PUSH2 0x601F DUP3 PUSH2 0x5FB4 JUMP JUMPDEST PUSH2 0x6029 DUP2 DUP6 PUSH2 0x5FBF JUMP JUMPDEST SWAP4 POP PUSH2 0x6034 DUP4 PUSH2 0x5FD0 JUMP JUMPDEST DUP1 PUSH1 0x0 JUMPDEST DUP4 DUP2 LT ISZERO PUSH2 0x6065 JUMPI DUP2 MLOAD PUSH2 0x604C DUP9 DUP3 PUSH2 0x5FEF JUMP JUMPDEST SWAP8 POP PUSH2 0x6057 DUP4 PUSH2 0x6007 JUMP JUMPDEST SWAP3 POP POP PUSH1 0x1 DUP2 ADD SWAP1 POP PUSH2 0x6038 JUMP JUMPDEST POP DUP6 SWAP4 POP POP POP POP SWAP3 SWAP2 POP POP JUMP JUMPDEST PUSH1 0x0 PUSH1 0x20 DUP3 ADD SWAP1 POP DUP2 DUP2 SUB PUSH1 0x0 DUP4 ADD MSTORE PUSH2 0x608C DUP2 DUP5 PUSH2 0x6014 JUMP JUMPDEST SWAP1 POP SWAP3 SWAP2 POP POP JUMP JUMPDEST PUSH1 0x0 PUSH2 0x609F DUP3 PUSH2 0x5AF5 JUMP JUMPDEST SWAP1 POP SWAP2 SWAP1 POP JUMP JUMPDEST PUSH2 0x60AF DUP2 PUSH2 0x6094 JUMP JUMPDEST DUP3 MSTORE POP POP JUMP JUMPDEST PUSH1 0x0 PUSH1 0x20 DUP3 ADD SWAP1 POP PUSH2 0x60CA PUSH1 0x0 DUP4 ADD DUP5 PUSH2 0x60A6 JUMP JUMPDEST SWAP3 SWAP2 POP POP JUMP JUMPDEST PUSH1 0x0 DUP1 PUSH1 0x40 DUP4 DUP6 SUB SLT ISZERO PUSH2 0x60E7 JUMPI PUSH2 0x60E6 PUSH2 0x56A7 JUMP JUMPDEST JUMPDEST PUSH1 0x0 PUSH2 0x60F5 DUP6 DUP3 DUP7 ADD PUSH2 0x578D JUMP JUMPDEST SWAP3 POP POP PUSH1 0x20 PUSH2 0x6106 DUP6 DUP3 DUP7 ADD PUSH2 0x578D JUMP JUMPDEST SWAP2 POP POP SWAP3 POP SWAP3 SWAP1 POP JUMP JUMPDEST PUSH1 0x0 DUP1 PUSH1 0x40 DUP4 DUP6 SUB SLT ISZERO PUSH2 0x6127 JUMPI PUSH2 0x6126 PUSH2 0x56A7 JUMP JUMPDEST JUMPDEST PUSH1 0x0 PUSH2 0x6135 DUP6 DUP3 DUP7 ADD PUSH2 0x578D JUMP JUMPDEST SWAP3 POP POP PUSH1 0x20 PUSH2 0x6146 DUP6 DUP3 DUP7 ADD PUSH2 0x5895 JUMP JUMPDEST SWAP2 POP POP SWAP3 POP SWAP3 SWAP1 POP JUMP JUMPDEST PUSH1 0x0 PUSH1 0x20 DUP3 DUP5 SUB SLT ISZERO PUSH2 0x6166 JUMPI PUSH2 0x6165 PUSH2 0x56A7 JUMP JUMPDEST JUMPDEST PUSH1 0x0 PUSH2 0x6174 DUP5 DUP3 DUP6 ADD PUSH2 0x5895 JUMP JUMPDEST SWAP2 POP POP SWAP3 SWAP2 POP POP JUMP JUMPDEST PUSH1 0x0 DUP1 PUSH1 0x0 DUP1 PUSH1 0x0 DUP1 PUSH1 0x0 PUSH1 0xE0 DUP9 DUP11 SUB SLT ISZERO PUSH2 0x619C JUMPI PUSH2 0x619B PUSH2 0x56A7 JUMP JUMPDEST JUMPDEST PUSH1 0x0 PUSH2 0x61AA DUP11 DUP3 DUP12 ADD PUSH2 0x5895 JUMP JUMPDEST SWAP8 POP POP PUSH1 0x20 PUSH2 0x61BB DUP11 DUP3 DUP12 ADD PUSH2 0x5895 JUMP JUMPDEST SWAP7 POP POP PUSH1 0x40 PUSH2 0x61CC DUP11 DUP3 DUP12 ADD PUSH2 0x5895 JUMP JUMPDEST SWAP6 POP POP PUSH1 0x60 PUSH2 0x61DD DUP11 DUP3 DUP12 ADD PUSH2 0x5895 JUMP JUMPDEST SWAP5 POP POP PUSH1 0x80 PUSH2 0x61EE DUP11 DUP3 DUP12 ADD PUSH2 0x5895 JUMP JUMPDEST SWAP4 POP POP PUSH1 0xA0 PUSH2 0x61FF DUP11 DUP3 DUP12 ADD PUSH2 0x5895 JUMP JUMPDEST SWAP3 POP POP PUSH1 0xC0 PUSH2 0x6210 DUP11 DUP3 DUP12 ADD PUSH2 0x5895 JUMP JUMPDEST SWAP2 POP POP SWAP3 SWAP6 SWAP9 SWAP2 SWAP5 SWAP8 POP SWAP3 SWAP6 POP JUMP JUMPDEST PUSH1 0x0 PUSH2 0x622A DUP3 PUSH2 0x5AF5 JUMP JUMPDEST SWAP1 POP SWAP2 SWAP1 POP JUMP JUMPDEST PUSH2 0x623A DUP2 PUSH2 0x621F JUMP JUMPDEST DUP3 MSTORE POP POP JUMP JUMPDEST PUSH1 0x0 PUSH1 0x20 DUP3 ADD SWAP1 POP PUSH2 0x6255 PUSH1 0x0 DUP4 ADD DUP5 PUSH2 0x6231 JUMP JUMPDEST SWAP3 SWAP2 POP POP JUMP JUMPDEST PUSH1 0x0 DUP1 DUP4 PUSH1 0x1F DUP5 ADD SLT PUSH2 0x6271 JUMPI PUSH2 0x6270 PUSH2 0x58EA JUMP JUMPDEST JUMPDEST DUP3 CALLDATALOAD SWAP1 POP PUSH8 0xFFFFFFFFFFFFFFFF DUP2 GT ISZERO PUSH2 0x628E JUMPI PUSH2 0x628D PUSH2 0x5E4F JUMP JUMPDEST JUMPDEST PUSH1 0x20 DUP4 ADD SWAP2 POP DUP4 PUSH1 0x1 DUP3 MUL DUP4 ADD GT ISZERO PUSH2 0x62AA JUMPI PUSH2 0x62A9 PUSH2 0x5CF0 JUMP JUMPDEST JUMPDEST SWAP3 POP SWAP3 SWAP1 POP JUMP JUMPDEST PUSH1 0x0 DUP1 PUSH1 0x20 DUP4 DUP6 SUB SLT ISZERO PUSH2 0x62C8 JUMPI PUSH2 0x62C7 PUSH2 0x56A7 JUMP JUMPDEST JUMPDEST PUSH1 0x0 DUP4 ADD CALLDATALOAD PUSH8 0xFFFFFFFFFFFFFFFF DUP2 GT ISZERO PUSH2 0x62E6 JUMPI PUSH2 0x62E5 PUSH2 0x56AC JUMP JUMPDEST JUMPDEST PUSH2 0x62F2 DUP6 DUP3 DUP7 ADD PUSH2 0x625B JUMP JUMPDEST SWAP3 POP SWAP3 POP POP SWAP3 POP SWAP3 SWAP1 POP JUMP JUMPDEST PUSH1 0x0 PUSH2 0x6309 DUP3 PUSH2 0x5AF5 JUMP JUMPDEST SWAP1 POP SWAP2 SWAP1 POP JUMP JUMPDEST PUSH2 0x6319 DUP2 PUSH2 0x62FE JUMP JUMPDEST DUP3 MSTORE POP POP JUMP JUMPDEST PUSH1 0x0 PUSH1 0x20 DUP3 ADD SWAP1 POP PUSH2 0x6334 PUSH1 0x0 DUP4 ADD DUP5 PUSH2 0x6310 JUMP JUMPDEST SWAP3 SWAP2 POP POP JUMP JUMPDEST PUSH1 0x0 PUSH2 0x6345 DUP3 PUSH2 0x5AF5 JUMP JUMPDEST SWAP1 POP SWAP2 SWAP1 POP JUMP JUMPDEST PUSH2 0x6355 DUP2 PUSH2 0x633A JUMP JUMPDEST DUP3 MSTORE POP POP JUMP JUMPDEST PUSH1 0x0 PUSH1 0x20 DUP3 ADD SWAP1 POP PUSH2 0x6370 PUSH1 0x0 DUP4 ADD DUP5 PUSH2 0x634C JUMP JUMPDEST SWAP3 SWAP2 POP POP JUMP JUMPDEST PUSH1 0x0 PUSH2 0xFFFF DUP3 AND SWAP1 POP SWAP2 SWAP1 POP JUMP JUMPDEST PUSH2 0x638D DUP2 PUSH2 0x6376 JUMP JUMPDEST DUP3 MSTORE POP POP JUMP JUMPDEST PUSH1 0x0 PUSH1 0x20 DUP3 ADD SWAP1 POP PUSH2 0x63A8 PUSH1 0x0 DUP4 ADD DUP5 PUSH2 0x6384 JUMP JUMPDEST SWAP3 SWAP2 POP POP JUMP JUMPDEST PUSH1 0x0 DUP1 PUSH1 0x0 DUP1 PUSH1 0x0 PUSH1 0x80 DUP7 DUP9 SUB SLT ISZERO PUSH2 0x63CA JUMPI PUSH2 0x63C9 PUSH2 0x56A7 JUMP JUMPDEST JUMPDEST PUSH1 0x0 PUSH2 0x63D8 DUP9 DUP3 DUP10 ADD PUSH2 0x578D JUMP JUMPDEST SWAP6 POP POP PUSH1 0x20 PUSH2 0x63E9 DUP9 DUP3 DUP10 ADD PUSH2 0x578D JUMP JUMPDEST SWAP5 POP POP PUSH1 0x40 PUSH2 0x63FA DUP9 DUP3 DUP10 ADD PUSH2 0x5895 JUMP JUMPDEST SWAP4 POP POP PUSH1 0x60 DUP7 ADD CALLDATALOAD PUSH8 0xFFFFFFFFFFFFFFFF DUP2 GT ISZERO PUSH2 0x641B JUMPI PUSH2 0x641A PUSH2 0x56AC JUMP JUMPDEST JUMPDEST PUSH2 0x6427 DUP9 DUP3 DUP10 ADD PUSH2 0x625B JUMP JUMPDEST SWAP3 POP SWAP3 POP POP SWAP3 SWAP6 POP SWAP3 SWAP6 SWAP1 SWAP4 POP JUMP JUMPDEST PUSH1 0x0 PUSH2 0x6441 DUP3 PUSH2 0x5822 JUMP JUMPDEST SWAP1 POP SWAP2 SWAP1 POP JUMP JUMPDEST PUSH2 0x6451 DUP2 PUSH2 0x6436 JUMP JUMPDEST DUP2 EQ PUSH2 0x645C JUMPI PUSH1 0x0 DUP1 REVERT JUMPDEST POP JUMP JUMPDEST PUSH1 0x0 DUP2 CALLDATALOAD SWAP1 POP PUSH2 0x646E DUP2 PUSH2 0x6448 JUMP JUMPDEST SWAP3 SWAP2 POP POP JUMP JUMPDEST PUSH1 0x0 DUP1 PUSH1 0x0 PUSH1 0x60 DUP5 DUP7 SUB SLT ISZERO PUSH2 0x648D JUMPI PUSH2 0x648C PUSH2 0x56A7 JUMP JUMPDEST JUMPDEST PUSH1 0x0 PUSH2 0x649B DUP7 DUP3 DUP8 ADD PUSH2 0x5895 JUMP JUMPDEST SWAP4 POP POP PUSH1 0x20 PUSH2 0x64AC DUP7 DUP3 DUP8 ADD PUSH2 0x645F JUMP JUMPDEST SWAP3 POP POP PUSH1 0x40 PUSH2 0x64BD DUP7 DUP3 DUP8 ADD PUSH2 0x578D JUMP JUMPDEST SWAP2 POP POP SWAP3 POP SWAP3 POP SWAP3 JUMP JUMPDEST PUSH1 0x0 DUP1 PUSH1 0x40 DUP4 DUP6 SUB SLT ISZERO PUSH2 0x64DE JUMPI PUSH2 0x64DD PUSH2 0x56A7 JUMP JUMPDEST JUMPDEST PUSH1 0x0 PUSH2 0x64EC DUP6 DUP3 DUP7 ADD PUSH2 0x5895 JUMP JUMPDEST SWAP3 POP POP PUSH1 0x20 PUSH2 0x64FD DUP6 DUP3 DUP7 ADD PUSH2 0x5895 JUMP JUMPDEST SWAP2 POP POP SWAP3 POP SWAP3 SWAP1 POP JUMP JUMPDEST PUSH32 0x4E487B7100000000000000000000000000000000000000000000000000000000 PUSH1 0x0 MSTORE PUSH1 0x11 PUSH1 0x4 MSTORE PUSH1 0x24 PUSH1 0x0 REVERT JUMPDEST PUSH1 0x0 PUSH2 0x6541 DUP3 PUSH2 0x576C JUMP JUMPDEST SWAP2 POP PUSH2 0x654C DUP4 PUSH2 0x576C JUMP JUMPDEST SWAP3 POP DUP3 DUP3 SUB SWAP1 POP DUP2 DUP2 GT ISZERO PUSH2 0x6564 JUMPI PUSH2 0x6563 PUSH2 0x6507 JUMP JUMPDEST JUMPDEST SWAP3 SWAP2 POP POP JUMP JUMPDEST PUSH1 0x0 DUP2 MLOAD SWAP1 POP SWAP2 SWAP1 POP JUMP JUMPDEST PUSH1 0x0 DUP3 DUP3 MSTORE PUSH1 0x20 DUP3 ADD SWAP1 POP SWAP3 SWAP2 POP POP JUMP JUMPDEST PUSH1 0x0 JUMPDEST DUP4 DUP2 LT ISZERO PUSH2 0x65A4 JUMPI DUP1 DUP3 ADD MLOAD DUP2 DUP5 ADD MSTORE PUSH1 0x20 DUP2 ADD SWAP1 POP PUSH2 0x6589 JUMP JUMPDEST PUSH1 0x0 DUP5 DUP5 ADD MSTORE POP POP POP POP JUMP JUMPDEST PUSH1 0x0 PUSH2 0x65BB DUP3 PUSH2 0x656A JUMP JUMPDEST PUSH2 0x65C5 DUP2 DUP6 PUSH2 0x6575 JUMP JUMPDEST SWAP4 POP PUSH2 0x65D5 DUP2 DUP6 PUSH1 0x20 DUP7 ADD PUSH2 0x6586 JUMP JUMPDEST PUSH2 0x65DE DUP2 PUSH2 0x58F4 JUMP JUMPDEST DUP5 ADD SWAP2 POP POP SWAP3 SWAP2 POP POP JUMP JUMPDEST PUSH1 0x0 PUSH1 0x80 DUP3 ADD SWAP1 POP PUSH2 0x65FE PUSH1 0x0 DUP4 ADD DUP8 PUSH2 0x5854 JUMP JUMPDEST PUSH2 0x660B PUSH1 0x20 DUP4 ADD DUP7 PUSH2 0x5854 JUMP JUMPDEST PUSH2 0x6618 PUSH1 0x40 DUP4 ADD DUP6 PUSH2 0x5854 JUMP JUMPDEST DUP2 DUP2 SUB PUSH1 0x60 DUP4 ADD MSTORE PUSH2 0x662A DUP2 DUP5 PUSH2 0x65B0 JUMP JUMPDEST SWAP1 POP SWAP6 SWAP5 POP POP POP POP POP JUMP JUMPDEST PUSH1 0x0 DUP2 MLOAD SWAP1 POP PUSH2 0x6644 DUP2 PUSH2 0x5776 JUMP JUMPDEST SWAP3 SWAP2 POP POP JUMP JUMPDEST PUSH1 0x0 PUSH1 0x20 DUP3 DUP5 SUB SLT ISZERO PUSH2 0x6660 JUMPI PUSH2 0x665F PUSH2 0x56A7 JUMP JUMPDEST JUMPDEST PUSH1 0x0 PUSH2 0x666E DUP5 DUP3 DUP6 ADD PUSH2 0x6635 JUMP JUMPDEST SWAP2 POP POP SWAP3 SWAP2 POP POP JUMP JUMPDEST PUSH1 0x0 PUSH1 0x60 DUP3 ADD SWAP1 POP PUSH2 0x668C PUSH1 0x0 DUP4 ADD DUP7 PUSH2 0x5A9F JUMP JUMPDEST PUSH2 0x6699 PUSH1 0x20 DUP4 ADD DUP6 PUSH2 0x5A9F JUMP JUMPDEST PUSH2 0x66A6 PUSH1 0x40 DUP4 ADD DUP5 PUSH2 0x5A9F JUMP JUMPDEST SWAP5 SWAP4 POP POP POP POP JUMP JUMPDEST PUSH1 0x0 PUSH2 0x66B9 DUP3 PUSH2 0x576C JUMP JUMPDEST SWAP2 POP PUSH2 0x66C4 DUP4 PUSH2 0x576C JUMP JUMPDEST SWAP3 POP DUP3 DUP3 ADD SWAP1 POP DUP1 DUP3 GT ISZERO PUSH2 0x66DC JUMPI PUSH2 0x66DB PUSH2 0x6507 JUMP JUMPDEST JUMPDEST SWAP3 SWAP2 POP POP JUMP JUMPDEST PUSH32 0x4E487B7100000000000000000000000000000000000000000000000000000000 PUSH1 0x0 MSTORE PUSH1 0x32 PUSH1 0x4 MSTORE PUSH1 0x24 PUSH1 0x0 REVERT JUMPDEST PUSH1 0x0 DUP1 REVERT JUMPDEST PUSH1 0x0 DUP1 REVERT JUMPDEST PUSH1 0x0 DUP1 REVERT JUMPDEST PUSH1 0x0 DUP1 DUP4 CALLDATALOAD PUSH1 0x1 PUSH1 0x20 SUB DUP5 CALLDATASIZE SUB SUB DUP2 SLT PUSH2 0x673D JUMPI PUSH2 0x673C PUSH2 0x6711 JUMP JUMPDEST JUMPDEST DUP1 DUP5 ADD SWAP3 POP DUP3 CALLDATALOAD SWAP2 POP PUSH8 0xFFFFFFFFFFFFFFFF DUP3 GT ISZERO PUSH2 0x675F JUMPI PUSH2 0x675E PUSH2 0x6716 JUMP JUMPDEST JUMPDEST PUSH1 0x20 DUP4 ADD SWAP3 POP PUSH1 0x1 DUP3 MUL CALLDATASIZE SUB DUP4 SGT ISZERO PUSH2 0x677B JUMPI PUSH2 0x677A PUSH2 0x671B JUMP JUMPDEST JUMPDEST POP SWAP3 POP SWAP3 SWAP1 POP JUMP JUMPDEST PUSH1 0x0 PUSH2 0x678F DUP4 DUP6 PUSH2 0x6575 JUMP JUMPDEST SWAP4 POP PUSH2 0x679C DUP4 DUP6 DUP5 PUSH2 0x59B1 JUMP JUMPDEST PUSH2 0x67A5 DUP4 PUSH2 0x58F4 JUMP JUMPDEST DUP5 ADD SWAP1 POP SWAP4 SWAP3 POP POP POP JUMP JUMPDEST PUSH1 0x0 PUSH1 0xE0 DUP3 ADD SWAP1 POP PUSH2 0x67C5 PUSH1 0x0 DUP4 ADD DUP12 PUSH2 0x5A9F JUMP JUMPDEST PUSH2 0x67D2 PUSH1 0x20 DUP4 ADD DUP11 PUSH2 0x5854 JUMP JUMPDEST PUSH2 0x67DF PUSH1 0x40 DUP4 ADD DUP10 PUSH2 0x5854 JUMP JUMPDEST PUSH2 0x67EC PUSH1 0x60 DUP4 ADD DUP9 PUSH2 0x5854 JUMP JUMPDEST DUP2 DUP2 SUB PUSH1 0x80 DUP4 ADD MSTORE PUSH2 0x67FF DUP2 DUP7 DUP9 PUSH2 0x6783 JUMP JUMPDEST SWAP1 POP PUSH2 0x680E PUSH1 0xA0 DUP4 ADD DUP6 PUSH2 0x5A9F JUMP JUMPDEST PUSH2 0x681B PUSH1 0xC0 DUP4 ADD DUP5 PUSH2 0x5A9F JUMP JUMPDEST SWAP10 SWAP9 POP POP POP POP POP POP POP POP POP JUMP JUMPDEST PUSH1 0x0 PUSH2 0x6833 DUP3 PUSH2 0x576C JUMP JUMPDEST SWAP2 POP PUSH32 0xFFFFFFFFFFFFFFFFFFFFFFFFFFFFFFFFFFFFFFFFFFFFFFFFFFFFFFFFFFFFFFFF DUP3 SUB PUSH2 0x6865 JUMPI PUSH2 0x6864 PUSH2 0x6507 JUMP JUMPDEST JUMPDEST PUSH1 0x1 DUP3 ADD SWAP1 POP SWAP2 SWAP1 POP JUMP JUMPDEST PUSH1 0x0 DUP3 DUP3 MSTORE PUSH1 0x20 DUP3 ADD SWAP1 POP SWAP3 SWAP2 POP POP JUMP JUMPDEST PUSH32 0x416363657373436F6E74726F6C3A2063616E206F6E6C792072656E6F756E6365 PUSH1 0x0 DUP3 ADD MSTORE PUSH32 0x20726F6C657320666F722073656C660000000000000000000000000000000000 PUSH1 0x20 DUP3 ADD MSTORE POP JUMP JUMPDEST PUSH1 0x0 PUSH2 0x68DD PUSH1 0x2F DUP4 PUSH2 0x6870 JUMP JUMPDEST SWAP2 POP PUSH2 0x68E8 DUP3 PUSH2 0x6881 JUMP JUMPDEST PUSH1 0x40 DUP3 ADD SWAP1 POP SWAP2 SWAP1 POP JUMP JUMPDEST PUSH1 0x0 PUSH1 0x20 DUP3 ADD SWAP1 POP DUP2 DUP2 SUB PUSH1 0x0 DUP4 ADD MSTORE PUSH2 0x690C DUP2 PUSH2 0x68D0 JUMP JUMPDEST SWAP1 POP SWAP2 SWAP1 POP JUMP JUMPDEST PUSH1 0x0 PUSH1 0x40 DUP3 ADD SWAP1 POP PUSH2 0x6928 PUSH1 0x0 DUP4 ADD DUP6 PUSH2 0x5A9F JUMP JUMPDEST PUSH2 0x6935 PUSH1 0x20 DUP4 ADD DUP5 PUSH2 0x5A9F JUMP JUMPDEST SWAP4 SWAP3 POP POP POP JUMP JUMPDEST PUSH1 0x0 PUSH2 0x6947 DUP3 PUSH2 0x576C JUMP JUMPDEST SWAP2 POP PUSH2 0x6952 DUP4 PUSH2 0x576C JUMP JUMPDEST SWAP3 POP DUP3 DUP3 MUL PUSH2 0x6960 DUP2 PUSH2 0x576C JUMP JUMPDEST SWAP2 POP DUP3 DUP3 DIV DUP5 EQ DUP4 ISZERO OR PUSH2 0x6977 JUMPI PUSH2 0x6976 PUSH2 0x6507 JUMP JUMPDEST JUMPDEST POP SWAP3 SWAP2 POP POP JUMP JUMPDEST PUSH32 0x4E487B7100000000000000000000000000000000000000000000000000000000 PUSH1 0x0 MSTORE PUSH1 0x12 PUSH1 0x4 MSTORE PUSH1 0x24 PUSH1 0x0 REVERT JUMPDEST PUSH1 0x0 PUSH2 0x69B8 DUP3 PUSH2 0x576C JUMP JUMPDEST SWAP2 POP PUSH2 0x69C3 DUP4 PUSH2 0x576C JUMP JUMPDEST SWAP3 POP DUP3 PUSH2 0x69D3 JUMPI PUSH2 0x69D2 PUSH2 0x697E JUMP JUMPDEST JUMPDEST DUP3 DUP3 DIV SWAP1 POP SWAP3 SWAP2 POP POP JUMP JUMPDEST PUSH1 0x0 DUP2 SWAP1 POP SWAP2 SWAP1 POP JUMP JUMPDEST PUSH1 0x0 PUSH2 0x6A03 PUSH2 0x69FE PUSH2 0x69F9 DUP5 PUSH2 0x69DE JUMP JUMPDEST PUSH2 0x5AC9 JUMP JUMPDEST PUSH2 0x576C JUMP JUMPDEST SWAP1 POP SWAP2 SWAP1 POP JUMP JUMPDEST PUSH2 0x6A13 DUP2 PUSH2 0x69E8 JUMP JUMPDEST DUP3 MSTORE POP POP JUMP JUMPDEST PUSH1 0x0 PUSH1 0xC0 DUP3 ADD SWAP1 POP PUSH2 0x6A2E PUSH1 0x0 DUP4 ADD DUP10 PUSH2 0x5854 JUMP JUMPDEST PUSH2 0x6A3B PUSH1 0x20 DUP4 ADD DUP9 PUSH2 0x5854 JUMP JUMPDEST PUSH2 0x6A48 PUSH1 0x40 DUP4 ADD DUP8 PUSH2 0x6A0A JUMP JUMPDEST PUSH2 0x6A55 PUSH1 0x60 DUP4 ADD DUP7 PUSH2 0x6A0A JUMP JUMPDEST PUSH2 0x6A62 PUSH1 0x80 DUP4 ADD DUP6 PUSH2 0x5854 JUMP JUMPDEST PUSH2 0x6A6F PUSH1 0xA0 DUP4 ADD DUP5 PUSH2 0x5742 JUMP JUMPDEST SWAP8 SWAP7 POP POP POP POP POP POP POP JUMP JUMPDEST PUSH2 0x6A83 DUP2 PUSH2 0x5736 JUMP JUMPDEST DUP2 EQ PUSH2 0x6A8E JUMPI PUSH1 0x0 DUP1 REVERT JUMPDEST POP JUMP JUMPDEST PUSH1 0x0 DUP2 MLOAD SWAP1 POP PUSH2 0x6AA0 DUP2 PUSH2 0x6A7A JUMP JUMPDEST SWAP3 SWAP2 POP POP JUMP JUMPDEST PUSH1 0x0 PUSH1 0x20 DUP3 DUP5 SUB SLT ISZERO PUSH2 0x6ABC JUMPI PUSH2 0x6ABB PUSH2 0x56A7 JUMP JUMPDEST JUMPDEST PUSH1 0x0 PUSH2 0x6ACA DUP5 DUP3 DUP6 ADD PUSH2 0x6A91 JUMP JUMPDEST SWAP2 POP POP SWAP3 SWAP2 POP POP JUMP JUMPDEST PUSH1 0x0 PUSH1 0xFF DUP3 AND SWAP1 POP SWAP2 SWAP1 POP JUMP JUMPDEST PUSH1 0x0 PUSH2 0x6AFB PUSH2 0x6AF6 PUSH2 0x6AF1 DUP5 PUSH2 0x69DE JUMP JUMPDEST PUSH2 0x5AC9 JUMP JUMPDEST PUSH2 0x6AD3 JUMP JUMPDEST SWAP1 POP SWAP2 SWAP1 POP JUMP JUMPDEST PUSH2 0x6B0B DUP2 PUSH2 0x6AE0 JUMP JUMPDEST DUP3 MSTORE POP POP JUMP JUMPDEST PUSH1 0x0 PUSH1 0x20 DUP3 ADD SWAP1 POP PUSH2 0x6B26 PUSH1 0x0 DUP4 ADD DUP5 PUSH2 0x6B02 JUMP JUMPDEST SWAP3 SWAP2 POP POP JUMP JUMPDEST PUSH1 0x0 DUP2 SWAP1 POP SWAP2 SWAP1 POP JUMP JUMPDEST PUSH1 0x0 PUSH2 0x6B51 PUSH2 0x6B4C PUSH2 0x6B47 DUP5 PUSH2 0x6B2C JUMP JUMPDEST PUSH2 0x5AC9 JUMP JUMPDEST PUSH2 0x6AD3 JUMP JUMPDEST SWAP1 POP SWAP2 SWAP1 POP JUMP JUMPDEST PUSH2 0x6B61 DUP2 PUSH2 0x6B36 JUMP JUMPDEST DUP3 MSTORE POP POP JUMP JUMPDEST PUSH1 0x0 PUSH1 0x20 DUP3 ADD SWAP1 POP PUSH2 0x6B7C PUSH1 0x0 DUP4 ADD DUP5 PUSH2 0x6B58 JUMP JUMPDEST SWAP3 SWAP2 POP POP JUMP JUMPDEST PUSH1 0x0 DUP2 SWAP1 POP SWAP2 SWAP1 POP JUMP JUMPDEST PUSH1 0x0 PUSH2 0x6BA7 PUSH2 0x6BA2 PUSH2 0x6B9D DUP5 PUSH2 0x6B82 JUMP JUMPDEST PUSH2 0x5AC9 JUMP JUMPDEST PUSH2 0x6AD3 JUMP JUMPDEST SWAP1 POP SWAP2 SWAP1 POP JUMP JUMPDEST PUSH2 0x6BB7 DUP2 PUSH2 0x6B8C JUMP JUMPDEST DUP3 MSTORE POP POP JUMP JUMPDEST PUSH1 0x0 PUSH1 0x20 DUP3 ADD SWAP1 POP PUSH2 0x6BD2 PUSH1 0x0 DUP4 ADD DUP5 PUSH2 0x6BAE JUMP JUMPDEST SWAP3 SWAP2 POP POP JUMP JUMPDEST PUSH1 0x0 DUP2 SWAP1 POP SWAP2 SWAP1 POP JUMP JUMPDEST PUSH1 0x0 PUSH2 0x6BFD PUSH2 0x6BF8 PUSH2 0x6BF3 DUP5 PUSH2 0x6BD8 JUMP JUMPDEST PUSH2 0x5AC9 JUMP JUMPDEST PUSH2 0x6AD3 JUMP JUMPDEST SWAP1 POP SWAP2 SWAP1 POP JUMP JUMPDEST PUSH2 0x6C0D DUP2 PUSH2 0x6BE2 JUMP JUMPDEST DUP3 MSTORE POP POP JUMP JUMPDEST PUSH1 0x0 PUSH1 0x20 DUP3 ADD SWAP1 POP PUSH2 0x6C28 PUSH1 0x0 DUP4 ADD DUP5 PUSH2 0x6C04 JUMP JUMPDEST SWAP3 SWAP2 POP POP JUMP JUMPDEST PUSH1 0x0 DUP2 SWAP1 POP SWAP2 SWAP1 POP JUMP JUMPDEST PUSH1 0x0 PUSH2 0x6C53 PUSH2 0x6C4E PUSH2 0x6C49 DUP5 PUSH2 0x6C2E JUMP JUMPDEST PUSH2 0x5AC9 JUMP JUMPDEST PUSH2 0x6AD3 JUMP JUMPDEST SWAP1 POP SWAP2 SWAP1 POP JUMP JUMPDEST PUSH2 0x6C63 DUP2 PUSH2 0x6C38 JUMP JUMPDEST DUP3 MSTORE POP POP JUMP JUMPDEST PUSH1 0x0 PUSH1 0x20 DUP3 ADD SWAP1 POP PUSH2 0x6C7E PUSH1 0x0 DUP4 ADD DUP5 PUSH2 0x6C5A JUMP JUMPDEST SWAP3 SWAP2 POP POP JUMP JUMPDEST PUSH1 0x0 DUP2 SWAP1 POP SWAP2 SWAP1 POP JUMP JUMPDEST PUSH1 0x0 PUSH2 0x6CA9 PUSH2 0x6CA4 PUSH2 0x6C9F DUP5 PUSH2 0x6C84 JUMP JUMPDEST PUSH2 0x5AC9 JUMP JUMPDEST PUSH2 0x6AD3 JUMP JUMPDEST SWAP1 POP SWAP2 SWAP1 POP JUMP JUMPDEST PUSH2 0x6CB9 DUP2 PUSH2 0x6C8E JUMP JUMPDEST DUP3 MSTORE POP POP JUMP JUMPDEST PUSH1 0x0 PUSH1 0x20 DUP3 ADD SWAP1 POP PUSH2 0x6CD4 PUSH1 0x0 DUP4 ADD DUP5 PUSH2 0x6CB0 JUMP JUMPDEST SWAP3 SWAP2 POP POP JUMP JUMPDEST PUSH1 0x0 DUP2 SWAP1 POP SWAP2 SWAP1 POP JUMP JUMPDEST PUSH1 0x0 PUSH2 0x6CFF PUSH2 0x6CFA PUSH2 0x6CF5 DUP5 PUSH2 0x6CDA JUMP JUMPDEST PUSH2 0x5AC9 JUMP JUMPDEST PUSH2 0x6AD3 JUMP JUMPDEST SWAP1 POP SWAP2 SWAP1 POP JUMP JUMPDEST PUSH2 0x6D0F DUP2 PUSH2 0x6CE4 JUMP JUMPDEST DUP3 MSTORE POP POP JUMP JUMPDEST PUSH1 0x0 PUSH1 0x20 DUP3 ADD SWAP1 POP PUSH2 0x6D2A PUSH1 0x0 DUP4 ADD DUP5 PUSH2 0x6D06 JUMP JUMPDEST SWAP3 SWAP2 POP POP JUMP JUMPDEST PUSH1 0x0 PUSH1 0xE0 DUP3 ADD SWAP1 POP PUSH2 0x6D45 PUSH1 0x0 DUP4 ADD DUP11 PUSH2 0x5854 JUMP JUMPDEST PUSH2 0x6D52 PUSH1 0x20 DUP4 ADD DUP10 PUSH2 0x5854 JUMP JUMPDEST PUSH2 0x6D5F PUSH1 0x40 DUP4 ADD DUP9 PUSH2 0x5854 JUMP JUMPDEST PUSH2 0x6D6C PUSH1 0x60 DUP4 ADD DUP8 PUSH2 0x5854 JUMP JUMPDEST PUSH2 0x6D79 PUSH1 0x80 DUP4 ADD DUP7 PUSH2 0x5854 JUMP JUMPDEST PUSH2 0x6D86 PUSH1 0xA0 DUP4 ADD DUP6 PUSH2 0x5854 JUMP JUMPDEST PUSH2 0x6D93 PUSH1 0xC0 DUP4 ADD DUP5 PUSH2 0x5854 JUMP JUMPDEST SWAP9 SWAP8 POP POP POP POP POP POP POP POP JUMP JUMPDEST PUSH1 0x0 PUSH2 0x6DAA DUP3 PUSH2 0x6376 JUMP JUMPDEST SWAP2 POP PUSH2 0x6DB5 DUP4 PUSH2 0x6376 JUMP JUMPDEST SWAP3 POP DUP3 DUP3 SUB SWAP1 POP PUSH2 0xFFFF DUP2 GT ISZERO PUSH2 0x6DCF JUMPI PUSH2 0x6DCE PUSH2 0x6507 JUMP JUMPDEST JUMPDEST SWAP3 SWAP2 POP POP JUMP JUMPDEST PUSH32 0x534348454D415F56455253494F4E5F4E4F545F434F5252454354000000000000 PUSH1 0x0 DUP3 ADD MSTORE POP JUMP JUMPDEST PUSH1 0x0 PUSH2 0x6E0B PUSH1 0x1A DUP4 PUSH2 0x6870 JUMP JUMPDEST SWAP2 POP PUSH2 0x6E16 DUP3 PUSH2 0x6DD5 JUMP JUMPDEST PUSH1 0x20 DUP3 ADD SWAP1 POP SWAP2 SWAP1 POP JUMP JUMPDEST PUSH1 0x0 PUSH1 0x20 DUP3 ADD SWAP1 POP DUP2 DUP2 SUB PUSH1 0x0 DUP4 ADD MSTORE PUSH2 0x6E3A DUP2 PUSH2 0x6DFE JUMP JUMPDEST SWAP1 POP SWAP2 SWAP1 POP JUMP JUMPDEST PUSH1 0x0 PUSH1 0x80 DUP3 ADD SWAP1 POP PUSH2 0x6E56 PUSH1 0x0 DUP4 ADD DUP8 PUSH2 0x5A9F JUMP JUMPDEST PUSH2 0x6E63 PUSH1 0x20 DUP4 ADD DUP7 PUSH2 0x5A9F JUMP JUMPDEST PUSH2 0x6E70 PUSH1 0x40 DUP4 ADD DUP6 PUSH2 0x5854 JUMP JUMPDEST PUSH2 0x6E7D PUSH1 0x60 DUP4 ADD DUP5 PUSH2 0x5854 JUMP JUMPDEST SWAP6 SWAP5 POP POP POP POP POP JUMP JUMPDEST PUSH1 0x0 PUSH1 0xC0 DUP3 ADD SWAP1 POP PUSH2 0x6E9B PUSH1 0x0 DUP4 ADD DUP10 PUSH2 0x5854 JUMP JUMPDEST PUSH2 0x6EA8 PUSH1 0x20 DUP4 ADD DUP9 PUSH2 0x5854 JUMP JUMPDEST PUSH2 0x6EB5 PUSH1 0x40 DUP4 ADD DUP8 PUSH2 0x5A9F JUMP JUMPDEST PUSH2 0x6EC2 PUSH1 0x60 DUP4 ADD DUP7 PUSH2 0x5A9F JUMP JUMPDEST PUSH2 0x6ECF PUSH1 0x80 DUP4 ADD DUP6 PUSH2 0x5854 JUMP JUMPDEST PUSH2 0x6EDC PUSH1 0xA0 DUP4 ADD DUP5 PUSH2 0x5742 JUMP JUMPDEST SWAP8 SWAP7 POP POP POP POP POP POP POP JUMP JUMPDEST PUSH1 0x0 PUSH1 0x60 DUP3 ADD SWAP1 POP PUSH2 0x6EFC PUSH1 0x0 DUP4 ADD DUP7 PUSH2 0x5A9F JUMP JUMPDEST PUSH2 0x6F09 PUSH1 0x20 DUP4 ADD DUP6 PUSH2 0x5A9F JUMP JUMPDEST PUSH2 0x6F16 PUSH1 0x40 DUP4 ADD DUP5 PUSH2 0x5742 JUMP JUMPDEST SWAP5 SWAP4 POP POP POP POP JUMP JUMPDEST PUSH1 0x0 PUSH1 0x40 DUP3 ADD SWAP1 POP PUSH2 0x6F33 PUSH1 0x0 DUP4 ADD DUP6 PUSH2 0x5A9F JUMP JUMPDEST PUSH2 0x6F40 PUSH1 0x20 DUP4 ADD DUP5 PUSH2 0x5854 JUMP JUMPDEST SWAP4 SWAP3 POP POP POP JUMP JUMPDEST PUSH1 0x0 PUSH1 0x60 DUP3 ADD SWAP1 POP PUSH2 0x6F5C PUSH1 0x0 DUP4 ADD DUP7 PUSH2 0x5854 JUMP JUMPDEST PUSH2 0x6F69 PUSH1 0x20 DUP4 ADD DUP6 PUSH2 0x5854 JUMP JUMPDEST PUSH2 0x6F76 PUSH1 0x40 DUP4 ADD DUP5 PUSH2 0x5A9F JUMP JUMPDEST SWAP5 SWAP4 POP POP POP POP JUMP JUMPDEST PUSH1 0x0 PUSH2 0x6F89 DUP3 PUSH2 0x5AF5 JUMP JUMPDEST SWAP1 POP SWAP2 SWAP1 POP JUMP JUMPDEST PUSH2 0x6F99 DUP2 PUSH2 0x6F7E JUMP JUMPDEST DUP3 MSTORE POP POP JUMP JUMPDEST PUSH1 0x0 PUSH1 0x60 DUP3 ADD SWAP1 POP PUSH2 0x6FB4 PUSH1 0x0 DUP4 ADD DUP7 PUSH2 0x5854 JUMP JUMPDEST PUSH2 0x6FC1 PUSH1 0x20 DUP4 ADD DUP6 PUSH2 0x6F90 JUMP JUMPDEST PUSH2 0x6FCE PUSH1 0x40 DUP4 ADD DUP5 PUSH2 0x5A9F JUMP JUMPDEST SWAP5 SWAP4 POP POP POP POP JUMP JUMPDEST PUSH1 0x0 PUSH1 0x80 DUP3 ADD SWAP1 POP PUSH2 0x6FEB PUSH1 0x0 DUP4 ADD DUP8 PUSH2 0x5A9F JUMP JUMPDEST PUSH2 0x6FF8 PUSH1 0x20 DUP4 ADD DUP7 PUSH2 0x5854 JUMP JUMPDEST PUSH2 0x7005 PUSH1 0x40 DUP4 ADD DUP6 PUSH2 0x5A9F JUMP JUMPDEST PUSH2 0x7012 PUSH1 0x60 DUP4 ADD DUP5 PUSH2 0x5A9F JUMP JUMPDEST SWAP6 SWAP5 POP POP POP POP POP JUMP JUMPDEST PUSH1 0x0 DUP2 SWAP1 POP SWAP3 SWAP2 POP POP JUMP JUMPDEST PUSH32 0x416363657373436F6E74726F6C3A206163636F756E7420000000000000000000 PUSH1 0x0 DUP3 ADD MSTORE POP JUMP JUMPDEST PUSH1 0x0 PUSH2 0x705C PUSH1 0x17 DUP4 PUSH2 0x701B JUMP JUMPDEST SWAP2 POP PUSH2 0x7067 DUP3 PUSH2 0x7026 JUMP JUMPDEST PUSH1 0x17 DUP3 ADD SWAP1 POP SWAP2 SWAP1 POP JUMP JUMPDEST PUSH1 0x0 DUP2 MLOAD SWAP1 POP SWAP2 SWAP1 POP JUMP JUMPDEST PUSH1 0x0 PUSH2 0x7088 DUP3 PUSH2 0x7072 JUMP JUMPDEST PUSH2 0x7092 DUP2 DUP6 PUSH2 0x701B JUMP JUMPDEST SWAP4 POP PUSH2 0x70A2 DUP2 DUP6 PUSH1 0x20 DUP7 ADD PUSH2 0x6586 JUMP JUMPDEST DUP1 DUP5 ADD SWAP2 POP POP SWAP3 SWAP2 POP POP JUMP JUMPDEST PUSH32 0x206973206D697373696E6720726F6C6520000000000000000000000000000000 PUSH1 0x0 DUP3 ADD MSTORE POP JUMP JUMPDEST PUSH1 0x0 PUSH2 0x70E4 PUSH1 0x11 DUP4 PUSH2 0x701B JUMP JUMPDEST SWAP2 POP PUSH2 0x70EF DUP3 PUSH2 0x70AE JUMP JUMPDEST PUSH1 0x11 DUP3 ADD SWAP1 POP SWAP2 SWAP1 POP JUMP JUMPDEST PUSH1 0x0 PUSH2 0x7105 DUP3 PUSH2 0x704F JUMP JUMPDEST SWAP2 POP PUSH2 0x7111 DUP3 DUP6 PUSH2 0x707D JUMP JUMPDEST SWAP2 POP PUSH2 0x711C DUP3 PUSH2 0x70D7 JUMP JUMPDEST SWAP2 POP PUSH2 0x7128 DUP3 DUP5 PUSH2 0x707D JUMP JUMPDEST SWAP2 POP DUP2 SWAP1 POP SWAP4 SWAP3 POP POP POP JUMP JUMPDEST PUSH1 0x0 PUSH2 0x713F DUP3 PUSH2 0x7072 JUMP JUMPDEST PUSH2 0x7149 DUP2 DUP6 PUSH2 0x6870 JUMP JUMPDEST SWAP4 POP PUSH2 0x7159 DUP2 DUP6 PUSH1 0x20 DUP7 ADD PUSH2 0x6586 JUMP JUMPDEST PUSH2 0x7162 DUP2 PUSH2 0x58F4 JUMP JUMPDEST DUP5 ADD SWAP2 POP POP SWAP3 SWAP2 POP POP JUMP JUMPDEST PUSH1 0x0 PUSH1 0x20 DUP3 ADD SWAP1 POP DUP2 DUP2 SUB PUSH1 0x0 DUP4 ADD MSTORE PUSH2 0x7187 DUP2 DUP5 PUSH2 0x7134 JUMP JUMPDEST SWAP1 POP SWAP3 SWAP2 POP POP JUMP JUMPDEST PUSH32 0x416464726573733A20696E73756666696369656E742062616C616E6365000000 PUSH1 0x0 DUP3 ADD MSTORE POP JUMP JUMPDEST PUSH1 0x0 PUSH2 0x71C5 PUSH1 0x1D DUP4 PUSH2 0x6870 JUMP JUMPDEST SWAP2 POP PUSH2 0x71D0 DUP3 PUSH2 0x718F JUMP JUMPDEST PUSH1 0x20 DUP3 ADD SWAP1 POP SWAP2 SWAP1 POP JUMP JUMPDEST PUSH1 0x0 PUSH1 0x20 DUP3 ADD SWAP1 POP DUP2 DUP2 SUB PUSH1 0x0 DUP4 ADD MSTORE PUSH2 0x71F4 DUP2 PUSH2 0x71B8 JUMP JUMPDEST SWAP1 POP SWAP2 SWAP1 POP JUMP JUMPDEST PUSH1 0x0 DUP2 SWAP1 POP SWAP3 SWAP2 POP POP JUMP JUMPDEST POP JUMP JUMPDEST PUSH1 0x0 PUSH2 0x7216 PUSH1 0x0 DUP4 PUSH2 0x71FB JUMP JUMPDEST SWAP2 POP PUSH2 0x7221 DUP3 PUSH2 0x7206 JUMP JUMPDEST PUSH1 0x0 DUP3 ADD SWAP1 POP SWAP2 SWAP1 POP JUMP JUMPDEST PUSH1 0x0 PUSH2 0x7237 DUP3 PUSH2 0x7209 JUMP JUMPDEST SWAP2 POP DUP2 SWAP1 POP SWAP2 SWAP1 POP JUMP JUMPDEST PUSH32 0x416464726573733A20756E61626C6520746F2073656E642076616C75652C2072 PUSH1 0x0 DUP3 ADD MSTORE PUSH32 0x6563697069656E74206D61792068617665207265766572746564000000000000 PUSH1 0x20 DUP3 ADD MSTORE POP JUMP JUMPDEST PUSH1 0x0 PUSH2 0x729D PUSH1 0x3A DUP4 PUSH2 0x6870 JUMP JUMPDEST SWAP2 POP PUSH2 0x72A8 DUP3 PUSH2 0x7241 JUMP JUMPDEST PUSH1 0x40 DUP3 ADD SWAP1 POP SWAP2 SWAP1 POP JUMP JUMPDEST PUSH1 0x0 PUSH1 0x20 DUP3 ADD SWAP1 POP DUP2 DUP2 SUB PUSH1 0x0 DUP4 ADD MSTORE PUSH2 0x72CC DUP2 PUSH2 0x7290 JUMP JUMPDEST SWAP1 POP SWAP2 SWAP1 POP JUMP JUMPDEST PUSH1 0x0 PUSH1 0x40 DUP3 ADD SWAP1 POP PUSH2 0x72E8 PUSH1 0x0 DUP4 ADD DUP6 PUSH2 0x5854 JUMP JUMPDEST PUSH2 0x72F5 PUSH1 0x20 DUP4 ADD DUP5 PUSH2 0x5A9F JUMP JUMPDEST SWAP4 SWAP3 POP POP POP JUMP JUMPDEST PUSH1 0x0 PUSH2 0x7307 DUP3 PUSH2 0x576C JUMP JUMPDEST SWAP2 POP PUSH1 0x0 DUP3 SUB PUSH2 0x731A JUMPI PUSH2 0x7319 PUSH2 0x6507 JUMP JUMPDEST JUMPDEST PUSH1 0x1 DUP3 SUB SWAP1 POP SWAP2 SWAP1 POP JUMP JUMPDEST PUSH32 0x537472696E67733A20686578206C656E67746820696E73756666696369656E74 PUSH1 0x0 DUP3 ADD MSTORE POP JUMP JUMPDEST PUSH1 0x0 PUSH2 0x735B PUSH1 0x20 DUP4 PUSH2 0x6870 JUMP JUMPDEST SWAP2 POP PUSH2 0x7366 DUP3 PUSH2 0x7325 JUMP JUMPDEST PUSH1 0x20 DUP3 ADD SWAP1 POP SWAP2 SWAP1 POP JUMP JUMPDEST PUSH1 0x0 PUSH1 0x20 DUP3 ADD SWAP1 POP DUP2 DUP2 SUB PUSH1 0x0 DUP4 ADD MSTORE PUSH2 0x738A DUP2 PUSH2 0x734E JUMP JUMPDEST SWAP1 POP SWAP2 SWAP1 POP JUMP JUMPDEST PUSH32 0x5361666545524332303A204552433230206F7065726174696F6E20646964206E PUSH1 0x0 DUP3 ADD MSTORE PUSH32 0x6F74207375636365656400000000000000000000000000000000000000000000 PUSH1 0x20 DUP3 ADD MSTORE POP JUMP JUMPDEST PUSH1 0x0 PUSH2 0x73ED PUSH1 0x2A DUP4 PUSH2 0x6870 JUMP JUMPDEST SWAP2 POP PUSH2 0x73F8 DUP3 PUSH2 0x7391 JUMP JUMPDEST PUSH1 0x40 DUP3 ADD SWAP1 POP SWAP2 SWAP1 POP JUMP JUMPDEST PUSH1 0x0 PUSH1 0x20 DUP3 ADD SWAP1 POP DUP2 DUP2 SUB PUSH1 0x0 DUP4 ADD MSTORE PUSH2 0x741C DUP2 PUSH2 0x73E0 JUMP JUMPDEST SWAP1 POP SWAP2 SWAP1 POP JUMP JUMPDEST PUSH32 0x416464726573733A20696E73756666696369656E742062616C616E636520666F PUSH1 0x0 DUP3 ADD MSTORE PUSH32 0x722063616C6C0000000000000000000000000000000000000000000000000000 PUSH1 0x20 DUP3 ADD MSTORE POP JUMP JUMPDEST PUSH1 0x0 PUSH2 0x747F PUSH1 0x26 DUP4 PUSH2 0x6870 JUMP JUMPDEST SWAP2 POP PUSH2 0x748A DUP3 PUSH2 0x7423 JUMP JUMPDEST PUSH1 0x40 DUP3 ADD SWAP1 POP SWAP2 SWAP1 POP JUMP JUMPDEST PUSH1 0x0 PUSH1 0x20 DUP3 ADD SWAP1 POP DUP2 DUP2 SUB PUSH1 0x0 DUP4 ADD MSTORE PUSH2 0x74AE DUP2 PUSH2 0x7472 JUMP JUMPDEST SWAP1 POP SWAP2 SWAP1 POP JUMP JUMPDEST PUSH1 0x0 PUSH2 0x74C0 DUP3 PUSH2 0x656A JUMP JUMPDEST PUSH2 0x74CA DUP2 DUP6 PUSH2 0x71FB JUMP JUMPDEST SWAP4 POP PUSH2 0x74DA DUP2 DUP6 PUSH1 0x20 DUP7 ADD PUSH2 0x6586 JUMP JUMPDEST DUP1 DUP5 ADD SWAP2 POP POP SWAP3 SWAP2 POP POP JUMP JUMPDEST PUSH1 0x0 PUSH2 0x74F2 DUP3 DUP5 PUSH2 0x74B5 JUMP JUMPDEST SWAP2 POP DUP2 SWAP1 POP SWAP3 SWAP2 POP POP JUMP JUMPDEST PUSH32 0x416464726573733A2063616C6C20746F206E6F6E2D636F6E7472616374000000 PUSH1 0x0 DUP3 ADD MSTORE POP JUMP JUMPDEST PUSH1 0x0 PUSH2 0x7533 PUSH1 0x1D DUP4 PUSH2 0x6870 JUMP JUMPDEST SWAP2 POP PUSH2 0x753E DUP3 PUSH2 0x74FD JUMP JUMPDEST PUSH1 0x20 DUP3 ADD SWAP1 POP SWAP2 SWAP1 POP JUMP JUMPDEST PUSH1 0x0 PUSH1 0x20 DUP3 ADD SWAP1 POP DUP2 DUP2 SUB PUSH1 0x0 DUP4 ADD MSTORE PUSH2 0x7562 DUP2 PUSH2 0x7526 JUMP JUMPDEST SWAP1 POP SWAP2 SWAP1 POP JUMP INVALID LOG2 PUSH5 0x6970667358 0x22 SLT KECCAK256 JUMP 0xD8 CALLDATALOAD 0xF SUB 0xA5 SWAP8 0xBB 0x2C PUSH26 0xFC26497A84270A24AE22A35AA77C08E7439C8C9C868164736F6C PUSH4 0x43000812 STOP CALLER "
		},
		"gasEstimates": {
			"creation": {
				"codeDepositCost": "6022200",
				"executionCost": "7426",
				"totalCost": "6029626"
			},
			"external": {
				"DEFAULT_ADMIN_ROLE()": "469",
				"addLockManager(address)": "infinite",
				"approve(address,uint256)": "43084",
				"balanceOf(address)": "infinite",
				"burn(uint256)": "67311",
				"cancelAndRefund(uint256)": "infinite",
				"expirationDuration()": "2498",
				"expireAndRefundFor(uint256,uint256)": "infinite",
				"extend(uint256,uint256,address,bytes)": "infinite",
				"freeTrialLength()": "2518",
				"gasRefundValue()": "2504",
				"getApproved(uint256)": "5228",
				"getCancelAndRefundValue(uint256)": "infinite",
				"getHasValidKey(address)": "infinite",
				"getRoleAdmin(bytes32)": "infinite",
				"grantRole(bytes32,address)": "infinite",
				"hasRole(bytes32,address)": "3274",
				"isApprovedForAll(address,address)": "infinite",
				"isLockManager(address)": "3148",
				"isRenewable(uint256,address)": "infinite",
				"isValidKey(uint256)": "infinite",
				"keyExpirationTimestampFor(uint256)": "infinite",
				"keyManagerOf(uint256)": "2951",
				"keyPrice()": "2564",
				"maxKeysPerAddress()": "2570",
				"maxNumberOfKeys()": "2498",
				"mergeKeys(uint256,uint256,uint256)": "infinite",
				"migrate(bytes)": "infinite",
				"numberOfOwners()": "2519",
				"onKeyCancelHook()": "infinite",
				"onKeyExtendHook()": "infinite",
				"onKeyGrantHook()": "infinite",
				"onKeyPurchaseHook()": "infinite",
				"onKeyTransferHook()": "infinite",
				"onTokenURIHook()": "infinite",
				"onValidKeyHook()": "infinite",
				"ownerOf(uint256)": "2954",
				"publicLockVersion()": "410",
				"purchase(uint256[],address[],address[],address[],bytes[])": "infinite",
				"purchasePriceFor(address,address,bytes)": "infinite",
				"referrerFees(address)": "2926",
				"refundPenaltyBasisPoints()": "2563",
				"renewMembershipFor(uint256,address)": "infinite",
				"renounceLockManager()": "infinite",
				"renounceRole(bytes32,address)": "infinite",
				"revokeRole(bytes32,address)": "infinite",
				"schemaVersion()": "2563",
				"setEventHooks(address,address,address,address,address,address,address)": "infinite",
				"setGasRefundValue(uint256)": "infinite",
				"setKeyManagerOf(uint256,address)": "64629",
				"setReferrerFee(address,uint256)": "infinite",
				"supportsInterface(bytes4)": "797",
				"tokenAddress()": "2626",
				"tokenOfOwnerByIndex(address,uint256)": "infinite",
				"totalKeys(address)": "2944",
				"totalSupply()": "2528",
				"unlockProtocol()": "infinite",
				"updateKeyPricing(uint256,address)": "infinite",
				"updateLockConfig(uint256,uint256,uint256)": "infinite",
				"updateRefundPenalty(uint256,uint256)": "infinite",
				"updateSchemaVersion()": "24807",
				"withdraw(address,address,uint256)": "infinite"
			},
			"internal": {
				"_cancelAndRefund(uint256,uint256)": "infinite",
				"_initializeMixinRefunds()": "infinite"
			}
		},
		"methodIdentifiers": {
			"DEFAULT_ADMIN_ROLE()": "a217fddf",
			"addLockManager(address)": "d2503485",
			"approve(address,uint256)": "095ea7b3",
			"balanceOf(address)": "70a08231",
			"burn(uint256)": "42966c68",
			"cancelAndRefund(uint256)": "d32bfb6c",
			"expirationDuration()": "11a4c03a",
			"expireAndRefundFor(uint256,uint256)": "558b71e9",
			"extend(uint256,uint256,address,bytes)": "d813cc19",
			"freeTrialLength()": "a375cb05",
			"gasRefundValue()": "6207a8da",
			"getApproved(uint256)": "081812fc",
			"getCancelAndRefundValue(uint256)": "92ac98a5",
			"getHasValidKey(address)": "6d8ea5b4",
			"getRoleAdmin(bytes32)": "248a9ca3",
			"grantRole(bytes32,address)": "2f2ff15d",
			"hasRole(bytes32,address)": "91d14854",
			"isApprovedForAll(address,address)": "e985e9c5",
			"isLockManager(address)": "aae4b8f7",
			"isRenewable(uint256,address)": "50878a47",
			"isValidKey(uint256)": "a98d3623",
			"keyExpirationTimestampFor(uint256)": "54b249fb",
			"keyManagerOf(uint256)": "4d025fed",
			"keyPrice()": "10e56973",
			"maxKeysPerAddress()": "d52e4a10",
			"maxNumberOfKeys()": "74b6c106",
			"mergeKeys(uint256,uint256,uint256)": "068208cd",
			"migrate(bytes)": "8932a90d",
			"numberOfOwners()": "93fd1844",
			"onKeyCancelHook()": "217751bc",
			"onKeyExtendHook()": "c907c3ec",
			"onKeyGrantHook()": "b129694e",
			"onKeyPurchaseHook()": "2d33dd5b",
			"onKeyTransferHook()": "389f07e8",
			"onTokenURIHook()": "7ec2a724",
			"onValidKeyHook()": "26e9ca07",
			"ownerOf(uint256)": "6352211e",
			"publicLockVersion()": "d1bbd49c",
			"purchase(uint256[],address[],address[],address[],bytes[])": "33818997",
			"purchasePriceFor(address,address,bytes)": "097ba333",
			"referrerFees(address)": "c23135dd",
			"refundPenaltyBasisPoints()": "56e0d51f",
			"renewMembershipFor(uint256,address)": "8505fe95",
			"renounceLockManager()": "f0ba6040",
			"renounceRole(bytes32,address)": "36568abe",
			"revokeRole(bytes32,address)": "d547741f",
			"schemaVersion()": "4e2ce6d3",
			"setEventHooks(address,address,address,address,address,address,address)": "74cac47d",
			"setGasRefundValue(uint256)": "f5766b39",
			"setKeyManagerOf(uint256,address)": "b11d7ec1",
			"setReferrerFee(address,uint256)": "debe2b0d",
			"supportsInterface(bytes4)": "01ffc9a7",
			"tokenAddress()": "9d76ea58",
			"tokenOfOwnerByIndex(address,uint256)": "2f745c59",
			"totalKeys(address)": "812eecd4",
			"totalSupply()": "18160ddd",
			"unlockProtocol()": "0f15023b",
			"updateKeyPricing(uint256,address)": "a2e4cd2e",
			"updateLockConfig(uint256,uint256,uint256)": "282478df",
			"updateRefundPenalty(uint256,uint256)": "39f46986",
			"updateSchemaVersion()": "f32e8b24",
			"withdraw(address,address,uint256)": "d9caed12"
		}
	},
	"abi": [
		{
			"inputs": [],
			"name": "CANNOT_APPROVE_SELF",
			"type": "error"
		},
		{
			"inputs": [],
			"name": "CANT_BE_SMALLER_THAN_SUPPLY",
			"type": "error"
		},
		{
			"inputs": [],
			"name": "CANT_EXTEND_NON_EXPIRING_KEY",
			"type": "error"
		},
		{
			"inputs": [],
			"name": "GAS_REFUND_FAILED",
			"type": "error"
		},
		{
			"inputs": [],
			"name": "INSUFFICIENT_ERC20_VALUE",
			"type": "error"
		},
		{
			"inputs": [],
			"name": "INSUFFICIENT_VALUE",
			"type": "error"
		},
		{
			"inputs": [],
			"name": "INVALID_ADDRESS",
			"type": "error"
		},
		{
			"inputs": [
				{
					"internalType": "uint8",
					"name": "hookIndex",
					"type": "uint8"
				}
			],
			"name": "INVALID_HOOK",
			"type": "error"
		},
		{
			"inputs": [],
			"name": "INVALID_LENGTH",
			"type": "error"
		},
		{
			"inputs": [],
			"name": "INVALID_TOKEN",
			"type": "error"
		},
		{
			"inputs": [],
			"name": "KEY_NOT_VALID",
			"type": "error"
		},
		{
			"inputs": [],
			"name": "KEY_TRANSFERS_DISABLED",
			"type": "error"
		},
		{
			"inputs": [],
			"name": "LOCK_HAS_CHANGED",
			"type": "error"
		},
		{
			"inputs": [],
			"name": "LOCK_SOLD_OUT",
			"type": "error"
		},
		{
			"inputs": [],
			"name": "MAX_KEYS_REACHED",
			"type": "error"
		},
		{
			"inputs": [],
			"name": "MIGRATION_REQUIRED",
			"type": "error"
		},
		{
			"inputs": [],
			"name": "NON_COMPLIANT_ERC721_RECEIVER",
			"type": "error"
		},
		{
			"inputs": [],
			"name": "NON_RENEWABLE_LOCK",
			"type": "error"
		},
		{
			"inputs": [],
			"name": "NOT_ENOUGH_FUNDS",
			"type": "error"
		},
		{
			"inputs": [],
			"name": "NOT_ENOUGH_TIME",
			"type": "error"
		},
		{
			"inputs": [],
			"name": "NOT_READY_FOR_RENEWAL",
			"type": "error"
		},
		{
			"inputs": [],
			"name": "NO_SUCH_KEY",
			"type": "error"
		},
		{
			"inputs": [],
			"name": "NULL_VALUE",
			"type": "error"
		},
		{
			"inputs": [],
			"name": "ONLY_KEY_MANAGER_OR_APPROVED",
			"type": "error"
		},
		{
			"inputs": [],
			"name": "ONLY_LOCK_MANAGER",
			"type": "error"
		},
		{
			"inputs": [],
			"name": "ONLY_LOCK_MANAGER_OR_KEY_GRANTER",
			"type": "error"
		},
		{
			"inputs": [],
			"name": "OUT_OF_RANGE",
			"type": "error"
		},
		{
			"inputs": [],
			"name": "OWNER_CANT_BE_ADDRESS_ZERO",
			"type": "error"
		},
		{
			"inputs": [],
			"name": "SCHEMA_VERSION_NOT_CORRECT",
			"type": "error"
		},
		{
			"inputs": [],
			"name": "TRANSFER_TO_SELF",
			"type": "error"
		},
		{
			"inputs": [],
			"name": "TransferFailed",
			"type": "error"
		},
		{
			"inputs": [],
			"name": "UNAUTHORIZED",
			"type": "error"
		},
		{
			"inputs": [],
			"name": "UNAUTHORIZED_KEY_MANAGER_UPDATE",
			"type": "error"
		},
		{
			"anonymous": false,
			"inputs": [
				{
					"indexed": true,
					"internalType": "address",
					"name": "owner",
					"type": "address"
				},
				{
					"indexed": true,
					"internalType": "address",
					"name": "approved",
					"type": "address"
				},
				{
					"indexed": true,
					"internalType": "uint256",
					"name": "tokenId",
					"type": "uint256"
				}
			],
			"name": "Approval",
			"type": "event"
		},
		{
			"anonymous": false,
			"inputs": [
				{
					"indexed": true,
					"internalType": "address",
					"name": "owner",
					"type": "address"
				},
				{
					"indexed": true,
					"internalType": "address",
					"name": "operator",
					"type": "address"
				},
				{
					"indexed": false,
					"internalType": "bool",
					"name": "approved",
					"type": "bool"
				}
			],
			"name": "ApprovalForAll",
			"type": "event"
		},
		{
			"anonymous": false,
			"inputs": [
				{
					"indexed": true,
					"internalType": "uint256",
					"name": "tokenId",
					"type": "uint256"
				},
				{
					"indexed": true,
					"internalType": "address",
					"name": "owner",
					"type": "address"
				},
				{
					"indexed": true,
					"internalType": "address",
					"name": "sendTo",
					"type": "address"
				},
				{
					"indexed": false,
					"internalType": "uint256",
					"name": "refund",
					"type": "uint256"
				}
			],
			"name": "CancelKey",
			"type": "event"
		},
		{
			"anonymous": false,
			"inputs": [
				{
					"indexed": false,
					"internalType": "address",
					"name": "onKeyPurchaseHook",
					"type": "address"
				},
				{
					"indexed": false,
					"internalType": "address",
					"name": "onKeyCancelHook",
					"type": "address"
				},
				{
					"indexed": false,
					"internalType": "address",
					"name": "onValidKeyHook",
					"type": "address"
				},
				{
					"indexed": false,
					"internalType": "address",
					"name": "onTokenURIHook",
					"type": "address"
				},
				{
					"indexed": false,
					"internalType": "address",
					"name": "onKeyTransferHook",
					"type": "address"
				},
				{
					"indexed": false,
					"internalType": "address",
					"name": "onKeyExtendHook",
					"type": "address"
				},
				{
					"indexed": false,
					"internalType": "address",
					"name": "onKeyGrantHook",
					"type": "address"
				}
			],
			"name": "EventHooksUpdated",
			"type": "event"
		},
		{
			"anonymous": false,
			"inputs": [
				{
					"indexed": true,
					"internalType": "uint256",
					"name": "tokenId",
					"type": "uint256"
				},
				{
					"indexed": false,
					"internalType": "uint256",
					"name": "newExpiration",
					"type": "uint256"
				},
				{
					"indexed": false,
					"internalType": "uint256",
					"name": "amount",
					"type": "uint256"
				},
				{
					"indexed": false,
					"internalType": "bool",
					"name": "timeAdded",
					"type": "bool"
				}
			],
			"name": "ExpirationChanged",
			"type": "event"
		},
		{
			"anonymous": false,
			"inputs": [
				{
					"indexed": true,
					"internalType": "uint256",
					"name": "tokenId",
					"type": "uint256"
				}
			],
			"name": "ExpireKey",
			"type": "event"
		},
		{
			"anonymous": false,
			"inputs": [
				{
					"indexed": false,
					"internalType": "uint256",
					"name": "refundValue",
					"type": "uint256"
				}
			],
			"name": "GasRefundValueChanged",
			"type": "event"
		},
		{
			"anonymous": false,
			"inputs": [
				{
					"indexed": true,
					"internalType": "address",
					"name": "receiver",
					"type": "address"
				},
				{
					"indexed": false,
					"internalType": "uint256",
					"name": "refundedAmount",
					"type": "uint256"
				},
				{
					"indexed": false,
					"internalType": "address",
					"name": "tokenAddress",
					"type": "address"
				}
			],
			"name": "GasRefunded",
			"type": "event"
		},
		{
			"anonymous": false,
			"inputs": [
				{
					"indexed": false,
					"internalType": "uint8",
					"name": "version",
					"type": "uint8"
				}
			],
			"name": "Initialized",
			"type": "event"
		},
		{
			"anonymous": false,
			"inputs": [
				{
					"indexed": true,
					"internalType": "uint256",
					"name": "tokenId",
					"type": "uint256"
				},
				{
					"indexed": false,
					"internalType": "uint256",
					"name": "newTimestamp",
					"type": "uint256"
				}
			],
			"name": "KeyExtended",
			"type": "event"
		},
		{
			"anonymous": false,
			"inputs": [
				{
					"indexed": true,
					"internalType": "address",
					"name": "account",
					"type": "address"
				}
			],
			"name": "KeyGranterAdded",
			"type": "event"
		},
		{
			"anonymous": false,
			"inputs": [
				{
					"indexed": true,
					"internalType": "address",
					"name": "account",
					"type": "address"
				}
			],
			"name": "KeyGranterRemoved",
			"type": "event"
		},
		{
			"anonymous": false,
			"inputs": [
				{
					"indexed": true,
					"internalType": "uint256",
					"name": "_tokenId",
					"type": "uint256"
				},
				{
					"indexed": true,
					"internalType": "address",
					"name": "_newManager",
					"type": "address"
				}
			],
			"name": "KeyManagerChanged",
			"type": "event"
		},
		{
			"anonymous": false,
			"inputs": [
				{
					"indexed": false,
					"internalType": "uint256",
					"name": "updatedRecordsCount",
					"type": "uint256"
				}
			],
			"name": "KeysMigrated",
			"type": "event"
		},
		{
			"anonymous": false,
			"inputs": [
				{
					"indexed": false,
					"internalType": "uint256",
					"name": "expirationDuration",
					"type": "uint256"
				},
				{
					"indexed": false,
					"internalType": "uint256",
					"name": "maxNumberOfKeys",
					"type": "uint256"
				},
				{
					"indexed": false,
					"internalType": "uint256",
					"name": "maxKeysPerAcccount",
					"type": "uint256"
				}
			],
			"name": "LockConfig",
			"type": "event"
		},
		{
			"anonymous": false,
			"inputs": [
				{
					"indexed": true,
					"internalType": "address",
					"name": "account",
					"type": "address"
				}
			],
			"name": "LockManagerAdded",
			"type": "event"
		},
		{
			"anonymous": false,
			"inputs": [
				{
					"indexed": true,
					"internalType": "address",
					"name": "account",
					"type": "address"
				}
			],
			"name": "LockManagerRemoved",
			"type": "event"
		},
		{
			"anonymous": false,
			"inputs": [
				{
					"indexed": false,
					"internalType": "uint256",
					"name": "oldKeyPrice",
					"type": "uint256"
				},
				{
					"indexed": false,
					"internalType": "uint256",
					"name": "keyPrice",
					"type": "uint256"
				},
				{
					"indexed": false,
					"internalType": "address",
					"name": "oldTokenAddress",
					"type": "address"
				},
				{
					"indexed": false,
					"internalType": "address",
					"name": "tokenAddress",
					"type": "address"
				}
			],
			"name": "PricingChanged",
			"type": "event"
		},
		{
			"anonymous": false,
			"inputs": [
				{
					"indexed": true,
					"internalType": "address",
					"name": "referrer",
					"type": "address"
				},
				{
					"indexed": false,
					"internalType": "uint256",
					"name": "fee",
					"type": "uint256"
				}
			],
			"name": "ReferrerFee",
			"type": "event"
		},
		{
			"anonymous": false,
			"inputs": [
				{
					"indexed": false,
					"internalType": "uint256",
					"name": "freeTrialLength",
					"type": "uint256"
				},
				{
					"indexed": false,
					"internalType": "uint256",
					"name": "refundPenaltyBasisPoints",
					"type": "uint256"
				}
			],
			"name": "RefundPenaltyChanged",
			"type": "event"
		},
		{
			"anonymous": false,
			"inputs": [
				{
					"indexed": true,
					"internalType": "bytes32",
					"name": "role",
					"type": "bytes32"
				},
				{
					"indexed": true,
					"internalType": "bytes32",
					"name": "previousAdminRole",
					"type": "bytes32"
				},
				{
					"indexed": true,
					"internalType": "bytes32",
					"name": "newAdminRole",
					"type": "bytes32"
				}
			],
			"name": "RoleAdminChanged",
			"type": "event"
		},
		{
			"anonymous": false,
			"inputs": [
				{
					"indexed": true,
					"internalType": "bytes32",
					"name": "role",
					"type": "bytes32"
				},
				{
					"indexed": true,
					"internalType": "address",
					"name": "account",
					"type": "address"
				},
				{
					"indexed": true,
					"internalType": "address",
					"name": "sender",
					"type": "address"
				}
			],
			"name": "RoleGranted",
			"type": "event"
		},
		{
			"anonymous": false,
			"inputs": [
				{
					"indexed": true,
					"internalType": "bytes32",
					"name": "role",
					"type": "bytes32"
				},
				{
					"indexed": true,
					"internalType": "address",
					"name": "account",
					"type": "address"
				},
				{
					"indexed": true,
					"internalType": "address",
					"name": "sender",
					"type": "address"
				}
			],
			"name": "RoleRevoked",
			"type": "event"
		},
		{
			"anonymous": false,
			"inputs": [
				{
					"indexed": true,
					"internalType": "address",
					"name": "from",
					"type": "address"
				},
				{
					"indexed": true,
					"internalType": "address",
					"name": "to",
					"type": "address"
				},
				{
					"indexed": true,
					"internalType": "uint256",
					"name": "tokenId",
					"type": "uint256"
				}
			],
			"name": "Transfer",
			"type": "event"
		},
		{
			"anonymous": false,
			"inputs": [
				{
					"indexed": true,
					"internalType": "address",
					"name": "lockAddress",
					"type": "address"
				},
				{
					"indexed": false,
					"internalType": "address",
					"name": "unlockAddress",
					"type": "address"
				}
			],
			"name": "UnlockCallFailed",
			"type": "event"
		},
		{
			"anonymous": false,
			"inputs": [
				{
					"indexed": true,
					"internalType": "address",
					"name": "sender",
					"type": "address"
				},
				{
					"indexed": true,
					"internalType": "address",
					"name": "tokenAddress",
					"type": "address"
				},
				{
					"indexed": true,
					"internalType": "address",
					"name": "recipient",
					"type": "address"
				},
				{
					"indexed": false,
					"internalType": "uint256",
					"name": "amount",
					"type": "uint256"
				}
			],
			"name": "Withdrawal",
			"type": "event"
		},
		{
			"inputs": [],
			"name": "DEFAULT_ADMIN_ROLE",
			"outputs": [
				{
					"internalType": "bytes32",
					"name": "",
					"type": "bytes32"
				}
			],
			"stateMutability": "view",
			"type": "function"
		},
		{
			"inputs": [
				{
					"internalType": "address",
					"name": "account",
					"type": "address"
				}
			],
			"name": "addLockManager",
			"outputs": [],
			"stateMutability": "nonpayable",
			"type": "function"
		},
		{
			"inputs": [
				{
					"internalType": "address",
					"name": "_approved",
					"type": "address"
				},
				{
					"internalType": "uint256",
					"name": "_tokenId",
					"type": "uint256"
				}
			],
			"name": "approve",
			"outputs": [],
			"stateMutability": "nonpayable",
			"type": "function"
		},
		{
			"inputs": [
				{
					"internalType": "address",
					"name": "_keyOwner",
					"type": "address"
				}
			],
			"name": "balanceOf",
			"outputs": [
				{
					"internalType": "uint256",
					"name": "balance",
					"type": "uint256"
				}
			],
			"stateMutability": "view",
			"type": "function"
		},
		{
			"inputs": [
				{
					"internalType": "uint256",
					"name": "_tokenId",
					"type": "uint256"
				}
			],
			"name": "burn",
			"outputs": [],
			"stateMutability": "nonpayable",
			"type": "function"
		},
		{
			"inputs": [
				{
					"internalType": "uint256",
					"name": "_tokenId",
					"type": "uint256"
				}
			],
			"name": "cancelAndRefund",
			"outputs": [],
			"stateMutability": "nonpayable",
			"type": "function"
		},
		{
			"inputs": [],
			"name": "expirationDuration",
			"outputs": [
				{
					"internalType": "uint256",
					"name": "",
					"type": "uint256"
				}
			],
			"stateMutability": "view",
			"type": "function"
		},
		{
			"inputs": [
				{
					"internalType": "uint256",
					"name": "_tokenId",
					"type": "uint256"
				},
				{
					"internalType": "uint256",
					"name": "_amount",
					"type": "uint256"
				}
			],
			"name": "expireAndRefundFor",
			"outputs": [],
			"stateMutability": "nonpayable",
			"type": "function"
		},
		{
			"inputs": [
				{
					"internalType": "uint256",
					"name": "_value",
					"type": "uint256"
				},
				{
					"internalType": "uint256",
					"name": "_tokenId",
					"type": "uint256"
				},
				{
					"internalType": "address",
					"name": "_referrer",
					"type": "address"
				},
				{
					"internalType": "bytes",
					"name": "_data",
					"type": "bytes"
				}
			],
			"name": "extend",
			"outputs": [],
			"stateMutability": "payable",
			"type": "function"
		},
		{
			"inputs": [],
			"name": "freeTrialLength",
			"outputs": [
				{
					"internalType": "uint256",
					"name": "",
					"type": "uint256"
				}
			],
			"stateMutability": "view",
			"type": "function"
		},
		{
			"inputs": [],
			"name": "gasRefundValue",
			"outputs": [
				{
					"internalType": "uint256",
					"name": "_refundValue",
					"type": "uint256"
				}
			],
			"stateMutability": "view",
			"type": "function"
		},
		{
			"inputs": [
				{
					"internalType": "uint256",
					"name": "_tokenId",
					"type": "uint256"
				}
			],
			"name": "getApproved",
			"outputs": [
				{
					"internalType": "address",
					"name": "",
					"type": "address"
				}
			],
			"stateMutability": "view",
			"type": "function"
		},
		{
			"inputs": [
				{
					"internalType": "uint256",
					"name": "_tokenId",
					"type": "uint256"
				}
			],
			"name": "getCancelAndRefundValue",
			"outputs": [
				{
					"internalType": "uint256",
					"name": "refund",
					"type": "uint256"
				}
			],
			"stateMutability": "view",
			"type": "function"
		},
		{
			"inputs": [
				{
					"internalType": "address",
					"name": "_keyOwner",
					"type": "address"
				}
			],
			"name": "getHasValidKey",
			"outputs": [
				{
					"internalType": "bool",
					"name": "isValid",
					"type": "bool"
				}
			],
			"stateMutability": "view",
			"type": "function"
		},
		{
			"inputs": [
				{
					"internalType": "bytes32",
					"name": "role",
					"type": "bytes32"
				}
			],
			"name": "getRoleAdmin",
			"outputs": [
				{
					"internalType": "bytes32",
					"name": "",
					"type": "bytes32"
				}
			],
			"stateMutability": "view",
			"type": "function"
		},
		{
			"inputs": [
				{
					"internalType": "bytes32",
					"name": "role",
					"type": "bytes32"
				},
				{
					"internalType": "address",
					"name": "account",
					"type": "address"
				}
			],
			"name": "grantRole",
			"outputs": [],
			"stateMutability": "nonpayable",
			"type": "function"
		},
		{
			"inputs": [
				{
					"internalType": "bytes32",
					"name": "role",
					"type": "bytes32"
				},
				{
					"internalType": "address",
					"name": "account",
					"type": "address"
				}
			],
			"name": "hasRole",
			"outputs": [
				{
					"internalType": "bool",
					"name": "",
					"type": "bool"
				}
			],
			"stateMutability": "view",
			"type": "function"
		},
		{
			"inputs": [
				{
					"internalType": "address",
					"name": "_owner",
					"type": "address"
				},
				{
					"internalType": "address",
					"name": "_operator",
					"type": "address"
				}
			],
			"name": "isApprovedForAll",
			"outputs": [
				{
					"internalType": "bool",
					"name": "",
					"type": "bool"
				}
			],
			"stateMutability": "view",
			"type": "function"
		},
		{
			"inputs": [
				{
					"internalType": "address",
					"name": "account",
					"type": "address"
				}
			],
			"name": "isLockManager",
			"outputs": [
				{
					"internalType": "bool",
					"name": "",
					"type": "bool"
				}
			],
			"stateMutability": "view",
			"type": "function"
		},
		{
			"inputs": [
				{
					"internalType": "uint256",
					"name": "_tokenId",
					"type": "uint256"
				},
				{
					"internalType": "address",
					"name": "_referrer",
					"type": "address"
				}
			],
			"name": "isRenewable",
			"outputs": [
				{
					"internalType": "bool",
					"name": "",
					"type": "bool"
				}
			],
			"stateMutability": "view",
			"type": "function"
		},
		{
			"inputs": [
				{
					"internalType": "uint256",
					"name": "_tokenId",
					"type": "uint256"
				}
			],
			"name": "isValidKey",
			"outputs": [
				{
					"internalType": "bool",
					"name": "",
					"type": "bool"
				}
			],
			"stateMutability": "view",
			"type": "function"
		},
		{
			"inputs": [
				{
					"internalType": "uint256",
					"name": "_tokenId",
					"type": "uint256"
				}
			],
			"name": "keyExpirationTimestampFor",
			"outputs": [
				{
					"internalType": "uint256",
					"name": "",
					"type": "uint256"
				}
			],
			"stateMutability": "view",
			"type": "function"
		},
		{
			"inputs": [
				{
					"internalType": "uint256",
					"name": "",
					"type": "uint256"
				}
			],
			"name": "keyManagerOf",
			"outputs": [
				{
					"internalType": "address",
					"name": "",
					"type": "address"
				}
			],
			"stateMutability": "view",
			"type": "function"
		},
		{
			"inputs": [],
			"name": "keyPrice",
			"outputs": [
				{
					"internalType": "uint256",
					"name": "",
					"type": "uint256"
				}
			],
			"stateMutability": "view",
			"type": "function"
		},
		{
			"inputs": [],
			"name": "maxKeysPerAddress",
			"outputs": [
				{
					"internalType": "uint256",
					"name": "",
					"type": "uint256"
				}
			],
			"stateMutability": "view",
			"type": "function"
		},
		{
			"inputs": [],
			"name": "maxNumberOfKeys",
			"outputs": [
				{
					"internalType": "uint256",
					"name": "",
					"type": "uint256"
				}
			],
			"stateMutability": "view",
			"type": "function"
		},
		{
			"inputs": [
				{
					"internalType": "uint256",
					"name": "_tokenIdFrom",
					"type": "uint256"
				},
				{
					"internalType": "uint256",
					"name": "_tokenIdTo",
					"type": "uint256"
				},
				{
					"internalType": "uint256",
					"name": "_amount",
					"type": "uint256"
				}
			],
			"name": "mergeKeys",
			"outputs": [],
			"stateMutability": "nonpayable",
			"type": "function"
		},
		{
			"inputs": [
				{
					"internalType": "bytes",
					"name": "",
					"type": "bytes"
				}
			],
			"name": "migrate",
			"outputs": [],
			"stateMutability": "nonpayable",
			"type": "function"
		},
		{
			"inputs": [],
			"name": "numberOfOwners",
			"outputs": [
				{
					"internalType": "uint256",
					"name": "",
					"type": "uint256"
				}
			],
			"stateMutability": "view",
			"type": "function"
		},
		{
			"inputs": [],
			"name": "onKeyCancelHook",
			"outputs": [
				{
					"internalType": "contract ILockKeyCancelHook",
					"name": "",
					"type": "address"
				}
			],
			"stateMutability": "view",
			"type": "function"
		},
		{
			"inputs": [],
			"name": "onKeyExtendHook",
			"outputs": [
				{
					"internalType": "contract ILockKeyExtendHook",
					"name": "",
					"type": "address"
				}
			],
			"stateMutability": "view",
			"type": "function"
		},
		{
			"inputs": [],
			"name": "onKeyGrantHook",
			"outputs": [
				{
					"internalType": "contract ILockKeyGrantHook",
					"name": "",
					"type": "address"
				}
			],
			"stateMutability": "view",
			"type": "function"
		},
		{
			"inputs": [],
			"name": "onKeyPurchaseHook",
			"outputs": [
				{
					"internalType": "contract ILockKeyPurchaseHook",
					"name": "",
					"type": "address"
				}
			],
			"stateMutability": "view",
			"type": "function"
		},
		{
			"inputs": [],
			"name": "onKeyTransferHook",
			"outputs": [
				{
					"internalType": "contract ILockKeyTransferHook",
					"name": "",
					"type": "address"
				}
			],
			"stateMutability": "view",
			"type": "function"
		},
		{
			"inputs": [],
			"name": "onTokenURIHook",
			"outputs": [
				{
					"internalType": "contract ILockTokenURIHook",
					"name": "",
					"type": "address"
				}
			],
			"stateMutability": "view",
			"type": "function"
		},
		{
			"inputs": [],
			"name": "onValidKeyHook",
			"outputs": [
				{
					"internalType": "contract ILockValidKeyHook",
					"name": "",
					"type": "address"
				}
			],
			"stateMutability": "view",
			"type": "function"
		},
		{
			"inputs": [
				{
					"internalType": "uint256",
					"name": "_tokenId",
					"type": "uint256"
				}
			],
			"name": "ownerOf",
			"outputs": [
				{
					"internalType": "address",
					"name": "",
					"type": "address"
				}
			],
			"stateMutability": "view",
			"type": "function"
		},
		{
			"inputs": [],
			"name": "publicLockVersion",
			"outputs": [
				{
					"internalType": "uint16",
					"name": "",
					"type": "uint16"
				}
			],
			"stateMutability": "pure",
			"type": "function"
		},
		{
			"inputs": [
				{
					"internalType": "uint256[]",
					"name": "_values",
					"type": "uint256[]"
				},
				{
					"internalType": "address[]",
					"name": "_recipients",
					"type": "address[]"
				},
				{
					"internalType": "address[]",
					"name": "_referrers",
					"type": "address[]"
				},
				{
					"internalType": "address[]",
					"name": "_keyManagers",
					"type": "address[]"
				},
				{
					"internalType": "bytes[]",
					"name": "_data",
					"type": "bytes[]"
				}
			],
			"name": "purchase",
			"outputs": [
				{
					"internalType": "uint256[]",
					"name": "",
					"type": "uint256[]"
				}
			],
			"stateMutability": "payable",
			"type": "function"
		},
		{
			"inputs": [
				{
					"internalType": "address",
					"name": "_recipient",
					"type": "address"
				},
				{
					"internalType": "address",
					"name": "_referrer",
					"type": "address"
				},
				{
					"internalType": "bytes",
					"name": "_data",
					"type": "bytes"
				}
			],
			"name": "purchasePriceFor",
			"outputs": [
				{
					"internalType": "uint256",
					"name": "minKeyPrice",
					"type": "uint256"
				}
			],
			"stateMutability": "view",
			"type": "function"
		},
		{
			"inputs": [
				{
					"internalType": "address",
					"name": "",
					"type": "address"
				}
			],
			"name": "referrerFees",
			"outputs": [
				{
					"internalType": "uint256",
					"name": "",
					"type": "uint256"
				}
			],
			"stateMutability": "view",
			"type": "function"
		},
		{
			"inputs": [],
			"name": "refundPenaltyBasisPoints",
			"outputs": [
				{
					"internalType": "uint256",
					"name": "",
					"type": "uint256"
				}
			],
			"stateMutability": "view",
			"type": "function"
		},
		{
			"inputs": [
				{
					"internalType": "uint256",
					"name": "_tokenId",
					"type": "uint256"
				},
				{
					"internalType": "address",
					"name": "_referrer",
					"type": "address"
				}
			],
			"name": "renewMembershipFor",
			"outputs": [],
			"stateMutability": "nonpayable",
			"type": "function"
		},
		{
			"inputs": [],
			"name": "renounceLockManager",
			"outputs": [],
			"stateMutability": "nonpayable",
			"type": "function"
		},
		{
			"inputs": [
				{
					"internalType": "bytes32",
					"name": "role",
					"type": "bytes32"
				},
				{
					"internalType": "address",
					"name": "account",
					"type": "address"
				}
			],
			"name": "renounceRole",
			"outputs": [],
			"stateMutability": "nonpayable",
			"type": "function"
		},
		{
			"inputs": [
				{
					"internalType": "bytes32",
					"name": "role",
					"type": "bytes32"
				},
				{
					"internalType": "address",
					"name": "account",
					"type": "address"
				}
			],
			"name": "revokeRole",
			"outputs": [],
			"stateMutability": "nonpayable",
			"type": "function"
		},
		{
			"inputs": [],
			"name": "schemaVersion",
			"outputs": [
				{
					"internalType": "uint256",
					"name": "",
					"type": "uint256"
				}
			],
			"stateMutability": "view",
			"type": "function"
		},
		{
			"inputs": [
				{
					"internalType": "address",
					"name": "_onKeyPurchaseHook",
					"type": "address"
				},
				{
					"internalType": "address",
					"name": "_onKeyCancelHook",
					"type": "address"
				},
				{
					"internalType": "address",
					"name": "_onValidKeyHook",
					"type": "address"
				},
				{
					"internalType": "address",
					"name": "_onTokenURIHook",
					"type": "address"
				},
				{
					"internalType": "address",
					"name": "_onKeyTransferHook",
					"type": "address"
				},
				{
					"internalType": "address",
					"name": "_onKeyExtendHook",
					"type": "address"
				},
				{
					"internalType": "address",
					"name": "_onKeyGrantHook",
					"type": "address"
				}
			],
			"name": "setEventHooks",
			"outputs": [],
			"stateMutability": "nonpayable",
			"type": "function"
		},
		{
			"inputs": [
				{
					"internalType": "uint256",
					"name": "_refundValue",
					"type": "uint256"
				}
			],
			"name": "setGasRefundValue",
			"outputs": [],
			"stateMutability": "nonpayable",
			"type": "function"
		},
		{
			"inputs": [
				{
					"internalType": "uint256",
					"name": "_tokenId",
					"type": "uint256"
				},
				{
					"internalType": "address",
					"name": "_keyManager",
					"type": "address"
				}
			],
			"name": "setKeyManagerOf",
			"outputs": [],
			"stateMutability": "nonpayable",
			"type": "function"
		},
		{
			"inputs": [
				{
					"internalType": "address",
					"name": "_referrer",
					"type": "address"
				},
				{
					"internalType": "uint256",
					"name": "_feeBasisPoint",
					"type": "uint256"
				}
			],
			"name": "setReferrerFee",
			"outputs": [],
			"stateMutability": "nonpayable",
			"type": "function"
		},
		{
			"inputs": [
				{
					"internalType": "bytes4",
					"name": "interfaceId",
					"type": "bytes4"
				}
			],
			"name": "supportsInterface",
			"outputs": [
				{
					"internalType": "bool",
					"name": "",
					"type": "bool"
				}
			],
			"stateMutability": "view",
			"type": "function"
		},
		{
			"inputs": [],
			"name": "tokenAddress",
			"outputs": [
				{
					"internalType": "address",
					"name": "",
					"type": "address"
				}
			],
			"stateMutability": "view",
			"type": "function"
		},
		{
			"inputs": [
				{
					"internalType": "address",
					"name": "_keyOwner",
					"type": "address"
				},
				{
					"internalType": "uint256",
					"name": "_index",
					"type": "uint256"
				}
			],
			"name": "tokenOfOwnerByIndex",
			"outputs": [
				{
					"internalType": "uint256",
					"name": "",
					"type": "uint256"
				}
			],
			"stateMutability": "view",
			"type": "function"
		},
		{
			"inputs": [
				{
					"internalType": "address",
					"name": "_keyOwner",
					"type": "address"
				}
			],
			"name": "totalKeys",
			"outputs": [
				{
					"internalType": "uint256",
					"name": "",
					"type": "uint256"
				}
			],
			"stateMutability": "view",
			"type": "function"
		},
		{
			"inputs": [],
			"name": "totalSupply",
			"outputs": [
				{
					"internalType": "uint256",
					"name": "",
					"type": "uint256"
				}
			],
			"stateMutability": "view",
			"type": "function"
		},
		{
			"inputs": [],
			"name": "unlockProtocol",
			"outputs": [
				{
					"internalType": "contract IUnlock",
					"name": "",
					"type": "address"
				}
			],
			"stateMutability": "view",
			"type": "function"
		},
		{
			"inputs": [
				{
					"internalType": "uint256",
					"name": "_keyPrice",
					"type": "uint256"
				},
				{
					"internalType": "address",
					"name": "_tokenAddress",
					"type": "address"
				}
			],
			"name": "updateKeyPricing",
			"outputs": [],
			"stateMutability": "nonpayable",
			"type": "function"
		},
		{
			"inputs": [
				{
					"internalType": "uint256",
					"name": "_newExpirationDuration",
					"type": "uint256"
				},
				{
					"internalType": "uint256",
					"name": "_maxNumberOfKeys",
					"type": "uint256"
				},
				{
					"internalType": "uint256",
					"name": "_maxKeysPerAcccount",
					"type": "uint256"
				}
			],
			"name": "updateLockConfig",
			"outputs": [],
			"stateMutability": "nonpayable",
			"type": "function"
		},
		{
			"inputs": [
				{
					"internalType": "uint256",
					"name": "_freeTrialLength",
					"type": "uint256"
				},
				{
					"internalType": "uint256",
					"name": "_refundPenaltyBasisPoints",
					"type": "uint256"
				}
			],
			"name": "updateRefundPenalty",
			"outputs": [],
			"stateMutability": "nonpayable",
			"type": "function"
		},
		{
			"inputs": [],
			"name": "updateSchemaVersion",
			"outputs": [],
			"stateMutability": "nonpayable",
			"type": "function"
		},
		{
			"inputs": [
				{
					"internalType": "address",
					"name": "_tokenAddress",
					"type": "address"
				},
				{
					"internalType": "address payable",
					"name": "_recipient",
					"type": "address"
				},
				{
					"internalType": "uint256",
					"name": "_amount",
					"type": "uint256"
				}
			],
			"name": "withdraw",
			"outputs": [],
			"stateMutability": "nonpayable",
			"type": "function"
		}
	]
}