{
	"data": {
		"bytecode": {
			"linkReferences": {},
			"object": "60806040523480156200001157600080fd5b5061aaa080620000226000396000f3fe6080604052600436106104985760003560e01c806370a0823111610260578063b11d7ec111610144578063d32bfb6c116100c1578063debe2b0d11610085578063debe2b0d146112dd578063e985e9c514611306578063f0ba604014611343578063f12c6b6e1461135a578063f32e8b2414611383578063f5766b391461139a5761049f565b8063d32bfb6c1461121b578063d52e4a1014611244578063d547741f1461126f578063d813cc1914611298578063d9caed12146112b45761049f565b8063c87b56dd11610108578063c87b56dd14611136578063c907c3ec14611173578063d1b8759b1461119e578063d1bbd49c146111c7578063d2503485146111f25761049f565b8063b11d7ec11461103f578063b129694e14611068578063b1a3b25d14611093578063b88d4fde146110d0578063c23135dd146110f95761049f565b806391d14854116101dd578063a217fddf116101a1578063a217fddf14610f1d578063a22cb46514610f48578063a2e4cd2e14610f71578063a375cb0514610f9a578063a98d362314610fc5578063aae4b8f7146110025761049f565b806391d1485414610e2257806392ac98a514610e5f57806393fd184414610e9c57806395d89b4114610ec75780639d76ea5814610ef25761049f565b806381a3c9431161022457806381a3c94314610d3f5780638505fe9514610d7c5780638577a6d514610da55780638932a90d14610dce5780638da5cb5b14610df75761049f565b806370a0823114610c4657806374b6c10614610c8357806374cac47d14610cae5780637ec2a72414610cd7578063812eecd414610d025761049f565b80632f54bf6e116103875780634d025fed11610304578063558b71e9116102c8578063558b71e914610b2457806356e0d51f14610b4d5780636207a8da14610b785780636352211e14610ba35780636d8ea5b414610be05780636eadde4314610c1d5761049f565b80634d025fed14610a055780634e2ce6d314610a425780634f6ccce714610a6d57806350878a4714610aaa57806354b249fb14610ae75761049f565b806339f469861161034b57806339f4698614610938578063407dc5891461096157806342842e0e1461098a57806342966c68146109b35780634cd38c1d146109dc5761049f565b80632f54bf6e1461083a5780632f745c591461087757806333818997146108b457806336568abe146108e4578063389f07e81461090d5761049f565b806313af403511610415578063248a9ca3116103d9578063248a9ca31461075557806326e9ca0714610792578063282478df146107bd5780632d33dd5b146107e65780632f2ff15d146108115761049f565b806313af40351461068257806318160ddd146106ab578063183767da146106d6578063217751bc1461070157806323b872dd1461072c5761049f565b8063097ba3331161045c578063097ba3331461059b5780630c2db8d1146105d85780630f15023b1461060157806310e569731461062c57806311a4c03a146106575761049f565b806301ffc9a7146104a4578063068208cd146104e157806306fdde031461050a578063081812fc14610535578063095ea7b3146105725761049f565b3661049f57005b600080fd5b3480156104b057600080fd5b506104cb60048036038101906104c69190617f1b565b6113c3565b6040516104d89190617f63565b60405180910390f35b3480156104ed57600080fd5b5061050860048036038101906105039190617fb4565b6113d5565b005b34801561051657600080fd5b5061051f611463565b60405161052c9190618097565b60405180910390f35b34801561054157600080fd5b5061055c600480360381019061055791906180b9565b6114f2565b6040516105699190618127565b60405180910390f35b34801561057e57600080fd5b506105996004803603810190610594919061816e565b61153f565b005b3480156105a757600080fd5b506105c260048036038101906105bd91906182e3565b611693565b6040516105cf9190618361565b60405180910390f35b3480156105e457600080fd5b506105ff60048036038101906105fa919061837c565b6117a3565b005b34801561060d57600080fd5b50610616611846565b604051610623919061842e565b60405180910390f35b34801561063857600080fd5b5061064161186d565b60405161064e9190618361565b60405180910390f35b34801561066357600080fd5b5061066c611874565b6040516106799190618361565b60405180910390f35b34801561068e57600080fd5b506106a960048036038101906106a49190618449565b61187b565b005b3480156106b757600080fd5b506106c0611990565b6040516106cd9190618361565b60405180910390f35b3480156106e257600080fd5b506106eb61199b565b6040516106f89190618361565b60405180910390f35b34801561070d57600080fd5b506107166119a2565b6040516107239190618497565b60405180910390f35b34801561073857600080fd5b50610753600480360381019061074e919061837c565b6119c9565b005b34801561076157600080fd5b5061077c600480360381019061077791906184e8565b611a36565b6040516107899190618524565b60405180910390f35b34801561079e57600080fd5b506107a7611a56565b6040516107b49190618560565b60405180910390f35b3480156107c957600080fd5b506107e460048036038101906107df9190617fb4565b611a7d565b005b3480156107f257600080fd5b506107fb611b57565b604051610808919061859c565b60405180910390f35b34801561081d57600080fd5b50610838600480360381019061083391906185b7565b611b7e565b005b34801561084657600080fd5b50610861600480360381019061085c9190618449565b611b9f565b60405161086e9190617f63565b60405180910390f35b34801561088357600080fd5b5061089e6004803603810190610899919061816e565b611bfa565b6040516108ab9190618361565b60405180910390f35b6108ce60048036038101906108c991906187dd565b611c97565b6040516108db91906189a5565b60405180910390f35b3480156108f057600080fd5b5061090b600480360381019061090691906185b7565b612201565b005b34801561091957600080fd5b50610922612284565b60405161092f91906189e8565b60405180910390f35b34801561094457600080fd5b5061095f600480360381019061095a9190618a03565b6122ab565b005b34801561096d57600080fd5b506109886004803603810190610983919061816e565b612300565b005b34801561099657600080fd5b506109b160048036038101906109ac919061837c565b6123b0565b005b3480156109bf57600080fd5b506109da60048036038101906109d591906180b9565b6123d0565b005b3480156109e857600080fd5b50610a0360048036038101906109fe9190618a03565b6124d2565b005b348015610a1157600080fd5b50610a2c6004803603810190610a2791906180b9565b612566565b604051610a399190618127565b60405180910390f35b348015610a4e57600080fd5b50610a5761259a565b604051610a649190618361565b60405180910390f35b348015610a7957600080fd5b50610a946004803603810190610a8f91906180b9565b6125a1565b604051610aa19190618361565b60405180910390f35b348015610ab657600080fd5b50610ad16004803603810190610acc9190618a43565b6125e7565b604051610ade9190617f63565b60405180910390f35b348015610af357600080fd5b50610b0e6004803603810190610b0991906180b9565b612866565b604051610b1b9190618361565b60405180910390f35b348015610b3057600080fd5b50610b4b6004803603810190610b469190618a03565b612887565b005b348015610b5957600080fd5b50610b626128af565b604051610b6f9190618361565b60405180910390f35b348015610b8457600080fd5b50610b8d6128b6565b604051610b9a9190618361565b60405180910390f35b348015610baf57600080fd5b50610bca6004803603810190610bc591906180b9565b6128c1565b604051610bd79190618127565b60405180910390f35b348015610bec57600080fd5b50610c076004803603810190610c029190618449565b6128ff565b604051610c149190617f63565b60405180910390f35b348015610c2957600080fd5b50610c446004803603810190610c3f9190618b17565b612a2d565b005b348015610c5257600080fd5b50610c6d6004803603810190610c689190618449565b612bbb565b604051610c7a9190618361565b60405180910390f35b348015610c8f57600080fd5b50610c98612c14565b604051610ca59190618361565b60405180910390f35b348015610cba57600080fd5b50610cd56004803603810190610cd09190618bc6565b612c1b565b005b348015610ce357600080fd5b50610cec613281565b604051610cf99190618c89565b60405180910390f35b348015610d0e57600080fd5b50610d296004803603810190610d249190618449565b6132a8565b604051610d369190618361565b60405180910390f35b348015610d4b57600080fd5b50610d666004803603810190610d619190618d50565b613357565b604051610d7391906189a5565b60405180910390f35b348015610d8857600080fd5b50610da36004803603810190610d9e9190618a43565b613655565b005b348015610db157600080fd5b50610dcc6004803603810190610dc791906180b9565b6136c0565b005b348015610dda57600080fd5b50610df56004803603810190610df09190618e5a565b61370a565b005b348015610e0357600080fd5b50610e0c613850565b604051610e199190618127565b60405180910390f35b348015610e2e57600080fd5b50610e496004803603810190610e4491906185b7565b61387b565b604051610e569190617f63565b60405180910390f35b348015610e6b57600080fd5b50610e866004803603810190610e8191906180b9565b6138e6565b604051610e939190618361565b60405180910390f35b348015610ea857600080fd5b50610eb16139f4565b604051610ebe9190618361565b60405180910390f35b348015610ed357600080fd5b50610edc6139fb565b604051610ee99190618097565b60405180910390f35b348015610efe57600080fd5b50610f07613b44565b604051610f149190618127565b60405180910390f35b348015610f2957600080fd5b50610f32613b6b565b604051610f3f9190618524565b60405180910390f35b348015610f5457600080fd5b50610f6f6004803603810190610f6a9190618ed3565b613b72565b005b348015610f7d57600080fd5b50610f986004803603810190610f939190618a43565b613cdd565b005b348015610fa657600080fd5b50610faf613dd1565b604051610fbc9190618361565b60405180910390f35b348015610fd157600080fd5b50610fec6004803603810190610fe791906180b9565b613dd8565b604051610ff99190617f63565b60405180910390f35b34801561100e57600080fd5b5061102960048036038101906110249190618449565b613f4c565b6040516110369190617f63565b60405180910390f35b34801561104b57600080fd5b5061106660048036038101906110619190618a43565b613f7f565b005b34801561107457600080fd5b5061107d613fea565b60405161108a9190618f34565b60405180910390f35b34801561109f57600080fd5b506110ba60048036038101906110b59190618a03565b614011565b6040516110c79190618361565b60405180910390f35b3480156110dc57600080fd5b506110f760048036038101906110f29190618f4f565b614082565b005b34801561110557600080fd5b50611120600480360381019061111b9190618449565b6140d5565b60405161112d9190618361565b60405180910390f35b34801561114257600080fd5b5061115d600480360381019061115891906180b9565b6140ee565b60405161116a9190618097565b60405180910390f35b34801561117f57600080fd5b50611188614428565b6040516111959190618ff3565b60405180910390f35b3480156111aa57600080fd5b506111c560048036038101906111c0919061900e565b61444f565b005b3480156111d357600080fd5b506111dc6144d9565b6040516111e991906190df565b60405180910390f35b3480156111fe57600080fd5b5061121960048036038101906112149190618449565b6144e2565b005b34801561122757600080fd5b50611242600480360381019061123d91906180b9565b61455a565b005b34801561125057600080fd5b50611259614590565b6040516112669190618361565b60405180910390f35b34801561127b57600080fd5b50611296600480360381019061129191906185b7565b61459b565b005b6112b260048036038101906112ad91906190fa565b6145bc565b005b3480156112c057600080fd5b506112db60048036038101906112d69190619182565b6146d6565b005b3480156112e957600080fd5b5061130460048036038101906112ff919061816e565b614880565b005b34801561131257600080fd5b5061132d600480360381019061132891906191d5565b61491f565b60405161133a9190617f63565b60405180910390f35b34801561134f57600080fd5b506113586149b4565b005b34801561136657600080fd5b50611381600480360381019061137c9190619215565b614a23565b005b34801561138f57600080fd5b50611398614c46565b005b3480156113a657600080fd5b506113c160048036038101906113bc91906180b9565b614c63565b005b60006113ce82614cad565b9050919050565b6113de83614cbf565b6113e783614d13565b6113f083614d55565b6113f982614cbf565b4261140384612866565b61140d9190619297565b811115611446576040517f8744776800000000000000000000000000000000000000000000000000000000815260040160405180910390fd5b61145283826000614f07565b61145e82826001614f07565b505050565b6114638054611471906192fa565b80601f016020809104026020016040519081016040528092919081815260200182805461149d906192fa565b80156114ea5780601f106114bf576101008083540402835291602001916114ea565b820191906000526020600020905b8154815290600101906020018083116114cd57829003601f168201915b505050505081565b60006114fd82614cbf565b6000611079600084815260200190815260200160002060009054906101000a900473ffffffffffffffffffffffffffffffffffffffff16905080915050919050565b61154881614d55565b8173ffffffffffffffffffffffffffffffffffffffff163373ffffffffffffffffffffffffffffffffffffffff16036115ad576040517ff13228ca00000000000000000000000000000000000000000000000000000000815260040160405180910390fd5b81611079600083815260200190815260200160002060006101000a81548173ffffffffffffffffffffffffffffffffffffffff021916908373ffffffffffffffffffffffffffffffffffffffff160217905550808273ffffffffffffffffffffffffffffffffffffffff16611076600084815260200190815260200160002060009054906101000a900473ffffffffffffffffffffffffffffffffffffffff1673ffffffffffffffffffffffffffffffffffffffff167f8c5be1e5ebec7d5bd14f71427d1e84f3dd0314c0f7b2291e5b200ac8c7c3b92560405160405180910390a45050565b60008073ffffffffffffffffffffffffffffffffffffffff16610c8960009054906101000a900473ffffffffffffffffffffffffffffffffffffffff1673ffffffffffffffffffffffffffffffffffffffff161461179557610c8960009054906101000a900473ffffffffffffffffffffffffffffffffffffffff1673ffffffffffffffffffffffffffffffffffffffff1663221c1fd1338686866040518563ffffffff1660e01b815260040161174d9493929190619380565b602060405180830381865afa15801561176a573d6000803e3d6000fd5b505050506040513d601f19601f8201168201806040525081019061178e91906193e1565b905061179c565b610c855490505b9392505050565b6117ad8133615014565b6117e3576040517f075fd2b100000000000000000000000000000000000000000000000000000000815260040160405180910390fd5b6117ee83838361513c565b33611078600083815260200190815260200160002060006101000a81548173ffffffffffffffffffffffffffffffffffffffff021916908373ffffffffffffffffffffffffffffffffffffffff160217905550505050565b610c8360009054906101000a900473ffffffffffffffffffffffffffffffffffffffff1681565b610c855481565b610c845481565b611883615493565b600073ffffffffffffffffffffffffffffffffffffffff168173ffffffffffffffffffffffffffffffffffffffff16036118e9576040517fc31b827c00000000000000000000000000000000000000000000000000000000815260040160405180910390fd5b6000612bda60009054906101000a900473ffffffffffffffffffffffffffffffffffffffff16905081612bda60006101000a81548173ffffffffffffffffffffffffffffffffffffffff021916908373ffffffffffffffffffffffffffffffffffffffff1602179055507f8be0079c531659141344cd1fd0a4f28419497f9722a3daafe3b4186f6b6457e0818360405161198492919061940e565b60405180910390a15050565b6000610c8754905090565b6124075481565b610c8a60009054906101000a900473ffffffffffffffffffffffffffffffffffffffff1681565b6119d281614d55565b6000611078600083815260200190815260200160002060006101000a81548173ffffffffffffffffffffffffffffffffffffffff021916908373ffffffffffffffffffffffffffffffffffffffff160217905550611a3183838361513c565b505050565b600060976000838152602001908152602001600020600101549050919050565b610c8b60009054906101000a900473ffffffffffffffffffffffffffffffffffffffff1681565b611a85615493565b60008103611abf576040517fe03b033d00000000000000000000000000000000000000000000000000000000815260040160405180910390fd5b610c8754821015611afc576040517f1d00cd6b00000000000000000000000000000000000000000000000000000000815260040160405180910390fd5b80610c8e8190555082610c848190555081610c86819055507f9a09448a3f24d3a01ccc67103c7cddbeea820176a18182cc83d0bce585f26a5b8383610c8e54604051611b4a93929190619437565b60405180910390a1505050565b610c8960009054906101000a900473ffffffffffffffffffffffffffffffffffffffff1681565b611b8782611a36565b611b90816154f5565b611b9a8383615509565b505050565b60008173ffffffffffffffffffffffffffffffffffffffff16612bda60009054906101000a900473ffffffffffffffffffffffffffffffffffffffff1673ffffffffffffffffffffffffffffffffffffffff16149050919050565b6000611c05836132a8565b8210611c3d576040517f08e22eae00000000000000000000000000000000000000000000000000000000815260040160405180910390fd5b61107c60008473ffffffffffffffffffffffffffffffffffffffff1673ffffffffffffffffffffffffffffffffffffffff168152602001908152602001600020600083815260200190815260200160002054905092915050565b6060611ca16155ea565b610c86548651610c8754611cb5919061946e565b1115611ced576040517f31af695100000000000000000000000000000000000000000000000000000000815260040160405180910390fd5b84518651141580611d0057508351865114155b15611d37576040517fed676a4a00000000000000000000000000000000000000000000000000000000815260040160405180910390fd5b600080875167ffffffffffffffff811115611d5557611d546181b8565b5b604051908082528060200260200182016040528015611d835781602001602082028036833780820191505090505b50905060005b8851811015612193576000898281518110611da757611da66194a2565b5b60200260200101519050611e3581898481518110611dc857611dc76194a2565b5b60200260200101517fffffffffffffffffffffffffffffffffffffffffffffffffffffffffffffffff610c845414611e0e57610c845442611e09919061946e565b611e30565b7fffffffffffffffffffffffffffffffffffffffffffffffffffffffffffffffff5b615633565b838381518110611e4857611e476194a2565b5b6020026020010181815250506000611ee2828b8581518110611e6d57611e6c6194a2565b5b60200260200101518a8a87818110611e8857611e876194a2565b5b9050602002810190611e9a91906194e0565b8080601f016020809104026020016040519081016040528093929190818152602001838380828437600081840152601f19601f82011690508083019250505050505050611693565b90508085611ef0919061946e565b9450611f16848481518110611f0857611f076194a2565b5b60200260200101518261579a565b600073ffffffffffffffffffffffffffffffffffffffff166104b160009054906101000a900473ffffffffffffffffffffffffffffffffffffffff1673ffffffffffffffffffffffffffffffffffffffff1614611f9257611f918c8481518110611f8357611f826194a2565b5b60200260200101518261590f565b5b611fb6818b8581518110611fa957611fa86194a2565b5b602002602001015161594d565b60008073ffffffffffffffffffffffffffffffffffffffff166104b160009054906101000a900473ffffffffffffffffffffffffffffffffffffffff1673ffffffffffffffffffffffffffffffffffffffff161461202e578c8481518110612021576120206194a2565b5b6020026020010151612030565b345b9050600073ffffffffffffffffffffffffffffffffffffffff16610c8960009054906101000a900473ffffffffffffffffffffffffffffffffffffffff1673ffffffffffffffffffffffffffffffffffffffff161461217d57610c8960009054906101000a900473ffffffffffffffffffffffffffffffffffffffff1673ffffffffffffffffffffffffffffffffffffffff16635e895f298686815181106120db576120da6194a2565b5b602002602001015133868f89815181106120f8576120f76194a2565b5b60200260200101518e8e8b818110612113576121126194a2565b5b905060200281019061212591906194e0565b89896040518963ffffffff1660e01b815260040161214a989796959493929190619570565b600060405180830381600087803b15801561216457600080fd5b505af1158015612178573d6000803e3d6000fd5b505050505b505050808061218b906195e8565b915050611d89565b5061219e3383615b14565b6121a782615c53565b6121af615e18565b60005b87518110156121f1576121de8882815181106121d1576121d06194a2565b5b6020026020010151615ecd565b80806121e9906195e8565b9150506121b2565b5080925050509695505050505050565b612209616029565b73ffffffffffffffffffffffffffffffffffffffff168173ffffffffffffffffffffffffffffffffffffffff1614612276576040517f08c379a000000000000000000000000000000000000000000000000000000000815260040161226d906196a2565b60405180910390fd5b6122808282616031565b5050565b610c8f60009054906101000a900473ffffffffffffffffffffffffffffffffffffffff1681565b6122b3615493565b7fd6867bc538320e67d7bdc35860c27c08486eb490b4fd9b820fff18fb28381d3c82826040516122e49291906196c2565b60405180910390a1816127f181905550806127f0819055505050565b611078600082815260200190815260200160002060009054906101000a900473ffffffffffffffffffffffffffffffffffffffff1673ffffffffffffffffffffffffffffffffffffffff163373ffffffffffffffffffffffffffffffffffffffff1614612399576040517f075fd2b100000000000000000000000000000000000000000000000000000000815260040160405180910390fd5b6123ac6123a5826128c1565b838361513c565b5050565b6123cb83838360405180602001604052806000815250614082565b505050565b6123d981614cbf565b6123e281614d55565b80600073ffffffffffffffffffffffffffffffffffffffff16611076600084815260200190815260200160002060009054906101000a900473ffffffffffffffffffffffffffffffffffffffff1673ffffffffffffffffffffffffffffffffffffffff167fddf252ad1be2c89b69c2b068fc378daa952ba7f163c4a11628f55a4df523b3ef60405160405180910390a461247b81616113565b6000611076600083815260200190815260200160002060006101000a81548173ffffffffffffffffffffffffffffffffffffffff021916908373ffffffffffffffffffffffffffffffffffffffff16021790555050565b6124da6155ea565b6124e382614cbf565b61250d7fb309c40027c81d382c3b58d8de24207a34b27e1db369b1434e4a11311f154b5e3361387b565b158015612520575061251e33613f4c565b155b15612557576040517f1798fedb00000000000000000000000000000000000000000000000000000000815260040160405180910390fd5b6125618282616132565b505050565b6110786020528060005260406000206000915054906101000a900473ffffffffffffffffffffffffffffffffffffffff1681565b610c8d5481565b6000610c875482106125df576040517f08e22eae00000000000000000000000000000000000000000000000000000000815260040160405180910390fd5b819050919050565b60007fffffffffffffffffffffffffffffffffffffffffffffffffffffffffffffffff612020600085815260200190815260200160002054148061267a5750600073ffffffffffffffffffffffffffffffffffffffff166104b160009054906101000a900473ffffffffffffffffffffffffffffffffffffffff1673ffffffffffffffffffffffffffffffffffffffff16145b156126b1576040517fd9a81c2200000000000000000000000000000000000000000000000000000000815260040160405180910390fd5b6126d36126bd846128c1565b8360405180602001604052806000815250611693565b61201f600085815260200190815260200160002054108061270a5750610c8454612020600085815260200190815260200160002054115b8061279857506104b160009054906101000a900473ffffffffffffffffffffffffffffffffffffffff1673ffffffffffffffffffffffffffffffffffffffff16612021600085815260200190815260200160002060009054906101000a900473ffffffffffffffffffffffffffffffffffffffff1673ffffffffffffffffffffffffffffffffffffffff1614155b156127cf576040517f986739e700000000000000000000000000000000000000000000000000000000815260040160405180910390fd5b6000612710612328610c84546127e591906196eb565b6127ef919061975c565b610c845461107b6000878152602001908152602001600020600101546128159190619297565b61281f919061946e565b90508042101561285b576040517fc1b1d86600000000000000000000000000000000000000000000000000000000815260040160405180910390fd5b600191505092915050565b600061107b6000838152602001908152602001600020600101549050919050565b61289082614cbf565b61289982614d13565b6128a1615493565b6128ab8282616380565b5050565b6127f05481565b600061201e54905090565b6000611076600083815260200190815260200160002060009054906101000a900473ffffffffffffffffffffffffffffffffffffffff169050919050565b60008061290b83612bbb565b03612a1857600073ffffffffffffffffffffffffffffffffffffffff16610c8b60009054906101000a900473ffffffffffffffffffffffffffffffffffffffff1673ffffffffffffffffffffffffffffffffffffffff1614612a1757610c8b60009054906101000a900473ffffffffffffffffffffffffffffffffffffffff1673ffffffffffffffffffffffffffffffffffffffff1663427ede3830336000808760006040518763ffffffff1660e01b81526004016129cf969594939291906197c8565b602060405180830381865afa1580156129ec573d6000803e3d6000fd5b505050506040513d601f19601f82011682018060405250810190612a10919061983e565b9050612a28565b5b6001612a2383612bbb565b101590505b919050565b60008060019054906101000a900460ff16159050808015612a5e5750600160008054906101000a900460ff1660ff16105b80612a8b5750612a6d30616557565b158015612a8a5750600160008054906101000a900460ff1660ff16145b5b612aca576040517f08c379a0000000000000000000000000000000000000000000000000000000008152600401612ac1906198dd565b60405180910390fd5b60016000806101000a81548160ff021916908360ff1602179055508015612b07576001600060016101000a81548160ff0219169083151502179055505b612b108661657a565b612b1c888887876165c8565b612b268383616644565b612b2e616673565b612b36616685565b612b3f88616691565b612b4888616799565b612b586380ac58cd60e01b6167de565b8015612bb15760008060016101000a81548160ff0219169083151502179055507f7f26b83ff96e1f2b6a682f133852f6798a09c465da95921460cefb38474024986001604051612ba89190619945565b60405180910390a15b5050505050505050565b600080612bc7836132a8565b905060005b81811015612c0d57612be6612be18583611bfa565b613dd8565b15612bfa578280612bf6906195e8565b9350505b8080612c05906195e8565b915050612bcc565b5050919050565b610c865481565b612c23615493565b600073ffffffffffffffffffffffffffffffffffffffff168773ffffffffffffffffffffffffffffffffffffffff1614158015612c7c5750612c7a8773ffffffffffffffffffffffffffffffffffffffff16616557565b155b15612cbf5760006040517f6788e02b000000000000000000000000000000000000000000000000000000008152600401612cb69190619991565b60405180910390fd5b600073ffffffffffffffffffffffffffffffffffffffff168673ffffffffffffffffffffffffffffffffffffffff1614158015612d185750612d168673ffffffffffffffffffffffffffffffffffffffff16616557565b155b15612d5b5760016040517f6788e02b000000000000000000000000000000000000000000000000000000008152600401612d529190619945565b60405180910390fd5b600073ffffffffffffffffffffffffffffffffffffffff168573ffffffffffffffffffffffffffffffffffffffff1614158015612db45750612db28573ffffffffffffffffffffffffffffffffffffffff16616557565b155b15612df75760026040517f6788e02b000000000000000000000000000000000000000000000000000000008152600401612dee91906199e7565b60405180910390fd5b600073ffffffffffffffffffffffffffffffffffffffff168473ffffffffffffffffffffffffffffffffffffffff1614158015612e505750612e4e8473ffffffffffffffffffffffffffffffffffffffff16616557565b155b15612e935760036040517f6788e02b000000000000000000000000000000000000000000000000000000008152600401612e8a9190619a3d565b60405180910390fd5b600073ffffffffffffffffffffffffffffffffffffffff168373ffffffffffffffffffffffffffffffffffffffff1614158015612eec5750612eea8373ffffffffffffffffffffffffffffffffffffffff16616557565b155b15612f2f5760046040517f6788e02b000000000000000000000000000000000000000000000000000000008152600401612f269190619a93565b60405180910390fd5b600073ffffffffffffffffffffffffffffffffffffffff168273ffffffffffffffffffffffffffffffffffffffff1614158015612f885750612f868273ffffffffffffffffffffffffffffffffffffffff16616557565b155b15612fcb5760056040517f6788e02b000000000000000000000000000000000000000000000000000000008152600401612fc29190619ae9565b60405180910390fd5b600073ffffffffffffffffffffffffffffffffffffffff168173ffffffffffffffffffffffffffffffffffffffff161415801561302457506130228173ffffffffffffffffffffffffffffffffffffffff16616557565b155b156130675760066040517f6788e02b00000000000000000000000000000000000000000000000000000000815260040161305e9190619b3f565b60405180910390fd5b86610c8960006101000a81548173ffffffffffffffffffffffffffffffffffffffff021916908373ffffffffffffffffffffffffffffffffffffffff16021790555085610c8a60006101000a81548173ffffffffffffffffffffffffffffffffffffffff021916908373ffffffffffffffffffffffffffffffffffffffff16021790555083610c8c60006101000a81548173ffffffffffffffffffffffffffffffffffffffff021916908373ffffffffffffffffffffffffffffffffffffffff16021790555084610c8b60006101000a81548173ffffffffffffffffffffffffffffffffffffffff021916908373ffffffffffffffffffffffffffffffffffffffff16021790555082610c8f60006101000a81548173ffffffffffffffffffffffffffffffffffffffff021916908373ffffffffffffffffffffffffffffffffffffffff16021790555081610c9060006101000a81548173ffffffffffffffffffffffffffffffffffffffff021916908373ffffffffffffffffffffffffffffffffffffffff16021790555080610c9160006101000a81548173ffffffffffffffffffffffffffffffffffffffff021916908373ffffffffffffffffffffffffffffffffffffffff1602179055507f0a851288e37fa9a8bc562891998524e95c286fe84f693c1921e0fd0792171af6878787878787876040516132709796959493929190619b5a565b60405180910390a150505050505050565b610c8c60009054906101000a900473ffffffffffffffffffffffffffffffffffffffff1681565b60008073ffffffffffffffffffffffffffffffffffffffff168273ffffffffffffffffffffffffffffffffffffffff160361330f576040517f5963709b00000000000000000000000000000000000000000000000000000000815260040160405180910390fd5b61107e60008373ffffffffffffffffffffffffffffffffffffffff1673ffffffffffffffffffffffffffffffffffffffff168152602001908152602001600020549050919050565b60606133616155ea565b61338b7fb309c40027c81d382c3b58d8de24207a34b27e1db369b1434e4a11311f154b5e3361387b565b15801561339e575061339c33613f4c565b155b156133d5576040517f1798fedb00000000000000000000000000000000000000000000000000000000815260040160405180910390fd5b60008787905067ffffffffffffffff8111156133f4576133f36181b8565b5b6040519080825280602002602001820160405280156134225781602001602082028036833780820191505090505b50905060005b88889050811015613646576134a5898983818110613449576134486194a2565b5b905060200201602081019061345e9190618449565b868684818110613471576134706194a2565b5b90506020020160208101906134869190618449565b898985818110613499576134986194a2565b5b90506020020135615633565b8282815181106134b8576134b76194a2565b5b602002602001018181525050600073ffffffffffffffffffffffffffffffffffffffff16610c9160009054906101000a900473ffffffffffffffffffffffffffffffffffffffff1673ffffffffffffffffffffffffffffffffffffffff161461363357610c9160009054906101000a900473ffffffffffffffffffffffffffffffffffffffff1673ffffffffffffffffffffffffffffffffffffffff166348a254b883838151811061356d5761356c6194a2565b5b6020026020010151338c8c86818110613589576135886194a2565b5b905060200201602081019061359e9190618449565b8989878181106135b1576135b06194a2565b5b90506020020160208101906135c69190618449565b8c8c888181106135d9576135d86194a2565b5b905060200201356040518663ffffffff1660e01b8152600401613600959493929190619bc9565b600060405180830381600087803b15801561361a57600080fd5b505af115801561362e573d6000803e3d6000fd5b505050505b808061363e906195e8565b915050613428565b50809150509695505050505050565b61365d6155ea565b61366682614cbf565b61367082826125e7565b5061367c826000616132565b5061368a610c85548261594d565b61369f613696836128c1565b610c8554615b14565b6136a7615e18565b6136b081615ecd565b6136bc610c8554615c53565b5050565b6136c8615493565b7f0496ed1e61eb69727f9659a8e859288db4758ffb1f744d1c1424634f90a257f4816040516136f79190618361565b60405180910390a1806124078190555050565b60016137146144d9565b61371e9190619c1c565b61ffff16610c8d54148061373557506000610c8d54145b613774576040517f08c379a000000000000000000000000000000000000000000000000000000000815260040161376b90619c9e565b60405180910390fd5b6001460361383957600073e79b93f8e22676774f2a8dad469175ebd00029fa90508073ffffffffffffffffffffffffffffffffffffffff1663ed9674bd6040518163ffffffff1660e01b8152600401600060405180830381600087803b1580156137dd57600080fd5b505af11580156137f1573d6000803e3d6000fd5b5050505080610c8360006101000a81548173ffffffffffffffffffffffffffffffffffffffff021916908373ffffffffffffffffffffffffffffffffffffffff160217905550505b6138416144d9565b61ffff16610c8d819055505050565b6000612bda60009054906101000a900473ffffffffffffffffffffffffffffffffffffffff16905090565b60006097600084815260200190815260200160002060000160008373ffffffffffffffffffffffffffffffffffffffff1673ffffffffffffffffffffffffffffffffffffffff16815260200190815260200160002060009054906101000a900460ff16905092915050565b60006138f182614d13565b7fffffffffffffffffffffffffffffffffffffffffffffffffffffffffffffffff610c84540361392657610c855490506139ef565b60004261393284612866565b61393c9190619297565b9050610c84546127f15482613951919061946e565b1061396157610c85549150613981565b610c845481610c855461397491906196eb565b61397e919061975c565b91505b60006127f15414806139a35750610c84546127f154826139a1919061946e565b105b156139ed5760006127106127f054610c85546139bf91906196eb565b6139c9919061975c565b9050808311156139e65780836139df9190619297565b92506139eb565b600092505b505b505b919050565b6110775481565b606060006114648054613a0d906192fa565b905003613ab257610c8360009054906101000a900473ffffffffffffffffffffffffffffffffffffffff1673ffffffffffffffffffffffffffffffffffffffff1663cec410526040518163ffffffff1660e01b8152600401600060405180830381865afa158015613a82573d6000803e3d6000fd5b505050506040513d6000823e3d601f19601f82011682018060405250810190613aab9190619d5f565b9050613b41565b6114648054613ac0906192fa565b80601f0160208091040260200160405190810160405280929190818152602001828054613aec906192fa565b8015613b395780601f10613b0e57610100808354040283529160200191613b39565b820191906000526020600020905b815481529060010190602001808311613b1c57829003601f168201915b505050505090505b90565b6104b160009054906101000a900473ffffffffffffffffffffffffffffffffffffffff1681565b6000801b81565b613b7a6168b3565b3373ffffffffffffffffffffffffffffffffffffffff168273ffffffffffffffffffffffffffffffffffffffff1603613bdf576040517ff13228ca00000000000000000000000000000000000000000000000000000000815260040160405180910390fd5b8061107a60003373ffffffffffffffffffffffffffffffffffffffff1673ffffffffffffffffffffffffffffffffffffffff16815260200190815260200160002060008473ffffffffffffffffffffffffffffffffffffffff1673ffffffffffffffffffffffffffffffffffffffff16815260200190815260200160002060006101000a81548160ff0219169083151502179055508173ffffffffffffffffffffffffffffffffffffffff163373ffffffffffffffffffffffffffffffffffffffff167f17307eab39ab6107e8899845ad3d59bd9653f200f220920489ca2b5937696c3183604051613cd19190617f63565b60405180910390a35050565b613ce5615493565b613cee81616907565b6000610c8554905060006104b160009054906101000a900473ffffffffffffffffffffffffffffffffffffffff16905083610c8581905550826104b160006101000a81548173ffffffffffffffffffffffffffffffffffffffff021916908373ffffffffffffffffffffffffffffffffffffffff1602179055507f3615065ccf48367ac483ac86701248e2e5ff55bdd9be845007d34a3b68d719d482610c8554836104b160009054906101000a900473ffffffffffffffffffffffffffffffffffffffff16604051613dc39493929190619da8565b60405180910390a150505050565b6127f15481565b6000804261107b600085815260200190815260200160002060010154119050600073ffffffffffffffffffffffffffffffffffffffff16610c8b60009054906101000a900473ffffffffffffffffffffffffffffffffffffffff1673ffffffffffffffffffffffffffffffffffffffff1614613f4357610c8b60009054906101000a900473ffffffffffffffffffffffffffffffffffffffff1673ffffffffffffffffffffffffffffffffffffffff1663427ede3830338661107b60008981526020019081526020016000206001015461107660008a815260200190815260200160002060009054906101000a900473ffffffffffffffffffffffffffffffffffffffff16876040518763ffffffff1660e01b8152600401613eff96959493929190619ded565b602060405180830381865afa158015613f1c573d6000803e3d6000fd5b505050506040513d601f19601f82011682018060405250810190613f40919061983e565b90505b80915050919050565b6000613f787fb89cdd26cddd51301940bf2715f765b626b8a5a9e2681ac62dc83cc2db2530c08361387b565b9050919050565b613f8882614cbf565b613f928233615014565b158015613fa55750613fa333613f4c565b155b15613fdc576040517f866c2fa700000000000000000000000000000000000000000000000000000000815260040160405180910390fd5b613fe682826169ec565b5050565b610c9160009054906101000a900473ffffffffffffffffffffffffffffffffffffffff1681565b600061401c83614cbf565b600061402784612866565b90504281101561403b57600091505061407c565b60008084036140575742826140509190619297565b905061405b565b8390505b612710612407548261406d91906196eb565b614077919061975c565b925050505b92915050565b61408d8484846119c9565b61409984848484616af8565b6140cf576040517f3f8ea15000000000000000000000000000000000000000000000000000000000815260040160405180910390fd5b50505050565b6120226020528060005260406000206000915090505481565b606080606060006141143073ffffffffffffffffffffffffffffffffffffffff16616c00565b90506060600086146141305761412986616f0b565b9250614143565b6040518060200160405280600081525092505b600073ffffffffffffffffffffffffffffffffffffffff16610c8c60009054906101000a900473ffffffffffffffffffffffffffffffffffffffff1673ffffffffffffffffffffffffffffffffffffffff16146142655760006141a587612866565b9050610c8c60009054906101000a900473ffffffffffffffffffffffffffffffffffffffff1673ffffffffffffffffffffffffffffffffffffffff1663988b93ad30336141f18b6128c1565b8b866040518663ffffffff1660e01b8152600401614213959493929190619e4e565b600060405180830381865afa158015614230573d6000803e3d6000fd5b505050506040513d6000823e3d601f19601f820116820180604052508101906142599190619d5f565b95505050505050614423565b60006114658054614275906192fa565b90500361435257610c8360009054906101000a900473ffffffffffffffffffffffffffffffffffffffff1673ffffffffffffffffffffffffffffffffffffffff1663a998e9fb6040518163ffffffff1660e01b8152600401600060405180830381865afa1580156142ea573d6000803e3d6000fd5b505050506040513d6000823e3d601f19601f820116820180604052508101906143139190619d5f565b93506040518060400160405280600181526020017f2f000000000000000000000000000000000000000000000000000000000000008152509050614405565b6114658054614360906192fa565b80601f016020809104026020016040519081016040528092919081815260200182805461438c906192fa565b80156143d95780601f106143ae576101008083540402835291602001916143d9565b820191906000526020600020905b8154815290600101906020018083116143bc57829003601f168201915b505050505093506040518060200160405280600081525090506040518060200160405280600081525091505b61441c8282858761709a909392919063ffffffff16565b9450505050505b919050565b610c9060009054906101000a900473ffffffffffffffffffffffffffffffffffffffff1681565b614457615493565b8585611463918261446992919061a04e565b508383611464918261447c92919061a04e565b508181611465918261448f92919061a04e565b507f1e6d6a19e45ae156dcf4155bc83cf8f59e98d536000998f0e95f4cd330ecfb3e6114636114646114656040516144c99392919061a1a2565b60405180910390a1505050505050565b6000600d905090565b6144ea615493565b6145147fb89cdd26cddd51301940bf2715f765b626b8a5a9e2681ac62dc83cc2db2530c082611b7e565b8073ffffffffffffffffffffffffffffffffffffffff167f91d5c045d5bd98bf59a379b259ebca05b93bf79af1845fdf87e3172385d4c7f760405160405180910390a250565b61456381614cbf565b61456c81614d13565b61457581614d55565b6000614580826138e6565b905061458c8282616380565b5050565b6000610c8e54905090565b6145a482611a36565b6145ad816154f5565b6145b78383616031565b505050565b6145c46155ea565b6145cd84614cbf565b6145d8846000616132565b5060006146326145e7866128c1565b8585858080601f016020809104026020016040519081016040528093929190818152602001838380828437600081840152601f19601f82011690508083019250505050505050611693565b9050600073ffffffffffffffffffffffffffffffffffffffff166104b160009054906101000a900473ffffffffffffffffffffffffffffffffffffffff1673ffffffffffffffffffffffffffffffffffffffff161461469657614695868261590f565b5b6146a0818561594d565b6146aa3382615b14565b6146b4858261579a565b6146bc615e18565b6146c584615ecd565b6146ce81615c53565b505050505050565b6146de615493565b60008073ffffffffffffffffffffffffffffffffffffffff168473ffffffffffffffffffffffffffffffffffffffff160361471b57479050614798565b8373ffffffffffffffffffffffffffffffffffffffff166370a08231306040518263ffffffff1660e01b81526004016147549190618127565b602060405180830381865afa158015614771573d6000803e3d6000fd5b505050506040513d601f19601f8201168201806040525081019061479591906193e1565b90505b6000808314806147a757508183115b156147ee57600082116147e6576040517f1f04ddc800000000000000000000000000000000000000000000000000000000815260040160405180910390fd5b8190506147f2565b8290505b8373ffffffffffffffffffffffffffffffffffffffff168573ffffffffffffffffffffffffffffffffffffffff163373ffffffffffffffffffffffffffffffffffffffff167f342e7ff505a8a0364cd0dc2ff195c315e43bce86b204846ecd36913e117b109e846040516148669190618361565b60405180910390a46148798585836170cc565b5050505050565b614888615493565b8061202260008473ffffffffffffffffffffffffffffffffffffffff1673ffffffffffffffffffffffffffffffffffffffff168152602001908152602001600020819055508173ffffffffffffffffffffffffffffffffffffffff167fa027572bb55de556a0df93bd38c3871aaf311245c2cd34f0da045aa33a66dbc5826040516149139190618361565b60405180910390a25050565b600061107a60008473ffffffffffffffffffffffffffffffffffffffff1673ffffffffffffffffffffffffffffffffffffffff16815260200190815260200160002060008373ffffffffffffffffffffffffffffffffffffffff1673ffffffffffffffffffffffffffffffffffffffff16815260200190815260200160002060009054906101000a900460ff16905092915050565b6149de7fb89cdd26cddd51301940bf2715f765b626b8a5a9e2681ac62dc83cc2db2530c033612201565b3373ffffffffffffffffffffffffffffffffffffffff167f42885193b8178d25fca25a38e6fcc93918501e91be06d85e0c8afb3bad95238060405160405180910390a2565b614a2b6155ea565b610c8754610c865411614a6a576040517f31af695100000000000000000000000000000000000000000000000000000000815260040160405180910390fd5b614a7382614d55565b614a7c82614d13565b614a846168b3565b6000611076600084815260200190815260200160002060009054906101000a900473ffffffffffffffffffffffffffffffffffffffff16905060008042614aca86612866565b614ad49190619297565b90506000614ae28686614011565b905060008186614af2919061946e565b905082811015614b1057859350614b0b87826000614f07565b614b74565b614b1a8784614011565b91508183614b289190619297565b93504261107b600089815260200190815260200160002060010181905550867f59f2fe866dd27a1c2d34115520888c3150365cbc931aab97fa88c4b9ab40b79560405160405180910390a25b6000614b8d8960008742614b88919061946e565b615633565b9050808973ffffffffffffffffffffffffffffffffffffffff168773ffffffffffffffffffffffffffffffffffffffff167fddf252ad1be2c89b69c2b068fc378daa952ba7f163c4a11628f55a4df523b3ef60405160405180910390a4614c05868a8360405180602001604052806000815250616af8565b614c3b576040517f3f8ea15000000000000000000000000000000000000000000000000000000000815260040160405180910390fd5b505050505050505050565b614c4e615493565b614c566144d9565b61ffff16610c8d81905550565b614c6b615493565b8061201e819055507f4d816c1058de34c4241ba72c371fb3f2ea05147691b364f04d16bc967ae68a1181604051614ca29190618361565b60405180910390a150565b6000614cb88261716f565b9050919050565b600061107b60008381526020019081526020016000206000015403614d10576040517f78fe247300000000000000000000000000000000000000000000000000000000815260040160405180910390fd5b50565b614d1c81613dd8565b614d52576040517f0d9f4fae00000000000000000000000000000000000000000000000000000000815260040160405180910390fd5b50565b60008073ffffffffffffffffffffffffffffffffffffffff16611078600084815260200190815260200160002060009054906101000a900473ffffffffffffffffffffffffffffffffffffffff1673ffffffffffffffffffffffffffffffffffffffff1614614df857611078600083815260200190815260200160002060009054906101000a900473ffffffffffffffffffffffffffffffffffffffff16614e2e565b611076600083815260200190815260200160002060009054906101000a900473ffffffffffffffffffffffffffffffffffffffff165b9050614e3933613f4c565b158015614e4d5750614e4b8233615014565b155b8015614eb957503373ffffffffffffffffffffffffffffffffffffffff16611079600084815260200190815260200160002060009054906101000a900473ffffffffffffffffffffffffffffffffffffffff1673ffffffffffffffffffffffffffffffffffffffff1614155b8015614ecc5750614eca813361491f565b155b15614f03576040517fe17c6d4500000000000000000000000000000000000000000000000000000000815260040160405180910390fd5b5050565b614f1083614cbf565b600061107b60008581526020019081526020016000206001015490508115614f935742811115614f66578281614f46919061946e565b61107b600086815260200190815260200160002060010181905550614f8e565b8242614f72919061946e565b61107b6000868152602001908152602001600020600101819055505b614fbb565b8281614f9f9190619297565b61107b6000868152602001908152602001600020600101819055505b837f3c907806849e9204e0e26bb095dfe4b3071576c4323f766735c548211556d05261107b60008781526020019081526020016000206001015485856040516150069392919061a1ee565b60405180910390a250505050565b60008173ffffffffffffffffffffffffffffffffffffffff16611078600085815260200190815260200160002060009054906101000a900473ffffffffffffffffffffffffffffffffffffffff1673ffffffffffffffffffffffffffffffffffffffff16148061512357508173ffffffffffffffffffffffffffffffffffffffff1661509f846128c1565b73ffffffffffffffffffffffffffffffffffffffff161480156151225750600073ffffffffffffffffffffffffffffffffffffffff16611078600085815260200190815260200160002060009054906101000a900473ffffffffffffffffffffffffffffffffffffffff1673ffffffffffffffffffffffffffffffffffffffff16145b5b156151315760019050615136565b600090505b92915050565b61514581614d13565b61514d6168b3565b8273ffffffffffffffffffffffffffffffffffffffff1661516d826128c1565b73ffffffffffffffffffffffffffffffffffffffff16146151ba576040517f075fd2b100000000000000000000000000000000000000000000000000000000815260040160405180910390fd5b600073ffffffffffffffffffffffffffffffffffffffff168273ffffffffffffffffffffffffffffffffffffffff1603615220576040517f5963709b00000000000000000000000000000000000000000000000000000000815260040160405180910390fd5b8173ffffffffffffffffffffffffffffffffffffffff168373ffffffffffffffffffffffffffffffffffffffff1603615285576040517f3fbd1a4900000000000000000000000000000000000000000000000000000000815260040160405180910390fd5b61529b81615294836000614011565b6000614f07565b600061107b600083815260200190815260200160002090506152bc82612866565b816001018190555060006152cf846132a8565b036152ee5761107760008154809291906152e8906195e8565b91905055505b6152f782617181565b6153018284617397565b61530a826174ff565b6000612020600084815260200190815260200160002081905550600061201f600084815260200190815260200160002081905550818373ffffffffffffffffffffffffffffffffffffffff168573ffffffffffffffffffffffffffffffffffffffff167fddf252ad1be2c89b69c2b068fc378daa952ba7f163c4a11628f55a4df523b3ef60405160405180910390a4600073ffffffffffffffffffffffffffffffffffffffff16610c8f60009054906101000a900473ffffffffffffffffffffffffffffffffffffffff1673ffffffffffffffffffffffffffffffffffffffff161461548d57610c8f60009054906101000a900473ffffffffffffffffffffffffffffffffffffffff1673ffffffffffffffffffffffffffffffffffffffff166375b37aef308433888887600101546040518763ffffffff1660e01b815260040161545a9695949392919061a225565b600060405180830381600087803b15801561547457600080fd5b505af1158015615488573d6000803e3d6000fd5b505050505b50505050565b6154bd7fb89cdd26cddd51301940bf2715f765b626b8a5a9e2681ac62dc83cc2db2530c03361387b565b6154f3576040517f8e1b58c400000000000000000000000000000000000000000000000000000000815260040160405180910390fd5b565b61550681615501616029565b6175bf565b50565b615513828261387b565b6155e65760016097600084815260200190815260200160002060000160008373ffffffffffffffffffffffffffffffffffffffff1673ffffffffffffffffffffffffffffffffffffffff16815260200190815260200160002060006101000a81548160ff02191690831515021790555061558b616029565b73ffffffffffffffffffffffffffffffffffffffff168173ffffffffffffffffffffffffffffffffffffffff16837f2f8788117e7eff1d82e926ec794901d17c78024a50270940304540a733656f0d60405160405180910390a45b5050565b6155f26144d9565b61ffff16610c8d5414615631576040517fbab80ec000000000000000000000000000000000000000000000000000000000815260040160405180910390fd5b565b60008073ffffffffffffffffffffffffffffffffffffffff168473ffffffffffffffffffffffffffffffffffffffff160361569a576040517f5963709b00000000000000000000000000000000000000000000000000000000815260040160405180910390fd5b610c8760008154809291906156ae906195e8565b9190505550610c8754905060405180604001604052808281526020018381525061107b600083815260200190815260200160002060008201518160000155602082015181600101559050506000615704856132a8565b0361572357611077600081548092919061571d906195e8565b91905055505b61572d8185617397565b61573781846169ec565b808473ffffffffffffffffffffffffffffffffffffffff16600073ffffffffffffffffffffffffffffffffffffffff167fddf252ad1be2c89b69c2b068fc378daa952ba7f163c4a11628f55a4df523b3ef60405160405180910390a49392505050565b8061201f600084815260200190815260200160002054146157cf578061201f6000848152602001908152602001600020819055505b610c84546120206000848152602001908152602001600020541461580a57610c84546120206000848152602001908152602001600020819055505b6104b160009054906101000a900473ffffffffffffffffffffffffffffffffffffffff1673ffffffffffffffffffffffffffffffffffffffff16612021600084815260200190815260200160002060009054906101000a900473ffffffffffffffffffffffffffffffffffffffff1673ffffffffffffffffffffffffffffffffffffffff161461590b576104b160009054906101000a900473ffffffffffffffffffffffffffffffffffffffff16612021600084815260200190815260200160002060006101000a81548173ffffffffffffffffffffffffffffffffffffffff021916908373ffffffffffffffffffffffffffffffffffffffff1602179055505b5050565b80821015615949576040517fc0017ec400000000000000000000000000000000000000000000000000000000815260040160405180910390fd5b5050565b6000610c8360009054906101000a900473ffffffffffffffffffffffffffffffffffffffff1673ffffffffffffffffffffffffffffffffffffffff163b1115615a9e57610c8360009054906101000a900473ffffffffffffffffffffffffffffffffffffffff1673ffffffffffffffffffffffffffffffffffffffff1663939d9f1f620493e084846040518463ffffffff1660e01b81526004016159f292919061a286565b600060405180830381600088803b158015615a0c57600080fd5b5087f193505050508015615a1e575060015b615a98573073ffffffffffffffffffffffffffffffffffffffff167f6b18946261693dfd6c760d986b28ad2238b5b0267f8e5b6bc40a2f998e2f20ac610c8360009054906101000a900473ffffffffffffffffffffffffffffffffffffffff16604051615a8b9190618127565b60405180910390a2615a99565b5b615b10565b3073ffffffffffffffffffffffffffffffffffffffff167f6b18946261693dfd6c760d986b28ad2238b5b0267f8e5b6bc40a2f998e2f20ac610c8360009054906101000a900473ffffffffffffffffffffffffffffffffffffffff16604051615b079190618127565b60405180910390a25b5050565b600073ffffffffffffffffffffffffffffffffffffffff166104b160009054906101000a900473ffffffffffffffffffffffffffffffffffffffff1673ffffffffffffffffffffffffffffffffffffffff1614615c14576104b160009054906101000a900473ffffffffffffffffffffffffffffffffffffffff1673ffffffffffffffffffffffffffffffffffffffff166323b872dd8330846040518463ffffffff1660e01b8152600401615bcb9392919061a2af565b6020604051808303816000875af1158015615bea573d6000803e3d6000fd5b505050506040513d601f19601f82011682018060405250810190615c0e919061983e565b50615c4f565b80341015615c4e576040517f6c3cddf000000000000000000000000000000000000000000000000000000000815260040160405180910390fd5b5b5050565b600080610c8360009054906101000a900473ffffffffffffffffffffffffffffffffffffffff1673ffffffffffffffffffffffffffffffffffffffff163b1115615e1457610c8360009054906101000a900473ffffffffffffffffffffffffffffffffffffffff1673ffffffffffffffffffffffffffffffffffffffff1663b0e21e8a6040518163ffffffff1660e01b8152600401602060405180830381865afa925050508015615d2257506040513d601f19601f82011682018060405250810190615d1f91906193e1565b60015b615d9c573073ffffffffffffffffffffffffffffffffffffffff167f6b18946261693dfd6c760d986b28ad2238b5b0267f8e5b6bc40a2f998e2f20ac610c8360009054906101000a900473ffffffffffffffffffffffffffffffffffffffff16604051615d8f9190618127565b60405180910390a2615e13565b6127108184615dab91906196eb565b615db5919061975c565b915060008214615e1157615e106104b160009054906101000a900473ffffffffffffffffffffffffffffffffffffffff16610c8360009054906101000a900473ffffffffffffffffffffffffffffffffffffffff16846170cc565b5b505b5b5050565b600061201e5414615ecb57615e546104b160009054906101000a900473ffffffffffffffffffffffffffffffffffffffff163361201e546170cc565b3373ffffffffffffffffffffffffffffffffffffffff167f522a883b471164223f18b50f326da8671372b64b4792eac0e63d447e714c3e3b61201e546104b160009054906101000a900473ffffffffffffffffffffffffffffffffffffffff16604051615ec292919061a286565b60405180910390a25b565b600073ffffffffffffffffffffffffffffffffffffffff168173ffffffffffffffffffffffffffffffffffffffff161461602657600061202260008073ffffffffffffffffffffffffffffffffffffffff1673ffffffffffffffffffffffffffffffffffffffff168152602001908152602001600020549050600061202260008473ffffffffffffffffffffffffffffffffffffffff1673ffffffffffffffffffffffffffffffffffffffff1681526020019081526020016000205414615fd25761202260008373ffffffffffffffffffffffffffffffffffffffff1673ffffffffffffffffffffffffffffffffffffffff1681526020019081526020016000205490505b60008114616024576160236104b160009054906101000a900473ffffffffffffffffffffffffffffffffffffffff168361271084610c855461601491906196eb565b61601e919061975c565b6170cc565b5b505b50565b600033905090565b61603b828261387b565b1561610f5760006097600084815260200190815260200160002060000160008373ffffffffffffffffffffffffffffffffffffffff1673ffffffffffffffffffffffffffffffffffffffff16815260200190815260200160002060006101000a81548160ff0219169083151502179055506160b4616029565b73ffffffffffffffffffffffffffffffffffffffff168173ffffffffffffffffffffffffffffffffffffffff16837ff6391f5c32d9c69d2a47ea670b442974b53935d1edc7fd64eb21e047a839171b60405160405180910390a45b5050565b4261107b60008381526020019081526020016000206001018190555050565b60008061107b60008581526020019081526020016000206001015490507fffffffffffffffffffffffffffffffffffffffffffffffffffffffffffffffff81036161a8576040517f1fda338200000000000000000000000000000000000000000000000000000000815260040160405180910390fd5b60008084146161b757836161bc565b610c84545b90507fffffffffffffffffffffffffffffffffffffffffffffffffffffffffffffffff810361620d577fffffffffffffffffffffffffffffffffffffffffffffffffffffffffffffffff9250616238565b42821115616228578082616221919061946e565b9250616237565b8042616234919061946e565b92505b5b8261107b600087815260200190815260200160002060010181905550847f3ca112768ff7861e008ace1c11570c52e404c043e585545b5957a1e20961dde3846040516162849190618361565b60405180910390a2600073ffffffffffffffffffffffffffffffffffffffff16610c9060009054906101000a900473ffffffffffffffffffffffffffffffffffffffff1673ffffffffffffffffffffffffffffffffffffffff161461637857610c9060009054906101000a900473ffffffffffffffffffffffffffffffffffffffff1673ffffffffffffffffffffffffffffffffffffffff1663016b9680863386866040518563ffffffff1660e01b8152600401616345949392919061a2e6565b600060405180830381600087803b15801561635f57600080fd5b505af1158015616373573d6000803e3d6000fd5b505050505b505092915050565b600061638b836128c1565b905061639683616113565b3373ffffffffffffffffffffffffffffffffffffffff168173ffffffffffffffffffffffffffffffffffffffff16847f0a7068a9989857441c039a14a42b67ed71dd1fcfe5a9b17cc87b252e47bce528856040516163f49190618361565b60405180910390a46000821115616434576164336104b160009054906101000a900473ffffffffffffffffffffffffffffffffffffffff1682846170cc565b5b6000612020600085815260200190815260200160002081905550600061201f600085815260200190815260200160002081905550600073ffffffffffffffffffffffffffffffffffffffff16610c8a60009054906101000a900473ffffffffffffffffffffffffffffffffffffffff1673ffffffffffffffffffffffffffffffffffffffff161461655257610c8a60009054906101000a900473ffffffffffffffffffffffffffffffffffffffff1673ffffffffffffffffffffffffffffffffffffffff1663b499b6c53383856040518463ffffffff1660e01b815260040161651f9392919061a34c565b600060405180830381600087803b15801561653957600080fd5b505af115801561654d573d6000803e3d6000fd5b505050505b505050565b6000808273ffffffffffffffffffffffffffffffffffffffff163b119050919050565b61658381616907565b806104b160006101000a81548173ffffffffffffffffffffffffffffffffffffffff021916908373ffffffffffffffffffffffffffffffffffffffff16021790555050565b33610c8360006101000a81548173ffffffffffffffffffffffffffffffffffffffff021916908373ffffffffffffffffffffffffffffffffffffffff16021790555082610c848190555081610c858190555080610c868190555061662a6144d9565b61ffff16610c8d819055506001610c8e8190555050505050565b61664c617644565b8181611463918261665e92919061a04e565b5061666f635b5e139f60e01b6167de565b5050565b61668363780e9d6360e01b6167de565b565b6103e86127f081905550565b6166bb7fb89cdd26cddd51301940bf2715f765b626b8a5a9e2681ac62dc83cc2db2530c080617695565b6167057fb309c40027c81d382c3b58d8de24207a34b27e1db369b1434e4a11311f154b5e7fb89cdd26cddd51301940bf2715f765b626b8a5a9e2681ac62dc83cc2db2530c0617695565b61670e81613f4c565b61673d5761673c7fb89cdd26cddd51301940bf2715f765b626b8a5a9e2681ac62dc83cc2db2530c0826176f1565b5b6167677fb309c40027c81d382c3b58d8de24207a34b27e1db369b1434e4a11311f154b5e8261387b565b616796576167957fb309c40027c81d382c3b58d8de24207a34b27e1db369b1434e4a11311f154b5e826176f1565b5b50565b80612bda60006101000a81548173ffffffffffffffffffffffffffffffffffffffff021916908373ffffffffffffffffffffffffffffffffffffffff16021790555050565b63ffffffff60e01b817bffffffffffffffffffffffffffffffffffffffffffffffffffffffff191603616846576040517f08c379a000000000000000000000000000000000000000000000000000000000815260040161683d9061a3cf565b60405180910390fd5b600160656000837bffffffffffffffffffffffffffffffffffffffffffffffffffffffff19167bffffffffffffffffffffffffffffffffffffffffffffffffffffffff1916815260200190815260200160002060006101000a81548160ff02191690831515021790555050565b61271061240754101580156168ce57506168cc33613f4c565b155b15616905576040517f8fc868f400000000000000000000000000000000000000000000000000000000815260040160405180910390fd5b565b600073ffffffffffffffffffffffffffffffffffffffff168173ffffffffffffffffffffffffffffffffffffffff16141580156169b2575060008173ffffffffffffffffffffffffffffffffffffffff166318160ddd6040518163ffffffff1660e01b8152600401602060405180830381865afa15801561698c573d6000803e3d6000fd5b505050506040513d601f19601f820116820180604052508101906169b091906193e1565b105b156169e9576040517fd0995cf200000000000000000000000000000000000000000000000000000000815260040160405180910390fd5b50565b8073ffffffffffffffffffffffffffffffffffffffff16611078600084815260200190815260200160002060009054906101000a900473ffffffffffffffffffffffffffffffffffffffff1673ffffffffffffffffffffffffffffffffffffffff1614616af45780611078600084815260200190815260200160002060006101000a81548173ffffffffffffffffffffffffffffffffffffffff021916908373ffffffffffffffffffffffffffffffffffffffff160217905550616aaf826174ff565b8073ffffffffffffffffffffffffffffffffffffffff16827f9d2895c45a420624de863a2f437b022d879f457bf7a829044055a10c5a6fd5e360405160405180910390a35b5050565b6000616b198473ffffffffffffffffffffffffffffffffffffffff16616557565b616b265760019050616bf8565b60008473ffffffffffffffffffffffffffffffffffffffff1663150b7a02338887876040518563ffffffff1660e01b8152600401616b67949392919061a3ef565b6020604051808303816000875af1158015616b86573d6000803e3d6000fd5b505050506040513d601f19601f82011682018060405250810190616baa919061a450565b905063150b7a0260e01b7bffffffffffffffffffffffffffffffffffffffffffffffffffffffff1916817bffffffffffffffffffffffffffffffffffffffffffffffffffffffff1916149150505b949350505050565b606060008273ffffffffffffffffffffffffffffffffffffffff1660001b905060006040518060400160405280601081526020017f303132333435363738396162636465660000000000000000000000000000000081525090506000602a67ffffffffffffffff811115616c7757616c766181b8565b5b6040519080825280601f01601f191660200182016040528015616ca95781602001600182028036833780820191505090505b5090507f300000000000000000000000000000000000000000000000000000000000000081600081518110616ce157616ce06194a2565b5b60200101907effffffffffffffffffffffffffffffffffffffffffffffffffffffffffffff1916908160001a9053507f780000000000000000000000000000000000000000000000000000000000000081600181518110616d4557616d446194a2565b5b60200101907effffffffffffffffffffffffffffffffffffffffffffffffffffffffffffff1916908160001a90535060005b6014811015616eff5782600485600c84616d91919061946e565b60208110616da257616da16194a2565b5b1a60f81b7effffffffffffffffffffffffffffffffffffffffffffffffffffffffffffff1916901c60f81c60ff1681518110616de157616de06194a2565b5b602001015160f81c60f81b82600283616dfa91906196eb565b6002616e06919061946e565b81518110616e1757616e166194a2565b5b60200101907effffffffffffffffffffffffffffffffffffffffffffffffffffffffffffff1916908160001a90535082600f60f81b85600c84616e5a919061946e565b60208110616e6b57616e6a6194a2565b5b1a60f81b1660f81c60ff1681518110616e8757616e866194a2565b5b602001015160f81c60f81b82600283616ea091906196eb565b6003616eac919061946e565b81518110616ebd57616ebc6194a2565b5b60200101907effffffffffffffffffffffffffffffffffffffffffffffffffffffffffffff1916908160001a9053508080616ef7906195e8565b915050616d77565b50809350505050919050565b6060600082905060008303616f58576040518060400160405280600181526020017f3000000000000000000000000000000000000000000000000000000000000000815250915050617095565b600083905060005b60008214616f8a578080616f73906195e8565b915050600a82616f83919061975c565b9150616f60565b60008167ffffffffffffffff811115616fa657616fa56181b8565b5b6040519080825280601f01601f191660200182016040528015616fd85781602001600182028036833780820191505090505b50905060008290505b6000851461708c57600181616ff69190619297565b90506000600a8087617008919061975c565b61701291906196eb565b8661701d9190619297565b6030617029919061a47d565b905060008160f81b905080848481518110617047576170466194a2565b5b60200101907effffffffffffffffffffffffffffffffffffffffffffffffffffffffffffff1916908160001a905350600a87617083919061975c565b96505050616fe1565b81955050505050505b919050565b6060848484846040516020016170b3949392919061a4ee565b6040516020818303038152906040529050949350505050565b600081111561716a57600073ffffffffffffffffffffffffffffffffffffffff168373ffffffffffffffffffffffffffffffffffffffff160361713757617132818373ffffffffffffffffffffffffffffffffffffffff166176ff90919063ffffffff16565b617169565b600083905061716783838373ffffffffffffffffffffffffffffffffffffffff166177f39092919063ffffffff16565b505b5b505050565b600061717a82617879565b9050919050565b6000611076600083815260200190815260200160002060009054906101000a900473ffffffffffffffffffffffffffffffffffffffff169050600060016171c7836132a8565b6171d19190619297565b9050600061107d60008581526020019081526020016000205490508181146172ba57600061107c60008573ffffffffffffffffffffffffffffffffffffffff1673ffffffffffffffffffffffffffffffffffffffff16815260200190815260200160002060008481526020019081526020016000205490508061107c60008673ffffffffffffffffffffffffffffffffffffffff1673ffffffffffffffffffffffffffffffffffffffff1681526020019081526020016000206000848152602001908152602001600020819055508161107d600083815260200190815260200160002081905550505b61107c60008473ffffffffffffffffffffffffffffffffffffffff1673ffffffffffffffffffffffffffffffffffffffff168152602001908152602001600020600083815260200190815260200160002060009055600161731a846132a8565b036173395761107760008154809291906173339061a52c565b91905055505b600161107e60008573ffffffffffffffffffffffffffffffffffffffff1673ffffffffffffffffffffffffffffffffffffffff168152602001908152602001600020600082825461738a9190619297565b9250508190555050505050565b60006173a2826132a8565b9050610c8e5481106173e0576040517f17ed864600000000000000000000000000000000000000000000000000000000815260040160405180910390fd5b8061107d6000858152602001908152602001600020819055508261107c60008473ffffffffffffffffffffffffffffffffffffffff1673ffffffffffffffffffffffffffffffffffffffff16815260200190815260200160002060008381526020019081526020016000208190555081611076600085815260200190815260200160002060006101000a81548173ffffffffffffffffffffffffffffffffffffffff021916908373ffffffffffffffffffffffffffffffffffffffff160217905550600161107e60008473ffffffffffffffffffffffffffffffffffffffff1673ffffffffffffffffffffffffffffffffffffffff16815260200190815260200160002060008282546174f3919061946e565b92505081905550505050565b600073ffffffffffffffffffffffffffffffffffffffff16611079600083815260200190815260200160002060009054906101000a900473ffffffffffffffffffffffffffffffffffffffff1673ffffffffffffffffffffffffffffffffffffffff16146175bc576000611079600083815260200190815260200160002060006101000a81548173ffffffffffffffffffffffffffffffffffffffff021916908373ffffffffffffffffffffffffffffffffffffffff1602179055505b50565b6175c9828261387b565b617640576175d6816178f3565b6175e48360001c6020617920565b6040516020016175f592919061a5ed565b6040516020818303038152906040526040517f08c379a00000000000000000000000000000000000000000000000000000000081526004016176379190618097565b60405180910390fd5b5050565b600060019054906101000a900460ff16617693576040517f08c379a000000000000000000000000000000000000000000000000000000000815260040161768a9061a699565b60405180910390fd5b565b60006176a083611a36565b90508160976000858152602001908152602001600020600101819055508181847fbd79b86ffe0ab8e8776151514217cd7cacd52c909f66475c3af44e129f0b00ff60405160405180910390a4505050565b6176fb8282615509565b5050565b80471015617742576040517f08c379a00000000000000000000000000000000000000000000000000000000081526004016177399061a705565b60405180910390fd5b60008273ffffffffffffffffffffffffffffffffffffffff16826040516177689061a756565b60006040518083038185875af1925050503d80600081146177a5576040519150601f19603f3d011682016040523d82523d6000602084013e6177aa565b606091505b50509050806177ee576040517f08c379a00000000000000000000000000000000000000000000000000000000081526004016177e59061a7dd565b60405180910390fd5b505050565b6178748363a9059cbb60e01b848460405160240161781292919061a7fd565b604051602081830303815290604052907bffffffffffffffffffffffffffffffffffffffffffffffffffffffff19166020820180517bffffffffffffffffffffffffffffffffffffffffffffffffffffffff8381831617835250505050617b5c565b505050565b60007f7965db0b000000000000000000000000000000000000000000000000000000007bffffffffffffffffffffffffffffffffffffffffffffffffffffffff1916827bffffffffffffffffffffffffffffffffffffffffffffffffffffffff191614806178ec57506178eb82617c23565b5b9050919050565b60606179198273ffffffffffffffffffffffffffffffffffffffff16601460ff16617920565b9050919050565b60606000600283600261793391906196eb565b61793d919061946e565b67ffffffffffffffff811115617956576179556181b8565b5b6040519080825280601f01601f1916602001820160405280156179885781602001600182028036833780820191505090505b5090507f3000000000000000000000000000000000000000000000000000000000000000816000815181106179c0576179bf6194a2565b5b60200101907effffffffffffffffffffffffffffffffffffffffffffffffffffffffffffff1916908160001a9053507f780000000000000000000000000000000000000000000000000000000000000081600181518110617a2457617a236194a2565b5b60200101907effffffffffffffffffffffffffffffffffffffffffffffffffffffffffffff1916908160001a90535060006001846002617a6491906196eb565b617a6e919061946e565b90505b6001811115617b0e577f3031323334353637383961626364656600000000000000000000000000000000600f861660108110617ab057617aaf6194a2565b5b1a60f81b828281518110617ac757617ac66194a2565b5b60200101907effffffffffffffffffffffffffffffffffffffffffffffffffffffffffffff1916908160001a905350600485901c945080617b079061a52c565b9050617a71565b5060008414617b52576040517f08c379a0000000000000000000000000000000000000000000000000000000008152600401617b499061a872565b60405180910390fd5b8091505092915050565b6000617bbe826040518060400160405280602081526020017f5361666545524332303a206c6f772d6c6576656c2063616c6c206661696c65648152508573ffffffffffffffffffffffffffffffffffffffff16617c9b9092919063ffffffff16565b9050600081511115617c1e5780806020019051810190617bde919061983e565b617c1d576040517f08c379a0000000000000000000000000000000000000000000000000000000008152600401617c149061a904565b60405180910390fd5b5b505050565b6000617c2e82617cb3565b80617c94575060656000837bffffffffffffffffffffffffffffffffffffffffffffffffffffffff19167bffffffffffffffffffffffffffffffffffffffffffffffffffffffff1916815260200190815260200160002060009054906101000a900460ff165b9050919050565b6060617caa8484600085617d1d565b90509392505050565b60007f01ffc9a7000000000000000000000000000000000000000000000000000000007bffffffffffffffffffffffffffffffffffffffffffffffffffffffff1916827bffffffffffffffffffffffffffffffffffffffffffffffffffffffff1916149050919050565b606082471015617d62576040517f08c379a0000000000000000000000000000000000000000000000000000000008152600401617d599061a996565b60405180910390fd5b6000808673ffffffffffffffffffffffffffffffffffffffff168587604051617d8b919061a9e7565b60006040518083038185875af1925050503d8060008114617dc8576040519150601f19603f3d011682016040523d82523d6000602084013e617dcd565b606091505b5091509150617dde87838387617dea565b92505050949350505050565b60608315617e4c576000835103617e4457617e0485616557565b617e43576040517f08c379a0000000000000000000000000000000000000000000000000000000008152600401617e3a9061aa4a565b60405180910390fd5b5b829050617e57565b617e568383617e5f565b5b949350505050565b600082511115617e725781518083602001fd5b806040517f08c379a0000000000000000000000000000000000000000000000000000000008152600401617ea69190618097565b60405180910390fd5b6000604051905090565b600080fd5b600080fd5b60007fffffffff0000000000000000000000000000000000000000000000000000000082169050919050565b617ef881617ec3565b8114617f0357600080fd5b50565b600081359050617f1581617eef565b92915050565b600060208284031215617f3157617f30617eb9565b5b6000617f3f84828501617f06565b91505092915050565b60008115159050919050565b617f5d81617f48565b82525050565b6000602082019050617f786000830184617f54565b92915050565b6000819050919050565b617f9181617f7e565b8114617f9c57600080fd5b50565b600081359050617fae81617f88565b92915050565b600080600060608486031215617fcd57617fcc617eb9565b5b6000617fdb86828701617f9f565b9350506020617fec86828701617f9f565b9250506040617ffd86828701617f9f565b9150509250925092565b600081519050919050565b600082825260208201905092915050565b60005b83811015618041578082015181840152602081019050618026565b60008484015250505050565b6000601f19601f8301169050919050565b600061806982618007565b6180738185618012565b9350618083818560208601618023565b61808c8161804d565b840191505092915050565b600060208201905081810360008301526180b1818461805e565b905092915050565b6000602082840312156180cf576180ce617eb9565b5b60006180dd84828501617f9f565b91505092915050565b600073ffffffffffffffffffffffffffffffffffffffff82169050919050565b6000618111826180e6565b9050919050565b61812181618106565b82525050565b600060208201905061813c6000830184618118565b92915050565b61814b81618106565b811461815657600080fd5b50565b60008135905061816881618142565b92915050565b6000806040838503121561818557618184617eb9565b5b600061819385828601618159565b92505060206181a485828601617f9f565b9150509250929050565b600080fd5b600080fd5b7f4e487b7100000000000000000000000000000000000000000000000000000000600052604160045260246000fd5b6181f08261804d565b810181811067ffffffffffffffff8211171561820f5761820e6181b8565b5b80604052505050565b6000618222617eaf565b905061822e82826181e7565b919050565b600067ffffffffffffffff82111561824e5761824d6181b8565b5b6182578261804d565b9050602081019050919050565b82818337600083830152505050565b600061828661828184618233565b618218565b9050828152602081018484840111156182a2576182a16181b3565b5b6182ad848285618264565b509392505050565b600082601f8301126182ca576182c96181ae565b5b81356182da848260208601618273565b91505092915050565b6000806000606084860312156182fc576182fb617eb9565b5b600061830a86828701618159565b935050602061831b86828701618159565b925050604084013567ffffffffffffffff81111561833c5761833b617ebe565b5b618348868287016182b5565b9150509250925092565b61835b81617f7e565b82525050565b60006020820190506183766000830184618352565b92915050565b60008060006060848603121561839557618394617eb9565b5b60006183a386828701618159565b93505060206183b486828701618159565b92505060406183c586828701617f9f565b9150509250925092565b6000819050919050565b60006183f46183ef6183ea846180e6565b6183cf565b6180e6565b9050919050565b6000618406826183d9565b9050919050565b6000618418826183fb565b9050919050565b6184288161840d565b82525050565b6000602082019050618443600083018461841f565b92915050565b60006020828403121561845f5761845e617eb9565b5b600061846d84828501618159565b91505092915050565b6000618481826183fb565b9050919050565b61849181618476565b82525050565b60006020820190506184ac6000830184618488565b92915050565b6000819050919050565b6184c5816184b2565b81146184d057600080fd5b50565b6000813590506184e2816184bc565b92915050565b6000602082840312156184fe576184fd617eb9565b5b600061850c848285016184d3565b91505092915050565b61851e816184b2565b82525050565b60006020820190506185396000830184618515565b92915050565b600061854a826183fb565b9050919050565b61855a8161853f565b82525050565b60006020820190506185756000830184618551565b92915050565b6000618586826183fb565b9050919050565b6185968161857b565b82525050565b60006020820190506185b1600083018461858d565b92915050565b600080604083850312156185ce576185cd617eb9565b5b60006185dc858286016184d3565b92505060206185ed85828601618159565b9150509250929050565b600067ffffffffffffffff821115618612576186116181b8565b5b602082029050602081019050919050565b600080fd5b600061863b618636846185f7565b618218565b9050808382526020820190506020840283018581111561865e5761865d618623565b5b835b8181101561868757806186738882617f9f565b845260208401935050602081019050618660565b5050509392505050565b600082601f8301126186a6576186a56181ae565b5b81356186b6848260208601618628565b91505092915050565b600067ffffffffffffffff8211156186da576186d96181b8565b5b602082029050602081019050919050565b60006186fe6186f9846186bf565b618218565b9050808382526020820190506020840283018581111561872157618720618623565b5b835b8181101561874a57806187368882618159565b845260208401935050602081019050618723565b5050509392505050565b600082601f830112618769576187686181ae565b5b81356187798482602086016186eb565b91505092915050565b600080fd5b60008083601f84011261879d5761879c6181ae565b5b8235905067ffffffffffffffff8111156187ba576187b9618782565b5b6020830191508360208202830111156187d6576187d5618623565b5b9250929050565b60008060008060008060a087890312156187fa576187f9617eb9565b5b600087013567ffffffffffffffff81111561881857618817617ebe565b5b61882489828a01618691565b965050602087013567ffffffffffffffff81111561884557618844617ebe565b5b61885189828a01618754565b955050604087013567ffffffffffffffff81111561887257618871617ebe565b5b61887e89828a01618754565b945050606087013567ffffffffffffffff81111561889f5761889e617ebe565b5b6188ab89828a01618754565b935050608087013567ffffffffffffffff8111156188cc576188cb617ebe565b5b6188d889828a01618787565b92509250509295509295509295565b600081519050919050565b600082825260208201905092915050565b6000819050602082019050919050565b61891c81617f7e565b82525050565b600061892e8383618913565b60208301905092915050565b6000602082019050919050565b6000618952826188e7565b61895c81856188f2565b935061896783618903565b8060005b8381101561899857815161897f8882618922565b975061898a8361893a565b92505060018101905061896b565b5085935050505092915050565b600060208201905081810360008301526189bf8184618947565b905092915050565b60006189d2826183fb565b9050919050565b6189e2816189c7565b82525050565b60006020820190506189fd60008301846189d9565b92915050565b60008060408385031215618a1a57618a19617eb9565b5b6000618a2885828601617f9f565b9250506020618a3985828601617f9f565b9150509250929050565b60008060408385031215618a5a57618a59617eb9565b5b6000618a6885828601617f9f565b9250506020618a7985828601618159565b9150509250929050565b6000618a8e826180e6565b9050919050565b618a9e81618a83565b8114618aa957600080fd5b50565b600081359050618abb81618a95565b92915050565b60008083601f840112618ad757618ad66181ae565b5b8235905067ffffffffffffffff811115618af457618af3618782565b5b602083019150836001820283011115618b1057618b0f618623565b5b9250929050565b600080600080600080600060c0888a031215618b3657618b35617eb9565b5b6000618b448a828b01618aac565b9750506020618b558a828b01617f9f565b9650506040618b668a828b01618159565b9550506060618b778a828b01617f9f565b9450506080618b888a828b01617f9f565b93505060a088013567ffffffffffffffff811115618ba957618ba8617ebe565b5b618bb58a828b01618ac1565b925092505092959891949750929550565b600080600080600080600060e0888a031215618be557618be4617eb9565b5b6000618bf38a828b01618159565b9750506020618c048a828b01618159565b9650506040618c158a828b01618159565b9550506060618c268a828b01618159565b9450506080618c378a828b01618159565b93505060a0618c488a828b01618159565b92505060c0618c598a828b01618159565b91505092959891949750929550565b6000618c73826183fb565b9050919050565b618c8381618c68565b82525050565b6000602082019050618c9e6000830184618c7a565b92915050565b60008083601f840112618cba57618cb96181ae565b5b8235905067ffffffffffffffff811115618cd757618cd6618782565b5b602083019150836020820283011115618cf357618cf2618623565b5b9250929050565b60008083601f840112618d1057618d0f6181ae565b5b8235905067ffffffffffffffff811115618d2d57618d2c618782565b5b602083019150836020820283011115618d4957618d48618623565b5b9250929050565b60008060008060008060608789031215618d6d57618d6c617eb9565b5b600087013567ffffffffffffffff811115618d8b57618d8a617ebe565b5b618d9789828a01618ca4565b9650965050602087013567ffffffffffffffff811115618dba57618db9617ebe565b5b618dc689828a01618cfa565b9450945050604087013567ffffffffffffffff811115618de957618de8617ebe565b5b618df589828a01618ca4565b92509250509295509295509295565b60008083601f840112618e1a57618e196181ae565b5b8235905067ffffffffffffffff811115618e3757618e36618782565b5b602083019150836001820283011115618e5357618e52618623565b5b9250929050565b60008060208385031215618e7157618e70617eb9565b5b600083013567ffffffffffffffff811115618e8f57618e8e617ebe565b5b618e9b85828601618e04565b92509250509250929050565b618eb081617f48565b8114618ebb57600080fd5b50565b600081359050618ecd81618ea7565b92915050565b60008060408385031215618eea57618ee9617eb9565b5b6000618ef885828601618159565b9250506020618f0985828601618ebe565b9150509250929050565b6000618f1e826183fb565b9050919050565b618f2e81618f13565b82525050565b6000602082019050618f496000830184618f25565b92915050565b60008060008060808587031215618f6957618f68617eb9565b5b6000618f7787828801618159565b9450506020618f8887828801618159565b9350506040618f9987828801617f9f565b925050606085013567ffffffffffffffff811115618fba57618fb9617ebe565b5b618fc6878288016182b5565b91505092959194509250565b6000618fdd826183fb565b9050919050565b618fed81618fd2565b82525050565b60006020820190506190086000830184618fe4565b92915050565b6000806000806000806060878903121561902b5761902a617eb9565b5b600087013567ffffffffffffffff81111561904957619048617ebe565b5b61905589828a01618ac1565b9650965050602087013567ffffffffffffffff81111561907857619077617ebe565b5b61908489828a01618ac1565b9450945050604087013567ffffffffffffffff8111156190a7576190a6617ebe565b5b6190b389828a01618ac1565b92509250509295509295509295565b600061ffff82169050919050565b6190d9816190c2565b82525050565b60006020820190506190f460008301846190d0565b92915050565b60008060008060006080868803121561911657619115617eb9565b5b600061912488828901617f9f565b955050602061913588828901617f9f565b945050604061914688828901618159565b935050606086013567ffffffffffffffff81111561916757619166617ebe565b5b61917388828901618e04565b92509250509295509295909350565b60008060006060848603121561919b5761919a617eb9565b5b60006191a986828701618159565b93505060206191ba86828701618aac565b92505060406191cb86828701617f9f565b9150509250925092565b600080604083850312156191ec576191eb617eb9565b5b60006191fa85828601618159565b925050602061920b85828601618159565b9150509250929050565b60008060006060848603121561922e5761922d617eb9565b5b600061923c86828701618159565b935050602061924d86828701617f9f565b925050604061925e86828701617f9f565b9150509250925092565b7f4e487b7100000000000000000000000000000000000000000000000000000000600052601160045260246000fd5b60006192a282617f7e565b91506192ad83617f7e565b92508282039050818111156192c5576192c4619268565b5b92915050565b7f4e487b7100000000000000000000000000000000000000000000000000000000600052602260045260246000fd5b6000600282049050600182168061931257607f821691505b602082108103619325576193246192cb565b5b50919050565b600081519050919050565b600082825260208201905092915050565b60006193528261932b565b61935c8185619336565b935061936c818560208601618023565b6193758161804d565b840191505092915050565b60006080820190506193956000830187618118565b6193a26020830186618118565b6193af6040830185618118565b81810360608301526193c18184619347565b905095945050505050565b6000815190506193db81617f88565b92915050565b6000602082840312156193f7576193f6617eb9565b5b6000619405848285016193cc565b91505092915050565b60006040820190506194236000830185618118565b6194306020830184618118565b9392505050565b600060608201905061944c6000830186618352565b6194596020830185618352565b6194666040830184618352565b949350505050565b600061947982617f7e565b915061948483617f7e565b925082820190508082111561949c5761949b619268565b5b92915050565b7f4e487b7100000000000000000000000000000000000000000000000000000000600052603260045260246000fd5b600080fd5b600080fd5b600080fd5b600080833560016020038436030381126194fd576194fc6194d1565b5b80840192508235915067ffffffffffffffff82111561951f5761951e6194d6565b5b60208301925060018202360383131561953b5761953a6194db565b5b509250929050565b600061954f8385619336565b935061955c838584618264565b6195658361804d565b840190509392505050565b600060e082019050619585600083018b618352565b619592602083018a618118565b61959f6040830189618118565b6195ac6060830188618118565b81810360808301526195bf818688619543565b90506195ce60a0830185618352565b6195db60c0830184618352565b9998505050505050505050565b60006195f382617f7e565b91507fffffffffffffffffffffffffffffffffffffffffffffffffffffffffffffffff820361962557619624619268565b5b600182019050919050565b7f416363657373436f6e74726f6c3a2063616e206f6e6c792072656e6f756e636560008201527f20726f6c657320666f722073656c660000000000000000000000000000000000602082015250565b600061968c602f83618012565b915061969782619630565b604082019050919050565b600060208201905081810360008301526196bb8161967f565b9050919050565b60006040820190506196d76000830185618352565b6196e46020830184618352565b9392505050565b60006196f682617f7e565b915061970183617f7e565b925082820261970f81617f7e565b9150828204841483151761972657619725619268565b5b5092915050565b7f4e487b7100000000000000000000000000000000000000000000000000000000600052601260045260246000fd5b600061976782617f7e565b915061977283617f7e565b9250826197825761978161972d565b5b828204905092915050565b6000819050919050565b60006197b26197ad6197a88461978d565b6183cf565b617f7e565b9050919050565b6197c281619797565b82525050565b600060c0820190506197dd6000830189618118565b6197ea6020830188618118565b6197f760408301876197b9565b61980460608301866197b9565b6198116080830185618118565b61981e60a0830184617f54565b979650505050505050565b60008151905061983881618ea7565b92915050565b60006020828403121561985457619853617eb9565b5b600061986284828501619829565b91505092915050565b7f496e697469616c697a61626c653a20636f6e747261637420697320616c72656160008201527f647920696e697469616c697a6564000000000000000000000000000000000000602082015250565b60006198c7602e83618012565b91506198d28261986b565b604082019050919050565b600060208201905081810360008301526198f6816198ba565b9050919050565b6000819050919050565b600060ff82169050919050565b600061992f61992a619925846198fd565b6183cf565b619907565b9050919050565b61993f81619914565b82525050565b600060208201905061995a6000830184619936565b92915050565b600061997b6199766199718461978d565b6183cf565b619907565b9050919050565b61998b81619960565b82525050565b60006020820190506199a66000830184619982565b92915050565b6000819050919050565b60006199d16199cc6199c7846199ac565b6183cf565b619907565b9050919050565b6199e1816199b6565b82525050565b60006020820190506199fc60008301846199d8565b92915050565b6000819050919050565b6000619a27619a22619a1d84619a02565b6183cf565b619907565b9050919050565b619a3781619a0c565b82525050565b6000602082019050619a526000830184619a2e565b92915050565b6000819050919050565b6000619a7d619a78619a7384619a58565b6183cf565b619907565b9050919050565b619a8d81619a62565b82525050565b6000602082019050619aa86000830184619a84565b92915050565b6000819050919050565b6000619ad3619ace619ac984619aae565b6183cf565b619907565b9050919050565b619ae381619ab8565b82525050565b6000602082019050619afe6000830184619ada565b92915050565b6000819050919050565b6000619b29619b24619b1f84619b04565b6183cf565b619907565b9050919050565b619b3981619b0e565b82525050565b6000602082019050619b546000830184619b30565b92915050565b600060e082019050619b6f600083018a618118565b619b7c6020830189618118565b619b896040830188618118565b619b966060830187618118565b619ba36080830186618118565b619bb060a0830185618118565b619bbd60c0830184618118565b98975050505050505050565b600060a082019050619bde6000830188618352565b619beb6020830187618118565b619bf86040830186618118565b619c056060830185618118565b619c126080830184618352565b9695505050505050565b6000619c27826190c2565b9150619c32836190c2565b9250828203905061ffff811115619c4c57619c4b619268565b5b92915050565b7f534348454d415f56455253494f4e5f4e4f545f434f5252454354000000000000600082015250565b6000619c88601a83618012565b9150619c9382619c52565b602082019050919050565b60006020820190508181036000830152619cb781619c7b565b9050919050565b600067ffffffffffffffff821115619cd957619cd86181b8565b5b619ce28261804d565b9050602081019050919050565b6000619d02619cfd84619cbe565b618218565b905082815260208101848484011115619d1e57619d1d6181b3565b5b619d29848285618023565b509392505050565b600082601f830112619d4657619d456181ae565b5b8151619d56848260208601619cef565b91505092915050565b600060208284031215619d7557619d74617eb9565b5b600082015167ffffffffffffffff811115619d9357619d92617ebe565b5b619d9f84828501619d31565b91505092915050565b6000608082019050619dbd6000830187618352565b619dca6020830186618352565b619dd76040830185618118565b619de46060830184618118565b95945050505050565b600060c082019050619e026000830189618118565b619e0f6020830188618118565b619e1c6040830187618352565b619e296060830186618352565b619e366080830185618118565b619e4360a0830184617f54565b979650505050505050565b600060a082019050619e636000830188618118565b619e706020830187618118565b619e7d6040830186618118565b619e8a6060830185618352565b619e976080830184618352565b9695505050505050565b600082905092915050565b60008190508160005260206000209050919050565b60006020601f8301049050919050565b600082821b905092915050565b600060088302619f0e7fffffffffffffffffffffffffffffffffffffffffffffffffffffffffffffffff82619ed1565b619f188683619ed1565b95508019841693508086168417925050509392505050565b6000619f4b619f46619f4184617f7e565b6183cf565b617f7e565b9050919050565b6000819050919050565b619f6583619f30565b619f79619f7182619f52565b848454619ede565b825550505050565b600090565b619f8e619f81565b619f99818484619f5c565b505050565b5b81811015619fbd57619fb2600082619f86565b600181019050619f9f565b5050565b601f82111561a00257619fd381619eac565b619fdc84619ec1565b81016020851015619feb578190505b619fff619ff785619ec1565b830182619f9e565b50505b505050565b600082821c905092915050565b600061a0256000198460080261a007565b1980831691505092915050565b600061a03e838361a014565b9150826002028217905092915050565b61a0588383619ea1565b67ffffffffffffffff81111561a0715761a0706181b8565b5b61a07b82546192fa565b61a086828285619fc1565b6000601f83116001811461a0b5576000841561a0a3578287013590505b61a0ad858261a032565b86555061a115565b601f19841661a0c386619eac565b60005b8281101561a0eb5784890135825560018201915060208501945060208101905061a0c6565b8683101561a108578489013561a104601f89168261a014565b8355505b6001600288020188555050505b50505050505050565b6000815461a12b816192fa565b61a1358186618012565b9450600182166000811461a150576001811461a1665761a199565b60ff19831686528115156020028601935061a199565b61a16f85619eac565b60005b8381101561a1915781548189015260018201915060208101905061a172565b808801955050505b50505092915050565b6000606082019050818103600083015261a1bc818661a11e565b9050818103602083015261a1d0818561a11e565b9050818103604083015261a1e4818461a11e565b9050949350505050565b600060608201905061a2036000830186618352565b61a2106020830185618352565b61a21d6040830184617f54565b949350505050565b600060c08201905061a23a6000830189618118565b61a2476020830188618352565b61a2546040830187618118565b61a2616060830186618118565b61a26e6080830185618118565b61a27b60a0830184618352565b979650505050505050565b600060408201905061a29b6000830185618352565b61a2a86020830184618118565b9392505050565b600060608201905061a2c46000830186618118565b61a2d16020830185618118565b61a2de6040830184618352565b949350505050565b600060808201905061a2fb6000830187618352565b61a3086020830186618118565b61a3156040830185618352565b61a3226060830184618352565b95945050505050565b600061a336826183fb565b9050919050565b61a3468161a32b565b82525050565b600060608201905061a3616000830186618118565b61a36e602083018561a33d565b61a37b6040830184618352565b949350505050565b7f4552433136353a20696e76616c696420696e7465726661636520696400000000600082015250565b600061a3b9601c83618012565b915061a3c48261a383565b602082019050919050565b6000602082019050818103600083015261a3e88161a3ac565b9050919050565b600060808201905061a4046000830187618118565b61a4116020830186618118565b61a41e6040830185618352565b818103606083015261a4308184619347565b905095945050505050565b60008151905061a44a81617eef565b92915050565b60006020828403121561a4665761a465617eb9565b5b600061a4748482850161a43b565b91505092915050565b600061a48882619907565b915061a49383619907565b9250828201905060ff81111561a4ac5761a4ab619268565b5b92915050565b600081905092915050565b600061a4c882618007565b61a4d2818561a4b2565b935061a4e2818560208601618023565b80840191505092915050565b600061a4fa828761a4bd565b915061a506828661a4bd565b915061a512828561a4bd565b915061a51e828461a4bd565b915081905095945050505050565b600061a53782617f7e565b91506000820361a54a5761a549619268565b5b600182039050919050565b7f416363657373436f6e74726f6c3a206163636f756e7420000000000000000000600082015250565b600061a58b60178361a4b2565b915061a5968261a555565b601782019050919050565b7f206973206d697373696e6720726f6c6520000000000000000000000000000000600082015250565b600061a5d760118361a4b2565b915061a5e28261a5a1565b601182019050919050565b600061a5f88261a57e565b915061a604828561a4bd565b915061a60f8261a5ca565b915061a61b828461a4bd565b91508190509392505050565b7f496e697469616c697a61626c653a20636f6e7472616374206973206e6f74206960008201527f6e697469616c697a696e67000000000000000000000000000000000000000000602082015250565b600061a683602b83618012565b915061a68e8261a627565b604082019050919050565b6000602082019050818103600083015261a6b28161a676565b9050919050565b7f416464726573733a20696e73756666696369656e742062616c616e6365000000600082015250565b600061a6ef601d83618012565b915061a6fa8261a6b9565b602082019050919050565b6000602082019050818103600083015261a71e8161a6e2565b9050919050565b600081905092915050565b50565b600061a74060008361a725565b915061a74b8261a730565b600082019050919050565b600061a7618261a733565b9150819050919050565b7f416464726573733a20756e61626c6520746f2073656e642076616c75652c207260008201527f6563697069656e74206d61792068617665207265766572746564000000000000602082015250565b600061a7c7603a83618012565b915061a7d28261a76b565b604082019050919050565b6000602082019050818103600083015261a7f68161a7ba565b9050919050565b600060408201905061a8126000830185618118565b61a81f6020830184618352565b9392505050565b7f537472696e67733a20686578206c656e67746820696e73756666696369656e74600082015250565b600061a85c602083618012565b915061a8678261a826565b602082019050919050565b6000602082019050818103600083015261a88b8161a84f565b9050919050565b7f5361666545524332303a204552433230206f7065726174696f6e20646964206e60008201527f6f74207375636365656400000000000000000000000000000000000000000000602082015250565b600061a8ee602a83618012565b915061a8f98261a892565b604082019050919050565b6000602082019050818103600083015261a91d8161a8e1565b9050919050565b7f416464726573733a20696e73756666696369656e742062616c616e636520666f60008201527f722063616c6c0000000000000000000000000000000000000000000000000000602082015250565b600061a980602683618012565b915061a98b8261a924565b604082019050919050565b6000602082019050818103600083015261a9af8161a973565b9050919050565b600061a9c18261932b565b61a9cb818561a725565b935061a9db818560208601618023565b80840191505092915050565b600061a9f3828461a9b6565b915081905092915050565b7f416464726573733a2063616c6c20746f206e6f6e2d636f6e7472616374000000600082015250565b600061aa34601d83618012565b915061aa3f8261a9fe565b602082019050919050565b6000602082019050818103600083015261aa638161aa27565b905091905056fea264697066735822122064612b1b91a8f4e88c19a8c9ea06a0ae74b6b0643ea72ba5d7edbcc50071e37964736f6c63430008120033",
			"opcodes": "PUSH1 0x80 PUSH1 0x40 MSTORE CALLVALUE DUP1 ISZERO PUSH3 0x11 JUMPI PUSH1 0x0 DUP1 REVERT JUMPDEST POP PUSH2 0xAAA0 DUP1 PUSH3 0x22 PUSH1 0x0 CODECOPY PUSH1 0x0 RETURN INVALID PUSH1 0x80 PUSH1 0x40 MSTORE PUSH1 0x4 CALLDATASIZE LT PUSH2 0x498 JUMPI PUSH1 0x0 CALLDATALOAD PUSH1 0xE0 SHR DUP1 PUSH4 0x70A08231 GT PUSH2 0x260 JUMPI DUP1 PUSH4 0xB11D7EC1 GT PUSH2 0x144 JUMPI DUP1 PUSH4 0xD32BFB6C GT PUSH2 0xC1 JUMPI DUP1 PUSH4 0xDEBE2B0D GT PUSH2 0x85 JUMPI DUP1 PUSH4 0xDEBE2B0D EQ PUSH2 0x12DD JUMPI DUP1 PUSH4 0xE985E9C5 EQ PUSH2 0x1306 JUMPI DUP1 PUSH4 0xF0BA6040 EQ PUSH2 0x1343 JUMPI DUP1 PUSH4 0xF12C6B6E EQ PUSH2 0x135A JUMPI DUP1 PUSH4 0xF32E8B24 EQ PUSH2 0x1383 JUMPI DUP1 PUSH4 0xF5766B39 EQ PUSH2 0x139A JUMPI PUSH2 0x49F JUMP JUMPDEST DUP1 PUSH4 0xD32BFB6C EQ PUSH2 0x121B JUMPI DUP1 PUSH4 0xD52E4A10 EQ PUSH2 0x1244 JUMPI DUP1 PUSH4 0xD547741F EQ PUSH2 0x126F JUMPI DUP1 PUSH4 0xD813CC19 EQ PUSH2 0x1298 JUMPI DUP1 PUSH4 0xD9CAED12 EQ PUSH2 0x12B4 JUMPI PUSH2 0x49F JUMP JUMPDEST DUP1 PUSH4 0xC87B56DD GT PUSH2 0x108 JUMPI DUP1 PUSH4 0xC87B56DD EQ PUSH2 0x1136 JUMPI DUP1 PUSH4 0xC907C3EC EQ PUSH2 0x1173 JUMPI DUP1 PUSH4 0xD1B8759B EQ PUSH2 0x119E JUMPI DUP1 PUSH4 0xD1BBD49C EQ PUSH2 0x11C7 JUMPI DUP1 PUSH4 0xD2503485 EQ PUSH2 0x11F2 JUMPI PUSH2 0x49F JUMP JUMPDEST DUP1 PUSH4 0xB11D7EC1 EQ PUSH2 0x103F JUMPI DUP1 PUSH4 0xB129694E EQ PUSH2 0x1068 JUMPI DUP1 PUSH4 0xB1A3B25D EQ PUSH2 0x1093 JUMPI DUP1 PUSH4 0xB88D4FDE EQ PUSH2 0x10D0 JUMPI DUP1 PUSH4 0xC23135DD EQ PUSH2 0x10F9 JUMPI PUSH2 0x49F JUMP JUMPDEST DUP1 PUSH4 0x91D14854 GT PUSH2 0x1DD JUMPI DUP1 PUSH4 0xA217FDDF GT PUSH2 0x1A1 JUMPI DUP1 PUSH4 0xA217FDDF EQ PUSH2 0xF1D JUMPI DUP1 PUSH4 0xA22CB465 EQ PUSH2 0xF48 JUMPI DUP1 PUSH4 0xA2E4CD2E EQ PUSH2 0xF71 JUMPI DUP1 PUSH4 0xA375CB05 EQ PUSH2 0xF9A JUMPI DUP1 PUSH4 0xA98D3623 EQ PUSH2 0xFC5 JUMPI DUP1 PUSH4 0xAAE4B8F7 EQ PUSH2 0x1002 JUMPI PUSH2 0x49F JUMP JUMPDEST DUP1 PUSH4 0x91D14854 EQ PUSH2 0xE22 JUMPI DUP1 PUSH4 0x92AC98A5 EQ PUSH2 0xE5F JUMPI DUP1 PUSH4 0x93FD1844 EQ PUSH2 0xE9C JUMPI DUP1 PUSH4 0x95D89B41 EQ PUSH2 0xEC7 JUMPI DUP1 PUSH4 0x9D76EA58 EQ PUSH2 0xEF2 JUMPI PUSH2 0x49F JUMP JUMPDEST DUP1 PUSH4 0x81A3C943 GT PUSH2 0x224 JUMPI DUP1 PUSH4 0x81A3C943 EQ PUSH2 0xD3F JUMPI DUP1 PUSH4 0x8505FE95 EQ PUSH2 0xD7C JUMPI DUP1 PUSH4 0x8577A6D5 EQ PUSH2 0xDA5 JUMPI DUP1 PUSH4 0x8932A90D EQ PUSH2 0xDCE JUMPI DUP1 PUSH4 0x8DA5CB5B EQ PUSH2 0xDF7 JUMPI PUSH2 0x49F JUMP JUMPDEST DUP1 PUSH4 0x70A08231 EQ PUSH2 0xC46 JUMPI DUP1 PUSH4 0x74B6C106 EQ PUSH2 0xC83 JUMPI DUP1 PUSH4 0x74CAC47D EQ PUSH2 0xCAE JUMPI DUP1 PUSH4 0x7EC2A724 EQ PUSH2 0xCD7 JUMPI DUP1 PUSH4 0x812EECD4 EQ PUSH2 0xD02 JUMPI PUSH2 0x49F JUMP JUMPDEST DUP1 PUSH4 0x2F54BF6E GT PUSH2 0x387 JUMPI DUP1 PUSH4 0x4D025FED GT PUSH2 0x304 JUMPI DUP1 PUSH4 0x558B71E9 GT PUSH2 0x2C8 JUMPI DUP1 PUSH4 0x558B71E9 EQ PUSH2 0xB24 JUMPI DUP1 PUSH4 0x56E0D51F EQ PUSH2 0xB4D JUMPI DUP1 PUSH4 0x6207A8DA EQ PUSH2 0xB78 JUMPI DUP1 PUSH4 0x6352211E EQ PUSH2 0xBA3 JUMPI DUP1 PUSH4 0x6D8EA5B4 EQ PUSH2 0xBE0 JUMPI DUP1 PUSH4 0x6EADDE43 EQ PUSH2 0xC1D JUMPI PUSH2 0x49F JUMP JUMPDEST DUP1 PUSH4 0x4D025FED EQ PUSH2 0xA05 JUMPI DUP1 PUSH4 0x4E2CE6D3 EQ PUSH2 0xA42 JUMPI DUP1 PUSH4 0x4F6CCCE7 EQ PUSH2 0xA6D JUMPI DUP1 PUSH4 0x50878A47 EQ PUSH2 0xAAA JUMPI DUP1 PUSH4 0x54B249FB EQ PUSH2 0xAE7 JUMPI PUSH2 0x49F JUMP JUMPDEST DUP1 PUSH4 0x39F46986 GT PUSH2 0x34B JUMPI DUP1 PUSH4 0x39F46986 EQ PUSH2 0x938 JUMPI DUP1 PUSH4 0x407DC589 EQ PUSH2 0x961 JUMPI DUP1 PUSH4 0x42842E0E EQ PUSH2 0x98A JUMPI DUP1 PUSH4 0x42966C68 EQ PUSH2 0x9B3 JUMPI DUP1 PUSH4 0x4CD38C1D EQ PUSH2 0x9DC JUMPI PUSH2 0x49F JUMP JUMPDEST DUP1 PUSH4 0x2F54BF6E EQ PUSH2 0x83A JUMPI DUP1 PUSH4 0x2F745C59 EQ PUSH2 0x877 JUMPI DUP1 PUSH4 0x33818997 EQ PUSH2 0x8B4 JUMPI DUP1 PUSH4 0x36568ABE EQ PUSH2 0x8E4 JUMPI DUP1 PUSH4 0x389F07E8 EQ PUSH2 0x90D JUMPI PUSH2 0x49F JUMP JUMPDEST DUP1 PUSH4 0x13AF4035 GT PUSH2 0x415 JUMPI DUP1 PUSH4 0x248A9CA3 GT PUSH2 0x3D9 JUMPI DUP1 PUSH4 0x248A9CA3 EQ PUSH2 0x755 JUMPI DUP1 PUSH4 0x26E9CA07 EQ PUSH2 0x792 JUMPI DUP1 PUSH4 0x282478DF EQ PUSH2 0x7BD JUMPI DUP1 PUSH4 0x2D33DD5B EQ PUSH2 0x7E6 JUMPI DUP1 PUSH4 0x2F2FF15D EQ PUSH2 0x811 JUMPI PUSH2 0x49F JUMP JUMPDEST DUP1 PUSH4 0x13AF4035 EQ PUSH2 0x682 JUMPI DUP1 PUSH4 0x18160DDD EQ PUSH2 0x6AB JUMPI DUP1 PUSH4 0x183767DA EQ PUSH2 0x6D6 JUMPI DUP1 PUSH4 0x217751BC EQ PUSH2 0x701 JUMPI DUP1 PUSH4 0x23B872DD EQ PUSH2 0x72C JUMPI PUSH2 0x49F JUMP JUMPDEST DUP1 PUSH4 0x97BA333 GT PUSH2 0x45C JUMPI DUP1 PUSH4 0x97BA333 EQ PUSH2 0x59B JUMPI DUP1 PUSH4 0xC2DB8D1 EQ PUSH2 0x5D8 JUMPI DUP1 PUSH4 0xF15023B EQ PUSH2 0x601 JUMPI DUP1 PUSH4 0x10E56973 EQ PUSH2 0x62C JUMPI DUP1 PUSH4 0x11A4C03A EQ PUSH2 0x657 JUMPI PUSH2 0x49F JUMP JUMPDEST DUP1 PUSH4 0x1FFC9A7 EQ PUSH2 0x4A4 JUMPI DUP1 PUSH4 0x68208CD EQ PUSH2 0x4E1 JUMPI DUP1 PUSH4 0x6FDDE03 EQ PUSH2 0x50A JUMPI DUP1 PUSH4 0x81812FC EQ PUSH2 0x535 JUMPI DUP1 PUSH4 0x95EA7B3 EQ PUSH2 0x572 JUMPI PUSH2 0x49F JUMP JUMPDEST CALLDATASIZE PUSH2 0x49F JUMPI STOP JUMPDEST PUSH1 0x0 DUP1 REVERT JUMPDEST CALLVALUE DUP1 ISZERO PUSH2 0x4B0 JUMPI PUSH1 0x0 DUP1 REVERT JUMPDEST POP PUSH2 0x4CB PUSH1 0x4 DUP1 CALLDATASIZE SUB DUP2 ADD SWAP1 PUSH2 0x4C6 SWAP2 SWAP1 PUSH2 0x7F1B JUMP JUMPDEST PUSH2 0x13C3 JUMP JUMPDEST PUSH1 0x40 MLOAD PUSH2 0x4D8 SWAP2 SWAP1 PUSH2 0x7F63 JUMP JUMPDEST PUSH1 0x40 MLOAD DUP1 SWAP2 SUB SWAP1 RETURN JUMPDEST CALLVALUE DUP1 ISZERO PUSH2 0x4ED JUMPI PUSH1 0x0 DUP1 REVERT JUMPDEST POP PUSH2 0x508 PUSH1 0x4 DUP1 CALLDATASIZE SUB DUP2 ADD SWAP1 PUSH2 0x503 SWAP2 SWAP1 PUSH2 0x7FB4 JUMP JUMPDEST PUSH2 0x13D5 JUMP JUMPDEST STOP JUMPDEST CALLVALUE DUP1 ISZERO PUSH2 0x516 JUMPI PUSH1 0x0 DUP1 REVERT JUMPDEST POP PUSH2 0x51F PUSH2 0x1463 JUMP JUMPDEST PUSH1 0x40 MLOAD PUSH2 0x52C SWAP2 SWAP1 PUSH2 0x8097 JUMP JUMPDEST PUSH1 0x40 MLOAD DUP1 SWAP2 SUB SWAP1 RETURN JUMPDEST CALLVALUE DUP1 ISZERO PUSH2 0x541 JUMPI PUSH1 0x0 DUP1 REVERT JUMPDEST POP PUSH2 0x55C PUSH1 0x4 DUP1 CALLDATASIZE SUB DUP2 ADD SWAP1 PUSH2 0x557 SWAP2 SWAP1 PUSH2 0x80B9 JUMP JUMPDEST PUSH2 0x14F2 JUMP JUMPDEST PUSH1 0x40 MLOAD PUSH2 0x569 SWAP2 SWAP1 PUSH2 0x8127 JUMP JUMPDEST PUSH1 0x40 MLOAD DUP1 SWAP2 SUB SWAP1 RETURN JUMPDEST CALLVALUE DUP1 ISZERO PUSH2 0x57E JUMPI PUSH1 0x0 DUP1 REVERT JUMPDEST POP PUSH2 0x599 PUSH1 0x4 DUP1 CALLDATASIZE SUB DUP2 ADD SWAP1 PUSH2 0x594 SWAP2 SWAP1 PUSH2 0x816E JUMP JUMPDEST PUSH2 0x153F JUMP JUMPDEST STOP JUMPDEST CALLVALUE DUP1 ISZERO PUSH2 0x5A7 JUMPI PUSH1 0x0 DUP1 REVERT JUMPDEST POP PUSH2 0x5C2 PUSH1 0x4 DUP1 CALLDATASIZE SUB DUP2 ADD SWAP1 PUSH2 0x5BD SWAP2 SWAP1 PUSH2 0x82E3 JUMP JUMPDEST PUSH2 0x1693 JUMP JUMPDEST PUSH1 0x40 MLOAD PUSH2 0x5CF SWAP2 SWAP1 PUSH2 0x8361 JUMP JUMPDEST PUSH1 0x40 MLOAD DUP1 SWAP2 SUB SWAP1 RETURN JUMPDEST CALLVALUE DUP1 ISZERO PUSH2 0x5E4 JUMPI PUSH1 0x0 DUP1 REVERT JUMPDEST POP PUSH2 0x5FF PUSH1 0x4 DUP1 CALLDATASIZE SUB DUP2 ADD SWAP1 PUSH2 0x5FA SWAP2 SWAP1 PUSH2 0x837C JUMP JUMPDEST PUSH2 0x17A3 JUMP JUMPDEST STOP JUMPDEST CALLVALUE DUP1 ISZERO PUSH2 0x60D JUMPI PUSH1 0x0 DUP1 REVERT JUMPDEST POP PUSH2 0x616 PUSH2 0x1846 JUMP JUMPDEST PUSH1 0x40 MLOAD PUSH2 0x623 SWAP2 SWAP1 PUSH2 0x842E JUMP JUMPDEST PUSH1 0x40 MLOAD DUP1 SWAP2 SUB SWAP1 RETURN JUMPDEST CALLVALUE DUP1 ISZERO PUSH2 0x638 JUMPI PUSH1 0x0 DUP1 REVERT JUMPDEST POP PUSH2 0x641 PUSH2 0x186D JUMP JUMPDEST PUSH1 0x40 MLOAD PUSH2 0x64E SWAP2 SWAP1 PUSH2 0x8361 JUMP JUMPDEST PUSH1 0x40 MLOAD DUP1 SWAP2 SUB SWAP1 RETURN JUMPDEST CALLVALUE DUP1 ISZERO PUSH2 0x663 JUMPI PUSH1 0x0 DUP1 REVERT JUMPDEST POP PUSH2 0x66C PUSH2 0x1874 JUMP JUMPDEST PUSH1 0x40 MLOAD PUSH2 0x679 SWAP2 SWAP1 PUSH2 0x8361 JUMP JUMPDEST PUSH1 0x40 MLOAD DUP1 SWAP2 SUB SWAP1 RETURN JUMPDEST CALLVALUE DUP1 ISZERO PUSH2 0x68E JUMPI PUSH1 0x0 DUP1 REVERT JUMPDEST POP PUSH2 0x6A9 PUSH1 0x4 DUP1 CALLDATASIZE SUB DUP2 ADD SWAP1 PUSH2 0x6A4 SWAP2 SWAP1 PUSH2 0x8449 JUMP JUMPDEST PUSH2 0x187B JUMP JUMPDEST STOP JUMPDEST CALLVALUE DUP1 ISZERO PUSH2 0x6B7 JUMPI PUSH1 0x0 DUP1 REVERT JUMPDEST POP PUSH2 0x6C0 PUSH2 0x1990 JUMP JUMPDEST PUSH1 0x40 MLOAD PUSH2 0x6CD SWAP2 SWAP1 PUSH2 0x8361 JUMP JUMPDEST PUSH1 0x40 MLOAD DUP1 SWAP2 SUB SWAP1 RETURN JUMPDEST CALLVALUE DUP1 ISZERO PUSH2 0x6E2 JUMPI PUSH1 0x0 DUP1 REVERT JUMPDEST POP PUSH2 0x6EB PUSH2 0x199B JUMP JUMPDEST PUSH1 0x40 MLOAD PUSH2 0x6F8 SWAP2 SWAP1 PUSH2 0x8361 JUMP JUMPDEST PUSH1 0x40 MLOAD DUP1 SWAP2 SUB SWAP1 RETURN JUMPDEST CALLVALUE DUP1 ISZERO PUSH2 0x70D JUMPI PUSH1 0x0 DUP1 REVERT JUMPDEST POP PUSH2 0x716 PUSH2 0x19A2 JUMP JUMPDEST PUSH1 0x40 MLOAD PUSH2 0x723 SWAP2 SWAP1 PUSH2 0x8497 JUMP JUMPDEST PUSH1 0x40 MLOAD DUP1 SWAP2 SUB SWAP1 RETURN JUMPDEST CALLVALUE DUP1 ISZERO PUSH2 0x738 JUMPI PUSH1 0x0 DUP1 REVERT JUMPDEST POP PUSH2 0x753 PUSH1 0x4 DUP1 CALLDATASIZE SUB DUP2 ADD SWAP1 PUSH2 0x74E SWAP2 SWAP1 PUSH2 0x837C JUMP JUMPDEST PUSH2 0x19C9 JUMP JUMPDEST STOP JUMPDEST CALLVALUE DUP1 ISZERO PUSH2 0x761 JUMPI PUSH1 0x0 DUP1 REVERT JUMPDEST POP PUSH2 0x77C PUSH1 0x4 DUP1 CALLDATASIZE SUB DUP2 ADD SWAP1 PUSH2 0x777 SWAP2 SWAP1 PUSH2 0x84E8 JUMP JUMPDEST PUSH2 0x1A36 JUMP JUMPDEST PUSH1 0x40 MLOAD PUSH2 0x789 SWAP2 SWAP1 PUSH2 0x8524 JUMP JUMPDEST PUSH1 0x40 MLOAD DUP1 SWAP2 SUB SWAP1 RETURN JUMPDEST CALLVALUE DUP1 ISZERO PUSH2 0x79E JUMPI PUSH1 0x0 DUP1 REVERT JUMPDEST POP PUSH2 0x7A7 PUSH2 0x1A56 JUMP JUMPDEST PUSH1 0x40 MLOAD PUSH2 0x7B4 SWAP2 SWAP1 PUSH2 0x8560 JUMP JUMPDEST PUSH1 0x40 MLOAD DUP1 SWAP2 SUB SWAP1 RETURN JUMPDEST CALLVALUE DUP1 ISZERO PUSH2 0x7C9 JUMPI PUSH1 0x0 DUP1 REVERT JUMPDEST POP PUSH2 0x7E4 PUSH1 0x4 DUP1 CALLDATASIZE SUB DUP2 ADD SWAP1 PUSH2 0x7DF SWAP2 SWAP1 PUSH2 0x7FB4 JUMP JUMPDEST PUSH2 0x1A7D JUMP JUMPDEST STOP JUMPDEST CALLVALUE DUP1 ISZERO PUSH2 0x7F2 JUMPI PUSH1 0x0 DUP1 REVERT JUMPDEST POP PUSH2 0x7FB PUSH2 0x1B57 JUMP JUMPDEST PUSH1 0x40 MLOAD PUSH2 0x808 SWAP2 SWAP1 PUSH2 0x859C JUMP JUMPDEST PUSH1 0x40 MLOAD DUP1 SWAP2 SUB SWAP1 RETURN JUMPDEST CALLVALUE DUP1 ISZERO PUSH2 0x81D JUMPI PUSH1 0x0 DUP1 REVERT JUMPDEST POP PUSH2 0x838 PUSH1 0x4 DUP1 CALLDATASIZE SUB DUP2 ADD SWAP1 PUSH2 0x833 SWAP2 SWAP1 PUSH2 0x85B7 JUMP JUMPDEST PUSH2 0x1B7E JUMP JUMPDEST STOP JUMPDEST CALLVALUE DUP1 ISZERO PUSH2 0x846 JUMPI PUSH1 0x0 DUP1 REVERT JUMPDEST POP PUSH2 0x861 PUSH1 0x4 DUP1 CALLDATASIZE SUB DUP2 ADD SWAP1 PUSH2 0x85C SWAP2 SWAP1 PUSH2 0x8449 JUMP JUMPDEST PUSH2 0x1B9F JUMP JUMPDEST PUSH1 0x40 MLOAD PUSH2 0x86E SWAP2 SWAP1 PUSH2 0x7F63 JUMP JUMPDEST PUSH1 0x40 MLOAD DUP1 SWAP2 SUB SWAP1 RETURN JUMPDEST CALLVALUE DUP1 ISZERO PUSH2 0x883 JUMPI PUSH1 0x0 DUP1 REVERT JUMPDEST POP PUSH2 0x89E PUSH1 0x4 DUP1 CALLDATASIZE SUB DUP2 ADD SWAP1 PUSH2 0x899 SWAP2 SWAP1 PUSH2 0x816E JUMP JUMPDEST PUSH2 0x1BFA JUMP JUMPDEST PUSH1 0x40 MLOAD PUSH2 0x8AB SWAP2 SWAP1 PUSH2 0x8361 JUMP JUMPDEST PUSH1 0x40 MLOAD DUP1 SWAP2 SUB SWAP1 RETURN JUMPDEST PUSH2 0x8CE PUSH1 0x4 DUP1 CALLDATASIZE SUB DUP2 ADD SWAP1 PUSH2 0x8C9 SWAP2 SWAP1 PUSH2 0x87DD JUMP JUMPDEST PUSH2 0x1C97 JUMP JUMPDEST PUSH1 0x40 MLOAD PUSH2 0x8DB SWAP2 SWAP1 PUSH2 0x89A5 JUMP JUMPDEST PUSH1 0x40 MLOAD DUP1 SWAP2 SUB SWAP1 RETURN JUMPDEST CALLVALUE DUP1 ISZERO PUSH2 0x8F0 JUMPI PUSH1 0x0 DUP1 REVERT JUMPDEST POP PUSH2 0x90B PUSH1 0x4 DUP1 CALLDATASIZE SUB DUP2 ADD SWAP1 PUSH2 0x906 SWAP2 SWAP1 PUSH2 0x85B7 JUMP JUMPDEST PUSH2 0x2201 JUMP JUMPDEST STOP JUMPDEST CALLVALUE DUP1 ISZERO PUSH2 0x919 JUMPI PUSH1 0x0 DUP1 REVERT JUMPDEST POP PUSH2 0x922 PUSH2 0x2284 JUMP JUMPDEST PUSH1 0x40 MLOAD PUSH2 0x92F SWAP2 SWAP1 PUSH2 0x89E8 JUMP JUMPDEST PUSH1 0x40 MLOAD DUP1 SWAP2 SUB SWAP1 RETURN JUMPDEST CALLVALUE DUP1 ISZERO PUSH2 0x944 JUMPI PUSH1 0x0 DUP1 REVERT JUMPDEST POP PUSH2 0x95F PUSH1 0x4 DUP1 CALLDATASIZE SUB DUP2 ADD SWAP1 PUSH2 0x95A SWAP2 SWAP1 PUSH2 0x8A03 JUMP JUMPDEST PUSH2 0x22AB JUMP JUMPDEST STOP JUMPDEST CALLVALUE DUP1 ISZERO PUSH2 0x96D JUMPI PUSH1 0x0 DUP1 REVERT JUMPDEST POP PUSH2 0x988 PUSH1 0x4 DUP1 CALLDATASIZE SUB DUP2 ADD SWAP1 PUSH2 0x983 SWAP2 SWAP1 PUSH2 0x816E JUMP JUMPDEST PUSH2 0x2300 JUMP JUMPDEST STOP JUMPDEST CALLVALUE DUP1 ISZERO PUSH2 0x996 JUMPI PUSH1 0x0 DUP1 REVERT JUMPDEST POP PUSH2 0x9B1 PUSH1 0x4 DUP1 CALLDATASIZE SUB DUP2 ADD SWAP1 PUSH2 0x9AC SWAP2 SWAP1 PUSH2 0x837C JUMP JUMPDEST PUSH2 0x23B0 JUMP JUMPDEST STOP JUMPDEST CALLVALUE DUP1 ISZERO PUSH2 0x9BF JUMPI PUSH1 0x0 DUP1 REVERT JUMPDEST POP PUSH2 0x9DA PUSH1 0x4 DUP1 CALLDATASIZE SUB DUP2 ADD SWAP1 PUSH2 0x9D5 SWAP2 SWAP1 PUSH2 0x80B9 JUMP JUMPDEST PUSH2 0x23D0 JUMP JUMPDEST STOP JUMPDEST CALLVALUE DUP1 ISZERO PUSH2 0x9E8 JUMPI PUSH1 0x0 DUP1 REVERT JUMPDEST POP PUSH2 0xA03 PUSH1 0x4 DUP1 CALLDATASIZE SUB DUP2 ADD SWAP1 PUSH2 0x9FE SWAP2 SWAP1 PUSH2 0x8A03 JUMP JUMPDEST PUSH2 0x24D2 JUMP JUMPDEST STOP JUMPDEST CALLVALUE DUP1 ISZERO PUSH2 0xA11 JUMPI PUSH1 0x0 DUP1 REVERT JUMPDEST POP PUSH2 0xA2C PUSH1 0x4 DUP1 CALLDATASIZE SUB DUP2 ADD SWAP1 PUSH2 0xA27 SWAP2 SWAP1 PUSH2 0x80B9 JUMP JUMPDEST PUSH2 0x2566 JUMP JUMPDEST PUSH1 0x40 MLOAD PUSH2 0xA39 SWAP2 SWAP1 PUSH2 0x8127 JUMP JUMPDEST PUSH1 0x40 MLOAD DUP1 SWAP2 SUB SWAP1 RETURN JUMPDEST CALLVALUE DUP1 ISZERO PUSH2 0xA4E JUMPI PUSH1 0x0 DUP1 REVERT JUMPDEST POP PUSH2 0xA57 PUSH2 0x259A JUMP JUMPDEST PUSH1 0x40 MLOAD PUSH2 0xA64 SWAP2 SWAP1 PUSH2 0x8361 JUMP JUMPDEST PUSH1 0x40 MLOAD DUP1 SWAP2 SUB SWAP1 RETURN JUMPDEST CALLVALUE DUP1 ISZERO PUSH2 0xA79 JUMPI PUSH1 0x0 DUP1 REVERT JUMPDEST POP PUSH2 0xA94 PUSH1 0x4 DUP1 CALLDATASIZE SUB DUP2 ADD SWAP1 PUSH2 0xA8F SWAP2 SWAP1 PUSH2 0x80B9 JUMP JUMPDEST PUSH2 0x25A1 JUMP JUMPDEST PUSH1 0x40 MLOAD PUSH2 0xAA1 SWAP2 SWAP1 PUSH2 0x8361 JUMP JUMPDEST PUSH1 0x40 MLOAD DUP1 SWAP2 SUB SWAP1 RETURN JUMPDEST CALLVALUE DUP1 ISZERO PUSH2 0xAB6 JUMPI PUSH1 0x0 DUP1 REVERT JUMPDEST POP PUSH2 0xAD1 PUSH1 0x4 DUP1 CALLDATASIZE SUB DUP2 ADD SWAP1 PUSH2 0xACC SWAP2 SWAP1 PUSH2 0x8A43 JUMP JUMPDEST PUSH2 0x25E7 JUMP JUMPDEST PUSH1 0x40 MLOAD PUSH2 0xADE SWAP2 SWAP1 PUSH2 0x7F63 JUMP JUMPDEST PUSH1 0x40 MLOAD DUP1 SWAP2 SUB SWAP1 RETURN JUMPDEST CALLVALUE DUP1 ISZERO PUSH2 0xAF3 JUMPI PUSH1 0x0 DUP1 REVERT JUMPDEST POP PUSH2 0xB0E PUSH1 0x4 DUP1 CALLDATASIZE SUB DUP2 ADD SWAP1 PUSH2 0xB09 SWAP2 SWAP1 PUSH2 0x80B9 JUMP JUMPDEST PUSH2 0x2866 JUMP JUMPDEST PUSH1 0x40 MLOAD PUSH2 0xB1B SWAP2 SWAP1 PUSH2 0x8361 JUMP JUMPDEST PUSH1 0x40 MLOAD DUP1 SWAP2 SUB SWAP1 RETURN JUMPDEST CALLVALUE DUP1 ISZERO PUSH2 0xB30 JUMPI PUSH1 0x0 DUP1 REVERT JUMPDEST POP PUSH2 0xB4B PUSH1 0x4 DUP1 CALLDATASIZE SUB DUP2 ADD SWAP1 PUSH2 0xB46 SWAP2 SWAP1 PUSH2 0x8A03 JUMP JUMPDEST PUSH2 0x2887 JUMP JUMPDEST STOP JUMPDEST CALLVALUE DUP1 ISZERO PUSH2 0xB59 JUMPI PUSH1 0x0 DUP1 REVERT JUMPDEST POP PUSH2 0xB62 PUSH2 0x28AF JUMP JUMPDEST PUSH1 0x40 MLOAD PUSH2 0xB6F SWAP2 SWAP1 PUSH2 0x8361 JUMP JUMPDEST PUSH1 0x40 MLOAD DUP1 SWAP2 SUB SWAP1 RETURN JUMPDEST CALLVALUE DUP1 ISZERO PUSH2 0xB84 JUMPI PUSH1 0x0 DUP1 REVERT JUMPDEST POP PUSH2 0xB8D PUSH2 0x28B6 JUMP JUMPDEST PUSH1 0x40 MLOAD PUSH2 0xB9A SWAP2 SWAP1 PUSH2 0x8361 JUMP JUMPDEST PUSH1 0x40 MLOAD DUP1 SWAP2 SUB SWAP1 RETURN JUMPDEST CALLVALUE DUP1 ISZERO PUSH2 0xBAF JUMPI PUSH1 0x0 DUP1 REVERT JUMPDEST POP PUSH2 0xBCA PUSH1 0x4 DUP1 CALLDATASIZE SUB DUP2 ADD SWAP1 PUSH2 0xBC5 SWAP2 SWAP1 PUSH2 0x80B9 JUMP JUMPDEST PUSH2 0x28C1 JUMP JUMPDEST PUSH1 0x40 MLOAD PUSH2 0xBD7 SWAP2 SWAP1 PUSH2 0x8127 JUMP JUMPDEST PUSH1 0x40 MLOAD DUP1 SWAP2 SUB SWAP1 RETURN JUMPDEST CALLVALUE DUP1 ISZERO PUSH2 0xBEC JUMPI PUSH1 0x0 DUP1 REVERT JUMPDEST POP PUSH2 0xC07 PUSH1 0x4 DUP1 CALLDATASIZE SUB DUP2 ADD SWAP1 PUSH2 0xC02 SWAP2 SWAP1 PUSH2 0x8449 JUMP JUMPDEST PUSH2 0x28FF JUMP JUMPDEST PUSH1 0x40 MLOAD PUSH2 0xC14 SWAP2 SWAP1 PUSH2 0x7F63 JUMP JUMPDEST PUSH1 0x40 MLOAD DUP1 SWAP2 SUB SWAP1 RETURN JUMPDEST CALLVALUE DUP1 ISZERO PUSH2 0xC29 JUMPI PUSH1 0x0 DUP1 REVERT JUMPDEST POP PUSH2 0xC44 PUSH1 0x4 DUP1 CALLDATASIZE SUB DUP2 ADD SWAP1 PUSH2 0xC3F SWAP2 SWAP1 PUSH2 0x8B17 JUMP JUMPDEST PUSH2 0x2A2D JUMP JUMPDEST STOP JUMPDEST CALLVALUE DUP1 ISZERO PUSH2 0xC52 JUMPI PUSH1 0x0 DUP1 REVERT JUMPDEST POP PUSH2 0xC6D PUSH1 0x4 DUP1 CALLDATASIZE SUB DUP2 ADD SWAP1 PUSH2 0xC68 SWAP2 SWAP1 PUSH2 0x8449 JUMP JUMPDEST PUSH2 0x2BBB JUMP JUMPDEST PUSH1 0x40 MLOAD PUSH2 0xC7A SWAP2 SWAP1 PUSH2 0x8361 JUMP JUMPDEST PUSH1 0x40 MLOAD DUP1 SWAP2 SUB SWAP1 RETURN JUMPDEST CALLVALUE DUP1 ISZERO PUSH2 0xC8F JUMPI PUSH1 0x0 DUP1 REVERT JUMPDEST POP PUSH2 0xC98 PUSH2 0x2C14 JUMP JUMPDEST PUSH1 0x40 MLOAD PUSH2 0xCA5 SWAP2 SWAP1 PUSH2 0x8361 JUMP JUMPDEST PUSH1 0x40 MLOAD DUP1 SWAP2 SUB SWAP1 RETURN JUMPDEST CALLVALUE DUP1 ISZERO PUSH2 0xCBA JUMPI PUSH1 0x0 DUP1 REVERT JUMPDEST POP PUSH2 0xCD5 PUSH1 0x4 DUP1 CALLDATASIZE SUB DUP2 ADD SWAP1 PUSH2 0xCD0 SWAP2 SWAP1 PUSH2 0x8BC6 JUMP JUMPDEST PUSH2 0x2C1B JUMP JUMPDEST STOP JUMPDEST CALLVALUE DUP1 ISZERO PUSH2 0xCE3 JUMPI PUSH1 0x0 DUP1 REVERT JUMPDEST POP PUSH2 0xCEC PUSH2 0x3281 JUMP JUMPDEST PUSH1 0x40 MLOAD PUSH2 0xCF9 SWAP2 SWAP1 PUSH2 0x8C89 JUMP JUMPDEST PUSH1 0x40 MLOAD DUP1 SWAP2 SUB SWAP1 RETURN JUMPDEST CALLVALUE DUP1 ISZERO PUSH2 0xD0E JUMPI PUSH1 0x0 DUP1 REVERT JUMPDEST POP PUSH2 0xD29 PUSH1 0x4 DUP1 CALLDATASIZE SUB DUP2 ADD SWAP1 PUSH2 0xD24 SWAP2 SWAP1 PUSH2 0x8449 JUMP JUMPDEST PUSH2 0x32A8 JUMP JUMPDEST PUSH1 0x40 MLOAD PUSH2 0xD36 SWAP2 SWAP1 PUSH2 0x8361 JUMP JUMPDEST PUSH1 0x40 MLOAD DUP1 SWAP2 SUB SWAP1 RETURN JUMPDEST CALLVALUE DUP1 ISZERO PUSH2 0xD4B JUMPI PUSH1 0x0 DUP1 REVERT JUMPDEST POP PUSH2 0xD66 PUSH1 0x4 DUP1 CALLDATASIZE SUB DUP2 ADD SWAP1 PUSH2 0xD61 SWAP2 SWAP1 PUSH2 0x8D50 JUMP JUMPDEST PUSH2 0x3357 JUMP JUMPDEST PUSH1 0x40 MLOAD PUSH2 0xD73 SWAP2 SWAP1 PUSH2 0x89A5 JUMP JUMPDEST PUSH1 0x40 MLOAD DUP1 SWAP2 SUB SWAP1 RETURN JUMPDEST CALLVALUE DUP1 ISZERO PUSH2 0xD88 JUMPI PUSH1 0x0 DUP1 REVERT JUMPDEST POP PUSH2 0xDA3 PUSH1 0x4 DUP1 CALLDATASIZE SUB DUP2 ADD SWAP1 PUSH2 0xD9E SWAP2 SWAP1 PUSH2 0x8A43 JUMP JUMPDEST PUSH2 0x3655 JUMP JUMPDEST STOP JUMPDEST CALLVALUE DUP1 ISZERO PUSH2 0xDB1 JUMPI PUSH1 0x0 DUP1 REVERT JUMPDEST POP PUSH2 0xDCC PUSH1 0x4 DUP1 CALLDATASIZE SUB DUP2 ADD SWAP1 PUSH2 0xDC7 SWAP2 SWAP1 PUSH2 0x80B9 JUMP JUMPDEST PUSH2 0x36C0 JUMP JUMPDEST STOP JUMPDEST CALLVALUE DUP1 ISZERO PUSH2 0xDDA JUMPI PUSH1 0x0 DUP1 REVERT JUMPDEST POP PUSH2 0xDF5 PUSH1 0x4 DUP1 CALLDATASIZE SUB DUP2 ADD SWAP1 PUSH2 0xDF0 SWAP2 SWAP1 PUSH2 0x8E5A JUMP JUMPDEST PUSH2 0x370A JUMP JUMPDEST STOP JUMPDEST CALLVALUE DUP1 ISZERO PUSH2 0xE03 JUMPI PUSH1 0x0 DUP1 REVERT JUMPDEST POP PUSH2 0xE0C PUSH2 0x3850 JUMP JUMPDEST PUSH1 0x40 MLOAD PUSH2 0xE19 SWAP2 SWAP1 PUSH2 0x8127 JUMP JUMPDEST PUSH1 0x40 MLOAD DUP1 SWAP2 SUB SWAP1 RETURN JUMPDEST CALLVALUE DUP1 ISZERO PUSH2 0xE2E JUMPI PUSH1 0x0 DUP1 REVERT JUMPDEST POP PUSH2 0xE49 PUSH1 0x4 DUP1 CALLDATASIZE SUB DUP2 ADD SWAP1 PUSH2 0xE44 SWAP2 SWAP1 PUSH2 0x85B7 JUMP JUMPDEST PUSH2 0x387B JUMP JUMPDEST PUSH1 0x40 MLOAD PUSH2 0xE56 SWAP2 SWAP1 PUSH2 0x7F63 JUMP JUMPDEST PUSH1 0x40 MLOAD DUP1 SWAP2 SUB SWAP1 RETURN JUMPDEST CALLVALUE DUP1 ISZERO PUSH2 0xE6B JUMPI PUSH1 0x0 DUP1 REVERT JUMPDEST POP PUSH2 0xE86 PUSH1 0x4 DUP1 CALLDATASIZE SUB DUP2 ADD SWAP1 PUSH2 0xE81 SWAP2 SWAP1 PUSH2 0x80B9 JUMP JUMPDEST PUSH2 0x38E6 JUMP JUMPDEST PUSH1 0x40 MLOAD PUSH2 0xE93 SWAP2 SWAP1 PUSH2 0x8361 JUMP JUMPDEST PUSH1 0x40 MLOAD DUP1 SWAP2 SUB SWAP1 RETURN JUMPDEST CALLVALUE DUP1 ISZERO PUSH2 0xEA8 JUMPI PUSH1 0x0 DUP1 REVERT JUMPDEST POP PUSH2 0xEB1 PUSH2 0x39F4 JUMP JUMPDEST PUSH1 0x40 MLOAD PUSH2 0xEBE SWAP2 SWAP1 PUSH2 0x8361 JUMP JUMPDEST PUSH1 0x40 MLOAD DUP1 SWAP2 SUB SWAP1 RETURN JUMPDEST CALLVALUE DUP1 ISZERO PUSH2 0xED3 JUMPI PUSH1 0x0 DUP1 REVERT JUMPDEST POP PUSH2 0xEDC PUSH2 0x39FB JUMP JUMPDEST PUSH1 0x40 MLOAD PUSH2 0xEE9 SWAP2 SWAP1 PUSH2 0x8097 JUMP JUMPDEST PUSH1 0x40 MLOAD DUP1 SWAP2 SUB SWAP1 RETURN JUMPDEST CALLVALUE DUP1 ISZERO PUSH2 0xEFE JUMPI PUSH1 0x0 DUP1 REVERT JUMPDEST POP PUSH2 0xF07 PUSH2 0x3B44 JUMP JUMPDEST PUSH1 0x40 MLOAD PUSH2 0xF14 SWAP2 SWAP1 PUSH2 0x8127 JUMP JUMPDEST PUSH1 0x40 MLOAD DUP1 SWAP2 SUB SWAP1 RETURN JUMPDEST CALLVALUE DUP1 ISZERO PUSH2 0xF29 JUMPI PUSH1 0x0 DUP1 REVERT JUMPDEST POP PUSH2 0xF32 PUSH2 0x3B6B JUMP JUMPDEST PUSH1 0x40 MLOAD PUSH2 0xF3F SWAP2 SWAP1 PUSH2 0x8524 JUMP JUMPDEST PUSH1 0x40 MLOAD DUP1 SWAP2 SUB SWAP1 RETURN JUMPDEST CALLVALUE DUP1 ISZERO PUSH2 0xF54 JUMPI PUSH1 0x0 DUP1 REVERT JUMPDEST POP PUSH2 0xF6F PUSH1 0x4 DUP1 CALLDATASIZE SUB DUP2 ADD SWAP1 PUSH2 0xF6A SWAP2 SWAP1 PUSH2 0x8ED3 JUMP JUMPDEST PUSH2 0x3B72 JUMP JUMPDEST STOP JUMPDEST CALLVALUE DUP1 ISZERO PUSH2 0xF7D JUMPI PUSH1 0x0 DUP1 REVERT JUMPDEST POP PUSH2 0xF98 PUSH1 0x4 DUP1 CALLDATASIZE SUB DUP2 ADD SWAP1 PUSH2 0xF93 SWAP2 SWAP1 PUSH2 0x8A43 JUMP JUMPDEST PUSH2 0x3CDD JUMP JUMPDEST STOP JUMPDEST CALLVALUE DUP1 ISZERO PUSH2 0xFA6 JUMPI PUSH1 0x0 DUP1 REVERT JUMPDEST POP PUSH2 0xFAF PUSH2 0x3DD1 JUMP JUMPDEST PUSH1 0x40 MLOAD PUSH2 0xFBC SWAP2 SWAP1 PUSH2 0x8361 JUMP JUMPDEST PUSH1 0x40 MLOAD DUP1 SWAP2 SUB SWAP1 RETURN JUMPDEST CALLVALUE DUP1 ISZERO PUSH2 0xFD1 JUMPI PUSH1 0x0 DUP1 REVERT JUMPDEST POP PUSH2 0xFEC PUSH1 0x4 DUP1 CALLDATASIZE SUB DUP2 ADD SWAP1 PUSH2 0xFE7 SWAP2 SWAP1 PUSH2 0x80B9 JUMP JUMPDEST PUSH2 0x3DD8 JUMP JUMPDEST PUSH1 0x40 MLOAD PUSH2 0xFF9 SWAP2 SWAP1 PUSH2 0x7F63 JUMP JUMPDEST PUSH1 0x40 MLOAD DUP1 SWAP2 SUB SWAP1 RETURN JUMPDEST CALLVALUE DUP1 ISZERO PUSH2 0x100E JUMPI PUSH1 0x0 DUP1 REVERT JUMPDEST POP PUSH2 0x1029 PUSH1 0x4 DUP1 CALLDATASIZE SUB DUP2 ADD SWAP1 PUSH2 0x1024 SWAP2 SWAP1 PUSH2 0x8449 JUMP JUMPDEST PUSH2 0x3F4C JUMP JUMPDEST PUSH1 0x40 MLOAD PUSH2 0x1036 SWAP2 SWAP1 PUSH2 0x7F63 JUMP JUMPDEST PUSH1 0x40 MLOAD DUP1 SWAP2 SUB SWAP1 RETURN JUMPDEST CALLVALUE DUP1 ISZERO PUSH2 0x104B JUMPI PUSH1 0x0 DUP1 REVERT JUMPDEST POP PUSH2 0x1066 PUSH1 0x4 DUP1 CALLDATASIZE SUB DUP2 ADD SWAP1 PUSH2 0x1061 SWAP2 SWAP1 PUSH2 0x8A43 JUMP JUMPDEST PUSH2 0x3F7F JUMP JUMPDEST STOP JUMPDEST CALLVALUE DUP1 ISZERO PUSH2 0x1074 JUMPI PUSH1 0x0 DUP1 REVERT JUMPDEST POP PUSH2 0x107D PUSH2 0x3FEA JUMP JUMPDEST PUSH1 0x40 MLOAD PUSH2 0x108A SWAP2 SWAP1 PUSH2 0x8F34 JUMP JUMPDEST PUSH1 0x40 MLOAD DUP1 SWAP2 SUB SWAP1 RETURN JUMPDEST CALLVALUE DUP1 ISZERO PUSH2 0x109F JUMPI PUSH1 0x0 DUP1 REVERT JUMPDEST POP PUSH2 0x10BA PUSH1 0x4 DUP1 CALLDATASIZE SUB DUP2 ADD SWAP1 PUSH2 0x10B5 SWAP2 SWAP1 PUSH2 0x8A03 JUMP JUMPDEST PUSH2 0x4011 JUMP JUMPDEST PUSH1 0x40 MLOAD PUSH2 0x10C7 SWAP2 SWAP1 PUSH2 0x8361 JUMP JUMPDEST PUSH1 0x40 MLOAD DUP1 SWAP2 SUB SWAP1 RETURN JUMPDEST CALLVALUE DUP1 ISZERO PUSH2 0x10DC JUMPI PUSH1 0x0 DUP1 REVERT JUMPDEST POP PUSH2 0x10F7 PUSH1 0x4 DUP1 CALLDATASIZE SUB DUP2 ADD SWAP1 PUSH2 0x10F2 SWAP2 SWAP1 PUSH2 0x8F4F JUMP JUMPDEST PUSH2 0x4082 JUMP JUMPDEST STOP JUMPDEST CALLVALUE DUP1 ISZERO PUSH2 0x1105 JUMPI PUSH1 0x0 DUP1 REVERT JUMPDEST POP PUSH2 0x1120 PUSH1 0x4 DUP1 CALLDATASIZE SUB DUP2 ADD SWAP1 PUSH2 0x111B SWAP2 SWAP1 PUSH2 0x8449 JUMP JUMPDEST PUSH2 0x40D5 JUMP JUMPDEST PUSH1 0x40 MLOAD PUSH2 0x112D SWAP2 SWAP1 PUSH2 0x8361 JUMP JUMPDEST PUSH1 0x40 MLOAD DUP1 SWAP2 SUB SWAP1 RETURN JUMPDEST CALLVALUE DUP1 ISZERO PUSH2 0x1142 JUMPI PUSH1 0x0 DUP1 REVERT JUMPDEST POP PUSH2 0x115D PUSH1 0x4 DUP1 CALLDATASIZE SUB DUP2 ADD SWAP1 PUSH2 0x1158 SWAP2 SWAP1 PUSH2 0x80B9 JUMP JUMPDEST PUSH2 0x40EE JUMP JUMPDEST PUSH1 0x40 MLOAD PUSH2 0x116A SWAP2 SWAP1 PUSH2 0x8097 JUMP JUMPDEST PUSH1 0x40 MLOAD DUP1 SWAP2 SUB SWAP1 RETURN JUMPDEST CALLVALUE DUP1 ISZERO PUSH2 0x117F JUMPI PUSH1 0x0 DUP1 REVERT JUMPDEST POP PUSH2 0x1188 PUSH2 0x4428 JUMP JUMPDEST PUSH1 0x40 MLOAD PUSH2 0x1195 SWAP2 SWAP1 PUSH2 0x8FF3 JUMP JUMPDEST PUSH1 0x40 MLOAD DUP1 SWAP2 SUB SWAP1 RETURN JUMPDEST CALLVALUE DUP1 ISZERO PUSH2 0x11AA JUMPI PUSH1 0x0 DUP1 REVERT JUMPDEST POP PUSH2 0x11C5 PUSH1 0x4 DUP1 CALLDATASIZE SUB DUP2 ADD SWAP1 PUSH2 0x11C0 SWAP2 SWAP1 PUSH2 0x900E JUMP JUMPDEST PUSH2 0x444F JUMP JUMPDEST STOP JUMPDEST CALLVALUE DUP1 ISZERO PUSH2 0x11D3 JUMPI PUSH1 0x0 DUP1 REVERT JUMPDEST POP PUSH2 0x11DC PUSH2 0x44D9 JUMP JUMPDEST PUSH1 0x40 MLOAD PUSH2 0x11E9 SWAP2 SWAP1 PUSH2 0x90DF JUMP JUMPDEST PUSH1 0x40 MLOAD DUP1 SWAP2 SUB SWAP1 RETURN JUMPDEST CALLVALUE DUP1 ISZERO PUSH2 0x11FE JUMPI PUSH1 0x0 DUP1 REVERT JUMPDEST POP PUSH2 0x1219 PUSH1 0x4 DUP1 CALLDATASIZE SUB DUP2 ADD SWAP1 PUSH2 0x1214 SWAP2 SWAP1 PUSH2 0x8449 JUMP JUMPDEST PUSH2 0x44E2 JUMP JUMPDEST STOP JUMPDEST CALLVALUE DUP1 ISZERO PUSH2 0x1227 JUMPI PUSH1 0x0 DUP1 REVERT JUMPDEST POP PUSH2 0x1242 PUSH1 0x4 DUP1 CALLDATASIZE SUB DUP2 ADD SWAP1 PUSH2 0x123D SWAP2 SWAP1 PUSH2 0x80B9 JUMP JUMPDEST PUSH2 0x455A JUMP JUMPDEST STOP JUMPDEST CALLVALUE DUP1 ISZERO PUSH2 0x1250 JUMPI PUSH1 0x0 DUP1 REVERT JUMPDEST POP PUSH2 0x1259 PUSH2 0x4590 JUMP JUMPDEST PUSH1 0x40 MLOAD PUSH2 0x1266 SWAP2 SWAP1 PUSH2 0x8361 JUMP JUMPDEST PUSH1 0x40 MLOAD DUP1 SWAP2 SUB SWAP1 RETURN JUMPDEST CALLVALUE DUP1 ISZERO PUSH2 0x127B JUMPI PUSH1 0x0 DUP1 REVERT JUMPDEST POP PUSH2 0x1296 PUSH1 0x4 DUP1 CALLDATASIZE SUB DUP2 ADD SWAP1 PUSH2 0x1291 SWAP2 SWAP1 PUSH2 0x85B7 JUMP JUMPDEST PUSH2 0x459B JUMP JUMPDEST STOP JUMPDEST PUSH2 0x12B2 PUSH1 0x4 DUP1 CALLDATASIZE SUB DUP2 ADD SWAP1 PUSH2 0x12AD SWAP2 SWAP1 PUSH2 0x90FA JUMP JUMPDEST PUSH2 0x45BC JUMP JUMPDEST STOP JUMPDEST CALLVALUE DUP1 ISZERO PUSH2 0x12C0 JUMPI PUSH1 0x0 DUP1 REVERT JUMPDEST POP PUSH2 0x12DB PUSH1 0x4 DUP1 CALLDATASIZE SUB DUP2 ADD SWAP1 PUSH2 0x12D6 SWAP2 SWAP1 PUSH2 0x9182 JUMP JUMPDEST PUSH2 0x46D6 JUMP JUMPDEST STOP JUMPDEST CALLVALUE DUP1 ISZERO PUSH2 0x12E9 JUMPI PUSH1 0x0 DUP1 REVERT JUMPDEST POP PUSH2 0x1304 PUSH1 0x4 DUP1 CALLDATASIZE SUB DUP2 ADD SWAP1 PUSH2 0x12FF SWAP2 SWAP1 PUSH2 0x816E JUMP JUMPDEST PUSH2 0x4880 JUMP JUMPDEST STOP JUMPDEST CALLVALUE DUP1 ISZERO PUSH2 0x1312 JUMPI PUSH1 0x0 DUP1 REVERT JUMPDEST POP PUSH2 0x132D PUSH1 0x4 DUP1 CALLDATASIZE SUB DUP2 ADD SWAP1 PUSH2 0x1328 SWAP2 SWAP1 PUSH2 0x91D5 JUMP JUMPDEST PUSH2 0x491F JUMP JUMPDEST PUSH1 0x40 MLOAD PUSH2 0x133A SWAP2 SWAP1 PUSH2 0x7F63 JUMP JUMPDEST PUSH1 0x40 MLOAD DUP1 SWAP2 SUB SWAP1 RETURN JUMPDEST CALLVALUE DUP1 ISZERO PUSH2 0x134F JUMPI PUSH1 0x0 DUP1 REVERT JUMPDEST POP PUSH2 0x1358 PUSH2 0x49B4 JUMP JUMPDEST STOP JUMPDEST CALLVALUE DUP1 ISZERO PUSH2 0x1366 JUMPI PUSH1 0x0 DUP1 REVERT JUMPDEST POP PUSH2 0x1381 PUSH1 0x4 DUP1 CALLDATASIZE SUB DUP2 ADD SWAP1 PUSH2 0x137C SWAP2 SWAP1 PUSH2 0x9215 JUMP JUMPDEST PUSH2 0x4A23 JUMP JUMPDEST STOP JUMPDEST CALLVALUE DUP1 ISZERO PUSH2 0x138F JUMPI PUSH1 0x0 DUP1 REVERT JUMPDEST POP PUSH2 0x1398 PUSH2 0x4C46 JUMP JUMPDEST STOP JUMPDEST CALLVALUE DUP1 ISZERO PUSH2 0x13A6 JUMPI PUSH1 0x0 DUP1 REVERT JUMPDEST POP PUSH2 0x13C1 PUSH1 0x4 DUP1 CALLDATASIZE SUB DUP2 ADD SWAP1 PUSH2 0x13BC SWAP2 SWAP1 PUSH2 0x80B9 JUMP JUMPDEST PUSH2 0x4C63 JUMP JUMPDEST STOP JUMPDEST PUSH1 0x0 PUSH2 0x13CE DUP3 PUSH2 0x4CAD JUMP JUMPDEST SWAP1 POP SWAP2 SWAP1 POP JUMP JUMPDEST PUSH2 0x13DE DUP4 PUSH2 0x4CBF JUMP JUMPDEST PUSH2 0x13E7 DUP4 PUSH2 0x4D13 JUMP JUMPDEST PUSH2 0x13F0 DUP4 PUSH2 0x4D55 JUMP JUMPDEST PUSH2 0x13F9 DUP3 PUSH2 0x4CBF JUMP JUMPDEST TIMESTAMP PUSH2 0x1403 DUP5 PUSH2 0x2866 JUMP JUMPDEST PUSH2 0x140D SWAP2 SWAP1 PUSH2 0x9297 JUMP JUMPDEST DUP2 GT ISZERO PUSH2 0x1446 JUMPI PUSH1 0x40 MLOAD PUSH32 0x8744776800000000000000000000000000000000000000000000000000000000 DUP2 MSTORE PUSH1 0x4 ADD PUSH1 0x40 MLOAD DUP1 SWAP2 SUB SWAP1 REVERT JUMPDEST PUSH2 0x1452 DUP4 DUP3 PUSH1 0x0 PUSH2 0x4F07 JUMP JUMPDEST PUSH2 0x145E DUP3 DUP3 PUSH1 0x1 PUSH2 0x4F07 JUMP JUMPDEST POP POP POP JUMP JUMPDEST PUSH2 0x1463 DUP1 SLOAD PUSH2 0x1471 SWAP1 PUSH2 0x92FA JUMP JUMPDEST DUP1 PUSH1 0x1F ADD PUSH1 0x20 DUP1 SWAP2 DIV MUL PUSH1 0x20 ADD PUSH1 0x40 MLOAD SWAP1 DUP2 ADD PUSH1 0x40 MSTORE DUP1 SWAP3 SWAP2 SWAP1 DUP2 DUP2 MSTORE PUSH1 0x20 ADD DUP3 DUP1 SLOAD PUSH2 0x149D SWAP1 PUSH2 0x92FA JUMP JUMPDEST DUP1 ISZERO PUSH2 0x14EA JUMPI DUP1 PUSH1 0x1F LT PUSH2 0x14BF JUMPI PUSH2 0x100 DUP1 DUP4 SLOAD DIV MUL DUP4 MSTORE SWAP2 PUSH1 0x20 ADD SWAP2 PUSH2 0x14EA JUMP JUMPDEST DUP3 ADD SWAP2 SWAP1 PUSH1 0x0 MSTORE PUSH1 0x20 PUSH1 0x0 KECCAK256 SWAP1 JUMPDEST DUP2 SLOAD DUP2 MSTORE SWAP1 PUSH1 0x1 ADD SWAP1 PUSH1 0x20 ADD DUP1 DUP4 GT PUSH2 0x14CD JUMPI DUP3 SWAP1 SUB PUSH1 0x1F AND DUP3 ADD SWAP2 JUMPDEST POP POP POP POP POP DUP2 JUMP JUMPDEST PUSH1 0x0 PUSH2 0x14FD DUP3 PUSH2 0x4CBF JUMP JUMPDEST PUSH1 0x0 PUSH2 0x1079 PUSH1 0x0 DUP5 DUP2 MSTORE PUSH1 0x20 ADD SWAP1 DUP2 MSTORE PUSH1 0x20 ADD PUSH1 0x0 KECCAK256 PUSH1 0x0 SWAP1 SLOAD SWAP1 PUSH2 0x100 EXP SWAP1 DIV PUSH20 0xFFFFFFFFFFFFFFFFFFFFFFFFFFFFFFFFFFFFFFFF AND SWAP1 POP DUP1 SWAP2 POP POP SWAP2 SWAP1 POP JUMP JUMPDEST PUSH2 0x1548 DUP2 PUSH2 0x4D55 JUMP JUMPDEST DUP2 PUSH20 0xFFFFFFFFFFFFFFFFFFFFFFFFFFFFFFFFFFFFFFFF AND CALLER PUSH20 0xFFFFFFFFFFFFFFFFFFFFFFFFFFFFFFFFFFFFFFFF AND SUB PUSH2 0x15AD JUMPI PUSH1 0x40 MLOAD PUSH32 0xF13228CA00000000000000000000000000000000000000000000000000000000 DUP2 MSTORE PUSH1 0x4 ADD PUSH1 0x40 MLOAD DUP1 SWAP2 SUB SWAP1 REVERT JUMPDEST DUP2 PUSH2 0x1079 PUSH1 0x0 DUP4 DUP2 MSTORE PUSH1 0x20 ADD SWAP1 DUP2 MSTORE PUSH1 0x20 ADD PUSH1 0x0 KECCAK256 PUSH1 0x0 PUSH2 0x100 EXP DUP2 SLOAD DUP2 PUSH20 0xFFFFFFFFFFFFFFFFFFFFFFFFFFFFFFFFFFFFFFFF MUL NOT AND SWAP1 DUP4 PUSH20 0xFFFFFFFFFFFFFFFFFFFFFFFFFFFFFFFFFFFFFFFF AND MUL OR SWAP1 SSTORE POP DUP1 DUP3 PUSH20 0xFFFFFFFFFFFFFFFFFFFFFFFFFFFFFFFFFFFFFFFF AND PUSH2 0x1076 PUSH1 0x0 DUP5 DUP2 MSTORE PUSH1 0x20 ADD SWAP1 DUP2 MSTORE PUSH1 0x20 ADD PUSH1 0x0 KECCAK256 PUSH1 0x0 SWAP1 SLOAD SWAP1 PUSH2 0x100 EXP SWAP1 DIV PUSH20 0xFFFFFFFFFFFFFFFFFFFFFFFFFFFFFFFFFFFFFFFF AND PUSH20 0xFFFFFFFFFFFFFFFFFFFFFFFFFFFFFFFFFFFFFFFF AND PUSH32 0x8C5BE1E5EBEC7D5BD14F71427D1E84F3DD0314C0F7B2291E5B200AC8C7C3B925 PUSH1 0x40 MLOAD PUSH1 0x40 MLOAD DUP1 SWAP2 SUB SWAP1 LOG4 POP POP JUMP JUMPDEST PUSH1 0x0 DUP1 PUSH20 0xFFFFFFFFFFFFFFFFFFFFFFFFFFFFFFFFFFFFFFFF AND PUSH2 0xC89 PUSH1 0x0 SWAP1 SLOAD SWAP1 PUSH2 0x100 EXP SWAP1 DIV PUSH20 0xFFFFFFFFFFFFFFFFFFFFFFFFFFFFFFFFFFFFFFFF AND PUSH20 0xFFFFFFFFFFFFFFFFFFFFFFFFFFFFFFFFFFFFFFFF AND EQ PUSH2 0x1795 JUMPI PUSH2 0xC89 PUSH1 0x0 SWAP1 SLOAD SWAP1 PUSH2 0x100 EXP SWAP1 DIV PUSH20 0xFFFFFFFFFFFFFFFFFFFFFFFFFFFFFFFFFFFFFFFF AND PUSH20 0xFFFFFFFFFFFFFFFFFFFFFFFFFFFFFFFFFFFFFFFF AND PUSH4 0x221C1FD1 CALLER DUP7 DUP7 DUP7 PUSH1 0x40 MLOAD DUP6 PUSH4 0xFFFFFFFF AND PUSH1 0xE0 SHL DUP2 MSTORE PUSH1 0x4 ADD PUSH2 0x174D SWAP5 SWAP4 SWAP3 SWAP2 SWAP1 PUSH2 0x9380 JUMP JUMPDEST PUSH1 0x20 PUSH1 0x40 MLOAD DUP1 DUP4 SUB DUP2 DUP7 GAS STATICCALL ISZERO DUP1 ISZERO PUSH2 0x176A JUMPI RETURNDATASIZE PUSH1 0x0 DUP1 RETURNDATACOPY RETURNDATASIZE PUSH1 0x0 REVERT JUMPDEST POP POP POP POP PUSH1 0x40 MLOAD RETURNDATASIZE PUSH1 0x1F NOT PUSH1 0x1F DUP3 ADD AND DUP3 ADD DUP1 PUSH1 0x40 MSTORE POP DUP2 ADD SWAP1 PUSH2 0x178E SWAP2 SWAP1 PUSH2 0x93E1 JUMP JUMPDEST SWAP1 POP PUSH2 0x179C JUMP JUMPDEST PUSH2 0xC85 SLOAD SWAP1 POP JUMPDEST SWAP4 SWAP3 POP POP POP JUMP JUMPDEST PUSH2 0x17AD DUP2 CALLER PUSH2 0x5014 JUMP JUMPDEST PUSH2 0x17E3 JUMPI PUSH1 0x40 MLOAD PUSH32 0x75FD2B100000000000000000000000000000000000000000000000000000000 DUP2 MSTORE PUSH1 0x4 ADD PUSH1 0x40 MLOAD DUP1 SWAP2 SUB SWAP1 REVERT JUMPDEST PUSH2 0x17EE DUP4 DUP4 DUP4 PUSH2 0x513C JUMP JUMPDEST CALLER PUSH2 0x1078 PUSH1 0x0 DUP4 DUP2 MSTORE PUSH1 0x20 ADD SWAP1 DUP2 MSTORE PUSH1 0x20 ADD PUSH1 0x0 KECCAK256 PUSH1 0x0 PUSH2 0x100 EXP DUP2 SLOAD DUP2 PUSH20 0xFFFFFFFFFFFFFFFFFFFFFFFFFFFFFFFFFFFFFFFF MUL NOT AND SWAP1 DUP4 PUSH20 0xFFFFFFFFFFFFFFFFFFFFFFFFFFFFFFFFFFFFFFFF AND MUL OR SWAP1 SSTORE POP POP POP POP JUMP JUMPDEST PUSH2 0xC83 PUSH1 0x0 SWAP1 SLOAD SWAP1 PUSH2 0x100 EXP SWAP1 DIV PUSH20 0xFFFFFFFFFFFFFFFFFFFFFFFFFFFFFFFFFFFFFFFF AND DUP2 JUMP JUMPDEST PUSH2 0xC85 SLOAD DUP2 JUMP JUMPDEST PUSH2 0xC84 SLOAD DUP2 JUMP JUMPDEST PUSH2 0x1883 PUSH2 0x5493 JUMP JUMPDEST PUSH1 0x0 PUSH20 0xFFFFFFFFFFFFFFFFFFFFFFFFFFFFFFFFFFFFFFFF AND DUP2 PUSH20 0xFFFFFFFFFFFFFFFFFFFFFFFFFFFFFFFFFFFFFFFF AND SUB PUSH2 0x18E9 JUMPI PUSH1 0x40 MLOAD PUSH32 0xC31B827C00000000000000000000000000000000000000000000000000000000 DUP2 MSTORE PUSH1 0x4 ADD PUSH1 0x40 MLOAD DUP1 SWAP2 SUB SWAP1 REVERT JUMPDEST PUSH1 0x0 PUSH2 0x2BDA PUSH1 0x0 SWAP1 SLOAD SWAP1 PUSH2 0x100 EXP SWAP1 DIV PUSH20 0xFFFFFFFFFFFFFFFFFFFFFFFFFFFFFFFFFFFFFFFF AND SWAP1 POP DUP2 PUSH2 0x2BDA PUSH1 0x0 PUSH2 0x100 EXP DUP2 SLOAD DUP2 PUSH20 0xFFFFFFFFFFFFFFFFFFFFFFFFFFFFFFFFFFFFFFFF MUL NOT AND SWAP1 DUP4 PUSH20 0xFFFFFFFFFFFFFFFFFFFFFFFFFFFFFFFFFFFFFFFF AND MUL OR SWAP1 SSTORE POP PUSH32 0x8BE0079C531659141344CD1FD0A4F28419497F9722A3DAAFE3B4186F6B6457E0 DUP2 DUP4 PUSH1 0x40 MLOAD PUSH2 0x1984 SWAP3 SWAP2 SWAP1 PUSH2 0x940E JUMP JUMPDEST PUSH1 0x40 MLOAD DUP1 SWAP2 SUB SWAP1 LOG1 POP POP JUMP JUMPDEST PUSH1 0x0 PUSH2 0xC87 SLOAD SWAP1 POP SWAP1 JUMP JUMPDEST PUSH2 0x2407 SLOAD DUP2 JUMP JUMPDEST PUSH2 0xC8A PUSH1 0x0 SWAP1 SLOAD SWAP1 PUSH2 0x100 EXP SWAP1 DIV PUSH20 0xFFFFFFFFFFFFFFFFFFFFFFFFFFFFFFFFFFFFFFFF AND DUP2 JUMP JUMPDEST PUSH2 0x19D2 DUP2 PUSH2 0x4D55 JUMP JUMPDEST PUSH1 0x0 PUSH2 0x1078 PUSH1 0x0 DUP4 DUP2 MSTORE PUSH1 0x20 ADD SWAP1 DUP2 MSTORE PUSH1 0x20 ADD PUSH1 0x0 KECCAK256 PUSH1 0x0 PUSH2 0x100 EXP DUP2 SLOAD DUP2 PUSH20 0xFFFFFFFFFFFFFFFFFFFFFFFFFFFFFFFFFFFFFFFF MUL NOT AND SWAP1 DUP4 PUSH20 0xFFFFFFFFFFFFFFFFFFFFFFFFFFFFFFFFFFFFFFFF AND MUL OR SWAP1 SSTORE POP PUSH2 0x1A31 DUP4 DUP4 DUP4 PUSH2 0x513C JUMP JUMPDEST POP POP POP JUMP JUMPDEST PUSH1 0x0 PUSH1 0x97 PUSH1 0x0 DUP4 DUP2 MSTORE PUSH1 0x20 ADD SWAP1 DUP2 MSTORE PUSH1 0x20 ADD PUSH1 0x0 KECCAK256 PUSH1 0x1 ADD SLOAD SWAP1 POP SWAP2 SWAP1 POP JUMP JUMPDEST PUSH2 0xC8B PUSH1 0x0 SWAP1 SLOAD SWAP1 PUSH2 0x100 EXP SWAP1 DIV PUSH20 0xFFFFFFFFFFFFFFFFFFFFFFFFFFFFFFFFFFFFFFFF AND DUP2 JUMP JUMPDEST PUSH2 0x1A85 PUSH2 0x5493 JUMP JUMPDEST PUSH1 0x0 DUP2 SUB PUSH2 0x1ABF JUMPI PUSH1 0x40 MLOAD PUSH32 0xE03B033D00000000000000000000000000000000000000000000000000000000 DUP2 MSTORE PUSH1 0x4 ADD PUSH1 0x40 MLOAD DUP1 SWAP2 SUB SWAP1 REVERT JUMPDEST PUSH2 0xC87 SLOAD DUP3 LT ISZERO PUSH2 0x1AFC JUMPI PUSH1 0x40 MLOAD PUSH32 0x1D00CD6B00000000000000000000000000000000000000000000000000000000 DUP2 MSTORE PUSH1 0x4 ADD PUSH1 0x40 MLOAD DUP1 SWAP2 SUB SWAP1 REVERT JUMPDEST DUP1 PUSH2 0xC8E DUP2 SWAP1 SSTORE POP DUP3 PUSH2 0xC84 DUP2 SWAP1 SSTORE POP DUP2 PUSH2 0xC86 DUP2 SWAP1 SSTORE POP PUSH32 0x9A09448A3F24D3A01CCC67103C7CDDBEEA820176A18182CC83D0BCE585F26A5B DUP4 DUP4 PUSH2 0xC8E SLOAD PUSH1 0x40 MLOAD PUSH2 0x1B4A SWAP4 SWAP3 SWAP2 SWAP1 PUSH2 0x9437 JUMP JUMPDEST PUSH1 0x40 MLOAD DUP1 SWAP2 SUB SWAP1 LOG1 POP POP POP JUMP JUMPDEST PUSH2 0xC89 PUSH1 0x0 SWAP1 SLOAD SWAP1 PUSH2 0x100 EXP SWAP1 DIV PUSH20 0xFFFFFFFFFFFFFFFFFFFFFFFFFFFFFFFFFFFFFFFF AND DUP2 JUMP JUMPDEST PUSH2 0x1B87 DUP3 PUSH2 0x1A36 JUMP JUMPDEST PUSH2 0x1B90 DUP2 PUSH2 0x54F5 JUMP JUMPDEST PUSH2 0x1B9A DUP4 DUP4 PUSH2 0x5509 JUMP JUMPDEST POP POP POP JUMP JUMPDEST PUSH1 0x0 DUP2 PUSH20 0xFFFFFFFFFFFFFFFFFFFFFFFFFFFFFFFFFFFFFFFF AND PUSH2 0x2BDA PUSH1 0x0 SWAP1 SLOAD SWAP1 PUSH2 0x100 EXP SWAP1 DIV PUSH20 0xFFFFFFFFFFFFFFFFFFFFFFFFFFFFFFFFFFFFFFFF AND PUSH20 0xFFFFFFFFFFFFFFFFFFFFFFFFFFFFFFFFFFFFFFFF AND EQ SWAP1 POP SWAP2 SWAP1 POP JUMP JUMPDEST PUSH1 0x0 PUSH2 0x1C05 DUP4 PUSH2 0x32A8 JUMP JUMPDEST DUP3 LT PUSH2 0x1C3D JUMPI PUSH1 0x40 MLOAD PUSH32 0x8E22EAE00000000000000000000000000000000000000000000000000000000 DUP2 MSTORE PUSH1 0x4 ADD PUSH1 0x40 MLOAD DUP1 SWAP2 SUB SWAP1 REVERT JUMPDEST PUSH2 0x107C PUSH1 0x0 DUP5 PUSH20 0xFFFFFFFFFFFFFFFFFFFFFFFFFFFFFFFFFFFFFFFF AND PUSH20 0xFFFFFFFFFFFFFFFFFFFFFFFFFFFFFFFFFFFFFFFF AND DUP2 MSTORE PUSH1 0x20 ADD SWAP1 DUP2 MSTORE PUSH1 0x20 ADD PUSH1 0x0 KECCAK256 PUSH1 0x0 DUP4 DUP2 MSTORE PUSH1 0x20 ADD SWAP1 DUP2 MSTORE PUSH1 0x20 ADD PUSH1 0x0 KECCAK256 SLOAD SWAP1 POP SWAP3 SWAP2 POP POP JUMP JUMPDEST PUSH1 0x60 PUSH2 0x1CA1 PUSH2 0x55EA JUMP JUMPDEST PUSH2 0xC86 SLOAD DUP7 MLOAD PUSH2 0xC87 SLOAD PUSH2 0x1CB5 SWAP2 SWAP1 PUSH2 0x946E JUMP JUMPDEST GT ISZERO PUSH2 0x1CED JUMPI PUSH1 0x40 MLOAD PUSH32 0x31AF695100000000000000000000000000000000000000000000000000000000 DUP2 MSTORE PUSH1 0x4 ADD PUSH1 0x40 MLOAD DUP1 SWAP2 SUB SWAP1 REVERT JUMPDEST DUP5 MLOAD DUP7 MLOAD EQ ISZERO DUP1 PUSH2 0x1D00 JUMPI POP DUP4 MLOAD DUP7 MLOAD EQ ISZERO JUMPDEST ISZERO PUSH2 0x1D37 JUMPI PUSH1 0x40 MLOAD PUSH32 0xED676A4A00000000000000000000000000000000000000000000000000000000 DUP2 MSTORE PUSH1 0x4 ADD PUSH1 0x40 MLOAD DUP1 SWAP2 SUB SWAP1 REVERT JUMPDEST PUSH1 0x0 DUP1 DUP8 MLOAD PUSH8 0xFFFFFFFFFFFFFFFF DUP2 GT ISZERO PUSH2 0x1D55 JUMPI PUSH2 0x1D54 PUSH2 0x81B8 JUMP JUMPDEST JUMPDEST PUSH1 0x40 MLOAD SWAP1 DUP1 DUP3 MSTORE DUP1 PUSH1 0x20 MUL PUSH1 0x20 ADD DUP3 ADD PUSH1 0x40 MSTORE DUP1 ISZERO PUSH2 0x1D83 JUMPI DUP2 PUSH1 0x20 ADD PUSH1 0x20 DUP3 MUL DUP1 CALLDATASIZE DUP4 CALLDATACOPY DUP1 DUP3 ADD SWAP2 POP POP SWAP1 POP JUMPDEST POP SWAP1 POP PUSH1 0x0 JUMPDEST DUP9 MLOAD DUP2 LT ISZERO PUSH2 0x2193 JUMPI PUSH1 0x0 DUP10 DUP3 DUP2 MLOAD DUP2 LT PUSH2 0x1DA7 JUMPI PUSH2 0x1DA6 PUSH2 0x94A2 JUMP JUMPDEST JUMPDEST PUSH1 0x20 MUL PUSH1 0x20 ADD ADD MLOAD SWAP1 POP PUSH2 0x1E35 DUP2 DUP10 DUP5 DUP2 MLOAD DUP2 LT PUSH2 0x1DC8 JUMPI PUSH2 0x1DC7 PUSH2 0x94A2 JUMP JUMPDEST JUMPDEST PUSH1 0x20 MUL PUSH1 0x20 ADD ADD MLOAD PUSH32 0xFFFFFFFFFFFFFFFFFFFFFFFFFFFFFFFFFFFFFFFFFFFFFFFFFFFFFFFFFFFFFFFF PUSH2 0xC84 SLOAD EQ PUSH2 0x1E0E JUMPI PUSH2 0xC84 SLOAD TIMESTAMP PUSH2 0x1E09 SWAP2 SWAP1 PUSH2 0x946E JUMP JUMPDEST PUSH2 0x1E30 JUMP JUMPDEST PUSH32 0xFFFFFFFFFFFFFFFFFFFFFFFFFFFFFFFFFFFFFFFFFFFFFFFFFFFFFFFFFFFFFFFF JUMPDEST PUSH2 0x5633 JUMP JUMPDEST DUP4 DUP4 DUP2 MLOAD DUP2 LT PUSH2 0x1E48 JUMPI PUSH2 0x1E47 PUSH2 0x94A2 JUMP JUMPDEST JUMPDEST PUSH1 0x20 MUL PUSH1 0x20 ADD ADD DUP2 DUP2 MSTORE POP POP PUSH1 0x0 PUSH2 0x1EE2 DUP3 DUP12 DUP6 DUP2 MLOAD DUP2 LT PUSH2 0x1E6D JUMPI PUSH2 0x1E6C PUSH2 0x94A2 JUMP JUMPDEST JUMPDEST PUSH1 0x20 MUL PUSH1 0x20 ADD ADD MLOAD DUP11 DUP11 DUP8 DUP2 DUP2 LT PUSH2 0x1E88 JUMPI PUSH2 0x1E87 PUSH2 0x94A2 JUMP JUMPDEST JUMPDEST SWAP1 POP PUSH1 0x20 MUL DUP2 ADD SWAP1 PUSH2 0x1E9A SWAP2 SWAP1 PUSH2 0x94E0 JUMP JUMPDEST DUP1 DUP1 PUSH1 0x1F ADD PUSH1 0x20 DUP1 SWAP2 DIV MUL PUSH1 0x20 ADD PUSH1 0x40 MLOAD SWAP1 DUP2 ADD PUSH1 0x40 MSTORE DUP1 SWAP4 SWAP3 SWAP2 SWAP1 DUP2 DUP2 MSTORE PUSH1 0x20 ADD DUP4 DUP4 DUP1 DUP3 DUP5 CALLDATACOPY PUSH1 0x0 DUP2 DUP5 ADD MSTORE PUSH1 0x1F NOT PUSH1 0x1F DUP3 ADD AND SWAP1 POP DUP1 DUP4 ADD SWAP3 POP POP POP POP POP POP POP PUSH2 0x1693 JUMP JUMPDEST SWAP1 POP DUP1 DUP6 PUSH2 0x1EF0 SWAP2 SWAP1 PUSH2 0x946E JUMP JUMPDEST SWAP5 POP PUSH2 0x1F16 DUP5 DUP5 DUP2 MLOAD DUP2 LT PUSH2 0x1F08 JUMPI PUSH2 0x1F07 PUSH2 0x94A2 JUMP JUMPDEST JUMPDEST PUSH1 0x20 MUL PUSH1 0x20 ADD ADD MLOAD DUP3 PUSH2 0x579A JUMP JUMPDEST PUSH1 0x0 PUSH20 0xFFFFFFFFFFFFFFFFFFFFFFFFFFFFFFFFFFFFFFFF AND PUSH2 0x4B1 PUSH1 0x0 SWAP1 SLOAD SWAP1 PUSH2 0x100 EXP SWAP1 DIV PUSH20 0xFFFFFFFFFFFFFFFFFFFFFFFFFFFFFFFFFFFFFFFF AND PUSH20 0xFFFFFFFFFFFFFFFFFFFFFFFFFFFFFFFFFFFFFFFF AND EQ PUSH2 0x1F92 JUMPI PUSH2 0x1F91 DUP13 DUP5 DUP2 MLOAD DUP2 LT PUSH2 0x1F83 JUMPI PUSH2 0x1F82 PUSH2 0x94A2 JUMP JUMPDEST JUMPDEST PUSH1 0x20 MUL PUSH1 0x20 ADD ADD MLOAD DUP3 PUSH2 0x590F JUMP JUMPDEST JUMPDEST PUSH2 0x1FB6 DUP2 DUP12 DUP6 DUP2 MLOAD DUP2 LT PUSH2 0x1FA9 JUMPI PUSH2 0x1FA8 PUSH2 0x94A2 JUMP JUMPDEST JUMPDEST PUSH1 0x20 MUL PUSH1 0x20 ADD ADD MLOAD PUSH2 0x594D JUMP JUMPDEST PUSH1 0x0 DUP1 PUSH20 0xFFFFFFFFFFFFFFFFFFFFFFFFFFFFFFFFFFFFFFFF AND PUSH2 0x4B1 PUSH1 0x0 SWAP1 SLOAD SWAP1 PUSH2 0x100 EXP SWAP1 DIV PUSH20 0xFFFFFFFFFFFFFFFFFFFFFFFFFFFFFFFFFFFFFFFF AND PUSH20 0xFFFFFFFFFFFFFFFFFFFFFFFFFFFFFFFFFFFFFFFF AND EQ PUSH2 0x202E JUMPI DUP13 DUP5 DUP2 MLOAD DUP2 LT PUSH2 0x2021 JUMPI PUSH2 0x2020 PUSH2 0x94A2 JUMP JUMPDEST JUMPDEST PUSH1 0x20 MUL PUSH1 0x20 ADD ADD MLOAD PUSH2 0x2030 JUMP JUMPDEST CALLVALUE JUMPDEST SWAP1 POP PUSH1 0x0 PUSH20 0xFFFFFFFFFFFFFFFFFFFFFFFFFFFFFFFFFFFFFFFF AND PUSH2 0xC89 PUSH1 0x0 SWAP1 SLOAD SWAP1 PUSH2 0x100 EXP SWAP1 DIV PUSH20 0xFFFFFFFFFFFFFFFFFFFFFFFFFFFFFFFFFFFFFFFF AND PUSH20 0xFFFFFFFFFFFFFFFFFFFFFFFFFFFFFFFFFFFFFFFF AND EQ PUSH2 0x217D JUMPI PUSH2 0xC89 PUSH1 0x0 SWAP1 SLOAD SWAP1 PUSH2 0x100 EXP SWAP1 DIV PUSH20 0xFFFFFFFFFFFFFFFFFFFFFFFFFFFFFFFFFFFFFFFF AND PUSH20 0xFFFFFFFFFFFFFFFFFFFFFFFFFFFFFFFFFFFFFFFF AND PUSH4 0x5E895F29 DUP7 DUP7 DUP2 MLOAD DUP2 LT PUSH2 0x20DB JUMPI PUSH2 0x20DA PUSH2 0x94A2 JUMP JUMPDEST JUMPDEST PUSH1 0x20 MUL PUSH1 0x20 ADD ADD MLOAD CALLER DUP7 DUP16 DUP10 DUP2 MLOAD DUP2 LT PUSH2 0x20F8 JUMPI PUSH2 0x20F7 PUSH2 0x94A2 JUMP JUMPDEST JUMPDEST PUSH1 0x20 MUL PUSH1 0x20 ADD ADD MLOAD DUP15 DUP15 DUP12 DUP2 DUP2 LT PUSH2 0x2113 JUMPI PUSH2 0x2112 PUSH2 0x94A2 JUMP JUMPDEST JUMPDEST SWAP1 POP PUSH1 0x20 MUL DUP2 ADD SWAP1 PUSH2 0x2125 SWAP2 SWAP1 PUSH2 0x94E0 JUMP JUMPDEST DUP10 DUP10 PUSH1 0x40 MLOAD DUP10 PUSH4 0xFFFFFFFF AND PUSH1 0xE0 SHL DUP2 MSTORE PUSH1 0x4 ADD PUSH2 0x214A SWAP9 SWAP8 SWAP7 SWAP6 SWAP5 SWAP4 SWAP3 SWAP2 SWAP1 PUSH2 0x9570 JUMP JUMPDEST PUSH1 0x0 PUSH1 0x40 MLOAD DUP1 DUP4 SUB DUP2 PUSH1 0x0 DUP8 DUP1 EXTCODESIZE ISZERO DUP1 ISZERO PUSH2 0x2164 JUMPI PUSH1 0x0 DUP1 REVERT JUMPDEST POP GAS CALL ISZERO DUP1 ISZERO PUSH2 0x2178 JUMPI RETURNDATASIZE PUSH1 0x0 DUP1 RETURNDATACOPY RETURNDATASIZE PUSH1 0x0 REVERT JUMPDEST POP POP POP POP JUMPDEST POP POP POP DUP1 DUP1 PUSH2 0x218B SWAP1 PUSH2 0x95E8 JUMP JUMPDEST SWAP2 POP POP PUSH2 0x1D89 JUMP JUMPDEST POP PUSH2 0x219E CALLER DUP4 PUSH2 0x5B14 JUMP JUMPDEST PUSH2 0x21A7 DUP3 PUSH2 0x5C53 JUMP JUMPDEST PUSH2 0x21AF PUSH2 0x5E18 JUMP JUMPDEST PUSH1 0x0 JUMPDEST DUP8 MLOAD DUP2 LT ISZERO PUSH2 0x21F1 JUMPI PUSH2 0x21DE DUP9 DUP3 DUP2 MLOAD DUP2 LT PUSH2 0x21D1 JUMPI PUSH2 0x21D0 PUSH2 0x94A2 JUMP JUMPDEST JUMPDEST PUSH1 0x20 MUL PUSH1 0x20 ADD ADD MLOAD PUSH2 0x5ECD JUMP JUMPDEST DUP1 DUP1 PUSH2 0x21E9 SWAP1 PUSH2 0x95E8 JUMP JUMPDEST SWAP2 POP POP PUSH2 0x21B2 JUMP JUMPDEST POP DUP1 SWAP3 POP POP POP SWAP7 SWAP6 POP POP POP POP POP POP JUMP JUMPDEST PUSH2 0x2209 PUSH2 0x6029 JUMP JUMPDEST PUSH20 0xFFFFFFFFFFFFFFFFFFFFFFFFFFFFFFFFFFFFFFFF AND DUP2 PUSH20 0xFFFFFFFFFFFFFFFFFFFFFFFFFFFFFFFFFFFFFFFF AND EQ PUSH2 0x2276 JUMPI PUSH1 0x40 MLOAD PUSH32 0x8C379A000000000000000000000000000000000000000000000000000000000 DUP2 MSTORE PUSH1 0x4 ADD PUSH2 0x226D SWAP1 PUSH2 0x96A2 JUMP JUMPDEST PUSH1 0x40 MLOAD DUP1 SWAP2 SUB SWAP1 REVERT JUMPDEST PUSH2 0x2280 DUP3 DUP3 PUSH2 0x6031 JUMP JUMPDEST POP POP JUMP JUMPDEST PUSH2 0xC8F PUSH1 0x0 SWAP1 SLOAD SWAP1 PUSH2 0x100 EXP SWAP1 DIV PUSH20 0xFFFFFFFFFFFFFFFFFFFFFFFFFFFFFFFFFFFFFFFF AND DUP2 JUMP JUMPDEST PUSH2 0x22B3 PUSH2 0x5493 JUMP JUMPDEST PUSH32 0xD6867BC538320E67D7BDC35860C27C08486EB490B4FD9B820FFF18FB28381D3C DUP3 DUP3 PUSH1 0x40 MLOAD PUSH2 0x22E4 SWAP3 SWAP2 SWAP1 PUSH2 0x96C2 JUMP JUMPDEST PUSH1 0x40 MLOAD DUP1 SWAP2 SUB SWAP1 LOG1 DUP2 PUSH2 0x27F1 DUP2 SWAP1 SSTORE POP DUP1 PUSH2 0x27F0 DUP2 SWAP1 SSTORE POP POP POP JUMP JUMPDEST PUSH2 0x1078 PUSH1 0x0 DUP3 DUP2 MSTORE PUSH1 0x20 ADD SWAP1 DUP2 MSTORE PUSH1 0x20 ADD PUSH1 0x0 KECCAK256 PUSH1 0x0 SWAP1 SLOAD SWAP1 PUSH2 0x100 EXP SWAP1 DIV PUSH20 0xFFFFFFFFFFFFFFFFFFFFFFFFFFFFFFFFFFFFFFFF AND PUSH20 0xFFFFFFFFFFFFFFFFFFFFFFFFFFFFFFFFFFFFFFFF AND CALLER PUSH20 0xFFFFFFFFFFFFFFFFFFFFFFFFFFFFFFFFFFFFFFFF AND EQ PUSH2 0x2399 JUMPI PUSH1 0x40 MLOAD PUSH32 0x75FD2B100000000000000000000000000000000000000000000000000000000 DUP2 MSTORE PUSH1 0x4 ADD PUSH1 0x40 MLOAD DUP1 SWAP2 SUB SWAP1 REVERT JUMPDEST PUSH2 0x23AC PUSH2 0x23A5 DUP3 PUSH2 0x28C1 JUMP JUMPDEST DUP4 DUP4 PUSH2 0x513C JUMP JUMPDEST POP POP JUMP JUMPDEST PUSH2 0x23CB DUP4 DUP4 DUP4 PUSH1 0x40 MLOAD DUP1 PUSH1 0x20 ADD PUSH1 0x40 MSTORE DUP1 PUSH1 0x0 DUP2 MSTORE POP PUSH2 0x4082 JUMP JUMPDEST POP POP POP JUMP JUMPDEST PUSH2 0x23D9 DUP2 PUSH2 0x4CBF JUMP JUMPDEST PUSH2 0x23E2 DUP2 PUSH2 0x4D55 JUMP JUMPDEST DUP1 PUSH1 0x0 PUSH20 0xFFFFFFFFFFFFFFFFFFFFFFFFFFFFFFFFFFFFFFFF AND PUSH2 0x1076 PUSH1 0x0 DUP5 DUP2 MSTORE PUSH1 0x20 ADD SWAP1 DUP2 MSTORE PUSH1 0x20 ADD PUSH1 0x0 KECCAK256 PUSH1 0x0 SWAP1 SLOAD SWAP1 PUSH2 0x100 EXP SWAP1 DIV PUSH20 0xFFFFFFFFFFFFFFFFFFFFFFFFFFFFFFFFFFFFFFFF AND PUSH20 0xFFFFFFFFFFFFFFFFFFFFFFFFFFFFFFFFFFFFFFFF AND PUSH32 0xDDF252AD1BE2C89B69C2B068FC378DAA952BA7F163C4A11628F55A4DF523B3EF PUSH1 0x40 MLOAD PUSH1 0x40 MLOAD DUP1 SWAP2 SUB SWAP1 LOG4 PUSH2 0x247B DUP2 PUSH2 0x6113 JUMP JUMPDEST PUSH1 0x0 PUSH2 0x1076 PUSH1 0x0 DUP4 DUP2 MSTORE PUSH1 0x20 ADD SWAP1 DUP2 MSTORE PUSH1 0x20 ADD PUSH1 0x0 KECCAK256 PUSH1 0x0 PUSH2 0x100 EXP DUP2 SLOAD DUP2 PUSH20 0xFFFFFFFFFFFFFFFFFFFFFFFFFFFFFFFFFFFFFFFF MUL NOT AND SWAP1 DUP4 PUSH20 0xFFFFFFFFFFFFFFFFFFFFFFFFFFFFFFFFFFFFFFFF AND MUL OR SWAP1 SSTORE POP POP JUMP JUMPDEST PUSH2 0x24DA PUSH2 0x55EA JUMP JUMPDEST PUSH2 0x24E3 DUP3 PUSH2 0x4CBF JUMP JUMPDEST PUSH2 0x250D PUSH32 0xB309C40027C81D382C3B58D8DE24207A34B27E1DB369B1434E4A11311F154B5E CALLER PUSH2 0x387B JUMP JUMPDEST ISZERO DUP1 ISZERO PUSH2 0x2520 JUMPI POP PUSH2 0x251E CALLER PUSH2 0x3F4C JUMP JUMPDEST ISZERO JUMPDEST ISZERO PUSH2 0x2557 JUMPI PUSH1 0x40 MLOAD PUSH32 0x1798FEDB00000000000000000000000000000000000000000000000000000000 DUP2 MSTORE PUSH1 0x4 ADD PUSH1 0x40 MLOAD DUP1 SWAP2 SUB SWAP1 REVERT JUMPDEST PUSH2 0x2561 DUP3 DUP3 PUSH2 0x6132 JUMP JUMPDEST POP POP POP JUMP JUMPDEST PUSH2 0x1078 PUSH1 0x20 MSTORE DUP1 PUSH1 0x0 MSTORE PUSH1 0x40 PUSH1 0x0 KECCAK256 PUSH1 0x0 SWAP2 POP SLOAD SWAP1 PUSH2 0x100 EXP SWAP1 DIV PUSH20 0xFFFFFFFFFFFFFFFFFFFFFFFFFFFFFFFFFFFFFFFF AND DUP2 JUMP JUMPDEST PUSH2 0xC8D SLOAD DUP2 JUMP JUMPDEST PUSH1 0x0 PUSH2 0xC87 SLOAD DUP3 LT PUSH2 0x25DF JUMPI PUSH1 0x40 MLOAD PUSH32 0x8E22EAE00000000000000000000000000000000000000000000000000000000 DUP2 MSTORE PUSH1 0x4 ADD PUSH1 0x40 MLOAD DUP1 SWAP2 SUB SWAP1 REVERT JUMPDEST DUP2 SWAP1 POP SWAP2 SWAP1 POP JUMP JUMPDEST PUSH1 0x0 PUSH32 0xFFFFFFFFFFFFFFFFFFFFFFFFFFFFFFFFFFFFFFFFFFFFFFFFFFFFFFFFFFFFFFFF PUSH2 0x2020 PUSH1 0x0 DUP6 DUP2 MSTORE PUSH1 0x20 ADD SWAP1 DUP2 MSTORE PUSH1 0x20 ADD PUSH1 0x0 KECCAK256 SLOAD EQ DUP1 PUSH2 0x267A JUMPI POP PUSH1 0x0 PUSH20 0xFFFFFFFFFFFFFFFFFFFFFFFFFFFFFFFFFFFFFFFF AND PUSH2 0x4B1 PUSH1 0x0 SWAP1 SLOAD SWAP1 PUSH2 0x100 EXP SWAP1 DIV PUSH20 0xFFFFFFFFFFFFFFFFFFFFFFFFFFFFFFFFFFFFFFFF AND PUSH20 0xFFFFFFFFFFFFFFFFFFFFFFFFFFFFFFFFFFFFFFFF AND EQ JUMPDEST ISZERO PUSH2 0x26B1 JUMPI PUSH1 0x40 MLOAD PUSH32 0xD9A81C2200000000000000000000000000000000000000000000000000000000 DUP2 MSTORE PUSH1 0x4 ADD PUSH1 0x40 MLOAD DUP1 SWAP2 SUB SWAP1 REVERT JUMPDEST PUSH2 0x26D3 PUSH2 0x26BD DUP5 PUSH2 0x28C1 JUMP JUMPDEST DUP4 PUSH1 0x40 MLOAD DUP1 PUSH1 0x20 ADD PUSH1 0x40 MSTORE DUP1 PUSH1 0x0 DUP2 MSTORE POP PUSH2 0x1693 JUMP JUMPDEST PUSH2 0x201F PUSH1 0x0 DUP6 DUP2 MSTORE PUSH1 0x20 ADD SWAP1 DUP2 MSTORE PUSH1 0x20 ADD PUSH1 0x0 KECCAK256 SLOAD LT DUP1 PUSH2 0x270A JUMPI POP PUSH2 0xC84 SLOAD PUSH2 0x2020 PUSH1 0x0 DUP6 DUP2 MSTORE PUSH1 0x20 ADD SWAP1 DUP2 MSTORE PUSH1 0x20 ADD PUSH1 0x0 KECCAK256 SLOAD GT JUMPDEST DUP1 PUSH2 0x2798 JUMPI POP PUSH2 0x4B1 PUSH1 0x0 SWAP1 SLOAD SWAP1 PUSH2 0x100 EXP SWAP1 DIV PUSH20 0xFFFFFFFFFFFFFFFFFFFFFFFFFFFFFFFFFFFFFFFF AND PUSH20 0xFFFFFFFFFFFFFFFFFFFFFFFFFFFFFFFFFFFFFFFF AND PUSH2 0x2021 PUSH1 0x0 DUP6 DUP2 MSTORE PUSH1 0x20 ADD SWAP1 DUP2 MSTORE PUSH1 0x20 ADD PUSH1 0x0 KECCAK256 PUSH1 0x0 SWAP1 SLOAD SWAP1 PUSH2 0x100 EXP SWAP1 DIV PUSH20 0xFFFFFFFFFFFFFFFFFFFFFFFFFFFFFFFFFFFFFFFF AND PUSH20 0xFFFFFFFFFFFFFFFFFFFFFFFFFFFFFFFFFFFFFFFF AND EQ ISZERO JUMPDEST ISZERO PUSH2 0x27CF JUMPI PUSH1 0x40 MLOAD PUSH32 0x986739E700000000000000000000000000000000000000000000000000000000 DUP2 MSTORE PUSH1 0x4 ADD PUSH1 0x40 MLOAD DUP1 SWAP2 SUB SWAP1 REVERT JUMPDEST PUSH1 0x0 PUSH2 0x2710 PUSH2 0x2328 PUSH2 0xC84 SLOAD PUSH2 0x27E5 SWAP2 SWAP1 PUSH2 0x96EB JUMP JUMPDEST PUSH2 0x27EF SWAP2 SWAP1 PUSH2 0x975C JUMP JUMPDEST PUSH2 0xC84 SLOAD PUSH2 0x107B PUSH1 0x0 DUP8 DUP2 MSTORE PUSH1 0x20 ADD SWAP1 DUP2 MSTORE PUSH1 0x20 ADD PUSH1 0x0 KECCAK256 PUSH1 0x1 ADD SLOAD PUSH2 0x2815 SWAP2 SWAP1 PUSH2 0x9297 JUMP JUMPDEST PUSH2 0x281F SWAP2 SWAP1 PUSH2 0x946E JUMP JUMPDEST SWAP1 POP DUP1 TIMESTAMP LT ISZERO PUSH2 0x285B JUMPI PUSH1 0x40 MLOAD PUSH32 0xC1B1D86600000000000000000000000000000000000000000000000000000000 DUP2 MSTORE PUSH1 0x4 ADD PUSH1 0x40 MLOAD DUP1 SWAP2 SUB SWAP1 REVERT JUMPDEST PUSH1 0x1 SWAP2 POP POP SWAP3 SWAP2 POP POP JUMP JUMPDEST PUSH1 0x0 PUSH2 0x107B PUSH1 0x0 DUP4 DUP2 MSTORE PUSH1 0x20 ADD SWAP1 DUP2 MSTORE PUSH1 0x20 ADD PUSH1 0x0 KECCAK256 PUSH1 0x1 ADD SLOAD SWAP1 POP SWAP2 SWAP1 POP JUMP JUMPDEST PUSH2 0x2890 DUP3 PUSH2 0x4CBF JUMP JUMPDEST PUSH2 0x2899 DUP3 PUSH2 0x4D13 JUMP JUMPDEST PUSH2 0x28A1 PUSH2 0x5493 JUMP JUMPDEST PUSH2 0x28AB DUP3 DUP3 PUSH2 0x6380 JUMP JUMPDEST POP POP JUMP JUMPDEST PUSH2 0x27F0 SLOAD DUP2 JUMP JUMPDEST PUSH1 0x0 PUSH2 0x201E SLOAD SWAP1 POP SWAP1 JUMP JUMPDEST PUSH1 0x0 PUSH2 0x1076 PUSH1 0x0 DUP4 DUP2 MSTORE PUSH1 0x20 ADD SWAP1 DUP2 MSTORE PUSH1 0x20 ADD PUSH1 0x0 KECCAK256 PUSH1 0x0 SWAP1 SLOAD SWAP1 PUSH2 0x100 EXP SWAP1 DIV PUSH20 0xFFFFFFFFFFFFFFFFFFFFFFFFFFFFFFFFFFFFFFFF AND SWAP1 POP SWAP2 SWAP1 POP JUMP JUMPDEST PUSH1 0x0 DUP1 PUSH2 0x290B DUP4 PUSH2 0x2BBB JUMP JUMPDEST SUB PUSH2 0x2A18 JUMPI PUSH1 0x0 PUSH20 0xFFFFFFFFFFFFFFFFFFFFFFFFFFFFFFFFFFFFFFFF AND PUSH2 0xC8B PUSH1 0x0 SWAP1 SLOAD SWAP1 PUSH2 0x100 EXP SWAP1 DIV PUSH20 0xFFFFFFFFFFFFFFFFFFFFFFFFFFFFFFFFFFFFFFFF AND PUSH20 0xFFFFFFFFFFFFFFFFFFFFFFFFFFFFFFFFFFFFFFFF AND EQ PUSH2 0x2A17 JUMPI PUSH2 0xC8B PUSH1 0x0 SWAP1 SLOAD SWAP1 PUSH2 0x100 EXP SWAP1 DIV PUSH20 0xFFFFFFFFFFFFFFFFFFFFFFFFFFFFFFFFFFFFFFFF AND PUSH20 0xFFFFFFFFFFFFFFFFFFFFFFFFFFFFFFFFFFFFFFFF AND PUSH4 0x427EDE38 ADDRESS CALLER PUSH1 0x0 DUP1 DUP8 PUSH1 0x0 PUSH1 0x40 MLOAD DUP8 PUSH4 0xFFFFFFFF AND PUSH1 0xE0 SHL DUP2 MSTORE PUSH1 0x4 ADD PUSH2 0x29CF SWAP7 SWAP6 SWAP5 SWAP4 SWAP3 SWAP2 SWAP1 PUSH2 0x97C8 JUMP JUMPDEST PUSH1 0x20 PUSH1 0x40 MLOAD DUP1 DUP4 SUB DUP2 DUP7 GAS STATICCALL ISZERO DUP1 ISZERO PUSH2 0x29EC JUMPI RETURNDATASIZE PUSH1 0x0 DUP1 RETURNDATACOPY RETURNDATASIZE PUSH1 0x0 REVERT JUMPDEST POP POP POP POP PUSH1 0x40 MLOAD RETURNDATASIZE PUSH1 0x1F NOT PUSH1 0x1F DUP3 ADD AND DUP3 ADD DUP1 PUSH1 0x40 MSTORE POP DUP2 ADD SWAP1 PUSH2 0x2A10 SWAP2 SWAP1 PUSH2 0x983E JUMP JUMPDEST SWAP1 POP PUSH2 0x2A28 JUMP JUMPDEST JUMPDEST PUSH1 0x1 PUSH2 0x2A23 DUP4 PUSH2 0x2BBB JUMP JUMPDEST LT ISZERO SWAP1 POP JUMPDEST SWAP2 SWAP1 POP JUMP JUMPDEST PUSH1 0x0 DUP1 PUSH1 0x1 SWAP1 SLOAD SWAP1 PUSH2 0x100 EXP SWAP1 DIV PUSH1 0xFF AND ISZERO SWAP1 POP DUP1 DUP1 ISZERO PUSH2 0x2A5E JUMPI POP PUSH1 0x1 PUSH1 0x0 DUP1 SLOAD SWAP1 PUSH2 0x100 EXP SWAP1 DIV PUSH1 0xFF AND PUSH1 0xFF AND LT JUMPDEST DUP1 PUSH2 0x2A8B JUMPI POP PUSH2 0x2A6D ADDRESS PUSH2 0x6557 JUMP JUMPDEST ISZERO DUP1 ISZERO PUSH2 0x2A8A JUMPI POP PUSH1 0x1 PUSH1 0x0 DUP1 SLOAD SWAP1 PUSH2 0x100 EXP SWAP1 DIV PUSH1 0xFF AND PUSH1 0xFF AND EQ JUMPDEST JUMPDEST PUSH2 0x2ACA JUMPI PUSH1 0x40 MLOAD PUSH32 0x8C379A000000000000000000000000000000000000000000000000000000000 DUP2 MSTORE PUSH1 0x4 ADD PUSH2 0x2AC1 SWAP1 PUSH2 0x98DD JUMP JUMPDEST PUSH1 0x40 MLOAD DUP1 SWAP2 SUB SWAP1 REVERT JUMPDEST PUSH1 0x1 PUSH1 0x0 DUP1 PUSH2 0x100 EXP DUP2 SLOAD DUP2 PUSH1 0xFF MUL NOT AND SWAP1 DUP4 PUSH1 0xFF AND MUL OR SWAP1 SSTORE POP DUP1 ISZERO PUSH2 0x2B07 JUMPI PUSH1 0x1 PUSH1 0x0 PUSH1 0x1 PUSH2 0x100 EXP DUP2 SLOAD DUP2 PUSH1 0xFF MUL NOT AND SWAP1 DUP4 ISZERO ISZERO MUL OR SWAP1 SSTORE POP JUMPDEST PUSH2 0x2B10 DUP7 PUSH2 0x657A JUMP JUMPDEST PUSH2 0x2B1C DUP9 DUP9 DUP8 DUP8 PUSH2 0x65C8 JUMP JUMPDEST PUSH2 0x2B26 DUP4 DUP4 PUSH2 0x6644 JUMP JUMPDEST PUSH2 0x2B2E PUSH2 0x6673 JUMP JUMPDEST PUSH2 0x2B36 PUSH2 0x6685 JUMP JUMPDEST PUSH2 0x2B3F DUP9 PUSH2 0x6691 JUMP JUMPDEST PUSH2 0x2B48 DUP9 PUSH2 0x6799 JUMP JUMPDEST PUSH2 0x2B58 PUSH4 0x80AC58CD PUSH1 0xE0 SHL PUSH2 0x67DE JUMP JUMPDEST DUP1 ISZERO PUSH2 0x2BB1 JUMPI PUSH1 0x0 DUP1 PUSH1 0x1 PUSH2 0x100 EXP DUP2 SLOAD DUP2 PUSH1 0xFF MUL NOT AND SWAP1 DUP4 ISZERO ISZERO MUL OR SWAP1 SSTORE POP PUSH32 0x7F26B83FF96E1F2B6A682F133852F6798A09C465DA95921460CEFB3847402498 PUSH1 0x1 PUSH1 0x40 MLOAD PUSH2 0x2BA8 SWAP2 SWAP1 PUSH2 0x9945 JUMP JUMPDEST PUSH1 0x40 MLOAD DUP1 SWAP2 SUB SWAP1 LOG1 JUMPDEST POP POP POP POP POP POP POP POP JUMP JUMPDEST PUSH1 0x0 DUP1 PUSH2 0x2BC7 DUP4 PUSH2 0x32A8 JUMP JUMPDEST SWAP1 POP PUSH1 0x0 JUMPDEST DUP2 DUP2 LT ISZERO PUSH2 0x2C0D JUMPI PUSH2 0x2BE6 PUSH2 0x2BE1 DUP6 DUP4 PUSH2 0x1BFA JUMP JUMPDEST PUSH2 0x3DD8 JUMP JUMPDEST ISZERO PUSH2 0x2BFA JUMPI DUP3 DUP1 PUSH2 0x2BF6 SWAP1 PUSH2 0x95E8 JUMP JUMPDEST SWAP4 POP POP JUMPDEST DUP1 DUP1 PUSH2 0x2C05 SWAP1 PUSH2 0x95E8 JUMP JUMPDEST SWAP2 POP POP PUSH2 0x2BCC JUMP JUMPDEST POP POP SWAP2 SWAP1 POP JUMP JUMPDEST PUSH2 0xC86 SLOAD DUP2 JUMP JUMPDEST PUSH2 0x2C23 PUSH2 0x5493 JUMP JUMPDEST PUSH1 0x0 PUSH20 0xFFFFFFFFFFFFFFFFFFFFFFFFFFFFFFFFFFFFFFFF AND DUP8 PUSH20 0xFFFFFFFFFFFFFFFFFFFFFFFFFFFFFFFFFFFFFFFF AND EQ ISZERO DUP1 ISZERO PUSH2 0x2C7C JUMPI POP PUSH2 0x2C7A DUP8 PUSH20 0xFFFFFFFFFFFFFFFFFFFFFFFFFFFFFFFFFFFFFFFF AND PUSH2 0x6557 JUMP JUMPDEST ISZERO JUMPDEST ISZERO PUSH2 0x2CBF JUMPI PUSH1 0x0 PUSH1 0x40 MLOAD PUSH32 0x6788E02B00000000000000000000000000000000000000000000000000000000 DUP2 MSTORE PUSH1 0x4 ADD PUSH2 0x2CB6 SWAP2 SWAP1 PUSH2 0x9991 JUMP JUMPDEST PUSH1 0x40 MLOAD DUP1 SWAP2 SUB SWAP1 REVERT JUMPDEST PUSH1 0x0 PUSH20 0xFFFFFFFFFFFFFFFFFFFFFFFFFFFFFFFFFFFFFFFF AND DUP7 PUSH20 0xFFFFFFFFFFFFFFFFFFFFFFFFFFFFFFFFFFFFFFFF AND EQ ISZERO DUP1 ISZERO PUSH2 0x2D18 JUMPI POP PUSH2 0x2D16 DUP7 PUSH20 0xFFFFFFFFFFFFFFFFFFFFFFFFFFFFFFFFFFFFFFFF AND PUSH2 0x6557 JUMP JUMPDEST ISZERO JUMPDEST ISZERO PUSH2 0x2D5B JUMPI PUSH1 0x1 PUSH1 0x40 MLOAD PUSH32 0x6788E02B00000000000000000000000000000000000000000000000000000000 DUP2 MSTORE PUSH1 0x4 ADD PUSH2 0x2D52 SWAP2 SWAP1 PUSH2 0x9945 JUMP JUMPDEST PUSH1 0x40 MLOAD DUP1 SWAP2 SUB SWAP1 REVERT JUMPDEST PUSH1 0x0 PUSH20 0xFFFFFFFFFFFFFFFFFFFFFFFFFFFFFFFFFFFFFFFF AND DUP6 PUSH20 0xFFFFFFFFFFFFFFFFFFFFFFFFFFFFFFFFFFFFFFFF AND EQ ISZERO DUP1 ISZERO PUSH2 0x2DB4 JUMPI POP PUSH2 0x2DB2 DUP6 PUSH20 0xFFFFFFFFFFFFFFFFFFFFFFFFFFFFFFFFFFFFFFFF AND PUSH2 0x6557 JUMP JUMPDEST ISZERO JUMPDEST ISZERO PUSH2 0x2DF7 JUMPI PUSH1 0x2 PUSH1 0x40 MLOAD PUSH32 0x6788E02B00000000000000000000000000000000000000000000000000000000 DUP2 MSTORE PUSH1 0x4 ADD PUSH2 0x2DEE SWAP2 SWAP1 PUSH2 0x99E7 JUMP JUMPDEST PUSH1 0x40 MLOAD DUP1 SWAP2 SUB SWAP1 REVERT JUMPDEST PUSH1 0x0 PUSH20 0xFFFFFFFFFFFFFFFFFFFFFFFFFFFFFFFFFFFFFFFF AND DUP5 PUSH20 0xFFFFFFFFFFFFFFFFFFFFFFFFFFFFFFFFFFFFFFFF AND EQ ISZERO DUP1 ISZERO PUSH2 0x2E50 JUMPI POP PUSH2 0x2E4E DUP5 PUSH20 0xFFFFFFFFFFFFFFFFFFFFFFFFFFFFFFFFFFFFFFFF AND PUSH2 0x6557 JUMP JUMPDEST ISZERO JUMPDEST ISZERO PUSH2 0x2E93 JUMPI PUSH1 0x3 PUSH1 0x40 MLOAD PUSH32 0x6788E02B00000000000000000000000000000000000000000000000000000000 DUP2 MSTORE PUSH1 0x4 ADD PUSH2 0x2E8A SWAP2 SWAP1 PUSH2 0x9A3D JUMP JUMPDEST PUSH1 0x40 MLOAD DUP1 SWAP2 SUB SWAP1 REVERT JUMPDEST PUSH1 0x0 PUSH20 0xFFFFFFFFFFFFFFFFFFFFFFFFFFFFFFFFFFFFFFFF AND DUP4 PUSH20 0xFFFFFFFFFFFFFFFFFFFFFFFFFFFFFFFFFFFFFFFF AND EQ ISZERO DUP1 ISZERO PUSH2 0x2EEC JUMPI POP PUSH2 0x2EEA DUP4 PUSH20 0xFFFFFFFFFFFFFFFFFFFFFFFFFFFFFFFFFFFFFFFF AND PUSH2 0x6557 JUMP JUMPDEST ISZERO JUMPDEST ISZERO PUSH2 0x2F2F JUMPI PUSH1 0x4 PUSH1 0x40 MLOAD PUSH32 0x6788E02B00000000000000000000000000000000000000000000000000000000 DUP2 MSTORE PUSH1 0x4 ADD PUSH2 0x2F26 SWAP2 SWAP1 PUSH2 0x9A93 JUMP JUMPDEST PUSH1 0x40 MLOAD DUP1 SWAP2 SUB SWAP1 REVERT JUMPDEST PUSH1 0x0 PUSH20 0xFFFFFFFFFFFFFFFFFFFFFFFFFFFFFFFFFFFFFFFF AND DUP3 PUSH20 0xFFFFFFFFFFFFFFFFFFFFFFFFFFFFFFFFFFFFFFFF AND EQ ISZERO DUP1 ISZERO PUSH2 0x2F88 JUMPI POP PUSH2 0x2F86 DUP3 PUSH20 0xFFFFFFFFFFFFFFFFFFFFFFFFFFFFFFFFFFFFFFFF AND PUSH2 0x6557 JUMP JUMPDEST ISZERO JUMPDEST ISZERO PUSH2 0x2FCB JUMPI PUSH1 0x5 PUSH1 0x40 MLOAD PUSH32 0x6788E02B00000000000000000000000000000000000000000000000000000000 DUP2 MSTORE PUSH1 0x4 ADD PUSH2 0x2FC2 SWAP2 SWAP1 PUSH2 0x9AE9 JUMP JUMPDEST PUSH1 0x40 MLOAD DUP1 SWAP2 SUB SWAP1 REVERT JUMPDEST PUSH1 0x0 PUSH20 0xFFFFFFFFFFFFFFFFFFFFFFFFFFFFFFFFFFFFFFFF AND DUP2 PUSH20 0xFFFFFFFFFFFFFFFFFFFFFFFFFFFFFFFFFFFFFFFF AND EQ ISZERO DUP1 ISZERO PUSH2 0x3024 JUMPI POP PUSH2 0x3022 DUP2 PUSH20 0xFFFFFFFFFFFFFFFFFFFFFFFFFFFFFFFFFFFFFFFF AND PUSH2 0x6557 JUMP JUMPDEST ISZERO JUMPDEST ISZERO PUSH2 0x3067 JUMPI PUSH1 0x6 PUSH1 0x40 MLOAD PUSH32 0x6788E02B00000000000000000000000000000000000000000000000000000000 DUP2 MSTORE PUSH1 0x4 ADD PUSH2 0x305E SWAP2 SWAP1 PUSH2 0x9B3F JUMP JUMPDEST PUSH1 0x40 MLOAD DUP1 SWAP2 SUB SWAP1 REVERT JUMPDEST DUP7 PUSH2 0xC89 PUSH1 0x0 PUSH2 0x100 EXP DUP2 SLOAD DUP2 PUSH20 0xFFFFFFFFFFFFFFFFFFFFFFFFFFFFFFFFFFFFFFFF MUL NOT AND SWAP1 DUP4 PUSH20 0xFFFFFFFFFFFFFFFFFFFFFFFFFFFFFFFFFFFFFFFF AND MUL OR SWAP1 SSTORE POP DUP6 PUSH2 0xC8A PUSH1 0x0 PUSH2 0x100 EXP DUP2 SLOAD DUP2 PUSH20 0xFFFFFFFFFFFFFFFFFFFFFFFFFFFFFFFFFFFFFFFF MUL NOT AND SWAP1 DUP4 PUSH20 0xFFFFFFFFFFFFFFFFFFFFFFFFFFFFFFFFFFFFFFFF AND MUL OR SWAP1 SSTORE POP DUP4 PUSH2 0xC8C PUSH1 0x0 PUSH2 0x100 EXP DUP2 SLOAD DUP2 PUSH20 0xFFFFFFFFFFFFFFFFFFFFFFFFFFFFFFFFFFFFFFFF MUL NOT AND SWAP1 DUP4 PUSH20 0xFFFFFFFFFFFFFFFFFFFFFFFFFFFFFFFFFFFFFFFF AND MUL OR SWAP1 SSTORE POP DUP5 PUSH2 0xC8B PUSH1 0x0 PUSH2 0x100 EXP DUP2 SLOAD DUP2 PUSH20 0xFFFFFFFFFFFFFFFFFFFFFFFFFFFFFFFFFFFFFFFF MUL NOT AND SWAP1 DUP4 PUSH20 0xFFFFFFFFFFFFFFFFFFFFFFFFFFFFFFFFFFFFFFFF AND MUL OR SWAP1 SSTORE POP DUP3 PUSH2 0xC8F PUSH1 0x0 PUSH2 0x100 EXP DUP2 SLOAD DUP2 PUSH20 0xFFFFFFFFFFFFFFFFFFFFFFFFFFFFFFFFFFFFFFFF MUL NOT AND SWAP1 DUP4 PUSH20 0xFFFFFFFFFFFFFFFFFFFFFFFFFFFFFFFFFFFFFFFF AND MUL OR SWAP1 SSTORE POP DUP2 PUSH2 0xC90 PUSH1 0x0 PUSH2 0x100 EXP DUP2 SLOAD DUP2 PUSH20 0xFFFFFFFFFFFFFFFFFFFFFFFFFFFFFFFFFFFFFFFF MUL NOT AND SWAP1 DUP4 PUSH20 0xFFFFFFFFFFFFFFFFFFFFFFFFFFFFFFFFFFFFFFFF AND MUL OR SWAP1 SSTORE POP DUP1 PUSH2 0xC91 PUSH1 0x0 PUSH2 0x100 EXP DUP2 SLOAD DUP2 PUSH20 0xFFFFFFFFFFFFFFFFFFFFFFFFFFFFFFFFFFFFFFFF MUL NOT AND SWAP1 DUP4 PUSH20 0xFFFFFFFFFFFFFFFFFFFFFFFFFFFFFFFFFFFFFFFF AND MUL OR SWAP1 SSTORE POP PUSH32 0xA851288E37FA9A8BC562891998524E95C286FE84F693C1921E0FD0792171AF6 DUP8 DUP8 DUP8 DUP8 DUP8 DUP8 DUP8 PUSH1 0x40 MLOAD PUSH2 0x3270 SWAP8 SWAP7 SWAP6 SWAP5 SWAP4 SWAP3 SWAP2 SWAP1 PUSH2 0x9B5A JUMP JUMPDEST PUSH1 0x40 MLOAD DUP1 SWAP2 SUB SWAP1 LOG1 POP POP POP POP POP POP POP JUMP JUMPDEST PUSH2 0xC8C PUSH1 0x0 SWAP1 SLOAD SWAP1 PUSH2 0x100 EXP SWAP1 DIV PUSH20 0xFFFFFFFFFFFFFFFFFFFFFFFFFFFFFFFFFFFFFFFF AND DUP2 JUMP JUMPDEST PUSH1 0x0 DUP1 PUSH20 0xFFFFFFFFFFFFFFFFFFFFFFFFFFFFFFFFFFFFFFFF AND DUP3 PUSH20 0xFFFFFFFFFFFFFFFFFFFFFFFFFFFFFFFFFFFFFFFF AND SUB PUSH2 0x330F JUMPI PUSH1 0x40 MLOAD PUSH32 0x5963709B00000000000000000000000000000000000000000000000000000000 DUP2 MSTORE PUSH1 0x4 ADD PUSH1 0x40 MLOAD DUP1 SWAP2 SUB SWAP1 REVERT JUMPDEST PUSH2 0x107E PUSH1 0x0 DUP4 PUSH20 0xFFFFFFFFFFFFFFFFFFFFFFFFFFFFFFFFFFFFFFFF AND PUSH20 0xFFFFFFFFFFFFFFFFFFFFFFFFFFFFFFFFFFFFFFFF AND DUP2 MSTORE PUSH1 0x20 ADD SWAP1 DUP2 MSTORE PUSH1 0x20 ADD PUSH1 0x0 KECCAK256 SLOAD SWAP1 POP SWAP2 SWAP1 POP JUMP JUMPDEST PUSH1 0x60 PUSH2 0x3361 PUSH2 0x55EA JUMP JUMPDEST PUSH2 0x338B PUSH32 0xB309C40027C81D382C3B58D8DE24207A34B27E1DB369B1434E4A11311F154B5E CALLER PUSH2 0x387B JUMP JUMPDEST ISZERO DUP1 ISZERO PUSH2 0x339E JUMPI POP PUSH2 0x339C CALLER PUSH2 0x3F4C JUMP JUMPDEST ISZERO JUMPDEST ISZERO PUSH2 0x33D5 JUMPI PUSH1 0x40 MLOAD PUSH32 0x1798FEDB00000000000000000000000000000000000000000000000000000000 DUP2 MSTORE PUSH1 0x4 ADD PUSH1 0x40 MLOAD DUP1 SWAP2 SUB SWAP1 REVERT JUMPDEST PUSH1 0x0 DUP8 DUP8 SWAP1 POP PUSH8 0xFFFFFFFFFFFFFFFF DUP2 GT ISZERO PUSH2 0x33F4 JUMPI PUSH2 0x33F3 PUSH2 0x81B8 JUMP JUMPDEST JUMPDEST PUSH1 0x40 MLOAD SWAP1 DUP1 DUP3 MSTORE DUP1 PUSH1 0x20 MUL PUSH1 0x20 ADD DUP3 ADD PUSH1 0x40 MSTORE DUP1 ISZERO PUSH2 0x3422 JUMPI DUP2 PUSH1 0x20 ADD PUSH1 0x20 DUP3 MUL DUP1 CALLDATASIZE DUP4 CALLDATACOPY DUP1 DUP3 ADD SWAP2 POP POP SWAP1 POP JUMPDEST POP SWAP1 POP PUSH1 0x0 JUMPDEST DUP9 DUP9 SWAP1 POP DUP2 LT ISZERO PUSH2 0x3646 JUMPI PUSH2 0x34A5 DUP10 DUP10 DUP4 DUP2 DUP2 LT PUSH2 0x3449 JUMPI PUSH2 0x3448 PUSH2 0x94A2 JUMP JUMPDEST JUMPDEST SWAP1 POP PUSH1 0x20 MUL ADD PUSH1 0x20 DUP2 ADD SWAP1 PUSH2 0x345E SWAP2 SWAP1 PUSH2 0x8449 JUMP JUMPDEST DUP7 DUP7 DUP5 DUP2 DUP2 LT PUSH2 0x3471 JUMPI PUSH2 0x3470 PUSH2 0x94A2 JUMP JUMPDEST JUMPDEST SWAP1 POP PUSH1 0x20 MUL ADD PUSH1 0x20 DUP2 ADD SWAP1 PUSH2 0x3486 SWAP2 SWAP1 PUSH2 0x8449 JUMP JUMPDEST DUP10 DUP10 DUP6 DUP2 DUP2 LT PUSH2 0x3499 JUMPI PUSH2 0x3498 PUSH2 0x94A2 JUMP JUMPDEST JUMPDEST SWAP1 POP PUSH1 0x20 MUL ADD CALLDATALOAD PUSH2 0x5633 JUMP JUMPDEST DUP3 DUP3 DUP2 MLOAD DUP2 LT PUSH2 0x34B8 JUMPI PUSH2 0x34B7 PUSH2 0x94A2 JUMP JUMPDEST JUMPDEST PUSH1 0x20 MUL PUSH1 0x20 ADD ADD DUP2 DUP2 MSTORE POP POP PUSH1 0x0 PUSH20 0xFFFFFFFFFFFFFFFFFFFFFFFFFFFFFFFFFFFFFFFF AND PUSH2 0xC91 PUSH1 0x0 SWAP1 SLOAD SWAP1 PUSH2 0x100 EXP SWAP1 DIV PUSH20 0xFFFFFFFFFFFFFFFFFFFFFFFFFFFFFFFFFFFFFFFF AND PUSH20 0xFFFFFFFFFFFFFFFFFFFFFFFFFFFFFFFFFFFFFFFF AND EQ PUSH2 0x3633 JUMPI PUSH2 0xC91 PUSH1 0x0 SWAP1 SLOAD SWAP1 PUSH2 0x100 EXP SWAP1 DIV PUSH20 0xFFFFFFFFFFFFFFFFFFFFFFFFFFFFFFFFFFFFFFFF AND PUSH20 0xFFFFFFFFFFFFFFFFFFFFFFFFFFFFFFFFFFFFFFFF AND PUSH4 0x48A254B8 DUP4 DUP4 DUP2 MLOAD DUP2 LT PUSH2 0x356D JUMPI PUSH2 0x356C PUSH2 0x94A2 JUMP JUMPDEST JUMPDEST PUSH1 0x20 MUL PUSH1 0x20 ADD ADD MLOAD CALLER DUP13 DUP13 DUP7 DUP2 DUP2 LT PUSH2 0x3589 JUMPI PUSH2 0x3588 PUSH2 0x94A2 JUMP JUMPDEST JUMPDEST SWAP1 POP PUSH1 0x20 MUL ADD PUSH1 0x20 DUP2 ADD SWAP1 PUSH2 0x359E SWAP2 SWAP1 PUSH2 0x8449 JUMP JUMPDEST DUP10 DUP10 DUP8 DUP2 DUP2 LT PUSH2 0x35B1 JUMPI PUSH2 0x35B0 PUSH2 0x94A2 JUMP JUMPDEST JUMPDEST SWAP1 POP PUSH1 0x20 MUL ADD PUSH1 0x20 DUP2 ADD SWAP1 PUSH2 0x35C6 SWAP2 SWAP1 PUSH2 0x8449 JUMP JUMPDEST DUP13 DUP13 DUP9 DUP2 DUP2 LT PUSH2 0x35D9 JUMPI PUSH2 0x35D8 PUSH2 0x94A2 JUMP JUMPDEST JUMPDEST SWAP1 POP PUSH1 0x20 MUL ADD CALLDATALOAD PUSH1 0x40 MLOAD DUP7 PUSH4 0xFFFFFFFF AND PUSH1 0xE0 SHL DUP2 MSTORE PUSH1 0x4 ADD PUSH2 0x3600 SWAP6 SWAP5 SWAP4 SWAP3 SWAP2 SWAP1 PUSH2 0x9BC9 JUMP JUMPDEST PUSH1 0x0 PUSH1 0x40 MLOAD DUP1 DUP4 SUB DUP2 PUSH1 0x0 DUP8 DUP1 EXTCODESIZE ISZERO DUP1 ISZERO PUSH2 0x361A JUMPI PUSH1 0x0 DUP1 REVERT JUMPDEST POP GAS CALL ISZERO DUP1 ISZERO PUSH2 0x362E JUMPI RETURNDATASIZE PUSH1 0x0 DUP1 RETURNDATACOPY RETURNDATASIZE PUSH1 0x0 REVERT JUMPDEST POP POP POP POP JUMPDEST DUP1 DUP1 PUSH2 0x363E SWAP1 PUSH2 0x95E8 JUMP JUMPDEST SWAP2 POP POP PUSH2 0x3428 JUMP JUMPDEST POP DUP1 SWAP2 POP POP SWAP7 SWAP6 POP POP POP POP POP POP JUMP JUMPDEST PUSH2 0x365D PUSH2 0x55EA JUMP JUMPDEST PUSH2 0x3666 DUP3 PUSH2 0x4CBF JUMP JUMPDEST PUSH2 0x3670 DUP3 DUP3 PUSH2 0x25E7 JUMP JUMPDEST POP PUSH2 0x367C DUP3 PUSH1 0x0 PUSH2 0x6132 JUMP JUMPDEST POP PUSH2 0x368A PUSH2 0xC85 SLOAD DUP3 PUSH2 0x594D JUMP JUMPDEST PUSH2 0x369F PUSH2 0x3696 DUP4 PUSH2 0x28C1 JUMP JUMPDEST PUSH2 0xC85 SLOAD PUSH2 0x5B14 JUMP JUMPDEST PUSH2 0x36A7 PUSH2 0x5E18 JUMP JUMPDEST PUSH2 0x36B0 DUP2 PUSH2 0x5ECD JUMP JUMPDEST PUSH2 0x36BC PUSH2 0xC85 SLOAD PUSH2 0x5C53 JUMP JUMPDEST POP POP JUMP JUMPDEST PUSH2 0x36C8 PUSH2 0x5493 JUMP JUMPDEST PUSH32 0x496ED1E61EB69727F9659A8E859288DB4758FFB1F744D1C1424634F90A257F4 DUP2 PUSH1 0x40 MLOAD PUSH2 0x36F7 SWAP2 SWAP1 PUSH2 0x8361 JUMP JUMPDEST PUSH1 0x40 MLOAD DUP1 SWAP2 SUB SWAP1 LOG1 DUP1 PUSH2 0x2407 DUP2 SWAP1 SSTORE POP POP JUMP JUMPDEST PUSH1 0x1 PUSH2 0x3714 PUSH2 0x44D9 JUMP JUMPDEST PUSH2 0x371E SWAP2 SWAP1 PUSH2 0x9C1C JUMP JUMPDEST PUSH2 0xFFFF AND PUSH2 0xC8D SLOAD EQ DUP1 PUSH2 0x3735 JUMPI POP PUSH1 0x0 PUSH2 0xC8D SLOAD EQ JUMPDEST PUSH2 0x3774 JUMPI PUSH1 0x40 MLOAD PUSH32 0x8C379A000000000000000000000000000000000000000000000000000000000 DUP2 MSTORE PUSH1 0x4 ADD PUSH2 0x376B SWAP1 PUSH2 0x9C9E JUMP JUMPDEST PUSH1 0x40 MLOAD DUP1 SWAP2 SUB SWAP1 REVERT JUMPDEST PUSH1 0x1 CHAINID SUB PUSH2 0x3839 JUMPI PUSH1 0x0 PUSH20 0xE79B93F8E22676774F2A8DAD469175EBD00029FA SWAP1 POP DUP1 PUSH20 0xFFFFFFFFFFFFFFFFFFFFFFFFFFFFFFFFFFFFFFFF AND PUSH4 0xED9674BD PUSH1 0x40 MLOAD DUP2 PUSH4 0xFFFFFFFF AND PUSH1 0xE0 SHL DUP2 MSTORE PUSH1 0x4 ADD PUSH1 0x0 PUSH1 0x40 MLOAD DUP1 DUP4 SUB DUP2 PUSH1 0x0 DUP8 DUP1 EXTCODESIZE ISZERO DUP1 ISZERO PUSH2 0x37DD JUMPI PUSH1 0x0 DUP1 REVERT JUMPDEST POP GAS CALL ISZERO DUP1 ISZERO PUSH2 0x37F1 JUMPI RETURNDATASIZE PUSH1 0x0 DUP1 RETURNDATACOPY RETURNDATASIZE PUSH1 0x0 REVERT JUMPDEST POP POP POP POP DUP1 PUSH2 0xC83 PUSH1 0x0 PUSH2 0x100 EXP DUP2 SLOAD DUP2 PUSH20 0xFFFFFFFFFFFFFFFFFFFFFFFFFFFFFFFFFFFFFFFF MUL NOT AND SWAP1 DUP4 PUSH20 0xFFFFFFFFFFFFFFFFFFFFFFFFFFFFFFFFFFFFFFFF AND MUL OR SWAP1 SSTORE POP POP JUMPDEST PUSH2 0x3841 PUSH2 0x44D9 JUMP JUMPDEST PUSH2 0xFFFF AND PUSH2 0xC8D DUP2 SWAP1 SSTORE POP POP POP JUMP JUMPDEST PUSH1 0x0 PUSH2 0x2BDA PUSH1 0x0 SWAP1 SLOAD SWAP1 PUSH2 0x100 EXP SWAP1 DIV PUSH20 0xFFFFFFFFFFFFFFFFFFFFFFFFFFFFFFFFFFFFFFFF AND SWAP1 POP SWAP1 JUMP JUMPDEST PUSH1 0x0 PUSH1 0x97 PUSH1 0x0 DUP5 DUP2 MSTORE PUSH1 0x20 ADD SWAP1 DUP2 MSTORE PUSH1 0x20 ADD PUSH1 0x0 KECCAK256 PUSH1 0x0 ADD PUSH1 0x0 DUP4 PUSH20 0xFFFFFFFFFFFFFFFFFFFFFFFFFFFFFFFFFFFFFFFF AND PUSH20 0xFFFFFFFFFFFFFFFFFFFFFFFFFFFFFFFFFFFFFFFF AND DUP2 MSTORE PUSH1 0x20 ADD SWAP1 DUP2 MSTORE PUSH1 0x20 ADD PUSH1 0x0 KECCAK256 PUSH1 0x0 SWAP1 SLOAD SWAP1 PUSH2 0x100 EXP SWAP1 DIV PUSH1 0xFF AND SWAP1 POP SWAP3 SWAP2 POP POP JUMP JUMPDEST PUSH1 0x0 PUSH2 0x38F1 DUP3 PUSH2 0x4D13 JUMP JUMPDEST PUSH32 0xFFFFFFFFFFFFFFFFFFFFFFFFFFFFFFFFFFFFFFFFFFFFFFFFFFFFFFFFFFFFFFFF PUSH2 0xC84 SLOAD SUB PUSH2 0x3926 JUMPI PUSH2 0xC85 SLOAD SWAP1 POP PUSH2 0x39EF JUMP JUMPDEST PUSH1 0x0 TIMESTAMP PUSH2 0x3932 DUP5 PUSH2 0x2866 JUMP JUMPDEST PUSH2 0x393C SWAP2 SWAP1 PUSH2 0x9297 JUMP JUMPDEST SWAP1 POP PUSH2 0xC84 SLOAD PUSH2 0x27F1 SLOAD DUP3 PUSH2 0x3951 SWAP2 SWAP1 PUSH2 0x946E JUMP JUMPDEST LT PUSH2 0x3961 JUMPI PUSH2 0xC85 SLOAD SWAP2 POP PUSH2 0x3981 JUMP JUMPDEST PUSH2 0xC84 SLOAD DUP2 PUSH2 0xC85 SLOAD PUSH2 0x3974 SWAP2 SWAP1 PUSH2 0x96EB JUMP JUMPDEST PUSH2 0x397E SWAP2 SWAP1 PUSH2 0x975C JUMP JUMPDEST SWAP2 POP JUMPDEST PUSH1 0x0 PUSH2 0x27F1 SLOAD EQ DUP1 PUSH2 0x39A3 JUMPI POP PUSH2 0xC84 SLOAD PUSH2 0x27F1 SLOAD DUP3 PUSH2 0x39A1 SWAP2 SWAP1 PUSH2 0x946E JUMP JUMPDEST LT JUMPDEST ISZERO PUSH2 0x39ED JUMPI PUSH1 0x0 PUSH2 0x2710 PUSH2 0x27F0 SLOAD PUSH2 0xC85 SLOAD PUSH2 0x39BF SWAP2 SWAP1 PUSH2 0x96EB JUMP JUMPDEST PUSH2 0x39C9 SWAP2 SWAP1 PUSH2 0x975C JUMP JUMPDEST SWAP1 POP DUP1 DUP4 GT ISZERO PUSH2 0x39E6 JUMPI DUP1 DUP4 PUSH2 0x39DF SWAP2 SWAP1 PUSH2 0x9297 JUMP JUMPDEST SWAP3 POP PUSH2 0x39EB JUMP JUMPDEST PUSH1 0x0 SWAP3 POP JUMPDEST POP JUMPDEST POP JUMPDEST SWAP2 SWAP1 POP JUMP JUMPDEST PUSH2 0x1077 SLOAD DUP2 JUMP JUMPDEST PUSH1 0x60 PUSH1 0x0 PUSH2 0x1464 DUP1 SLOAD PUSH2 0x3A0D SWAP1 PUSH2 0x92FA JUMP JUMPDEST SWAP1 POP SUB PUSH2 0x3AB2 JUMPI PUSH2 0xC83 PUSH1 0x0 SWAP1 SLOAD SWAP1 PUSH2 0x100 EXP SWAP1 DIV PUSH20 0xFFFFFFFFFFFFFFFFFFFFFFFFFFFFFFFFFFFFFFFF AND PUSH20 0xFFFFFFFFFFFFFFFFFFFFFFFFFFFFFFFFFFFFFFFF AND PUSH4 0xCEC41052 PUSH1 0x40 MLOAD DUP2 PUSH4 0xFFFFFFFF AND PUSH1 0xE0 SHL DUP2 MSTORE PUSH1 0x4 ADD PUSH1 0x0 PUSH1 0x40 MLOAD DUP1 DUP4 SUB DUP2 DUP7 GAS STATICCALL ISZERO DUP1 ISZERO PUSH2 0x3A82 JUMPI RETURNDATASIZE PUSH1 0x0 DUP1 RETURNDATACOPY RETURNDATASIZE PUSH1 0x0 REVERT JUMPDEST POP POP POP POP PUSH1 0x40 MLOAD RETURNDATASIZE PUSH1 0x0 DUP3 RETURNDATACOPY RETURNDATASIZE PUSH1 0x1F NOT PUSH1 0x1F DUP3 ADD AND DUP3 ADD DUP1 PUSH1 0x40 MSTORE POP DUP2 ADD SWAP1 PUSH2 0x3AAB SWAP2 SWAP1 PUSH2 0x9D5F JUMP JUMPDEST SWAP1 POP PUSH2 0x3B41 JUMP JUMPDEST PUSH2 0x1464 DUP1 SLOAD PUSH2 0x3AC0 SWAP1 PUSH2 0x92FA JUMP JUMPDEST DUP1 PUSH1 0x1F ADD PUSH1 0x20 DUP1 SWAP2 DIV MUL PUSH1 0x20 ADD PUSH1 0x40 MLOAD SWAP1 DUP2 ADD PUSH1 0x40 MSTORE DUP1 SWAP3 SWAP2 SWAP1 DUP2 DUP2 MSTORE PUSH1 0x20 ADD DUP3 DUP1 SLOAD PUSH2 0x3AEC SWAP1 PUSH2 0x92FA JUMP JUMPDEST DUP1 ISZERO PUSH2 0x3B39 JUMPI DUP1 PUSH1 0x1F LT PUSH2 0x3B0E JUMPI PUSH2 0x100 DUP1 DUP4 SLOAD DIV MUL DUP4 MSTORE SWAP2 PUSH1 0x20 ADD SWAP2 PUSH2 0x3B39 JUMP JUMPDEST DUP3 ADD SWAP2 SWAP1 PUSH1 0x0 MSTORE PUSH1 0x20 PUSH1 0x0 KECCAK256 SWAP1 JUMPDEST DUP2 SLOAD DUP2 MSTORE SWAP1 PUSH1 0x1 ADD SWAP1 PUSH1 0x20 ADD DUP1 DUP4 GT PUSH2 0x3B1C JUMPI DUP3 SWAP1 SUB PUSH1 0x1F AND DUP3 ADD SWAP2 JUMPDEST POP POP POP POP POP SWAP1 POP JUMPDEST SWAP1 JUMP JUMPDEST PUSH2 0x4B1 PUSH1 0x0 SWAP1 SLOAD SWAP1 PUSH2 0x100 EXP SWAP1 DIV PUSH20 0xFFFFFFFFFFFFFFFFFFFFFFFFFFFFFFFFFFFFFFFF AND DUP2 JUMP JUMPDEST PUSH1 0x0 DUP1 SHL DUP2 JUMP JUMPDEST PUSH2 0x3B7A PUSH2 0x68B3 JUMP JUMPDEST CALLER PUSH20 0xFFFFFFFFFFFFFFFFFFFFFFFFFFFFFFFFFFFFFFFF AND DUP3 PUSH20 0xFFFFFFFFFFFFFFFFFFFFFFFFFFFFFFFFFFFFFFFF AND SUB PUSH2 0x3BDF JUMPI PUSH1 0x40 MLOAD PUSH32 0xF13228CA00000000000000000000000000000000000000000000000000000000 DUP2 MSTORE PUSH1 0x4 ADD PUSH1 0x40 MLOAD DUP1 SWAP2 SUB SWAP1 REVERT JUMPDEST DUP1 PUSH2 0x107A PUSH1 0x0 CALLER PUSH20 0xFFFFFFFFFFFFFFFFFFFFFFFFFFFFFFFFFFFFFFFF AND PUSH20 0xFFFFFFFFFFFFFFFFFFFFFFFFFFFFFFFFFFFFFFFF AND DUP2 MSTORE PUSH1 0x20 ADD SWAP1 DUP2 MSTORE PUSH1 0x20 ADD PUSH1 0x0 KECCAK256 PUSH1 0x0 DUP5 PUSH20 0xFFFFFFFFFFFFFFFFFFFFFFFFFFFFFFFFFFFFFFFF AND PUSH20 0xFFFFFFFFFFFFFFFFFFFFFFFFFFFFFFFFFFFFFFFF AND DUP2 MSTORE PUSH1 0x20 ADD SWAP1 DUP2 MSTORE PUSH1 0x20 ADD PUSH1 0x0 KECCAK256 PUSH1 0x0 PUSH2 0x100 EXP DUP2 SLOAD DUP2 PUSH1 0xFF MUL NOT AND SWAP1 DUP4 ISZERO ISZERO MUL OR SWAP1 SSTORE POP DUP2 PUSH20 0xFFFFFFFFFFFFFFFFFFFFFFFFFFFFFFFFFFFFFFFF AND CALLER PUSH20 0xFFFFFFFFFFFFFFFFFFFFFFFFFFFFFFFFFFFFFFFF AND PUSH32 0x17307EAB39AB6107E8899845AD3D59BD9653F200F220920489CA2B5937696C31 DUP4 PUSH1 0x40 MLOAD PUSH2 0x3CD1 SWAP2 SWAP1 PUSH2 0x7F63 JUMP JUMPDEST PUSH1 0x40 MLOAD DUP1 SWAP2 SUB SWAP1 LOG3 POP POP JUMP JUMPDEST PUSH2 0x3CE5 PUSH2 0x5493 JUMP JUMPDEST PUSH2 0x3CEE DUP2 PUSH2 0x6907 JUMP JUMPDEST PUSH1 0x0 PUSH2 0xC85 SLOAD SWAP1 POP PUSH1 0x0 PUSH2 0x4B1 PUSH1 0x0 SWAP1 SLOAD SWAP1 PUSH2 0x100 EXP SWAP1 DIV PUSH20 0xFFFFFFFFFFFFFFFFFFFFFFFFFFFFFFFFFFFFFFFF AND SWAP1 POP DUP4 PUSH2 0xC85 DUP2 SWAP1 SSTORE POP DUP3 PUSH2 0x4B1 PUSH1 0x0 PUSH2 0x100 EXP DUP2 SLOAD DUP2 PUSH20 0xFFFFFFFFFFFFFFFFFFFFFFFFFFFFFFFFFFFFFFFF MUL NOT AND SWAP1 DUP4 PUSH20 0xFFFFFFFFFFFFFFFFFFFFFFFFFFFFFFFFFFFFFFFF AND MUL OR SWAP1 SSTORE POP PUSH32 0x3615065CCF48367AC483AC86701248E2E5FF55BDD9BE845007D34A3B68D719D4 DUP3 PUSH2 0xC85 SLOAD DUP4 PUSH2 0x4B1 PUSH1 0x0 SWAP1 SLOAD SWAP1 PUSH2 0x100 EXP SWAP1 DIV PUSH20 0xFFFFFFFFFFFFFFFFFFFFFFFFFFFFFFFFFFFFFFFF AND PUSH1 0x40 MLOAD PUSH2 0x3DC3 SWAP5 SWAP4 SWAP3 SWAP2 SWAP1 PUSH2 0x9DA8 JUMP JUMPDEST PUSH1 0x40 MLOAD DUP1 SWAP2 SUB SWAP1 LOG1 POP POP POP POP JUMP JUMPDEST PUSH2 0x27F1 SLOAD DUP2 JUMP JUMPDEST PUSH1 0x0 DUP1 TIMESTAMP PUSH2 0x107B PUSH1 0x0 DUP6 DUP2 MSTORE PUSH1 0x20 ADD SWAP1 DUP2 MSTORE PUSH1 0x20 ADD PUSH1 0x0 KECCAK256 PUSH1 0x1 ADD SLOAD GT SWAP1 POP PUSH1 0x0 PUSH20 0xFFFFFFFFFFFFFFFFFFFFFFFFFFFFFFFFFFFFFFFF AND PUSH2 0xC8B PUSH1 0x0 SWAP1 SLOAD SWAP1 PUSH2 0x100 EXP SWAP1 DIV PUSH20 0xFFFFFFFFFFFFFFFFFFFFFFFFFFFFFFFFFFFFFFFF AND PUSH20 0xFFFFFFFFFFFFFFFFFFFFFFFFFFFFFFFFFFFFFFFF AND EQ PUSH2 0x3F43 JUMPI PUSH2 0xC8B PUSH1 0x0 SWAP1 SLOAD SWAP1 PUSH2 0x100 EXP SWAP1 DIV PUSH20 0xFFFFFFFFFFFFFFFFFFFFFFFFFFFFFFFFFFFFFFFF AND PUSH20 0xFFFFFFFFFFFFFFFFFFFFFFFFFFFFFFFFFFFFFFFF AND PUSH4 0x427EDE38 ADDRESS CALLER DUP7 PUSH2 0x107B PUSH1 0x0 DUP10 DUP2 MSTORE PUSH1 0x20 ADD SWAP1 DUP2 MSTORE PUSH1 0x20 ADD PUSH1 0x0 KECCAK256 PUSH1 0x1 ADD SLOAD PUSH2 0x1076 PUSH1 0x0 DUP11 DUP2 MSTORE PUSH1 0x20 ADD SWAP1 DUP2 MSTORE PUSH1 0x20 ADD PUSH1 0x0 KECCAK256 PUSH1 0x0 SWAP1 SLOAD SWAP1 PUSH2 0x100 EXP SWAP1 DIV PUSH20 0xFFFFFFFFFFFFFFFFFFFFFFFFFFFFFFFFFFFFFFFF AND DUP8 PUSH1 0x40 MLOAD DUP8 PUSH4 0xFFFFFFFF AND PUSH1 0xE0 SHL DUP2 MSTORE PUSH1 0x4 ADD PUSH2 0x3EFF SWAP7 SWAP6 SWAP5 SWAP4 SWAP3 SWAP2 SWAP1 PUSH2 0x9DED JUMP JUMPDEST PUSH1 0x20 PUSH1 0x40 MLOAD DUP1 DUP4 SUB DUP2 DUP7 GAS STATICCALL ISZERO DUP1 ISZERO PUSH2 0x3F1C JUMPI RETURNDATASIZE PUSH1 0x0 DUP1 RETURNDATACOPY RETURNDATASIZE PUSH1 0x0 REVERT JUMPDEST POP POP POP POP PUSH1 0x40 MLOAD RETURNDATASIZE PUSH1 0x1F NOT PUSH1 0x1F DUP3 ADD AND DUP3 ADD DUP1 PUSH1 0x40 MSTORE POP DUP2 ADD SWAP1 PUSH2 0x3F40 SWAP2 SWAP1 PUSH2 0x983E JUMP JUMPDEST SWAP1 POP JUMPDEST DUP1 SWAP2 POP POP SWAP2 SWAP1 POP JUMP JUMPDEST PUSH1 0x0 PUSH2 0x3F78 PUSH32 0xB89CDD26CDDD51301940BF2715F765B626B8A5A9E2681AC62DC83CC2DB2530C0 DUP4 PUSH2 0x387B JUMP JUMPDEST SWAP1 POP SWAP2 SWAP1 POP JUMP JUMPDEST PUSH2 0x3F88 DUP3 PUSH2 0x4CBF JUMP JUMPDEST PUSH2 0x3F92 DUP3 CALLER PUSH2 0x5014 JUMP JUMPDEST ISZERO DUP1 ISZERO PUSH2 0x3FA5 JUMPI POP PUSH2 0x3FA3 CALLER PUSH2 0x3F4C JUMP JUMPDEST ISZERO JUMPDEST ISZERO PUSH2 0x3FDC JUMPI PUSH1 0x40 MLOAD PUSH32 0x866C2FA700000000000000000000000000000000000000000000000000000000 DUP2 MSTORE PUSH1 0x4 ADD PUSH1 0x40 MLOAD DUP1 SWAP2 SUB SWAP1 REVERT JUMPDEST PUSH2 0x3FE6 DUP3 DUP3 PUSH2 0x69EC JUMP JUMPDEST POP POP JUMP JUMPDEST PUSH2 0xC91 PUSH1 0x0 SWAP1 SLOAD SWAP1 PUSH2 0x100 EXP SWAP1 DIV PUSH20 0xFFFFFFFFFFFFFFFFFFFFFFFFFFFFFFFFFFFFFFFF AND DUP2 JUMP JUMPDEST PUSH1 0x0 PUSH2 0x401C DUP4 PUSH2 0x4CBF JUMP JUMPDEST PUSH1 0x0 PUSH2 0x4027 DUP5 PUSH2 0x2866 JUMP JUMPDEST SWAP1 POP TIMESTAMP DUP2 LT ISZERO PUSH2 0x403B JUMPI PUSH1 0x0 SWAP2 POP POP PUSH2 0x407C JUMP JUMPDEST PUSH1 0x0 DUP1 DUP5 SUB PUSH2 0x4057 JUMPI TIMESTAMP DUP3 PUSH2 0x4050 SWAP2 SWAP1 PUSH2 0x9297 JUMP JUMPDEST SWAP1 POP PUSH2 0x405B JUMP JUMPDEST DUP4 SWAP1 POP JUMPDEST PUSH2 0x2710 PUSH2 0x2407 SLOAD DUP3 PUSH2 0x406D SWAP2 SWAP1 PUSH2 0x96EB JUMP JUMPDEST PUSH2 0x4077 SWAP2 SWAP1 PUSH2 0x975C JUMP JUMPDEST SWAP3 POP POP POP JUMPDEST SWAP3 SWAP2 POP POP JUMP JUMPDEST PUSH2 0x408D DUP5 DUP5 DUP5 PUSH2 0x19C9 JUMP JUMPDEST PUSH2 0x4099 DUP5 DUP5 DUP5 DUP5 PUSH2 0x6AF8 JUMP JUMPDEST PUSH2 0x40CF JUMPI PUSH1 0x40 MLOAD PUSH32 0x3F8EA15000000000000000000000000000000000000000000000000000000000 DUP2 MSTORE PUSH1 0x4 ADD PUSH1 0x40 MLOAD DUP1 SWAP2 SUB SWAP1 REVERT JUMPDEST POP POP POP POP JUMP JUMPDEST PUSH2 0x2022 PUSH1 0x20 MSTORE DUP1 PUSH1 0x0 MSTORE PUSH1 0x40 PUSH1 0x0 KECCAK256 PUSH1 0x0 SWAP2 POP SWAP1 POP SLOAD DUP2 JUMP JUMPDEST PUSH1 0x60 DUP1 PUSH1 0x60 PUSH1 0x0 PUSH2 0x4114 ADDRESS PUSH20 0xFFFFFFFFFFFFFFFFFFFFFFFFFFFFFFFFFFFFFFFF AND PUSH2 0x6C00 JUMP JUMPDEST SWAP1 POP PUSH1 0x60 PUSH1 0x0 DUP7 EQ PUSH2 0x4130 JUMPI PUSH2 0x4129 DUP7 PUSH2 0x6F0B JUMP JUMPDEST SWAP3 POP PUSH2 0x4143 JUMP JUMPDEST PUSH1 0x40 MLOAD DUP1 PUSH1 0x20 ADD PUSH1 0x40 MSTORE DUP1 PUSH1 0x0 DUP2 MSTORE POP SWAP3 POP JUMPDEST PUSH1 0x0 PUSH20 0xFFFFFFFFFFFFFFFFFFFFFFFFFFFFFFFFFFFFFFFF AND PUSH2 0xC8C PUSH1 0x0 SWAP1 SLOAD SWAP1 PUSH2 0x100 EXP SWAP1 DIV PUSH20 0xFFFFFFFFFFFFFFFFFFFFFFFFFFFFFFFFFFFFFFFF AND PUSH20 0xFFFFFFFFFFFFFFFFFFFFFFFFFFFFFFFFFFFFFFFF AND EQ PUSH2 0x4265 JUMPI PUSH1 0x0 PUSH2 0x41A5 DUP8 PUSH2 0x2866 JUMP JUMPDEST SWAP1 POP PUSH2 0xC8C PUSH1 0x0 SWAP1 SLOAD SWAP1 PUSH2 0x100 EXP SWAP1 DIV PUSH20 0xFFFFFFFFFFFFFFFFFFFFFFFFFFFFFFFFFFFFFFFF AND PUSH20 0xFFFFFFFFFFFFFFFFFFFFFFFFFFFFFFFFFFFFFFFF AND PUSH4 0x988B93AD ADDRESS CALLER PUSH2 0x41F1 DUP12 PUSH2 0x28C1 JUMP JUMPDEST DUP12 DUP7 PUSH1 0x40 MLOAD DUP7 PUSH4 0xFFFFFFFF AND PUSH1 0xE0 SHL DUP2 MSTORE PUSH1 0x4 ADD PUSH2 0x4213 SWAP6 SWAP5 SWAP4 SWAP3 SWAP2 SWAP1 PUSH2 0x9E4E JUMP JUMPDEST PUSH1 0x0 PUSH1 0x40 MLOAD DUP1 DUP4 SUB DUP2 DUP7 GAS STATICCALL ISZERO DUP1 ISZERO PUSH2 0x4230 JUMPI RETURNDATASIZE PUSH1 0x0 DUP1 RETURNDATACOPY RETURNDATASIZE PUSH1 0x0 REVERT JUMPDEST POP POP POP POP PUSH1 0x40 MLOAD RETURNDATASIZE PUSH1 0x0 DUP3 RETURNDATACOPY RETURNDATASIZE PUSH1 0x1F NOT PUSH1 0x1F DUP3 ADD AND DUP3 ADD DUP1 PUSH1 0x40 MSTORE POP DUP2 ADD SWAP1 PUSH2 0x4259 SWAP2 SWAP1 PUSH2 0x9D5F JUMP JUMPDEST SWAP6 POP POP POP POP POP POP PUSH2 0x4423 JUMP JUMPDEST PUSH1 0x0 PUSH2 0x1465 DUP1 SLOAD PUSH2 0x4275 SWAP1 PUSH2 0x92FA JUMP JUMPDEST SWAP1 POP SUB PUSH2 0x4352 JUMPI PUSH2 0xC83 PUSH1 0x0 SWAP1 SLOAD SWAP1 PUSH2 0x100 EXP SWAP1 DIV PUSH20 0xFFFFFFFFFFFFFFFFFFFFFFFFFFFFFFFFFFFFFFFF AND PUSH20 0xFFFFFFFFFFFFFFFFFFFFFFFFFFFFFFFFFFFFFFFF AND PUSH4 0xA998E9FB PUSH1 0x40 MLOAD DUP2 PUSH4 0xFFFFFFFF AND PUSH1 0xE0 SHL DUP2 MSTORE PUSH1 0x4 ADD PUSH1 0x0 PUSH1 0x40 MLOAD DUP1 DUP4 SUB DUP2 DUP7 GAS STATICCALL ISZERO DUP1 ISZERO PUSH2 0x42EA JUMPI RETURNDATASIZE PUSH1 0x0 DUP1 RETURNDATACOPY RETURNDATASIZE PUSH1 0x0 REVERT JUMPDEST POP POP POP POP PUSH1 0x40 MLOAD RETURNDATASIZE PUSH1 0x0 DUP3 RETURNDATACOPY RETURNDATASIZE PUSH1 0x1F NOT PUSH1 0x1F DUP3 ADD AND DUP3 ADD DUP1 PUSH1 0x40 MSTORE POP DUP2 ADD SWAP1 PUSH2 0x4313 SWAP2 SWAP1 PUSH2 0x9D5F JUMP JUMPDEST SWAP4 POP PUSH1 0x40 MLOAD DUP1 PUSH1 0x40 ADD PUSH1 0x40 MSTORE DUP1 PUSH1 0x1 DUP2 MSTORE PUSH1 0x20 ADD PUSH32 0x2F00000000000000000000000000000000000000000000000000000000000000 DUP2 MSTORE POP SWAP1 POP PUSH2 0x4405 JUMP JUMPDEST PUSH2 0x1465 DUP1 SLOAD PUSH2 0x4360 SWAP1 PUSH2 0x92FA JUMP JUMPDEST DUP1 PUSH1 0x1F ADD PUSH1 0x20 DUP1 SWAP2 DIV MUL PUSH1 0x20 ADD PUSH1 0x40 MLOAD SWAP1 DUP2 ADD PUSH1 0x40 MSTORE DUP1 SWAP3 SWAP2 SWAP1 DUP2 DUP2 MSTORE PUSH1 0x20 ADD DUP3 DUP1 SLOAD PUSH2 0x438C SWAP1 PUSH2 0x92FA JUMP JUMPDEST DUP1 ISZERO PUSH2 0x43D9 JUMPI DUP1 PUSH1 0x1F LT PUSH2 0x43AE JUMPI PUSH2 0x100 DUP1 DUP4 SLOAD DIV MUL DUP4 MSTORE SWAP2 PUSH1 0x20 ADD SWAP2 PUSH2 0x43D9 JUMP JUMPDEST DUP3 ADD SWAP2 SWAP1 PUSH1 0x0 MSTORE PUSH1 0x20 PUSH1 0x0 KECCAK256 SWAP1 JUMPDEST DUP2 SLOAD DUP2 MSTORE SWAP1 PUSH1 0x1 ADD SWAP1 PUSH1 0x20 ADD DUP1 DUP4 GT PUSH2 0x43BC JUMPI DUP3 SWAP1 SUB PUSH1 0x1F AND DUP3 ADD SWAP2 JUMPDEST POP POP POP POP POP SWAP4 POP PUSH1 0x40 MLOAD DUP1 PUSH1 0x20 ADD PUSH1 0x40 MSTORE DUP1 PUSH1 0x0 DUP2 MSTORE POP SWAP1 POP PUSH1 0x40 MLOAD DUP1 PUSH1 0x20 ADD PUSH1 0x40 MSTORE DUP1 PUSH1 0x0 DUP2 MSTORE POP SWAP2 POP JUMPDEST PUSH2 0x441C DUP3 DUP3 DUP6 DUP8 PUSH2 0x709A SWAP1 SWAP4 SWAP3 SWAP2 SWAP1 PUSH4 0xFFFFFFFF AND JUMP JUMPDEST SWAP5 POP POP POP POP POP JUMPDEST SWAP2 SWAP1 POP JUMP JUMPDEST PUSH2 0xC90 PUSH1 0x0 SWAP1 SLOAD SWAP1 PUSH2 0x100 EXP SWAP1 DIV PUSH20 0xFFFFFFFFFFFFFFFFFFFFFFFFFFFFFFFFFFFFFFFF AND DUP2 JUMP JUMPDEST PUSH2 0x4457 PUSH2 0x5493 JUMP JUMPDEST DUP6 DUP6 PUSH2 0x1463 SWAP2 DUP3 PUSH2 0x4469 SWAP3 SWAP2 SWAP1 PUSH2 0xA04E JUMP JUMPDEST POP DUP4 DUP4 PUSH2 0x1464 SWAP2 DUP3 PUSH2 0x447C SWAP3 SWAP2 SWAP1 PUSH2 0xA04E JUMP JUMPDEST POP DUP2 DUP2 PUSH2 0x1465 SWAP2 DUP3 PUSH2 0x448F SWAP3 SWAP2 SWAP1 PUSH2 0xA04E JUMP JUMPDEST POP PUSH32 0x1E6D6A19E45AE156DCF4155BC83CF8F59E98D536000998F0E95F4CD330ECFB3E PUSH2 0x1463 PUSH2 0x1464 PUSH2 0x1465 PUSH1 0x40 MLOAD PUSH2 0x44C9 SWAP4 SWAP3 SWAP2 SWAP1 PUSH2 0xA1A2 JUMP JUMPDEST PUSH1 0x40 MLOAD DUP1 SWAP2 SUB SWAP1 LOG1 POP POP POP POP POP POP JUMP JUMPDEST PUSH1 0x0 PUSH1 0xD SWAP1 POP SWAP1 JUMP JUMPDEST PUSH2 0x44EA PUSH2 0x5493 JUMP JUMPDEST PUSH2 0x4514 PUSH32 0xB89CDD26CDDD51301940BF2715F765B626B8A5A9E2681AC62DC83CC2DB2530C0 DUP3 PUSH2 0x1B7E JUMP JUMPDEST DUP1 PUSH20 0xFFFFFFFFFFFFFFFFFFFFFFFFFFFFFFFFFFFFFFFF AND PUSH32 0x91D5C045D5BD98BF59A379B259EBCA05B93BF79AF1845FDF87E3172385D4C7F7 PUSH1 0x40 MLOAD PUSH1 0x40 MLOAD DUP1 SWAP2 SUB SWAP1 LOG2 POP JUMP JUMPDEST PUSH2 0x4563 DUP2 PUSH2 0x4CBF JUMP JUMPDEST PUSH2 0x456C DUP2 PUSH2 0x4D13 JUMP JUMPDEST PUSH2 0x4575 DUP2 PUSH2 0x4D55 JUMP JUMPDEST PUSH1 0x0 PUSH2 0x4580 DUP3 PUSH2 0x38E6 JUMP JUMPDEST SWAP1 POP PUSH2 0x458C DUP3 DUP3 PUSH2 0x6380 JUMP JUMPDEST POP POP JUMP JUMPDEST PUSH1 0x0 PUSH2 0xC8E SLOAD SWAP1 POP SWAP1 JUMP JUMPDEST PUSH2 0x45A4 DUP3 PUSH2 0x1A36 JUMP JUMPDEST PUSH2 0x45AD DUP2 PUSH2 0x54F5 JUMP JUMPDEST PUSH2 0x45B7 DUP4 DUP4 PUSH2 0x6031 JUMP JUMPDEST POP POP POP JUMP JUMPDEST PUSH2 0x45C4 PUSH2 0x55EA JUMP JUMPDEST PUSH2 0x45CD DUP5 PUSH2 0x4CBF JUMP JUMPDEST PUSH2 0x45D8 DUP5 PUSH1 0x0 PUSH2 0x6132 JUMP JUMPDEST POP PUSH1 0x0 PUSH2 0x4632 PUSH2 0x45E7 DUP7 PUSH2 0x28C1 JUMP JUMPDEST DUP6 DUP6 DUP6 DUP1 DUP1 PUSH1 0x1F ADD PUSH1 0x20 DUP1 SWAP2 DIV MUL PUSH1 0x20 ADD PUSH1 0x40 MLOAD SWAP1 DUP2 ADD PUSH1 0x40 MSTORE DUP1 SWAP4 SWAP3 SWAP2 SWAP1 DUP2 DUP2 MSTORE PUSH1 0x20 ADD DUP4 DUP4 DUP1 DUP3 DUP5 CALLDATACOPY PUSH1 0x0 DUP2 DUP5 ADD MSTORE PUSH1 0x1F NOT PUSH1 0x1F DUP3 ADD AND SWAP1 POP DUP1 DUP4 ADD SWAP3 POP POP POP POP POP POP POP PUSH2 0x1693 JUMP JUMPDEST SWAP1 POP PUSH1 0x0 PUSH20 0xFFFFFFFFFFFFFFFFFFFFFFFFFFFFFFFFFFFFFFFF AND PUSH2 0x4B1 PUSH1 0x0 SWAP1 SLOAD SWAP1 PUSH2 0x100 EXP SWAP1 DIV PUSH20 0xFFFFFFFFFFFFFFFFFFFFFFFFFFFFFFFFFFFFFFFF AND PUSH20 0xFFFFFFFFFFFFFFFFFFFFFFFFFFFFFFFFFFFFFFFF AND EQ PUSH2 0x4696 JUMPI PUSH2 0x4695 DUP7 DUP3 PUSH2 0x590F JUMP JUMPDEST JUMPDEST PUSH2 0x46A0 DUP2 DUP6 PUSH2 0x594D JUMP JUMPDEST PUSH2 0x46AA CALLER DUP3 PUSH2 0x5B14 JUMP JUMPDEST PUSH2 0x46B4 DUP6 DUP3 PUSH2 0x579A JUMP JUMPDEST PUSH2 0x46BC PUSH2 0x5E18 JUMP JUMPDEST PUSH2 0x46C5 DUP5 PUSH2 0x5ECD JUMP JUMPDEST PUSH2 0x46CE DUP2 PUSH2 0x5C53 JUMP JUMPDEST POP POP POP POP POP POP JUMP JUMPDEST PUSH2 0x46DE PUSH2 0x5493 JUMP JUMPDEST PUSH1 0x0 DUP1 PUSH20 0xFFFFFFFFFFFFFFFFFFFFFFFFFFFFFFFFFFFFFFFF AND DUP5 PUSH20 0xFFFFFFFFFFFFFFFFFFFFFFFFFFFFFFFFFFFFFFFF AND SUB PUSH2 0x471B JUMPI SELFBALANCE SWAP1 POP PUSH2 0x4798 JUMP JUMPDEST DUP4 PUSH20 0xFFFFFFFFFFFFFFFFFFFFFFFFFFFFFFFFFFFFFFFF AND PUSH4 0x70A08231 ADDRESS PUSH1 0x40 MLOAD DUP3 PUSH4 0xFFFFFFFF AND PUSH1 0xE0 SHL DUP2 MSTORE PUSH1 0x4 ADD PUSH2 0x4754 SWAP2 SWAP1 PUSH2 0x8127 JUMP JUMPDEST PUSH1 0x20 PUSH1 0x40 MLOAD DUP1 DUP4 SUB DUP2 DUP7 GAS STATICCALL ISZERO DUP1 ISZERO PUSH2 0x4771 JUMPI RETURNDATASIZE PUSH1 0x0 DUP1 RETURNDATACOPY RETURNDATASIZE PUSH1 0x0 REVERT JUMPDEST POP POP POP POP PUSH1 0x40 MLOAD RETURNDATASIZE PUSH1 0x1F NOT PUSH1 0x1F DUP3 ADD AND DUP3 ADD DUP1 PUSH1 0x40 MSTORE POP DUP2 ADD SWAP1 PUSH2 0x4795 SWAP2 SWAP1 PUSH2 0x93E1 JUMP JUMPDEST SWAP1 POP JUMPDEST PUSH1 0x0 DUP1 DUP4 EQ DUP1 PUSH2 0x47A7 JUMPI POP DUP2 DUP4 GT JUMPDEST ISZERO PUSH2 0x47EE JUMPI PUSH1 0x0 DUP3 GT PUSH2 0x47E6 JUMPI PUSH1 0x40 MLOAD PUSH32 0x1F04DDC800000000000000000000000000000000000000000000000000000000 DUP2 MSTORE PUSH1 0x4 ADD PUSH1 0x40 MLOAD DUP1 SWAP2 SUB SWAP1 REVERT JUMPDEST DUP2 SWAP1 POP PUSH2 0x47F2 JUMP JUMPDEST DUP3 SWAP1 POP JUMPDEST DUP4 PUSH20 0xFFFFFFFFFFFFFFFFFFFFFFFFFFFFFFFFFFFFFFFF AND DUP6 PUSH20 0xFFFFFFFFFFFFFFFFFFFFFFFFFFFFFFFFFFFFFFFF AND CALLER PUSH20 0xFFFFFFFFFFFFFFFFFFFFFFFFFFFFFFFFFFFFFFFF AND PUSH32 0x342E7FF505A8A0364CD0DC2FF195C315E43BCE86B204846ECD36913E117B109E DUP5 PUSH1 0x40 MLOAD PUSH2 0x4866 SWAP2 SWAP1 PUSH2 0x8361 JUMP JUMPDEST PUSH1 0x40 MLOAD DUP1 SWAP2 SUB SWAP1 LOG4 PUSH2 0x4879 DUP6 DUP6 DUP4 PUSH2 0x70CC JUMP JUMPDEST POP POP POP POP POP JUMP JUMPDEST PUSH2 0x4888 PUSH2 0x5493 JUMP JUMPDEST DUP1 PUSH2 0x2022 PUSH1 0x0 DUP5 PUSH20 0xFFFFFFFFFFFFFFFFFFFFFFFFFFFFFFFFFFFFFFFF AND PUSH20 0xFFFFFFFFFFFFFFFFFFFFFFFFFFFFFFFFFFFFFFFF AND DUP2 MSTORE PUSH1 0x20 ADD SWAP1 DUP2 MSTORE PUSH1 0x20 ADD PUSH1 0x0 KECCAK256 DUP2 SWAP1 SSTORE POP DUP2 PUSH20 0xFFFFFFFFFFFFFFFFFFFFFFFFFFFFFFFFFFFFFFFF AND PUSH32 0xA027572BB55DE556A0DF93BD38C3871AAF311245C2CD34F0DA045AA33A66DBC5 DUP3 PUSH1 0x40 MLOAD PUSH2 0x4913 SWAP2 SWAP1 PUSH2 0x8361 JUMP JUMPDEST PUSH1 0x40 MLOAD DUP1 SWAP2 SUB SWAP1 LOG2 POP POP JUMP JUMPDEST PUSH1 0x0 PUSH2 0x107A PUSH1 0x0 DUP5 PUSH20 0xFFFFFFFFFFFFFFFFFFFFFFFFFFFFFFFFFFFFFFFF AND PUSH20 0xFFFFFFFFFFFFFFFFFFFFFFFFFFFFFFFFFFFFFFFF AND DUP2 MSTORE PUSH1 0x20 ADD SWAP1 DUP2 MSTORE PUSH1 0x20 ADD PUSH1 0x0 KECCAK256 PUSH1 0x0 DUP4 PUSH20 0xFFFFFFFFFFFFFFFFFFFFFFFFFFFFFFFFFFFFFFFF AND PUSH20 0xFFFFFFFFFFFFFFFFFFFFFFFFFFFFFFFFFFFFFFFF AND DUP2 MSTORE PUSH1 0x20 ADD SWAP1 DUP2 MSTORE PUSH1 0x20 ADD PUSH1 0x0 KECCAK256 PUSH1 0x0 SWAP1 SLOAD SWAP1 PUSH2 0x100 EXP SWAP1 DIV PUSH1 0xFF AND SWAP1 POP SWAP3 SWAP2 POP POP JUMP JUMPDEST PUSH2 0x49DE PUSH32 0xB89CDD26CDDD51301940BF2715F765B626B8A5A9E2681AC62DC83CC2DB2530C0 CALLER PUSH2 0x2201 JUMP JUMPDEST CALLER PUSH20 0xFFFFFFFFFFFFFFFFFFFFFFFFFFFFFFFFFFFFFFFF AND PUSH32 0x42885193B8178D25FCA25A38E6FCC93918501E91BE06D85E0C8AFB3BAD952380 PUSH1 0x40 MLOAD PUSH1 0x40 MLOAD DUP1 SWAP2 SUB SWAP1 LOG2 JUMP JUMPDEST PUSH2 0x4A2B PUSH2 0x55EA JUMP JUMPDEST PUSH2 0xC87 SLOAD PUSH2 0xC86 SLOAD GT PUSH2 0x4A6A JUMPI PUSH1 0x40 MLOAD PUSH32 0x31AF695100000000000000000000000000000000000000000000000000000000 DUP2 MSTORE PUSH1 0x4 ADD PUSH1 0x40 MLOAD DUP1 SWAP2 SUB SWAP1 REVERT JUMPDEST PUSH2 0x4A73 DUP3 PUSH2 0x4D55 JUMP JUMPDEST PUSH2 0x4A7C DUP3 PUSH2 0x4D13 JUMP JUMPDEST PUSH2 0x4A84 PUSH2 0x68B3 JUMP JUMPDEST PUSH1 0x0 PUSH2 0x1076 PUSH1 0x0 DUP5 DUP2 MSTORE PUSH1 0x20 ADD SWAP1 DUP2 MSTORE PUSH1 0x20 ADD PUSH1 0x0 KECCAK256 PUSH1 0x0 SWAP1 SLOAD SWAP1 PUSH2 0x100 EXP SWAP1 DIV PUSH20 0xFFFFFFFFFFFFFFFFFFFFFFFFFFFFFFFFFFFFFFFF AND SWAP1 POP PUSH1 0x0 DUP1 TIMESTAMP PUSH2 0x4ACA DUP7 PUSH2 0x2866 JUMP JUMPDEST PUSH2 0x4AD4 SWAP2 SWAP1 PUSH2 0x9297 JUMP JUMPDEST SWAP1 POP PUSH1 0x0 PUSH2 0x4AE2 DUP7 DUP7 PUSH2 0x4011 JUMP JUMPDEST SWAP1 POP PUSH1 0x0 DUP2 DUP7 PUSH2 0x4AF2 SWAP2 SWAP1 PUSH2 0x946E JUMP JUMPDEST SWAP1 POP DUP3 DUP2 LT ISZERO PUSH2 0x4B10 JUMPI DUP6 SWAP4 POP PUSH2 0x4B0B DUP8 DUP3 PUSH1 0x0 PUSH2 0x4F07 JUMP JUMPDEST PUSH2 0x4B74 JUMP JUMPDEST PUSH2 0x4B1A DUP8 DUP5 PUSH2 0x4011 JUMP JUMPDEST SWAP2 POP DUP2 DUP4 PUSH2 0x4B28 SWAP2 SWAP1 PUSH2 0x9297 JUMP JUMPDEST SWAP4 POP TIMESTAMP PUSH2 0x107B PUSH1 0x0 DUP10 DUP2 MSTORE PUSH1 0x20 ADD SWAP1 DUP2 MSTORE PUSH1 0x20 ADD PUSH1 0x0 KECCAK256 PUSH1 0x1 ADD DUP2 SWAP1 SSTORE POP DUP7 PUSH32 0x59F2FE866DD27A1C2D34115520888C3150365CBC931AAB97FA88C4B9AB40B795 PUSH1 0x40 MLOAD PUSH1 0x40 MLOAD DUP1 SWAP2 SUB SWAP1 LOG2 JUMPDEST PUSH1 0x0 PUSH2 0x4B8D DUP10 PUSH1 0x0 DUP8 TIMESTAMP PUSH2 0x4B88 SWAP2 SWAP1 PUSH2 0x946E JUMP JUMPDEST PUSH2 0x5633 JUMP JUMPDEST SWAP1 POP DUP1 DUP10 PUSH20 0xFFFFFFFFFFFFFFFFFFFFFFFFFFFFFFFFFFFFFFFF AND DUP8 PUSH20 0xFFFFFFFFFFFFFFFFFFFFFFFFFFFFFFFFFFFFFFFF AND PUSH32 0xDDF252AD1BE2C89B69C2B068FC378DAA952BA7F163C4A11628F55A4DF523B3EF PUSH1 0x40 MLOAD PUSH1 0x40 MLOAD DUP1 SWAP2 SUB SWAP1 LOG4 PUSH2 0x4C05 DUP7 DUP11 DUP4 PUSH1 0x40 MLOAD DUP1 PUSH1 0x20 ADD PUSH1 0x40 MSTORE DUP1 PUSH1 0x0 DUP2 MSTORE POP PUSH2 0x6AF8 JUMP JUMPDEST PUSH2 0x4C3B JUMPI PUSH1 0x40 MLOAD PUSH32 0x3F8EA15000000000000000000000000000000000000000000000000000000000 DUP2 MSTORE PUSH1 0x4 ADD PUSH1 0x40 MLOAD DUP1 SWAP2 SUB SWAP1 REVERT JUMPDEST POP POP POP POP POP POP POP POP POP JUMP JUMPDEST PUSH2 0x4C4E PUSH2 0x5493 JUMP JUMPDEST PUSH2 0x4C56 PUSH2 0x44D9 JUMP JUMPDEST PUSH2 0xFFFF AND PUSH2 0xC8D DUP2 SWAP1 SSTORE POP JUMP JUMPDEST PUSH2 0x4C6B PUSH2 0x5493 JUMP JUMPDEST DUP1 PUSH2 0x201E DUP2 SWAP1 SSTORE POP PUSH32 0x4D816C1058DE34C4241BA72C371FB3F2EA05147691B364F04D16BC967AE68A11 DUP2 PUSH1 0x40 MLOAD PUSH2 0x4CA2 SWAP2 SWAP1 PUSH2 0x8361 JUMP JUMPDEST PUSH1 0x40 MLOAD DUP1 SWAP2 SUB SWAP1 LOG1 POP JUMP JUMPDEST PUSH1 0x0 PUSH2 0x4CB8 DUP3 PUSH2 0x716F JUMP JUMPDEST SWAP1 POP SWAP2 SWAP1 POP JUMP JUMPDEST PUSH1 0x0 PUSH2 0x107B PUSH1 0x0 DUP4 DUP2 MSTORE PUSH1 0x20 ADD SWAP1 DUP2 MSTORE PUSH1 0x20 ADD PUSH1 0x0 KECCAK256 PUSH1 0x0 ADD SLOAD SUB PUSH2 0x4D10 JUMPI PUSH1 0x40 MLOAD PUSH32 0x78FE247300000000000000000000000000000000000000000000000000000000 DUP2 MSTORE PUSH1 0x4 ADD PUSH1 0x40 MLOAD DUP1 SWAP2 SUB SWAP1 REVERT JUMPDEST POP JUMP JUMPDEST PUSH2 0x4D1C DUP2 PUSH2 0x3DD8 JUMP JUMPDEST PUSH2 0x4D52 JUMPI PUSH1 0x40 MLOAD PUSH32 0xD9F4FAE00000000000000000000000000000000000000000000000000000000 DUP2 MSTORE PUSH1 0x4 ADD PUSH1 0x40 MLOAD DUP1 SWAP2 SUB SWAP1 REVERT JUMPDEST POP JUMP JUMPDEST PUSH1 0x0 DUP1 PUSH20 0xFFFFFFFFFFFFFFFFFFFFFFFFFFFFFFFFFFFFFFFF AND PUSH2 0x1078 PUSH1 0x0 DUP5 DUP2 MSTORE PUSH1 0x20 ADD SWAP1 DUP2 MSTORE PUSH1 0x20 ADD PUSH1 0x0 KECCAK256 PUSH1 0x0 SWAP1 SLOAD SWAP1 PUSH2 0x100 EXP SWAP1 DIV PUSH20 0xFFFFFFFFFFFFFFFFFFFFFFFFFFFFFFFFFFFFFFFF AND PUSH20 0xFFFFFFFFFFFFFFFFFFFFFFFFFFFFFFFFFFFFFFFF AND EQ PUSH2 0x4DF8 JUMPI PUSH2 0x1078 PUSH1 0x0 DUP4 DUP2 MSTORE PUSH1 0x20 ADD SWAP1 DUP2 MSTORE PUSH1 0x20 ADD PUSH1 0x0 KECCAK256 PUSH1 0x0 SWAP1 SLOAD SWAP1 PUSH2 0x100 EXP SWAP1 DIV PUSH20 0xFFFFFFFFFFFFFFFFFFFFFFFFFFFFFFFFFFFFFFFF AND PUSH2 0x4E2E JUMP JUMPDEST PUSH2 0x1076 PUSH1 0x0 DUP4 DUP2 MSTORE PUSH1 0x20 ADD SWAP1 DUP2 MSTORE PUSH1 0x20 ADD PUSH1 0x0 KECCAK256 PUSH1 0x0 SWAP1 SLOAD SWAP1 PUSH2 0x100 EXP SWAP1 DIV PUSH20 0xFFFFFFFFFFFFFFFFFFFFFFFFFFFFFFFFFFFFFFFF AND JUMPDEST SWAP1 POP PUSH2 0x4E39 CALLER PUSH2 0x3F4C JUMP JUMPDEST ISZERO DUP1 ISZERO PUSH2 0x4E4D JUMPI POP PUSH2 0x4E4B DUP3 CALLER PUSH2 0x5014 JUMP JUMPDEST ISZERO JUMPDEST DUP1 ISZERO PUSH2 0x4EB9 JUMPI POP CALLER PUSH20 0xFFFFFFFFFFFFFFFFFFFFFFFFFFFFFFFFFFFFFFFF AND PUSH2 0x1079 PUSH1 0x0 DUP5 DUP2 MSTORE PUSH1 0x20 ADD SWAP1 DUP2 MSTORE PUSH1 0x20 ADD PUSH1 0x0 KECCAK256 PUSH1 0x0 SWAP1 SLOAD SWAP1 PUSH2 0x100 EXP SWAP1 DIV PUSH20 0xFFFFFFFFFFFFFFFFFFFFFFFFFFFFFFFFFFFFFFFF AND PUSH20 0xFFFFFFFFFFFFFFFFFFFFFFFFFFFFFFFFFFFFFFFF AND EQ ISZERO JUMPDEST DUP1 ISZERO PUSH2 0x4ECC JUMPI POP PUSH2 0x4ECA DUP2 CALLER PUSH2 0x491F JUMP JUMPDEST ISZERO JUMPDEST ISZERO PUSH2 0x4F03 JUMPI PUSH1 0x40 MLOAD PUSH32 0xE17C6D4500000000000000000000000000000000000000000000000000000000 DUP2 MSTORE PUSH1 0x4 ADD PUSH1 0x40 MLOAD DUP1 SWAP2 SUB SWAP1 REVERT JUMPDEST POP POP JUMP JUMPDEST PUSH2 0x4F10 DUP4 PUSH2 0x4CBF JUMP JUMPDEST PUSH1 0x0 PUSH2 0x107B PUSH1 0x0 DUP6 DUP2 MSTORE PUSH1 0x20 ADD SWAP1 DUP2 MSTORE PUSH1 0x20 ADD PUSH1 0x0 KECCAK256 PUSH1 0x1 ADD SLOAD SWAP1 POP DUP2 ISZERO PUSH2 0x4F93 JUMPI TIMESTAMP DUP2 GT ISZERO PUSH2 0x4F66 JUMPI DUP3 DUP2 PUSH2 0x4F46 SWAP2 SWAP1 PUSH2 0x946E JUMP JUMPDEST PUSH2 0x107B PUSH1 0x0 DUP7 DUP2 MSTORE PUSH1 0x20 ADD SWAP1 DUP2 MSTORE PUSH1 0x20 ADD PUSH1 0x0 KECCAK256 PUSH1 0x1 ADD DUP2 SWAP1 SSTORE POP PUSH2 0x4F8E JUMP JUMPDEST DUP3 TIMESTAMP PUSH2 0x4F72 SWAP2 SWAP1 PUSH2 0x946E JUMP JUMPDEST PUSH2 0x107B PUSH1 0x0 DUP7 DUP2 MSTORE PUSH1 0x20 ADD SWAP1 DUP2 MSTORE PUSH1 0x20 ADD PUSH1 0x0 KECCAK256 PUSH1 0x1 ADD DUP2 SWAP1 SSTORE POP JUMPDEST PUSH2 0x4FBB JUMP JUMPDEST DUP3 DUP2 PUSH2 0x4F9F SWAP2 SWAP1 PUSH2 0x9297 JUMP JUMPDEST PUSH2 0x107B PUSH1 0x0 DUP7 DUP2 MSTORE PUSH1 0x20 ADD SWAP1 DUP2 MSTORE PUSH1 0x20 ADD PUSH1 0x0 KECCAK256 PUSH1 0x1 ADD DUP2 SWAP1 SSTORE POP JUMPDEST DUP4 PUSH32 0x3C907806849E9204E0E26BB095DFE4B3071576C4323F766735C548211556D052 PUSH2 0x107B PUSH1 0x0 DUP8 DUP2 MSTORE PUSH1 0x20 ADD SWAP1 DUP2 MSTORE PUSH1 0x20 ADD PUSH1 0x0 KECCAK256 PUSH1 0x1 ADD SLOAD DUP6 DUP6 PUSH1 0x40 MLOAD PUSH2 0x5006 SWAP4 SWAP3 SWAP2 SWAP1 PUSH2 0xA1EE JUMP JUMPDEST PUSH1 0x40 MLOAD DUP1 SWAP2 SUB SWAP1 LOG2 POP POP POP POP JUMP JUMPDEST PUSH1 0x0 DUP2 PUSH20 0xFFFFFFFFFFFFFFFFFFFFFFFFFFFFFFFFFFFFFFFF AND PUSH2 0x1078 PUSH1 0x0 DUP6 DUP2 MSTORE PUSH1 0x20 ADD SWAP1 DUP2 MSTORE PUSH1 0x20 ADD PUSH1 0x0 KECCAK256 PUSH1 0x0 SWAP1 SLOAD SWAP1 PUSH2 0x100 EXP SWAP1 DIV PUSH20 0xFFFFFFFFFFFFFFFFFFFFFFFFFFFFFFFFFFFFFFFF AND PUSH20 0xFFFFFFFFFFFFFFFFFFFFFFFFFFFFFFFFFFFFFFFF AND EQ DUP1 PUSH2 0x5123 JUMPI POP DUP2 PUSH20 0xFFFFFFFFFFFFFFFFFFFFFFFFFFFFFFFFFFFFFFFF AND PUSH2 0x509F DUP5 PUSH2 0x28C1 JUMP JUMPDEST PUSH20 0xFFFFFFFFFFFFFFFFFFFFFFFFFFFFFFFFFFFFFFFF AND EQ DUP1 ISZERO PUSH2 0x5122 JUMPI POP PUSH1 0x0 PUSH20 0xFFFFFFFFFFFFFFFFFFFFFFFFFFFFFFFFFFFFFFFF AND PUSH2 0x1078 PUSH1 0x0 DUP6 DUP2 MSTORE PUSH1 0x20 ADD SWAP1 DUP2 MSTORE PUSH1 0x20 ADD PUSH1 0x0 KECCAK256 PUSH1 0x0 SWAP1 SLOAD SWAP1 PUSH2 0x100 EXP SWAP1 DIV PUSH20 0xFFFFFFFFFFFFFFFFFFFFFFFFFFFFFFFFFFFFFFFF AND PUSH20 0xFFFFFFFFFFFFFFFFFFFFFFFFFFFFFFFFFFFFFFFF AND EQ JUMPDEST JUMPDEST ISZERO PUSH2 0x5131 JUMPI PUSH1 0x1 SWAP1 POP PUSH2 0x5136 JUMP JUMPDEST PUSH1 0x0 SWAP1 POP JUMPDEST SWAP3 SWAP2 POP POP JUMP JUMPDEST PUSH2 0x5145 DUP2 PUSH2 0x4D13 JUMP JUMPDEST PUSH2 0x514D PUSH2 0x68B3 JUMP JUMPDEST DUP3 PUSH20 0xFFFFFFFFFFFFFFFFFFFFFFFFFFFFFFFFFFFFFFFF AND PUSH2 0x516D DUP3 PUSH2 0x28C1 JUMP JUMPDEST PUSH20 0xFFFFFFFFFFFFFFFFFFFFFFFFFFFFFFFFFFFFFFFF AND EQ PUSH2 0x51BA JUMPI PUSH1 0x40 MLOAD PUSH32 0x75FD2B100000000000000000000000000000000000000000000000000000000 DUP2 MSTORE PUSH1 0x4 ADD PUSH1 0x40 MLOAD DUP1 SWAP2 SUB SWAP1 REVERT JUMPDEST PUSH1 0x0 PUSH20 0xFFFFFFFFFFFFFFFFFFFFFFFFFFFFFFFFFFFFFFFF AND DUP3 PUSH20 0xFFFFFFFFFFFFFFFFFFFFFFFFFFFFFFFFFFFFFFFF AND SUB PUSH2 0x5220 JUMPI PUSH1 0x40 MLOAD PUSH32 0x5963709B00000000000000000000000000000000000000000000000000000000 DUP2 MSTORE PUSH1 0x4 ADD PUSH1 0x40 MLOAD DUP1 SWAP2 SUB SWAP1 REVERT JUMPDEST DUP2 PUSH20 0xFFFFFFFFFFFFFFFFFFFFFFFFFFFFFFFFFFFFFFFF AND DUP4 PUSH20 0xFFFFFFFFFFFFFFFFFFFFFFFFFFFFFFFFFFFFFFFF AND SUB PUSH2 0x5285 JUMPI PUSH1 0x40 MLOAD PUSH32 0x3FBD1A4900000000000000000000000000000000000000000000000000000000 DUP2 MSTORE PUSH1 0x4 ADD PUSH1 0x40 MLOAD DUP1 SWAP2 SUB SWAP1 REVERT JUMPDEST PUSH2 0x529B DUP2 PUSH2 0x5294 DUP4 PUSH1 0x0 PUSH2 0x4011 JUMP JUMPDEST PUSH1 0x0 PUSH2 0x4F07 JUMP JUMPDEST PUSH1 0x0 PUSH2 0x107B PUSH1 0x0 DUP4 DUP2 MSTORE PUSH1 0x20 ADD SWAP1 DUP2 MSTORE PUSH1 0x20 ADD PUSH1 0x0 KECCAK256 SWAP1 POP PUSH2 0x52BC DUP3 PUSH2 0x2866 JUMP JUMPDEST DUP2 PUSH1 0x1 ADD DUP2 SWAP1 SSTORE POP PUSH1 0x0 PUSH2 0x52CF DUP5 PUSH2 0x32A8 JUMP JUMPDEST SUB PUSH2 0x52EE JUMPI PUSH2 0x1077 PUSH1 0x0 DUP2 SLOAD DUP1 SWAP3 SWAP2 SWAP1 PUSH2 0x52E8 SWAP1 PUSH2 0x95E8 JUMP JUMPDEST SWAP2 SWAP1 POP SSTORE POP JUMPDEST PUSH2 0x52F7 DUP3 PUSH2 0x7181 JUMP JUMPDEST PUSH2 0x5301 DUP3 DUP5 PUSH2 0x7397 JUMP JUMPDEST PUSH2 0x530A DUP3 PUSH2 0x74FF JUMP JUMPDEST PUSH1 0x0 PUSH2 0x2020 PUSH1 0x0 DUP5 DUP2 MSTORE PUSH1 0x20 ADD SWAP1 DUP2 MSTORE PUSH1 0x20 ADD PUSH1 0x0 KECCAK256 DUP2 SWAP1 SSTORE POP PUSH1 0x0 PUSH2 0x201F PUSH1 0x0 DUP5 DUP2 MSTORE PUSH1 0x20 ADD SWAP1 DUP2 MSTORE PUSH1 0x20 ADD PUSH1 0x0 KECCAK256 DUP2 SWAP1 SSTORE POP DUP2 DUP4 PUSH20 0xFFFFFFFFFFFFFFFFFFFFFFFFFFFFFFFFFFFFFFFF AND DUP6 PUSH20 0xFFFFFFFFFFFFFFFFFFFFFFFFFFFFFFFFFFFFFFFF AND PUSH32 0xDDF252AD1BE2C89B69C2B068FC378DAA952BA7F163C4A11628F55A4DF523B3EF PUSH1 0x40 MLOAD PUSH1 0x40 MLOAD DUP1 SWAP2 SUB SWAP1 LOG4 PUSH1 0x0 PUSH20 0xFFFFFFFFFFFFFFFFFFFFFFFFFFFFFFFFFFFFFFFF AND PUSH2 0xC8F PUSH1 0x0 SWAP1 SLOAD SWAP1 PUSH2 0x100 EXP SWAP1 DIV PUSH20 0xFFFFFFFFFFFFFFFFFFFFFFFFFFFFFFFFFFFFFFFF AND PUSH20 0xFFFFFFFFFFFFFFFFFFFFFFFFFFFFFFFFFFFFFFFF AND EQ PUSH2 0x548D JUMPI PUSH2 0xC8F PUSH1 0x0 SWAP1 SLOAD SWAP1 PUSH2 0x100 EXP SWAP1 DIV PUSH20 0xFFFFFFFFFFFFFFFFFFFFFFFFFFFFFFFFFFFFFFFF AND PUSH20 0xFFFFFFFFFFFFFFFFFFFFFFFFFFFFFFFFFFFFFFFF AND PUSH4 0x75B37AEF ADDRESS DUP5 CALLER DUP9 DUP9 DUP8 PUSH1 0x1 ADD SLOAD PUSH1 0x40 MLOAD DUP8 PUSH4 0xFFFFFFFF AND PUSH1 0xE0 SHL DUP2 MSTORE PUSH1 0x4 ADD PUSH2 0x545A SWAP7 SWAP6 SWAP5 SWAP4 SWAP3 SWAP2 SWAP1 PUSH2 0xA225 JUMP JUMPDEST PUSH1 0x0 PUSH1 0x40 MLOAD DUP1 DUP4 SUB DUP2 PUSH1 0x0 DUP8 DUP1 EXTCODESIZE ISZERO DUP1 ISZERO PUSH2 0x5474 JUMPI PUSH1 0x0 DUP1 REVERT JUMPDEST POP GAS CALL ISZERO DUP1 ISZERO PUSH2 0x5488 JUMPI RETURNDATASIZE PUSH1 0x0 DUP1 RETURNDATACOPY RETURNDATASIZE PUSH1 0x0 REVERT JUMPDEST POP POP POP POP JUMPDEST POP POP POP POP JUMP JUMPDEST PUSH2 0x54BD PUSH32 0xB89CDD26CDDD51301940BF2715F765B626B8A5A9E2681AC62DC83CC2DB2530C0 CALLER PUSH2 0x387B JUMP JUMPDEST PUSH2 0x54F3 JUMPI PUSH1 0x40 MLOAD PUSH32 0x8E1B58C400000000000000000000000000000000000000000000000000000000 DUP2 MSTORE PUSH1 0x4 ADD PUSH1 0x40 MLOAD DUP1 SWAP2 SUB SWAP1 REVERT JUMPDEST JUMP JUMPDEST PUSH2 0x5506 DUP2 PUSH2 0x5501 PUSH2 0x6029 JUMP JUMPDEST PUSH2 0x75BF JUMP JUMPDEST POP JUMP JUMPDEST PUSH2 0x5513 DUP3 DUP3 PUSH2 0x387B JUMP JUMPDEST PUSH2 0x55E6 JUMPI PUSH1 0x1 PUSH1 0x97 PUSH1 0x0 DUP5 DUP2 MSTORE PUSH1 0x20 ADD SWAP1 DUP2 MSTORE PUSH1 0x20 ADD PUSH1 0x0 KECCAK256 PUSH1 0x0 ADD PUSH1 0x0 DUP4 PUSH20 0xFFFFFFFFFFFFFFFFFFFFFFFFFFFFFFFFFFFFFFFF AND PUSH20 0xFFFFFFFFFFFFFFFFFFFFFFFFFFFFFFFFFFFFFFFF AND DUP2 MSTORE PUSH1 0x20 ADD SWAP1 DUP2 MSTORE PUSH1 0x20 ADD PUSH1 0x0 KECCAK256 PUSH1 0x0 PUSH2 0x100 EXP DUP2 SLOAD DUP2 PUSH1 0xFF MUL NOT AND SWAP1 DUP4 ISZERO ISZERO MUL OR SWAP1 SSTORE POP PUSH2 0x558B PUSH2 0x6029 JUMP JUMPDEST PUSH20 0xFFFFFFFFFFFFFFFFFFFFFFFFFFFFFFFFFFFFFFFF AND DUP2 PUSH20 0xFFFFFFFFFFFFFFFFFFFFFFFFFFFFFFFFFFFFFFFF AND DUP4 PUSH32 0x2F8788117E7EFF1D82E926EC794901D17C78024A50270940304540A733656F0D PUSH1 0x40 MLOAD PUSH1 0x40 MLOAD DUP1 SWAP2 SUB SWAP1 LOG4 JUMPDEST POP POP JUMP JUMPDEST PUSH2 0x55F2 PUSH2 0x44D9 JUMP JUMPDEST PUSH2 0xFFFF AND PUSH2 0xC8D SLOAD EQ PUSH2 0x5631 JUMPI PUSH1 0x40 MLOAD PUSH32 0xBAB80EC000000000000000000000000000000000000000000000000000000000 DUP2 MSTORE PUSH1 0x4 ADD PUSH1 0x40 MLOAD DUP1 SWAP2 SUB SWAP1 REVERT JUMPDEST JUMP JUMPDEST PUSH1 0x0 DUP1 PUSH20 0xFFFFFFFFFFFFFFFFFFFFFFFFFFFFFFFFFFFFFFFF AND DUP5 PUSH20 0xFFFFFFFFFFFFFFFFFFFFFFFFFFFFFFFFFFFFFFFF AND SUB PUSH2 0x569A JUMPI PUSH1 0x40 MLOAD PUSH32 0x5963709B00000000000000000000000000000000000000000000000000000000 DUP2 MSTORE PUSH1 0x4 ADD PUSH1 0x40 MLOAD DUP1 SWAP2 SUB SWAP1 REVERT JUMPDEST PUSH2 0xC87 PUSH1 0x0 DUP2 SLOAD DUP1 SWAP3 SWAP2 SWAP1 PUSH2 0x56AE SWAP1 PUSH2 0x95E8 JUMP JUMPDEST SWAP2 SWAP1 POP SSTORE POP PUSH2 0xC87 SLOAD SWAP1 POP PUSH1 0x40 MLOAD DUP1 PUSH1 0x40 ADD PUSH1 0x40 MSTORE DUP1 DUP3 DUP2 MSTORE PUSH1 0x20 ADD DUP4 DUP2 MSTORE POP PUSH2 0x107B PUSH1 0x0 DUP4 DUP2 MSTORE PUSH1 0x20 ADD SWAP1 DUP2 MSTORE PUSH1 0x20 ADD PUSH1 0x0 KECCAK256 PUSH1 0x0 DUP3 ADD MLOAD DUP2 PUSH1 0x0 ADD SSTORE PUSH1 0x20 DUP3 ADD MLOAD DUP2 PUSH1 0x1 ADD SSTORE SWAP1 POP POP PUSH1 0x0 PUSH2 0x5704 DUP6 PUSH2 0x32A8 JUMP JUMPDEST SUB PUSH2 0x5723 JUMPI PUSH2 0x1077 PUSH1 0x0 DUP2 SLOAD DUP1 SWAP3 SWAP2 SWAP1 PUSH2 0x571D SWAP1 PUSH2 0x95E8 JUMP JUMPDEST SWAP2 SWAP1 POP SSTORE POP JUMPDEST PUSH2 0x572D DUP2 DUP6 PUSH2 0x7397 JUMP JUMPDEST PUSH2 0x5737 DUP2 DUP5 PUSH2 0x69EC JUMP JUMPDEST DUP1 DUP5 PUSH20 0xFFFFFFFFFFFFFFFFFFFFFFFFFFFFFFFFFFFFFFFF AND PUSH1 0x0 PUSH20 0xFFFFFFFFFFFFFFFFFFFFFFFFFFFFFFFFFFFFFFFF AND PUSH32 0xDDF252AD1BE2C89B69C2B068FC378DAA952BA7F163C4A11628F55A4DF523B3EF PUSH1 0x40 MLOAD PUSH1 0x40 MLOAD DUP1 SWAP2 SUB SWAP1 LOG4 SWAP4 SWAP3 POP POP POP JUMP JUMPDEST DUP1 PUSH2 0x201F PUSH1 0x0 DUP5 DUP2 MSTORE PUSH1 0x20 ADD SWAP1 DUP2 MSTORE PUSH1 0x20 ADD PUSH1 0x0 KECCAK256 SLOAD EQ PUSH2 0x57CF JUMPI DUP1 PUSH2 0x201F PUSH1 0x0 DUP5 DUP2 MSTORE PUSH1 0x20 ADD SWAP1 DUP2 MSTORE PUSH1 0x20 ADD PUSH1 0x0 KECCAK256 DUP2 SWAP1 SSTORE POP JUMPDEST PUSH2 0xC84 SLOAD PUSH2 0x2020 PUSH1 0x0 DUP5 DUP2 MSTORE PUSH1 0x20 ADD SWAP1 DUP2 MSTORE PUSH1 0x20 ADD PUSH1 0x0 KECCAK256 SLOAD EQ PUSH2 0x580A JUMPI PUSH2 0xC84 SLOAD PUSH2 0x2020 PUSH1 0x0 DUP5 DUP2 MSTORE PUSH1 0x20 ADD SWAP1 DUP2 MSTORE PUSH1 0x20 ADD PUSH1 0x0 KECCAK256 DUP2 SWAP1 SSTORE POP JUMPDEST PUSH2 0x4B1 PUSH1 0x0 SWAP1 SLOAD SWAP1 PUSH2 0x100 EXP SWAP1 DIV PUSH20 0xFFFFFFFFFFFFFFFFFFFFFFFFFFFFFFFFFFFFFFFF AND PUSH20 0xFFFFFFFFFFFFFFFFFFFFFFFFFFFFFFFFFFFFFFFF AND PUSH2 0x2021 PUSH1 0x0 DUP5 DUP2 MSTORE PUSH1 0x20 ADD SWAP1 DUP2 MSTORE PUSH1 0x20 ADD PUSH1 0x0 KECCAK256 PUSH1 0x0 SWAP1 SLOAD SWAP1 PUSH2 0x100 EXP SWAP1 DIV PUSH20 0xFFFFFFFFFFFFFFFFFFFFFFFFFFFFFFFFFFFFFFFF AND PUSH20 0xFFFFFFFFFFFFFFFFFFFFFFFFFFFFFFFFFFFFFFFF AND EQ PUSH2 0x590B JUMPI PUSH2 0x4B1 PUSH1 0x0 SWAP1 SLOAD SWAP1 PUSH2 0x100 EXP SWAP1 DIV PUSH20 0xFFFFFFFFFFFFFFFFFFFFFFFFFFFFFFFFFFFFFFFF AND PUSH2 0x2021 PUSH1 0x0 DUP5 DUP2 MSTORE PUSH1 0x20 ADD SWAP1 DUP2 MSTORE PUSH1 0x20 ADD PUSH1 0x0 KECCAK256 PUSH1 0x0 PUSH2 0x100 EXP DUP2 SLOAD DUP2 PUSH20 0xFFFFFFFFFFFFFFFFFFFFFFFFFFFFFFFFFFFFFFFF MUL NOT AND SWAP1 DUP4 PUSH20 0xFFFFFFFFFFFFFFFFFFFFFFFFFFFFFFFFFFFFFFFF AND MUL OR SWAP1 SSTORE POP JUMPDEST POP POP JUMP JUMPDEST DUP1 DUP3 LT ISZERO PUSH2 0x5949 JUMPI PUSH1 0x40 MLOAD PUSH32 0xC0017EC400000000000000000000000000000000000000000000000000000000 DUP2 MSTORE PUSH1 0x4 ADD PUSH1 0x40 MLOAD DUP1 SWAP2 SUB SWAP1 REVERT JUMPDEST POP POP JUMP JUMPDEST PUSH1 0x0 PUSH2 0xC83 PUSH1 0x0 SWAP1 SLOAD SWAP1 PUSH2 0x100 EXP SWAP1 DIV PUSH20 0xFFFFFFFFFFFFFFFFFFFFFFFFFFFFFFFFFFFFFFFF AND PUSH20 0xFFFFFFFFFFFFFFFFFFFFFFFFFFFFFFFFFFFFFFFF AND EXTCODESIZE GT ISZERO PUSH2 0x5A9E JUMPI PUSH2 0xC83 PUSH1 0x0 SWAP1 SLOAD SWAP1 PUSH2 0x100 EXP SWAP1 DIV PUSH20 0xFFFFFFFFFFFFFFFFFFFFFFFFFFFFFFFFFFFFFFFF AND PUSH20 0xFFFFFFFFFFFFFFFFFFFFFFFFFFFFFFFFFFFFFFFF AND PUSH4 0x939D9F1F PUSH3 0x493E0 DUP5 DUP5 PUSH1 0x40 MLOAD DUP5 PUSH4 0xFFFFFFFF AND PUSH1 0xE0 SHL DUP2 MSTORE PUSH1 0x4 ADD PUSH2 0x59F2 SWAP3 SWAP2 SWAP1 PUSH2 0xA286 JUMP JUMPDEST PUSH1 0x0 PUSH1 0x40 MLOAD DUP1 DUP4 SUB DUP2 PUSH1 0x0 DUP9 DUP1 EXTCODESIZE ISZERO DUP1 ISZERO PUSH2 0x5A0C JUMPI PUSH1 0x0 DUP1 REVERT JUMPDEST POP DUP8 CALL SWAP4 POP POP POP POP DUP1 ISZERO PUSH2 0x5A1E JUMPI POP PUSH1 0x1 JUMPDEST PUSH2 0x5A98 JUMPI ADDRESS PUSH20 0xFFFFFFFFFFFFFFFFFFFFFFFFFFFFFFFFFFFFFFFF AND PUSH32 0x6B18946261693DFD6C760D986B28AD2238B5B0267F8E5B6BC40A2F998E2F20AC PUSH2 0xC83 PUSH1 0x0 SWAP1 SLOAD SWAP1 PUSH2 0x100 EXP SWAP1 DIV PUSH20 0xFFFFFFFFFFFFFFFFFFFFFFFFFFFFFFFFFFFFFFFF AND PUSH1 0x40 MLOAD PUSH2 0x5A8B SWAP2 SWAP1 PUSH2 0x8127 JUMP JUMPDEST PUSH1 0x40 MLOAD DUP1 SWAP2 SUB SWAP1 LOG2 PUSH2 0x5A99 JUMP JUMPDEST JUMPDEST PUSH2 0x5B10 JUMP JUMPDEST ADDRESS PUSH20 0xFFFFFFFFFFFFFFFFFFFFFFFFFFFFFFFFFFFFFFFF AND PUSH32 0x6B18946261693DFD6C760D986B28AD2238B5B0267F8E5B6BC40A2F998E2F20AC PUSH2 0xC83 PUSH1 0x0 SWAP1 SLOAD SWAP1 PUSH2 0x100 EXP SWAP1 DIV PUSH20 0xFFFFFFFFFFFFFFFFFFFFFFFFFFFFFFFFFFFFFFFF AND PUSH1 0x40 MLOAD PUSH2 0x5B07 SWAP2 SWAP1 PUSH2 0x8127 JUMP JUMPDEST PUSH1 0x40 MLOAD DUP1 SWAP2 SUB SWAP1 LOG2 JUMPDEST POP POP JUMP JUMPDEST PUSH1 0x0 PUSH20 0xFFFFFFFFFFFFFFFFFFFFFFFFFFFFFFFFFFFFFFFF AND PUSH2 0x4B1 PUSH1 0x0 SWAP1 SLOAD SWAP1 PUSH2 0x100 EXP SWAP1 DIV PUSH20 0xFFFFFFFFFFFFFFFFFFFFFFFFFFFFFFFFFFFFFFFF AND PUSH20 0xFFFFFFFFFFFFFFFFFFFFFFFFFFFFFFFFFFFFFFFF AND EQ PUSH2 0x5C14 JUMPI PUSH2 0x4B1 PUSH1 0x0 SWAP1 SLOAD SWAP1 PUSH2 0x100 EXP SWAP1 DIV PUSH20 0xFFFFFFFFFFFFFFFFFFFFFFFFFFFFFFFFFFFFFFFF AND PUSH20 0xFFFFFFFFFFFFFFFFFFFFFFFFFFFFFFFFFFFFFFFF AND PUSH4 0x23B872DD DUP4 ADDRESS DUP5 PUSH1 0x40 MLOAD DUP5 PUSH4 0xFFFFFFFF AND PUSH1 0xE0 SHL DUP2 MSTORE PUSH1 0x4 ADD PUSH2 0x5BCB SWAP4 SWAP3 SWAP2 SWAP1 PUSH2 0xA2AF JUMP JUMPDEST PUSH1 0x20 PUSH1 0x40 MLOAD DUP1 DUP4 SUB DUP2 PUSH1 0x0 DUP8 GAS CALL ISZERO DUP1 ISZERO PUSH2 0x5BEA JUMPI RETURNDATASIZE PUSH1 0x0 DUP1 RETURNDATACOPY RETURNDATASIZE PUSH1 0x0 REVERT JUMPDEST POP POP POP POP PUSH1 0x40 MLOAD RETURNDATASIZE PUSH1 0x1F NOT PUSH1 0x1F DUP3 ADD AND DUP3 ADD DUP1 PUSH1 0x40 MSTORE POP DUP2 ADD SWAP1 PUSH2 0x5C0E SWAP2 SWAP1 PUSH2 0x983E JUMP JUMPDEST POP PUSH2 0x5C4F JUMP JUMPDEST DUP1 CALLVALUE LT ISZERO PUSH2 0x5C4E JUMPI PUSH1 0x40 MLOAD PUSH32 0x6C3CDDF000000000000000000000000000000000000000000000000000000000 DUP2 MSTORE PUSH1 0x4 ADD PUSH1 0x40 MLOAD DUP1 SWAP2 SUB SWAP1 REVERT JUMPDEST JUMPDEST POP POP JUMP JUMPDEST PUSH1 0x0 DUP1 PUSH2 0xC83 PUSH1 0x0 SWAP1 SLOAD SWAP1 PUSH2 0x100 EXP SWAP1 DIV PUSH20 0xFFFFFFFFFFFFFFFFFFFFFFFFFFFFFFFFFFFFFFFF AND PUSH20 0xFFFFFFFFFFFFFFFFFFFFFFFFFFFFFFFFFFFFFFFF AND EXTCODESIZE GT ISZERO PUSH2 0x5E14 JUMPI PUSH2 0xC83 PUSH1 0x0 SWAP1 SLOAD SWAP1 PUSH2 0x100 EXP SWAP1 DIV PUSH20 0xFFFFFFFFFFFFFFFFFFFFFFFFFFFFFFFFFFFFFFFF AND PUSH20 0xFFFFFFFFFFFFFFFFFFFFFFFFFFFFFFFFFFFFFFFF AND PUSH4 0xB0E21E8A PUSH1 0x40 MLOAD DUP2 PUSH4 0xFFFFFFFF AND PUSH1 0xE0 SHL DUP2 MSTORE PUSH1 0x4 ADD PUSH1 0x20 PUSH1 0x40 MLOAD DUP1 DUP4 SUB DUP2 DUP7 GAS STATICCALL SWAP3 POP POP POP DUP1 ISZERO PUSH2 0x5D22 JUMPI POP PUSH1 0x40 MLOAD RETURNDATASIZE PUSH1 0x1F NOT PUSH1 0x1F DUP3 ADD AND DUP3 ADD DUP1 PUSH1 0x40 MSTORE POP DUP2 ADD SWAP1 PUSH2 0x5D1F SWAP2 SWAP1 PUSH2 0x93E1 JUMP JUMPDEST PUSH1 0x1 JUMPDEST PUSH2 0x5D9C JUMPI ADDRESS PUSH20 0xFFFFFFFFFFFFFFFFFFFFFFFFFFFFFFFFFFFFFFFF AND PUSH32 0x6B18946261693DFD6C760D986B28AD2238B5B0267F8E5B6BC40A2F998E2F20AC PUSH2 0xC83 PUSH1 0x0 SWAP1 SLOAD SWAP1 PUSH2 0x100 EXP SWAP1 DIV PUSH20 0xFFFFFFFFFFFFFFFFFFFFFFFFFFFFFFFFFFFFFFFF AND PUSH1 0x40 MLOAD PUSH2 0x5D8F SWAP2 SWAP1 PUSH2 0x8127 JUMP JUMPDEST PUSH1 0x40 MLOAD DUP1 SWAP2 SUB SWAP1 LOG2 PUSH2 0x5E13 JUMP JUMPDEST PUSH2 0x2710 DUP2 DUP5 PUSH2 0x5DAB SWAP2 SWAP1 PUSH2 0x96EB JUMP JUMPDEST PUSH2 0x5DB5 SWAP2 SWAP1 PUSH2 0x975C JUMP JUMPDEST SWAP2 POP PUSH1 0x0 DUP3 EQ PUSH2 0x5E11 JUMPI PUSH2 0x5E10 PUSH2 0x4B1 PUSH1 0x0 SWAP1 SLOAD SWAP1 PUSH2 0x100 EXP SWAP1 DIV PUSH20 0xFFFFFFFFFFFFFFFFFFFFFFFFFFFFFFFFFFFFFFFF AND PUSH2 0xC83 PUSH1 0x0 SWAP1 SLOAD SWAP1 PUSH2 0x100 EXP SWAP1 DIV PUSH20 0xFFFFFFFFFFFFFFFFFFFFFFFFFFFFFFFFFFFFFFFF AND DUP5 PUSH2 0x70CC JUMP JUMPDEST JUMPDEST POP JUMPDEST JUMPDEST POP POP JUMP JUMPDEST PUSH1 0x0 PUSH2 0x201E SLOAD EQ PUSH2 0x5ECB JUMPI PUSH2 0x5E54 PUSH2 0x4B1 PUSH1 0x0 SWAP1 SLOAD SWAP1 PUSH2 0x100 EXP SWAP1 DIV PUSH20 0xFFFFFFFFFFFFFFFFFFFFFFFFFFFFFFFFFFFFFFFF AND CALLER PUSH2 0x201E SLOAD PUSH2 0x70CC JUMP JUMPDEST CALLER PUSH20 0xFFFFFFFFFFFFFFFFFFFFFFFFFFFFFFFFFFFFFFFF AND PUSH32 0x522A883B471164223F18B50F326DA8671372B64B4792EAC0E63D447E714C3E3B PUSH2 0x201E SLOAD PUSH2 0x4B1 PUSH1 0x0 SWAP1 SLOAD SWAP1 PUSH2 0x100 EXP SWAP1 DIV PUSH20 0xFFFFFFFFFFFFFFFFFFFFFFFFFFFFFFFFFFFFFFFF AND PUSH1 0x40 MLOAD PUSH2 0x5EC2 SWAP3 SWAP2 SWAP1 PUSH2 0xA286 JUMP JUMPDEST PUSH1 0x40 MLOAD DUP1 SWAP2 SUB SWAP1 LOG2 JUMPDEST JUMP JUMPDEST PUSH1 0x0 PUSH20 0xFFFFFFFFFFFFFFFFFFFFFFFFFFFFFFFFFFFFFFFF AND DUP2 PUSH20 0xFFFFFFFFFFFFFFFFFFFFFFFFFFFFFFFFFFFFFFFF AND EQ PUSH2 0x6026 JUMPI PUSH1 0x0 PUSH2 0x2022 PUSH1 0x0 DUP1 PUSH20 0xFFFFFFFFFFFFFFFFFFFFFFFFFFFFFFFFFFFFFFFF AND PUSH20 0xFFFFFFFFFFFFFFFFFFFFFFFFFFFFFFFFFFFFFFFF AND DUP2 MSTORE PUSH1 0x20 ADD SWAP1 DUP2 MSTORE PUSH1 0x20 ADD PUSH1 0x0 KECCAK256 SLOAD SWAP1 POP PUSH1 0x0 PUSH2 0x2022 PUSH1 0x0 DUP5 PUSH20 0xFFFFFFFFFFFFFFFFFFFFFFFFFFFFFFFFFFFFFFFF AND PUSH20 0xFFFFFFFFFFFFFFFFFFFFFFFFFFFFFFFFFFFFFFFF AND DUP2 MSTORE PUSH1 0x20 ADD SWAP1 DUP2 MSTORE PUSH1 0x20 ADD PUSH1 0x0 KECCAK256 SLOAD EQ PUSH2 0x5FD2 JUMPI PUSH2 0x2022 PUSH1 0x0 DUP4 PUSH20 0xFFFFFFFFFFFFFFFFFFFFFFFFFFFFFFFFFFFFFFFF AND PUSH20 0xFFFFFFFFFFFFFFFFFFFFFFFFFFFFFFFFFFFFFFFF AND DUP2 MSTORE PUSH1 0x20 ADD SWAP1 DUP2 MSTORE PUSH1 0x20 ADD PUSH1 0x0 KECCAK256 SLOAD SWAP1 POP JUMPDEST PUSH1 0x0 DUP2 EQ PUSH2 0x6024 JUMPI PUSH2 0x6023 PUSH2 0x4B1 PUSH1 0x0 SWAP1 SLOAD SWAP1 PUSH2 0x100 EXP SWAP1 DIV PUSH20 0xFFFFFFFFFFFFFFFFFFFFFFFFFFFFFFFFFFFFFFFF AND DUP4 PUSH2 0x2710 DUP5 PUSH2 0xC85 SLOAD PUSH2 0x6014 SWAP2 SWAP1 PUSH2 0x96EB JUMP JUMPDEST PUSH2 0x601E SWAP2 SWAP1 PUSH2 0x975C JUMP JUMPDEST PUSH2 0x70CC JUMP JUMPDEST JUMPDEST POP JUMPDEST POP JUMP JUMPDEST PUSH1 0x0 CALLER SWAP1 POP SWAP1 JUMP JUMPDEST PUSH2 0x603B DUP3 DUP3 PUSH2 0x387B JUMP JUMPDEST ISZERO PUSH2 0x610F JUMPI PUSH1 0x0 PUSH1 0x97 PUSH1 0x0 DUP5 DUP2 MSTORE PUSH1 0x20 ADD SWAP1 DUP2 MSTORE PUSH1 0x20 ADD PUSH1 0x0 KECCAK256 PUSH1 0x0 ADD PUSH1 0x0 DUP4 PUSH20 0xFFFFFFFFFFFFFFFFFFFFFFFFFFFFFFFFFFFFFFFF AND PUSH20 0xFFFFFFFFFFFFFFFFFFFFFFFFFFFFFFFFFFFFFFFF AND DUP2 MSTORE PUSH1 0x20 ADD SWAP1 DUP2 MSTORE PUSH1 0x20 ADD PUSH1 0x0 KECCAK256 PUSH1 0x0 PUSH2 0x100 EXP DUP2 SLOAD DUP2 PUSH1 0xFF MUL NOT AND SWAP1 DUP4 ISZERO ISZERO MUL OR SWAP1 SSTORE POP PUSH2 0x60B4 PUSH2 0x6029 JUMP JUMPDEST PUSH20 0xFFFFFFFFFFFFFFFFFFFFFFFFFFFFFFFFFFFFFFFF AND DUP2 PUSH20 0xFFFFFFFFFFFFFFFFFFFFFFFFFFFFFFFFFFFFFFFF AND DUP4 PUSH32 0xF6391F5C32D9C69D2A47EA670B442974B53935D1EDC7FD64EB21E047A839171B PUSH1 0x40 MLOAD PUSH1 0x40 MLOAD DUP1 SWAP2 SUB SWAP1 LOG4 JUMPDEST POP POP JUMP JUMPDEST TIMESTAMP PUSH2 0x107B PUSH1 0x0 DUP4 DUP2 MSTORE PUSH1 0x20 ADD SWAP1 DUP2 MSTORE PUSH1 0x20 ADD PUSH1 0x0 KECCAK256 PUSH1 0x1 ADD DUP2 SWAP1 SSTORE POP POP JUMP JUMPDEST PUSH1 0x0 DUP1 PUSH2 0x107B PUSH1 0x0 DUP6 DUP2 MSTORE PUSH1 0x20 ADD SWAP1 DUP2 MSTORE PUSH1 0x20 ADD PUSH1 0x0 KECCAK256 PUSH1 0x1 ADD SLOAD SWAP1 POP PUSH32 0xFFFFFFFFFFFFFFFFFFFFFFFFFFFFFFFFFFFFFFFFFFFFFFFFFFFFFFFFFFFFFFFF DUP2 SUB PUSH2 0x61A8 JUMPI PUSH1 0x40 MLOAD PUSH32 0x1FDA338200000000000000000000000000000000000000000000000000000000 DUP2 MSTORE PUSH1 0x4 ADD PUSH1 0x40 MLOAD DUP1 SWAP2 SUB SWAP1 REVERT JUMPDEST PUSH1 0x0 DUP1 DUP5 EQ PUSH2 0x61B7 JUMPI DUP4 PUSH2 0x61BC JUMP JUMPDEST PUSH2 0xC84 SLOAD JUMPDEST SWAP1 POP PUSH32 0xFFFFFFFFFFFFFFFFFFFFFFFFFFFFFFFFFFFFFFFFFFFFFFFFFFFFFFFFFFFFFFFF DUP2 SUB PUSH2 0x620D JUMPI PUSH32 0xFFFFFFFFFFFFFFFFFFFFFFFFFFFFFFFFFFFFFFFFFFFFFFFFFFFFFFFFFFFFFFFF SWAP3 POP PUSH2 0x6238 JUMP JUMPDEST TIMESTAMP DUP3 GT ISZERO PUSH2 0x6228 JUMPI DUP1 DUP3 PUSH2 0x6221 SWAP2 SWAP1 PUSH2 0x946E JUMP JUMPDEST SWAP3 POP PUSH2 0x6237 JUMP JUMPDEST DUP1 TIMESTAMP PUSH2 0x6234 SWAP2 SWAP1 PUSH2 0x946E JUMP JUMPDEST SWAP3 POP JUMPDEST JUMPDEST DUP3 PUSH2 0x107B PUSH1 0x0 DUP8 DUP2 MSTORE PUSH1 0x20 ADD SWAP1 DUP2 MSTORE PUSH1 0x20 ADD PUSH1 0x0 KECCAK256 PUSH1 0x1 ADD DUP2 SWAP1 SSTORE POP DUP5 PUSH32 0x3CA112768FF7861E008ACE1C11570C52E404C043E585545B5957A1E20961DDE3 DUP5 PUSH1 0x40 MLOAD PUSH2 0x6284 SWAP2 SWAP1 PUSH2 0x8361 JUMP JUMPDEST PUSH1 0x40 MLOAD DUP1 SWAP2 SUB SWAP1 LOG2 PUSH1 0x0 PUSH20 0xFFFFFFFFFFFFFFFFFFFFFFFFFFFFFFFFFFFFFFFF AND PUSH2 0xC90 PUSH1 0x0 SWAP1 SLOAD SWAP1 PUSH2 0x100 EXP SWAP1 DIV PUSH20 0xFFFFFFFFFFFFFFFFFFFFFFFFFFFFFFFFFFFFFFFF AND PUSH20 0xFFFFFFFFFFFFFFFFFFFFFFFFFFFFFFFFFFFFFFFF AND EQ PUSH2 0x6378 JUMPI PUSH2 0xC90 PUSH1 0x0 SWAP1 SLOAD SWAP1 PUSH2 0x100 EXP SWAP1 DIV PUSH20 0xFFFFFFFFFFFFFFFFFFFFFFFFFFFFFFFFFFFFFFFF AND PUSH20 0xFFFFFFFFFFFFFFFFFFFFFFFFFFFFFFFFFFFFFFFF AND PUSH4 0x16B9680 DUP7 CALLER DUP7 DUP7 PUSH1 0x40 MLOAD DUP6 PUSH4 0xFFFFFFFF AND PUSH1 0xE0 SHL DUP2 MSTORE PUSH1 0x4 ADD PUSH2 0x6345 SWAP5 SWAP4 SWAP3 SWAP2 SWAP1 PUSH2 0xA2E6 JUMP JUMPDEST PUSH1 0x0 PUSH1 0x40 MLOAD DUP1 DUP4 SUB DUP2 PUSH1 0x0 DUP8 DUP1 EXTCODESIZE ISZERO DUP1 ISZERO PUSH2 0x635F JUMPI PUSH1 0x0 DUP1 REVERT JUMPDEST POP GAS CALL ISZERO DUP1 ISZERO PUSH2 0x6373 JUMPI RETURNDATASIZE PUSH1 0x0 DUP1 RETURNDATACOPY RETURNDATASIZE PUSH1 0x0 REVERT JUMPDEST POP POP POP POP JUMPDEST POP POP SWAP3 SWAP2 POP POP JUMP JUMPDEST PUSH1 0x0 PUSH2 0x638B DUP4 PUSH2 0x28C1 JUMP JUMPDEST SWAP1 POP PUSH2 0x6396 DUP4 PUSH2 0x6113 JUMP JUMPDEST CALLER PUSH20 0xFFFFFFFFFFFFFFFFFFFFFFFFFFFFFFFFFFFFFFFF AND DUP2 PUSH20 0xFFFFFFFFFFFFFFFFFFFFFFFFFFFFFFFFFFFFFFFF AND DUP5 PUSH32 0xA7068A9989857441C039A14A42B67ED71DD1FCFE5A9B17CC87B252E47BCE528 DUP6 PUSH1 0x40 MLOAD PUSH2 0x63F4 SWAP2 SWAP1 PUSH2 0x8361 JUMP JUMPDEST PUSH1 0x40 MLOAD DUP1 SWAP2 SUB SWAP1 LOG4 PUSH1 0x0 DUP3 GT ISZERO PUSH2 0x6434 JUMPI PUSH2 0x6433 PUSH2 0x4B1 PUSH1 0x0 SWAP1 SLOAD SWAP1 PUSH2 0x100 EXP SWAP1 DIV PUSH20 0xFFFFFFFFFFFFFFFFFFFFFFFFFFFFFFFFFFFFFFFF AND DUP3 DUP5 PUSH2 0x70CC JUMP JUMPDEST JUMPDEST PUSH1 0x0 PUSH2 0x2020 PUSH1 0x0 DUP6 DUP2 MSTORE PUSH1 0x20 ADD SWAP1 DUP2 MSTORE PUSH1 0x20 ADD PUSH1 0x0 KECCAK256 DUP2 SWAP1 SSTORE POP PUSH1 0x0 PUSH2 0x201F PUSH1 0x0 DUP6 DUP2 MSTORE PUSH1 0x20 ADD SWAP1 DUP2 MSTORE PUSH1 0x20 ADD PUSH1 0x0 KECCAK256 DUP2 SWAP1 SSTORE POP PUSH1 0x0 PUSH20 0xFFFFFFFFFFFFFFFFFFFFFFFFFFFFFFFFFFFFFFFF AND PUSH2 0xC8A PUSH1 0x0 SWAP1 SLOAD SWAP1 PUSH2 0x100 EXP SWAP1 DIV PUSH20 0xFFFFFFFFFFFFFFFFFFFFFFFFFFFFFFFFFFFFFFFF AND PUSH20 0xFFFFFFFFFFFFFFFFFFFFFFFFFFFFFFFFFFFFFFFF AND EQ PUSH2 0x6552 JUMPI PUSH2 0xC8A PUSH1 0x0 SWAP1 SLOAD SWAP1 PUSH2 0x100 EXP SWAP1 DIV PUSH20 0xFFFFFFFFFFFFFFFFFFFFFFFFFFFFFFFFFFFFFFFF AND PUSH20 0xFFFFFFFFFFFFFFFFFFFFFFFFFFFFFFFFFFFFFFFF AND PUSH4 0xB499B6C5 CALLER DUP4 DUP6 PUSH1 0x40 MLOAD DUP5 PUSH4 0xFFFFFFFF AND PUSH1 0xE0 SHL DUP2 MSTORE PUSH1 0x4 ADD PUSH2 0x651F SWAP4 SWAP3 SWAP2 SWAP1 PUSH2 0xA34C JUMP JUMPDEST PUSH1 0x0 PUSH1 0x40 MLOAD DUP1 DUP4 SUB DUP2 PUSH1 0x0 DUP8 DUP1 EXTCODESIZE ISZERO DUP1 ISZERO PUSH2 0x6539 JUMPI PUSH1 0x0 DUP1 REVERT JUMPDEST POP GAS CALL ISZERO DUP1 ISZERO PUSH2 0x654D JUMPI RETURNDATASIZE PUSH1 0x0 DUP1 RETURNDATACOPY RETURNDATASIZE PUSH1 0x0 REVERT JUMPDEST POP POP POP POP JUMPDEST POP POP POP JUMP JUMPDEST PUSH1 0x0 DUP1 DUP3 PUSH20 0xFFFFFFFFFFFFFFFFFFFFFFFFFFFFFFFFFFFFFFFF AND EXTCODESIZE GT SWAP1 POP SWAP2 SWAP1 POP JUMP JUMPDEST PUSH2 0x6583 DUP2 PUSH2 0x6907 JUMP JUMPDEST DUP1 PUSH2 0x4B1 PUSH1 0x0 PUSH2 0x100 EXP DUP2 SLOAD DUP2 PUSH20 0xFFFFFFFFFFFFFFFFFFFFFFFFFFFFFFFFFFFFFFFF MUL NOT AND SWAP1 DUP4 PUSH20 0xFFFFFFFFFFFFFFFFFFFFFFFFFFFFFFFFFFFFFFFF AND MUL OR SWAP1 SSTORE POP POP JUMP JUMPDEST CALLER PUSH2 0xC83 PUSH1 0x0 PUSH2 0x100 EXP DUP2 SLOAD DUP2 PUSH20 0xFFFFFFFFFFFFFFFFFFFFFFFFFFFFFFFFFFFFFFFF MUL NOT AND SWAP1 DUP4 PUSH20 0xFFFFFFFFFFFFFFFFFFFFFFFFFFFFFFFFFFFFFFFF AND MUL OR SWAP1 SSTORE POP DUP3 PUSH2 0xC84 DUP2 SWAP1 SSTORE POP DUP2 PUSH2 0xC85 DUP2 SWAP1 SSTORE POP DUP1 PUSH2 0xC86 DUP2 SWAP1 SSTORE POP PUSH2 0x662A PUSH2 0x44D9 JUMP JUMPDEST PUSH2 0xFFFF AND PUSH2 0xC8D DUP2 SWAP1 SSTORE POP PUSH1 0x1 PUSH2 0xC8E DUP2 SWAP1 SSTORE POP POP POP POP POP JUMP JUMPDEST PUSH2 0x664C PUSH2 0x7644 JUMP JUMPDEST DUP2 DUP2 PUSH2 0x1463 SWAP2 DUP3 PUSH2 0x665E SWAP3 SWAP2 SWAP1 PUSH2 0xA04E JUMP JUMPDEST POP PUSH2 0x666F PUSH4 0x5B5E139F PUSH1 0xE0 SHL PUSH2 0x67DE JUMP JUMPDEST POP POP JUMP JUMPDEST PUSH2 0x6683 PUSH4 0x780E9D63 PUSH1 0xE0 SHL PUSH2 0x67DE JUMP JUMPDEST JUMP JUMPDEST PUSH2 0x3E8 PUSH2 0x27F0 DUP2 SWAP1 SSTORE POP JUMP JUMPDEST PUSH2 0x66BB PUSH32 0xB89CDD26CDDD51301940BF2715F765B626B8A5A9E2681AC62DC83CC2DB2530C0 DUP1 PUSH2 0x7695 JUMP JUMPDEST PUSH2 0x6705 PUSH32 0xB309C40027C81D382C3B58D8DE24207A34B27E1DB369B1434E4A11311F154B5E PUSH32 0xB89CDD26CDDD51301940BF2715F765B626B8A5A9E2681AC62DC83CC2DB2530C0 PUSH2 0x7695 JUMP JUMPDEST PUSH2 0x670E DUP2 PUSH2 0x3F4C JUMP JUMPDEST PUSH2 0x673D JUMPI PUSH2 0x673C PUSH32 0xB89CDD26CDDD51301940BF2715F765B626B8A5A9E2681AC62DC83CC2DB2530C0 DUP3 PUSH2 0x76F1 JUMP JUMPDEST JUMPDEST PUSH2 0x6767 PUSH32 0xB309C40027C81D382C3B58D8DE24207A34B27E1DB369B1434E4A11311F154B5E DUP3 PUSH2 0x387B JUMP JUMPDEST PUSH2 0x6796 JUMPI PUSH2 0x6795 PUSH32 0xB309C40027C81D382C3B58D8DE24207A34B27E1DB369B1434E4A11311F154B5E DUP3 PUSH2 0x76F1 JUMP JUMPDEST JUMPDEST POP JUMP JUMPDEST DUP1 PUSH2 0x2BDA PUSH1 0x0 PUSH2 0x100 EXP DUP2 SLOAD DUP2 PUSH20 0xFFFFFFFFFFFFFFFFFFFFFFFFFFFFFFFFFFFFFFFF MUL NOT AND SWAP1 DUP4 PUSH20 0xFFFFFFFFFFFFFFFFFFFFFFFFFFFFFFFFFFFFFFFF AND MUL OR SWAP1 SSTORE POP POP JUMP JUMPDEST PUSH4 0xFFFFFFFF PUSH1 0xE0 SHL DUP2 PUSH28 0xFFFFFFFFFFFFFFFFFFFFFFFFFFFFFFFFFFFFFFFFFFFFFFFFFFFFFFFF NOT AND SUB PUSH2 0x6846 JUMPI PUSH1 0x40 MLOAD PUSH32 0x8C379A000000000000000000000000000000000000000000000000000000000 DUP2 MSTORE PUSH1 0x4 ADD PUSH2 0x683D SWAP1 PUSH2 0xA3CF JUMP JUMPDEST PUSH1 0x40 MLOAD DUP1 SWAP2 SUB SWAP1 REVERT JUMPDEST PUSH1 0x1 PUSH1 0x65 PUSH1 0x0 DUP4 PUSH28 0xFFFFFFFFFFFFFFFFFFFFFFFFFFFFFFFFFFFFFFFFFFFFFFFFFFFFFFFF NOT AND PUSH28 0xFFFFFFFFFFFFFFFFFFFFFFFFFFFFFFFFFFFFFFFFFFFFFFFFFFFFFFFF NOT AND DUP2 MSTORE PUSH1 0x20 ADD SWAP1 DUP2 MSTORE PUSH1 0x20 ADD PUSH1 0x0 KECCAK256 PUSH1 0x0 PUSH2 0x100 EXP DUP2 SLOAD DUP2 PUSH1 0xFF MUL NOT AND SWAP1 DUP4 ISZERO ISZERO MUL OR SWAP1 SSTORE POP POP JUMP JUMPDEST PUSH2 0x2710 PUSH2 0x2407 SLOAD LT ISZERO DUP1 ISZERO PUSH2 0x68CE JUMPI POP PUSH2 0x68CC CALLER PUSH2 0x3F4C JUMP JUMPDEST ISZERO JUMPDEST ISZERO PUSH2 0x6905 JUMPI PUSH1 0x40 MLOAD PUSH32 0x8FC868F400000000000000000000000000000000000000000000000000000000 DUP2 MSTORE PUSH1 0x4 ADD PUSH1 0x40 MLOAD DUP1 SWAP2 SUB SWAP1 REVERT JUMPDEST JUMP JUMPDEST PUSH1 0x0 PUSH20 0xFFFFFFFFFFFFFFFFFFFFFFFFFFFFFFFFFFFFFFFF AND DUP2 PUSH20 0xFFFFFFFFFFFFFFFFFFFFFFFFFFFFFFFFFFFFFFFF AND EQ ISZERO DUP1 ISZERO PUSH2 0x69B2 JUMPI POP PUSH1 0x0 DUP2 PUSH20 0xFFFFFFFFFFFFFFFFFFFFFFFFFFFFFFFFFFFFFFFF AND PUSH4 0x18160DDD PUSH1 0x40 MLOAD DUP2 PUSH4 0xFFFFFFFF AND PUSH1 0xE0 SHL DUP2 MSTORE PUSH1 0x4 ADD PUSH1 0x20 PUSH1 0x40 MLOAD DUP1 DUP4 SUB DUP2 DUP7 GAS STATICCALL ISZERO DUP1 ISZERO PUSH2 0x698C JUMPI RETURNDATASIZE PUSH1 0x0 DUP1 RETURNDATACOPY RETURNDATASIZE PUSH1 0x0 REVERT JUMPDEST POP POP POP POP PUSH1 0x40 MLOAD RETURNDATASIZE PUSH1 0x1F NOT PUSH1 0x1F DUP3 ADD AND DUP3 ADD DUP1 PUSH1 0x40 MSTORE POP DUP2 ADD SWAP1 PUSH2 0x69B0 SWAP2 SWAP1 PUSH2 0x93E1 JUMP JUMPDEST LT JUMPDEST ISZERO PUSH2 0x69E9 JUMPI PUSH1 0x40 MLOAD PUSH32 0xD0995CF200000000000000000000000000000000000000000000000000000000 DUP2 MSTORE PUSH1 0x4 ADD PUSH1 0x40 MLOAD DUP1 SWAP2 SUB SWAP1 REVERT JUMPDEST POP JUMP JUMPDEST DUP1 PUSH20 0xFFFFFFFFFFFFFFFFFFFFFFFFFFFFFFFFFFFFFFFF AND PUSH2 0x1078 PUSH1 0x0 DUP5 DUP2 MSTORE PUSH1 0x20 ADD SWAP1 DUP2 MSTORE PUSH1 0x20 ADD PUSH1 0x0 KECCAK256 PUSH1 0x0 SWAP1 SLOAD SWAP1 PUSH2 0x100 EXP SWAP1 DIV PUSH20 0xFFFFFFFFFFFFFFFFFFFFFFFFFFFFFFFFFFFFFFFF AND PUSH20 0xFFFFFFFFFFFFFFFFFFFFFFFFFFFFFFFFFFFFFFFF AND EQ PUSH2 0x6AF4 JUMPI DUP1 PUSH2 0x1078 PUSH1 0x0 DUP5 DUP2 MSTORE PUSH1 0x20 ADD SWAP1 DUP2 MSTORE PUSH1 0x20 ADD PUSH1 0x0 KECCAK256 PUSH1 0x0 PUSH2 0x100 EXP DUP2 SLOAD DUP2 PUSH20 0xFFFFFFFFFFFFFFFFFFFFFFFFFFFFFFFFFFFFFFFF MUL NOT AND SWAP1 DUP4 PUSH20 0xFFFFFFFFFFFFFFFFFFFFFFFFFFFFFFFFFFFFFFFF AND MUL OR SWAP1 SSTORE POP PUSH2 0x6AAF DUP3 PUSH2 0x74FF JUMP JUMPDEST DUP1 PUSH20 0xFFFFFFFFFFFFFFFFFFFFFFFFFFFFFFFFFFFFFFFF AND DUP3 PUSH32 0x9D2895C45A420624DE863A2F437B022D879F457BF7A829044055A10C5A6FD5E3 PUSH1 0x40 MLOAD PUSH1 0x40 MLOAD DUP1 SWAP2 SUB SWAP1 LOG3 JUMPDEST POP POP JUMP JUMPDEST PUSH1 0x0 PUSH2 0x6B19 DUP5 PUSH20 0xFFFFFFFFFFFFFFFFFFFFFFFFFFFFFFFFFFFFFFFF AND PUSH2 0x6557 JUMP JUMPDEST PUSH2 0x6B26 JUMPI PUSH1 0x1 SWAP1 POP PUSH2 0x6BF8 JUMP JUMPDEST PUSH1 0x0 DUP5 PUSH20 0xFFFFFFFFFFFFFFFFFFFFFFFFFFFFFFFFFFFFFFFF AND PUSH4 0x150B7A02 CALLER DUP9 DUP8 DUP8 PUSH1 0x40 MLOAD DUP6 PUSH4 0xFFFFFFFF AND PUSH1 0xE0 SHL DUP2 MSTORE PUSH1 0x4 ADD PUSH2 0x6B67 SWAP5 SWAP4 SWAP3 SWAP2 SWAP1 PUSH2 0xA3EF JUMP JUMPDEST PUSH1 0x20 PUSH1 0x40 MLOAD DUP1 DUP4 SUB DUP2 PUSH1 0x0 DUP8 GAS CALL ISZERO DUP1 ISZERO PUSH2 0x6B86 JUMPI RETURNDATASIZE PUSH1 0x0 DUP1 RETURNDATACOPY RETURNDATASIZE PUSH1 0x0 REVERT JUMPDEST POP POP POP POP PUSH1 0x40 MLOAD RETURNDATASIZE PUSH1 0x1F NOT PUSH1 0x1F DUP3 ADD AND DUP3 ADD DUP1 PUSH1 0x40 MSTORE POP DUP2 ADD SWAP1 PUSH2 0x6BAA SWAP2 SWAP1 PUSH2 0xA450 JUMP JUMPDEST SWAP1 POP PUSH4 0x150B7A02 PUSH1 0xE0 SHL PUSH28 0xFFFFFFFFFFFFFFFFFFFFFFFFFFFFFFFFFFFFFFFFFFFFFFFFFFFFFFFF NOT AND DUP2 PUSH28 0xFFFFFFFFFFFFFFFFFFFFFFFFFFFFFFFFFFFFFFFFFFFFFFFFFFFFFFFF NOT AND EQ SWAP2 POP POP JUMPDEST SWAP5 SWAP4 POP POP POP POP JUMP JUMPDEST PUSH1 0x60 PUSH1 0x0 DUP3 PUSH20 0xFFFFFFFFFFFFFFFFFFFFFFFFFFFFFFFFFFFFFFFF AND PUSH1 0x0 SHL SWAP1 POP PUSH1 0x0 PUSH1 0x40 MLOAD DUP1 PUSH1 0x40 ADD PUSH1 0x40 MSTORE DUP1 PUSH1 0x10 DUP2 MSTORE PUSH1 0x20 ADD PUSH32 0x3031323334353637383961626364656600000000000000000000000000000000 DUP2 MSTORE POP SWAP1 POP PUSH1 0x0 PUSH1 0x2A PUSH8 0xFFFFFFFFFFFFFFFF DUP2 GT ISZERO PUSH2 0x6C77 JUMPI PUSH2 0x6C76 PUSH2 0x81B8 JUMP JUMPDEST JUMPDEST PUSH1 0x40 MLOAD SWAP1 DUP1 DUP3 MSTORE DUP1 PUSH1 0x1F ADD PUSH1 0x1F NOT AND PUSH1 0x20 ADD DUP3 ADD PUSH1 0x40 MSTORE DUP1 ISZERO PUSH2 0x6CA9 JUMPI DUP2 PUSH1 0x20 ADD PUSH1 0x1 DUP3 MUL DUP1 CALLDATASIZE DUP4 CALLDATACOPY DUP1 DUP3 ADD SWAP2 POP POP SWAP1 POP JUMPDEST POP SWAP1 POP PUSH32 0x3000000000000000000000000000000000000000000000000000000000000000 DUP2 PUSH1 0x0 DUP2 MLOAD DUP2 LT PUSH2 0x6CE1 JUMPI PUSH2 0x6CE0 PUSH2 0x94A2 JUMP JUMPDEST JUMPDEST PUSH1 0x20 ADD ADD SWAP1 PUSH31 0xFFFFFFFFFFFFFFFFFFFFFFFFFFFFFFFFFFFFFFFFFFFFFFFFFFFFFFFFFFFFFF NOT AND SWAP1 DUP2 PUSH1 0x0 BYTE SWAP1 MSTORE8 POP PUSH32 0x7800000000000000000000000000000000000000000000000000000000000000 DUP2 PUSH1 0x1 DUP2 MLOAD DUP2 LT PUSH2 0x6D45 JUMPI PUSH2 0x6D44 PUSH2 0x94A2 JUMP JUMPDEST JUMPDEST PUSH1 0x20 ADD ADD SWAP1 PUSH31 0xFFFFFFFFFFFFFFFFFFFFFFFFFFFFFFFFFFFFFFFFFFFFFFFFFFFFFFFFFFFFFF NOT AND SWAP1 DUP2 PUSH1 0x0 BYTE SWAP1 MSTORE8 POP PUSH1 0x0 JUMPDEST PUSH1 0x14 DUP2 LT ISZERO PUSH2 0x6EFF JUMPI DUP3 PUSH1 0x4 DUP6 PUSH1 0xC DUP5 PUSH2 0x6D91 SWAP2 SWAP1 PUSH2 0x946E JUMP JUMPDEST PUSH1 0x20 DUP2 LT PUSH2 0x6DA2 JUMPI PUSH2 0x6DA1 PUSH2 0x94A2 JUMP JUMPDEST JUMPDEST BYTE PUSH1 0xF8 SHL PUSH31 0xFFFFFFFFFFFFFFFFFFFFFFFFFFFFFFFFFFFFFFFFFFFFFFFFFFFFFFFFFFFFFF NOT AND SWAP1 SHR PUSH1 0xF8 SHR PUSH1 0xFF AND DUP2 MLOAD DUP2 LT PUSH2 0x6DE1 JUMPI PUSH2 0x6DE0 PUSH2 0x94A2 JUMP JUMPDEST JUMPDEST PUSH1 0x20 ADD ADD MLOAD PUSH1 0xF8 SHR PUSH1 0xF8 SHL DUP3 PUSH1 0x2 DUP4 PUSH2 0x6DFA SWAP2 SWAP1 PUSH2 0x96EB JUMP JUMPDEST PUSH1 0x2 PUSH2 0x6E06 SWAP2 SWAP1 PUSH2 0x946E JUMP JUMPDEST DUP2 MLOAD DUP2 LT PUSH2 0x6E17 JUMPI PUSH2 0x6E16 PUSH2 0x94A2 JUMP JUMPDEST JUMPDEST PUSH1 0x20 ADD ADD SWAP1 PUSH31 0xFFFFFFFFFFFFFFFFFFFFFFFFFFFFFFFFFFFFFFFFFFFFFFFFFFFFFFFFFFFFFF NOT AND SWAP1 DUP2 PUSH1 0x0 BYTE SWAP1 MSTORE8 POP DUP3 PUSH1 0xF PUSH1 0xF8 SHL DUP6 PUSH1 0xC DUP5 PUSH2 0x6E5A SWAP2 SWAP1 PUSH2 0x946E JUMP JUMPDEST PUSH1 0x20 DUP2 LT PUSH2 0x6E6B JUMPI PUSH2 0x6E6A PUSH2 0x94A2 JUMP JUMPDEST JUMPDEST BYTE PUSH1 0xF8 SHL AND PUSH1 0xF8 SHR PUSH1 0xFF AND DUP2 MLOAD DUP2 LT PUSH2 0x6E87 JUMPI PUSH2 0x6E86 PUSH2 0x94A2 JUMP JUMPDEST JUMPDEST PUSH1 0x20 ADD ADD MLOAD PUSH1 0xF8 SHR PUSH1 0xF8 SHL DUP3 PUSH1 0x2 DUP4 PUSH2 0x6EA0 SWAP2 SWAP1 PUSH2 0x96EB JUMP JUMPDEST PUSH1 0x3 PUSH2 0x6EAC SWAP2 SWAP1 PUSH2 0x946E JUMP JUMPDEST DUP2 MLOAD DUP2 LT PUSH2 0x6EBD JUMPI PUSH2 0x6EBC PUSH2 0x94A2 JUMP JUMPDEST JUMPDEST PUSH1 0x20 ADD ADD SWAP1 PUSH31 0xFFFFFFFFFFFFFFFFFFFFFFFFFFFFFFFFFFFFFFFFFFFFFFFFFFFFFFFFFFFFFF NOT AND SWAP1 DUP2 PUSH1 0x0 BYTE SWAP1 MSTORE8 POP DUP1 DUP1 PUSH2 0x6EF7 SWAP1 PUSH2 0x95E8 JUMP JUMPDEST SWAP2 POP POP PUSH2 0x6D77 JUMP JUMPDEST POP DUP1 SWAP4 POP POP POP POP SWAP2 SWAP1 POP JUMP JUMPDEST PUSH1 0x60 PUSH1 0x0 DUP3 SWAP1 POP PUSH1 0x0 DUP4 SUB PUSH2 0x6F58 JUMPI PUSH1 0x40 MLOAD DUP1 PUSH1 0x40 ADD PUSH1 0x40 MSTORE DUP1 PUSH1 0x1 DUP2 MSTORE PUSH1 0x20 ADD PUSH32 0x3000000000000000000000000000000000000000000000000000000000000000 DUP2 MSTORE POP SWAP2 POP POP PUSH2 0x7095 JUMP JUMPDEST PUSH1 0x0 DUP4 SWAP1 POP PUSH1 0x0 JUMPDEST PUSH1 0x0 DUP3 EQ PUSH2 0x6F8A JUMPI DUP1 DUP1 PUSH2 0x6F73 SWAP1 PUSH2 0x95E8 JUMP JUMPDEST SWAP2 POP POP PUSH1 0xA DUP3 PUSH2 0x6F83 SWAP2 SWAP1 PUSH2 0x975C JUMP JUMPDEST SWAP2 POP PUSH2 0x6F60 JUMP JUMPDEST PUSH1 0x0 DUP2 PUSH8 0xFFFFFFFFFFFFFFFF DUP2 GT ISZERO PUSH2 0x6FA6 JUMPI PUSH2 0x6FA5 PUSH2 0x81B8 JUMP JUMPDEST JUMPDEST PUSH1 0x40 MLOAD SWAP1 DUP1 DUP3 MSTORE DUP1 PUSH1 0x1F ADD PUSH1 0x1F NOT AND PUSH1 0x20 ADD DUP3 ADD PUSH1 0x40 MSTORE DUP1 ISZERO PUSH2 0x6FD8 JUMPI DUP2 PUSH1 0x20 ADD PUSH1 0x1 DUP3 MUL DUP1 CALLDATASIZE DUP4 CALLDATACOPY DUP1 DUP3 ADD SWAP2 POP POP SWAP1 POP JUMPDEST POP SWAP1 POP PUSH1 0x0 DUP3 SWAP1 POP JUMPDEST PUSH1 0x0 DUP6 EQ PUSH2 0x708C JUMPI PUSH1 0x1 DUP2 PUSH2 0x6FF6 SWAP2 SWAP1 PUSH2 0x9297 JUMP JUMPDEST SWAP1 POP PUSH1 0x0 PUSH1 0xA DUP1 DUP8 PUSH2 0x7008 SWAP2 SWAP1 PUSH2 0x975C JUMP JUMPDEST PUSH2 0x7012 SWAP2 SWAP1 PUSH2 0x96EB JUMP JUMPDEST DUP7 PUSH2 0x701D SWAP2 SWAP1 PUSH2 0x9297 JUMP JUMPDEST PUSH1 0x30 PUSH2 0x7029 SWAP2 SWAP1 PUSH2 0xA47D JUMP JUMPDEST SWAP1 POP PUSH1 0x0 DUP2 PUSH1 0xF8 SHL SWAP1 POP DUP1 DUP5 DUP5 DUP2 MLOAD DUP2 LT PUSH2 0x7047 JUMPI PUSH2 0x7046 PUSH2 0x94A2 JUMP JUMPDEST JUMPDEST PUSH1 0x20 ADD ADD SWAP1 PUSH31 0xFFFFFFFFFFFFFFFFFFFFFFFFFFFFFFFFFFFFFFFFFFFFFFFFFFFFFFFFFFFFFF NOT AND SWAP1 DUP2 PUSH1 0x0 BYTE SWAP1 MSTORE8 POP PUSH1 0xA DUP8 PUSH2 0x7083 SWAP2 SWAP1 PUSH2 0x975C JUMP JUMPDEST SWAP7 POP POP POP PUSH2 0x6FE1 JUMP JUMPDEST DUP2 SWAP6 POP POP POP POP POP POP JUMPDEST SWAP2 SWAP1 POP JUMP JUMPDEST PUSH1 0x60 DUP5 DUP5 DUP5 DUP5 PUSH1 0x40 MLOAD PUSH1 0x20 ADD PUSH2 0x70B3 SWAP5 SWAP4 SWAP3 SWAP2 SWAP1 PUSH2 0xA4EE JUMP JUMPDEST PUSH1 0x40 MLOAD PUSH1 0x20 DUP2 DUP4 SUB SUB DUP2 MSTORE SWAP1 PUSH1 0x40 MSTORE SWAP1 POP SWAP5 SWAP4 POP POP POP POP JUMP JUMPDEST PUSH1 0x0 DUP2 GT ISZERO PUSH2 0x716A JUMPI PUSH1 0x0 PUSH20 0xFFFFFFFFFFFFFFFFFFFFFFFFFFFFFFFFFFFFFFFF AND DUP4 PUSH20 0xFFFFFFFFFFFFFFFFFFFFFFFFFFFFFFFFFFFFFFFF AND SUB PUSH2 0x7137 JUMPI PUSH2 0x7132 DUP2 DUP4 PUSH20 0xFFFFFFFFFFFFFFFFFFFFFFFFFFFFFFFFFFFFFFFF AND PUSH2 0x76FF SWAP1 SWAP2 SWAP1 PUSH4 0xFFFFFFFF AND JUMP JUMPDEST PUSH2 0x7169 JUMP JUMPDEST PUSH1 0x0 DUP4 SWAP1 POP PUSH2 0x7167 DUP4 DUP4 DUP4 PUSH20 0xFFFFFFFFFFFFFFFFFFFFFFFFFFFFFFFFFFFFFFFF AND PUSH2 0x77F3 SWAP1 SWAP3 SWAP2 SWAP1 PUSH4 0xFFFFFFFF AND JUMP JUMPDEST POP JUMPDEST JUMPDEST POP POP POP JUMP JUMPDEST PUSH1 0x0 PUSH2 0x717A DUP3 PUSH2 0x7879 JUMP JUMPDEST SWAP1 POP SWAP2 SWAP1 POP JUMP JUMPDEST PUSH1 0x0 PUSH2 0x1076 PUSH1 0x0 DUP4 DUP2 MSTORE PUSH1 0x20 ADD SWAP1 DUP2 MSTORE PUSH1 0x20 ADD PUSH1 0x0 KECCAK256 PUSH1 0x0 SWAP1 SLOAD SWAP1 PUSH2 0x100 EXP SWAP1 DIV PUSH20 0xFFFFFFFFFFFFFFFFFFFFFFFFFFFFFFFFFFFFFFFF AND SWAP1 POP PUSH1 0x0 PUSH1 0x1 PUSH2 0x71C7 DUP4 PUSH2 0x32A8 JUMP JUMPDEST PUSH2 0x71D1 SWAP2 SWAP1 PUSH2 0x9297 JUMP JUMPDEST SWAP1 POP PUSH1 0x0 PUSH2 0x107D PUSH1 0x0 DUP6 DUP2 MSTORE PUSH1 0x20 ADD SWAP1 DUP2 MSTORE PUSH1 0x20 ADD PUSH1 0x0 KECCAK256 SLOAD SWAP1 POP DUP2 DUP2 EQ PUSH2 0x72BA JUMPI PUSH1 0x0 PUSH2 0x107C PUSH1 0x0 DUP6 PUSH20 0xFFFFFFFFFFFFFFFFFFFFFFFFFFFFFFFFFFFFFFFF AND PUSH20 0xFFFFFFFFFFFFFFFFFFFFFFFFFFFFFFFFFFFFFFFF AND DUP2 MSTORE PUSH1 0x20 ADD SWAP1 DUP2 MSTORE PUSH1 0x20 ADD PUSH1 0x0 KECCAK256 PUSH1 0x0 DUP5 DUP2 MSTORE PUSH1 0x20 ADD SWAP1 DUP2 MSTORE PUSH1 0x20 ADD PUSH1 0x0 KECCAK256 SLOAD SWAP1 POP DUP1 PUSH2 0x107C PUSH1 0x0 DUP7 PUSH20 0xFFFFFFFFFFFFFFFFFFFFFFFFFFFFFFFFFFFFFFFF AND PUSH20 0xFFFFFFFFFFFFFFFFFFFFFFFFFFFFFFFFFFFFFFFF AND DUP2 MSTORE PUSH1 0x20 ADD SWAP1 DUP2 MSTORE PUSH1 0x20 ADD PUSH1 0x0 KECCAK256 PUSH1 0x0 DUP5 DUP2 MSTORE PUSH1 0x20 ADD SWAP1 DUP2 MSTORE PUSH1 0x20 ADD PUSH1 0x0 KECCAK256 DUP2 SWAP1 SSTORE POP DUP2 PUSH2 0x107D PUSH1 0x0 DUP4 DUP2 MSTORE PUSH1 0x20 ADD SWAP1 DUP2 MSTORE PUSH1 0x20 ADD PUSH1 0x0 KECCAK256 DUP2 SWAP1 SSTORE POP POP JUMPDEST PUSH2 0x107C PUSH1 0x0 DUP5 PUSH20 0xFFFFFFFFFFFFFFFFFFFFFFFFFFFFFFFFFFFFFFFF AND PUSH20 0xFFFFFFFFFFFFFFFFFFFFFFFFFFFFFFFFFFFFFFFF AND DUP2 MSTORE PUSH1 0x20 ADD SWAP1 DUP2 MSTORE PUSH1 0x20 ADD PUSH1 0x0 KECCAK256 PUSH1 0x0 DUP4 DUP2 MSTORE PUSH1 0x20 ADD SWAP1 DUP2 MSTORE PUSH1 0x20 ADD PUSH1 0x0 KECCAK256 PUSH1 0x0 SWAP1 SSTORE PUSH1 0x1 PUSH2 0x731A DUP5 PUSH2 0x32A8 JUMP JUMPDEST SUB PUSH2 0x7339 JUMPI PUSH2 0x1077 PUSH1 0x0 DUP2 SLOAD DUP1 SWAP3 SWAP2 SWAP1 PUSH2 0x7333 SWAP1 PUSH2 0xA52C JUMP JUMPDEST SWAP2 SWAP1 POP SSTORE POP JUMPDEST PUSH1 0x1 PUSH2 0x107E PUSH1 0x0 DUP6 PUSH20 0xFFFFFFFFFFFFFFFFFFFFFFFFFFFFFFFFFFFFFFFF AND PUSH20 0xFFFFFFFFFFFFFFFFFFFFFFFFFFFFFFFFFFFFFFFF AND DUP2 MSTORE PUSH1 0x20 ADD SWAP1 DUP2 MSTORE PUSH1 0x20 ADD PUSH1 0x0 KECCAK256 PUSH1 0x0 DUP3 DUP3 SLOAD PUSH2 0x738A SWAP2 SWAP1 PUSH2 0x9297 JUMP JUMPDEST SWAP3 POP POP DUP2 SWAP1 SSTORE POP POP POP POP POP JUMP JUMPDEST PUSH1 0x0 PUSH2 0x73A2 DUP3 PUSH2 0x32A8 JUMP JUMPDEST SWAP1 POP PUSH2 0xC8E SLOAD DUP2 LT PUSH2 0x73E0 JUMPI PUSH1 0x40 MLOAD PUSH32 0x17ED864600000000000000000000000000000000000000000000000000000000 DUP2 MSTORE PUSH1 0x4 ADD PUSH1 0x40 MLOAD DUP1 SWAP2 SUB SWAP1 REVERT JUMPDEST DUP1 PUSH2 0x107D PUSH1 0x0 DUP6 DUP2 MSTORE PUSH1 0x20 ADD SWAP1 DUP2 MSTORE PUSH1 0x20 ADD PUSH1 0x0 KECCAK256 DUP2 SWAP1 SSTORE POP DUP3 PUSH2 0x107C PUSH1 0x0 DUP5 PUSH20 0xFFFFFFFFFFFFFFFFFFFFFFFFFFFFFFFFFFFFFFFF AND PUSH20 0xFFFFFFFFFFFFFFFFFFFFFFFFFFFFFFFFFFFFFFFF AND DUP2 MSTORE PUSH1 0x20 ADD SWAP1 DUP2 MSTORE PUSH1 0x20 ADD PUSH1 0x0 KECCAK256 PUSH1 0x0 DUP4 DUP2 MSTORE PUSH1 0x20 ADD SWAP1 DUP2 MSTORE PUSH1 0x20 ADD PUSH1 0x0 KECCAK256 DUP2 SWAP1 SSTORE POP DUP2 PUSH2 0x1076 PUSH1 0x0 DUP6 DUP2 MSTORE PUSH1 0x20 ADD SWAP1 DUP2 MSTORE PUSH1 0x20 ADD PUSH1 0x0 KECCAK256 PUSH1 0x0 PUSH2 0x100 EXP DUP2 SLOAD DUP2 PUSH20 0xFFFFFFFFFFFFFFFFFFFFFFFFFFFFFFFFFFFFFFFF MUL NOT AND SWAP1 DUP4 PUSH20 0xFFFFFFFFFFFFFFFFFFFFFFFFFFFFFFFFFFFFFFFF AND MUL OR SWAP1 SSTORE POP PUSH1 0x1 PUSH2 0x107E PUSH1 0x0 DUP5 PUSH20 0xFFFFFFFFFFFFFFFFFFFFFFFFFFFFFFFFFFFFFFFF AND PUSH20 0xFFFFFFFFFFFFFFFFFFFFFFFFFFFFFFFFFFFFFFFF AND DUP2 MSTORE PUSH1 0x20 ADD SWAP1 DUP2 MSTORE PUSH1 0x20 ADD PUSH1 0x0 KECCAK256 PUSH1 0x0 DUP3 DUP3 SLOAD PUSH2 0x74F3 SWAP2 SWAP1 PUSH2 0x946E JUMP JUMPDEST SWAP3 POP POP DUP2 SWAP1 SSTORE POP POP POP POP JUMP JUMPDEST PUSH1 0x0 PUSH20 0xFFFFFFFFFFFFFFFFFFFFFFFFFFFFFFFFFFFFFFFF AND PUSH2 0x1079 PUSH1 0x0 DUP4 DUP2 MSTORE PUSH1 0x20 ADD SWAP1 DUP2 MSTORE PUSH1 0x20 ADD PUSH1 0x0 KECCAK256 PUSH1 0x0 SWAP1 SLOAD SWAP1 PUSH2 0x100 EXP SWAP1 DIV PUSH20 0xFFFFFFFFFFFFFFFFFFFFFFFFFFFFFFFFFFFFFFFF AND PUSH20 0xFFFFFFFFFFFFFFFFFFFFFFFFFFFFFFFFFFFFFFFF AND EQ PUSH2 0x75BC JUMPI PUSH1 0x0 PUSH2 0x1079 PUSH1 0x0 DUP4 DUP2 MSTORE PUSH1 0x20 ADD SWAP1 DUP2 MSTORE PUSH1 0x20 ADD PUSH1 0x0 KECCAK256 PUSH1 0x0 PUSH2 0x100 EXP DUP2 SLOAD DUP2 PUSH20 0xFFFFFFFFFFFFFFFFFFFFFFFFFFFFFFFFFFFFFFFF MUL NOT AND SWAP1 DUP4 PUSH20 0xFFFFFFFFFFFFFFFFFFFFFFFFFFFFFFFFFFFFFFFF AND MUL OR SWAP1 SSTORE POP JUMPDEST POP JUMP JUMPDEST PUSH2 0x75C9 DUP3 DUP3 PUSH2 0x387B JUMP JUMPDEST PUSH2 0x7640 JUMPI PUSH2 0x75D6 DUP2 PUSH2 0x78F3 JUMP JUMPDEST PUSH2 0x75E4 DUP4 PUSH1 0x0 SHR PUSH1 0x20 PUSH2 0x7920 JUMP JUMPDEST PUSH1 0x40 MLOAD PUSH1 0x20 ADD PUSH2 0x75F5 SWAP3 SWAP2 SWAP1 PUSH2 0xA5ED JUMP JUMPDEST PUSH1 0x40 MLOAD PUSH1 0x20 DUP2 DUP4 SUB SUB DUP2 MSTORE SWAP1 PUSH1 0x40 MSTORE PUSH1 0x40 MLOAD PUSH32 0x8C379A000000000000000000000000000000000000000000000000000000000 DUP2 MSTORE PUSH1 0x4 ADD PUSH2 0x7637 SWAP2 SWAP1 PUSH2 0x8097 JUMP JUMPDEST PUSH1 0x40 MLOAD DUP1 SWAP2 SUB SWAP1 REVERT JUMPDEST POP POP JUMP JUMPDEST PUSH1 0x0 PUSH1 0x1 SWAP1 SLOAD SWAP1 PUSH2 0x100 EXP SWAP1 DIV PUSH1 0xFF AND PUSH2 0x7693 JUMPI PUSH1 0x40 MLOAD PUSH32 0x8C379A000000000000000000000000000000000000000000000000000000000 DUP2 MSTORE PUSH1 0x4 ADD PUSH2 0x768A SWAP1 PUSH2 0xA699 JUMP JUMPDEST PUSH1 0x40 MLOAD DUP1 SWAP2 SUB SWAP1 REVERT JUMPDEST JUMP JUMPDEST PUSH1 0x0 PUSH2 0x76A0 DUP4 PUSH2 0x1A36 JUMP JUMPDEST SWAP1 POP DUP2 PUSH1 0x97 PUSH1 0x0 DUP6 DUP2 MSTORE PUSH1 0x20 ADD SWAP1 DUP2 MSTORE PUSH1 0x20 ADD PUSH1 0x0 KECCAK256 PUSH1 0x1 ADD DUP2 SWAP1 SSTORE POP DUP2 DUP2 DUP5 PUSH32 0xBD79B86FFE0AB8E8776151514217CD7CACD52C909F66475C3AF44E129F0B00FF PUSH1 0x40 MLOAD PUSH1 0x40 MLOAD DUP1 SWAP2 SUB SWAP1 LOG4 POP POP POP JUMP JUMPDEST PUSH2 0x76FB DUP3 DUP3 PUSH2 0x5509 JUMP JUMPDEST POP POP JUMP JUMPDEST DUP1 SELFBALANCE LT ISZERO PUSH2 0x7742 JUMPI PUSH1 0x40 MLOAD PUSH32 0x8C379A000000000000000000000000000000000000000000000000000000000 DUP2 MSTORE PUSH1 0x4 ADD PUSH2 0x7739 SWAP1 PUSH2 0xA705 JUMP JUMPDEST PUSH1 0x40 MLOAD DUP1 SWAP2 SUB SWAP1 REVERT JUMPDEST PUSH1 0x0 DUP3 PUSH20 0xFFFFFFFFFFFFFFFFFFFFFFFFFFFFFFFFFFFFFFFF AND DUP3 PUSH1 0x40 MLOAD PUSH2 0x7768 SWAP1 PUSH2 0xA756 JUMP JUMPDEST PUSH1 0x0 PUSH1 0x40 MLOAD DUP1 DUP4 SUB DUP2 DUP6 DUP8 GAS CALL SWAP3 POP POP POP RETURNDATASIZE DUP1 PUSH1 0x0 DUP2 EQ PUSH2 0x77A5 JUMPI PUSH1 0x40 MLOAD SWAP2 POP PUSH1 0x1F NOT PUSH1 0x3F RETURNDATASIZE ADD AND DUP3 ADD PUSH1 0x40 MSTORE RETURNDATASIZE DUP3 MSTORE RETURNDATASIZE PUSH1 0x0 PUSH1 0x20 DUP5 ADD RETURNDATACOPY PUSH2 0x77AA JUMP JUMPDEST PUSH1 0x60 SWAP2 POP JUMPDEST POP POP SWAP1 POP DUP1 PUSH2 0x77EE JUMPI PUSH1 0x40 MLOAD PUSH32 0x8C379A000000000000000000000000000000000000000000000000000000000 DUP2 MSTORE PUSH1 0x4 ADD PUSH2 0x77E5 SWAP1 PUSH2 0xA7DD JUMP JUMPDEST PUSH1 0x40 MLOAD DUP1 SWAP2 SUB SWAP1 REVERT JUMPDEST POP POP POP JUMP JUMPDEST PUSH2 0x7874 DUP4 PUSH4 0xA9059CBB PUSH1 0xE0 SHL DUP5 DUP5 PUSH1 0x40 MLOAD PUSH1 0x24 ADD PUSH2 0x7812 SWAP3 SWAP2 SWAP1 PUSH2 0xA7FD JUMP JUMPDEST PUSH1 0x40 MLOAD PUSH1 0x20 DUP2 DUP4 SUB SUB DUP2 MSTORE SWAP1 PUSH1 0x40 MSTORE SWAP1 PUSH28 0xFFFFFFFFFFFFFFFFFFFFFFFFFFFFFFFFFFFFFFFFFFFFFFFFFFFFFFFF NOT AND PUSH1 0x20 DUP3 ADD DUP1 MLOAD PUSH28 0xFFFFFFFFFFFFFFFFFFFFFFFFFFFFFFFFFFFFFFFFFFFFFFFFFFFFFFFF DUP4 DUP2 DUP4 AND OR DUP4 MSTORE POP POP POP POP PUSH2 0x7B5C JUMP JUMPDEST POP POP POP JUMP JUMPDEST PUSH1 0x0 PUSH32 0x7965DB0B00000000000000000000000000000000000000000000000000000000 PUSH28 0xFFFFFFFFFFFFFFFFFFFFFFFFFFFFFFFFFFFFFFFFFFFFFFFFFFFFFFFF NOT AND DUP3 PUSH28 0xFFFFFFFFFFFFFFFFFFFFFFFFFFFFFFFFFFFFFFFFFFFFFFFFFFFFFFFF NOT AND EQ DUP1 PUSH2 0x78EC JUMPI POP PUSH2 0x78EB DUP3 PUSH2 0x7C23 JUMP JUMPDEST JUMPDEST SWAP1 POP SWAP2 SWAP1 POP JUMP JUMPDEST PUSH1 0x60 PUSH2 0x7919 DUP3 PUSH20 0xFFFFFFFFFFFFFFFFFFFFFFFFFFFFFFFFFFFFFFFF AND PUSH1 0x14 PUSH1 0xFF AND PUSH2 0x7920 JUMP JUMPDEST SWAP1 POP SWAP2 SWAP1 POP JUMP JUMPDEST PUSH1 0x60 PUSH1 0x0 PUSH1 0x2 DUP4 PUSH1 0x2 PUSH2 0x7933 SWAP2 SWAP1 PUSH2 0x96EB JUMP JUMPDEST PUSH2 0x793D SWAP2 SWAP1 PUSH2 0x946E JUMP JUMPDEST PUSH8 0xFFFFFFFFFFFFFFFF DUP2 GT ISZERO PUSH2 0x7956 JUMPI PUSH2 0x7955 PUSH2 0x81B8 JUMP JUMPDEST JUMPDEST PUSH1 0x40 MLOAD SWAP1 DUP1 DUP3 MSTORE DUP1 PUSH1 0x1F ADD PUSH1 0x1F NOT AND PUSH1 0x20 ADD DUP3 ADD PUSH1 0x40 MSTORE DUP1 ISZERO PUSH2 0x7988 JUMPI DUP2 PUSH1 0x20 ADD PUSH1 0x1 DUP3 MUL DUP1 CALLDATASIZE DUP4 CALLDATACOPY DUP1 DUP3 ADD SWAP2 POP POP SWAP1 POP JUMPDEST POP SWAP1 POP PUSH32 0x3000000000000000000000000000000000000000000000000000000000000000 DUP2 PUSH1 0x0 DUP2 MLOAD DUP2 LT PUSH2 0x79C0 JUMPI PUSH2 0x79BF PUSH2 0x94A2 JUMP JUMPDEST JUMPDEST PUSH1 0x20 ADD ADD SWAP1 PUSH31 0xFFFFFFFFFFFFFFFFFFFFFFFFFFFFFFFFFFFFFFFFFFFFFFFFFFFFFFFFFFFFFF NOT AND SWAP1 DUP2 PUSH1 0x0 BYTE SWAP1 MSTORE8 POP PUSH32 0x7800000000000000000000000000000000000000000000000000000000000000 DUP2 PUSH1 0x1 DUP2 MLOAD DUP2 LT PUSH2 0x7A24 JUMPI PUSH2 0x7A23 PUSH2 0x94A2 JUMP JUMPDEST JUMPDEST PUSH1 0x20 ADD ADD SWAP1 PUSH31 0xFFFFFFFFFFFFFFFFFFFFFFFFFFFFFFFFFFFFFFFFFFFFFFFFFFFFFFFFFFFFFF NOT AND SWAP1 DUP2 PUSH1 0x0 BYTE SWAP1 MSTORE8 POP PUSH1 0x0 PUSH1 0x1 DUP5 PUSH1 0x2 PUSH2 0x7A64 SWAP2 SWAP1 PUSH2 0x96EB JUMP JUMPDEST PUSH2 0x7A6E SWAP2 SWAP1 PUSH2 0x946E JUMP JUMPDEST SWAP1 POP JUMPDEST PUSH1 0x1 DUP2 GT ISZERO PUSH2 0x7B0E JUMPI PUSH32 0x3031323334353637383961626364656600000000000000000000000000000000 PUSH1 0xF DUP7 AND PUSH1 0x10 DUP2 LT PUSH2 0x7AB0 JUMPI PUSH2 0x7AAF PUSH2 0x94A2 JUMP JUMPDEST JUMPDEST BYTE PUSH1 0xF8 SHL DUP3 DUP3 DUP2 MLOAD DUP2 LT PUSH2 0x7AC7 JUMPI PUSH2 0x7AC6 PUSH2 0x94A2 JUMP JUMPDEST JUMPDEST PUSH1 0x20 ADD ADD SWAP1 PUSH31 0xFFFFFFFFFFFFFFFFFFFFFFFFFFFFFFFFFFFFFFFFFFFFFFFFFFFFFFFFFFFFFF NOT AND SWAP1 DUP2 PUSH1 0x0 BYTE SWAP1 MSTORE8 POP PUSH1 0x4 DUP6 SWAP1 SHR SWAP5 POP DUP1 PUSH2 0x7B07 SWAP1 PUSH2 0xA52C JUMP JUMPDEST SWAP1 POP PUSH2 0x7A71 JUMP JUMPDEST POP PUSH1 0x0 DUP5 EQ PUSH2 0x7B52 JUMPI PUSH1 0x40 MLOAD PUSH32 0x8C379A000000000000000000000000000000000000000000000000000000000 DUP2 MSTORE PUSH1 0x4 ADD PUSH2 0x7B49 SWAP1 PUSH2 0xA872 JUMP JUMPDEST PUSH1 0x40 MLOAD DUP1 SWAP2 SUB SWAP1 REVERT JUMPDEST DUP1 SWAP2 POP POP SWAP3 SWAP2 POP POP JUMP JUMPDEST PUSH1 0x0 PUSH2 0x7BBE DUP3 PUSH1 0x40 MLOAD DUP1 PUSH1 0x40 ADD PUSH1 0x40 MSTORE DUP1 PUSH1 0x20 DUP2 MSTORE PUSH1 0x20 ADD PUSH32 0x5361666545524332303A206C6F772D6C6576656C2063616C6C206661696C6564 DUP2 MSTORE POP DUP6 PUSH20 0xFFFFFFFFFFFFFFFFFFFFFFFFFFFFFFFFFFFFFFFF AND PUSH2 0x7C9B SWAP1 SWAP3 SWAP2 SWAP1 PUSH4 0xFFFFFFFF AND JUMP JUMPDEST SWAP1 POP PUSH1 0x0 DUP2 MLOAD GT ISZERO PUSH2 0x7C1E JUMPI DUP1 DUP1 PUSH1 0x20 ADD SWAP1 MLOAD DUP2 ADD SWAP1 PUSH2 0x7BDE SWAP2 SWAP1 PUSH2 0x983E JUMP JUMPDEST PUSH2 0x7C1D JUMPI PUSH1 0x40 MLOAD PUSH32 0x8C379A000000000000000000000000000000000000000000000000000000000 DUP2 MSTORE PUSH1 0x4 ADD PUSH2 0x7C14 SWAP1 PUSH2 0xA904 JUMP JUMPDEST PUSH1 0x40 MLOAD DUP1 SWAP2 SUB SWAP1 REVERT JUMPDEST JUMPDEST POP POP POP JUMP JUMPDEST PUSH1 0x0 PUSH2 0x7C2E DUP3 PUSH2 0x7CB3 JUMP JUMPDEST DUP1 PUSH2 0x7C94 JUMPI POP PUSH1 0x65 PUSH1 0x0 DUP4 PUSH28 0xFFFFFFFFFFFFFFFFFFFFFFFFFFFFFFFFFFFFFFFFFFFFFFFFFFFFFFFF NOT AND PUSH28 0xFFFFFFFFFFFFFFFFFFFFFFFFFFFFFFFFFFFFFFFFFFFFFFFFFFFFFFFF NOT AND DUP2 MSTORE PUSH1 0x20 ADD SWAP1 DUP2 MSTORE PUSH1 0x20 ADD PUSH1 0x0 KECCAK256 PUSH1 0x0 SWAP1 SLOAD SWAP1 PUSH2 0x100 EXP SWAP1 DIV PUSH1 0xFF AND JUMPDEST SWAP1 POP SWAP2 SWAP1 POP JUMP JUMPDEST PUSH1 0x60 PUSH2 0x7CAA DUP5 DUP5 PUSH1 0x0 DUP6 PUSH2 0x7D1D JUMP JUMPDEST SWAP1 POP SWAP4 SWAP3 POP POP POP JUMP JUMPDEST PUSH1 0x0 PUSH32 0x1FFC9A700000000000000000000000000000000000000000000000000000000 PUSH28 0xFFFFFFFFFFFFFFFFFFFFFFFFFFFFFFFFFFFFFFFFFFFFFFFFFFFFFFFF NOT AND DUP3 PUSH28 0xFFFFFFFFFFFFFFFFFFFFFFFFFFFFFFFFFFFFFFFFFFFFFFFFFFFFFFFF NOT AND EQ SWAP1 POP SWAP2 SWAP1 POP JUMP JUMPDEST PUSH1 0x60 DUP3 SELFBALANCE LT ISZERO PUSH2 0x7D62 JUMPI PUSH1 0x40 MLOAD PUSH32 0x8C379A000000000000000000000000000000000000000000000000000000000 DUP2 MSTORE PUSH1 0x4 ADD PUSH2 0x7D59 SWAP1 PUSH2 0xA996 JUMP JUMPDEST PUSH1 0x40 MLOAD DUP1 SWAP2 SUB SWAP1 REVERT JUMPDEST PUSH1 0x0 DUP1 DUP7 PUSH20 0xFFFFFFFFFFFFFFFFFFFFFFFFFFFFFFFFFFFFFFFF AND DUP6 DUP8 PUSH1 0x40 MLOAD PUSH2 0x7D8B SWAP2 SWAP1 PUSH2 0xA9E7 JUMP JUMPDEST PUSH1 0x0 PUSH1 0x40 MLOAD DUP1 DUP4 SUB DUP2 DUP6 DUP8 GAS CALL SWAP3 POP POP POP RETURNDATASIZE DUP1 PUSH1 0x0 DUP2 EQ PUSH2 0x7DC8 JUMPI PUSH1 0x40 MLOAD SWAP2 POP PUSH1 0x1F NOT PUSH1 0x3F RETURNDATASIZE ADD AND DUP3 ADD PUSH1 0x40 MSTORE RETURNDATASIZE DUP3 MSTORE RETURNDATASIZE PUSH1 0x0 PUSH1 0x20 DUP5 ADD RETURNDATACOPY PUSH2 0x7DCD JUMP JUMPDEST PUSH1 0x60 SWAP2 POP JUMPDEST POP SWAP2 POP SWAP2 POP PUSH2 0x7DDE DUP8 DUP4 DUP4 DUP8 PUSH2 0x7DEA JUMP JUMPDEST SWAP3 POP POP POP SWAP5 SWAP4 POP POP POP POP JUMP JUMPDEST PUSH1 0x60 DUP4 ISZERO PUSH2 0x7E4C JUMPI PUSH1 0x0 DUP4 MLOAD SUB PUSH2 0x7E44 JUMPI PUSH2 0x7E04 DUP6 PUSH2 0x6557 JUMP JUMPDEST PUSH2 0x7E43 JUMPI PUSH1 0x40 MLOAD PUSH32 0x8C379A000000000000000000000000000000000000000000000000000000000 DUP2 MSTORE PUSH1 0x4 ADD PUSH2 0x7E3A SWAP1 PUSH2 0xAA4A JUMP JUMPDEST PUSH1 0x40 MLOAD DUP1 SWAP2 SUB SWAP1 REVERT JUMPDEST JUMPDEST DUP3 SWAP1 POP PUSH2 0x7E57 JUMP JUMPDEST PUSH2 0x7E56 DUP4 DUP4 PUSH2 0x7E5F JUMP JUMPDEST JUMPDEST SWAP5 SWAP4 POP POP POP POP JUMP JUMPDEST PUSH1 0x0 DUP3 MLOAD GT ISZERO PUSH2 0x7E72 JUMPI DUP2 MLOAD DUP1 DUP4 PUSH1 0x20 ADD REVERT JUMPDEST DUP1 PUSH1 0x40 MLOAD PUSH32 0x8C379A000000000000000000000000000000000000000000000000000000000 DUP2 MSTORE PUSH1 0x4 ADD PUSH2 0x7EA6 SWAP2 SWAP1 PUSH2 0x8097 JUMP JUMPDEST PUSH1 0x40 MLOAD DUP1 SWAP2 SUB SWAP1 REVERT JUMPDEST PUSH1 0x0 PUSH1 0x40 MLOAD SWAP1 POP SWAP1 JUMP JUMPDEST PUSH1 0x0 DUP1 REVERT JUMPDEST PUSH1 0x0 DUP1 REVERT JUMPDEST PUSH1 0x0 PUSH32 0xFFFFFFFF00000000000000000000000000000000000000000000000000000000 DUP3 AND SWAP1 POP SWAP2 SWAP1 POP JUMP JUMPDEST PUSH2 0x7EF8 DUP2 PUSH2 0x7EC3 JUMP JUMPDEST DUP2 EQ PUSH2 0x7F03 JUMPI PUSH1 0x0 DUP1 REVERT JUMPDEST POP JUMP JUMPDEST PUSH1 0x0 DUP2 CALLDATALOAD SWAP1 POP PUSH2 0x7F15 DUP2 PUSH2 0x7EEF JUMP JUMPDEST SWAP3 SWAP2 POP POP JUMP JUMPDEST PUSH1 0x0 PUSH1 0x20 DUP3 DUP5 SUB SLT ISZERO PUSH2 0x7F31 JUMPI PUSH2 0x7F30 PUSH2 0x7EB9 JUMP JUMPDEST JUMPDEST PUSH1 0x0 PUSH2 0x7F3F DUP5 DUP3 DUP6 ADD PUSH2 0x7F06 JUMP JUMPDEST SWAP2 POP POP SWAP3 SWAP2 POP POP JUMP JUMPDEST PUSH1 0x0 DUP2 ISZERO ISZERO SWAP1 POP SWAP2 SWAP1 POP JUMP JUMPDEST PUSH2 0x7F5D DUP2 PUSH2 0x7F48 JUMP JUMPDEST DUP3 MSTORE POP POP JUMP JUMPDEST PUSH1 0x0 PUSH1 0x20 DUP3 ADD SWAP1 POP PUSH2 0x7F78 PUSH1 0x0 DUP4 ADD DUP5 PUSH2 0x7F54 JUMP JUMPDEST SWAP3 SWAP2 POP POP JUMP JUMPDEST PUSH1 0x0 DUP2 SWAP1 POP SWAP2 SWAP1 POP JUMP JUMPDEST PUSH2 0x7F91 DUP2 PUSH2 0x7F7E JUMP JUMPDEST DUP2 EQ PUSH2 0x7F9C JUMPI PUSH1 0x0 DUP1 REVERT JUMPDEST POP JUMP JUMPDEST PUSH1 0x0 DUP2 CALLDATALOAD SWAP1 POP PUSH2 0x7FAE DUP2 PUSH2 0x7F88 JUMP JUMPDEST SWAP3 SWAP2 POP POP JUMP JUMPDEST PUSH1 0x0 DUP1 PUSH1 0x0 PUSH1 0x60 DUP5 DUP7 SUB SLT ISZERO PUSH2 0x7FCD JUMPI PUSH2 0x7FCC PUSH2 0x7EB9 JUMP JUMPDEST JUMPDEST PUSH1 0x0 PUSH2 0x7FDB DUP7 DUP3 DUP8 ADD PUSH2 0x7F9F JUMP JUMPDEST SWAP4 POP POP PUSH1 0x20 PUSH2 0x7FEC DUP7 DUP3 DUP8 ADD PUSH2 0x7F9F JUMP JUMPDEST SWAP3 POP POP PUSH1 0x40 PUSH2 0x7FFD DUP7 DUP3 DUP8 ADD PUSH2 0x7F9F JUMP JUMPDEST SWAP2 POP POP SWAP3 POP SWAP3 POP SWAP3 JUMP JUMPDEST PUSH1 0x0 DUP2 MLOAD SWAP1 POP SWAP2 SWAP1 POP JUMP JUMPDEST PUSH1 0x0 DUP3 DUP3 MSTORE PUSH1 0x20 DUP3 ADD SWAP1 POP SWAP3 SWAP2 POP POP JUMP JUMPDEST PUSH1 0x0 JUMPDEST DUP4 DUP2 LT ISZERO PUSH2 0x8041 JUMPI DUP1 DUP3 ADD MLOAD DUP2 DUP5 ADD MSTORE PUSH1 0x20 DUP2 ADD SWAP1 POP PUSH2 0x8026 JUMP JUMPDEST PUSH1 0x0 DUP5 DUP5 ADD MSTORE POP POP POP POP JUMP JUMPDEST PUSH1 0x0 PUSH1 0x1F NOT PUSH1 0x1F DUP4 ADD AND SWAP1 POP SWAP2 SWAP1 POP JUMP JUMPDEST PUSH1 0x0 PUSH2 0x8069 DUP3 PUSH2 0x8007 JUMP JUMPDEST PUSH2 0x8073 DUP2 DUP6 PUSH2 0x8012 JUMP JUMPDEST SWAP4 POP PUSH2 0x8083 DUP2 DUP6 PUSH1 0x20 DUP7 ADD PUSH2 0x8023 JUMP JUMPDEST PUSH2 0x808C DUP2 PUSH2 0x804D JUMP JUMPDEST DUP5 ADD SWAP2 POP POP SWAP3 SWAP2 POP POP JUMP JUMPDEST PUSH1 0x0 PUSH1 0x20 DUP3 ADD SWAP1 POP DUP2 DUP2 SUB PUSH1 0x0 DUP4 ADD MSTORE PUSH2 0x80B1 DUP2 DUP5 PUSH2 0x805E JUMP JUMPDEST SWAP1 POP SWAP3 SWAP2 POP POP JUMP JUMPDEST PUSH1 0x0 PUSH1 0x20 DUP3 DUP5 SUB SLT ISZERO PUSH2 0x80CF JUMPI PUSH2 0x80CE PUSH2 0x7EB9 JUMP JUMPDEST JUMPDEST PUSH1 0x0 PUSH2 0x80DD DUP5 DUP3 DUP6 ADD PUSH2 0x7F9F JUMP JUMPDEST SWAP2 POP POP SWAP3 SWAP2 POP POP JUMP JUMPDEST PUSH1 0x0 PUSH20 0xFFFFFFFFFFFFFFFFFFFFFFFFFFFFFFFFFFFFFFFF DUP3 AND SWAP1 POP SWAP2 SWAP1 POP JUMP JUMPDEST PUSH1 0x0 PUSH2 0x8111 DUP3 PUSH2 0x80E6 JUMP JUMPDEST SWAP1 POP SWAP2 SWAP1 POP JUMP JUMPDEST PUSH2 0x8121 DUP2 PUSH2 0x8106 JUMP JUMPDEST DUP3 MSTORE POP POP JUMP JUMPDEST PUSH1 0x0 PUSH1 0x20 DUP3 ADD SWAP1 POP PUSH2 0x813C PUSH1 0x0 DUP4 ADD DUP5 PUSH2 0x8118 JUMP JUMPDEST SWAP3 SWAP2 POP POP JUMP JUMPDEST PUSH2 0x814B DUP2 PUSH2 0x8106 JUMP JUMPDEST DUP2 EQ PUSH2 0x8156 JUMPI PUSH1 0x0 DUP1 REVERT JUMPDEST POP JUMP JUMPDEST PUSH1 0x0 DUP2 CALLDATALOAD SWAP1 POP PUSH2 0x8168 DUP2 PUSH2 0x8142 JUMP JUMPDEST SWAP3 SWAP2 POP POP JUMP JUMPDEST PUSH1 0x0 DUP1 PUSH1 0x40 DUP4 DUP6 SUB SLT ISZERO PUSH2 0x8185 JUMPI PUSH2 0x8184 PUSH2 0x7EB9 JUMP JUMPDEST JUMPDEST PUSH1 0x0 PUSH2 0x8193 DUP6 DUP3 DUP7 ADD PUSH2 0x8159 JUMP JUMPDEST SWAP3 POP POP PUSH1 0x20 PUSH2 0x81A4 DUP6 DUP3 DUP7 ADD PUSH2 0x7F9F JUMP JUMPDEST SWAP2 POP POP SWAP3 POP SWAP3 SWAP1 POP JUMP JUMPDEST PUSH1 0x0 DUP1 REVERT JUMPDEST PUSH1 0x0 DUP1 REVERT JUMPDEST PUSH32 0x4E487B7100000000000000000000000000000000000000000000000000000000 PUSH1 0x0 MSTORE PUSH1 0x41 PUSH1 0x4 MSTORE PUSH1 0x24 PUSH1 0x0 REVERT JUMPDEST PUSH2 0x81F0 DUP3 PUSH2 0x804D JUMP JUMPDEST DUP2 ADD DUP2 DUP2 LT PUSH8 0xFFFFFFFFFFFFFFFF DUP3 GT OR ISZERO PUSH2 0x820F JUMPI PUSH2 0x820E PUSH2 0x81B8 JUMP JUMPDEST JUMPDEST DUP1 PUSH1 0x40 MSTORE POP POP POP JUMP JUMPDEST PUSH1 0x0 PUSH2 0x8222 PUSH2 0x7EAF JUMP JUMPDEST SWAP1 POP PUSH2 0x822E DUP3 DUP3 PUSH2 0x81E7 JUMP JUMPDEST SWAP2 SWAP1 POP JUMP JUMPDEST PUSH1 0x0 PUSH8 0xFFFFFFFFFFFFFFFF DUP3 GT ISZERO PUSH2 0x824E JUMPI PUSH2 0x824D PUSH2 0x81B8 JUMP JUMPDEST JUMPDEST PUSH2 0x8257 DUP3 PUSH2 0x804D JUMP JUMPDEST SWAP1 POP PUSH1 0x20 DUP2 ADD SWAP1 POP SWAP2 SWAP1 POP JUMP JUMPDEST DUP3 DUP2 DUP4 CALLDATACOPY PUSH1 0x0 DUP4 DUP4 ADD MSTORE POP POP POP JUMP JUMPDEST PUSH1 0x0 PUSH2 0x8286 PUSH2 0x8281 DUP5 PUSH2 0x8233 JUMP JUMPDEST PUSH2 0x8218 JUMP JUMPDEST SWAP1 POP DUP3 DUP2 MSTORE PUSH1 0x20 DUP2 ADD DUP5 DUP5 DUP5 ADD GT ISZERO PUSH2 0x82A2 JUMPI PUSH2 0x82A1 PUSH2 0x81B3 JUMP JUMPDEST JUMPDEST PUSH2 0x82AD DUP5 DUP3 DUP6 PUSH2 0x8264 JUMP JUMPDEST POP SWAP4 SWAP3 POP POP POP JUMP JUMPDEST PUSH1 0x0 DUP3 PUSH1 0x1F DUP4 ADD SLT PUSH2 0x82CA JUMPI PUSH2 0x82C9 PUSH2 0x81AE JUMP JUMPDEST JUMPDEST DUP2 CALLDATALOAD PUSH2 0x82DA DUP5 DUP3 PUSH1 0x20 DUP7 ADD PUSH2 0x8273 JUMP JUMPDEST SWAP2 POP POP SWAP3 SWAP2 POP POP JUMP JUMPDEST PUSH1 0x0 DUP1 PUSH1 0x0 PUSH1 0x60 DUP5 DUP7 SUB SLT ISZERO PUSH2 0x82FC JUMPI PUSH2 0x82FB PUSH2 0x7EB9 JUMP JUMPDEST JUMPDEST PUSH1 0x0 PUSH2 0x830A DUP7 DUP3 DUP8 ADD PUSH2 0x8159 JUMP JUMPDEST SWAP4 POP POP PUSH1 0x20 PUSH2 0x831B DUP7 DUP3 DUP8 ADD PUSH2 0x8159 JUMP JUMPDEST SWAP3 POP POP PUSH1 0x40 DUP5 ADD CALLDATALOAD PUSH8 0xFFFFFFFFFFFFFFFF DUP2 GT ISZERO PUSH2 0x833C JUMPI PUSH2 0x833B PUSH2 0x7EBE JUMP JUMPDEST JUMPDEST PUSH2 0x8348 DUP7 DUP3 DUP8 ADD PUSH2 0x82B5 JUMP JUMPDEST SWAP2 POP POP SWAP3 POP SWAP3 POP SWAP3 JUMP JUMPDEST PUSH2 0x835B DUP2 PUSH2 0x7F7E JUMP JUMPDEST DUP3 MSTORE POP POP JUMP JUMPDEST PUSH1 0x0 PUSH1 0x20 DUP3 ADD SWAP1 POP PUSH2 0x8376 PUSH1 0x0 DUP4 ADD DUP5 PUSH2 0x8352 JUMP JUMPDEST SWAP3 SWAP2 POP POP JUMP JUMPDEST PUSH1 0x0 DUP1 PUSH1 0x0 PUSH1 0x60 DUP5 DUP7 SUB SLT ISZERO PUSH2 0x8395 JUMPI PUSH2 0x8394 PUSH2 0x7EB9 JUMP JUMPDEST JUMPDEST PUSH1 0x0 PUSH2 0x83A3 DUP7 DUP3 DUP8 ADD PUSH2 0x8159 JUMP JUMPDEST SWAP4 POP POP PUSH1 0x20 PUSH2 0x83B4 DUP7 DUP3 DUP8 ADD PUSH2 0x8159 JUMP JUMPDEST SWAP3 POP POP PUSH1 0x40 PUSH2 0x83C5 DUP7 DUP3 DUP8 ADD PUSH2 0x7F9F JUMP JUMPDEST SWAP2 POP POP SWAP3 POP SWAP3 POP SWAP3 JUMP JUMPDEST PUSH1 0x0 DUP2 SWAP1 POP SWAP2 SWAP1 POP JUMP JUMPDEST PUSH1 0x0 PUSH2 0x83F4 PUSH2 0x83EF PUSH2 0x83EA DUP5 PUSH2 0x80E6 JUMP JUMPDEST PUSH2 0x83CF JUMP JUMPDEST PUSH2 0x80E6 JUMP JUMPDEST SWAP1 POP SWAP2 SWAP1 POP JUMP JUMPDEST PUSH1 0x0 PUSH2 0x8406 DUP3 PUSH2 0x83D9 JUMP JUMPDEST SWAP1 POP SWAP2 SWAP1 POP JUMP JUMPDEST PUSH1 0x0 PUSH2 0x8418 DUP3 PUSH2 0x83FB JUMP JUMPDEST SWAP1 POP SWAP2 SWAP1 POP JUMP JUMPDEST PUSH2 0x8428 DUP2 PUSH2 0x840D JUMP JUMPDEST DUP3 MSTORE POP POP JUMP JUMPDEST PUSH1 0x0 PUSH1 0x20 DUP3 ADD SWAP1 POP PUSH2 0x8443 PUSH1 0x0 DUP4 ADD DUP5 PUSH2 0x841F JUMP JUMPDEST SWAP3 SWAP2 POP POP JUMP JUMPDEST PUSH1 0x0 PUSH1 0x20 DUP3 DUP5 SUB SLT ISZERO PUSH2 0x845F JUMPI PUSH2 0x845E PUSH2 0x7EB9 JUMP JUMPDEST JUMPDEST PUSH1 0x0 PUSH2 0x846D DUP5 DUP3 DUP6 ADD PUSH2 0x8159 JUMP JUMPDEST SWAP2 POP POP SWAP3 SWAP2 POP POP JUMP JUMPDEST PUSH1 0x0 PUSH2 0x8481 DUP3 PUSH2 0x83FB JUMP JUMPDEST SWAP1 POP SWAP2 SWAP1 POP JUMP JUMPDEST PUSH2 0x8491 DUP2 PUSH2 0x8476 JUMP JUMPDEST DUP3 MSTORE POP POP JUMP JUMPDEST PUSH1 0x0 PUSH1 0x20 DUP3 ADD SWAP1 POP PUSH2 0x84AC PUSH1 0x0 DUP4 ADD DUP5 PUSH2 0x8488 JUMP JUMPDEST SWAP3 SWAP2 POP POP JUMP JUMPDEST PUSH1 0x0 DUP2 SWAP1 POP SWAP2 SWAP1 POP JUMP JUMPDEST PUSH2 0x84C5 DUP2 PUSH2 0x84B2 JUMP JUMPDEST DUP2 EQ PUSH2 0x84D0 JUMPI PUSH1 0x0 DUP1 REVERT JUMPDEST POP JUMP JUMPDEST PUSH1 0x0 DUP2 CALLDATALOAD SWAP1 POP PUSH2 0x84E2 DUP2 PUSH2 0x84BC JUMP JUMPDEST SWAP3 SWAP2 POP POP JUMP JUMPDEST PUSH1 0x0 PUSH1 0x20 DUP3 DUP5 SUB SLT ISZERO PUSH2 0x84FE JUMPI PUSH2 0x84FD PUSH2 0x7EB9 JUMP JUMPDEST JUMPDEST PUSH1 0x0 PUSH2 0x850C DUP5 DUP3 DUP6 ADD PUSH2 0x84D3 JUMP JUMPDEST SWAP2 POP POP SWAP3 SWAP2 POP POP JUMP JUMPDEST PUSH2 0x851E DUP2 PUSH2 0x84B2 JUMP JUMPDEST DUP3 MSTORE POP POP JUMP JUMPDEST PUSH1 0x0 PUSH1 0x20 DUP3 ADD SWAP1 POP PUSH2 0x8539 PUSH1 0x0 DUP4 ADD DUP5 PUSH2 0x8515 JUMP JUMPDEST SWAP3 SWAP2 POP POP JUMP JUMPDEST PUSH1 0x0 PUSH2 0x854A DUP3 PUSH2 0x83FB JUMP JUMPDEST SWAP1 POP SWAP2 SWAP1 POP JUMP JUMPDEST PUSH2 0x855A DUP2 PUSH2 0x853F JUMP JUMPDEST DUP3 MSTORE POP POP JUMP JUMPDEST PUSH1 0x0 PUSH1 0x20 DUP3 ADD SWAP1 POP PUSH2 0x8575 PUSH1 0x0 DUP4 ADD DUP5 PUSH2 0x8551 JUMP JUMPDEST SWAP3 SWAP2 POP POP JUMP JUMPDEST PUSH1 0x0 PUSH2 0x8586 DUP3 PUSH2 0x83FB JUMP JUMPDEST SWAP1 POP SWAP2 SWAP1 POP JUMP JUMPDEST PUSH2 0x8596 DUP2 PUSH2 0x857B JUMP JUMPDEST DUP3 MSTORE POP POP JUMP JUMPDEST PUSH1 0x0 PUSH1 0x20 DUP3 ADD SWAP1 POP PUSH2 0x85B1 PUSH1 0x0 DUP4 ADD DUP5 PUSH2 0x858D JUMP JUMPDEST SWAP3 SWAP2 POP POP JUMP JUMPDEST PUSH1 0x0 DUP1 PUSH1 0x40 DUP4 DUP6 SUB SLT ISZERO PUSH2 0x85CE JUMPI PUSH2 0x85CD PUSH2 0x7EB9 JUMP JUMPDEST JUMPDEST PUSH1 0x0 PUSH2 0x85DC DUP6 DUP3 DUP7 ADD PUSH2 0x84D3 JUMP JUMPDEST SWAP3 POP POP PUSH1 0x20 PUSH2 0x85ED DUP6 DUP3 DUP7 ADD PUSH2 0x8159 JUMP JUMPDEST SWAP2 POP POP SWAP3 POP SWAP3 SWAP1 POP JUMP JUMPDEST PUSH1 0x0 PUSH8 0xFFFFFFFFFFFFFFFF DUP3 GT ISZERO PUSH2 0x8612 JUMPI PUSH2 0x8611 PUSH2 0x81B8 JUMP JUMPDEST JUMPDEST PUSH1 0x20 DUP3 MUL SWAP1 POP PUSH1 0x20 DUP2 ADD SWAP1 POP SWAP2 SWAP1 POP JUMP JUMPDEST PUSH1 0x0 DUP1 REVERT JUMPDEST PUSH1 0x0 PUSH2 0x863B PUSH2 0x8636 DUP5 PUSH2 0x85F7 JUMP JUMPDEST PUSH2 0x8218 JUMP JUMPDEST SWAP1 POP DUP1 DUP4 DUP3 MSTORE PUSH1 0x20 DUP3 ADD SWAP1 POP PUSH1 0x20 DUP5 MUL DUP4 ADD DUP6 DUP2 GT ISZERO PUSH2 0x865E JUMPI PUSH2 0x865D PUSH2 0x8623 JUMP JUMPDEST JUMPDEST DUP4 JUMPDEST DUP2 DUP2 LT ISZERO PUSH2 0x8687 JUMPI DUP1 PUSH2 0x8673 DUP9 DUP3 PUSH2 0x7F9F JUMP JUMPDEST DUP5 MSTORE PUSH1 0x20 DUP5 ADD SWAP4 POP POP PUSH1 0x20 DUP2 ADD SWAP1 POP PUSH2 0x8660 JUMP JUMPDEST POP POP POP SWAP4 SWAP3 POP POP POP JUMP JUMPDEST PUSH1 0x0 DUP3 PUSH1 0x1F DUP4 ADD SLT PUSH2 0x86A6 JUMPI PUSH2 0x86A5 PUSH2 0x81AE JUMP JUMPDEST JUMPDEST DUP2 CALLDATALOAD PUSH2 0x86B6 DUP5 DUP3 PUSH1 0x20 DUP7 ADD PUSH2 0x8628 JUMP JUMPDEST SWAP2 POP POP SWAP3 SWAP2 POP POP JUMP JUMPDEST PUSH1 0x0 PUSH8 0xFFFFFFFFFFFFFFFF DUP3 GT ISZERO PUSH2 0x86DA JUMPI PUSH2 0x86D9 PUSH2 0x81B8 JUMP JUMPDEST JUMPDEST PUSH1 0x20 DUP3 MUL SWAP1 POP PUSH1 0x20 DUP2 ADD SWAP1 POP SWAP2 SWAP1 POP JUMP JUMPDEST PUSH1 0x0 PUSH2 0x86FE PUSH2 0x86F9 DUP5 PUSH2 0x86BF JUMP JUMPDEST PUSH2 0x8218 JUMP JUMPDEST SWAP1 POP DUP1 DUP4 DUP3 MSTORE PUSH1 0x20 DUP3 ADD SWAP1 POP PUSH1 0x20 DUP5 MUL DUP4 ADD DUP6 DUP2 GT ISZERO PUSH2 0x8721 JUMPI PUSH2 0x8720 PUSH2 0x8623 JUMP JUMPDEST JUMPDEST DUP4 JUMPDEST DUP2 DUP2 LT ISZERO PUSH2 0x874A JUMPI DUP1 PUSH2 0x8736 DUP9 DUP3 PUSH2 0x8159 JUMP JUMPDEST DUP5 MSTORE PUSH1 0x20 DUP5 ADD SWAP4 POP POP PUSH1 0x20 DUP2 ADD SWAP1 POP PUSH2 0x8723 JUMP JUMPDEST POP POP POP SWAP4 SWAP3 POP POP POP JUMP JUMPDEST PUSH1 0x0 DUP3 PUSH1 0x1F DUP4 ADD SLT PUSH2 0x8769 JUMPI PUSH2 0x8768 PUSH2 0x81AE JUMP JUMPDEST JUMPDEST DUP2 CALLDATALOAD PUSH2 0x8779 DUP5 DUP3 PUSH1 0x20 DUP7 ADD PUSH2 0x86EB JUMP JUMPDEST SWAP2 POP POP SWAP3 SWAP2 POP POP JUMP JUMPDEST PUSH1 0x0 DUP1 REVERT JUMPDEST PUSH1 0x0 DUP1 DUP4 PUSH1 0x1F DUP5 ADD SLT PUSH2 0x879D JUMPI PUSH2 0x879C PUSH2 0x81AE JUMP JUMPDEST JUMPDEST DUP3 CALLDATALOAD SWAP1 POP PUSH8 0xFFFFFFFFFFFFFFFF DUP2 GT ISZERO PUSH2 0x87BA JUMPI PUSH2 0x87B9 PUSH2 0x8782 JUMP JUMPDEST JUMPDEST PUSH1 0x20 DUP4 ADD SWAP2 POP DUP4 PUSH1 0x20 DUP3 MUL DUP4 ADD GT ISZERO PUSH2 0x87D6 JUMPI PUSH2 0x87D5 PUSH2 0x8623 JUMP JUMPDEST JUMPDEST SWAP3 POP SWAP3 SWAP1 POP JUMP JUMPDEST PUSH1 0x0 DUP1 PUSH1 0x0 DUP1 PUSH1 0x0 DUP1 PUSH1 0xA0 DUP8 DUP10 SUB SLT ISZERO PUSH2 0x87FA JUMPI PUSH2 0x87F9 PUSH2 0x7EB9 JUMP JUMPDEST JUMPDEST PUSH1 0x0 DUP8 ADD CALLDATALOAD PUSH8 0xFFFFFFFFFFFFFFFF DUP2 GT ISZERO PUSH2 0x8818 JUMPI PUSH2 0x8817 PUSH2 0x7EBE JUMP JUMPDEST JUMPDEST PUSH2 0x8824 DUP10 DUP3 DUP11 ADD PUSH2 0x8691 JUMP JUMPDEST SWAP7 POP POP PUSH1 0x20 DUP8 ADD CALLDATALOAD PUSH8 0xFFFFFFFFFFFFFFFF DUP2 GT ISZERO PUSH2 0x8845 JUMPI PUSH2 0x8844 PUSH2 0x7EBE JUMP JUMPDEST JUMPDEST PUSH2 0x8851 DUP10 DUP3 DUP11 ADD PUSH2 0x8754 JUMP JUMPDEST SWAP6 POP POP PUSH1 0x40 DUP8 ADD CALLDATALOAD PUSH8 0xFFFFFFFFFFFFFFFF DUP2 GT ISZERO PUSH2 0x8872 JUMPI PUSH2 0x8871 PUSH2 0x7EBE JUMP JUMPDEST JUMPDEST PUSH2 0x887E DUP10 DUP3 DUP11 ADD PUSH2 0x8754 JUMP JUMPDEST SWAP5 POP POP PUSH1 0x60 DUP8 ADD CALLDATALOAD PUSH8 0xFFFFFFFFFFFFFFFF DUP2 GT ISZERO PUSH2 0x889F JUMPI PUSH2 0x889E PUSH2 0x7EBE JUMP JUMPDEST JUMPDEST PUSH2 0x88AB DUP10 DUP3 DUP11 ADD PUSH2 0x8754 JUMP JUMPDEST SWAP4 POP POP PUSH1 0x80 DUP8 ADD CALLDATALOAD PUSH8 0xFFFFFFFFFFFFFFFF DUP2 GT ISZERO PUSH2 0x88CC JUMPI PUSH2 0x88CB PUSH2 0x7EBE JUMP JUMPDEST JUMPDEST PUSH2 0x88D8 DUP10 DUP3 DUP11 ADD PUSH2 0x8787 JUMP JUMPDEST SWAP3 POP SWAP3 POP POP SWAP3 SWAP6 POP SWAP3 SWAP6 POP SWAP3 SWAP6 JUMP JUMPDEST PUSH1 0x0 DUP2 MLOAD SWAP1 POP SWAP2 SWAP1 POP JUMP JUMPDEST PUSH1 0x0 DUP3 DUP3 MSTORE PUSH1 0x20 DUP3 ADD SWAP1 POP SWAP3 SWAP2 POP POP JUMP JUMPDEST PUSH1 0x0 DUP2 SWAP1 POP PUSH1 0x20 DUP3 ADD SWAP1 POP SWAP2 SWAP1 POP JUMP JUMPDEST PUSH2 0x891C DUP2 PUSH2 0x7F7E JUMP JUMPDEST DUP3 MSTORE POP POP JUMP JUMPDEST PUSH1 0x0 PUSH2 0x892E DUP4 DUP4 PUSH2 0x8913 JUMP JUMPDEST PUSH1 0x20 DUP4 ADD SWAP1 POP SWAP3 SWAP2 POP POP JUMP JUMPDEST PUSH1 0x0 PUSH1 0x20 DUP3 ADD SWAP1 POP SWAP2 SWAP1 POP JUMP JUMPDEST PUSH1 0x0 PUSH2 0x8952 DUP3 PUSH2 0x88E7 JUMP JUMPDEST PUSH2 0x895C DUP2 DUP6 PUSH2 0x88F2 JUMP JUMPDEST SWAP4 POP PUSH2 0x8967 DUP4 PUSH2 0x8903 JUMP JUMPDEST DUP1 PUSH1 0x0 JUMPDEST DUP4 DUP2 LT ISZERO PUSH2 0x8998 JUMPI DUP2 MLOAD PUSH2 0x897F DUP9 DUP3 PUSH2 0x8922 JUMP JUMPDEST SWAP8 POP PUSH2 0x898A DUP4 PUSH2 0x893A JUMP JUMPDEST SWAP3 POP POP PUSH1 0x1 DUP2 ADD SWAP1 POP PUSH2 0x896B JUMP JUMPDEST POP DUP6 SWAP4 POP POP POP POP SWAP3 SWAP2 POP POP JUMP JUMPDEST PUSH1 0x0 PUSH1 0x20 DUP3 ADD SWAP1 POP DUP2 DUP2 SUB PUSH1 0x0 DUP4 ADD MSTORE PUSH2 0x89BF DUP2 DUP5 PUSH2 0x8947 JUMP JUMPDEST SWAP1 POP SWAP3 SWAP2 POP POP JUMP JUMPDEST PUSH1 0x0 PUSH2 0x89D2 DUP3 PUSH2 0x83FB JUMP JUMPDEST SWAP1 POP SWAP2 SWAP1 POP JUMP JUMPDEST PUSH2 0x89E2 DUP2 PUSH2 0x89C7 JUMP JUMPDEST DUP3 MSTORE POP POP JUMP JUMPDEST PUSH1 0x0 PUSH1 0x20 DUP3 ADD SWAP1 POP PUSH2 0x89FD PUSH1 0x0 DUP4 ADD DUP5 PUSH2 0x89D9 JUMP JUMPDEST SWAP3 SWAP2 POP POP JUMP JUMPDEST PUSH1 0x0 DUP1 PUSH1 0x40 DUP4 DUP6 SUB SLT ISZERO PUSH2 0x8A1A JUMPI PUSH2 0x8A19 PUSH2 0x7EB9 JUMP JUMPDEST JUMPDEST PUSH1 0x0 PUSH2 0x8A28 DUP6 DUP3 DUP7 ADD PUSH2 0x7F9F JUMP JUMPDEST SWAP3 POP POP PUSH1 0x20 PUSH2 0x8A39 DUP6 DUP3 DUP7 ADD PUSH2 0x7F9F JUMP JUMPDEST SWAP2 POP POP SWAP3 POP SWAP3 SWAP1 POP JUMP JUMPDEST PUSH1 0x0 DUP1 PUSH1 0x40 DUP4 DUP6 SUB SLT ISZERO PUSH2 0x8A5A JUMPI PUSH2 0x8A59 PUSH2 0x7EB9 JUMP JUMPDEST JUMPDEST PUSH1 0x0 PUSH2 0x8A68 DUP6 DUP3 DUP7 ADD PUSH2 0x7F9F JUMP JUMPDEST SWAP3 POP POP PUSH1 0x20 PUSH2 0x8A79 DUP6 DUP3 DUP7 ADD PUSH2 0x8159 JUMP JUMPDEST SWAP2 POP POP SWAP3 POP SWAP3 SWAP1 POP JUMP JUMPDEST PUSH1 0x0 PUSH2 0x8A8E DUP3 PUSH2 0x80E6 JUMP JUMPDEST SWAP1 POP SWAP2 SWAP1 POP JUMP JUMPDEST PUSH2 0x8A9E DUP2 PUSH2 0x8A83 JUMP JUMPDEST DUP2 EQ PUSH2 0x8AA9 JUMPI PUSH1 0x0 DUP1 REVERT JUMPDEST POP JUMP JUMPDEST PUSH1 0x0 DUP2 CALLDATALOAD SWAP1 POP PUSH2 0x8ABB DUP2 PUSH2 0x8A95 JUMP JUMPDEST SWAP3 SWAP2 POP POP JUMP JUMPDEST PUSH1 0x0 DUP1 DUP4 PUSH1 0x1F DUP5 ADD SLT PUSH2 0x8AD7 JUMPI PUSH2 0x8AD6 PUSH2 0x81AE JUMP JUMPDEST JUMPDEST DUP3 CALLDATALOAD SWAP1 POP PUSH8 0xFFFFFFFFFFFFFFFF DUP2 GT ISZERO PUSH2 0x8AF4 JUMPI PUSH2 0x8AF3 PUSH2 0x8782 JUMP JUMPDEST JUMPDEST PUSH1 0x20 DUP4 ADD SWAP2 POP DUP4 PUSH1 0x1 DUP3 MUL DUP4 ADD GT ISZERO PUSH2 0x8B10 JUMPI PUSH2 0x8B0F PUSH2 0x8623 JUMP JUMPDEST JUMPDEST SWAP3 POP SWAP3 SWAP1 POP JUMP JUMPDEST PUSH1 0x0 DUP1 PUSH1 0x0 DUP1 PUSH1 0x0 DUP1 PUSH1 0x0 PUSH1 0xC0 DUP9 DUP11 SUB SLT ISZERO PUSH2 0x8B36 JUMPI PUSH2 0x8B35 PUSH2 0x7EB9 JUMP JUMPDEST JUMPDEST PUSH1 0x0 PUSH2 0x8B44 DUP11 DUP3 DUP12 ADD PUSH2 0x8AAC JUMP JUMPDEST SWAP8 POP POP PUSH1 0x20 PUSH2 0x8B55 DUP11 DUP3 DUP12 ADD PUSH2 0x7F9F JUMP JUMPDEST SWAP7 POP POP PUSH1 0x40 PUSH2 0x8B66 DUP11 DUP3 DUP12 ADD PUSH2 0x8159 JUMP JUMPDEST SWAP6 POP POP PUSH1 0x60 PUSH2 0x8B77 DUP11 DUP3 DUP12 ADD PUSH2 0x7F9F JUMP JUMPDEST SWAP5 POP POP PUSH1 0x80 PUSH2 0x8B88 DUP11 DUP3 DUP12 ADD PUSH2 0x7F9F JUMP JUMPDEST SWAP4 POP POP PUSH1 0xA0 DUP9 ADD CALLDATALOAD PUSH8 0xFFFFFFFFFFFFFFFF DUP2 GT ISZERO PUSH2 0x8BA9 JUMPI PUSH2 0x8BA8 PUSH2 0x7EBE JUMP JUMPDEST JUMPDEST PUSH2 0x8BB5 DUP11 DUP3 DUP12 ADD PUSH2 0x8AC1 JUMP JUMPDEST SWAP3 POP SWAP3 POP POP SWAP3 SWAP6 SWAP9 SWAP2 SWAP5 SWAP8 POP SWAP3 SWAP6 POP JUMP JUMPDEST PUSH1 0x0 DUP1 PUSH1 0x0 DUP1 PUSH1 0x0 DUP1 PUSH1 0x0 PUSH1 0xE0 DUP9 DUP11 SUB SLT ISZERO PUSH2 0x8BE5 JUMPI PUSH2 0x8BE4 PUSH2 0x7EB9 JUMP JUMPDEST JUMPDEST PUSH1 0x0 PUSH2 0x8BF3 DUP11 DUP3 DUP12 ADD PUSH2 0x8159 JUMP JUMPDEST SWAP8 POP POP PUSH1 0x20 PUSH2 0x8C04 DUP11 DUP3 DUP12 ADD PUSH2 0x8159 JUMP JUMPDEST SWAP7 POP POP PUSH1 0x40 PUSH2 0x8C15 DUP11 DUP3 DUP12 ADD PUSH2 0x8159 JUMP JUMPDEST SWAP6 POP POP PUSH1 0x60 PUSH2 0x8C26 DUP11 DUP3 DUP12 ADD PUSH2 0x8159 JUMP JUMPDEST SWAP5 POP POP PUSH1 0x80 PUSH2 0x8C37 DUP11 DUP3 DUP12 ADD PUSH2 0x8159 JUMP JUMPDEST SWAP4 POP POP PUSH1 0xA0 PUSH2 0x8C48 DUP11 DUP3 DUP12 ADD PUSH2 0x8159 JUMP JUMPDEST SWAP3 POP POP PUSH1 0xC0 PUSH2 0x8C59 DUP11 DUP3 DUP12 ADD PUSH2 0x8159 JUMP JUMPDEST SWAP2 POP POP SWAP3 SWAP6 SWAP9 SWAP2 SWAP5 SWAP8 POP SWAP3 SWAP6 POP JUMP JUMPDEST PUSH1 0x0 PUSH2 0x8C73 DUP3 PUSH2 0x83FB JUMP JUMPDEST SWAP1 POP SWAP2 SWAP1 POP JUMP JUMPDEST PUSH2 0x8C83 DUP2 PUSH2 0x8C68 JUMP JUMPDEST DUP3 MSTORE POP POP JUMP JUMPDEST PUSH1 0x0 PUSH1 0x20 DUP3 ADD SWAP1 POP PUSH2 0x8C9E PUSH1 0x0 DUP4 ADD DUP5 PUSH2 0x8C7A JUMP JUMPDEST SWAP3 SWAP2 POP POP JUMP JUMPDEST PUSH1 0x0 DUP1 DUP4 PUSH1 0x1F DUP5 ADD SLT PUSH2 0x8CBA JUMPI PUSH2 0x8CB9 PUSH2 0x81AE JUMP JUMPDEST JUMPDEST DUP3 CALLDATALOAD SWAP1 POP PUSH8 0xFFFFFFFFFFFFFFFF DUP2 GT ISZERO PUSH2 0x8CD7 JUMPI PUSH2 0x8CD6 PUSH2 0x8782 JUMP JUMPDEST JUMPDEST PUSH1 0x20 DUP4 ADD SWAP2 POP DUP4 PUSH1 0x20 DUP3 MUL DUP4 ADD GT ISZERO PUSH2 0x8CF3 JUMPI PUSH2 0x8CF2 PUSH2 0x8623 JUMP JUMPDEST JUMPDEST SWAP3 POP SWAP3 SWAP1 POP JUMP JUMPDEST PUSH1 0x0 DUP1 DUP4 PUSH1 0x1F DUP5 ADD SLT PUSH2 0x8D10 JUMPI PUSH2 0x8D0F PUSH2 0x81AE JUMP JUMPDEST JUMPDEST DUP3 CALLDATALOAD SWAP1 POP PUSH8 0xFFFFFFFFFFFFFFFF DUP2 GT ISZERO PUSH2 0x8D2D JUMPI PUSH2 0x8D2C PUSH2 0x8782 JUMP JUMPDEST JUMPDEST PUSH1 0x20 DUP4 ADD SWAP2 POP DUP4 PUSH1 0x20 DUP3 MUL DUP4 ADD GT ISZERO PUSH2 0x8D49 JUMPI PUSH2 0x8D48 PUSH2 0x8623 JUMP JUMPDEST JUMPDEST SWAP3 POP SWAP3 SWAP1 POP JUMP JUMPDEST PUSH1 0x0 DUP1 PUSH1 0x0 DUP1 PUSH1 0x0 DUP1 PUSH1 0x60 DUP8 DUP10 SUB SLT ISZERO PUSH2 0x8D6D JUMPI PUSH2 0x8D6C PUSH2 0x7EB9 JUMP JUMPDEST JUMPDEST PUSH1 0x0 DUP8 ADD CALLDATALOAD PUSH8 0xFFFFFFFFFFFFFFFF DUP2 GT ISZERO PUSH2 0x8D8B JUMPI PUSH2 0x8D8A PUSH2 0x7EBE JUMP JUMPDEST JUMPDEST PUSH2 0x8D97 DUP10 DUP3 DUP11 ADD PUSH2 0x8CA4 JUMP JUMPDEST SWAP7 POP SWAP7 POP POP PUSH1 0x20 DUP8 ADD CALLDATALOAD PUSH8 0xFFFFFFFFFFFFFFFF DUP2 GT ISZERO PUSH2 0x8DBA JUMPI PUSH2 0x8DB9 PUSH2 0x7EBE JUMP JUMPDEST JUMPDEST PUSH2 0x8DC6 DUP10 DUP3 DUP11 ADD PUSH2 0x8CFA JUMP JUMPDEST SWAP5 POP SWAP5 POP POP PUSH1 0x40 DUP8 ADD CALLDATALOAD PUSH8 0xFFFFFFFFFFFFFFFF DUP2 GT ISZERO PUSH2 0x8DE9 JUMPI PUSH2 0x8DE8 PUSH2 0x7EBE JUMP JUMPDEST JUMPDEST PUSH2 0x8DF5 DUP10 DUP3 DUP11 ADD PUSH2 0x8CA4 JUMP JUMPDEST SWAP3 POP SWAP3 POP POP SWAP3 SWAP6 POP SWAP3 SWAP6 POP SWAP3 SWAP6 JUMP JUMPDEST PUSH1 0x0 DUP1 DUP4 PUSH1 0x1F DUP5 ADD SLT PUSH2 0x8E1A JUMPI PUSH2 0x8E19 PUSH2 0x81AE JUMP JUMPDEST JUMPDEST DUP3 CALLDATALOAD SWAP1 POP PUSH8 0xFFFFFFFFFFFFFFFF DUP2 GT ISZERO PUSH2 0x8E37 JUMPI PUSH2 0x8E36 PUSH2 0x8782 JUMP JUMPDEST JUMPDEST PUSH1 0x20 DUP4 ADD SWAP2 POP DUP4 PUSH1 0x1 DUP3 MUL DUP4 ADD GT ISZERO PUSH2 0x8E53 JUMPI PUSH2 0x8E52 PUSH2 0x8623 JUMP JUMPDEST JUMPDEST SWAP3 POP SWAP3 SWAP1 POP JUMP JUMPDEST PUSH1 0x0 DUP1 PUSH1 0x20 DUP4 DUP6 SUB SLT ISZERO PUSH2 0x8E71 JUMPI PUSH2 0x8E70 PUSH2 0x7EB9 JUMP JUMPDEST JUMPDEST PUSH1 0x0 DUP4 ADD CALLDATALOAD PUSH8 0xFFFFFFFFFFFFFFFF DUP2 GT ISZERO PUSH2 0x8E8F JUMPI PUSH2 0x8E8E PUSH2 0x7EBE JUMP JUMPDEST JUMPDEST PUSH2 0x8E9B DUP6 DUP3 DUP7 ADD PUSH2 0x8E04 JUMP JUMPDEST SWAP3 POP SWAP3 POP POP SWAP3 POP SWAP3 SWAP1 POP JUMP JUMPDEST PUSH2 0x8EB0 DUP2 PUSH2 0x7F48 JUMP JUMPDEST DUP2 EQ PUSH2 0x8EBB JUMPI PUSH1 0x0 DUP1 REVERT JUMPDEST POP JUMP JUMPDEST PUSH1 0x0 DUP2 CALLDATALOAD SWAP1 POP PUSH2 0x8ECD DUP2 PUSH2 0x8EA7 JUMP JUMPDEST SWAP3 SWAP2 POP POP JUMP JUMPDEST PUSH1 0x0 DUP1 PUSH1 0x40 DUP4 DUP6 SUB SLT ISZERO PUSH2 0x8EEA JUMPI PUSH2 0x8EE9 PUSH2 0x7EB9 JUMP JUMPDEST JUMPDEST PUSH1 0x0 PUSH2 0x8EF8 DUP6 DUP3 DUP7 ADD PUSH2 0x8159 JUMP JUMPDEST SWAP3 POP POP PUSH1 0x20 PUSH2 0x8F09 DUP6 DUP3 DUP7 ADD PUSH2 0x8EBE JUMP JUMPDEST SWAP2 POP POP SWAP3 POP SWAP3 SWAP1 POP JUMP JUMPDEST PUSH1 0x0 PUSH2 0x8F1E DUP3 PUSH2 0x83FB JUMP JUMPDEST SWAP1 POP SWAP2 SWAP1 POP JUMP JUMPDEST PUSH2 0x8F2E DUP2 PUSH2 0x8F13 JUMP JUMPDEST DUP3 MSTORE POP POP JUMP JUMPDEST PUSH1 0x0 PUSH1 0x20 DUP3 ADD SWAP1 POP PUSH2 0x8F49 PUSH1 0x0 DUP4 ADD DUP5 PUSH2 0x8F25 JUMP JUMPDEST SWAP3 SWAP2 POP POP JUMP JUMPDEST PUSH1 0x0 DUP1 PUSH1 0x0 DUP1 PUSH1 0x80 DUP6 DUP8 SUB SLT ISZERO PUSH2 0x8F69 JUMPI PUSH2 0x8F68 PUSH2 0x7EB9 JUMP JUMPDEST JUMPDEST PUSH1 0x0 PUSH2 0x8F77 DUP8 DUP3 DUP9 ADD PUSH2 0x8159 JUMP JUMPDEST SWAP5 POP POP PUSH1 0x20 PUSH2 0x8F88 DUP8 DUP3 DUP9 ADD PUSH2 0x8159 JUMP JUMPDEST SWAP4 POP POP PUSH1 0x40 PUSH2 0x8F99 DUP8 DUP3 DUP9 ADD PUSH2 0x7F9F JUMP JUMPDEST SWAP3 POP POP PUSH1 0x60 DUP6 ADD CALLDATALOAD PUSH8 0xFFFFFFFFFFFFFFFF DUP2 GT ISZERO PUSH2 0x8FBA JUMPI PUSH2 0x8FB9 PUSH2 0x7EBE JUMP JUMPDEST JUMPDEST PUSH2 0x8FC6 DUP8 DUP3 DUP9 ADD PUSH2 0x82B5 JUMP JUMPDEST SWAP2 POP POP SWAP3 SWAP6 SWAP2 SWAP5 POP SWAP3 POP JUMP JUMPDEST PUSH1 0x0 PUSH2 0x8FDD DUP3 PUSH2 0x83FB JUMP JUMPDEST SWAP1 POP SWAP2 SWAP1 POP JUMP JUMPDEST PUSH2 0x8FED DUP2 PUSH2 0x8FD2 JUMP JUMPDEST DUP3 MSTORE POP POP JUMP JUMPDEST PUSH1 0x0 PUSH1 0x20 DUP3 ADD SWAP1 POP PUSH2 0x9008 PUSH1 0x0 DUP4 ADD DUP5 PUSH2 0x8FE4 JUMP JUMPDEST SWAP3 SWAP2 POP POP JUMP JUMPDEST PUSH1 0x0 DUP1 PUSH1 0x0 DUP1 PUSH1 0x0 DUP1 PUSH1 0x60 DUP8 DUP10 SUB SLT ISZERO PUSH2 0x902B JUMPI PUSH2 0x902A PUSH2 0x7EB9 JUMP JUMPDEST JUMPDEST PUSH1 0x0 DUP8 ADD CALLDATALOAD PUSH8 0xFFFFFFFFFFFFFFFF DUP2 GT ISZERO PUSH2 0x9049 JUMPI PUSH2 0x9048 PUSH2 0x7EBE JUMP JUMPDEST JUMPDEST PUSH2 0x9055 DUP10 DUP3 DUP11 ADD PUSH2 0x8AC1 JUMP JUMPDEST SWAP7 POP SWAP7 POP POP PUSH1 0x20 DUP8 ADD CALLDATALOAD PUSH8 0xFFFFFFFFFFFFFFFF DUP2 GT ISZERO PUSH2 0x9078 JUMPI PUSH2 0x9077 PUSH2 0x7EBE JUMP JUMPDEST JUMPDEST PUSH2 0x9084 DUP10 DUP3 DUP11 ADD PUSH2 0x8AC1 JUMP JUMPDEST SWAP5 POP SWAP5 POP POP PUSH1 0x40 DUP8 ADD CALLDATALOAD PUSH8 0xFFFFFFFFFFFFFFFF DUP2 GT ISZERO PUSH2 0x90A7 JUMPI PUSH2 0x90A6 PUSH2 0x7EBE JUMP JUMPDEST JUMPDEST PUSH2 0x90B3 DUP10 DUP3 DUP11 ADD PUSH2 0x8AC1 JUMP JUMPDEST SWAP3 POP SWAP3 POP POP SWAP3 SWAP6 POP SWAP3 SWAP6 POP SWAP3 SWAP6 JUMP JUMPDEST PUSH1 0x0 PUSH2 0xFFFF DUP3 AND SWAP1 POP SWAP2 SWAP1 POP JUMP JUMPDEST PUSH2 0x90D9 DUP2 PUSH2 0x90C2 JUMP JUMPDEST DUP3 MSTORE POP POP JUMP JUMPDEST PUSH1 0x0 PUSH1 0x20 DUP3 ADD SWAP1 POP PUSH2 0x90F4 PUSH1 0x0 DUP4 ADD DUP5 PUSH2 0x90D0 JUMP JUMPDEST SWAP3 SWAP2 POP POP JUMP JUMPDEST PUSH1 0x0 DUP1 PUSH1 0x0 DUP1 PUSH1 0x0 PUSH1 0x80 DUP7 DUP9 SUB SLT ISZERO PUSH2 0x9116 JUMPI PUSH2 0x9115 PUSH2 0x7EB9 JUMP JUMPDEST JUMPDEST PUSH1 0x0 PUSH2 0x9124 DUP9 DUP3 DUP10 ADD PUSH2 0x7F9F JUMP JUMPDEST SWAP6 POP POP PUSH1 0x20 PUSH2 0x9135 DUP9 DUP3 DUP10 ADD PUSH2 0x7F9F JUMP JUMPDEST SWAP5 POP POP PUSH1 0x40 PUSH2 0x9146 DUP9 DUP3 DUP10 ADD PUSH2 0x8159 JUMP JUMPDEST SWAP4 POP POP PUSH1 0x60 DUP7 ADD CALLDATALOAD PUSH8 0xFFFFFFFFFFFFFFFF DUP2 GT ISZERO PUSH2 0x9167 JUMPI PUSH2 0x9166 PUSH2 0x7EBE JUMP JUMPDEST JUMPDEST PUSH2 0x9173 DUP9 DUP3 DUP10 ADD PUSH2 0x8E04 JUMP JUMPDEST SWAP3 POP SWAP3 POP POP SWAP3 SWAP6 POP SWAP3 SWAP6 SWAP1 SWAP4 POP JUMP JUMPDEST PUSH1 0x0 DUP1 PUSH1 0x0 PUSH1 0x60 DUP5 DUP7 SUB SLT ISZERO PUSH2 0x919B JUMPI PUSH2 0x919A PUSH2 0x7EB9 JUMP JUMPDEST JUMPDEST PUSH1 0x0 PUSH2 0x91A9 DUP7 DUP3 DUP8 ADD PUSH2 0x8159 JUMP JUMPDEST SWAP4 POP POP PUSH1 0x20 PUSH2 0x91BA DUP7 DUP3 DUP8 ADD PUSH2 0x8AAC JUMP JUMPDEST SWAP3 POP POP PUSH1 0x40 PUSH2 0x91CB DUP7 DUP3 DUP8 ADD PUSH2 0x7F9F JUMP JUMPDEST SWAP2 POP POP SWAP3 POP SWAP3 POP SWAP3 JUMP JUMPDEST PUSH1 0x0 DUP1 PUSH1 0x40 DUP4 DUP6 SUB SLT ISZERO PUSH2 0x91EC JUMPI PUSH2 0x91EB PUSH2 0x7EB9 JUMP JUMPDEST JUMPDEST PUSH1 0x0 PUSH2 0x91FA DUP6 DUP3 DUP7 ADD PUSH2 0x8159 JUMP JUMPDEST SWAP3 POP POP PUSH1 0x20 PUSH2 0x920B DUP6 DUP3 DUP7 ADD PUSH2 0x8159 JUMP JUMPDEST SWAP2 POP POP SWAP3 POP SWAP3 SWAP1 POP JUMP JUMPDEST PUSH1 0x0 DUP1 PUSH1 0x0 PUSH1 0x60 DUP5 DUP7 SUB SLT ISZERO PUSH2 0x922E JUMPI PUSH2 0x922D PUSH2 0x7EB9 JUMP JUMPDEST JUMPDEST PUSH1 0x0 PUSH2 0x923C DUP7 DUP3 DUP8 ADD PUSH2 0x8159 JUMP JUMPDEST SWAP4 POP POP PUSH1 0x20 PUSH2 0x924D DUP7 DUP3 DUP8 ADD PUSH2 0x7F9F JUMP JUMPDEST SWAP3 POP POP PUSH1 0x40 PUSH2 0x925E DUP7 DUP3 DUP8 ADD PUSH2 0x7F9F JUMP JUMPDEST SWAP2 POP POP SWAP3 POP SWAP3 POP SWAP3 JUMP JUMPDEST PUSH32 0x4E487B7100000000000000000000000000000000000000000000000000000000 PUSH1 0x0 MSTORE PUSH1 0x11 PUSH1 0x4 MSTORE PUSH1 0x24 PUSH1 0x0 REVERT JUMPDEST PUSH1 0x0 PUSH2 0x92A2 DUP3 PUSH2 0x7F7E JUMP JUMPDEST SWAP2 POP PUSH2 0x92AD DUP4 PUSH2 0x7F7E JUMP JUMPDEST SWAP3 POP DUP3 DUP3 SUB SWAP1 POP DUP2 DUP2 GT ISZERO PUSH2 0x92C5 JUMPI PUSH2 0x92C4 PUSH2 0x9268 JUMP JUMPDEST JUMPDEST SWAP3 SWAP2 POP POP JUMP JUMPDEST PUSH32 0x4E487B7100000000000000000000000000000000000000000000000000000000 PUSH1 0x0 MSTORE PUSH1 0x22 PUSH1 0x4 MSTORE PUSH1 0x24 PUSH1 0x0 REVERT JUMPDEST PUSH1 0x0 PUSH1 0x2 DUP3 DIV SWAP1 POP PUSH1 0x1 DUP3 AND DUP1 PUSH2 0x9312 JUMPI PUSH1 0x7F DUP3 AND SWAP2 POP JUMPDEST PUSH1 0x20 DUP3 LT DUP2 SUB PUSH2 0x9325 JUMPI PUSH2 0x9324 PUSH2 0x92CB JUMP JUMPDEST JUMPDEST POP SWAP2 SWAP1 POP JUMP JUMPDEST PUSH1 0x0 DUP2 MLOAD SWAP1 POP SWAP2 SWAP1 POP JUMP JUMPDEST PUSH1 0x0 DUP3 DUP3 MSTORE PUSH1 0x20 DUP3 ADD SWAP1 POP SWAP3 SWAP2 POP POP JUMP JUMPDEST PUSH1 0x0 PUSH2 0x9352 DUP3 PUSH2 0x932B JUMP JUMPDEST PUSH2 0x935C DUP2 DUP6 PUSH2 0x9336 JUMP JUMPDEST SWAP4 POP PUSH2 0x936C DUP2 DUP6 PUSH1 0x20 DUP7 ADD PUSH2 0x8023 JUMP JUMPDEST PUSH2 0x9375 DUP2 PUSH2 0x804D JUMP JUMPDEST DUP5 ADD SWAP2 POP POP SWAP3 SWAP2 POP POP JUMP JUMPDEST PUSH1 0x0 PUSH1 0x80 DUP3 ADD SWAP1 POP PUSH2 0x9395 PUSH1 0x0 DUP4 ADD DUP8 PUSH2 0x8118 JUMP JUMPDEST PUSH2 0x93A2 PUSH1 0x20 DUP4 ADD DUP7 PUSH2 0x8118 JUMP JUMPDEST PUSH2 0x93AF PUSH1 0x40 DUP4 ADD DUP6 PUSH2 0x8118 JUMP JUMPDEST DUP2 DUP2 SUB PUSH1 0x60 DUP4 ADD MSTORE PUSH2 0x93C1 DUP2 DUP5 PUSH2 0x9347 JUMP JUMPDEST SWAP1 POP SWAP6 SWAP5 POP POP POP POP POP JUMP JUMPDEST PUSH1 0x0 DUP2 MLOAD SWAP1 POP PUSH2 0x93DB DUP2 PUSH2 0x7F88 JUMP JUMPDEST SWAP3 SWAP2 POP POP JUMP JUMPDEST PUSH1 0x0 PUSH1 0x20 DUP3 DUP5 SUB SLT ISZERO PUSH2 0x93F7 JUMPI PUSH2 0x93F6 PUSH2 0x7EB9 JUMP JUMPDEST JUMPDEST PUSH1 0x0 PUSH2 0x9405 DUP5 DUP3 DUP6 ADD PUSH2 0x93CC JUMP JUMPDEST SWAP2 POP POP SWAP3 SWAP2 POP POP JUMP JUMPDEST PUSH1 0x0 PUSH1 0x40 DUP3 ADD SWAP1 POP PUSH2 0x9423 PUSH1 0x0 DUP4 ADD DUP6 PUSH2 0x8118 JUMP JUMPDEST PUSH2 0x9430 PUSH1 0x20 DUP4 ADD DUP5 PUSH2 0x8118 JUMP JUMPDEST SWAP4 SWAP3 POP POP POP JUMP JUMPDEST PUSH1 0x0 PUSH1 0x60 DUP3 ADD SWAP1 POP PUSH2 0x944C PUSH1 0x0 DUP4 ADD DUP7 PUSH2 0x8352 JUMP JUMPDEST PUSH2 0x9459 PUSH1 0x20 DUP4 ADD DUP6 PUSH2 0x8352 JUMP JUMPDEST PUSH2 0x9466 PUSH1 0x40 DUP4 ADD DUP5 PUSH2 0x8352 JUMP JUMPDEST SWAP5 SWAP4 POP POP POP POP JUMP JUMPDEST PUSH1 0x0 PUSH2 0x9479 DUP3 PUSH2 0x7F7E JUMP JUMPDEST SWAP2 POP PUSH2 0x9484 DUP4 PUSH2 0x7F7E JUMP JUMPDEST SWAP3 POP DUP3 DUP3 ADD SWAP1 POP DUP1 DUP3 GT ISZERO PUSH2 0x949C JUMPI PUSH2 0x949B PUSH2 0x9268 JUMP JUMPDEST JUMPDEST SWAP3 SWAP2 POP POP JUMP JUMPDEST PUSH32 0x4E487B7100000000000000000000000000000000000000000000000000000000 PUSH1 0x0 MSTORE PUSH1 0x32 PUSH1 0x4 MSTORE PUSH1 0x24 PUSH1 0x0 REVERT JUMPDEST PUSH1 0x0 DUP1 REVERT JUMPDEST PUSH1 0x0 DUP1 REVERT JUMPDEST PUSH1 0x0 DUP1 REVERT JUMPDEST PUSH1 0x0 DUP1 DUP4 CALLDATALOAD PUSH1 0x1 PUSH1 0x20 SUB DUP5 CALLDATASIZE SUB SUB DUP2 SLT PUSH2 0x94FD JUMPI PUSH2 0x94FC PUSH2 0x94D1 JUMP JUMPDEST JUMPDEST DUP1 DUP5 ADD SWAP3 POP DUP3 CALLDATALOAD SWAP2 POP PUSH8 0xFFFFFFFFFFFFFFFF DUP3 GT ISZERO PUSH2 0x951F JUMPI PUSH2 0x951E PUSH2 0x94D6 JUMP JUMPDEST JUMPDEST PUSH1 0x20 DUP4 ADD SWAP3 POP PUSH1 0x1 DUP3 MUL CALLDATASIZE SUB DUP4 SGT ISZERO PUSH2 0x953B JUMPI PUSH2 0x953A PUSH2 0x94DB JUMP JUMPDEST JUMPDEST POP SWAP3 POP SWAP3 SWAP1 POP JUMP JUMPDEST PUSH1 0x0 PUSH2 0x954F DUP4 DUP6 PUSH2 0x9336 JUMP JUMPDEST SWAP4 POP PUSH2 0x955C DUP4 DUP6 DUP5 PUSH2 0x8264 JUMP JUMPDEST PUSH2 0x9565 DUP4 PUSH2 0x804D JUMP JUMPDEST DUP5 ADD SWAP1 POP SWAP4 SWAP3 POP POP POP JUMP JUMPDEST PUSH1 0x0 PUSH1 0xE0 DUP3 ADD SWAP1 POP PUSH2 0x9585 PUSH1 0x0 DUP4 ADD DUP12 PUSH2 0x8352 JUMP JUMPDEST PUSH2 0x9592 PUSH1 0x20 DUP4 ADD DUP11 PUSH2 0x8118 JUMP JUMPDEST PUSH2 0x959F PUSH1 0x40 DUP4 ADD DUP10 PUSH2 0x8118 JUMP JUMPDEST PUSH2 0x95AC PUSH1 0x60 DUP4 ADD DUP9 PUSH2 0x8118 JUMP JUMPDEST DUP2 DUP2 SUB PUSH1 0x80 DUP4 ADD MSTORE PUSH2 0x95BF DUP2 DUP7 DUP9 PUSH2 0x9543 JUMP JUMPDEST SWAP1 POP PUSH2 0x95CE PUSH1 0xA0 DUP4 ADD DUP6 PUSH2 0x8352 JUMP JUMPDEST PUSH2 0x95DB PUSH1 0xC0 DUP4 ADD DUP5 PUSH2 0x8352 JUMP JUMPDEST SWAP10 SWAP9 POP POP POP POP POP POP POP POP POP JUMP JUMPDEST PUSH1 0x0 PUSH2 0x95F3 DUP3 PUSH2 0x7F7E JUMP JUMPDEST SWAP2 POP PUSH32 0xFFFFFFFFFFFFFFFFFFFFFFFFFFFFFFFFFFFFFFFFFFFFFFFFFFFFFFFFFFFFFFFF DUP3 SUB PUSH2 0x9625 JUMPI PUSH2 0x9624 PUSH2 0x9268 JUMP JUMPDEST JUMPDEST PUSH1 0x1 DUP3 ADD SWAP1 POP SWAP2 SWAP1 POP JUMP JUMPDEST PUSH32 0x416363657373436F6E74726F6C3A2063616E206F6E6C792072656E6F756E6365 PUSH1 0x0 DUP3 ADD MSTORE PUSH32 0x20726F6C657320666F722073656C660000000000000000000000000000000000 PUSH1 0x20 DUP3 ADD MSTORE POP JUMP JUMPDEST PUSH1 0x0 PUSH2 0x968C PUSH1 0x2F DUP4 PUSH2 0x8012 JUMP JUMPDEST SWAP2 POP PUSH2 0x9697 DUP3 PUSH2 0x9630 JUMP JUMPDEST PUSH1 0x40 DUP3 ADD SWAP1 POP SWAP2 SWAP1 POP JUMP JUMPDEST PUSH1 0x0 PUSH1 0x20 DUP3 ADD SWAP1 POP DUP2 DUP2 SUB PUSH1 0x0 DUP4 ADD MSTORE PUSH2 0x96BB DUP2 PUSH2 0x967F JUMP JUMPDEST SWAP1 POP SWAP2 SWAP1 POP JUMP JUMPDEST PUSH1 0x0 PUSH1 0x40 DUP3 ADD SWAP1 POP PUSH2 0x96D7 PUSH1 0x0 DUP4 ADD DUP6 PUSH2 0x8352 JUMP JUMPDEST PUSH2 0x96E4 PUSH1 0x20 DUP4 ADD DUP5 PUSH2 0x8352 JUMP JUMPDEST SWAP4 SWAP3 POP POP POP JUMP JUMPDEST PUSH1 0x0 PUSH2 0x96F6 DUP3 PUSH2 0x7F7E JUMP JUMPDEST SWAP2 POP PUSH2 0x9701 DUP4 PUSH2 0x7F7E JUMP JUMPDEST SWAP3 POP DUP3 DUP3 MUL PUSH2 0x970F DUP2 PUSH2 0x7F7E JUMP JUMPDEST SWAP2 POP DUP3 DUP3 DIV DUP5 EQ DUP4 ISZERO OR PUSH2 0x9726 JUMPI PUSH2 0x9725 PUSH2 0x9268 JUMP JUMPDEST JUMPDEST POP SWAP3 SWAP2 POP POP JUMP JUMPDEST PUSH32 0x4E487B7100000000000000000000000000000000000000000000000000000000 PUSH1 0x0 MSTORE PUSH1 0x12 PUSH1 0x4 MSTORE PUSH1 0x24 PUSH1 0x0 REVERT JUMPDEST PUSH1 0x0 PUSH2 0x9767 DUP3 PUSH2 0x7F7E JUMP JUMPDEST SWAP2 POP PUSH2 0x9772 DUP4 PUSH2 0x7F7E JUMP JUMPDEST SWAP3 POP DUP3 PUSH2 0x9782 JUMPI PUSH2 0x9781 PUSH2 0x972D JUMP JUMPDEST JUMPDEST DUP3 DUP3 DIV SWAP1 POP SWAP3 SWAP2 POP POP JUMP JUMPDEST PUSH1 0x0 DUP2 SWAP1 POP SWAP2 SWAP1 POP JUMP JUMPDEST PUSH1 0x0 PUSH2 0x97B2 PUSH2 0x97AD PUSH2 0x97A8 DUP5 PUSH2 0x978D JUMP JUMPDEST PUSH2 0x83CF JUMP JUMPDEST PUSH2 0x7F7E JUMP JUMPDEST SWAP1 POP SWAP2 SWAP1 POP JUMP JUMPDEST PUSH2 0x97C2 DUP2 PUSH2 0x9797 JUMP JUMPDEST DUP3 MSTORE POP POP JUMP JUMPDEST PUSH1 0x0 PUSH1 0xC0 DUP3 ADD SWAP1 POP PUSH2 0x97DD PUSH1 0x0 DUP4 ADD DUP10 PUSH2 0x8118 JUMP JUMPDEST PUSH2 0x97EA PUSH1 0x20 DUP4 ADD DUP9 PUSH2 0x8118 JUMP JUMPDEST PUSH2 0x97F7 PUSH1 0x40 DUP4 ADD DUP8 PUSH2 0x97B9 JUMP JUMPDEST PUSH2 0x9804 PUSH1 0x60 DUP4 ADD DUP7 PUSH2 0x97B9 JUMP JUMPDEST PUSH2 0x9811 PUSH1 0x80 DUP4 ADD DUP6 PUSH2 0x8118 JUMP JUMPDEST PUSH2 0x981E PUSH1 0xA0 DUP4 ADD DUP5 PUSH2 0x7F54 JUMP JUMPDEST SWAP8 SWAP7 POP POP POP POP POP POP POP JUMP JUMPDEST PUSH1 0x0 DUP2 MLOAD SWAP1 POP PUSH2 0x9838 DUP2 PUSH2 0x8EA7 JUMP JUMPDEST SWAP3 SWAP2 POP POP JUMP JUMPDEST PUSH1 0x0 PUSH1 0x20 DUP3 DUP5 SUB SLT ISZERO PUSH2 0x9854 JUMPI PUSH2 0x9853 PUSH2 0x7EB9 JUMP JUMPDEST JUMPDEST PUSH1 0x0 PUSH2 0x9862 DUP5 DUP3 DUP6 ADD PUSH2 0x9829 JUMP JUMPDEST SWAP2 POP POP SWAP3 SWAP2 POP POP JUMP JUMPDEST PUSH32 0x496E697469616C697A61626C653A20636F6E747261637420697320616C726561 PUSH1 0x0 DUP3 ADD MSTORE PUSH32 0x647920696E697469616C697A6564000000000000000000000000000000000000 PUSH1 0x20 DUP3 ADD MSTORE POP JUMP JUMPDEST PUSH1 0x0 PUSH2 0x98C7 PUSH1 0x2E DUP4 PUSH2 0x8012 JUMP JUMPDEST SWAP2 POP PUSH2 0x98D2 DUP3 PUSH2 0x986B JUMP JUMPDEST PUSH1 0x40 DUP3 ADD SWAP1 POP SWAP2 SWAP1 POP JUMP JUMPDEST PUSH1 0x0 PUSH1 0x20 DUP3 ADD SWAP1 POP DUP2 DUP2 SUB PUSH1 0x0 DUP4 ADD MSTORE PUSH2 0x98F6 DUP2 PUSH2 0x98BA JUMP JUMPDEST SWAP1 POP SWAP2 SWAP1 POP JUMP JUMPDEST PUSH1 0x0 DUP2 SWAP1 POP SWAP2 SWAP1 POP JUMP JUMPDEST PUSH1 0x0 PUSH1 0xFF DUP3 AND SWAP1 POP SWAP2 SWAP1 POP JUMP JUMPDEST PUSH1 0x0 PUSH2 0x992F PUSH2 0x992A PUSH2 0x9925 DUP5 PUSH2 0x98FD JUMP JUMPDEST PUSH2 0x83CF JUMP JUMPDEST PUSH2 0x9907 JUMP JUMPDEST SWAP1 POP SWAP2 SWAP1 POP JUMP JUMPDEST PUSH2 0x993F DUP2 PUSH2 0x9914 JUMP JUMPDEST DUP3 MSTORE POP POP JUMP JUMPDEST PUSH1 0x0 PUSH1 0x20 DUP3 ADD SWAP1 POP PUSH2 0x995A PUSH1 0x0 DUP4 ADD DUP5 PUSH2 0x9936 JUMP JUMPDEST SWAP3 SWAP2 POP POP JUMP JUMPDEST PUSH1 0x0 PUSH2 0x997B PUSH2 0x9976 PUSH2 0x9971 DUP5 PUSH2 0x978D JUMP JUMPDEST PUSH2 0x83CF JUMP JUMPDEST PUSH2 0x9907 JUMP JUMPDEST SWAP1 POP SWAP2 SWAP1 POP JUMP JUMPDEST PUSH2 0x998B DUP2 PUSH2 0x9960 JUMP JUMPDEST DUP3 MSTORE POP POP JUMP JUMPDEST PUSH1 0x0 PUSH1 0x20 DUP3 ADD SWAP1 POP PUSH2 0x99A6 PUSH1 0x0 DUP4 ADD DUP5 PUSH2 0x9982 JUMP JUMPDEST SWAP3 SWAP2 POP POP JUMP JUMPDEST PUSH1 0x0 DUP2 SWAP1 POP SWAP2 SWAP1 POP JUMP JUMPDEST PUSH1 0x0 PUSH2 0x99D1 PUSH2 0x99CC PUSH2 0x99C7 DUP5 PUSH2 0x99AC JUMP JUMPDEST PUSH2 0x83CF JUMP JUMPDEST PUSH2 0x9907 JUMP JUMPDEST SWAP1 POP SWAP2 SWAP1 POP JUMP JUMPDEST PUSH2 0x99E1 DUP2 PUSH2 0x99B6 JUMP JUMPDEST DUP3 MSTORE POP POP JUMP JUMPDEST PUSH1 0x0 PUSH1 0x20 DUP3 ADD SWAP1 POP PUSH2 0x99FC PUSH1 0x0 DUP4 ADD DUP5 PUSH2 0x99D8 JUMP JUMPDEST SWAP3 SWAP2 POP POP JUMP JUMPDEST PUSH1 0x0 DUP2 SWAP1 POP SWAP2 SWAP1 POP JUMP JUMPDEST PUSH1 0x0 PUSH2 0x9A27 PUSH2 0x9A22 PUSH2 0x9A1D DUP5 PUSH2 0x9A02 JUMP JUMPDEST PUSH2 0x83CF JUMP JUMPDEST PUSH2 0x9907 JUMP JUMPDEST SWAP1 POP SWAP2 SWAP1 POP JUMP JUMPDEST PUSH2 0x9A37 DUP2 PUSH2 0x9A0C JUMP JUMPDEST DUP3 MSTORE POP POP JUMP JUMPDEST PUSH1 0x0 PUSH1 0x20 DUP3 ADD SWAP1 POP PUSH2 0x9A52 PUSH1 0x0 DUP4 ADD DUP5 PUSH2 0x9A2E JUMP JUMPDEST SWAP3 SWAP2 POP POP JUMP JUMPDEST PUSH1 0x0 DUP2 SWAP1 POP SWAP2 SWAP1 POP JUMP JUMPDEST PUSH1 0x0 PUSH2 0x9A7D PUSH2 0x9A78 PUSH2 0x9A73 DUP5 PUSH2 0x9A58 JUMP JUMPDEST PUSH2 0x83CF JUMP JUMPDEST PUSH2 0x9907 JUMP JUMPDEST SWAP1 POP SWAP2 SWAP1 POP JUMP JUMPDEST PUSH2 0x9A8D DUP2 PUSH2 0x9A62 JUMP JUMPDEST DUP3 MSTORE POP POP JUMP JUMPDEST PUSH1 0x0 PUSH1 0x20 DUP3 ADD SWAP1 POP PUSH2 0x9AA8 PUSH1 0x0 DUP4 ADD DUP5 PUSH2 0x9A84 JUMP JUMPDEST SWAP3 SWAP2 POP POP JUMP JUMPDEST PUSH1 0x0 DUP2 SWAP1 POP SWAP2 SWAP1 POP JUMP JUMPDEST PUSH1 0x0 PUSH2 0x9AD3 PUSH2 0x9ACE PUSH2 0x9AC9 DUP5 PUSH2 0x9AAE JUMP JUMPDEST PUSH2 0x83CF JUMP JUMPDEST PUSH2 0x9907 JUMP JUMPDEST SWAP1 POP SWAP2 SWAP1 POP JUMP JUMPDEST PUSH2 0x9AE3 DUP2 PUSH2 0x9AB8 JUMP JUMPDEST DUP3 MSTORE POP POP JUMP JUMPDEST PUSH1 0x0 PUSH1 0x20 DUP3 ADD SWAP1 POP PUSH2 0x9AFE PUSH1 0x0 DUP4 ADD DUP5 PUSH2 0x9ADA JUMP JUMPDEST SWAP3 SWAP2 POP POP JUMP JUMPDEST PUSH1 0x0 DUP2 SWAP1 POP SWAP2 SWAP1 POP JUMP JUMPDEST PUSH1 0x0 PUSH2 0x9B29 PUSH2 0x9B24 PUSH2 0x9B1F DUP5 PUSH2 0x9B04 JUMP JUMPDEST PUSH2 0x83CF JUMP JUMPDEST PUSH2 0x9907 JUMP JUMPDEST SWAP1 POP SWAP2 SWAP1 POP JUMP JUMPDEST PUSH2 0x9B39 DUP2 PUSH2 0x9B0E JUMP JUMPDEST DUP3 MSTORE POP POP JUMP JUMPDEST PUSH1 0x0 PUSH1 0x20 DUP3 ADD SWAP1 POP PUSH2 0x9B54 PUSH1 0x0 DUP4 ADD DUP5 PUSH2 0x9B30 JUMP JUMPDEST SWAP3 SWAP2 POP POP JUMP JUMPDEST PUSH1 0x0 PUSH1 0xE0 DUP3 ADD SWAP1 POP PUSH2 0x9B6F PUSH1 0x0 DUP4 ADD DUP11 PUSH2 0x8118 JUMP JUMPDEST PUSH2 0x9B7C PUSH1 0x20 DUP4 ADD DUP10 PUSH2 0x8118 JUMP JUMPDEST PUSH2 0x9B89 PUSH1 0x40 DUP4 ADD DUP9 PUSH2 0x8118 JUMP JUMPDEST PUSH2 0x9B96 PUSH1 0x60 DUP4 ADD DUP8 PUSH2 0x8118 JUMP JUMPDEST PUSH2 0x9BA3 PUSH1 0x80 DUP4 ADD DUP7 PUSH2 0x8118 JUMP JUMPDEST PUSH2 0x9BB0 PUSH1 0xA0 DUP4 ADD DUP6 PUSH2 0x8118 JUMP JUMPDEST PUSH2 0x9BBD PUSH1 0xC0 DUP4 ADD DUP5 PUSH2 0x8118 JUMP JUMPDEST SWAP9 SWAP8 POP POP POP POP POP POP POP POP JUMP JUMPDEST PUSH1 0x0 PUSH1 0xA0 DUP3 ADD SWAP1 POP PUSH2 0x9BDE PUSH1 0x0 DUP4 ADD DUP9 PUSH2 0x8352 JUMP JUMPDEST PUSH2 0x9BEB PUSH1 0x20 DUP4 ADD DUP8 PUSH2 0x8118 JUMP JUMPDEST PUSH2 0x9BF8 PUSH1 0x40 DUP4 ADD DUP7 PUSH2 0x8118 JUMP JUMPDEST PUSH2 0x9C05 PUSH1 0x60 DUP4 ADD DUP6 PUSH2 0x8118 JUMP JUMPDEST PUSH2 0x9C12 PUSH1 0x80 DUP4 ADD DUP5 PUSH2 0x8352 JUMP JUMPDEST SWAP7 SWAP6 POP POP POP POP POP POP JUMP JUMPDEST PUSH1 0x0 PUSH2 0x9C27 DUP3 PUSH2 0x90C2 JUMP JUMPDEST SWAP2 POP PUSH2 0x9C32 DUP4 PUSH2 0x90C2 JUMP JUMPDEST SWAP3 POP DUP3 DUP3 SUB SWAP1 POP PUSH2 0xFFFF DUP2 GT ISZERO PUSH2 0x9C4C JUMPI PUSH2 0x9C4B PUSH2 0x9268 JUMP JUMPDEST JUMPDEST SWAP3 SWAP2 POP POP JUMP JUMPDEST PUSH32 0x534348454D415F56455253494F4E5F4E4F545F434F5252454354000000000000 PUSH1 0x0 DUP3 ADD MSTORE POP JUMP JUMPDEST PUSH1 0x0 PUSH2 0x9C88 PUSH1 0x1A DUP4 PUSH2 0x8012 JUMP JUMPDEST SWAP2 POP PUSH2 0x9C93 DUP3 PUSH2 0x9C52 JUMP JUMPDEST PUSH1 0x20 DUP3 ADD SWAP1 POP SWAP2 SWAP1 POP JUMP JUMPDEST PUSH1 0x0 PUSH1 0x20 DUP3 ADD SWAP1 POP DUP2 DUP2 SUB PUSH1 0x0 DUP4 ADD MSTORE PUSH2 0x9CB7 DUP2 PUSH2 0x9C7B JUMP JUMPDEST SWAP1 POP SWAP2 SWAP1 POP JUMP JUMPDEST PUSH1 0x0 PUSH8 0xFFFFFFFFFFFFFFFF DUP3 GT ISZERO PUSH2 0x9CD9 JUMPI PUSH2 0x9CD8 PUSH2 0x81B8 JUMP JUMPDEST JUMPDEST PUSH2 0x9CE2 DUP3 PUSH2 0x804D JUMP JUMPDEST SWAP1 POP PUSH1 0x20 DUP2 ADD SWAP1 POP SWAP2 SWAP1 POP JUMP JUMPDEST PUSH1 0x0 PUSH2 0x9D02 PUSH2 0x9CFD DUP5 PUSH2 0x9CBE JUMP JUMPDEST PUSH2 0x8218 JUMP JUMPDEST SWAP1 POP DUP3 DUP2 MSTORE PUSH1 0x20 DUP2 ADD DUP5 DUP5 DUP5 ADD GT ISZERO PUSH2 0x9D1E JUMPI PUSH2 0x9D1D PUSH2 0x81B3 JUMP JUMPDEST JUMPDEST PUSH2 0x9D29 DUP5 DUP3 DUP6 PUSH2 0x8023 JUMP JUMPDEST POP SWAP4 SWAP3 POP POP POP JUMP JUMPDEST PUSH1 0x0 DUP3 PUSH1 0x1F DUP4 ADD SLT PUSH2 0x9D46 JUMPI PUSH2 0x9D45 PUSH2 0x81AE JUMP JUMPDEST JUMPDEST DUP2 MLOAD PUSH2 0x9D56 DUP5 DUP3 PUSH1 0x20 DUP7 ADD PUSH2 0x9CEF JUMP JUMPDEST SWAP2 POP POP SWAP3 SWAP2 POP POP JUMP JUMPDEST PUSH1 0x0 PUSH1 0x20 DUP3 DUP5 SUB SLT ISZERO PUSH2 0x9D75 JUMPI PUSH2 0x9D74 PUSH2 0x7EB9 JUMP JUMPDEST JUMPDEST PUSH1 0x0 DUP3 ADD MLOAD PUSH8 0xFFFFFFFFFFFFFFFF DUP2 GT ISZERO PUSH2 0x9D93 JUMPI PUSH2 0x9D92 PUSH2 0x7EBE JUMP JUMPDEST JUMPDEST PUSH2 0x9D9F DUP5 DUP3 DUP6 ADD PUSH2 0x9D31 JUMP JUMPDEST SWAP2 POP POP SWAP3 SWAP2 POP POP JUMP JUMPDEST PUSH1 0x0 PUSH1 0x80 DUP3 ADD SWAP1 POP PUSH2 0x9DBD PUSH1 0x0 DUP4 ADD DUP8 PUSH2 0x8352 JUMP JUMPDEST PUSH2 0x9DCA PUSH1 0x20 DUP4 ADD DUP7 PUSH2 0x8352 JUMP JUMPDEST PUSH2 0x9DD7 PUSH1 0x40 DUP4 ADD DUP6 PUSH2 0x8118 JUMP JUMPDEST PUSH2 0x9DE4 PUSH1 0x60 DUP4 ADD DUP5 PUSH2 0x8118 JUMP JUMPDEST SWAP6 SWAP5 POP POP POP POP POP JUMP JUMPDEST PUSH1 0x0 PUSH1 0xC0 DUP3 ADD SWAP1 POP PUSH2 0x9E02 PUSH1 0x0 DUP4 ADD DUP10 PUSH2 0x8118 JUMP JUMPDEST PUSH2 0x9E0F PUSH1 0x20 DUP4 ADD DUP9 PUSH2 0x8118 JUMP JUMPDEST PUSH2 0x9E1C PUSH1 0x40 DUP4 ADD DUP8 PUSH2 0x8352 JUMP JUMPDEST PUSH2 0x9E29 PUSH1 0x60 DUP4 ADD DUP7 PUSH2 0x8352 JUMP JUMPDEST PUSH2 0x9E36 PUSH1 0x80 DUP4 ADD DUP6 PUSH2 0x8118 JUMP JUMPDEST PUSH2 0x9E43 PUSH1 0xA0 DUP4 ADD DUP5 PUSH2 0x7F54 JUMP JUMPDEST SWAP8 SWAP7 POP POP POP POP POP POP POP JUMP JUMPDEST PUSH1 0x0 PUSH1 0xA0 DUP3 ADD SWAP1 POP PUSH2 0x9E63 PUSH1 0x0 DUP4 ADD DUP9 PUSH2 0x8118 JUMP JUMPDEST PUSH2 0x9E70 PUSH1 0x20 DUP4 ADD DUP8 PUSH2 0x8118 JUMP JUMPDEST PUSH2 0x9E7D PUSH1 0x40 DUP4 ADD DUP7 PUSH2 0x8118 JUMP JUMPDEST PUSH2 0x9E8A PUSH1 0x60 DUP4 ADD DUP6 PUSH2 0x8352 JUMP JUMPDEST PUSH2 0x9E97 PUSH1 0x80 DUP4 ADD DUP5 PUSH2 0x8352 JUMP JUMPDEST SWAP7 SWAP6 POP POP POP POP POP POP JUMP JUMPDEST PUSH1 0x0 DUP3 SWAP1 POP SWAP3 SWAP2 POP POP JUMP JUMPDEST PUSH1 0x0 DUP2 SWAP1 POP DUP2 PUSH1 0x0 MSTORE PUSH1 0x20 PUSH1 0x0 KECCAK256 SWAP1 POP SWAP2 SWAP1 POP JUMP JUMPDEST PUSH1 0x0 PUSH1 0x20 PUSH1 0x1F DUP4 ADD DIV SWAP1 POP SWAP2 SWAP1 POP JUMP JUMPDEST PUSH1 0x0 DUP3 DUP3 SHL SWAP1 POP SWAP3 SWAP2 POP POP JUMP JUMPDEST PUSH1 0x0 PUSH1 0x8 DUP4 MUL PUSH2 0x9F0E PUSH32 0xFFFFFFFFFFFFFFFFFFFFFFFFFFFFFFFFFFFFFFFFFFFFFFFFFFFFFFFFFFFFFFFF DUP3 PUSH2 0x9ED1 JUMP JUMPDEST PUSH2 0x9F18 DUP7 DUP4 PUSH2 0x9ED1 JUMP JUMPDEST SWAP6 POP DUP1 NOT DUP5 AND SWAP4 POP DUP1 DUP7 AND DUP5 OR SWAP3 POP POP POP SWAP4 SWAP3 POP POP POP JUMP JUMPDEST PUSH1 0x0 PUSH2 0x9F4B PUSH2 0x9F46 PUSH2 0x9F41 DUP5 PUSH2 0x7F7E JUMP JUMPDEST PUSH2 0x83CF JUMP JUMPDEST PUSH2 0x7F7E JUMP JUMPDEST SWAP1 POP SWAP2 SWAP1 POP JUMP JUMPDEST PUSH1 0x0 DUP2 SWAP1 POP SWAP2 SWAP1 POP JUMP JUMPDEST PUSH2 0x9F65 DUP4 PUSH2 0x9F30 JUMP JUMPDEST PUSH2 0x9F79 PUSH2 0x9F71 DUP3 PUSH2 0x9F52 JUMP JUMPDEST DUP5 DUP5 SLOAD PUSH2 0x9EDE JUMP JUMPDEST DUP3 SSTORE POP POP POP POP JUMP JUMPDEST PUSH1 0x0 SWAP1 JUMP JUMPDEST PUSH2 0x9F8E PUSH2 0x9F81 JUMP JUMPDEST PUSH2 0x9F99 DUP2 DUP5 DUP5 PUSH2 0x9F5C JUMP JUMPDEST POP POP POP JUMP JUMPDEST JUMPDEST DUP2 DUP2 LT ISZERO PUSH2 0x9FBD JUMPI PUSH2 0x9FB2 PUSH1 0x0 DUP3 PUSH2 0x9F86 JUMP JUMPDEST PUSH1 0x1 DUP2 ADD SWAP1 POP PUSH2 0x9F9F JUMP JUMPDEST POP POP JUMP JUMPDEST PUSH1 0x1F DUP3 GT ISZERO PUSH2 0xA002 JUMPI PUSH2 0x9FD3 DUP2 PUSH2 0x9EAC JUMP JUMPDEST PUSH2 0x9FDC DUP5 PUSH2 0x9EC1 JUMP JUMPDEST DUP2 ADD PUSH1 0x20 DUP6 LT ISZERO PUSH2 0x9FEB JUMPI DUP2 SWAP1 POP JUMPDEST PUSH2 0x9FFF PUSH2 0x9FF7 DUP6 PUSH2 0x9EC1 JUMP JUMPDEST DUP4 ADD DUP3 PUSH2 0x9F9E JUMP JUMPDEST POP POP JUMPDEST POP POP POP JUMP JUMPDEST PUSH1 0x0 DUP3 DUP3 SHR SWAP1 POP SWAP3 SWAP2 POP POP JUMP JUMPDEST PUSH1 0x0 PUSH2 0xA025 PUSH1 0x0 NOT DUP5 PUSH1 0x8 MUL PUSH2 0xA007 JUMP JUMPDEST NOT DUP1 DUP4 AND SWAP2 POP POP SWAP3 SWAP2 POP POP JUMP JUMPDEST PUSH1 0x0 PUSH2 0xA03E DUP4 DUP4 PUSH2 0xA014 JUMP JUMPDEST SWAP2 POP DUP3 PUSH1 0x2 MUL DUP3 OR SWAP1 POP SWAP3 SWAP2 POP POP JUMP JUMPDEST PUSH2 0xA058 DUP4 DUP4 PUSH2 0x9EA1 JUMP JUMPDEST PUSH8 0xFFFFFFFFFFFFFFFF DUP2 GT ISZERO PUSH2 0xA071 JUMPI PUSH2 0xA070 PUSH2 0x81B8 JUMP JUMPDEST JUMPDEST PUSH2 0xA07B DUP3 SLOAD PUSH2 0x92FA JUMP JUMPDEST PUSH2 0xA086 DUP3 DUP3 DUP6 PUSH2 0x9FC1 JUMP JUMPDEST PUSH1 0x0 PUSH1 0x1F DUP4 GT PUSH1 0x1 DUP2 EQ PUSH2 0xA0B5 JUMPI PUSH1 0x0 DUP5 ISZERO PUSH2 0xA0A3 JUMPI DUP3 DUP8 ADD CALLDATALOAD SWAP1 POP JUMPDEST PUSH2 0xA0AD DUP6 DUP3 PUSH2 0xA032 JUMP JUMPDEST DUP7 SSTORE POP PUSH2 0xA115 JUMP JUMPDEST PUSH1 0x1F NOT DUP5 AND PUSH2 0xA0C3 DUP7 PUSH2 0x9EAC JUMP JUMPDEST PUSH1 0x0 JUMPDEST DUP3 DUP2 LT ISZERO PUSH2 0xA0EB JUMPI DUP5 DUP10 ADD CALLDATALOAD DUP3 SSTORE PUSH1 0x1 DUP3 ADD SWAP2 POP PUSH1 0x20 DUP6 ADD SWAP5 POP PUSH1 0x20 DUP2 ADD SWAP1 POP PUSH2 0xA0C6 JUMP JUMPDEST DUP7 DUP4 LT ISZERO PUSH2 0xA108 JUMPI DUP5 DUP10 ADD CALLDATALOAD PUSH2 0xA104 PUSH1 0x1F DUP10 AND DUP3 PUSH2 0xA014 JUMP JUMPDEST DUP4 SSTORE POP JUMPDEST PUSH1 0x1 PUSH1 0x2 DUP9 MUL ADD DUP9 SSTORE POP POP POP JUMPDEST POP POP POP POP POP POP POP JUMP JUMPDEST PUSH1 0x0 DUP2 SLOAD PUSH2 0xA12B DUP2 PUSH2 0x92FA JUMP JUMPDEST PUSH2 0xA135 DUP2 DUP7 PUSH2 0x8012 JUMP JUMPDEST SWAP5 POP PUSH1 0x1 DUP3 AND PUSH1 0x0 DUP2 EQ PUSH2 0xA150 JUMPI PUSH1 0x1 DUP2 EQ PUSH2 0xA166 JUMPI PUSH2 0xA199 JUMP JUMPDEST PUSH1 0xFF NOT DUP4 AND DUP7 MSTORE DUP2 ISZERO ISZERO PUSH1 0x20 MUL DUP7 ADD SWAP4 POP PUSH2 0xA199 JUMP JUMPDEST PUSH2 0xA16F DUP6 PUSH2 0x9EAC JUMP JUMPDEST PUSH1 0x0 JUMPDEST DUP4 DUP2 LT ISZERO PUSH2 0xA191 JUMPI DUP2 SLOAD DUP2 DUP10 ADD MSTORE PUSH1 0x1 DUP3 ADD SWAP2 POP PUSH1 0x20 DUP2 ADD SWAP1 POP PUSH2 0xA172 JUMP JUMPDEST DUP1 DUP9 ADD SWAP6 POP POP POP JUMPDEST POP POP POP SWAP3 SWAP2 POP POP JUMP JUMPDEST PUSH1 0x0 PUSH1 0x60 DUP3 ADD SWAP1 POP DUP2 DUP2 SUB PUSH1 0x0 DUP4 ADD MSTORE PUSH2 0xA1BC DUP2 DUP7 PUSH2 0xA11E JUMP JUMPDEST SWAP1 POP DUP2 DUP2 SUB PUSH1 0x20 DUP4 ADD MSTORE PUSH2 0xA1D0 DUP2 DUP6 PUSH2 0xA11E JUMP JUMPDEST SWAP1 POP DUP2 DUP2 SUB PUSH1 0x40 DUP4 ADD MSTORE PUSH2 0xA1E4 DUP2 DUP5 PUSH2 0xA11E JUMP JUMPDEST SWAP1 POP SWAP5 SWAP4 POP POP POP POP JUMP JUMPDEST PUSH1 0x0 PUSH1 0x60 DUP3 ADD SWAP1 POP PUSH2 0xA203 PUSH1 0x0 DUP4 ADD DUP7 PUSH2 0x8352 JUMP JUMPDEST PUSH2 0xA210 PUSH1 0x20 DUP4 ADD DUP6 PUSH2 0x8352 JUMP JUMPDEST PUSH2 0xA21D PUSH1 0x40 DUP4 ADD DUP5 PUSH2 0x7F54 JUMP JUMPDEST SWAP5 SWAP4 POP POP POP POP JUMP JUMPDEST PUSH1 0x0 PUSH1 0xC0 DUP3 ADD SWAP1 POP PUSH2 0xA23A PUSH1 0x0 DUP4 ADD DUP10 PUSH2 0x8118 JUMP JUMPDEST PUSH2 0xA247 PUSH1 0x20 DUP4 ADD DUP9 PUSH2 0x8352 JUMP JUMPDEST PUSH2 0xA254 PUSH1 0x40 DUP4 ADD DUP8 PUSH2 0x8118 JUMP JUMPDEST PUSH2 0xA261 PUSH1 0x60 DUP4 ADD DUP7 PUSH2 0x8118 JUMP JUMPDEST PUSH2 0xA26E PUSH1 0x80 DUP4 ADD DUP6 PUSH2 0x8118 JUMP JUMPDEST PUSH2 0xA27B PUSH1 0xA0 DUP4 ADD DUP5 PUSH2 0x8352 JUMP JUMPDEST SWAP8 SWAP7 POP POP POP POP POP POP POP JUMP JUMPDEST PUSH1 0x0 PUSH1 0x40 DUP3 ADD SWAP1 POP PUSH2 0xA29B PUSH1 0x0 DUP4 ADD DUP6 PUSH2 0x8352 JUMP JUMPDEST PUSH2 0xA2A8 PUSH1 0x20 DUP4 ADD DUP5 PUSH2 0x8118 JUMP JUMPDEST SWAP4 SWAP3 POP POP POP JUMP JUMPDEST PUSH1 0x0 PUSH1 0x60 DUP3 ADD SWAP1 POP PUSH2 0xA2C4 PUSH1 0x0 DUP4 ADD DUP7 PUSH2 0x8118 JUMP JUMPDEST PUSH2 0xA2D1 PUSH1 0x20 DUP4 ADD DUP6 PUSH2 0x8118 JUMP JUMPDEST PUSH2 0xA2DE PUSH1 0x40 DUP4 ADD DUP5 PUSH2 0x8352 JUMP JUMPDEST SWAP5 SWAP4 POP POP POP POP JUMP JUMPDEST PUSH1 0x0 PUSH1 0x80 DUP3 ADD SWAP1 POP PUSH2 0xA2FB PUSH1 0x0 DUP4 ADD DUP8 PUSH2 0x8352 JUMP JUMPDEST PUSH2 0xA308 PUSH1 0x20 DUP4 ADD DUP7 PUSH2 0x8118 JUMP JUMPDEST PUSH2 0xA315 PUSH1 0x40 DUP4 ADD DUP6 PUSH2 0x8352 JUMP JUMPDEST PUSH2 0xA322 PUSH1 0x60 DUP4 ADD DUP5 PUSH2 0x8352 JUMP JUMPDEST SWAP6 SWAP5 POP POP POP POP POP JUMP JUMPDEST PUSH1 0x0 PUSH2 0xA336 DUP3 PUSH2 0x83FB JUMP JUMPDEST SWAP1 POP SWAP2 SWAP1 POP JUMP JUMPDEST PUSH2 0xA346 DUP2 PUSH2 0xA32B JUMP JUMPDEST DUP3 MSTORE POP POP JUMP JUMPDEST PUSH1 0x0 PUSH1 0x60 DUP3 ADD SWAP1 POP PUSH2 0xA361 PUSH1 0x0 DUP4 ADD DUP7 PUSH2 0x8118 JUMP JUMPDEST PUSH2 0xA36E PUSH1 0x20 DUP4 ADD DUP6 PUSH2 0xA33D JUMP JUMPDEST PUSH2 0xA37B PUSH1 0x40 DUP4 ADD DUP5 PUSH2 0x8352 JUMP JUMPDEST SWAP5 SWAP4 POP POP POP POP JUMP JUMPDEST PUSH32 0x4552433136353A20696E76616C696420696E7465726661636520696400000000 PUSH1 0x0 DUP3 ADD MSTORE POP JUMP JUMPDEST PUSH1 0x0 PUSH2 0xA3B9 PUSH1 0x1C DUP4 PUSH2 0x8012 JUMP JUMPDEST SWAP2 POP PUSH2 0xA3C4 DUP3 PUSH2 0xA383 JUMP JUMPDEST PUSH1 0x20 DUP3 ADD SWAP1 POP SWAP2 SWAP1 POP JUMP JUMPDEST PUSH1 0x0 PUSH1 0x20 DUP3 ADD SWAP1 POP DUP2 DUP2 SUB PUSH1 0x0 DUP4 ADD MSTORE PUSH2 0xA3E8 DUP2 PUSH2 0xA3AC JUMP JUMPDEST SWAP1 POP SWAP2 SWAP1 POP JUMP JUMPDEST PUSH1 0x0 PUSH1 0x80 DUP3 ADD SWAP1 POP PUSH2 0xA404 PUSH1 0x0 DUP4 ADD DUP8 PUSH2 0x8118 JUMP JUMPDEST PUSH2 0xA411 PUSH1 0x20 DUP4 ADD DUP7 PUSH2 0x8118 JUMP JUMPDEST PUSH2 0xA41E PUSH1 0x40 DUP4 ADD DUP6 PUSH2 0x8352 JUMP JUMPDEST DUP2 DUP2 SUB PUSH1 0x60 DUP4 ADD MSTORE PUSH2 0xA430 DUP2 DUP5 PUSH2 0x9347 JUMP JUMPDEST SWAP1 POP SWAP6 SWAP5 POP POP POP POP POP JUMP JUMPDEST PUSH1 0x0 DUP2 MLOAD SWAP1 POP PUSH2 0xA44A DUP2 PUSH2 0x7EEF JUMP JUMPDEST SWAP3 SWAP2 POP POP JUMP JUMPDEST PUSH1 0x0 PUSH1 0x20 DUP3 DUP5 SUB SLT ISZERO PUSH2 0xA466 JUMPI PUSH2 0xA465 PUSH2 0x7EB9 JUMP JUMPDEST JUMPDEST PUSH1 0x0 PUSH2 0xA474 DUP5 DUP3 DUP6 ADD PUSH2 0xA43B JUMP JUMPDEST SWAP2 POP POP SWAP3 SWAP2 POP POP JUMP JUMPDEST PUSH1 0x0 PUSH2 0xA488 DUP3 PUSH2 0x9907 JUMP JUMPDEST SWAP2 POP PUSH2 0xA493 DUP4 PUSH2 0x9907 JUMP JUMPDEST SWAP3 POP DUP3 DUP3 ADD SWAP1 POP PUSH1 0xFF DUP2 GT ISZERO PUSH2 0xA4AC JUMPI PUSH2 0xA4AB PUSH2 0x9268 JUMP JUMPDEST JUMPDEST SWAP3 SWAP2 POP POP JUMP JUMPDEST PUSH1 0x0 DUP2 SWAP1 POP SWAP3 SWAP2 POP POP JUMP JUMPDEST PUSH1 0x0 PUSH2 0xA4C8 DUP3 PUSH2 0x8007 JUMP JUMPDEST PUSH2 0xA4D2 DUP2 DUP6 PUSH2 0xA4B2 JUMP JUMPDEST SWAP4 POP PUSH2 0xA4E2 DUP2 DUP6 PUSH1 0x20 DUP7 ADD PUSH2 0x8023 JUMP JUMPDEST DUP1 DUP5 ADD SWAP2 POP POP SWAP3 SWAP2 POP POP JUMP JUMPDEST PUSH1 0x0 PUSH2 0xA4FA DUP3 DUP8 PUSH2 0xA4BD JUMP JUMPDEST SWAP2 POP PUSH2 0xA506 DUP3 DUP7 PUSH2 0xA4BD JUMP JUMPDEST SWAP2 POP PUSH2 0xA512 DUP3 DUP6 PUSH2 0xA4BD JUMP JUMPDEST SWAP2 POP PUSH2 0xA51E DUP3 DUP5 PUSH2 0xA4BD JUMP JUMPDEST SWAP2 POP DUP2 SWAP1 POP SWAP6 SWAP5 POP POP POP POP POP JUMP JUMPDEST PUSH1 0x0 PUSH2 0xA537 DUP3 PUSH2 0x7F7E JUMP JUMPDEST SWAP2 POP PUSH1 0x0 DUP3 SUB PUSH2 0xA54A JUMPI PUSH2 0xA549 PUSH2 0x9268 JUMP JUMPDEST JUMPDEST PUSH1 0x1 DUP3 SUB SWAP1 POP SWAP2 SWAP1 POP JUMP JUMPDEST PUSH32 0x416363657373436F6E74726F6C3A206163636F756E7420000000000000000000 PUSH1 0x0 DUP3 ADD MSTORE POP JUMP JUMPDEST PUSH1 0x0 PUSH2 0xA58B PUSH1 0x17 DUP4 PUSH2 0xA4B2 JUMP JUMPDEST SWAP2 POP PUSH2 0xA596 DUP3 PUSH2 0xA555 JUMP JUMPDEST PUSH1 0x17 DUP3 ADD SWAP1 POP SWAP2 SWAP1 POP JUMP JUMPDEST PUSH32 0x206973206D697373696E6720726F6C6520000000000000000000000000000000 PUSH1 0x0 DUP3 ADD MSTORE POP JUMP JUMPDEST PUSH1 0x0 PUSH2 0xA5D7 PUSH1 0x11 DUP4 PUSH2 0xA4B2 JUMP JUMPDEST SWAP2 POP PUSH2 0xA5E2 DUP3 PUSH2 0xA5A1 JUMP JUMPDEST PUSH1 0x11 DUP3 ADD SWAP1 POP SWAP2 SWAP1 POP JUMP JUMPDEST PUSH1 0x0 PUSH2 0xA5F8 DUP3 PUSH2 0xA57E JUMP JUMPDEST SWAP2 POP PUSH2 0xA604 DUP3 DUP6 PUSH2 0xA4BD JUMP JUMPDEST SWAP2 POP PUSH2 0xA60F DUP3 PUSH2 0xA5CA JUMP JUMPDEST SWAP2 POP PUSH2 0xA61B DUP3 DUP5 PUSH2 0xA4BD JUMP JUMPDEST SWAP2 POP DUP2 SWAP1 POP SWAP4 SWAP3 POP POP POP JUMP JUMPDEST PUSH32 0x496E697469616C697A61626C653A20636F6E7472616374206973206E6F742069 PUSH1 0x0 DUP3 ADD MSTORE PUSH32 0x6E697469616C697A696E67000000000000000000000000000000000000000000 PUSH1 0x20 DUP3 ADD MSTORE POP JUMP JUMPDEST PUSH1 0x0 PUSH2 0xA683 PUSH1 0x2B DUP4 PUSH2 0x8012 JUMP JUMPDEST SWAP2 POP PUSH2 0xA68E DUP3 PUSH2 0xA627 JUMP JUMPDEST PUSH1 0x40 DUP3 ADD SWAP1 POP SWAP2 SWAP1 POP JUMP JUMPDEST PUSH1 0x0 PUSH1 0x20 DUP3 ADD SWAP1 POP DUP2 DUP2 SUB PUSH1 0x0 DUP4 ADD MSTORE PUSH2 0xA6B2 DUP2 PUSH2 0xA676 JUMP JUMPDEST SWAP1 POP SWAP2 SWAP1 POP JUMP JUMPDEST PUSH32 0x416464726573733A20696E73756666696369656E742062616C616E6365000000 PUSH1 0x0 DUP3 ADD MSTORE POP JUMP JUMPDEST PUSH1 0x0 PUSH2 0xA6EF PUSH1 0x1D DUP4 PUSH2 0x8012 JUMP JUMPDEST SWAP2 POP PUSH2 0xA6FA DUP3 PUSH2 0xA6B9 JUMP JUMPDEST PUSH1 0x20 DUP3 ADD SWAP1 POP SWAP2 SWAP1 POP JUMP JUMPDEST PUSH1 0x0 PUSH1 0x20 DUP3 ADD SWAP1 POP DUP2 DUP2 SUB PUSH1 0x0 DUP4 ADD MSTORE PUSH2 0xA71E DUP2 PUSH2 0xA6E2 JUMP JUMPDEST SWAP1 POP SWAP2 SWAP1 POP JUMP JUMPDEST PUSH1 0x0 DUP2 SWAP1 POP SWAP3 SWAP2 POP POP JUMP JUMPDEST POP JUMP JUMPDEST PUSH1 0x0 PUSH2 0xA740 PUSH1 0x0 DUP4 PUSH2 0xA725 JUMP JUMPDEST SWAP2 POP PUSH2 0xA74B DUP3 PUSH2 0xA730 JUMP JUMPDEST PUSH1 0x0 DUP3 ADD SWAP1 POP SWAP2 SWAP1 POP JUMP JUMPDEST PUSH1 0x0 PUSH2 0xA761 DUP3 PUSH2 0xA733 JUMP JUMPDEST SWAP2 POP DUP2 SWAP1 POP SWAP2 SWAP1 POP JUMP JUMPDEST PUSH32 0x416464726573733A20756E61626C6520746F2073656E642076616C75652C2072 PUSH1 0x0 DUP3 ADD MSTORE PUSH32 0x6563697069656E74206D61792068617665207265766572746564000000000000 PUSH1 0x20 DUP3 ADD MSTORE POP JUMP JUMPDEST PUSH1 0x0 PUSH2 0xA7C7 PUSH1 0x3A DUP4 PUSH2 0x8012 JUMP JUMPDEST SWAP2 POP PUSH2 0xA7D2 DUP3 PUSH2 0xA76B JUMP JUMPDEST PUSH1 0x40 DUP3 ADD SWAP1 POP SWAP2 SWAP1 POP JUMP JUMPDEST PUSH1 0x0 PUSH1 0x20 DUP3 ADD SWAP1 POP DUP2 DUP2 SUB PUSH1 0x0 DUP4 ADD MSTORE PUSH2 0xA7F6 DUP2 PUSH2 0xA7BA JUMP JUMPDEST SWAP1 POP SWAP2 SWAP1 POP JUMP JUMPDEST PUSH1 0x0 PUSH1 0x40 DUP3 ADD SWAP1 POP PUSH2 0xA812 PUSH1 0x0 DUP4 ADD DUP6 PUSH2 0x8118 JUMP JUMPDEST PUSH2 0xA81F PUSH1 0x20 DUP4 ADD DUP5 PUSH2 0x8352 JUMP JUMPDEST SWAP4 SWAP3 POP POP POP JUMP JUMPDEST PUSH32 0x537472696E67733A20686578206C656E67746820696E73756666696369656E74 PUSH1 0x0 DUP3 ADD MSTORE POP JUMP JUMPDEST PUSH1 0x0 PUSH2 0xA85C PUSH1 0x20 DUP4 PUSH2 0x8012 JUMP JUMPDEST SWAP2 POP PUSH2 0xA867 DUP3 PUSH2 0xA826 JUMP JUMPDEST PUSH1 0x20 DUP3 ADD SWAP1 POP SWAP2 SWAP1 POP JUMP JUMPDEST PUSH1 0x0 PUSH1 0x20 DUP3 ADD SWAP1 POP DUP2 DUP2 SUB PUSH1 0x0 DUP4 ADD MSTORE PUSH2 0xA88B DUP2 PUSH2 0xA84F JUMP JUMPDEST SWAP1 POP SWAP2 SWAP1 POP JUMP JUMPDEST PUSH32 0x5361666545524332303A204552433230206F7065726174696F6E20646964206E PUSH1 0x0 DUP3 ADD MSTORE PUSH32 0x6F74207375636365656400000000000000000000000000000000000000000000 PUSH1 0x20 DUP3 ADD MSTORE POP JUMP JUMPDEST PUSH1 0x0 PUSH2 0xA8EE PUSH1 0x2A DUP4 PUSH2 0x8012 JUMP JUMPDEST SWAP2 POP PUSH2 0xA8F9 DUP3 PUSH2 0xA892 JUMP JUMPDEST PUSH1 0x40 DUP3 ADD SWAP1 POP SWAP2 SWAP1 POP JUMP JUMPDEST PUSH1 0x0 PUSH1 0x20 DUP3 ADD SWAP1 POP DUP2 DUP2 SUB PUSH1 0x0 DUP4 ADD MSTORE PUSH2 0xA91D DUP2 PUSH2 0xA8E1 JUMP JUMPDEST SWAP1 POP SWAP2 SWAP1 POP JUMP JUMPDEST PUSH32 0x416464726573733A20696E73756666696369656E742062616C616E636520666F PUSH1 0x0 DUP3 ADD MSTORE PUSH32 0x722063616C6C0000000000000000000000000000000000000000000000000000 PUSH1 0x20 DUP3 ADD MSTORE POP JUMP JUMPDEST PUSH1 0x0 PUSH2 0xA980 PUSH1 0x26 DUP4 PUSH2 0x8012 JUMP JUMPDEST SWAP2 POP PUSH2 0xA98B DUP3 PUSH2 0xA924 JUMP JUMPDEST PUSH1 0x40 DUP3 ADD SWAP1 POP SWAP2 SWAP1 POP JUMP JUMPDEST PUSH1 0x0 PUSH1 0x20 DUP3 ADD SWAP1 POP DUP2 DUP2 SUB PUSH1 0x0 DUP4 ADD MSTORE PUSH2 0xA9AF DUP2 PUSH2 0xA973 JUMP JUMPDEST SWAP1 POP SWAP2 SWAP1 POP JUMP JUMPDEST PUSH1 0x0 PUSH2 0xA9C1 DUP3 PUSH2 0x932B JUMP JUMPDEST PUSH2 0xA9CB DUP2 DUP6 PUSH2 0xA725 JUMP JUMPDEST SWAP4 POP PUSH2 0xA9DB DUP2 DUP6 PUSH1 0x20 DUP7 ADD PUSH2 0x8023 JUMP JUMPDEST DUP1 DUP5 ADD SWAP2 POP POP SWAP3 SWAP2 POP POP JUMP JUMPDEST PUSH1 0x0 PUSH2 0xA9F3 DUP3 DUP5 PUSH2 0xA9B6 JUMP JUMPDEST SWAP2 POP DUP2 SWAP1 POP SWAP3 SWAP2 POP POP JUMP JUMPDEST PUSH32 0x416464726573733A2063616C6C20746F206E6F6E2D636F6E7472616374000000 PUSH1 0x0 DUP3 ADD MSTORE POP JUMP JUMPDEST PUSH1 0x0 PUSH2 0xAA34 PUSH1 0x1D DUP4 PUSH2 0x8012 JUMP JUMPDEST SWAP2 POP PUSH2 0xAA3F DUP3 PUSH2 0xA9FE JUMP JUMPDEST PUSH1 0x20 DUP3 ADD SWAP1 POP SWAP2 SWAP1 POP JUMP JUMPDEST PUSH1 0x0 PUSH1 0x20 DUP3 ADD SWAP1 POP DUP2 DUP2 SUB PUSH1 0x0 DUP4 ADD MSTORE PUSH2 0xAA63 DUP2 PUSH2 0xAA27 JUMP JUMPDEST SWAP1 POP SWAP2 SWAP1 POP JUMP INVALID LOG2 PUSH5 0x6970667358 0x22 SLT KECCAK256 PUSH5 0x612B1B91A8 DELEGATECALL 0xE8 DUP13 NOT 0xA8 0xC9 0xEA MOD LOG0 0xAE PUSH21 0xB6B0643EA72BA5D7EDBCC50071E37964736F6C6343 STOP ADDMOD SLT STOP CALLER "
		},
		"gasEstimates": {
			"creation": {
				"codeDepositCost": "8736000",
				"executionCost": "11880",
				"totalCost": "8747880"
			},
			"external": {
				"DEFAULT_ADMIN_ROLE()": "402",
				"addLockManager(address)": "infinite",
				"approve(address,uint256)": "43173",
				"balanceOf(address)": "infinite",
				"burn(uint256)": "67355",
				"cancelAndRefund(uint256)": "infinite",
				"expirationDuration()": "2586",
				"expireAndRefundFor(uint256,uint256)": "infinite",
				"extend(uint256,uint256,address,bytes)": "infinite",
				"freeTrialLength()": "2562",
				"gasRefundValue()": "2548",
				"getApproved(uint256)": "5250",
				"getCancelAndRefundValue(uint256)": "infinite",
				"getHasValidKey(address)": "infinite",
				"getRoleAdmin(bytes32)": "infinite",
				"getTransferFee(uint256,uint256)": "infinite",
				"grantKeyExtension(uint256,uint256)": "infinite",
				"grantKeys(address[],uint256[],address[])": "infinite",
				"grantRole(bytes32,address)": "infinite",
				"hasRole(bytes32,address)": "3208",
				"initialize(address,uint256,address,uint256,uint256,string)": "infinite",
				"isApprovedForAll(address,address)": "infinite",
				"isLockManager(address)": "3192",
				"isOwner(address)": "2880",
				"isRenewable(uint256,address)": "infinite",
				"isValidKey(uint256)": "infinite",
				"keyExpirationTimestampFor(uint256)": "infinite",
				"keyManagerOf(uint256)": "2907",
				"keyPrice()": "2564",
				"lendKey(address,address,uint256)": "infinite",
				"maxKeysPerAddress()": "2526",
				"maxNumberOfKeys()": "2520",
				"mergeKeys(uint256,uint256,uint256)": "infinite",
				"migrate(bytes)": "infinite",
				"name()": "infinite",
				"numberOfOwners()": "2541",
				"onKeyCancelHook()": "infinite",
				"onKeyExtendHook()": "infinite",
				"onKeyGrantHook()": "infinite",
				"onKeyPurchaseHook()": "infinite",
				"onKeyTransferHook()": "infinite",
				"onTokenURIHook()": "infinite",
				"onValidKeyHook()": "infinite",
				"owner()": "2678",
				"ownerOf(uint256)": "2998",
				"publicLockVersion()": "476",
				"purchase(uint256[],address[],address[],address[],bytes[])": "infinite",
				"purchasePriceFor(address,address,bytes)": "infinite",
				"referrerFees(address)": "2970",
				"refundPenaltyBasisPoints()": "2518",
				"renewMembershipFor(uint256,address)": "infinite",
				"renounceLockManager()": "infinite",
				"renounceRole(bytes32,address)": "infinite",
				"revokeRole(bytes32,address)": "infinite",
				"safeTransferFrom(address,address,uint256)": "infinite",
				"safeTransferFrom(address,address,uint256,bytes)": "infinite",
				"schemaVersion()": "2519",
				"setApprovalForAll(address,bool)": "infinite",
				"setEventHooks(address,address,address,address,address,address,address)": "infinite",
				"setGasRefundValue(uint256)": "infinite",
				"setKeyManagerOf(uint256,address)": "64629",
				"setLockMetadata(string,string,string)": "infinite",
				"setOwner(address)": "infinite",
				"setReferrerFee(address,uint256)": "infinite",
				"shareKey(address,uint256,uint256)": "infinite",
				"supportsInterface(bytes4)": "3223",
				"symbol()": "infinite",
				"tokenAddress()": "2670",
				"tokenByIndex(uint256)": "infinite",
				"tokenOfOwnerByIndex(address,uint256)": "infinite",
				"tokenURI(uint256)": "infinite",
				"totalKeys(address)": "3033",
				"totalSupply()": "2528",
				"transferFeeBasisPoints()": "2542",
				"transferFrom(address,address,uint256)": "infinite",
				"unlendKey(address,uint256)": "infinite",
				"unlockProtocol()": "infinite",
				"updateKeyPricing(uint256,address)": "infinite",
				"updateLockConfig(uint256,uint256,uint256)": "infinite",
				"updateRefundPenalty(uint256,uint256)": "infinite",
				"updateSchemaVersion()": "24851",
				"updateTransferFee(uint256)": "infinite",
				"withdraw(address,address,uint256)": "infinite"
			}
		},
		"methodIdentifiers": {
			"DEFAULT_ADMIN_ROLE()": "a217fddf",
			"addLockManager(address)": "d2503485",
			"approve(address,uint256)": "095ea7b3",
			"balanceOf(address)": "70a08231",
			"burn(uint256)": "42966c68",
			"cancelAndRefund(uint256)": "d32bfb6c",
			"expirationDuration()": "11a4c03a",
			"expireAndRefundFor(uint256,uint256)": "558b71e9",
			"extend(uint256,uint256,address,bytes)": "d813cc19",
			"freeTrialLength()": "a375cb05",
			"gasRefundValue()": "6207a8da",
			"getApproved(uint256)": "081812fc",
			"getCancelAndRefundValue(uint256)": "92ac98a5",
			"getHasValidKey(address)": "6d8ea5b4",
			"getRoleAdmin(bytes32)": "248a9ca3",
			"getTransferFee(uint256,uint256)": "b1a3b25d",
			"grantKeyExtension(uint256,uint256)": "4cd38c1d",
			"grantKeys(address[],uint256[],address[])": "81a3c943",
			"grantRole(bytes32,address)": "2f2ff15d",
			"hasRole(bytes32,address)": "91d14854",
			"initialize(address,uint256,address,uint256,uint256,string)": "6eadde43",
			"isApprovedForAll(address,address)": "e985e9c5",
			"isLockManager(address)": "aae4b8f7",
			"isOwner(address)": "2f54bf6e",
			"isRenewable(uint256,address)": "50878a47",
			"isValidKey(uint256)": "a98d3623",
			"keyExpirationTimestampFor(uint256)": "54b249fb",
			"keyManagerOf(uint256)": "4d025fed",
			"keyPrice()": "10e56973",
			"lendKey(address,address,uint256)": "0c2db8d1",
			"maxKeysPerAddress()": "d52e4a10",
			"maxNumberOfKeys()": "74b6c106",
			"mergeKeys(uint256,uint256,uint256)": "068208cd",
			"migrate(bytes)": "8932a90d",
			"name()": "06fdde03",
			"numberOfOwners()": "93fd1844",
			"onKeyCancelHook()": "217751bc",
			"onKeyExtendHook()": "c907c3ec",
			"onKeyGrantHook()": "b129694e",
			"onKeyPurchaseHook()": "2d33dd5b",
			"onKeyTransferHook()": "389f07e8",
			"onTokenURIHook()": "7ec2a724",
			"onValidKeyHook()": "26e9ca07",
			"owner()": "8da5cb5b",
			"ownerOf(uint256)": "6352211e",
			"publicLockVersion()": "d1bbd49c",
			"purchase(uint256[],address[],address[],address[],bytes[])": "33818997",
			"purchasePriceFor(address,address,bytes)": "097ba333",
			"referrerFees(address)": "c23135dd",
			"refundPenaltyBasisPoints()": "56e0d51f",
			"renewMembershipFor(uint256,address)": "8505fe95",
			"renounceLockManager()": "f0ba6040",
			"renounceRole(bytes32,address)": "36568abe",
			"revokeRole(bytes32,address)": "d547741f",
			"safeTransferFrom(address,address,uint256)": "42842e0e",
			"safeTransferFrom(address,address,uint256,bytes)": "b88d4fde",
			"schemaVersion()": "4e2ce6d3",
			"setApprovalForAll(address,bool)": "a22cb465",
			"setEventHooks(address,address,address,address,address,address,address)": "74cac47d",
			"setGasRefundValue(uint256)": "f5766b39",
			"setKeyManagerOf(uint256,address)": "b11d7ec1",
			"setLockMetadata(string,string,string)": "d1b8759b",
			"setOwner(address)": "13af4035",
			"setReferrerFee(address,uint256)": "debe2b0d",
			"shareKey(address,uint256,uint256)": "f12c6b6e",
			"supportsInterface(bytes4)": "01ffc9a7",
			"symbol()": "95d89b41",
			"tokenAddress()": "9d76ea58",
			"tokenByIndex(uint256)": "4f6ccce7",
			"tokenOfOwnerByIndex(address,uint256)": "2f745c59",
			"tokenURI(uint256)": "c87b56dd",
			"totalKeys(address)": "812eecd4",
			"totalSupply()": "18160ddd",
			"transferFeeBasisPoints()": "183767da",
			"transferFrom(address,address,uint256)": "23b872dd",
			"unlendKey(address,uint256)": "407dc589",
			"unlockProtocol()": "0f15023b",
			"updateKeyPricing(uint256,address)": "a2e4cd2e",
			"updateLockConfig(uint256,uint256,uint256)": "282478df",
			"updateRefundPenalty(uint256,uint256)": "39f46986",
			"updateSchemaVersion()": "f32e8b24",
			"updateTransferFee(uint256)": "8577a6d5",
			"withdraw(address,address,uint256)": "d9caed12"
		}
	},
	"abi": [
		{
			"inputs": [],
			"name": "CANNOT_APPROVE_SELF",
			"type": "error"
		},
		{
			"inputs": [],
			"name": "CANT_BE_SMALLER_THAN_SUPPLY",
			"type": "error"
		},
		{
			"inputs": [],
			"name": "CANT_EXTEND_NON_EXPIRING_KEY",
			"type": "error"
		},
		{
			"inputs": [],
			"name": "GAS_REFUND_FAILED",
			"type": "error"
		},
		{
			"inputs": [],
			"name": "INSUFFICIENT_ERC20_VALUE",
			"type": "error"
		},
		{
			"inputs": [],
			"name": "INSUFFICIENT_VALUE",
			"type": "error"
		},
		{
			"inputs": [],
			"name": "INVALID_ADDRESS",
			"type": "error"
		},
		{
			"inputs": [
				{
					"internalType": "uint8",
					"name": "hookIndex",
					"type": "uint8"
				}
			],
			"name": "INVALID_HOOK",
			"type": "error"
		},
		{
			"inputs": [],
			"name": "INVALID_LENGTH",
			"type": "error"
		},
		{
			"inputs": [],
			"name": "INVALID_TOKEN",
			"type": "error"
		},
		{
			"inputs": [],
			"name": "KEY_NOT_VALID",
			"type": "error"
		},
		{
			"inputs": [],
			"name": "KEY_TRANSFERS_DISABLED",
			"type": "error"
		},
		{
			"inputs": [],
			"name": "LOCK_HAS_CHANGED",
			"type": "error"
		},
		{
			"inputs": [],
			"name": "LOCK_SOLD_OUT",
			"type": "error"
		},
		{
			"inputs": [],
			"name": "MAX_KEYS_REACHED",
			"type": "error"
		},
		{
			"inputs": [],
			"name": "MIGRATION_REQUIRED",
			"type": "error"
		},
		{
			"inputs": [],
			"name": "NON_COMPLIANT_ERC721_RECEIVER",
			"type": "error"
		},
		{
			"inputs": [],
			"name": "NON_RENEWABLE_LOCK",
			"type": "error"
		},
		{
			"inputs": [],
			"name": "NOT_ENOUGH_FUNDS",
			"type": "error"
		},
		{
			"inputs": [],
			"name": "NOT_ENOUGH_TIME",
			"type": "error"
		},
		{
			"inputs": [],
			"name": "NOT_READY_FOR_RENEWAL",
			"type": "error"
		},
		{
			"inputs": [],
			"name": "NO_SUCH_KEY",
			"type": "error"
		},
		{
			"inputs": [],
			"name": "NULL_VALUE",
			"type": "error"
		},
		{
			"inputs": [],
			"name": "ONLY_KEY_MANAGER_OR_APPROVED",
			"type": "error"
		},
		{
			"inputs": [],
			"name": "ONLY_LOCK_MANAGER",
			"type": "error"
		},
		{
			"inputs": [],
			"name": "ONLY_LOCK_MANAGER_OR_KEY_GRANTER",
			"type": "error"
		},
		{
			"inputs": [],
			"name": "OUT_OF_RANGE",
			"type": "error"
		},
		{
			"inputs": [],
			"name": "OWNER_CANT_BE_ADDRESS_ZERO",
			"type": "error"
		},
		{
			"inputs": [],
			"name": "SCHEMA_VERSION_NOT_CORRECT",
			"type": "error"
		},
		{
			"inputs": [],
			"name": "TRANSFER_TO_SELF",
			"type": "error"
		},
		{
			"inputs": [],
			"name": "TransferFailed",
			"type": "error"
		},
		{
			"inputs": [],
			"name": "UNAUTHORIZED",
			"type": "error"
		},
		{
			"inputs": [],
			"name": "UNAUTHORIZED_KEY_MANAGER_UPDATE",
			"type": "error"
		},
		{
			"anonymous": false,
			"inputs": [
				{
					"indexed": true,
					"internalType": "address",
					"name": "owner",
					"type": "address"
				},
				{
					"indexed": true,
					"internalType": "address",
					"name": "approved",
					"type": "address"
				},
				{
					"indexed": true,
					"internalType": "uint256",
					"name": "tokenId",
					"type": "uint256"
				}
			],
			"name": "Approval",
			"type": "event"
		},
		{
			"anonymous": false,
			"inputs": [
				{
					"indexed": true,
					"internalType": "address",
					"name": "owner",
					"type": "address"
				},
				{
					"indexed": true,
					"internalType": "address",
					"name": "operator",
					"type": "address"
				},
				{
					"indexed": false,
					"internalType": "bool",
					"name": "approved",
					"type": "bool"
				}
			],
			"name": "ApprovalForAll",
			"type": "event"
		},
		{
			"anonymous": false,
			"inputs": [
				{
					"indexed": true,
					"internalType": "uint256",
					"name": "tokenId",
					"type": "uint256"
				},
				{
					"indexed": true,
					"internalType": "address",
					"name": "owner",
					"type": "address"
				},
				{
					"indexed": true,
					"internalType": "address",
					"name": "sendTo",
					"type": "address"
				},
				{
					"indexed": false,
					"internalType": "uint256",
					"name": "refund",
					"type": "uint256"
				}
			],
			"name": "CancelKey",
			"type": "event"
		},
		{
			"anonymous": false,
			"inputs": [
				{
					"indexed": false,
					"internalType": "address",
					"name": "onKeyPurchaseHook",
					"type": "address"
				},
				{
					"indexed": false,
					"internalType": "address",
					"name": "onKeyCancelHook",
					"type": "address"
				},
				{
					"indexed": false,
					"internalType": "address",
					"name": "onValidKeyHook",
					"type": "address"
				},
				{
					"indexed": false,
					"internalType": "address",
					"name": "onTokenURIHook",
					"type": "address"
				},
				{
					"indexed": false,
					"internalType": "address",
					"name": "onKeyTransferHook",
					"type": "address"
				},
				{
					"indexed": false,
					"internalType": "address",
					"name": "onKeyExtendHook",
					"type": "address"
				},
				{
					"indexed": false,
					"internalType": "address",
					"name": "onKeyGrantHook",
					"type": "address"
				}
			],
			"name": "EventHooksUpdated",
			"type": "event"
		},
		{
			"anonymous": false,
			"inputs": [
				{
					"indexed": true,
					"internalType": "uint256",
					"name": "tokenId",
					"type": "uint256"
				},
				{
					"indexed": false,
					"internalType": "uint256",
					"name": "newExpiration",
					"type": "uint256"
				},
				{
					"indexed": false,
					"internalType": "uint256",
					"name": "amount",
					"type": "uint256"
				},
				{
					"indexed": false,
					"internalType": "bool",
					"name": "timeAdded",
					"type": "bool"
				}
			],
			"name": "ExpirationChanged",
			"type": "event"
		},
		{
			"anonymous": false,
			"inputs": [
				{
					"indexed": true,
					"internalType": "uint256",
					"name": "tokenId",
					"type": "uint256"
				}
			],
			"name": "ExpireKey",
			"type": "event"
		},
		{
			"anonymous": false,
			"inputs": [
				{
					"indexed": false,
					"internalType": "uint256",
					"name": "refundValue",
					"type": "uint256"
				}
			],
			"name": "GasRefundValueChanged",
			"type": "event"
		},
		{
			"anonymous": false,
			"inputs": [
				{
					"indexed": true,
					"internalType": "address",
					"name": "receiver",
					"type": "address"
				},
				{
					"indexed": false,
					"internalType": "uint256",
					"name": "refundedAmount",
					"type": "uint256"
				},
				{
					"indexed": false,
					"internalType": "address",
					"name": "tokenAddress",
					"type": "address"
				}
			],
			"name": "GasRefunded",
			"type": "event"
		},
		{
			"anonymous": false,
			"inputs": [
				{
					"indexed": false,
					"internalType": "uint8",
					"name": "version",
					"type": "uint8"
				}
			],
			"name": "Initialized",
			"type": "event"
		},
		{
			"anonymous": false,
			"inputs": [
				{
					"indexed": true,
					"internalType": "uint256",
					"name": "tokenId",
					"type": "uint256"
				},
				{
					"indexed": false,
					"internalType": "uint256",
					"name": "newTimestamp",
					"type": "uint256"
				}
			],
			"name": "KeyExtended",
			"type": "event"
		},
		{
			"anonymous": false,
			"inputs": [
				{
					"indexed": true,
					"internalType": "address",
					"name": "account",
					"type": "address"
				}
			],
			"name": "KeyGranterAdded",
			"type": "event"
		},
		{
			"anonymous": false,
			"inputs": [
				{
					"indexed": true,
					"internalType": "address",
					"name": "account",
					"type": "address"
				}
			],
			"name": "KeyGranterRemoved",
			"type": "event"
		},
		{
			"anonymous": false,
			"inputs": [
				{
					"indexed": true,
					"internalType": "uint256",
					"name": "_tokenId",
					"type": "uint256"
				},
				{
					"indexed": true,
					"internalType": "address",
					"name": "_newManager",
					"type": "address"
				}
			],
			"name": "KeyManagerChanged",
			"type": "event"
		},
		{
			"anonymous": false,
			"inputs": [
				{
					"indexed": false,
					"internalType": "uint256",
					"name": "updatedRecordsCount",
					"type": "uint256"
				}
			],
			"name": "KeysMigrated",
			"type": "event"
		},
		{
			"anonymous": false,
			"inputs": [
				{
					"indexed": false,
					"internalType": "uint256",
					"name": "expirationDuration",
					"type": "uint256"
				},
				{
					"indexed": false,
					"internalType": "uint256",
					"name": "maxNumberOfKeys",
					"type": "uint256"
				},
				{
					"indexed": false,
					"internalType": "uint256",
					"name": "maxKeysPerAcccount",
					"type": "uint256"
				}
			],
			"name": "LockConfig",
			"type": "event"
		},
		{
			"anonymous": false,
			"inputs": [
				{
					"indexed": true,
					"internalType": "address",
					"name": "account",
					"type": "address"
				}
			],
			"name": "LockManagerAdded",
			"type": "event"
		},
		{
			"anonymous": false,
			"inputs": [
				{
					"indexed": true,
					"internalType": "address",
					"name": "account",
					"type": "address"
				}
			],
			"name": "LockManagerRemoved",
			"type": "event"
		},
		{
			"anonymous": false,
			"inputs": [
				{
					"indexed": false,
					"internalType": "string",
					"name": "name",
					"type": "string"
				},
				{
					"indexed": false,
					"internalType": "string",
					"name": "symbol",
					"type": "string"
				},
				{
					"indexed": false,
					"internalType": "string",
					"name": "baseTokenURI",
					"type": "string"
				}
			],
			"name": "LockMetadata",
			"type": "event"
		},
		{
			"anonymous": false,
			"inputs": [
				{
					"indexed": false,
					"internalType": "address",
					"name": "previousOwner",
					"type": "address"
				},
				{
					"indexed": false,
					"internalType": "address",
					"name": "newOwner",
					"type": "address"
				}
			],
			"name": "OwnershipTransferred",
			"type": "event"
		},
		{
			"anonymous": false,
			"inputs": [
				{
					"indexed": false,
					"internalType": "uint256",
					"name": "oldKeyPrice",
					"type": "uint256"
				},
				{
					"indexed": false,
					"internalType": "uint256",
					"name": "keyPrice",
					"type": "uint256"
				},
				{
					"indexed": false,
					"internalType": "address",
					"name": "oldTokenAddress",
					"type": "address"
				},
				{
					"indexed": false,
					"internalType": "address",
					"name": "tokenAddress",
					"type": "address"
				}
			],
			"name": "PricingChanged",
			"type": "event"
		},
		{
			"anonymous": false,
			"inputs": [
				{
					"indexed": true,
					"internalType": "address",
					"name": "referrer",
					"type": "address"
				},
				{
					"indexed": false,
					"internalType": "uint256",
					"name": "fee",
					"type": "uint256"
				}
			],
			"name": "ReferrerFee",
			"type": "event"
		},
		{
			"anonymous": false,
			"inputs": [
				{
					"indexed": false,
					"internalType": "uint256",
					"name": "freeTrialLength",
					"type": "uint256"
				},
				{
					"indexed": false,
					"internalType": "uint256",
					"name": "refundPenaltyBasisPoints",
					"type": "uint256"
				}
			],
			"name": "RefundPenaltyChanged",
			"type": "event"
		},
		{
			"anonymous": false,
			"inputs": [
				{
					"indexed": true,
					"internalType": "bytes32",
					"name": "role",
					"type": "bytes32"
				},
				{
					"indexed": true,
					"internalType": "bytes32",
					"name": "previousAdminRole",
					"type": "bytes32"
				},
				{
					"indexed": true,
					"internalType": "bytes32",
					"name": "newAdminRole",
					"type": "bytes32"
				}
			],
			"name": "RoleAdminChanged",
			"type": "event"
		},
		{
			"anonymous": false,
			"inputs": [
				{
					"indexed": true,
					"internalType": "bytes32",
					"name": "role",
					"type": "bytes32"
				},
				{
					"indexed": true,
					"internalType": "address",
					"name": "account",
					"type": "address"
				},
				{
					"indexed": true,
					"internalType": "address",
					"name": "sender",
					"type": "address"
				}
			],
			"name": "RoleGranted",
			"type": "event"
		},
		{
			"anonymous": false,
			"inputs": [
				{
					"indexed": true,
					"internalType": "bytes32",
					"name": "role",
					"type": "bytes32"
				},
				{
					"indexed": true,
					"internalType": "address",
					"name": "account",
					"type": "address"
				},
				{
					"indexed": true,
					"internalType": "address",
					"name": "sender",
					"type": "address"
				}
			],
			"name": "RoleRevoked",
			"type": "event"
		},
		{
			"anonymous": false,
			"inputs": [
				{
					"indexed": true,
					"internalType": "address",
					"name": "from",
					"type": "address"
				},
				{
					"indexed": true,
					"internalType": "address",
					"name": "to",
					"type": "address"
				},
				{
					"indexed": true,
					"internalType": "uint256",
					"name": "tokenId",
					"type": "uint256"
				}
			],
			"name": "Transfer",
			"type": "event"
		},
		{
			"anonymous": false,
			"inputs": [
				{
					"indexed": false,
					"internalType": "uint256",
					"name": "transferFeeBasisPoints",
					"type": "uint256"
				}
			],
			"name": "TransferFeeChanged",
			"type": "event"
		},
		{
			"anonymous": false,
			"inputs": [
				{
					"indexed": true,
					"internalType": "address",
					"name": "lockAddress",
					"type": "address"
				},
				{
					"indexed": false,
					"internalType": "address",
					"name": "unlockAddress",
					"type": "address"
				}
			],
			"name": "UnlockCallFailed",
			"type": "event"
		},
		{
			"anonymous": false,
			"inputs": [
				{
					"indexed": true,
					"internalType": "address",
					"name": "sender",
					"type": "address"
				},
				{
					"indexed": true,
					"internalType": "address",
					"name": "tokenAddress",
					"type": "address"
				},
				{
					"indexed": true,
					"internalType": "address",
					"name": "recipient",
					"type": "address"
				},
				{
					"indexed": false,
					"internalType": "uint256",
					"name": "amount",
					"type": "uint256"
				}
			],
			"name": "Withdrawal",
			"type": "event"
		},
		{
			"inputs": [],
			"name": "DEFAULT_ADMIN_ROLE",
			"outputs": [
				{
					"internalType": "bytes32",
					"name": "",
					"type": "bytes32"
				}
			],
			"stateMutability": "view",
			"type": "function"
		},
		{
			"inputs": [
				{
					"internalType": "address",
					"name": "account",
					"type": "address"
				}
			],
			"name": "addLockManager",
			"outputs": [],
			"stateMutability": "nonpayable",
			"type": "function"
		},
		{
			"inputs": [
				{
					"internalType": "address",
					"name": "_approved",
					"type": "address"
				},
				{
					"internalType": "uint256",
					"name": "_tokenId",
					"type": "uint256"
				}
			],
			"name": "approve",
			"outputs": [],
			"stateMutability": "nonpayable",
			"type": "function"
		},
		{
			"inputs": [
				{
					"internalType": "address",
					"name": "_keyOwner",
					"type": "address"
				}
			],
			"name": "balanceOf",
			"outputs": [
				{
					"internalType": "uint256",
					"name": "balance",
					"type": "uint256"
				}
			],
			"stateMutability": "view",
			"type": "function"
		},
		{
			"inputs": [
				{
					"internalType": "uint256",
					"name": "_tokenId",
					"type": "uint256"
				}
			],
			"name": "burn",
			"outputs": [],
			"stateMutability": "nonpayable",
			"type": "function"
		},
		{
			"inputs": [
				{
					"internalType": "uint256",
					"name": "_tokenId",
					"type": "uint256"
				}
			],
			"name": "cancelAndRefund",
			"outputs": [],
			"stateMutability": "nonpayable",
			"type": "function"
		},
		{
			"inputs": [],
			"name": "expirationDuration",
			"outputs": [
				{
					"internalType": "uint256",
					"name": "",
					"type": "uint256"
				}
			],
			"stateMutability": "view",
			"type": "function"
		},
		{
			"inputs": [
				{
					"internalType": "uint256",
					"name": "_tokenId",
					"type": "uint256"
				},
				{
					"internalType": "uint256",
					"name": "_amount",
					"type": "uint256"
				}
			],
			"name": "expireAndRefundFor",
			"outputs": [],
			"stateMutability": "nonpayable",
			"type": "function"
		},
		{
			"inputs": [
				{
					"internalType": "uint256",
					"name": "_value",
					"type": "uint256"
				},
				{
					"internalType": "uint256",
					"name": "_tokenId",
					"type": "uint256"
				},
				{
					"internalType": "address",
					"name": "_referrer",
					"type": "address"
				},
				{
					"internalType": "bytes",
					"name": "_data",
					"type": "bytes"
				}
			],
			"name": "extend",
			"outputs": [],
			"stateMutability": "payable",
			"type": "function"
		},
		{
			"inputs": [],
			"name": "freeTrialLength",
			"outputs": [
				{
					"internalType": "uint256",
					"name": "",
					"type": "uint256"
				}
			],
			"stateMutability": "view",
			"type": "function"
		},
		{
			"inputs": [],
			"name": "gasRefundValue",
			"outputs": [
				{
					"internalType": "uint256",
					"name": "_refundValue",
					"type": "uint256"
				}
			],
			"stateMutability": "view",
			"type": "function"
		},
		{
			"inputs": [
				{
					"internalType": "uint256",
					"name": "_tokenId",
					"type": "uint256"
				}
			],
			"name": "getApproved",
			"outputs": [
				{
					"internalType": "address",
					"name": "",
					"type": "address"
				}
			],
			"stateMutability": "view",
			"type": "function"
		},
		{
			"inputs": [
				{
					"internalType": "uint256",
					"name": "_tokenId",
					"type": "uint256"
				}
			],
			"name": "getCancelAndRefundValue",
			"outputs": [
				{
					"internalType": "uint256",
					"name": "refund",
					"type": "uint256"
				}
			],
			"stateMutability": "view",
			"type": "function"
		},
		{
			"inputs": [
				{
					"internalType": "address",
					"name": "_keyOwner",
					"type": "address"
				}
			],
			"name": "getHasValidKey",
			"outputs": [
				{
					"internalType": "bool",
					"name": "isValid",
					"type": "bool"
				}
			],
			"stateMutability": "view",
			"type": "function"
		},
		{
			"inputs": [
				{
					"internalType": "bytes32",
					"name": "role",
					"type": "bytes32"
				}
			],
			"name": "getRoleAdmin",
			"outputs": [
				{
					"internalType": "bytes32",
					"name": "",
					"type": "bytes32"
				}
			],
			"stateMutability": "view",
			"type": "function"
		},
		{
			"inputs": [
				{
					"internalType": "uint256",
					"name": "_tokenId",
					"type": "uint256"
				},
				{
					"internalType": "uint256",
					"name": "_time",
					"type": "uint256"
				}
			],
			"name": "getTransferFee",
			"outputs": [
				{
					"internalType": "uint256",
					"name": "",
					"type": "uint256"
				}
			],
			"stateMutability": "view",
			"type": "function"
		},
		{
			"inputs": [
				{
					"internalType": "uint256",
					"name": "_tokenId",
					"type": "uint256"
				},
				{
					"internalType": "uint256",
					"name": "_duration",
					"type": "uint256"
				}
			],
			"name": "grantKeyExtension",
			"outputs": [],
			"stateMutability": "nonpayable",
			"type": "function"
		},
		{
			"inputs": [
				{
					"internalType": "address[]",
					"name": "_recipients",
					"type": "address[]"
				},
				{
					"internalType": "uint256[]",
					"name": "_expirationTimestamps",
					"type": "uint256[]"
				},
				{
					"internalType": "address[]",
					"name": "_keyManagers",
					"type": "address[]"
				}
			],
			"name": "grantKeys",
			"outputs": [
				{
					"internalType": "uint256[]",
					"name": "",
					"type": "uint256[]"
				}
			],
			"stateMutability": "nonpayable",
			"type": "function"
		},
		{
			"inputs": [
				{
					"internalType": "bytes32",
					"name": "role",
					"type": "bytes32"
				},
				{
					"internalType": "address",
					"name": "account",
					"type": "address"
				}
			],
			"name": "grantRole",
			"outputs": [],
			"stateMutability": "nonpayable",
			"type": "function"
		},
		{
			"inputs": [
				{
					"internalType": "bytes32",
					"name": "role",
					"type": "bytes32"
				},
				{
					"internalType": "address",
					"name": "account",
					"type": "address"
				}
			],
			"name": "hasRole",
			"outputs": [
				{
					"internalType": "bool",
					"name": "",
					"type": "bool"
				}
			],
			"stateMutability": "view",
			"type": "function"
		},
		{
			"inputs": [
				{
					"internalType": "address payable",
					"name": "_lockCreator",
					"type": "address"
				},
				{
					"internalType": "uint256",
					"name": "_expirationDuration",
					"type": "uint256"
				},
				{
					"internalType": "address",
					"name": "_tokenAddress",
					"type": "address"
				},
				{
					"internalType": "uint256",
					"name": "_keyPrice",
					"type": "uint256"
				},
				{
					"internalType": "uint256",
					"name": "_maxNumberOfKeys",
					"type": "uint256"
				},
				{
					"internalType": "string",
					"name": "_lockName",
					"type": "string"
				}
			],
			"name": "initialize",
			"outputs": [],
			"stateMutability": "nonpayable",
			"type": "function"
		},
		{
			"inputs": [
				{
					"internalType": "address",
					"name": "_owner",
					"type": "address"
				},
				{
					"internalType": "address",
					"name": "_operator",
					"type": "address"
				}
			],
			"name": "isApprovedForAll",
			"outputs": [
				{
					"internalType": "bool",
					"name": "",
					"type": "bool"
				}
			],
			"stateMutability": "view",
			"type": "function"
		},
		{
			"inputs": [
				{
					"internalType": "address",
					"name": "account",
					"type": "address"
				}
			],
			"name": "isLockManager",
			"outputs": [
				{
					"internalType": "bool",
					"name": "",
					"type": "bool"
				}
			],
			"stateMutability": "view",
			"type": "function"
		},
		{
			"inputs": [
				{
					"internalType": "address",
					"name": "account",
					"type": "address"
				}
			],
			"name": "isOwner",
			"outputs": [
				{
					"internalType": "bool",
					"name": "",
					"type": "bool"
				}
			],
			"stateMutability": "view",
			"type": "function"
		},
		{
			"inputs": [
				{
					"internalType": "uint256",
					"name": "_tokenId",
					"type": "uint256"
				},
				{
					"internalType": "address",
					"name": "_referrer",
					"type": "address"
				}
			],
			"name": "isRenewable",
			"outputs": [
				{
					"internalType": "bool",
					"name": "",
					"type": "bool"
				}
			],
			"stateMutability": "view",
			"type": "function"
		},
		{
			"inputs": [
				{
					"internalType": "uint256",
					"name": "_tokenId",
					"type": "uint256"
				}
			],
			"name": "isValidKey",
			"outputs": [
				{
					"internalType": "bool",
					"name": "",
					"type": "bool"
				}
			],
			"stateMutability": "view",
			"type": "function"
		},
		{
			"inputs": [
				{
					"internalType": "uint256",
					"name": "_tokenId",
					"type": "uint256"
				}
			],
			"name": "keyExpirationTimestampFor",
			"outputs": [
				{
					"internalType": "uint256",
					"name": "",
					"type": "uint256"
				}
			],
			"stateMutability": "view",
			"type": "function"
		},
		{
			"inputs": [
				{
					"internalType": "uint256",
					"name": "",
					"type": "uint256"
				}
			],
			"name": "keyManagerOf",
			"outputs": [
				{
					"internalType": "address",
					"name": "",
					"type": "address"
				}
			],
			"stateMutability": "view",
			"type": "function"
		},
		{
			"inputs": [],
			"name": "keyPrice",
			"outputs": [
				{
					"internalType": "uint256",
					"name": "",
					"type": "uint256"
				}
			],
			"stateMutability": "view",
			"type": "function"
		},
		{
			"inputs": [
				{
					"internalType": "address",
					"name": "_from",
					"type": "address"
				},
				{
					"internalType": "address",
					"name": "_recipient",
					"type": "address"
				},
				{
					"internalType": "uint256",
					"name": "_tokenId",
					"type": "uint256"
				}
			],
			"name": "lendKey",
			"outputs": [],
			"stateMutability": "nonpayable",
			"type": "function"
		},
		{
			"inputs": [],
			"name": "maxKeysPerAddress",
			"outputs": [
				{
					"internalType": "uint256",
					"name": "",
					"type": "uint256"
				}
			],
			"stateMutability": "view",
			"type": "function"
		},
		{
			"inputs": [],
			"name": "maxNumberOfKeys",
			"outputs": [
				{
					"internalType": "uint256",
					"name": "",
					"type": "uint256"
				}
			],
			"stateMutability": "view",
			"type": "function"
		},
		{
			"inputs": [
				{
					"internalType": "uint256",
					"name": "_tokenIdFrom",
					"type": "uint256"
				},
				{
					"internalType": "uint256",
					"name": "_tokenIdTo",
					"type": "uint256"
				},
				{
					"internalType": "uint256",
					"name": "_amount",
					"type": "uint256"
				}
			],
			"name": "mergeKeys",
			"outputs": [],
			"stateMutability": "nonpayable",
			"type": "function"
		},
		{
			"inputs": [
				{
					"internalType": "bytes",
					"name": "",
					"type": "bytes"
				}
			],
			"name": "migrate",
			"outputs": [],
			"stateMutability": "nonpayable",
			"type": "function"
		},
		{
			"inputs": [],
			"name": "name",
			"outputs": [
				{
					"internalType": "string",
					"name": "",
					"type": "string"
				}
			],
			"stateMutability": "view",
			"type": "function"
		},
		{
			"inputs": [],
			"name": "numberOfOwners",
			"outputs": [
				{
					"internalType": "uint256",
					"name": "",
					"type": "uint256"
				}
			],
			"stateMutability": "view",
			"type": "function"
		},
		{
			"inputs": [],
			"name": "onKeyCancelHook",
			"outputs": [
				{
					"internalType": "contract ILockKeyCancelHook",
					"name": "",
					"type": "address"
				}
			],
			"stateMutability": "view",
			"type": "function"
		},
		{
			"inputs": [],
			"name": "onKeyExtendHook",
			"outputs": [
				{
					"internalType": "contract ILockKeyExtendHook",
					"name": "",
					"type": "address"
				}
			],
			"stateMutability": "view",
			"type": "function"
		},
		{
			"inputs": [],
			"name": "onKeyGrantHook",
			"outputs": [
				{
					"internalType": "contract ILockKeyGrantHook",
					"name": "",
					"type": "address"
				}
			],
			"stateMutability": "view",
			"type": "function"
		},
		{
			"inputs": [],
			"name": "onKeyPurchaseHook",
			"outputs": [
				{
					"internalType": "contract ILockKeyPurchaseHook",
					"name": "",
					"type": "address"
				}
			],
			"stateMutability": "view",
			"type": "function"
		},
		{
			"inputs": [],
			"name": "onKeyTransferHook",
			"outputs": [
				{
					"internalType": "contract ILockKeyTransferHook",
					"name": "",
					"type": "address"
				}
			],
			"stateMutability": "view",
			"type": "function"
		},
		{
			"inputs": [],
			"name": "onTokenURIHook",
			"outputs": [
				{
					"internalType": "contract ILockTokenURIHook",
					"name": "",
					"type": "address"
				}
			],
			"stateMutability": "view",
			"type": "function"
		},
		{
			"inputs": [],
			"name": "onValidKeyHook",
			"outputs": [
				{
					"internalType": "contract ILockValidKeyHook",
					"name": "",
					"type": "address"
				}
			],
			"stateMutability": "view",
			"type": "function"
		},
		{
			"inputs": [],
			"name": "owner",
			"outputs": [
				{
					"internalType": "address",
					"name": "",
					"type": "address"
				}
			],
			"stateMutability": "view",
			"type": "function"
		},
		{
			"inputs": [
				{
					"internalType": "uint256",
					"name": "_tokenId",
					"type": "uint256"
				}
			],
			"name": "ownerOf",
			"outputs": [
				{
					"internalType": "address",
					"name": "",
					"type": "address"
				}
			],
			"stateMutability": "view",
			"type": "function"
		},
		{
			"inputs": [],
			"name": "publicLockVersion",
			"outputs": [
				{
					"internalType": "uint16",
					"name": "",
					"type": "uint16"
				}
			],
			"stateMutability": "pure",
			"type": "function"
		},
		{
			"inputs": [
				{
					"internalType": "uint256[]",
					"name": "_values",
					"type": "uint256[]"
				},
				{
					"internalType": "address[]",
					"name": "_recipients",
					"type": "address[]"
				},
				{
					"internalType": "address[]",
					"name": "_referrers",
					"type": "address[]"
				},
				{
					"internalType": "address[]",
					"name": "_keyManagers",
					"type": "address[]"
				},
				{
					"internalType": "bytes[]",
					"name": "_data",
					"type": "bytes[]"
				}
			],
			"name": "purchase",
			"outputs": [
				{
					"internalType": "uint256[]",
					"name": "",
					"type": "uint256[]"
				}
			],
			"stateMutability": "payable",
			"type": "function"
		},
		{
			"inputs": [
				{
					"internalType": "address",
					"name": "_recipient",
					"type": "address"
				},
				{
					"internalType": "address",
					"name": "_referrer",
					"type": "address"
				},
				{
					"internalType": "bytes",
					"name": "_data",
					"type": "bytes"
				}
			],
			"name": "purchasePriceFor",
			"outputs": [
				{
					"internalType": "uint256",
					"name": "minKeyPrice",
					"type": "uint256"
				}
			],
			"stateMutability": "view",
			"type": "function"
		},
		{
			"inputs": [
				{
					"internalType": "address",
					"name": "",
					"type": "address"
				}
			],
			"name": "referrerFees",
			"outputs": [
				{
					"internalType": "uint256",
					"name": "",
					"type": "uint256"
				}
			],
			"stateMutability": "view",
			"type": "function"
		},
		{
			"inputs": [],
			"name": "refundPenaltyBasisPoints",
			"outputs": [
				{
					"internalType": "uint256",
					"name": "",
					"type": "uint256"
				}
			],
			"stateMutability": "view",
			"type": "function"
		},
		{
			"inputs": [
				{
					"internalType": "uint256",
					"name": "_tokenId",
					"type": "uint256"
				},
				{
					"internalType": "address",
					"name": "_referrer",
					"type": "address"
				}
			],
			"name": "renewMembershipFor",
			"outputs": [],
			"stateMutability": "nonpayable",
			"type": "function"
		},
		{
			"inputs": [],
			"name": "renounceLockManager",
			"outputs": [],
			"stateMutability": "nonpayable",
			"type": "function"
		},
		{
			"inputs": [
				{
					"internalType": "bytes32",
					"name": "role",
					"type": "bytes32"
				},
				{
					"internalType": "address",
					"name": "account",
					"type": "address"
				}
			],
			"name": "renounceRole",
			"outputs": [],
			"stateMutability": "nonpayable",
			"type": "function"
		},
		{
			"inputs": [
				{
					"internalType": "bytes32",
					"name": "role",
					"type": "bytes32"
				},
				{
					"internalType": "address",
					"name": "account",
					"type": "address"
				}
			],
			"name": "revokeRole",
			"outputs": [],
			"stateMutability": "nonpayable",
			"type": "function"
		},
		{
			"inputs": [
				{
					"internalType": "address",
					"name": "_from",
					"type": "address"
				},
				{
					"internalType": "address",
					"name": "_to",
					"type": "address"
				},
				{
					"internalType": "uint256",
					"name": "_tokenId",
					"type": "uint256"
				}
			],
			"name": "safeTransferFrom",
			"outputs": [],
			"stateMutability": "nonpayable",
			"type": "function"
		},
		{
			"inputs": [
				{
					"internalType": "address",
					"name": "_from",
					"type": "address"
				},
				{
					"internalType": "address",
					"name": "_to",
					"type": "address"
				},
				{
					"internalType": "uint256",
					"name": "_tokenId",
					"type": "uint256"
				},
				{
					"internalType": "bytes",
					"name": "_data",
					"type": "bytes"
				}
			],
			"name": "safeTransferFrom",
			"outputs": [],
			"stateMutability": "nonpayable",
			"type": "function"
		},
		{
			"inputs": [],
			"name": "schemaVersion",
			"outputs": [
				{
					"internalType": "uint256",
					"name": "",
					"type": "uint256"
				}
			],
			"stateMutability": "view",
			"type": "function"
		},
		{
			"inputs": [
				{
					"internalType": "address",
					"name": "_to",
					"type": "address"
				},
				{
					"internalType": "bool",
					"name": "_approved",
					"type": "bool"
				}
			],
			"name": "setApprovalForAll",
			"outputs": [],
			"stateMutability": "nonpayable",
			"type": "function"
		},
		{
			"inputs": [
				{
					"internalType": "address",
					"name": "_onKeyPurchaseHook",
					"type": "address"
				},
				{
					"internalType": "address",
					"name": "_onKeyCancelHook",
					"type": "address"
				},
				{
					"internalType": "address",
					"name": "_onValidKeyHook",
					"type": "address"
				},
				{
					"internalType": "address",
					"name": "_onTokenURIHook",
					"type": "address"
				},
				{
					"internalType": "address",
					"name": "_onKeyTransferHook",
					"type": "address"
				},
				{
					"internalType": "address",
					"name": "_onKeyExtendHook",
					"type": "address"
				},
				{
					"internalType": "address",
					"name": "_onKeyGrantHook",
					"type": "address"
				}
			],
			"name": "setEventHooks",
			"outputs": [],
			"stateMutability": "nonpayable",
			"type": "function"
		},
		{
			"inputs": [
				{
					"internalType": "uint256",
					"name": "_refundValue",
					"type": "uint256"
				}
			],
			"name": "setGasRefundValue",
			"outputs": [],
			"stateMutability": "nonpayable",
			"type": "function"
		},
		{
			"inputs": [
				{
					"internalType": "uint256",
					"name": "_tokenId",
					"type": "uint256"
				},
				{
					"internalType": "address",
					"name": "_keyManager",
					"type": "address"
				}
			],
			"name": "setKeyManagerOf",
			"outputs": [],
			"stateMutability": "nonpayable",
			"type": "function"
		},
		{
			"inputs": [
				{
					"internalType": "string",
					"name": "_lockName",
					"type": "string"
				},
				{
					"internalType": "string",
					"name": "_lockSymbol",
					"type": "string"
				},
				{
					"internalType": "string",
					"name": "_baseTokenURI",
					"type": "string"
				}
			],
			"name": "setLockMetadata",
			"outputs": [],
			"stateMutability": "nonpayable",
			"type": "function"
		},
		{
			"inputs": [
				{
					"internalType": "address",
					"name": "account",
					"type": "address"
				}
			],
			"name": "setOwner",
			"outputs": [],
			"stateMutability": "nonpayable",
			"type": "function"
		},
		{
			"inputs": [
				{
					"internalType": "address",
					"name": "_referrer",
					"type": "address"
				},
				{
					"internalType": "uint256",
					"name": "_feeBasisPoint",
					"type": "uint256"
				}
			],
			"name": "setReferrerFee",
			"outputs": [],
			"stateMutability": "nonpayable",
			"type": "function"
		},
		{
			"inputs": [
				{
					"internalType": "address",
					"name": "_to",
					"type": "address"
				},
				{
					"internalType": "uint256",
					"name": "_tokenIdFrom",
					"type": "uint256"
				},
				{
					"internalType": "uint256",
					"name": "_timeShared",
					"type": "uint256"
				}
			],
			"name": "shareKey",
			"outputs": [],
			"stateMutability": "nonpayable",
			"type": "function"
		},
		{
			"inputs": [
				{
					"internalType": "bytes4",
					"name": "interfaceId",
					"type": "bytes4"
				}
			],
			"name": "supportsInterface",
			"outputs": [
				{
					"internalType": "bool",
					"name": "",
					"type": "bool"
				}
			],
			"stateMutability": "view",
			"type": "function"
		},
		{
			"inputs": [],
			"name": "symbol",
			"outputs": [
				{
					"internalType": "string",
					"name": "",
					"type": "string"
				}
			],
			"stateMutability": "view",
			"type": "function"
		},
		{
			"inputs": [],
			"name": "tokenAddress",
			"outputs": [
				{
					"internalType": "address",
					"name": "",
					"type": "address"
				}
			],
			"stateMutability": "view",
			"type": "function"
		},
		{
			"inputs": [
				{
					"internalType": "uint256",
					"name": "_index",
					"type": "uint256"
				}
			],
			"name": "tokenByIndex",
			"outputs": [
				{
					"internalType": "uint256",
					"name": "",
					"type": "uint256"
				}
			],
			"stateMutability": "view",
			"type": "function"
		},
		{
			"inputs": [
				{
					"internalType": "address",
					"name": "_keyOwner",
					"type": "address"
				},
				{
					"internalType": "uint256",
					"name": "_index",
					"type": "uint256"
				}
			],
			"name": "tokenOfOwnerByIndex",
			"outputs": [
				{
					"internalType": "uint256",
					"name": "",
					"type": "uint256"
				}
			],
			"stateMutability": "view",
			"type": "function"
		},
		{
			"inputs": [
				{
					"internalType": "uint256",
					"name": "_tokenId",
					"type": "uint256"
				}
			],
			"name": "tokenURI",
			"outputs": [
				{
					"internalType": "string",
					"name": "",
					"type": "string"
				}
			],
			"stateMutability": "view",
			"type": "function"
		},
		{
			"inputs": [
				{
					"internalType": "address",
					"name": "_keyOwner",
					"type": "address"
				}
			],
			"name": "totalKeys",
			"outputs": [
				{
					"internalType": "uint256",
					"name": "",
					"type": "uint256"
				}
			],
			"stateMutability": "view",
			"type": "function"
		},
		{
			"inputs": [],
			"name": "totalSupply",
			"outputs": [
				{
					"internalType": "uint256",
					"name": "",
					"type": "uint256"
				}
			],
			"stateMutability": "view",
			"type": "function"
		},
		{
			"inputs": [],
			"name": "transferFeeBasisPoints",
			"outputs": [
				{
					"internalType": "uint256",
					"name": "",
					"type": "uint256"
				}
			],
			"stateMutability": "view",
			"type": "function"
		},
		{
			"inputs": [
				{
					"internalType": "address",
					"name": "_from",
					"type": "address"
				},
				{
					"internalType": "address",
					"name": "_recipient",
					"type": "address"
				},
				{
					"internalType": "uint256",
					"name": "_tokenId",
					"type": "uint256"
				}
			],
			"name": "transferFrom",
			"outputs": [],
			"stateMutability": "nonpayable",
			"type": "function"
		},
		{
			"inputs": [
				{
					"internalType": "address",
					"name": "_recipient",
					"type": "address"
				},
				{
					"internalType": "uint256",
					"name": "_tokenId",
					"type": "uint256"
				}
			],
			"name": "unlendKey",
			"outputs": [],
			"stateMutability": "nonpayable",
			"type": "function"
		},
		{
			"inputs": [],
			"name": "unlockProtocol",
			"outputs": [
				{
					"internalType": "contract IUnlock",
					"name": "",
					"type": "address"
				}
			],
			"stateMutability": "view",
			"type": "function"
		},
		{
			"inputs": [
				{
					"internalType": "uint256",
					"name": "_keyPrice",
					"type": "uint256"
				},
				{
					"internalType": "address",
					"name": "_tokenAddress",
					"type": "address"
				}
			],
			"name": "updateKeyPricing",
			"outputs": [],
			"stateMutability": "nonpayable",
			"type": "function"
		},
		{
			"inputs": [
				{
					"internalType": "uint256",
					"name": "_newExpirationDuration",
					"type": "uint256"
				},
				{
					"internalType": "uint256",
					"name": "_maxNumberOfKeys",
					"type": "uint256"
				},
				{
					"internalType": "uint256",
					"name": "_maxKeysPerAcccount",
					"type": "uint256"
				}
			],
			"name": "updateLockConfig",
			"outputs": [],
			"stateMutability": "nonpayable",
			"type": "function"
		},
		{
			"inputs": [
				{
					"internalType": "uint256",
					"name": "_freeTrialLength",
					"type": "uint256"
				},
				{
					"internalType": "uint256",
					"name": "_refundPenaltyBasisPoints",
					"type": "uint256"
				}
			],
			"name": "updateRefundPenalty",
			"outputs": [],
			"stateMutability": "nonpayable",
			"type": "function"
		},
		{
			"inputs": [],
			"name": "updateSchemaVersion",
			"outputs": [],
			"stateMutability": "nonpayable",
			"type": "function"
		},
		{
			"inputs": [
				{
					"internalType": "uint256",
					"name": "_transferFeeBasisPoints",
					"type": "uint256"
				}
			],
			"name": "updateTransferFee",
			"outputs": [],
			"stateMutability": "nonpayable",
			"type": "function"
		},
		{
			"inputs": [
				{
					"internalType": "address",
					"name": "_tokenAddress",
					"type": "address"
				},
				{
					"internalType": "address payable",
					"name": "_recipient",
					"type": "address"
				},
				{
					"internalType": "uint256",
					"name": "_amount",
					"type": "uint256"
				}
			],
			"name": "withdraw",
			"outputs": [],
			"stateMutability": "nonpayable",
			"type": "function"
		},
		{
			"stateMutability": "payable",
			"type": "receive"
		}
	]
}