{
	"data": {
		"bytecode": {
			"linkReferences": {},
			"object": "608060405234801561001057600080fd5b5033600260006101000a81548173ffffffffffffffffffffffffffffffffffffffff021916908373ffffffffffffffffffffffffffffffffffffffff1602179055506110a0806100616000396000f3fe608060405234801561001057600080fd5b50600436106100935760003560e01c80636606ea26116100665780636606ea2614610130578063798166ea1461016057806391b2752b1461017c578063b6ff5589146101ac578063c3d9cc27146101c857610093565b8063012663f3146100985780631198df2c146100b45780634e5240a6146100d057806351e05d8f14610100575b600080fd5b6100b260048036038101906100ad9190610721565b6101f8565b005b6100ce60048036038101906100c991906108ce565b610266565b005b6100ea60048036038101906100e59190610946565b61032e565b6040516100f79190610a0e565b60405180910390f35b61011a60048036038101906101159190610946565b610377565b6040516101279190610a0e565b60405180910390f35b61014a60048036038101906101459190610946565b6103c0565b6040516101579190610a42565b60405180910390f35b61017a60048036038101906101759190610a5d565b6103d6565b005b61019660048036038101906101919190610ba5565b610518565b6040516101a39190610a42565b60405180910390f35b6101c660048036038101906101c19190610946565b61052e565b005b6101e260048036038101906101dd9190610946565b610572565b6040516101ef9190610c09565b60405180910390f35b600b841061020557600080fd5b600b831061021257600080fd5b600b821061021f57600080fd5b600b811061022c57600080fd5b6000841161023957600080fd5b6000831161024657600080fd5b6000821161025357600080fd5b6000811161026057600080fd5b50505050565b600081805190602001209050600061027d8261057d565b905060008160405161028f9190610c95565b908152602001604051809103902060009054906101000a900473ffffffffffffffffffffffffffffffffffffffff1673ffffffffffffffffffffffffffffffffffffffff1663e6f65150856040518263ffffffff1660e01b81526004016102f69190610cf6565b600060405180830381600087803b15801561031057600080fd5b505af1158015610324573d6000803e3d6000fd5b5050505050505050565b6001818051602081018201805184825260208301602085012081835280955050505050506000915054906101000a900473ffffffffffffffffffffffffffffffffffffffff1681565b6000818051602081018201805184825260208301602085012081835280955050505050506000915054906101000a900473ffffffffffffffffffffffffffffffffffffffff1681565b6000808280519060200120905080915050919050565b600260009054906101000a900473ffffffffffffffffffffffffffffffffffffffff1673ffffffffffffffffffffffffffffffffffffffff163373ffffffffffffffffffffffffffffffffffffffff1614610466576040517f08c379a000000000000000000000000000000000000000000000000000000000815260040161045d90610d64565b60405180910390fd5b6000816040516104769190610c95565b908152602001604051809103902060009054906101000a900473ffffffffffffffffffffffffffffffffffffffff1673ffffffffffffffffffffffffffffffffffffffff1663798166ea8484846040518463ffffffff1660e01b81526004016104e193929190610d84565b600060405180830381600087803b1580156104fb57600080fd5b505af115801561050f573d6000803e3d6000fd5b50505050505050565b6000808280519060200120905080915050919050565b60008160405161053e9190610c95565b908152602001604051809103902060006101000a81549073ffffffffffffffffffffffffffffffffffffffff021916905550565b600060019050919050565b60606000604067ffffffffffffffff81111561059c5761059b6107a3565b5b6040519080825280601f01601f1916602001820160405280156105ce5781602001600182028036833780820191505090505b50905060005b60208110156106cd5760008160086105ec9190610dff565b60026105f89190610f74565b8560001c6106069190610dff565b60001b9050808360028461061a9190610dff565b8151811061062b5761062a610fbf565b5b60200101907effffffffffffffffffffffffffffffffffffffffffffffffffffffffffffff1916908160001a905350600060f81b83600160028561066f9190610dff565b6106799190610fee565b8151811061068a57610689610fbf565b5b60200101907effffffffffffffffffffffffffffffffffffffffffffffffffffffffffffff1916908160001a9053505080806106c590611022565b9150506105d4565b5080915050919050565b6000604051905090565b600080fd5b600080fd5b6000819050919050565b6106fe816106eb565b811461070957600080fd5b50565b60008135905061071b816106f5565b92915050565b6000806000806080858703121561073b5761073a6106e1565b5b60006107498782880161070c565b945050602061075a8782880161070c565b935050604061076b8782880161070c565b925050606061077c8782880161070c565b91505092959194509250565b600080fd5b600080fd5b6000601f19601f8301169050919050565b7f4e487b7100000000000000000000000000000000000000000000000000000000600052604160045260246000fd5b6107db82610792565b810181811067ffffffffffffffff821117156107fa576107f96107a3565b5b80604052505050565b600061080d6106d7565b905061081982826107d2565b919050565b600067ffffffffffffffff821115610839576108386107a3565b5b61084282610792565b9050602081019050919050565b82818337600083830152505050565b600061087161086c8461081e565b610803565b90508281526020810184848401111561088d5761088c61078d565b5b61089884828561084f565b509392505050565b600082601f8301126108b5576108b4610788565b5b81356108c584826020860161085e565b91505092915050565b600080604083850312156108e5576108e46106e1565b5b600083013567ffffffffffffffff811115610903576109026106e6565b5b61090f858286016108a0565b925050602083013567ffffffffffffffff8111156109305761092f6106e6565b5b61093c858286016108a0565b9150509250929050565b60006020828403121561095c5761095b6106e1565b5b600082013567ffffffffffffffff81111561097a576109796106e6565b5b610986848285016108a0565b91505092915050565b600073ffffffffffffffffffffffffffffffffffffffff82169050919050565b6000819050919050565b60006109d46109cf6109ca8461098f565b6109af565b61098f565b9050919050565b60006109e6826109b9565b9050919050565b60006109f8826109db565b9050919050565b610a08816109ed565b82525050565b6000602082019050610a2360008301846109ff565b92915050565b6000819050919050565b610a3c81610a29565b82525050565b6000602082019050610a576000830184610a33565b92915050565b600080600060608486031215610a7657610a756106e1565b5b600084013567ffffffffffffffff811115610a9457610a936106e6565b5b610aa0868287016108a0565b935050602084013567ffffffffffffffff811115610ac157610ac06106e6565b5b610acd868287016108a0565b925050604084013567ffffffffffffffff811115610aee57610aed6106e6565b5b610afa868287016108a0565b9150509250925092565b600067ffffffffffffffff821115610b1f57610b1e6107a3565b5b610b2882610792565b9050602081019050919050565b6000610b48610b4384610b04565b610803565b905082815260208101848484011115610b6457610b6361078d565b5b610b6f84828561084f565b509392505050565b600082601f830112610b8c57610b8b610788565b5b8135610b9c848260208601610b35565b91505092915050565b600060208284031215610bbb57610bba6106e1565b5b600082013567ffffffffffffffff811115610bd957610bd86106e6565b5b610be584828501610b77565b91505092915050565b60008115159050919050565b610c0381610bee565b82525050565b6000602082019050610c1e6000830184610bfa565b92915050565b600081519050919050565b600081905092915050565b60005b83811015610c58578082015181840152602081019050610c3d565b60008484015250505050565b6000610c6f82610c24565b610c798185610c2f565b9350610c89818560208601610c3a565b80840191505092915050565b6000610ca18284610c64565b915081905092915050565b600082825260208201905092915050565b6000610cc882610c24565b610cd28185610cac565b9350610ce2818560208601610c3a565b610ceb81610792565b840191505092915050565b60006020820190508181036000830152610d108184610cbd565b905092915050565b7f43616c6c6572206973206e6f74206f776e657200000000000000000000000000600082015250565b6000610d4e601383610cac565b9150610d5982610d18565b602082019050919050565b60006020820190508181036000830152610d7d81610d41565b9050919050565b60006060820190508181036000830152610d9e8186610cbd565b90508181036020830152610db28185610cbd565b90508181036040830152610dc68184610cbd565b9050949350505050565b7f4e487b7100000000000000000000000000000000000000000000000000000000600052601160045260246000fd5b6000610e0a826106eb565b9150610e15836106eb565b9250828202610e23816106eb565b91508282048414831517610e3a57610e39610dd0565b5b5092915050565b60008160011c9050919050565b6000808291508390505b6001851115610e9857808604811115610e7457610e73610dd0565b5b6001851615610e835780820291505b8081029050610e9185610e41565b9450610e58565b94509492505050565b600082610eb15760019050610f6d565b81610ebf5760009050610f6d565b8160018114610ed55760028114610edf57610f0e565b6001915050610f6d565b60ff841115610ef157610ef0610dd0565b5b8360020a915084821115610f0857610f07610dd0565b5b50610f6d565b5060208310610133831016604e8410600b8410161715610f435782820a905083811115610f3e57610f3d610dd0565b5b610f6d565b610f508484846001610e4e565b92509050818404811115610f6757610f66610dd0565b5b81810290505b9392505050565b6000610f7f826106eb565b9150610f8a836106eb565b9250610fb77fffffffffffffffffffffffffffffffffffffffffffffffffffffffffffffffff8484610ea1565b905092915050565b7f4e487b7100000000000000000000000000000000000000000000000000000000600052603260045260246000fd5b6000610ff9826106eb565b9150611004836106eb565b925082820190508082111561101c5761101b610dd0565b5b92915050565b600061102d826106eb565b91507fffffffffffffffffffffffffffffffffffffffffffffffffffffffffffffffff820361105f5761105e610dd0565b5b60018201905091905056fea26469706673582212209d8b6ca23d1ba40a1dd1a64dc0d35847812e4e3447105d22fb5e6f0696fb275a64736f6c63430008120033",
			"opcodes": "PUSH1 0x80 PUSH1 0x40 MSTORE CALLVALUE DUP1 ISZERO PUSH2 0x10 JUMPI PUSH1 0x0 DUP1 REVERT JUMPDEST POP CALLER PUSH1 0x2 PUSH1 0x0 PUSH2 0x100 EXP DUP2 SLOAD DUP2 PUSH20 0xFFFFFFFFFFFFFFFFFFFFFFFFFFFFFFFFFFFFFFFF MUL NOT AND SWAP1 DUP4 PUSH20 0xFFFFFFFFFFFFFFFFFFFFFFFFFFFFFFFFFFFFFFFF AND MUL OR SWAP1 SSTORE POP PUSH2 0x10A0 DUP1 PUSH2 0x61 PUSH1 0x0 CODECOPY PUSH1 0x0 RETURN INVALID PUSH1 0x80 PUSH1 0x40 MSTORE CALLVALUE DUP1 ISZERO PUSH2 0x10 JUMPI PUSH1 0x0 DUP1 REVERT JUMPDEST POP PUSH1 0x4 CALLDATASIZE LT PUSH2 0x93 JUMPI PUSH1 0x0 CALLDATALOAD PUSH1 0xE0 SHR DUP1 PUSH4 0x6606EA26 GT PUSH2 0x66 JUMPI DUP1 PUSH4 0x6606EA26 EQ PUSH2 0x130 JUMPI DUP1 PUSH4 0x798166EA EQ PUSH2 0x160 JUMPI DUP1 PUSH4 0x91B2752B EQ PUSH2 0x17C JUMPI DUP1 PUSH4 0xB6FF5589 EQ PUSH2 0x1AC JUMPI DUP1 PUSH4 0xC3D9CC27 EQ PUSH2 0x1C8 JUMPI PUSH2 0x93 JUMP JUMPDEST DUP1 PUSH4 0x12663F3 EQ PUSH2 0x98 JUMPI DUP1 PUSH4 0x1198DF2C EQ PUSH2 0xB4 JUMPI DUP1 PUSH4 0x4E5240A6 EQ PUSH2 0xD0 JUMPI DUP1 PUSH4 0x51E05D8F EQ PUSH2 0x100 JUMPI JUMPDEST PUSH1 0x0 DUP1 REVERT JUMPDEST PUSH2 0xB2 PUSH1 0x4 DUP1 CALLDATASIZE SUB DUP2 ADD SWAP1 PUSH2 0xAD SWAP2 SWAP1 PUSH2 0x721 JUMP JUMPDEST PUSH2 0x1F8 JUMP JUMPDEST STOP JUMPDEST PUSH2 0xCE PUSH1 0x4 DUP1 CALLDATASIZE SUB DUP2 ADD SWAP1 PUSH2 0xC9 SWAP2 SWAP1 PUSH2 0x8CE JUMP JUMPDEST PUSH2 0x266 JUMP JUMPDEST STOP JUMPDEST PUSH2 0xEA PUSH1 0x4 DUP1 CALLDATASIZE SUB DUP2 ADD SWAP1 PUSH2 0xE5 SWAP2 SWAP1 PUSH2 0x946 JUMP JUMPDEST PUSH2 0x32E JUMP JUMPDEST PUSH1 0x40 MLOAD PUSH2 0xF7 SWAP2 SWAP1 PUSH2 0xA0E JUMP JUMPDEST PUSH1 0x40 MLOAD DUP1 SWAP2 SUB SWAP1 RETURN JUMPDEST PUSH2 0x11A PUSH1 0x4 DUP1 CALLDATASIZE SUB DUP2 ADD SWAP1 PUSH2 0x115 SWAP2 SWAP1 PUSH2 0x946 JUMP JUMPDEST PUSH2 0x377 JUMP JUMPDEST PUSH1 0x40 MLOAD PUSH2 0x127 SWAP2 SWAP1 PUSH2 0xA0E JUMP JUMPDEST PUSH1 0x40 MLOAD DUP1 SWAP2 SUB SWAP1 RETURN JUMPDEST PUSH2 0x14A PUSH1 0x4 DUP1 CALLDATASIZE SUB DUP2 ADD SWAP1 PUSH2 0x145 SWAP2 SWAP1 PUSH2 0x946 JUMP JUMPDEST PUSH2 0x3C0 JUMP JUMPDEST PUSH1 0x40 MLOAD PUSH2 0x157 SWAP2 SWAP1 PUSH2 0xA42 JUMP JUMPDEST PUSH1 0x40 MLOAD DUP1 SWAP2 SUB SWAP1 RETURN JUMPDEST PUSH2 0x17A PUSH1 0x4 DUP1 CALLDATASIZE SUB DUP2 ADD SWAP1 PUSH2 0x175 SWAP2 SWAP1 PUSH2 0xA5D JUMP JUMPDEST PUSH2 0x3D6 JUMP JUMPDEST STOP JUMPDEST PUSH2 0x196 PUSH1 0x4 DUP1 CALLDATASIZE SUB DUP2 ADD SWAP1 PUSH2 0x191 SWAP2 SWAP1 PUSH2 0xBA5 JUMP JUMPDEST PUSH2 0x518 JUMP JUMPDEST PUSH1 0x40 MLOAD PUSH2 0x1A3 SWAP2 SWAP1 PUSH2 0xA42 JUMP JUMPDEST PUSH1 0x40 MLOAD DUP1 SWAP2 SUB SWAP1 RETURN JUMPDEST PUSH2 0x1C6 PUSH1 0x4 DUP1 CALLDATASIZE SUB DUP2 ADD SWAP1 PUSH2 0x1C1 SWAP2 SWAP1 PUSH2 0x946 JUMP JUMPDEST PUSH2 0x52E JUMP JUMPDEST STOP JUMPDEST PUSH2 0x1E2 PUSH1 0x4 DUP1 CALLDATASIZE SUB DUP2 ADD SWAP1 PUSH2 0x1DD SWAP2 SWAP1 PUSH2 0x946 JUMP JUMPDEST PUSH2 0x572 JUMP JUMPDEST PUSH1 0x40 MLOAD PUSH2 0x1EF SWAP2 SWAP1 PUSH2 0xC09 JUMP JUMPDEST PUSH1 0x40 MLOAD DUP1 SWAP2 SUB SWAP1 RETURN JUMPDEST PUSH1 0xB DUP5 LT PUSH2 0x205 JUMPI PUSH1 0x0 DUP1 REVERT JUMPDEST PUSH1 0xB DUP4 LT PUSH2 0x212 JUMPI PUSH1 0x0 DUP1 REVERT JUMPDEST PUSH1 0xB DUP3 LT PUSH2 0x21F JUMPI PUSH1 0x0 DUP1 REVERT JUMPDEST PUSH1 0xB DUP2 LT PUSH2 0x22C JUMPI PUSH1 0x0 DUP1 REVERT JUMPDEST PUSH1 0x0 DUP5 GT PUSH2 0x239 JUMPI PUSH1 0x0 DUP1 REVERT JUMPDEST PUSH1 0x0 DUP4 GT PUSH2 0x246 JUMPI PUSH1 0x0 DUP1 REVERT JUMPDEST PUSH1 0x0 DUP3 GT PUSH2 0x253 JUMPI PUSH1 0x0 DUP1 REVERT JUMPDEST PUSH1 0x0 DUP2 GT PUSH2 0x260 JUMPI PUSH1 0x0 DUP1 REVERT JUMPDEST POP POP POP POP JUMP JUMPDEST PUSH1 0x0 DUP2 DUP1 MLOAD SWAP1 PUSH1 0x20 ADD KECCAK256 SWAP1 POP PUSH1 0x0 PUSH2 0x27D DUP3 PUSH2 0x57D JUMP JUMPDEST SWAP1 POP PUSH1 0x0 DUP2 PUSH1 0x40 MLOAD PUSH2 0x28F SWAP2 SWAP1 PUSH2 0xC95 JUMP JUMPDEST SWAP1 DUP2 MSTORE PUSH1 0x20 ADD PUSH1 0x40 MLOAD DUP1 SWAP2 SUB SWAP1 KECCAK256 PUSH1 0x0 SWAP1 SLOAD SWAP1 PUSH2 0x100 EXP SWAP1 DIV PUSH20 0xFFFFFFFFFFFFFFFFFFFFFFFFFFFFFFFFFFFFFFFF AND PUSH20 0xFFFFFFFFFFFFFFFFFFFFFFFFFFFFFFFFFFFFFFFF AND PUSH4 0xE6F65150 DUP6 PUSH1 0x40 MLOAD DUP3 PUSH4 0xFFFFFFFF AND PUSH1 0xE0 SHL DUP2 MSTORE PUSH1 0x4 ADD PUSH2 0x2F6 SWAP2 SWAP1 PUSH2 0xCF6 JUMP JUMPDEST PUSH1 0x0 PUSH1 0x40 MLOAD DUP1 DUP4 SUB DUP2 PUSH1 0x0 DUP8 DUP1 EXTCODESIZE ISZERO DUP1 ISZERO PUSH2 0x310 JUMPI PUSH1 0x0 DUP1 REVERT JUMPDEST POP GAS CALL ISZERO DUP1 ISZERO PUSH2 0x324 JUMPI RETURNDATASIZE PUSH1 0x0 DUP1 RETURNDATACOPY RETURNDATASIZE PUSH1 0x0 REVERT JUMPDEST POP POP POP POP POP POP POP POP JUMP JUMPDEST PUSH1 0x1 DUP2 DUP1 MLOAD PUSH1 0x20 DUP2 ADD DUP3 ADD DUP1 MLOAD DUP5 DUP3 MSTORE PUSH1 0x20 DUP4 ADD PUSH1 0x20 DUP6 ADD KECCAK256 DUP2 DUP4 MSTORE DUP1 SWAP6 POP POP POP POP POP POP PUSH1 0x0 SWAP2 POP SLOAD SWAP1 PUSH2 0x100 EXP SWAP1 DIV PUSH20 0xFFFFFFFFFFFFFFFFFFFFFFFFFFFFFFFFFFFFFFFF AND DUP2 JUMP JUMPDEST PUSH1 0x0 DUP2 DUP1 MLOAD PUSH1 0x20 DUP2 ADD DUP3 ADD DUP1 MLOAD DUP5 DUP3 MSTORE PUSH1 0x20 DUP4 ADD PUSH1 0x20 DUP6 ADD KECCAK256 DUP2 DUP4 MSTORE DUP1 SWAP6 POP POP POP POP POP POP PUSH1 0x0 SWAP2 POP SLOAD SWAP1 PUSH2 0x100 EXP SWAP1 DIV PUSH20 0xFFFFFFFFFFFFFFFFFFFFFFFFFFFFFFFFFFFFFFFF AND DUP2 JUMP JUMPDEST PUSH1 0x0 DUP1 DUP3 DUP1 MLOAD SWAP1 PUSH1 0x20 ADD KECCAK256 SWAP1 POP DUP1 SWAP2 POP POP SWAP2 SWAP1 POP JUMP JUMPDEST PUSH1 0x2 PUSH1 0x0 SWAP1 SLOAD SWAP1 PUSH2 0x100 EXP SWAP1 DIV PUSH20 0xFFFFFFFFFFFFFFFFFFFFFFFFFFFFFFFFFFFFFFFF AND PUSH20 0xFFFFFFFFFFFFFFFFFFFFFFFFFFFFFFFFFFFFFFFF AND CALLER PUSH20 0xFFFFFFFFFFFFFFFFFFFFFFFFFFFFFFFFFFFFFFFF AND EQ PUSH2 0x466 JUMPI PUSH1 0x40 MLOAD PUSH32 0x8C379A000000000000000000000000000000000000000000000000000000000 DUP2 MSTORE PUSH1 0x4 ADD PUSH2 0x45D SWAP1 PUSH2 0xD64 JUMP JUMPDEST PUSH1 0x40 MLOAD DUP1 SWAP2 SUB SWAP1 REVERT JUMPDEST PUSH1 0x0 DUP2 PUSH1 0x40 MLOAD PUSH2 0x476 SWAP2 SWAP1 PUSH2 0xC95 JUMP JUMPDEST SWAP1 DUP2 MSTORE PUSH1 0x20 ADD PUSH1 0x40 MLOAD DUP1 SWAP2 SUB SWAP1 KECCAK256 PUSH1 0x0 SWAP1 SLOAD SWAP1 PUSH2 0x100 EXP SWAP1 DIV PUSH20 0xFFFFFFFFFFFFFFFFFFFFFFFFFFFFFFFFFFFFFFFF AND PUSH20 0xFFFFFFFFFFFFFFFFFFFFFFFFFFFFFFFFFFFFFFFF AND PUSH4 0x798166EA DUP5 DUP5 DUP5 PUSH1 0x40 MLOAD DUP5 PUSH4 0xFFFFFFFF AND PUSH1 0xE0 SHL DUP2 MSTORE PUSH1 0x4 ADD PUSH2 0x4E1 SWAP4 SWAP3 SWAP2 SWAP1 PUSH2 0xD84 JUMP JUMPDEST PUSH1 0x0 PUSH1 0x40 MLOAD DUP1 DUP4 SUB DUP2 PUSH1 0x0 DUP8 DUP1 EXTCODESIZE ISZERO DUP1 ISZERO PUSH2 0x4FB JUMPI PUSH1 0x0 DUP1 REVERT JUMPDEST POP GAS CALL ISZERO DUP1 ISZERO PUSH2 0x50F JUMPI RETURNDATASIZE PUSH1 0x0 DUP1 RETURNDATACOPY RETURNDATASIZE PUSH1 0x0 REVERT JUMPDEST POP POP POP POP POP POP POP JUMP JUMPDEST PUSH1 0x0 DUP1 DUP3 DUP1 MLOAD SWAP1 PUSH1 0x20 ADD KECCAK256 SWAP1 POP DUP1 SWAP2 POP POP SWAP2 SWAP1 POP JUMP JUMPDEST PUSH1 0x0 DUP2 PUSH1 0x40 MLOAD PUSH2 0x53E SWAP2 SWAP1 PUSH2 0xC95 JUMP JUMPDEST SWAP1 DUP2 MSTORE PUSH1 0x20 ADD PUSH1 0x40 MLOAD DUP1 SWAP2 SUB SWAP1 KECCAK256 PUSH1 0x0 PUSH2 0x100 EXP DUP2 SLOAD SWAP1 PUSH20 0xFFFFFFFFFFFFFFFFFFFFFFFFFFFFFFFFFFFFFFFF MUL NOT AND SWAP1 SSTORE POP JUMP JUMPDEST PUSH1 0x0 PUSH1 0x1 SWAP1 POP SWAP2 SWAP1 POP JUMP JUMPDEST PUSH1 0x60 PUSH1 0x0 PUSH1 0x40 PUSH8 0xFFFFFFFFFFFFFFFF DUP2 GT ISZERO PUSH2 0x59C JUMPI PUSH2 0x59B PUSH2 0x7A3 JUMP JUMPDEST JUMPDEST PUSH1 0x40 MLOAD SWAP1 DUP1 DUP3 MSTORE DUP1 PUSH1 0x1F ADD PUSH1 0x1F NOT AND PUSH1 0x20 ADD DUP3 ADD PUSH1 0x40 MSTORE DUP1 ISZERO PUSH2 0x5CE JUMPI DUP2 PUSH1 0x20 ADD PUSH1 0x1 DUP3 MUL DUP1 CALLDATASIZE DUP4 CALLDATACOPY DUP1 DUP3 ADD SWAP2 POP POP SWAP1 POP JUMPDEST POP SWAP1 POP PUSH1 0x0 JUMPDEST PUSH1 0x20 DUP2 LT ISZERO PUSH2 0x6CD JUMPI PUSH1 0x0 DUP2 PUSH1 0x8 PUSH2 0x5EC SWAP2 SWAP1 PUSH2 0xDFF JUMP JUMPDEST PUSH1 0x2 PUSH2 0x5F8 SWAP2 SWAP1 PUSH2 0xF74 JUMP JUMPDEST DUP6 PUSH1 0x0 SHR PUSH2 0x606 SWAP2 SWAP1 PUSH2 0xDFF JUMP JUMPDEST PUSH1 0x0 SHL SWAP1 POP DUP1 DUP4 PUSH1 0x2 DUP5 PUSH2 0x61A SWAP2 SWAP1 PUSH2 0xDFF JUMP JUMPDEST DUP2 MLOAD DUP2 LT PUSH2 0x62B JUMPI PUSH2 0x62A PUSH2 0xFBF JUMP JUMPDEST JUMPDEST PUSH1 0x20 ADD ADD SWAP1 PUSH31 0xFFFFFFFFFFFFFFFFFFFFFFFFFFFFFFFFFFFFFFFFFFFFFFFFFFFFFFFFFFFFFF NOT AND SWAP1 DUP2 PUSH1 0x0 BYTE SWAP1 MSTORE8 POP PUSH1 0x0 PUSH1 0xF8 SHL DUP4 PUSH1 0x1 PUSH1 0x2 DUP6 PUSH2 0x66F SWAP2 SWAP1 PUSH2 0xDFF JUMP JUMPDEST PUSH2 0x679 SWAP2 SWAP1 PUSH2 0xFEE JUMP JUMPDEST DUP2 MLOAD DUP2 LT PUSH2 0x68A JUMPI PUSH2 0x689 PUSH2 0xFBF JUMP JUMPDEST JUMPDEST PUSH1 0x20 ADD ADD SWAP1 PUSH31 0xFFFFFFFFFFFFFFFFFFFFFFFFFFFFFFFFFFFFFFFFFFFFFFFFFFFFFFFFFFFFFF NOT AND SWAP1 DUP2 PUSH1 0x0 BYTE SWAP1 MSTORE8 POP POP DUP1 DUP1 PUSH2 0x6C5 SWAP1 PUSH2 0x1022 JUMP JUMPDEST SWAP2 POP POP PUSH2 0x5D4 JUMP JUMPDEST POP DUP1 SWAP2 POP POP SWAP2 SWAP1 POP JUMP JUMPDEST PUSH1 0x0 PUSH1 0x40 MLOAD SWAP1 POP SWAP1 JUMP JUMPDEST PUSH1 0x0 DUP1 REVERT JUMPDEST PUSH1 0x0 DUP1 REVERT JUMPDEST PUSH1 0x0 DUP2 SWAP1 POP SWAP2 SWAP1 POP JUMP JUMPDEST PUSH2 0x6FE DUP2 PUSH2 0x6EB JUMP JUMPDEST DUP2 EQ PUSH2 0x709 JUMPI PUSH1 0x0 DUP1 REVERT JUMPDEST POP JUMP JUMPDEST PUSH1 0x0 DUP2 CALLDATALOAD SWAP1 POP PUSH2 0x71B DUP2 PUSH2 0x6F5 JUMP JUMPDEST SWAP3 SWAP2 POP POP JUMP JUMPDEST PUSH1 0x0 DUP1 PUSH1 0x0 DUP1 PUSH1 0x80 DUP6 DUP8 SUB SLT ISZERO PUSH2 0x73B JUMPI PUSH2 0x73A PUSH2 0x6E1 JUMP JUMPDEST JUMPDEST PUSH1 0x0 PUSH2 0x749 DUP8 DUP3 DUP9 ADD PUSH2 0x70C JUMP JUMPDEST SWAP5 POP POP PUSH1 0x20 PUSH2 0x75A DUP8 DUP3 DUP9 ADD PUSH2 0x70C JUMP JUMPDEST SWAP4 POP POP PUSH1 0x40 PUSH2 0x76B DUP8 DUP3 DUP9 ADD PUSH2 0x70C JUMP JUMPDEST SWAP3 POP POP PUSH1 0x60 PUSH2 0x77C DUP8 DUP3 DUP9 ADD PUSH2 0x70C JUMP JUMPDEST SWAP2 POP POP SWAP3 SWAP6 SWAP2 SWAP5 POP SWAP3 POP JUMP JUMPDEST PUSH1 0x0 DUP1 REVERT JUMPDEST PUSH1 0x0 DUP1 REVERT JUMPDEST PUSH1 0x0 PUSH1 0x1F NOT PUSH1 0x1F DUP4 ADD AND SWAP1 POP SWAP2 SWAP1 POP JUMP JUMPDEST PUSH32 0x4E487B7100000000000000000000000000000000000000000000000000000000 PUSH1 0x0 MSTORE PUSH1 0x41 PUSH1 0x4 MSTORE PUSH1 0x24 PUSH1 0x0 REVERT JUMPDEST PUSH2 0x7DB DUP3 PUSH2 0x792 JUMP JUMPDEST DUP2 ADD DUP2 DUP2 LT PUSH8 0xFFFFFFFFFFFFFFFF DUP3 GT OR ISZERO PUSH2 0x7FA JUMPI PUSH2 0x7F9 PUSH2 0x7A3 JUMP JUMPDEST JUMPDEST DUP1 PUSH1 0x40 MSTORE POP POP POP JUMP JUMPDEST PUSH1 0x0 PUSH2 0x80D PUSH2 0x6D7 JUMP JUMPDEST SWAP1 POP PUSH2 0x819 DUP3 DUP3 PUSH2 0x7D2 JUMP JUMPDEST SWAP2 SWAP1 POP JUMP JUMPDEST PUSH1 0x0 PUSH8 0xFFFFFFFFFFFFFFFF DUP3 GT ISZERO PUSH2 0x839 JUMPI PUSH2 0x838 PUSH2 0x7A3 JUMP JUMPDEST JUMPDEST PUSH2 0x842 DUP3 PUSH2 0x792 JUMP JUMPDEST SWAP1 POP PUSH1 0x20 DUP2 ADD SWAP1 POP SWAP2 SWAP1 POP JUMP JUMPDEST DUP3 DUP2 DUP4 CALLDATACOPY PUSH1 0x0 DUP4 DUP4 ADD MSTORE POP POP POP JUMP JUMPDEST PUSH1 0x0 PUSH2 0x871 PUSH2 0x86C DUP5 PUSH2 0x81E JUMP JUMPDEST PUSH2 0x803 JUMP JUMPDEST SWAP1 POP DUP3 DUP2 MSTORE PUSH1 0x20 DUP2 ADD DUP5 DUP5 DUP5 ADD GT ISZERO PUSH2 0x88D JUMPI PUSH2 0x88C PUSH2 0x78D JUMP JUMPDEST JUMPDEST PUSH2 0x898 DUP5 DUP3 DUP6 PUSH2 0x84F JUMP JUMPDEST POP SWAP4 SWAP3 POP POP POP JUMP JUMPDEST PUSH1 0x0 DUP3 PUSH1 0x1F DUP4 ADD SLT PUSH2 0x8B5 JUMPI PUSH2 0x8B4 PUSH2 0x788 JUMP JUMPDEST JUMPDEST DUP2 CALLDATALOAD PUSH2 0x8C5 DUP5 DUP3 PUSH1 0x20 DUP7 ADD PUSH2 0x85E JUMP JUMPDEST SWAP2 POP POP SWAP3 SWAP2 POP POP JUMP JUMPDEST PUSH1 0x0 DUP1 PUSH1 0x40 DUP4 DUP6 SUB SLT ISZERO PUSH2 0x8E5 JUMPI PUSH2 0x8E4 PUSH2 0x6E1 JUMP JUMPDEST JUMPDEST PUSH1 0x0 DUP4 ADD CALLDATALOAD PUSH8 0xFFFFFFFFFFFFFFFF DUP2 GT ISZERO PUSH2 0x903 JUMPI PUSH2 0x902 PUSH2 0x6E6 JUMP JUMPDEST JUMPDEST PUSH2 0x90F DUP6 DUP3 DUP7 ADD PUSH2 0x8A0 JUMP JUMPDEST SWAP3 POP POP PUSH1 0x20 DUP4 ADD CALLDATALOAD PUSH8 0xFFFFFFFFFFFFFFFF DUP2 GT ISZERO PUSH2 0x930 JUMPI PUSH2 0x92F PUSH2 0x6E6 JUMP JUMPDEST JUMPDEST PUSH2 0x93C DUP6 DUP3 DUP7 ADD PUSH2 0x8A0 JUMP JUMPDEST SWAP2 POP POP SWAP3 POP SWAP3 SWAP1 POP JUMP JUMPDEST PUSH1 0x0 PUSH1 0x20 DUP3 DUP5 SUB SLT ISZERO PUSH2 0x95C JUMPI PUSH2 0x95B PUSH2 0x6E1 JUMP JUMPDEST JUMPDEST PUSH1 0x0 DUP3 ADD CALLDATALOAD PUSH8 0xFFFFFFFFFFFFFFFF DUP2 GT ISZERO PUSH2 0x97A JUMPI PUSH2 0x979 PUSH2 0x6E6 JUMP JUMPDEST JUMPDEST PUSH2 0x986 DUP5 DUP3 DUP6 ADD PUSH2 0x8A0 JUMP JUMPDEST SWAP2 POP POP SWAP3 SWAP2 POP POP JUMP JUMPDEST PUSH1 0x0 PUSH20 0xFFFFFFFFFFFFFFFFFFFFFFFFFFFFFFFFFFFFFFFF DUP3 AND SWAP1 POP SWAP2 SWAP1 POP JUMP JUMPDEST PUSH1 0x0 DUP2 SWAP1 POP SWAP2 SWAP1 POP JUMP JUMPDEST PUSH1 0x0 PUSH2 0x9D4 PUSH2 0x9CF PUSH2 0x9CA DUP5 PUSH2 0x98F JUMP JUMPDEST PUSH2 0x9AF JUMP JUMPDEST PUSH2 0x98F JUMP JUMPDEST SWAP1 POP SWAP2 SWAP1 POP JUMP JUMPDEST PUSH1 0x0 PUSH2 0x9E6 DUP3 PUSH2 0x9B9 JUMP JUMPDEST SWAP1 POP SWAP2 SWAP1 POP JUMP JUMPDEST PUSH1 0x0 PUSH2 0x9F8 DUP3 PUSH2 0x9DB JUMP JUMPDEST SWAP1 POP SWAP2 SWAP1 POP JUMP JUMPDEST PUSH2 0xA08 DUP2 PUSH2 0x9ED JUMP JUMPDEST DUP3 MSTORE POP POP JUMP JUMPDEST PUSH1 0x0 PUSH1 0x20 DUP3 ADD SWAP1 POP PUSH2 0xA23 PUSH1 0x0 DUP4 ADD DUP5 PUSH2 0x9FF JUMP JUMPDEST SWAP3 SWAP2 POP POP JUMP JUMPDEST PUSH1 0x0 DUP2 SWAP1 POP SWAP2 SWAP1 POP JUMP JUMPDEST PUSH2 0xA3C DUP2 PUSH2 0xA29 JUMP JUMPDEST DUP3 MSTORE POP POP JUMP JUMPDEST PUSH1 0x0 PUSH1 0x20 DUP3 ADD SWAP1 POP PUSH2 0xA57 PUSH1 0x0 DUP4 ADD DUP5 PUSH2 0xA33 JUMP JUMPDEST SWAP3 SWAP2 POP POP JUMP JUMPDEST PUSH1 0x0 DUP1 PUSH1 0x0 PUSH1 0x60 DUP5 DUP7 SUB SLT ISZERO PUSH2 0xA76 JUMPI PUSH2 0xA75 PUSH2 0x6E1 JUMP JUMPDEST JUMPDEST PUSH1 0x0 DUP5 ADD CALLDATALOAD PUSH8 0xFFFFFFFFFFFFFFFF DUP2 GT ISZERO PUSH2 0xA94 JUMPI PUSH2 0xA93 PUSH2 0x6E6 JUMP JUMPDEST JUMPDEST PUSH2 0xAA0 DUP7 DUP3 DUP8 ADD PUSH2 0x8A0 JUMP JUMPDEST SWAP4 POP POP PUSH1 0x20 DUP5 ADD CALLDATALOAD PUSH8 0xFFFFFFFFFFFFFFFF DUP2 GT ISZERO PUSH2 0xAC1 JUMPI PUSH2 0xAC0 PUSH2 0x6E6 JUMP JUMPDEST JUMPDEST PUSH2 0xACD DUP7 DUP3 DUP8 ADD PUSH2 0x8A0 JUMP JUMPDEST SWAP3 POP POP PUSH1 0x40 DUP5 ADD CALLDATALOAD PUSH8 0xFFFFFFFFFFFFFFFF DUP2 GT ISZERO PUSH2 0xAEE JUMPI PUSH2 0xAED PUSH2 0x6E6 JUMP JUMPDEST JUMPDEST PUSH2 0xAFA DUP7 DUP3 DUP8 ADD PUSH2 0x8A0 JUMP JUMPDEST SWAP2 POP POP SWAP3 POP SWAP3 POP SWAP3 JUMP JUMPDEST PUSH1 0x0 PUSH8 0xFFFFFFFFFFFFFFFF DUP3 GT ISZERO PUSH2 0xB1F JUMPI PUSH2 0xB1E PUSH2 0x7A3 JUMP JUMPDEST JUMPDEST PUSH2 0xB28 DUP3 PUSH2 0x792 JUMP JUMPDEST SWAP1 POP PUSH1 0x20 DUP2 ADD SWAP1 POP SWAP2 SWAP1 POP JUMP JUMPDEST PUSH1 0x0 PUSH2 0xB48 PUSH2 0xB43 DUP5 PUSH2 0xB04 JUMP JUMPDEST PUSH2 0x803 JUMP JUMPDEST SWAP1 POP DUP3 DUP2 MSTORE PUSH1 0x20 DUP2 ADD DUP5 DUP5 DUP5 ADD GT ISZERO PUSH2 0xB64 JUMPI PUSH2 0xB63 PUSH2 0x78D JUMP JUMPDEST JUMPDEST PUSH2 0xB6F DUP5 DUP3 DUP6 PUSH2 0x84F JUMP JUMPDEST POP SWAP4 SWAP3 POP POP POP JUMP JUMPDEST PUSH1 0x0 DUP3 PUSH1 0x1F DUP4 ADD SLT PUSH2 0xB8C JUMPI PUSH2 0xB8B PUSH2 0x788 JUMP JUMPDEST JUMPDEST DUP2 CALLDATALOAD PUSH2 0xB9C DUP5 DUP3 PUSH1 0x20 DUP7 ADD PUSH2 0xB35 JUMP JUMPDEST SWAP2 POP POP SWAP3 SWAP2 POP POP JUMP JUMPDEST PUSH1 0x0 PUSH1 0x20 DUP3 DUP5 SUB SLT ISZERO PUSH2 0xBBB JUMPI PUSH2 0xBBA PUSH2 0x6E1 JUMP JUMPDEST JUMPDEST PUSH1 0x0 DUP3 ADD CALLDATALOAD PUSH8 0xFFFFFFFFFFFFFFFF DUP2 GT ISZERO PUSH2 0xBD9 JUMPI PUSH2 0xBD8 PUSH2 0x6E6 JUMP JUMPDEST JUMPDEST PUSH2 0xBE5 DUP5 DUP3 DUP6 ADD PUSH2 0xB77 JUMP JUMPDEST SWAP2 POP POP SWAP3 SWAP2 POP POP JUMP JUMPDEST PUSH1 0x0 DUP2 ISZERO ISZERO SWAP1 POP SWAP2 SWAP1 POP JUMP JUMPDEST PUSH2 0xC03 DUP2 PUSH2 0xBEE JUMP JUMPDEST DUP3 MSTORE POP POP JUMP JUMPDEST PUSH1 0x0 PUSH1 0x20 DUP3 ADD SWAP1 POP PUSH2 0xC1E PUSH1 0x0 DUP4 ADD DUP5 PUSH2 0xBFA JUMP JUMPDEST SWAP3 SWAP2 POP POP JUMP JUMPDEST PUSH1 0x0 DUP2 MLOAD SWAP1 POP SWAP2 SWAP1 POP JUMP JUMPDEST PUSH1 0x0 DUP2 SWAP1 POP SWAP3 SWAP2 POP POP JUMP JUMPDEST PUSH1 0x0 JUMPDEST DUP4 DUP2 LT ISZERO PUSH2 0xC58 JUMPI DUP1 DUP3 ADD MLOAD DUP2 DUP5 ADD MSTORE PUSH1 0x20 DUP2 ADD SWAP1 POP PUSH2 0xC3D JUMP JUMPDEST PUSH1 0x0 DUP5 DUP5 ADD MSTORE POP POP POP POP JUMP JUMPDEST PUSH1 0x0 PUSH2 0xC6F DUP3 PUSH2 0xC24 JUMP JUMPDEST PUSH2 0xC79 DUP2 DUP6 PUSH2 0xC2F JUMP JUMPDEST SWAP4 POP PUSH2 0xC89 DUP2 DUP6 PUSH1 0x20 DUP7 ADD PUSH2 0xC3A JUMP JUMPDEST DUP1 DUP5 ADD SWAP2 POP POP SWAP3 SWAP2 POP POP JUMP JUMPDEST PUSH1 0x0 PUSH2 0xCA1 DUP3 DUP5 PUSH2 0xC64 JUMP JUMPDEST SWAP2 POP DUP2 SWAP1 POP SWAP3 SWAP2 POP POP JUMP JUMPDEST PUSH1 0x0 DUP3 DUP3 MSTORE PUSH1 0x20 DUP3 ADD SWAP1 POP SWAP3 SWAP2 POP POP JUMP JUMPDEST PUSH1 0x0 PUSH2 0xCC8 DUP3 PUSH2 0xC24 JUMP JUMPDEST PUSH2 0xCD2 DUP2 DUP6 PUSH2 0xCAC JUMP JUMPDEST SWAP4 POP PUSH2 0xCE2 DUP2 DUP6 PUSH1 0x20 DUP7 ADD PUSH2 0xC3A JUMP JUMPDEST PUSH2 0xCEB DUP2 PUSH2 0x792 JUMP JUMPDEST DUP5 ADD SWAP2 POP POP SWAP3 SWAP2 POP POP JUMP JUMPDEST PUSH1 0x0 PUSH1 0x20 DUP3 ADD SWAP1 POP DUP2 DUP2 SUB PUSH1 0x0 DUP4 ADD MSTORE PUSH2 0xD10 DUP2 DUP5 PUSH2 0xCBD JUMP JUMPDEST SWAP1 POP SWAP3 SWAP2 POP POP JUMP JUMPDEST PUSH32 0x43616C6C6572206973206E6F74206F776E657200000000000000000000000000 PUSH1 0x0 DUP3 ADD MSTORE POP JUMP JUMPDEST PUSH1 0x0 PUSH2 0xD4E PUSH1 0x13 DUP4 PUSH2 0xCAC JUMP JUMPDEST SWAP2 POP PUSH2 0xD59 DUP3 PUSH2 0xD18 JUMP JUMPDEST PUSH1 0x20 DUP3 ADD SWAP1 POP SWAP2 SWAP1 POP JUMP JUMPDEST PUSH1 0x0 PUSH1 0x20 DUP3 ADD SWAP1 POP DUP2 DUP2 SUB PUSH1 0x0 DUP4 ADD MSTORE PUSH2 0xD7D DUP2 PUSH2 0xD41 JUMP JUMPDEST SWAP1 POP SWAP2 SWAP1 POP JUMP JUMPDEST PUSH1 0x0 PUSH1 0x60 DUP3 ADD SWAP1 POP DUP2 DUP2 SUB PUSH1 0x0 DUP4 ADD MSTORE PUSH2 0xD9E DUP2 DUP7 PUSH2 0xCBD JUMP JUMPDEST SWAP1 POP DUP2 DUP2 SUB PUSH1 0x20 DUP4 ADD MSTORE PUSH2 0xDB2 DUP2 DUP6 PUSH2 0xCBD JUMP JUMPDEST SWAP1 POP DUP2 DUP2 SUB PUSH1 0x40 DUP4 ADD MSTORE PUSH2 0xDC6 DUP2 DUP5 PUSH2 0xCBD JUMP JUMPDEST SWAP1 POP SWAP5 SWAP4 POP POP POP POP JUMP JUMPDEST PUSH32 0x4E487B7100000000000000000000000000000000000000000000000000000000 PUSH1 0x0 MSTORE PUSH1 0x11 PUSH1 0x4 MSTORE PUSH1 0x24 PUSH1 0x0 REVERT JUMPDEST PUSH1 0x0 PUSH2 0xE0A DUP3 PUSH2 0x6EB JUMP JUMPDEST SWAP2 POP PUSH2 0xE15 DUP4 PUSH2 0x6EB JUMP JUMPDEST SWAP3 POP DUP3 DUP3 MUL PUSH2 0xE23 DUP2 PUSH2 0x6EB JUMP JUMPDEST SWAP2 POP DUP3 DUP3 DIV DUP5 EQ DUP4 ISZERO OR PUSH2 0xE3A JUMPI PUSH2 0xE39 PUSH2 0xDD0 JUMP JUMPDEST JUMPDEST POP SWAP3 SWAP2 POP POP JUMP JUMPDEST PUSH1 0x0 DUP2 PUSH1 0x1 SHR SWAP1 POP SWAP2 SWAP1 POP JUMP JUMPDEST PUSH1 0x0 DUP1 DUP3 SWAP2 POP DUP4 SWAP1 POP JUMPDEST PUSH1 0x1 DUP6 GT ISZERO PUSH2 0xE98 JUMPI DUP1 DUP7 DIV DUP2 GT ISZERO PUSH2 0xE74 JUMPI PUSH2 0xE73 PUSH2 0xDD0 JUMP JUMPDEST JUMPDEST PUSH1 0x1 DUP6 AND ISZERO PUSH2 0xE83 JUMPI DUP1 DUP3 MUL SWAP2 POP JUMPDEST DUP1 DUP2 MUL SWAP1 POP PUSH2 0xE91 DUP6 PUSH2 0xE41 JUMP JUMPDEST SWAP5 POP PUSH2 0xE58 JUMP JUMPDEST SWAP5 POP SWAP5 SWAP3 POP POP POP JUMP JUMPDEST PUSH1 0x0 DUP3 PUSH2 0xEB1 JUMPI PUSH1 0x1 SWAP1 POP PUSH2 0xF6D JUMP JUMPDEST DUP2 PUSH2 0xEBF JUMPI PUSH1 0x0 SWAP1 POP PUSH2 0xF6D JUMP JUMPDEST DUP2 PUSH1 0x1 DUP2 EQ PUSH2 0xED5 JUMPI PUSH1 0x2 DUP2 EQ PUSH2 0xEDF JUMPI PUSH2 0xF0E JUMP JUMPDEST PUSH1 0x1 SWAP2 POP POP PUSH2 0xF6D JUMP JUMPDEST PUSH1 0xFF DUP5 GT ISZERO PUSH2 0xEF1 JUMPI PUSH2 0xEF0 PUSH2 0xDD0 JUMP JUMPDEST JUMPDEST DUP4 PUSH1 0x2 EXP SWAP2 POP DUP5 DUP3 GT ISZERO PUSH2 0xF08 JUMPI PUSH2 0xF07 PUSH2 0xDD0 JUMP JUMPDEST JUMPDEST POP PUSH2 0xF6D JUMP JUMPDEST POP PUSH1 0x20 DUP4 LT PUSH2 0x133 DUP4 LT AND PUSH1 0x4E DUP5 LT PUSH1 0xB DUP5 LT AND OR ISZERO PUSH2 0xF43 JUMPI DUP3 DUP3 EXP SWAP1 POP DUP4 DUP2 GT ISZERO PUSH2 0xF3E JUMPI PUSH2 0xF3D PUSH2 0xDD0 JUMP JUMPDEST JUMPDEST PUSH2 0xF6D JUMP JUMPDEST PUSH2 0xF50 DUP5 DUP5 DUP5 PUSH1 0x1 PUSH2 0xE4E JUMP JUMPDEST SWAP3 POP SWAP1 POP DUP2 DUP5 DIV DUP2 GT ISZERO PUSH2 0xF67 JUMPI PUSH2 0xF66 PUSH2 0xDD0 JUMP JUMPDEST JUMPDEST DUP2 DUP2 MUL SWAP1 POP JUMPDEST SWAP4 SWAP3 POP POP POP JUMP JUMPDEST PUSH1 0x0 PUSH2 0xF7F DUP3 PUSH2 0x6EB JUMP JUMPDEST SWAP2 POP PUSH2 0xF8A DUP4 PUSH2 0x6EB JUMP JUMPDEST SWAP3 POP PUSH2 0xFB7 PUSH32 0xFFFFFFFFFFFFFFFFFFFFFFFFFFFFFFFFFFFFFFFFFFFFFFFFFFFFFFFFFFFFFFFF DUP5 DUP5 PUSH2 0xEA1 JUMP JUMPDEST SWAP1 POP SWAP3 SWAP2 POP POP JUMP JUMPDEST PUSH32 0x4E487B7100000000000000000000000000000000000000000000000000000000 PUSH1 0x0 MSTORE PUSH1 0x32 PUSH1 0x4 MSTORE PUSH1 0x24 PUSH1 0x0 REVERT JUMPDEST PUSH1 0x0 PUSH2 0xFF9 DUP3 PUSH2 0x6EB JUMP JUMPDEST SWAP2 POP PUSH2 0x1004 DUP4 PUSH2 0x6EB JUMP JUMPDEST SWAP3 POP DUP3 DUP3 ADD SWAP1 POP DUP1 DUP3 GT ISZERO PUSH2 0x101C JUMPI PUSH2 0x101B PUSH2 0xDD0 JUMP JUMPDEST JUMPDEST SWAP3 SWAP2 POP POP JUMP JUMPDEST PUSH1 0x0 PUSH2 0x102D DUP3 PUSH2 0x6EB JUMP JUMPDEST SWAP2 POP PUSH32 0xFFFFFFFFFFFFFFFFFFFFFFFFFFFFFFFFFFFFFFFFFFFFFFFFFFFFFFFFFFFFFFFF DUP3 SUB PUSH2 0x105F JUMPI PUSH2 0x105E PUSH2 0xDD0 JUMP JUMPDEST JUMPDEST PUSH1 0x1 DUP3 ADD SWAP1 POP SWAP2 SWAP1 POP JUMP INVALID LOG2 PUSH5 0x6970667358 0x22 SLT KECCAK256 SWAP14 DUP12 PUSH13 0xA23D1BA40A1DD1A64DC0D35847 DUP2 0x2E 0x4E CALLVALUE SELFBALANCE LT 0x5D 0x22 0xFB 0x5E PUSH16 0x696FB275A64736F6C63430008120033 "
		},
		"gasEstimates": {
			"creation": {
				"codeDepositCost": "851200",
				"executionCost": "25149",
				"totalCost": "876349"
			},
			"external": {
				"add_Company(bytes)": "infinite",
				"add_Employee(string,string)": "infinite",
				"add_review(uint256,uint256,uint256,uint256)": "infinite",
				"calculateURLHash(string)": "infinite",
				"old_comapnies(string)": "infinite",
				"remove_Company(string)": "infinite",
				"review_Request(string,string,string)": "infinite",
				"verified_companies(string)": "infinite",
				"verify_Company(string)": "infinite"
			},
			"internal": {
				"bytes32ToString(bytes32)": "infinite"
			}
		},
		"methodIdentifiers": {
			"add_Company(bytes)": "91b2752b",
			"add_Employee(string,string)": "1198df2c",
			"add_review(uint256,uint256,uint256,uint256)": "012663f3",
			"calculateURLHash(string)": "6606ea26",
			"old_comapnies(string)": "4e5240a6",
			"remove_Company(string)": "b6ff5589",
			"review_Request(string,string,string)": "798166ea",
			"verified_companies(string)": "51e05d8f",
			"verify_Company(string)": "c3d9cc27"
		}
	},
	"abi": [
		{
			"inputs": [],
			"stateMutability": "nonpayable",
			"type": "constructor"
		},
		{
			"inputs": [
				{
					"internalType": "bytes",
					"name": "url",
					"type": "bytes"
				}
			],
			"name": "add_Company",
			"outputs": [
				{
					"internalType": "bytes32",
					"name": "",
					"type": "bytes32"
				}
			],
			"stateMutability": "pure",
			"type": "function"
		},
		{
			"inputs": [
				{
					"internalType": "string",
					"name": "employee_ID",
					"type": "string"
				},
				{
					"internalType": "string",
					"name": "url",
					"type": "string"
				}
			],
			"name": "add_Employee",
			"outputs": [],
			"stateMutability": "nonpayable",
			"type": "function"
		},
		{
			"inputs": [
				{
					"internalType": "uint256",
					"name": "punctuality",
					"type": "uint256"
				},
				{
					"internalType": "uint256",
					"name": "hard_working",
					"type": "uint256"
				},
				{
					"internalType": "uint256",
					"name": "skill",
					"type": "uint256"
				},
				{
					"internalType": "uint256",
					"name": "fast_learner",
					"type": "uint256"
				}
			],
			"name": "add_review",
			"outputs": [],
			"stateMutability": "pure",
			"type": "function"
		},
		{
			"inputs": [
				{
					"internalType": "string",
					"name": "url",
					"type": "string"
				}
			],
			"name": "calculateURLHash",
			"outputs": [
				{
					"internalType": "bytes32",
					"name": "",
					"type": "bytes32"
				}
			],
			"stateMutability": "pure",
			"type": "function"
		},
		{
			"inputs": [
				{
					"internalType": "string",
					"name": "",
					"type": "string"
				}
			],
			"name": "old_comapnies",
			"outputs": [
				{
					"internalType": "contract Company",
					"name": "",
					"type": "address"
				}
			],
			"stateMutability": "view",
			"type": "function"
		},
		{
			"inputs": [
				{
					"internalType": "string",
					"name": "ID",
					"type": "string"
				}
			],
			"name": "remove_Company",
			"outputs": [],
			"stateMutability": "nonpayable",
			"type": "function"
		},
		{
			"inputs": [
				{
					"internalType": "string",
					"name": "requested_company_ID",
					"type": "string"
				},
				{
					"internalType": "string",
					"name": "user_ID",
					"type": "string"
				},
				{
					"internalType": "string",
					"name": "current_company_ID",
					"type": "string"
				}
			],
			"name": "review_Request",
			"outputs": [],
			"stateMutability": "nonpayable",
			"type": "function"
		},
		{
			"inputs": [
				{
					"internalType": "string",
					"name": "",
					"type": "string"
				}
			],
			"name": "verified_companies",
			"outputs": [
				{
					"internalType": "contract Company",
					"name": "",
					"type": "address"
				}
			],
			"stateMutability": "view",
			"type": "function"
		},
		{
			"inputs": [
				{
					"internalType": "string",
					"name": "url",
					"type": "string"
				}
			],
			"name": "verify_Company",
			"outputs": [
				{
					"internalType": "bool",
					"name": "",
					"type": "bool"
				}
			],
			"stateMutability": "nonpayable",
			"type": "function"
		}
	]
}